ARM GAS  /tmp/cc8l9baa.s 			page 1


   1              		.syntax unified
   2              		.cpu cortex-m4
   3              		.fpu softvfp
   4              		.eabi_attribute 20, 1
   5              		.eabi_attribute 21, 1
   6              		.eabi_attribute 23, 3
   7              		.eabi_attribute 24, 1
   8              		.eabi_attribute 25, 1
   9              		.eabi_attribute 26, 1
  10              		.eabi_attribute 30, 2
  11              		.eabi_attribute 34, 1
  12              		.eabi_attribute 18, 4
  13              		.thumb
  14              		.syntax unified
  15              		.file	"chmsg.c"
  16              		.text
  17              	.Ltext0:
  18              		.section	.gnu.lto_.profile.9e0893ee78b1cdfb,"",%progbits
  19 0000 789C6361 		.ascii	"x\234ca`d`a`\000\222~\352\000\001-\000\200"
  19      60646061 
  19      6000927E 
  19      EA00012D 
  19      0080
  20              		.text
  21              		.section	.gnu.lto_.icf.9e0893ee78b1cdfb,"",%progbits
  22 0000 789C6361 		.ascii	"x\234ca`d\000\001\021\006\004`fX\263\370\303{&\246e"
  22      60640001 
  22      11060460 
  22      6658B3F8 
  22      C37B26A6 
  23 0015 57B7CDE0 		.ascii	"W\267\315\340c\376vg\331\0366\006\000d\234\011c"
  23      63FE7667 
  23      D91E3606 
  23      00649C09 
  23      63
  24              		.text
  25              		.section	.gnu.lto_.jmpfuncs.9e0893ee78b1cdfb,"",%progbits
  26 0000 789C6361 		.ascii	"x\234ca`d\000\201P\006\004`f`bdd\256\257gb\374\313\304"
  26      60640081 
  26      50060460 
  26      66606264 
  26      64AEAF67 
  27 0018 F8FBC594 		.ascii	"\370\373\305\224\233\214_\230Z\231\031\030y\030\227"
  27      9B8C5F98 
  27      5A991918 
  27      791897
  28 0027 33CA3030 		.ascii	"3\3120001U\202T1\001\021H\301\337;\215\377\230 \012"
  28      30315582 
  28      54310111 
  28      48C1DF3B 
  28      8DFF9820 
  29 003c F8185780 		.ascii	"\370\030W\200\0240\203\26432\262@\325U\202m\000\000"
  29      143083B4 
  29      3332B240 
  29      D555826D 
  29      0000
  30 004e 503C103D 		.ascii	"P<\020="
ARM GAS  /tmp/cc8l9baa.s 			page 2


  31              		.text
  32              		.section	.gnu.lto_.inline.9e0893ee78b1cdfb,"",%progbits
  33 0000 789C6361 		.ascii	"x\234ca`d\000\2018\006\004`f`\020\221addP\000J1\211"
  33      60640081 
  33      38060460 
  33      66601091 
  33      61646450 
  34 0018 DFD8CCC8 		.ascii	"\337\330\314\310\300y\303\214\011$\303\304\315\000T"
  34      C079C38C 
  34      0924C3C4 
  34      CD0054
  35 0027 0F2627F8 		.ascii	"\017&'\37011\010\362\0039\022\007v32\260-\220GR\300"
  35      313108F2 
  35      03391207 
  35      763332B0 
  35      2D904752 
  36 003c CCC02100 		.ascii	"\314\300!\000\224aY \017\227`\346\001JN\360\233\340"
  36      94615920 
  36      0F9760E6 
  36      014A4EF0 
  36      9BE0
  37 004e C70000EF 		.ascii	"\307\000\000\357,\012u"
  37      2C0A75
  38              		.text
  39              		.section	.gnu.lto_.pureconst.9e0893ee78b1cdfb,"",%progbits
  40 0000 789C6361 		.ascii	"x\234ca`d\340b```f\330\305\310\264\213\221y\027#\000"
  40      6064E062 
  40      60606066 
  40      D8C5C8B4 
  40      8B917917 
  41 0016 0C1B0249 		.ascii	"\014\033\002I"
  42              		.text
  43              		.section	.gnu.lto_chMsgSend.9e0893ee78b1cdfb,"",%progbits
  44 0000 789C9555 		.ascii	"x\234\225UkLTW\020>s\317e\367\356.\260\264\376iZS\227"
  44      6B4C5457 
  44      103E73CF 
  44      65F7EE2E 
  44      B0B4FE69 
  45 0017 1FC49828 		.ascii	"\037\304\230(\267M\233X\333\244M\343/\177\2206\322\244"
  45      B74D9B58 
  45      DBA44DE3 
  45      2F7F9036 
  45      D2A4
  46 0029 7F9A9876 		.ascii	"\177\232\230v%B\322\025\334\245\215&m\270<V%m\214&`"
  46      2542D215 
  46      DCA58D26 
  46      6DB83C56 
  46      256D8C26 
  47 003e 4068495B 		.ascii	"@hI[\210\370\006k\253`\305Ee\261\210\" >x?\344\215\255"
  47      88F8066B 
  47      AB60C545 
  47      65B18822 
  47      203E783F 
  48 0055 54ADC6CA 		.ascii	"T\255\306\312ng\316\275\340\262\013\332\336\300\356"
  48      6E67CEBD 
  48      E0B20BDA 
  48      DEC0EE
ARM GAS  /tmp/cc8l9baa.s 			page 3


  49 0064 DE7366E6 		.ascii	"\336sf\346\233\371\2769gd\006\214\2362\013c\217\361"
  49      9BF9BE39 
  49      6764068C 
  49      9E320B63 
  49      8FF1
  50 0076 FB4DFC87 		.ascii	"\373M\374\207(\006\322\356+\214e+\222\304\375v\246Y"
  50      2806D2EE 
  50      2B8C652B 
  50      92C4FD76 
  50      A659
  51 0088 E5A67799 		.ascii	"\345\246w\231\026\315A\326\227e\000\372\241)\300\262"
  51      16CD41D6 
  51      976500FA 
  51      A129C0B2 
  52 0098 242E4316 		.ascii	"$.C\026<\220f$h\315\253*\345\367%/g \343\353\364\345"
  52      3C906624 
  52      68CDAB2A 
  52      E5F7252F 
  52      6720E3EB 
  53 00ae 7D43B1F4 		.ascii	"}C\261\364\012\340\300\327\3335\333\357\310+\366k\370"
  53      0AE0C0D7 
  53      DB35DBEF 
  53      C82BF66B 
  53      F8
  54 00bf F40F4FBE 		.ascii	"\364\017O\276U\\\351\223\275\\bA\211A%,\205\375\260"
  54      555CE993 
  54      BD5C6241 
  54      8941252C 
  54      85FDB0
  55 00d2 94B00FC0 		.ascii	"\224\260\017\300\012\264\2750\374\244\315\306_\005\206"
  55      0AB4BD30 
  55      FCA4CDC6 
  55      5F0586
  56 00e1 BF4BF7F7 		.ascii	"\277K\367\367\227[\226WhZ\216\246=\334\250Y\274\234"
  56      975B9657 
  56      685A8EA6 
  56      3DDCA859 
  56      BC9C
  57 00f3 C341E0A1 		.ascii	"\303A\340\241~\270\304\340\020,G\353\346\252\232\033"
  57      7EB8C4E0 
  57      102C47EB 
  57      E6AA9A1B 
  58 0103 328F179E 		.ascii	"2\217\027\236\005\223\2437\355\344\211OI\012yJp8\334"
  58      0593A337 
  58      EDE4894F 
  58      490A794A 
  58      7038DC
  59 0116 135F8EC0 		.ascii	"\023_\216\300r2o\016\234h\261\362\004\341z\370N\303"
  59      72326F0E 
  59      9C68B1F2 
  59      04E17AF8 
  59      4EC3
  60 0128 1353C24F 		.ascii	"\023S\302O\004\352\233\366\307\026k\276<\007\001\037"
  60      04EA9BF6 
  60      C7166BBE 
  60      3C07011F 
  61 0138 9DEF4E0F 		.ascii	"\235\357N\017Z\017V\007\012cLy\204\343\200c\220\220"
ARM GAS  /tmp/cc8l9baa.s 			page 4


  61      5A0F5607 
  61      0A634C79 
  61      84E38063 
  61      9090
  62 014a CF19D585 		.ascii	"\317\031\325\205\345T\201\011\011\006Z<\266\336\247"
  62      E5548109 
  62      09065A3C 
  62      B6DEA7
  63 0159 0583B99A 		.ascii	"\005\203\271\232\257\317\324\371\350\236\262\004S\306"
  63      AFCFD4F9 
  63      E89EB204 
  63      53C6
  64 0167 D5282078 		.ascii	"\325( x3P\372\012\246#[\361#*F$e\027\205\261\273\030"
  64      3350FA0A 
  64      A6235BF1 
  64      232A4624 
  64      651785B1 
  65 017d 89E89E96 		.ascii	"\211\350\236\226$\372\346#\220S[\335\335\312)x.\347"
  65      24FAE623 
  65      90535BDD 
  65      DDCA2978 
  65      2EE7
  66 018f 88BFD77B 		.ascii	"\210\277\327{\256\305LL\233D\36255S]\346\254\031m\247"
  66      AEC54C4C 
  66      9B44F235 
  66      35535DE6 
  66      AC196DA7 
  67 01a3 A6C5E15A 		.ascii	"\246\305\341Z>\007\221\345Ds\307\005k\031|\227\255\211"
  67      3E0791E5 
  67      4473C705 
  67      6B197C97 
  67      AD89
  68 01b5 75331C47 		.ascii	"u3\034G\341\252\251\012\334\334u\252*_Q\217\010\256"
  68      E1AAA90A 
  68      DCDC75AA 
  68      2A5F518F 
  68      08AE
  69 01c7 3EF67205 		.ascii	">\366r\005~\2062\010HF\201\015\337\266\226+\352*b\340"
  69      7E863208 
  69      4846810D 
  69      DFB6962B 
  69      EA2A62E0 
  70 01db 04A80189 		.ascii	"\004\250\001\211\232\006~\001\225\015B\216\366\216\250"
  70      9A067E01 
  70      950D428E 
  70      F68EA8
  71 01ea 126BC164 		.ascii	"\022k\301dh!\216<*\232\332\316\332\370\012\221\317\375"
  71      68218E3C 
  71      2A9ADACE 
  71      DAF80A91 
  71      CFFD
  72 01fc A2EA4A8B 		.ascii	"\242\352J\213Nf\177\373xR}\305vmw\266\342\345\026\370"
  72      4E667FFB 
  72      78527DC5 
  72      766D77B6 
  72      E2E516F8 
  73 0210 35924E38 		.ascii	"5\222N8\011\011\350\263c\\;#SI\026p\300)\334\033\205"
ARM GAS  /tmp/cc8l9baa.s 			page 5


  73      0909E8B3 
  73      635C3B23 
  73      53491670 
  73      C029DC1B 
  74 0225 9CC1A0FF 		.ascii	"\234\301\240\377\217\325\363\351\366\345\367\202`9("
  74      8FD5F3E9 
  74      F6E5F782 
  74      603928
  75 0234 419812BE 		.ascii	"A\230\022\276\361\302K\324\3125\264)\205oV\264\227\002"
  75      F1C24BD4 
  75      CA35B429 
  75      856F56B4 
  75      9702
  76 0246 1016835A 		.ascii	"\020\026\203Z2\340\341:28\015&L\3477R\020X-\340\376"
  76      32E0E13A 
  76      32380D26 
  76      4CE73752 
  76      10582DE0 
  77 025b 8F65C71F 		.ascii	"\217e\307\037Y\343/A\231V\204\335`%\227#C\2475EF\236"
  77      59E32F41 
  77      995684DD 
  77      60259723 
  77      43A73545 
  78 0271 E00CC40B 		.ascii	"\340\014\304\013\256\356N]\353\222p\005\352@\026\231"
  78      AEEE4E5D 
  78      EB927005 
  78      EA401699 
  79 0281 33382BCE 		.ascii	"38+\316Ce\335\371\341\350\370+\206\267\215l\377:z\274"
  79      4365DDF9 
  79      E1E8F82B 
  79      86B78D6C 
  79      FF3A7ABC 
  80 0295 C326BC7D 		.ascii	"\303&\274}\344\015\365 #\203\222 \2011\024z_\315x\311"
  80      E40DF520 
  80      23839220 
  80      8131147A 
  80      5FCD78C9 
  81 02a9 47545FA8 		.ascii	"GT_\250\312\\\224\372\260\261ig\264!\247\026\343\345"
  81      CA5C94FA 
  81      B0B16967 
  81      B421A716 
  81      E3E5
  82 02bb D1483F9C 		.ascii	"\321H?\2343\344\254\270\235s\324L\202\305\300y!\244"
  82      33E4ACB8 
  82      9D73D44C 
  82      82C5C079 
  82      21A4
  83 02cd A40BD9BE 		.ascii	"\244\013\331\276[+\002C\3467\350<\\ 99\361\336\000j"
  83      5B2B0243 
  83      E637E83C 
  83      5C203939 
  83      F1DE006A 
  84 02e1 2E8F22D0 		.ascii	".\217\"\320\307;\376.1\351\335\245\204\000\201\3000"
  84      C73BFE2E 
  84      31E9DDA5 
  84      840081C0 
  84      30
ARM GAS  /tmp/cc8l9baa.s 			page 6


  85 02f2 4762C482 		.ascii	"Gb\304\202_`\310:FWy}\271-\353k\354eh\304\026ap\021"
  85      5F60C83A 
  85      4657797D 
  85      B92DEB6B 
  85      EC6568C4 
  86 030a B2A82AA3 		.ascii	"\262\250*\243\214\354C%\245\321\306\321\352\363\363"
  86      8CEC4325 
  86      A5D1C6D1 
  86      EAF3F3
  87 0319 B9A37570 		.ascii	"\271\243up\201^\370}\256\251|3~0\002t\227\364\006,\374"
  87      815EF87D 
  87      AEA97C33 
  87      7E300274 
  87      97F4062C 
  88 032e 3A0816CE 		.ascii	":\010\026\316{\353s\314\021\321dhZ \332%\212\246\350"
  88      7BEB73CC 
  88      11D16468 
  88      5A20DA25 
  88      8AA6E8
  89 0341 B4F6E49E 		.ascii	"\264\366\344\236\334\276,\254'\276\351{\235l\010\325"
  89      DCBE2CAC 
  89      27BEE97B 
  89      9D6C08D5 
  90 0351 E82939B2 		.ascii	"\350)9\262+\232EW\\\026\231\204J\020\267\240\002\202"
  90      2B9A4557 
  90      5C169984 
  90      4A10B7A0 
  90      0282
  91 0363 E9FE07BB 		.ascii	"\351\376\007\273>)\266\022OW\004OQz\22409\326\020\011"
  91      3E29B612 
  91      4F57044F 
  91      517A9430 
  91      39D61009 
  92 0377 2D248749 		.ascii	"-$\207I\337\207\253\244\210\310\267v\272\273x/\020j"
  92      DF87ABA4 
  92      88C8B776 
  92      BABB782F 
  92      106A
  93 0389 2EB7A3DF 		.ascii	".\267\243\337HAv\020\250\025dX\211\257\035-\227\213"
  93      48417610 
  93      A8156458 
  93      89AF1D2D 
  93      978B
  94 039b 6C4FF388 		.ascii	"lO\363\210%\225Z\215<F/\026\214q\375\350\266\011t\263"
  94      25955A8D 
  94      3C462F16 
  94      8C71FDE8 
  94      B60974B3 
  95 03af 11BD1DB5 		.ascii	"\021\275\035\265\301\320{\177X\366\377\252\321lT\311"
  95      C1D07B7F 
  95      58F6FFAA 
  95      D16C54C9 
  96 03bf B5E755D2 		.ascii	"\265\347U\322A\225\314b]\247J\354\202\371\352\236\342"
  96      4195CC62 
  96      5DA74AEC 
  96      82F9EA9E 
  96      E2
ARM GAS  /tmp/cc8l9baa.s 			page 7


  97 03d0 AF1605B4 		.ascii	"\257\026\005\264/\010\230L\2007\236\001\270\205\000"
  97      2F08984C 
  97      80379E01 
  97      B88500
  98 03df 6F865277 		.ascii	"o\206Rw\213\000\271\000\234~\012\370|\236\364x1\024"
  98      8B00B900 
  98      9C7E0AF8 
  98      7C9EF478 
  98      3114
  99 03f1 AF731E5B 		.ascii	"\257s\036[]z@\354\304\376\206?_\0227\036\265\311l_S"
  99      5D7A40EC 
  99      C4FE863F 
  99      5F12371E 
  99      B5C96C5F 
 100 0406 DF305DA9 		.ascii	"\3370]\251\276=\306\315l\375/g\307\016\335\002G\241"
 100      BE3DC6CD 
 100      6CFD2F67 
 100      C70EDD02 
 100      47A1
 101 0418 06ED4149 		.ascii	"\006\355AI\006 \2573\367\345\247\021f\272\263\003\022"
 101      0620AF33 
 101      F7E5A711 
 101      66BAB303 
 101      12
 102 0429 491D05B1 		.ascii	"I\035\005\261\320k\264\3624\036Y\277\235\217A\236oO"
 102      D06BB4F2 
 102      341E59BF 
 102      9D8F419E 
 102      6F4F
 103 043b A34820F2 		.ascii	"\243H \362\336\217\013\"[\014\372\360\360!\262\227\277"
 103      DE8F0B22 
 103      5B0CFAF0 
 103      F021B297 
 103      BF
 104 044c 20FC6431 		.ascii	" \374d1B\310\261\260\021\026v|1(Q\213\367\243#\356\375"
 104      42C8B1B0 
 104      1116767C 
 104      3128518B 
 104      F7A323EE 
 105 0461 3356700B 		.ascii	"3Vp\013t\374h\030\200\245^\276D\257sx\213\236dL\370"
 105      74FC6818 
 105      80A55EBE 
 105      44AF7378 
 105      8B9E644C 
 106 0476 5DB4862D 		.ascii	"]\264\206-~\031\015.v\031\275G\227\321\020Ih!&n\033"
 106      7E190D2E 
 106      7619BD47 
 106      97D11049 
 106      6821266E 
 107 048b B3C52EC8 		.ascii	"\263\305.\310\305Y\2108s\263e\336<9\360\301s\346\311"
 107      C5598838 
 107      73B365DE 
 107      3C39F0C1 
 107      73E6C9
 108 049e B0982773 		.ascii	"\260\230's\227\247\005o\363\221g\314\223\221\331yb\216"
 108      97A7056F 
 108      F39167CC 
ARM GAS  /tmp/cc8l9baa.s 			page 8


 108      9391D979 
 108      628E
 109 04b0 3CFBA374 		.ascii	"<\373\243t\366#\246\314c\2322c\344\242DL\231\311\357"
 109      F623A6CC 
 109      639A3263 
 109      E4A2444C 
 109      99C9EF
 110 04c3 71CA0CD3 		.ascii	"q\312\014\323}2\276\310\224\231\020\367\311d\310\224"
 110      7D32BEC8 
 110      949910F7 
 110      C964C894 
 111 04d3 09940DD4 		.ascii	"\011\224\015\324\331f\007\310\210\030 Sb\200\204O\213"
 111      D96607C8 
 111      88182053 
 111      6280844F 
 111      8B
 112 04e4 3BB3D382 		.ascii	";\263\323\202\000\330\004\265\346\275\253`\250B\265"
 112      00D804B5 
 112      E6BDAB60 
 112      A842B5
 113 04f3 DFC5A188 		.ascii	"\337\305\241\210r\243\307+\211\211\252\376\227\356Q"
 113      72A3C72B 
 113      8989AAFE 
 113      97EE51
 114 0502 DD99AAC7 		.ascii	"\335\231\252\307\355T\235\251.\317\246D'\223238\376"
 114      ED549DA9 
 114      2ECFA644 
 114      27933233 
 114      38FE
 115 0514 E2CECC0C 		.ascii	"\342\316\314\014\363g\237zR>t\247\255\0125w\246\273"
 115      F3679F7A 
 115      523E74A7 
 115      AD0A3577 
 115      A6BB
 116 0526 5CE99BD5 		.ascii	"\\\351\233\325\214tw\246G}\177}\322\332\244\255\350"
 116      8C7477A6 
 116      477D7F7D 
 116      D2DAA4AD 
 116      E8
 117 0537 EB4C77A7 		.ascii	"\353Lw\247l\370r\265+1\225\275\275\200u\312\326L\262"
 117      6CF872B5 
 117      2B3195BD 
 117      BD8075CA 
 117      D64CB2
 118 054a 55D72625 		.ascii	"U\327&%\257KV\327\242\261\272n\263\363\363/6\246\250"
 118      AF4B56D7 
 118      A2B1BA6E 
 118      B3F3F32F 
 118      36A6A8
 119 055d 4E9727CD 		.ascii	"N\227'\315\263a\223\323\211\256\313\302\362J\233\265"
 119      B36193D3 
 119      89AECBC2 
 119      F24A9BB5 
 120 056d 49F56CF3 		.ascii	"I\365l\363\340~\\R\362z\007%\225\341N[\351Hx\215Inf"
 120      E07E5C52 
 120      F27A0725 
 120      95E14E5B 
ARM GAS  /tmp/cc8l9baa.s 			page 9


 120      E948788D 
 121 0584 76A5B8D2 		.ascii	"v\245\270\322\335\333\030\317\334\222\341X\334\337\231"
 121      DDDB18CF 
 121      DC92E158 
 121      DCDF99
 122 0593 BA1103FC 		.ascii	"\272\021\003\374\013\032\245\210 "
 122      0B1AA588 
 122      20
 123              		.text
 124              		.section	.gnu.lto_chMsgWait.9e0893ee78b1cdfb,"",%progbits
 125 0000 789C9555 		.ascii	"x\234\225U]L\024W\024\276g\356\354\316\302,\224\364"
 125      5D4C1457 
 125      14BE67EE 
 125      ECCEC22C 
 125      94F4
 126 0012 B125EDF2 		.ascii	"\261%\355\362\300\203\2110\372\320\230\266O\215/\365"
 126      C0838930 
 126      FAD098B6 
 126      4F8D2FF5 
 127 0022 81B48134 		.ascii	"\201\264\2014m\322\007RW\"$]\301]\332h|\340\356\302"
 127      6DD20752 
 127      5722245D 
 127      C15DDA68 
 127      7CE0EEC2 
 128 0036 56499B46 		.ascii	"VI\233F\0335 \266\244\"QkU~j\005T\\d\005\353\037\005"
 128      1B3520B6 
 128      A422516B 
 128      557E6A05 
 128      545C6405 
 129 004d A53F6215 		.ascii	"\245?b\025\020T\2501P mL\331\3559wfUf\221\352d3;3\367"
 129      1054A831 
 129      50206D4C 
 129      D9ED3977 
 129      66556691 
 130 0067 FC7CE73B 		.ascii	"\374|\347;\337\275Ge\300\350\3726\205\261\027\361\361"
 130      DFBD4765 
 130      C0E8FA36 
 130      85B117F1 
 130      F1
 131 0078 357C0607 		.ascii	"5|\006\007\003e\373\025\306\202.E\341s\032\023\251j"
 131      0365FB15 
 131      C6822E45 
 131      E1731A13 
 131      A96A
 132 008a 5D0F63C2 		.ascii	"]\017c\302\315A5\277\253\000\364 \\\300*\024\256B\005"
 132      CD4135BF 
 132      AB00F420 
 132      5CC02A14 
 132      AE4205
 133 009d CC29F30A 		.ascii	"\314)\363\012\364W5\355\345\263J\2303P\361u\372\362"
 133      F45735ED 
 133      E5B34A98 
 133      3350F175 
 133      FAF2
 134 00af 9EDBE9F4 		.ascii	"\236\333\351\364\012\340\301\327:1P\255-; DH\0147\306"
 134      0AE0C1D7 
 134      3A3150AD 
ARM GAS  /tmp/cc8l9baa.s 			page 10


 134      2D3B2044 
 134      480C37C6 
 135 00c3 3ED85119 		.ascii	">\330Q\031~;\314\025\026W\030\034\204L8\000\231\224"
 135      7E3BCC15 
 135      1657181C 
 135      844C3800 
 135      9994
 136 00d5 FC102C63 		.ascii	"\374\020,ch\034\035\377w@\347\257\000=\007\017\327\355"
 136      681C1DFF 
 136      7740E7AF 
 136      003D070F 
 136      D7ED
 137 00e7 75673790 		.ascii	"ug7\220cd\2567\275VD\252<\350\011\337\001_\350\314\310"
 137      6364AE37 
 137      BD5644AA 
 137      3CE809DF 
 137      015FE8CC 
 138 00fc 7AB439B6 		.ascii	"z\2649\266+\315Y%\360\362\300a\310\246\004\030\367{"
 138      2BCD5925 
 138      F0F2C061 
 138      C8A60418 
 138      F77B
 139 010e 70627D40 		.ascii	"pb}@_\216\345GD<^)\"3\332\311\266\206\224\014\3160\232"
 139      5F8EE547 
 139      443C5E29 
 139      2233DAC9 
 139      B686940C 
 140 0125 4A3707DD 		.ascii	"J7\007\3354\272\271\360\306uF\346nzdl\012\303P\321\323"
 140      34BAB9F0 
 140      C67546E6 
 140      6E7A646C 
 140      0AC350D1 
 141 013a 8A42FF7C 		.ascii	"\212B\377|\024B\031\224\257\361\302\300\031\235gI\244"
 141      14421994 
 141      AFF1C2C0 
 141      199D6749 
 141      A4
 142 014b B335CD07 		.ascii	"\2635\315\007SL\244\303\255\023y]\215\237\211\355AW"
 142      534CA4C3 
 142      AD13795D 
 142      8D9F89ED 
 142      4157
 143 015d 18193A92 		.ascii	"\030\031:\222\214\025\216B6\372l\235\020\247UbI\005"
 143      8C158E42 
 143      36FA6C9D 
 143      10A75562 
 143      4905
 144 016f 0F1CC3B5 		.ascii	"\017\034\303\265\273\020\032\275\325\363`\325\302Z\""
 144      BB101ABD 
 144      D5F360D5 
 144      C25A22
 145 017e D5319055 		.ascii	"\3251\220U\304\025\260\225\0319\264\353\"5\255\211\026"
 145      C415B095 
 145      1939B4EB 
 145      2235AD89 
 145      16
 146 018f 15FBE2F8 		.ascii	"\025\373\342\370\300^\000\312\305\240\231\014\270\235"
ARM GAS  /tmp/cc8l9baa.s 			page 11


 146      C05E00CA 
 146      C5A0990C 
 146      B89D
 147 019d 24062DE0 		.ascii	"$\006-\340D8\255\304\020\260\026\300\365}\365-\377\244"
 147      4438ADC4 
 147      10B016C0 
 147      F57DF52D 
 147      FFA4
 148 01af 667543BD 		.ascii	"fuC\275\250A\252\035\344r\344\366I\341R\221\004\370"
 148      A841AA1D 
 148      E472E4F6 
 148      49E15291 
 148      04F8
 149 01c1 01B224D3 		.ascii	"\001\262$\323S\367\257\015)\370\005\216\203*\2213\370"
 149      53F7AF0D 
 149      29F8058E 
 149      832A9133 
 149      F8
 150 01d2 5136FE60 		.ascii	"Q6\376`g\367\270;\253\307\362v\222\355_G[\006u\351}"
 150      67F7B83B 
 150      ABC7F276 
 150      92ED5F47 
 150      5B0675E9 
 151 01e7 82BCA10D 		.ascii	"\202\274\241\015T6\012\212$\201\261;\020\352h\237\250"
 151      54360A8A 
 151      2481B13B 
 151      10EA689F 
 151      A8
 152 01f8 5F41F555 		.ascii	"_A\365Ur\012\261;|\266O#V4Ym{\373\375!\255b^l\023\""
 152      720AB13B 
 152      7CB64F23 
 152      5634596D 
 152      7BFBFD21 
 153 0212 03BF5573 		.ascii	"\003\277Us\263\327\223\227\006\243\251\365\360uP\310"
 153      B3D79397 
 153      06A3A9F5 
 153      F07550C8 
 154 0222 EF2EE840 		.ascii	"\357.\350@)\266\023\022\\\374\262\255\251\332e\034\241"
 154      29B61312 
 154      5CFCB2AD 
 154      A9DA651C 
 154      A1
 155 0233 1AC5C630 		.ascii	"\032\305\3060O\201\223P\0171\305\222\311\271/\372\367"
 155      4F819350 
 155      0F31C592 
 155      C9B92FFA 
 155      F7
 156 0244 27565792 		.ascii	"'VW\222\232N\201\021Sh7\300i0\010\033\201\261\251o\246"
 156      9A4E8111 
 156      536837C0 
 156      6930081B 
 156      81B1A96F 
 157 0259 376D29F5 		.ascii	"7m)\365A'd#|\263\234\276\326\343\263`\353\305\305X\020"
 157      41276423 
 157      7CB39CBE 
 157      D6E3B360 
 157      EBC5C558 
ARM GAS  /tmp/cc8l9baa.s 			page 12


 158 026e 7BD149BD 		.ascii	"{\321I\275\220\235T\223{qF\366\"B<8\236\344\301\354"
 158      909D5493 
 158      7B7146F6 
 158      22423C38 
 158      9EE4C1EC 
 159 0282 FADFBD17 		.ascii	"\372\337\275\027\266\271\037\027\234\212\331\240\313"
 159      B6B91F17 
 159      9C8AD9A0 
 159      CB
 160 028f AAB7712C 		.ascii	"\252\267q,tT3+\032>}\345\275fG\230\353pV\326\254\230"
 160      7454332B 
 160      1A3E7DE5 
 160      BD664798 
 160      EB7056D6 
 161 02a5 71D1E8EA 		.ascii	"q\321\350\352vQ\003V\331[(j7\225\315\315u\210b\345\010"
 161      76510356 
 161      D95B286A 
 161      3795CDCD 
 161      758862E5 
 162 02ba FEE1D66B 		.ascii	"\376\341\326kN\023\202\373\331s\212!\240\204\347l\011"
 162      4E1382FB 
 162      D9738A21 
 162      A084E76C 
 162      09
 163 02cb 87F677ED 		.ascii	"\207\366w\355\327\261st\015\242\005\207\0360\314l\275"
 163      D7B17374 
 163      0DA20587 
 163      1E30CC6C 
 163      BD
 164 02dc 50813C87 		.ascii	"P\201<\207\206\033\343\021\220\373\223\210a#Pu\275\362"
 164      861BE311 
 164      90FB9388 
 164      61235075 
 164      BDF2
 165 02ee 2553090E 		.ascii	"%S\011\016D \231\235F\210s\032\277\007U\221\371^\331"
 165      4420999D 
 165      4688731A 
 165      BF075591 
 165      F95ED9
 166 0301 996455B8 		.ascii	"\231dU\270\343\270\177\031\234\307\250\2706\177#\030"
 166      E3B87F19 
 166      9CC7A8B8 
 166      367F2318 
 167 0311 5388B834 		.ascii	"S\210\2704H\207\237 3\314\323e\034Un^\352Ps\264E3\323"
 167      48879F20 
 167      33CCD365 
 167      1C556E5E 
 167      EA5073B4 
 168 0328 68CFA1B0 		.ascii	"h\317\241\260\013I\012\313!m]L\326V\016\321{\351\221"
 168      0B490ACB 
 168      216D5D4C 
 168      D6560ED1 
 168      7BE991
 169 033b AA2E27B8 		.ascii	"\252.'\270\215\202\231\325e\343V\354\000&\351\325l\364"
 169      8D8299D5 
 169      65E356EC 
 169      0026E9D5 
ARM GAS  /tmp/cc8l9baa.s 			page 13


 169      6CF4
 170 034d E610AF57 		.ascii	"\346\020\257W,^\231\235\324\225\304i\037\006g\360\263"
 170      2C5E999D 
 170      D495C469 
 170      1F0667F0 
 170      B3
 171 035e 243421DC 		.ascii	"$4!\334\033u7c)\374\001H\341t\207\273BZ\222\2129\364"
 171      1B753763 
 171      29FC0148 
 171      E17487BB 
 171      425A928A 
 172 0374 2FA2E201 		.ascii	"/\242\342\001R\261\313T\361\334\314\211\236t\233\212"
 172      52B1CB54 
 172      F1DCCC89 
 172      9E749B8A 
 173 0384 3F8FAE25 		.ascii	"?\217\256%\033K\303N\333\021=<\330WX\3331&\304W\002"
 173      1B4BC34E 
 173      DB113D3C 
 173      D85758DB 
 173      3126C457 
 174 0399 9EF194BE 		.ascii	"\236\361\224\276F\301\256J\341\017\0223:\032\334\331"
 174      46C1AE4A 
 174      E10F1233 
 174      3A1ADCD9 
 175 03a9 198C03F5 		.ascii	"\031\214\003\365\217\303r|\035\354\273\\\243?\356\203"
 175      8FC3727C 
 175      1DECBB5C 
 175      A33FEE83 
 176 03b9 4E2CFD62 		.ascii	"N,\375b\261t\367\374\316{\334\022\341\207\224\362W\311"
 176      B174F7FC 
 176      CE7BDC12 
 176      E18794F2 
 176      57C9
 177 03cb 153763C2 		.ascii	"\0257c\302or;\207\304\233\024\234ra\002Y\334\364Xm\015"
 177      6F723B87 
 177      C49B149C 
 177      72610259 
 177      DCF4586D 
 178 03e0 9819F9A2 		.ascii	"\230\031\371\242:\327\027\325\371\026j\307\3572\205"
 178      3AD717D5 
 178      F9166AC7 
 178      EF3285
 179 03ef 6AA6B0ED 		.ascii	"j\246\260\355\253ZY\367ukcI\014Cf\363w\217dR\276\347"
 179      AB5A59F7 
 179      756B6349 
 179      0C4366F3 
 179      778F6452 
 180 0405 A8278D42 		.ascii	"\250'\215B\335XP\317\037` `\012\267\247y\274\326o\005"
 180      DD5850CF 
 180      1F602060 
 180      0AB7A779 
 180      BCD66F05 
 181 0419 4C46CF17 		.ascii	"LF\317\027E\377:\241\277\271\004\372\367)\343-\002\357"
 181      45FF3AA1 
 181      BFB904FA 
 181      F729E32D 
 181      02EF
ARM GAS  /tmp/cc8l9baa.s 			page 14


 182 042b B0120E53 		.ascii	"\260\022\016SB\227\334\252\341}+\345N\245\366'\244&"
 182      4297DCAA 
 182      E17D2BE5 
 182      4EA5F627 
 182      A426
 183 043d DBF7E8E5 		.ascii	"\333\367\350\345\260u\236\317NE\007\270\245\304\005"
 183      B0759ECF 
 183      4E4507B8 
 183      A5C405
 184 044c 2AD717A5 		.ascii	"*\327\027\245\0265\376\002\214HXN\322\340(\030\270\326"
 184      1635FE02 
 184      8C48584E 
 184      D2E02818 
 184      B8D6
 185 045e 30D9DEED 		.ascii	"0\331\336\35507q\032\334F\207\304\320]0h\017\275\363"
 185      3037711A 
 185      DC4687C4 
 185      D05D3068 
 185      0FBDF3
 186 0471 3F83764C 		.ascii	"?\203vL\016\332GG\251\212cn|\211A{N\261\244\255%\037"
 186      0EDA4747 
 186      A98A636E 
 186      7C89417B 
 186      4EB1A4AD 
 187 0487 CF7748A5 		.ascii	"\317wH\245I\343\367!\215\337\273\344\342J\032\277\223"
 187      49E3F721 
 187      8DDFBBE4 
 187      E24A1ABF 
 187      93
 188 0498 DFE0913F 		.ascii	"\337\340\221?F\012\277\367\224\361;!\225?\371\304\370"
 188      460ABFF7 
 188      94F13B21 
 188      953FF9C4 
 188      F8
 189 04a9 8DD58F74 		.ascii	"\215\325\217t\352\211\311:.'\353\237r\262\332\307\350"
 189      EA89C93A 
 189      2E27EB9F 
 189      72B2DAC7 
 189      E8
 190 04ba FDC418A5 		.ascii	"\375\304\030\245\004l\222:\324\320o\235/:\325>\205\207"
 190      046C923A 
 190      D4D06F9D 
 190      2F3AD53E 
 190      8587
 191 04cc 0F1E78E8 		.ascii	"\017\036x\350\361rn\256a\376J\003\206\277\334\010\370"
 191      F1726EAE 
 191      61FE4A03 
 191      86BFDC08 
 191      F8
 192 04dd BD86B7D8 		.ascii	"\275\206\267\330\027X\237\353eJy\231\266\366\243@\321"
 192      17589FEB 
 192      654A7999 
 192      B6F6A340 
 192      D1
 193 04ee BBFE929C 		.ascii	"\273\376\222\234'\315\274\245>_\351\006\243\254\324"
 193      27CDBCA5 
 193      3E5FE906 
ARM GAS  /tmp/cc8l9baa.s 			page 15


 193      A3ACD4
 194 04fd 5F1E30DE 		.ascii	"_\0360\336\312\317[\235\267\011}\274\245\376\242\302"
 194      CACF5B9D 
 194      B7097DBC 
 194      A5FEA2C2 
 195 050d 4F57F972 		.ascii	"OW\371r\213\331\033\213X\027m*'[cu^\301\232\002c5\032"
 195      8BD91B8B 
 195      58176D2A 
 195      275B6375 
 195      5EC19A02 
 196 0524 1B6B3678 		.ascii	"\033k6x?\376d]\221\341\365\005J\002\205\353\275^t}\325"
 196      3FFE645D 
 196      91E1F505 
 196      4A0285EB 
 196      BD5E747D 
 197 0539 86A72461 		.ascii	"\206\247$aS\034\330\034\300\365\214\274\202|\017\201"
 197      531CD81C 
 197      C0F58CBC 
 197      827C0F81 
 198 0549 2AF3972C 		.ascii	"*\363\227,\367d\257`\212\237i\276\"_\251\177\363\022"
 198      F764AF60 
 198      8A9F69BE 
 198      225FA97F 
 198      F312
 199 055b BE544F31 		.ascii	"\276TO1\343\345\033\313<O\217\357-^\207F\377\001\232"
 199      E3E51BCB 
 199      3C4F8FEF 
 199      2D5E8746 
 199      FF019A
 200 056e B09809   		.ascii	"\260\230\011"
 201              		.text
 202              		.section	.gnu.lto_chMsgRelease.9e0893ee78b1cdfb,"",%progbits
 203 0000 789C8553 		.ascii	"x\234\205SIOSQ\024>\347\336G\007\353\300^\243e\321\020"
 203      494F5351 
 203      143EE7DE 
 203      4707EBC0 
 203      5EA365D1 
 204 0015 13E5C9CA 		.ascii	"\023\345\311\312\304\235a\345\242\321\300\0170\372l"
 204      C49D61E5 
 204      A2D1C00F 
 204      30FA6C
 205 0024 84C45AD2 		.ascii	"\204\304Z\322\207FW\\\220'\352\312\205\030\007\"q  "
 205      8746575C 
 205      9027EACA 
 205      85180722 
 205      712020
 206 0037 A80C8E15 		.ascii	"\250\014\216\025\305\007\3168E\0241qSA\234c\3008\305"
 206      C507CE38 
 206      45143171 
 206      53419C63 
 206      C038C5
 207 004a A99E734B 		.ascii	"\251\236sK\023l\035n\332\274;|\337\271\337\371\336\367"
 207      136C1D6E 
 207      DABC3B7C 
 207      DFB9DFF9 
 207      DEF7
 208 005c 0C40E0D1 		.ascii	"\014@\340\321`\000L\320s6\375Q\002\212\235w\001j|\002"
ARM GAS  /tmp/cc8l9baa.s 			page 16


 208      60004CD0 
 208      7336FD51 
 208      028A9D77 
 208      016A7C02 
 209 0070 9127CA87 		.ascii	"\221'\312\207P-\260\032?\212\037\002\373\353\237'\304"
 209      502DB01A 
 209      3F8A1F02 
 209      FBEB9F27 
 209      C4
 210 0081 FC164523 		.ascii	"\374\026E#\331\334V\254Z]t$@J\350J\200-8\237P\367\353"
 210      D9DC56AC 
 210      5A5D7424 
 210      404AE84A 
 210      802D389F 
 211 0098 3A1BE507 		.ascii	":\033\345\007\341HD\203\226\023w\366\215\316\344\245"
 211      E1484483 
 211      961377F6 
 211      8DCEE4A5 
 212 00a8 C0202DAF 		.ascii	"\300 -\257\214}\037\014\310\271\0104olI\036\361\027"
 212      8C7D1F0C 
 212      C8B90834 
 212      6F6C491E 
 212      F117
 213 00ba 362B55AB 		.ascii	"6+U\253\324\2675\312\357H\211m(\251\036\036\3059\330"
 213      D4B735CA 
 213      EF48896D 
 213      28A91E1E 
 213      C539D8
 214 00cd 8A7380B6 		.ascii	"\212s\200\266\000\333\261\220\320\267;\023\303\206,"
 214      00DBB190 
 214      D0B73B13 
 214      C3862C
 215 00dc D0CC5D6F 		.ascii	"\320\314]o^<\236\305L\032M\021f\032x,\233i\000\036\307"
 215      5E3C9EC5 
 215      4C1A4D11 
 215      661A782C 
 215      9B69001E 
 216 00f1 42868F74 		.ascii	"B\206\217t\375l\230\341\251ctp{F1\236@\017{\320Q\352"
 216      FD6C98E1 
 216      A9637470 
 216      7B46319E 
 216      400F7BD0 
 217 0107 AA546A8B 		.ascii	"\252Tj\213R\211\342\216\220\227T\323u\006j*\214\023"
 217      5289E28E 
 217      909754D3 
 217      75066A2A 
 217      8C13
 218 0119 907D9810 		.ascii	"\220}\230\020\202\237r\004k\363\271`\363\300\340\245"
 218      829F7204 
 218      6BF3B960 
 218      F3C0E0A5 
 219 0129 800C692D 		.ascii	"\200\014i-\037\366t\265\372C\207\271\213d\317\253p_"
 219      1FF674B5 
 219      FA4387B9 
 219      8B64CFAB 
 219      705F
 220 013b F356B5B3 		.ascii	"\363V\265\263\306\347\310<\354\370]\221\366\250\023"
ARM GAS  /tmp/cc8l9baa.s 			page 17


 220      C6E7C83C 
 220      ECF85D91 
 220      F6A813
 221 014a 43C4A97F 		.ascii	"C\304\251\177\245.\032lJ\036\006\261\213\316^`\355\310"
 221      A52E1A6C 
 221      4A1E06B1 
 221      8BCE5E60 
 221      EDC8
 222 015c E76BEF16 		.ascii	"\347k\357\026\377.\326\2759$\264\316\224\300\254>\334"
 222      FF2ED6BD 
 222      3924B4CE 
 222      94C0AC3E 
 222      DC
 223 016d 44C32DCC 		.ascii	"D\303-\314\003\354\346C\221}\370q\260\021\221\357\002"
 223      03ECE643 
 223      917DF871 
 223      B01191EF 
 223      02
 224 017e 3CC90099 		.ascii	"<\311\000\231\355\002\340)\364\220\234\323\354\001\302"
 224      ED02E029 
 224      F4909CD3 
 224      EC01C2
 225 018d 19A4F343 		.ascii	"\031\244\363CM\335_\246\025\\\307&\265'\350H\017S\216"
 225      4DDD5FA6 
 225      155CC726 
 225      B527E848 
 225      0F538E
 226 01a0 8FF6289F 		.ascii	"\217\366(\237A&\340\031,\000\336\031\177\373\360\211"
 226      4126E019 
 226      2C00DE19 
 226      7FFBF089 
 227 01b0 A01D3C8B 		.ascii	"\240\035<\213\206V\016xN\277\347\326\336\313c\323\013"
 227      86560E78 
 227      4EBFE7D6 
 227      DECB63D3 
 227      0B
 228 01c1 0626D95E 		.ascii	"\006&\331^\306\276?\321=\024\320\354\004\263\361<\032"
 228      C6BE3FD1 
 228      3D14D0EC 
 228      04B3F13C 
 228      1A
 229 01d2 3082429B 		.ascii	"0\202B\233\0004\253M>kCn\217\2605\355\373\033\247\247"
 229      0034AB4D 
 229      3E6B436E 
 229      8FB035ED 
 229      FB1BA7A7 
 230 01e6 5D741FEC 		.ascii	"]t\037\354\220{\225[\027\374C\036\264\207=\030\332B"
 230      907B955B 
 230      17FC431E 
 230      B4873D18 
 230      DA42
 231 01f8 B9A002EE 		.ascii	"\271\240\002\356\360@\246@\303\327\341\203\001.\240"
 231      F040A640 
 231      C3D7E183 
 231      012EA0
 232 0207 A616C889 		.ascii	"\246\026\310\211\205.p\201\013\030\360\022\235\344\320"
 232      852E7081 
ARM GAS  /tmp/cc8l9baa.s 			page 18


 232      0B18F012 
 232      9DE4D0
 233 0216 DD4FC5D9 		.ascii	"\335O\305\331\246?\022\214\340k&\3157r\355\273\250\355"
 233      A63F128C 
 233      E06B26CD 
 233      3772EDBB 
 233      A8ED
 234 0228 EB456D53 		.ascii	"\353EmS\"\361\366\211\267\372\207\332\246T\276#})\221"
 234      22F1F689 
 234      B7FA87DA 
 234      A654BE23 
 234      7D2991
 235 023b A7CFF112 		.ascii	"\247\317\361\022V\003)\245\273\034\351\347\326u\346"
 235      560329A5 
 235      BB1CE9E7 
 235      D675E6
 236 024a 7AD2DDA7 		.ascii	"z\322\335\247\027\027&\255\310\317\211\322\321\345\377"
 236      171726AD 
 236      C8CF89D2 
 236      D1E5FF
 237 0259 8992ABA3 		.ascii	"\211\222\253\243\264\333\351\277\347MG\011\260\357\357"
 237      B4DBE9BF 
 237      E74D4709 
 237      B0EFEF
 238 0268 51DA3E9C 		.ascii	"Q\332>\234\211\222'\267\233~\356&'`_9`\227\231\342\315"
 238      899227B7 
 238      9B7EEE26 
 238      27605F39 
 238      609799E2 
 239 027d 09D8EB03 		.ascii	"\011\330\353\003\0240\227\035\272\362\227\200]\325\016"
 239      1430971D 
 239      BAF29780 
 239      5DD50E
 240 028c 5D9B12B0 		.ascii	"]\233\022\260\237MO{\003\231\354\364\351\354\\\327\331"
 240      9F4D4F7B 
 240      0399ECF4 
 240      E9EC5CD7 
 240      D9
 241 029d C90ECA8D 		.ascii	"\311\016\312\215LP\370\002xMA\031k\367\263x\335\370"
 241      4C50F802 
 241      784D4119 
 241      6BF7B378 
 241      DDF8
 242 02af 387D0CF4 		.ascii	"8}\014\3641\022|vQ\221\231\376\305l3^e\332q\313\264"
 242      31127C76 
 242      519199FE 
 242      C56C335E 
 242      65DA71CB 
 243 02c4 CAA3F6DA 		.ascii	"\312\243\366\332\"\013DU\245\244\231w\365*;\262\"^\261"
 243      220B4455 
 243      A5A49977 
 243      F52A3BB2 
 243      225EB1
 244 02d7 702AD48A 		.ascii	"p*\324\212E\243\261\365fe,^e\233KK\303%\341M\304\263"
 244      45A3B1F5 
 244      66652C5E 
 244      659B4B4B 
ARM GAS  /tmp/cc8l9baa.s 			page 19


 244      C325E14D 
 245 02ed 62F1C8CA 		.ascii	"b\361\310\312\215\213\243E\345\260\344\017\350\310\246"
 245      8D8BA345 
 245      E5B0E40F 
 245      E8C8A6
 246 02fc 2AC69A25 		.ascii	"*\306\232%\341\262eef\011\201\315e\353\255u\033\326"
 246      E1B26565 
 246      660981CD 
 246      65EBAD75 
 246      1BD6
 247 030e 444C2B6A 		.ascii	"DL+jW\330+\327Z\026Q\347ei\252\310`\312\355\3156\235"
 247      57D82BD7 
 247      5A1651E7 
 247      6569AAC8 
 247      60CAEDCD 
 248 0324 E787CB4A 		.ascii	"\347\207\313J\203,\2522^\261 \030Z\004\"\016\336h$\032"
 248      832CAA32 
 248      5EB12018 
 248      5A04220E 
 248      DE68241A 
 249 0338 8B6FFE07 		.ascii	"\213o\376\007\227{*\207_\340\325\323?"
 249      977B2A87 
 249      5FE0D5D3 
 249      3F
 250              		.text
 251              		.section	.gnu.lto_.symbol_nodes.9e0893ee78b1cdfb,"",%progbits
 252 0000 789C55CB 		.ascii	"x\234U\313;\012\002A\020\204\341\277\253g\274\206z\322"
 252      3B0A0241 
 252      1084E1BF 
 252      AB67BC86 
 252      7AD2
 253 0012 9EC0CC44 		.ascii	"\236\300\314D\330;\370\0146\337xQ0\360\016\202l\264"
 253      D83BF80C 
 253      36DF7851 
 253      30F00E82 
 253      6CB4
 254 0024 67104723 		.ascii	"g\020G#\247\222\202\257\250\204\321Q\243\275\002v\017"
 254      A79282AF 
 254      A884D151 
 254      A3BD0276 
 254      0F
 255 0035 A8359435 		.ascii	"\2505\2245\344\223X}\227\203\302\232EG\205\032\261\213"
 255      E493587D 
 255      9783C29A 
 255      4547851A 
 255      B18B
 256 0047 C27F02A5 		.ascii	"\302\177\002\245\324\227\235\025\251\201^\221\377\301"
 256      D4979D15 
 256      A9815E91 
 256      FFC1
 257 0055 C9BCEE37 		.ascii	"\311\274\3567w\022\233\355\274t%\306\353d\356\013\306"
 257      77129BED 
 257      BC7425C6 
 257      EB64EE0B 
 257      C6
 258 0066 E7DBF800 		.ascii	"\347\333\370\000\331\013#m"
 258      D90B236D 
ARM GAS  /tmp/cc8l9baa.s 			page 20


 259              		.text
 260              		.section	.gnu.lto_.refs.9e0893ee78b1cdfb,"",%progbits
 261 0000 789C6361 		.ascii	"x\234ca`d\340c`\000\222\014\214\214LL\014\214,\014\214"
 261      6064E063 
 261      6000920C 
 261      8C8C4C4C 
 261      0C8C2C0C 
 262 0015 DC0C0001 		.ascii	"\334\014\000\001\366\000,"
 262      F6002C
 263              		.text
 264              		.section	.gnu.lto_.decls.9e0893ee78b1cdfb,"",%progbits
 265 0000 789CB55A 		.ascii	"x\234\265ZyP\024Y\232\257\227/\201\252\242\000W\235"
 265      79501459 
 265      9AAF972F 
 265      81AAA200 
 265      579D
 266 0012 D98E1866 		.ascii	"\331\216\030f\267\243\203\336fbC\351n{\272{766\272\247"
 266      B7A383DE 
 266      666243E9 
 266      6E7BBA7B 
 266      373636BA 
 267 0027 6376DA8D 		.ascii	"cv\332\215\355\031\247\235\236\231\235\215\335\352\022"
 267      ED19A79D 
 267      9E999D8D 
 267      DDEA12
 268 0036 4A619A6B 		.ascii	"Ja\232k\252\312\353\257)\016E\020\345RA\016E\020/DP"
 268      AACAEBAF 
 268      290E4510 
 268      E552410E 
 268      45102F44 
 269 004b 5094434B 		.ascii	"P\224CKT\304\003DQ\020\225[\361D\271\004\024\220\375"
 269      54C40344 
 269      5110955B 
 269      F144B904 
 269      1490FD
 270 005e DE519559 		.ascii	"\336Q\225YE\226\372\307n\351G\325\313\374\336\367\373"
 270      4596FAC7 
 270      6EE947D5 
 270      CBFCDEF7 
 270      FB
 271 006f EE7CF932 		.ascii	"\356|\3712E\025R\221\317\206\217U\252AO\225\352\035"
 271      45155291 
 271      CF868F55 
 271      AA414F95 
 271      EA1D
 272 0081 41A59A81 		.ascii	"A\245\232\201\217\010\307~\017D\316\372\253\330\007"
 272      8F08C77E 
 272      0F44CEFA 
 272      ABD807
 273 0090 4EAB62E0 		.ascii	"N\253b\340@<P\"\320&\2404\240\014\304\370\206\221\312"
 273      403C5022 
 273      D026A034 
 273      A00CC4F8 
 273      8691CA
 274 00a3 E94378E7 		.ascii	"\351Cx\347\303\367\\\025\373>\012\364k86\202\230\314"
 274      C3F75C15 
 274      FB3E0AF4 
ARM GAS  /tmp/cc8l9baa.s 			page 21


 274      6B383682 
 274      98CC
 275 00b5 51F81E02 		.ascii	"Q\370\036\002\272\015T\007\343q\370\236\002\372\015"
 275      BA0D5407 
 275      E371F89E 
 275      02FA0D
 276 00c4 D0FF00FD 		.ascii	"\320\377\000\375\026\010\003M\003\245\002\275\002J\006"
 276      1608034D 
 276      03A502BD 
 276      024A06
 277 00d3 D202EF03 		.ascii	"\322\002\357\003\370\276\012\364\337@+\200\226\000\255"
 277      F8BE0AF4 
 277      DF402B80 
 277      9600AD
 278 00e2 05FA1DD0 		.ascii	"\005\372\035\320\267@&\240H \015\327\003\201]\030H\003"
 278      B74026A0 
 278      48200DD7 
 278      03815D18 
 278      4803
 279 00f4 E42B30BD 		.ascii	"\344+0\275\211\376s\340\367\\ \370\257\372\2110\333"
 279      89FE73E0 
 279      F75C20F8 
 279      AFFA8930 
 279      DB
 280 0105 0662EB1C 		.ascii	"\006b\353\034\231\015v\375\345\372\312\355\370\015\327"
 280      990D76FD 
 280      E5FACAED 
 280      F80DD7
 281 0114 FB15B731 		.ascii	"\373\025\2671\231\333\340%\323y\011\327s\255LW\015\307"
 281      99DBE025 
 281      D37909D7 
 281      73AD4C57 
 281      0DC7
 282 0126 92EB1920 		.ascii	"\222\353\031 0\035\003\005IO%?'r\237\374\336EO\342o"
 282      301D0305 
 282      494F253F 
 282      27729FFC 
 282      DE454FE2 
 283 013b B99E3F83 		.ascii	"\271\236?\203\371\033\370\\5\237'\307\373G\201\305R"
 283      F91BF85C 
 283      359F27C7 
 283      FB4781C5 
 283      52
 284 014c 8EF5B1E0 		.ascii	"\216\365\261\340\2145-\240\332\226\311&\3616j'S\321"
 284      8C352DA0 
 284      DA96C926 
 284      F1366A27 
 284      53D1
 285 015e 1C7A1421 		.ascii	"\034z\024!\366\027QR1\242C\212\300\363\303~\010\331"
 285      F6175152 
 285      31A2438A 
 285      C0F3C37E 
 285      08D9
 286 0170 19F958B0 		.ascii	"\031\371X\260\377T9\204\321\377|>\315G\372\241B$\351"
 286      FF543984 
 286      D1FF7C3E 
 286      CD47FAA1 
ARM GAS  /tmp/cc8l9baa.s 			page 22


 286      4224E9
 287 0183 884F6263 		.ascii	"\210Obc>Y\205\370X\220\000\020\033\332'\310\3441u\271"
 287      3E5985F8 
 287      58900010 
 287      1BDA27C8 
 287      E43175B9 
 288 0197 38496787 		.ascii	"8Ig\207M\310ntOe\337\011/, \362\273\353\305\276\177"
 288      4DC86E74 
 288      4F65DF09 
 288      2F2C20F2 
 288      BBEBC5BE 
 289 01ac 5B78D00A 		.ascii	"[x\320\012\237T\253U\360\227<\263nSI\246vT@\236ZD\304"
 289      9F54AB55 
 289      F0973CB3 
 289      6E5349A6 
 289      7654409E 
 290 01c3 7BC1A1BB 		.ascii	"{\301\241\273\203/\217\211\354\020\231\260\006\016\345"
 290      832F8F89 
 290      EC1099B0 
 290      060EE5
 291 01d2 6DBF73D8 		.ascii	"m\277s\330\027\377\210\212\272\032_\226\213\341\364"
 291      17FF888A 
 291      BA1A5F96 
 291      8BE1F4
 292 01e1 5C2D1261 		.ascii	"\\-\022a8\324\230\335\347\013\303\371Z\364\356\264 "
 292      38D498DD 
 292      E70BC3F9 
 292      5AF4EEB4 
 292      20
 293 01f2 9C1A2FAD 		.ascii	"\234\032/\255W\243@\355\0362\265{f\352\2538\253\025"
 293      57A340ED 
 293      1E32B57B 
 293      66EAAB38 
 293      AB15
 294 0204 A132A445 		.ascii	"\2412\244E\007\021F\373\321B\242\241'\011\375\006\252"
 294      071146FB 
 294      D142A2A1 
 294      2709FD06 
 294      AA
 295 0215 4D9C756E 		.ascii	"M\234un\203\257\012\035B\376\250\004\371\253P)\012$"
 295      83AF0A1D 
 295      42FEA804 
 295      F9AB5029 
 295      0A24
 296 0227 C0841115 		.ascii	"\300\204\021\025\303\301\003p\020P\206_\014V\210x\035"
 296      C3C10370 
 296      1050865F 
 296      0C568878 
 296      1D
 297 0238 221A08B5 		.ascii	"\"\032\010\265IOj5\016\214\352\244\205\305V\353\034"
 297      494F6A35 
 297      0E8CEAA4 
 297      85C556EB 
 297      1C
 298 0249 540E1887 		.ascii	"T\016\030\207%\014\200t\013rD\031\244-\271\345\266'"
 298      250C8074 
 298      0B724419 
ARM GAS  /tmp/cc8l9baa.s 			page 23


 298      A42DB9E5 
 298      B627
 299 025b 7EC0408E 		.ascii	"~\300@\216$\266o\367@\332@e\011\307\024$0uj\257\004"
 299      24B66FF7 
 299      40DA4065 
 299      09C71424 
 299      30756AAF 
 300 0270 D512758E 		.ascii	"\325\022u\216\202:\025\222:\345T\035\000\311\354y\366"
 300      823A1592 
 300      3AE5541D 
 300      00C9EC79 
 300      F6
 301 0281 D8532479 		.ascii	"\330S$yH8\226\211\344X\345\323\342J\037\346R\033\031"
 301      48389689 
 301      E458E5D3 
 301      E24A1FE6 
 301      521B19
 302 0294 EFEBCFDD 		.ascii	"\357\353\317\335\254c\343\317ax\275\271\263\010\343"
 302      AC63E3CF 
 302      6178BDB9 
 302      B308E3
 303 02a3 BD2C921D 		.ascii	"\275,\222\035\015\373\213\211\373?`\001\363\203C\245"
 303      0DFB8B89 
 303      FB3F6001 
 303      F38343A5 
 304 02b3 4F4EBCF0 		.ascii	"ON\274\360a\207\010\307\265\224\341\335^\270\214\262"
 304      618708C7 
 304      B594E1DD 
 304      5EB88CB2 
 305 02c3 0BF59BCA 		.ascii	"\013\365\233\312\217xK\361\330\255;A\224;\005\320\265"
 305      8F784BF1 
 305      D8AD3B41 
 305      943B05D0 
 305      B5
 306 02d4 92721F70 		.ascii	"\222r\037pW\305\3166\364$\030\372\0017\264\006\016V"
 306      57C5CE36 
 306      F42418FA 
 306      0137B406 
 306      0E56
 307 02e6 3357EDDF 		.ascii	"3W\355\337\235V\340\211\253\031\306\366\212\003\343"
 307      9D56E089 
 307      AB19C6F6 
 307      8A03E3
 308 02f5 5A593C3E 		.ascii	"ZY<>9H0\352\000\303&a\234B\356AN+\203X\267L\356\364"
 308      394830EA 
 308      00C32661 
 308      9C42EE41 
 308      4E2B8358 
 309 030d C1671948 		.ascii	"\301g\031HN\346\251Z\036\017\005\011\347\024$\360x\244"
 309      4EE6A95A 
 309      1E0F0509 
 309      E71424F0 
 309      78A4
 310 031f B0789C05 		.ascii	"\260x\234\005u\316H\352\324\331\343q\247|\323\0315\276"
 310      75CE48EA 
 310      D4D9E371 
 310      A77CD319 
ARM GAS  /tmp/cc8l9baa.s 			page 24


 310      35BE
 311 0331 CC9C9B5D 		.ascii	"\314\234\233]=z\321\2039^\015\303\324;/j\274\361uv\256"
 311      3D7AD183 
 311      395E0DC3 
 311      D43B2F6A 
 311      BCF17576 
 312 0346 783CFEA8 		.ascii	"x<\376\250\037ng\003{\304\346\363\210\275\3148q\324"
 312      1F6E6703 
 312      7BC4E6F3 
 312      88BDCC38 
 312      71D4
 313 0358 1B77B193 		.ascii	"\033w\261\223g\373Z\032<\360=6\310\257\353Y\200\307"
 313      67FB5A1A 
 313      3CF03D36 
 313      C8AFEB59 
 313      80C7
 314 036a D8EFAAAD 		.ascii	"\330\357\252\2555\003j<\311\006\247\247\333s\265x#f"
 314      35036A3C 
 314      C906A7A7 
 314      DB73B578 
 314      2366
 315 037c 311BBC9C 		.ascii	"1\033\274\234\347\315\200\347\300\360X\377\205z-\023"
 315      E7CD80E7 
 315      C0F058FF 
 315      857A2D13 
 316 038c 6F45309E 		.ascii	"oE0\236*\272rS\2153\030oueM=W\362C\030\306\335\315\353"
 316      2ABA7253 
 316      8D33186F 
 316      75654D3D 
 316      57F24318 
 317 03a4 F1C5B9EC 		.ascii	"\361\305\271\354\\}J|\262\026\027a\226\302\3759y\216"
 317      5C7D4A7C 
 317      B2161761 
 317      96C2FD39 
 317      798E
 318 03b6 3AB15D43 		.ascii	":\261]CsP\0338\341\206\253\023\224=\332\252\034\223"
 318      73501B38 
 318      E186AB13 
 318      943DDAAA 
 318      1C93
 319 03c8 9C918E87 		.ascii	"\234\221\216\207\032\006\036H\362\240j\244\310\023\037"
 319      1A061E48 
 319      F2A06AA4 
 319      C8131F
 320 03d7 66E0BD33 		.ascii	"f\340\2753\257\376\214\253\330\357\304\203\211\365\276"
 320      AFFE8CAB 
 320      D8EFC483 
 320      89F5BE
 321 03e6 B88E0D0A 		.ascii	"\270\216\015\012NU?\361\302\327\330\300\3360\346\322"
 321      4E553FF1 
 321      C2D7D8C0 
 321      DE30E6D2 
 322 03f6 8681F63D 		.ascii	"\206\201\366=\352\232\302\270\207\235\353\271s\276\314"
 322      EA9AC2B8 
 322      879DEBB9 
 322      73BECC
 323 0405 17F7713B 		.ascii	"\027\367q;\307s\252\375\360#6h\354\233\031\326\342!"
ARM GAS  /tmp/cc8l9baa.s 			page 25


 323      C773AAFD 
 323      F0233668 
 323      EC9B19D6 
 323      E221
 324 0417 36A8CC7E 		.ascii	"6\250\314~e\023\361\004\237c\235\334\256\303S\314\344"
 324      6513F104 
 324      9F639DDC 
 324      AEC353CC 
 324      E4
 325 0428 EAA48E0E 		.ascii	"\352\244\216\016\321m\325\336sW\265\266Vp\316]pN\237"
 325      D16DD5DE 
 325      7357B5B6 
 325      5670CE5D 
 325      704E9F
 326 043b 42C56EDC 		.ascii	"B\305n\334:\260\307\027\307\212\024m\362\301\226v\304"
 326      3AB0C717 
 326      C78A146D 
 326      F2C19676 
 326      C4
 327 044c B4D7C130 		.ascii	"\264\327\3010\266\272=\315\217\005\252\233\306\361\345"
 327      B6BA3DCD 
 327      8F05AA9B 
 327      C6F1E5
 328 045b 8657224E 		.ascii	"\206W\"Na\274\365W\362G\3248\223\015N\244\245C\354\363"
 328      61BCF557 
 328      F247D438 
 328      930D4EA4 
 328      A543ECF3 
 329 046f D8A0336B 		.ascii	"\330\2403kc\2657.c\203\223)\303\3075\270\222\015\022"
 329      63B5372E 
 329      63839329 
 329      C3C735B8 
 329      920D12
 330 0482 267ACBFC 		.ascii	"&z\313\374\260Mt\312\212\371,+\036\305\331zD|\236\235"
 330      B04D74CA 
 330      8AF92C2B 
 330      1EC5D97A 
 330      447C9E9D 
 331 0496 2B5D7777 		.ascii	"+]ww\277\032\316\371C\037@\262&\340\317\232@\205m\244"
 331      BF1ACEF9 
 331      431F40B2 
 331      26E0CF9A 
 331      40856DA4 
 332 04aa 44C49729 		.ascii	"D\304\227)\257p\265\274\375\234\3240gF\277\244M\371"
 332      AF70B5BC 
 332      FD9CD430 
 332      6746BFA4 
 332      4DF9
 333 04bc 39D83B22 		.ascii	"9\330;\"\331\353\357\310\205\301\002\253\347;*\264\310"
 333      D9EBEFC8 
 333      85C102AB 
 333      E73B2AB4 
 333      C8
 334 04cd 1F7D084E 		.ascii	"\037}\010N\033\005\247\371s\247\015\203\323\206x\007"
 334      1B05A7F9 
 334      73A70D83 
 334      D3867807 
ARM GAS  /tmp/cc8l9baa.s 			page 26


 335 04dd D8B9EFAC 		.ascii	"\330\271\357\254\017ne\000\003[\036o\300\262\016\340"
 335      0F6E6500 
 335      035B1E6F 
 335      C0B20EE0 
 336 04ed 4F3BF204 		.ascii	"O;\362\004\000\214I\000\317\221\033\204qe\204\330\214"
 336      008C4900 
 336      CF911B84 
 336      716584D8 
 336      8C
 337 04fe 96831ADC 		.ascii	"\226\203\032\334\311\020\266\224\224\024K\327\225\332"
 337      C910B694 
 337      94144BD7 
 337      95DA
 338 050c 9485B4A8 		.ascii	"\224\205\264\250'\001\341\205\2040\341\016\341\2452"
 338      2701E185 
 338      8430E10E 
 338      E1A532
 339 051b C2D6ECFE 		.ascii	"\302\326\354\376wp?\363\347\306\344W\245\030?ah\343"
 339      77703FF3 
 339      E7C6E457 
 339      A5183F61 
 339      68E3
 340 052d B5851552 		.ascii	"\265\205\025R\345T@r\314\000\322\364[ \275RF\352\310"
 340      E5544072 
 340      CC00D2F4 
 340      5B20BD52 
 340      46EAC8
 341 0540 7B3622E2 		.ascii	"{6\"\342Q\006\265\373L\351U/\374\222AMw\015T\372:\240"
 341      5106B5FB 
 341      4CE9552F 
 341      FC92414D 
 341      770D54FA 
 342 0556 8E01549C 		.ascii	"\216\001T\234\240E1\302\233\241b\005E\250\247\361\367"
 342      A04531C2 
 342      9BA16205 
 342      45A8A7F1 
 342      F7
 343 0567 BA792B79 		.ascii	"\272y+y\207t\246-Y\213p\234\007\005\036(j:B\2127P\213"
 343      8774A62D 
 343      598B709C 
 343      07051E28 
 343      6A3A428A 
 344 057e FE2A4B99 		.ascii	"\376*K\231@\2262\271i\275\231\032\234DY\205\255\373"
 344      409632B9 
 344      69BD991A 
 344      9C445985 
 344      ADFB
 345 0590 270A047B 		.ascii	"'\012\004{\273\315\217\263\276\027s\030 /\002\314yR"
 345      BBCD8FB3 
 345      BE177318 
 345      202F02CC 
 345      7952
 346 05a2 4949801D 		.ascii	"II\200\035\310\261\023\004\177\264^\260\367\333\231"
 346      C8B11304 
 346      7FB45EB0 
 346      F7DB99
 347 05b1 273EF412 		.ascii	"'>\364\022\223\010Vl\220\254\010\344\305\224\020\277"
ARM GAS  /tmp/cc8l9baa.s 			page 27


 347      9308566C 
 347      90AC08E4 
 347      C59410BF 
 348 05c1 2FC51B6F 		.ascii	"/\305\033oe ;\322\306\252\265\356A6\271\005\251N\372"
 348      65203BD2 
 348      C6AAB5EE 
 348      4136B905 
 348      A94EFA
 349 05d4 577A8D49 		.ascii	"Wz\215I\006\220\215\022\010`2\224\316\322\333gE\274"
 349      06908D12 
 349      08603294 
 349      CED2DB67 
 349      45BC
 350 05e6 83A1D41D 		.ascii	"\203\241\324\035k\037\362t\217\222\352\026\245\374q"
 350      6B1FF274 
 350      8F92EA16 
 350      A5FC71
 351 05f5 68DE75AB 		.ascii	"h\336u\253\365]\224\0020\233%\230d;\314\236\253O\322"
 351      F55D9402 
 351      309B2598 
 351      643BCC9E 
 351      AB4FD2
 352 0608 055D92D4 		.ascii	"\005]\222\324?)\247\275\335\250P\232\240\343\313\254"
 352      3F29A7BD 
 352      DDA8509A 
 352      A0E3CBAC 
 353 0618 D8DE63AD 		.ascii	"\330\336c\255\010\267\2600\334\230\250}\251\3037\351"
 353      08B7B030 
 353      DC98A87D 
 353      A9C337E9 
 354 0628 402C8FED 		.ascii	"@,\217\355\332\005\361\367G0\013\261, K4\025\312\004"
 354      DA05F1F7 
 354      47300BB1 
 354      2C204B34 
 354      15CA04
 355 063b 511902B6 		.ascii	"Q\031\002\266\257b\263\255\240\377\340_\311a\370\255"
 355      AF62B3AD 
 355      A0FFE05F 
 355      C961F8AD 
 356 064b A6DF0A49 		.ascii	"\246\337\012I\261\005\254!\247Th\033\330\262U\240)q"
 356      B105AC21 
 356      A754681B 
 356      D8B255A0 
 356      2971
 357 065d EBFCE578 		.ascii	"\353\374\345xO-\347N}\023\367\343\342\376V_'\253\262"
 357      4F2DE74E 
 357      7D13F7E3 
 357      E2FE565F 
 357      27ABB2
 358 0670 9CACDAEE 		.ascii	"\234\254\332\356\260\352tc\334~o\334\301\254\352\235"
 358      B0EA7463 
 358      DC7E6FDC 
 358      C1ACEA9D 
 359 0680 DE75D70B 		.ascii	"\336u\327\013\367\261\301D\326\205\335>\370!\033\244"
 359      F7B1C144 
 359      D685DD3E 
 359      F8211BA4 
ARM GAS  /tmp/cc8l9baa.s 			page 28


 360 0690 1F6C6EF3 		.ascii	"\037ln\363\304\003l\320y\350U\215'\036d\203\235w\206"
 360      C4036CD0 
 360      79E8558D 
 360      271E6483 
 360      9D7786
 361 06a3 4ABCF008 		.ascii	"J\274\360\010\213\323\375\264=\345\320U\003\345\310"
 361      8BD3FDB4 
 361      3DE5D055 
 361      03E5C8
 362 06b2 BFFFB1D4 		.ascii	"\277\377\261\324\275w\201\262\337\351x\020X\271\344"
 362      BD7781B2 
 362      DFE97810 
 362      58B9E4
 363 06c1 9CF7B382 		.ascii	"\234\367\263\202/\362\005\035\332)\305\347;\035S\257"
 363      2FF2051D 
 363      DA29C5E7 
 363      3B1D53AF 
 364 06d1 3BB6BE45 		.ascii	";\266\276E\215\247\030\324\320\323\353S>\330\352I\007"
 364      8DA718D4 
 364      D0D3EB53 
 364      3ED8EA49 
 364      07
 365 06e2 D617276F 		.ascii	"\326\027'oy\342x6\270\275u\242[\203\023\330\240\341"
 365      79E27836 
 365      B8BD75A2 
 365      5B8313D8 
 365      A0E1
 366 06f4 C6C65322 		.ascii	"\306\306S\"Nb\203\275\227\272\255\036x\023\033\324$"
 366      4E6283BD 
 366      97BAAD1E 
 366      78131BD4 
 366      24
 367 0705 5D9A52E3 		.ascii	"]\232R\343T6\310\256J\210\325\342\0146(\236\031I\321"
 367      5436C8AE 
 367      4A88D5E2 
 367      0C36289E 
 367      1949D1
 368 0718 E16D6C30 		.ascii	"\341ml0Qs\265@`\345\027\000\303\003\266\215\015\230"
 368      5173B540 
 368      60E51700 
 368      C303B68D 
 368      0D98
 369 072a B5F07C61 		.ascii	"\265\360|aZ\360Nni\335!\240\000\372\231\027\010\177"
 369      5AF04E6E 
 369      69DD21A0 
 369      00FA9917 
 369      087F
 370 073c 0A88B5DD 		.ascii	"\012\210\265\335[G\276\357\274v\327jM\327Qcv\2001\345"
 370      5B47BEEF 
 370      BC76D76A 
 370      4DD75163 
 370      768031E5 
 371 0750 C23CC9F6 		.ascii	"\302<\311\366\016\352\371\217\310\302\235N\260\235l"
 371      0EEAF98F 
 371      C8C29D4E 
 371      B09D6C
 372 075f D359530D 		.ascii	"\323YS\015\224y\217+\363y\312|\010I\334\327%\356BW\356"
ARM GAS  /tmp/cc8l9baa.s 			page 29


 372      94798F2B 
 372      F379CA7C 
 372      0849DCD7 
 372      25EE4257 
 373 0774 78C14574 		.ascii	"x\301Et\253\304\\\240\314,\027]%q\357s\345\016re\276"
 373      ABC45CA0 
 373      CC2C175D 
 373      2571EF73 
 373      E50E7265 
 374 0789 2631EF76 		.ascii	"&1\357ven\226i\235\306\313\300\212,*t\020R\263\030p"
 374      656E9669 
 374      9DC6CBC0 
 374      8A2C2A74 
 374      1052B318 
 375 079e D1013E05 		.ascii	"\321\001>\005\302\214* \031\216\012\001\3500P%\320!"
 375      C28C2A20 
 375      198E0A01 
 375      E8305025 
 375      D021
 376 07b0 A0634047 		.ascii	"\240c@G\200J\201\312\200J\204\000Z:,WF\266\351H\256"
 376      804A81CA 
 376      804A8400 
 376      5A3A2C57 
 376      46B6E948 
 377 07c5 8000154F 		.ascii	"\200\000\025O\024\225C\257\023m\363"
 377      149543AF 
 377      136DF3
 378 07d0 B75B6DF1 		.ascii	"\267[m\361\230j\266_\321\014\231\203\232%+\212\224\255"
 378      986AB65F 
 378      D10C9983 
 378      9A252B8A 
 378      94AD
 379 07e2 9031D748 		.ascii	"\2201\327H\314{\225\003E\231\311M\352Dv\206\306\251"
 379      CC7B9503 
 379      4599C94D 
 379      EA447686 
 379      C6A9
 380 07f4 EEE4CC2A 		.ascii	"\356\344\314*t\334Qw\2355\005\343>\270\231&\034\336"
 380      74DC5177 
 380      9D3505E3 
 380      3EB89926 
 380      1CDE
 381 0806 7EB06B4C 		.ascii	"~\260kL\203\002\002\347\261L*\177\274d\177'\313$\230"
 381      830202E7 
 381      B14C2A7F 
 381      BC647F27 
 381      CB2498
 382 0819 80F200B3 		.ascii	"\200\362\000\263F\331\030\346\226\362$\352\226\032g"
 382      46D918E6 
 382      96F224EA 
 382      961A67
 383 0828 B7A4F1F5 		.ascii	"\267\244\361\365\023\015\200c\356\011.\214\004\240\032"
 383      130D8063 
 383      EE092E8C 
 383      04A01A
 384 0837 0250C51D 		.ascii	"\002P\305\035Lj \366\376\000\306\035\254\006\036\367"
 384      4C6A20F6 
ARM GAS  /tmp/cc8l9baa.s 			page 30


 384      FE00C61D 
 384      AC061EF7 
 385 0847 17B70AB8 		.ascii	"\027\267\012\270\227\015r\273\352:\371\212\361,\031"
 385      970D72BB 
 385      EA3AF98A 
 385      F12C19
 386 0856 1FEBDA92 		.ascii	"\037\353\332\222\250\343\025An \357\217\215\265z\342"
 386      A8E31541 
 386      6E20EF8F 
 386      8DB57AE2 
 387 0866 278CB97C 		.ascii	"'\214\271|f\377z\214\207\351\340_^>\214\177\346\203"
 387      66FF7A8C 
 387      87E9E05F 
 387      5E3E8C7F 
 387      E683
 388 0878 02E64195 		.ascii	"\002\346A\225\350\346\361\377\344_` \371\202\277\363"
 388      E8E6F1FF 
 388      E45F6020 
 388      F982BFF3 
 389 0888 D99900A8 		.ascii	"\331\231\000\250#\235\216\024S`\200\343\003\247\003"
 389      239D8E14 
 389      536080E3 
 389      03A703
 390 0897 03994BC6 		.ascii	"\003\231K\306\307\277\2778\314\\B\026\300\327\3412~"
 390      C7BFBF38 
 390      CC5C4216 
 390      C0D7E132 
 390      7E
 391 08a8 56EE9216 		.ascii	"V\356\222\026w\231g\203\314;E2\357\244\300\246\020\303"
 391      77996783 
 391      CC3B4532 
 391      EFA4C0A6 
 391      10C3
 392 08ba 5F82E12F 		.ascii	"_\202\341/ \273&\200\306\201\306\200\236\003\215\002"
 392      20BB2680 
 392      C681C680 
 392      9E038D02 
 393 08ca 8D000D03 		.ascii	"\215\000\015\003\015\001\015\002u\000\265\0015\003\235"
 393      0D010D02 
 393      7500B501 
 393      35039D
 394 08d9 013A0F54 		.ascii	"\001:\017T\017t\216;\216\245H^\306OY\366Aw;-\270(w\334"
 394      0F748E3B 
 394      8EA5485E 
 394      C64F59F6 
 394      41773B2D 
 395 08f1 35A166AE 		.ascii	"5\241f\256\3713nrGS\345j\313\211Y\265?\236\316\2457"
 395      F9336E72 
 395      4753E56A 
 395      CB8959B5 
 395      3F9ECEA5 
 396 0906 403AD42B 		.ascii	"@:\324+\363S\361\362\314\273\340\224y\015,\363\234|"
 396      F353F1F2 
 396      CCBBE094 
 396      790D2CF3 
 396      9C7C
 397 0918 7315CE92 		.ascii	"s\025\316\222dG\327@\344\005\356\233i\360\315\024\330"
ARM GAS  /tmp/cc8l9baa.s 			page 31


 397      6447D740 
 397      E405EE9B 
 397      69F0CD14 
 397      D8
 398 0929 D7087451 		.ascii	"\327\010tQnc\367\304\313\350\3148k\303\207\350\022h"
 398      6E63F7C4 
 398      CBE8CC38 
 398      6BC387E8 
 398      1268
 399 093b D1C0A728 		.ascii	"\321\300\247(v,\271\032\227\235\324\270\364:5^\001\364"
 399      762CB91A 
 399      979DD4B8 
 399      F43A355E 
 399      01F4
 400 094d 1BD5B04D 		.ascii	"\033\325\260M\030\255\211\236\250\011t\270\240\254\303"
 400      18AD899E 
 400      A80974B8 
 400      A0ACC3
 401 095c 2C4F5C71 		.ascii	",O\\qR\201\314dU\242\234(\223\200\374\377\224(V\222"
 401      5281CC64 
 401      55A29C28 
 401      9380FCFF 
 401      94285692 
 402 0970 C8D11786 		.ascii	"\310\321\027\206\343i\"_\005\220v\036L\307R\346\246"
 402      E369225F 
 402      0590761E 
 402      4CC752E6 
 402      A6
 403 0981 BB447670 		.ascii	"\273Dvp\264\202N-\\\277\033\360\373:`\\s\362PN\022O"
 403      B4824E2D 
 403      5CBF1BF0 
 403      FB3A605C 
 403      73F2504E 
 404 0997 17626A23 		.ascii	"\027bj# \264\270\351\350\014\300\346\002p\231\317p\017"
 404      20B4B8E9 
 404      E80CC0E6 
 404      027099CF 
 404      700F
 405 09a9 90759136 		.ascii	"\220u\2216\304&\236\007\263\305\313\232S&kN-\316\315"
 405      C4269E07 
 405      B3C5CB9A 
 405      53266B4E 
 405      2DCECD
 406 09bc 89ADCE5E 		.ascii	"\211\255\316^L\206f\245\307\300\352\214\270\242IZ\232"
 406      4C8666A5 
 406      C7C0EA8C 
 406      B8A2495A 
 406      9A
 407 09cd 1366C961 		.ascii	"\023f\311a_\\\340\225\177\023\270n\271f\377M)\346\312"
 407      5F5CE095 
 407      7F13B86E 
 407      B966FF4D 
 407      29E6CA
 408 09e0 1DEF0E98 		.ascii	"\035\357\016\230p\213\233s\033~\267;\2312\231 \363\025"
 408      708B9B73 
 408      1B7EB73B 
 408      99329920 
ARM GAS  /tmp/cc8l9baa.s 			page 32


 408      F315
 409 09f2 31E696B2 		.ascii	"1\346\226\2621\312\262o\363\011\256\262\231\351/\022"
 409      31CAB26F 
 409      F309AEB2 
 409      99E92F12 
 410 0a02 A8E9B794 		.ascii	"\250\351\267\224M\217NH\204E\"5\352\216d\372-'\323\377"
 410      4D8F4E48 
 410      84452235 
 410      EA8E64FA 
 410      2D27D3FF 
 411 0a16 D8C04DEF 		.ascii	"\330\300M\357\024\346\243NW\323;d\271\222\256\244\237"
 411      14E6A34E 
 411      57D33B64 
 411      B992AEA4 
 411      9F
 412 0a27 8ACE23CA 		.ascii	"\212\316#\312=\003\345\236B\034\007\200\236\000=\000"
 412      3D03E59E 
 412      421C0780 
 412      9E003D00 
 413 0a37 BA0FD403 		.ascii	"\272\017\324\003\324\015\324\345\344\224\364k4\276\244"
 413      D40DD4E5 
 413      E494F46B 
 413      34BEA4
 414 0a46 D3760128 		.ascii	"\323v\001(\021\342\366J:\222\"\353M\335o\342n\276B%"
 414      11E2F64A 
 414      3A9222EB 
 414      4DDD6FE2 
 414      6EBE4225 
 415 0a5a F7026F8F 		.ascii	"\367\002o\217{^y\361\3669\025o\257B\377x\000g\357\023"
 415      7B5E79F1 
 415      F639156F 
 415      AF42FF78 
 415      0067EF13 
 416 0a6e 01FD20B1 		.ascii	"\001\375 \261\217G\243\037\014\276\007\206\335u\252"
 416      8F47A31F 
 416      0CBE0786 
 416      DD75AA
 417 0a7d BE8C9935 		.ascii	"\276\214\2315\333\366\256'\032\220\235\202^\316\257"
 417      DBF6AE27 
 417      1A909D82 
 417      5ECEAF
 418 0a8c D43F28BF 		.ascii	"\324?(\277\355\226\007\3515$;/q^G\225\270\346y\373."
 418      ED9607E9 
 418      35243B2F 
 418      715E4795 
 418      B8E679FB 
 419 0aa1 4482DD37 		.ascii	"D\202\3357kmB\003\271\246\206\007\222\354\030>|\223"
 419      6B6D4203 
 419      B9A68607 
 419      92EC183E 
 419      7C93
 420 0ab3 97B6DA7D 		.ascii	"\227\266\332}\372\020\374\364\350\355\374\364\010X%"
 420      FA10FCF4 
 420      E8EDFCF4 
 420      085825
 421 0ac2 3F3D647E 		.ascii	"?=d~r\327\005\321cp\217\324\010\355)\371\365\371u$%"
 421      72D705D1 
ARM GAS  /tmp/cc8l9baa.s 			page 33


 421      63708FD4 
 421      08ED29F9 
 421      F5F97524 
 422 0ad7 89A8C752 		.ascii	"\211\250\307RJ6QY\366\353\360\037\253G\231%p\245{\362"
 422      4A365159 
 422      F6EBF01F 
 422      AB479925 
 422      70A57BF2 
 423 0aeb 5A438853 		.ascii	"ZC\210S\232\370\205\216\230=\360&\356\252&\232\034\204"
 423      9AF8858E 
 423      983DF026 
 423      EEAA269A 
 423      1C84
 424 0afd F7A97B5E 		.ascii	"\367\251{^\346\356\274&\352n\340\231\275\024\274q\311"
 424      E6EEBC26 
 424      EA6EE099 
 424      BD14BC71 
 424      C9
 425 0b0e 3FD36A8B 		.ascii	"?\323j\213\301toa\220W\015\277]b5\363L\276\372\275\344"
 425      C1746F61 
 425      90570DBF 
 425      5D6235F3 
 425      4CBEFABD 
 426 0b23 6D2DFB9E 		.ascii	"m-\373\236\356\016L)\361.\222X\2170Vrwo\025\024Xe!\334"
 426      EE0E4C29 
 426      F12E9258 
 426      8F305672 
 426      776F1514 
 427 0b3b BE918710 		.ascii	"\276\221\207\020n \321:\327\025\301\3545\370\030k\251"
 427      6E20D13A 
 427      D715C1EC 
 427      35F8186B 
 427      A9
 428 0b4c 706386D2 		.ascii	"pc\206\322\225\271e\302oJ\3757\333\225Y\276\006\347"
 428      95B965C2 
 428      6F4AFD37 
 428      DB9559BE 
 428      06E7
 429 0b5e 37031277 		.ascii	"7\003\022w\2162\267,\006-\027y\304\310\"1\327\225}\366"
 429      8E32B72C 
 429      062D1779 
 429      C4C82231 
 429      D7957DF6 
 430 0b72 6D493313 		.ascii	"mI3\023N\0262\265\312\3342\341'\377\235\360\332\313"
 430      4E1632B5 
 430      CADC32E1 
 430      27FF9DF0 
 430      DACB
 431 0b84 E9ECEBCA 		.ascii	"\351\354\353\312\251\226]6\316*\367\316\357\367$\220"
 431      A9965D36 
 431      CE2AF7CE 
 431      EFF72490 
 432 0b94 4425295D 		.ascii	"D%)]'\3354\236\225\365\316\027/\227d\356\265\312\341"
 432      27DD349E 
 432      95F5CE17 
 432      2F9764EE 
 432      B5CAE1
ARM GAS  /tmp/cc8l9baa.s 			page 34


 433 0ba7 2EBC0E6E 		.ascii	".\274\016n\304@\320.(\240\331\332\357\321L#\353\230"
 433      C440D02E 
 433      28A0D9DA 
 433      EFD14C23 
 433      EB98
 434 0bb9 2B52515C 		.ascii	"+RQ\\\240X\344\261LUA\254\007}\030@\034\\\211\350\323"
 434      A058E4B1 
 434      4C5541AC 
 434      077D1840 
 434      1C5C89E8 
 435 0bce 802D5792 		.ascii	"\200-W\222\263\274\337\331\306{\362\273\"\315i\251:"
 435      B3BCDFD9 
 435      C67BF2BB 
 435      22CD69A9 
 435      3A
 436 0bdf ADF81DF8 		.ascii	"\255\370\035\370;#\210L\304\340`c\241\366\275|k~\031"
 436      3B23884C 
 436      C4E06063 
 436      A1F6BD7C 
 436      6B7E19
 437 0bf2 74A882B5 		.ascii	"t\250\202\265\331\207\240C\305X\255_PF\264O\002\205"
 437      D987A043 
 437      C558AD5F 
 437      5046B44F 
 437      0285
 438 0c04 9FE46B2F 		.ascii	"\237\344k/\\wT(\006\277\007s\223J\032\022=q\236\232"
 438      5C775428 
 438      06BF0773 
 438      934A1A12 
 438      3D719E9A 
 439 0c18 2EBDE3EB 		.ascii	".\275\343\353&\352\325r\330&\247\246\020Ga\227q\324"
 439      26EAD572 
 439      D826A7A6 
 439      10476197 
 439      71D4
 440 0c2a 810B1777 		.ascii	"\201\013\027w\353\030\252m\344\274\017\211\272\2258"
 440      EB18AA6D 
 440      E4BC0F89 
 440      BA9538
 441 0c39 15B8502C 		.ascii	"\025\270P,v`\302O\0113\236b\226\227^\033\025\360^\206"
 441      7660C24F 
 441      09339E62 
 441      96975E1B 
 441      15F05E86 
 442 0c4d A9F430C4 		.ascii	"\251\3640\304\331'\3531=x\266\366^\237\237\\9\331\306"
 442      D927EB31 
 442      3D78B6F6 
 442      5E9F9F5C 
 442      39D9C6
 443 0c60 800A6DA0 		.ascii	"\200\012m\240\272%`\256\\C\336\201'\036\\\271\226$\354"
 443      BA2560AE 
 443      5C43DE81 
 443      271E5CB9 
 443      9624EC
 444 0c73 500ED8D0 		.ascii	"P\016\330\320:I\271ur\345\022\251rW\007jk\274q\005S"
 444      3A49B975 
 444      72E512A9 
ARM GAS  /tmp/cc8l9baa.s 			page 35


 444      7257076A 
 444      6BBC7105 
 445 0c88 EE52D2F1 		.ascii	"\356R\322\361\373\210*Bj\226)\327\277#\241\333\307\255"
 445      FB882A42 
 445      6A9629D7 
 445      BF23A1DB 
 445      C7AD
 446 0c9a 1EC9548F 		.ascii	"\036\311T\217\215v=\272\253R\326{\203\036\335\354r\374"
 446      8D763DBA 
 446      AB52D67B 
 446      831EDDEC 
 446      72FC
 447 0cac B2ECAE75 		.ascii	"\262\354\256u\303\\\312\205\222$5\2220\333\343A\233"
 447      C35CCA85 
 447      92243592 
 447      30DBE341 
 447      9B
 448 0cbd 980AB0C2 		.ascii	"\230\012\260\302\307\270\216\251\220\220}\277Dt\370"
 448      C7B88EA9 
 448      90907DBF 
 448      4474F8
 449 0ccc 82A970B9 		.ascii	"\202\251p\271\352\3259\215\3738\245R\035R\354:T\245"
 449      EAD5398D 
 449      FB38A552 
 449      1D52EC3A 
 449      54A5
 450 0cde F5F4F832 		.ascii	"\365\364\3702\035l-\235\276\333\255u\"aA\233%\0056\333"
 450      1D6C2D9D 
 450      BEDBAD75 
 450      2261419B 
 450      250536DB 
 451 0cf2 1548A30A 		.ascii	"\025H\243\012l,=\330\257\305ML\201\366\211]i\"\237~"
 451      6C2C3DD8 
 451      AFC54D4C 
 451      81F6895D 
 451      69229F7E 
 452 0d06 7B878E4E 		.ascii	"{\207\216N'nL\227\246\247\333\247g\320\351m\243\343"
 452      276E4C97 
 452      A6A7DBA7 
 452      67D0E96D 
 452      A3E3
 453 0d18 755A7C9B 		.ascii	"uZ|\233M\337\320\223\320\242e\367~\023\364.\261pr\334"
 453      4DDFD093 
 453      D0A265F7 
 453      7E13F42E 
 453      B17072DC 
 454 0d2c 833F3621 		.ascii	"\203?6!\217\032g\036\266\027\362{\303Ar~[\177\343\260"
 454      8F1A671E 
 454      B617F27B 
 454      C341727E 
 454      5B7FE3B0 
 455 0d40 0677B2C9 		.ascii	"\006w\262\311\317z\342v\373\341\207l\220\177iC\223\006"
 455      CF7AE276 
 455      FBE1876C 
 455      907F6943 
 455      9306
 456 0d52 0FB04159 		.ascii	"\017\260AYjL\014\306\323l\020k}\234\342An\233\343\336"
ARM GAS  /tmp/cc8l9baa.s 			page 36


 456      6A4C0CC6 
 456      D36C106B 
 456      7D9CE241 
 456      6E9BE3DE 
 457 0d66 B05D859F 		.ascii	"\260]\205\2375\357\326\242y\201\001\312\313\261l0)\017"
 457      35EFD6A2 
 457      798101CA 
 457      CBB16C30 
 457      290F
 458 0d78 B305C00E 		.ascii	"\263\005\300\016\034\210vb\371r\254\371o!\201\340\264"
 458      1C887662 
 458      F972ACF9 
 458      6F2181E0 
 458      B4
 459 0d89 F305233E 		.ascii	"\363\005#>\316j\033\312\374\007\326\364r1\364H.D\341"
 459      CE6A1BCA 
 459      FC07D6F4 
 459      7231F448 
 459      2E44E1
 460 0d9c D2431E55 		.ascii	"\322C\036U$>/\025q\202\206nw\235\037~9\245F\201\363"
 460      243E2F15 
 460      7182866E 
 460      779D1F7E 
 460      39A54681 
 461 0db1 EC6DE98B 		.ascii	"\354m\351\213\334T\262\232-\200\331\371\222w\011\244"
 461      DC54B29A 
 461      2D80D9F9 
 461      927709A4 
 462 0dc1 BB05E42E 		.ascii	"\273\005\344.\320RIc@z\221\3650\321\007o\243H\350A\303"
 462      D0524963 
 462      407A91F5 
 462      30D1076F 
 462      A348E841 
 463 0dd6 D83D35CE 		.ascii	"\330=5\316c\203\261\013\231\305>\270\220\351\260;\375"
 463      6383B10B 
 463      99C53EB8 
 463      90E9B03B 
 463      FD
 464 0de7 994D7A3A 		.ascii	"\231Mz:\330R\274x'\335\357\334\213\265\250\010\277\325"
 464      D852BC78 
 464      27DDEFDC 
 464      8BB5A808 
 464      BFD5
 465 0df9 63A23D58 		.ascii	"c\242=X\3611Q\317\301:\350,\327\030\344\241\203\223"
 465      F13151CF 
 465      C13AE82C 
 465      D718E4A1 
 465      8393
 466 0e0b 655A9AC5 		.ascii	"eZ\232\305\337\331\223\370\346\272\353;\004\267ut\200"
 466      DFD993F8 
 466      E6BAEB3B 
 466      04B77574 
 466      80
 467 0e1c E6F07E7B 		.ascii	"\346\360~{\016[wZS\234\267Y\201A\306^\214\355k\021\362"
 467      0E5B775A 
 467      539CB759 
 467      8141C65E 
ARM GAS  /tmp/cc8l9baa.s 			page 37


 467      8CED6B11 
 468 0e31 3CA9724B 		.ascii	"<\251rK\2617nc\366m\256\316?\255A\201:\307\032%\273"
 468      B1376E63 
 468      F66DAECE 
 468      3FAD4181 
 468      3AC71A25 
 469 0e46 99D87708 		.ascii	"\231\330w\010&\034\224\354\203\371.\313\035\271|T\002"
 469      261C94EC 
 469      83F92ECB 
 469      1DB97C54 
 469      02
 470 0e57 263A41D8 		.ascii	"&:A\330*\252\312u\270\233\03174\225W\311Sx>\014\247"
 470      2AAACA75 
 470      B89B1937 
 470      349557C9 
 470      53783E0C 
 471 0e6c BB5253BD 		.ascii	"\273RS\275\370\356\006y,S\222?\222\207\361\020\343\265"
 471      F8EE0679 
 471      2C53923F 
 471      9287F110 
 471      E3B5
 472 0e7e 4D1EBFAD 		.ascii	"M\036\277\255\303\317\351@{\274\275(\230dc\200\216l"
 472      C3CFE940 
 472      7BBCBD28 
 472      98646380 
 472      8E6C
 473 0e90 690438AD 		.ascii	"i\0048\255J\017c\177T\206\311\343p\320\262\202\207\270"
 473      4A0F637F 
 473      5486C9E3 
 473      70D0B282 
 473      87B8
 474 0ea2 06F43886 		.ascii	"\006\3648\206\003P5P%P-\320\011\247$\355\250\017 W\233"
 474      03503550 
 474      25502DD0 
 474      09A724ED 
 474      A80F2057 
 475 0eb7 2A98502E 		.ascii	"*\230P.\231W\201\347\311\226`K\256\360%\330q\314\356"
 475      995781E7 
 475      C996604B 
 475      AEF025D8 
 475      71CCEE
 476 0eca 592A94D3 		.ascii	"Y*\224\323\225]\241_\264\360+:I\211\335\330\205\333"
 476      955DA15F 
 476      B4F02B3A 
 476      4989DDD8 
 476      85DB
 477 0edc CD2D7315 		.ascii	"\315-s\025v\332\266\242\336\265o^\310\266:\216\270\212"
 477      76DAB6A2 
 477      DEB56F5E 
 477      C8B63A8E 
 477      B88A
 478 0eee 93AD2794 		.ascii	"\223\255'\224\275q\024<\3606\336\340\253\242\026\272"
 478      BD71143C 
 478      F036DEE0 
 478      ABA216BA 
 479 0efe BA207636 		.ascii	"\272 v6*\332\311\226\"\374\032\236A\227\014\025\256"
 479      2ADAC996 
ARM GAS  /tmp/cc8l9baa.s 			page 38


 479      22FC1A9E 
 479      41970C15 
 479      AE
 480 0f0f 154E6FF3 		.ascii	"\025No\363\354N y\263O\331\011L\026\304\270\350\364"
 480      EC4E2079 
 480      B34FD909 
 480      4C16C4B8 
 480      E8F4
 481 0f21 984D8BD7 		.ascii	"\230M\213\327\261G*SGJ\246<q.\033\244\034\275=\345\207"
 481      B1472A53 
 481      474AA63C 
 481      712E1BA4 
 481      1CBD3DE5 
 482 0f36 8BE84098 		.ascii	"\213\350@\230\031\353?\252u\3738\273N\241\252\3545\032"
 482      19EB3FAA 
 482      75FB38BB 
 482      4EA1AAEC 
 482      351A
 483 0f48 C69E499C 		.ascii	"\306\236I\234\206\200\330\\ktZ\360\274\026\333\010e"
 483      8680D85C 
 483      6B745AF0 
 483      BC16DB08 
 483      65
 484 0f59 4FF7C2E6 		.ascii	"O\367\302\346\331c\036\335\316o \354Qlp\023Ef\357\321"
 484      D9631EDD 
 484      CE6F20EC 
 484      516C7013 
 484      4566EFD1 
 485 0f6d 6D3C48F6 		.ascii	"m<H\366\024ix]\212\034our\363l^\271\233\313\331&l\203"
 485      1469785D 
 485      8A1C6F75 
 485      72F36C5E 
 485      B99BCBD9 
 486 0f84 929B3B5A 		.ascii	"\222\233;Z\271\233\211i\247\224\265T\330\333p\354\000"
 486      B99B8969 
 486      A794B554 
 486      D8DB70EC 
 486      00
 487 0f95 9DE45348 		.ascii	"\235\344SHv\324\203\003\317BF"
 487      76D48303 
 487      CF4246
 488 0fa0 9C033A03 		.ascii	"\234\003:\003t^j\215\031\027\217<\362\302\245,\014\326"
 488      745E6A8D 
 488      19178F3C 
 488      F2C2A52C 
 488      0CD6
 489 0fb2 9CD4F33E 		.ascii	"\234\324\363>\262&\374\307\2342\322\204/\201\230\013"
 489      B226FCC7 
 489      9C32D284 
 489      2F81980B 
 490 0fc2 92731B64 		.ascii	"\222s\033dM\330\025\365\" \275\005\352\361\332\201\217"
 490      4DD815F5 
 490      2220BD05 
 490      EAF1DA81 
 490      8F
 491 0fd3 5997F027 		.ascii	"Y\227\360'W\345\216!\033\177\260\333M\272DY\323\346"
 491      57E58E21 
ARM GAS  /tmp/cc8l9baa.s 			page 39


 491      1B7FB0DB 
 491      4DBA4459 
 491      D3E6
 492 0fe5 5C1F7C8E 		.ascii	"\\\037|\216\345IIZL\206\200/\261A{\302\350E\017\334"
 492      E549495A 
 492      4C86802F 
 492      B1417BC2 
 492      E8450FDC 
 493 0ff9 4E07EABD 		.ascii	"N\007\352\275y\347\032"
 493      79E71A
 494 1000 696CE9A3 		.ascii	"il\351\243\003{t\277\356\340\025M\026\002\315\240\365"
 494      037B74BF 
 494      EEE0154D 
 494      1602CDA0 
 494      F5
 495 1011 0DEC76FD 		.ascii	"\015\354v\375\017!\230i\365\217\241n\266\257m\011\273"
 495      0F219869 
 495      F58FA16E 
 495      B6AF6D09 
 495      BB
 496 1022 C2DA9671 		.ascii	"\302\332\226qoa\333\327\366\005\375\015w!a!LmsZ\320"
 496      6F61DBD7 
 496      F605FD0D 
 496      77216121 
 496      4C6D735A 
 497 1037 2B70CFAE 		.ascii	"+p\317\256\356F\250\356\313\244\272\257p\325\211'[\301"
 497      EE46A8EE 
 497      CBA4BAAF 
 497      70D58927 
 497      5BC1
 498 1049 93D7C083 		.ascii	"\223\327\300\203\327\201Z\200n\002\265\001]u\352w\323"
 498      D7815A80 
 498      6E02B501 
 498      5D75EA77 
 498      D3
 499 105a 2C9B6E28 		.ascii	",\233n(eS^\246lo&\333U\231\3317:\331mN7:\012\334\366"
 499      65535EA6 
 499      6C6F26DB 
 499      5599D937 
 499      3AD96D4E 
 500 1073 ABF8DD67 		.ascii	"\253\370\335g\333\036\212\270\207%\320\271\373M\237"
 500      DB1E8AB8 
 500      8725D0B9 
 500      FB4D9F
 501 1082 CAF2E7FB 		.ascii	"\312\362\347\373\355S\2448o\303\354v)\177n\314\316\037"
 501      ED53A438 
 501      6FC3EC76 
 501      297F6ECC 
 501      CE1F
 502 1094 87D5B7C0 		.ascii	"\207\325\267\300\322\267\265\032\300\233G\013\341\302"
 502      D2B7B51A 
 502      C09B470B 
 502      E1C2
 503 10a2 FA942547 		.ascii	"\372\224%G]~\325O\361\004\373=\232q\253\313\027O\262"
 503      5D7ED54F 
 503      F104FB3D 
 503      9A71ABCB 
ARM GAS  /tmp/cc8l9baa.s 			page 40


 503      174FB2
 504 10b5 C1C39296 		.ascii	"\301\303\222\226\026\214c\275\251\212\351\015\317\026"
 504      168C63BD 
 504      A98AE90D 
 504      CF16
 505 10c3 B9ED343D 		.ascii	"\271\3554=n;M\355\225\017\3503\366n\250\306\256\331"
 505      6E3B4DED 
 505      950FE833 
 505      F66EA8C6 
 505      AED9
 506 10d5 8D065F89 		.ascii	"\215\006_\211\257\350C\010.]\212\213\023\025\352\345"
 506      AFE84308 
 506      2E5D8A8B 
 506      1315EAE5 
 507 10e5 46DD0584 		.ascii	"F\335\005\204>yc\356>Ze\310d\033)Dv'\310\356Un0,\312"
 507      3E7963EE 
 507      3E5A65C8 
 507      641B2944 
 507      7627C8EE 
 508 10fe 434612E4 		.ascii	"CF\022\344^\347 \223+o\341\203\033\236x?3\362H\363\370"
 508      5EE72093 
 508      2B6FE183 
 508      1B9E783F 
 508      33F248F3 
 509 1113 7E6C0F84 		.ascii	"~l\017\204m\322\007Vk\367A\350=I\361\336\327\254\244"
 509      6DD20756 
 509      6BF741E8 
 509      3D49F1DE 
 509      D7ACA4
 510 1126 FA414725 		.ascii	"\372AG%}\247\005\257\306\3031q\254\346XC\245k\371\357"
 510      7DA705AF 
 510      C6C33171 
 510      ACE65843 
 510      A56BF9EF 
 511 113a 1FF16D58 		.ascii	"\037\361mX\022\350&\300x\012\337\216\220\272\326P\366"
 511      12E826C0 
 511      780ADF8E 
 511      90BAD650 
 511      F6
 512 114b 6D9A5A44 		.ascii	"m\232ZD\237\016\316\353@\316\304N\211\010\334\251\377"
 512      9F0ECEEB 
 512      40CEC44E 
 512      8908DCA9 
 512      FF
 513 115c 4598C9DD 		.ascii	"E\230\311\335i\026gv\354.\267\270\336\023\017\376\211"
 513      69166776 
 513      EC2EB7B8 
 513      DE130FFE 
 513      89
 514 116d F0926E55 		.ascii	"\360\222nU\310y\035}I\276K\300\234r5\233V\313\323Y\325"
 514      C8791D7D 
 514      49BE4BC0 
 514      9C72359B 
 514      56CBD359 
 515 1182 42761B6F 		.ascii	"Bv\033o\361\336K\226\237\333]\225t\273\257\274\015L"
 515      F1DE4B96 
 515      9FDB5D95 
ARM GAS  /tmp/cc8l9baa.s 			page 41


 515      74BBAFBC 
 515      0D4C
 516 1194 DE4A4CBE 		.ascii	"\336JL\276\303\247\020\007>\001\007>\200\254}\0144\000"
 516      C3A71007 
 516      3E01073E 
 516      80AC7D0C 
 516      3400
 517 11a6 F408E8A1 		.ascii	"\364\010\350\241\224\301\265\353\342\307|p\025\013["
 517      94C1B5EB 
 517      E2C77C70 
 517      150B5B
 518 11b5 C7E1DE42 		.ascii	"\307\341\336By\377\015\315\035%\3653\004\242\236I\241"
 518      79FF0DCD 
 518      1D25F533 
 518      04A29E49 
 518      A1
 519 11c6 7B3ABB7E 		.ascii	"{:\273~\034\310\203\200\366\226\310\033\237\335K\364"
 519      1CC88380 
 519      F696C81B 
 519      9FDD4BF4 
 520 11d6 7EBF90DF 		.ascii	"~\277\220\337\217\255\231\270\031\017\367c\024k\013"
 520      8FAD99B8 
 520      190FF763 
 520      146B0B
 521 11e5 C3724855 		.ascii	"\303rHU\221#\360w\030\277O\036\237?\352\033w^\177^u"
 521      9123F077 
 521      18BF4F1E 
 521      9F3FEA1B 
 521      775E7F5E 
 522 11fa DA571C61 		.ascii	"\332W\034a+\034\362\015\334\311G\032\016;?>\037rZ\017"
 522      2B1CF20D 
 522      DCC9471A 
 522      0E3B3F3E 
 522      1F725A0F 
 523 120e 8D72EE51 		.ascii	"\215r\356Q\312}4\257u\207\267V\366\272\022\271DH\314"
 523      CA7D34AF 
 523      7587B756 
 523      F6BA12B9 
 523      4448CC
 524 1221 CF317938 		.ascii	"\3171y8\037D\367\211\200\373\334\314\270\315\217]F\004"
 524      1F44F789 
 524      80FBDCCC 
 524      B8CD8F5D 
 524      4604
 525 1233 B28A1EEF 		.ascii	"\262\212\036\357\032\367\231\233J'\333\254_ \372\316"
 525      1AF7999B 
 525      4A27DBAC 
 525      5F20FACE 
 526 1243 C033983C 		.ascii	"\3003\230<Fm\030\307s\355\"\350\200\364\256\311\222"
 526      466D18C7 
 526      73ED22E8 
 526      80F4AEC9 
 526      92
 527 1254 2AFEF295 		.ascii	"*\376\362\225'\271\305\352\033\357U\273G\177aG\237\300"
 527      27B9C5EA 
 527      1BEF55BB 
 527      477F6147 
ARM GAS  /tmp/cc8l9baa.s 			page 42


 527      9FC0
 528 1266 147E3469 		.ascii	"\024~4i\3358\177\365\223\334\275\331_S\234\317^S\\\237"
 528      DD387FF5 
 528      93DCBDD9 
 528      5F539CCF 
 528      5E535C9F 
 529 127a BFED9937 		.ascii	"\277\355\2317\327\306j\327f\022<\372\222j3E\265y\301"
 529      D7C66AD7 
 529      66123CFA 
 529      926A3345 
 529      B579C1
 530 128d B499A2DA 		.ascii	"\264\231\242\332<\035nj\020\235\\\225\352\264\260\237"
 530      3C1D6E6A 
 530      109D5C95 
 530      EAB4B09F 
 531 129d E6AE9AA6 		.ascii	"\346\256\232\246\256:\336\261>\3219\014\311N\334\257"
 531      AE3ADEB1 
 531      3ED1390C 
 531      C94EDCAF 
 532 12ad 38F72B16 		.ascii	"8\367+\026\206u\007b\274p=M34}!'\333\375\355\206U\224"
 532      86750762 
 532      BC703D4D 
 532      33347D21 
 532      27DBFDED 
 533 12c4 6F6D3C7F 		.ascii	"om<\177\3305J\356\230me\326\356\346\223\213\357\034"
 533      D8354AEE 
 533      986D65D6 
 533      EEE6938B 
 533      EF1C
 534 12d6 B15A13AD 		.ascii	"\261Z\023\255\344\276\027\330\320\214\224\2243\362\355"
 534      E4BE17D8 
 534      D08C9494 
 534      33F2ED
 535 12e5 831891DC 		.ascii	"\203\030\221\334\373\356\031\237\330\350\213\007\031"
 535      FBEE199F 
 535      D8E88B07 
 535      19
 536 12f2 E6F08E8B 		.ascii	"\346\360\216\213Y\230\313\3312\262$\247\220n\314\344"
 536      5998CBD9 
 536      32B224A7 
 536      906ECCE4 
 537 1302 7F4DF150 		.ascii	"\177M\361P\254(m\222\2102AqTP[\177]\010~\311\344\034"
 537      AC286D92 
 537      88324171 
 537      54505B7F 
 537      5D087EC9 
 538 1318 28D951E6 		.ascii	"(\331Q\346\2137\350\330[Jugr\311\206\011ZG'\221-\202"
 538      8B37E8D8 
 538      5B4A7567 
 538      72C98609 
 538      5A472791 
 539 132e 27BB5B05 		.ascii	"'\273[\005zsU\347\330Bio-X\344~\263\204Z\233 rs\357"
 539      7A7355E7 
 539      D842696F 
 539      2D58E47E 
 539      B3845A9B 
 540 1346 3C1919D0 		.ascii	"<\031\031\320p5;z\377sz\214\254%\254\326x4\237p\242"
ARM GAS  /tmp/cc8l9baa.s 			page 43


 540      70353B7A 
 540      FF737A8C 
 540      AC25ACD6 
 540      78349F70 
 541 135b 78BB9E68 		.ascii	"x\273\236h\275(\222\221\244j\"U\365\354\305\221=j|\225"
 541      BD289291 
 541      A46A2255 
 541      F5ECC591 
 541      3D6A7C95 
 542 136f A957DA96 		.ascii	"\251W\332\226\235\301\266L\240\026\2702\0051\373\232"
 542      9DC1B64C 
 542      A016B832 
 542      0531FB9A 
 543 137f D58E3D8C 		.ascii	"\325\216=\214\215\"=X\377\270\356=\267\032n\242\032"
 543      8D223D58 
 543      FFB8EE3D 
 543      B71A6EA2 
 543      1A
 544 1390 26DB356C 		.ascii	"&\3335lnK\353\326q\015a-\233\035w)\331\232\037k\375"
 544      6E4BEBD6 
 544      710D612D 
 544      9B1D7729 
 544      D99A1F6B 
 545 13a5 E26BC288 		.ascii	"\342k\302\210\222$G&\311\265\333L\265k~Z\235\354\215"
 545      92244726 
 545      C9B5DB4C 
 545      B56B7E5A 
 545      9DEC8D
 546 13b8 3B9976CD 		.ascii	";\231v\315\323\015\215\242#\262a\035N\221M\221\344\244"
 546      D30D8DA2 
 546      23B2611D 
 546      4E914D91 
 546      E4A4
 547 13ca C8E5A452 		.ascii	"\310\345\244R9\335;\357g\370\340GLN\342\246\307\203"
 547      39DD3BEF 
 547      67F8E047 
 547      4C4EE2A6 
 547      C783
 548 13dc 1E526477 		.ascii	"\036Rdw8G6M\022\224&\027\224N\005u\024$v\250\361\030"
 548      3847364D 
 548      12942617 
 548      944E0575 
 548      142476A8 
 549 13f2 13343DD8 		.ascii	"\0234=\330<\315\337\363\325\302\260\245\177W<\257\247"
 549      3CCDDFF3 
 549      D5C2B0A5 
 549      7F573CAF 
 549      A7
 550 1403 66727A57 		.ascii	"frzW\343\3106-\216\367a/\231\034+\252\342/\036jH\210"
 550      E3C8362D 
 550      8EF7612F 
 550      991C2BAA 
 550      E22F1E6A 
 551 1419 A70BF25F 		.ascii	"\247\013\362_\3237\262D^\271\231\"{\227.\253b\\p\255"
 551      D337B244 
 551      5EB99922 
 551      7B972EAB 
ARM GAS  /tmp/cc8l9baa.s 			page 44


 551      625C70AD 
 552 142d CDADA23F 		.ascii	"\315\255\242?\332\"\322=\022q\256}\022]>\344=o\023\345"
 552      DA22D23D 
 552      1271AE7D 
 552      125D3EE4 
 552      3D6F13E5 
 553 1441 DC59AFE3 		.ascii	"\334Y\257\343\336{\357\304A\035\264\325\346|\262\003"
 553      DE7BEFC4 
 553      411DB4D5 
 553      E67CB203 
 554 1451 F9DB9C3D 		.ascii	"\371\333\234=\326\015ep\235\311\026\347\242m\340\213"
 554      D60D6570 
 554      9DC916E7 
 554      A26DE08B 
 555 1461 18FC9E6C 		.ascii	"\030\374\236ln\006\034\371\035\344o\216H:\353\371\313"
 555      6E061CF9 
 555      1DE46F8E 
 555      483AEBF9 
 555      CB
 556 1472 B712B578 		.ascii	"\267\022\265x\223\217\333\315\256\306s-Y^8\2172\210"
 556      938FDBCD 
 556      AEC6732D 
 556      595E388F 
 556      3288
 557 1484 770F55B4 		.ascii	"w\017U\264b\244a\257J\005&\320\327\231b\363\337\375"
 557      62A461AF 
 557      4A0526D0 
 557      D79962F3 
 557      DFFD
 558 1496 8BE375A6 		.ascii	"\213\343u\246\0021\020\355\0245 !\037\000w\001 yS\212"
 558      023110ED 
 558      14352021 
 558      1F007701 
 558      2079538A 
 559 14aa 1CA16F4F 		.ascii	"\034\241oO\315\241?e\257X\301\020\355\020\035\257X\001"
 559      CDA13F65 
 559      AF58C110 
 559      ED101DAF 
 559      5801
 560 14bc DEC8C4D3 		.ascii	"\336\310\304\323\"Oyb\022\026\311\255\20543\363\354"
 560      224F7962 
 560      1216C9AD 
 560      853433F3 
 560      EC
 561 14cd 99B9B967 		.ascii	"\231\271\271go\243\027O\204\314\307k\267\337\264\327"
 561      6FA3174F 
 561      84CCC76B 
 561      B7DFB4D7 
 562 14dd 4E00E144 		.ascii	"N\000\341D\271R&\344\3123a7\315\204\230\372\275q^\370"
 562      B95226E4 
 562      CA336137 
 562      CD8498FA 
 562      BD715EF8 
 563 14f1 8C8FDBC2 		.ascii	"\214\217\333\302\251\035j^\347\351~\243o/\325e\217]"
 563      A91D6A5E 
 563      E7E97EA3 
 563      6F2FD565 
ARM GAS  /tmp/cc8l9baa.s 			page 45


 563      8F5D
 564 1503 97FD89BB 		.ascii	"\227\375\211\273\246\005\251Jr\012\233\354U\002\214"
 564      A605A94A 
 564      720A9BEC 
 564      55028C
 565 1512 A84852A5 		.ascii	"\250HR\245H\256\312>\252JMO\316C\347>\274\301\251\263"
 565      48AECA3E 
 565      AA4A4D4F 
 565      CE43E73E 
 565      BCC1A9B3 
 566 1526 EE175967 		.ascii	"\356\027Yg\205o\3221*;\342\374\360\015\246x\336\361"
 566      856FD231 
 566      2A3BE2FC 
 566      F00DA678 
 566      DEF1
 567 1538 079582C3 		.ascii	"\007\225\202\303\005\213w8\\\300\366\011\017H\270\007"
 567      058B7738 
 567      5CC0F609 
 567      0F48B807 
 568 1548 E4B8C514 		.ascii	"\344\270\305\024wg\272\365\274\017\356c\222\012\037"
 568      7767BAF5 
 568      BC0FEE63 
 568      920A1F
 569 1557 9D38C35F 		.ascii	"\2358\303_k\366!(\005[\212DV\014\017\310\351\365Y\365"
 569      6BF62128 
 569      055B8A44 
 569      560C0FC8 
 569      E9F559F5 
 570 156b 951AF709 		.ascii	"\225\032\367\011_jO\370\373l\003j\264\363^\200k\276"
 570      5F6A4FF8 
 570      FB6C036A 
 570      B4F35E80 
 570      6BBE
 571 157d 1F82A428 		.ascii	"\037\202\244(\241YXF3\270\324\236\301\325Uw\332=\\\363"
 571      A1595846 
 571      33B8D49E 
 571      C1D55577 
 571      DA3D5CF3 
 572 1591 DD2DF7B6 		.ascii	"\335-\367\266\015\3273\265\216|7\034\340\371~\230\347"
 572      0DD733B5 
 572      8E7C371C 
 572      E0F97E98 
 572      E7
 573 15a2 7B22E4BB 		.ascii	"{\"\344\2734\367 \317\367#\342\373*Mp\3507\346\025K"
 573      34F720CF 
 573      F723E2FB 
 573      2A4D70E8 
 573      37E6154B 
 574 15b6 8D9121EA 		.ascii	"\215\221!\352_\375\372\273w\277\372\350#\225F\257\017"
 574      5FFDFABB 
 574      77BFFAE8 
 574      239546AF 
 574      0F
 575 15c7 8BB42CFA 		.ascii	"\213\264,\372Xo1\006\205FE\030\203B\014\221a\306\360"
 575      586F3106 
 575      85464518 
 575      83420C91 
ARM GAS  /tmp/cc8l9baa.s 			page 46


 575      61C6F0
 576 15da A05F462C 		.ascii	"\240_F,3\206\204\030C\2764E\004\255\010\016^`0E,\210"
 576      33868418 
 576      43BE3445 
 576      04AD080E 
 576      5E603045 
 577 15f0 8C8A342E 		.ascii	"\214\2124.0\032\226\205-\370\271\376\223\005\037\177"
 577      301A9685 
 577      2DF8B9FE 
 577      93051F7F 
 578 1600 F8D1A77F 		.ascii	"\370\321\247\177Y\024\344t\"(,28|e\2101(\302\020\034"
 578      5914E474 
 578      22282C32 
 578      387C6588 
 578      3128C210 
 579 1615 1A16690C 		.ascii	"\032\026i\014\322\207\030\227\033V\206[\364\226\265"
 579      D2871897 
 579      1B56865B 
 579      F496B5
 580 1624 D146F3C2 		.ascii	"\321F\363\302P\225\027G\373\323\377%\232y\2559Ho\266"
 580      50951747 
 580      FBD3FF25 
 580      9A79AD39 
 580      486FB6
 581 1637 84806C80 		.ascii	"\204\200l\200\360\2100\257\320[>_\2700\210\375\2172"
 581      F08830AF 
 581      D05B3E5F 
 581      B83088FD 
 581      8F32
 582 1649 07054745 		.ascii	"\007\005GEDDE\006EG\231,\346\240/\277\375\346\253o\326"
 582      44444506 
 582      4547992C 
 582      E6A02FBF 
 582      FDE6AB6F 
 583 165e 9063D161 		.ascii	"\220c\321a\341F\2239\350W_}\025\024\034j\327Pm2\032"
 583      E1469339 
 583      E8575F7D 
 583      15141C6A 
 583      D7506D32 
 584 1673 C2A34D61 		.ascii	"\302\243MaQZ\275~%\327Vm\377\341e!g\340;\302\262&<\314"
 584      515ABD7E 
 584      25D7566D 
 584      FFE16521 
 584      67E03BC2 
 585 168b 6C11238D 		.ascii	"l\021#\215k,\036Q\253#\215&\217\277\2544\2564\316\011"
 585      6B2C1E51 
 585      AB238D26 
 585      8FBFAC34 
 585      AE34CE09 
 586 169f 0ED55B42 		.ascii	"\016\325[BAD\210YO\017\210\321&\343*?\247Cd\372J\213"
 586      41448859 
 586      4F0F88D1 
 586      26E32A3F 
 586      A74364FA 
 587 16b5 710DC805 		.ascii	"q\015\310\005n\372Sm\214\206\250\204E\256\3606\2562"
 587      6EFA536D 
 587      8C86A884 
ARM GAS  /tmp/cc8l9baa.s 			page 47


 587      45AEF036 
 587      AE32
 588 16c7 465A220C 		.ascii	"FZ\"\014\346\037\340,\030B'x\2556\204Y\340\244\237L"
 588      E61FE02C 
 588      18422778 
 588      AD368459 
 588      E0A49F4C 
 589 16db 3841F795 		.ascii	"8A\367\225\017\364\026\264\322\323\270\232L\365\\m\001"
 589      0FF416B4 
 589      D2D3B89A 
 589      4CF55C6D 
 589      01
 590 16ec FDA2E1CB 		.ascii	"\375\242\341\313l\214\210\306\301\221\026\017 \275E"
 590      6C8C88C6 
 590      C191160F 
 590      20BD45
 591 16fb 07F3E188 		.ascii	"\007\363\341\210!:4\312d\3642\023 \363\012\217\325\026"
 591      213A34CA 
 591      64F43213 
 591      20F30A8F 
 591      D516
 592 170d 8B297A2E 		.ascii	"\213)z.\023\2457\031\227\033M\306\310`P\022\246G-\373"
 592      13A53719 
 592      971B4DC6 
 592      C8605012 
 592      A6472DFB 
 593 1721 73B4DAB8 		.ascii	"s\264\332\270&\314\022\034\025b\3644\205\254\005~\021"
 593      26CC121C 
 593      1562F434 
 593      85AC057E 
 593      11
 594 1732 58CC1AE6 		.ascii	"X\314\032\346\233\317\301\024\373\267\205\034\327[<"
 594      9BCFC114 
 594      FBB7851C 
 594      D75B3C
 595 1741 96871B56 		.ascii	"\226\207\033V\230\275,\0210\003Ff\213\301bT[\350\027"
 595      98BD2C11 
 595      30034666 
 595      8BC16254 
 595      5BE817
 596 1754 11695866 		.ascii	"\021iXf0\033\271g?\375\204{\226\374\320\232-?\030\302"
 596      301BB967 
 596      3FFD847B 
 596      96FCD09A 
 596      2D3F18C2 
 597 1768 C35644EA 		.ascii	"\303VD\352-?{c\350B\203\301\000\210\225\030i\2100\212"
 597      2D3F7B63 
 597      E84283C1 
 597      00889518 
 597      6988308A 
 598 177c C1A10693 		.ascii	"\301\241\006\223GTx\010\304 \322\270\332h\302\301\226"
 598      47547808 
 598      C420D2B8 
 598      DA68C2C1 
 598      96
 599 178d 3582395A 		.ascii	"5\2029Z\0107A,W@\312\350-\330\364\321G@\037\012\246"
 599      0837412C 
ARM GAS  /tmp/cc8l9baa.s 			page 48


 599      5740CAE8 
 599      2DD8F4D1 
 599      47401F0A 
 600 17a2 7F124C9F 		.ascii	"\177\022L\237\013\246\317\004\323\247\202\351\347\202"
 600      0BA6CF04 
 600      D3A782E9 
 600      E782
 601 17b0 E9136F22 		.ascii	"\351\023o\"\231\324\000LZ\360v\300\372U\237E\000\270"
 601      99D4004C 
 601      5AF076C0 
 601      FA559F45 
 601      00B8
 602 17c2 8ECE0C8E 		.ascii	"\216\316\014\216\212\204\370YD\222\027\032G|"
 602      8A84F859 
 602      4492171A 
 602      477C
 603 17d0 3C22A2A3 		.ascii	"<\"\242\243\242\302\325\334\251\226w\345\202M\026G\342"
 603      A2C2D5DC 
 603      A99677E5 
 603      824D1647 
 603      E2
 604 17e1 06879A83 		.ascii	"\006\207\232\203CC@\326\337\273e\200@\302\371\000\367"
 604      434340D6 
 604      DFBB6580 
 604      40C2F900 
 604      F7
 605 17f2 02D69AED 		.ascii	"\002\326\232\355\231\353^\010\004\035\316\377\304\345"
 605      99EB5E08 
 605      041DCEFF 
 605      C4E5
 606 1800 BCD9144C 		.ascii	"\274\331\024L\000\314+\026\006\363\326\360\007\3103"
 606      00CC2B16 
 606      06F3D6F0 
 606      07C833
 607 180f 1DFDF5AD 		.ascii	"\035\375\365\2551\334\010\221\362\011\016]\032\034\372"
 607      31DC0891 
 607      F2090E5D 
 607      1A1CFA
 608 181e ABA8A5E1 		.ascii	"\253\250\245\341Fc\364Ro:\372\026LZ\273XG\177\377\301"
 608      4663F452 
 608      6F3AFA16 
 608      4C5ABB58 
 608      477FFFC1 
 609 1832 F0837165 		.ascii	"\360\203qe\364R!8T\033a\000'R{q\3102\232\252D5c\004"
 609      F4522138 
 609      541B6100 
 609      27527B71 
 609      C8329AAA 
 610 184a B480652B 		.ascii	"\264\200e+Wh\242\241\322\203\365\000\346+?\014)\261"
 610      5768A2A1 
 610      D283F500 
 610      E62B3F0C 
 610      29B1
 611 185c CA42B2D7 		.ascii	"\312B\262\327#\304\030n1\370\3009\220b4\2552\204\277"
 611      23C4186E 
 611      31F8C039 
 611      906234AD 
ARM GAS  /tmp/cc8l9baa.s 			page 49


 611      3284BF
 612 186f CE6B96B0 		.ascii	"\316k\226\260\010\032\376\345+#\203\325\253,\344Ko!"
 612      081AFEE5 
 612      2B2383D5 
 612      AB2CE44B 
 612      6F21
 613 1881 A5B72ACC 		.ascii	"\245\267*\314dYI\346\002\203\011G\033L~NG\364\226\037"
 613      645949E6 
 613      02830947 
 613      1B4C7E4E 
 613      47F4961F 
 614 1895 BB32B1E2 		.ascii	"\2732\261\342Q\207\033\314\0262\326\020\355\340[o\371"
 614      51871BCC 
 614      1632D610 
 614      EDE05B6F 
 614      F9
 615 18a6 91021B24 		.ascii	"\221\002\033$\264\211|\203[\364\304\322\265\364\250"
 615      B4897C83 
 615      5BF4C4D2 
 615      B5F4A8
 616 18b5 57F04A13 		.ascii	"W\360J\023\324\214E'\035\322[4\016\007\010\226\010\317"
 616      D48C4527 
 616      1DD25B34 
 616      0E070896 
 616      08CF
 617 18c7 A8E5CBCD 		.ascii	"\250\345\313\315F\213\227\311B\353\360\357\334\033F"
 617      468B97C9 
 617      42EBF0EF 
 617      DC1B46
 618 18d6 E234C712 		.ascii	"\3424\307\022\241\017\206ZXf2X\302\242\240 \274%g\022"
 618      A10F865A 
 618      58663258 
 618      C2A2A020 
 618      BC256712 
 619 18ea B94BD79A 		.ascii	"\271K\327\232\377#*\370\207\327\204{-I\007\015\315\317"
 619      FF232AF8 
 619      87D7847B 
 619      2D49070D 
 619      CDCF
 620 18fc 70E0F4D1 		.ascii	"p\340\364\321C\331[\364\277\370r\351/\227|\273\330\307"
 620      43D95BF4 
 620      BFF872E9 
 620      2F977CBB 
 620      D8C7
 621 190e 10BEDAB0 		.ascii	"\020\276\332\260\326\0149\037\016-\372\237\025r\036"
 621      D60C391F 
 621      0E2DFA9F 
 621      15721E
 622 191d F299647C 		.ascii	"\362\231d|\320W\337,]\2744\350+H\371\240\305v\341\021"
 622      D057DF2C 
 622      5DBC34E8 
 622      2B48F9A0 
 622      C576E111 
 623 1931 E630B31E 		.ascii	"\3460\263\036z4)\000\326\315\302\"\315F\023\321\021"
 623      7A342900 
 623      D6CDC222 
 623      CD4613D1 
ARM GAS  /tmp/cc8l9baa.s 			page 50


 623      11
 624 1942 F4FA2E92 		.ascii	"\364\372.\222\340\261\232Z\031\311\261ix\364\013?\373"
 624      E0B19A5A 
 624      19C9B169 
 624      78F40B3F 
 624      FB
 625 1953 F0E79FAB 		.ascii	"\360\347\237\253\355#?\232e\213\315KX\333[\354\241\377"
 625      ED233F9A 
 625      658BCD4B 
 625      58DB5BEC 
 625      A1FF
 626 1965 0514CC6B 		.ascii	"\005\024\314k\312\000\2624T\3657\014qy\330\362(\360"
 626      CA00B234 
 626      54F5370C 
 626      7179D8F2 
 626      28F0
 627 1977 7F44D42A 		.ascii	"\177D\324*\222\240R\266.\225\203}\372\331\377\002\341"
 627      92A052B6 
 627      2E95837D 
 627      FAD9FF02 
 627      E1
 628 1988 1137A0   		.ascii	"\0217\240"
 629              		.text
 630              		.section	.gnu.lto_.symtab.9e0893ee78b1cdfb,"",%progbits
 631 0000 63684D73 		.ascii	"chMsgSend\000"
 631      6753656E 
 631      6400
 632 000a 00       		.ascii	"\000"
 633 000b 00       		.ascii	"\000"
 634 000c 00       		.ascii	"\000"
 635 000d 00000000 		.ascii	"\000\000\000\000\000\000\000\000"
 635      00000000 
 636 0015 81010000 		.ascii	"\201\001\000\000"
 637 0019 63684D73 		.ascii	"chMsgWait\000"
 637      67576169 
 637      7400
 638 0023 00       		.ascii	"\000"
 639 0024 00       		.ascii	"\000"
 640 0025 00       		.ascii	"\000"
 641 0026 00000000 		.ascii	"\000\000\000\000\000\000\000\000"
 641      00000000 
 642 002e 84010000 		.ascii	"\204\001\000\000"
 643 0032 63684D73 		.ascii	"chMsgRelease\000"
 643      6752656C 
 643      65617365 
 643      00
 644 003f 00       		.ascii	"\000"
 645 0040 00       		.ascii	"\000"
 646 0041 00       		.ascii	"\000"
 647 0042 00000000 		.ascii	"\000\000\000\000\000\000\000\000"
 647      00000000 
 648 004a 89010000 		.ascii	"\211\001\000\000"
 649 004e 636800   		.ascii	"ch\000"
 650 0051 00       		.ascii	"\000"
 651 0052 02       		.ascii	"\002"
 652 0053 00       		.ascii	"\000"
 653 0054 00000000 		.ascii	"\000\000\000\000\000\000\000\000"
ARM GAS  /tmp/cc8l9baa.s 			page 51


 653      00000000 
 654 005c F2010000 		.ascii	"\362\001\000\000"
 655 0060 63685363 		.ascii	"chSchGoSleepS\000"
 655      68476F53 
 655      6C656570 
 655      5300
 656 006e 00       		.ascii	"\000"
 657 006f 02       		.ascii	"\002"
 658 0070 00       		.ascii	"\000"
 659 0071 00000000 		.ascii	"\000\000\000\000\000\000\000\000"
 659      00000000 
 660 0079 8D010000 		.ascii	"\215\001\000\000"
 661 007d 63685363 		.ascii	"chSchReadyI\000"
 661      68526561 
 661      64794900 
 662 0089 00       		.ascii	"\000"
 663 008a 02       		.ascii	"\002"
 664 008b 00       		.ascii	"\000"
 665 008c 00000000 		.ascii	"\000\000\000\000\000\000\000\000"
 665      00000000 
 666 0094 91010000 		.ascii	"\221\001\000\000"
 667 0098 63685363 		.ascii	"chSchWakeupS\000"
 667      6857616B 
 667      65757053 
 667      00
 668 00a5 00       		.ascii	"\000"
 669 00a6 02       		.ascii	"\002"
 670 00a7 00       		.ascii	"\000"
 671 00a8 00000000 		.ascii	"\000\000\000\000\000\000\000\000"
 671      00000000 
 672 00b0 93010000 		.ascii	"\223\001\000\000"
 673              		.text
 674              		.section	.gnu.lto_.opts,"",%progbits
 675 0000 272D666D 		.ascii	"'-fmath-errno' '-fsigned-zeros' '-ftrapping-math' '"
 675      6174682D 
 675      6572726E 
 675      6F272027 
 675      2D667369 
 676 0033 2D666E6F 		.ascii	"-fno-trapv' '-fno-openmp' '-fno-openacc' '-mcpu=cor"
 676      2D747261 
 676      70762720 
 676      272D666E 
 676      6F2D6F70 
 677 0066 7465782D 		.ascii	"tex-m4' '-mthumb' '-ggdb' '-O2' '-fomit-frame-point"
 677      6D342720 
 677      272D6D74 
 677      68756D62 
 677      2720272D 
 678 0099 65722720 		.ascii	"er' '-falign-functions=16' '-ffunction-sections' '-"
 678      272D6661 
 678      6C69676E 
 678      2D66756E 
 678      6374696F 
 679 00cc 66646174 		.ascii	"fdata-sections' '-fno-common' '-flto'\000"
 679      612D7365 
 679      6374696F 
 679      6E732720 
ARM GAS  /tmp/cc8l9baa.s 			page 52


 679      272D666E 
 680              		.text
 681              		.comm	__gnu_lto_v1,1,1
 682              		.comm	__gnu_lto_slim,1,1
 683              		.ident	"GCC: (GNU Tools for ARM Embedded Processors) 5.4.1 20160919 (release) [ARM/embedded-5-bran
ARM GAS  /tmp/cc8l9baa.s 			page 53


DEFINED SYMBOLS
                            *ABS*:00000000 chmsg.c
                            *COM*:00000001 __gnu_lto_v1
                            *COM*:00000001 __gnu_lto_slim

NO UNDEFINED SYMBOLS
