ARM GAS  /tmp/ccOZhMBW.s 			page 1


   1              		.syntax unified
   2              		.cpu cortex-m4
   3              		.fpu softvfp
   4              		.eabi_attribute 20, 1
   5              		.eabi_attribute 21, 1
   6              		.eabi_attribute 23, 3
   7              		.eabi_attribute 24, 1
   8              		.eabi_attribute 25, 1
   9              		.eabi_attribute 26, 1
  10              		.eabi_attribute 30, 2
  11              		.eabi_attribute 34, 1
  12              		.eabi_attribute 18, 4
  13              		.thumb
  14              		.syntax unified
  15              		.file	"chmtx.c"
  16              		.text
  17              	.Ltext0:
  18              		.section	.gnu.lto_.profile.31b02b25462048fa,"",%progbits
  19 0000 789C6361 		.ascii	"x\234ca`d`c`\000\222\307\230\3562\002\000\005m\001\263"
  19      60646063 
  19      600092C7 
  19      98EE3202 
  19      00056D01 
  20              		.text
  21              		.section	.gnu.lto_.icf.31b02b25462048fa,"",%progbits
  22 0000 789C6361 		.ascii	"x\234ca`d\000\001;\006\004\340bx0\347@?#\323\216\305"
  22      60640001 
  22      3B0604E0 
  22      627830E7 
  22      403F23D3 
  23 0016 F7EFB332 		.ascii	"\367\357\2632\377\373\264x\"+\313\247u\333\217\260\261"
  23      FFFBB478 
  23      222BCBA7 
  23      75DB8FB0 
  23      B1
  24 0027 7E3EB36F 		.ascii	"~>\263o\026\033\333\345\247\227&\262\261\237\237x~\015"
  24      161BDBE5 
  24      A79726B2 
  24      B19F9F78 
  24      7E0D
  25 0039 17C79B83 		.ascii	"\027\307\233\203_Osr\376^\263\374\023\013\327\311\273"
  25      5F4F7372 
  25      FE5EB3FC 
  25      130BD7C9 
  25      BB
  26 004a 671FF133 		.ascii	"g\037\3613\000\000\346i\037\371"
  26      0000E669 
  26      1FF9
  27              		.text
  28              		.section	.gnu.lto_.jmpfuncs.31b02b25462048fa,"",%progbits
  29 0000 789C6361 		.ascii	"x\234ca`d\000\201\"\006\004\340b`dd\254g\002\021\314"
  29      60640081 
  29      220604E0 
  29      62606464 
  29      AC670211 
  30 0015 10D65F26 		.ascii	"\020\326_&\306'\277\327\356\342\373\302\324\312\314"
  30      C627BFD7 
ARM GAS  /tmp/ccOZhMBW.s 			page 2


  30      EEE2FBC2 
  30      D4CACC
  31 0024 C0C8C6B8 		.ascii	"\300\310\306\270\234Q\206\201\201\011\250\224\005(\317"
  31      9C518681 
  31      8109A894 
  31      0528CF
  32 0033 C8C45409 		.ascii	"\310\304T\011\322\306\012V\013a\263\301\330@\323\331"
  32      D2C60A56 
  32      0B61B3C1 
  32      D840D3D9 
  33 0043 416CB06A 		.ascii	"Al\260j\016\260(\220\301\011\321\315\305\000\241\031"
  33      0EB02890 
  33      C109D1CD 
  33      C500A119 
  34 0053 00D5040C 		.ascii	"\000\325\004\014m"
  34      6D
  35              		.text
  36              		.section	.gnu.lto_.inline.31b02b25462048fa,"",%progbits
  37 0000 789C6D4F 		.ascii	"x\234mO=K\003A\020}3\273w\273\267\011\\\2641\205xg\223"
  37      3D4B0341 
  37      107D33BB 
  37      77BBB709 
  37      5CB43185 
  38 0017 74222296 		.ascii	"t\"\"\226\"\010\226\371\015\326\361WXDRjca!\351\374"
  38      220896F9 
  38      0DD6F157 
  38      5844526A 
  38      636121E9 
  39 002c E8FDC04A 		.ascii	"\350\375\300J\00266J*\301\326\"\215hac\241dv7\321 N"
  39      0236364A 
  39      2AC1D622 
  39      8D686163 
  39      A1647637 
  40 0043 313B3BEF 		.ascii	"1;;\357\315\2747\032\004\037\227\361\011\341\000k\010"
  40      CDBC371A 
  40      041F97F1 
  40      09E1006B 
  40      08
  41 0054 6C6FD761 		.ascii	"lo\327a\337\227\330\367\030iB\204Rh\254\256\347\220"
  41      DF97D8F7 
  41      18694284 
  41      5268ACAE 
  41      E790
  42 0066 3DAD85BE 		.ascii	"=\255\205\276\302\000\007D\032\345\316\027\323a\247"
  42      C2000744 
  42      1AE5CE17 
  42      D361A7
  43 0075 FF603EB8 		.ascii	"\377`>\270\243\204J'4\2576P\266'\005!f\030~\314\221"
  43      A3844A27 
  43      34AF3650 
  43      B6270521 
  43      66187ECC 
  44 008a F60A060D 		.ascii	"\366\012\006\015M\215\221t\2335\3609[\021\371N-\366"
  44      4D8D9174 
  44      9B35F039 
  44      5B11F94E 
  44      2DF6
ARM GAS  /tmp/ccOZhMBW.s 			page 3


  45 009c E8E62AD7 		.ascii	"\350\346*\327A\265\002-\006\343\263\337\3220\271\374"
  45      41B5022D 
  45      06E3B3DF 
  45      D230B9FC 
  46 00ac 74AF88E3 		.ascii	"t\257\210\343\221\341\221\004\025+Hv\272\005\323mFg"
  46      91E19104 
  46      152B4876 
  46      BA05D36D 
  46      4667
  47 00be D580A4C8 		.ascii	"\325\200\244\310,)\261\367\257\037\257\362\327I\234"
  47      2C29B1F7 
  47      AF1FAFF2 
  47      D7499C
  48 00cd B57ED860 		.ascii	"\265~\330`\361\015\223\263\227\357\206\016\325\317\315"
  48      F10D93B3 
  48      97EF860E 
  48      D5CFCD
  49 00dc B09DDCAF 		.ascii	"\260\235\334\257\270\305\302\013\274\206l\334\016\334"
  49      B8C5C20B 
  49      BC866CDC 
  49      0EDC
  50 00ea 50C2342E 		.ascii	"P\3024.\216\034\334\331jX\257c\036+\371\0149\244>uD"
  50      8E1CDCD9 
  50      6A58AF63 
  50      1E2BF90C 
  50      39A43E75 
  51 00ff 86FAB388 		.ascii	"\206\372\263\210q\343~wf\352@\362\230C\361\352\261\225"
  51      71E37E77 
  51      66EA40F2 
  51      9843F1EA 
  51      B195
  52 0111 FEF1EC0F 		.ascii	"\376\361\354\01766\021\010\030\001\002\017<?"
  52      36361108 
  52      1801020F 
  52      3C3F
  53              		.text
  54              		.section	.gnu.lto_.pureconst.31b02b25462048fa,"",%progbits
  55 0000 789C05C1 		.ascii	"x\234\005\301\011\001\0000\010\002@\330t\217\015\244"
  55      09010030 
  55      080240D8 
  55      748F0DA4 
  56 0010 7F0AD279 		.ascii	"\177\012\322y\027 \032@AK[a\246y\372\232O_e\016-\306"
  56      17201A40 
  56      414B5B61 
  56      A679FA9A 
  56      4F5F650E 
  57 0026 03E6     		.ascii	"\003\346"
  58              		.text
  59              		.section	.gnu.lto_chMtxTryLockS.part.0.31b02b25462048fa,"",%progbits
  60 0000 789C9592 		.ascii	"x\234\225\222\317OSA\020\307\367\273\263m_\253\022\356"
  60      CF4F5341 
  60      10C7F7BB 
  60      B36D5FAB 
  60      12EE
  61 0012 56D35BC3 		.ascii	"V\323[\303\201>\177\374'\376\013\365\240\007\242\001"
  61      813E7FFC 
  61      27FE0BF5 
ARM GAS  /tmp/ccOZhMBW.s 			page 4


  61      A007A201 
  62 0022 0EDEBAB4 		.ascii	"\016\336\272\2644\266\0111\\\304\204H\210\011\004\374"
  62      34B60931 
  62      5CC48448 
  62      880904FC 
  63 0032 416915A4 		.ascii	"Ai\025\244\255\036\214\0215Z5\034<y\0015\306\000\007"
  63      AD1E8C11 
  63      355A351C 
  63      3C790135 
  63      C60007
  64 0045 9E69C3C1 		.ascii	"\236i\303\301\320:\263\305\200I/\276\274\227\231\235"
  64      D03AB3C5 
  64      80492FBE 
  64      BC97999D 
  65 0055 B7F39DCF 		.ascii	"\267\363\235\317\314\256QP\362\354h\245\022l\007\371"
  65      CCAE5150 
  65      F2EC68A5 
  65      126C07F9 
  66 0065 4348C14C 		.ascii	"CH\301L~d\307@;\253Ab\307<\002\304\261\036T\306hB\006"
  66      7E64C740 
  66      3BAB4162 
  66      C73C02C4 
  66      B11E54C6 
  67 007c 2D7DA0F1 		.ascii	"-}\240\361~\377\355Dl`\301\332\254\335\\/]\270\263\370"
  67      7EFFED44 
  67      6C60C1DA 
  67      ACDD5C2F 
  67      5DB8B3F8 
  68 0090 027952AA 		.ascii	"\002yR\252\243\025.\306q..\242\013\030\340\235\033\343"
  68      A3152EC6 
  68      712E2EA2 
  68      0B18E09D 
  68      1BE3
  69 00a2 E5BBD4D4 		.ascii	"\345\273\324\324y\0262\274\014>L\177\353\223\245F\202"
  69      791632BC 
  69      0C3E4C7F 
  69      EB93A546 
  69      82
  70 00b3 973FABAF 		.ascii	"\227?\253\257\013\036\235\205b\177k38\223\234\027I\373"
  70      0B1E9D85 
  70      627F6B33 
  70      38939C17 
  70      49FB
  71 00c5 FBB28DE6 		.ascii	"\373\262\215\346\211\360\000$\222\367\021\307\"\342"
  71      89F00024 
  71      92F711C7 
  71      22E2
  72 00d3 8A430A0F 		.ascii	"\212C\012\017\221\224\335_+\355\333\247\302\343\226"
  72      9194DD5F 
  72      2BEDDBA7 
  72      C2E396
  73 00e2 9F84D4E5 		.ascii	"\237\204\324\345\202\217\020\346\336P$\265|\311\332"
  73      828F10E6 
  73      DE5024B5 
  73      7CC9DA
  74 00f1 4E276727 		.ascii	"N'g'\327\222\210\202\363\214\206$\022\273!\243\004U"
  74      D7928882 
ARM GAS  /tmp/ccOZhMBW.s 			page 5


  74      F38C8624 
  74      12BB21A3 
  74      0455
  75 0103 ED718EB4 		.ascii	"\355q\216\264\266\247\215X\012\264v\366\007\262\365"
  75      B6A78D58 
  75      0AB476F6 
  75      07B2F5
  76 0112 A0D92491 		.ascii	"\240\331$\221\313\021\270\324T\376\345\247\2100\207"
  76      CB11B8D4 
  76      54FEE5A7 
  76      883087
  77 0121 1D67ADB6 		.ascii	"\035g\255\266\373%\2229\260\005k\3739V$.\312\341\355"
  77      FB259239 
  77      B0056BFB 
  77      3956242E 
  77      CAE1ED
  78 0134 C6E757B1 		.ascii	"\306\347W\261Y\314\214Y\027\217\240\304\303Zbj\371y"
  78      59CC8C59 
  78      178FA0C4 
  78      C35A626A 
  78      F979
  79 0146 AB5A2E7A 		.ascii	"\253Z.z\376`\236<,c\026m\341\225\370\372\304\306\234"
  79      FE609E3C 
  79      2C63166D 
  79      E195F8FA 
  79      C4C69C
  80 0159 8B1B94E1 		.ascii	"\213\033\224\341\267\265\234\015*\360\025SLm\365\011"
  80      B7B59C0D 
  80      2AF01553 
  80      4C6DF509 
  81 0169 C3710072 		.ascii	"\303q\000r\000\373o\336\025N\036U\212\346x\230\217\017"
  81      00FB6FDE 
  81      154E1E55 
  81      8AE67898 
  81      8F0F
  82 017b 0BCD7FCF 		.ascii	"\013\315\177\317\226\"\376\222\214\305\236\020\331'"
  82      9622FE92 
  82      8CC59E10 
  82      D927
  83 0189 AE9C9BCF 		.ascii	"\256\234\233\317\012|nH\244\353\225\326J\250\333 \035"
  83      0A7C6E48 
  83      A4EB95D6 
  83      4AA8DB20 
  83      1D
  84 019a D737BDF4 		.ascii	"\3277\275\364c\234\204\325\177\364\0318\204\247NYF\211"
  84      639C84D5 
  84      7FF41938 
  84      84A74E59 
  84      4689
  85 01ac B543E27B 		.ascii	"\265C\342{\177\211\377\003\221PuBF\204j\202H\2425\035"
  85      7F89FF03 
  85      91507542 
  85      46846A82 
  85      48A2351D 
  86 01c0 B4E642BD 		.ascii	"\264\346B\275\325z\000u\325\316\013V\375\010\353\231"
  86      D57A0075 
  86      D5CE0B56 
ARM GAS  /tmp/ccOZhMBW.s 			page 6


  86      FD08EB99 
  87 01d0 A849EB01 		.ascii	"\250I\353\001\257\345l\267\221\355W9\222R\277\334u\\"
  87      AFE56CB7 
  87      91ED5739 
  87      9252BFDC 
  87      755C
  88 01e2 BDD9A8C4 		.ascii	"\275\331\250\304\244s\005\3409\342\2721s\225o\004d7"
  88      A47305E0 
  88      39E2BA31 
  88      73956F04 
  88      6437
  89 01f4 279E4EA5 		.ascii	"'\236N\245\374\356{m\304\037\036\365G\206\323~\372\312"
  89      FCEE7B6D 
  89      C41F1EF5 
  89      4786D37E 
  89      FACA
  90 0206 D0E88D54 		.ascii	"\320\350\215TZ\351\241\353\177\000\346n\000\201"
  90      5AE9A1EB 
  90      7F00E66E 
  90      0081
  91              		.text
  92              		.section	.gnu.lto_chMtxObjectInit.31b02b25462048fa,"",%progbits
  93 0000 789C8D52 		.ascii	"x\234\215R\315k\023A\024\237\337L\334M\251\025\217B"
  93      CD6B1341 
  93      149FDF4C 
  93      DC4DA915 
  93      8F42
  94 0012 AB44A494 		.ascii	"\253D\244\224\036\314\332\253\367\342]\377\002I\204"
  94      1ECCDAAB 
  94      F7E25DFF 
  94      024984
  95 0021 08566B13 		.ascii	"\010Vk\023\301[\246\233,\2517/~\265\226\034lm\375h\233"
  95      C15BA69B 
  95      2CA9372F 
  95      7EB5961C 
  95      6C6DFD68 
  96 0036 F8D95A0F 		.ascii	"\370\331Z\017\333\012\012\212J\316J\210\321\226\"T\032"
  96      DB0A0A8A 
  96      4ACE4A88 
  96      D1962254 
  96      1A
  97 0047 AD8A4213 		.ascii	"\255\212B\023\337\233\244b*\202\303.\2733\373\336\357"
  97      DF9BA462 
  97      2A82C32E 
  97      BB33FBDE 
  97      EF
  98 0058 EB6D4040 		.ascii	"\353m@@\360\372,\205\350\245g;\335P\002\362\374+!\006"
  98      F0FA2C85 
  98      E8A5673B 
  98      DD5002F2 
  98      FC2B2106 
  99 006c 8312E017 		.ascii	"\203\022\340\027\035\204HJ$\361UnH,f\226\347d\367\204"
  99      1D84484A 
  99      24F1556E 
  99      482C6696 
  99      E764F784 
 100 0080 A6555AFA 		.ascii	"\246UZ\372r@O\372\360\224\0205i\220\004&\320MU\205t"
ARM GAS  /tmp/ccOZhMBW.s 			page 7


 100      72404FFA 
 100      F0941035 
 100      69900426 
 100      D04D5585 
 101 0095 EEAA5A97 		.ascii	"\356\252Z\227\236\002\002\264\255\274\034~\277\203\267"
 101      9E0202B4 
 101      ADBC1C7E 
 101      BF83B7
 102 00a4 1221DAAE 		.ascii	"\022!\332\256\314>\035\012\252=\020\364\376\256T\331"
 102      CC3E1D0A 
 102      AA3D10F4 
 102      FEAE54D9 
 103 00b4 DD35AEB5 		.ascii	"\3355\256\265\253u-\252[<\245p\023\212\340p\003\035"
 103      AB752DAA 
 103      5B3CA570 
 103      138AE070 
 103      031D
 104 00c6 984487A0 		.ascii	"\230D\207\240#\201[\350\342\352r\276z\241\315J3{\350"
 104      23815BE8 
 104      E2EA72BE 
 104      7AA1CD4A 
 104      337BE8
 105 00d9 DC262D6E 		.ascii	"\334&-n\303b#3\207}]\253\245\264\276\324\263\262\317"
 105      C3622333 
 105      877D5DAB 
 105      A5B4BED4 
 105      B3B2CF
 106 00ec 06B84952 		.ascii	"\006\270IR{@\2105\252c/\025)\371\251\226\341\376\314"
 106      7B408835 
 106      AA632F15 
 106      29F9A996 
 106      E1FECC
 107 00ff 14472D6E 		.ascii	"\024G-nM)\366u\321[|m\263Ded}\177\366|h{\026\243\203"
 107      4D29F675 
 107      D15B7C6D 
 107      B3446564 
 107      7D7FF67C 
 108 0118 4C758440 		.ascii	"Lu\204@\266\245\310\313\024\311\341\257\343\037\334"
 108      B6A5C8CB 
 108      14C9E1AF 
 108      E31FDC
 109 0127 69DBD9EF 		.ascii	"i\333\331\357)\013\323\310\242j\314\323\371\233\261"
 109      290BD3C8 
 109      A26ACCD3 
 109      F99BB1
 110 0136 85B1D6E4 		.ascii	"\205\261\326\344\006\367h\233\2101\003\207\364\345\220"
 110      06F7689B 
 110      88310387 
 110      F4E590
 111 0145 14654826 		.ascii	"\024eH&\243\242\267#\305j\213\332kh\236x\013\256\335"
 111      A3A2B723 
 111      C56A8BDA 
 111      6B689E78 
 111      0BAEDD
 112 0158 798DEDFB 		.ascii	"y\215\355\373\331\214\272\242\375t\210\373\362\315\021"
 112      D98CBAA2 
 112      FD7488FB 
ARM GAS  /tmp/ccOZhMBW.s 			page 8


 112      F2CD11
 113 0167 9864EFA0 		.ascii	"\230d\357\240\223\244\012\222>\374\343\372|>\321\034"
 113      93A40A92 
 113      3EFCE3FA 
 113      7C3ED11C 
 114 0177 87FF62B5 		.ascii	"\207\377b\265\207KL\0325\211\255i\011\334\205E(\367"
 114      874B4C1A 
 114      3589AD69 
 114      09DC8545 
 114      28F7
 115 0189 8C86DF6E 		.ascii	"\214\206\337n\003\177\271\335I\256\330\353\375&\257"
 115      037FB9DD 
 115      49AED8EB 
 115      FD26AF
 116 0198 5366E023 		.ascii	"Sf\340#\253\275G=e\343\2011\215:&\036\302\331\024\226"
 116      ABBD473D 
 116      65E38131 
 116      8D3A261E 
 116      C2D91496 
 117 01ac 2F5E3ED8 		.ascii	"/^>\330\240\370OL\335\306\200\263\006P6\000\347\352"
 117      A0F84F4C 
 117      DDC680B3 
 117      06503600 
 117      E7EA
 118 01be 8065B8A5 		.ascii	"\200e\270\245\245o\273\314x\331\0313\254\347>\025T#"
 118      A56FBBCC 
 118      78D91933 
 118      ACE73E15 
 118      5423
 119 01d0 C8A619B5 		.ascii	"\310\246\031\265\376kD6\036\031p\305\031\316\303\371"
 119      FE6B4436 
 119      1E1970C5 
 119      19CEC3F9 
 120 01e0 D3BD4D16 		.ascii	"\323\275M\026\036S\303G\270~\341\020\303\232\250\327"
 120      1E53C347 
 120      B87EE110 
 120      C39AA8D7 
 121 01f0 C81AFD25 		.ascii	"\310\032\375%4\325\366p\330\251_\247\342\316@\302\211"
 121      34D5F670 
 121      D8A95FA7 
 121      E2CE40C2 
 121      89
 122 0201 0F449C48 		.ascii	"\017D\234H\254/q6\034\021\262\257_%N\367\207\266\224"
 122      AC2F7136 
 122      1C11B2AF 
 122      5F254EF7 
 122      87B694
 123 0214 1C3F1939 		.ascii	"\034?\0319q&z\214\312\342\221X4\034\023\277\000\317"
 123      71267A8C 
 123      CAE29158 
 123      341C13BF 
 123      00CF
 124 0226 661524   		.ascii	"f\025$"
 125              		.text
 126              		.section	.gnu.lto_chMtxLockS.31b02b25462048fa,"",%progbits
 127 0000 789C9D59 		.ascii	"x\234\235Y\373ST\367\025\277\347{\367\275\260\273\274"
 127      FB5354F7 
ARM GAS  /tmp/ccOZhMBW.s 			page 9


 127      15BFE77B 
 127      F7BDB0BB 
 127      BC
 128 0011 B14DAD1A 		.ascii	"\261M\255\032\021\361\0012m\307:\231\376\340\364\267"
 128      11F10132 
 128      6DC73A99 
 128      FEE0F4B7 
 129 0021 4E3A4EDB 		.ascii	"N:N\333\037\362\007`g\354L\323\222h;\351Lg\274\260\254"
 129      1FF20760 
 129      67EC4CD3 
 129      92683BE9 
 129      4C67BCB0 
 130 0036 EF261A2B 		.ascii	"\357&\032+\021\324\032#F\215\017\236Q\027c\002\210/"
 130      11D41A23 
 130      468D0F9E 
 130      51176302 
 130      882F
 131 0048 4008F80A 		.ascii	"@\010\370\012\001\015\240\240Q\214\256\321Z\243B\277"
 131      010DA0A0 
 131      518CAED1 
 131      5AA342BF 
 132 0058 E77CEFEE 		.ascii	"\347|\357\356^\226{\357\002\014sw\357\275\347\234\317"
 132      5E967BEF 
 132      020C7377 
 132      EFBDE79C 
 132      CF
 133 0069 39E77BCE 		.ascii	"9\347{\316\371~\366^\213\004\022\376\375|\206$-\343"
 133      F97EF65E 
 133      8B0412FE 
 133      FD7C8624 
 133      2DE3
 134 007b 9FBFE1A7 		.ascii	"\237\277\341\247\220)\001\333\334.IE\016\306\344\272"
 134      902901DB 
 134      DC2E4945 
 134      0EC6E4BA 
 135 008b 2649525C 		.ascii	"&IR\\)\275nII\220\301\203\327\301b\3616\247H\212#\221"
 135      29BD6E49 
 135      4990C183 
 135      D7C162F1 
 135      36A7488A 
 136 00a1 8E563A3A 		.ascii	"\216V::\305w\260\011M\033\263\267\267\240\246\243I\346"
 136      C577B009 
 136      4D1BB3B7 
 136      B7A0A6A3 
 136      49E6
 137 00b3 9A7696A1 		.ascii	"\232v\226\241=\315\020bK\035\302`\243\303\011.\241\347"
 137      3DCD1062 
 137      4B1DC260 
 137      A3C3092E 
 137      A1E7
 138 00c5 626E2198 		.ascii	"bn!\230@\202n\226\256=M\027bK\023\300+\304\023\303_"
 138      40826E96 
 138      AE3D4D17 
 138      624B13C0 
 138      2BC413C3 
 139 00da 3CCC52D9 		.ascii	"<\314R\331\206\202\336~\340\202^\360\211\353>\226$\014"
 139      8682DE7E 
ARM GAS  /tmp/ccOZhMBW.s 			page 10


 139      E0825EF0 
 139      89EB3E96 
 139      240C
 140 00ec 24938124 		.ascii	"$\223\201$\226\246=M\023bK\223!U\210\247\204\277\244"
 140      96A63D4D 
 140      13624B93 
 140      215588A7 
 140      84BFA4
 141 00ff 02E017C5 		.ascii	"\002\340\027\305\001\322j&[\2546{\206\303\351r\247'"
 141      01D26A26 
 141      5BAC367B 
 141      86C3E972 
 141      A727
 142 0111 247ABCBE 		.ascii	"$z\274\276\244\264\344\224TXm\365H\342\317\246~\272"
 142      A4B4E494 
 142      54586DF5 
 142      48E2CFA6 
 142      7EBA
 143 0123 D44F9FFA 		.ascii	"\324O\237\372\371\204\275d\320\264v(\310r\366+\374\257"
 143      F984BD64 
 143      D0B47628 
 143      C872F62B 
 143      FCAF
 144 0135 6FF0E37C 		.ascii	"o\360\343|\345@\003\004dI\032eB\006\366C\016\227\352"
 144      E5400304 
 144      64491A65 
 144      4206F643 
 144      0E97EA
 145 0148 2CA9DA29 		.ascii	",\251\332)?f\001\031\300\302OC\027\313oz\360\224\301"
 145      3F660119 
 145      C0C24F43 
 145      17CB6F7A 
 145      F094C1
 146 015b 0C7E7AE7 		.ascii	"\014~z\347\304\331u\016y:H\374{\177_\350'\331\373\024"
 146      C4D9750E 
 146      793A48FC 
 146      7B7F5FE8 
 146      27D9FB14 
 147 016f A558519E 		.ascii	"\245XQ\236,W\234\001Y\206O@\346\346\340 \274\002\007"
 147      2C579C01 
 147      59864F40 
 147      E6E6E020 
 147      BC0207
 148 0182 E015895F 		.ascii	"\340\025\211_\222\340\020d\243t\333H]\207K\236I\232"
 148      92E01064 
 148      A374DB48 
 148      5D874B9E 
 148      499A
 149 0194 87EF9F79 		.ascii	"\207\357\237ya\313\332\213\252\015\301\026O\231\322"
 149      61CBDA8B 
 149      AA0DC116 
 149      4F99D2
 150 01a3 50322320 		.ascii	"P2# [\340\360Xu\374\343\322\003\325#\333\022m%\350\367"
 150      5BE0F058 
 150      75FCE3D2 
 150      03D523DB 
 150      126D25E8 
ARM GAS  /tmp/ccOZhMBW.s 			page 11


 151 01b8 0C380259 		.ascii	"\0148\002Y\353\303N\303Q\260\3612\261\342E.\327<\370"
 151      EBC34EC3 
 151      51B0F132 
 151      B1E2452E 
 151      D73CF8
 152 01cb A2CB2D67 		.ascii	"\242\313-g\021B\321\241\035;\023T\204\255\255\251\021"
 152      1142D1A1 
 152      1D3B1354 
 152      84ADADA9 
 152      11
 153 01dc 84CAF108 		.ascii	"\204\312\361\010PE\332\275;n\2148\345\271\244}:\320"
 153      5045DABD 
 153      3B6E8C38 
 153      E5B9A47D 
 153      3AD0
 154 01ee 586C57B5 		.ascii	"XlW\265\217o\220Um+T\353h\327\220\266FC\251Q\0240\226"
 154      8F6F9055 
 154      6D2B54EB 
 154      68D790B6 
 154      4643A951 
 155 0205 AF9DA47C 		.ascii	"\257\235\244|\035dU\376\276A\031\035\365+\312\313E\275"
 155      1D6455FE 
 155      BE41191D 
 155      F52BCACB 
 155      45BD
 156 0217 D9BF06F2 		.ascii	"\331\277\006\362\330&a\324v\300\364:x\242-N\272\354"
 156      D82661D4 
 156      76C0F43A 
 156      78A22D4E 
 156      BAEC
 157 0229 E25F6D6E 		.ascii	"\342_mn<$\362\203\335Cx^\376\325\341#W\223P4\231DS\310"
 157      3C24F283 
 157      DD43785E 
 157      FED5E123 
 157      57935034 
 158 0241 761A5E48 		.ascii	"v\032^HG\201\014\222\315\304\363itk:^\235Ij\263\350"
 158      47810C92 
 158      CDC4F369 
 158      746B3A5E 
 158      9D496AB3 
 159 0256 F82ADA9D 		.ascii	"\370*\332\235\215\002Yx\230\203\207l\322\232\213wr\360"
 159      8D025978 
 159      9883876C 
 159      D29A8B77 
 159      72F0
 160 0268 7C1E1EE6 		.ascii	"|\036\036\346\343a\001\036\026\342!\227\314\345\241"
 160      E361011E 
 160      16E22197 
 160      CCE5A1
 161 0277 CC223CE4 		.ascii	"\314\"<\344\343EIz\310\327p\243C\0121\306?\344!(\256"
 161      E345497A 
 161      C8D770A3 
 161      430A31C6 
 161      3FE42128 
 162 028c AF6EEF92 		.ascii	"\257n\357\222qQ\375\262\215\347\2504\320\324a\307\322"
 162      7151FDB2 
 162      8DE7A834 
ARM GAS  /tmp/ccOZhMBW.s 			page 12


 162      D0D461C7 
 162      D2
 163 029d 73D2A204 		.ascii	"s\322\242\004\203\303=\366\325/\225u\212\342\343\327"
 163      83C33DF6 
 163      D52F9575 
 163      8AE2E3D7 
 164 02ad D6CB40D5 		.ascii	"\326\313@\325q\267\355J\263k7\354*R\350\272\013\216"
 164      71B7ED4A 
 164      B36B37EC 
 164      2A52E8BA 
 164      0B8E
 165 02bf C16AF814 		.ascii	"\301j\370\024\263\307o\276{\242j\275#\357\010\226\216"
 165      B3C76FBE 
 165      7BA26ABD 
 165      23EF0896 
 165      8E
 166 02d0 F2464076 		.ascii	"\362F@v\303q\330\015#L-\2543\233:+\034y\013\261.N@\336"
 166      C371D80D 
 166      234C2DAC 
 166      339B3A2B 
 166      1C790BB1 
 167 02e8 08C30904 		.ascii	"\010\303\011\004A\310\223\006\240Xy\215\252\213\347"
 167      41C89306 
 167      A058798D 
 167      AA8BE7
 168 02f7 983B2391 		.ascii	"\230;#\221sW\336W\235sh\235\223\311\271\247\347Z\326"
 168      7357DE57 
 168      9D73689D 
 168      93C9B9A7 
 168      E75AD6
 169 030a 25702F78 		.ascii	"%p/xG%\370e;\324\253\016\354\273U|\324. N\0224\325\355"
 169      4725F865 
 169      3BD4AB0E 
 169      ECBB557C 
 169      D42E204E 
 170 0322 671CA31F 		.ascii	"g\034\243\037Jz\374?\3221h\341\013|J]\375\020\223\245"
 170      4A7AFC3F 
 170      D23168E1 
 170      0B7C4A5D 
 170      FD1093A5 
 171 0336 8736597A 		.ascii	"\2076Yz\004N.\305vvW\000\277f\221\036Q\276JC\267?\262"
 171      044E2EC5 
 171      76765700 
 171      BF66911E 
 171      51BE4A43 
 172 034d C636085F 		.ascii	"\3066\010_Yj\014\016\3639\3304\256a\202\224\305<\365"
 172      596A0C0E 
 172      F339D834 
 172      AE618294 
 172      C53CF5
 173 0360 897EDEDB 		.ascii	"\211~\336\333\247b\035\364\300\027\344\240\214\0166"
 173      A7621DF4 
 173      C017E4A0 
 173      8C0E36
 174 036f 409E5F76 		.ascii	"@\236_v\213\260\357\327X\321\222_N\034\033\247\276\031"
 174      8BB0EFD7 
 174      58D1925F 
ARM GAS  /tmp/ccOZhMBW.s 			page 13


 174      4E1C1BA7 
 174      BE19
 175 0381 2F349219 		.ascii	"/4\222\031\013\232i\342q\016B@\371Y\324@iw\305\035\353"
 175      0B9A69E2 
 175      710E4240 
 175      F959D440 
 175      6977C51D 
 176 0396 1678AF88 		.ascii	"\026x\257\210\273\333p\302\203\003HRd\312\312i\330\002"
 176      BBDB70C2 
 176      83034852 
 176      64CACA69 
 176      D802
 177 03a8 5CA27238 		.ascii	"\\\242r8\370,\021\023a\247\314\276\354\332\031p\204"
 177      F82C1113 
 177      61A7CCBE 
 177      ECDA1970 
 177      84
 178 03b9 15B6A302 		.ascii	"\025\266\243\0024sPE&G\317\010\235[\317\217\324{\204"
 178      34735045 
 178      2647CF08 
 178      9D5BCF8F 
 178      D47B84
 179 03cc 0E86DCD2 		.ascii	"\016\206\334\322\335x)1\254s\314\215:gI\207\274:'t\036"
 179      DD782931 
 179      AC73CC8D 
 179      3A674987 
 179      BC3A2774 
 180 03e1 6F083C95 		.ascii	"o\010<\225\205\216\035'\306\256\221\212\204\260\316"
 180      858E1D27 
 180      C6AE918A 
 180      84B0CE
 181 03f0 0DD2394F 		.ascii	"\015\3229O:V\324\271\300uh=\254\322.&\337\202\"\037"
 181      3A56D4B9 
 181      C075683D 
 181      ACD22E26 
 181      DF82221F 
 182 0404 59E385E2 		.ascii	"Y\343\205\342S\323\254\2358\321\231\241?qZ\260\252\200"
 182      53D3AC9D 
 182      38D199A1 
 182      3F715AB0 
 182      AA80
 183 0416 D21B3C7A 		.ascii	"\322\033<z\267\266p\354\0326\264~W\003\200B\264\204"
 183      B7B670EC 
 183      1A36B47E 
 183      57038042 
 183      B484
 184 0428 A30C62A7 		.ascii	"\243\014b\247\240\004\255\264\300m\230\325\244\2305"
 184      A004ADB4 
 184      C06D98D5 
 184      A49835
 185 0437 F6E92E0D 		.ascii	"\366\351.\015\365@_\360\340\262\337\005d\037\\\2445"
 185      F5405FF0 
 185      E0B2DF05 
 185      641F5CA4 
 185      35
 186 0448 B20A3B5C 		.ascii	"\262\012;\\\346\322fe;\250}\262\004\275n\307~\260\211"
 186      E6D26665 
ARM GAS  /tmp/ccOZhMBW.s 			page 14


 186      3BA87DB2 
 186      04BD6EC7 
 186      7EB089
 187 045b FBD0C197 		.ascii	"\373\320\301\227\021}\355_ \020\263&\216\250l\003\304"
 187      117DED5F 
 187      2010B326 
 187      8EA86C03 
 187      C4
 188 046c FBD204AF 		.ascii	"\373\322\004\257\026\020\260\023\001\355*`\227\000,"
 188      1610B013 
 188      01ED2A60 
 188      97002C
 189 047b DDF35304 		.ascii	"\335\363S\004\324EK\322E\373\003\202]2\001{\013\261"
 189      D4454BD2 
 189      45FB0382 
 189      5D32017B 
 189      0BB1
 190 048d 2E6BB1AE 		.ascii	".k\261\256`\251gQ|\241'e\277\024\021\316\231D\204n\304"
 190      60A96751 
 190      7CA12765 
 190      BF1411CE 
 190      9944846E 
 191 04a2 BC1A2FA1 		.ascii	"\274\032/\241\327\264\230_\305\217o\216q|\335\361\342"
 191      D7B4985F 
 191      C58F6F8E 
 191      717CDDF1 
 191      E2
 192 04b3 FB5ABB78 		.ascii	"\373Z\273x=\030_\022Vj\337\276\343\335\200\025E\245"
 192      3D185F12 
 192      566ADFBE 
 192      E3DD8015 
 192      45A5
 193 04c5 4511EF59 		.ascii	"E\021\357Y,:\323\033;'\256\201\341\240H\202^r\300!\206"
 193      2C3AD31B 
 193      3B27AE81 
 193      E1A04882 
 193      5E72C021 
 194 04da A816FD3A 		.ascii	"\250\026\375:_J\007\\Gx'\326\371\015\021\347\017k{A"
 194      5F4A075C 
 194      477827D6 
 194      F90D11E7 
 194      0F6B7B41 
 195 04ee E0F8B483 		.ascii	"\340\370\264\203\3161fr\022\354s\204M\346\376\3007\261"
 195      CE316672 
 195      12EC7384 
 195      4DE6FEC0 
 195      37B1
 196 0500 B03EE823 		.ascii	"\260>\350#X\227\200\355\251h\254p\363\335\200\206\032"
 196      589780ED 
 196      A968AC70 
 196      F3DD8086 
 196      1A
 197 0511 EE9DFD1C 		.ascii	"\356\235\375\034K\202\001X\315CeS\350\311\233\230\023"
 197      4B820158 
 197      CD436553 
 197      E8C99B98 
 197      13
ARM GAS  /tmp/ccOZhMBW.s 			page 15


 198 0522 9EA58693 		.ascii	"\236\245\206\223\255\211\224\244\032lR\0375\275M\372"
 198      AD8994A4 
 198      1A6C521F 
 198      35BD4DFA 
 199 0532 689A8CBD 		.ascii	"h\232\214\275N\001\337.=\345\220\177K\316o{pv\033\010"
 199      4E01DF2E 
 199      3DE5907F 
 199      4BCE6F7B 
 199      70761B08 
 200 0546 80BE60E8 		.ascii	"\200\276`\350\365\316\275k\224\315E\016\204\270\245"
 200      F5CEBD6B 
 200      94CD450E 
 200      84B8A5
 201 0555 03318816 		.ascii	"\0031\210\026g\212\251\332Q\266H\267\3539*\271\":\237"
 201      678AA9DA 
 201      51B648B7 
 201      EB392AB9 
 201      223A9F
 202 0568 8DE33F83 		.ascii	"\215\343?\203xo\210\272\3776ft\226n\365\314\324\357"
 202      786F88BA 
 202      FF366674 
 202      966EF5CC 
 202      D4EF
 203 057a FE67AF37 		.ascii	"\376g\2577\312\230\311;\341\012\032\032_Ao\240\367\337"
 203      CA98C93B 
 203      E10A1A1A 
 203      5F416FA0 
 203      F7DF
 204 058c AAD58AF7 		.ascii	"\252\325\212\367\341\256\272#\346#\242\010b\226\330"
 204      E1AEBA23 
 204      E623A208 
 204      6296D8
 205 059b BE46DBF2 		.ascii	"\276F\333\362\205\027>\274\304\377\036\301L~bm\253="
 205      85173EBC 
 205      C4FF1EC1 
 205      4C7E626D 
 205      AB3D
 206 05ad EBE15732 		.ascii	"\353\341W2\206k\327$\360\364\331\245-\231\264\277\207"
 206      866BD724 
 206      F0F4D9A5 
 206      2D99B4BF 
 206      87
 207 05be 3ACAEA40 		.ascii	":\312\352@h\274\252\353\367,\275}\351\236\272/\011o"
 207      68BCAAEB 
 207      F72CBD7D 
 207      E99EBA2F 
 207      096F
 208 05d0 86C5DED9 		.ascii	"\206\305\336\331\341\257a\302\222\233\033\243\374>d"
 208      E1AF61C2 
 208      929B1BA3 
 208      FC3E64
 209 05df 19D29A0C 		.ascii	"\031\322\232\014\010\361\312\3443\032\373\253\372r\331"
 209      08F1CAE4 
 209      331AFBAB 
 209      FA72D9
 210 05ee 3F5168B2 		.ascii	"?Qh\262\335|\337$?\324\315\337i\363\363\000;l\226\230"
 210      DD7CDF24 
ARM GAS  /tmp/ccOZhMBW.s 			page 16


 210      3FD4CDDF 
 210      69F3F300 
 210      3B6C9698 
 211 0602 2097CB6A 		.ascii	" \227\313j\324\000gO(@\355\220|h\202*\206dHml\202}\024"
 211      D400674F 
 211      2840ED90 
 211      7C68822A 
 211      8664486D 
 212 061a 1D225308 		.ascii	"\035\"S\010\361\373x!>\326b=\301\020g#\\\327\206\253"
 212      F1FB7821 
 212      3ED6623D 
 212      C1106723 
 212      5CD786AB 
 213 062e E5A7BD86 		.ascii	"\345\247\275\206\210\263\215\307\326\177M\020il=\325"
 213      88B38DC7 
 213      D67F4D10 
 213      696C3DD5 
 214 063e 26F57F88 		.ascii	"&\365\177\210\010\002\361\206\031\242~F)\306g\361b\374"
 214      0802F186 
 214      19A27E46 
 214      29C667F1 
 214      62FC
 215 0650 411BE373 		.ascii	"A\033\343s\2018fP\252C\201\205\007\202\230\232\325\017"
 215      81386650 
 215      AA438185 
 215      0782989A 
 215      D50F
 216 0662 066431CF 		.ascii	"\006d1\317\222c\007\330?\014\347\227\005^D\011\340K"
 216      926307D8 
 216      3F0CE797 
 216      055E4409 
 216      E04B
 217 0674 B5A57E45 		.ascii	"\265\245~E\206\253\260\245\222\2455L)\333^/\220i\354"
 217      86ABB0A5 
 217      92A5354C 
 217      29DB5E2F 
 217      9069EC
 218 0687 38355CC3 		.ascii	"85\\\303:U\2561\022\207k4\327\362\2513b\3065Fi\332("
 218      3A55AE31 
 218      12876B34 
 218      D7F2A933 
 218      62C63546 
 219 069e 8CC79B39 		.ascii	"\214\307\2339\005\256Q\304\324U\0305X\205b&V\001\357"
 219      05AE51C4 
 219      D4551835 
 219      58856226 
 219      5601EF
 220 06b1 839F45B8 		.ascii	"\203\237E\270\006!\316\2334\327(1\301\023m\024`\242"
 220      0621CE9B 
 220      34D72831 
 220      C1136D14 
 220      60A2
 221 06c3 D008700D 		.ascii	"\320\010p\015\213\264\021\007\324E\3134.\352\265&`T"
 221      8BB41107 
 221      D445CB34 
 221      2EEAB526 
 221      6054
ARM GAS  /tmp/ccOZhMBW.s 			page 17


 222 06d5 D4EBB458 		.ascii	"\324\353\264X\353\031/\261yQ\256A\021\316\237l\353n"
 222      EB192FB1 
 222      7951AE41 
 222      11CE9F6C 
 222      EB6E
 223 06e7 8897D08D 		.ascii	"\210\227\320\215Z\314M\361\343\233o\034\337\277\342"
 223      5ACC4DF1 
 223      E39B6F1C 
 223      DFBFE2
 224 06f6 C5F7AE76 		.ascii	"\305\367\256v\361\336\303\3702E\013\015\250-4\022\313"
 224      F1DEC3F8 
 224      32450B0D 
 224      A82D3412 
 224      CB
 225 0707 35D227C5 		.ascii	"5\322'\305563S\256\261\205\205\271\306\373,\206kd\030"
 225      35363353 
 225      AEB18585 
 225      B9C6FB2C 
 225      866B6418 
 226 071b 918B743D 		.ascii	"\221\213t=r\261\225\231\221\213\1773$\027\333\330T\311"
 226      72B19599 
 226      918B7F33 
 226      2417DBD8 
 226      54C9
 227 072d 452953C9 		.ascii	"E)S\311\305\326vA.j\261+3\250\313]Zr19B\361\001\343"
 227      C5D67641 
 227      2E6AB12B 
 227      33A8CB5D 
 227      5A723139 
 228 0745 563C8684 		.ascii	"V<\206\204\202Z\233#\021\274\021\241\370\000\357mg\330"
 228      825A9B23 
 228      11BC11A1 
 228      F800EF6D 
 228      67D8
 229 0757 E265588E 		.ascii	"\342eX\216\331\272%\3421'\024\345\3412ACz\204b\207Z"
 229      D9BA25E2 
 229      312714E5 
 229      E1324143 
 229      7A846287 
 230 076c 92781F76 		.ascii	"\222x\037v\2620\241\340\210\"\210\354(\241 /2\360\022"
 230      B230A1E0 
 230      882288EC 
 230      28A1202F 
 230      32F012
 231 077f 110A4E24 		.ascii	"\021\012N$2\234\202Pd\247\253\204\302=\226P\220\306"
 231      329C8250 
 231      64A7AB84 
 231      C23D9650 
 231      90C6
 232 0791 5C5DBFB3 		.ascii	"\\]\277\263\365\010\305.\246\022\012\362\346?,J(\310"
 232      F508C52E 
 232      A6120AF2 
 232      E63F2C4A 
 232      28C8
 233 07a3 12271473 		.ascii	"\022'\024sUB\221.\010E\302\030BQf\320F&-\273\333$?\324"
 233      5542912E 
 233      0845C218 
ARM GAS  /tmp/ccOZhMBW.s 			page 18


 233      425166D0 
 233      46262DBB 
 234 07bb B21F6AF3 		.ascii	"\262\037j\363\263\007\333([C(\310\255\234\011\005\250"
 234      B307DB28 
 234      5B4328C8 
 234      AD9C0905 
 234      A8
 235 07cc 9D841F99 		.ascii	"\235\204\037\231"
 236 07d0 A08A49B8 		.ascii	"\240\212I\270W\355^\202\255\210N\212)\204\270/^\210"
 236      57ED5E82 
 236      AD884E8A 
 236      2984B82F 
 236      5E88
 237 07e2 1F6BB1F6 		.ascii	"\037k\261\366c\2109\032Ba\204\230c<\233\016\230 \322"
 237      6388391A 
 237      42618498 
 237      633C9B0E 
 237      9820D2
 238 07f5 6C3AA84D 		.ascii	"l:\250M\352',\206P\030!\352g\224b<\024/\306\303\332"
 238      EA272C86 
 238      501821EA 
 238      6794623C 
 238      142FC6C3 
 239 080a 188F0844 		.ascii	"\030\217\010D\354\361D\315N.\033\354\344\370L\326t\210"
 239      ECF144CD 
 239      4E2E1BEC 
 239      E4F84CD6 
 239      7488
 240 081c 1C65A63B 		.ascii	"\034e\246;\371\306\213{\371l:\312Lv\362Jj\363*\254\246"
 240      F9C68B7B 
 240      F96C3ACA 
 240      4C76F24A 
 240      6AF32AAC 
 241 0831 B429ECE4 		.ascii	"\264)\354\344\325\341\360+\015\302\257Q\303\307\373"
 241      D5E1F02B 
 241      0DC2AF51 
 241      C3C7FB
 242 0840 501BDDC9 		.ascii	"P\033\335\311\011q\301\244w\362:\023<Q\277\237\252+"
 242      0971C1A4 
 242      77F23A13 
 242      3C51BF9F 
 242      AA2B
 243 0852 4C80C7A2 		.ascii	"L\200\307\242\365[e\260\266i\306\325t\334\004\214\252"
 243      F55B65B0 
 243      B669C6D5 
 243      74DC048C 
 243      AA
 244 0863 E984162B 		.ascii	"\351\204\026+\210k\273 \272\223S\204\013'\3333\365\361"
 244      886BBB20 
 244      BA935384 
 244      0B27DB33 
 244      F5F1
 245 0875 127A528B 		.ascii	"\022zR\213\371Y\374\370\026\032\307w*^|\237k\027\357"
 245      F959FCF8 
 245      161AC777 
 245      2A5E7C9F 
 245      6B17EF
ARM GAS  /tmp/ccOZhMBW.s 			page 19


 246 0888 0B8C2F8D 		.ascii	"\013\214/\215v\3623C\235\202\377biIw\240D\241\215|\374"
 246      76F23343 
 246      9D82FF62 
 246      694977A0 
 246      44A18D7C 
 247 089d 23D99451 		.ascii	"#\331\224Q|x\010\015|\227\344Q\007\344T*}\217\264\311"
 247      7C78080D 
 247      7C97E451 
 247      07E4542A 
 247      7D8FB4C9 
 248 08b1 09B4BD09 		.ascii	"\011\264\275\011\236+\01284T\254>UtM\344\251\242\007"
 248      9E2B0A38 
 248      3454AC3E 
 248      55744DE4 
 248      A9A207
 249 08c4 1A59E4E1 		.ascii	"\032Y\344\341d\223ZX{\246\013\013\356q\026lz\026NG-"
 249      64935A58 
 249      7BA60B0B 
 249      EE71166C 
 249      7A164E47 
 250 08d9 348B91DF 		.ascii	"4\213\221\337\356\377\273\352\003>\354\244\335\006\374"
 250      EEFFBBEA 
 250      033EECA4 
 250      DD06FC
 251 08e8 B253E687 		.ascii	"\262S\346\207d\307p\317;\334{/>~U\033\227\011~1T\357"
 251      64C770CF 
 251      3BDC7B2F 
 251      3E7E551B 
 251      97097E31 
 252 08fe 115AD362 		.ascii	"\021Z\323b\011\306V$\030\372\217\177}p\306\210`x\221"
 252      09C65624 
 252      18FA8F7F 
 252      7D70C688 
 252      607891
 253 0911 609C2582 		.ascii	"`\234%\202qn\312\004\343<\243\347\324H1\272\333\351"
 253      716ECA04 
 253      E33CA3E7 
 253      D44831BA 
 253      DBE9
 254 0923 C7093E72 		.ascii	"\307\011>r\347>\322\022\006Cm\235r\354\270\270\272\022"
 254      E73ED212 
 254      06436D9D 
 254      72ECB8B8 
 254      BA12
 255 0935 455053CB 		.ascii	"EPS\313\015&E@b\271D\013\332\272@C\246\225\357\354-"
 255      0D264540 
 255      62B9440B 
 255      DABA4043 
 255      A695EFEC 
 256 094a 8C3CC02A 		.ascii	"\214<\300*\360I\233\333%\301r\304\345\224\010kAQ\277"
 256      F0499BDB 
 256      25C172C4 
 256      E594086B 
 256      4151BF
 257 095d 9CAB5BCF 		.ascii	"\234\253[\317)\272\365\274\004\363\331\026\256\347\013"
 257      29BAF5BC 
 257      04F3D916 
ARM GAS  /tmp/ccOZhMBW.s 			page 20


 257      AEE70B
 258 096c 0694E3A2 		.ascii	"\006\224\343\242\332;x\037\332#\224#\342Xn\224r\220"
 258      DA3B781F 
 258      DA239423 
 258      E2586E94 
 258      7290
 259 097e 07D3F012 		.ascii	"\007\323\360\022\025A\012?\361\012\312\221\233\246R"
 259      15410A3F 
 259      F10ACA91 
 259      9BA652
 260 098d 8E24A9BD 		.ascii	"\216$\251\275E\322p\016R\311\323u:W\257\372:\302\234"
 260      45D2700E 
 260      52C9D375 
 260      3A57AFFA 
 260      3AC29C
 261 09a0 83DCF932 		.ascii	"\203\334\3712\\\302\213\205\241E\272\206t\313\270s\214"
 261      5CC28B85 
 261      A145BA86 
 261      74CBB873 
 261      8C
 262 09b1 A12E51C9 		.ascii	"\241.Q\311\335H^\204K\334\230J^\322\244\017\317I\234"
 262      DD485E84 
 262      4BDC984A 
 262      5ED2A40F 
 262      CF499C
 263 09c4 BD24630D 		.ascii	"\275$c\015G\330K\253\301\350\210\005\323\214\251K&\251"
 263      47D84BAB 
 263      C1E88805 
 263      D38CA94B 
 263      26A9
 264 09d6 A6317559 		.ascii	"\2461uY\233\352+8:r5\354\205\374\312\237P\252\264\323"
 264      9BEA2B38 
 264      3A7235EC 
 264      85FCCA9F 
 264      50AAB4D3 
 265 09ea FFAA09AA 		.ascii	"\377\252\011\252\230\376\327\324\211E\260_E\247\343"
 265      98FED7D4 
 265      8945B05F 
 265      45A7E3
 266 09f9 1442EC8E 		.ascii	"\024B\354\216\027\342\327Z\254\036\0141\037\341\312"
 266      17E2D75A 
 266      AC1E0C31 
 266      1FE1CA
 267 0a08 ABAF98E4 		.ascii	"\253\257\230\3444\337x\034\367\232\000\3228\276\256"
 267      34DF781C 
 267      F79A00D2 
 267      38BEAE
 268 0a17 CDE90D04 		.ascii	"\315\351\015\004\244\327P\345!3@\375|R\204\337\304\213"
 268      A4D750E5 
 268      213340FD 
 268      7C5284DF 
 268      C48B
 269 0a29 B04F1B61 		.ascii	"\260O\033a\277\000\304\341\021\270\267\204\346\311y"
 269      BF00C4E1 
 269      11B8B784 
 269      E6C979
 270 0a38 A6791652 		.ascii	"\246y\026R\247\376\252+\017]\275d\325{\321\364\013\311"
ARM GAS  /tmp/ccOZhMBW.s 			page 21


 270      A7FEAA2B 
 270      0F5DBD64 
 270      D57BD1F4 
 270      0BC9
 271 0a4a A8849360 		.ascii	"\250\204\223`\300\3507\335k\370\223\356f\344'\335-t"
 271      C0E837DD 
 271      6BF893EE 
 271      66E427DD 
 271      2D74
 272 0a5c C28E5B4E 		.ascii	"\302\216[N\303u1\324\306o:i\243\370\252\011\006\371"
 272      C37531D4 
 272      C66F3A69 
 272      A3F8AA09 
 272      06F9
 273 0a6e E4C4773C 		.ascii	"\344\304w<\0019\235\346M\212\264\003D\315\017\177Oo"
 273      01399DE6 
 273      4D8AB403 
 273      44CD0F7F 
 273      4F6F
 274 0a80 ED62FDF3 		.ascii	"\355b\375\363\032\277\250\033b\221\3474\267#y\257\017"
 274      1ABFA81B 
 274      6291E734 
 274      B72379AF 
 274      0F
 275 0a91 0DD75AC5 		.ascii	"\015\327Z\305\333\272\351\023\331o\034p\207\314\340"
 275      DBBAE913 
 275      D96F1C70 
 275      87CCE0
 276 0aa0 BE02DF86 		.ascii	"\276\002\337\206k\323;)Wd\270K6\022\320\306=te\272\250"
 276      6BD33B29 
 276      5764B84B 
 276      3612D0C6 
 276      3D7465BA 
 277 0ab5 B9FB7BAD 		.ascii	"\271\373{\255z\206\362\015s\356\200\341\2507\367EZ1"
 277      7A86F20D 
 277      73EE80E1 
 277      A837F745 
 277      5A31
 278 0ac7 4DA9F8E6 		.ascii	"M\251\370\346\365.\3374\202\313\304;C\032\034\300\257"
 278      F52EDF34 
 278      82CBC43B 
 278      431A1CC0 
 278      AF
 279 0ad8 F2F07F9C 		.ascii	"\362\360\177\234\233\233'\376\377\2722\357\355Uy+\337"
 279      9B9B27FE 
 279      FFBA32EF 
 279      ED55792B 
 279      DF
 280 0ae9 2EC82B58 		.ascii	".\310+X\361\346\252wr\013$\366f\241\\\260\252\220\255"
 280      F1E6AA77 
 280      720B24F6 
 280      66A15CB0 
 280      AA90AD
 281 0afc 2A9457BD 		.ascii	"*\224W\275U8#F\362O\177)\370\363\337\226\377\221K\257"
 281      55382346 
 281      F24F7F29 
 281      F8F3DF96 
ARM GAS  /tmp/ccOZhMBW.s 			page 22


 281      FF914BAF 
 282 0b10 2C58B13C 		.ascii	",X\261<w\205\304\012\012\377\017=\226\265\361"
 282      7785C40A 
 282      0AFF0F3D 
 282      96B5F1
 283              		.text
 284              		.section	.gnu.lto_chMtxLock.31b02b25462048fa,"",%progbits
 285 0000 789C8552 		.ascii	"x\234\205RMO\023Q\024\275\367\275\241-\242\206=\250"
 285      4D4F1351 
 285      14BDF7BD 
 285      A12DA286 
 285      3DA8
 286 0012 EDA22124 		.ascii	"\355\242!$\332aG\342\316\260b\321h\340\007\020\035\032"
 286      DA6147E2 
 286      CEB062D1 
 286      68E00710 
 286      1D1A
 287 0024 69E25032 		.ascii	"i\342P2\255\006V}\024FX\262\301\020C$\321\020\212\312"
 287      AD06567D 
 287      144658B2 
 287      C1104324 
 287      D1108ACA 
 288 0038 57F18382 		.ascii	"W\361\203\202@\001C\242\006\215DW,,%(\020b@11\032Z\337"
 288      400143A2 
 288      068D4457 
 288      2C2C2528 
 288      10624031 
 289 0050 1D6C02AD 		.ascii	"\035l\002\255\037/mf\336\273\347\274{\3569\243\000\002"
 289      1F2F6D66 
 289      DEBBE7BC 
 289      7BEE39A3 
 289      0002
 290 0062 AD100758 		.ascii	"\255\020\007X\222\317\022\371G\016\310\272^\003\264"
 290      92CF12F9 
 290      470EC8BA 
 290      5E03B4
 291 0071 3A1822BD 		.ascii	":\030\"\275\010\007B\230a\030\277\261}\206\363\035\037"
 291      08074298 
 291      6118BFB1 
 291      7D86F31D 
 291      1F
 292 0082 E3AC7C40 		.ascii	"\343\254|@\310\225\\OW\210h\002MI\3170\353&\300\001"
 292      C8955C4F 
 292      57886802 
 292      4D49CF30 
 292      EB26C001 
 293 0096 2C97A8B7 		.ascii	",\227\250\267\355\243\275|\217\231\034Q\221\333\335"
 293      EDA3BD7C 
 293      8F991C51 
 293      91DBDD
 294 00a5 A5DB6B27 		.ascii	"\245\333k'i\313\320)\267\033\023\213\235\016~\032A\276"
 294      69CBD029 
 294      B71B138B 
 294      9D0E7E1A 
 294      41BE
 295 00b7 AF26774F 		.ascii	"\257&wO\225\365\013\021\021\342k\275(49\307\373\310"
 295      95F50B11 
ARM GAS  /tmp/ccOZhMBW.s 			page 23


 295      11E26BBD 
 295      283439C7 
 295      FBC8
 296 00c9 E5753888 		.ascii	"\345u8\210\245\030\305R\220G\200\017\260\214\320\251"
 296      A518C552 
 296      9047800F 
 296      B08CD0A9 
 297 00d9 B174F709 		.ascii	"\261t\367\011[;uw\036\364\304\207h\243)Fj\022\"\223"
 297      5B3B7577 
 297      1EF4C487 
 297      68A32946 
 297      6A122293 
 298 00ed 6913E267 		.ascii	"i\023\342gE\247\333&\373\022\003v$\204f\330e\214\236"
 298      45A7DB26 
 298      FB120376 
 298      248466D8 
 298      658C9E
 299 0100 3C859162 		.ascii	"<\205\221b\272\247\377\345\362l\021wY\012\366z\306\242"
 299      BAA7FFE5 
 299      F26C1177 
 299      590AF67A 
 299      C6A2
 300 0112 85EE7B24 		.ascii	"\205\356{$!9\276\351\235\353\277)\272Z\035&Wp\350\250"
 300      2139BEE9 
 300      9DEBBF29 
 300      BA5A1D26 
 300      5770E8A8 
 301 0126 106BBE61 		.ascii	"\020k\276atKN\307\246\230Vh \005\2358\"k\2370\222\372"
 301      744B4EC7 
 301      A6985668 
 301      20059D38 
 301      226B9F30 
 302 013c B0F8B9F2 		.ascii	"\260\370\271\362\250\306\304\2134Z\0123\014s\344'\006"
 302      A8C6C48B 
 302      345A0A33 
 302      0C73E427 
 302      06
 303 014d BB5F6101 		.ascii	"\273_a\001\340(\025Ynq}\271\027\221z\001\216\021\200"
 303      E0281559 
 303      6E717DB9 
 303      17917A01 
 303      8E1180
 304 0160 E70D8F31 		.ascii	"\347\015\2171\264I9\3434=B\014e\375n_\354\3731\327\002"
 304      B44939E3 
 304      343D420C 
 304      65FD6E5F 
 304      ECFB31D7 
 305 0175 F6891EA7 		.ascii	"\366\211\036\247\311\013\2102\2646%\034\2124\001\037"
 305      C90B8832 
 305      B436251C 
 305      8A34011F 
 306 0185 A10BE864 		.ascii	"\241\013\350dg\373\335\012\223'\370\030\025K9\340\023"
 306      67FBDD0A 
 306      9327F818 
 306      154B39E0 
 306      13
 307 0196 2BA3E8CC 		.ascii	"+\243\350\314\302\372q\327\342o\266\215\260_\206c\357"
ARM GAS  /tmp/ccOZhMBW.s 			page 24


 307      C2FA71D7 
 307      E26FB68D 
 307      B05F8663 
 307      EF
 308 01a7 8B2CF653 		.ascii	"\213,\366Sb\343\004*\220Bf\231\000\260\201\355\311\347"
 308      62E3042A 
 308      90426699 
 308      00B081ED 
 308      C9E7
 309 01b9 619A8EB0 		.ascii	"a\232\216\260\361\370\366\212=\274/:\205(6\271=\303"
 309      F1F8F68A 
 309      3DBC2F3A 
 309      852836B9 
 309      3DC3
 310 01cb 14498863 		.ascii	"\024I\210c\030\33287\271\003\262\316\037q{\360\342\177"
 310      18DA3837 
 310      B903B2CE 
 310      1F717BF0 
 310      E27F
 311 01dd DC9EB4DC 		.ascii	"\334\236\264\334\276e\316\277\261\037\270\0158\365\017"
 311      BE65CEBF 
 311      B11FB80D 
 311      38F50F
 312 01ec B73359B7 		.ascii	"\2673Y\267\013\362\375zF~\345e\360\2032\230&\212-/\203"
 312      0BF2FD7A 
 312      467EE565 
 312      F0833298 
 312      268A2D2F 
 313 0201 AD3B3283 		.ascii	"\255;2\203I\312`\346/\031\314Z\031$\016e\220\356[\235"
 313      49CA60E6 
 313      2F19CC5A 
 313      19240E65 
 313      90EE5B9D 
 314 0215 29CADA3B 		.ascii	")\312\332;e\331;g\331\233\353\345|\326Kj\000[\030I\232"
 314      65D93B67 
 314      D99BEBE5 
 314      7CD64B6A 
 314      005B1849 
 315 022a 770B2D33 		.ascii	"w\013-3i\355\310\357E~\257\022^\342\361\250\007\277"
 315      69EDC8EF 
 315      457EAF12 
 315      5EE2F1A8 
 315      07BF
 316 023c 40503542 		.ascii	"@P5Bj\320\320T\255A\0175{4`z\223\375\312\345\240\357"
 316      6AD0D054 
 316      AD410F35 
 316      7B34607A 
 316      93FDCAE5 
 317 0252 92E13F77 		.ascii	"\222\341?w\030\246\005t=\320\2506\005\214PP\275P\343"
 317      18A60574 
 317      3DD0A836 
 317      058C5050 
 317      BD50E3
 318 0265 ADF2364B 		.ascii	"\255\3626K\216\0260|u7*uO\003\234\377\003\332\327\034"
 318      8E16307C 
 318      75372A75 
 318      4F039CFF 
ARM GAS  /tmp/ccOZhMBW.s 			page 25


 318      03DAD71C 
 319 0279 22AC5AE5 		.ascii	"\"\254Z\345\255\255\256U\253$X\255n\324\256]\257\367"
 319      ADADAE55 
 319      AB2458AD 
 319      6ED4AE5D 
 319      AFF7
 320 028b A99A1EF4 		.ascii	"\251\232\036\364\007\353\256j\232\244\236\311\321\343"
 320      07EBAE6A 
 320      9AA49EC9 
 320      D1E3
 321 0299 CF621A82 		.ascii	"\317b\032\202-AY/\366\326\3268IT\223\341?\353tW\000"
 321      2D41592F 
 321      F6D6D638 
 321      495493E1 
 321      3FEB7457 
 322 02ae 33C0AEFB 		.ascii	"3\300\256\373\364\200\321\002\277\000\315\343mk"
 322      F480D102 
 322      BF00CDE3 
 322      6D6B
 323              		.text
 324              		.section	.gnu.lto_chMtxTryLock.31b02b25462048fa,"",%progbits
 325 0000 789C8553 		.ascii	"x\234\205S\337O[u\024?\347\373\275\267\267\224\252}"
 325      DF4F5B75 
 325      143FE7FB 
 325      BDB7B794 
 325      AA7D
 326 0012 F241AB96 		.ascii	"\362A\253\226\230fY\242\334\031c\226\370fx\332C\243"
 326      986659A2 
 326      DC196396 
 326      F86678DA 
 326      43A3
 327 0024 813F6071 		.ascii	"\201?`q]#$v\305\026\015{\342K\177LLL\234\306\311th\315"
 327      5D232476 
 327      C5160D7B 
 327      E24B7F4C 
 327      4C4C9CC6 
 328 003c 908C4D81 		.ascii	"\220\214M\201\201\323\215\315\261\273A\013\202\272\330"
 328      81D38DCD 
 328      B1BB410B 
 328      82BAD8
 329 004b E883E141 		.ascii	"\350\203\341A`\242\3332\015\235#\233\306Q\317\371\266"
 329      60A2DB32 
 329      0D9D239B 
 329      C651CFF9 
 329      B6
 330 005c 3550506F 		.ascii	"5PPo\332{\357\367\373\375\234s>\347s>\327\000\004\276"
 330      DA7BEFF7 
 330      FBFD9C73 
 330      3EE7733E 
 330      D70004BE 
 331 0070 EE37012E 		.ascii	"\3567\001.\323\363)\372\243\011(\016~\003\320\355\026"
 331      D3F329FA 
 331      A309280E 
 331      7E03D0ED 
 331      16
 332 0081 C2389207 		.ascii	"\3028\222\007P\036\271j\201\362J4\312\373\006\"\277"
 332      501EB96A 
ARM GAS  /tmp/ccOZhMBW.s 			page 26


 332      81F24A34 
 332      CAFB0622 
 332      BF
 333 0092 28374297 		.ascii	"(7B\227\220\006v\341\252\270+p\356\366\314\353\236\355"
 333      900676E1 
 333      AAB82B70 
 333      EEF6CCEB 
 333      9EED
 334 00a4 C7944AAA 		.ascii	"\307\224J\252\205\345\322\023\275\203\016f$@I\000>\351"
 334      85E5D213 
 334      BD830E66 
 334      24404900 
 334      3EE9
 335 00b6 C71D7E4E 		.ascii	"\307\035~N~\014\267\023\362\333\364\311>yKd$\242A\313"
 335      7E0CB713 
 335      F2DBF4C9 
 335      3E794B64 
 335      24A241CB 
 336 00ca E2D7EF5D 		.ascii	"\342\327\357]\271\227\227\002\003\264\274z&\337\343"
 336      B9979702 
 336      03B4BC7A 
 336      26DFE3
 337 00d9 960F23D0 		.ascii	"\226\017#\320\373\342B\361\241m\003\234R\375\261W\325"
 337      FBE242F1 
 337      A16D039C 
 337      52FDB157 
 337      D5
 338 00ea 65A4C413 		.ascii	"e\244\304\023(9\345q\364\343 \372\201\266\000?\306m"
 338      2839E571 
 338      F4E320FA 
 338      81B6003F 
 338      C66D
 339 00fc 8CEE3B70 		.ascii	"\214\356;pbY\312\006\035\231\373\353\207iO\260\237C"
 339      6259CA06 
 339      1D99FBEB 
 339      87694FB0 
 339      9F43
 340 010e 9D37DFF2 		.ascii	"\2357\337\362\366*\247;@t\360\223rx\225\0210vit\355"
 340      F62AA73B 
 340      4074F093 
 340      72789511 
 340      30766974 
 341 0123 D03DAEB4 		.ascii	"\320=\256\264\242+\200C\030d\316Dv\030]\254\317H\263"
 341      A22B8043 
 341      1864CE44 
 341      76185DAC 
 341      CF48B3
 342 0136 A34AA594 		.ascii	"\243J\245\224rJ\367\315\334\351\367x\2105\3253\251\262"
 342      724AF7CD 
 342      DCE9F778 
 342      8835D533 
 342      A9B2
 343 0148 E1A21B58 		.ascii	"\341\242\033X|\003X\241\030\226\245(\004?\345\022&}"
 343      7C0358A1 
 343      1896A528 
 343      043FE512 
 343      267D
ARM GAS  /tmp/ccOZhMBW.s 			page 27


 344 015a 9C7C60B6 		.ascii	"\234|`\266p\241^>\252I\335:<:XW&\265p\372Z\350\342\300"
 344      70A15E3E 
 344      AA49DD3A 
 344      3C3A5857 
 344      26B570FA 
 345 0172 0175B0DB 		.ascii	"\001u\260\333\235\221&\216l\354\212/<\211A\212y\365"
 345      9D91268E 
 345      6CEC8A2F 
 345      3C89418A 
 345      79F5
 346 0184 9A3A6FB0 		.ascii	"\232:o\260:&\006p\224\316~\301\344\322\357\371\337v"
 346      3A260670 
 346      94CE7EC1 
 346      E4D2EFF9 
 346      DF76
 347 0196 6E24EEBC 		.ascii	"n$\356\274\22634\345\222\300\232\236\234\321Cs<\326"
 347      963334E5 
 347      92C09A9E 
 347      9CD14373 
 347      3CD6
 348 01a8 313E14B5 		.ascii	"1>\024\265\207\277\026\372\020\271\026\340\247\014\220"
 348      87BF16FA 
 348      10B916E0 
 348      A70C90
 349 01b7 B58A009E 		.ascii	"\265\212\000\236B\027\321\371\214\345@8\205t~4;v\307"
 349      4217D1F9 
 349      8CE54038 
 349      85747E34 
 349      3B76C7
 350 01ca D390C3AC 		.ascii	"\323\220\303\254:L\252\2728d\350\3129\3456H\004\374"
 350      3A4CAABA 
 350      3864E8CA 
 350      39E53648 
 350      04FC
 351 01dc 1C1BB4AC 		.ascii	"\034\033\264\254+7\276\233\027\264\203\247\321\320\314"
 351      2B37BE9B 
 351      17B483A7 
 351      D1D0CC
 352 01eb 01CFE881 		.ascii	"\001\317\350\201\017NL.{\033f*\321\026co\016\217}_\257"
 352      0F4E4C2E 
 352      7B1B662A 
 352      D116636F 
 352      0E8F7D5F 
 353 0200 A3C7391A 		.ascii	"\243\3079\032\317\242\001K(\264\010@o\311\205\251\243"
 353      CFA2014B 
 353      28B40840 
 353      6FC985A9 
 353      A3
 354 0211 82DB23EC 		.ascii	"\202\333#\354D\317\207\275fe\264\2457\344\273\312I\007"
 354      44CF87BD 
 354      6665B4A5 
 354      37E4BBCA 
 354      4907
 355 0223 B67086D6 		.ascii	"\266p\206\326\360\034\006S\344\220\2371y\266\370\343"
 355      F01C0653 
 355      E4909F31 
 355      79B6F8E3 
ARM GAS  /tmp/ccOZhMBW.s 			page 28


 356 0233 DB72636B 		.ascii	"\333rckj\344#\223\021\025\335\214\315\235\177\241;?"
 356      6AE42393 
 356      1115DD8C 
 356      CD9D7FA1 
 356      3B3F
 357 0245 8FAE9434 		.ascii	"\217\256\2244\351\360\235\314\245\313\026\317Bj\215"
 357      E9F09DCC 
 357      A5CB16CF 
 357      426A8D
 358 0254 6F4FCFF6 		.ascii	"oO\317\366x\263\370~7\201}\031\351\246J8\301\225y\354"
 358      78B3F87E 
 358      37817D19 
 358      E9A64A38 
 358      C19579EC 
 359 0268 3F25872D 		.ascii	"?%\207-{HK\\*x\311,x\001\263\270\306-rVt\320\206EL\317"
 359      7B484B5C 
 359      2A78C92C 
 359      7801B3B8 
 359      C62D7256 
 360 0282 A71ED822 		.ascii	"\247\036\330\"\277AJ_\254\364P\244\221\254Z\362*\246"
 360      BF414A5F 
 360      ACF450A4 
 360      91AC5AF2 
 360      2AA6
 361 0294 7D65246B 		.ascii	"}e$k0>~c\336\352\272\253zt\345\272\2220\313Y/a\027\020"
 361      303E7E63 
 361      DEEABAAB 
 361      7A74E5BA 
 361      9230CB59 
 362 02ac 8D8CF4E8 		.ascii	"\215\214\364\350H\243jE\247\267\240\345\323\355\262"
 362      48A36A45 
 362      A7B7A0E5 
 362      D3EDB2
 363 02bb B27A3154 		.ascii	"\262z1T\021\327\267\311\234\307\237\375\037sNjs\376"
 363      11D7B7C9 
 363      9CC79FFD 
 363      1F734E6A 
 363      73FE
 364 02cd 43D824C2 		.ascii	"C\330$\302S\377a\316|\325\234\256\315\"\347X\344M\226"
 364      53FF61CE 
 364      7CD59CAE 
 364      CD22E758 
 364      E44D96
 365 02e0 FD932D9B 		.ascii	"\375\223-\233\347\020k\223e\257\177@\226\235\344\301"
 365      E7106B93 
 365      65AF7F40 
 365      969DE4C1 
 366 02f0 4DFF8B65 		.ascii	"M\377\213eg\364\340\276\\g\331\265\354\342D}\325\215"
 366      67F4E0BE 
 366      5C67D9B5 
 366      ECE2447D 
 366      D58D
 367 0302 53DA8DB3 		.ascii	"S\332\215\263\332\215\265\326\233\253Z\217\013\300u"
 367      DA8DB5D6 
 367      9BAB5A8F 
 367      0BC075
 368 0311 B25EAEBF 		.ascii	"\262^\256\277\200\314>E^\005\270\211\326\372\316)?~"
ARM GAS  /tmp/ccOZhMBW.s 			page 29


 368      80CC3E45 
 368      5E05B889 
 368      D6FACE29 
 368      3F7E
 369 0323 857ED177 		.ascii	"\205~\321w\344%\032\015\031c\205>@R\235\022>\330\330"
 369      E4251A0D 
 369      1963853E 
 369      40529D12 
 369      3ED8D8
 370 0336 68977FB1 		.ascii	"h\227\177\261\204\035\357\260\023\361\260\035n\215v"
 370      841DEFB0 
 370      13F1B01D 
 370      6E8D76
 371 0345 74368641 		.ascii	"t6\206AD\333q\217\265\347\371D\344\271x\333\343\353"
 371      44DB718F 
 371      B5E7F944 
 371      E4B978DB 
 371      E3EB
 372 0357 81E15834 		.ascii	"\201\341X4\032\333g\267\307\342\035\011\373\231\346"
 372      1ADB67B7 
 372      C7E21D09 
 372      FB99E6
 373 0366 5053A893 		.ascii	"PS\250\223\242\302\261xd\367+;\243\215\255\360\364\026"
 373      A2C2B178 
 373      64F72B3B 
 373      A38DADF0 
 373      F416
 374 0378 E8486707 		.ascii	"\350Hg\007c\355\246P\313\256\026\273\211\300\366\256"
 374      63EDA650 
 374      CBAE16BB 
 374      89C0F6AE 
 375 0388 7DE1175F 		.ascii	"}\341\027_\336\033\261\303\321D[b\367\013\3410\205>"
 375      DE1BB1C3 
 375      D1445B62 
 375      F70BE130 
 375      853E
 376 039a 52C3A8AD 		.ascii	"R\303\250\255\212iM\354O\320\271/\324\322\034`R\355"
 376      8A694DEC 
 376      4FD0B92F 
 376      D4D21C60 
 376      52ED
 377 03ac F1B6C702 		.ascii	"\361\266\307\002\301\035 \342`E#\321X|?\374\015\012"
 377      C11D20E2 
 377      604523D1 
 377      587C3FFC 
 377      0D0A
 378 03be F0F4F4   		.ascii	"\360\364\364"
 379              		.text
 380              		.section	.gnu.lto_chMtxTryLockS.31b02b25462048fa,"",%progbits
 381 0000 789C6D51 		.ascii	"x\234mQ;O\033A\020\236og\375\010\002t5\271 w\310E|<"
 381      3B4F1B41 
 381      109E6F67 
 381      FD080274 
 381      35B92077 
 382 0018 EAFC09FE 		.ascii	"\352\374\011\376\202)\322 \002v\221\316\213\355\223"
 382      8229D220 
 382      027691CE 
ARM GAS  /tmp/ccOZhMBW.s 			page 30


 382      8BED93
 383 0027 8C940229 		.ascii	"\214\224\002)!H\004\344\3122O\003\251 \025B\220DA\200"
 383      214804E4 
 383      CA324F03 
 383      A9201542 
 383      90444180 
 384 003b A8297824 		.ascii	"\250)x$\212P\024$\034\210(\"pf\354\206\202\325\356\315"
 384      8A501424 
 384      1C882822 
 384      7066EC86 
 384      82D5EECD 
 385 004f CE68E67B 		.ascii	"\316h\346{\354Y\002\351\332\221\220\2208 \007\021\202"
 385      EC5902E9 
 385      DA919090 
 385      38200711 
 385      82
 386 0060 993C201A 		.ascii	"\231< \032\217\033c\347^\220k\343k\217\\;\303j\031\026"
 386      8F1B63E7 
 386      5E906BE3 
 386      6B8F5C3B 
 386      C36A1916 
 387 0074 D0E8E2A0 		.ascii	"\320\350\342\240\234a\213\034\376\232;\203\275\333\257"
 387      9C618B1C 
 387      FE9A3B83 
 387      BDDBAF
 388 0083 6FDA9255 		.ascii	"o\332\222U\347\362\356t\267\326?=\277\205\220\211\032"
 388      E7F2EE74 
 388      B7D63F3D 
 388      BF859089 
 388      1A
 389 0094 8630E0A3 		.ascii	"\2060\340\243\327W\350*\222\322yT\\\233\345\033\023"
 389      D757E82A 
 389      92D27954 
 389      5C9BE51B 
 389      13
 390 00a5 326025AD 		.ascii	"2`%\255\357\317|\357\324\324 !\351\305\306\347R\234"
 390      EFCF7CEF 
 390      D4D42021 
 390      E9C5C6E7 
 390      529C
 391 00b7 BB41723F 		.ascii	"\273Ar?;\255?\353\251(\244\3737\344\236\204\314X\004"
 391      3BAD3FEB 
 391      A928A4FB 
 391      37E49E84 
 391      CC5804
 392 00ca 2BE4027C 		.ascii	"+\344\002|\314\303')\021\226\320\243\335\347\353\367"
 392      CCC32729 
 392      1196D0A3 
 392      DDE7EBF7 
 393 00da 531DD1A2 		.ascii	"S\035\321\242\223\225\230hQ\013\3472\242jrup\3135\032"
 393      93959868 
 393      510BE732 
 393      A26A7275 
 393      70CB351A 
 394 00ee 05E7DEF6 		.ascii	"\005\347\336\366]&E\272h3\372\02172\036\221\253%\272"
 394      5D2645BA 
 394      6833FA11 
ARM GAS  /tmp/ccOZhMBW.s 			page 31


 394      37321E91 
 394      AB25BA
 395 0101 9209F556 		.ascii	"\222\011\365V7F#\377D\376S\375\344\035+H\201#\302\361"
 395      374623FF 
 395      44FE53FD 
 395      E41D2B48 
 395      8123C2F1 
 396 0115 3EDC3E8C 		.ascii	">\334>\214\251Xn\012\274\375\362\255\324^\306\234X\215"
 396      A9586E0A 
 396      BCFDF2AD 
 396      D45EC69C 
 396      588D
 397 0127 14E42D56 		.ascii	"\024\344-VD\222\326+?\362\265X\360\\@QC\031\367\252"
 397      4492D62B 
 397      3FF2B558 
 397      F05C4051 
 397      4319F7AA 
 398 013b 84B08A80 		.ascii	"\204\260\212\200\316P<.t=\002hAX\323qR~\246k\217/P\364"
 398      CE503C2E 
 398      743D0268 
 398      4158D371 
 398      527EA66B 
 399 0153 5A9DFAC0 		.ascii	"Z\235\372\300\233\233\277\217c\271;Wr\316\0139\3320"
 399      9B9BBF8F 
 399      63B93B57 
 399      72CE0B39 
 399      DA30
 400 0165 620BEBC8 		.ascii	"b\013\353\310\221\020\207\034k\216\331\246\354_\310"
 400      9110871C 
 400      6B8ED9A6 
 400      EC5FC8
 401 0174 7B5255DB 		.ascii	"{RU\333\177\200\207$\362\277\361\021\276\231\3750*\240"
 401      7F808724 
 401      F2BFF111 
 401      BE99FD30 
 401      2AA0
 402 0186 D2712528 		.ascii	"\322q%(2\"\372\236\246RAk\217d\202\261l\220\031K\007"
 402      3222FA9E 
 402      A652416B 
 402      8F6482B1 
 402      6C90194B 
 403 019b E997C3D9 		.ascii	"\351\227\303\331\327\2514\231\341W\377\001\205\370\234"
 403      D7A93499 
 403      E157FF01 
 403      85F89C
 404 01aa 6A       		.ascii	"j"
 405              		.text
 406              		.section	.gnu.lto_chMtxUnlock.31b02b25462048fa,"",%progbits
 407 0000 789C9557 		.ascii	"x\234\225Wkl\024\327\025\276\347\336\335\235\331\207"
 407      6B6C14D7 
 407      15BEE7DE 
 407      DD9DD987 
 408 0010 1F098F56 		.ascii	"\037\011\217V\230\020S\311BH\015\3234\252\242\246\225"
 408      981053C9 
 408      42480DD3 
 408      34AAA2A6 
 408      95
ARM GAS  /tmp/ccOZhMBW.s 			page 32


 409 0021 AA0AA952 		.ascii	"\252\012\251R~\270\255@Q\362\243\022j\026+F\312bw\327"
 409      7EB8AD40 
 409      51F2A312 
 409      6A162B46 
 409      CA6277D7 
 410 0035 6988AACA 		.ascii	"i\210\252\312\343\307\006C\\\344\244\365+\206\270\015"
 410      E3C70643 
 410      5CE4A4F5 
 410      2B86B80D 
 411 0045 3881801D 		.ascii	"8\201\200\035LI\300\270\300\332`h\314\253\230\030\223"
 411      4C49C0B8 
 411      C0DA6068 
 411      CCAB9818 
 411      93
 412 0056 DA18DBD8 		.ascii	"\332\030\333\330\030\010\006\226G\235`\343\3559wf\355"
 412      18080696 
 412      479D60E3 
 412      ED397766 
 412      ED
 413 0067 F5EED884 		.ascii	"\365\356\330\204\025\214g\356=\257\357\234\357\334\207"
 413      158C67EE 
 413      3DAFEF9C 
 413      EFDC87
 414 0076 8D01A3DF 		.ascii	"\215\001\243\337\017R\031\313\300\327\277\341;x\030"
 414      0F5219CB 
 414      C0D7BFE1 
 414      3B7818
 415 0085 F0B2D38C 		.ascii	"\360\262\323\214\025\250\234\213\275\255\214\351.W\217"
 415      15A89C8B 
 415      BDAD8CE9 
 415      2E578F
 416 0094 9BE91E01 		.ascii	"\233\351\036\001\2521n\343vc\\\221\343v\356(YB_\364"
 416      AA316EE3 
 416      76635C91 
 416      E376EE28 
 416      59425FF4 
 417 00a8 F4384031 		.ascii	"\3648@1\244\024C\274EU\271\255\3648\211;\213\025\024"
 417      A41443BC 
 417      4555B9AD 
 417      F438893B 
 417      8B1514
 418 00bb 7082DB10 		.ascii	"p\202\333\020pE_\334\000\364\242\253\300\362\271\260"
 418      70455FDC 
 418      00F4A2AB 
 418      C0F2B9B0 
 419 00cb D91D8AEA 		.ascii	"\331\035\212\352t\271!\237\253\314\370\335\347\0179"
 419      74B9219F 
 419      ABCCF8DD 
 419      E70F39
 420 00da B4AEBFD2 		.ascii	"\264\256\277\322\304\227~\254\343\257oh\340\307\372"
 420      C4977EAC 
 420      E3AF6F68 
 420      E0C7FA
 421 00e9 F6100405 		.ascii	"\366\020\004\005c\021n\310\300\307\260\024\245\316\026"
 421      63116EC8 
 421      C0C7B014 
 421      A5CE16
ARM GAS  /tmp/ccOZhMBW.s 			page 33


 422 00f8 EFDE2CEE 		.ascii	"\357\336,\356\361\240\000\260\341g\370\324\373\227\223"
 422      F1A000B0 
 422      E167F8D4 
 422      FB9793
 423 0107 E993433A 		.ascii	"\351\223C:~^\335\177\254D\025\213\200\341{\177_\370"
 423      7E5EDD7F 
 423      AC44158B 
 423      80E17B7F 
 423      5FF8
 424 0119 A92575BA 		.ascii	"\251%u\272^\250\353\243\253ugP\010\370\004\004\232\203"
 424      5EA8EBA3 
 424      AB756750 
 424      08F80404 
 424      9A83
 425 012b 1DB010B6 		.ascii	"\035\260\020\266\303B\206C\014v\302\022\222\036\336"
 425      C3428643 
 425      0C76C212 
 425      921EDE
 426 013a B7F18822 		.ascii	"\267\361\210\"\026K\315S\235{\03783\266\222j\250\246"
 426      164BCD53 
 426      9D7B1F38 
 426      33B6926A 
 426      A8A6
 427 014c 22B95A0F 		.ascii	"\"\271Z\017\025\247\223\372\256\351\352\364C\351\223"
 427      15A793FA 
 427      AEE9EAF4 
 427      43E993
 428 015b 137BCFB8 		.ascii	"\023{\317\270D\206\324\3345\3226\35605\253\317G5m\320"
 428      4486D4DC 
 428      35D236EE 
 428      3035ABCF 
 428      47356DD0 
 429 016f 60A939D0 		.ascii	"`\2519\3208Q\236\344(&\304\351\360)d@=dl\210B\206\335"
 429      38519EE4 
 429      2826C4E9 
 429      F0296440 
 429      3D646C88 
 430 0186 E0C09289 		.ascii	"\340\300\222\211\350\004\312\207j\012/9\305R\351\351"
 430      E804CA87 
 430      6A0A2F39 
 430      C552E9E9 
 431 0196 E0E1B131 		.ascii	"\340\341\2611\325\364\364nW\212\351\311\016\215\211"
 431      D5F4F46E 
 431      578AE9C9 
 431      0E8D89
 432 01a5 9E600F64 		.ascii	"\236`\017d|\272\"\244G\"Ez\250r\376\341\013\037\271"
 432      7CBA22A4 
 432      4722457A 
 432      A872FEE1 
 432      0B1FB9
 433 01b8 9F064636 		.ascii	"\237\006F6\271\234\023\362\2510\362\244bR\034N\240\254"
 433      B99C13F2 
 433      A930F2A4 
 433      62521C4E 
 433      A0AC
 434 01ca B8283F1E 		.ascii	"\270(?\036|\330\222\244@2M\245\340CI\225\312s\360U]"
 434      7CD892A4 
ARM GAS  /tmp/ccOZhMBW.s 			page 34


 434      40324DA5 
 434      E0434995 
 434      CA73F055 
 435 01df 40F369F4 		.ascii	"@\363i\364`\3546\206\275Uea\316\361\217\270\002\205"
 435      60EC3686 
 435      BD556561 
 435      CEF18FB8 
 435      0285
 436 01f1 071A8F75 		.ascii	"\007\032\217u\012\302Q$\024\014\271\"\330zF\241Z9%\202"
 436      0AC25124 
 436      140CB922 
 436      D87A46A1 
 436      5A392582 
 437 0205 A6A61BDD 		.ascii	"\246\246\033\335J\376C\275D\327Sql\203\000\231\224\353"
 437      4AFE43BD 
 437      44D75371 
 437      6C830099 
 437      94EB
 438 0217 273B8FBA 		.ascii	"';\217\272jaK\201.\307]\260\027\362\341\237\004\005"
 438      6A614B81 
 438      2EC75DB0 
 438      17F2E19F 
 438      0405
 439 0229 2737EDDF 		.ascii	"'7\355\337\275A\325\352)c\372\313A\341\206\317\240\026"
 439      BD41D5EA 
 439      2963FACB 
 439      41E186CF 
 439      A016
 440 023b 26B899CF 		.ascii	"&\270\231\317\266\322\263\333T\355\031J\370\347\240"
 440      B6D2B3DB 
 440      54ED194A 
 440      F8E7A0
 441 024a 4D70223F 		.ascii	"Mp\"?\354\003\215\015@\241\3763\231P\204\210\301\320"
 441      EC038D0D 
 441      40A1FE33 
 441      99508488 
 441      C1D0
 442 025c 402A69D4 		.ascii	"@*i\324\265w\034v\213ge<\367\252\032\267\233U\357\273"
 442      B5771C76 
 442      8B67653C 
 442      F7AA1AB7 
 442      9B55EFBB 
 443 0270 7B2DB3A5 		.ascii	"{-\263\245\356m\275\254@\015\012\017\354\267\310i\223"
 443      EE6DBDAC 
 443      400D0A0F 
 443      ECB7C869 
 443      93
 444 0281 ACC8FA6B 		.ascii	"\254\310\372k\372A\033A\362@:\034\300\271a(\034\250"
 444      FA411B41 
 444      F2403A1C 
 444      C0B96128 
 444      1CA8
 445 0293 3D7EF3F9 		.ascii	"=~\363\371\351\325\015}q\322.\013\032\341\020W\370\320"
 445      E9D50D7D 
 445      71D22E0B 
 445      1AE11057 
 445      F8D0
ARM GAS  /tmp/ccOZhMBW.s 			page 35


 446 02a5 8E8A1380 		.ascii	"\216\212\023\200\223\3154\311\343'\207\316m\006 _\014"
 446      93CD34C9 
 446      E32787CE 
 446      6D06205F 
 446      0C
 447 02b6 FE450222 		.ascii	"\376E\002\"\2366\014\016\202\003\3039Dd\001\326\012"
 447      9E360C0E 
 447      8203C339 
 447      446401D6 
 447      0A
 448 02c7 38FF61ED 		.ascii	"8\377a\355\236o\\\213\317A\255^\205\224H\"\225\372\313"
 448      9E6F5C8B 
 448      CF41AD5E 
 448      85944822 
 448      95FACB
 449 02da CD3AB635 		.ascii	"\315:\2665\012\036\206\3052W\267o|\331\315q\004B`\223"
 449      0A1E86C5 
 449      3257B76F 
 449      7CD9CD71 
 449      04426093 
 450 02ee 91336891 		.ascii	"\2213h\221\035\265\375\320\221!\317\342\363\246v2\311"
 450      1DB5FDD0 
 450      9121CFE2 
 450      F3A67632 
 450      C9
 451 02ff DE69D8D3 		.ascii	"\336i\330\323\351\226\332\255\244\015G\300\206\031\344"
 451      E996DAAD 
 451      A40D47C0 
 451      8619E4
 452 030e 32098C51 		.ascii	"2\011\214Q\241\233Z\272\177g\024\332\025[h!\321\216"
 452      A19B5ABA 
 452      7F6714DA 
 452      155B6821 
 452      D18E
 453 0320 1E6F2FF1 		.ascii	"\036o/\361`E\261\235S\212\260\370G\315b\326\015\026"
 453      6045B19D 
 453      538AB0F8 
 453      47CD62D6 
 453      0D16
 454 0332 3628542E 		.ascii	"6(T.\001m\262\214\222\366\307\260^h\262\342\037\363"
 454      016DB28C 
 454      92F6C7B0 
 454      5E68B2E2 
 454      1FF3
 455 0344 C860AC35 		.ascii	"\310`\2545\3334k\304\017\375Yd^*\026\024\216\307\333"
 455      DB346BC4 
 455      0FFD5964 
 455      5E2A1614 
 455      8EC7DB
 456 0357 54E1DFD2 		.ascii	"T\341\337\322\246 \233_\200\206\221I\032\274dZ=T\362"
 456      A6209B5F 
 456      80869149 
 456      1ABC645A 
 456      3D54F2
 457 036a F74ABBD9 		.ascii	"\367J\273\331?\225\025b\262\307?\261\250u;\221\306I"
 457      3F951562 
 457      B2C73FB1 
ARM GAS  /tmp/ccOZhMBW.s 			page 36


 457      A8753B91 
 457      C649
 458 037c 513D583F 		.ascii	"Q=X?\332\\\325\2760\256J'.\226c\225\332\251J\262\306"
 458      DA5CD5BE 
 458      30AE4A27 
 458      2E966395 
 458      DAA94AB2 
 459 0391 B6C42A9D 		.ascii	"\266\304*\235\220U:I\031J\216\003\221j\231\026\311\361"
 459      90553A49 
 459      194A8E03 
 459      916A9916 
 459      C9F1
 460 03a3 BE879B7E 		.ascii	"\276\207\233~\325\252\004\305\023pJ\202\261\031\206"
 460      D5AA04C5 
 460      13704A82 
 460      B11986
 461 03b2 50A87B5B 		.ascii	"P\250{[\313676\017\375\002\330\227p\03249\007g \237"
 461      CB363736 
 461      0FFD02D8 
 461      97701A34 
 461      39076720 
 462 03c7 8A43BE50 		.ascii	"\212C\276P\256\247\246w\302)&@\246\356H\260\245P\211"
 462      AEA7A677 
 462      C2292640 
 462      A6EE48B0 
 462      A55089
 463 03da AE191BE7 		.ascii	"\256\031\033\347\233\230\237\204\377X`>K\230\223eq\253"
 463      9B989F84 
 463      FF58603E 
 463      4B989365 
 463      71AB
 464 03ec DB06B738 		.ascii	"\333\006\2678\342 \217m)\205\017\005IIT\021nO\304\334"
 464      E2208F6D 
 464      29850F05 
 464      49495411 
 464      6E4FC4DC 
 465 0400 21319F23 		.ascii	"!1\237#\314\236\330:>\231PGL\301\034J\301\227f\012>"
 465      CC9ED83A 
 465      3E995047 
 465      4CC11C4A 
 465      C197660A 
 466 0415 A8DA7F37 		.ascii	"\250\332\1777\031SP\206)(\177\357\315\252W\202b.t\312"
 466      19535086 
 466      29287FEF 
 466      CDAA5782 
 466      622E74CA 
 467 0429 14D80DBB 		.ascii	"\024\330\015\273p\336hk\314\3201\214\003C\220\261\310"
 467      70DE686B 
 467      CCD0318C 
 467      034390B1 
 467      C8
 468 043a A1A19BED 		.ascii	"\241\241\233\355 \233\235*\302\372\241\270\273\350U"
 468      209B9D2A 
 468      C2FAA1B8 
 468      BBE855
 469 0449 839C1E82 		.ascii	"\203\234\036\202D\2770\362\242X1\326\250\301\373\002"
 469      44BF30F2 
ARM GAS  /tmp/ccOZhMBW.s 			page 37


 469      A25831D6 
 469      A8C1FB02 
 470 0459 5D1E1D1A 		.ascii	"]\036\035\032\357p\213\255F\177\026\354\254\331\354"
 470      EF708BAD 
 470      467F16EC 
 470      ACD9EC
 471 0468 3113F5ED 		.ascii	"1\023\365\355\371\271\223\313x\327\243\227\361\013\270"
 471      F9B993CB 
 471      78D7A397 
 471      F10BB8
 472 0477 5AEF3199 		.ascii	"Z\3571\231\200\350\277\"\267IqpC\357V.\232\221\270v"
 472      80E8BF22 
 472      B7497170 
 472      43EF562E 
 472      9A91B876 
 473 048b F8AF04EA 		.ascii	"\370\257\004\352\240*t\233\213\327/\310\020\331Ec4\020"
 473      A02A749B 
 473      8BD72FC8 
 473      10D94563 
 473      3410
 474 049d FA6B5792 		.ascii	"\372kW\222\034\252\247!\227Ddc\270\013\213\350\312\366"
 474      1CAAA721 
 474      97446463 
 474      B80B8BE8 
 474      CAF6
 475 04af 38FCEE21 		.ascii	"8\374\356!#03\277\337\031\356D~\367\020\252\257f\340"
 475      233033BF 
 475      DF19EE44 
 475      7EF710AA 
 475      AF66E0
 476 04c2 F74589B6 		.ascii	"\367E\211\266\227\320\252\226\374\206\331\371})\312"
 476      97D0AA96 
 476      FC86D9F9 
 476      7D29CA
 477 04d1 EF8B33F0 		.ascii	"\357\2133\360\273\017\371Ms\320o\362\273W\362\373q("
 477      BB0FF94D 
 477      73D06FF2 
 477      BB57F2FB 
 477      7128
 478 04e3 3D4030D5 		.ascii	"=@0\325GQz\200`\366\316@\351\313\022\346 \301\\`\311"
 478      47517A80 
 478      60F6CE40 
 478      E9CB12E6 
 478      20C15C60 
 479 04f8 61989DC3 		.ascii	"a\230\235\303CQ\016\223!\2702\215\303\350S:\227Cmw\257"
 479      43510E93 
 479      21B8328D 
 479      C3E8533A 
 479      97436D77 
 480 050d 832C70CF 		.ascii	"\203,p\317$\207\375\006\231Ttmr\330\316\366\375\\r8"
 480      2487FD06 
 480      9954746D 
 480      72D8CEF6 
 480      FD5C7238 
 481 0521 3CDCA918 		.ascii	"<\334\251\030\263)\323\327[\244\330\002+\212\015\313"
 481      B329D3D7 
 481      5BA4D802 
ARM GAS  /tmp/ccOZhMBW.s 			page 38


 481      2B8A0DCB 
 482 0531 3814CACA 		.ascii	"8\024\312\312U\014\002\355\237.jn\370\265aC\240\031"
 482      550C02ED 
 482      9F2E6A6E 
 482      F8B56143 
 482      A019
 483 0543 D38383D5 		.ascii	"\323\203\203\325,\"J\205\032\273\346MQ0E\316)S|3\206"
 483      2C224A85 
 483      1ABBE64D 
 483      513045CE 
 483      29537C33 
 484 0558 B94C6DE3 		.ascii	"\271Lm\343\010\356\371\322Nj\374j\375\022\263\244\202"
 484      08EEF9D2 
 484      4E6AFC6A 
 484      FD12B3A4 
 484      82
 485 0569 DC01AE4D 		.ascii	"\334\001\256M\355\000\327'w\354I\206\343\371\365\016"
 485      ED00D727 
 485      77EC4986 
 485      E3F9F50E 
 486 0579 700CCD06 		.ascii	"p\014\315\006\370\260\343#\305Q\332\\\017\030\206\312"
 486      F8B0E323 
 486      C551DA5C 
 486      0F1886CA 
 487 0589 F06C191B 		.ascii	"\360l\031\033\2060vwC\021\214\334\355lx\312\210\311"
 487      86307677 
 487      43118CDC 
 487      ED6C78CA 
 487      88C9
 488 059b F44DE6D0 		.ascii	"\364M\346\320\210Kln\362\241ueW\363\033w\000q'\211\322"
 488      884B6C6E 
 488      F2A17565 
 488      57F31B77 
 488      00712789 
 489 05b0 A63F2312 		.ascii	"\246?#\022\205,;\315%\242\"|\253\334N\352\361x~2K\023"
 489      852C3BCD 
 489      25A2227C 
 489      ABDC4EEA 
 489      F1787E32 
 490 05c6 7F3D95E1 		.ascii	"\177=\225\341\033\264\373\310\250B\027+\223MC\261\304"
 490      1BB4FBC8 
 490      A842172B 
 490      934D43B1 
 490      C4
 491 05d7 9DEA4F87 		.ascii	"\235\352O\207%qG\214\265\230xQ\336q\251\372\205\370"
 491      2571478C 
 491      B5987851 
 491      DE71A9FA 
 491      85F8
 492 05e9 F61CADC3 		.ascii	"\366\034\255\303\366\034\231lOG\334\022\206J\253\252"
 492      F61C996C 
 492      4F47DC12 
 492      864AABAA 
 493 05f9 0F0CEAFA 		.ascii	"\017\014\352\372{:|\307U\354\026\031\273)\311~\033k"
 493      7B3A7CC7 
 493      55EC1619 
 493      BB29C97E 
ARM GAS  /tmp/ccOZhMBW.s 			page 39


 493      1B6B
 494 060b 708B02F0 		.ascii	"p\213\002\360\310\362\206\007\253\253\200\006\213DZ"
 494      C8F28607 
 494      ABAB8006 
 494      8B445A
 495 061a 62076036 		.ascii	"b\007`6<q\3310\016k\177\242&\017\313\234\250\206e\024"
 495      3C71D930 
 495      0E6B7FA2 
 495      260FCB9C 
 495      A8866514 
 496 062e 3857A657 		.ascii	"8W\246W\201)P-C\273C\3076\273!\000w\315\223@\377B\362"
 496      8129502D 
 496      43BB43C7 
 496      36BB2100 
 496      77CD9340 
 497 0645 17BB8338 		.ascii	"\027\273\2038\254v\220'h\007\271g\341;\211,\337\217"
 497      AC769027 
 497      6807B967 
 497      E13B892C 
 497      DF8F
 498 0657 769E34FD 		.ascii	"v\2364\375?*I\032Y\177\277q\250\332o\332O\004\223f\011"
 498      3F2A491A 
 498      597FBF71 
 498      A8DA6FDA 
 498      4F049366 
 499 066c E6A70466 		.ascii	"\346\247\004ft\0260/\223\307o\010\213\323t\370-94J\330"
 499      7416302F 
 499      93C76F08 
 499      8BD374F8 
 499      2D39344A 
 500 0681 36D661B4 		.ascii	"6\326a\264\366\210\321\354\\~\334\212\375\270`\236\253"
 500      F688D1EC 
 500      5C7EDC8A 
 500      FDB8609E 
 500      AB
 501 0692 3A364EF4 		.ascii	":6N\364\256\260b\336sl\246\263\224\015\036\310\300h"
 501      AEB062DE 
 501      736CA6B3 
 501      940D1EC8 
 501      C068
 502 06a4 4F8031F2 		.ascii	"O\2001\362j\324\255q\274\315n\264\300\234\204%\"\276"
 502      6AD4AD71 
 502      BCCD6EB4 
 502      C09C8425 
 502      22BE
 503 06b6 64F2F834 		.ascii	"d\362\3704>u|z\030=\222\315}\274X\004LLuu\204b\231#"
 503      3E757C7A 
 503      183D92CD 
 503      7DBC5804 
 503      4C4C7575 
 504 06ce 531E1EFF 		.ascii	"S\036\036\377\314\262\237\236c3\207\243\363\311p\012"
 504      CCB29F9E 
 504      633387A3 
 504      F3C9700A 
 505 06de B846C7B1 		.ascii	"\270F\307\261\253P\034\212t\311\265&\361:1/B\275\007"
 505      AB501C8A 
 505      74C9B526 
ARM GAS  /tmp/ccOZhMBW.s 			page 40


 505      F13A312F 
 505      42BD07
 506 06f1 853C9FA1 		.ascii	"\205<\237\241\301\240\230\217\342E\241\262\005\326\322"
 506      C1A0988F 
 506      E245A1B2 
 506      05D6D2
 507 0700 DF8BD055 		.ascii	"\337\213\320U\024\212P:(\276/W7\027\253\005j\376{\267"
 507      148A503A 
 507      28BE2F57 
 507      3717AB05 
 507      6AFE7BB7 
 508 0714 DB2AECE6 		.ascii	"\333*\354\346\231\361;\227\240\230O\226 \3105\003\016"
 508      99F13B97 
 508      A0984F96 
 508      20C83503 
 508      0E
 509 0725 DA74D3BD 		.ascii	"\332t\323\275(\272AO\273n\354\370\315#\256\033o\363"
 509      28BA414F 
 509      BB6EECF8 
 509      CD23AE1B 
 509      6FF3
 510 0737 8CD806F0 		.ascii	"\214\330\006\360\340a\177=\237\345\272\3410\217\242"
 510      E0617F3D 
 510      9FE5BAE1 
 510      308FA2
 511 0746 CEC43DAC 		.ascii	"\316\304=\254\204\216\026\011\227\220\007t\011\331\300"
 511      848E1609 
 511      97900774 
 511      09D9C0
 512 0755 51C59570 		.ascii	"Q\305\225p\011\371\372\003\\_0\002\006\033\271\365%"
 512      09F9FA03 
 512      5C5F3002 
 512      061BB9F5 
 512      25
 513 0766 E41DB209 		.ascii	"\344\035\262\011\245|\352\0222Q\333\177\310\035\275"
 513      A57CEA12 
 513      3251DB7F 
 513      C81DBD
 514 0775 5F50A80C 		.ascii	"_P\250\014\376\302m\026\227\211M\334\274L\220\003v\235"
 514      FEC26D16 
 514      97894DDC 
 514      BC4C9003 
 514      769D
 515 0787 1AE423B7 		.ascii	"\032\344#\267qzbt\247\004L\032J\247-[\246\031\377r\002"
 515      717A6274 
 515      A7044C1A 
 515      4AA72D5B 
 515      A619FF72 
 516 079c 9A3F4F0B 		.ascii	"\232?O\013\370\275\2327\333\227\267n\231\227q_\256x"
 516      F8BD9A37 
 516      DB97B76E 
 516      9997715F 
 516      AE78
 517 07ae 1DFF7BF3 		.ascii	"\035\377{\363r\225\265Yo\346\372\327\344(\257\376>\220"
 517      7295B559 
 517      6FE6FAD7 
 517      E428AFFE 
ARM GAS  /tmp/ccOZhMBW.s 			page 41


 517      3E90
 518 07c0 F55BFF9A 		.ascii	"\365[\377\232gb\325\2749>_\316Z-7\307"
 518      6762D5BC 
 518      393E5FCE 
 518      5A2D37C7 
 519 07d0 9F17D07E 		.ascii	"\237\027\320~\271\"sy\346:\264\341\315\361g\255\372"
 519      B9227379 
 519      E63AB4E1 
 519      CDF167AD 
 519      FA
 520 07e1 E3F3BE65 		.ascii	"\343\363\276e\331\354\005\013\351\254uy$\253-\317\\"
 520      D9EC050B 
 520      E9AC7579 
 520      24AB2DCF 
 520      5C
 521 07f2 F9E24A6D 		.ascii	"\371\342Jm9\012k/\256\365\276\376\306\352,\315\353\013"
 521      390A6B2F 
 521      AEF5BEFE 
 521      C6EA2CCD 
 521      EB0B
 522 0804 AC09AC7A 		.ascii	"\254\011\254z\315\353E\325\247\343\342[\023\225\311"
 522      CDEB45D5 
 522      A7E3E25B 
 522      1395C9
 523 0813 0EBC15C0 		.ascii	"\016\274\025\300\371\324\314\225+\322)(\214\356\207"
 523      F9D4CC95 
 523      2BD22928 
 523      8CEE87
 524 0822 E9193F62 		.ascii	"\351\031?b\334\317\024_\226/\307\377\326,\272\204/\233"
 524      DCCF145F 
 524      962FC7FF 
 524      D62CBA84 
 524      2F9B
 525 0834 89BC3FE4 		.ascii	"\211\274?\344\246\317l\337\233\275\032\205x^\356\377"
 525      A6CF6CDF 
 525      9BBD1A85 
 525      785EEEFF 
 526 0844 01F0E4BF 		.ascii	"\001\360\344\2777"
 526      37
 527              		.text
 528              		.section	.gnu.lto_chMtxUnlockS.31b02b25462048fa,"",%progbits
 529 0000 789C9556 		.ascii	"x\234\225V\351OTW\024\277\347\335\231yoV(\325\"\026"
 529      E94F5457 
 529      14BFE7DD 
 529      99796F56 
 529      28D52216 
 530 0014 2DFD40AC 		.ascii	"-\375@\254\037\352\2441\375\320\326\244\377A\223\232"
 530      1FEAA431 
 530      FDD0D6A4 
 530      FF41939A 
 531 0024 18FBA94D 		.ascii	"\030\373\251M\212&\232\270P\300j\3224<\201\251hMc\033"
 531      8A269AB8 
 531      50C06AD2 
 531      343C81A9 
 531      684D631B 
 532 0038 8B2C2E6D 		.ascii	"\213,.m\324`UT,\226\245U\007d\261\312\"P\260:\"\214"
 532      D4605554 
ARM GAS  /tmp/ccOZhMBW.s 			page 42


 532      2C96A555 
 532      0764B1CA 
 532      2250B03A 
 533 004e 205AC565 		.ascii	" Z\305e\024\244n\320s\356}\303\014\303\014\325\027x"
 533      14A46ED0 
 533      73EE7DC3 
 533      0CC30CD5 
 533      1778
 534 0060 F3EEBDE7 		.ascii	"\363\356\275\347\376\316\371\235\363\273\213\211\001"
 534      FECEF99D 
 534      F3BB8B89 
 534      01
 535 006d A327C7C9 		.ascii	"\243'\307\311\330\006\374\335\216\377\340`\240lkel\243"
 535      D806FCDD 
 535      8EFFE060 
 535      A06C6B65 
 535      6CA3
 536 007f A628BCA2 		.ascii	"\246(\274\242\2161\335f\273bg\272\203\203&\373M\212"
 536      8E31DD66 
 536      BB6267BA 
 536      838326FB 
 536      4D8A
 537 0091 59F6ABA2 		.ascii	"Y\366\253\242\337\254X\362\347Q\213\336\016\013\250"
 537      DFAC58F2 
 537      E7518BDE 
 537      0E0BA8
 538 00a0 D24A95E6 		.ascii	"\322J\225\346\265\232\246\230\2666\221\2715OE\003+\330"
 538      B59AA698 
 538      B63691B9 
 538      354F4503 
 538      2BD8
 539 00b2 A5812DF8 		.ascii	"\245\201-\370a\007\240\017]\003\226\255p\223\331\242"
 539      6107A00F 
 539      5D0396AD 
 539      7093D9A2 
 540 00c2 6A569B1D 		.ascii	"jV\233\035\262\025\215\311gDy\256@\335\246\301je~\251"
 540      B2158DC9 
 540      674479AE 
 540      40DDA6C1 
 540      6A657EA9 
 541 00d6 8E4F5FC3 		.ascii	"\216O_\303\221\205\372\001/x8c\343\212\264\201R\230"
 541      9185FA01 
 541      2F783863 
 541      E38AB481 
 541      5298
 542 00e8 8F56ED79 		.ascii	"\217V\355y\307v\362a\305\303\001L\330\014\264\024\367"
 542      C776F261 
 542      C5C3014C 
 542      D80CB414 
 542      F7
 543 00f9 BBA8A940 		.ascii	"\273\250\251@\0126oV5\346k|.0\374\366\367\005\346\314"
 543      0A366F56 
 543      35E66B7C 
 543      2E30FCF6 
 543      F705E6CC 
 544 010d DBAFEB39 		.ascii	"\333\257\3539\272\376x\231n\365p\016\007\201#\034\374"
 544      BAFE7899 
ARM GAS  /tmp/ccOZhMBW.s 			page 43


 544      6EF5700E 
 544      0781231C 
 544      FC
 545 011e 02C97000 		.ascii	"\002\311p\000\222\031v18\004\363\310\372F\345\2263*"
 545      92197631 
 545      3804F3C8 
 545      FA46E596 
 545      332A
 546 0130 7F53CC6C 		.ascii	"\177S\314l\351\252xbM\335KS\275\217\213]E\2727/\205"
 546      E9AA7862 
 546      4DDD4B53 
 546      BD8F8B5D 
 546      45BA372F 
 547 0145 A61F9E3C 		.ascii	"\246\037\236<\235\036\264n\036\253h\263\361T1\363\360"
 547      9D1EB46E 
 547      1EAB68B3 
 547      F15431F3 
 547      F0
 548 0156 9D866716 		.ascii	"\235\206g\026c\346\350\345\340L\023\034\211:\363Z\371"
 548      63E6E8E5 
 548      E04C131C 
 548      893AF35A 
 548      F9
 549 0167 D88F4E4B 		.ascii	"\330\217NK\0361N\201\243\220\012e\220\2729H\031\216"
 549      1E314E81 
 549      A3900A65 
 549      90BA3948 
 549      198E
 550 0179 8105ABC7 		.ascii	"\201\005\253\307\203\003h\357-\311\351\265\362\371\302"
 550      830368EF 
 550      2DC9E9B5 
 550      F2F9C2
 551 0188 D3C9D34F 		.ascii	"\323\311\323O\237j\206\247\036_\234\341\311\014\345"
 551      9F6A86A7 
 551      1E5F9CE1 
 551      C90CE5
 552 0197 533DC171 		.ascii	"S=\301qH=\272\330\253\217\217\347\352\336\221\331g\013"
 552      483DBAD8 
 552      AB8F8FE7 
 552      EADE91D9 
 552      670B
 553 01a9 EFDA9381 		.ascii	"\357\332\223\201\021\246\"\306\270x\253\214<i@\011\261"
 553      11A622C6 
 553      B878AB8C 
 553      3C694009 
 553      B1
 554 01ba 526AECF8 		.ascii	"Rj\354\37029\304\230\023?-.|\251qb^\002~j\211\3249\213"
 554      3239C498 
 554      133F2D2E 
 554      7CA97162 
 554      5E027E6A 
 555 01d2 8C92E8C5 		.ascii	"\214\222\350\305\330}\014{\257\306\002\212\202?|\020"
 555      D87D0C7B 
 555      AFC6028A 
 555      823F7C10 
 556 01e2 726A023D 		.ascii	"rj\002=\335\234x\344r\025C.\360\324\265\251T+\253`P"
 556      DD9C78E4 
ARM GAS  /tmp/ccOZhMBW.s 			page 44


 556      7215432E 
 556      F0D4B5A9 
 556      542BAB60 
 557 01f7 5D3DE453 		.ascii	"]=\344S\263\237\353\371\272\036\217}\2339\210\244\334"
 557      B39FEBF9 
 557      BA1E8F7D 
 557      9B3988A4 
 557      DC
 558 0208 6AEEAAB7 		.ascii	"j\356\252\267\355\201]\033u\321o\203\012\310\206_\211"
 558      ED815D1B 
 558      75D16F83 
 558      0AC8865F 
 558      89
 559 0219 0A0E7E57 		.ascii	"\012\016~Wul\263\346.\243\214\351K=\334\016'`\017\214"
 559      756CB3E6 
 559      2EA38CE9 
 559      4B3DDC0E 
 559      27600F8C 
 560 022d 29463E1B 		.ascii	")F>\033\266\266\357\323\334oS\302\177\003\367\230B\342"
 560      B6B6EFD3 
 560      DC6F53C2 
 560      7F03F798 
 560      42E2
 561 023f 874A70B3 		.ascii	"\207Jp\263k\220\243\177 \022\212\0241\030F\301\225\337"
 561      6B90A37F 
 561      20128A14 
 561      311846C1 
 561      95DF
 562 0251 1B34CBE0 		.ascii	"\0334\313\340\254\341\301q\021\334h\323\271|\007F\201"
 562      ACE1C171 
 562      11DC68D3 
 562      B97C0746 
 562      81
 563 0262 1274E472 		.ascii	"\022t\344r\015\252\214\000\366\017\344\034Q\311\005"
 563      0DAA8C00 
 563      F60FE41C 
 563      51C905
 564 0271 876AE15A 		.ascii	"\207j\341Z\224\252\006} d\301\3173\0110\034\3154\011"
 564      94AA067D 
 564      2064C1CF 
 564      3309301C 
 564      CD3409
 565 0284 8D38E9EF 		.ascii	"\2158\351\357`\266\234\030\004\374\036\211\251\301\037"
 565      60B69C18 
 565      04FC1E89 
 565      A9C11F
 566 0293 029313E6 		.ascii	"\002\223\023\346Ipcd\"\364%\006\352\251\374\237v\230"
 566      49706364 
 566      22F42506 
 566      EAA9FC9F 
 566      7698
 567 02a5 8D9A8F14 		.ascii	"\215\232\217\024\363\011]\036\214R\363SDT\243\250\236"
 567      F3095D1E 
 567      8C52F353 
 567      4454A3A8 
 567      9E
 568 02b6 6C6A6B6C 		.ascii	"ljkl\037\200\311z\363\236\037.\000 +!\264q\005\"\005"
ARM GAS  /tmp/ccOZhMBW.s 			page 45


 568      1F80C97A 
 568      F39E1F2E 
 568      00202B21 
 568      B4710522 
 569 02cb C9E03458 		.ascii	"\311\3404X\020\310K\031rF\220\210\217\232\026Q\227\276"
 569      10C84B19 
 569      72469088 
 569      8F9A1651 
 569      97BE
 570 02dd CEF2198B 		.ascii	"\316\362\031\213<\334\005\265\202\213I\342\240\215o"
 570      3CDC05B5 
 570      828B49E2 
 570      A08D6F
 571 02ec 5FED3E3B 		.ascii	"_\355>;\326\233\236L\224\016\324\201[\214\301\031\310"
 571      D69B9E4C 
 571      940ED481 
 571      5B8CC119 
 571      C8
 572 02fd 469E0AB9 		.ascii	"F\236\012\271B\273+%W\307\254\374c\021\320\031Om\216"
 572      42BB2B25 
 572      57C7ACFC 
 572      6311D019 
 572      4F6D8E
 573 0310 6A30FE7E 		.ascii	"j0\376~\313k\006\3438\250\217\302\270\201\030;Ei/u\373"
 573      CB6B06E3 
 573      38A88FC2 
 573      B881183B 
 573      45692F75 
 574 0325 77592208 		.ascii	"wY\"\010\227\366\2775\233l\004\243q\254\333\024\276"
 574      97F6BF35 
 574      9B6C04A3 
 574      71ACDB14 
 574      BE
 575 0336 8D826F13 		.ascii	"\215\202o\023\361\265\207\3270nJ\015\221~<\321?k\320"
 575      F1B587D7 
 575      306E4A0D 
 575      917E3CD1 
 575      3F6BD0
 576 0349 DF5D58F5 		.ascii	"\337]X\365\320\205\364\267!}\3377\353\013?\361\360W"
 576      D085F4B7 
 576      217DDF37 
 576      EB0B3FF1 
 576      F057
 577 035b E04FC1DF 		.ascii	"\340O\301\337,q\341\234\224!fg\373l\212@\204\"z\366"
 577      2C71E19C 
 577      94216667 
 577      FB6C8A40 
 577      84227AF6 
 578 036f D79C07A1 		.ascii	"\327\234\007\241M*\006\363C\236/\367s\251K;\361\241"
 578      4D2A06F3 
 578      439E2FF7 
 578      73A94B3B 
 578      F1A1
 579 0381 278092C8 		.ascii	"'\200\222\310S\305\222*\037}\304\321c\375\365g\035v"
 579      53C5922A 
 579      1F7DC4D1 
 579      63FDF567 
ARM GAS  /tmp/ccOZhMBW.s 			page 46


 579      1D76
 580 0393 FEA5886C 		.ascii	"\376\245\210l\343\241\222\235\016#I]\276\031\023\233"
 580      E3A1929D 
 580      0E23495D 
 580      BE19139B 
 581 03a3 CEF9FFDF 		.ascii	"\316\371\377\337t\232qo9nh\000\271\267\220WG\004YoO"
 581      749A716F 
 581      396E6800 
 581      B9B79057 
 581      4704596F 
 582 03b8 C9DC9892 		.ascii	"\311\334\230\2225C\253\240i\241\012\264\031K\355C\002"
 582      3543ABA0 
 582      69A10AB4 
 582      194BED43 
 582      02
 583 03c9 225C04A3 		.ascii	"\"\\\004\243\016o\257\317)\272\312\250\313*\010\231"
 583      0E6FAFCF 
 583      29BACAA8 
 583      CB2A0899 
 584 03d9 189E191C 		.ascii	"\030\236\031\034\007\343\331K*\373\002\201@le\177;\326"
 584      07E3D94B 
 584      2AFB0281 
 584      406C657F 
 584      3BD6
 585 03eb 8DCABE40 		.ascii	"\215\312\276@\254Zb(\273]\260\355 \266\211Q\225\015"
 585      AC5A6228 
 585      BB5DB0ED 
 585      20B68951 
 585      950D
 586 03fd D32ABB33 		.ascii	"\323*\2733\250\354\366\030\312\376\013\225Mc\320e(\273"
 586      A8ECF618 
 586      CAFE0B95 
 586      4D63D065 
 586      28BB
 587 040f 4328FB65 		.ascii	"C(\373e\324\334M,\023\247Ws7q\354\210\241\346\213\202"
 587      D4DC4D2C 
 587      13A75773 
 587      3771EC88 
 587      A1E68B82 
 588 0423 E3DFC471 		.ascii	"\343\337\304qVT\371\302\364\362\275\024\224/\001\301"
 588      5654F9C2 
 588      F4F2BD14 
 588      942F01C1 
 589 0433 E570F9A2 		.ascii	"\345p\371\242K\341[\364xN\337\006Q\334\013\023\362\315"
 589      4BE15BF4 
 589      784EDF06 
 589      51DC0B13 
 589      F2CD
 590 0445 90424A44 		.ascii	"\220BJD\317\206|\315\254r\221<\021\306\272U9\352\232"
 590      CF867CCD 
 590      AC72913C 
 590      11C6BA55 
 590      39EA9A
 591 0458 BCCBA2BC 		.ascii	"\274\313\242\274fE\223\227O\204\241RJ\256`\014\210\337"
 591      66459397 
 591      4F84A152 
 591      4AAE600C 
ARM GAS  /tmp/ccOZhMBW.s 			page 47


 591      88DF
 592 046a 9AFBB0F2 		.ascii	"\232\373\260\362#\211\301\021\306\360`a%sIN\336\347"
 592      2389C111 
 592      C6F06061 
 592      2573494E 
 592      DEE7
 593 047c BE9921F9 		.ascii	"\276\231!\371\271\304\230\032\322\232\354V\344\001P"
 593      B9C4981A 
 593      D29AEC56 
 593      E40150
 594 048b 7F914B9C 		.ascii	"\177\221K\234\270\310=z\011\213*\003\261\357\367\204"
 594      B8C83D7A 
 594      098B2A03 
 594      B1EFF784 
 595 049b F6FDAB13 		.ascii	"\366\375\253\023g\313\204\272\343\030{\000\012\206f"
 595      67CB84BA 
 595      E3187B00 
 595      0A8666
 596 04aa 027C99F1 		.ascii	"\002|\231\361\345\262\014\365\226\001\206\2411\274\005"
 596      E5B20CF5 
 596      960186A1 
 596      31BC05
 597 04b9 8587C199 		.ascii	"\205\207\301\231l\224IE\213\334\365W\316\2211\031\276"
 597      6C944945 
 597      8BDCF557 
 597      CE913119 
 597      BE
 598 04ca 090E41AC 		.ascii	"\011\016A\254\374Y\317jDW\267\006\326=\000\344\355\340"
 598      FC59CF6A 
 598      4457B706 
 598      D63D00E4 
 598      EDE0
 599 04dc 433D5F23 		.ascii	"C=_#\023\225\220\255\306\356P\020h\334a\246\351\221"
 599      139590AD 
 599      C6EE5010 
 599      68DC61A6 
 599      E991
 600 04ee 7CDE9D66 		.ascii	"|\336\235f\001\367\2062\334Gg\216\210\312[\275\333e"
 600      01F78632 
 600      DC47678E 
 600      88CA5BBD 
 600      DB65
 601 0500 0085AB36 		.ascii	"\000\205\2536\2646-QU\353\227{0\351\302\327\330[\364"
 601      B4362D51 
 601      55EB977B 
 601      30E9C2D7 
 601      D85BF4
 602 0513 7EE4D26C 		.ascii	"~\344\322l-\305\245\351\237X\232<b\373\302I\237\025"
 602      2DC5A5E9 
 602      9F589A3C 
 602      62FBC249 
 602      9F15
 603 0525 D50CE8FA 		.ascii	"\325\014\350\372\017:\274\340\016\326O`\327\204\326"
 603      0F3ABCE0 
 603      0ED64F60 
 603      D784D6
 604 0534 07B006FD 		.ascii	"\007\260\006\375\024\200]\22470PT\010\324\231\313\223"
ARM GAS  /tmp/ccOZhMBW.s 			page 48


 604      14805D94 
 604      37305054 
 604      08D499CB 
 604      93
 605 0545 A62E00CC 		.ascii	"\246.\000\314\206=\"\033\362Z\361\025\255\360\353\""
 605      863D221B 
 605      F25AF115 
 605      ADF0EB22 
 606 0555 279A4446 		.ascii	"'\232DF\203\316mz!\030\006E\"\264A\272`\230\245\001"
 606      83CE6D7A 
 606      21180645 
 606      22B441BA 
 606      6098A501 
 607 0569 DC30CE7F 		.ascii	"\3340\316\177\1772\371\013?;,\321\316\016\027\235\035"
 607      7F32F90B 
 607      3F3B2CD1 
 607      CE0E179D 
 607      1D
 608 057a 37A3F876 		.ascii	"7\243\370v\022\362?\301\205'\240oQI\222\010\275\270"
 608      12F23FC1 
 608      8527A06F 
 608      51499208 
 608      BDB8
 609 058c FC7A5186 		.ascii	"\374zQ\206\201?\225LRT2\357\021\231\333\323\220YJ\036"
 609      813F954C 
 609      525432EF 
 609      1199DBD3 
 609      90594A1E 
 610 05a0 87888BD5 		.ascii	"\207\210\213\325px\207\034\312\022znt\312\245\355\227"
 610      7078871C 
 610      CA127A6E 
 610      74CAA5ED 
 610      97
 611 05b1 8B5D118D 		.ascii	"\213]\021\215\376\360F350\270\216-w\037/\216\246\274"
 611      FEF04633 
 611      3530B88E 
 611      2D771F2F 
 611      8EA6BC
 612 05c4 852CD60D 		.ascii	"\205,\326\015\312\004wE`6\022\316=\362*\353V\336\326"
 612      CA047745 
 612      603612CE 
 612      3DF22AEB 
 612      56DED6
 613 05d7 64964B20 		.ascii	"d\226K a\312\026\021Y2qi\272\037\2724\005\202\027\261"
 613      61CA1611 
 613      59327169 
 613      BA1FBA34 
 613      058217B1 
 614 05eb 192F170B 		.ascii	"\031/\027\013\207\007\241U\375\220bI\020)\017\264UF"
 614      8707A155 
 614      FD906249 
 614      10290FB4 
 614      5546
 615 05fd 5D4F0B59 		.ascii	"]O\013Y\354p\206C\341\214\020\222\306nB\236\267\375"
 615      EC708643 
 615      E18C1092 
 615      C66E429E 
ARM GAS  /tmp/ccOZhMBW.s 			page 49


 615      B7FD
 616 060f AAD86BA6 		.ascii	"\252\330k\246^|\023\306\361$a\360\010O\012\004\364\360"
 616      5E7C13C6 
 616      F12461F0 
 616      084F0A04 
 616      F4F0
 617 0621 57C59665 		.ascii	"W\305\226ec{\200V\364\360\375\256\035f\343\372\367\302"
 617      637B8056 
 617      F4F0FDAE 
 617      1D66E3FA 
 617      F7C2
 618 0633 791D0DE5 		.ascii	"y\035\015\345\365_<\211D\214\210i\247k\371-\\\333\201"
 618      F55F3C89 
 618      448C8869 
 618      A76BF92D 
 618      5CDB81
 619 0646 4FE579CF 		.ascii	"O\345y\317\350\316\016\330\213\264__\260\300-\377\326"
 619      E8CE0ED8 
 619      8BB45F5F 
 619      B0C02DFF 
 619      D6
 620 0657 66BA33B2 		.ascii	"f\2723\262\334\231\031i\356\264\025\253\2636,Hc\312"
 620      DC991969 
 620      EEB415AB 
 620      B3362C48 
 620      63CA
 621 0669 EA74BE0A 		.ascii	"\352t\276\012\377\323\262\322\3255\313\327\247g\254"
 621      FFD3B2D2 
 621      D535CBD7 
 621      A767AC
 622 0678 5CFB4684 		.ascii	"\\\373F\204\371\3125i\253\326-[nLY\301x\326\027\351"
 622      F9CA3569 
 622      ABD62D5B 
 622      6E4C59C1 
 622      78D617E9 
 623 068c 29316D32 		.ascii	")1m2\323V,C#%+\375?\357\303\247^"
 623      D3562C43 
 623      23252BFD 
 623      3FEFC3A7 
 623      5E
 624              		.text
 625              		.section	.gnu.lto_chMtxUnlockAllS.31b02b25462048fa,"",%progbits
 626 0000 789C9556 		.ascii	"x\234\225V[O\\U\024\336\353\354sc\200\341b\261I%\226"
 626      5B4F5C55 
 626      14DEEBEC 
 626      736380E1 
 626      62B14925 
 627 0015 9834B10F 		.ascii	"\2304\261\0172i\232\230xy\320\007\377\200\211\251oM"
 627      32699A98 
 627      7879D007 
 627      FF8089A9 
 627      6F4D
 628 0027 1C34D4B4 		.ascii	"\0344\324\264\212\200\251\211\211l\230\031\013Mc\320"
 628      8A80A989 
 628      896C9819 
 628      0B4D63D0 
 629 0037 68614AEB 		.ascii	"haJ\353h\204P\355\215)U.\255u\240\\Z.E\300Z+\265\\\012"
ARM GAS  /tmp/ccOZhMBW.s 			page 50


 629      688450ED 
 629      8D29552E 
 629      AD75A05C 
 629      5A2E45C0 
 630 0050 2D366D2D 		.ascii	"-6m-)\265\206\024\306\265\3669\323\031f\006\213'pf\316"
 630      29B58614 
 630      C6B5F639 
 630      D3196606 
 630      8B277066 
 631 0065 9E35DFFA 		.ascii	"\2365\337\372\276o\255\275\366\250\014\030]\013)\214"
 631      BE6FADBD 
 631      F6A80C18 
 631      5D0B298C 
 632 0075 6DC7D76D 		.ascii	"m\307\327m\370\017)\014\224\352\363\214\225\233\012"
 632      F80F290C 
 632      94EAF38C 
 632      959B0A
 633 0084 18D61BAE 		.ascii	"\030\326\033\256\250\275\3172\341\320\316\255e\"M\005"
 633      A8BDCF32 
 633      E1D0CEAD 
 633      65224D05 
 634 0094 DD5AD622 		.ascii	"\335Z\326\"ot+\360eC\341{z\031\006\232^\003\003M\000"
 634      6F742BF0 
 634      6543E17B 
 634      7A19069A 
 634      5E03034D 
 635 00a9 5A1626B0 		.ascii	"Z\026&\2602\205\253\232n\230P\246\030\314\272\356)\213"
 635      3285AB9A 
 635      6E9850A6 
 635      18CCBAEE 
 635      298B
 636 00bb 0A74EEBA 		.ascii	"\012t\356\272\326\246ll\024xM\314\334\335,\016\206\300"
 636      D6A66C6C 
 636      14784DCC 
 636      DCDD2C0E 
 636      86C0
 637 00cd C7190B2B 		.ascii	"\307\031\013+V\0144\302F\206a\303\336\246\375|^\361"
 637      560C34C2 
 637      468661C3 
 637      DEA6FD7C 
 637      5EF1
 638 00df 7100151F 		.ascii	"q\000\025\037\347\006\367]u\322\243\002y\3708\260tb"
 638      E706F75D 
 638      75D2A302 
 638      79F838B0 
 638      7462
 639 00f1 C8C19F04 		.ascii	"\310\301\237\004\212<|\253\373\201\276\341\033!*D(8"
 639      8A3C7CAB 
 639      FB81BEE1 
 639      1B212A44 
 639      2838
 640 0103 EEF48B90 		.ascii	"\356\364\213\2207\317\3079|\007\034A\341[\310\205\203"
 640      37CFC739 
 640      7C071C41 
 640      E15BC885 
 640      83
 641 0114 902BC131 		.ascii	"\220+\3011z*\270\364E\272\356\245\364yp\0106X\211\341"
ARM GAS  /tmp/ccOZhMBW.s 			page 51


 641      7A2AB8F4 
 641      45BAEEA5 
 641      F4797008 
 641      365889E1 
 642 0128 30E8680C 		.ascii	"0\350h\014\320\312\261WC\"\034\366\210P`\375\251\177"
 642      D0CAB157 
 642      43221CF6 
 642      885060FD 
 642      A97F
 643 013a C2A9399C 		.ascii	"\302\2519\234\321\252\312|\\\325\361\246\231x\323\035"
 643      D1AACA7C 
 643      5CD5F1A6 
 643      9978D31D 
 644 014a F4988137 		.ascii	"\364\230\2017#\013o<\233n\214\335A,\364aNQ\360\205_"
 644      230B6F3C 
 644      9B6E8CDD 
 644      412CF461 
 644      4E51F085 
 645 015f 838AF6E0 		.ascii	"\203\212\366\340\315\213\234\300=\234c\362\275\276\316"
 645      CD8B9CC0 
 645      3D9C63F2 
 645      BDBECE
 646 016e 21835498 		.ascii	"!\203T\230\222y[\333\3151\243lQT\012\221\211kU\334\242"
 646      92795BDB 
 646      CD31A36C 
 646      51540A91 
 646      896B55DC 
 647 0183 7863E042 		.ascii	"xc\340B\227#\000\007\312\205\\O\201\243P\006GH\002~"
 647      97230007 
 647      CA855C4F 
 647      81A35006 
 647      4748027E 
 648 0197 F8496B53 		.ascii	"\370IkS\225\351:B\374\305\026\037w\3001\010\300\222"
 648      95E93A42 
 648      FCC5161F 
 648      77C03108 
 648      C092
 649 01a9 62ABEBDE 		.ascii	"b\253\353\3363\\o\272\236!\371M\340ZR\250\330\020\004"
 649      335C6FBA 
 649      9E21F94D 
 649      E05A52A8 
 649      D81004
 650 01bc 179B820A 		.ascii	"\027\233\202\012\361\202T\211Z<\304\025Yr\206\265\343"
 650      F1825489 
 650      5A3CC415 
 650      597286B5 
 650      E3
 651 01cd F851A825 		.ascii	"\370Q\250%\220\201\337\236m\355\2514\371S\222\333\351"
 651      9081DF9E 
 651      6DEDA934 
 651      F95392DB 
 651      E9
 652 01de CAAF6A34 		.ascii	"\312\257j4\313Uq\\\010 O58\376hO\233\321SJ\204\211O"
 652      CB55715C 
 652      08204F35 
 652      38FE684F 
 652      9BD1534A 
ARM GAS  /tmp/ccOZhMBW.s 			page 52


 653 01f5 60BA664A 		.ascii	"`\272fJ\2472\351\305\355\353\032\255y\270\036\353\205"
 653      A732E9C5 
 653      EDEB1AAD 
 653      79B81EEB 
 653      85
 654 0206 26F3DDEF 		.ascii	"&\363\335\357\355\253LC\321\330\014\251\370\005\370"
 654      EDAB4C43 
 654      D1D80CA9 
 654      F805F8
 655 0215 DED6DB30 		.ascii	"\336\326\3330]q\324 E\032\374 \225\312r\265\240$\204"
 655      5D71D420 
 655      451AFC20 
 655      95CA72B5 
 655      A02484
 656 0228 DCFB750E 		.ascii	"\334\373u\016\001\306\242\361ehd\241\330\204\305IC\315"
 656      01C6A2F1 
 656      656864A1 
 656      D884C549 
 656      43CD
 657 023a D01A8FA9 		.ascii	"\320\032\217\251B\233\304$;\240\035\\\310L:\365\232"
 657      429BC424 
 657      3BA01D5C 
 657      C84C3AF5 
 657      9A
 658 024b 8D1A6342 		.ascii	"\215\032cB(\020\340vk%\265\001N>\024\272\260\353\257"
 658      2810E076 
 658      6B25B501 
 658      4E3E14BA 
 658      B0EBAF
 659 025e AEE16958 		.ascii	"\256\341iXnL\250\377v\015\000EI_\302\012\304;\307\340"
 659      6E4CA8FF 
 659      760D0045 
 659      495FC20A 
 659      C43BC7E0 
 660 0272 9474ED47 		.ascii	"\224t\355Gr\310\214\023\221\231\324\026\331\006\023"
 660      72C88C13 
 660      9199D416 
 660      D90613
 661 0281 75C1352F 		.ascii	"u\3015/\372x:\234\226ZT\013\007c\306\352;\352S\261\275"
 661      FA783A9C 
 661      965A540B 
 661      0763C6EA 
 661      3BEA53B1 
 662 0296 E82AC19E 		.ascii	"\350*\301\236\205\237\300%?\203\020\224\241N\205Ra\334"
 662      859FC025 
 662      3F831094 
 662      A14E8552 
 662      61DC
 663 02a8 E5BA2B4B 		.ascii	"\345\272+K)\374\025I\350\214\257\243\302\260\025\177"
 663      29FC1549 
 663      E88CAFA3 
 663      C2B0157F 
 664 02b8 BAFB715B 		.ascii	"\272\373q[\261\023:\222(\356$\305\246,\355\245\201\311"
 664      B1133A92 
 664      28EE24C5 
 664      A62CEDA5 
 664      81C9
ARM GAS  /tmp/ccOZhMBW.s 			page 53


 665 02ca 037A9CE0 		.ascii	"\003z\234\340\226\251\247\327Q\214T\024\306\272%\350"
 665      96A9A7D7 
 665      518C5414 
 665      C6BA25E8 
 666 02da 3D23F576 		.ascii	"=#\365v\221\336\254\330\032:\023j\210\3623H~\267-\377"
 666      91DEACD8 
 666      1A3A136A 
 666      88F23348 
 666      7EB72DFF 
 667 02ee CBDAD6BB 		.ascii	"\313\332\326\273N\224_\215\362\233?\336Y\373\272\217"
 667      4E945F8D 
 667      F29B3FDE 
 667      59FBBA8F 
 668 02fe 67428FD4 		.ascii	"gB\217\324\257Y\270\320ku=\272\363\371:b \251\310\225"
 668      AF59B8D0 
 668      6B753DBA 
 668      F3F93A62 
 668      20A9C895 
 669 0312 86FBFD20 		.ascii	"\206\373\375 {\223\212\301&\301;\346y\303\352K\023\211"
 669      7B938AC1 
 669      26C13BE6 
 669      79C3EA4B 
 669      1389
 670 0324 486D7368 		.ascii	"Hmsh\343\350&\2715F\003k1a\327\314\203\221T\376\266"
 670      E3E826B9 
 670      3546036B 
 670      3161D7CC 
 670      839154FE 
 671 0339 24567EA8 		.ascii	"$V~\250n\177\232\2755F\013D\325K\324ug\037\2753\316"
 671      6E7F9ABD 
 671      35460B44 
 671      D54BD475 
 671      671FBD33 
 672 034e D9B547CD 		.ascii	"\331\265G\315}\322\370X\263\243\355\245'5\273\3372\233"
 672      7DD2F858 
 672      B3A3EDA5 
 672      2735BBDF 
 672      329B
 673 0360 F837F78C 		.ascii	"\3707\367\214\373\237\217\357\256\371\032\254g?e\350"
 673      FB9F8FEF 
 673      AEF91AAC 
 673      673F65E8 
 674 0370 23B7791C 		.ascii	"#\267y\034Q\374\322V\177\373\264\020\237\011X%\335A"
 674      51FCD256 
 674      7FFBB410 
 674      9F095825 
 674      DD41
 675 0382 021B9074 		.ascii	"\002\033\220t\317\243Y\203D KV{n\332_\013\264\350\341"
 675      CFA35983 
 675      44204B56 
 675      7B6EDA5F 
 675      0BB4E8E1 
 676 0396 D98985C2 		.ascii	"\331\211\205\302\255\226\025\267\325\254q\365!5\351"
 676      AD9615B7 
 676      D5AC71F5 
 676      2135E9
 677 03a5 902C926E 		.ascii	"\220,\222n!c\300h\265\250\005;\300/\251\375L\203K\263"
ARM GAS  /tmp/ccOZhMBW.s 			page 54


 677      2163C068 
 677      B5A8053B 
 677      C02FA9FD 
 677      4C834BB3 
 678 03b9 0260D8DE 		.ascii	"\002`\330\336\350\223\271\224/\266I\364dM\222NM2\222"
 678      E893B994 
 678      2FB649F4 
 678      644D924E 
 678      4D3292
 679 03cc 24773A21 		.ascii	"$w:!\217F\032DB\377B\373=\233\320\367\005g\374\3056"
 679      8F461A44 
 679      42FF42FB 
 679      3D9BD0F7 
 679      0567FCC5 
 680 03e1 7EA298EC 		.ascii	"~\242\230\354\244b\236#1\027\376C\314\026\312\370+i"
 680      A4629E23 
 680      3117FE43 
 680      CC16CAF8 
 680      2B69
 681 03f3 31EC8417 		.ascii	"1\354\204\027)\241U\302\206\205~\205\012%+&\267b\237"
 681      29A155C2 
 681      86857E85 
 681      0A252B26 
 681      B7629F
 682 0406 6571F481 		.ascii	"eq\364\201\272\205\310\215\354\036\371\310\356\227e"
 682      BA85C88D 
 682      EC1EF9C8 
 682      EE9765
 683 0415 536D335B 		.ascii	"Sm3[iRr\370M\3622\251o.QR\273l\367z5B\362p\307\362\201"
 683      695272F8 
 683      4DF232A9 
 683      6F2E5152 
 683      BB6CF77A 
 684 0430 9BA46272 		.ascii	"\233\244br8\376\036\035\216c\221\201\273\346\377q\321"
 684      38FE1E1D 
 684      8E639181 
 684      BBE6FF71 
 684      D1
 685 0441 E072746A 		.ascii	"\340rtj\377A\\\034\022'\370w\213\266\022\322Jt\256D"
 685      FF415C1C 
 685      1227F877 
 685      8BB612D2 
 685      4A74AE44 
 686 0455 E98C1392 		.ascii	"\351\214\023\222\312f\301\033\032\033\347\004\224x\236"
 686      CA66C11B 
 686      1A1BE704 
 686      94789E
 687 0464 66857113 		.ascii	"f\205q\0233\230\300Y\207\200>,5\355k\215\265\345\320"
 687      3398C059 
 687      87803E2C 
 687      35ED6B8D 
 687      B5E5D0
 688 0477 C93C7F67 		.ascii	"\311<\177g\261F\263\307\374\252}\235\214\372:\205\263"
 688      B146B3C7 
 688      FCAA7D9D 
 688      8CFA3A85 
 688      B3
ARM GAS  /tmp/ccOZhMBW.s 			page 55


 689 0488 5472444C 		.ascii	"TrDL]\236\243\364\316`\370\363\007\344aw+r\360\253\011"
 689      5D9EA3F4 
 689      CE60F8F3 
 689      07E46177 
 689      2B72F0AB 
 690 049d 66273D89 		.ascii	"f'=\211\256F\325M\243\331r,\275\025Ex\330\367*0\230"
 690      AE46D54D 
 690      A3D9722C 
 690      BD154578 
 690      D8F72A30 
 691 04b2 B1B7EC1C 		.ascii	"\261\267\354\034r\211\374\320\0107jVt\306j\362=\206"
 691      7289FCD0 
 691      08376A56 
 691      74C66AF2 
 691      3D86
 692 04c4 24295F0A 		.ascii	"$)_\012\345\273\036\331dNB\2107$}e\214Y\211\341 \214"
 692      E5BB1ED9 
 692      644E4288 
 692      37247D65 
 692      8C5989E1 
 693 04da 3FA92219 		.ascii	"?\251\"\031\354\006N\314\360V\353\374g\364\203\010\220"
 693      EC064ECC 
 693      F056EBFC 
 693      67F48308 
 693      90
 694 04eb 2016FF89 		.ascii	" \026\377\211\374|\227\365\367n\211\253\270\324UR\354"
 694      FC7C97F5 
 694      F76E89AB 
 694      B8D45552 
 694      EC
 695 04fc 76B90B77 		.ascii	"v\271\013w\224~\220\357f\334]Z\244\354(Z\037\027\262"
 695      947E90EF 
 695      66DC5D5A 
 695      A4EC285A 
 695      1F17B2
 696 050f ED1DF7F6 		.ascii	"\355\035\367\366\367\013\336\264\303\012\031/}\257("
 696      F70BDEB4 
 696      C30A192F 
 696      7DAF28
 697 051e 6FC59812 		.ascii	"o\305\230\022wa\001\006)\245E\377\002\0004qi"
 697      77610106 
 697      29A545FF 
 697      02003471 
 697      69
 698              		.text
 699              		.section	.gnu.lto_chMtxUnlockAll.31b02b25462048fa,"",%progbits
 700 0000 789C9556 		.ascii	"x\234\225V}PTU\024\277\347\336\267\373\336\356\"a\032"
 700      7D505455 
 700      14BFE7DE 
 700      B7FBDEEE 
 700      22611A
 701 0013 523285CD 		.ascii	"R2\205\3150\223S\261\365G9\331?5\3164\323\037L\2453"
 701      309353B1 
 701      F54739D9 
 701      3F35CE34 
 701      D31F4CA5 
 702 0028 7D4D9353 		.ascii	"}M\223S+\0236\021\264Ke\323\037<`\237\370\301\2306S"
ARM GAS  /tmp/ccOZhMBW.s 			page 56


 702      2B133611 
 702      B44B65D3 
 702      1F3C609F 
 702      F8C19836 
 703 003d 2E265226 		.ascii	".&R&\243\245\242\230\231H\322\342\007\010\231$EV\210"
 703      A3A5A298 
 703      9948D2E2 
 703      07089924 
 703      455688
 704 0050 E922A864 		.ascii	"\351\"\250d\346\032f)\262\235s\337[\027\367Cm\207Y\336"
 704      E61A6629 
 704      B29D73DF 
 704      5B17F743 
 704      6D8759DE 
 705 0064 DE77EEEF 		.ascii	"\336w\356\357\374\316\357\234{\356Q\0300\372\2748\216"
 705      FCCEEF9C 
 705      7BEE5118 
 705      30FABC38 
 705      8E
 706 0075 B15BF1B1 		.ascii	"\261[\361\261\002\237\301\305\200/=\300X\271\306\271"
 706      029FC1C5 
 706      802F3DC0 
 706      58B9C6B9 
 707 0085 58D1C698 		.ascii	"X\321\306\230\356\324\376V\231\236&\300A\353\340\340"
 707      EED4FE56 
 707      999E26C0 
 707      41EBE0E0 
 708 0095 4AFB83B8 		.ascii	"J\373\203\270j\353\230\204\253\012\330Mk[\364\301\316"
 708      6AEB9884 
 708      AB0AD84D 
 708      6B5BF4C1 
 708      CE
 709 00a6 9DD5EDB4 		.ascii	"\235\325\355\264M\365\3236\247\271\355Q\0254\363\275"
 709      4DF5D336 
 709      A7B9ED51 
 709      1534F3BD 
 710 00b6 06400FBA 		.ascii	"\006@\017\272\006\254\214\013\207b\263;U\015\312\270"
 710      06AC8C0B 
 710      8762B33B 
 710      550DCAB8 
 711 00c6 83999FF3 		.ascii	"\203\231\237\363\3742\207]U\203M|\352Z\035?G\215\265"
 711      FC32875D 
 711      55834D7C 
 711      EA5A1D3F 
 711      478DB5
 712 00d9 69F37523 		.ascii	"i\363u#\313\020\214E\270i\003ka*C\263\203\376\315+\305"
 712      CB108C45 
 712      B869036B 
 712      612A43B3 
 712      83FECD2B 
 713 00ee 30370480 		.ascii	"07\004\200\202?\303\337\255\350O\247\237\034r\360\347"
 713      823FC3DF 
 713      ADE84FA7 
 713      9F1C72F0 
 713      E7
 714 00ff FED1AD5D 		.ascii	"\376\321\255]Nq;\220\345\206?\366\216\330s?\325\365"
 714      4E713B90 
ARM GAS  /tmp/ccOZhMBW.s 			page 57


 714      E5863FF6 
 714      8ED8733F 
 714      D5F5
 715 0111 0A3DD81C 		.ascii	"\012=\330\034*\\V\251\357\323\025C\010\370\034\004\242"
 715      2A5C56A9 
 715      EFD31543 
 715      08F81C04 
 715      A2
 716 0122 C267900D 		.ascii	"\302g\220\015\353 [\242\243y\250q\364\203qv?\371\317"
 716      EB205BA2 
 716      A379A871 
 716      F4837176 
 716      3FF9CF
 717 0135 81F5906B 		.ascii	"\201\365\220kz\206\015`G\2358\255\240\321\311\355m\013"
 717      7A860D60 
 717      479D38AD 
 717      A0D1C9ED 
 717      6D0B
 718 0147 3471A7C4 		.ascii	"4q\247\304oY\360\361r\233\205\337\023z\344}\013_\201"
 718      6F59F0F1 
 718      729B85DF 
 718      137AE47D 
 718      0B5F81
 719 015a 8D89F8D0 		.ascii	"\215\211\370\320\000\271\233f\006\365H\244R\0176\335"
 719      00B99B66 
 719      06F548A4 
 719      520F36DD 
 720 016a D95875A2 		.ascii	"\331Xu\242m|\266\215\021\252\235\031\302\246\342\227"
 720      6D7CB68D 
 720      11AA9D19 
 720      C2A6E297 
 721 017a 5D93660E 		.ascii	"]\223f\016|T\\\370%\322iq\002}M\304/5\213\326\030;\213"
 721      7C545CF8 
 721      25D26971 
 721      027D4DC4 
 721      2F358BD6 
 722 0191 B4865416 		.ascii	"\264\206T\026\346\034\377\211A\250\330\021>\020\230"
 722      E61CFF89 
 722      41A8D811 
 722      3E1098
 723 01a0 4E3C2B85 		.ascii	"N<+\205\015i}h\354\352RI\021M\262lj:\335\253\226]\326"
 723      0D697D68 
 723      ECEA5249 
 723      114DB26C 
 723      6A3ADDAB 
 724 01b7 17E87A06 		.ascii	"\027\350z\006\256-\024f\264C\373{\3668\353\240\266\\"
 724      AE2D1466 
 724      B443FB7B 
 724      F638EBA0 
 724      B65C
 725 01c9 97EB0ED8 		.ascii	"\227\353\016\330\014e\260\211\330\342\313%\3337/\324"
 725      0C65B089 
 725      D8E2CB25 
 725      DB372FD4 
 726 01d9 DC1B490A 		.ascii	"\334\033I\012\375\031C8\241\021\352`\224[B\355\255>"
 726      FD194338 
 726      A111EA60 
ARM GAS  /tmp/ccOZhMBW.s 			page 58


 726      945B42ED 
 726      AD3E
 727 01eb B84673DF 		.ascii	"\270Fs\337KJn\001\367(\247\212\202/\300\315BP\241?,"
 727      4B4A6E01 
 727      F728A78A 
 727      822FC0CD 
 727      4250A13F 
 728 0200 05C3B090 		.ascii	"\005\303\260\220\014-d\320\216\372\316\356o\\\"W\362"
 728      0C2D64D0 
 728      8EFACEEE 
 728      6F5C2257 
 728      F2
 729 0211 190E34AE 		.ascii	"\031\0164\256s\230\252\035m>\225\337Z?__Z\256\031\302"
 729      7398AA1D 
 729      6D3E95DF 
 729      5A3F5F5F 
 729      5AAE19C2 
 730 0225 055B93C8 		.ascii	"\005[\223\310\366\245T\275\352\224\276S\241\220\\\220"
 730      F6A554BD 
 730      EA94BE53 
 730      A1905C90 
 731 0235 03DBF0DD 		.ascii	"\003\333\360\335\011\250\010]h;3\355\352\264\005;\272"
 731      09A8085D 
 731      683B33ED 
 731      EAB4053B 
 731      BA
 732 0246 B264C222 		.ascii	"\262d\302\"\034\3422\032l\372\340[@\275\277\242\227"
 732      1CE2321A 
 732      6CFAE05B 
 732      40BDBFA2 
 732      97
 733 0257 3CFEE5F9 		.ascii	"<\376\345\371\356\225\000\344\213\301v2\020\361\365"
 733      EE9500E4 
 733      8BC17632 
 733      10F1F5
 734 0266 C0A009EC 		.ascii	"\300\240\011\354Hg\007\025\003\260m\200\357W\327m\371"
 734      48670715 
 734      03B06D80 
 734      EF57D76D 
 734      F9
 735 0277 C739A51D 		.ascii	"\3079\245\035\352\364@\216!\322h\313\306\376f]SP'h\206"
 735      EAF4408E 
 735      21D268CB 
 735      C6FE665D 
 735      53502768 
 736 028c 2952ABB3 		.ascii	")R\253\263\247\177\354\345\270\002_\203\"\2313\330)"
 736      A77FECE5 
 736      B8025F83 
 736      229933D8 
 736      29
 737 029d EB765DCB 		.ascii	"\353v]\313\356\201\264)\235\326\356qd{\256aK\217K\356"
 737      EE81B429 
 737      9DD6EE71 
 737      647BAE61 
 737      4B8F4BEE 
 738 02b1 6EA1DDF0 		.ascii	"n\241\335\360\015(\250 \227\"0F\211nj]\264\333nfZ\035"
 738      0D28A820 
ARM GAS  /tmp/ccOZhMBW.s 			page 59


 738      97223046 
 738      896E6A5D 
 738      B4DB6E66 
 739 02c7 9B6921C3 		.ascii	"\233i!\303\275\320\336\271 \015S\012\206HG\365!he\263"
 739      BDD0DEB9 
 739      200D530A 
 739      864847F5 
 739      216865B3 
 740 02db FE784583 		.ascii	"\376xE\203J\371\262C\253\314\243\254\353]\230\260c\340"
 740      4AF9B243 
 740      ABCCA3AC 
 740      EB5D98B0 
 740      63E0
 741 02ed EFADBC2D 		.ascii	"\357\255\274-\011 E\271\333\312A\030\345\360\253@\017"
 741      092045B9 
 741      DBCA4118 
 741      E5F0AB40 
 741      0F
 742 02fe 0E86C718 		.ascii	"\016\206\307\030\210IcO\340\311\3703\323@\372m\220:"
 742      8849634F 
 742      E0C9F833 
 742      D340FA6D 
 742      903A
 743 0310 ED21446D 		.ascii	"\355!Dm\014'*3\375\015\226\232\331\336\030\2636\253"
 743      0C272A33 
 743      FD0D969A 
 743      D9DE18B3 
 743      36AB
 744 0322 949E2218 		.ascii	"\224\236\"\030BE(\031~\270'PbB;\306\222U\342\243\277"
 744      42452819 
 744      7EB82750 
 744      62423BC6 
 744      9255E2A3 
 745 0337 0937407B 		.ascii	"\0117@{\274\017\005\366I\037t\000\240\003} \344\207"
 745      BC0F05F6 
 745      491F7400 
 745      A0037D20 
 745      E487
 746 0349 9F641260 		.ascii	"\237d\022`<\321\007\256A\2643F\364[p#\025\311\3659\013"
 746      3CD107AE 
 746      41B43346 
 746      F45B7023 
 746      15C9F539 
 747 035e 666C4F68 		.ascii	"flOh\012\335W\243\007\3759\251Z\302\376+\221]\254:\264"
 747      0ADD57A3 
 747      07FD39A9 
 747      5AC2FE2B 
 747      915DAC3A 
 748 0373 23D0991D 		.ascii	"#\320\231\035W\225\213\177\312\232LFR\316\010W\022\213"
 748      57958B7F 
 748      CA9A4C46 
 748      52CE0857 
 748      128B
 749 0385 F23B29F6 		.ascii	"\362;)\366\001R$>\206\214\2442\310#}\264g\311c\273T"
 749      0152243E 
 749      868CA432 
 749      C8237DB4 
ARM GAS  /tmp/ccOZhMBW.s 			page 60


 749      67C963BB 
 750 039a 43644097 		.ascii	"Cd@\227\214E1\201\320\250wM\353\032\027\366\012\372"
 750      8C453181 
 750      D0A8774D 
 750      EB1A17F6 
 750      0AFA
 751 03ac F8B02BC1 		.ascii	"\370\260+\301\367\340\226\357\340 \224Q-\222/\264;\374"
 751      F7E096EF 
 751      E0209451 
 751      2D922FB4 
 751      3BFC
 752 03be D1915187 		.ascii	"\321\221Q\2078\007R\370\335Fk\205j\205\274lQ\246\025"
 752      380752F8 
 752      DD466B85 
 752      6A85BC6C 
 752      51A615
 753 03d1 F278E84E 		.ascii	"\362x\350N\022\362\017\024\262]&\263\346B\177\255=."
 753      12F20F14 
 753      B25D26B3 
 753      E6427FAD 
 753      3D2E
 754 03e3 E2F5B5D5 		.ascii	"\342\365\265\325\260Z\220\225\214*\302m\2111\377(c\356"
 754      B05A9095 
 754      8C2AC26D 
 754      8931FF28 
 754      63EE
 755 03f5 A1985D63 		.ascii	"\241\230]c\253`\374UU`Ip3I\360\223%\301\252\300\366"
 755      AB60FC55 
 755      55604970 
 755      3349F093 
 755      25C1AAC0 
 756 040a BFD25182 		.ascii	"\277\322Q\202\245(A\337{o\007\2365\304\0048$%\260\231"
 756      A52841DF 
 756      7B6F079E 
 756      35C40438 
 756      2425B099 
 757 041e B8F0B359 		.ascii	"\270\360\263Yz\250P\033\362@\012\222\213\\2\326WO\226"
 757      7AA8501B 
 757      F2400A92 
 757      8B5C32D6 
 757      574F96
 758 0431 05491931 		.ascii	"\005I\0311O\316\253f1\022\023\353\244(\254\375A\201"
 758      4FCEAB66 
 758      311213EB 
 758      A428ACFD 
 758      4181
 759 0443 D6C17028 		.ascii	"\326\301p((\320\345\236\201\221n\227Xn\266\243\362\365"
 759      28D0E59E 
 759      81916E97 
 759      586EB6A3 
 759      F2F5
 760 0455 1FAD4C33 		.ascii	"\037\255L3\205\322\017\315\321\027>B\007\367\227\353"
 760      85D20FCD 
 760      D1173E42 
 760      07F797EB 
 761 0465 DF45BF5A 		.ascii	"\337E\277Z%\200a\367J\371\307*\036+2[R\305\017\233\212"
 761      258061F7 
ARM GAS  /tmp/ccOZhMBW.s 			page 61


 761      4AF9C72A 
 761      1E2B325B 
 761      52C50F9B 
 762 047a 53047D5D 		.ascii	"S\004}]\277\325L\217\257\261\303Yw\223\215\204\216p"
 762      BFD54C8F 
 762      AFB1C359 
 762      77938D84 
 762      8E70
 763 048c 7B1C4FDC 		.ascii	"{\034O\3343\273f\307q]\177_\207\033d{\204\300\372$\333"
 763      33BB66C7 
 763      715D7F5F 
 763      871B647B 
 763      84C0FA24 
 764 04a1 DF50AD23 		.ascii	"\337P\255#\344\337e\036\337\3435\001\240\305J\221\225"
 764      E4DF651E 
 764      DFE33501 
 764      A0C54A91 
 764      95
 765 04b2 982A3C6F 		.ascii	"\230*<o\256\270\363f^@\357R\245\036\225i\262\233\310"
 765      AEB8F366 
 765      5E40EF52 
 765      A51E9569 
 765      B29BC8
 766 04c5 68F0C352 		.ascii	"h\360\303R=\000\226A\215\244v\214\256\"\233i\000!\353"
 766      3D009641 
 766      8DA4768C 
 766      AE229B69 
 766      0021EB
 767 04d8 781FCB26 		.ascii	"x\037\313&\177c\313\304\226\254L2\250L\372\223\370\036"
 767      7F63CBC4 
 767      96AC4C32 
 767      A84CFA93 
 767      F81E
 768 04ea 47C8C7A3 		.ascii	"G\310\307\243%\"\241\007\350\320g\021\372\212\306\201"
 768      2522A107 
 768      E8D06711 
 768      FA8AC681 
 769 04fa 1AAF859F 		.ascii	"\032\257\205\237\030LV\322`\036\242`\006\257\021\314"
 769      184C56D2 
 769      601EA260 
 769      06AF11CC 
 770 050a 33E4F104 		.ascii	"3\344\361\004\305\242Z\016O\222C3\203\376\2064\312\223"
 770      C5A25A0E 
 770      4F924333 
 770      83FE8634 
 770      CA93
 771 051c 4C983C8E 		.ascii	"L\230<\216\275\246\302\261\037\277ZWE\367\242\316\305"
 771      BDA6C2B1 
 771      1FBF5A57 
 771      45F7A2CE 
 771      C5
 772 052d C22A97AB 		.ascii	"\302*\227\253Z\3334\226\252?\0128%yiT6C\344\324L[c_"
 772      5ADB3496 
 772      AA3F0A38 
 772      25796954 
 772      3643E4D4 
 773 0545 E00542AA 		.ascii	"\340\005B\252\024\351\011\227L|\306d\207\374=\326!O"
ARM GAS  /tmp/ccOZhMBW.s 			page 62


 773      14E90997 
 773      4C7CC664 
 773      87FC3DD6 
 773      214F
 774 0557 47DBEC2D 		.ascii	"G\333\354-\377\217\213\002\177\304z\365\031\342\222"
 774      FF8F8B02 
 774      7FC47AF5 
 774      19E292
 775 0566 2E71C27D 		.ascii	".q\302}\201\347S!\245\242\363g\214\316YB\322\330I\360"
 775      81E75321 
 775      A5A2F367 
 775      8CCE5942 
 775      D2D849F0 
 776 057a 07FF0DED 		.ascii	"\007\377\015\355\003BJ\034\221&FPz\006a\354x\210h\210"
 776      03424A1C 
 776      91264650 
 776      7A0661EC 
 776      78886888 
 777 058e 5BE4C9B6 		.ascii	"[\344\311\266\261\216I4l\015o\036\010<\235\354\316\270"
 777      B18E4934 
 777      6C0D6F1E 
 777      083C9DEC 
 777      CEB8
 778 05a0 96B0E762 		.ascii	"\226\260\347b\302\376\205\035U\222DL;]\247r\202k\034"
 778      C2FE851D 
 778      5592444C 
 778      3B5DA772 
 778      826B1C
 779 05b3 0CCC34AF 		.ascii	"\014\3144\257\341\0117v\221\017\307\202:\037\275\310"
 779      E1093776 
 779      910FC782 
 779      3A1FBDC8 
 780 05c3 332D842B 		.ascii	"3-\204+7\367Y\356d8\227C\030\003\362[\243\342`\340Y"
 780      37F759EE 
 780      64389743 
 780      1803F25B 
 780      A3E260E0 
 781 05d8 D36CE28D 		.ascii	"\323l\342\2158\312\204\277\245#\032\324\341B\364P\335"
 781      38CA84BF 
 781      A5231AD4 
 781      E142F450 
 781      DD
 782 05e9 4408F1F1 		.ascii	"D\010\361\361\337\237\362\316\314\204\177$\210\223@"
 782      DF9FF2CE 
 782      CC847F24 
 782      889340
 783 05f8 FEA5144C 		.ascii	"\376\245\024L\304\024T\006k\373\357\222\343BB\006&E"
 783      C4145406 
 783      6BFBEF92 
 783      E3424206 
 783      2645
 784 060a 482BB888 		.ascii	"H+\270\210\0310\360\250\221T\032\315\272\321q\362\252"
 784      1930F0A8 
 784      91541ACD 
 784      BAD171F2 
 784      AA
 785 061b 11F2B327 		.ascii	"\021\362\263'\2563B^\222#\344\225\006\340\302\321f$"
ARM GAS  /tmp/ccOZhMBW.s 			page 63


 785      AE33425E 
 785      9223E495 
 785      06E0C2D1 
 785      6624
 786 062d F508B9F0 		.ascii	"\365\010\271\360tt\204t$\336=\227\251\255%\014\226\027"
 786      74748474 
 786      24DE3D97 
 786      A9AD250C 
 786      9617
 787 063f 69B01CA5 		.ascii	"i\260\034\245-\316\204\301rh\025\016\226\227\250%FR"
 787      2DCE84C1 
 787      7268150E 
 787      9697A825 
 787      4652
 788 0651 0C963AA7 		.ascii	"\014\226:\247VY\316c\203\345h\335\261\026Wtf\034\221"
 788      5659CE63 
 788      83E568DD 
 788      B1165774 
 788      661C91
 789 0664 33630557 		.ascii	"3c\005W\222\014\210\225\334\032\020\311\001\033\302"
 789      920C8895 
 789      DC1A10C9 
 789      011BC2
 790 0673 0651BFAD 		.ascii	"\006Q\277\255\032\314\021L\246\037P54\237\234\227\347"
 790      1ACC114C 
 790      A61F5035 
 790      349F9C97 
 790      E7
 791 0684 36FF8A7D 		.ascii	"6\377\212}no\251\333\347\365\270=\205E\245\363\362<"
 791      6E6FA9DB 
 791      E7F5B83D 
 791      8545A5F3 
 791      F23C
 792 0696 4C784A4B 		.ascii	"LxJKxQ\211\372\362K\276\202'\275s\357\035k\352).**~"
 792      785189FA 
 792      F24BBE82 
 792      27BD73EF 
 792      1D6BEA29 
 793 06ae DD5D52EC 		.ascii	"\335]R\354-\365\271\037\235\231?#\177\036\356\363\024"
 793      2DF5B91F 
 793      9D993F23 
 793      7F1EEEF3 
 793      14
 794 06bf 7B0B66BF 		.ascii	"{\013f\2775\255(\257\220MOb]0\257\224l\3353\362g=>\313"
 794      35AD28AF 
 794      904D4F62 
 794      5D30AF94 
 794      6CDD33F2 
 795 06d7 3D038DDD 		.ascii	"=\003\215\335\217\277\356y\355\3159\005nO\221o\256o"
 795      8FBFEE79 
 795      EDCD3905 
 795      6E4F916F 
 795      AE6F
 796 06e9 F62B1E0F 		.ascii	"\366+\036\017n\275#\216\323\334\250M\241\357\035\037"
 796      6EBD238E 
 796      D3DCA84D 
 796      A1EF1D1F 
ARM GAS  /tmp/ccOZhMBW.s 			page 64


 797 06f9 BECFC89F 		.ascii	"\276\317\310\23753\207H\225x\347\336\223\223{\037\343"
 797      35338748 
 797      9578E7DE 
 797      93937B1F 
 797      E3
 798 070a 5EA61615 		.ascii	"^\246\026\025\024\025{\337\271\306^\212\251\220\211"
 798      14157BDF 
 798      B9C65E8A 
 798      A99089
 799 0719 D2374A72 		.ascii	"\3227JrR\343{\012\347\240\021/-\371\017_\252\325\020"
 799      52E37B0A 
 799      E7A0112F 
 799      2DF90F5F 
 799      AAD510
 800              		.text
 801              		.section	.gnu.lto_.symbol_nodes.31b02b25462048fa,"",%progbits
 802 0000 789C55CE 		.ascii	"x\234U\316\315\012Aa\020\306\361\347\2359\307\347\341"
 802      CD0A4161 
 802      10C6F1E7 
 802      9D39C7E7 
 802      E1
 803 0011 0E88DB91 		.ascii	"\016\210\333\221{\232\223\\\200r\005\352\344\233B\024"
 803      7B9A935C 
 803      807205EA 
 803      E49B4214 
 804 0021 2B0BB658 		.ascii	"+\013\266X\010I\362u\005\326\222\367\310\302\254\376"
 804      0849F275 
 804      05D692F7 
 804      C8C2ACFE 
 805 0031 D36F6631 		.ascii	"\323of1\016\014\212\006\000\315I\200\312\012\020\230"
 805      0E0C8A06 
 805      00CD4980 
 805      CA0A1098 
 806 0041 69B9E6E7 		.ascii	"i\271\346\347\000w@\310\205\273:\211\371\3550\363\363"
 806      007740C8 
 806      85BB3A89 
 806      F9ED30F3 
 806      F3
 807 0052 569A24A4 		.ascii	"V\232$\244\245A\302ZZ$\216\2266\211\253\245C\022\321"
 807      A541C25A 
 807      5A248E96 
 807      3689ABA5 
 807      4312D1
 808 0065 D225896A 		.ascii	"\322%\211j\351\221\304\264\364I\342J\314\210$\361\025"
 808      E991C4B4 
 808      F449E24A 
 808      CC8824F1 
 808      15
 809 0076 C00F5F37 		.ascii	"\300\017_7C\222\244\202\011\211\367\017\314\036\026"
 809      4392A482 
 809      0989F70F 
 809      CC1E16
 810 0085 F7438139 		.ascii	"\367C\2019\211\340\27192;\214\322\365m\330\005n\343"
 810      89E0B939 
 810      323B8CD2 
 810      F56DD805 
 810      6EE3
ARM GAS  /tmp/ccOZhMBW.s 			page 65


 811 0097 34476C2E 		.ascii	"4Gl.\031\216\332\263\343\3266\205G\330\230\207\307\336"
 811      198EDAB3 
 811      E3D63685 
 811      47D89887 
 811      C7DE
 812 00a9 36EE2158 		.ascii	"6\356!X\355\316\314\011\013\353\327\311\016)\004\325"
 812      EDCECC09 
 812      0BEBD7C9 
 812      0E2904D5 
 813 00b9 65161F56 		.ascii	"e\026\037V\036W:"
 813      1E573A
 814              		.text
 815              		.section	.gnu.lto_.refs.31b02b25462048fa,"",%progbits
 816 0000 789C6361 		.ascii	"x\234ca`d\220g`\000\222\014\214\214\214\314 \202\035"
 816      60649067 
 816      6000920C 
 816      8C8C8CCC 
 816      20821D
 817 0013 44708008 		.ascii	"Dp\200\010N\020\301\005$\030\000\010#\000\\"
 817      4E10C105 
 817      24180008 
 817      23005C
 818              		.text
 819              		.section	.gnu.lto_.decls.31b02b25462048fa,"",%progbits
 820 0000 789CB53B 		.ascii	"x\234\265;iTT\351\225\365\275\257(\212\242\000G\235"
 820      695454E9 
 820      95F5BDAF 
 820      288AA200 
 820      479D
 821 0012 A4674232 		.ascii	"\244gB2}:d\302\234\031\305\336;99s\272\323\351t\333"
 821      7D3A64C2 
 821      9C19C5DE 
 821      3B393973 
 821      BAD3E974 
 822 0027 5BBA633A 		.ascii	"[\272c:\247\247s\346\224\010\245\220\260\245(m\375\225"
 822      A7A773E6 
 822      9408A590 
 822      B0A5286D 
 822      FD95
 823 0039 62137063 		.ascii	"b\023pcS\220MQ\334\020PT\024\005\321\022\025\021\024"
 823      53904D51 
 823      DC105054 
 823      1405D112 
 823      151114
 824 004c 10144440 		.ascii	"\020\024D@\300\005w\221E@\026\231\373-\257\336\253\342"
 824      C0057791 
 824      45401699 
 824      FB2DAFDE 
 824      ABE2
 825 005e 159A3933 		.ascii	"\025\23293\350\345\275\373\336\375\356~\357\373\276"
 825      E8E5BDFB 
 825      DEFDEE7E 
 825      EFFBBE
 826 006d EF3DD42A 		.ascii	"\357=\324*\244\"?\237\376B\245Z\357\252R}\253Q\251\246"
 826      A4223F9F 
 826      FE42A55A 
 826      EFAA527D 
ARM GAS  /tmp/ccOZhMBW.s 			page 66


 826      AB51A9A6 
 827 0081 E0C71DAE 		.ascii	"\340\307\035\256\375\021@\000\360\006\370\214\221\251"
 827      FD114000 
 827      F006F88C 
 827      91A9
 828 008f 3C00E2E0 		.ascii	"<\000\342\340<\021`-\300z\200\024\2004\200M\000\031"
 828      3C11602D 
 828      C07A8014 
 828      8034804D 
 828      0019
 829 00a1 00590039 		.ascii	"\000Y\0009\000y\000;\000v\001\220\341.\202\312\356\207"
 829      0079003B 
 829      00760190 
 829      E12E82CA 
 829      EE87
 830 00b3 F021722C 		.ascii	"\360!r,p\234\015\307\271\000\237 &\353#\000\015\320"
 830      709C0DC7 
 830      B9009F20 
 830      26EB2300 
 830      0DD0
 831 00c5 AB011EC3 		.ascii	"\253\001\036\303\371B\200\317\001\\\200f\034\216\267"
 831      F94280CF 
 831      015C8066 
 831      1C8EB7
 832 00d4 003E05F8 		.ascii	"\000>\005\370\015\300\307\234?\341GDx\011\323e\021}"
 832      0DC0C79C 
 832      3FE14744 
 832      7809D365 
 832      117D
 833 00e6 B5DC26B9 		.ascii	"\265\334&\271\254Y\002\343\375%\227\253\206\353\253"
 833      AC5902E3 
 833      FD2597AB 
 833      86EBAB
 834 00f5 E0F835C0 		.ascii	"\340\3705\300\357\270\014\201\217\237+09\377\354\300"
 834      EFB80C81 
 834      8F9F2B30 
 834      39FFECC0 
 835 0105 9BF8E187 		.ascii	"\233\370\341\207\012\274?\343\374\177\316}\350\314\246"
 835      0ABC3FE3 
 835      FC7FCE7D 
 835      E8CCA6
 836 0114 238409D7 		.ascii	"#\204\011\327\341O\000\277\005\370\021\320\344\303\321"
 836      E14F00BF 
 836      05F811D0 
 836      E4C3D1
 837 0123 1B8E5B11 		.ascii	"\033\216[\021\363\273\334\356\345\000\341\000+\270\236"
 837      F3BBDCEE 
 837      E500E100 
 837      2BB89E
 838 0132 44DFEF00 		.ascii	"D\337\357\000\376\0331\375E\277\270p\375~\002|~*\260"
 838      FE1B31FD 
 838      45BFB870 
 838      FD7E027C 
 838      7E2AB0
 839 0145 7890B840 		.ascii	"x\220\270@\230U\377\316\375\364\037\000\363\000\346"
 839      9855FFCE 
 839      FDF41F00 
ARM GAS  /tmp/ccOZhMBW.s 			page 67


 839      F300E6
 840 0154 03F839D8 		.ascii	"\003\3709\330F\342\353\246`[)\034\337\000\332w\001\336"
 840      46E2EBA6 
 840      605B291C 
 840      DF00DA77 
 840      01DE
 841 0166 0348E0F9 		.ascii	"\003H\340\371\341\312\307\374\022\256\375\012\340\327"
 841      E1CAC7FC 
 841      12AEFD0A 
 841      E0D7
 842 0174 0293FF1B 		.ascii	"\002\223\377\0338\376\326\2017\371I\231!\007\3442\210"
 842      38FED681 
 842      37F94999 
 842      2107E432 
 842      88
 843 0185 AF3E8663 		.ascii	"\257>\206c,\217\365\247<\236)\016\262H\036\306\315 "
 843      2C8FF5A7 
 843      3C9E290E 
 843      B2481EC6 
 843      CD20
 844 0197 2F8D8F53 		.ascii	"/\215\217S\222\247$CPI<\021\317-\371\017\311\371\177"
 844      92A72443 
 844      50493C11 
 844      CF2DF90F 
 844      C9F97F
 845 01aa 72127B12 		.ascii	"r\022{\022W1\376\216\261w\264\355s\036\377\205\200\177"
 845      5731FE8E 
 845      B177B4ED 
 845      731EFF85 
 845      807F
 846 01bc 02F0A920 		.ascii	"\002\360\251 \345\300gp\314\344~\022s\340c\036c1W?\344"
 846      E5C06770 
 846      CCE47E12 
 846      73E0631E 
 846      6331573F 
 847 01d1 3921E6C3 		.ascii	"9!\346\303\247\234~\223\203\177\276\000\370\032\340"
 847      A79C7E93 
 847      837FBE00 
 847      F81AE0
 848 01e0 1B41AA4D 		.ascii	"\033A\252M\321W\304\264\357\024j\207\324\364\334\377"
 848      D157C4B4 
 848      EF146A87 
 848      D4F4DCFF 
 849 01f0 858D2FB2 		.ascii	"\205\215/\262\353\357\265\307\205\353\342h\003Qw\261"
 849      EBEFB5C7 
 849      85EBE268 
 849      035177B1 
 850 0200 82DE590A 		.ascii	"\202\336Y\012z\213\275E\254}\242\367\337\2433\261w&"
 850      7A8BBD45 
 850      AC7DA2F7 
 850      DFA333B1 
 850      7726
 851 0212 BDE5FA8A 		.ascii	"\275\345\372\2126\270p]\034\365&\371\344\250s\216B>"
 851      36B8705D 
 851      1CF526F9 
 851      E4A8738E 
 851      423E
ARM GAS  /tmp/ccOZhMBW.s 			page 68


 852 0224 7D26D397 		.ascii	"}&\323\227\350\356\250\263<\227>GR?s\246\277R>\211\375"
 852      E8EEA8B3 
 852      3C973E47 
 852      523F73A6 
 852      BF523E89 
 853 0239 62263BDC 		.ascii	"b&;\334\271~/\233OJ\366M\012\250\353\331\236\337\316"
 853      B97E2F9B 
 853      4F4AF64D 
 853      0AA8EBD9 
 853      9EDFCE
 854 024c 2FB2C04F 		.ascii	"/\262\300O\262\305\"\010\322\215K\261%9xH@\263uH\015"
 854      B2C52208 
 854      D28D4BB1 
 854      25397848 
 854      40B37548 
 855 0261 68FFC5AC 		.ascii	"h\377\305\254\233\236\200\316\325\241W\001-{\\X\346"
 855      9B9E80CE 
 855      D5A15701 
 855      2D7B5C58 
 855      E6
 856 0272 C1EE5A09 		.ascii	"\301\356Z\011\365\236\336\234\015z\206\277\007\350\345"
 856      F59EDE9C 
 856      0D7A86BF 
 856      07E8E5
 857 0281 C6EB3B31 		.ascii	"\306\353;1vG\344VgMA!a\364s\035\"\3172/\270\264\377"
 857      7647E456 
 857      674D4121 
 857      61F4731D 
 857      22CF322F 
 858 0298 E1B1671E 		.ascii	"\341\261g\036\354\022\241hJ\032\330\341\212\347\222"
 858      EC12A168 
 858      4A1AD8E1 
 858      8AE792
 859 02a7 73A17AFD 		.ascii	"s\241z\375\241\203\356\310W\267\213\250\324=\265C\177"
 859      A183EEC8 
 859      57B78BA8 
 859      D43DB543 
 859      7F
 860 02b8 CC629985 		.ascii	"\314b\231\205\016 \035\332\2170\332\215\346\203v0\016"
 860      0E201DDA 
 860      8F30DA8D 
 860      E6837630 
 860      0E
 861 02c9 7E27582C 		.ascii	"~'X,\321\226\344\030\313\354\032O\025*@\336h\017\362"
 861      D196E418 
 861      CBEC1A4F 
 861      152A40DE 
 861      680FF2
 862 02dc 56A112E4 		.ascii	"V\241\022\344K\330\022B\264\017.\026\303E\020Q\260#"
 862      4BD81242 
 862      B40F2E16 
 862      C3451051 
 862      B023
 863 02ee 65BB06C7 		.ascii	"e\273\006\307!*#\263t\357\210\316&\243r\315[EDF)\310"
 863      212A23B3 
 863      74EF88CE 
 863      26A372CD 
ARM GAS  /tmp/ccOZhMBW.s 			page 69


 863      5B454446 
 864 0304 3828C900 		.ascii	"8(\311\000\221N\205\034R\026b\3318\276\325\003\337c"
 864      914E851C 
 864      521662D9 
 864      38BED503 
 864      DF63
 865 0316 42B2334E 		.ascii	"B\2623NV\272 \235\2572\2072\005\016L\235\346$\277J\242"
 865      56BA209D 
 865      AF328732 
 865      050E4C9D 
 865      E624BF4A 
 866 032b CE1150E7 		.ascii	"\316\021P\347\260\244N)U\007\204t\034Z\177Z\213\367"
 866      B0A44E29 
 866      55078474 
 866      1C5A7F5A 
 866      8BF7
 867 033d 0AD47359 		.ascii	"\012\324sY\025C\265.\314\355Z@\223;\236\035w\307\007"
 867      1543B52E 
 867      CCED5A40 
 867      933B9E1D 
 867      77C707
 868 0350 D9BDC291 		.ascii	"\331\275\302\221\330\303^\270\214!b\274\346\362x\215"
 868      D8C35EB8 
 868      8C2162BC 
 868      E6F2788D 
 869 0360 A51D3BEC 		.ascii	"\245\035;\354\216+\331\31537\233k\\\360i\206\344U\365"
 869      8E2BD9CD 
 869      33379B6B 
 869      5CF06986 
 869      E455F5
 870 0373 CCC397D9 		.ascii	"\314\303\227\331y\371\246\343\217\264\270\215!\247&"
 870      79F9A6E3 
 870      8FB4B88D 
 870      21A726
 871 0382 DB7274F8 		.ascii	"\333rt\370\036C\232\236\\\310ug\202g\001z\244\367|\265"
 871      1E439A9E 
 871      5CC87567 
 871      8267017A 
 871      A4F77CB5 
 872 0396 8EB1B720 		.ascii	"\216\261\267 \300'v6\\\325\342~F[Qv\274\232+\271\000"
 872      C0277636 
 872      5CD5E27E 
 872      465B5176 
 872      BC9A2BB9 
 873 03ab D0985BB9 		.ascii	"\320\230[\271=\236x\214\335\253N\212]\247\3031\230\272"
 873      3D9E788C 
 873      DDAB4E8A 
 873      5DA7C331 
 873      98BA
 874 03bd EC606F76 		.ascii	"\354`ov\256\233\030\027k\023\232\205\316\203\023\316"
 874      AE9B1817 
 874      6B139A85 
 874      CE8313CE 
 875 03cd 393A41D9 		.ascii	"9:A\331\2435\3121\311\036\354\274\347\306\204\373\222"
 875      A335CA31 
 875      C91EECBC 
 875      E7C684FB 
ARM GAS  /tmp/ccOZhMBW.s 			page 70


 875      92
 876 03de 3C281FDC 		.ascii	"<(\037\334\251\301IT\036\2721\365\374\317x3;O,J\254"
 876      A9C14954 
 876      1EBA31F5 
 876      FCCF7833 
 876      3B4F2C4A 
 877 03f3 F6C4790C 		.ascii	"\366\304y\014\331~\262\342\241+.a\210\230\371\263Y\346"
 877      D97EB2E2 
 877      A12B2E61 
 877      8898F9B3 
 877      59E6
 878 0405 EFB9DF35 		.ascii	"\357\271\3375\201\361Iv\257\247\343\\\211'>\305\220"
 878      81F14976 
 878      AFA7E35C 
 878      89273EC5 
 878      90
 879 0416 8A91EC0A 		.ascii	"\212\221\354\012/\\\303\220\2137\247\006t\270\201!e"
 879      2F5CC390 
 879      8B37A706 
 879      74B88121 
 879      65
 880 0427 59CFAD6A 		.ascii	"Y\317\255j\334\302\220\270\365\305\031\304W\032V\017"
 880      DCC290B8 
 880      F5C519C4 
 880      571A560F 
 881 0437 AE70E9D6 		.ascii	"\256p\351\326\223\261#jv\211\230\276\022.\345fv\034"
 881      93B1236A 
 881      768998BE 
 881      122EE566 
 881      761C
 882 0449 F0C4D798 		.ascii	"\360\304\327\230cN\216\354\257\326JE1\361a\214\305\202"
 882      634E8EEC 
 882      AFD64A45 
 882      31F1618C 
 882      C582
 883 045b 501B38A7 		.ascii	"P\0338\247Ur\216\206\373\3062\3357W\3017\032\356\233"
 883      55728E86 
 883      FBC632DD 
 883      3757C137 
 883      1AEE9B
 884 046e 16B87885 		.ascii	"\026\270x\205\371f\340\331\223R5\276\305dT\256yX\351"
 884      F966E0D9 
 884      935235BE 
 884      C56454AE 
 884      7958E9
 885 0481 262B8AF9 		.ascii	"&+\212\371\205$\013;@\3065IF\033r.\244]YH\217e<S\217"
 885      85240B3B 
 885      40C63549 
 885      461B722E 
 885      A45D5948 
 886 049a 1F322115 		.ascii	"\0372!\025k:;\325\254(\0248t)p\340E\321\3606-\212\353"
 886      6B3A3BD5 
 886      AC281438 
 886      742970E0 
 886      45D1F036 
 887 04b1 A04EA7A4 		.ascii	"\240N\247\244N\207X\024k7=\332\345\211\007\230\203\307"
 887      4E875814 
ARM GAS  /tmp/ccOZhMBW.s 			page 71


 887      6B373DDA 
 887      E5890798 
 887      83C7
 888 04c3 EF6E6C43 		.ascii	"\357nlC,`z@\243+\332R\274Xnv\323\324\035Kx\256\306S"
 888      2C607A40 
 888      A32BDA52 
 888      BC586E76 
 888      D3D41D4B 
 889 04db 8CB6755D 		.ascii	"\214\266u]s\273\006\307\253Y\376%\266e\2728\325\256"
 889      73BB06C7 
 889      AB59FE25 
 889      B665BA38 
 889      D5AE
 890 04ed D79976D6 		.ascii	"\327\231v\326\023\220\251\267A\263[\012\232U7\344\015"
 890      1390A9B7 
 890      41B35B0A 
 890      9A5537E4 
 890      0D
 891 04fe 6AF17A2A 		.ascii	"j\361z*\000\035KI\205zJc\310\365\315k+\334\361.\206"
 891      001D4B49 
 891      857A4A63 
 891      C8F5CD6B 
 891      2BDCF12E 
 892 0513 9C481A38 		.ascii	"\234H\0328\352\206\213\031\022?z\243\304\013\037Q\333"
 892      EA868B19 
 892      123F7AA3 
 892      C40B1F51 
 892      DB
 893 0524 55DA5C56 		.ascii	"U\332\\Vi\367c\254=j\\\311\356\355\217\273U\240\205"
 893      69F763AC 
 893      3D6A5CC9 
 893      EEED8FBB 
 893      55A085
 894 0537 7BDE904A 		.ascii	"{\336\220JH\326W\275Y_-\265\016\026\253q\0253\356\322"
 894      48D657BD 
 894      595F2DB5 
 894      0E16AB71 
 894      1533EED2 
 895 054b A1B6B352 		.ascii	"\241\266\263R|\247\206>\24094\000j?\221\324\366\266"
 895      7CA7863E 
 895      A0393400 
 895      6A3F91D4 
 895      F6B6
 896 055d D5D793ED 		.ascii	"\325\327\223\355\026\315+*\364\2467Z\000\266\367\203"
 896      16CD2B2A 
 896      F4A6375A 
 896      00B6F783 
 897 056d EDDEDCF6 		.ascii	"\355\336\334\366>\260\3751\357\252[\367\234\361\300"
 897      3EB0FD31 
 897      EFAA5BF7 
 897      9CF1C0
 898 057c 17988047 		.ascii	"\027\230\200G\033\037$`Y\002y\323\004z\012\002\006%"
 898      1B1F2460 
 898      590279D3 
 898      047A0A02 
 898      0625
 899 058e 0103C889 		.ascii	"\001\003\310\211\204!e\011\321i\315En\3702\223\260\261"
ARM GAS  /tmp/ccOZhMBW.s 			page 72


 899      84216509 
 899      D169CD45 
 899      6EF83293 
 899      B0B1
 900 05a0 B8B8502A 		.ascii	"\270\270P*\203\346\244\3714'FA\302\260$\341\2513\011"
 900      83E6A4F9 
 900      34274641 
 900      C2B024E1 
 900      A93309
 901 05b3 23CA1236 		.ascii	"#\312\0226e\365\276\202;\230?\327\256{\276\037\343\033"
 901      65F5BE82 
 901      3B983FD7 
 901      AE7BBE1F 
 901      E31B
 902 05c5 4CDA4865 		.ascii	"L\332He~\251\324\215J!\306\023 i\354%$\215+K\352\314"
 902      7EA9D48D 
 902      4A21C613 
 902      2069EC25 
 902      248D2B4B 
 903 05db ED1B54E3 		.ascii	"\355\033T\343\373L\324\216\323\373/\271\342'L\324d\327"
 903      FB4CD48E 
 903      D3FB2FB9 
 903      E2274CD4 
 903      64D7
 904 05ed A3324F9B 		.ascii	"\2432O\233\250# \312\"\350\320\363\227\0205\245,\352"
 904      A82320CA 
 904      22E8D0F3 
 904      971035A5 
 904      2CEA
 905 05ff 71ECED6E 		.ascii	"q\354\355n\336\236_!\335~\343\3467\3613&\370\321\316"
 905      DE9E5F21 
 905      DD7EE3E6 
 905      37F13326 
 905      F8D1CE
 906 0612 FA83A421 		.ascii	"\372\203\244!\372\352\320\337d)\343\313R&'\345F\206"
 906      FAEAD0DF 
 906      6429E3CB 
 906      522627E5 
 906      4686
 907 0624 1BB6B850 		.ascii	"\033\266\270P\2656\025\214n\027\304GX^\214\345\265\250"
 907      B536158C 
 907      6E17C447 
 907      585E8CE5 
 907      B5A8
 908 0636 0320F238 		.ascii	"\003 \3628\2109F\012\"^\360%\303\250\354X\301\033\305"
 908      8839460A 
 908      225EF025 
 908      C3A8EC58 
 908      C11BC5
 909 0649 0862B94E 		.ascii	"\010b\271N=\364\240\217\355\325`E\234`\263\302\227\327"
 909      3DF4A08F 
 909      EDD56045 
 909      9C60B3C2 
 909      97D7
 910 065b 447CEC9E 		.ascii	"D|\354\236$w\274\226\011\331\2222\\\241s.d\215S!\225"
 910      2477BC96 
 910      09D99232 
ARM GAS  /tmp/ccOZhMBW.s 			page 73


 910      5CA1732E 
 910      648D5321 
 911 0670 6BFE933E 		.ascii	"k\376\223>\267\023AH\202$\004d2)\327\367\267\237Q\343"
 911      B7134148 
 911      82240464 
 911      3229D7F7 
 911      B79F51E3 
 912 0684 8D4C4AD5 		.ascii	"\215LJ\325\221\266~\215s)\353\235\233r?(\367\262\305"
 912      91B67E8D 
 912      7329EB9D 
 912      9B723F28 
 912      F7B2C5
 913 0697 F22A5A07 		.ascii	"\362*Z\007b\326Jb\022E1\273.=L\025\364k\244g\022\245"
 913      62D64A62 
 913      124531BB 
 913      2E3D4C15 
 913      F46BA467 
 914 06ad 14BB860A 		.ascii	"\024\273\206\012m\020\364|F\025}\343H\013\302\347\251"
 914      6D10F47C 
 914      46157DE3 
 914      480BC2E7 
 914      A9
 915 06be 42E8CA68 		.ascii	"B\350\312h\345\230\036\327SD}(\272k\033\304\337\033"
 915      E5981ED7 
 915      53447D28 
 915      BA6B1BC4 
 915      DF1B
 916 06d0 C128C4B2 		.ascii	"\301(\304\262\200\314\306Th#\260J\026\260m\016m\001"
 916      80CCC654 
 916      6823B04A 
 916      16B06D0E 
 916      6D01
 917 06e2 FD9FFC8D 		.ascii	"\375\237\374\215\\\206s-=*$E\012XCn\251P\032\330\222"
 917      5C86732D 
 917      3D2A2445 
 917      0A58436E 
 917      A9501AD8 
 918 06f7 2AD094B8 		.ascii	"*\320\224\270v\356B\254F\307\251\223_D\375\240\260\267"
 918      76EE42AC 
 918      46C7A993 
 918      5F44FDA0 
 918      B0B7
 919 0709 C5D3CEAA 		.ascii	"\305\323\316\252MvV\245\333\254:u1\246\300\03573\253"
 919      4D7656A5 
 919      DBAC3A75 
 919      31A6C01D 
 919      3733AB
 920 071c 6E4C6EBB 		.ascii	"nLn\273\345\212\333\0302\272\371\374\016\017\334\305"
 920      E58ADB18 
 920      32BAF9FC 
 920      0E0FDCC5 
 921 072c 90D4A2C6 		.ascii	"\220\324\242\306V\015\276\311\220\353\373\236\037\327"
 921      560DBEC9 
 921      90EBFB9E 
 921      1FD7
 922 073a E05E866C 		.ascii	"\340^\206l\355\350/v\305\367X\234\356\244\354:\004m"
 922      EDE82F76 
ARM GAS  /tmp/ccOZhMBW.s 			page 74


 922      C5F7589C 
 922      EEA4EC3A 
 922      046D
 923 074c DB572EF9 		.ascii	"\333W.\371\217?\220\232\360\026P\366\033=\017\002+\227"
 923      8F3F909A 
 923      F01650F6 
 923      1B3D0F02 
 923      2B97
 924 075e EC735E16 		.ascii	"\354s^\026\360E\256\240G9R|\276\3213\365\272\243\253"
 924      F045AEA0 
 924      4739527C 
 924      BED133F5 
 924      BAA3AB
 925 0771 9BB57880 		.ascii	"\233\265x\200\211\352\177|y\302\003\0173\304\362\354"
 925      89EA7F7C 
 925      79C2030F 
 925      33C4F2EC 
 926 0781 C4350D1E 		.ascii	"\3045\015\036cH\373\246\321n7<\311\220\232+kO\252\261"
 926      6348FBA6 
 926      D16E373C 
 926      C9909A2B 
 926      6B4FAAB1 
 927 0795 454391DD 		.ascii	"EC\221\335u\335\026\027\034\303\220\343k\352&\264x5"
 927      75DD1617 
 927      1CC390E3 
 927      6BEA26B4 
 927      7835
 928 07a7 43B2CAE3 		.ascii	"C\262\312\343\243u8\221!\205S\203Iz\274\216!\243\307"
 928      A3753891 
 928      21855383 
 928      497ABC8E 
 928      21A3C7
 929 07ba 2F6D1758 		.ascii	"/m\027X\371\371\000\272\327\272\266\006\263\026\236"
 929      F9F900BA 
 929      D7BAB606 
 929      B3169E
 930 07c9 274C0AEE 		.ascii	"'L\012\356\353\232["
 930      EB9A5B
 931 07d0 B608C887 		.ascii	"\266\010\310\207\376\314\361\205_\333\211\265\335\375"
 931      FECCF185 
 931      5FDB89B5 
 931      DDFD
 932 07de 038BAF37 		.ascii	"\003\213\2577\335\262XR\365\324\230l0\246D\230#\331"
 932      DDB25852 
 932      F5D4986C 
 932      30A64498 
 932      23D9
 933 07f0 DE403DFF 		.ascii	"\336@=\377:\331\274\240\003\254'Z\365\226d\177J\234"
 933      3AD9BCA0 
 933      03AC275A 
 933      F596647F 
 933      4A9C
 934 0802 EF487C8C 		.ascii	"\357H|\214\022\027 \211\372\262D\235\347H\035%8\260"
 934      12172089 
 934      FAB2449D 
 934      E7481D25 
 934      38B0
ARM GAS  /tmp/ccOZhMBW.s 			page 75


 935 0814 6E9188B7 		.ascii	"n\221\210\267*\023\313Y\227K\324;\035\251\375\034\211"
 935      2A13CB59 
 935      974BD43B 
 935      1DA9FD1C 
 935      89
 936 0825 9B24E26D 		.ascii	"\233$\342m\216\304U2\255Sx\031X\220\031.Aj\356\001\271"
 936      8EC45532 
 936      AD537819 
 936      5890192E 
 936      416AEE01 
 937 083a 68371F02 		.ascii	"h7\037\002aF\007 \031\016\012>h\037@)@!\300!\200\375"
 937      61460720 
 937      190E0A3E 
 937      681F4029 
 937      4021C021 
 938 0850 004500C5 		.ascii	"\000E\000\305\000{\005\037Z:,W\006\323\365$W\200\201"
 938      007B051F 
 938      5A3A2C57 
 938      06D3F524 
 938      578081
 939 0863 8A278ACA 		.ascii	"\212'\212\312\246\327\261\326\271\231\026k,\246\232"
 939      A6D7B1D6 
 939      B999166B 
 939      2CA69A
 940 0872 ED523443 		.ascii	"\355R4C\346\240F\311\212\355\312V\310\210\217K\304;"
 940      E6A046C9 
 940      8AEDCA56 
 940      C8888F4B 
 940      C43B
 941 0884 94034589 		.ascii	"\224\003E\211!U*G\263\322\334\354\352NN\254B\207muw"
 941      21552A47 
 941      B3D2DCEC 
 941      EA4E4EAC 
 941      42876D75 
 942 0899 FDF8F611 		.ascii	"\375\370\366\021\017\\M\023\016g\026u\015\273!\037\337"
 942      0F5C4D13 
 942      0E671675 
 942      0DBB211F 
 942      DF
 943 08aa 392C93A6 		.ascii	"9,\223\246\356\177Up\235e\022\014@Y \363\230\2621\314"
 943      EE7F5570 
 943      9D65120C 
 943      405920F3 
 943      98B231CC 
 944 08be 2D87D650 		.ascii	"-\207\326P\267\034\263wK\012\237\006\261\000\210c\217"
 944      B71CB377 
 944      4B0A9F06 
 944      B1008863 
 944      8F
 945 08cf 70662400 		.ascii	"pf$\000G!\000e\334\301\244\006\242\357<\302\270\231"
 945      47210065 
 945      DCC1A406 
 945      A2EF3CC2 
 945      B899
 946 08e1 D5C083DE 		.ascii	"\325\300\203\336\302\026\001_eHNW\325u>\013?C\360#]"
 946      C216015F 
 946      65484E57 
ARM GAS  /tmp/ccOZhMBW.s 			page 76


 946      D5753E0B 
 946      3F43F023 
 947 08f6 1B13F5BC 		.ascii	"\033\023\365\274\"\310\352\362\316\360p\213\006\337"
 947      22C8EAF2 
 947      CEF0708B 
 947      06DF
 948 0904 60C487A6 		.ascii	"`\304\207\246\012Vc|\227\"\277\032\273\027\333\347\201"
 948      0A56637C 
 948      9722BF1A 
 948      BB17DBE7 
 948      81
 949 0915 7CE64095 		.ascii	"|\346@\225\350\347\360\377\344\237\257/9\300\357\271"
 949      E8E7F0FF 
 949      E49FAF2F 
 949      39C0EFB9 
 950 0925 EC8E0FD4 		.ascii	"\354\216\017\324\221^O\212\311\327\307\366\003\267}"
 950      915E4F8A 
 950      C9D7C7F6 
 950      03B77D
 951 0934 7D994B9A 		.ascii	"}\231K\232G\026\327\0160\227\220EE5<[O\311]r\326Y\346"
 951      4716D70E 
 951      30979045 
 951      45353C5B 
 951      4FC95D72 
 952 094b 5542E61D 		.ascii	"UB\346\035'\231W!\260!\304\360\0210|\030\262\353)\300"
 952      27995721 
 952      B021C4F0 
 952      11307C18 
 952      B2EB29C0 
 953 095f 10C020C0 		.ascii	"\020\300 \300\000@?\300\023\200>\200\307\000\217\000"
 953      00403FC0 
 953      13803E80 
 953      C7008F00 
 954 096f AE015C06 		.ascii	"\256\001\\\006\270\010`\0058\003p\032\240\212;\216\245"
 954      B8086005 
 954      3803701A 
 954      A08A3B8E 
 954      A5
 955 0980 486EDA8F 		.ascii	"Hn\332\217Y\366Aw;!8(\267\3271\241\246\232\274\0315"
 955      59F64177 
 955      3B213828 
 955      B7D731A1 
 955      A69ABC19 
 956 0995 59251639 		.ascii	"Y%\0269\332R8\255\366GR9\367\263\220\016G\225\351){"
 956      DA5238AD 
 956      F6475239 
 956      F7B3900E 
 956      4795E929 
 957 09aa 79E655DB 		.ascii	"y\346U\333e\336Y\226yv\2769\015wI\262\2433\300\262\232"
 957      65DE5996 
 957      7976BE39 
 957      0D7749B2 
 957      A333C0B2 
 958 09bf FB660C7C 		.ascii	"\373f\014|\363\014\354\253\0058'\267\261\373\362XDF"
 958      F30CECAB 
 958      053827B7 
 958      B1FBF258 
ARM GAS  /tmp/ccOZhMBW.s 			page 77


 958      4446
 959 09d1 8CA56601 		.ascii	"\214\245f\001\252\001-\312\371\020\305\216%W\343\274"
 959      AA012DCA 
 959      F910C58E 
 959      2557E3BC 
 960 09e1 9D1A3533 		.ascii	"\235\03253\2511\016\242_\250\206u\324h\201\246]\007"
 960      A9310EA2 
 960      5FA88675 
 960      D46881A6 
 960      5D07
 961 09f3 3A5428EB 		.ascii	":T(\3530\315\023\027\354T #Y\225('\312(H\376\177J\024"
 961      30CD1317 
 961      EC542023 
 961      59952827 
 961      CA2848FE 
 962 0a0a 32ED1D89 		.ascii	"2\355\035\2118?\020K\023\271\036\204\324\361`\332\246"
 962      383F104B 
 962      13B91E84 
 962      D4F160DA 
 962      A6
 963 0a1b 32B5CE12 		.ascii	"2\265\316\022\331F\321\014:5r\375\232\340\374\022\310"
 963      D946D10C 
 963      3A3572FD 
 963      9AE0FC12 
 963      C8
 964 0a2c 68B0F350 		.ascii	"h\260\363P\366\032\236.\304\324\223 \241\321IGg\002"
 964      F61A9E2E 
 964      C4D49320 
 964      A1D14947 
 964      6702
 965 0a3e AC0E024E 		.ascii	"\254\016\002N\360\021\316\005l\256\245\015\261\216\347"
 965      F011CE05 
 965      6CAEA50D 
 965      B18EE7
 966 0a4d C174F6B2 		.ascii	"\301t\366\262\346\224\301\232S\243}sb\263\263+\343A"
 966      E694C19A 
 966      53A37D73 
 966      62B3B32B 
 966      E341
 967 0a5f 9B53A360 		.ascii	"\233S\243`vF\\a\225\346\313\204Xr\330\373\347y\345_"
 967      76465C61 
 967      95E6CB84 
 967      5872D8FB 
 967      E779E55F 
 968 0a73 01AA0B8E 		.ascii	"\001\252\013\216\331_+\305\\\271\343\265\201\011\255"
 968      D95F2BC5 
 968      5CB9E3B5 
 968      8109AD
 969 0a82 DC9CAB70 		.ascii	"\334\234\253p\336bg\312x\274\314W\304\230Vec\224y_\344"
 969      DE6267CA 
 969      78BCCC57 
 969      C4985665 
 969      6394795F 
 970 0a97 031C7933 		.ascii	"\003\034y3\323\237\305S\323[\225M\217\210O\204I\"5\252"
 970      D39FC553 
 970      D35B954D 
 970      8F884F84 
ARM GAS  /tmp/ccOZhMBW.s 			page 78


 970      492235AA 
 971 0aab 5E32BDD5 		.ascii	"^2\275\325\316\364ok\270\351\355\302\\\324\350hz\203"
 971      CEF46F6B 
 971      B8E9EDC2 
 971      5CD4E868 
 971      7A83
 972 0abd 2C575295 		.ascii	",WR\225\364S\321qD\271\207\240\334\003\210\343}\200"
 972      F453D171 
 972      44B987A0 
 972      DC0388E3 
 972      7D80
 973 0acf 7B00B701 		.ascii	"{\000\267\001n\001\\\007\350\004\350\260sJj\023\215"
 973      6E015C07 
 973      E804E8B0 
 973      734A6A13 
 973      8D
 974 0ae0 2FE9B497 		.ascii	"/\351\264\227@(a\342\364I:\230$\353MM/\242nl\240\234"
 974      402861E2 
 974      F4493A98 
 974      24EB4D4D 
 974      2FA26E6C 
 975 0af6 BB80B6D9 		.ascii	"\273\200\266\3319\255\274x\273\355\212\267K\241\177"
 975      39ADBC78 
 975      BBED8AB7 
 975      4BA17F
 976 0b05 DC80BB3D 		.ascii	"\334\200\273=\204A7p\354\346\321\270\011\006\337\000"
 976      84413770 
 976      ECE6D1B8 
 976      0906DF00 
 977 0b15 C37AECAA 		.ascii	"\303z\354\252\257\353\371\312\364\335\253\211\006d+"
 977      AFEBF9CA 
 977      F4DDAB89 
 977      06642B
 978 0b24 E232A757 		.ascii	"\3422\247W\352\037\224\336z\315\205\364\032\222\235"
 978      EA1F94DE 
 978      7ACD85F4 
 978      1A929D
 979 0b33 959CD656 		.ascii	"\225\234\326V%\216y\336\266\015\221`wO\233\233\320@"
 979      258E79DE 
 979      B60D9160 
 979      774F9B9B 
 979      D040
 980 0b45 AE3CCE03 		.ascii	"\256<\316\003I6\032n\276\310K\233D\237\366\202\237\356"
 980      49361A6E 
 980      BEC84B9B 
 980      449FF682 
 980      9FEE
 981 0b57 BC9C9FEE 		.ascii	"\274\234\237\356\000\251\344\247^\346'g]\020\335\005"
 981      00A9E4A7 
 981      5EE62767 
 981      5D10DD05 
 982 0b67 F7488D50 		.ascii	"\367H\215PL\311O\316\305\221\224$\254\356J)YGy\211\317"
 982      4CC94FCE 
 982      C5919424 
 982      ACEE4A29 
 982      59477989 
 983 0b7c E16F2B86 		.ascii	"\341o+\206\230%\360\244\2737\243!\304)\365\374AG\314"
ARM GAS  /tmp/ccOZhMBW.s 			page 79


 983      9825F0A4 
 983      BB37A321 
 983      C429F5FC 
 983      4147CC
 984 0b8f BEFF22EA 		.ascii	"\276\377\"\352\362z\232\034\204\366\201sZ\346\356\334"
 984      F27A9A1C 
 984      84F68173 
 984      5AE6EEDC 
 985 0b9f 7AEA6EA0 		.ascii	"z\352n\240\231>\025\274R\347\235a\261Fa\272\267\360"
 985      993E15BC 
 985      52E79D61 
 985      B14661BA 
 985      B7F0
 986 0bb1 88570D5F 		.ascii	"\210W\015_.\261\232y(\237\375\326\271[J\026\323\335"
 986      2EB19A79 
 986      289FFDD6 
 986      B95B4A16 
 986      D3DD
 987 0bc3 81674AB4 		.ascii	"\201gJ\264oJ\244\007\031)Y\335O*\221\312B\230\271\226"
 987      6F4AA407 
 987      192959DD 
 987      4F2A91CA 
 987      4298B996 
 988 0bd7 87101690 		.ascii	"\207\020\026\220(\332qF0}\016>\314Z*,\314P\2222\265"
 988      28DA7146 
 988      307D0E3E 
 988      CC5A2A2C 
 988      CC509232 
 989 0bec 8CF955A9 		.ascii	"\214\371U\251\377f8\022\313\347\340|1 QoV\246\226\305"
 989      FF663812 
 989      CBE7E07C 
 989      3120516F 
 989      56A696C5 
 990 0c00 A0B99647 		.ascii	"\240\271\226G\214L\0223\035\311\247/K\032\031s2\221"
 990      8C4C1233 
 990      1DC9A72F 
 990      4B1A1973 
 990      3291
 991 0c12 2957A696 		.ascii	")W\246\2261?\361)\241\025\313\351\324L\345T\311\036"
 991      313FF129 
 991      A115CBE9 
 991      D44CE554 
 991      C91E
 992 0c24 1BA7947B 		.ascii	"\033\247\224{\347\342]\361$QIJ\237\224\026\215\247d"
 992      E7E25DF1 
 992      2451494A 
 992      9F94168D 
 992      A764
 993 0c36 BDF3CAD8 		.ascii	"\275\363\312\330W\031\273-rq\3253\211\033\364'\322\252"
 993      5719BB2D 
 993      7271D533 
 993      891BF427 
 993      D2AA
 994 0c48 15A459DB 		.ascii	"\025\244Y\333n\323L#\363\230SRQTSY\304\251d\332\337"
 994      6ED34C23 
 994      F3985352 
 994      51545359 
ARM GAS  /tmp/ccOZhMBW.s 			page 80


 994      C4A964DA 
 995 0c5d 3C5EAF6E 		.ascii	"<^\257nGm\210\274\250\231E\307\"\304~#\012*\006\024"
 995      476D88BC 
 995      A89945C7 
 995      22C47E23 
 995      0A2A0614 
 996 0c71 851341C5 		.ascii	"\205\023A\305\337X\211\227\220H\310qA<U\331\230\321"
 996      DF588997 
 996      9048C871 
 996      413C55D9 
 996      98D1
 997 0c83 FF7C3CFD 		.ascii	"\377|<\375\252\200\376P&\022w\304\0071\234\017V!\216"
 997      AA80FE50 
 997      261277C4 
 997      07319C0F 
 997      56218E
 998 0c96 0B9200C4 		.ascii	"\013\222\000\304Pq\200\214\037S\227\263\223t\266\331"
 998      5071808C 
 998      1F5397B3 
 998      9374B6D9 
 999 0ca6 C4CEC90A 		.ascii	"\304\316\311\012&.;\000\217\270\3229\177Q]v\261+y\205"
 999      262E3B00 
 999      8FB8D239 
 999      7F515D76 
 999      B12B7985 
 1000 0cba 46E7864B 		.ascii	"F\347\206K\324t\013\375l\363fW\274NK\267Hn\355+m\301"
 1000      D4740BFD 
 1000      6CF36657 
 1000      BC4E4BB7 
 1000      486EED2B 
 1001 0cd0 C88D6D91 		.ascii	"\310\215m\221\370\306\323m\214\350\274W\377j\333\306"
 1001      F8C6D36D 
 1001      8CE8BC57 
 1001      FF6ADBC6 
 1002 0ce0 88C1BEC8 		.ascii	"\210\301\276\310\202\335\200C\024\366F\321\330\233\356"
 1002      82DD8043 
 1002      14F646D1 
 1002      D89BEE
 1003 0cef 90902B74 		.ascii	"\220\220+t\327d\026=\225m\255\000\212\246\244\255\025"
 1003      D764163D 
 1003      956DAD00 
 1003      8AA6A4AD 
 1003      15
 1004 0d00 A24FD9AD 		.ascii	"\242O\331\255T\267W\322\371s\360U5%\221:b,~\005~?\027"
 1004      54B757D2 
 1004      F973F055 
 1004      3525913A 
 1004      622C7E05 
 1005 0d17 D48C3ABF 		.ascii	"\324\214:\277n\333\200\372\265<\213\265\004re\373\327"
 1005      6EDB80FA 
 1005      B53C8BB5 
 1005      047265FB 
 1005      D7
 1006 0d28 7545AB13 		.ascii	"uE\253\023\222\243,\226\305\224\020MJI5I\205\240\011"
 1006      92A32C96 
 1006      C594104D 
 1006      4A493549 
ARM GAS  /tmp/ccOZhMBW.s 			page 81


 1006      85A009
 1007 0d3b A11DFC10 		.ascii	"\241\035\374\020\207_\203\261O\016\236\337\341\211\367"
 1007      875F83B1 
 1007      4F0E9EDF 
 1007      E189F7
 1008 0d4a 699D9A7E 		.ascii	"i\235\232~-'\277\314N\025\331\036\210\012%PM\3421\327"
 1008      2D27BFCC 
 1008      4E15D91E 
 1008      880A2550 
 1008      4DE231D7 
 1009 0d5e E4E885A2 		.ascii	"\344\350\205\242\026/\320$\257\304b\335r\016\252\011"
 1009      162FD024 
 1009      AFC462DD 
 1009      720EAA09 
 1010 0d6e D4789F10 		.ascii	"\324x\237\020!XF\331\266\305\260L\213D\252\305\351\224"
 1010      215846D9 
 1010      B6C5B04C 
 1010      8B44AAC5 
 1010      E994
 1011 0d80 FE3A353E 		.ascii	"\376:5>\301\264(8\225p\306\003\230t\003\223#\265r&k"
 1011      C1B42838 
 1011      9570C603 
 1011      98740393 
 1011      23B57226 
 1012 0d95 24266BE4 		.ascii	"$&k\344L\326R&\361\327Ks\264\370<cr\326RY'j2l\247\311"
 1012      4CD65226 
 1012      F1D74B73 
 1012      B4F83C63 
 1012      72D65259 
 1013 0daf 3A89C93A 		.ascii	":\211\311:9\223\365\224I\345\211\255=Z\334\354\334\037"
 1013      3993F594 
 1013      49E589AD 
 1013      3D5ADCEC 
 1013      DC1F
 1014 0dc1 2F084D32 		.ascii	"/\010M2uH\222\350\220\350\242\274\263:\256\306\363\006"
 1014      754892E8 
 1014      90E8A2BC 
 1014      B33AAEC6 
 1014      F306
 1015 0dd3 510D2042 		.ascii	"Q\015 B\033$56\310\325H\241jL\334\251\037r\307\335L"
 1015      1B243536 
 1015      C8D548A1 
 1015      6A4CDCA9 
 1015      1F72C7DD 
 1016 0de8 8DC9EE8A 		.ascii	"\215\311\356\212\002-w\310P\023e\222\307\230\244JLR"
 1016      022D77C8 
 1016      50136592 
 1016      C798A44A 
 1016      4C52
 1017 0dfa E54CD228 		.ascii	"\345L\322(\223=\273:n\270\343\307\214\311D\323Q\253"
 1017      933DBB3A 
 1017      6EB8E3C7 
 1017      8CC944D3 
 1017      51AB
 1018 0e0c 27D724BD 		.ascii	"'\327$\275E\356\220\215\022\223\215r&\233(\223\307\327"
 1018      45EE908D 
 1018      12938D72 
ARM GAS  /tmp/ccOZhMBW.s 			page 82


 1018      269B2893 
 1018      C7D7
 1019 0e1e 126EBBE0 		.ascii	"\022n\273\3401\306\344\314\361MM\242W\207\256\311\231"
 1019      31C6E4CC 
 1019      F14D4DA2 
 1019      5787AEC9 
 1019      99
 1020 0e2f A44B4CD2 		.ascii	"\244KL\322\345L2(\223\270\207S\011j\034\357\306\314"
 1020      E54C3228 
 1020      93B88753 
 1020      096A1CEF 
 1020      C6CC
 1021 0e41 399F9D25 		.ascii	"9\237\235%8\315\250L\352\300%\334\177\325U\317\262\365"
 1021      38CDA84C 
 1021      EAC025DC 
 1021      7FD555CF 
 1021      B2F5
 1022 0e53 62427589 		.ascii	"bBu\211\002\201\006m\226\004n\226\013\314\242\002\017"
 1022      0281066D 
 1022      96046E96 
 1022      0BCCA202 
 1022      0F
 1023 0e64 9D2F3BE2 		.ascii	"\235/;\342\2023\230\300\362\266\203\235\256\234\311"
 1023      823398C0 
 1023      F2B6839D 
 1023      AE9CC9
 1024 0e73 D125E491 		.ascii	"\321%\344\221`!\035\227p\311\226\270d\313\271\344P."
 1024      60211D97 
 1024      70C996B8 
 1024      64CBB9E4 
 1024      502E
 1025 0e85 971E551E 		.ascii	"\227\036U\036w\307\273\030\227\2725G\357 \232\014\344"
 1025      77C7BB18 
 1025      97BA3547 
 1025      EF209A0C 
 1025      E4
 1026 0e96 99C992A1 		.ascii	"\231\311\222\241wK|\267\207SS\266RS\266\210\271\320"
 1026      774B7CB7 
 1026      875353B6 
 1026      5253B688 
 1026      B9D0
 1027 0ea8 5D9EB4DA 		.ascii	"]\236\264\332\235\204\221M\207\307JnY\022fS*\224+\251"
 1027      9D84914D 
 1027      87C74A6E 
 1027      59126653 
 1027      2A942BA9 
 1028 0ebc 918B5923 		.ascii	"\221\213Y#@yL\005Xac\\\312T\210\317\272S\254\246*\324"
 1028      40794C05 
 1028      5861635C 
 1028      CA5488CF 
 1028      BA53ACA6 
 1029 0ed2 D9F2F142 		.ascii	"\331\362\361B\371\363\263v\371Xg7y\312\247:l\027u(O"
 1029      F9F3B376 
 1029      F9586737 
 1029      79CAA73A 
 1029      6C177528 
 1030 0ee7 E9E9F164 		.ascii	"\351\351\361d:X\233\257{fZ\252\324\204\004m\223\024"
ARM GAS  /tmp/ccOZhMBW.s 			page 83


 1030      3A589BAF 
 1030      7B665AAA 
 1030      D484046D 
 1030      9314
 1031 0ef9 D8262AB0 		.ascii	"\330&*\260\203*\260c\343\304\227\330\312\344\017o\270"
 1031      832AB063 
 1031      E3C497D8 
 1031      CAE40F6F 
 1031      B8
 1032 0f0a BDD9858F 		.ascii	"\275\331\205\217\356\334\242\247\243\211\027wJ\243w"
 1032      EEDCA2A7 
 1032      A3891777 
 1032      4AA377
 1033 0f19 8AA377D1 		.ascii	"\212\243w\321\321\255C#U:|\211\015O\350\211o\326\261"
 1033      D1AD4323 
 1033      553A7C89 
 1033      0D4FE889 
 1033      6FD6B1
 1034 0f2c AD9751BA 		.ascii	"\255\227Q\272I\223?>\342\302\337\004\223w\217S\367\332"
 1034      49933F3E 
 1034      E2C2DF04 
 1034      93778F53 
 1034      F7DA
 1035 0f3e F2F9D6CC 		.ascii	"\362\371\326\314\023r?\275\367\342\200\033\276\314\006"
 1035      13723FBD 
 1035      F7E2801B 
 1035      BECC06
 1036 0f4d F7F5C4EC 		.ascii	"\367\365\304\354\360\302]\014\311\253K\250w\3037\031"
 1036      F0C25D0C 
 1036      C9AB4BA8 
 1036      77C33719 
 1037 0f5d 52921C15 		.ascii	"R\222\034\025\205\361 C\242-\017\222\\\310\256U\314"
 1037      85F12043 
 1037      A22D0F92 
 1037      5CC8AE55 
 1037      CC
 1038 0f6e 0B768B71 		.ascii	"\013v\213q_\343\016\035\232\343\353\243\274\032*\006"
 1038      5FE30E1D 
 1038      9AE3EBA3 
 1038      BC1A2A06 
 1039 0f7e 934A30DF 		.ascii	"\223J0\337\334\203~~\020\313WC\215?\204\374\201\333"
 1039      DC837E7E 
 1039      10CB5743 
 1039      8D3F84FC 
 1039      81DB
 1040 0f90 F6F3B5D8 		.ascii	"\366\363\265\330\030\213\265?\343_\331\234c?\326\243"
 1040      188BB53F 
 1040      E35FD99C 
 1040      633FD6A3 
 1041 0fa0 7D9C89C2 		.ascii	"}\234\211\302\314\217\274\216L|\272_\215'\251\336\302"
 1041      CC8FBC8E 
 1041      4C7CBA5F 
 1041      8D27A9DE 
 1041      C2
 1042 0fb1 B981B109 		.ascii	"\271\201\261\011-\362\235#\316\012\336\317I&\213\311"
 1042      2DF29D23 
 1042      CE0ADECF 
ARM GAS  /tmp/ccOZhMBW.s 			page 84


 1042      49268BC9 
 1043 0fc1 C330FA90 		.ascii	"\3030\372\220\344]\"\322\331\372\255\024\264T\322\030"
 1043      E45D22D2 
 1043      D9FAAD14 
 1043      B454D218 
 1044 0fd1 243DDB7C 		.ascii	"$=\333|/\321\003\257c\357U\356\326\014\337\326\3424"
 1044      2FD103AF 
 1044      63EF55EE 
 1044      D60CDFD6 
 1044      E234
 1045 0fe3 860C9FCF 		.ascii	"\206\014\237\317(\364\300\231\024\021v\244\366Y\245"
 1045      28F4C099 
 1045      141176A4 
 1045      F659A5
 1046 0ff2 0F1EB61E 		.ascii	"\017\036\266\036Z\270\225\276n(\307:tT"
 1046      5AB895BE 
 1046      6E28C73A 
 1046      7454
 1047 1000 D261A637 		.ascii	"\322a\2467\337\307\260\342\233\357\236\242\252D\015"
 1047      DFC7B0E2 
 1047      9BEF9EA2 
 1047      AA440D
 1048 100f AE6122F7 		.ascii	"\256a\"\367\025\215\227\350h\022\177#\346\360\325\270"
 1048      158D97E8 
 1048      68127F23 
 1048      E6F0D5B8 
 1049 101f CB5B9C77 		.ascii	"\313[\234w\204J\232\302\307\305\024\266l\265$\331\277"
 1049      844A9AC2 
 1049      C7C514B6 
 1049      6CB524D9 
 1049      BF
 1050 1030 E5000219 		.ascii	"\345\000\002\031\371\011,.\005H\013,\333X\350\216/2"
 1050      F9092C2E 
 1050      05480B2C 
 1050      DB58E88E 
 1050      2F32
 1051 1042 FB3654E4 		.ascii	"\3736T\344\235rC\276z\333\022!\253\221\330w\012\006"
 1051      9D7243BE 
 1051      7ADB1221 
 1051      AB91D877 
 1051      0A06
 1052 1054 9C94EC83 		.ascii	"\234\224\354\203\361\016\253\0159\177d\005\023\355D"
 1052      F10EAB0D 
 1052      397F6405 
 1052      13ED44
 1053 1063 584BCB0F 		.ascii	"XK\313\017\351q\0133\256\177\"\267\214\247\360\\\322"
 1053      E9710B33 
 1053      AE7F22B7 
 1053      8CA7F05C 
 1053      D2
 1054 1074 EABA9293 		.ascii	"\352\272\222\223]\371\346\"y+Z\2347\010\365}\207\321"
 1054      5DF9E622 
 1054      792B5A9C 
 1054      3708F57D 
 1054      87D1
 1055 1086 5AC78FB6 		.ascii	"Z\307\217\266\353\361\003\212\350\216\266\355\014 \331"
 1055      EBF1038A 
ARM GAS  /tmp/ccOZhMBW.s 			page 85


 1055      E88EB6ED 
 1055      0C20D9
 1056 1095 E8A3273B 		.ascii	"\350\243';\212>v\213\30230\2138\215\311\014\027\264"
 1056      8A3E768B 
 1056      C233308B 
 1056      388DC90C 
 1056      17B4
 1057 10a7 3CC743DC 		.ascii	"<\307C\334\000z\234\307>\250\036\240\026\240\021\340"
 1057      007A9CC7 
 1057      3EA81EA0 
 1057      16A011E0 
 1058 10b7 825D9276 		.ascii	"\202]\222vV\373\220\311\336E\030P-\231w\016\317QI+\240"
 1058      56FB90C9 
 1058      DE451850 
 1058      2D99770E 
 1058      CF51492B 
 1059 10cc AF1AF80A 		.ascii	"\257\032\370\012\250\016\263-\203s\312\351\312&\310"
 1059      A80EB32D 
 1059      8373CAE9 
 1059      CA26C8
 1060 10db CF9AF984 		.ascii	"\317\232\371\204\232\244D\031v\240v\262cu\021\333\355"
 1060      9AA44419 
 1060      76A076B2 
 1060      637511DB 
 1060      ED
 1061 10ec 5851EF8A 		.ascii	"XQ\357\212{\207\262\235\306\263\216\354d\323yeo\324"
 1061      7B87B29D 
 1061      C6B38EEC 
 1061      64D37965 
 1061      6FD4
 1062 10fe 80075EC6 		.ascii	"\200\007^\306\033|Q\322\314V\016\230m#M\267\223\255"
 1062      1B7C51D2 
 1062      CC560E98 
 1062      6D234DB7 
 1062      93AD
 1063 1110 04F8143A 		.ascii	"\004\370\024:\215\316\330\3179V8\335e\021\235@\362\246"
 1063      8DCED8CF 
 1063      395638DD 
 1063      65119D40 
 1063      F2A6
 1064 1122 42D9098C 		.ascii	"B\331\011\214\027\304x\347\251a\253\016\217\263\200"
 1064      17C478E7 
 1064      A961AB0E 
 1064      8FB380
 1065 1131 4F1C2C9E 		.ascii	"O\034,\236\320\340T\366-R\322\341\366\011/\234M\021"
 1065      D0E054F6 
 1065      2D52D2E1 
 1065      F6092F9C 
 1065      4D11
 1066 1143 616AB8F7 		.ascii	"aj\270\367\260\316\351\027:W\024\252J\254\321`\366J"
 1066      B0CEE917 
 1066      3A5714AA 
 1066      4AACD160 
 1066      F64A
 1067 1155 F03204A4 		.ascii	"\3602\004\244\331\261F'\005MS\364\305t7D\267\242\347"
 1067      D9B14627 
 1067      054D53F4 
ARM GAS  /tmp/ccOZhMBW.s 			page 86


 1067      C5743744 
 1067      B7A2E7
 1068 1168 88318F68 		.ascii	"\2101\217h\343\353w1\212\355N\242\310\354=\234.\356"
 1068      E3EB7731 
 1068      8AED4EA2 
 1068      C8EC3D9C 
 1068      2EEE
 1069 117a 2AF11469 		.ascii	"*\361\024i\237)E\216\266\330\271y:\255\334\315\207\330"
 1069      9F29458E 
 1069      B6D8B979 
 1069      3AADDCCD 
 1069      87D8
 1070 118c 3B907625 		.ascii	";\220v%7w\266p7\023\323\232\224\265T\330Z\264m\300^"
 1070      3777B670 
 1070      3713D39A 
 1070      94B554D8 
 1070      5AB46DC0 
 1071 11a1 E2434876 		.ascii	"\342CHv\264\201\003[!#\256\002\264\000\\\223ZcZ\355"
 1071      B481035B 
 1071      2123AE02 
 1071      B4005C93 
 1071      5A635AED 
 1072 11b5 C1FBAE78 		.ascii	"\301\373\256x'\013\203%;\371\234\207\254\011\177\233"
 1072      270B8325 
 1072      3BF99C87 
 1072      AC097F9B 
 1073 11c5 5D429AF0 		.ascii	"]B\232\360u`\323!9\267]\326\204\035\245v\202\244\227"
 1073      7560D321 
 1073      39B75DD6 
 1073      841DA576 
 1073      82A497
 1074 11d8 907AB4F2 		.ascii	"\220z\264\362\321\033\254Kx\223\207rg\277\225\177W\321"
 1074      D11BAC4B 
 1074      78938772 
 1074      67BF957F 
 1074      57D1
 1075 11ea 4DBA4449 		.ascii	"M\272DI\375\206\034\017\\\301\362\2448%*M\300\247\030"
 1075      FD861C0F 
 1075      5CC1F2A4 
 1075      38252A4D 
 1075      C0A718
 1076 11fd D2163F54 		.ascii	"\322\026?T\353\202\033(\242\335\235{\366\"\215-}s'F"
 1076      EB821B28 
 1076      A2DD9D7B 
 1076      F6228D2D 
 1076      7D732746 
 1077 1211 F7934EB1 		.ascii	"\367\223N\261\242a\036p\023\264\276\213\235.\277!\004"
 1077      A2611E70 
 1077      13B4BE8B 
 1077      9D2EBF21 
 1077      04
 1078 1222 532DDE51 		.ascii	"S-\336Q\324\315\342\322\222\220+,-\031\365F\366\366"
 1078      D4CDE2D2 
 1078      92902B2C 
 1078      2D19F546 
 1078      F6F6
 1079 1234 485C4FDF 		.ascii	"H\\O\337u\026\022\026\302\344V\273\365\264\002\365\364"
ARM GAS  /tmp/ccOZhMBW.s 			page 87


 1079      75161216 
 1079      C2E456BB 
 1079      F5B402F5 
 1079      F4
 1080 1245 EAEE86EA 		.ascii	"\352\356\206\352\356\"\325}\203\253N<y\017<y\033<x\007"
 1080      EE22D57D 
 1080      83AB4E3C 
 1080      790F3C79 
 1080      1B3C7807 
 1081 1259 A017E001 		.ascii	"\240\027\340\001\300}\200[v\375n\222e\323]\245l\312"
 1081      C07D805B 
 1081      76FD6E92 
 1081      65D35DA5 
 1081      6CCA
 1082 126b CD906D8D 		.ascii	"\315\220m\215f8*3}\237!\253\325n\237A\201Z|\212\337"
 1082      66382A33 
 1082      7D9F21AB 
 1082      D56E9F41 
 1082      815A7C8A 
 1083 1280 EA4BBFA7 		.ascii	"\352K\277\247\306\255,\201\316\336\251\177G\226?\213"
 1083      C6AD2C81 
 1083      CEDEA97F 
 1083      47963F8B 
 1084 1290 33274871 		.ascii	"3'Hq>\206\321\017\245\374\271;=\177lV?\002K_\326j\020"
 1084      3E86D10F 
 1084      A5FCB93B 
 1084      3D7F6C56 
 1084      3F024B5F 
 1085 12a7 DE38940F 		.ascii	"\3368\224\017\017\326[,9\252\362\312\177\214\037\263"
 1085      0FD65B2C 
 1085      39AAF2CA 
 1085      7F8C1FB3 
 1086 12b7 F3A1B46B 		.ascii	"\363\241\264k]\236\270\237!\367\212\233\2417\2142\025"
 1086      5D9EB89F 
 1086      21F78A9B 
 1086      A1378C32 
 1086      15
 1087 12c8 536BFADE 		.ascii	"Sk\372\336t\332i\206\234v\232\346\206\237\323O\\\006"
 1087      74DA6986 
 1087      9C769AE6 
 1087      869FD34F 
 1087      5C06
 1088 12da A11A07A6 		.ascii	"\241\032\007\2467\032\334\020[z\023!xt)NNT\350)7j\004"
 1088      371ADC10 
 1088      5B7A1321 
 1088      7874294E 
 1088      4E54E829 
 1089 12f1 240CCB1B 		.ascii	"$\014\313\033sw\312\015\377\014\266\217Ix\367\003\357"
 1089      7377CA0D 
 1089      FF0CB68F 
 1089      4978F703 
 1089      EF
 1090 1302 A7CA0D86 		.ascii	"\247\312\015\206E\271\337H\202\374\324>\310\344\311"
 1090      45B9DF48 
 1090      82FCD43E 
 1090      C8E4C9
 1091 1311 9B7FF78A 		.ascii	"\233\177\367\212\006o\325\263\317\247\032G\012\260\030"
ARM GAS  /tmp/ccOZhMBW.s 			page 88


 1091      066FD5B3 
 1091      CFA71A47 
 1091      0AB018
 1092 1320 08EBB807 		.ascii	"\010\353\270\007\314\326\306\200\351\250\244\370\323"
 1092      CCD6C680 
 1092      E9A8A4F8 
 1092      D3
 1093 132d 196652CF 		.ascii	"\031fR\317@G%}'\005\327\213\007\242bX\315\261\206J\247"
 1093      4047257D 
 1093      2705D78B 
 1093      07A26258 
 1093      CDB1864A 
 1094 1342 F28BEFF3 		.ascii	"\362\213\357\363\267 $\320= #J=G\012\251c\015e\265\323"
 1094      B72024D0 
 1094      3D20234A 
 1094      3D470AA9 
 1094      630D65B5 
 1095 1357 D422FA3C 		.ascii	"\324\"\372<\341\264\322\3335l\227\210@\235\374'BL6\207"
 1095      E1B4D2DB 
 1095      356C9788 
 1095      409DFC27 
 1095      424C3687 
 1096 136b 0A39B1ED 		.ascii	"\0129\261\355\345\316Y\307-\251'\337\321\335``|\204"
 1096      E5CE59C7 
 1096      2DA927DF 
 1096      D1DD6060 
 1096      7C84
 1097 137d D3DAFA92 		.ascii	"\323\332\372\222|\223\2169\345R\026\255\026\240\232"
 1097      7C938E39 
 1097      E55216AD 
 1097      16A09A
 1098 138c B6C76B7D 		.ascii	"\266\307k}v\215\367^2\375,rT\322\351k\235\0020y\017"
 1098      768DF75E 
 1098      32FD2C72 
 1098      54D2E96B 
 1098      9D023079 
 1099 13a1 31B98F0F 		.ascii	"1\271\217\017!\016\234\002\007\216C\326>\007\260\250"
 1099      210E9C02 
 1099      078E43D6 
 1099      3E07B0A8 
 1100 13b1 7DD0241C 		.ascii	"}\320$\034'\244\014\256\214\213\035\366\300%,l\235\007"
 1100      27A40CAE 
 1100      8C8B1DF6 
 1100      C0252C6C 
 1100      9D07
 1101 13c3 6EE4CBFB 		.ascii	"n\344\313\373oP\316\020\251\237X`\025\255\266\205\216"
 1101      6F50CE10 
 1101      A99F5860 
 1101      15ADB685 
 1101      8E
 1102 13d4 A8EC4C72 		.ascii	"\250\354Lr\214\332\367e%\257\355\273\235\350\376\263"
 1102      8CDAF765 
 1102      25AFEDBB 
 1102      9DE8FEB3 
 1103 13e4 7CBE1C5B 		.ascii	"|\276\034[9z5\026\226cT\326n\226&6\256*r\005~\307\251"
 1103      397A3516 
 1103      966354D6 
ARM GAS  /tmp/ccOZhMBW.s 			page 89


 1103      6E962636 
 1103      AE2A7205 
 1104 13fb 7F06E3D6 		.ascii	"\177\006\343\326\035\2549`\377=J\254Z>\303Y\255\246"
 1104      1DAC3960 
 1104      FF3D4AAC 
 1104      5A3EC359 
 1104      ADA6
 1105 140d 331C7224 		.ascii	"3\034r$\013\240KU\215z|\\\317V\276\035Q\317\371\307"
 1105      0BA04B55 
 1105      8D7A7C5C 
 1105      CF56BE1D 
 1105      51CFF9C7 
 1106 1421 189EB2F5 		.ascii	"\030\236\262\365\316\\\276\336\331vq0]\207k\031m\376"
 1106      CE5CBEDE 
 1106      D9767130 
 1106      5D876B19 
 1106      6DFE
 1107 1433 FD63A7F9 		.ascii	"\375c\247\371\247\252\036\200&\326]\030\327\352d\237"
 1107      A7AA1E80 
 1107      26D65D18 
 1107      D7EA649F 
 1108 1443 03921B92 		.ascii	"\003\222\033\222\320uj\362\325\214\2377Z\253\2463\356"
 1108      D0756AF2 
 1108      D58C9F37 
 1108      5AABA633 
 1108      EE
 1109 1454 3BD989B5 		.ascii	";\331\211\265\352\331\311\334G\357#\372\371N\242\332"
 1109      EAD9C9DC 
 1109      47EF23FA 
 1109      F94EA2DA 
 1110 1464 1B25A809 		.ascii	"\033%\250\011\371z\365lq\020\241\216\275\324V\200\345"
 1110      F97AF56C 
 1110      7110A18E 
 1110      BDD45680 
 1110      E5
 1111 1475 D49B66A2 		.ascii	"\324\233f\242n(\034\256T\203\343\032\363\310vSp\335"
 1111      6E281CAE 
 1111      5483E31A 
 1111      F3C87653 
 1111      70DD
 1112 1487 2E4B4209 		.ascii	".KB\011d\322\006\365l\264\006\242\224\206_\223\215\215"
 1112      64D206F5 
 1112      6CB406A2 
 1112      94865F93 
 1112      8D8D
 1113 1499 872B7F10 		.ascii	"\207+\177\020T(\211\372\356\332\375\233#\366s\367z\273"
 1113      542889FA 
 1113      EEDAFD9B 
 1113      23F673F7 
 1113      7ABB
 1114 14ab 5722C9DC 		.ascii	"W\"\311\334w\311\324w\033\357\335\317\301\270\231\371"
 1114      77C9D477 
 1114      1BEFDDCF 
 1114      C1B899F9 
 1115 14bb 637F6B56 		.ascii	"c\177kV\032[~\303M\276n\210>\330\227\342|\371\235\246"
 1115      1A5B7EC3 
 1115      4DBE6E88 
ARM GAS  /tmp/ccOZhMBW.s 			page 90


 1115      3ED897E2 
 1115      7CF99DA6 
 1116 14cf 26EB8654 		.ascii	"&\353\206T5_7d\336\271\277\305\225\357\222\301crmL\335"
 1116      355F3764 
 1116      DEB9BFC5 
 1116      95EF92C1 
 1116      63726D4C 
 1117 14e4 3A4B5EB4 		.ascii	":K^\264\345\375O\010!J\221\362\013NU\266\215\200\215"
 1117      E5FD4F08 
 1117      214A91F2 
 1117      0B4E55B6 
 1117      8D808D
 1118 14f7 6AB28CED 		.ascii	"j\262\214\355\333f-\322\342\353L\223}\003C\3734,2\344"
 1118      DB662DD2 
 1118      E2EB4C93 
 1118      7D0343FB 
 1118      342C32E4 
 1119 150b 0BF2DE9A 		.ascii	"\013\362\336\232\376\011w\347\221\311\020#\223\316\""
 1119      FE0977E7 
 1119      91C91023 
 1119      93CE22
 1120 151a 9377FFDA 		.ascii	"\223w\377\332\376i\221\021\353T\2056S_g\210\276\356"
 1120      FE699111 
 1120      EB548536 
 1120      535F6788 
 1120      BEEE
 1121 152c BE3DBCD7 		.ascii	"\276=\274\327\30312N\251\343+\372nb[d\026\346\362\310"
 1121      C331324E 
 1121      A9E32BFA 
 1121      6E625B64 
 1121      16E6F2C8 
 1122 1540 64F2C824 		.ascii	"d\362\310$Bd\244\261\233xd\262hd\036\017\324\327\250"
 1122      4264A4B1 
 1122      9B7864B2 
 1122      68641E0F 
 1122      D4D7A8
 1123 1553 ED22936F 		.ascii	"\355\"\223o\267\252\312\346\221\311\246\2219\332\271"
 1123      B7AACAE6 
 1123      91C9A691 
 1123      39DAB9
 1124 1562 3AD13E8E 		.ascii	":\321>\216[\355\250s8u\016\245.\311=\271U\217\0372\357"
 1124      5BEDA873 
 1124      38750EA5 
 1124      2EC93DB9 
 1124      558F1F32 
 1125 1577 D5A43DED 		.ascii	"\325\244=\355\321\332\302\360\376\226\374z1\014D`\256"
 1125      D1DAC2F0 
 1125      FE96FC7A 
 1125      310C4460 
 1125      AE
 1126 1588 14865C79 		.ascii	"\024\206\\y\030\266\3200\354\276P\275C\203\307\234'"
 1126      18B6D030 
 1126      ECBE50BD 
 1126      4383C79C 
 1126      27
 1127 1599 C4F6A83D 		.ascii	"\304\366\250=\215Z\333\006I\236\232^\254~P\365\232\323"
 1127      8D5ADB06 
ARM GAS  /tmp/ccOZhMBW.s 			page 91


 1127      499E9A5E 
 1127      AC7E50F5 
 1127      9AD3
 1128 15ab 24D94E93 		.ascii	"$\331N\223d\233\230$\305\205\035\265^L;\353\341\336"
 1128      649B9824 
 1128      C5851DB5 
 1128      5E4C3BEB 
 1128      E1DE
 1129 15bd C5A93196 		.ascii	"\305\2511\226\032\030\346C\310\320VI\267\255r\335\362"
 1129      1A18E643 
 1129      C8D05649 
 1129      B7AD72DD 
 1129      F2
 1130 15ce A96E7B33 		.ascii	"\251n{3og\"\274\316\203}\313\333\026{\214\177\367\353"
 1130      6F6722BC 
 1130      CE837DCB 
 1130      DB167B8C 
 1130      7FF7EB
 1131 15e1 0E6859CF 		.ascii	"\016hY\317\246\223\274\320\257\322>\360\244q\222\377"
 1131      A693BCD0 
 1131      AFD23EF0 
 1131      A47192FF 
 1132 15f1 89828E54 		.ascii	"\211\202\216TE\341\324\021\215\363\014\332#f\320n\226"
 1132      45E1D411 
 1132      8DF30CDA 
 1132      2366D06E 
 1132      96
 1133 1602 412D0F33 		.ascii	"A-\0173\342\221c\006\355\202\212\333I+\256\200\346\304"
 1133      E2916306 
 1133      ED828ADB 
 1133      492BAE80 
 1133      E6C4
 1134 1614 1E312746 		.ascii	"\0361'F\012v\366{:f\220S\352\336\364\244'\032[\006\255"
 1134      0A76F67B 
 1134      3A669053 
 1134      EADEF4A4 
 1134      271A5B06 
 1135 1629 2AE019B4 		.ascii	"*\340\031\264\227g\320Z\310 i\354\016\236A\2054\203"
 1135      9767D05A 
 1135      C82069EC 
 1135      0E9E4185 
 1135      3483
 1136 163b 3232E3F6 		.ascii	"22\343\366\340\237nc\202\326\300\345?\376\200\356\314"
 1136      E09F6E63 
 1136      82D6C0E5 
 1136      3FFE80EE 
 1136      CC
 1137 164c D27E8B8A 		.ascii	"\322~\213\212\324?%\233I5\353\323=\235\322\024S\232"
 1137      D43F259B 
 1137      4935EBD3 
 1137      3D9DD214 
 1137      539A
 1138 165e BEFEBB03 		.ascii	"\276\376\273\003z\2474\373(Mj\337\300]\265S\232\375"
 1138      7AA734FB 
 1138      284D6ADF 
 1138      C05DB553 
 1138      9AFD
ARM GAS  /tmp/ccOZhMBW.s 			page 92


 1139 1670 94E6706E 		.ascii	"\224\346pn\313\226\031\352\262D\364\352\002\352\324"
 1139      CB9619EA 
 1139      B244F4EA 
 1139      02EAD4
 1140 167f B3532356 		.ascii	"\263S#V/\026\022\201\354H\214t\215\210ug\025}\374\020"
 1140      2F161281 
 1140      EC488C74 
 1140      8D887567 
 1140      157DFC10 
 1141 1693 061FA096 		.ascii	"\006\037\240\226\037\244^\243,(B\346\201\343\305\345"
 1141      1FA45EA3 
 1141      2C2842E6 
 1141      81E3C5E5 
 1142 16a3 FCDB7C0D 		.ascii	"\374\333|\015\261\342\346\310\215\031\372u\251(\375"
 1142      B1E2E6C8 
 1142      8D19FA75 
 1142      A928FD
 1143 16b2 108BE9D0 		.ascii	"\020\213\351\320\232\270\021\376'.d'L\374\033\226\271"
 1143      9AB811FE 
 1143      272E6427 
 1143      4CFC1B96 
 1143      B9
 1144 16c3 EC6F5856 		.ascii	"\354oXV\347\245\367\271;F\374\010\304\3410\325\246\214"
 1144      E7A5F7B9 
 1144      3B46FC08 
 1144      C4E130D5 
 1144      A68C
 1145 16d5 6A53CAB4 		.ascii	"jS\312\264)\243\332\264\034\333>\244\261+\320\004\273"
 1145      29A3DAB4 
 1145      1CDB3EA4 
 1145      B12BD004 
 1145      BB
 1146 16e6 023DCA0B 		.ascii	"\002=\312\013\364(-\320uq{\243\\q\026\313\335\247\367"
 1146      F4282DD0 
 1146      75717BA3 
 1146      5C7116CB 
 1146      DDA7F7
 1147 16f9 BA863C79 		.ascii	"\272\206<y\201f>X\330q\225,',\226X\304\366\372\216I"
 1147      81663E58 
 1147      D871952C 
 1147      272C9658 
 1147      C4F6FA8E 
 1148 170e 55704C5E 		.ascii	"UpL^\005\345\264\012v\215\214\256\365\304g\030\247\201"
 1148      05E5B40A 
 1148      768D8CAE 
 1148      F5C46718 
 1148      A781
 1149 1720 2DB59B31 		.ascii	"-\265\2331\347\364d\340\253\354\374\325t\353\372\023"
 1149      E7F464E0 
 1149      ABECFCD5 
 1149      74EBFA13 
 1150 1730 BAC98B2A 		.ascii	"\272\311\213*$F\025rF\307)\243\326\336\252@\\\317\370"
 1150      24461572 
 1150      46C729A3 
 1150      D6DEAA40 
 1150      5CCFF8
 1151 1743 EC2DDE52 		.ascii	"\354-\336R\342\211;\030\262\266\352t\216\006J\034\235"
ARM GAS  /tmp/ccOZhMBW.s 			page 93


 1151      E2893B18 
 1151      B2B6EA74 
 1151      8E064A1C 
 1151      9D
 1152 1754 A08348D7 		.ascii	"\240\203H\327{\270\243E\240EO\376n\2065\202\266\226"
 1152      7BB8A345 
 1152      A0454FFE 
 1152      6E863582 
 1152      B696
 1153 1766 ED6F3AAD 		.ascii	"\355o:\255\371S\264\346\255b\315w<\034|\344\306\325"
 1153      F953B4E6 
 1153      AD62CD77 
 1153      3C1C7CE4 
 1153      C6D5
 1154 1778 3CDCF75F 		.ascii	"<\334\367_\223\303\242\301s\011%\252\024\365D'\325j"
 1154      93C3A2C1 
 1154      730925AA 
 1154      14F54427 
 1154      D56A
 1155 178a 8249AA56 		.ascii	"\202I\252VQU\033\037W\254s\307;=\251z\215\2235\027\325"
 1155      51551B1F 
 1155      57AC73C7 
 1155      3B3DA97A 
 1155      8D933517 
 1156 179f 36EF0577 		.ascii	"6\357\005w:x\357\264d\364i9\2473\224S\367\326;i\036"
 1156      3A78EFB4 
 1156      64F46939 
 1156      A7339453 
 1156      F7D63B69 
 1157 17b4 F800E394 		.ascii	"\370\000\343\224\270\376\301\023\027\311{[\354\275w"
 1157      B8FEC113 
 1157      17C97B5B 
 1157      ECBD77
 1158 17c3 56627456 		.ascii	"VbtV\316\250\2322*\27706\346"
 1158      CEA89A32 
 1158      2ABF3036 
 1158      E6
 1159 17d0 6E3F47B1 		.ascii	"n?G\261\013\3779\036\376s4\374\223\267\023\336\230\303"
 1159      0BFF391E 
 1159      FE7334FC 
 1159      93B713DE 
 1159      98C3
 1160 17e2 E75356A7 		.ascii	"\347SV\247\037\350\250\354>\236!\012\236\031\032\365"
 1160      1FE8A8EC 
 1160      3E9E210A 
 1160      9E191AF5 
 1161 17f2 B2135263 		.ascii	"\262\023Rc7\021:\317\205\234\247B\232\037\304\346\330"
 1161      37113ACF 
 1161      859CA742 
 1161      9A1FC4E6 
 1161      D8
 1162 1803 1E30C933 		.ascii	"\0360\3113}\312\204j\351\200\361\333\373\357\350\355"
 1162      7DCA846A 
 1162      E980F1DB 
 1162      FBEFE8ED 
 1163 1813 D867DAD9 		.ascii	"\330g\332\331P\307\331\327Q\352\013\315\265\005\256"
 1163      50C7D9D7 
ARM GAS  /tmp/ccOZhMBW.s 			page 94


 1163      51EA0BCD 
 1163      B505AE
 1164 1822 B892B92E 		.ascii	"\270\222\271.\357\310\211\\\361Q\177y\354\375=\007-"
 1164      EFC8895C 
 1164      F1517F79 
 1164      ECFD3D07 
 1164      2D
 1165 1833 96448BA5 		.ascii	"\226D\213\245\312\207\2763\271 y\356\202\334s\027Y\002"
 1165      CA87BE33 
 1165      B92079EE 
 1165      82DC7317 
 1165      5902
 1166 1845 9F797C17 		.ascii	"\237y|\027\341K\214OZn\372\010\333o?/=b\372\367\366"
 1166      E14B8C4F 
 1166      5A6EFA08 
 1166      DB6F3F2F 
 1166      3D62FAF7 
 1167 185a E99CBFFF 		.ascii	"\351\234\277\377i\244\271\325 \346V\364\363m;\305\022"
 1167      69A4B9D5 
 1167      20E656F4 
 1167      F36D3BC5 
 1167      12
 1168 186b 681A59BC 		.ascii	"h\032Y\274A\014\242@\010Q\275\244J\275\\\225KT\225\250"
 1168      410CA240 
 1168      0851BDA4 
 1168      4ABD5C95 
 1168      4B5495A8 
 1169 187f EADD31AE 		.ascii	"\352\3351\256\270\333\323\351\323\256\262\2771N\343"
 1169      B8DBD3E9 
 1169      D3AEB2BF 
 1169      314EE3
 1170 188e 7CEBFF32 		.ascii	"|\353\3772U\245YT\245 q\333\244\300\037m\223\275\237"
 1170      55A55954 
 1170      A52071DB 
 1170      A4C01F6D 
 1170      93BD9F
 1171 18a1 A4898F36 		.ascii	"\244\211\2176 CM\222\"MrE\256PE2*\247\372=\360\000S"
 1171      20434D92 
 1171      224D7245 
 1171      AE504532 
 1171      2AA7FA3D 
 1172 18b8 24A6FD79 		.ascii	"$\246\375y\225\227\363\306\326*6\266\235\254\261\305"
 1172      9597F3C6 
 1172      D62A36B6 
 1172      9DACB1C5 
 1173 18c8 58E227A7 		.ascii	"X\342'\247=\254\304\257\\T\350*m]\255\342\343\347\350"
 1173      3DACC4AF 
 1173      5C54E82A 
 1173      6D5DADE2 
 1173      E3E7E8
 1174 18db FAA24A8D 		.ascii	"\372\242J\215\343\303\312)\365\300\351\3115\256\322"
 1174      E3C3CA29 
 1174      F5C0E9C9 
 1174      35AED2
 1175 18ea C3EA2A7F 		.ascii	"\303\352*\177X\265\361\207\325&xXIc[\370\303\352\032"
 1175      58B5F187 
 1175      D5267858 
ARM GAS  /tmp/ccOZhMBW.s 			page 95


 1175      49635BF8 
 1175      C3EA1A
 1176 18fd 7D586D3B 		.ascii	"}Xm;p%\012a\213\0275\251c\373\306\235j\326m\357\022"
 1176      70250A61 
 1176      8B1735A9 
 1176      63FBC69D 
 1176      6AD66DEF 
 1177 1912 7CF5E6EA 		.ascii	"|\365\346\35227\347&v\212&\366\260\335\355\241\353\267"
 1177      3237E726 
 1177      768A26F6 
 1177      B0DDEDA1 
 1177      EBB7
 1178 1924 7D1C2DEC 		.ascii	"}\034-\354P\263\251\270\012]\247:w\212:W\224w\264\271"
 1178      50B3A9B8 
 1178      0A5DA73A 
 1178      778A3A57 
 1178      9477B4B9 
 1179 1938 385AE894 		.ascii	"8Z\350\224z\374\362x\226'\263\320\372\374;j]\027\267"
 1179      7AFCF278 
 1179      9627B3D0 
 1179      FAFC3B6A 
 1179      5D17B7
 1180 194b 2E03AC93 		.ascii	".\003\254\223\306\265s\353\272\325?Si?\376\362\233W"
 1180      C6B573EB 
 1180      BAD53F53 
 1180      693FFEF2 
 1180      9B57
 1181 195d 3F7CFD75 		.ascii	"?|\375u\225\326d\364\017\2110\005\207\353\014\206\345"
 1181      95D664F4 
 1181      0F893005 
 1181      87EB0C86 
 1181      E5
 1182 196e C161E637 		.ascii	"\301a\3467\3370\230\215~A\341\241F\277@\377\260`c\210"
 1182      DF30988D 
 1182      7E41E1A1 
 1182      46BF40FF 
 1182      B0606388 
 1183 1982 DF47A14B 		.ascii	"\337G\241K\214\201\201\306\300\017L\241~\313\002\002"
 1183      8C8181C6 
 1183      C00F4CA1 
 1183      7ECB0202 
 1184 1992 E6F99B42 		.ascii	"\346\371\233B\347\205\205\207\031\347\031\375\227\004"
 1184      E7858587 
 1184      19E719FD 
 1184      9704
 1185 19a0 CF7BDBF0 		.ascii	"\317{\333\360\326\2747\026\274\376\316_\337\364\263"
 1185      D6BC3716 
 1185      BCFECE5F 
 1185      DFF4B3
 1186 19af BBE1171C 		.ascii	"\273\341\027\034\026\020\262<\320\350\027\352\037\020"
 1186      1610B23C 
 1186      D0E817EA 
 1186      1F10
 1187 19bd 141C66F4 		.ascii	"\024\034f\3643\004\032\227\372/\0171\033\314\253\"\214"
 1187      33041A97 
 1187      FA2F0F31 
 1187      1BCCAB22 
ARM GAS  /tmp/ccOZhMBW.s 			page 96


 1187      8C
 1188 19ce 91F38354 		.ascii	"\221\363\203TZQ\334w\377\227\342\"WE\372\031\"\315\201"
 1188      5A51DC77 
 1188      FF97E222 
 1188      5745FA19 
 1188      22CD81
 1189 19e1 C01B64B8 		.ascii	"\300\033d\270\232\211i\006\363{\363\347\373\261\377"
 1189      9A896906 
 1189      F37BF3E7 
 1189      FBB1FF
 1190 19f0 E1917E01 		.ascii	"\341\221~\001\341\241\241\341a~\021\341&s\244\337\007"
 1190      E1A1A1E1 
 1190      617E11E1 
 1190      2673A4DF 
 1190      07
 1191 1a01 BFFFE2C3 		.ascii	"\277\377\342\303/V\222k\021\301!FS\244\337\307\037~"
 1191      2F56926B 
 1191      11C12146 
 1191      53A4DFC7 
 1191      1F7E
 1192 1a13 E8171024 		.ascii	"\350\027\020$*\351\032j^\031\022\034iV\207\031W\232"
 1192      2AE91A6A 
 1192      5E19121C 
 1192      69568719 
 1192      579A
 1193 1a25 5DC2BF0F 		.ascii	"]\302\277\0173\232\\\376\272\334\270\3348+ \310`\016"
 1193      339A5CFE 
 1193      BADCB8DC 
 1193      382B20C8 
 1193      600E
 1194 1a37 02E70546 		.ascii	"\002\347\005F\032\350\005u\204\311\270\302\313\356\222"
 1194      1AE80575 
 1194      84C9B8C2 
 1194      CBEE92
 1195 1a46 C1EC1ABA 		.ascii	"\301\354\032\272\334l\\i0k\201\232\236j\215\021\306"
 1195      DC6C5C69 
 1195      306B819A 
 1195      9E6A8D11 
 1195      C6
 1196 1a57 30506E99 		.ascii	"0Pn\231\273q\2051\314\034\352\037\371\027\270\033\032"
 1196      BB718531 
 1196      CC1CEA1F 
 1196      F917B81B 
 1196      1A
 1197 1a68 B98C0E70 		.ascii	"\271\214\016p\375\336?\330\0147\275d\314\211tO9b0\243"
 1197      FDDE3FD8 
 1197      0C37BD64 
 1197      CC89744F 
 1197      396230A3 
 1198 1a7c E51AE3F7 		.ascii	"\345\032\343\367d\250\346{3\350\027\001\207Hch\004\016"
 1198      64A8E67B 
 1198      33E81701 
 1198      87486368 
 1198      040E
 1199 1a8e 0833BB19 		.ascii	"\0103\273\031\014\334\253\256\374\350\002W\015f=p\004"
 1199      0CDCABAE 
 1199      FCE80257 
ARM GAS  /tmp/ccOZhMBW.s 			page 97


 1199      0D663D70 
 1199      04
 1200 1a9f 1AFF88A0 		.ascii	"\032\377\210\240p\223\3215\222\210\216\\\346\002\000"
 1200      7093D135 
 1200      92888E5C 
 1200      E60200
 1201 1aae 04DF9BCD 		.ascii	"\004\337\233\315\246\210\331L\204\301d\\j4\031\303\002"
 1201      A688D94C 
 1201      84C1645C 
 1201      6A3419C3 
 1201      02
 1202 1abf 4079601B 		.ascii	"@y`\033\276\344\317\021Z\343\312`s@x\240Qc\012\\\005"
 1202      BEE4CF11 
 1202      5AE3CA60 
 1202      734078A0 
 1202      51630A5C 
 1203 1ad4 23D44012 		.ascii	"#\324@\022\351\306\262\345=\220#\036\315\344:\260[\032"
 1203      E9C6B2E5 
 1203      3D90231E 
 1203      CDE43AB0 
 1203      5B1A
 1204 1ae6 E2BF2CD2 		.ascii	"\342\277,\322\325\034\012#\000\2134\373\233\215Z3=\020"
 1204      D51C0A23 
 1204      008B34FB 
 1204      9B8D5A33 
 1204      3D10
 1205 1af8 96FE4BFC 		.ascii	"\226\376K\374#\215<\327\336y\013l\027Ot\221\346\277"
 1205      238D3CD7 
 1205      DE790B6C 
 1205      174F7491 
 1205      E6BF
 1206 1b0a F887042F 		.ascii	"\370\207\004/\0133\230\377\355\205\321\012\012\0003"
 1206      0B3398FF 
 1206      ED85D10A 
 1206      0A0033
 1207 1b19 203CEA30 		.ascii	" <\3520\377P\243: \310\337\344\022\036\022\010\261\011"
 1207      FF50A33A 
 1207      20C8DFE4 
 1207      121E1208 
 1207      B109
 1208 1b2b 337E6F34 		.ascii	"3~o4\341\000\363J!2B\0101Av/\203<1\230\261\351\365\327"
 1208      E100F34A 
 1208      21324208 
 1208      3141762F 
 1208      833C3198 
 1209 1b43 011608A6 		.ascii	"\001\026\010\246_\010\246\367\004\323\273\202\351\035"
 1209      5F08A6F7 
 1209      04D3BB82 
 1209      E91D
 1210 1b51 C1F4B660 		.ascii	"\301\364\266`z\313\235p&N\203A\363^N\260a\305\273\241"
 1210      7ACB9D70 
 1210      264E8341 
 1210      F35E4EB0 
 1210      61C5BBA1 
 1211 1b65 205C4F47 		.ascii	" \\OG\006\204\207A\\\315j\222hn\266\270\271\204F\204"
 1211      06848741 
 1211      5CCD6A92 
ARM GAS  /tmp/ccOZhMBW.s 			page 98


 1211      686EB6B8 
 1211      B9844684 
 1212 1b79 878768B9 		.ascii	"\207\207h\271S\315\257\312\031\233\314\266l\015\010"
 1212      53CDAFCA 
 1212      199BCCB6 
 1212      6C0D08
 1213 1b88 8A0C080A 		.ascii	"\212\014\010\012\004^\377\342\224\000\002\014\367}\234"
 1213      045EFFE2 
 1213      9400020C 
 1213      F77D9C
 1214 1b97 33581529 		.ascii	"3X\025)&\253s&\020z\270?7 \350\013\363\312?\230V}\036"
 1214      26AB7326 
 1214      107AB83F 
 1214      3720E80B 
 1214      F3CA3F98 
 1215 1bae 1EF09745 		.ascii	"\036\360\227E\363#\374M\346\371\013\\\014\277\006M\177"
 1215      F323FC4D 
 1215      E6F90B5C 
 1215      0CBF064D 
 1215      7F
 1216 1bbf E43034D2 		.ascii	"\34404\322\024\300e\007\250\274\350\260\337-\371\263"
 1216      14C06507 
 1216      A8BCE8B0 
 1216      DF2DF9B3 
 1217 1bcf 31C0BC30 		.ascii	"1\300\2740,\330\254\2438\345\341f;\325\313y{\330\011"
 1217      2CD8ACA3 
 1217      38E5E166 
 1217      3BD5CB79 
 1217      7BD809
 1218 1be2 72A7D837 		.ascii	"r\247\3307a!62v\276\310K\206|\020\022\262\310\323\036"
 1218      61213632 
 1218      76BEC84B 
 1218      867C1012 
 1218      B2C8D31E 
 1219 1bf6 072E8B02 		.ascii	"\007.\213\002\202>\016_\024b4F\020.\200\375\036\334"
 1219      823E0E5F 
 1219      14623446 
 1219      102E80FD 
 1219      1EDC
 1220 1c08 B96AE12C 		.ascii	"\271j\341,~\016\3163\006.\0171.\022\002\202t\241\376"
 1220      7E0ECE33 
 1220      062E0F31 
 1220      2E120282 
 1220      74A1FE
 1221 1c1b 1044EA6F 		.ascii	"\020D\352o\034\270\204\226\020q\2151\024\032\317\222"
 1221      1CB88496 
 1221      10718D31 
 1221      141ACF92 
 1222 1c2b E5CBDC22 		.ascii	"\345\313\334\"\240\275\004\030 \177=\345\227!%W\230"
 1222      A0BD0418 
 1222      207F3DE5 
 1222      97212557 
 1222      98
 1223 1c3c 4955B904 		.ascii	"IU\271\004\032C\314\376\036p\017\270\030M+\374Cf\212"
 1223      1A43CCFE 
 1223      1E700FB8 
 1223      184D2BFC 
ARM GAS  /tmp/ccOZhMBW.s 			page 99


 1223      43668A
 1224 1c4f 9A393894 		.ascii	"\23298\224\246\337\322\345a\001\332\025fr0\230IKX\021"
 1224      A6DFD2E5 
 1224      6101DA15 
 1224      66723098 
 1224      494B5811 
 1225 1c63 6C322F27 		.ascii	"l2/'c\201\300\204\301\303^vW\014\346\0378\022\261\242"
 1225      6381C084 
 1225      C1C35E76 
 1225      570CE61F 
 1225      3812B1A2 
 1226 1c77 D686F847 		.ascii	"\326\206\370G\232\011\356F\264\203\243\301\374\217\012"
 1226      9A09EE46 
 1226      B483A3C1 
 1226      FC8F0A
 1227 1c86 64505026 		.ascii	"dPP&r\004\327\030\210\245\253\350U\327\200\345&\250"
 1227      7204D718 
 1227      88A5ABE8 
 1227      55D780E5 
 1227      26A8
 1228 1c98 59B35EBA 		.ascii	"Y\263^\272d0\273\331\034 \230C5\341K\227F\032\315\256"
 1228      6430BBD9 
 1228      1C209843 
 1228      35E14B97 
 1228      461ACDAE 
 1229 1cac 2633ED06 		.ascii	"&3\355\006?qn\030\311\223Y\346PC\000\324\342\022\223"
 1229      3F716E18 
 1229      C99359E6 
 1229      504300D4 
 1229      E21293
 1230 1cbf BF39381C 		.ascii	"\27798\034\012\322]r\246\331\303`\240\346\032\346\277"
 1230      0AD25D72 
 1230      A6D9C360 
 1230      A0E61AE6 
 1230      BF
 1231 1cd0 BBE0BDD7 		.ascii	"\273\340\275\327\265\"\246c\035/\030\362CN\361\366;"
 1231      B522A663 
 1231      1D2F18F2 
 1231      434EF1F6 
 1231      3B
 1232 1ce1 1EEC46A0 		.ascii	"\036\354F\240\221\036\377\201a\264+\007\207E\032Mv\324"
 1232      911EFF81 
 1232      61B42B07 
 1232      87451A4D 
 1232      76D4
 1233 1cf3 EFBC055A 		.ascii	"\357\274\005Z/Z\025I\322f\206d^E\222\335\215V\037I\025"
 1233      2F5A1549 
 1233      D2668664 
 1233      5E4592DD 
 1233      8D561F49 
 1234 1d08 E000B619 		.ascii	"\340\000\266\031~\375\301\242\217\276\372\375B\017\377"
 1234      7EFDC1A2 
 1234      8FBEFAFD 
 1234      420FFF
 1235 1d17 90EFFD57 		.ascii	"\220\357\375WE\002\367\020x\354\374R\241\242\241ZI="
 1235      4502F710 
 1235      78ECFC52 
ARM GAS  /tmp/ccOZhMBW.s 			page 100


 1235      A1A2A15A 
 1235      493D
 1236 1d29 FB7DF8C5 		.ascii	"\373}\370\305\242\205\213\374>\204\202\366[(2\017\215"
 1236      A2858BFC 
 1236      3E8482F6 
 1236      5B28320F 
 1236      8D
 1237 1d3a 0C8E34C0 		.ascii	"\014\2164\300c\007\004\270SUX6\262&\261\234\236\317"
 1237      630704B8 
 1237      53555836 
 1237      B226B19C 
 1237      9ECF
 1238 1d4c A159FA35 		.ascii	"\241Y\3725\261\343\313p\363G\241\021\346U\213<\231Y"
 1238      B1E3CB70 
 1238      F347A111 
 1238      E6558B3C 
 1238      9959
 1239 1d5e 61E1E022 		.ascii	"a\341\340\"\300\271\225K\203\227\206C\230B\303W\030"
 1239      C0B9954B 
 1239      83978643 
 1239      9842C357 
 1239      18
 1240 1d6f EDBCF6AE 		.ascii	"\355\274\366\256\034\373\305{\377\003U\345\311U"
 1240      1CFBC57B 
 1240      FF0355E5 
 1240      C955
 1241              		.text
 1242              		.section	.gnu.lto_.symtab.31b02b25462048fa,"",%progbits
 1243 0000 63684D74 		.ascii	"chMtxObjectInit\000"
 1243      784F626A 
 1243      65637449 
 1243      6E697400 
 1244 0010 00       		.ascii	"\000"
 1245 0011 00       		.ascii	"\000"
 1246 0012 00       		.ascii	"\000"
 1247 0013 00000000 		.ascii	"\000\000\000\000\000\000\000\000"
 1247      00000000 
 1248 001b 89010000 		.ascii	"\211\001\000\000"
 1249 001f 63684D74 		.ascii	"chMtxLockS\000"
 1249      784C6F63 
 1249      6B5300
 1250 002a 00       		.ascii	"\000"
 1251 002b 00       		.ascii	"\000"
 1252 002c 00       		.ascii	"\000"
 1253 002d 00000000 		.ascii	"\000\000\000\000\000\000\000\000"
 1253      00000000 
 1254 0035 8B010000 		.ascii	"\213\001\000\000"
 1255 0039 63684D74 		.ascii	"chMtxLock\000"
 1255      784C6F63 
 1255      6B00
 1256 0043 00       		.ascii	"\000"
 1257 0044 00       		.ascii	"\000"
 1258 0045 00       		.ascii	"\000"
 1259 0046 00000000 		.ascii	"\000\000\000\000\000\000\000\000"
 1259      00000000 
 1260 004e 8D010000 		.ascii	"\215\001\000\000"
 1261 0052 63684D74 		.ascii	"chMtxTryLock\000"
ARM GAS  /tmp/ccOZhMBW.s 			page 101


 1261      78547279 
 1261      4C6F636B 
 1261      00
 1262 005f 00       		.ascii	"\000"
 1263 0060 00       		.ascii	"\000"
 1264 0061 00       		.ascii	"\000"
 1265 0062 00000000 		.ascii	"\000\000\000\000\000\000\000\000"
 1265      00000000 
 1266 006a 91010000 		.ascii	"\221\001\000\000"
 1267 006e 63684D74 		.ascii	"chMtxTryLockS\000"
 1267      78547279 
 1267      4C6F636B 
 1267      5300
 1268 007c 00       		.ascii	"\000"
 1269 007d 00       		.ascii	"\000"
 1270 007e 00       		.ascii	"\000"
 1271 007f 00000000 		.ascii	"\000\000\000\000\000\000\000\000"
 1271      00000000 
 1272 0087 93010000 		.ascii	"\223\001\000\000"
 1273 008b 63684D74 		.ascii	"chMtxUnlock\000"
 1273      78556E6C 
 1273      6F636B00 
 1274 0097 00       		.ascii	"\000"
 1275 0098 00       		.ascii	"\000"
 1276 0099 00       		.ascii	"\000"
 1277 009a 00000000 		.ascii	"\000\000\000\000\000\000\000\000"
 1277      00000000 
 1278 00a2 95010000 		.ascii	"\225\001\000\000"
 1279 00a6 63684D74 		.ascii	"chMtxUnlockS\000"
 1279      78556E6C 
 1279      6F636B53 
 1279      00
 1280 00b3 00       		.ascii	"\000"
 1281 00b4 00       		.ascii	"\000"
 1282 00b5 00       		.ascii	"\000"
 1283 00b6 00000000 		.ascii	"\000\000\000\000\000\000\000\000"
 1283      00000000 
 1284 00be 97010000 		.ascii	"\227\001\000\000"
 1285 00c2 63684D74 		.ascii	"chMtxUnlockAllS\000"
 1285      78556E6C 
 1285      6F636B41 
 1285      6C6C5300 
 1286 00d2 00       		.ascii	"\000"
 1287 00d3 00       		.ascii	"\000"
 1288 00d4 00       		.ascii	"\000"
 1289 00d5 00000000 		.ascii	"\000\000\000\000\000\000\000\000"
 1289      00000000 
 1290 00dd 9A010000 		.ascii	"\232\001\000\000"
 1291 00e1 63684D74 		.ascii	"chMtxUnlockAll\000"
 1291      78556E6C 
 1291      6F636B41 
 1291      6C6C00
 1292 00f0 00       		.ascii	"\000"
 1293 00f1 00       		.ascii	"\000"
 1294 00f2 00       		.ascii	"\000"
 1295 00f3 00000000 		.ascii	"\000\000\000\000\000\000\000\000"
 1295      00000000 
ARM GAS  /tmp/ccOZhMBW.s 			page 102


 1296 00fb 9C010000 		.ascii	"\234\001\000\000"
 1297 00ff 636800   		.ascii	"ch\000"
 1298 0102 00       		.ascii	"\000"
 1299 0103 02       		.ascii	"\002"
 1300 0104 00       		.ascii	"\000"
 1301 0105 00000000 		.ascii	"\000\000\000\000\000\000\000\000"
 1301      00000000 
 1302 010d 05020000 		.ascii	"\005\002\000\000"
 1303 0111 63685363 		.ascii	"chSchGoSleepS\000"
 1303      68476F53 
 1303      6C656570 
 1303      5300
 1304 011f 00       		.ascii	"\000"
 1305 0120 02       		.ascii	"\002"
 1306 0121 00       		.ascii	"\000"
 1307 0122 00000000 		.ascii	"\000\000\000\000\000\000\000\000"
 1307      00000000 
 1308 012a A0010000 		.ascii	"\240\001\000\000"
 1309 012e 63685363 		.ascii	"chSchReadyI\000"
 1309      68526561 
 1309      64794900 
 1310 013a 00       		.ascii	"\000"
 1311 013b 02       		.ascii	"\002"
 1312 013c 00       		.ascii	"\000"
 1313 013d 00000000 		.ascii	"\000\000\000\000\000\000\000\000"
 1313      00000000 
 1314 0145 A4010000 		.ascii	"\244\001\000\000"
 1315 0149 63685363 		.ascii	"chSchRescheduleS\000"
 1315      68526573 
 1315      63686564 
 1315      756C6553 
 1315      00
 1316 015a 00       		.ascii	"\000"
 1317 015b 02       		.ascii	"\002"
 1318 015c 00       		.ascii	"\000"
 1319 015d 00000000 		.ascii	"\000\000\000\000\000\000\000\000"
 1319      00000000 
 1320 0165 A6010000 		.ascii	"\246\001\000\000"
 1321              		.text
 1322              		.section	.gnu.lto_.opts,"",%progbits
 1323 0000 272D666D 		.ascii	"'-fmath-errno' '-fsigned-zeros' '-ftrapping-math' '"
 1323      6174682D 
 1323      6572726E 
 1323      6F272027 
 1323      2D667369 
 1324 0033 2D666E6F 		.ascii	"-fno-trapv' '-fno-openmp' '-fno-openacc' '-mcpu=cor"
 1324      2D747261 
 1324      70762720 
 1324      272D666E 
 1324      6F2D6F70 
 1325 0066 7465782D 		.ascii	"tex-m4' '-mthumb' '-ggdb' '-O2' '-fomit-frame-point"
 1325      6D342720 
 1325      272D6D74 
 1325      68756D62 
 1325      2720272D 
 1326 0099 65722720 		.ascii	"er' '-falign-functions=16' '-ffunction-sections' '-"
 1326      272D6661 
ARM GAS  /tmp/ccOZhMBW.s 			page 103


 1326      6C69676E 
 1326      2D66756E 
 1326      6374696F 
 1327 00cc 66646174 		.ascii	"fdata-sections' '-fno-common' '-flto'\000"
 1327      612D7365 
 1327      6374696F 
 1327      6E732720 
 1327      272D666E 
 1328              		.text
 1329              		.comm	__gnu_lto_v1,1,1
 1330              		.comm	__gnu_lto_slim,1,1
 1331              		.ident	"GCC: (GNU Tools for ARM Embedded Processors) 5.4.1 20160919 (release) [ARM/embedded-5-bran
ARM GAS  /tmp/ccOZhMBW.s 			page 104


DEFINED SYMBOLS
                            *ABS*:00000000 chmtx.c
                            *COM*:00000001 __gnu_lto_v1
                            *COM*:00000001 __gnu_lto_slim

NO UNDEFINED SYMBOLS
