ARM GAS  /tmp/ccbDpJFr.s 			page 1


   1              		.syntax unified
   2              		.cpu cortex-m4
   3              		.fpu softvfp
   4              		.eabi_attribute 20, 1
   5              		.eabi_attribute 21, 1
   6              		.eabi_attribute 23, 3
   7              		.eabi_attribute 24, 1
   8              		.eabi_attribute 25, 1
   9              		.eabi_attribute 26, 1
  10              		.eabi_attribute 30, 2
  11              		.eabi_attribute 34, 1
  12              		.eabi_attribute 18, 4
  13              		.thumb
  14              		.syntax unified
  15              		.file	"chpipes.c"
  16              		.text
  17              	.Ltext0:
  18              		.section	.gnu.lto_.profile.4485afbff6cbd2a9,"",%progbits
  19 0000 789C6361 		.ascii	"x\234ca`d`c`\000\222\237\230O1\002\000\005\372\001\315"
  19      60646063 
  19      6000929F 
  19      984F3102 
  19      0005FA01 
  20              		.text
  21              		.section	.gnu.lto_.icf.4485afbff6cbd2a9,"",%progbits
  22 0000 789C6361 		.ascii	"x\234ca`d\000\001\003\006\004\340`\2706ye\0273\343\321"
  22      60640001 
  22      030604E0 
  22      60B83679 
  22      651733E3 
  23 0015 8BFFD6F1 		.ascii	"\213\377\326\3610M\231\275\252\201\237\031L\262\254"
  23      304D99BD 
  23      AA819F19 
  23      4CB2AC
  24 0024 9DF57A36 		.ascii	"\235\365z6'k\313\332\023/\031\331\316\036<\306\304\016"
  24      276BCBDA 
  24      132F19D9 
  24      CE1E3CC6 
  24      C40E
  25 0036 22180013 		.ascii	"\"\030\000\023\364\025|"
  25      F4157C
  26              		.text
  27              		.section	.gnu.lto_.jmpfuncs.4485afbff6cbd2a9,"",%progbits
  28 0000 789C8D90 		.ascii	"x\234\215\2201\016\3020\014E\363\035\223vA\\\200\213"
  28      310EC230 
  28      0C45F31D 
  28      9376415C 
  28      808B
  29 0012 B2902E8C 		.ascii	"\262\220.\214\234\203nHlHl\\\207\021\0111 a;\3014\352"
  29      9C836E48 
  29      6C486C5C 
  29      87110931 
  29      20613BC1 
  30 0028 00969A26 		.ascii	"\000\226\232&??/\337\341\200\240u-?\253>D\000]\316\231"
  30      3F3F2FDF 
  30      E180A075 
  30      2D3FAB3E 
ARM GAS  /tmp/ccbDpJFr.s 			page 2


  30      44005DCE 
  31 003d E240AA24 		.ascii	"\342@\252$\371hS-\311\2153\331\027vP\346\230\221\334"
  31      F968532D 
  31      C98D33D9 
  31      177650E6 
  31      9891DC
  32 0050 D2921A79 		.ascii	"\322\222\032y\272\370\220\210\205\204\225\240 RTI|\337"
  32      BAF89088 
  32      858495A0 
  32      20525449 
  32      7CDF
  33 0062 D06CD7C7 		.ascii	"\320l\327\307:\303\213p\274\235\237\313;\355\324\213"
  33      3AC38B70 
  33      BC9D9FCB 
  33      3BEDD48B 
  34 0072 03D6C652 		.ascii	"\003\326\306RC\210\015\213\177\261\3740\333\346\244"
  34      43880D8B 
  34      7FB1FC30 
  34      DBE6A4
  35 0081 25AE09A3 		.ascii	"%\256\011\243'\225Z\310\276\367\353i.\247\375\003%\315"
  35      27955AC8 
  35      BEF7EB69 
  35      2EA7FD03 
  35      25CD
  36 0093 16A3020B 		.ascii	"\026\243\002\013{\254lk2\325`2\364\022\010\366\2426"
  36      7BAC6C6B 
  36      32D56032 
  36      F41208F6 
  36      A236
  37 00a5 9247EAFE 		.ascii	"\222G\352\376\360\2047F#)\\"
  37      F0843746 
  37      23295C
  38              		.text
  39              		.section	.gnu.lto_.inline.4485afbff6cbd2a9,"",%progbits
  40 0000 789C6361 		.ascii	"x\234ca`d\000\001g&\0068\340``0\264fddP\000J1i\034\177"
  40      60640001 
  40      67260638 
  40      E0606030 
  40      B4666464 
  41 001b C0C820B4 		.ascii	"\300\310 \264:\002,\317\304\315\300\3008\301\217\205"
  41      3A022CCF 
  41      C4CDC0C0 
  41      38C18F85 
  42 002b 97818179 		.ascii	"\227\201\201y\202\037\010\022dB\26502\350Y\300\214T"
  42      821F0812 
  42      6442B530 
  42      32E859C0 
  42      8C54
  43 003d DEBF9391 		.ascii	"\336\277\223\221A\360p\000\205F21\310\375f\206\231)"
  43      41F07000 
  43      85463231 
  43      C8FD6686 
  43      9929
  44 004f B6E5380F 		.ascii	"\266\3458\017\003\333\002yd3Y\371\030\031\230w\260B"
  44      03DB0279 
  44      643359F9 
  44      18199877 
ARM GAS  /tmp/ccbDpJFr.s 			page 3


  44      B042
  45 0061 74333230 		.ascii	"t320M\360\373\310\305\314\003f\300\2240S\301\014\026"
  45      4DF0FBC8 
  45      C5CC0366 
  45      C0943053 
  45      C10C16
  46 0074 06211D46 		.ascii	"\006!\035FfF\260\021 \002l\0303\307\001;\006\276\007"
  46      6646B011 
  46      20026C18 
  46      33C7013B 
  46      06BE07
  47 0087 B14C0C4C 		.ascii	"\261L\014L\027\370y\220\014D\245X\031D\0172\300\354"
  47      17F87990 
  47      0C44A558 
  47      19440F32 
  47      C0EC
  48 0099 E75CE1C6 		.ascii	"\347\\\341\306\300\275\302\015\331zF. \233\031\250\037"
  48      C0BDC20D 
  48      D97A462E 
  48      209B19A8 
  48      1F
  49 00aa 641F8C86 		.ascii	"d\037\214\206\312\2611\360p323pd\377eb\234\326z\350"
  49      CAB131F0 
  49      70333233 
  49      7064FF65 
  49      629CD67A 
  50 00bf 3CFB17A6 		.ascii	"<\373\027\246V\220_\030\2273\3120/`d\340\310\202\263"
  50      56905F18 
  50      9733CA30 
  50      2F6064E0 
  50      C882B3
  51 00d2 807E58C0 		.ascii	"\200~X\300\310\0024\012\354;\306\027\354\002L\014\254"
  51      C802340A 
  51      EC3BC617 
  51      EC024C0C 
  51      AC
  52 00e3 1DEA0220 		.ascii	"\035\352\002 \233\330\370\201\021\316\002\011\331\011"
  52      9BD8F881 
  52      11CE0209 
  52      D909
  53 00f1 7EEC3043 		.ascii	"~\3540C)2\205\001\000\253\226^\012"
  53      29328501 
  53      00AB965E 
  53      0A
  54              		.text
  55              		.section	.gnu.lto_.pureconst.4485afbff6cbd2a9,"",%progbits
  56 0000 789C6361 		.ascii	"x\234ca`d\020a``\340`\220b\224b\332\305\310\274\213"
  56      60641061 
  56      6060E060 
  56      90629462 
  56      DAC5C8BC 
  57 0015 91458A75 		.ascii	"\221E\212u\027#\233$\273$\000\0370\002\357"
  57      17239B24 
  57      BB24001F 
  57      3002EF
  58              		.text
  59              		.section	.gnu.lto_pipe_write.4485afbff6cbd2a9,"",%progbits
ARM GAS  /tmp/ccbDpJFr.s 			page 4


  60 0000 789CA556 		.ascii	"x\234\245VkL\024W\024\276\347\336\335\235Yv\227\335"
  60      6B4C1457 
  60      14BEE7DE 
  60      DD9D5976 
  60      97DD
  61 0012 4A02040C 		.ascii	"J\002\004\014\305\307B\265)\3336\246\351\037\223\376"
  61      C5C742B5 
  61      29DB36A6 
  61      E91F93FE 
  62 0022 6CFAB349 		.ascii	"l\372\263I\377\364\247h\242\211\261\244\244M\3774\\"
  62      FFF4A768 
  62      A289B1A4 
  62      A44DFF34 
  62      5C
  63 0033 1816505B 		.ascii	"\030\026P[\037)\242\326\007\215\225`[_\013U\213\257"
  63      1F29A2D6 
  63      078D9560 
  63      5B5F0B55 
  63      8BAF
  64 0045 AEF8C0A2 		.ascii	"\256\370\300\242B\361\255\364\001\370\2106\215\025\225"
  64      42F1ADF4 
  64      01F88836 
  64      8D1595
  65 0054 12B40B3D 		.ascii	"\022\264\013=\347\336Y\226]\001\261\235\354\336\235"
  65      E7DE5996 
  65      5D01B19D 
  65      ECDE9D
  66 0063 3973BE73 		.ascii	"9s\276s\317\367\2353g\326\301\200\321\321\351a\354="
  66      CFF79D33 
  66      67D6C180 
  66      D1D1E961 
  66      EC3D
  67 0075 FC2DC12F 		.ascii	"\374-\301/\2441\340k:\030+79\0275\205L\2469h\365\012"
  67      A431E06B 
  67      3A182B37 
  67      39173585 
  67      4CA63968 
  68 008b 7068B383 		.ascii	"ph\263\203;\327\007\320\354\032\232\217f'\270\265\331"
  68      3BD707D0 
  68      EC1A9A8F 
  68      6627B8B5 
  68      D9
  69 009c C58DC379 		.ascii	"\305\215\303yh6/\206\320l\304\315f\374\304\015@'\322"
  69      68362F86 
  69      D06CC4CD 
  69      66FCC40D 
  69      4027D2
  70 00af 0456C685 		.ascii	"\004V\306\205\303\3512\320T\006\003<\306\241\253r\357"
  70      C3E932D0 
  70      5406033C 
  70      C6A1AB72 
  70      EF
  71 00c0 66F18887 		.ascii	"f\361\210\207\005\003\007^\366\237\373\362F:]\002\344"
  71      0503075E 
  71      F69FFBF2 
  71      463A5D02 
  71      E4
ARM GAS  /tmp/ccbDpJFr.s 			page 5


  72 00d1 E3E52679 		.ascii	"\343\345&y~\2711\247Q\312\012\331\323\360\367'k\255"
  72      7EB931A7 
  72      51CA0AD9 
  72      D3F0F727 
  72      6BAD
  73 00e3 F0DB61C1 		.ascii	"\360\333a\301\331\010g\260\003\246C#L\247\274\277\201"
  73      D90867B0 
  73      03A64323 
  73      4CA7BCBF 
  73      81
  74 00f4 39E8BBF5 		.ascii	"9\350\273\365\363\201k\\\314\002\206\347\217vT7Ba\003"
  74      F3816B5C 
  74      CC0286E7 
  74      8F765437 
  74      426103
  75 0107 E1E4BA45 		.ascii	"\341\344\272E\322\035\026\002\276\0051\026\207&\006"
  75      D21D1602 
  75      BE053116 
  75      872606
  76 0116 DF41217A 		.ascii	"\337A!z?Yy\251\316-\012\024\262\274a\177=\267\221\335"
  76      3F5979A9 
  76      CE2D0A14 
  76      B2BC617F 
  76      3DB791DD 
  77 012a 0AE9809D 		.ascii	"\012\351\200\235\251H\007\203]\012\031\223\265u\351"
  77      A9480783 
  77      5D0A1993 
  77      B575E9
  78 0139 628E426E 		.ascii	"b\216Bnl]\327\355\263\221kOy\345\032\300Taw*\026/\366"
  78      6C5DD7ED 
  78      B3916B4F 
  78      79E51AC0 
  78      5461772A 
  79 0150 402101B6 		.ascii	"@!\001\2667\324^w\211\227\025\370\361\320\352{\236\340"
  79      37D45E77 
  79      899715F8 
  79      F1D0EA7B 
  79      9EE0
  80 0162 D7048EEE 		.ascii	"\327\004\216\356\253\366o\224\321\312|\202\357M\206"
  80      ABF66F94 
  80      D1CA7C82 
  80      EF4D86
  81 0171 D381DE2D 		.ascii	"\323\201\336-W\032\2178D\221B64\015\337\365j\244\334"
  81      571A8F38 
  81      44914236 
  81      340DDFF5 
  81      6AA4DC
  82 0184 B7502E7F 		.ascii	"\267P.\177\213`M\343\302\372\"\303\353|\256J\211G>4"
  82      8B604DE3 
  82      C2FA22C3 
  82      EB7CAE4A 
  82      89473E34 
  83 0198 43102210 		.ascii	"C\020\"\020$-Q\302\357\301\205\015\301\343\326=\357"
  83      242D51C2 
  83      EFC1850D 
  83      C1E3D63D 
  83      EF
ARM GAS  /tmp/ccbDpJFr.s 			page 6


  84 01a9 46E5C888 		.ascii	"F\345\310\210%\243\315\306J\353a-\024\202\312\032\253"
  84      25A3CDC6 
  84      4AEB612D 
  84      1482CA1A 
  84      AB
  85 01ba 828A3990 		.ascii	"\202\2129\220\205\323\300\305e\002Y\335t\232\206\213"
  85      85D3C0C5 
  85      650259DD 
  85      749A868B 
  86 01ca E1C5C5F4 		.ascii	"\341\305\305\364\341\342N\247\305\317(^\000H\254it+"
  86      E1E24EA7 
  86      C5CF285E 
  86      0048AC69 
  86      742B
  87 01dc 83964C25 		.ascii	"\203\226L%^\026\243}\262\311\220CK.-y\264\314 \350L"
  87      5E16A37D 
  87      B2C99043 
  87      4B2E2D79 
  87      B4CC20E8 
  88 01f1 5A66D132 		.ascii	"Zf\3212\2334\013\342\222V\240\324c\367\361K\355\324"
  88      9B340BE2 
  88      9256A0D4 
  88      63F7F14B 
  88      EDD4
  89 0203 CF39FD8A 		.ascii	"\3179\375\212\333P\361\270\372\366\026\027q\260\004"
  89      DB50F1B8 
  89      FAF61617 
  89      71B004
  90 0212 35515DB8 		.ascii	"5Q]\270\265\323\240&\022J\241\301\266\366\032o=l\301"
  90      B5D3A026 
  90      124AA1C1 
  90      B6F61A6F 
  90      3D6CC1
  91 0225 7A782CB4 		.ascii	"zx,\264\355#EH\271\233\025\273\215\320+a\341\205\375"
  91      ED234548 
  91      B99B15BB 
  91      8DD02B61 
  91      E185FD
  92 0238 500FC3DC 		.ascii	"P\017\303\334\226\251{\373\261\355\236\262O\221$\034"
  92      96A97BFB 
  92      B1ED9EB2 
  92      4F91241C 
  93 0248 80108AF3 		.ascii	"\200\020\212\363\003\224\261;\340\240\015\224\372-\177"
  93      0394B13B 
  93      E0A00D94 
  93      FA2D7F
  94 0257 761B6531 		.ascii	"v\033e1Y#e ,|#\034\225\203\026\364\301\335\303\"\235"
  94      59236520 
  94      2C7C231C 
  94      958316F4 
  94      C1DDC322 
  95 026c F5012757 		.ascii	"\365\001'W\364\274\262\252\267\313iW\265\271-^U\177"
  95      F4BCB2AA 
  95      B7CB6957 
  95      B5B92D5E 
  95      557F
  96 027e 6A2BD201 		.ascii	"j+\322\001\007!\210\3111b\363\016Fr\217\345\021H\342"
ARM GAS  /tmp/ccbDpJFr.s 			page 7


  96      072188C9 
  96      3162F30E 
  96      46728FE5 
  96      1148E2
  97 0291 512ED5C6 		.ascii	"Q.\325\306.\342r\210\340p\030\323\307m+z.\014\254\317"
  97      2EE27288 
  97      E07018D3 
  97      C76D2B7A 
  97      2E0CACCF 
  98 02a5 492E74F4 		.ascii	"I.t\364\314_\021\000\212\256\212<\202\242\245t\002\203"
  98      CC5F1100 
  98      8AAE8A3C 
  98      82A2A574 
  98      0283
  99 02b7 23C88BC1 		.ascii	"#\310\213\301Q\235\362\266\243_\244\317\335\241\240"
  99      519DF2B6 
  99      A35FA4CF 
  99      DDA1A0
 100 02c6 6BDFDFF8 		.ascii	"k\337\337\370\225\211\3712}\300\2170wl\212\006\272\037"
 100      9589F932 
 100      7DC08F30 
 100      776C8A06 
 100      BA1F
 101 02d8 EB69EAF7 		.ascii	"\353i\352\367\350\024I\371\375\261G\253DJ\212Q\225\342"
 101      E81449F9 
 101      FDB147AB 
 101      444A8A51 
 101      95E2
 102 02ea B1B129D2 		.ascii	"\261\261)\322^\361hh\013\260\024\255b+\262&\325\252"
 102      5EF16868 
 102      0BB014AD 
 102      622BB226 
 102      D5AA
 103 02fc 15BB14E1 		.ascii	"\025\273\024\341\343ae\223\22401\362\270\215D\016\017"
 103      E3616593 
 103      943031F2 
 103      B88D440E 
 103      0F
 104 030d AA2FEFFC 		.ascii	"\252/\357\3748Y\0139\210\271Q\360\343$\327Q\222K<-\327"
 104      38590B39 
 104      88B951F0 
 104      E324D751 
 104      924B3C2D 
 105 0322 0925D749 		.ascii	"\011%\327I\352\266\031\250\302h,m\232\211\265C\223\265"
 105      EAB619A8 
 105      C2682C6D 
 105      9A89B543 
 105      93B5
 106 0334 C1A5AF67 		.ascii	"\301\245\257g)\257\231\332\353\"h\343l\264\217\352\030"
 106      29AF99DA 
 106      EB2268E3 
 106      6CB48FEA 
 106      18
 107 0345 C41D0E3D 		.ascii	"\304\035\016=\374\347\014'\035_\200\000\021*\277\273"
 107      FCE70C27 
 107      1D5F8000 
 107      112ABFBB 
ARM GAS  /tmp/ccbDpJFr.s 			page 8


 108 0355 CA9DD031 		.ascii	"\312\235\3201\215t<\245tl\263u\214>Y\371\342\323%\353"
 108      8D743CA5 
 108      746CB375 
 108      8C3E59F9 
 108      E2D325EB 
 109 0369 096FF324 		.ascii	"\011o\363$\327\354\364\204*\367\\\030\312\334\215j\321"
 109      D7ECF484 
 109      2AF75C18 
 109      CADC8D6A 
 109      D1
 110 037a C4B0C5E2 		.ascii	"\304\260\305\342\311b\375\204J\234VbY\033\252\356\355"
 110      C962FD84 
 110      4A9C5662 
 110      591BAAEE 
 110      ED
 111 038b 9947FB59 		.ascii	"\231G\373Y\242@\245\037T\305\2745x\025\324\354\240\376"
 111      A240A51F 
 111      54C5BC35 
 111      7815D4EC 
 111      A0FE
 112 039d 62BD5079 		.ascii	"b\275Py\325\312\321\317\241\211\216*J?JXS(\306+\363"
 112      D5CAD1CF 
 112      A1898E2A 
 112      4A3F4A58 
 112      5328C62B 
 113 03b2 B31E8976 		.ascii	"\263\036\211v\375H\304\273\206%Z\206\263\377\323>g\376"
 113      FD48C4BB 
 113      86255A86 
 113      B3FFD33E 
 113      67FE
 114 03c4 73FB9C4D 		.ascii	"s\373\234M \251\000\311\362\216\352E\011\207\037\277"
 114      20A900C9 
 114      F28EEA45 
 114      09871FBF 
 115 03d4 A9846927 		.ascii	"\251\204i'a\354\211\240\006\277\222\304\241&\227F\241"
 115      61EC89A0 
 115      06BF92C4 
 115      A1269746 
 115      A1
 116 03e5 D1C24185 		.ascii	"\321\302A\205\"\327U]\336\372\206\226\017+\016$2\366"
 116      22D7555D 
 116      DEFA8696 
 116      0F2B0E24 
 116      32F6
 117 03f7 481DD8D3 		.ascii	"H\035\330\323d\3629\266K\352^\341pN\0153z\277C\007\204"
 117      64F239B6 
 117      4BEA5EE1 
 117      704E0D33 
 117      7ABF4307 
 118 040c 30164539 		.ascii	"0\026E9\030\031\3542tl\357Tf\242\011\235*\214z;\374"
 118      1819EC32 
 118      746CEF54 
 118      66A2099D 
 118      2A8C7A3B 
 119 0421 8C6350F5 		.ascii	"\214cP\365\357Y\241C\3700\212\335\344\352:]5\271O;\315"
 119      EF59A143 
 119      F8308ADD 
ARM GAS  /tmp/ccbDpJFr.s 			page 9


 119      E4EA3A5D 
 119      35B94F3B 
 120 0436 D336BF95 		.ascii	"\3236\277\225\230\205\364\036@\013uH\207u\313\257\035"
 120      9885F41E 
 120      400B7548 
 120      8775CBAF 
 120      1D
 121 0447 C0D26DFA 		.ascii	"\300\322m\372\000\360\314\344\270\024\210\317\216LG"
 121      00F0CCE4 
 121      B81488CF 
 121      8E4C47
 122 0456 799C6C7D 		.ascii	"y\234l}@\334\201\252\350@\033\037\177\352N\033A\015"
 122      40DC81AA 
 122      E8401B1F 
 122      7FEA4E1B 
 122      410D
 123 0468 1974A9A9 		.ascii	"\031t\251\251\353\265D\000\303\205E\206b\332\037\353"
 123      EBB54400 
 123      C3854586 
 123      62DA1FEB 
 124 0478 B7D39C36 		.ascii	"\267\323\2346e\325L8\237\240{A\321\2656\333\34420\220"
 124      65D54C38 
 124      9FA07B41 
 124      D1B536DB 
 124      E4323090 
 125 048c AED0F3D6 		.ascii	"\256\320\363\326\302\204\213\211\250\227\250\026\031"
 125      C2848B89 
 125      A897A816 
 125      19
 126 0499 AAFC2E36 		.ascii	"\252\374.64_\250\247epun\262\030x\327`\265\331\212}"
 126      345FA8A7 
 126      6570756E 
 126      B21878D7 
 126      60B5D98A 
 127 04ae EC19EC2F 		.ascii	"\354\031\354/\217a\357\327\354\255\315U\303\365\257"
 127      8F61EFD7 
 127      ECADCD55 
 127      C3F5AF
 128 04bd EA9099FA 		.ascii	"\352\220\231\372\306h\015vQ\243e\352\247\271\365%\355"
 128      C6680D76 
 128      51A365EA 
 128      A7B9F525 
 128      ED
 129 04ce 9365EF1C 		.ascii	"\223e\357\034\367\211P\235\262\264\214'\372\234\332"
 129      F789509D 
 129      B2B48C27 
 129      FA9CDA
 130 04dd 297B6A0D 		.ascii	"){j\015sEq\025\304\365**\210\014\244g\322\374\257\251"
 130      73457115 
 130      C4F52A2A 
 130      880CA467 
 130      D2FCAFA9 
 131 04f1 FCB355A6 		.ascii	"\374\263U\246Y\361\352EN6\331\333\346Lm\333\353\211"
 131      59F1EA45 
 131      4E36D9DB 
 131      E64C6DDB 
 131      EB89
ARM GAS  /tmp/ccbDpJFr.s 			page 10


 132 0503 6DBBEDC2 		.ascii	"m\273\355\302U\335\264\033 \027\243\330|\352z\375)\265"
 132      55DDB41B 
 132      2017A3D8 
 132      7CEA7AFD 
 132      29B5
 133 0515 A3E12AFD 		.ascii	"\243\341*\375\023\007\376%Q\273_\251v\271\252:&\273"
 133      1307FE25 
 133      51BB5FA9 
 133      76B9AA3A 
 133      26BB
 134 0527 1554D5D9 		.ascii	"\025T\325\331\324>yu~\033\2577#mqvySc\367{\202]\217"
 134      D43E7975 
 134      7E1BAF37 
 134      236D7176 
 134      795363F7 
 135 053f 7E0A9F9F 		.ascii	"~\012\237\237Ho\202H\037\021\311SD\334j\006\335\201"
 135      486F8248 
 135      1F11C953 
 135      44DC6A06 
 135      DD81
 136 0551 CA68733B 		.ascii	"\312hs;L\370\337\306\211\240\033\211\3776\177\340\340"
 136      4CF8DFC6 
 136      89A01B89 
 136      FF367FE0 
 136      E0
 137 0562 3BB0C267 		.ascii	";\260\302g\367,\365\353}\2344\030\010\243\347\027\025"
 137      F72CF5EB 
 137      7D9C3418 
 137      08A3E717 
 137      15
 138 0573 85F4E783 		.ascii	"\205\364\347\203R\374,]\262 T\372aq\250xq\311\222\222"
 138      52FC2C5D 
 138      B22054FA 
 138      6171A878 
 138      71C99292 
 139 0587 45A545C5 		.ascii	"E\245E\305\214\227\224\360\005%\260\214\227\276\316"
 139      8C9794F0 
 139      0525B08C 
 139      97BECE
 140 0596 4B5F9BFD 		.ascii	"K_\233\375\264\373\222e\305K?Z\270h\024\262\230\375"
 140      B4FB9265 
 140      C54B3F5A 
 140      B86814B2 
 140      98FD
 141 05a8 0B67CCCB 		.ascii	"\013g\314\313\004"
 141      04
 142              		.text
 143              		.section	.gnu.lto_pipe_read.4485afbff6cbd2a9,"",%progbits
 144 0000 789CA555 		.ascii	"x\234\245U]L\034U\024\276\347\336\331\235\375\337MI"
 144      5D4C1C55 
 144      14BEE7DE 
 144      D99DFDDF 
 144      4D49
 145 0012 80144240 		.ascii	"\200\024B@EB\215\254\032c\342C\023\037\215\217&\276"
 145      45428DAC 
 145      1A63E243 
 145      131F8D8F 
ARM GAS  /tmp/ccbDpJFr.s 			page 11


 145      26BE
 146 0024 F8082529 		.ascii	"\370\010%)IS7%>\370`\030\030\006\250\304jS~\212\242"
 146      49533725 
 146      3EF86018 
 146      1806A8C4 
 146      6A537E8A 
 147 0039 981602DA 		.ascii	"\230\026\002\332\002\005m\225B\333-U\253\335\226Ji\213"
 147      02056D95 
 147      42DB2D55 
 147      ABDD964A 
 147      698B
 148 004b 2D2F504B 		.ascii	"-/PKCMS\273\364G\267\345\307s\356\235\355\266H\333U"
 148      434D53BB 
 148      F447B7E5 
 148      C773EE9D 
 148      EDB648DB 
 149 0060 27BB77EF 		.ascii	"'\273w\357=s\276s\316w\2763\263\032\003FW\320\315\330"
 149      3D73BE73 
 149      CE77BE33 
 149      B31A0346 
 149      57D0CDD8 
 150 0074 5BF81BC1 		.ascii	"[\370\033\301/x\030\360\217\307\030\253vq.\032\212\230"
 150      2F7818F0 
 150      8FC718AB 
 150      76712E1A 
 150      8A98
 151 0086 E1D168F5 		.ascii	"\341\321h\365\011\320\224Y\343\216\326\020\232\235\211"
 151      09D09459 
 151      E38ED610 
 151      9A9D89
 152 0095 F5687680 		.ascii	"\365hv\200[\231\235\\\037\311C\263\353l\030\315z\322"
 152      5B999D5C 
 152      1FC943B3 
 152      EB6C18CD 
 152      7AD2
 153 00a7 EC4A6EDC 		.ascii	"\354Jn\334\000\2641\\\300\252\270\320\034N\035MUp\233"
 153      00B4315C 
 153      C0AAB8D0 
 153      1C4E1D4D 
 153      55709B
 154 00ba 2F7218AF 		.ascii	"/r\030\257\335\327.nqK0\320\360\030?\365\311o\001:\002"
 154      DDD72E6E 
 154      714B30D0 
 154      F0183FF5 
 154      C96F013A 
 155 00cf E4E3F153 		.ascii	"\344\343\361S\343\314V\275\270\3330j\214i\253\377\275"
 155      E3CC56BD 
 155      B8DB306A 
 155      8C69ABFF 
 155      BD
 156 00e0 EDA6F5BA 		.ascii	"\355\246\365\272%8[\346\014z \027\272!\227\352\376\022"
 156      25385BE6 
 156      0C7A2017 
 156      BA2197EA 
 156      FE12
 157 00f2 8AD1F7F3 		.ascii	"\212\321\367\363\017o_\340\342i`\270\277\325S\337\015"
 157      0F6F5FE0 
ARM GAS  /tmp/ccbDpJFr.s 			page 12


 157      E26960B8 
 157      BFD553DF 
 157      0D
 158 0103 455D8433 		.ascii	"E]\2043v\224\033nK\010\370\012\304\203841\330\003E\350"
 158      76941B6E 
 158      4B08F80A 
 158      C4833834 
 158      31D80345 
 159 0118 7DAFF15C 		.ascii	"}\257\361\\\213[<+\221\325]\007:\270\215<$\221\032\354"
 159      8B5B3C2B 
 159      91D55D07 
 159      3AB88D3C 
 159      24911AEC 
 160 012c 5D89D418 		.ascii	"]\211\324\030\364J\344\242\321\324\022\020\305\022\331"
 160      F44AE4A2 
 160      D1D41210 
 160      C512D9
 161 013b 36DA3CE5 		.ascii	"6\332<\345\267\2217%\222C\337J$\036\372\241\210\334"
 161      B7913725 
 161      9243DF4A 
 161      241EFAA1 
 161      88DC
 162 014d 3BBB9A2E 		.ascii	";\273\232.:\305s\022z7\361\321uo\341n\202F\357}\020"
 162      3AC57312 
 162      7A37F1D1 
 162      756FE16E 
 162      8246EF7D 
 163 0162 6C33A2B5 		.ascii	"l3\242\265\371\004\337\3670\234.\364\036\232\354>\244"
 163      F904DFF7 
 163      309C2EF4 
 163      1E9AEC3E 
 163      A4
 164 0173 891289EC 		.ascii	"\211\022\211\354\032\\\272\352SHc\377\006c\353k\004"
 164      1A5CBAEA 
 164      534863FF 
 164      0663EB6B 
 164      04
 165 0184 1B5C1576 		.ascii	"\033\\\025vi`\251\331\357\2545\360\312\207\257\241\020"
 165      6960A9D9 
 165      EFAC35F0 
 165      CA87AFA1 
 165      10
 166 0195 06A0903A 		.ascii	"\006\240\220:\211\015\374\006\2348\016<i\355\1773j,"
 166      890DFC06 
 166      9C380E3C 
 166      69ED7F33 
 166      6A2C
 167 01a7 2F9B4634 		.ascii	"/\233F4\341Y\370\353\210\373)\220E\243$\330.\015I8t"
 167      E159F8EB 
 167      88FB2990 
 167      45A324D8 
 167      2E0D4938 
 168 01bc 20830BB7 		.ascii	" \203\013\267N\017\265\303\213\213\356\243\235\237v"
 168      4E0FB5C3 
 168      8B8BEEA3 
 168      9D9F76
 169 01cb 015A828C 		.ascii	"\001Z\202\214\302\205\200:\265\206ne\320\222);\227\305"
ARM GAS  /tmp/ccbDpJFr.s 			page 13


 169      C285803A 
 169      B5866E65 
 169      D092293B 
 169      97C5
 170 01dd 284D3619 		.ascii	"(M6\031\326\322\222CK\036-\005\270\270\030\273\201e"
 170      D6D29243 
 170      4B1E2D05 
 170      B8B818BB 
 170      8165
 171 01ef D1C8C439 		.ascii	"\321\310\3049\247_q\005j\356\326/\355qR\245\246\240"
 171      A75F7105 
 171      6AEED62F 
 171      ED7152A5 
 171      A6A0
 172 0201 4169B146 		.ascii	"Ai\261FO\3534(B\366\341\317\343'\032|\035\360\031X\302"
 172      4FEB3428 
 172      42F6E1CF 
 172      E3271A7C 
 172      1DF01958 
 173 0216 6DA26D3F 		.ascii	"m\242m?\361\246\376\\\256\351\323\303\317[\302\003\007"
 173      F1A6FE5C 
 173      AEE9D3C3 
 173      CF5BC203 
 173      07
 174 0227 A00396B8 		.ascii	"\240\003\226\270\335\214\251\316\243\235\336\252\367"
 174      DD8CA9CE 
 174      A39DDEAA 
 174      F7
 175 0234 910B7C0B 		.ascii	"\221\013|\013al\301wP\305\346@\243\004\262\307C\327"
 175      616CC177 
 175      50C5E640 
 175      A304B2C7 
 175      43D7
 176 0246 A6F4AA45 		.ascii	"\246\364\252E\243\3010B\226\360.s\354\017\014\241\017"
 176      A3C13042 
 176      96F02E73 
 176      EC0F0CA1 
 176      0F
 177 0257 66B7848F 		.ascii	"f\267\204\217QAo\340\241\000}\207o.\3048\225\342\207"
 177      51416FE0 
 177      A1007D87 
 177      6F2EC438 
 177      95E287
 178 026a 101E27AB 		.ascii	"\020\036'\253\257nsc)\325\206\304\272\250\234\203T\016"
 178      AF6E7363 
 178      29D586C4 
 178      BAA89C83 
 178      540E
 179 027c 0C6305EC 		.ascii	"\014c\005\354\022\324D\233c~JD\316\273\016\357\010\254"
 179      12D4449B 
 179      637E4A44 
 179      CEBB0EEF 
 179      08AC
 180 028e EB2151A2 		.ascii	"\353!Q\242\333\337n\373\302e\211\000S\027\214\300:\304"
 180      DBDF6EFB 
 180      C2658900 
 180      53178CC0 
ARM GAS  /tmp/ccbDpJFr.s 			page 14


 180      3AC4
 181 02a0 12204425 		.ascii	"\022 D%Mn\233\031w(\251\247'\022\231}\203\206\224;\260"
 181      4D6E9B19 
 181      7728A9A7 
 181      2712997D 
 181      8386943B 
 182 02b5 72B025F6 		.ascii	"r\260%\366\020*\211x6\003\265\277\036k\234-U\215\323"
 182      102A8978 
 182      3603B5BF 
 182      1E6B9C2D 
 182      558DD3
 183 02c8 B160793F 		.ascii	"\261`y?\316\005k(\022TKkLH\375\377O\266\303v6\004O\317"
 183      CE056B28 
 183      12544B6B 
 183      4C48FDFF 
 183      4FB6C376 
 184 02e0 0EBE2AE3 		.ascii	"\016\276*\343\321\230\313L\232TP\306%\243\211\202]\001"
 184      D198CB4C 
 184      9A5450C6 
 184      25A38982 
 184      5D01
 185 02f2 7367DDF5 		.ascii	"sg\335\365\275\257\250\252\260C\005\312Z\323\002v_\036"
 185      BDAFA8AA 
 185      B04305CA 
 185      5AD30276 
 185      5F1E
 186 0304 AF67AFA1 		.ascii	"\257g\257\241z\313\341\210\024\225\336e\020\2050\306"
 186      7ACBE188 
 186      1495DE65 
 186      108530C6 
 187 0314 A22807E3 		.ascii	"\242(\007\343\327\006\035*\266'\235\331\320\340\250"
 187      D7061D2A 
 187      B6279DD9 
 187      D0E0A8
 188 0323 0C239F85 		.ascii	"\014#\237\205Q\034\007\2141_\177R\250\020^\214\"\243"
 188      511C078C 
 188      315F7F52 
 188      A8105E8C 
 188      22A3
 189 0335 CEE42983 		.ascii	"\316\344)\203/\275\230\307dLA1\277_\031\323o\312\031"
 189      2FBD98C7 
 189      644C4131 
 189      BF5F19D3 
 189      6FCA19
 190 0348 3277DA13 		.ascii	"2w\332\023\035\220i\374\312\351ee\013\242\031;\312e"
 190      1D9069FC 
 190      CAE96565 
 190      0BA2193B 
 190      CA65
 191 035a 37F15142 		.ascii	"7\361QB\013\3119f\3063\225\003\220\005\257y\300\235"
 191      0BC93966 
 191      C6339503 
 191      9005AF79 
 191      C09D
 192 036c CE712910 		.ascii	"\316q)\020#\027r\261\345\016\326\032\022sP\027\035\216"
 192      231772B1 
 192      E50ED61A 
ARM GAS  /tmp/ccbDpJFr.s 			page 15


 192      12735017 
 192      1D8E
 193 037e F1D5273A 		.ascii	"\361\325':\270Ll\341\0079\321!\254\006\303Y\"$y\016"
 193      B84C6CE1 
 193      0739D121 
 193      AC06C359 
 193      2224790E 
 194 0392 FC316F97 		.ascii	"\3741o\227\271&m%4\3701E\367\270\244k\266\333\34420"
 194      B9266D25 
 194      34F83145 
 194      F7B8A46B 
 194      B6DBE432 
 195 03a7 D07FD357 		.ascii	"\320\177\323W\203\237RQ\177&}3\344H9Yb\275\240\3216"
 195      839F5251 
 195      7F267D33 
 195      E4483959 
 195      62BDA0D1 
 196 03bc 77B7E63C 		.ascii	"w\267\346<\334\014\274\253\263\246l\311~\342\011\354"
 196      DC0CBCAB 
 196      B3A66CC9 
 196      7EE209EC 
 197 03cc 4F3CC03E 		.ascii	"O<\300>\250\330\233\355u\347\373^P!3\345\275\340}\015"
 197      A8D89BED 
 197      75E7FB5E 
 197      502133E5 
 197      BDE07D0D 
 198 03e0 7A697833 		.ascii	"zix3\325\360^,Q>Yv\346\244\317\000\351\224\245\332x"
 198      D5F05E2C 
 198      513E5976 
 198      E6A4CF00 
 198      E994A5DA 
 199 03f5 67975B39 		.ascii	"g\227[9e\247701\311U#\256'\261\203\310\300\360>\266"
 199      65A73730 
 199      31C95523 
 199      AE27B183 
 199      C8C0F03E 
 200 040a FE53B27E 		.ascii	"\376S\262~,3\033s&\325\213\337I\316\376\332\364\322"
 200      2C331B73 
 200      26D58BDF 
 200      49CEFEDA 
 200      F4D2
 201 041c 8EA5D29E 		.ascii	"\216\245\322\236\266\205\253\273l\017@\016F\261\371"
 201      B685ABBB 
 201      6C0F400E 
 201      46B1F9
 202 042b B4CC0457 		.ascii	"\264\314\004WhG/8#\370\350\300\277\244\264\033'\355"
 202      68472F38 
 202      23F8E8C0 
 202      BFA4B41B 
 202      27ED
 203 043d 72A43A2E 		.ascii	"r\244:.6[(\325\211?A\2353\253\315f|!\311./=v\023)vg"
 203      365B28D5 
 203      893F419D 
 203      33ABCD66 
 203      7C21C92E 
 204 0458 D553F8EF 		.ascii	"\325S\370\357\211\234K\0219OD\362$\021\267|\257\315"
 204      899C4B11 
ARM GAS  /tmp/ccbDpJFr.s 			page 16


 204      394F44F2 
 204      2411B77C 
 204      AFCD
 205 046a 416D3411 		.ascii	"Am4\021\203G\376o \012&S\377\033\277\343\033w\261\321"
 205      8347FE6F 
 205      200A2653 
 205      FF1BBFE3 
 205      1B77B1D1 
 206 047e 6FCF2CCD 		.ascii	"o\317,\315\353\015|{a d\234_R\022V\237w*\361\263\251"
 206      EB0D7C7B 
 206      6120649C 
 206      5F521256 
 206      9F772AF1 
 207 0494 A2345CB9 		.ascii	"\2424\\\271\245,\\\2661R\021)\257,)c<\022\341\245\021"
 207      A52C5CB6 
 207      31521129 
 207      AF2C2963 
 207      3C12E1A5 
 208 04a9 D8CC2B5F 		.ascii	"\330\314+_\342\225/>\363O\367\212\315e\233\336\335P"
 208      E2952F3E 
 208      F34FF78A 
 208      CD659BDE 
 208      DD50
 209 04bb 7E1FB291 		.ascii	"~\037\262\221\375\015i\262\353\375"
 209      FD0D69B2 
 209      EBFD
 210              		.text
 211              		.section	.gnu.lto_chPipeWriteTimeout.part.2.4485afbff6cbd2a9,"",%progbits
 212 0000 789C9556 		.ascii	"x\234\225VmlSU\030>\3579\267\367\366cm\207\337$\030"
 212      6D6C5355 
 212      183EEF39 
 212      B7F7F663 
 212      6D87DF24 
 213 0015 4B4C5D88 		.ascii	"KL]\210\262\232\250Y\"\177D\376\310\217\031\003\277"
 213      B29AA859 
 213      227F44FE 
 213      C88F1903 
 213      BF
 214 0026 0981D240 		.ascii	"\011\201\322@\023\2726\3550\360\303\354n]\007\0045|"
 214      13BA36ED 
 214      30F0C3EC 
 214      6E5D0704 
 214      357C
 215 0038 8F097341 		.ascii	"\217\011sA\201\015alCE'2\312\370t\203M6p@A`0D2\220M"
 215      810D616C 
 215      43452732 
 215      CAF87483 
 215      4D367040 
 216 0053 10818CFA 		.ascii	"\020\201\214\372\276\347\266\333hG\324\233\256\367\236"
 216      BEE7B6DB 
 216      6847D49B 
 216      AEF79E
 217 0062 FB3ECF7B 		.ascii	"\373>\317{\336\217\347=\235\302\200\321u\307\314X?\336"
 217      DE8FE73D 
 217      9DC280D1 
 217      75C7CC58 
 217      3FDE
ARM GAS  /tmp/ccbDpJFr.s 			page 17


 218 0074 4BF10F6C 		.ascii	"K\361\017l\014\254+;\360\301\012\\\3369ht/5\013\256"
 218      0CAC2B3B 
 218      F0C10A5C 
 218      DE396874 
 218      2F350BAE 
 219 0088 2CCB63BA 		.ascii	",\313c\272\325D\3379\0127\267\012\\\251\035m\014\227"
 219      D544DF39 
 219      0A37B70A 
 219      5CA91D6D 
 219      0C97
 220 009a 26500D94 		.ascii	"&P\015\224j\300\247j\\H\213U\302r\314`1\354\026\000"
 220      6AC0A76A 
 220      5C488B55 
 220      C272CC60 
 220      31EC1600 
 221 00ae 7AD0CDC0 		.ascii	"z\320\315\300J\254\\(&U\303w%\\c\306u\227\017q8Y\336"
 221      4AAC5C28 
 221      2655C377 
 221      255C63C6 
 221      75970F71 
 222 00c5 B849DCE1 		.ascii	"\270I\334\3411\301@\301\345\300\211\317\2568h\011\340"
 222      31C140C1 
 222      E5C089CF 
 222      AE386809 
 222      E0
 223 00d6 C2E546BD 		.ascii	"\302\345F\275k\2716\251V\327\313\364K\207w\274\273*"
 223      6BB936A9 
 223      56D7CBF4 
 223      4B8777BC 
 223      BB2A
 224 00e8 1A7B2F26 		.ascii	"\032{/&8Kr\006u0\001ja\002%\262\035&!\366\363O\356\236"
 224      384B7206 
 224      7530016A 
 224      610225B2 
 224      1D2621F6 
 225 0100 E5E26560 		.ascii	"\345\342e`\370|\247ni-\344m%\236^\351\323-1!\340+\020"
 225      F87CA76E 
 225      692DE46D 
 225      259E5EE9 
 225      D32D3121 
 226 0117 A379F88A 		.ascii	"\243y\370\212\301\016\310C\364\303\025\247\327[\304"
 226      C10EC843 
 226      F4C315A7 
 226      D75BC4
 227 0126 2B9259BA 		.ascii	"+\222Y\272uO\015O1/H\246\002;3\231\012\203z\311\034"
 227      754F0D4F 
 227      312F48A6 
 227      023B3399 
 227      0A837AC9 
 228 013b D2D7AE77 		.ascii	"\322\327\256w\210I\222Y\325\272.a7\230\361\213\253\335"
 228      88499259 
 228      D5BA2E61 
 228      3798F18B 
 228      ABDD
 229 014d 557A5CC1 		.ascii	"Uz\\\301XaW&\031\027\015\222|\376\323\265}\016\361\252"
 229      58615726 
 229      19170D92 
ARM GAS  /tmp/ccbDpJFr.s 			page 18


 229      7CFED3B5 
 229      7D0EF1AA 
 230 0161 240FB6DC 		.ascii	"$\017\266\334\2520\247\266\355\221\333\232\2401\223"
 230      AA30A7B6 
 230      ED91DB9A 
 230      A03193
 231 0170 6962D004 		.ascii	"ib\320\004y\004_u\244o\247E\274!\251_\264\266?\264\273"
 231      79045F75 
 231      A46FA745 
 231      BC21A95F 
 231      B4B63FB4 
 232 0185 BF94FB0E 		.ascii	"\277\224\373\016\254\266\343\276\345.\332x\367\343t"
 232      ACB6E3BE 
 232      E52EDA78 
 232      F7E374
 233 0194 BA10DDDB 		.ascii	"\272\020\335\333\364h\235]-\327\361r\301\327\340\246"
 233      F4689D5D 
 233      2DD7F172 
 233      C1D7E0A6 
 234 01a4 5A6209BF 		.ascii	"Zb\011\277\001\025\025\242,\027\2049\336\330\334\243"
 234      011515A2 
 234      2C178439 
 234      DED8DCA3 
 235 01b4 8802E97D 		.ascii	"\210\002\351}\335\203\236\3156\362\256\353\361\246n"
 235      DD839ECD 
 235      36F2AEEB 
 235      F1A66E
 236 01c3 47CABB0A 		.ascii	"G\312\273\012\337f{\207=\340FF\375\315?7\0131E\262\227"
 236      DF667B87 
 236      3DE04646 
 236      FDCD3F37 
 236      0B3145B2 
 237 01d8 47B75DE3 		.ascii	"G\267]\343\251\330\252\3268\206c\373n\014\366\367\340"
 237      A9D8AAD6 
 237      388663FB 
 237      6E0CF6F7 
 237      E0
 238 01e9 A6801A66 		.ascii	"\246\200\032f\350z2\031\325W&\363\340E\000j\021\307"
 238      E87A3219 
 238      D55726F3 
 238      E045006A 
 238      11C7
 239 01fb DC35216B 		.ascii	"\3345!k\256\310\342\231$Z\305\327f\015\250&f\271\271"
 239      AEC8E299 
 239      245AC5D7 
 239      660DA826 
 239      66B9B9
 240 020e 451AAD12 		.ascii	"E\032\255\022h#c\016\320\013;\025\335A_Ni\312\225\260"
 240      6823630E 
 240      D00B3B15 
 240      DD415F4E 
 240      69CA95B0 
 241 0222 7140CF8C 		.ascii	"q@\317\214\335\306\374\253Lx\263\342M\014pN\267kP\366"
 241      DDC6FCAB 
 241      4C78B3E2 
 241      4D0C704E 
 241      B76B50F6 
ARM GAS  /tmp/ccbDpJFr.s 			page 19


 242 0236 6069C771 		.ascii	"`i\307q\225\352\022\025\244\323\365\261\326N\215\204"
 242      95EA1215 
 242      A4D3F5B1 
 242      D64E8D84 
 243 0246 296462F7 		.ascii	")db\367\216\266-\313\251\201\352R\254KnLX\242(\330f"
 243      8EB62DCB 
 243      A981EA52 
 243      AC4B6E4C 
 243      58A228D8 
 244 025b CA046D5B 		.ascii	"\312\004m[\257\226\355\322<\223c\302\012?@\015<\342"
 244      AF96EDD2 
 244      3C9363C2 
 244      0A3F400D 
 244      3CE2
 245 026d A9D227B6 		.ascii	"\251\322'\266\034\330b+\371\010s\201\275\340\301\214"
 245      1CD8622B 
 245      F9087381 
 245      BDE0C18C 
 246 027d 7F841276 		.ascii	"\177\204\022v\035\024\332\204\354\315\315\375\011\255"
 246      1D14DA84 
 246      ECCDCDFD 
 246      09AD
 247 028b 64485F26 		.ascii	"dH_&]\332\222\034;\002\373\020\203\021\304D\016:\031"
 247      5DDA921C 
 247      3B02FB10 
 247      8311C444 
 247      0E3A19
 248 029e E082E1A8 		.ascii	"\340\202\341\250\211\353P\021\257^c\317l'\326Dv\022"
 248      89EB5011 
 248      AF5E63CF 
 248      6C27D644 
 248      7612
 249 02b0 692D14B7 		.ascii	"i-\024\267)\313\251=\211\3711\330/\235BT\210\250@\221"
 249      29CBA93D 
 249      89F931D8 
 249      2F9D4254 
 249      88A84091 
 250 02c4 3A582FCE 		.ascii	":X/\316>R\310\003\322\330e(?\027\335\277\355\205\021"
 250      3E52C803 
 250      D2D86528 
 250      3F17DDBF 
 250      ED8511
 251 02d7 37C3E963 		.ascii	"7\303\351cP\020O\265l\200+\254\326-z\241,W\346\335\326"
 251      50104FB5 
 251      6C802BAC 
 251      D62D7AA1 
 251      2C57E6DD 
 252 02ec B5DF26DE 		.ascii	"\265\337&\3361\006pCS\235\305h\374\245\246\212YUg\256"
 252      31067043 
 252      539DC568 
 252      FCA5A68A 
 252      595567AE 
 253 0300 EAFA6A1D 		.ascii	"\352\372j\035b\302\011\007\306\350}\253T\316\322\337"
 253      62C20907 
 253      C6E87DAB 
 253      54CED2DF 
 254 0310 F57D0A6D 		.ascii	"\365}\012m\342\004\027\034D\333oP\326{\341\350\255\202"
ARM GAS  /tmp/ccbDpJFr.s 			page 20


 254      E204171C 
 254      44DB6F50 
 254      D67BE1E8 
 254      AD82
 255 0322 CC44F750 		.ascii	"\314D\367P\242-\224\350\343\226\370\212\233\305\014"
 255      A22D94E8 
 255      E396F88A 
 255      9BC50C
 256 0331 0E819AE4 		.ascii	"\016\201\232\344\"\323T[\331\016o18LF%\323x\371\343"
 256      22D3545B 
 256      D90E6F31 
 256      384C4625 
 256      D378F9E3 
 257 0345 36184F51 		.ascii	"6\030OQ08B\000S\346\25008*\353z\214\346\004\330I\240"
 257      30384200 
 257      53E6A830 
 257      382AEB7A 
 257      8CE604D8 
 258 035b C1ABD9FD 		.ascii	"\301\253\331\375\267ub/\324\350\033P\324\262\004\365"
 258      B775622F 
 258      D4E81B50 
 258      D4B204F5 
 259 036b 57F6EA66 		.ascii	"W\366\352f\205J\374\023L\224\321\335\356?\225\340\370"
 259      854AFC13 
 259      4C94D1DD 
 259      EE3F95E0 
 259      F8
 260 037c 06DAB0D1 		.ascii	"\006\332\260\321\224\023\203vy\322\325\265\034\354\313"
 260      94138376 
 260      79D2D5B5 
 260      1CECCB
 261 038b 99D89762 		.ascii	"\231\330\227b\217\223\207\300\256\335\247m\222}\234"
 261      8F9387C0 
 261      AEDDA76D 
 261      927D9C
 262 039a D8700214 		.ascii	"\330p\002\024\352\214,\017cR\223\225\211\355\032%\030"
 262      EA8C2C0F 
 262      63529395 
 262      89ED1A25 
 262      18
 263 03ab 15EA7F52 		.ascii	"\025\352\177Ra=E\257o\304\302?\005\035R\2140Z\214C\322"
 263      613D45AF 
 263      6FC4C23F 
 263      051D528C 
 263      305A8C43 
 264 03c0 3C054705 		.ascii	"<\005G\005:\245$\177\226\222\214\351\005\306&\346,\005"
 264      3AA5247F 
 264      96928CE9 
 264      05C626E6 
 264      2C05
 265 03d2 3D9DE454 		.ascii	"=\235\344T\207\223RA\210\320b\342\031)\037\304S_\220"
 265      87935241 
 265      88D062E2 
 265      19291FC4 
 265      535F90
 266 03e5 C3D28278 		.ascii	"\303\322\202x\\\004\213\376M\004]R\004\303Jsb\241\273"
 266      5C048BFE 
ARM GAS  /tmp/ccbDpJFr.s 			page 21


 266      4D045D52 
 266      04C34A73 
 266      62A1BB
 267 03f8 9F2882F8 		.ascii	"\237(\202\370\212[\351Vk\331\315:5\2066j+\037\220\000"
 267      8A5BE956 
 267      6BD9CD3A 
 267      3586366A 
 267      2B1F9000 
 268 040c 4E13C59C 		.ascii	"N\023\305\234-\200\233(\200.\022\300/O\020@\217\024"
 268      2D809B28 
 268      802E12C0 
 268      2F4F1040 
 268      8F14
 269 041e C0995102 		.ascii	"\300\231Q\002xTs\271\305\226\356m\267\354\355Y\331\333"
 269      785473B9 
 269      C596EE6D 
 269      B7ECED59 
 269      D9DB
 270 0430 CC469E4B 		.ascii	"\314F\236K7\2226\240\351J\034l\377c\213\030\251qC\177"
 270      379236A0 
 270      E94A1C6C 
 270      FF638B18 
 270      A971437F 
 271 0444 F37D3B25 		.ascii	"\363};%\375,:O\014\217\227\211\306\353\032D7T\364\276"
 271      FD2C3A4F 
 271      0C8F9789 
 271      C6EB1A44 
 271      3754F4BE 
 272 0458 6FCC22B6 		.ascii	"o\314\"\266X\241\011M\017,\036d\370\022\265\021\335"
 272      58A1094D 
 272      0F2C1E64 
 272      F812B511 
 272      DD
 273 0469 54712385 		.ascii	"Tq#\205\261\312\271\036\301\324\023\306j\350\347H\247"
 273      B1CAB91E 
 273      C1D413C6 
 273      6AE8E748 
 273      A7
 274 047a C300D9FE 		.ascii	"\303\000\331\376\207|f\221z\316K\365\360l\3658I=\027"
 274      877C6691 
 274      7ACE4BF5 
 274      F06CF538 
 274      493D17
 275 048d A47A7E95 		.ascii	"\244z~\225\3521\311\321\314R\316sInA\314E\251\034\033"
 275      EA31C9D1 
 275      CC52CE73 
 275      496E41CC 
 275      45A91C1B 
 276 04a1 651913CF 		.ascii	"e\031\023\317\3134Uv\357\030\023l\020\234\030\271\202"
 276      CB345576 
 276      EF18136C 
 276      109C18B9 
 276      82
 277 04b2 C792D574 		.ascii	"\307\222\325t\276\332?\010\271\230,--\246C\325\2008"
 277      BEDA3F08 
 277      B9982C2D 
 277      2DA643D5 
ARM GAS  /tmp/ccbDpJFr.s 			page 22


 277      8038
 278 04c4 8DE1FF13 		.ascii	"\215\341\377\023\306qc$\256\030R32\024\262\260\321\206"
 278      C6716324 
 278      AE185233 
 278      3214B2B0 
 278      D186
 279 04d6 6DE38D53 		.ascii	"m\343\215S[I\237S\203\200\345\030\307\321\221S\205A"
 279      5B499F53 
 279      8380E518 
 279      C7D19153 
 279      8541
 280 04e8 C0FAE5D0 		.ascii	"\300\372\345\320\"W%\237f:\356\257Cy\374~7<\361 \266"
 280      2257259F 
 280      663AEEAF 
 280      4379FC7E 
 280      373CF120 
 281 04fd 62DC9746 		.ascii	"b\334\227F\016b\331\221\277:\3374\366\261\243?\012\205"
 281      0E62D991 
 281      BF3ADF34 
 281      F6B1A33F 
 281      0A85
 282 050f 32B190B7 		.ascii	"2\261\220\267\033\024S\024OU\332\332\201\0003\375\312"
 282      1B145314 
 282      4F55DADA 
 282      810033FD 
 282      CA
 283 0520 009AB07A 		.ascii	"\000\232\260z\256\374|\217\361\011F\360\263\320?\327"
 283      AEFC7C8F 
 283      F10946F0 
 283      B3D03FD7 
 284 0530 13097B3D 		.ascii	"\023\011{=\336\005!\177\310\027\311\3672\036\012\361"
 284      DE05217F 
 284      C817C9F7 
 284      321E0AF1 
 285 0540 B92128D2 		.ascii	"\271!(\322\212\375\001_pQ\261\010\314Y,\002\221\371"
 285      8AFD015F 
 285      7051B108 
 285      CC592C02 
 285      91F9
 286 0552 CABC6091 		.ascii	"\312\274`\221O\233;'\342\373 \354\237<\332\2137\030"
 286      4F9B3B27 
 286      E2FB20EC 
 286      9F3CDA8B 
 286      3718
 287 0564 08048B3C 		.ascii	"\010\004\213<\241`\2708\342\231:\243pZ\341b\364\347"
 287      A160B838 
 287      E2993AA3 
 287      705AE162 
 287      F4E7
 288 0576 0D867DB3 		.ascii	"\015\206}\263?,\010\344/`o\217\201\366-.&\254gZ\341"
 288      3F2C08E4 
 288      2F606F8F 
 288      81F62D2E 
 288      26AC675A 
 289 058b CCE9333D 		.ascii	"\314\3513=\323\020\354\231^\344]\270h\236\317\343\015"
 289      D310EC99 
 289      5EE45DB8 
ARM GAS  /tmp/ccbDpJFr.s 			page 23


 289      689ECFE3 
 289      0D
 290 059c 44FC91D9 		.ascii	"D\374\221\331\363\275^\244\2764\232\032.\366\370\323"
 290      F3BD5EA4 
 290      BE349A1A 
 290      2EF6F8D3 
 291 05ac 98059125 		.ascii	"\230\005\221%\021\264\347\026\316\234\341\242\240Ba"
 291      11B4E716 
 291      CE9CE1A2 
 291      A04261
 292 05bb FF6B2EF7 		.ascii	"\377k.\367\353\214\207\231\026\360\005\202\341%\354"
 292      EB8C8799 
 292      16F00582 
 292      E125EC
 293 05ca 1F44CF2F 		.ascii	"\037D\317/:"
 293      3A
 294              		.text
 295              		.section	.gnu.lto_chPipeReadTimeout.part.3.4485afbff6cbd2a9,"",%progbits
 296 0000 789C9556 		.ascii	"x\234\225VoLSW\024\277\347\336\327\276\376/\356\277"
 296      6F4C5357 
 296      14BFE7DE 
 296      D7BEFE2F 
 296      EEBF
 297 0012 89CB6A36 		.ascii	"\211\313j6F\314&]2\027\222\371e\316/\363\003\311\242"
 297      46CC265D 
 297      321792F9 
 297      65CE2FF3 
 297      03C9A2
 298 0025 9F9DD1DA 		.ascii	"\237\235\321\332h\023K\233\026\026\375\260\360\240\024"
 298      68134B9B 
 298      1616FDB0 
 298      F0A014
 299 0034 356E8B2E 		.ascii	"5n\213.\0022\335\032\247\0146\005D77\346\300\212\233"
 299      0232DD1A 
 299      A70C3605 
 299      443737E6 
 299      C08A9B
 300 0047 3A509C28 		.ascii	":P\234(\242\202SQ\234sh\0041n\032\350\316\271\257\005"
 300      A2825351 
 300      9C736804 
 300      316E1AE8 
 300      CEB9AF05 
 301 005b 6C31DB5E 		.ascii	"l1\333^J\337\273\357\374~\347\236?\277s\213\302\200"
 301      4ADFBBEF 
 301      FC7EE79E 
 301      3FBF738B 
 301      C280
 302 006d D1356262 		.ascii	"\3215bbl\020\357%\370\007V\006\226\215\235\370`\001"
 302      6C10EF25 
 302      F8075606 
 302      968D9DF8 
 302      6001
 303 007f 2EEF1C54 		.ascii	".\357\034T\272\227\230\004W\326\3450\315b\240o\233\302"
 303      BA979804 
 303      57D6E530 
 303      CD62A06F 
 303      9BC2
ARM GAS  /tmp/ccbDpJFr.s 			page 24


 304 0091 4D6D0257 		.ascii	"Mm\002W\306\316v\206K\003\030u\224Q\207\317S\271\220"
 304      C6CE7686 
 304      4B031875 
 304      945187CF 
 304      53B990
 305 00a4 168B84D9 		.ascii	"\026\213\204\331L`\326\355f\000z\320L\300\212-\\(\006"
 305      4C60D6ED 
 305      66007AD0 
 305      4CC08A2D 
 305      5C2806
 306 00b7 A38AEF8A 		.ascii	"\243\212\357\212\271\312\364\353\036\037\345p\252l\317"
 306      B9CAF4EB 
 306      1E1FE570 
 306      AA6CCF
 307 00c6 3631C2A3 		.ascii	"61\302\243\202\201\202\313\241\023\237^u\320\022\300"
 307      828182CB 
 307      A1139F5E 
 307      75D012C0 
 308 00d6 85CBAD5A 		.ascii	"\205\313\255Z\327zuV\255\246\225j\227\007\376|{S$\372"
 308      D77A7556 
 308      ADA6956A 
 308      9707FE7C 
 308      7B5324FA 
 309 00ea 4E547096 		.ascii	"NTp\226\340\014\352`\006\324\302\014J\344+\230\205\330"
 309      E00CEA60 
 309      06D4C20C 
 309      4AE42B98 
 309      85D8
 310 00fc CF3FBA77 		.ascii	"\317?\272w\236\213\027\201\341\363H\335\332Z\310\251"
 310      9E8B1781 
 310      E1F348DD 
 310      DA5AC8A9 
 311 010c 219E56E1 		.ascii	"!\236V\341\325\314Q!\340k\020\223y\370\212\301.\310"
 311      D5CC5121 
 311      E06B1093 
 311      79F88AC1 
 311      2EC8
 312 011e 41F4C30D 		.ascii	"A\364\303\015\335\225f\361\262d\226\324\354\217\361"
 312      DD9566F1 
 312      B26496D4 
 312      EC8FF1
 313 012d 24F3A064 		.ascii	"$\363\240d*\260;\235\2510\250\227\314Qms\245C\314\222"
 313      2AB03B9D 
 313      A930A897 
 313      CC516D73 
 313      A543CC92 
 314 0141 CCEAB68A 		.ascii	"\314\352\266\212^\273\316\214\017\235}\251Z\213+\030"
 314      5EBBCE8C 
 314      0F9D7DA9 
 314      5A8B2B18 
 315 0151 2B34A493 		.ascii	"+4\244\223q\321(\311}\037o\036p\210W$y\270\365v\271"
 315      71D128C9 
 315      7D1F6F1E 
 315      70885724 
 315      79B8F576 
 316 0166 29B96DB7 		.ascii	")\271m\267\334\326\000{\322\231\006\006M\220C\360MG"
 316      DCD6007B 
ARM GAS  /tmp/ccbDpJFr.s 			page 25


 316      D2990606 
 316      4D9043F0 
 316      4D47
 317 0178 06769BC5 		.ascii	"\006v\233\305\353\222\372E[\307C{\366\016\271\357\335"
 317      EB92FA45 
 317      5BC7437B 
 317      F60EB9EF 
 317      DD
 318 0189 4A3BEE5B 		.ascii	"J;\356[\346\242\215\367>J\247\013\321\375Mc\025vc\231"
 318      E6A28DF7 
 318      3E4AA70B 
 318      D1FD4D63 
 318      15766399 
 319 019d 86970BF6 		.ascii	"\206\227\013\366A6\325\022K\370\015\030Q!\312zA\230"
 319      4136D512 
 319      4BF80D18 
 319      5121CA7A 
 319      4198
 320 01af E37B9A7B 		.ascii	"\343{\232{\024\221'\275W<\350\331n%\357\232\026\337"
 320      149127BD 
 320      573CE8D9 
 320      6E25EF9A 
 320      16DF
 321 01c1 D7E3487A 		.ascii	"\327\343Hz7\302\267\231\336a?d#\243\376\326\335\355"
 321      37C2B799 
 321      DE613F64 
 321      23A3FED6 
 321      DDED
 322 01d3 42CC95EC 		.ascii	"B\314\225\354\365\221/\257\363dl[\253\034\343\261}7"
 322      F5912FAF 
 322      F3646C5B 
 322      AB1CE3B1 
 322      7D37
 323 01e5 05FB7BC8 		.ascii	"\005\373{\310\246\200\032\027jZ\"\021\3216\356\230\003"
 323      A6801A17 
 323      6A5A2211 
 323      D136EE98 
 323      03
 324 01f6 CF03508B 		.ascii	"\317\003P\2138\346\256\012YsE\026\317 \321F|mR\201j"
 324      38E6AE0A 
 324      59734516 
 324      CF20D146 
 324      7C6D5281 
 325 020b 62929B9B 		.ascii	"b\222\233\233\245\321\"\201V2\332\200^\330\251\350\016"
 325      A5D12281 
 325      5632DA80 
 325      5ED8A9E8 
 325      0E
 326 021c FA724A53 		.ascii	"\372rJS\226\204M\003zf\354\016\346_m\300\233\005ob\210"
 326      96844D03 
 326      7A66EC0E 
 326      E65F6DC0 
 326      9B056F62 
 327 0231 73BA5D87 		.ascii	"s\272]\207\322\007k\317\366\031\251.\021A:\255\214\266"
 327      D2076BCF 
 327      F619A92E 
 327      11413AAD 
ARM GAS  /tmp/ccbDpJFr.s 			page 26


 327      8CB6
 328 0243 9D544998 		.ascii	"\235TI\230B&v\377h\373:[\014>+\301\272dE\2059\202\202"
 328      422676FF 
 328      68FB3A5B 
 328      0C3E2BC1 
 328      BA644585 
 329 025a 6DA64CD0 		.ascii	"m\246L\320Vs\255\264Au\317\216\012\013\374\0001\030"
 329      5673ADB4 
 329      4175CF8E 
 329      0A0BFC00 
 329      3118
 330 026c E3C9D2F7 		.ascii	"\343\311\322\367\356<\264\323Z\374\001\346\002\007\300"
 330      EE3CB4D3 
 330      5AFC01E6 
 330      0207C0
 331 027b 8D19FF08 		.ascii	"\215\031\377\010\305\354\006(\264\011\331\233\233\007"
 331      C5EC0628 
 331      B409D99B 
 331      9B07
 332 0289 7BD5E251 		.ascii	"{\325\342Qm\235tiMp\354\010\264 \006#\210\012\033:\031"
 332      6D9D7469 
 332      4D70EC08 
 332      B4200623 
 332      880A1B3A 
 333 029e E282E1A8 		.ascii	"\342\202\341\250\211\033P\036\217U\331\323\333\2115"
 333      891B501E 
 333      8F55D9D3 
 333      DB8935
 334 02ad 919D445A 		.ascii	"\221\235DZ+\305m\310pjO`~\014\016J\247\020\021\"\"P"
 334      2BC56DC8 
 334      706A4F60 
 334      7E0C0E4A 
 334      A7101122 
 335 02c3 A40ED68F 		.ascii	"\244\016\326\217\263\217\024\362\2004v\005\312.D\256"
 335      B38F14F2 
 335      80347605 
 335      CA2E44AE 
 336 02d3 363C37E1 		.ascii	"6<7\341f<}\014\012\342\311\226\015q\205\325f\213~(\315"
 336      663C7D0C 
 336      0AE2C996 
 336      0D7185D5 
 336      668B7E28 
 337 02e8 9279B777 		.ascii	"\222y\267w\035\264\212\267\364\001\334\322Tg\326\033"
 337      1DB48AB7 
 337      F401DCD2 
 337      5467D61B 
 338 02f8 7FB9A97C 		.ascii	"\177\271\251|q\365\271k\232\366\211\006Q\341\204CS\364"
 338      71F5B96B 
 338      9AF68906 
 338      51E18443 
 338      53F4
 339 030a BE4D2A67 		.ascii	"\276M*g\355\037Z\213B\2338\301\005\207\321\366;\224"
 339      ED1F5A8B 
 339      429B38C1 
 339      0587D1F6 
 339      3B94
 340 031c F65F3C7A 		.ascii	"\366_<z;/=\321\375\224h+%\372\250%\336q\253\210\301"
ARM GAS  /tmp/ccbDpJFr.s 			page 27


 340      3B2F3DD1 
 340      FD94682B 
 340      25FAA825 
 340      DE71AB88 
 341 0331 4F604C70 		.ascii	"O`Lp\221n\252\255\352\2007\030\374LF%\335x\345\303v"
 341      916EAAAD 
 341      EA803718 
 341      FC4C4625 
 341      DD78E5C3 
 342 0346 984E5130 		.ascii	"\230NQ08B\000C\372\25008*\353z\214\346\004\330)\240"
 342      38420043 
 342      FAA83038 
 342      2AEB7A8C 
 342      E604D829 
 343 035b C18BEDFD 		.ascii	"\301\213\355\375\3132\263\037b\332\026\024\265,A\375"
 343      CB32B31F 
 343      62DA1614 
 343      B52C41FD 
 344 036b D5039A49 		.ascii	"\325\003\232I\241\022\377\0023etw\006\317\364r|\003"
 344      A112FF02 
 344      33657477 
 344      06CFF472 
 344      7C03
 345 037d EDD868CA 		.ascii	"\355\330h\312\211A\207<\351\352Z\017\017\330f\016$\331"
 345      8941873C 
 345      E9EA5A0F 
 345      0FD8660E 
 345      24D9
 346 038f D3E421D0 		.ascii	"\323\344!\320\260\267\333*\331\307\211\015'@\241\316"
 346      B0B7DB2A 
 346      D9C7890D 
 346      2740A1CE 
 347 039f C8F23026 		.ascii	"\310\3620&5Y\325\267K\245\004#\302\370\237TXO\321k["
 347      3559D5B7 
 347      4BA50423 
 347      C2F89F54 
 347      584FD16B 
 348 03b4 B1F04F40 		.ascii	"\261\360O@\247\024#L\026\343\2504\317\305Q\201\223R"
 348      A714234C 
 348      16E3A834 
 348      CFC55181 
 348      9352
 349 03c6 92BF4A49 		.ascii	"\222\277JIF\265<}\023S\206\202\236Lp\252\303)\251 D"
 349      46B53C7D 
 349      13538682 
 349      9E4C70AA 
 349      C329A920 
 350 03db A851F194 		.ascii	"\250Q\361\224\224\017\342\251/\310a)A<*\202\242\177"
 350      940FE2A9 
 350      2FC86129 
 350      413C2A82 
 350      A27F
 351 03ed 13419714 		.ascii	"\023A\227\024\301\270\322\234X\350\323\217\025A\274"
 351      C1B8D29C 
 351      58E8D38F 
 351      1541BC
 352 03fc E376AAD5 		.ascii	"\343v\252\325jf\263\316L\241\215\332\252\007$\200n\242"
ARM GAS  /tmp/ccbDpJFr.s 			page 28


 352      6A66B3CE 
 352      4CA18DDA 
 352      AA072480 
 352      6EA2
 353 040e 98320570 		.ascii	"\2302\005p\013\005\320E\0028\373\030\001\364H\001\234"
 353      0B05D045 
 353      0238FB18 
 353      01F44801 
 353      9C
 354 041f 9B2480B1 		.ascii	"\233$\200\261\330\225Vk\252\267\247eo\317\313\336\246"
 354      D895566B 
 354      AAB7A765 
 354      6FCFCBDE 
 354      A6
 355 0430 37F242AA 		.ascii	"7\362B\252\221\264\001MW\357\341\015#5b\242\306\215"
 355      91B4014D 
 355      57EFE10D 
 355      233562A2 
 355      C68D
 356 0442 83CD7FDB 		.ascii	"\203\315\177\333)\351\247\321y\357\370x\031h\274\256"
 356      29E9A7D1 
 356      79EFF878 
 356      1968BCAE 
 357 0452 43644BF9 		.ascii	"CdK\371\315\367\364Y\304\026+4\241\251\201\305\203\014"
 357      CDF7F459 
 357      C4162B34 
 357      A1A981C5 
 357      830C
 358 0464 5FA23622 		.ascii	"_\2426\"\333\312\207\223\030\213\234\353\011L=a,\272"
 358      DBCA8793 
 358      188B9CEB 
 358      094C3D61 
 358      2CBA
 359 0476 7E3A2F39 		.ascii	"~:/9t\220\365\177\310g1\251\247O\252\207g\252\307I\352"
 359      7490F57F 
 359      C86731A9 
 359      A74FAA87 
 359      67AAC749 
 360 048b B928D5F3 		.ascii	"\271(\325\363\233T\217A\216f\206r\236Ip3b.I\345X)\313"
 360      9B548F41 
 360      8E668672 
 360      9E497033 
 360      622E49E5 
 361 04a2 A87856A6 		.ascii	"\250xV\246id\367\2171\301\206\301\211\221+x,Y\014\203"
 361      6964F78F 
 361      31C186C1 
 361      89912B78 
 361      2C590C83 
 362 04b6 2DBE61C8 		.ascii	"-\276a\310\302dii6\234i\001\304\251\014\377\237\320"
 362      C2646969 
 362      369C6901 
 362      C4A90CFF 
 362      9FD0
 363 04c8 8F1B3D71 		.ascii	"\217\033=qE\227\232\236\241\220\205\215\354k\230\256"
 363      45979A9E 
 363      A190858D 
 363      EC6B98AE 
ARM GAS  /tmp/ccbDpJFr.s 			page 29


 364 04d8 9FDA4AEA 		.ascii	"\237\332J\352\234\032\006,\3074\216\216\234F\030\006"
 364      9C1A062C 
 364      C7348E8E 
 364      9C461806 
 365 04e8 AC9F8D16 		.ascii	"\254\237\215\026YF\362i\242\343\376\006\224\305\037"
 365      5946F269 
 365      A2E3FE06 
 365      94C51F
 366 04f7 F6C0630F 		.ascii	"\366\300c\017b\013\306}y\342 \226\035\031\2734G\337"
 366      620BC67D 
 366      79E22096 
 366      1D19BB34 
 366      47DF
 367 0509 C78EFE28 		.ascii	"\307\216\376(\024\312\304L\336nRL\021<Uik\007\002L\364"
 367      14CAC44C 
 367      DE6E524C 
 367      113C5569 
 367      6B07024C 
 368 051e 2B0368C2 		.ascii	"+\003h\302\352\271rs\335\372'\020\306\317*\3372w8\344"
 368      EAB97273 
 368      DDFA2710 
 368      C6CF2ADF 
 368      327738E4 
 369 0532 717B5606 		.ascii	"q{V\006}Ao8\327\303x0\310\227\005\241@-\364\371\275"
 369      7D416F38 
 369      D7C37830 
 369      C89705A1 
 369      402DF4F9 
 370 0547 81A242E1 		.ascii	"\201\242B\341_\272Z\370\303+\224\345\201\002\257\272"
 370      5FBA5AF8 
 370      C32B94E5 
 370      8102AFBA 
 371 0557 6C69D8FB 		.ascii	"li\330\373n\3107{\262\027O\300\357\017\024\270\203\201"
 371      6EC8377B 
 371      B2174FC0 
 371      EF0F14B8 
 371      8381
 372 0569 5061D83D 		.ascii	"Pa\330=oa\376\374\374\325\350\317\023\010y\227\274\237"
 372      6F61FEFC 
 372      FCD5E8CF 
 372      13087997 
 372      BC9F
 373 057b E7CF5DC9 		.ascii	"\347\317]\311\336\234\002\355]]HX\367\374\374E\013\026"
 373      DE9C02ED 
 373      5D5D4858 
 373      F7FCFC45 
 373      0B16
 374 058d B9E723D8 		.ascii	"\271\347#\330\275\240\300\263\252h\271\327\355\361\207"
 374      BDA0C0B3 
 374      AA68B9D7 
 374      EDF187
 375 059c 7DE1252B 		.ascii	"}\341%+<\036\244\2760\231\032*t\373R\230\225\3415a\264"
 375      3C1EA4BE 
 375      30991A2A 
 375      74FB5298 
 375      95E13561 
 376 05b1 67E52F5A 		.ascii	"g\345/Z\350\242\240\202!\337\253\256\354\327\030\017"
ARM GAS  /tmp/ccbDpJFr.s 			page 30


 376      E8A2A082 
 376      21DFABAE 
 376      ECD7180F 
 377 05c1 31D5EFF5 		.ascii	"1\325\357\365\007Bk\330?\023\3500\367"
 377      07426BD8 
 377      3F13E830 
 377      F7
 378              		.text
 379              		.section	.gnu.lto_chPipeObjectInit.4485afbff6cbd2a9,"",%progbits
 380 0000 789C9594 		.ascii	"x\234\225\224\355KSQ\034\307\317\367\236\273'ukH\357"
 380      ED4B5351 
 380      1CC7CFF7 
 380      9EBB2775 
 380      6B48EF
 381 0013 F2851034 		.ascii	"\362\205\0204,\362\342\353\376\207\210\376\004\315H"
 381      2CF2E2EB 
 381      FE8788FE 
 381      04CD48
 382 0022 881A492F 		.ascii	"\210\032I/c\307\315\233\366\"\010J!\261$P\264,\037z"
 382      63C7CD9B 
 382      F622084A 
 382      21B12450 
 382      B42C1F7A 
 383 0036 9E96CDF5 		.ascii	"\236\226\315\365`\371X/*\302\212\320\262\020_l0\223"
 383      60F9582F 
 383      2AC28AD0 
 383      B2105F6C 
 383      3093
 384 0048 8AB97EBF 		.ascii	"\212\271~\277\263\315J\011\266\303\335\271\367<\374"
 384      B3CD4A09 
 384      B6C3DDB9 
 384      F73CFC
 385 0057 3EE7737E 		.ascii	">\347s~\367\334\231\002\202\313y\207\020{\350\276\203"
 385      F7DC9902 
 385      82CB7987 
 385      107BE8BE 
 385      83
 386 0068 7E9002C6 		.ascii	"~\220\002\306\271Y!\232\334\006\300\017\312\015\021"
 386      B959219A 
 386      DC06C00F 
 386      CA0D11
 387 0077 3210C2AA 		.ascii	"2\020\302\252\2216\020oY\212\032U\275\212\312\247/_"
 387      9136106F 
 387      598A1A55 
 387      BD8ACAA7 
 387      2F5F
 388 0089 6B545F0C 		.ascii	"kT_\014\266\024\"ch\222@/\252h\326\253\346\241N\231"
 388      B6142263 
 388      6892402F 
 388      AA68D6AB 
 388      E6A14E99 
 389 009d 326C0998 		.ascii	"2l\011\230\324L\316t,\372\270i\240\222\232\227\317\256"
 389      D44CCE74 
 389      2CFAB869 
 389      A0929A97 
 389      CFAE
 390 00af BE33E44E 		.ascii	"\2763\344N\010zN\365\265\364\"\320\243TX\251\314!\345"
ARM GAS  /tmp/ccbDpJFr.s 			page 31


 390      087A4EF5 
 390      B5F422D0 
 390      A35458A9 
 390      CC21E5
 391 00c2 B1A5C435 		.ascii	"\261\245\3045H\342\341**\320\207\012A]\002\375\010\320"
 391      48E2E12A 
 391      2AD0870A 
 391      415D02FD 
 391      08D0
 392 00d4 ECFE547A 		.ascii	"\354\376Tz\312\224\273t\344\314\304\257ig.2Z\317\221"
 392      CA94BB74 
 392      E4CCC4AF 
 392      69672E32 
 392      5ACF91
 393 00e7 26AE6F8E 		.ascii	"&\256o\2164\005n\350\310\264\272\320\356\223\273u\344"
 393      34056EE8 
 393      C8B4BAD0 
 393      EE93BB75 
 393      E4
 394 00f8 C578DBBC 		.ascii	"\305x\333\2747\027\231\324\221\016\014l\216t\010\014"
 394      371799D4 
 394      910E0C6C 
 394      8E74080C 
 395 0108 22C0D317 		.ascii	"\"\300\323\027\206\327\333\274\316f\336r\345\231\374"
 395      86D7DBBC 
 395      CE66DE72 
 395      E599FC
 396 0117 5E310427 		.ascii	"^1\004'go\360`Le2\021\245\326j\306\002\333)e$J\273\246"
 396      676FF060 
 396      4C653211 
 396      A5D66AC6 
 396      02DB2965 
 397 012f 455D6080 		.ascii	"E]`\200\233%|T9\375\\\225s%D\202\020\234\333\244a\360"
 397      9B257C54 
 397      39FD5C95 
 397      73254482 
 397      109CDBA4 
 398 0145 5D2E21DC 		.ascii	"].!\334\221|\275(\231J+\266\333\3619\027\347Kj\337\265"
 398      917CBD28 
 398      994A2BB6 
 398      DBF13917 
 398      E74B6ADF 
 399 015a 89C9D6B2 		.ascii	"\211\311\326\262.\\jb\205R[\272\"\224\310a\262\344\301"
 399      2E5C6A62 
 399      85525BBA 
 399      2294C861 
 399      B2E4C1
 400 016d 9ECFE101 		.ascii	"\236\317\341\001\227\265\227w\177\023]X\327/\002\267"
 400      97B59777 
 400      7F135D58 
 400      D72F02B7 
 401 017d 6045286D 		.ascii	"`E(m\314\035~\263\301-\024t[\203x{\270\363\007\224,"
 401      CC1D7EB3 
 401      C12D1474 
 401      5B83787B 
 401      B8F30794 
 402 0192 1E745783 		.ascii	"\036tW\203t\276\356\345A\221\316\323\337G\0160(\"\335"
ARM GAS  /tmp/ccbDpJFr.s 			page 32


 402      74BEEEE5 
 402      4191CED3 
 402      DF470E30 
 402      2822DD
 403 01a5 D415912E 		.ascii	"\324\025\221.\306\267_\331V$\374\276\206K\206G\031\356"
 403      C6B75FD9 
 403      5624FCBE 
 403      864B8647 
 403      19EE
 404 01b7 664C2AF1 		.ascii	"fL*\361\266HK\007F4\310d\320(,\032\033\\\211\376\360"
 404      B6484B07 
 404      4634C864 
 404      D0282C1A 
 404      1B5C89FE 
 405 01cc 72FEE9E8 		.ascii	"r\376\351\350\343\001\0050x\350}\221`\017\036j\260\203"
 405      E3010530 
 405      78E87D91 
 405      600F1E6A 
 405      B083
 406 01de C1631ABC 		.ascii	"\301c\032\274\361b=\004~\224\003'\212\005\227 \246\301"
 406      F1623D04 
 406      7E940327 
 406      8A059720 
 406      A6C1
 407 01f0 4E068FFF 		.ascii	"N\006\217\377\013.!p<o\374\241h\360c\015v1\370\011\254"
 407      0B2E2170 
 407      3C6FFCA1 
 407      68F0630D 
 407      7631F809 
 408 0205 3CE967CB 		.ascii	"<\351g\313\307Qg\366\215\371\376\202\341\177\234R<\325"
 408      C75167F6 
 408      8DF9FE82 
 408      E17F9C52 
 408      3CD5
 409 0217 1CB7D0FD 		.ascii	"\034\267\320\375\363\335\343\335\245\241St\362\361\014"
 409      F3DDE3DD 
 409      A5A15374 
 409      F2F10C
 410 0226 16A12710 		.ascii	"\026\241'\020\022\337`2\221\307\243\321\225yW(\255Z"
 410      12DF6032 
 410      91C7A3D1 
 410      95795728 
 410      AD5A
 411 0238 95F2DBB2 		.ascii	"\225\362\333\262,\303'\017\317i\016-gKo\326`a_V\300"
 411      2CC3270F 
 411      CF690E2D 
 411      674B6FD6 
 411      60615F56 
 412 024d 5F98C00B 		.ascii	"_\230\300\013-\340\331\"0\251\005\246\012\020\230\326"
 412      2DE0D922 
 412      30A905A6 
 412      0A1098D6 
 413 025d 02FE0D81 		.ascii	"\002\376\015\201\345\234@ya\0023Z\240d\213\300\254\026"
 413      E59C4079 
 413      6102335A 
 413      A0648BC0 
 413      AC16
ARM GAS  /tmp/ccbDpJFr.s 			page 33


 414 026f 982B40E0 		.ascii	"\230+@\340\245\026(g\201e\204c\351\375z6\227\004\215"
 414      A5162867 
 414      81658463 
 414      E9FD7A36 
 414      97048D
 415 0282 D3DF067D 		.ascii	"\323\337\006}W\225\325\325V\366:\336H\327\321\206Z\253"
 415      5795D5D5 
 415      56F63ADE 
 415      48D7D186 
 415      5AAB
 416 0294 F1449D55 		.ascii	"\361D\235Uw$\330\020\254o\254\256\023F0(kO\036\306\261"
 416      7724D810 
 416      AC6FACAE 
 416      13463028 
 416      6B4F1EC6 
 417 02a9 DF36ADDA 		.ascii	"\3376\255\332\224"
 417      94
 418              		.text
 419              		.section	.gnu.lto_chPipeReset.4485afbff6cbd2a9,"",%progbits
 420 0000 789C9555 		.ascii	"x\234\225U]lSe\030\376\236\363\265;\335\272\216\211"
 420      5D6C5365 
 420      18FE9EF3 
 420      B53BDDBA 
 420      8E89
 421 0012 3F372EB1 		.ascii	"?7.\261\213\231\013\211\354\340\025\2117\306\354\212"
 421      8B990B89 
 421      ECE01589 
 421      37C6EC8A 
 422 0022 8B05B35D 		.ascii	"\213\005\263]xI\2444\256\011\245M;\015\\\350\316\272"
 422      7849A434 
 422      AE09A54D 
 422      3B0D5CE8 
 422      CEBA
 423 0034 1D8B1724 		.ascii	"\035\213\027$$\004B\014\322D\267\254\250\354O\021\013"
 423      2404420C 
 423      D244B7AC 
 423      A8EC4F11 
 423      0B
 424 0045 6C740307 		.ascii	"lt\003\007l\374\310\330T\234&c(\002Y\314fV\307H\272"
 424      6CFCC8D8 
 424      549C2663 
 424      280259CC 
 424      6656C748 
 425 005a FABE5FED 		.ascii	"\372\276_\355\354\376\224\235\234\236\237\357{\237\347"
 425      ECFE949D 
 425      9C9E9FEF 
 425      7B9FE7
 426 0069 7DBEF77B 		.ascii	"}\276\367{\336S\233\200P\207.\304\010\335\236\247\037"
 426      DE539B80 
 426      50872EC4 
 426      08DD9EA7 
 426      1F
 427 007a A48076F0 		.ascii	"\244\200v\360\272\020M\016\015\340\007\323\001\321\250"
 427      BA104D0E 
 427      0DE007D3 
 427      01D1A8
 428 0089 A111292D 		.ascii	"\241\021)-\255a z/\241mj7\351\230\260\346^1\343IXR\210"
ARM GAS  /tmp/ccbDpJFr.s 			page 34


 428      AD61207A 
 428      2FA16D6A 
 428      37E998B0 
 428      E65E31E3 
 429 00a1 8C966542 		.ascii	"\214\226eB;6Q\324\315\226\256crV\263$`\243\327\231k"
 429      3B3651D4 
 429      CD96AE63 
 429      7256B324 
 429      60A3D799 
 430 00b6 1FDD2DE1 		.ascii	"\037\335-\341W\015nz=~ u[\223/B\320\363l<\332\216\312"
 430      570D6E7A 
 430      3D7E2075 
 430      5B932F42 
 430      D0F36C3C 
 431 00cd 36D38C98 		.ascii	"6\323\214\230fj\227YhI\211\317 \211\017'P\2068\312\004"
 431      666A9759 
 431      684989CF 
 431      20890F27 
 431      508638CA 
 432 00e2 0D097C8E 		.ascii	"\015\011|\216J\016\237\354^8\354*h\341\364\356\017s"
 432      4A0E9FEC 
 432      5E38EC2A 
 432      68E1F4EE 
 432      0F73
 433 00f4 79F1050A 		.ascii	"y\361\005\012x%\235\265I3\223i6\315\364\226\205\312"
 433      78259DB5 
 433      49339369 
 433      36CDF496 
 433      85CA
 434 0106 8D008334 		.ascii	"\215\000\2034\202\333\354t\261;\351R\340\342\213\020"
 434      82DBEC74 
 434      B13BE952 
 434      E0E28B10 
 435 0116 D304E3B5 		.ascii	"\323\004\343\265\315h\032\337\345=D\036G\007\373\012"
 435      CD681ADF 
 435      E53D441E 
 435      4707FB0A 
 436 0126 98A959F2 		.ascii	"\230\251Y\362:\217X\0037t\226,\225\314\271KC\373\213"
 436      3A8F5803 
 436      3774962C 
 436      95CCB94B 
 436      43FB8B
 437 0139 63F89816 		.ascii	"c\370\230\026\2537\323\252N\222.\036o\3735\322\241\033"
 437      AB37D3AA 
 437      4E922E1E 
 437      6FFB35D2 
 437      A11B
 438 014b 9B2DE940 		.ascii	"\233-\351@\007bXPe\240\361\361\326\376Vg\343{\224\033"
 438      07625850 
 438      65A0F1F1 
 438      D6FE5667 
 438      E37B941B 
 439 015f 9D304862 		.ascii	"\2350Hb\027\032\305}\3308\001\317'\022S\343zc\332\334"
 439      171AC57D 
 439      D83801CF 
 439      271253E3 
 439      7A63DADC 
ARM GAS  /tmp/ccbDpJFr.s 			page 35


 440 0173 6F9AA596 		.ascii	"o\232\245\226,\314h\244\037\335\024C\331-Y$H\320\231"
 440      2CCC68A4 
 440      1FDD1443 
 440      D92D5924 
 440      48D099
 441 0186 EED4217B 		.ascii	"\356\324!{V\220\375I\024\330\321\243\024p%\360%%%\216"
 441      5690FD49 
 441      14D8D1A3 
 441      147025F0 
 441      2525258E 
 442 019a 23774A98 		.ascii	"#wJ\230!\017\336\304\245s\256\315\361\225\342PU=\005"
 442      210FDEC4 
 442      A573AECD 
 442      F195E250 
 442      553D05
 443 01ad 83522B9A 		.ascii	"\203R+\232\231\324-\271N\242\257\025\221d\242\323\213"
 443      99D42DB9 
 443      4EA2AF15 
 443      9164A2D3 
 443      8B
 444 01be 44B35D7F 		.ascii	"D\263]\177\255\223\310\211o\024\221\215\211\0220h\256"
 444      AD93C889 
 444      6F14918D 
 444      89123068 
 444      AE
 445 01cf 732A31EF 		.ascii	"s*1\357\342\255)\206\300\031\0020\361\364z\211]8\253"
 445      E2AD2986 
 445      C0190230 
 445      F1F47A89 
 445      5D38AB
 446 01e2 88ED4C7C 		.ascii	"\210\355L|N\021\237\212^\355.bb\027y\247\227\000\223"
 446      4E119F8A 
 446      5EED2E62 
 446      621779A7 
 446      970093
 447 01f5 88942AD0 		.ascii	"\210\224*\320\320\310y\247|)k\330\243\335\361\302\212"
 447      D0C879A7 
 447      7C296BD8 
 447      A3DDF1C2 
 447      8A
 448 0206 4FD9B013 		.ascii	"O\331\260\023\275\017j\372\333>0\01769,Y\202\276\245"
 448      BD0F6AFA 
 448      DB3E300F 
 448      36392C59 
 448      82BEA5
 449 0219 B655ED70 		.ascii	"\266U\355p\036\025\204\211>0{mL\\\0027\2224\367;\"\223"
 449      1E158489 
 449      3E307B6D 
 449      4C5C0237 
 449      9234F73B 
 450 022f F3837F6C 		.ascii	"\363\203\177l]\352\350\344\2259\251\314\234\241\015"
 450      5DEAE8E4 
 450      9539A9CC 
 450      9CA10D
 451 023e 5836D57B 		.ascii	"X6\325{x\030v\201~\236\224\313'\347G\216\221b\312%0"
 451      78187681 
 451      7E9E94CB 
ARM GAS  /tmp/ccbDpJFr.s 			page 36


 451      27E7478E 
 451      9162CA25 
 452 0253 C001B6E5 		.ascii	"\300\001\266\345\255\"p\201|'p\221\033\005\3424h\376"
 452      AD227081 
 452      7C277091 
 452      1B05E234 
 452      68FE
 453 0265 9358CFA3 		.ascii	"\223X\317\243\242\362\313\210\231G\335\226\334\300\220"
 453      A2F2CB88 
 453      9947DD96 
 453      DCC090
 454 0274 9377CF9A 		.ascii	"\223w\317\232\016\033m>\276E\271*\327\364\324\350\270"
 454      0E1B6D3E 
 454      BE45B92A 
 454      D7F4D4E8 
 454      B8
 455 0285 46231824 		.ascii	"F#\030$\357\262r\201K\252\245\343}\027~+.\037\376\007"
 455      EFB27281 
 455      4BAAA5E3 
 455      7D177E2B 
 455      2E1FFE07 
 456 0299 ADAAF467 		.ascii	"\255\252\364gG\317\230S\241/3\032W`\243\012j\252\010"
 456      47CF9853 
 456      A12F331A 
 456      5760A30A 
 456      6AAA08
 457 02ac 42A8163B 		.ascii	"B\250\026;\364H\317:\332\271|\237\336\024km\324S\030"
 457      F448CF3A 
 457      DAB97C9F 
 457      DE146B6D 
 457      D45318
 458 02bf 521B5590 		.ascii	"R\033U\220\337Yi\306\230:53\206U\177]U\375e_\275\277"
 458      DF5969C6 
 458      983A3533 
 458      86557F5D 
 458      55FD655F 
 459 02d5 3666789B 		.ascii	"6fx\233qM\365\027\247>\327s`\016\274!O\343}\\G\231%"
 459      714DF517 
 459      A73ED773 
 459      600EBC21 
 459      4FE37D5C 
 460 02ec 9FC90A1C 		.ascii	"\237\311\012\034z-\253\317\265\036}7\224>}\015}\337"
 460      7A2DABCF 
 460      B51E7D37 
 460      943E7D0D 
 460      7DDF
 461 02fe 297D379F 		.ascii	")}7\237@\337\210\322\347\312\011\272\217\346\344\354"
 461      40DF88D2 
 461      E7CA09BA 
 461      8FE6E4EC 
 462 030e 86D511CF 		.ascii	"\206\325\021\317f\270\036\270E\010K>\267h\324%\346<"
 462      66B81EB8 
 462      45084B3E 
 462      B768D425 
 462      E63C
 463 0320 B1FD7FCC 		.ascii	"\261\375\177\3149\252\314\271\370\245+!k\214\375\207"
 463      39AACCB9 
ARM GAS  /tmp/ccbDpJFr.s 			page 37


 463      F8A52B21 
 463      6B8CFD87 
 464 0330 39D33973 		.ascii	"9\3239s\352+\355\365=\333k\205e\037\263e\177`\210c\205"
 464      EA2BEDF5 
 464      3DDB6B85 
 464      651FB365 
 464      7F608863 
 465 0345 651F1E27 		.ascii	"e\037\036'\313\216\262e\177\\\303\262\267\225e\177\312"
 465      CB8EB265 
 465      7F5CC3B2 
 465      B795657F 
 465      CA
 466 0356 B3EC42EC 		.ascii	"\263\354B\354N\2373\347\3061\345\306q\345\306\345\326"
 466      4E9F33E7 
 466      C631E5C6 
 466      71E5C6E5 
 466      D6
 467 0367 FB39673D 		.ascii	"\3739g=N@\205l\231h\315`\315oo!!~\371\367\333\373\020"
 467      4E40856C 
 467      9968CD60 
 467      CD6F6F21 
 467      217EF9F7 
 468 037e 91647ABB 		.ascii	"\221dz\273\212\346c\232\276\250\364\037A\344\356\252"
 468      8AE6639A 
 468      BEA8F41F 
 468      41E4EEAA 
 469 038e 2A237B06 		.ascii	"*#{\006\302t\356\366\3554\302!\217\341\251\017\372\202"
 469      C274EEF6 
 469      ED34C221 
 469      8FE1A90F 
 469      FA82
 470 03a0 DE709547 		.ascii	"\336p\225Gh\301\240\276\363\255\260\367\215\220os~\254"
 470      68C1A0BE 
 470      F3ADB0F7 
 470      8D906F73 
 470      7EAC
 471 03b2 27E0F707 		.ascii	"'\340\367\007\366\030\301@\250!l\274^[S]\263\227P\236"
 471      F618C140 
 471      A8216CBC 
 471      5E5B535D 
 471      B397509E 
 472 03c6 40C8BBE3 		.ascii	"@\310\273\343\335\255\376\252z\361\352*\321\336\275"
 472      DDADFEAA 
 472      7AF1EA2A 
 472      D1DEBD
 473 03d5 0D1C6B54 		.ascii	"\015\034kT\327\324m\2533\252)\330\330\266\307\263\373"
 473      D7D46DAB 
 473      33AA29D8 
 473      D8B6C7B3 
 473      FB
 474 03e6 9D5D5EC3 		.ascii	"\235]^\303\343\017\373\302;\336\366x\010\372B>4\324"
 474      E30FFBC2 
 474      3BDEF678 
 474      08FA423E 
 474      34D4
 475 03f8 60F87231 		.ascii	"`\370r1\365\341}a\232/\255\251\253u\263\250`\310\367"
 475      F5E17D61 
ARM GAS  /tmp/ccbDpJFr.s 			page 38


 475      9A2FADA9 
 475      AB75B3A8 
 475      60C8F7
 476 040b B2BB628B 		.ascii	"\262\273b\213\320BB\367{\375\201\320>\3617 j\227["
 476      D04242F7 
 476      7BFD81D0 
 476      3EF13720 
 476      6A975B
 477              		.text
 478              		.section	.gnu.lto_chPipeWriteTimeout.4485afbff6cbd2a9,"",%progbits
 479 0000 789C6D92 		.ascii	"x\234m\222\333k\023A\024\306\347\233\263\271\332\224"
 479      DB6B1341 
 479      14C6E79B 
 479      B3B9DA94 
 480 0010 E0A30409 		.ascii	"\340\243\004\011H,El\036\024\377\000\237|\366?\260%"
 480      482C456C 
 480      1E14FF00 
 480      9F7CF63F 
 480      B025
 481 0022 60C0DA68 		.ascii	"`\300\332h+\370\226i6k[D\261\245\027\342-\240\224\326"
 481      2BF89669 
 481      366B5B44 
 481      B1A517E2 
 481      2DA094D6 
 482 0036 B4F6E2A5 		.ascii	"\264\366\342\245\332<h(\250\240\250(\250H\2745Z\021"
 482      DA3C6828 
 482      A8A0A828 
 482      A848BC35 
 482      5A11
 483 0048 29624A8B 		.ascii	")bJ\213Bm\343\231i\036jp\330\315\356L\316o\276\357|"
 483      426DE399 
 483      691E6A70 
 483      D8CDEE4C 
 483      CE6FBEEF 
 484 005d B39680D0 		.ascii	"\263\226\200\320\243$\205\330\307\317\275|\303% \317"
 484      A32485D8 
 484      C7CFBD7C 
 484      C32520CF 
 485 006d 3D13A2D3 		.ascii	"=\023\242\323+\245\365:*\224\237\362\333\205\252#Xz"
 485      2BA5F53A 
 485      2A949FF2 
 485      DB85AA23 
 485      587A
 486 007f 1916A09F 		.ascii	"\031\026\240\237\312\013\221\224d!)\223+rM\342Ez\352"
 486      CA0B9194 
 486      64212993 
 486      2B724DE2 
 486      457AEA
 487 0092 222D4B87 		.ascii	"\"-K\207\270\204\247\345\247\347?\327\353)\020\346\351"
 487      B884A7E5 
 487      A7E73FD7 
 487      EB2910E6 
 487      E9
 488 00a3 05F5B2C7 		.ascii	"\005\365\262\307\3238\242TJ}z0\266\277\327v\0168$EE"
 488      D338A254 
 488      4A7D7A30 
 488      B6BFD776 
ARM GAS  /tmp/ccbDpJFr.s 			page 39


 488      0E382445 
 489 00b8 0A8C2284 		.ascii	"\012\214\"\204\021\204\264\36654r\355\3453+o%\355\200"
 489      1184B4F6 
 489      353472ED 
 489      E5332B6F 
 489      25ED80
 490 00cb E0F7E5D1 		.ascii	"\340\367\345\321\256\0214\014kN\015\305\224\317!B\016"
 490      AE11340C 
 490      6B4E0DC5 
 490      94CF2142 
 490      0E
 491 00dc B499E325 		.ascii	"\264\231\343%\20114p\365\352\351W\203>\332i\310\316"
 491      81313470 
 491      F5EAE957 
 491      833EDA69 
 491      C8CE
 492 00ee E199ACAC 		.ascii	"\341\231\254\254\222\357\015ia\274\226\264\004\256\033"
 492      92EF0D69 
 492      61BC96B4 
 492      04AE1B
 493 00fd 724DF50F 		.ascii	"rM\365\017\326S\243!3s\003\305\300\006Y\370\330\027"
 493      D653A321 
 493      337303C5 
 493      C00659F8 
 493      D817
 494 010f C9A882C5 		.ascii	"\311\250\202\305^1Q\013\363d\322\300\357\316\366/\324"
 494      5E31510B 
 494      F364D2C0 
 494      EFCEF62F 
 494      D4
 495 0120 D32E032F 		.ascii	"\323.\003/\335\373q\312[\225}cd]\230\252%9\343i4\350"
 495      DDFB71CA 
 495      5B957D63 
 495      645D98AA 
 495      2539E369 
 496 0136 F2DE870B 		.ascii	"\362\336\207\013\343>\332c\320+sOV\003\221\253F\267"
 496      E33EDA63 
 496      D02B734F 
 496      560391AB 
 496      46B7
 497 0148 DC1760DD 		.ascii	"\334\027`\335tX\013\337\370\027\327\203\253K\323\353"
 497      74580BDF 
 497      F817D783 
 497      AB4BD3EB 
 498 0158 0301775A 		.ascii	"\003\001wZ\361\010\343&\"=$t\234\234\342-\270\365\271"
 498      F108E326 
 498      223D2474 
 498      9C9CE22D 
 498      B8F5B9
 499 016b 4E1E2CA8 		.ascii	"N\036,\250J\305\346\036\266\376\371}\337\277\005\332"
 499      4AC5E61E 
 499      B6FEF97D 
 499      DFBF05DA 
 500 017b B2D43F7C 		.ascii	"\262\324?|&l\334\005\235\232\233\027\334>\350\030\374"
 500      266CDC05 
 500      9D9A9B17 
 500      DC3EE818 
ARM GAS  /tmp/ccbDpJFr.s 			page 40


 500      FC
 501 018c 30AEC44F 		.ascii	"0\256\304O\336%\027\020e.\316\005\250\204\224vcve\031"
 501      DE251710 
 501      652ECE05 
 501      A8849476 
 501      63766519 
 502 01a0 9BD3FE8A 		.ascii	"\233\323\376\212T\276\374\241\237\364\232Mn63\350\314"
 502      54BEFCA1 
 502      9FF49A4D 
 502      6E3633E8 
 502      CC
 503 01b1 3DF7E8D3 		.ascii	"=\367\350\323&\323\311\257G\217\273\353\262\270\004"
 503      26D3C9AF 
 503      478FBBEB 
 503      B2B804
 504 01c0 873C3607 		.ascii	"\207<6\007p[\333\346\365\341/\251\011Ot7+b\006Y\254"
 504      705BDBE6 
 504      F5E12FA9 
 504      094F7437 
 504      2B620659 
 505 01d5 6BBB0277 		.ascii	"k\273\002w\020\025\363H\027\355m\377\331\220[\301\335"
 505      1015F348 
 505      17ED6DFF 
 505      D9905BC1 
 505      DD
 506 01e6 6AD76549 		.ascii	"j\327eI\"\343\242o\350\012nT\352\357nvv\261\350I\256"
 506      22E3A26F 
 506      E80A6E54 
 506      EAEF6E76 
 506      76B1E849 
 507 01fb A96EA582 		.ascii	"\251n\245\202\016y+\222{\307,\222\202\205m\362\261_"
 507      0E792B92 
 507      7BC72C92 
 507      82856DF2 
 507      B15F
 508 020d 9BFC0EF9 		.ascii	"\233\374\016\371\014o\351\216\276#\025\344\177uFK\300"
 508      0C6FE98E 
 508      BE2315E4 
 508      7F75464B 
 508      C0
 509 021e 66316691 		.ascii	"f1f\221GH.\016\035\263uL\034\005\230`\233\341\246\246"
 509      47482E0E 
 509      1DB3754C 
 509      1C059860 
 509      9BE1A6A6 
 510 0232 E8C6D5D6 		.ascii	"\350\306\325\326\316\327\221xs\264\375xK\264\345p\""
 510      CED79178 
 510      73B4FD78 
 510      4BB4E570 
 510      22
 511 0243 9E88B537 		.ascii	"\236\210\2657\265\010\231H\310\346\004\216z:\342\255"
 511      B5089948 
 511      C8E6048E 
 511      7A3AE2AD 
 512 0253 B1B6131D 		.ascii	"\261\266\023\035\324z\350\344_\247\314\373~"
 512      D47AE8E4 
 512      5FA7CCFB 
ARM GAS  /tmp/ccbDpJFr.s 			page 41


 512      7E
 513              		.text
 514              		.section	.gnu.lto_chPipeReadTimeout.4485afbff6cbd2a9,"",%progbits
 515 0000 789C6D92 		.ascii	"x\234m\222\313kSA\024\306\347\233s\363j\233\320\225"
 515      CB6B5341 
 515      14C6E79B 
 515      73F36A9B 
 515      D095
 516 0012 0B0912D0 		.ascii	"\013\011\022\320Z\212\230,\024\377\000W\256\375\017"
 516      5A8A982C 
 516      14FF0057 
 516      AEFD0F
 517 0021 6C0858B0 		.ascii	"l\010X\2606\332\012\3562\315\315\265-\242Xh\202\365"
 517      36DA0AEE 
 517      32CDCDB5 
 517      2DA25868 
 517      82F5
 518 0033 55A884D6 		.ascii	"U\250\204\326X\373\360\321\232,4d\241\240\250(\264 "
 518      58FBF0D1 
 518      9A2C3464 
 518      A1A0A828 
 518      B420
 519 0045 11D4DA88 		.ascii	"\021\324\332\210\250\210\251-.j\033\317L\273\250\301"
 519      A888A92D 
 519      2E6A1BCF 
 519      4CBBA8C1 
 520 0055 E1DEDC3B 		.ascii	"\341\336\334;\223\363\233\357;\337\\K@\350\261(\205"
 520      93F39BEF 
 520      3BDF5C4B 
 520      40E8B128 
 520      85
 521 0066 38C4CF83 		.ascii	"8\304\317\203|\303% /\275\024\242\327+\245\265\020\021"
 521      7CC32520 
 521      2FBD14A2 
 521      D72BA5B5 
 521      1011
 522 0078 AA810ABB 		.ascii	"\252\201\012\273\204j\"Xz\031\026\240\237\312\013\221"
 522      846A2258 
 522      7A1916A0 
 522      9FCA0B91 
 523 0088 90642121 		.ascii	"\220d!!\023\253r]\342uj\372\032\255H\207\270\204\247"
 523      13AB725D 
 523      E2756AFA 
 523      1AAD4887 
 523      B884A7
 524 009b D517573E 		.ascii	"\325\027W>\005\364\024\010\361\364\252z3\340i\033S*"
 524      05F41408 
 524      F1F4AA7A 
 524      33E0691B 
 524      532A
 525 00ad A93E54BE 		.ascii	"\251>T\276\035\036\264\235#\016IQ\223\002\343\010b\014"
 525      1D1EB49D 
 525      230E4951 
 525      9302E308 
 525      620C
 526 00bf 41AD7D0B 		.ascii	"A\255}\013m\\{\343\302\352[I\273!\370}e\274o\014\255"
 526      6D5C7BE3 
ARM GAS  /tmp/ccbDpJFr.s 			page 42


 526      C2EA5B49 
 526      BB21F87D 
 526      65BC6F0C 
 527 00d4 59CDA974 		.ascii	"Y\315\251tL\371\034\"\344@\3339^\022\270\215V\256^;"
 527      4CF91C22 
 527      E440DB39 
 527      5E12B88D 
 527      56AE5E3B 
 528 00e8 3F9FF1D1 		.ascii	"?\237\361\321^C\366fgG\344\026\371\330\220\026&\352"
 528      5E43F666 
 528      6747E416 
 528      F9D89016 
 528      26EA
 529 00fa 494BE08E 		.ascii	"IK\340\216!\327\325P&@m\206\034.\245\313\376M\262X]"
 529      21D7D550 
 529      26406D86 
 529      1C2EA5CB 
 529      FE4DB258 
 530 010f D833AC8A 		.ascii	"\3303\254\212\026{\305d=\314\223)\003\277\2738T\011"
 530      167BC564 
 530      3DCC9329 
 530      03BFBB38 
 530      5409
 531 0121 D03E032F 		.ascii	"\320>\003/?\372q\316\273%;od]\230\256'9\343\031\264"
 531      3FFA71CE 
 531      BB253B6F 
 531      645D98AE 
 531      2739E319 
 532 0136 EAF2C127 		.ascii	"\352\362\301'\225\011\037\0350\350h\351\371\232\277"
 532      95091F1D 
 532      30E868E9 
 532      F99ABF
 533 0145 E5A6D1FD 		.ascii	"\345\246\321\375\225\361\263n*\244\205\357\376\213\353"
 533      95F1B36E 
 533      2AA485EF 
 533      FE8BEB
 534 0154 C1D58B33 		.ascii	"\301\325\2133\033i\277;\245x\204p\017-\003$t\234\234"
 534      1B69BF3B 
 534      A5788470 
 534      0F2D0324 
 534      749C9C
 535 0167 E27DB8F5 		.ascii	"\342}\270\365\271N\035-\252Z\315\346\036v\254]\036m"
 535      B94E1D2D 
 535      AA5ACDE6 
 535      1E76AC5D 
 535      1E6D
 536 0179 6C84B62C 		.ascii	"l\204\266,\365\017\237\011\033wA\247\346\346\005\267"
 536      F50F9F09 
 536      1B7741A7 
 536      E6E605B7 
 537 0189 0F3A8606 		.ascii	"\017:\206\006\030W\342'\357\222\363\213*\027\347\374"
 537      1857E227 
 537      EF92F38B 
 537      2A17E7FC 
 538 0199 B488A476 		.ascii	"\264\210\244vcve\031\233\323\376\214da\346}\232\364"
 538      63766519 
 538      9BD3FE8C 
ARM GAS  /tmp/ccbDpJFr.s 			page 43


 538      6461E67D 
 538      9AF4
 539 01ab 9A4D6E36 		.ascii	"\232Mn6\223qJ\257<\372\264\311t\362\373\351\263\376"
 539      93714AAF 
 539      3CFAB4C9 
 539      74F2FBE9 
 539      B3FE
 540 01bd A6115C87 		.ascii	"\246\021\\\207C\036\233\003x\240m\363zv)9\351\211\354"
 540      431E9B03 
 540      78A06DF3 
 540      7A762939 
 540      E989EC
 541 01d0 6745CC62 		.ascii	"gE\314b\004\033\332\256\300\034\"\342#Re{\347\1776\344"
 541      041BDAAE 
 541      C01C22E2 
 541      2352657B 
 541      E77F36E4 
 542 01e4 56F070AB 		.ascii	"V\360p\253\353\252$1\354\242/\350k\336\254\324\337]"
 542      EBAA2431 
 542      ECA22FE8 
 542      6BDEACD4 
 542      DF5D
 543 01f6 3EFFBDEC 		.ascii	">\377\275\354I\254\253~\245\232\035\362\326$\367\216"
 543      49ACAB7E 
 543      A59A1DF2 
 543      D624F78E 
 544 0206 3C128285 		.ascii	"<\022\202\205m\362\261_\233\032\034\362\031\336\322"
 544      6DF2B15F 
 544      9B1A1CF2 
 544      19DED2
 545 0215 1D7D45B2 		.ascii	"\035}E\262\231\377\325\031-\003\333\305\230E\001A\371"
 545      99FFD519 
 545      2D03DBC5 
 545      98450141 
 545      F9
 546 0226 67EE94AD 		.ascii	"g\356\224\255c\342(\300\004\333\014\205\303\221\315"
 546      63E228C0 
 546      04DB0C85 
 546      C391CD
 547 0235 ABAB9BAF 		.ascii	"\253\253\233\257\023\035\355\221\356\323\321H\364x\274"
 547      131DED91 
 547      EED3D148 
 547      F478BC
 548 0244 231EEB0E 		.ascii	"#\036\353\016G\205\214\307e{\034'==\035\235\261\256"
 548      47858CC7 
 548      657B1C27 
 548      3D3D1D9D 
 548      B1AE
 549 0256 333DD479 		.ascii	"3=\324y\354\354_k\331\373\250"
 549      ECEC5F6B 
 549      D9FBA8
 550              		.text
 551              		.section	.gnu.lto_.symbol_nodes.4485afbff6cbd2a9,"",%progbits
 552 0000 789C5D8F 		.ascii	"x\234]\217\273J\003A\024\206\377\371\317&\331\334\037"
 552      BB4A0341 
 552      1486FFF9 
 552      CF26D9DC 
ARM GAS  /tmp/ccbDpJFr.s 			page 44


 552      1F
 553 0011 41051FC1 		.ascii	"A\005\037\301\322w;\213,\021\264\320\312R\010,\336\361"
 553      D2773B8B 
 553      2C11B4D0 
 553      CA52082C 
 553      DEF1
 554 0023 020689AD 		.ascii	"\002\006\211\255k%D0\205\240M\220\025,\254-\305\263"
 554      6B254430 
 554      85A04D90 
 554      152CAC2D 
 554      C5B3
 555 0035 9B0938A9 		.ascii	"\233\0118\251\276\231\357|s`\"8\254\023\000\217\250"
 555      BE99EF7C 
 555      73602238 
 555      AC13008F 
 555      A8
 556 0046 C0FE0430 		.ascii	"\300\376\0040\214\223a\"\346\216\251n\331=P\351\235"
 556      8C936122 
 556      E68EA96E 
 556      D93D50E9 
 556      9D
 557 0057 1BA7C364 		.ascii	"\033\247\303d\325\\N\225ewB\215\026o\357\22353\247\324"
 557      D55C4E95 
 557      6577428D 
 557      166FEF93 
 557      3533A7D4 
 558 006b 5A68CEA8 		.ascii	"Zh\316\250\365\320\234S\033\201q7\324\2702@R.vw\324"
 558      F5D09C53 
 558      1B817137 
 558      D4B83240 
 558      522E7677 
 559 0080 66202EA9 		.ascii	"f .\251\255@\334R\333\201\030Q;\201\270\240v\003qM\355"
 559      AD40DC52 
 559      DB811851 
 559      3B81B8A0 
 559      7603714D 
 560 0095 05E28ADA 		.ascii	"\005\342\212\332\377/\004-\344\263_'h\242\230>K\311"
 560      FF2F042D 
 560      E4B35F27 
 560      68A2983E 
 560      4BC9
 561 00a7 F4F5272A 		.ascii	"\364\365'*\231\277y\276\1776\0041\262\303\357\025q\276"
 561      99BF79BE 
 561      7F360431 
 561      B2C3EF15 
 561      71BE
 562 00b9 77E69FAC 		.ascii	"w\346\237\2547\026\023\353\214\331\213\347\324z\027"
 562      371613EB 
 562      8CD98BE7 
 562      D47A17
 563 00c8 233DB09E 		.ascii	"#=\260\236\366n\257d\007\331\356\344K\204m\344\203\352"
 563      F66EAF64 
 563      07D9EEE4 
 563      4B846DE4 
 563      83EA
 564 00da 007CCC1E 		.ascii	"\000|\314\0367\205~\243\370R\026\245,Jq\363R|\031uQ"
 564      37857EA3 
ARM GAS  /tmp/ccbDpJFr.s 			page 45


 564      F85216A5 
 564      2C4A71F3 
 564      527C1975 
 565 00ef 0CAC3466 		.ascii	"\014\2544f\333s\026%k~^\353#\255\356}\344\025{~\036"
 565      DB731625 
 565      6B7E5EEB 
 565      23ADEE7D 
 565      E4157B7E 
 566 0104 A3D831D6 		.ascii	"\243\3301\326\211\255\321\206\330\247\014\370\003\253"
 566      89ADD186 
 566      D8A70CF8 
 566      03AB
 567 0112 999652   		.ascii	"\231\226R"
 568              		.text
 569              		.section	.gnu.lto_.refs.4485afbff6cbd2a9,"",%progbits
 570 0000 789C6361 		.ascii	"x\234ca`\004B \000\000\0009\000\007"
 570      60044220 
 570      00000039 
 570      0007
 571              		.text
 572              		.section	.gnu.lto_.decls.4485afbff6cbd2a9,"",%progbits
 573 0000 789CB55B 		.ascii	"x\234\265[yXT\331\225\257\373\356\243\330\261[\235\304"
 573      795854D9 
 573      95AFFBEE 
 573      A3D8B15B 
 573      9DC4
 574 0012 F986CC98 		.ascii	"\371\206\314\230\0363\315|3-\332\332I'\337|3\235\364"
 574      1E33CD7C 
 574      332DDADA 
 574      4927DF7C 
 574      339DF4
 575 0025 241DE79B 		.ascii	"$\035\347\233^\022\273;\351|\337\014\215X\335\220\260"
 575      5E12BB3B 
 575      E97CDF0C 
 575      8D58DD90 
 575      B0
 576 0036 5955B43A 		.ascii	"YU\264:\363G\212E\021\334\000\027\220]D\024\001Y\025"
 576      F3478A45 
 576      11DC0017 
 576      905D4414 
 576      015915
 577 0049 95AD0445 		.ascii	"\225\255\004E\004Q\004\005QdSP\\\331\232}\231s\227W"
 577      04510405 
 577      51645350 
 577      5CD99A7D 
 577      99739757 
 578 005d EF5551A5 		.ascii	"\357UQ\245f&C{\352\275{\337\271\347\374\316\357\234"
 578      6626437B 
 578      EABD7BDF 
 578      B9E7FCCE 
 578      EF9C
 579 006f 7BDF7DF5 		.ascii	"{\337}\365\252E\025R\221\2777\337Q\251r\354U*\027;\225"
 579      AA451552 
 579      91BF37DF 
 579      51A972EC 
 579      552A173B 
 580 0084 6A1EFE1C 		.ascii	"j\036\376\034\241\357s\020\001D\015r\\\305\376^\003"
ARM GAS  /tmp/ccbDpJFr.s 			page 46


 580      A1EF7310 
 580      01440D72 
 580      5CC5FE5E 
 580      03
 581 0095 C9852145 		.ascii	"\311\205!E \345 5 \227A\032An\200\334\001\351\002\031"
 581      20E52035 
 581      2097411A 
 581      416E80DC 
 581      01E90219 
 582 00a9 04190619 		.ascii	"\004\031\006\031\007\231\001\231\003A`\014\013\252\005"
 582      07990199 
 582      0341600C 
 582      0BAA05
 583 00b8 7FC4DE52 		.ascii	"\177\304\336R8.V\261\343)\220l\3503\302\361\0138\212"
 583      382E56B1 
 583      E329906C 
 583      E833C2F1 
 583      0B388A
 584 00cb 30E66338 		.ascii	"0\346c8\217\203\363O\340h\007\355cp\376;\0205\234w\302"
 584      8F83F34F 
 584      E06807ED 
 584      6370FE3B 
 584      10359C77 
 585 00e0 D1018E8E 		.ascii	"\321\001\216\216 N \316 \257\203\210\240\233\010\327"
 585      204E20CE 
 585      20AF8388 
 585      A09B08D7 
 586 00f0 52409240 		.ascii	"R@\222@R\021\213%\227c\373\013\320\371\256\300\260v"
 586      52118B25 
 586      9763FB0B 
 586      D0F9AEC0 
 586      B076
 587 0102 A185B848 		.ascii	"\241\205\270H\214\257[\301Ep\020\\\004\223-<\004\207"
 587      8CAF5BC1 
 587      4570105C 
 587      04932D3C 
 587      0487
 588 0114 83028B9D 		.ascii	"\203\002\213\235\002K\032H2\307#r?\303\3106\016\302"
 588      024B1A48 
 588      32C72372 
 588      3FC3C836 
 588      0EC2
 589 0126 F3321BFC 		.ascii	"\3632\033\374\234&\374r\2366\243\2058\226\3011\007\216"
 589      9C26FC72 
 589      9E36A385 
 589      3896C131 
 589      078E
 590 0138 CDA0F357 		.ascii	"\315\240\363Wp\276\034d\013\264\277\017\3071\316\307"
 590      70BE1C64 
 590      0BB4BF0F 
 590      C731CEC7 
 591 0148 1B703E0D 		.ascii	"\033p>\015\347\030\316\217\3021\035$\023\304\231\373"
 591      E718CE8F 
 591      C2311D24 
 591      13C499FB 
 592 0158 26D80867 		.ascii	"&\330\010g+@\357\357@\376Q`y]\011\307U\002\313/\301"
 592      2B40EFEF 
ARM GAS  /tmp/ccbDpJFr.s 			page 47


 592      40FE5160 
 592      795D09C7 
 592      5502CB2F 
 593 016d 4DA0FFD8 		.ascii	"M\240\377\330\"\27756\260\023\016_\206\375'p,\374\023"
 593      22BF3536 
 593      B0130E5F 
 593      86FD2770 
 593      2CFC13
 594 0180 B01FE1B8 		.ascii	"\260\037\341\270\3239\366\032\216\275\350\025\261\377"
 594      D339F61A 
 594      8EBDE815 
 594      B1FF
 595 018e D4023BA9 		.ascii	"\324\002;\251k7>\017$\374\022\366S\034\3671^\007d~l"
 595      6B373E0F 
 595      24FC12F6 
 595      531CF731 
 595      5E07647E 
 596 01a3 B1C04F30 		.ascii	"\261\300O0\244\362\\'\361\274\223\374\037RpLj\202pN"
 596      A4F25C27 
 596      F1BC93FC 
 596      1F52704C 
 596      6A82704E 
 597 01b7 B00BDCE7 		.ascii	"\260\013\334\347\034\307\363\201\005\0362\307\276k\005"
 597      1CC7F381 
 597      051E32C7 
 597      BE6B05
 598 01c6 CF171C93 		.ascii	"\317\027\034\2235\016\011N\011\237%\217\204;\302!\341"
 598      350E094E 
 598      099F258F 
 598      843BC221 
 598      E1
 599 01d7 EF97C417 		.ascii	"\357\227\304\027\251Y^\247\251\034s\262\025\314N\034"
 599      A9595EA7 
 599      A91C73B2 
 599      15CC4E1C 
 600 01e7 CBB005AF 		.ascii	"\313\260\005\257dn\2239.q+\361\372\221E\0347\270\015"
 600      646E9339 
 600      2E712BF1 
 600      FA91451C 
 600      37B80D
 601 01fa 5BF54CB0 		.ascii	"[\365L\260R^a\\\031\267q\210\363C\306\226\333\250\265"
 601      525E615C 
 601      19B77188 
 601      F343C696 
 601      DBA8B5
 602 020d 3B36EC4A 		.ascii	";6\354J\265&\331\375\004\306U[\330%ckl\324\301\254\200"
 602      B526D9FD 
 602      04C6555B 
 602      D825636B 
 602      6CD4C1AC 
 603 0222 1A2FB624 		.ascii	"\032/\266$\330c\001\301\271x\377dI+F\216\356\010\301"
 603      D86301C1 
 603      B978FF64 
 603      492B468E 
 603      EE08C1
 604 0235 3F8F4883 		.ascii	"?\217H\203!\3140\030\226\276|\223\012\255qG\253\334"
 604      21CC3018 
ARM GAS  /tmp/ccbDpJFr.s 			page 48


 604      96BE7C93 
 604      0AAD7147 
 604      ABDC
 605 0247 55280779 		.ascii	"U(\007y\240\343\010VP\224\015*'\220\273*\321\340@{\022"
 605      A0E30856 
 605      50940D2A 
 605      2790BB2A 
 605      D1E0407B 
 606 025c 0D3B0C86 		.ascii	"\015;\014\206\327\350i\226\001\376b\014\006AE\232\350"
 606      D7E86996 
 606      01FE620C 
 606      0641459A 
 606      E8
 607 026d 18C2923B 		.ascii	"\030\302\222;\322\006\227\025-\323W\305;\250\2350\212"
 607      D2069715 
 607      2DD357C5 
 607      3BA89D30 
 607      8A
 608 027e 5E635710 		.ascii	"^cW\020\373DTTLh\223\022\317\341K]HR\344mA:U\231\214"
 608      FB445454 
 608      4C689312 
 608      CFE14B5D 
 608      4852E46D 
 609 0297 D17F7C3C 		.ascii	"\321\177|<]\366\351\0375\"[G|\020k\363\301*\304\333"
 609      5DF6E91F 
 609      35225B47 
 609      7C106BF3 
 609      C12AC4DB 
 610 02ab 82EC00B1 		.ascii	"\202\354\000\261\2464@a\217\301\345\346d\314\246\230"
 610      A6344061 
 610      8FC1E5E6 
 610      64CCA698 
 611 02bb 90C4734A 		.ascii	"\220\304sJ\373\366VG\354@xF]\223\307\177\2612W\242\351"
 611      FBF65647 
 611      EC407846 
 611      5D93C77F 
 611      B13257A2 
 612 02d0 1FE464DC 		.ascii	"\037\344d\334\255\313\316\301\243\002\372\330\011\021"
 612      ADCBCEC1 
 612      A302FAD8 
 612      0911
 613 02de F38BA02B 		.ascii	"\363\213\240+\377\311\331IW\326E42'\237\227\272`wz~"
 613      FFC9D949 
 613      57D64534 
 613      32279F97 
 613      BA60777A 
 614 02f3 3DA22099 		.ascii	"=\242 \231h/vB\"4\207\032\023\357\271As\251\023Z>+\010"
 614      682F7642 
 614      2234871A 
 614      13EFB941 
 614      73A9135A 
 615 030a E9BBF306 		.ascii	"\351\273\363\006\354\220\207\023MGw|\317\367\362I\202"
 615      EC908713 
 615      4D47777C 
 615      CFF7F249 
 615      82
 616 031b 4E212754 		.ascii	"N!'T\2100:\211V\022t\037\223\252\332A\022\035\023nX"
ARM GAS  /tmp/ccbDpJFr.s 			page 49


 616      88303A89 
 616      5612741F 
 616      93AADA41 
 616      121D136E 
 617 0330 5CE7A642 		.ascii	"\\\347\246B\305\220\330\"H,*\201\\\203S\242\210\012"
 617      C590D822 
 617      482C2A81 
 617      5C8353A2 
 617      880A
 618 0342 A0331F3A 		.ascii	"\2403\037:\301\313\255\362+\243\230\334\267\250\251"
 618      C1CBADF2 
 618      2BA398DC 
 618      B7A8A9
 619 0351 0D22E9CB 		.ascii	"\015\"\351\313\337v?\333\001<\273\003l\244\300\354\316"
 619      DF763FDB 
 619      013CBB03 
 619      6CA4C0EC 
 619      CE
 620 0362 30971847 		.ascii	"0\227\030G\362D\034\211HC\270^\334~\321\321\004\253"
 620      F2441C89 
 620      4843B85E 
 620      DC7ED1D1 
 620      04AB
 621 0374 A5FEAFCF 		.ascii	"\245\376\257\317\020Xe`\353\254\014\313\335\004k0\303"
 621      10586560 
 621      EBAC0CCB 
 621      DD046B30 
 621      C3
 622 0385 A05E66AA 		.ascii	"\240^f\252\277s\200\311\235c:\003\230J\031\246\354\264"
 622      BF7380C9 
 622      9D633A03 
 622      984A19A6 
 622      ECB4
 623 0397 E3175CF1 		.ascii	"\343\027\\\3618s\360t\377\343\035\330\344`~\257{\016"
 623      3873F074 
 623      FFE31DD8 
 623      E4607EAF 
 623      7B0E
 624 03a9 7150090E 		.ascii	"qP\011\016\312e\007\340\317\272\207\012\353\036Rn\366"
 624      CA6507E0 
 624      CFBA870A 
 624      EB1E526E 
 624      F6
 625 03ba C6383A71 		.ascii	"\3068:q\375\230\227\353\017t\224\316\270\270D\313\304"
 625      FD9897EB 
 625      0F7494CE 
 625      B8B844CB 
 625      C4
 626 03cb A22A0020 		.ascii	"\242*\000 q\253BF\344\302S\236\177|b\332\215\362\011"
 626      71AB4246 
 626      E4C2539E 
 626      7F7C62DA 
 626      8DF209
 627 03de 7DE834A2 		.ascii	"}\3504\242\204\226>\313)ue\2315\222v\363\340\225\024"
 627      84963ECB 
 627      29756599 
 627      359276F3 
ARM GAS  /tmp/ccbDpJFr.s 			page 50


 627      E09514
 628 03f1 67D67E0D 		.ascii	"g\326~\015\232\247\373/\327:\261L\033\010\337e\245\345"
 628      9AA7FB2F 
 628      D73AB14C 
 628      1B08DF65 
 628      A5E5
 629 0403 B576ECF2 		.ascii	"\265v\354\362*h\346\334\031\375O|\233Ni\224X6Z\317/"
 629      2A68E6DC 
 629      19FD4F7C 
 629      9B4E6994 
 629      58365ACF 
 630 0418 39904BE3 		.ascii	"9\220K\343\021\247\026\341.v\355x\177\362\036\027v\355"
 630      11A716E1 
 630      2E76ED78 
 630      7FF21E17 
 630      76ED
 631 042a 5D68DE68 		.ascii	"]h\336h\352<\212q\037\273&U\342\233\013+\361M\226\325"
 631      EA3C8A71 
 631      1FBB2655 
 631      E29B0B2B 
 631      F14D96D5 
 632 043e E6BDC399 		.ascii	"\346\275\303\231\366\370\031U\027jw\027\0279+\262\372"
 632      F6F81955 
 632      176A7717 
 632      17392BB2 
 632      FA
 633 044f AFB1B07A 		.ascii	"\257\261\260z\010\350\032\004\335(\263\376\246\355j"
 633      08E81A04 
 633      DD28B3FE 
 633      A6ED6A
 634 045e BB0A3CBE 		.ascii	"\273\012<\276\311y\274\002\235\015<\263\231\261\031"
 634      C979BC02 
 634      9D0D3CB3 
 634      99B119
 635 046d 6A3CC99C 		.ascii	"j<\311\234\034*91\356\244\310\354\332\\\222\331f\360"
 635      1C2A3931 
 635      EEA4C8EC 
 635      DA5C92D9 
 635      66F0
 636 047f D124FBB8 		.ascii	"\321$\373\270\206l;\271n\335\211a\377t\232+\016\303"
 636      866C3BB9 
 636      6EDD8961 
 636      FF749A2B 
 636      0EC3
 637 0491 D449527C 		.ascii	"\324IR|U\205\035r\362\260n\341\246\025\013\014\316\251"
 637      55851D72 
 637      F2B06EE1 
 637      A6150B0C 
 637      CEA9
 638 04a3 44CF0A02 		.ascii	"D\317\012\002\347\006\300i\221\3414S8\340\244\243xw"
 638      E706C069 
 638      91E13453 
 638      38E0A4A3 
 638      7877
 639 04b5 8D03AEA1 		.ascii	"\215\003\256\241NP\370\375\224\0367\334\300\032\265"
 639      4E50F8FD 
 639      941E37DC 
ARM GAS  /tmp/ccbDpJFr.s 			page 51


 639      C01AB5
 640 04c4 7B237639 		.ascii	"{#v9\341\033\314}Q\177R\212iz\030\233\321k\3506\030"
 640      E11BCC7D 
 640      517F528A 
 640      697A189B 
 640      D16BE836 
 641 04d9 BC6569D0 		.ascii	"\274ei\320:\272v\353\361%\215\334\035pdy\366P\024\327"
 641      3ABA76EB 
 641      F1258DDC 
 641      1D706479 
 641      F65014D7 
 642 04ed 525E5CD9 		.ascii	"R^\\\331\347F\216\252q7\003\023\3231Y\356\214\007X\343"
 642      E7468EAA 
 642      71370313 
 642      D33159EE 
 642      8C0758E3 
 643 0501 C2BD963A 		.ascii	"\302\275\226:;\374\2145\322\253{\336\302\363\354\374"
 643      3BFC8C35 
 643      D2AB7BDE 
 643      C2F3ECFC 
 644 0511 DC81F2A7 		.ascii	"\334\201\362\247\0168B\244\215\336\371\271\337\343\375"
 644      0E3842A4 
 644      8DDEF9B9 
 644      DFE3FD
 645 0520 EC3C2A37 		.ascii	"\354<*7\252\326\015'\263FFU\331\023{\234\313\032\322"
 645      AAD60D27 
 645      B3464655 
 645      D9137B9C 
 645      CB1AD2
 646 0533 EAB498AE 		.ascii	"\352\264\230\256N\350\370\243\256\031\214\313\330\265"
 646      4EE8F8A3 
 646      AE198CCB 
 646      D8B5
 647 0541 9E8E4B05 		.ascii	"\236\216K\005n\270\2025\312\306\223\312\026\341\013"
 647      6EB88235 
 647      CAC693CA 
 647      16E10B
 648 0550 ACD1786F 		.ascii	"\254\321xo~\330\0117\260Fi\342\234Q\304\315\254\261"
 648      7ED80937 
 648      B04669E2 
 648      9C51C4CD 
 648      ACB1
 649 0562 6D775E3C 		.ascii	"mw^<\231\003jV\240\366\320u\177p\352\264\310\272\010"
 649      99036A56 
 649      A0F6D075 
 649      7F70EAB4 
 649      C8BA08
 650 0575 7B5BC8BC 		.ascii	"{[\310\274=\324Q\350\206[\351\020\241j<\277\326AQ\244"
 650      3DD451E8 
 650      865BE910 
 650      A16A3CBF 
 650      D64151A4 
 651 0589 FF42979E 		.ascii	"\377B\227\236\347\300\357S\231_5\247\327\260\220\336"
 651      E7C0EF53 
 651      995F35A7 
 651      D7B090DE 
 652 0599 6740AF9A 		.ascii	"g@\257\232\323\373\004:\0373z\207'\007KD\334\315|TD"
ARM GAS  /tmp/ccbDpJFr.s 			page 52


 652      D3FB043A 
 652      1F337A87 
 652      27074B44 
 652      DCCD7C54 
 653 05ae 3FA97054 		.ascii	"?\251pT\324\350J\272\372\014\203\217A\331\307sd\333"
 653      D4E84ABA 
 653      FA0C838F 
 653      41D9C773 
 653      64DB
 654 05c0 C9907527 		.ascii	"\311\220u'=\206\351C.\370!sR\026}\367\256\310j\324\212"
 654      3D86E943 
 654      2EF82173 
 654      52167DF7 
 654      AEC86AD4 
 655 05d5 856FAD58 		.ascii	"\205o\255X\3405z\373\035Z\243\243\000gD\2063,\325\350"
 655      E0357AFB 
 655      1D5AA3A3 
 655      00674486 
 655      332CD5E8 
 656 05e9 D4BEB3A7 		.ascii	"\324\276\263\247\234\3613F\360\316\003O\263\334\360"
 656      9CF13346 
 656      F0CE034F 
 656      B3DCF0
 657 05f8 286B4C3F 		.ascii	"(kL?\334\337\216X\366\\\240\031V\326\036\273\210\225"
 657      DCDF8E58 
 657      F65CA019 
 657      56D61EBB 
 657      8895
 658 060a 50375D0B 		.ascii	"P7]\013\246v\314\2118\324\216\352\266\355j\271\243\306"
 658      A676CC89 
 658      38D48EEA 
 658      B6ED6AB9 
 658      A3C6
 659 061c 5176AC9E 		.ascii	"Qv\254\236\243\332\017\331\331\204:k\013\252\261\022"
 659      A3DA0FD9 
 659      D9843A6B 
 659      0BAAB112 
 660 062c 2A7F0660 		.ascii	"*\177\006`N[\201Y{-}\304\001\357e\336\316\306\306A)"
 660      4E5B8159 
 660      7B2D7DC4 
 660      01EF65DE 
 660      CEC6C641 
 661 0641 1E608DCE 		.ascii	"\036`\215\316\204\235e\316\3708kT\356\035>\343\210\363"
 661      849D65CE 
 661      F8386B54 
 661      EE1D3EE3 
 661      88F3
 662 0653 592372A2 		.ascii	"Y#r\242\267`\021>\303\032\322r\272\224-\247\217\302"
 662      B760113E 
 662      C31AD272 
 662      BA942DA7 
 662      8FC2
 663 0665 8D3D22AE 		.ascii	"\215=\"\256b\327\302\366\265\344:\342\013\014\375\376"
 663      62D7C2F6 
 663      B5E43AE2 
 663      0B0CFDFE 
 664 0675 BCBC1C53 		.ascii	"\274\274\034S\305\030\317\000\246H\301\011m\023L\230"
ARM GAS  /tmp/ccbDpJFr.s 			page 53


 664      C518CF00 
 664      A648C109 
 664      6D134C98 
 665 0685 2A6DDD47 		.ascii	"*m\335G\266\013V\357\013\007\022\373\227\341+\314\323"
 665      B60B56EF 
 665      0B0712FB 
 665      97E12BCC 
 665      D3
 666 0696 CE5D73F9 		.ascii	"\316]s\371\03073O\343\025GJ\344y_\002\236v\202\247\250"
 666      1837334F 
 666      E315474A 
 666      E4795F02 
 666      9E7682A7 
 667 06ab 57F0146D 		.ascii	"W\360\024m\335\323\335\224\347#\"\276\315\\e\326\344"
 667      DDD3DD94 
 667      E72322BE 
 667      CD5C65D6 
 667      E4
 668 06bc 5FB7C7DD 		.ascii	"_\267\307\335\314\325l\327\323R7\223\253\323\340j/\270"
 668      CCD56CD7 
 668      D3523793 
 668      ABD3E06A 
 668      2FB8
 669 06ce DAFD0AAE 		.ascii	"\332\375\012\256\366Xw\365,\242\257\233\337\235\226"
 669      F65877F5 
 669      2CA2AF9B 
 669      DF9D96
 670 06dd 912ADA9F 		.ascii	"\221*\332\237\260\006\0170\307O\217^-\"K\217\207\023"
 670      B0060F30 
 670      C74F8F5E 
 670      2D224B8F 
 670      8713
 671 06ef FAA3E216 		.ascii	"\372\243\342\026\342\301n!\311\261\275\361\216x\220"
 671      E2C16E21 
 671      C9B1BDF1 
 671      8E7890
 672 06fe C13A903D 		.ascii	"\301:\220=\221!H\013oz\270\341\215\320Bp\331\001n.\221"
 672      9121480B 
 672      6F7AB8E1 
 672      8DD04270 
 672      D9016E2E 
 673 0713 523908BE 		.ascii	"R9\010\276=\270\357}\202;\212\023\244\252n\251\377\017"
 673      3DB8EF7D 
 673      823B8A13 
 673      A4AA6EA9 
 673      FF0F
 674 0725 76B73900 		.ascii	"v\2679\000a\354\227\303\360\340\345\022\031q|\2573\236"
 674      61EC97C3 
 674      F0E0E512 
 674      19717CAF 
 674      339E
 675 0737 665E5263 		.ascii	"f^Rc\307\312\234l{9d\323\313\374\336\177\246\267\233"
 675      C7CA9C6C 
 675      7B3964D3 
 675      CBFCDE7F 
 675      A6B79B
 676 074a 0470122F 		.ascii	"\004p\022/;\001\237\314Kg\376\235\013\"\216PS/\325\247"
ARM GAS  /tmp/ccbDpJFr.s 			page 54


 676      3B019FCC 
 676      4B67FE9D 
 676      0B228E50 
 676      532FD5A7 
 677 075e DB87D4B6 		.ascii	"\333\207\324\266\275$\333\364R5\354\233r\303`X\216\222"
 677      BD24DBF4 
 677      5235EC9B 
 677      72C36058 
 677      8E92
 678 0770 C04DA2EC 		.ascii	"\300M\242\354&Ar\223u\375I\234`\266\261 \232\362\306"
 678      26417293 
 678      75FD499C 
 678      60B6B120 
 678      9AF2C6
 679 0783 22459036 		.ascii	"\"E\2206\026a\275\247[\021>K\001\241\233\023\025S.\270"
 679      1661BDA7 
 679      5B113E4B 
 679      01A19B13 
 679      15532EB8 
 680 0797 9236C4E2 		.ascii	"\2226\304\342\260\256\303P\000l\233\357\244\330\256"
 680      B0AEC350 
 680      006C9BEF 
 680      A4D8AE
 681 07a6 1F015369 		.ascii	"\037\001Si\202i\273N\367\364\203\177$\335t\237O\216"
 681      8269BB4E 
 681      F7F4837F 
 681      24DD749F 
 681      4F8E
 682 07b8 56AA221D 		.ascii	"V\252\"\035\242!\227T(\003b9,\320\232\270}\351J\204"
 682      A2219754 
 682      28036239 
 682      2CD09AB8 
 682      7DE94A84 
 683 07cc DADA86C9 		.ascii	"\332\332\206\311"
 684 07d0 AAF6E39C 		.ascii	"\252\366\343\234\376V7\263\2502\315\242:j\212\352|c"
 684      FE5637B3 
 684      A832CDA2 
 684      3A6A8AEA 
 684      7C63
 685 07e2 78B633AE 		.ascii	"x\2663\256aQ\365\316\036\276o\217/\263\306D\302\345"
 685      6151F5CE 
 685      1EBE6F8F 
 685      2FB3C644 
 685      C2E5
 686 07f4 4C577C8D 		.ascii	"LW|\2155\342r\233\332\324\270\2055:O\316\225\253q+k"
 686      35E2729B 
 686      DAD4B885 
 686      353A4FCE 
 686      95AB712B 
 687 0809 A4750CE5 		.ascii	"\244u\014\345\331\343v\226\247\007\261Y\305\260\242"
 687      D9E37696 
 687      A707B159 
 687      C5B0A2
 688 0818 79283D7F 		.ascii	"y(=\177\376\035y}\312\003\260\237\271\360$\260\371\222"
 688      FE1D797D 
 688      CA03B09F 
 688      B9F024B0 
ARM GAS  /tmp/ccbDpJFr.s 			page 55


 688      F992
 689 082a 74699101 		.ascii	"ti\221\001\270\310\025\\P\216\234\237\317\\\030\274"
 689      B8C8155C 
 689      508E9C9F 
 689      CF5C18BC 
 690 083a EEB0DA16 		.ascii	"\356\260\332\026\007\334\313\\\015=\2731\343\212\373"
 690      07DCCB5C 
 690      0D3DBB31 
 690      E38AFB
 691 0849 59C33059 		.ascii	"Y\3030Yy[\215\037\261\306\235\003\023\335\216\370)k"
 691      795B8D1F 
 691      B1C69D03 
 691      13DD8EF8 
 691      296B
 692 085b D4DDDC59 		.ascii	"\324\335\334Y%\342A\3268\326\320m\260\303#\254Q\036"
 692      25E241D6 
 692      38D6D06D 
 692      B0C323AC 
 692      511E
 693 086d DD30E380 		.ascii	"\3350\343\200\307X#\361\\d\230\023\236d\215\234\371"
 693      C75823F1 
 693      5C649813 
 693      9E648D9C 
 693      F9
 694 087e 91BD2E78 		.ascii	"\221\275.x\206G^~=C`\363o\0054O\030w\326a\266\272\245"
 694      86475E7E 
 694      3D4360F3 
 694      6F05344F 
 694      1877D661 
 695 0895 0BB382F3 		.ascii	"\013\263\202\363\256\226\326T\001\255\240\177K<\340"
 695      AE96D654 
 695      01ADA07F 
 695      4B3CE0
 696 08a4 238344DB 		.ascii	"#\203D\333]8\365eg\363}\203!\316\205\006s\002\202\251"
 696      5D38F565 
 696      67F37D83 
 696      21CE8506 
 696      730282A9 
 697 08b8 1296C8B1 		.ascii	"\022\226\310\261\367Q\346W\303\207\212\0160V\266\271"
 697      F751E657 
 697      C3878A0E 
 697      3056B6B9 
 698 08c8 1862BCA9 		.ascii	"\030b\274\251r\221\245\362%\252\\\214d\355\033\262v"
 698      7291A5F2 
 698      25AA5C8C 
 698      64ED1BB2 
 698      76
 699 08d9 BEA5768C 		.ascii	"\276\245v\214`a\272UV>i]Yi\372\234\254]b\251\355i\251"
 699      6061BA55 
 699      563E695D 
 699      5969FA9C 
 699      AC5D62A9 
 700 08f0 DC2C2B17 		.ascii	"\334,+\027X*\327(P\307\362i`@zX\334\2404K\301/:\315"
 700      582AD728 
 700      50C7F269 
 700      60407A58 
 700      DCA0344B 
ARM GAS  /tmp/ccbDpJFr.s 			page 56


 701 0908 87409A91 		.ascii	"\207@\232\221\021\212\341\274\260\002U\200\324\200\234"
 701      118AE1BC 
 701      B0025580 
 701      D4809C
 702 0917 03A906A9 		.ascii	"\003\251\006\251\004)\003)\0079+\254\240S\207\325\312"
 702      04290329 
 702      07392BAC 
 702      A05387D5 
 702      CA
 703 0928 C8411752 		.ascii	"\310A\027R+`@\305\013Ee\302u\266m\351!\2031\002Sd\247"
 703      2B6040C5 
 703      0B4565C2 
 703      75B66DE9 
 703      21833102 
 704 093f AC86A120 		.ascii	"\254\206\241 \250I\216\242\320z\024\012\345rY\271\330"
 704      A8498EA2 
 704      D07A140A 
 704      E57259B9 
 704      D8
 705 0950 7AA2A832 		.ascii	"z\242\2502y\022\237H\334\347h\376\230\242PV\241\013"
 705      79129F48 
 705      DCE768FE 
 705      98A25056 
 705      A10B
 706 0962 A679D759 		.ascii	"\246y\327Y\2361\356\212O\333\223\202\303\207r\273\306"
 706      9E31EE8A 
 706      4FDB9382 
 706      C38772BB 
 706      C6
 707 0973 1CD10A8F 		.ascii	"\034\321\012\217%\254\222\252\206?\311\356d\225\004"
 707      25AC92AA 
 707      863FC9EE 
 707      649504
 708 0982 035036F8 		.ascii	"\003P6\370\254\263\036\014\243\2458\232\322RgNK,\337"
 708      ACB31E0C 
 708      A3A5389A 
 708      D252674E 
 708      4B2CDF
 709 0995 21D00498 		.ascii	"!\320\004\230\306^\344\306H\002.A\002j9\301d\016\204"
 709      C65EE4C6 
 709      48022E41 
 709      026A39C1 
 709      640E84
 710 09a8 3D788A71 		.ascii	"=x\212q\015\205\204\036\367\347\264\012\270\2165\222"
 710      0D85841E 
 710      F7E7B40A 
 710      B88E3592 
 711 09b8 BBAA3BF9 		.ascii	"\273\252;\371\206\367\002i\237\356\332\037\345\302g"
 711      86F70269 
 711      9FEEDA1F 
 711      E5C267
 712 09c7 0479527E 		.ascii	"\004yR~06\326\252\306\315L\271x>{;\306\267Xc\346\350"
 712      3036D6AA 
 712      C6CD4CB9 
 712      783E7B3B 
 712      C6B75863 
 713 09dd B55B0EB8 		.ascii	"\265[\016\270\2075\316\317\266';\341G\264\361OS\003"
ARM GAS  /tmp/ccbDpJFr.s 			page 57


 713      8735CECF 
 713      B6273BE1 
 713      47B4F14F 
 713      5303
 714 09ef 11CF5DD1 		.ascii	"\021\317]\321\212%0\177\\\226\360\177\344?\017\017r"
 714      8A25307F 
 714      5C96F07F 
 714      E43F0F0F 
 714      72
 715 0a00 80CFA5EC 		.ascii	"\200\317\245\354\312\012\230a..d\232y\2540\375\301e"
 715      CA0A9861 
 715      2E2E649A 
 715      79AC30FD 
 715      C165
 716 0a12 0F0F46D6 		.ascii	"\017\017F\326\315\371/\353\207\031Ydg\337\006\373\233"
 716      CDF92FEB 
 716      87195964 
 716      67DF06FB 
 716      9B
 717 0a23 66255917 		.ascii	"f%Y\027m\325\344\025\250\311\006R\223\365\002\033B("
 717      6DD5E415 
 717      A8C90652 
 717      93F5021B 
 717      4228
 718 0a35 D9813D50 		.ascii	"\331\201=P$^\201\266\203l\003\211\000\011\007\011\003"
 718      245E81B6 
 718      836C0389 
 718      00090709 
 718      03
 719 0a46 09053180 		.ascii	"\011\0051\200\314C]\316\201<\006\351\003\351\004\271"
 719      CC435DCE 
 719      813C06E9 
 719      03E904B9 
 720 0a56 0E7213E4 		.ascii	"\016r\023\344\006H\013\247\224\025O\312\276\357\261"
 720      06480BA7 
 720      94154FCA 
 720      BEEFB1
 721 0a65 BA8475AF 		.ascii	"\272\204u\257Q\260\000WmYj\363\315\356L\233<\366\324"
 721      51B00057 
 721      6D596AF3 
 721      CDEE4C9B 
 721      3CF6D4
 722 0a78 5BC67279 		.ascii	"[\306ry\301\2520\036\307\255\267B\241\264Z\327\247\346"
 722      C1AA301E 
 722      C7ADB742 
 722      A1B45AD7 
 722      A7E6
 723 0a8a 9535D966 		.ascii	"\2255\331fV\223\255\254&\315\270\271\000W\3114@\327"
 723      5693ADAC 
 723      26CDB8B9 
 723      0057C934 
 723      40D7
 724 0a9c 00711BE7 		.ascii	"\000q\033\347f'p\023\015\361\337\201\030o)c\354n\315"
 724      66277013 
 724      0DF1DF81 
 724      186F2963 
 724      EC6ECD
ARM GAS  /tmp/ccbDpJFr.s 			page 58


 725 0aaf D8141F6E 		.ascii	"\330\024\037n\250[\205\332\001E'\302f\036\314\3262%"
 725      A85B85DA 
 725      014527C2 
 725      661ECCD6 
 725      3225
 726 0ac1 8CDB6630 		.ascii	"\214\333f0\332_\004c\027\270~)\014\343\204\306\020\245"
 726      DA5F0463 
 726      17B87E29 
 726      0CE384C6 
 726      10A5
 727 0ad3 461D80A1 		.ascii	"F\035\200\241\316:\206\005L\3345\203@F\262\371c\275"
 727      CE3A8605 
 727      4CDC3583 
 727      4046B2F9 
 727      63BD
 728 0ae5 50A2C0F3 		.ascii	"P\242\300\363\377S\241\030H!\007_\036\216\240\205\334"
 728      FF53A118 
 728      4821075F 
 728      1E8EA085 
 728      DC
 729 0af6 054EEEF2 		.ascii	"\005N\356\362d\23269wl\025\262I\343>\314\347\036\216"
 729      649A3639 
 729      776C15B2 
 729      49E33ECC 
 729      E71E8E
 730 0b09 EF1E9CF7 		.ascii	"\357\036\234\367\202\217n3\206\222\242y\271\220P\273"
 730      828F6E33 
 730      8692A279 
 730      B99050BB 
 731 0b19 C1438F8D 		.ascii	"\301C\217\215\265\23690Z8\350\342#l;H\250\247Ke\007"
 731      B59E3930 
 731      5A38E8E2 
 731      236C3B48 
 731      A8A74B65 
 732 0b2e AF8385E6 		.ascii	"\257\203\205\346\025\313V<[\266z\314\227-\266ok;\342"
 732      15CB563C 
 732      5BB67ACC 
 732      972DB66F 
 732      6B3BE2
 733 0b41 9710170A 		.ascii	"\227\020\027\012\3736BE\217\374\314B\224e\302\336\273"
 733      FB364245 
 733      8FFCCC42 
 733      9465C2DE 
 733      BB
 734 0b52 CC677E3F 		.ascii	"\314g~?h\365ZV\377\0359\347\326\327\302G\020\302C\036"
 734      68F55A56 
 734      FF1D39E7 
 734      D6D7C247 
 734      10C2431E 
 735 0b66 CE009C3F 		.ascii	"\316\000\234?0\013e:R\301\025\011\346\241\365`\254\333"
 735      300B653A 
 735      52C11509 
 735      E6A1F560 
 735      ACDB
 736 0b78 BEC70758 		.ascii	"\276\307\007X\332f\241OF\322\320\037Z\017}Sd\024\331"
 736      DA66A14F 
 736      46D2D01F 
ARM GAS  /tmp/ccbDpJFr.s 			page 59


 736      5A0F7D53 
 736      6414D9
 737 0b8b 7E93A0EE 		.ascii	"~\223\240\356\313\241?4\013\375\267u<\364'\302R\324"
 737      CBA13F34 
 737      0BFDB775 
 737      3CF427C2 
 737      52D4
 738 0b9d 6F197A9F 		.ascii	"o\031z\237\242V\342\254\341S\321q\004\334,\200\233\201"
 738      A256E2AC 
 738      E153D171 
 738      04DC2C80 
 738      9B81
 739 0baf 3C4E834C 		.ascii	"<N\203L\201\214\201|\013\362\034\344\031\310S3R\342"
 739      818C817C 
 739      0BF21CE4 
 739      19C85333 
 739      52E2
 740 0bc1 9A697EC9 		.ascii	"\232i~\311J\373\000\234\022#6\357\261#{\025k\323\303"
 740      4AFB009C 
 740      122336EF 
 740      B1237B15 
 740      6BD3C3
 741 0bd4 9769375D 		.ascii	"\227i7]\243\226\007Aw\300\266\256r\362\016\231M\336"
 741      A3960741 
 741      77C0B6AE 
 741      72F20E99 
 741      4DDE
 742 0be6 412BEBC7 		.ascii	"A+\353\307$\\\235 \006\306\301\342\020\317\306(\004"
 742      245C9D20 
 742      06C6C1E2 
 742      10CFC628 
 742      04
 743 0bf7 3C02810D 		.ascii	"<\002\201\015\233\315\276\241\254\255\007\217m'\010"
 743      9BCDBEA1 
 743      ACAD078F 
 743      6D2708
 744 0c06 C8C3FC23 		.ascii	"\310\303\374#\256om\375\240\372\306\333vd\255!\3259"
 744      AE6F6DFD 
 744      A0FAC6DB 
 744      7664AD21 
 744      D539
 745 0c18 C6754DB3 		.ascii	"\306uM\263\304\262\316\333\017#\222\354\241\005\273"
 745      C4B2CEDB 
 745      0F2392EC 
 745      A105BB
 746 0c27 169AC82D 		.ascii	"\026\232\310-\345<\221\344\351|\352e,\035\2208\035\007"
 746      E53C91E4 
 746      E97CEA65 
 746      2C1D9038 
 746      1D07
 747 0c39 9EE65E8D 		.ascii	"\236\346^\215\247\011\262o1\3614\316x\262\265\012\242"
 747      A709B26F 
 747      31F134CE 
 747      78B2B50A 
 747      A2
 748 0c4a 49A0475E 		.ascii	"I\240G^\010\245\222\\wi\033)Ibj^.\311\016jK\272\017"
 748      08A5925C 
ARM GAS  /tmp/ccbDpJFr.s 			page 60


 748      77691B29 
 748      49626A5E 
 748      2EC90E6A 
 749 0c61 FFB66C94 		.ascii	"\377\266l\224E\002w:\203\360\242@\010)W\371\215\216"
 749      4502773A 
 749      83F0A240 
 749      082957F9 
 749      8D8E
 750 0c73 841DFA32 		.ascii	"\204\035\3722\355sWiq\020\3350\333\272\214\356\224\253"
 750      ED735769 
 750      7110DD30 
 750      DBBA8CEE 
 750      94AB
 751 0c85 946ED059 		.ascii	"\224n\320Y\270I\274\331\340\036o0\206b\372\265C\004"
 751      B849BCD9 
 751      E01E6F30 
 751      8662FAB5 
 751      4304
 752 0c97 BF1BF307 		.ascii	"\277\033\363\007)6g\302\005\305\276\270\301\331P\360"
 752      293667C2 
 752      05C5BEB8 
 752      C1D950F0 
 753 0ca7 25FDE260 		.ascii	"%\375\342`\2075\3355\262j\021S%\017\376\273\254\251"
 753      8735DD35 
 753      B26A1153 
 753      250FFEBB 
 753      ACA9
 754 0cb9 2A527868 		.ascii	"*Rxh'O!<Z\242X\313\035\301\302\335\371\030[R\341\221"
 754      274F213C 
 754      5AA258CB 
 754      1DC1C2DD 
 754      F9185B52 
 755 0ccf 0DA55AD7 		.ascii	"\015\245Z\327V\030\277%\257\277Y\226\312\312\3359\177"
 755      5618BF25 
 755      AFBF5996 
 755      CACADD39 
 755      7F
 756 0ce0 4C90B58F 		.ascii	"L\220\265\217Y\327V\344\240\245\236g\214l\037\217[\252"
 756      59D756E4 
 756      A0A59E67 
 756      8C6C1F8F 
 756      5BAA
 757 0cf2 2F7C6069 		.ascii	"/|`ib\306\311F\346\262um\205\361\312\177#\272\322tj"
 757      62C6C946 
 757      E6B2756D 
 757      85F1CA7F 
 757      23BAD274 
 758 0d07 7ED174AA 		.ascii	"~\321t\252`\267\215f\353k\247w\026\375\352\202\224\364"
 758      60B78D66 
 758      EB6BA777 
 758      16FDEA82 
 758      94F4
 759 0d19 55F971B2 		.ascii	"U\371q\262Y\261v\266e\374*\376\230A\351\256\355E\356"
 759      59B176B6 
 759      65FC2AFE 
 759      9841E9AE 
 759      ED45EE
ARM GAS  /tmp/ccbDpJFr.s 			page 61


 760 0d2c 46BC89B7 		.ascii	"F\274\211\2676+\336\214\355}\264\322\310>\246I\366\325"
 760      362BDE8C 
 760      ED7DB4D2 
 760      C83EA649 
 760      F6D5
 761 0d3e 467DC176 		.ascii	"F}\301vwO\302\256\021{<\301_Qe\355/q\300\263\254\221"
 761      774FC2AE 
 761      117B3CC1 
 761      5F5165ED 
 761      2F71C0B3 
 762 0d54 D9303E24 		.ascii	"\3310>$\342PG\332\030~\224\321\263\010oc\215\271\355"
 762      E25047DA 
 762      187E94D1 
 762      B3086F63 
 762      8DB9ED
 763 0d67 E50637BC 		.ascii	"\345\0067\274\2235\366?\274d\3760Qi\366\316#\016K\017"
 763      9335F63F 
 763      BC64FE30 
 763      5169F6CE 
 763      230E4B0F 
 764 0d7b 13871F17 		.ascii	"\023\207\037\027\346\331\341X6\252f\333\266Oq<;?\026"
 764      E6D9E158 
 764      36AA66DB 
 764      B64F713C 
 764      3B3F16
 765 0d8e 51D6EE88 		.ascii	"Q\326\356\210\223X\243\245\377p\004\177=\321D\315\027"
 765      9358A3A5 
 765      FF70047F 
 765      3DD144CD 
 765      17
 766 0d9f D7BCC15F 		.ascii	"\327\274\301_z\330\221o\265\013\273\352\234q\006\325"
 766      7AD8916F 
 766      B50BBBEA 
 766      9C7106D5 
 767 0daf 759DEF3D 		.ascii	"u\235\357=\332\206\220\264\335V<\345\246\346x\217\207"
 767      DA8690B4 
 767      DD563CE5 
 767      A6E6788F 
 767      87
 768 0dc0 191256D1 		.ascii	"\031\022V\321W\2211\030\243\303\330T\352\026\005\006"
 768      57913118 
 768      A3C3D854 
 768      EA160506 
 769 0dd0 0CC5FC82 		.ascii	"\014\305\374\202\336-\200\240\335\\\325\264\245[0/F"
 769      DE2D80A0 
 769      DD5CD5B4 
 769      A55B302F 
 769      46
 770 0de1 0610AB2F 		.ascii	"\006\020\253/\210\013\355\343\3526*\006\324G\351f\217"
 770      880BEDE3 
 770      EA362A06 
 770      D447E966 
 770      8F
 771 0df2 E8C65AD7 		.ascii	"\350\306Z\3275\333&\367q\333\247\370\342n\246\277\340"
 771      35DB26F7 
 771      71DBA7F8 
 771      E26EA6BF 
ARM GAS  /tmp/ccbDpJFr.s 			page 62


 771      E0
 772 0e03 81EF8E12 		.ascii	"\201\357\216\022\312\001K\363\226kr\247\011\311~\253"
 772      CA014BF3 
 772      966B72A7 
 772      09C97EAB 
 773 0e13 AA4A20D3 		.ascii	"\252J \323\022\020\262\222\356\265TWLg\263\373X<vG\007"
 773      1210B292 
 773      EEB55457 
 773      4C67B3FB 
 773      583C7647 
 774 0e28 31B946D4 		.ascii	"1\271F\324\311M,\003\266\237\251\260\305L\003I\002I"
 774      C94D2C03 
 774      B69FA9B0 
 774      C54C0349 
 774      0249
 775 0e3a 06490139 		.ascii	"\006I\0019\004\222\016\222\011\222\010r\024\344\010"
 775      04920E92 
 775      09920872 
 775      14E408
 776 0e49 566E3DDA 		.ascii	"Vn=\3325\244f\301\316\202\233\221\361@\255{(\005G\022"
 776      35A466C1 
 776      CE829B91 
 776      F140AD7B 
 776      28054712 
 777 0e5d 966099B0 		.ascii	"\226`\231\260\005\317*34n\022\310\036\353\201(+!\316"
 777      05CF2A33 
 777      346E12C8 
 777      1EEB8128 
 777      2B21CE
 778 0e70 5409B5C8 		.ascii	"T\011\265\310\302\360E\263G\350\276\351\233iN\370\012"
 778      C2F045B3 
 778      47E8BEE9 
 778      9B694EF8 
 778      0A
 779 0e81 2D4321BA 		.ascii	"-C!\272\177g\225=Z\342a\225\015t\034H\370\277\023RX"
 779      7F67953D 
 779      5AE26195 
 779      0D741C48 
 779      F8BF1352 
 780 0e96 4B67F131 		.ascii	"Kg\36110\224\205M\263\230\020D\361\244'D\204\333\231"
 780      3094854D 
 780      B3981044 
 780      F1A42744 
 780      84DB99
 781 0ea9 CDC26358 		.ascii	"\315\302cX\271\357\3106\315\302\311\330\206\031\027"
 781      B9EFC836 
 781      CDC2C9D8 
 781      861917
 782 0eb8 FAE611FA 		.ascii	"\372\346\021\372\320y\366\346\2616\364n\251\313\262"
 782      D079F6E6 
 782      B136F46E 
 782      A9CBB2
 783 0ec7 837C0FB6 		.ascii	"\203|\017\266\\\244\025(\217\316\301\313\340\363\004"
 783      5CA41528 
 783      8FCEC1CB 
 783      E0F304
 784 0ed6 169989E4 		.ascii	"\026\231\211\344\311\2719\2077\322\015\306\002X\247"
ARM GAS  /tmp/ccbDpJFr.s 			page 63


 784      C9B93987 
 784      37D20DC6 
 784      0258A7
 785 0ee5 4EAE4BA9 		.ascii	"N\256K\251\204\033\352b\221h\241<\371\266\233G\177\001"
 785      841BEA62 
 785      9168A13C 
 785      F9B69B47 
 785      7F01
 786 0ef7 80726187 		.ascii	"\200ra\207\013\237\370\015\362\216\340ju\275\003\036"
 786      0B9FF80D 
 786      F28EE06A 
 786      75BD031E 
 787 0f07 6513DDDA 		.ascii	"e\023\335\332+\345\202\253\011=\354\265()\324\223\230"
 787      2BE582AB 
 787      093DECB5 
 787      2829D493 
 787      98
 788 0f18 764E9E08 		.ascii	"vN\236\010\235w3!\316g\235\267\373[\232\235m#.\244\210"
 788      9D773321 
 788      CE679DB7 
 788      FB5B9A9D 
 788      6D232EA4 
 789 0f2d 0B24C475 		.ascii	"\013$\304uM\321\251\216\014\261q\202\254\370\241\006"
 789      4DD1A98E 
 789      0CB17182 
 789      ACF8A106 
 790 0f3d C37B4409 		.ascii	"\303{D\011\345\311d\302\251\014\270\210\002~\320<\277"
 790      E5C964C2 
 790      A90CB888 
 790      027ED03C 
 790      BF
 791 0f4e DF19CF31 		.ascii	"\337\031\3171\300c\227\343s\\q\002\375\022[\310\214"
 791      C06397E3 
 791      735C7102 
 791      FD125BC8 
 791      8C
 792 0f5f 7B6E945F 		.ascii	"{n\224_}\246\024\257K\243_\340\236\306N\250\004\277"
 792      7DA614AF 
 792      4BA35FE0 
 792      9EC64EA8 
 792      04BF
 793 0f71 D26BBB53 		.ascii	"\322k\273S\330\352k\273\302\272\351=\3664Zb\213\321"
 793      D8EA6BBB 
 793      C2BAE93D 
 793      F6345A62 
 793      8BD1
 794 0f83 92B367F7 		.ascii	"\222\263g\367Ig\023U\245\214\201\321\323\243\333\221"
 794      49671355 
 794      A58C81D1 
 794      D3A3DB91 
 795 0f93 E915F219 		.ascii	"\351\025\362\031\326\2316\220\226+g\367,"
 795      D6993690 
 795      962B67F7 
 795      2C
 796 0fa0 EBDC5132 		.ascii	"\353\334Q2\227\264\3106We\224\253s\022WeQ\303\335\310"
 796      97B4C836 
 796      576594AB 
ARM GAS  /tmp/ccbDpJFr.s 			page 64


 796      73125765 
 796      51C3DDC8 
 797 0fb4 94DD4DF5 		.ascii	"\224\335M\365\005\367\015\241\213\325D\013\025\313\221"
 797      05F70DA1 
 797      8BD5440B 
 797      15CB91
 798 0fc3 152BC92A 		.ascii	"\025+\311*\247dM\235M\177\350\206/\261/\371_\036F%\003"
 798      A7644D9D 
 798      4D7FE886 
 798      2FB12FF9 
 798      5F1E4625 
 799 0fd8 17F1A0A5 		.ascii	"\027\361\240\245MNy\025\353l\314\234\252\301\2460\214"
 799      4D4E7915 
 799      EB6CCC9C 
 799      AAC1A630 
 799      8C
 800 0fe9 AC337568 		.ascii	"\2543uh\"\346\005)\257\246a\234\227\302\270\225q\367"
 800      22E60529 
 800      AFA6619C 
 800      97C2B895 
 800      71F7
 801 0ffb B1334F79 		.ascii	"\2613Oyg"
 801      67
 802 1000 ABCB0E92 		.ascii	"\253\313\016\222\362/\211\022\252\220\243\250PFQC\243"
 802      F22F8912 
 802      AA90A3A8 
 802      50465143 
 802      A3
 803 1011 E8490F7F 		.ascii	"\350I\017\177d\207\273\235^\261F/Z\253\321Z\326\031"
 803      6487BB9D 
 803      5EB1462F 
 803      5AABD15A 
 803      D619
 804 1023 BBEB5285 		.ascii	"\273\353R\205\253\022\260\342Kf\025\252\243x/Ix3\323"
 804      AB12B0E2 
 804      4B6615AA 
 804      A3782F49 
 804      7833D3
 805 1036 FBEE8B80 		.ascii	"\373\356\213\2007\035\360V\355\301d\3755\220=\002\250"
 805      371DF056 
 805      EDC164FD 
 805      35903D02 
 805      A8
 806 1047 A10B32E2 		.ascii	"\241\0132\342\013J\304\227)\342\023yGO\331\343!\206"
 806      0B4AC497 
 806      29E21379 
 806      474FD9E3 
 806      2186
 807 1059 B828BCF1 		.ascii	"\270(\274\361\277M8\030\340\354\203\345n6Q\\\241(\032"
 807      BF4D3818 
 807      E0EC83E5 
 807      6E36515C 
 807      A1281A
 808 106c 2414498F 		.ascii	"$\024I\217s[\004\216\342\3145i\242\200\022\252\2271"
 808      735B048E 
 808      E2CC3569 
 808      A28012AA 
ARM GAS  /tmp/ccbDpJFr.s 			page 65


 808      9731
 809 107e D42B3134 		.ascii	"\324+14R\014Q\007z*\005<\373\252\271\277f\255\204\233"
 809      520C5107 
 809      7A2A053C 
 809      FBAAB9BF 
 809      66AD849B 
 810 1092 AC95F0F5 		.ascii	"\254\225\360\365W*\341\026\032E\263\024\305\365}\375"
 810      572AE116 
 810      1A45B314 
 810      C5F57DFD 
 811 10a2 8F242EEF 		.ascii	"\217$.\357\306\2710.C\005\242\206\256\312q\\U\306q\203"
 811      C6B9302E 
 811      4305A286 
 811      AECA715C 
 811      55C67183 
 812 10b6 C6D1977A 		.ascii	"\306\321\227z?\327\011\3078\277b\034\255\326j\270\315"
 812      3FD709C7 
 812      38BF621C 
 812      ADD66AB8 
 812      CD
 813 10c7 5A0DDF7A 		.ascii	"Z\015\337z\245\032\276M\343h\227\342\250\330\033\332"
 813      A51ABE4D 
 813      E36897E2 
 813      A8D81BDA 
 814 10d7 A7E67140 		.ascii	"\247\346q@\015\223l\244\277G\224\320M9\212\233\312("
 814      0D936CA4 
 814      BF4794D0 
 814      4D398A9B 
 814      CA28
 815 10e9 EED0288E 		.ascii	"\356\320(\216gu\364\302&\211E\221\333\220\224\307\242"
 815      6775F4C2 
 815      26894591 
 815      DB9094C7 
 815      A2
 816 10fa 20DF7BB1 		.ascii	" \337{\261(n'\037)u\264Y\023\235\024\305]\011E\\\357"
 816      286E271F 
 816      2975B459 
 816      139D14C5 
 816      5D09455C 
 817 110f 400C9949 		.ascii	"@\014\231I\335\006\362\035\332\027)E\206\010G\242\203"
 817      DD06F21D 
 817      DA172945 
 817      860847A2 
 817      83
 818 1120 3A64101D 		.ascii	":d\020\035\230\275?B]\024@\322\211\262b5>\311\0004\346"
 818      98BD3F42 
 818      5D1440D2 
 818      89B26235 
 818      3EC90034 
 819 1135 0FEC54E3 		.ascii	"\017\354T\343S\254Q\220\324_O\320\240\036:\202\364\204"
 819      53AC5190 
 819      D45F4FD0 
 819      A01E3A82 
 819      F484
 820 1147 1A8FB9E2 		.ascii	"\032\217\271\342s\354r\306\321\324fGr\371\036\\F\275"
 820      73EC72C6 
 820      D1D46647 
ARM GAS  /tmp/ccbDpJFr.s 			page 66


 820      72F91E5C 
 820      46BD
 821 1159 8CB493B9 		.ascii	"\214\264\223\271\323\005N4\202\317\277C\207\\N\211\315"
 821      D3054E34 
 821      82CFBF43 
 821      875C4E89 
 821      CD
 822 116a B63725A1 		.ascii	"\2667%\241\217\337\021f\366M9\320\316\017]P?\353\213"
 822      8FDF1166 
 822      F64D39D0 
 822      CE0F5D50 
 822      3FEB8B
 823 117d 6EAF8C53 		.ascii	"n\257\214S\323>x\332{\300\372Z\303w\215\271}\277\332"
 823      D33E78DA 
 823      7BC0FA5A 
 823      C3778DB9 
 823      7DBFDA
 824 1190 39CDE0C0 		.ascii	"9\315\340\300H>4P,R\235\001\374}\3323\326\273{\237="
 824      483E3450 
 824      2C529D01 
 824      FC7DDA33 
 824      D6BB7B9F 
 825 11a5 BEC0100D 		.ascii	"\276\300\020\015\245\215d\021\023\3501D\373\210pB\012"
 825      A58D6411 
 825      13E83144 
 825      FB887042 
 825      0A
 826 11b6 B7E350B9 		.ascii	"\267\343P\271\035\276\3024r\3423\233hHO\011\346'\314"
 826      1DBEC234 
 826      72E2339B 
 826      68484F09 
 826      E627CC
 827 11c9 CBF4EE47 		.ascii	"\313\364\356G\367\314\022\375\231\351\361\026=\003\025"
 827      F7CC12FD 
 827      99E9F116 
 827      3D0315
 828 11d8 F49C92FC 		.ascii	"\364\234\222\374\320\264\\UE\017\333\023\222c\014\335"
 828      D0B45C55 
 828      450FDB13 
 828      92630CDD 
 829 11e8 B72ABFD8 		.ascii	"\267*\277\330\027\236^g0\242;\002\321C\335\022\321\350"
 829      179E5E67 
 829      30A23B02 
 829      D143DD12 
 829      D1E8
 830 11fa 3E16498B 		.ascii	">\026I\213q=H\271\216\354,Iv\300'\\(\226\335C\245\006"
 830      713D48B9 
 830      8EEC2C49 
 830      76C0275C 
 830      2896DD43 
 831 1210 B529575B 		.ascii	"\265)W[\223M\271\032\222s5$\215\037\246\343OG\235\357"
 831      934DB91A 
 831      92733524 
 831      8D1FA6E3 
 831      4F479DEF 
 832 1224 76C3252E 		.ascii	"v\303%.6K\336\330\227\302\177\253D\036\347GY|Q\317\207"
 832      364BDED8 
ARM GAS  /tmp/ccbDpJFr.s 			page 67


 832      97C27FAB 
 832      441EE747 
 832      597C51CF 
 833 1239 221C94F1 		.ascii	"\"\034\224\361\315\230\025\362\030\215\356[S\011eD\246"
 833      CD9815F2 
 833      188DEE5B 
 833      53096544 
 833      A6
 834 124a 220EABB8 		.ascii	"\"\016\253\270\177Se\321}\303\216\305T\013\215\310\300"
 834      7F5365D1 
 834      7DC38EC5 
 834      540B8DC8 
 834      C0
 835 125b 462460E3 		.ascii	"F$`\343\254\210J\272b\355\361S\006,\276\347\371c\226"
 835      AC884ABA 
 835      62EDF153 
 835      062CBEE7 
 835      F96396
 836 126e C919D34A 		.ascii	"\311\031\323J\034\361m\3153{\023\260I\006\354\306\271"
 836      1CF16DCD 
 836      337B13B0 
 836      4906ECC6 
 836      B9
 837 127f AA62DBCB 		.ascii	"\252b\333\313\3354\3055%\341zz2\266\210\3432\216\354"
 837      DD34C535 
 837      25E17A7A 
 837      32B688E3 
 837      328EEC
 838 1292 8585A25A 		.ascii	"\205\205\242Z$*hB\0065!\201\232\241\240\006\213.g\272"
 838      242A6842 
 838      06352181 
 838      9AA1A006 
 838      8B2E67BA 
 839 12a6 E14906AA 		.ascii	"\341I\006\2522\275.Cf{\223\314\366\254<~V\032?G\307"
 839      32BD2E43 
 839      667B93CC 
 839      F6AC3C7E 
 839      561A3F47 
 840 12bb 67EE9FF9 		.ascii	"g\356\237\371\010G\271\322\341\263\227\223\022\005\233"
 840      0847B9D2 
 840      E1B39793 
 840      12059B
 841 12ca 500D2281 		.ascii	"P\015\"\201\272\201#\035\333\323\227`\307]\335\230\017"
 841      BA81231D 
 841      DBD39760 
 841      C75DDD98 
 841      0F
 842 12db 9EA2AE40 		.ascii	"\236\242\256@\005\315\313\256\346%W\241\"qU\227\322"
 842      05CDCBAE 
 842      E62557A1 
 842      22715597 
 842      D2
 843 12ec 791BE344 		.ascii	"y\033\343D\346\353\320\360\215lG>\276\250\177k%\035"
 843      E6EBD0F0 
 843      8D6C473E 
 843      BEA87F6B 
 843      251D
ARM GAS  /tmp/ccbDpJFr.s 			page 68


 844 12fe 4F420D13 		.ascii	"OB\015\023M\343\341\224\215\017\247\343\373OVu\272J"
 844      4DE3E194 
 844      8D0FA7E3 
 844      FB4F5675 
 844      BA4A
 845 1310 7BCA189B 		.ascii	"{\312\030\233Ov(B$?\016\031\272\030v\217\377V\216i\277"
 845      4F762842 
 845      243F0E19 
 845      BA18768F 
 845      FF568E69 
 846 1325 E4478568 		.ascii	"\344G\205h\233\350Df\343\331\214Q\265\331\306\225\360"
 846      9BE84466 
 846      E3D98C51 
 846      B5D9C695 
 846      F0
 847 1336 273BD92E 		.ascii	"';\331.2'\333\251\223\332\254\350A\274\204\357\263\215"
 847      3227DBA9 
 847      93DAACE8 
 847      41BC84EF 
 847      B38D
 848 1348 36F7D9AA 		.ascii	"6\367\331\252?y\223M\226\236\250\307\347\354\315\220"
 848      3F79934D 
 848      969EA8C7 
 848      E7ECCD90 
 849 1358 448ACA2D 		.ascii	"D\212\312-\364\016\216d\007E\222\264=?\306\325L\233"
 849      F40E8E64 
 849      074592B4 
 849      3D3FC6D5 
 849      4C9B
 850 136a 2CFDB276 		.ascii	",\375\262v\024\327\216\242\3323S\235\355\316f\332\037"
 850      14D78EA2 
 850      DA33539D 
 850      EDCE66DA 
 850      1F
 851 137b 2B998CE6 		.ascii	"+\231\214\346\312\321Ly\354z\272\371\313\376\347f\224"
 851      CAD14C79 
 851      EC7ABAF9 
 851      CBFEE766 
 851      94
 852 138c ECE4DA3B 		.ascii	"\354\344\332;\251\266\265-\312\256\276\256\"\323\323"
 852      A9B6B52D 
 852      CAAEBEAE 
 852      22D3D3
 853 139b 4004B1F0 		.ascii	"@\004\261\360\221\262\262>\224\236\005\242\237e<acw"
 853      91B2B23E 
 853      949E05A2 
 853      9F653C61 
 853      6377
 854 13ad 8B2E6897 		.ascii	"\213.h\227hc\260YY\232^\214\203\352\266[\267n\261\011"
 854      6863B059 
 854      599A5E8C 
 854      83EAB65B 
 854      B76EB109 
 855 13c1 B817C6EF 		.ascii	"\270\027\306\357a\343\357\2274\317\272\275h\345\213"
 855      61E3EF97 
 855      34CFBABD 
 855      68E58B
ARM GAS  /tmp/ccbDpJFr.s 			page 69


 856 13d0 A5851D23 		.ascii	"\245\205\035#\222\312&\015\262\302\357\215\272/\342"
 856      92CA260D 
 856      B2C2EF8D 
 856      BA2FE2
 857 13df 63AC541B 		.ascii	"c\254T\033\316<\317bS\035\250\346\021\305\234-\275\346"
 857      CE3CCF62 
 857      531DA8E6 
 857      11C59C2D 
 857      BDE6
 858 13f1 66FBBEB9 		.ascii	"f\373\276\271\237\232\334'\362\311\3223\037U\315\367"
 858      9F9ADC27 
 858      F2C9D233 
 858      1F55CDF7 
 859 1401 7EDD6939 		.ascii	"~\335i9_\344w\220o\374\014\206\010\264\202h\2428\271"
 859      5FE47790 
 859      6FFC0C86 
 859      08B48268 
 859      A238B9
 860 1414 E4E344C5 		.ascii	"\344\343D\305\315\363\000-\373\226\351\351\024G|\216"
 860      CDF3002D 
 860      FB96E9E9 
 860      14477C8E 
 861 1424 6139517B 		.ascii	"a9Q{\276\221?\352\030g\330\203C\372/\251\221\203\262"
 861      BE913FEA 
 861      1867D883 
 861      43FA2FA9 
 861      9183B2
 862 1437 91834A23 		.ascii	"\221\203J#\361\324\310\325\364\355\027\315\023\236c"
 862      F1D4C8D5 
 862      F4ED17CD 
 862      139E63
 863 1446 96C3049E 		.ascii	"\226\303\004\236\303\004\232\303S)\255\251\316N\212"
 863      C3049AC3 
 863      5329ADA9 
 863      CE4E8A
 864 1455 1F4B916F 		.ascii	"\037K\221o?d\345C\"\371\341\204'\375\372\002\264/\316"
 864      3F64E543 
 864      22F9E184 
 864      27FDFA02 
 864      B42FCE
 865 1468 8F1B17B1 		.ascii	"\217\033\027\261oH\004R\000\343]\343\256\213c\370\253"
 865      6F480452 
 865      00E35DE3 
 865      AE8B63F8 
 865      AB
 866 1479 90F710FD 		.ascii	"\220\367\020\375=G\270\340\216\022E28I\\,\231\240\015"
 866      3D47B8E0 
 866      8E124532 
 866      38495C2C 
 866      99A00D
 867 148c 92A1E9BC 		.ascii	"\222\241\351\274s\374Gyjh>\2777\336\353`\333{\212\344"
 867      73FC4779 
 867      6A683EBF 
 867      37DEEB60 
 867      DB7B8AE4 
 868 14a0 3D59A4EE 		.ascii	"=Y\244\356G\243\267\215\363\337\037\223\237\337I?']"
 868      47A3B78D 
ARM GAS  /tmp/ccbDpJFr.s 			page 70


 868      F3DF1F93 
 868      9FDF493F 
 868      275D
 869 14b2 CA7E4EBA 		.ascii	"\312~N\272=\375\340sg\216\306 \241I\023\335Q*E\223N"
 869      3DFDE073 
 869      678EC620 
 869      A14913DD 
 869      512A4593 
 870 14c7 D1A43034 		.ascii	"\321\24404\351\024\315\360\340\300>\321\214\25213\252"
 870      E914CDF0 
 870      E0C03ED1 
 870      8CAA3133 
 870      AA
 871 14d8 0E73AA0E 		.ascii	"\016s\252\016S\252\316\244\355*0\377\272i\332L;\203"
 871      53AACEA4 
 871      ED2A30FF 
 871      BA69DA4C 
 871      3B83
 872 14ea 6B6750ED 		.ascii	"kgP\355]\333N\204\332\343:\226\313o\007\272F\335xU\334"
 872      5DDB4E84 
 872      DAE33A96 
 872      CB6F07BA 
 872      46DD7855 
 873 14ff 7CB6AEE3 		.ascii	"|\266\256\343\226T\025\"]H\217\310\011=\242Lh&Mh\326"
 873      96541522 
 873      5D488FC8 
 873      093DA24C 
 873      68264D68 
 874 1514 F8C44E37 		.ascii	"\370\304N7<\314,\015\247\326'`n\251`\352\223\244#\333"
 874      3CCC2C0D 
 874      A7D62760 
 874      6EA960EA 
 874      93A423DB 
 875 1528 5961D045 		.ascii	"Ya\320E\033\035\225\015\035U\032\312\242\206\332\372"
 875      1B1D950D 
 875      1D551ACA 
 875      A286DAFA 
 876 1538 AB37E219 		.ascii	"\2537\342\031^]y\251\005n8\332\215\3750\254\272&\231"
 876      5E5D79A9 
 876      056E38DA 
 876      8DFD30AC 
 876      BA2699
 877 154b 6E348E8B 		.ascii	"n4\216\213|g\024\371$\263U\240\023\241\3314\265\333"
 877      7C6714F9 
 877      24B355A0 
 877      13A1D934 
 877      B5DB
 878 155d 5B33D6D8 		.ascii	"[3\326\330\274e\344\320ipB\232\006\035OF\236\362\247"
 878      BC65E4D0 
 878      6970429A 
 878      061D4F46 
 878      9EF2A7
 879 1570 DEEEA1E1 		.ascii	"\336\356\241\341/f\307\244\200\227\022MtL\302\211\262"
 879      2F66C7A4 
 879      8097124D 
 879      744CC289 
 879      B2
ARM GAS  /tmp/ccbDpJFr.s 			page 71


 880 1581 4591B414 		.ascii	"E\221\264\024\217\353\024j\323\263\262]\316\270\205"
 880      8FEB146A 
 880      D3B3B25D 
 880      CEB885
 881 1590 C16B9AAD 		.ascii	"\301k\232\255k\024M\354\371\335\265`/O\016:Oi\351$\265"
 881      6B144DEC 
 881      F9DDB560 
 881      2F4F0E3A 
 881      4F69E924 
 882 15a5 D49DF660 		.ascii	"\324\235\366`\237+\356b\226\242v?\036\264\223\331K5"
 882      9F2BEE62 
 882      96A2763F 
 882      1EB493D9 
 882      4B35
 883 15b7 672F5F36 		.ascii	"g/_6\224\2574T@\015\015\037K\274\202\360cfh\364\354"
 883      94AF3454 
 883      400D0D1F 
 883      4BBC82F0 
 883      636668F4 
 884 15cc F6295EC7 		.ascii	"\366)^\307K\310\2560l\3671^\211\011\344\367\321\207"
 884      4BC8AE30 
 884      6CF7315E 
 884      8909E4F7 
 884      D187
 885 15de 1B470E3A 		.ascii	"\033G\016:\341I\246[\330=S.2]Rt\317\014\315']m\327\374"
 885      E149A65B 
 885      D83D532E 
 885      325D5274 
 885      CF0CCD27 
 886 15f6 69A9E64F 		.ascii	"i\251\346O\261\232ozZ8\257\266\254\352b\250\352\"Z\325"
 886      B19A6F7A 
 886      5A38AFB6 
 886      ACEA62A8 
 886      EA225AD5 
 887 160a A5B4AAE9 		.ascii	"\245\264\252\351 \242\335\326{3\025+\2653_\244=T{\343"
 887      20A2DDD6 
 887      7B33152B 
 887      B5335FA4 
 887      3D547BE3 
 888 161e 373F3862 		.ascii	"7?8bhJ'\217\333\277j\3102\354(08\2403\342bT\002T\300"
 888      684A278F 
 888      DBBF6AC8 
 888      32EC2830 
 888      38A033E2 
 889 1637 63896268 		.ascii	"c\211bh!\364|\012%rV\374\001\214\274\366\255\341M\263"
 889      21F47C0A 
 889      257256FC 
 889      018CBCF6 
 889      ADE14DB3 
 890 164b A9506836 		.ascii	"\251Ph6\025\316\361\251p\216N\205\256\363y\367D\034"
 890      15CEF1A9 
 890      708E4E85 
 890      AEF379F7 
 890      441C
 891 165d B688B231 		.ascii	"\266\210\2621r\341\370\010\377%g\014\241j\307\245\316"
 891      72E1F808 
 891      FF25670C 
ARM GAS  /tmp/ccbDpJFr.s 			page 72


 891      A16AC7A5 
 891      CE
 892 166e 9BFC879E 		.ascii	"\233\374\207\236\257\023&\257\224\337]d\233\235J\211"
 892      AF1326AF 
 892      94DF5D64 
 892      9B9D4A89 
 893 167e 9D0AC6CE 		.ascii	"\235\012\306\316Pfb\311\002v\312E\306\236\012U\321x"
 893      506662C9 
 893      0276CA45 
 893      C69E0A55 
 893      D178
 894 1690 2BA5788D 		.ascii	"+\245x\215\305y\247\005Kvlj?\252yp\331\215\321c\034"
 894      C579A705 
 894      4B766C6A 
 894      3FAA7970 
 894      D98DD163 
 895 16a5 FB9C5263 		.ascii	"\373\234Rc\344\324\300\263\216b\\\031\247\346<\245\346"
 895      E4D4C0B3 
 895      8E625C19 
 895      A7E63CA5 
 895      E6
 896 16b6 6969579B 		.ascii	"iiW\233#\216a\321\3466^\352\340?\215\332A\242M4l?\211"
 896      238E61D1 
 896      E6365EEA 
 896      E03F8DDA 
 896      41A24D34 
 897 16cd 6D877741 		.ascii	"m\207wA\012\257\206}#s>ap\314\3152\274\032\221\205\257"
 897      0AAF867D 
 897      23733E61 
 897      70CCCD32 
 897      BC1A9185 
 898 16e2 421729E0 		.ascii	"B\027)\340\013\022\340\253\021w\352\027Y\206gS\373\331"
 898      0B12E0AB 
 898      1177EA17 
 898      59866753 
 898      FBD9
 899 16f4 95E3F56A 		.ascii	"\225\343\365j\036^\363G4\274Z\036\036<\334+\306U\363"
 899      1E5EF347 
 899      34BC5A1E 
 899      1E3CDC2B 
 899      C655F3
 900 1707 F02ED1F0 		.ascii	"\360.\321\360\246\373\362\037\230\377\217\006d\352("
 900      A6FBF21F 
 900      98FF8F06 
 900      64EA28
 901 1716 BE5BE0A9 		.ascii	"\276[\340\251\257\243\251/\274m\214t\303\251\214\214"
 901      AFA3A92F 
 901      BC6D8C74 
 901      C3A98C8C 
 902 1726 B6F688B3 		.ascii	"\266\366\210\263<\325\316\320\014\2773W\375\202T7H\\"
 902      3CD5CED0 
 902      0CBF3357 
 902      FD825437 
 902      485C
 903 1738 D4B35487 		.ascii	"\324\263T\207\033\"g\221%\027\322\013L\025\272B\243"
 903      1B226791 
 903      2517D20B 
ARM GAS  /tmp/ccbDpJFr.s 			page 73


 903      4C15BA42 
 903      A3
 904 1749 6B90A23B 		.ascii	"k\220\242;\263;\267Bm\311\205M\355\310\354\3620\211"
 904      B33BB742 
 904      6DC9854D 
 904      EDC8ECF2 
 904      3089
 905 175b 8BF28F29 		.ascii	"\213\362\217)\027\215\234\213F\340B\036w\231sq\225r"
 905      178D9C8B 
 905      46E0421E 
 905      77997371 
 905      9572
 906 176d B17357FC 		.ascii	"\261sW\374Md\306E\231\3314\270\306\271\270F\271\250"
 906      4D64C645 
 906      99D934B8 
 906      C6B9B846 
 906      B9A8
 907 177f 688A1F36 		.ascii	"h\212\0376\2771W\233i7qmr\264\363\372YP\220\277S\260"
 907      BF31579B 
 907      6937716D 
 907      72B4F3FA 
 907      595090BF 
 908 1795 5FB0C66B 		.ascii	"_\260\306k\263\326O\257q\370\340\243\317\226\277\277"
 908      B3D64FAF 
 908      71F8E0A3 
 908      CF96BFBF 
 909 17a5 7AB54AAD 		.ascii	"z\265J\255\363\373/\215\227\336\307\3237(@\343\271\321"
 909      F3FB2F8D 
 909      97DEC7D3 
 909      372840E3 
 909      B9D1
 910 17b7 3BD04FE3 		.ascii	";\320O\343\357\371\363\200\015\232\215\0335\033\177"
 910      EFF9F380 
 910      0D9A8D1B 
 910      351B7F
 911 17c6 AA0DF0FC 		.ascii	"\252\015\360\374\332\307\347-om"
 911      DAC7E72D 
 911      6F6D
 912 17d0 C05B8141 		.ascii	"\300[\201A\201\232\2674\336\033\374\336z\307k\355[o"
 912      819AB734 
 912      DE1BFCDE 
 912      7AC76BED 
 912      5B6F
 913 17e2 AF5AFDC3 		.ascii	"\257Z\375\303Mk<\375\3756\020\005O3\005\317wV\256]\271"
 913      4D6B3CFD 
 913      FD361005 
 913      4F3305CF 
 913      7756AE5D 
 914 17f7 DAD32FD0 		.ascii	"\332\323/\320\307?d\243\306S\247\007S_\255\364U9zy\205"
 914      C73F64A3 
 914      C653A707 
 914      535FADF4 
 914      55397A79 
 915 180c F805EADF 		.ascii	"\370\005\352\337\365\322k\376w\336\314\275H\366\003"
 915      F5D26BFE 
 915      77DECCBD 
 915      48F603
ARM GAS  /tmp/ccbDpJFr.s 			page 74


 916 181b BC7D7CFD 		.ascii	"\274}|\375\0025\236^\340\305;\304_\357\245\337\032\254"
 916      02359E5E 
 916      E0C53BC4 
 916      5FEFA5DF 
 916      1AAC
 917 182d D1813F7B 		.ascii	"\321\201?{\356\355w\177No\272\255:O/\010\011L\203\013"
 917      EEED777F 
 917      4E6FBAAD 
 917      3A4F2F08 
 917      094C830B 
 918 1841 7173807E 		.ascii	"qs\200~\213]\320\346@\215\326A\253\361\366\017\326\372"
 918      8B5DD0E6 
 918      408DD641 
 918      ABF1F60F 
 918      D6FA
 919 1853 0539B130 		.ascii	"\0059\2610\327\274\355\245w\220N\354\365\344\212\227"
 919      D7BCEDA5 
 919      77904EEC 
 919      F5E48A97 
 920 1863 FEDD952B 		.ascii	"\376\335\225+=\331\277 \235\247OP@@P\240gp\220V\257"
 920      3DD9BF20 
 920      9DA74F50 
 920      404050A0 
 920      67709056 
 921 1878 F3FCE9AF 		.ascii	"\363\374\351\257?|\377\303-\244/\330\317_\243\325y~"
 921      3F7CFFC3 
 921      2DA42FD8 
 921      CF5FA3D5 
 921      797E
 922 188a F0FEFB9E 		.ascii	"\360\376\373\236>\276\246X\300\217\277\237N\357\240"
 922      3EBEA658 
 922      C08FBF9F 
 922      4EEFA0
 923 1899 09D60482 		.ascii	"\011\326\004\202\363\257\2355\337h\002\365\001\336\272"
 923      F3AF9D35 
 923      DF6802F5 
 923      01DEBA
 924 18a8 3F809B00 		.ascii	"?\200\233\000\335\327\233B4!\0321P\263E\377\232\217"
 924      DDD79B42 
 924      34211A31 
 924      50B345FF 
 924      9A8F
 925 18ba AF97DE17 		.ascii	"\257\227\336\027\320l\324y\261\336`\255\346\233Ef]\200"
 925      D06CD479 
 925      B1DE60AD 
 925      E69B4566 
 925      5D80
 926 18cc 68B3B79F 		.ascii	"h\263\267\237\036\354,Rh\023\007n\312\206\227\036\205"
 926      1EEC2C52 
 926      6813076E 
 926      CA86971E 
 926      85
 927 18dd A8359B89 		.ascii	"\2505\233\211\027\365f=@\010\206\203N\023\020\214}\002"
 927      17F5663D 
 927      40088683 
 927      4E13108C 
 927      7D02
ARM GAS  /tmp/ccbDpJFr.s 			page 75


 928 18ef F5904E29 		.ascii	"\365\220N):~\264\203^\370\244\036\\\300.hz\007\373\006"
 928      3A7EB483 
 928      5EF8A41E 
 928      5CC02E68 
 928      7A07FB06 
 929 1903 6935F63A 		.ascii	"i5\366:\202U\367\265\035\010(l\326\353\265\301\213\231"
 929      8255F7B5 
 929      1D08286C 
 929      D6EBB5C1 
 929      8B99
 930 1915 232FADE6 		.ascii	"#/\255\346+\215V\023\350\003\230\300x\320\206\337\007"
 930      2B8D5613 
 930      E80398C0 
 930      78D086DF 
 930      07
 931 1926 3B68B6F8 		.ascii	";h\266\370\351}\2026j\324\332\215[a\204\010*:{=\371"
 931      E97D8236 
 931      6AD4DA8D 
 931      5B618408 
 931      2A3A7B3D 
 932 193b 84C15FF9 		.ascii	"\204\301_\371{\177\015\255\000\270\016-\235\336\033"
 932      7B7F0DAD 
 932      00B80E2D 
 932      9DDE1B
 933 194a 8A594F0F 		.ascii	"\212YO\017\304\200\367\006o\235\206g\340\207ky\006\310"
 933      C480F706 
 933      6F9D8667 
 933      E0876B79 
 933      06C8
 934 195c 89934EFF 		.ascii	"\211\223N\377\007o\177\277\257\003\275\364\177\377\322"
 934      076F7FBF 
 934      AF03BDF4 
 934      7FFFD2
 935 196b 24F8FA00 		.ascii	"$\370\372\000h\222\336@\357\000\215\350\343\353\255"
 935      6892DE40 
 935      EF008DE8 
 935      E3EBAD
 936 197a B50BF2DF 		.ascii	"\265\013\362\337\250\321\332\005j6k\264\330G\277E\320"
 936      A8D1DA05 
 936      6A366BB4 
 936      D847BF45 
 936      D0
 937 198b 050BFE24 		.ascii	"\005\013\376$\347_C\231x\351\261v\365j\220U\202\366"
 937      E75F4399 
 937      78E9B176 
 937      F56A9055 
 937      82F6
 938 199d C782F65D 		.ascii	"\307\202\366]A\373#A\373CA\373\216\240]\353L,\023\242"
 938      41FB2341 
 938      FB4341FB 
 938      8EA05DEB 
 938      4C2C13A2 
 939 19b1 60D05BAF 		.ascii	"`\320[\257\346\330\353\233\037\005\200s\027:\322'(P"
 939      E6D8EB9B 
 939      1F058073 
 939      173AD227 
 939      2850
ARM GAS  /tmp/ccbDpJFr.s 			page 76


 940 19c3 0F491549 		.ascii	"\017I\025I\3758\232re\027\020\014\363\331\201S\250w"
 940      FD389A72 
 940      6517100C 
 940      F3D98153 
 940      A877
 941 19d5 800B0121 		.ascii	"\200\013\001!\240gO?\275\364\313\225\236\264zS\365\372"
 941      A0674F3F 
 941      BDF4CB95 
 941      9EB47A53 
 941      F5FA
 942 19e7 F8EA7C7C 		.ascii	"\370\352||7\202\361\277\261\251\000Y\206\353+l\033\330"
 942      3782F1BF 
 942      B1A90059 
 942      86EB2B6C 
 942      1BD8
 943 19f9 AA938AD2 		.ascii	"\252\223\212\322\266\021\310<\241\317\007\214a\255^"
 943      B611C83C 
 943      A1CF078C 
 943      61AD5E
 944 1a08 8B37EBB5 		.ascii	"\2137\353\265vZ\215N\243\267\323n\014\206\363\315Z\370"
 944      765A8D4E 
 944      A3B7D36E 
 944      0C86F3CD 
 944      5AF8
 945 1a1a C4FAA060 		.ascii	"\304\372\240`\365\206\220\257 \377\242\0264\315|\006"
 945      F58690AF 
 945      20FFA216 
 945      34CD7C06 
 946 1a2a E9C8DA22 		.ascii	"\351\310\332\"[$K\027\361\251\246k\230y\200LW\247\365"
 946      5B244B17 
 946      F1A9A66B 
 946      9879804C 
 946      57A7F5
 947 1a3d 31E9F9A8 		.ascii	"1\351\371\250\034\251\036\241\347/}|?\201\363\337\220"
 947      1CA91EA1 
 947      E72F7D7C 
 947      3F81F3DF 
 947      90
 948 1a4e 65EF53BF 		.ascii	"e\357S\277\000MP\210~e\260\267V\277\362mW\210\0052\243"
 948      004D5088 
 948      7E65B0B7 
 948      56BFF26D 
 948      57880532 
 949 1a63 D17EE3ED 		.ascii	"\321~\343\355\377\"\316\3640\012\\/c\206~\0156\315\354"
 949      FF22CEF4 
 949      300A5C2F 
 949      63867E0D 
 949      36CDEC
 950 1a76 AC798D5D 		.ascii	"\254y\215]\370x\303\3575>\372u\201~zgI\023\"^\274\320"
 950      F878C3EF 
 950      353EFA75 
 950      817E7A67 
 950      4913225E 
 951 1a8c FDEB0B0C 		.ascii	"\375\353\013\014\301\200\017\365[>\013\364\017\362\371"
 951      C1800FF5 
 951      5B3E0BF4 
 951      0FF2F9
ARM GAS  /tmp/ccbDpJFr.s 			page 77


 952 1a9b 833A4013 		.ascii	"\203:@\023\340\023\274U\364\327x\177e\037\030\0049\016"
 952      E013BC55 
 952      F4D7787F 
 952      651F1804 
 952      390E
 953 1aad DA8C56DB 		.ascii	"\332\214V\333\177\025\270\\\027\254\361\201\236\300"
 953      7F15B85C 
 953      17ACF181 
 953      9EC0
 954 1abb C0107FFF 		.ascii	"\300\020\177\377\317\376\254\213\232^\013K\001Y\242"
 954      CFFEAC8B 
 954      9A5E0B4B 
 954      0159A2
 955 1aca 298E7F07 		.ascii	")\216\177\007\024K}|?\365\335\270>DG\326\033\216r\375"
 955      144B7D7C 
 955      3FF5DDB8 
 955      3E4447D6 
 955      1B8E72FD 
 956 1ade DFDAA688 		.ascii	"\337\332\246\210\255\032`\302\231\016\204\320C\0024"
 956      AD1A60C2 
 956      990E84D0 
 956      430234
 957 1aed 8BA83999 		.ascii	"\213\2509\231\027 j\275\217/\\\363\361\325l\014\361"
 957      17206ABD 
 957      8F2F5CF3 
 957      F1D56C0C 
 957      F1
 958 1afe D7AC7751 		.ascii	"\327\254wQ(\257\343L}\240\321\377B\253\321\274\037\024"
 958      28AFE34C 
 958      7DA0D1FF 
 958      42ABD1BC 
 958      1F14
 959 1b10 12A87735 		.ascii	"\022\250w5u\255\207\333\024\240[\277UG\320\275\240\362"
 959      75AD87DB 
 959      14A05BBF 
 959      5547D0BD 
 959      A0F2
 960 1b22 B612108E 		.ascii	"\266\022\020\216t\356\0206]\275`\031\322{\375\354\247"
 960      74EE1036 
 960      5DBD6019 
 960      D27BFDEC 
 960      A7
 961 1b33 EB7FFEC9 		.ascii	"\353\177\376\311\257\327\271z\373o\366\336\252\203\371"
 961      AFD7B97A 
 961      FB6FF6DE 
 961      AA83F9
 962 1b42 E80FB78C 		.ascii	"\350\017\267\214\237X\231\2170\327\310l\364|\377\303"
 962      9F58998F 
 962      30D7C86C 
 962      F47CFFC3 
 963 1b52 F5EBD67B 		.ascii	"\365\353\326{\276\017\323\321s\235d<@\347\247\363\002"
 963      BE0FD3D1 
 963      739D643C 
 963      40E7A7F3 
 963      02
 964 1b63 7A599400 		.ascii	"zY\224\000\205%\214M\361\220@\356\356\253\220@\037/"
 964      85258C4D 
ARM GAS  /tmp/ccbDpJFr.s 			page 78


 964      F19040EE 
 964      EEAB9040 
 964      1F2F
 965 1b75 AF953F5A 		.ascii	"\257\225?Z\273\366m\007\251\245\354~\347\035ek\315*"
 965      BBF66D07 
 965      A9A5EC7E 
 965      E71D656B 
 965      CD2A
 966 1b87 B3D6DAFF 		.ascii	"\263\326\332\377\001\252K\211$"
 966      01AA4B89 
 966      24
 967              		.text
 968              		.section	.gnu.lto_.symtab.4485afbff6cbd2a9,"",%progbits
 969 0000 63685069 		.ascii	"chPipeObjectInit\000"
 969      70654F62 
 969      6A656374 
 969      496E6974 
 969      00
 970 0011 00       		.ascii	"\000"
 971 0012 00       		.ascii	"\000"
 972 0013 00       		.ascii	"\000"
 973 0014 00000000 		.ascii	"\000\000\000\000\000\000\000\000"
 973      00000000 
 974 001c C9010000 		.ascii	"\311\001\000\000"
 975 0020 63685069 		.ascii	"chPipeReset\000"
 975      70655265 
 975      73657400 
 976 002c 00       		.ascii	"\000"
 977 002d 00       		.ascii	"\000"
 978 002e 00       		.ascii	"\000"
 979 002f 00000000 		.ascii	"\000\000\000\000\000\000\000\000"
 979      00000000 
 980 0037 CD010000 		.ascii	"\315\001\000\000"
 981 003b 63685069 		.ascii	"chPipeWriteTimeout\000"
 981      70655772 
 981      69746554 
 981      696D656F 
 981      757400
 982 004e 00       		.ascii	"\000"
 983 004f 00       		.ascii	"\000"
 984 0050 00       		.ascii	"\000"
 985 0051 00000000 		.ascii	"\000\000\000\000\000\000\000\000"
 985      00000000 
 986 0059 D4010000 		.ascii	"\324\001\000\000"
 987 005d 63685069 		.ascii	"chPipeReadTimeout\000"
 987      70655265 
 987      61645469 
 987      6D656F75 
 987      7400
 988 006f 00       		.ascii	"\000"
 989 0070 00       		.ascii	"\000"
 990 0071 00       		.ascii	"\000"
 991 0072 00000000 		.ascii	"\000\000\000\000\000\000\000\000"
 991      00000000 
 992 007a DB010000 		.ascii	"\333\001\000\000"
 993 007e 63684D74 		.ascii	"chMtxUnlock\000"
 993      78556E6C 
ARM GAS  /tmp/ccbDpJFr.s 			page 79


 993      6F636B00 
 994 008a 00       		.ascii	"\000"
 995 008b 02       		.ascii	"\002"
 996 008c 00       		.ascii	"\000"
 997 008d 00000000 		.ascii	"\000\000\000\000\000\000\000\000"
 997      00000000 
 998 0095 DF010000 		.ascii	"\337\001\000\000"
 999 0099 63684D74 		.ascii	"chMtxLock\000"
 999      784C6F63 
 999      6B00
 1000 00a3 00       		.ascii	"\000"
 1001 00a4 02       		.ascii	"\002"
 1002 00a5 00       		.ascii	"\000"
 1003 00a6 00000000 		.ascii	"\000\000\000\000\000\000\000\000"
 1003      00000000 
 1004 00ae F2010000 		.ascii	"\362\001\000\000"
 1005 00b2 63685468 		.ascii	"chThdSuspendTimeoutS\000"
 1005      64537573 
 1005      70656E64 
 1005      54696D65 
 1005      6F757453 
 1006 00c7 00       		.ascii	"\000"
 1007 00c8 02       		.ascii	"\002"
 1008 00c9 00       		.ascii	"\000"
 1009 00ca 00000000 		.ascii	"\000\000\000\000\000\000\000\000"
 1009      00000000 
 1010 00d2 F7010000 		.ascii	"\367\001\000\000"
 1011 00d6 63685468 		.ascii	"chThdResume\000"
 1011      64526573 
 1011      756D6500 
 1012 00e2 00       		.ascii	"\000"
 1013 00e3 02       		.ascii	"\002"
 1014 00e4 00       		.ascii	"\000"
 1015 00e5 00000000 		.ascii	"\000\000\000\000\000\000\000\000"
 1015      00000000 
 1016 00ed FC010000 		.ascii	"\374\001\000\000"
 1017 00f1 63684D74 		.ascii	"chMtxObjectInit\000"
 1017      784F626A 
 1017      65637449 
 1017      6E697400 
 1018 0101 00       		.ascii	"\000"
 1019 0102 02       		.ascii	"\002"
 1020 0103 00       		.ascii	"\000"
 1021 0104 00000000 		.ascii	"\000\000\000\000\000\000\000\000"
 1021      00000000 
 1022 010c FE010000 		.ascii	"\376\001\000\000"
 1023 0110 63685363 		.ascii	"chSchRescheduleS\000"
 1023      68526573 
 1023      63686564 
 1023      756C6553 
 1023      00
 1024 0121 00       		.ascii	"\000"
 1025 0122 02       		.ascii	"\002"
 1026 0123 00       		.ascii	"\000"
 1027 0124 00000000 		.ascii	"\000\000\000\000\000\000\000\000"
 1027      00000000 
 1028 012c 01020000 		.ascii	"\001\002\000\000"
ARM GAS  /tmp/ccbDpJFr.s 			page 80


 1029 0130 63685468 		.ascii	"chThdResumeI\000"
 1029      64526573 
 1029      756D6549 
 1029      00
 1030 013d 00       		.ascii	"\000"
 1031 013e 02       		.ascii	"\002"
 1032 013f 00       		.ascii	"\000"
 1033 0140 00000000 		.ascii	"\000\000\000\000\000\000\000\000"
 1033      00000000 
 1034 0148 03020000 		.ascii	"\003\002\000\000"
 1035              		.text
 1036              		.section	.gnu.lto_.opts,"",%progbits
 1037 0000 272D666D 		.ascii	"'-fmath-errno' '-fsigned-zeros' '-ftrapping-math' '"
 1037      6174682D 
 1037      6572726E 
 1037      6F272027 
 1037      2D667369 
 1038 0033 2D666E6F 		.ascii	"-fno-trapv' '-fno-openmp' '-fno-openacc' '-mcpu=cor"
 1038      2D747261 
 1038      70762720 
 1038      272D666E 
 1038      6F2D6F70 
 1039 0066 7465782D 		.ascii	"tex-m4' '-mthumb' '-ggdb' '-O2' '-fomit-frame-point"
 1039      6D342720 
 1039      272D6D74 
 1039      68756D62 
 1039      2720272D 
 1040 0099 65722720 		.ascii	"er' '-falign-functions=16' '-ffunction-sections' '-"
 1040      272D6661 
 1040      6C69676E 
 1040      2D66756E 
 1040      6374696F 
 1041 00cc 66646174 		.ascii	"fdata-sections' '-fno-common' '-flto'\000"
 1041      612D7365 
 1041      6374696F 
 1041      6E732720 
 1041      272D666E 
 1042              		.text
 1043              		.comm	__gnu_lto_v1,1,1
 1044              		.comm	__gnu_lto_slim,1,1
 1045              		.ident	"GCC: (GNU Tools for ARM Embedded Processors) 5.4.1 20160919 (release) [ARM/embedded-5-bran
ARM GAS  /tmp/ccbDpJFr.s 			page 81


DEFINED SYMBOLS
                            *ABS*:00000000 chpipes.c
                            *COM*:00000001 __gnu_lto_v1
                            *COM*:00000001 __gnu_lto_slim

NO UNDEFINED SYMBOLS
