ARM GAS  /tmp/ccWFeo0t.s 			page 1


   1              		.syntax unified
   2              		.cpu cortex-m4
   3              		.fpu softvfp
   4              		.eabi_attribute 20, 1
   5              		.eabi_attribute 21, 1
   6              		.eabi_attribute 23, 3
   7              		.eabi_attribute 24, 1
   8              		.eabi_attribute 25, 1
   9              		.eabi_attribute 26, 1
  10              		.eabi_attribute 30, 2
  11              		.eabi_attribute 34, 1
  12              		.eabi_attribute 18, 4
  13              		.thumb
  14              		.syntax unified
  15              		.file	"chschd.c"
  16              		.text
  17              	.Ltext0:
  18              		.section	.gnu.lto_.profile.e0395f94f624d85c,"",%progbits
  19 0000 789C6361 		.ascii	"x\234ca`d`c`\000\222\007\231n2\002\000\005Q\001\252"
  19      60646063 
  19      60009207 
  19      996E3202 
  19      00055101 
  20              		.text
  21              		.section	.gnu.lto_.icf.e0395f94f624d85c,"",%progbits
  22 0000 789C6361 		.ascii	"x\234ca`d\000\201P\006\004\340c\330~k\3736n\306;\217"
  22      60640081 
  22      500604E0 
  22      63D87E6B 
  22      FB366EC6 
  23 0016 E6747031 		.ascii	"\346tp1]\236\276G\226\271\177\352\226\263\274,o\216"
  23      5D9EBE47 
  23      96B97FEA 
  23      96B3BC2C 
  23      6F8E
  24 0028 ADBCC2C5 		.ascii	"\255\274\302\305\012&\331v?^\266\230\227}\316\353\377"
  24      0A26D976 
  24      3F5EB698 
  24      977DCEEB 
  24      FF
  25 0039 7F183966 		.ascii	"\177\0309f\315\333~\236\213\363O\357\335\205<\\\033"
  25      CDDB7E9E 
  25      8BF34FEF 
  25      DD853C5C 
  25      1B
  26 004a 9FDD9ACF 		.ascii	"\237\335\232\317\305\015&y\246\277\371\275\226\207\027"
  26      C50D2679 
  26      A6BFF9BD 
  26      968717
  27 0059 CC660000 		.ascii	"\314f\000\000/\204*\367"
  27      2F842AF7 
  28              		.text
  29              		.section	.gnu.lto_.jmpfuncs.e0395f94f624d85c,"",%progbits
  30 0000 789C458E 		.ascii	"x\234E\216;\016\302@\014D\307^C\226\237\304\001\270"
  30      3B0EC240 
  30      0C44C75E 
  30      43969FC4 
ARM GAS  /tmp/ccWFeo0t.s 			page 2


  30      01B8
  31 0012 682A6F13 		.ascii	"h*o\023\304M\340\0004\351\221r\010\256@I\033\205\235"
  31      C44DE000 
  31      34E99172 
  31      08AE4049 
  31      1B859D
  32 0025 4D36B818 		.ascii	"M6\270\030y,?{\014\002\326\200\177\235 \"\256E\264\345"
  32      792C3F7B 
  32      0C02D680 
  32      7F9D2022 
  32      AE45B4E5 
  33 0039 240046BB 		.ascii	"$\000F\273\241l)\226w\222\216*\317\327p\215_\355\002"
  33      A16C2996 
  33      77928E2A 
  33      CFD7708D 
  33      5FED02
  34 004c A1BB5CB8 		.ascii	"\241\273\\\270\336d6h\205\025\020\303b\342lZ~\225\214"
  34      DE643668 
  34      851510C3 
  34      62E26C5A 
  34      7E958C
  35 005f F7FDE7DD 		.ascii	"\367\375\347\335\370\230n)\235\273 \223r\376\020/A\""
  35      F8986E29 
  35      9DBB2093 
  35      72FE102F 
  35      4122
  36 0071 EFB81B51 		.ascii	"\357\270\033Q\276\253\367w\300>'\232\323\036\326\356"
  36      BEABF777 
  36      C03E279A 
  36      D31ED6EE 
  37 0081 58B25787 		.ascii	"X\262W\207\037\306\222\032H"
  37      1FC6921A 
  37      48
  38              		.text
  39              		.section	.gnu.lto_.inline.e0395f94f624d85c,"",%progbits
  40 0000 789C6361 		.ascii	"x\234ca`d\000\201[\020\012\014x\031\030\370\0160022"
  40      60640081 
  40      5B100A0C 
  40      781918F8 
  40      0E303032 
  41 0015 28303230 		.ascii	"(020;\260\010\235hac\340\370\240\307\304\300\370<\214"
  41      3BB0089D 
  41      686163E0 
  41      F8A0C7C4 
  41      C0F83C8C 
  42 0029 05428294 		.ascii	"\005B\202\22411(\212120\031tt32\360u80\201\305\270\031"
  42      3131288A 
  42      31323019 
  42      74743332 
  42      F0753830 
  43 0041 181827F8 		.ascii	"\030\030'\37013p\260\003\245\270&\3701\260-\220\007"
  43      313370B0 
  43      03A5B826 
  43      F831B02D 
  43      9007
  44 0053 CBB0A098 		.ascii	"\313\260\240\230)\370\340\017+\003\347\0153t3Y\211R"
  44      29F8E00F 
ARM GAS  /tmp/ccWFeo0t.s 			page 3


  44      2B03E70D 
  44      33743359 
  44      8952
  45 0065 C5C6C007 		.ascii	"\305\306\300\007\262Y\240\241\026n<3\017\320\362\011"
  45      B259A0A1 
  45      166E3C33 
  45      0FD0F209 
  46 0075 7E13FCD8 		.ascii	"~\023\374\330E\304T\030\231\031\025\262\37721\336=\261"
  46      45C45418 
  46      991915B2 
  46      FF3231DE 
  46      3DB1
  47 0087 7235F317 		.ascii	"r5\363\027\246Vf&\306\377@\300\317\270\234Q\206\201"
  47      A6566626 
  47      C6FF40C0 
  47      CFB89C51 
  47      8681
  48 0099 51210B4A 		.ascii	"Q!\013J\003\275\314\302\262@\036b\006\220!\300\300\361"
  48      03BDCCC2 
  48      B2401E62 
  48      069021C0 
  48      C0F1
  49 00ab 438705EA 		.ascii	"C\207\005\352\015\016\220?\2004\0130\200 \324\004?V"
  49      0D0E903F 
  49      80340B30 
  49      8020D404 
  49      3F56
  50 00bd 3E20CDC2 		.ascii	"> \315\302\000\364\325\004?\016\006\245\203\010\227"
  50      00F4D504 
  50      3F0E06A5 
  50      830897
  51 00cc 1AEEB8C5 		.ascii	"\032\356\270\305\306\300\015v\351\013v\026\010\211\342"
  51      C6C00D76 
  51      E90B7616 
  51      0889E2
  52 00db 2C4ECC10 		.ascii	",N\314\020\341b\220\270\0142\\e\332z\016L\177p\343\225"
  52      E16290B8 
  52      0C325C65 
  52      DA7A0E4C 
  52      7F70E395 
  53 00ef E561E0E2 		.ascii	"\345a\340\342\001J\362<\210\205\3131r\201\243\016\237"
  53      014AF23C 
  53      8885CB31 
  53      7281A30E 
  53      9F
  54 0100 2E0600FB 		.ascii	".\006\000\373\270L\240"
  54      B84CA0
  55              		.text
  56              		.section	.gnu.lto_.pureconst.e0395f94f624d85c,"",%progbits
  57 0000 789C6361 		.ascii	"x\234ca`d\220e``\340e\330\305\310\264\213\221Y\212E"
  57      60649065 
  57      6060E065 
  57      D8C5C8B4 
  57      8B91598A 
  58 0015 8A558A4D 		.ascii	"\212U\212M\212]\222C\212\223\225K\212[\212G\222W\012"
  58      8A5D9243 
  58      8A93954B 
ARM GAS  /tmp/ccWFeo0t.s 			page 4


  58      8A5B8A47 
  58      92570A
  59 0028 003A4403 		.ascii	"\000:D\003\007"
  59      07
  60              		.text
  61              		.section	.gnu.lto_wakeup.part.2.e0395f94f624d85c,"",%progbits
  62 0000 789C9D55 		.ascii	"x\234\235U]L\034U\024\276\347\336\331\331\205]\2207"
  62      5D4C1C55 
  62      14BEE7DE 
  62      D9D9855D 
  62      9037
  63 0012 7DC00089 		.ascii	"}\300\000\211\2044\261\214>5\372\326\360\324\007\324"
  63      8434B18C 
  63      3E35FAD6 
  63      F0D407D4 
  64 0022 C083F1A9 		.ascii	"\300\203\361\251\352@\004\323\355\342.\2326\232p\027"
  64      EA4004D3 
  64      EDE22E9A 
  64      369A7017 
  65 0032 76B42535 		.ascii	"v\264%5b\014\004l\233Mm\260`\345\267V[Z`K+\010\362\323"
  65      620C046C 
  65      9B4D6DB0 
  65      60E5B756 
  65      5B5A604B 
  66 004a 8205AB46 		.ascii	"\202\005\253F\371\021HLU \324\237T\026\317\271\263%"
  66      F911484C 
  66      5520D49F 
  66      5416CFB9 
  66      B325
  67 005c B0AC54BD 		.ascii	"\260\254T\275\331\335\231;\347\234\357;\347;w\316j\014"
  67      D9DD993B 
  67      E79CEF3B 
  67      E73B77CE 
  67      6A0C
  68 006e 18AD1E27 		.ascii	"\030\255\036'c\023x}\012\277\340d\240\327\214\342\215"
  68      6313787D 
  68      0ABFE064 
  68      A0D78CE2 
  68      8D
  69 007f 0E5C5D39 		.ascii	"\016\\]9\027\307\006\030\223\311Z\310\311\244G\330\217"
  69      17C70618 
  69      93C95AC8 
  69      C9A447D8 
  69      8F
  70 0090 F76AE0A0 		.ascii	"\367j\340\240k\320\345\000\240\033\351\002V\241s\241"
  70      6BD0E500 
  70      A01BE902 
  70      56A173A1 
  71 00a0 39A08273 		.ascii	"9\240\202sf\257;|\215C\337[\013\027\371\2563\022\327"
  71      66AF3B7C 
  71      8D43DF5B 
  71      0B17F9AE 
  71      3312D7
  72 00b3 F47CEFCB 		.ascii	"\364|\357\313Ai=d\011\306\326cNp\006v\241\327\215P\373"
  72      41693D64 
  72      09C6D663 
  72      4E700676 
ARM GAS  /tmp/ccWFeo0t.s 			page 5


  72      A1D78D50 
  73 00c8 09B1CA2D 		.ascii	"\011\261\312-\001\240\341vy\344\375\271T\332r\310\304"
  73      01A0E176 
  73      79E4FDB9 
  73      54DA72C8 
  73      C4
  74 00d9 ED70E468 		.ascii	"\355p\344h[\262\310\000\206\367\323\341\256\221\244"
  74      5BB2C800 
  74      86F7D3E1 
  74      AE91A4
  75 00e8 9C46292B 		.ascii	"\234F)+\245\274S$\223,!\340#\020\210\007\315\220\016"
  75      A5BC5324 
  75      932C21E0 
  75      23108807 
  75      CD900E
  76 00fb 4D90CEF0 		.ascii	"M\220\316\360\021\203\263\220C\356\327\346\377\032w"
  76      1183B390 
  76      43EED7E6 
  76      FF1A77
  77 010a 8B2C151A 		.ascii	"\213,\025\032<{\374\204'\3734\205F\336\235Lm\220\221"
  77      3C7BFC84 
  77      27FB3485 
  77      46DE9D4C 
  77      6D9091
  78 011d 50A62534 		.ascii	"P\246%4\370xk8-\364\236\355\210\326\246\350!J<\023Z"
  78      F8786B38 
  78      2DF49EED 
  78      88D6A6E8 
  78      214A3C13 
  79 0132 20DB4E19 		.ascii	" \333N\031ZQ\032\306(\311\211\305\272n\227xDA\327\376"
  79      5A511AC6 
  79      28C989C5 
  79      BA6E9778 
  79      4441D7FE 
  80 0146 DA5F0B31 		.ascii	"\332_\0131\350\337F=\262&\350\"\344\266\355\310\320"
  80      E8DF463D 
  80      B226E822 
  80      E4B6EDC8 
  80      D0
  81 0157 0ED91870 		.ascii	"\016\331\030p\354\355\265\325\007(\240ZF\242\023\236"
  81      ECEDB5D5 
  81      0728A05A 
  81      46A2139E 
  82 0167 6A3B806D 		.ascii	"j;\200m\363\356\210\367\226\235\327%\250\274\267;wB"
  82      F3EE88F7 
  82      969DD725 
  82      A8BCB73B 
  82      7742
  83 0179 3665DA56 		.ascii	"6e\332V \345\372z\225\2549\235\013)\240\030\271\372"
  83      20E5FA7A 
  83      95AC399D 
  83      0B29A018 
  83      B9FA
  84 018b 15288D43 		.ascii	"\025(\215C\003\322\306A\267:#\030\266\204\205aw\227"
  84      03D2C641 
  84      B73A2318 
  84      B6848561 
ARM GAS  /tmp/ccWFeo0t.s 			page 6


  84      7797
  85 019d B88E17B1 		.ascii	"\270\216\027\261\214\375\303\226\212Y\250LSQU\002\330"
  85      8CFDC396 
  85      8A59A84C 
  85      53515502 
  85      D8
  86 01ae 02547675 		.ascii	"\002Tvu,V\2118\025\327'\376\203\212\362n\213\200s($"
  86      2C568938 
  86      15D727FE 
  86      838AF26E 
  86      8B807328 
  87 01c3 69B8CE61 		.ascii	"i\270\316a\233\310\355d\373\004t\254\344<\350U\202\216"
  87      9BC8ED64 
  87      FB0474AC 
  87      E43CE855 
  87      828E
  88 01d5 4F9DD537 		.ascii	"O\235\3257\346\244\223\240)\377\337\007\206\216x\302"
  88      E6A493A0 
  88      29FFDF07 
  88      868E78C2 
  89 01e5 70328801 		.ascii	"p2\210\001i\226@'\200O\211\015m\215?V\266:\215\026\302"
  89      69964027 
  89      804F890D 
  89      6D8D3F56 
  89      B63A8D16 
  90 01fa 8A9C7C27 		.ascii	"\212\234|'\325\022N\370\014\302\020\305\352\024*\265"
  90      D5124EF8 
  90      0CC210C5 
  90      EA142AB5 
  91 020a AC46D683 		.ascii	"\254F\326\203\355\"\237%\314\013`D1\023e\207\213`0\254"
  91      ED229F25 
  91      CC0B6044 
  91      31136587 
  91      8B6030AC 
  92 021e 5A3E4EF4 		.ascii	"Z>N\364v\345\\U\276\2748'\354\224D\302\034x\\\016\273"
  92      76E55C55 
  92      BEBC3827 
  92      EC9444C2 
  92      1C785C0E 
  93 0233 2DE1822E 		.ascii	"-\341\202.\305\315c\330\227\020\233\240N=l\0039\022"
  93      C5CD63D8 
  93      97109BA0 
  93      4E3D6C03 
  93      3912
  94 0245 02698980 		.ascii	"\002i\211\200.o\001\352F\240\031\010\335\252J\215e\204"
  94      2E6F01EA 
  94      46A01908 
  94      DDAA4A8D 
  94      6584
  95 0257 58A4F50A 		.ascii	"X\244\365\012\000&\"n\377\371<FO\005\247fcuF\032\306"
  95      0026226E 
  95      FFF93C46 
  95      4F05A766 
  95      6375461A 
  96 026c 1EB444D2 		.ascii	"\036\264D\322Q\301\242\\l\010\3219\322p<5&\304\353\244"
  96      51C1A25C 
  96      6C08D139 
ARM GAS  /tmp/ccWFeo0t.s 			page 7


  96      D2703C35 
  96      26C4EBA4 
  97 0280 540F09A1 		.ascii	"T\017\011\241m\330\307\307><P\261&\217\240\3719K$C/"
  97      6DD8C7C7 
  97      3E3C50B1 
  97      268FA0F9 
  97      394B2443 
  98 0295 18367D04 		.ascii	"\0306}\004*\364\022<*\202\341X\300\263\242\321\221\301"
  98      2AF4123C 
  98      2A82E158 
  98      C0B3A2D1 
  98      91C1
  99 02a7 C2EA966F 		.ascii	"\302\352\226o\3179)\243\177U\227M\354&\342+;\264\350"
  99      CF3929A3 
  99      7F55974D 
  99      EC26E22B 
  99      3BB4E8
 100 02ba 096A51DF 		.ascii	"\011jQ\337\346\026]\005\343^S:~~\317mK\220\2303\276"
 100      E6165D05 
 100      E35E533A 
 100      7E7ECF6D 
 100      4B909833 
 101 02cf 2936642D 		.ascii	")6d-\020\351\265\035H\317\001\261~N\254\216\030k\277"
 101      10E9B51D 
 101      48CF01B1 
 101      7E4EAC8E 
 101      186BBF
 102 02e2 DDBCBA53 		.ascii	"\335\274\272S\031\377\247\302\201\373U\370\305f\256"
 102      19FFA7C2 
 102      81FB55F8 
 102      C566AE
 103 02f1 41AA5027 		.ascii	"A\252P'\272\361\352\357\273\337\370GB=!a!\021\016\355"
 103      BAF1EAEF 
 103      BBDFF847 
 103      423D2161 
 103      21110EED 
 104 0305 40F80A11 		.ascii	"@\370\012\021~\271Y\322a\"\324l\302\205\035\010\023"
 104      7EB959D2 
 104      6122D46C 
 104      C2851D08 
 104      13
 105 0316 EBA92A1C 		.ascii	"\353\251*\034\271_\205\243\233+\034\263\011\361M\213"
 105      B95F85A3 
 105      9B2B1CB3 
 105      09F14D8B 
 106 0326 AC4D821A 		.ascii	"\254M\202\032\2504\025\360\001W\233v{\203\323\207\270"
 106      A83415F0 
 106      01579B76 
 106      7B83D387 
 106      B8
 107 0337 86C67BDD 		.ascii	"\206\306{\335\"G\275\374\253\365\035MI\366\344\231\356"
 107      2247BDFC 
 107      ABF51D4D 
 107      49F6E499 
 107      EE
 108 0348 6D7EFA4A 		.ascii	"m~\372J\343\233\366\234u\303\365\004s\366\206\232\234"
 108      E39BF69C 
ARM GAS  /tmp/ccWFeo0t.s 			page 8


 108      75C3F504 
 108      73F6869A 
 108      9C
 109 0359 1BF3C38D 		.ascii	"\033\363\303\215\365\216\243m\021*g\357\366\377\262"
 109      F58EA36D 
 109      112A67EF 
 109      F6FFB2
 110 0368 67EBF089 		.ascii	"g\353\360\211\014\376\340\210\315%\0367\227\"3\265\203"
 110      0CFEE088 
 110      CD251E37 
 110      972233B5 
 110      83
 111 0379 94F60419 		.ascii	"\224\366\004\031E\274qm\245\031\020\371+2j\361\003\357"
 111      45BC716D 
 111      A51910F9 
 111      2B326AF1 
 111      03EF
 112 038b FC18501A 		.ascii	"\374\030P\032\014n\222\331\021?\360\030L\252a7E\177"
 112      0C6E92D9 
 112      113FF018 
 112      4CAA6137 
 112      457F
 113 039d 29C02E00 		.ascii	")\300.\000\332?\010w\376\221\2345\010aY\217S\325C!-"
 113      DA3F0877 
 113      FE919C35 
 113      0861598F 
 113      53D54321 
 114 03b2 7397A44B 		.ascii	"s\227\244K#y\277\206,\325\200hx\246\307\215O\340\026"
 114      2379BF86 
 114      2CD58068 
 114      78A6C78D 
 114      4FE016
 115 03c5 68AA2806 		.ascii	"h\252(\006\337\250\377\315\246\236\253\363\236\254\341"
 115      DFA8FFCD 
 115      A69EABF3 
 115      9EACE1
 116 03d4 58740AF9 		.ascii	"Xt\012\371\256\264v\336t\253\350o)\032\276\003\222\236"
 116      AEB476DE 
 116      74ABE86F 
 116      291ABE03 
 116      929E
 117 03e6 2B7D48A7 		.ascii	"+}H\247e\314\013_\341\237Ho\265\226\360d\204\234\030"
 117      65CC0B5F 
 117      E19F486F 
 117      B596F064 
 117      849C18
 118 03f9 909E9B6B 		.ascii	"\220\236\233k\330\037_\300\360\227\033\001\277i\230"
 118      D81F5FC0 
 118      F0971B01 
 118      BF6998
 119 0408 2501B3A4 		.ascii	"%\001\263\244(\327dP\306\313\313\270Y\346|\361\205@"
 119      28D76450 
 119      C6CBCBB8 
 119      59E67CF1 
 119      8540
 120 041a F133FED2 		.ascii	"\3613\376\322\335\233\235M\237\327\353;h\224\371\374"
 120      DD9B9D4D 
ARM GAS  /tmp/ccWFeo0t.s 			page 9


 120      9FD7EB3B 
 120      6894F9FC 
 121 042a E501636F 		.ascii	"\345\001coA~^\376!\2144}\376\342\375\257\355\361\346"
 121      417E5EFE 
 121      218C347D 
 121      FEE2FDAF 
 121      EDF1E6
 122 043d 96B02713 		.ascii	"\226\260'\023x\027\037*'_#/\277p_\241\221\207\316\306"
 122      78171F2A 
 122      275F232F 
 122      BF705FA1 
 122      9187CEC6 
 123 0451 BE83E681 		.ascii	"\276\203\346\201W\213\212\015\323\033(\015\354\177\311"
 123      578B8A0D 
 123      D31B280D 
 123      EC7FC9
 124 0460 34313423 		.ascii	"414#.\253\322{>%\201\303\001\264\247\345\027\026dRR"
 124      2EABD27B 
 124      3E2581C3 
 124      01B4A7E5 
 124      17166452 
 125 0475 65FED247 		.ascii	"e\376\322G3\263\037c\334\317\234\336b\257\317\177\230"
 125      33B31F63 
 125      DCCF9CDE 
 125      62AFCF7F 
 125      98
 126 0486 FD0D73C7 		.ascii	"\375\015s\307\320\207"
 126      D087
 127              		.text
 128              		.section	.gnu.lto_wakeup.e0395f94f624d85c,"",%progbits
 129 0000 789C9556 		.ascii	"x\234\225V[l\024e\024\376\317\374\263;\263\335^\026"
 129      5B6C1465 
 129      14FECFFC 
 129      B33BB3DD 
 129      5E16
 130 0012 959B21A1 		.ascii	"\225\233!\241$6\004\202\214\306D\2247\303\203\341\241"
 130      24360482 
 130      8CC64494 
 130      37C383E1 
 130      A1
 131 0023 11213CF8 		.ascii	"\021!<\370Dti,\306\322\322E\305\370\320\351e(\020\303"
 131      4474692C 
 131      C6D2D245 
 131      C5F8D0E9 
 131      652810C3 
 132 0037 456D2D02 		.ascii	"Em-\002)B\011\345\336\002\025Z,\254\225\213\\{A(\025"
 132      294209E5 
 132      DE02155A 
 132      2CAC958B 
 132      5C7B4128 
 133 004c 2FE552A0 		.ascii	"/\345R\240\200Hk+\"\264\3539gf\313v\333mu\323\374\235"
 133      80486B2B 
 133      22B4EB39 
 133      6766CB76 
 133      DB6D75D3 
 134 0062 99FF9CF3 		.ascii	"\231\377\234\363\235\357\234\357\277\250\002\004\375"
 134      9DEF9CEF 
ARM GAS  /tmp/ccWFeo0t.s 			page 10


 134      BFA80204 
 134      FD
 135 006f 5E4A1062 		.ascii	"^J\020b4>.\304g\360\010PV\237\023\"WW\\ZC\2220u\311"
 135      343E2EC4 
 135      67F00850 
 135      569F1322 
 135      57575C5A 
 136 0088 A3CAA39B 		.ascii	"\243\312\243\233G\227\375\035t\333P\005\315~p\201\333"
 136      4797FD1D 
 136      74DB5005 
 136      CD7E7081 
 136      DB
 137 0099 7E7087BF 		.ascii	"~p\207\277h\266\015\350\000\364\337\324A\344(Ru\271"
 137      68B60DE8 
 137      00F4DFD4 
 137      41E42852 
 137      75B9
 138 00ab 351D7294 		.ascii	"5\035r\224\234n\245G\201\272\302\033\325\312\244\255"
 138      9C6EA547 
 138      81BAC21B 
 138      D5CAA4AD 
 139 00bb 26FE5ADB 		.ascii	"&\376Z\333\216\274\227kZc,)DH\341\344\004l\205Ih\325"
 139      8EBC976B 
 139      5A632C29 
 139      4448E1E4 
 139      046C8549 
 140 00d1 5850B15E 		.ascii	"XP\261^v)\226\004P\361\265\343\354W\327\022\351U\201"
 140      76299604 
 140      50F1B5E3 
 140      EC57D712 
 140      E95581
 141 00e4 647C3D13 		.ascii	"d|=\023\\\276'N\216\007\201\317\255\2455g=\023\267\230"
 141      5CBE274E 
 141      8E0781CF 
 141      ADA53567 
 141      3D13B798 
 142 00f8 669E6976 		.ascii	"f\236iv\3177=\226\224\260\035$\306\203m0\016\312a\234"
 142      CF373D96 
 142      94B01D24 
 142      C6836D30 
 142      0ECA619C 
 143 010c C04F0276 		.ascii	"\300O\002v\300D2?\332\366\270\311+'\260k\356\216u\353"
 143      C044323F 
 143      DAF6B8C9 
 143      2B27B06B 
 143      EE8E75EB 
 144 0120 E3533693 		.ascii	"\343S6\223kp\315\305\304\265f\260 \331\222*\354\354"
 144      6B70CDC5 
 144      C4B566B0 
 144      20D9922A 
 144      ECEC
 145 0132 EF4E3FB4 		.ascii	"\357N?\264\276Z\331[\224\340.\240\304\223a\027\244\330"
 145      BE5AD95B 
 145      94E02EA0 
 145      C4936117 
 145      A4D8
 146 0144 29C36E70 		.ascii	")\303npS]\367\314\016\232\241P\276\031\014=][\322\031"
ARM GAS  /tmp/ccWFeo0t.s 			page 11


 146      535DF7CC 
 146      0E9AA150 
 146      BE190C3D 
 146      5D5BD219 
 147 0158 371A1347 		.ascii	"7\032\023GD\027b\273\3348\2705z\322q\320\342p\320\275"
 147      441762BB 
 147      DC38B835 
 147      7AD271D0 
 147      E270D0BD 
 148 016c 38A83E1A 		.ascii	"8\250>\032F\320 \304}\014\326\246\213\016E\301\177\362"
 148      46D020C4 
 148      7D0CD6A6 
 148      8B0E45C1 
 148      7FF2
 149 017e 2AE45146 		.ascii	"*\344QF\034\034\241\362\221\000~\362Q\032[N5\035\361"
 149      1C1CA1F2 
 149      91007EF2 
 149      511A5B4E 
 149      351DF1
 150 0191 CAE79840 		.ascii	"\312\347\230@WIe\271\307&\320Z\335\236\372\335\226\245"
 150      574965B9 
 150      C726D05A 
 150      DD9EFADD 
 150      96A5
 151 01a3 E6EA5CDD 		.ascii	"\346\352\\\335\222\036\3303\220\002T@\012\372\024\266"
 151      921ED833 
 151      90025440 
 151      0AFA14B6 
 152 01b3 9BB52A95 		.ascii	"\233\265*\225\322\003\311P\211s7!\357j\367\361{\323"
 152      D203C950 
 152      89733721 
 152      EF6AF7F1 
 152      7BD3
 153 01c5 FA530C2E 		.ascii	"\372S\014.?\346br!\005\242\330\007\253\212\326\201["
 153      3FE66272 
 153      2105A2D8 
 153      07AB8AD6 
 153      815B
 154 01d7 C05E9A54 		.ascii	"\300^\232T\242';~*\007\020\260\217&e\324\244\271\355"
 154      A2273B7E 
 154      2A0710B0 
 154      8F2665D4 
 154      A4B9ED
 155 01ea 1C501A02 		.ascii	"\034P\032\002\366\323\264\032]V\001U\030X\3007TS\020"
 155      F6D3B41A 
 155      5D560155 
 155      1858C037 
 155      545310
 156 01fd 5580F39B 		.ascii	"U\200\363\233J\367\376\0357\3418\224\232%\330\2348r"
 156      4AF7FE1D 
 156      37E13894 
 156      9A25D89C 
 156      3872
 157 020f D975ED10 		.ascii	"\331u\355\020*\024\013\006\007`\002\367\346\376\335"
 157      2A140B06 
 157      076002F7 
 157      E6FEDD
ARM GAS  /tmp/ccWFeo0t.s 			page 12


 158 021e 1F2F2BF8 		.ascii	"\037/+\370\005\016\202\312\244\004T\263p\312\017\177"
 158      050E82CA 
 158      A40454B3 
 158      70CA0F7F 
 159 022e DF163FE1 		.ascii	"\337\026?\341\244\343\355%\333\316\335{/x\331\273\206"
 159      A4E3ED25 
 159      DBCEDD7B 
 159      2F78D9BB 
 159      86
 160 023f BCE110A8 		.ascii	"\274\341\020\250X\\\205\353#\304\015\310\253\251n\271"
 160      585C85EB 
 160      23C40DC8 
 160      ABA96EB9 
 161 024f 349DA8E7 		.ascii	"4\235\250\347K7\332\027[u\365\032\025L\345B<8qjY|)l"
 161      4B37DA17 
 161      5B75F51A 
 161      154CE542 
 161      3C38716A 
 162 0267 004BC663 		.ascii	"\000K\306c_\340[B\243\276\\\317\333\255\031\317[2\001"
 162      5FE05B42 
 162      A3BE5CCF 
 162      DBAD19CF 
 162      5B3201
 163 027a 6AA1147A 		.ascii	"j\241\024zY\317p\030\014\321\006\205\246\026\021\257"
 163      59CF7018 
 163      0CD10685 
 163      A61611AF 
 164 028a A5EC966B 		.ascii	"\245\354\226k\015\254\312E\316\301\316Q$~aJ\266>\002"
 164      0DACCA45 
 164      CEC1CE51 
 164      247E614A 
 164      B63E02
 165 029d 6B88F29E 		.ascii	"k\210\362\236\273\325\017\023\010\321\315\210=M\353"
 165      BBD50F13 
 165      08D1CD88 
 165      3D4DEB
 166 02ac 2D3DEC50 		.ascii	"-=\354PB\016\020DPS\222\356\340;\333\247\256\263bk\274"
 166      420E1044 
 166      505392EE 
 166      E03BDBA7 
 166      AEB3626B 
 167 02c1 ED23F1B5 		.ascii	"\355#\361\265\341a\331v%\354\263\227}\352\330\2075\373"
 167      E161D976 
 167      25ECB397 
 167      7DEAD887 
 167      35FB
 168 02d3 BDEDD3B7 		.ascii	"\275\355\323\267\310\334\\\253\246\342P(>\354\323\304"
 168      C8DC5CAB 
 168      A6E25028 
 168      3EECD3C4 
 169 02e3 3E47D987 		.ascii	">G\331\207\222\203c\266\317\311\262\232\307\016\216"
 169      928363B6 
 169      CFC9B29A 
 169      C70E8E
 170 02f2 0B5F3754 		.ascii	"\013_7T|\321\232\024\366\251a\237\343\354\243\222\317"
 170      7CD19A14 
 170      F6A9619F 
ARM GAS  /tmp/ccWFeo0t.s 			page 13


 170      E3ECA392 
 170      CF
 171 0303 09DBA76B 		.ascii	"\011\333\247k\205\365\300\301\321h\331m\350-\353\303"
 171      85F5C0C1 
 171      D168D96D 
 171      E82DEBC3 
 172 0313 B9C43E3F 		.ascii	"\271\304>?<\3019\211>\370\277\003\305s\005\344u\310"
 172      3CC13989 
 172      3EF8BF03 
 172      C57305E4 
 172      75C8
 173 0325 F531D3B0 		.ascii	"\3651\323\260\374\373I~\333\033\303H\376\024K\276\257"
 173      FCFB497E 
 173      DB1BC348 
 173      FE144BBE 
 173      AF
 174 0336 831E54D5 		.ascii	"\203\036T\325\351\330\222?}b\256#yW\264\252\017\024"
 174      E9D8923F 
 174      7D62AE23 
 174      7957B4AA 
 174      0F14
 175 0348 9D849705 		.ascii	"\235\204\227\005\234\241I\367\000\311wn#\311\237\245"
 175      9CA149F7 
 175      00C9776E 
 175      23C99FA5 
 176 0358 492D5AF2 		.ascii	"I-Z\362U\365@i\0108\027C\362\365,\371\206\010\311\367"
 176      55F54069 
 176      08381743 
 176      F2F52CF9 
 176      8608C9F7 
 177 036c 965E39EC 		.ascii	"\226^9\354\015\253\3714\253\271\221;\024-\335\246\260"
 177      0DABF934 
 177      ABB9913B 
 177      142DDDA6 
 177      B0
 178 037d 7409808B 		.ascii	"t\011\200\213\246\206\213F<\250\333\254\347\306\226"
 178      A6868B46 
 178      3CA8DBAC 
 178      E7C696
 179 038c 976DFDE9 		.ascii	"\227m\375\351\021\002\316%\374\027E,\031'\302y\2261"
 179      1102CE25 
 179      FC17452C 
 179      1927C279 
 179      9631
 180 039e D8BBDFF9 		.ascii	"\330\273\337\371\325f\011\030\273\230\3224\334\305\340"
 180      D5660918 
 180      BB98D234 
 180      DCC5E0
 181 03ad 47307A15 		.ascii	"G0z\025V\323\005\3248\302tm\034I \221\365\326\372\255"
 181      56D305D4 
 181      38C2746D 
 181      1C492091 
 181      F5D6FAAD 
 182 03c1 1806F45A 		.ascii	"\030\006\364Z2\011\363\200\213L\253\031!\"\035\222\260"
 182      3209F380 
 182      8B4CAB19 
 182      21221D92 
ARM GAS  /tmp/ccWFeo0t.s 			page 14


 182      B0
 183 03d2 0697B879 		.ascii	"\006\227\270y\035\330\203~TT\246RY_\345,\245\270\350"
 183      1DD8837E 
 183      5454A652 
 183      595FE52C 
 183      A5B8E8
 184 03e5 C88B86A0 		.ascii	"\310\213\206\240\322\022\213\312G\270\027\303OD\205"
 184      D2128BCA 
 184      47B817C3 
 184      4F4485
 185 03f4 C57719A9 		.ascii	"\305w\031\251\240\322L\257\303\244y\323\341\317\023"
 185      A0D24CAF 
 185      C3A479D3 
 185      E1CF13
 186 0403 27977397 		.ascii	"'\227s\227C7\364\265\033Qi>\341\234T?\303dL\243O\231"
 186      4337F4B5 
 186      1B51693E 
 186      E19C543F 
 186      C3644CA3 
 187 0419 9FED6C68 		.ascii	"\237\355lhv\313F`\316M\007V\235p\216\226\326\226\225"
 187      76CB4660 
 187      CE4D0756 
 187      9D708E96 
 187      D69695
 188 042c AFD78565 		.ascii	"\257\327\205e\352\203_\006\221\351\257\220B\321l\206"
 188      EA835F06 
 188      91E9AF90 
 188      42D16C86 
 189 043c 676747EF 		.ascii	"ggG\357\304\365.\262p\244\251\017T\320o\254\240V\252"
 189      C4F52EB2 
 189      70A4A90F 
 189      54D06FAC 
 189      A056AA
 190 044f 0AADAF15 		.ascii	"\012\255\257\025\3774\257\324\251\232#\200\372\335X"
 190      FF34AFD4 
 190      A99A2380 
 190      FADD58
 191 045e BBA938C9 		.ascii	"\273\2518\311)\222\317\222Oa\316p\205\253\177\025\253"
 191      2992CF92 
 191      4F61CE70 
 191      85AB7F15 
 191      AB
 192 046f 8298F9C5 		.ascii	"\202\230\371\305Ko\326\354_\221`Gp\331A\252\012\317"
 192      4B6FD6EC 
 192      5F916047 
 192      70D941AA 
 192      0ACF
 193 0481 54C65190 		.ascii	"T\306Q\220\247\000\340\032\232cn\305@&C\206\274\216"
 193      A700E01A 
 193      9A636EC5 
 193      40264386 
 193      BC8E
 194 0493 21310637 		.ascii	"!1\0067\320-\352dD\003\355#\314)l\304\321K\267\2005"
 194      D02DEA64 
 194      4403ED23 
 194      CC296CC4 
 194      D14BB780 
ARM GAS  /tmp/ccWFeo0t.s 			page 15


 195 04a8 F9E60FA6 		.ascii	"\371\346\017\246\032\343\354\2056\373\004d)\377\265"
 195      1AE3EC85 
 195      36FB0464 
 195      29FFB5
 196 04b7 B9766962 		.ascii	"\271vib\364\272m\236K6N\201<\003\013t\203\013t\223\350"
 196      F4BA6D9E 
 196      4B364E81 
 196      3C030B74 
 196      830B7493 
 197 04cc 79A364E3 		.ascii	"y\243d\343\033T4,\216\326K\253>\030k\311\247\341\026"
 197      1B54342C 
 197      8ED64BAB 
 197      3E186BC9 
 197      A7E116
 198 04df AB47B5E3 		.ascii	"\253G\265\343D\011\350UJ\272\235\004\344\262\347\341"
 198      4409E855 
 198      4ABA9D04 
 198      E4B2E7E1 
 199 04ef B6BD1C6A 		.ascii	"\266\275\034j\256L\261\021}\377\035\321,\002\302\273"
 199      AE4CB111 
 199      7DFF1DD1 
 199      2C02C2BB 
 200 04ff 3304DE3E 		.ascii	"3\004\336> \300\273\004\350v\000\177\267\001\213\277"
 200      20C0BB04 
 200      E876007F 
 200      B7018BBF 
 201 050f 1E4F8083 		.ascii	"\036O\200\203\242y\007E\233C`\367\206\000[DX\177Db\335"
 201      A2790745 
 201      9B4360F7 
 201      86005B44 
 201      587F4462 
 202 0524 07031931 		.ascii	"\007\003\0311\277\216\356\265\257\330\014G\374\017\206"
 202      BF8EEEB5 
 202      AFD80C47 
 202      FC0F86
 203 0533 5EC2EC18 		.ascii	"^\302\354\030\256\240\235\221\230\177\016\317oDl~]\303"
 203      AEA09D91 
 203      987F0ECF 
 203      6F446C7E 
 203      5DC3
 204 0545 F1EB8E6C 		.ascii	"\361\353\216l\336_\304\317\313\362\325D\201\026>\177"
 204      DE5FC4CF 
 204      CBF2D544 
 204      81163E7F 
 205 0555 F85ED075 		.ascii	"\370^\320u\260\375\362,G\277\321{Z\254\215\347A\254"
 205      B0FDF22C 
 205      47BFD17B 
 205      5AAC8DE7 
 205      41AC
 206 0567 8DE7454B 		.ascii	"\215\347EK>\003\177\023\264F\022\177\010\006\035nw:"
 206      3E037F13 
 206      B446127F 
 206      08061D6E 
 206      773A
 207 0579 1EF3C1EF 		.ascii	"\036\363\301\357\202\034\370\007\243\321^\364\346\300"
 207      821CF807 
 207      A3D15EF4 
ARM GAS  /tmp/ccWFeo0t.s 			page 16


 207      E6C0
 208 0587 25130C9D 		.ascii	"%\023\014\235\037\362\266\012\217\372VLWC\233\214:\221"
 208      1FF2B60A 
 208      8FFA564C 
 208      57439B8C 
 208      3A91
 209 0599 1EED9264 		.ascii	"\036\355\222d\340,\027\276Q\235\277Y\\\253\313\"\373"
 209      E02C17BE 
 209      519DBF59 
 209      5CABCB22 
 209      FB
 210 05aa AA57F4C7 		.ascii	"\252W\364\307\361\"p\200\036\234{\002\3243\374\265\270"
 210      F1227080 
 210      1E9C7B02 
 210      D433FCB5 
 210      B8
 211 05bb 97C23EE6 		.ascii	"\227\302>\346\325\026\212\321\252Ae\021\374\262^\241"
 211      D5168AD1 
 211      AA416511 
 211      FCB25EA1 
 212 05cb 9B93A9D8 		.ascii	"\233\223\251\3307'\216\001\271\212\3017\035\272\015"
 212      37278E01 
 212      B98AC137 
 212      1DBA0D
 213 05da AF5D2529 		.ascii	"\257]%)$!D\036\030#9\343\352\352\273\227\265\234\036"
 213      2421441E 
 213      182339E3 
 213      EAEABB97 
 213      B59C1E
 214 05ed 7319838C 		.ascii	"s\031\203\214\\N\033\020~\276}\346\302\321\270'\340"
 214      5C4E1B10 
 214      7EBE7DE6 
 214      C2D1B827 
 214      E0
 215 05fe A3205FC9 		.ascii	"\243 _\311\201<\305F_y\260b\271\3564c\236%GC\001c\353"
 215      813CC546 
 215      5F79B062 
 215      B9EE3463 
 215      9E254743 
 216 0615 36361A1C 		.ascii	"66\032\034\373\264\261,l\360\011)\311R\260[\236\276"
 216      FBB4B12C 
 216      6CF00929 
 216      C952B05B 
 216      9EBE
 217 0627 F9F61EAB 		.ascii	"\371\366\036\253\016lP\363-K\216\201\245\230.\347]\250"
 217      0E6C50F3 
 217      2D4B8E81 
 217      A5982EE7 
 217      5DA8
 218 0639 E4885B50 		.ascii	"\344\210[P\300{\335\300\364\306\206\024\024\030,C#\254"
 218      C07BDDC0 
 218      F4C68614 
 218      14182C43 
 218      23AC
 219 064b 86259F65 		.ascii	"\206%\237e\265\351t\355\277MG\011\377\356c+\332t\254"
 219      B5E974ED 
 219      BF4D4709 
ARM GAS  /tmp/ccWFeo0t.s 			page 17


 219      FFEE632B 
 219      DA74AC
 220 065e C4B8A953 		.ascii	"\304\270\251S\015\373/3`d/6\002\331~\303\237\036\360"
 220      0DFB2F33 
 220      60642F36 
 220      02D97EC3 
 220      9F1EF0
 221 0671 A7CF9FEA 		.ascii	"\247\317\237\352\027\220\245,\316\322\336y;\2206+{\301"
 221      1790A52C 
 221      CED2DE79 
 221      3B90362B 
 221      7BC1
 222 0683 F39196FE 		.ascii	"\363\221\226\376\314\214\214\314\205FVf\366\342\200"
 222      CC8C8CCC 
 222      85465666 
 222      F6E280
 223 0692 F1DAECD4 		.ascii	"\361\332\354\324\031\251K\320\315\237\231\2356\357\303"
 223      19A94BD0 
 223      CD9F999D 
 223      36EFC3
 224 06a1 691953D3 		.ascii	"i\031S\323\305\364A\254\323\226,&[cF\352\234\231s\214"
 224      C5F441AC 
 224      D3962C26 
 224      5B6346EA 
 224      9C99738C 
 225 06b5 19686CCC 		.ascii	"\031hl\314\\\350\177\377\203\371i\206?#\260 0\357]\277"
 225      5CE87FFF 
 225      83F96986 
 225      3F23B020 
 225      30EF5DBF 
 226 06c9 1F5DC747 		.ascii	"\037]\307G\245\264 l\223\036\3708\200\363\276\3249\263"
 226      A5B4206C 
 226      931EF838 
 226      80F3BED4 
 226      39B3
 227 06db 9329A9AC 		.ascii	"\223)\251\254\354\005S\222S^\020J\266\3202\32222\263"
 227      EC055392 
 227      535E104A 
 227      B6D032D2 
 227      3232B3
 228 06ee 3F164A20 		.ascii	"?\026J k\010\3674\312,9\366<\261N\027\212?\353_,\373"
 228      6B08F734 
 228      CA2C39F6 
 228      3CB14E17 
 228      8A3FEB5F 
 229 0704 CD8E     		.ascii	"\315\216"
 230              		.text
 231              		.section	.gnu.lto__scheduler_init.e0395f94f624d85c,"",%progbits
 232 0000 789C9594 		.ascii	"x\234\225\224KL\023Q\024\206\357\177o\351\024\010\204"
 232      4B4C1351 
 232      1486EF7F 
 232      6FE91408 
 232      84
 233 0011 853B496C 		.ascii	"\205;IlbX\260ap\345\302\245\321\2706\356\215)&\230\030"
 233      6258B061 
 233      70E5C2A5 
 233      D1B836EE 
ARM GAS  /tmp/ccWFeo0t.s 			page 18


 233      8D292698 
 234 0026 1F50D7BD 		.ascii	"\037P\327\275TF$\032\225\030EP\303B\011\370@Z\361A\005"
 234      5446241A 
 234      95184550 
 234      C34209F8 
 234      405AF141 
 235 003b 7128501F 		.ascii	"q(P\037\274U|\307\220\032I$\230@\202&\220\320z\317L"
 235      BC557CC7 
 235      901A4924 
 235      98408226 
 235      90D07ACF 
 236 0050 3128303A 		.ascii	"1(0:7m\246\367\2363\347\374\337?g\352a`\264\266y\031"
 236      376DA6F7 
 236      9E33E7FC 
 236      DF3F67EA 
 236      6160B4B6 
 237 0066 DBAEAE1B 		.ascii	"\333\256\256\033\325\027\202\201\237\033a\254\312\307"
 237      D5178281 
 237      9F1B61AC 
 237      CAC7
 238 0074 01FA217D 		.ascii	"\001\372!}`!\216\020~\360%\216x\315T\214\027\267H\265"
 238      60218E10 
 238      7EF0258E 
 238      78CD548C 
 238      17B748B5 
 239 0088 269B93A5 		.ascii	"&\233\223\245\262\325\204!\030Ks\253\022C\013\212\231"
 239      B2D58421 
 239      184B73AB 
 239      12430B8A 
 239      99
 240 0099 4A4B4653 		.ascii	"JKFS\027\362\274\325\224\346\267\203h\205\227\332\265"
 240      17F2BCD5 
 240      94E6B783 
 240      688597DA 
 240      B5
 241 00aa EF36653A 		.ascii	"\3576e:}\\\312\205\322\206\315\032c\263*Hm\3468\247"
 241      7D5CCA85 
 241      D286CD1A 
 241      63B32A48 
 241      6DE638A7 
 242 00be AB48225C 		.ascii	"\253H\"\\@\025\306\253#W\304<7\004\340Q\333\271\341"
 242      4015C6AB 
 242      2357C43C 
 242      3704E051 
 242      DBB9E1
 243 00d1 C62FF9B4 		.ascii	"\306/\371\264\345\360\253\355\247\313\237S\331b\023"
 243      E5F0ABED 
 243      A7CB9F53 
 243      D96213
 244 00e0 28B3CFE8 		.ascii	"(\263\317\350\015kE\327\244\014K\363\374\011\321 \315"
 244      0D6B45D7 
 244      A40C4BF3 
 244      FC09D120 
 244      CD
 245 00f1 6ABF2104 		.ascii	"j\277!\004nA\250\316\270\211B\334@\241-\3576\212\324"
 245      6E41A8CE 
 245      B88942DC 
ARM GAS  /tmp/ccWFeo0t.s 			page 19


 245      40A12DEF 
 245      368AD4
 246 0104 1D178DF8 		.ascii	"\035\027\215\370\250F\305<V\201Xl\346\243\026Z\222'"
 246      A846C53C 
 246      5681586C 
 246      E6A3165A 
 246      9227
 247 0116 A52C5067 		.ascii	"\245,Pg\265\212\207\216\247\207&\372s\232p\265JZ\347"
 247      B58A878E 
 247      A78726FA 
 247      739A70B5 
 247      4A5AE7
 248 0129 59B8A34C 		.ascii	"Y\270\243Lh\243J*x\2463R\353\323\333\010\320\254Ol0"
 248      68A34A2A 
 248      78A63352 
 248      EBD3DB08 
 248      D0AC4F6C 
 249 013e 8417ED68 		.ascii	"\204\027\355hB\312\362A\305\007N\217_\317\304\345^C"
 249      42CAF241 
 249      C5074E8F 
 249      5FCFC4E5 
 249      5E43
 250 0150 6888404F 		.ascii	"h\210@Oq\330\301oKF\034vC\251\221\324(t\362\207\341"
 250      71D8C16F 
 250      4B461C76 
 250      43A991D4 
 250      2874F287 
 251 0165 2E426C0A 		.ascii	".Bl\012\341\306\205\346\256h\360O\037\315\301\201-\244"
 251      E1C685E6 
 251      AE68F04F 
 251      1FCDC181 
 251      2DA4
 252 0177 DF7232CD 		.ascii	"\337r2\315\261\312ft\250\012\014\367\340]\211(\\ jx"
 252      B1CA6674 
 252      A80A0CF7 
 252      E05D8928 
 252      5C206A78 
 253 018b A010EFAF 		.ascii	"\240\020\357\257F\234\254\377\276c\237!|xh1r\273\027"
 253      469CACFF 
 253      BE639F21 
 253      7C786831 
 253      72BB17
 254 019e 3AA1BBB0 		.ascii	":\241\273\260/\266\266}\223_\223\2738\371\367\310\321"
 254      2FB6B67D 
 254      935F93BB 
 254      38F9F7C8 
 254      D1
 255 01af BF2E27FF 		.ascii	"\277.'\377\272\227\375{\374\333\277\356h0c\305\377\262"
 255      BA97FD7B 
 255      FCDBBFEE 
 255      683063C5 
 255      FFB2
 256 01c1 F7ACCD2E 		.ascii	"\367\254\315.\363\010\374\211%Nd\300MW\340\275\377\000"
 256      F308FC89 
 256      254E64C0 
 256      4D57E0BD 
 256      FF00
ARM GAS  /tmp/ccWFeo0t.s 			page 20


 257 01d3 8F3B82F7 		.ascii	"\217;\202\3679\201\367/\203\017(\360$\270\365\226\321"
 257      3981F72F 
 257      830F28F0 
 257      24B8F596 
 257      D1
 258 01e4 90900BF3 		.ascii	"\220\220\013\363\221D]\026\235\270\320\232X[\253\314"
 258      91445D16 
 258      9DB8D09A 
 258      585BABCC 
 259 01f4 25A14FD7 		.ascii	"%\241O\327\023\272\325\020\331xFB=\364\226=\267\354"
 259      13BAD510 
 259      D9784642 
 259      3DF4963D 
 259      B7EC
 260 0206 699F892D 		.ascii	"i\237\211-\344\321\010\346\200\341\205\252\251$-\326"
 260      E4D108E6 
 260      80E185AA 
 260      A9242DD6 
 261 0216 FCBCB4C7 		.ascii	"\374\274\264\307\245\244A'IC\016\222|\030&IY$i\304\325"
 261      A5A44127 
 261      49430E92 
 261      7C182649 
 261      592469C4 
 262 022b 131B5DA7 		.ascii	"\023\033]\247e=\250\347\330\312\236\247\306z\316\346"
 262      653DA8E7 
 262      D8CA9EA7 
 262      C67ACEE6 
 263 023b 671E499D 		.ascii	"g\036I\235\012\347b\034\272j\370\322\236\304\305\232"
 263      0AE7621C 
 263      BA6AF8D2 
 263      9EC4C59A 
 264 024b 946BE057 		.ascii	"\224k\340WN\300\257\035\201'\010\330K\300o\\\001\277"
 264      4EC0AF1D 
 264      812708D8 
 264      4BC06F5C 
 264      01BF
 265 025d 75047EE7 		.ascii	"u\004~\347\014\374\336\002\376\240\200\247\0216;vZ\023"
 265      0CFCDE02 
 265      FEA080A7 
 265      11363B76 
 265      5A13
 266 026f 496B56CD 		.ascii	"IkV\315\255\372OWw\026\226\224\350\366\347p\245^\021"
 266      ADFA4F57 
 266      77169694 
 266      E8F6E770 
 266      A55E11
 267 0282 D42B2B02 		.ascii	"\324++\002z\240\2742P^V\022`\"x\364\210\377\257\204"
 267      7AA0BC32 
 267      505E5612 
 267      602278F4 
 267      88FFAF84 
 268 0296 03870207 		.ascii	"\003\207\002\007\217\225\355_N*g\277\000\243\333O8"
 268      8F95ED5F 
 268      4E2A67BF 
 268      00A3DB4F 
 268      38
 269              		.text
ARM GAS  /tmp/ccWFeo0t.s 			page 21


 270              		.section	.gnu.lto_chSchReadyI.e0395f94f624d85c,"",%progbits
 271 0000 789C9554 		.ascii	"x\234\225TIL\024A\024\255W5==3\300\304\233\027\014\304"
 271      494C1441 
 271      14AD5735 
 271      3D3D33C0 
 271      C49B170C 
 272 0015 488C07E9 		.ascii	"H\214\007\351x\364\350\305x\326\203\361\244\311h\302"
 272      78F4E8C5 
 272      78D683F1 
 272      A4C968C2 
 273 0025 C1C4056F 		.ascii	"\301\304\005o\036(\230\351D\022\343\022\002\221\305"
 273      1E2898E9 
 273      4412E312 
 273      0291C5
 274 0034 10A2883B 		.ascii	"\020\242\210;\214;(:*\210\033 \020c\214\027\004\225"
 274      8C3B283A 
 274      2A881B20 
 274      10638C17 
 274      0495
 275 0046 48401997 		.ascii	"H@\031\227 \211\200\377W\017\343(K\2642\335\325]U\377"
 275      208980FF 
 275      570FE328 
 275      4BB432DD 
 275      D55D55FF 
 276 005a BFF7DFFB 		.ascii	"\277\367\337\373\323>\001\301\343\253%\304*\2327\322"
 276      D33E01C1 
 276      E3AB25C4 
 276      2A9A37D2 
 277 006a 05BF803C 		.ascii	"\005\277\200<\326#Di@By\017JZ\207\273\204\320!_\314"
 277      D6234469 
 277      4042790F 
 277      4A5A87BB 
 277      84D0215F 
 278 007f 163ADBF2 		.ascii	"\026:\333\362\3267\370\000\236u\000\242D*\313\007\272"
 278      D637F800 
 278      9E7500A2 
 278      442ACB07 
 278      BA
 279 0090 0B6F7C97 		.ascii	"\013o|\227\323\022}\261\226:\365M\272J\300G\257\311"
 279      D3127DB1 
 279      963AF54D 
 279      BA4AC047 
 279      AFC9
 280 00a2 EE9AE130 		.ascii	"\356\232\3410\277\002\371\364Z\253\373\313\3555MZ\227"
 280      BF02F9F4 
 280      5AABFBCB 
 280      ED354D5A 
 280      97
 281 00b3 E9C1CE4F 		.ascii	"\351\301\316O\333\216G\335M\256\222bV\012\234E.\232"
 281      DB8E47DD 
 281      4DAE9262 
 281      560A9C45 
 281      2E9A
 282 00c5 90CB6CCE 		.ascii	"\220\313l\316a\015\235\355x\377\263?K\345A\320s]\323"
 282      610D9DED 
 282      78FFB33F 
 282      4BE541D0 
ARM GAS  /tmp/ccWFeo0t.s 			page 22


 282      735DD3
 283 00d8 E0E9E0EA 		.ascii	"\340\351\340\352F\216\323\025\273t\220\202p\036*3\216"
 283      468ED315 
 283      BB749082 
 283      701E2A33 
 283      8E
 284 00e9 F3E00256 		.ascii	"\363\340\002V\363\361\201\221\252\366\200ZiB+??\252"
 284      F3F18191 
 284      AAF6805A 
 284      69422B3F 
 284      3FAA
 285 00fb 44C1290E 		.ascii	"D\301)\016ML\366\204\253u\"\226\317\341\027\377\014"
 285      4D4CF684 
 285      AB752296 
 285      CFE117FF 
 285      0C
 286 010c E741A787 		.ascii	"\347A\247\207\3423\2259\376\230\246\221\217K((\247\342"
 286      E2339539 
 286      FE98A691 
 286      8F4B2828 
 286      A7E2
 287 011e E81891BA 		.ascii	"\350\030\221\272\014?\011\007^l\336\234\320\263\263"
 287      0C3F0907 
 287      5E6CDE9C 
 287      D0B3B3
 288 012d 519DF81E 		.ascii	"Q\235\370\036\356\3761\031\314\201\340U*\221\340-\363"
 288      EEFE3119 
 288      CC81E055 
 288      2A91E02D 
 288      F3
 289 013e EC273ACA 		.ascii	"\354':\312\346[\320\020\023\023t\221\216I)iR\037P\366"
 289      E65BD010 
 289      13137491 
 289      8E492969 
 289      521F50F6 
 290 0152 6DE2FD80 		.ascii	"m\342\375\200\342\244\004Z\345>\350\265Y$i\030Ov==\224"
 290      E2A4045A 
 290      E53EE8B5 
 290      59246918 
 290      4F763D3D 
 291 0167 5D8F93A5 		.ascii	"]\217\223\245\314\"\313U\276\250Rhf\216\264\331\370"
 291      CC22CB55 
 291      BEA85268 
 291      668EB4D9 
 291      F8
 292 0178 AEECB2ED 		.ascii	"\256\354\262\355\254u\225\205\026\324c\206\271\011\304"
 292      AC759585 
 292      16D46386 
 292      B909C4
 293 0187 E1D05EF3 		.ascii	"\341\320^\363X\353T\016\347!\246\270B\001C(KT\03750"
 293      58EB540E 
 293      E721A6B8 
 293      42014328 
 293      4B541F35 
 294 019c CC2A13CA 		.ascii	"\314*\023\3126P\255\255co\354\222i}H\353e\264V\256`"
 294      3650ADAD 
 294      636FEC92 
ARM GAS  /tmp/ccWFeo0t.s 			page 23


 294      697D48EB 
 294      65B456AE 
 295 01b1 40469FBF 		.ascii	"@F\237\277\354\010\245\030\320z\000\327P\202\253)\006"
 295      EC08A518 
 295      D07A00D7 
 295      5082AB29 
 295      06
 296 01c2 476EB594 		.ascii	"Gn\265\224\007\234KLNowU\020\327\015\017x\002v\036\356"
 296      079C4B4C 
 296      4E6F7755 
 296      10D70D0F 
 296      7802761E 
 297 01d7 3B3DB77B 		.ascii	";=\267{\320U!\334\2003#\245\267\371q\332}\000\017No"
 297      D05521DC 
 297      803323A5 
 297      B7F971DA 
 297      7D000F4E 
 298 01ec 7355166E 		.ascii	"sU\026n\302!\366\267PB\373Ij$j-E\244\227\031\021\243"
 298      C221F6B7 
 298      5042FB49 
 298      6A246A2D 
 298      45A49719 
 299 0202 C486946A 		.ascii	"\304\206\224j\213\217DM\011Qe\375\255\316za\344\301"
 299      8B8F444D 
 299      095165FD 
 299      ADCE7A61 
 299      E4C1
 300 0214 7C794268 		.ascii	"|yBh5\264\224\207<pL\237@\212\326V\026\272\215i\371"
 300      35B49487 
 300      3C704C9F 
 300      408AD656 
 300      16BA8D69 
 301 0229 58BBDBC4 		.ascii	"X\273\333\304\2010\365\2729\231\010\307\340&G\206S\270"
 301      8130F5BA 
 301      399908C7 
 301      E0264786 
 301      53B8
 302 023b FE0C5C18 		.ascii	"\376\014\\\030Dk>b6\356\030D\213\223\266SR\316\321\260"
 302      446B3E62 
 302      36EE1844 
 302      8B93B653 
 302      52CED1B0 
 303 024f C2CB60CF 		.ascii	"\302\313`\317\313\260\200\245\331\270\373;\303=\312"
 303      CBB080A5 
 303      D9B8FB3B 
 303      C33DCA
 304 025e F016B1D7 		.ascii	"\360\026\261\327\321p\212\003%a\257\277\000\024\363"
 304      D1708A03 
 304      2561AFBF 
 304      0014F3
 305 026d AAF4D550 		.ascii	"\252\364\325P\252\236Du\357r\262\201\274K\233p\245\273"
 305      AA9E4475 
 305      EF72B281 
 305      BC4B9B70 
 305      A5BB
 306 027f BA369C69 		.ascii	"\2726\234iB\"\303\204\376\3363\2733=\270o< _d\021\325"
 306      4222C384 
ARM GAS  /tmp/ccWFeo0t.s 			page 24


 306      FEDE33BB 
 306      333DB86F 
 306      3C205F64 
 307 0295 658D4DED 		.ascii	"e\215M\355\240n\265\004\375\371\221$\205\274v\255J\216"
 307      A06EB504 
 307      FDF99124 
 307      85BC76AD 
 307      4A8E
 308 02a7 0DDBA976 		.ascii	"\015\333\251v\375\267\376\014\341\341b\006\254g\003"
 308      FDB7FE0C 
 308      E1E16206 
 308      AC6703
 309 02b6 3AD20674 		.ascii	":\322\006t\302\231\223<>^\221\345\225\033\374\033\250"
 309      C299933C 
 309      3E5E91E5 
 309      951BFC1B 
 309      A8
 310 02c7 126231E5 		.ascii	"\022b1\345Cx\264\030\324U0V\027c\371\031\353\261\347"
 310      4378B418 
 310      D4553056 
 310      1763F919 
 310      EBB1E7
 311 02da 4B5543DE 		.ascii	"KUC\336\177\026\363d\311b\236\246\001\236q1A\306\250"
 311      7F16F364 
 311      C9629EA6 
 311      019E7131 
 311      41C6A8
 312 02ed 498E2F2C 		.ascii	"I\216/,\331\026\257\220\340B0\317\027\203\331\3070\335"
 312      D916AF90 
 312      E04230CF 
 312      1783D9C7 
 312      30DD
 313 02ff 69CD7A18 		.ascii	"i\315z\030F\031\230\370\247\245\234YP\256\336%\213y"
 313      461998F8 
 313      A7A59C59 
 313      50AEDE25 
 313      8B79
 314 0311 912EA6CF 		.ascii	"\221.\246\317C\031\245\317H\373\321\034\317\030\363"
 314      4319A5CF 
 314      48FBD11C 
 314      CF18F3
 315 0320 B59FA04E 		.ascii	"\265\237\240N\213\331\324P\271\205\205\216\367\333S"
 315      8BD9D450 
 315      B985858E 
 315      F7DB53
 316 032f ECEC3FE0 		.ascii	"\354\354?\340\024\357\2178\221\242\342H\321\316\302"
 316      14EF8F38 
 316      91A2E248 
 316      D1CEC2
 317 033e 889007F6 		.ascii	"\210\220\007\366\312\310\336_\305\002\001\011"
 317      CAC8DE5F 
 317      C5020109 
 318              		.text
 319              		.section	.gnu.lto_chSchReadyAheadI.e0395f94f624d85c,"",%progbits
 320 0000 789C9554 		.ascii	"x\234\225TKLSA\024\2353\323\327\327\017\020\342\306"
 320      4B4C5341 
 320      149D33D3 
ARM GAS  /tmp/ccWFeo0t.s 			page 25


 320      D7D70F10 
 320      E2C6
 321 0012 0D89C468 		.ascii	"\015\211\304h\214\013yq\351\322\215q\255\013\243\033"
 321      8C0B7971 
 321      E9D28D71 
 321      AD0BA31B 
 322 0022 63AA090B 		.ascii	"c\252\011\013\023Q\334\271`\240}\011$\304\250X\3427"
 322      1351DCB9 
 322      60A07D09 
 322      24C4A858 
 322      E237
 323 0034 C60FA2A2 		.ascii	"\306\017\242\242BEE\374VE\360\007H\301h\304\005\"j4"
 323      424545FC 
 323      5645F007 
 323      48C168C4 
 323      05226A34 
 324 0048 265A3F31 		.ascii	"&Z?1&\002\336;\257\324*\324\350\244\357\315{3s\3579"
 324      2602DE3B 
 324      AFD42AD4 
 324      E8A4EFCD 
 324      7B3373EF 
 325 005d F79CDBE7 		.ascii	"\367\234\333\347\023\020<>[B\314\243y\031]\360\013\310"
 325      13103C3E 
 325      5B42CCA3 
 325      79195DF0 
 325      0BC8
 326 006f 1D7D4254 		.ascii	"\035}BT\007$\224\367\240\244U\337#\204\016\371b\266"
 326      072494F7 
 326      A0A455DF 
 326      23840EF9 
 326      62B6
 327 0081 D00596B7 		.ascii	"\320\005\226\267\276\324\007\360\254\003\020URY>\320"
 327      BED407F0 
 327      AC031055 
 327      52593ED0 
 328 0091 5D78E3AB 		.ascii	"]x\343\253\034\227\030\210\265\035P_\244\253\004|\364"
 328      1C971888 
 328      B51D505F 
 328      A4AB047C 
 328      F4
 329 00a2 9AEEDDF7 		.ascii	"\232\356\335\367\262\210_\201Rz\335\257Su\366\302f\255"
 329      B2885F81 
 329      527ADDAF 
 329      5375F6C2 
 329      66AD
 330 00b4 6BF448D3 		.ascii	"k\364H\323\2215;\243\356rWI1)\005N\240\004\315(a6'\261"
 330      91353BA3 
 330      EE725749 
 330      3129054E 
 330      A004CD28 
 331 00cc 90CE76BD 		.ascii	"\220\316v\275\372\221\012\2539\020\364|\240y\344XpA"
 331      FA910AAB 
 331      3910F47C 
 331      A079E458 
 331      7041
 332 00de 13C7E983 		.ascii	"\023\307\351\203\033t\220\202p\012*7\216\363\240\005"
 332      1B749082 
ARM GAS  /tmp/ccWFeo0t.s 			page 26


 332      700A2A37 
 332      8EF3A005 
 333 00ee 0BF8F8E0 		.ascii	"\013\370\370\340\233\306k\0015\327\204\306?t\3071\377"
 333      9BC66B01 
 333      35D784C6 
 333      3F74C731 
 333      FF
 334 00ff 288726E3 		.ascii	"(\207&\343\251\242\275:\031+\345\360\323\277\207\363"
 334      A9A2BD3A 
 334      192BE5F0 
 334      D3BF87F3 
 335 010f A0D3A389 		.ascii	"\240\323\243\211\211x\241?\246i\224\342\014\346\327"
 335      8978A13F 
 335      A66994E2 
 335      0CE6D7
 336 011e 5171748C 		.ascii	"Qqt\214H\235\205\237\204\003/\266\256H\352\311\311\250"
 336      489D859F 
 336      84032FB6 
 336      AE48EAC9 
 336      C9A8
 337 0130 4E36CC7A 		.ascii	"N6\314z\366\264%T\010\301\253T\"\301[\346\331Ot\224"
 337      F6B42554 
 337      08C1AB54 
 337      22C15BE6 
 337      D94F7494 
 338 0144 CDB7A021 		.ascii	"\315\267\240!&>\322E:\246\245\244I\275F\315\227\266"
 338      263ED245 
 338      3AA6A5A4 
 338      49BD46CD 
 338      97B6
 339 0156 DE21C549 		.ascii	"\336!\305I\011\264\321\275\325o\263H\3220\376\326s\277"
 339      09B4D1BD 
 339      D56FB348 
 339      D230FED6 
 339      73BF
 340 0168 B6E0100E 		.ascii	"\266\340\020\016V3\213\260\253|Q\245\320\312\034i\263"
 340      56338BB0 
 340      AB7C51A5 
 340      D0CA1C69 
 340      B3
 341 0179 69ACE6AC 		.ascii	"i\254\346\254\355,r\225\2056\034\302\004s\023H\300\241"
 341      ED2C7295 
 341      85361CC2 
 341      04731348 
 341      C0A1
 342 018b BDD6F79D 		.ascii	"\275\326\367\235\337\0139\0171\3059\012\030EM\262c\227"
 342      DF0B390F 
 342      31C5390A 
 342      18454DB2 
 342      6397
 343 019d 816156B9 		.ascii	"\201aV\271P\266\201\352\354|?lW\215\353Z\255\213i\255"
 343      50B681EA 
 343      EC7C3F6C 
 343      578DEB5A 
 343      AD8B69AD 
 344 01b1 4EC180BC 		.ascii	"N\301\200\274{\370\270+\224a@\353\001\234G\025\3323"
 344      7BF8B82B 
ARM GAS  /tmp/ccWFeo0t.s 			page 27


 344      946140EB 
 344      019C4715 
 344      DA33
 345 01c3 0CB65F6A 		.ascii	"\014\266_j\253\0138g\230\234^\353\252 .\030\036\360"
 345      AB0B3867 
 345      989C5EEB 
 345      AA202E18 
 345      1EF0
 346 01d5 04BC533F 		.ascii	"\004\274S?pljw\233\253B\270\010gBJo\363\355\270{\013"
 346      706C6A77 
 346      9BAB42B8 
 346      0867424A 
 346      6FF3EDB8 
 347 01eb 1E9C5EED 		.ascii	"\036\234^\355\2520:\340\020\373K\250\242\37545\022\265"
 347      AA303AE0 
 347      10FB4BA8 
 347      A2FD3435 
 347      12B5
 348 01fd 9622D2C5 		.ascii	"\226\"\322\305F\304(\261!\245.\247\373b\246\204\250"
 348      46C428B1 
 348      21A52EA7 
 348      FB62A684 
 348      A8
 349 020e B2FE5467 		.ascii	"\262\376Tg\2110\362`\272<!t\032Z\312C\036\334\241\367"
 349      8930F260 
 349      BA3C2174 
 349      1A5ACA43 
 349      1EDCA1F7 
 350 0222 20436B15 		.ascii	" Ck\025\013}\231i\371X\273+\304\2010\365\342)\231\010"
 350      0B7D9969 
 350      F958BB2B 
 350      C48130F5 
 350      E2299908 
 351 0236 C7E026FA 		.ascii	"\307\340&\372\3072\270\376\034\\\030Dk:b\001\256\032"
 351      C732B8FE 
 351      1C5C1844 
 351      6B3A6201 
 351      AE1A
 352 0248 448B935E 		.ascii	"D\213\223^\243\244\234\343E\211\227\301\236\226a\006"
 352      A3A49CE3 
 352      458997C1 
 352      9E966106 
 353 0258 4B0B70FD 		.ascii	"K\013p\375W\206\033\224\341\005bO\243E\031\016\224\204"
 353      57861B94 
 353      E105624F 
 353      A345190E 
 353      9484
 354 026a BDFE0450 		.ascii	"\275\376\004P\314\223\352'\243\231z\222\035\251\331"
 354      CC93EA27 
 354      A3997A92 
 354      1DA9D9
 355 0279 64037997 		.ascii	"d\003y\2275\341\\\357\336\375E\271&$sLH\365\037\337"
 355      35E15CEF 
 355      DEFD45B9 
 355      2624734C 
 355      48F51FDF 
 356 028d 98EBC14D 		.ascii	"\230\353\301M\343\001\371\"\313\251.\353y\303:\352V"
ARM GAS  /tmp/ccWFeo0t.s 			page 28


 356      E301F922 
 356      CBA92EEB 
 356      79C33AEA 
 356      56
 357 029e 4BD09F1F 		.ascii	"K\320\237\037iR\310k\327\306\304\320\230\235i\327\177"
 357      6952C86B 
 357      D7C6C4D0 
 357      989D69D7 
 357      7F
 358 02af EBCF106E 		.ascii	"\353\317\020n\3473`\011\033\320\2255\340\016\234)\311"
 358      E7336009 
 358      1BD09535 
 358      E00E9C29 
 358      C9
 359 02c0 D343BBC3 		.ascii	"\323C\273\303^\271\301?\201\342\020\371\224\017\241"
 359      5EB9C13F 
 359      81E210F9 
 359      940FA1
 360 02cf 3B1F543B 		.ascii	";\037T;\030\253\207\261\374\214u\327\363\245\361\360"
 360      18AB87B1 
 360      FC8C75D7 
 360      F3A5F1F0 
 361 02df 9CFF2CE6 		.ascii	"\234\377,\346\336_\213\271\237\005x\300\305\004\031"
 361      DE5F8BB9 
 361      9F0578C0 
 361      C50419
 362 02ee 635FE2F1 		.ascii	"c_\342\361\314\222\255\364\012\011\316\004\3630\037"
 362      CC92ADF4 
 362      0A09CE04 
 362      F3301F
 363 02fd CC6686E9 		.ascii	"\314f\206\351\315j\326\3070\312\300\244\363\300\204"
 363      CD6AD6C7 
 363      30CAC0A4 
 363      F3C084
 364 030c F3CBD5FF 		.ascii	"\363\313\325\377\327b\036e\213\031\360P\336\321gdxW"
 364      D7621E65 
 364      8B19F050 
 364      DED16764 
 364      7857
 365 031e A1678CF9 		.ascii	"\241g\214\371\332\177\244N\213\331\324P%ee\216\367\333"
 365      DA7FA44E 
 365      8BD9D450 
 365      2565658E 
 365      F7DB
 366 0330 54E96CD9 		.ascii	"T\351l\331\352Tn\2118\221\362\312H\371\372\262\210\220"
 366      EA546E89 
 366      3891F2CA 
 366      48F9FAB2 
 366      8890
 367 0342 5B2B64A4 		.ascii	"[+d\244\342'r\377\376\307"
 367      E22772FF 
 367      FEC7
 368              		.text
 369              		.section	.gnu.lto_chSchGoSleepS.e0395f94f624d85c,"",%progbits
 370 0000 789C9554 		.ascii	"x\234\225TOL\024W\030\177\277\367f\331\331\005\214\367"
 370      4F4C1457 
 370      187FBFF7 
ARM GAS  /tmp/ccWFeo0t.s 			page 29


 370      66D9D905 
 370      8CF7
 371 0012 6E520E25 		.ascii	"nR\016%\326\244eZ{h\032\323K\357&M=x\351\245YIh\322"
 371      D6A4655A 
 371      7B681AD3 
 371      4BEF264D 
 371      3D78E9A5 
 372 002a 28856D7A 		.ascii	"(\205mz\350\201\307\302\264R\033kC0\"\032MZ\202\255"
 372      E881C7C2 
 372      B4521B6B 
 372      4330221A 
 372      4D5A82AD 
 373 003e 554069EB 		.ascii	"U@i\353\322V\306\025\213\265\250]\320\376\243QD\240"
 373      D256C615 
 373      8BB5A85D 
 373      D0FEA351 
 373      44A0
 374 0050 D5F60071 		.ascii	"\325\366\000q\2111\272\254\337\367f@aW\"\223\335\354"
 374      8931BAAC 
 374      DFF76640 
 374      61572293 
 374      DDEC
 375 0062 CECCF7BE 		.ascii	"\316\314\367\276\337\237\357\367\236% \370\262\302B"
 375      DF9FEFF7 
 375      9E2520F8 
 375      B2C242
 376 0071 6CA6DFA7 		.ascii	"l\246\337\247\350\013% w_\024\242\321\226\000\377\321"
 376      E80B2520 
 376      775F14A2 
 376      D19600FF 
 376      D1
 377 0082 36448344 		.ascii	"6D\203D\003\346dN\"\375\321tJ\256\357\322t\215w\036"
 377      03E6644E 
 377      22FDD174 
 377      4AAEEFD2 
 377      748D771E 
 378 0096 DFA00F7B 		.ascii	"\337\240\017{p\225\020yi:\011ta=U]\277\231\277V\252"
 378      70951079 
 378      693A0974 
 378      613D555D 
 378      BF99BF56 
 379 00ab 9E86A0FF 		.ascii	"\236\206\240\377\207\346\272\333B\353:\265Nj}\357M\255"
 379      87E6BADB 
 379      42EB3AB5 
 379      4E6A7DEF 
 379      4DAD
 380 00bd 5C051C86 		.ascii	"\\\005\034\206\242\025x)\206\027b\202\036\010|\211u"
 380      A2157829 
 380      86176282 
 380      1E087C89 
 380      75
 381 00ce 5C9C69EE 		.ascii	"\\\234i\356\331\257\262\322U\022\026\335\316^\330wc"
 381      D9AFB2D2 
 381      551216DD 
 381      CE5ED877 
 381      63
 382 00df 0DDF2A54 		.ascii	"\015\337*T\320\355\375\216O\323\266z\326\264\275=6\235"
ARM GAS  /tmp/ccWFeo0t.s 			page 30


 382      D0EDFD8E 
 382      4FD3B67A 
 382      D6B4BD3D 
 382      369D
 383 00f1 B22B3FE7 		.ascii	"\262+?\347\266^\333\350\232v\3555W\270\312\302\327~"
 383      B65EDBE8 
 383      9A76ED35 
 383      57B8CAC2 
 383      D77E
 384 0103 EB2388E1 		.ascii	"\353#\210\341+\304\014)\252\236\350\235o+/if\332\025"
 384      2BC40C29 
 384      AA9EE89D 
 384      6F2B2F69 
 384      66DA15
 385 0116 388A4A9F 		.ascii	"8\212J\2370\216\241\204,\220\374\204\212\006\247\356"
 385      308EA184 
 385      2C90FC84 
 385      8A06A7EE 
 386 0126 8F94AAE7 		.ascii	"\217\224\252\347L\373\306#\035\373\313\374\366\343\247"
 386      4CFBC623 
 386      1DFBCBFC 
 386      F6E3A7
 387 0135 729B3E6B 		.ascii	"r\233>k\322\347\264\305\375\273\013\373\243\007\225"
 387      D2E7B4C5 
 387      FDBB0BFB 
 387      A30795
 388 0144 DD6F783A 		.ascii	"\335ox:\237o\"S6d[\376\353B\031\325PW\322J\312\"\246"
 388      9F6F2253 
 388      36645BFE 
 388      EB4219D5 
 388      5057D24A 
 389 015b 244A4A2D 		.ascii	"$JJ-!f\010\231}\235\225\222\177\3254\222\375\275S\227"
 389      21660899 
 389      7D9D9592 
 389      7FD53492 
 389      FDBD5397 
 390 016f 15936952 		.ascii	"\025\223iR\354\361\0367})\314\252C\206J*\365\377X\270"
 390      ECF11E37 
 390      7D29CCAA 
 390      43864A2A 
 390      F5FF58B8 
 391 0183 21A77768 		.ascii	"!\247wh\275\226\236\265(_\322\255\341+\203\321\2038"
 391      BD969EB5 
 391      285FD2AD 
 391      E12B83D1 
 391      8338
 392 0195 D0A8CDF3 		.ascii	"\320\250\315\363\022\034\247\031\3652%z\271\353dO\213"
 392      121CA719 
 392      F532257A 
 392      B9EB644F 
 392      8B
 393 01a6 ED1C65BD 		.ascii	"\355\034e\275z\213\253\3028\201\203\230\227\201\033"
 393      7A8BABC2 
 393      38818398 
 393      97811B
 394 01b5 673FC97C 		.ascii	"g?\311|a;\317\263\234>8\363\222c\200o\340\210\011$\365"
 394      613BCFB3 
ARM GAS  /tmp/ccWFeo0t.s 			page 31


 394      9C3E38F3 
 394      9263806F 
 394      E0880924 
 395 01ca 46E30A71 		.ascii	"F\343\012q'2\202\310\355\233\375g\322\220{\224\231e"
 395      273282C8 
 395      ED9BFD67 
 395      D2907B94 
 395      9965
 396 01dc 98DD193A 		.ascii	"\230\335\031:\277\243,\240\240\313]e\323\022|\033P\350"
 396      BFA32CA0 
 396      A0CB5D65 
 396      D3127C1B 
 396      50E8
 397 01ee 9C4C1E0B 		.ascii	"\234L\036\0133\010\360\235\0017\216\237\204\323\244"
 397      3308F09D 
 397      01378E9F 
 397      84D3A4
 398 01fd 94017A35 		.ascii	"\224\001z5h\372w\307\325\371\210z\335t<\343\236N\206"
 398      68FA77C7 
 398      D5F9887A 
 398      DD743CE3 
 398      9E4E86
 399 0210 83A9B6B6 		.ascii	"\203\251\266\266\252`\252\021\244\212\270\336o\206\366"
 399      AA60AA11 
 399      A48AB8DE 
 399      6F86F6
 400 021f A4EE7C5F 		.ascii	"\244\356|_\334\035/\323\372\014\373\363C\241?\276{\007"
 400      DC1D2FD3 
 400      FA0CFBF3 
 400      43A13FBE 
 400      7B07
 401 0231 28DF51FC 		.ascii	"(\337Q\374\3106\005\255o\346\3344|D\3752\223;\005\207"
 401      C83605AD 
 401      6FE6DC34 
 401      7C44FD32 
 401      933B0587 
 402 0245 A5080CA0 		.ascii	"\245\010\014\240\201\035\353\277\333=p\"\2614u\336\316"
 402      811DEBBF 
 402      DB3D7022 
 402      B13475DE 
 402      CE
 403 0256 6C1FC09C 		.ascii	"l\037\300\234M\352\362\022\005\261\354\341w\036\365"
 403      4DEAF212 
 403      05B1ECE1 
 403      771EF5
 404 0265 1138CD51 		.ascii	"\0218\315Q\210<jxd\025Q\210\342\014\211M\027\212\035"
 404      883C6A78 
 404      64155188 
 404      E20C894D 
 404      178A1D
 405 0278 1FC86DCA 		.ascii	"\037\310m\312\204xz\203F\256\345\343\341\354\342\350"
 405      84787A83 
 405      46AEE5E3 
 405      E1ECE2E8 
 406 0288 09987910 		.ascii	"\011\230y\020\270\0212;\331\276\027>\233\350\262y\257"
 406      B811323B 
 406      D9BE173E 
ARM GAS  /tmp/ccWFeo0t.s 			page 32


 406      9BE8B279 
 406      AF
 407 0299 35E38E2C 		.ascii	"5\343\216,\033\267\357\331\007\314\341'\003\021\362"
 407      1BB7EFD9 
 407      07CCE127 
 407      0311F2
 408 02a8 21A86074 		.ascii	"!\250`t\267\336\213\240\240\035Lb\210M]\340p\2168\020"
 408      B7DE8BA0 
 408      A01D4C62 
 408      884D5DE0 
 408      708E3810 
 409 02bc E49EEB31 		.ascii	"\344\236\3531\306[\205\326\237\213k\345<Z8\277D\347"
 409      C65B85D6 
 409      9F8B6BE5 
 409      3C5A38BF 
 409      44E7
 410 02ce 2F1CBEA8 		.ascii	"/\034\276\250\011u\357T{]\000T\250*ZT\325+\2146\274"
 410      0975EF54 
 410      7B5D0054 
 410      A82A5A54 
 410      D52B8C36 
 411 02e3 82AA2D8C 		.ascii	"\202\252-\214x\201E\225\004\200\027\341\254\"\242\227"
 411      78814595 
 411      048017E1 
 411      AC22A297 
 412 02f3 8A4774DC 		.ascii	"\212Gt\334\355\177\315\342\214\376\272rF3+etd!\243\243"
 412      ED7FCDE2 
 412      8CFEBA72 
 412      46332B65 
 412      746421A3 
 413 0308 94D10948 		.ascii	"\224\321\011H\263\3119\215\2137\034?\266f\344\343a\004"
 413      B3C9398D 
 413      8B371C3F 
 413      B666E4E3 
 413      6104
 414 031a 3BF34989 		.ascii	";\363I\211_~\314\311\023f\326W\036s\362\374\266x\362"
 414      5F7ECCC9 
 414      1366D657 
 414      1E73F2FC 
 414      B678F2
 415 032d FCCE6331 		.ascii	"\374\316c1\201\313\316d\233C\001\370\222\303\345EQ4"
 415      81CBCE64 
 415      9B4301F8 
 415      92C3E545 
 415      5134
 416 033f 6EE674F9 		.ascii	"n\346t\371\343\341\351\362\247\361\273op\350C\2337M"
 416      E3E1E9F2 
 416      A7F1BB6F 
 416      70E8439B 
 416      374D
 417 0351 29EDB8BF 		.ascii	")\355\270\277h\301\277p\275\333\243FU\341.*\313\363"
 417      68C1BF70 
 417      BDDBA346 
 417      55E12E2A 
 417      CBF3
 418 0363 5A8C912F 		.ascii	"Z\214\221/\004@'\230\253\312\305-$\275\271\315f\001"
 418      04402798 
ARM GAS  /tmp/ccWFeo0t.s 			page 33


 418      ABCAC52D 
 418      24BDB9CD 
 418      6601
 419 0375 5F334494 		.ascii	"_3D\224\316j\252\213UU9\376g{\275S\227p\352\353\342"
 419      CE6AAA8B 
 419      555539FE 
 419      677BBD53 
 419      9770EAEB 
 420 038a 4EBCA63E 		.ascii	"N\274\246>^\263\265*.\354m\325\357\327'\336JT\253\355"
 420      5EB3B52A 
 420      2EEC6DD5 
 420      EFD727DE 
 420      4A54ABED 
 421 039e 895A99A8 		.ascii	"\211Z\231\250\255XV\374\366\266\370;\357m\255^XP#T\342"
 421      AD5856FC 
 421      F6B6F83B 
 421      EF6DAD5E 
 421      58502354 
 422 03b3 DDDA07C4 		.ascii	"\335\332\007\304H}\220"
 422      487D90
 423              		.text
 424              		.section	.gnu.lto_chSchGoSleepTimeoutS.e0395f94f624d85c,"",%progbits
 425 0000 789C9554 		.ascii	"x\234\225T[L\\U\024=\373\234\373\032f\030PK\351\307"
 425      5B4C5C55 
 425      143DFB9C 
 425      FB1A6618 
 425      504BE9C7 
 426 0014 C4F2D360 		.ascii	"\304\362\323`\033eH\032\023bb\364\333O\223\246_~\230"
 426      1B65481A 
 426      136262F4 
 426      DB4F93A6 
 426      5F7E98
 427 0027 E92434D1 		.ascii	"\351$4\321\266)\003\375j\34603\227\202\032\202b\265"
 427      B62903FD 
 427      6AE63033 
 427      97821A82 
 427      62B5
 428 0039 880DA44A 		.ascii	"\210\015\244J\241\266\024\250m)\325\342\025\246\322"
 428      A1B614A8 
 428      6D29D5E2 
 428      15A6D2
 429 0048 077D90C6 		.ascii	"\007}\220\306\020\241\206\207\200\332\370\350\230\022"
 429      10A18687 
 429      80DAF8E8 
 429      9812
 430 0056 6311AE7B 		.ascii	"c\021\256{\237;`\251\360\341\311\314\275\347\261\367"
 430      9F3B60A9 
 430      F0E1C9CC 
 430      BDE7B1F7 
 431 0066 5E6BEFBD 		.ascii	"^k\357\275\316\325\0300\032\275:c;\360\275\023\377`"
 431      CED51830 
 431      1ABD3A63 
 431      3BF0BD13 
 431      FF60
 432 0078 31E00D37 		.ascii	"1\340\0157\031\253\2668\027-eL\346\030\231\002&\003"
 432      19ABB638 
 432      172D654C 
ARM GAS  /tmp/ccWFeo0t.s 			page 34


 432      E6189902 
 432      2603
 433 008a 826BCD2F 		.ascii	"\202k\315/\342J\237\317\307\225\006\272g\244\203\351"
 433      E24A9FCF 
 433      C79506BA 
 433      67A483E9 
 434 009a 4D8CE589 		.ascii	"M\214\345\211\011@\023i\001\213s\241\351\206\011q\230"
 434      09401369 
 434      018B73A1 
 434      E9860971 
 434      98
 435 00ab E78B1C46 		.ascii	"\347\213\034FR\335\037\213\007\334\026\0144\\fn|\364"
 435      52DD1F8B 
 435      07DC160C 
 435      345C666E 
 435      7CF4
 436 00bd 43909600 		.ascii	"C\220\226\000E\270\234\351\253\371U\333\332.qL\316."
 436      45B89CE9 
 436      ABF955DB 
 436      DA2E714C 
 436      CE2E
 437 00cf BCD0D4E1 		.ascii	"\274\320\324\341h\266\340\314\345\014: \004\355\020"
 437      68B6E0CC 
 437      E50C3A20 
 437      04ED10
 438 00de 227A2760 		.ascii	"\"z'`+\332N\375\354N\370\305f`8o\235\357:\254\027\267"
 438      2BDA4EFD 
 438      EC4EF8C5 
 438      6660386F 
 438      9DEF3AAC 
 439 00f4 499990B2 		.ascii	"I\231\220\262\3715)l!\3403\020\344\267=\004\245!\206"
 439      F935296C 
 439      21E03310 
 439      E4B73D04 
 439      A52186
 440 0107 1B0C4E42 		.ascii	"\033\014NB1\332\336\255\177\1776(\236Q~\177\364\377"
 440      31DADEAD 
 440      7F7F3628 
 440      9E517E7F 
 440      F4FF
 441 0119 566365FD 		.ascii	"Vce\375\026\242\322g\013\015Ny~\313x\270\305\240\023"
 441      16A2D267 
 441      0B0D4E79 
 441      7ECB78B8 
 441      C5A013
 442 012c 8AC97CBA 		.ascii	"\212\311|\272g\351p\256\221\"zED\012\271\234\006\003"
 442      67E970AE 
 442      91227A45 
 442      440AB99C 
 442      0603
 443 013e 0B0894CA 		.ascii	"\013\010\224\312\337G{}^f\033p\2718\321\320`z\231\265"
 443      DF477B7D 
 443      5E661B70 
 443      B938D1D0 
 443      607A99B5 
 444 0152 D2F18374 		.ascii	"\322\361\203tf\301'J\025\354\221\331\267\322\326\226"
 444      66C1274A 
ARM GAS  /tmp/ccWFeo0t.s 			page 35


 444      15EC91D9 
 444      B7D2D696 
 445 0162 4FA423A5 		.ascii	"O\244#\245\363\327\350\306j\351\244\212l\241C\217\007"
 445      F3D7E8C6 
 445      6AE9A48A 
 445      6CA1438F 
 445      07
 446 0173 DD8DD05D 		.ascii	"\335\215\320]*U\214|\006\266t\275\352H\327MJg\242\260"
 446      2A558C7C 
 446      06B674BD 
 446      EA48D74D 
 446      4A67A2B0 
 447 0187 3EF9E359 		.ascii	">\371\343Y\310\303\230\310HGnXXJ+@\323\\|\360 >L\306"
 447      C8C398C8 
 447      48476E58 
 447      584A2B40 
 447      D35C7CF0 
 448 019f EE2339EA 		.ascii	"\356#9\352@\206sz\213)H\215'\177\3572\210oR\010\344"
 448      4086737A 
 448      8B29488D 
 448      277FEF32 
 448      886F5208 
 449 01b4 F0FD9513 		.ascii	"\360\375\225\023'U#,pq\344\301\347Y\304\014\027\254"
 449      2755232C 
 449      7071E4C1 
 449      E759C40C 
 449      17AC
 450 01c6 A54CCC41 		.ascii	"\245L\314A\342b\217;\353{,m\342\243\262Fjg)\226\216"
 450      E2628F3B 
 450      EB7B2C6D 
 450      E2A3B246 
 450      6A672996 
 451 01db 061FD803 		.ascii	"\006\037\330\003\267T\256>\225^_\337/\343f|Q\326J\231"
 451      B754AE3E 
 451      955E5FDF 
 451      2FE3667C 
 451      51D64A99 
 452 01ef 8F7B7502 		.ascii	"\217{u\002\243\342\366\275\341o\3239-p\264Z\252\375"
 452      A3E2F6BD 
 452      E16FD339 
 452      2D70B45A 
 452      AAFD
 453 0201 1C388FA2 		.ascii	"\0348\217\2428G\250xX\177\241\273\316\012?g\013?\364"
 453      3847A878 
 453      587FA1BB 
 453      CE0A3F67 
 453      0B3FF4
 454 0214 420B2C51 		.ascii	"B\013,Qqi\377\362;#\237\252}\003.@x\211\223Z\241\017"
 454      7169FFF2 
 454      3B239FAA 
 454      7D032E40 
 454      7889935A 
 455 022a C2EC2738 		.ascii	"\302\354'8$\375D\341\277\210\001\227\314\340\"\304\351"
 455      24FD44E1 
 455      BF880197 
 455      CCE022C4 
 455      E9
ARM GAS  /tmp/ccWFeo0t.s 			page 36


 456 023b AC73C8FD 		.ascii	"\254s\310\375\320\212\037\264E.qW\036\360\005\304\275"
 456      D08A1FB4 
 456      452E7157 
 456      1EF005C4 
 456      BD
 457 024c 2A2C3B5A 		.ascii	"*,;Z\266\010\272\234{\247_\322\251n\213<\004I9K\205"
 457      B608BA9C 
 457      7BA75FD2 
 457      A96E8B3C 
 457      0449394B 
 458 0261 6BA3E4BB 		.ascii	"k\243\344\273X(\006\227\020%)L[<\301\260d\017_\301E"
 458      58280697 
 458      1025294C 
 458      5B3CC1B0 
 458      640F5FC1 
 459 0276 106D9383 		.ascii	"\020m\223\203\337\365XT\222'!\260BbQz\251+&*\275\344"
 459      DFF55854 
 459      922721B0 
 459      4262517A 
 459      A92B262A 
 460 028c 9D87AE3F 		.ascii	"\235\207\256?[\023\347\3351\352\243\011_a]\372Q\003"
 460      5B13E7DD 
 460      31EAA309 
 460      5F615DFA 
 460      5103
 461 029e 8A8C83D5 		.ascii	"\212\214\203\325`\323\240\250\241\303\350\261\376\306"
 461      60D3A0A8 
 461      A1C3E8B1 
 461      FEC6
 462 02ac E0B60E0A 		.ascii	"\340\266\016\012\344\270sVS+2\177\212y\003\276\206m"
 462      E4B87356 
 462      532B327F 
 462      8A7903BE 
 462      866D
 463 02be ABB128E4 		.ascii	"\253\261(\344\252\304\007\220\3554$\362\011\273}fn\324"
 463      AAC40790 
 463      ED3424F2 
 463      09BB7D66 
 463      6ED4
 464 02d0 14DB55CB 		.ascii	"\024\333U\313n\217\037j\364\243\"\361\"LN\264m>uF\312"
 464      6E8F1F6A 
 464      F4A322F1 
 464      224C4EB4 
 464      6D3E7546 
 465 02e5 BA973132 		.ascii	"\272\22712\014\256\276\015\012&\215\321\020\212\221"
 465      0CAEBE0D 
 465      0A268DD1 
 465      108A91
 466 02f4 A806DF4E 		.ascii	"\250\006\337N\327\010O\011\301G\225\260\001\030\\^Q"
 466      D7084F09 
 466      C14795B0 
 466      01185C5E 
 466      51
 467 0305 94C66A9F 		.ascii	"\224\306j\237\025T\314\3061\261v5\013\\4b\360\315\372"
 467      1554CCC6 
 467      31B17635 
 467      0B5C3462 
ARM GAS  /tmp/ccWFeo0t.s 			page 37


 467      F0CDFA
 468 0318 3D1B82B8 		.ascii	"=\033\202\270-6\252p\272'\320\201\273:\035\221\011\372"
 468      2D36AA70 
 468      BA27D081 
 468      BB3A1D91 
 468      09FA
 469 032a 344D3AEF 		.ascii	"4M:\357\351e\347e-\340Ubp\005\312\224\255\3012\005\012"
 469      E965E765 
 469      2DE05562 
 469      7005CA94 
 469      ADC13205 
 470 033f BA798C2B 		.ascii	"\272y\214+\335\256\327\310\253\3776\222\374Luo\324-"
 470      DDAED7C8 
 470      ABFF3692 
 470      FC4C756F 
 470      D42D
 471 0351 183E2EBC 		.ascii	"\030>.\274{\023\370\037\342\276\266\266\270\257\257"
 471      7B13F81F 
 471      E2BEB6B6 
 471      B8AFAF
 472 0360 23EEE115 		.ascii	"#\356\341\025q\337@q\023,x\230\271\217V\325P\315\372"
 472      71DF4071 
 472      132C7898 
 472      B98F56D5 
 472      50CDFA
 473 0373 73E85A6D 		.ascii	"s\350Zm \213%_B\311\024\"5\270\231\005k\233I\2346)\350"
 473      208B255F 
 473      42C91422 
 473      35B89905 
 473      6B9B499C 
 474 038a 26B8A5C0 		.ascii	"&\270\245\300\270\007v\247A\036\201p'\371\310\035\370"
 474      B80776A7 
 474      411E8170 
 474      27F9C81D 
 474      F8
 475 039b A580DB04 		.ascii	"\245\200\333\004I\364a\004!\357AB>\237\205$z\367\221"
 475      49F46104 
 475      21EF4142 
 475      3E9F8524 
 475      7AF791
 476 03ae 0D56009D 		.ascii	"\015V\000\235C%%a\357\267\267\"\274?\026\256\330\037"
 476      43252561 
 476      EFB7B722 
 476      BC3F16AE 
 476      D81F
 477 03c0 0947CA2B 		.ascii	"\011G\312+\"\345\273J\"\314\332\023=P\021{=\0265c\273"
 477      22E5BB4A 
 477      22CCDA13 
 477      3D50117B 
 477      3D163563 
 478 03d5 DF8CEEAD 		.ascii	"\337\214\356\255\214\361\252\230\250\212\355{\3721\247"
 478      8CF1AA98 
 478      A88AED7B 
 478      FA31A7
 479 03e4 DD7B226F 		.ascii	"\335{\"oT\356\212\242cU\254\244\234\375\003\233\213"
 479      54EE8AA2 
 479      6355ACA4 
ARM GAS  /tmp/ccWFeo0t.s 			page 38


 479      9CFD039B 
 479      8B
 480 03f5 0F18     		.ascii	"\017\030"
 481              		.text
 482              		.section	.gnu.lto_chSchWakeupS.e0395f94f624d85c,"",%progbits
 483 0000 789C9D57 		.ascii	"x\234\235W[lTE\030\236\177fw\317\331K\267\333\322\204"
 483      5B6C5445 
 483      189E7F66 
 483      77CFD94B 
 483      B7DBD284 
 484 0014 481A2131 		.ascii	"H\032!1\244!\306\256\204'\342\023o>\353\0031>hR\214"
 484      A421C6AE 
 484      8427E213 
 484      6F3EEB03 
 484      313E6852 
 485 0029 3CA854DA 		.ascii	"<\250T\3327\037\366\264\273\013\255\022!\221V[0\304"
 485      371FF6B4 
 485      BB0BAD12 
 485      2191565B 
 485      30C4
 486 003b 2837B9F4 		.ascii	"(7\271\364\206@Qd-\205*\026*\024(RAh\331\226K\201.\224"
 486      86405164 
 486      2D852A16 
 486      2A142852 
 486      4168D996 
 487 0053 4BED65FD 		.ascii	"K\355e\375\377\231\263\335Szv[8iww\346\314\374\337\367"
 487      FF99B3DD 
 487      537A765B 
 487      38697777 
 487      E6CCFCDF 
 488 0068 7FF3CF77 		.ascii	"\177\363\317w\3468\0300\272\336\314e\354u\374\336\214"
 488      E6381830 
 488      BADECC65 
 488      EC75FCDE 
 488      8C
 489 0079 FFE063C0 		.ascii	"\377\340c\3007\235a\254B\347\\T\0251\303\343\242O\237"
 489      379D61AC 
 489      42E75C54 
 489      1531C3E3 
 489      A24F9F
 490 008c 0087EA76 		.ascii	"\000\207\352vp\317\206\016\206\375\316\210\206\375\036"
 490      70CF860E 
 490      86FDCE88 
 490      86FD1E
 491 009b D5BFC209 		.ascii	"\325\277\302\011nu\337\005\232\372\241q\257\032\250"
 491      6E75DF05 
 491      9AFAA171 
 491      AF1AA8
 492 00aa CB815ED5 		.ascii	"\313\201^\325\277BO\015t\003\320\017C\007\026\342\302"
 492      BF424F0D 
 492      7403D00F 
 492      430716E2 
 492      C2
 493 00bb E171BA34 		.ascii	"\341q\2724/v\206\204\203\251K3\277\037\361\011\016m"
 493      2F768684 
 493      83A94B33 
 493      BF1FF109 
ARM GAS  /tmp/ccWFeo0t.s 			page 39


 493      0E6D
 494 00cd EB075AF9 		.ascii	"\353\007Z\371\222\235\006^\327\242\015\313\214]1\210"
 494      929D065E 
 494      D7A20DCB 
 494      8C5D3188 
 495 00dd 0AC6925C 		.ascii	"\012\306\222\\\215\201\235\260\004G\235\2154n\025#<"
 495      8D819DB0 
 495      04479D8D 
 495      346E1523 
 495      3C
 496 00ee 2A001CD8 		.ascii	"*\000\034\330L\234\256\357\367S\223\303\"l^:\277\177"
 496      4C9CAEEF 
 496      F75393C3 
 496      226C5E3A 
 496      BF7F
 497 0100 B7572C04 		.ascii	"\267W,\004\206\277#\235{\303\276\242\355\206Qi\030c"
 497      86BF239D 
 497      7BC3BEA2 
 497      ED865169 
 497      1863
 498 0112 AB0C7754 		.ascii	"\253\014wT\010\370\021\004\306\203\335P\010\273\240"
 498      08F81104 
 498      C683DD50 
 498      08BBA0
 499 0121 90611783 		.ascii	"\220a\027\203=P\204\243;\033[{\034\342\0259s\363\235"
 499      3D5084A3 
 499      3B1B5B7B 
 499      1CE21539 
 499      73F39D
 500 0134 C14BB934 		.ascii	"\301K\2714\023\257\246\017h\246\003\366>;\323\301`\037"
 500      13AFA60F 
 500      68A603F6 
 500      3E3BD3C1 
 500      601F
 501 0146 14D1F0F1 		.ascii	"\024\321\360\361-\033\333tQ$\247>\354\035h\325\027\177"
 501      2D1BDB74 
 501      5124A73E 
 501      EC1D68D5 
 501      177F
 502 0158 4FA0B1B1 		.ascii	"O\240\261\261\313\376:#\026YD\300\373\247O\247\013G"
 502      CBFE3A23 
 502      165944C0 
 502      FBA74FA7 
 502      0B47
 503 016a F7354DD6 		.ascii	"\3675M\326\344\270\"\204\263\010\032`qu*_h\004\027."
 503      E4B82284 
 503      B3081A60 
 503      71752A5F 
 503      6804172E 
 504 017e 9DA04E1C 		.ascii	"\235\240N\034\327=X{T\027\257J\204\232\373'k\300Dx|"
 504      D73D587B 
 504      5417AF4A 
 504      849AFB27 
 504      6BC04478 
 505 0193 C6676CAA 		.ascii	"\306gl\252\320\011\240i&\0004\313\311\226\011F\263a"
 505      D009A069 
 505      260034CB 
ARM GAS  /tmp/ccWFeo0t.s 			page 40


 505      C9960946 
 505      B361
 506 01a5 80226437 		.ascii	"\200\"d7\276\005\0267\274\0253\222\311\260\021\033]"
 506      BE051637 
 506      BC153392 
 506      C9B0111B 
 506      5D
 507 01b6 70E5E931 		.ascii	"p\345\3511\357\313\250\017Rp\000\251\344\004\312X\303"
 507      EFCBA80F 
 507      527000A9 
 507      E404CA58 
 507      C3
 508 01c7 DC9D3A7D 		.ascii	"\334\235:}\270\345\014\277\304\311\225\237\001\352\316"
 508      B8E50CBF 
 508      C4C9959F 
 508      01EACE
 509 01d6 2359F3E5 		.ascii	"#Y\363\345\275y\324.\2202\263a\314\253\312\317\022\234"
 509      BD79D42E 
 509      9032B361 
 509      CCABCACF 
 509      129C
 510 01e8 E3971880 		.ascii	"\343\227\030\200\312#\211\253\027\005%\032\026\002i"
 510      CA2389AB 
 510      1705251A 
 510      160269
 511 01f7 D646DBBA 		.ascii	"\326F\333\2724ZI\227L\263\265u\250W\013M\030U\206\021"
 511      345A4997 
 511      4CB3B575 
 511      A8570B4D 
 511      18558611 
 512 020b C0BE6A01 		.ascii	"\300\276j\001R\261\333\235\027\332=\333\340\333\012"
 512      52B1DB9D 
 512      17DA3DDB 
 512      E0DB0A
 513 021a 43F66BF0 		.ascii	"C\366k\360\023\204\340\000%\2007\277<\334X\255\007\367"
 513      1384E000 
 513      258037BF 
 513      3CDC58AD 
 513      07F7
 514 022c C9755B19 		.ascii	"\311u[\031\025:\034\204m0\311M\261Ol8\373\203\036|\215"
 514      153A1C84 
 514      6D30C94D 
 514      B14F6C38 
 514      FB831E7C 
 515 0241 923F04C1 		.ascii	"\222?\004\301IN[\003\016C\220\365A\245\361\206T\034"
 515      494E5B03 
 515      0E4390F5 
 515      41A5F186 
 515      541C
 516 0253 5345320C 		.ascii	"SE2\014\311\325'\006k\235\324ge&$\263'\035\247\252|"
 516      C9D52706 
 516      6B9DD467 
 516      652624B3 
 516      271DA7AA 
 517 0268 26052327 		.ascii	"&\005#'*\334a,\217V\223\302\366\033\225\3735\002\361"
 517      2ADC612C 
 517      8F5693C2 
ARM GAS  /tmp/ccWFeo0t.s 			page 41


 517      F61B95FB 
 517      3502F1
 518 027b C01109CE 		.ascii	"\300\021\011\316\025x\367&\343\0330\251-\243z\372\231"
 518      1578F726 
 518      E31B30A9 
 518      2DA37AFA 
 518      99
 519 028c 2808A2F0 		.ascii	"(\010\242\360\013\004\303\302\311\244\"\367v\230\212"
 519      0B04C3C2 
 519      C9A422F7 
 519      76988A
 520 029b 681620C8 		.ascii	"h\026 \310\204\341\205\243\022\203\266\023\374\212\231"
 520      84E185A3 
 520      1283B613 
 520      FC8A99
 521 02aa 508CEBF3 		.ascii	"P\214\353\363U\004}F\004a\027\341X:B\014#\\\207HWx\201"
 521      55047D46 
 521      046117E1 
 521      583A420C 
 521      235C8748 
 522 02c1 C90183C8 		.ascii	"\311\001\203\310\302H \321\210&P\247\000\315n\217\217"
 522      C24820D1 
 522      882650A7 
 522      00CD6E8F 
 522      8F
 523 02d2 9FF38A62 		.ascii	"\237\363\212b)F\305\236-[}f5>\275<U\215\277\331TW\033"
 523      2946C59E 
 523      2D5B7D66 
 523      353EBD3C 
 523      558DBFD9 
 524 02e9 89EB208E 		.ascii	"\211\353 \216#\303\361n1\275\374\215\261\203N\032!+"
 524      23C3F16E 
 524      31BDFC8D 
 524      B1834E1A 
 524      212B
 525 02fb 3FC961C6 		.ascii	"?\311a\306\356h\246{\307\301\205\201\332\345\252X\227"
 525      EE68A67B 
 525      C7C18581 
 525      DAE5AA58 
 525      97
 526 030c 2160AB90 		.ascii	"!`\253\220T;V\233\033\025>8!\323t\252\020p\022\2028"
 526      543B569B 
 526      1B153E38 
 526      21D374AA 
 526      10701282 
 527 0321 AA61A875 		.ascii	"\252a\250u4\207\3265\007\030t\340TL0V\267Q\020\200\271"
 527      3487D635 
 527      071874E0 
 527      544C3056 
 527      B7511080 
 528 0336 77E65A85 		.ascii	"w\346Z\205\277g\250\302\367\250\012\3770\253PbO\025"
 528      BF67A8C2 
 528      F7A80AFF 
 528      30AB5062 
 528      4F15
 529 0348 A21AF059 		.ascii	"\242\032\360YT\370\341\024\325\202k\352\376\255\211"
 529      54F8E114 
ARM GAS  /tmp/ccWFeo0t.s 			page 42


 529      D5826BEA 
 529      FEAD89
 530 0357 681B2850 		.ascii	"h\033(P\343\235\250\310\205?!\250xwBH.\207\203\241\257"
 530      E39DA8C8 
 530      853F21A8 
 530      78774248 
 530      2E8783A1 
 531 036c AAF520A2 		.ascii	"\252\365 \242a\341\227K\3374\030\226\344\303\"\327V"
 531      61E1974B 
 531      DF341896 
 531      E4C322D7 
 531      56
 532 037d 20BF9D40 		.ascii	" \277\235@\306r\242pZr\324\2468X\353u%\255\350\031\342"
 532      C672A270 
 532      5A72D4A6 
 532      3858EB75 
 532      25ADE819 
 533 0392 A89BFA75 		.ascii	"\250\233\372u\231\273fiJ*DT\005<\330o2\010\3302\310"
 533      99BB6669 
 533      4A2A4454 
 533      053CD86F 
 533      3208D832 
 534 03a7 B52BC1BF 		.ascii	"\265+\301\277\314\022T\261\317\246\252\320\257\002a"
 534      CC1254B1 
 534      CFA6AAD0 
 534      AF0261
 535 03b6 1506A87E 		.ascii	"\025\006\250~\036\200\037\247\365T\364\364\231\274b"
 535      1E801FA7 
 535      F554F4F4 
 535      99BC62
 536 03c5 755DF351 		.ascii	"u]\363Q^\\\023\253\270\315\247\353\266\370\255\342\236"
 536      5E5C13AB 
 536      B8CDA7EB 
 536      B6F8ADE2 
 536      9E
 537 03d6 9B2EEEB9 		.ascii	"\233.\356\271\256\035\037Y\265\355Ni{\036\237K\253\221"
 537      AE1D1F59 
 537      B5ED4E69 
 537      7B1E9F4B 
 537      AB91
 538 03e8 A16768F4 		.ascii	"\241gh\364}4+\017\303G\033$\260d\260\3621\265\332\304"
 538      7D342B0F 
 538      C3471B24 
 538      B064B0F2 
 538      31B5DAC4 
 539 03fc 50BFF67C 		.ascii	"P\277\366|\245gx\011\377B\026e\227\223\262\027\255\312"
 539      A5677809 
 539      FF421665 
 539      9793B217 
 539      ADCA
 540 040e F6901928 		.ascii	"\366\220\031(-\233\356~\345U\022\344\315IK\025\262\006"
 540      2D9BEE7E 
 540      E55512E4 
 540      CD494B15 
 540      B206
 541 0420 08F45216 		.ascii	"\010\364R\026\320\026 \324\277\011\325m\242^V\336Q\373"
 541      D01620D4 
ARM GAS  /tmp/ccWFeo0t.s 			page 43


 541      BF09D56D 
 541      A25E56DE 
 541      51FB
 542 0432 DDC217C9 		.ascii	"\335\302\027\311\260w\266\014\377\261b]\241\014\363"
 542      B077B60C 
 542      FFB1625D 
 542      A10CF3
 543 0441 94C7DECD 		.ascii	"\224\307\336\315\"i\236-\340\333\004x5\013\340\247\004"
 543      22699E2D 
 543      E0DB0478 
 543      350BE0A7 
 543      04
 544 0452 F8AF55D2 		.ascii	"\370\257U\322k\004(}\247\276\351^\026@{=e\206\327g\313"
 544      6B04287D 
 544      A7BEE95E 
 544      16407B3D 
 544      6586D767 
 545 0467 B0CF9A61 		.ascii	"\260\317\232a\277\002\244\215\352\262\372\246\325+G"
 545      BF02A48D 
 545      EAB2FAA6 
 545      D52B47
 546 0476 EBC5D4D9 		.ascii	"\353\305\324\331\300\316,oL=\211\354\314r\347\241\227"
 546      C0CE2C6F 
 546      4C3D89EC 
 546      CC72E7A1 
 546      97
 547 0487 684446B3 		.ascii	"hDF\263l\241{qi\226\003\031\262}\366a\240\266\324\327"
 547      6CA17B71 
 547      69960319 
 547      B27DF661 
 547      A0B6D4D7 
 548 049b 5D9CDC72 		.ascii	"]\234\334r0\345\226\024\003n\342\026\261\332#\206$\204"
 548      30E59614 
 548      036EE216 
 548      B1DA2386 
 548      2484
 549 04ad E7B0C75B 		.ascii	"\347\260\307[\331\354\361v\312\036\343\031\354\361\216"
 549      D9ECF176 
 549      CA1EE319 
 549      ECF18E
 550 04bc B983E319 		.ascii	"\271\203\343\031\354q\010\371I\242wM{\324,\366\330B"
 550      EC7108F9 
 550      49A2774D 
 550      7BD42CF6 
 550      D842
 551 04ce 42BAD3F6 		.ascii	"B\272\323\3668@\033*\337V\022wf{\274\227*\200x\006{"
 551      38401B2A 
 551      DF561277 
 551      667BBC97 
 551      2A807806 
 552 04e3 BC6F569C 		.ascii	"\274oV\234\3441<e\217\246T\210\230\266G\311`\236-\203"
 552      E4313C65 
 552      8FA65488 
 552      98B647C9 
 552      609E2D83 
 553 04f7 7C3B7B4C 		.ascii	"|;{L\244\354Q\306~\220\266G\031H\307X\312\036\335Y\355"
 553      A4EC51C6 
ARM GAS  /tmp/ccWFeo0t.s 			page 44


 553      7E90B647 
 553      1948C758 
 553      CA1EDD59 
 554 050c 319EC11E 		.ascii	"1\236\301\036\037N\027\367Y{\034Ii\373\010B.\264\307"
 554      1F4E17F7 
 554      597B1C49 
 554      69FB0842 
 554      2EB4C7
 555 051f 7CAFB247 		.ascii	"|\257\262G\257i\217\3724{|\256bS[\353q\026e\345\326"
 555      AF698FFA 
 555      347B7CAE 
 555      62535BEB 
 555      711665E5 
 556 0534 7A6255F6 		.ascii	"zbU\366)m\255\374\264=J\011\012\346\244\245\325\036"
 556      296DADFC 
 556      B43D4A09 
 556      0AE6A4A5 
 556      D51E
 557 0546 47B3802A 		.ascii	"G\263\200*{\374\317\334\320\022u,m\217/\220\341\370"
 557      7BFCCFDC 
 557      D012752C 
 557      6D8F2F90 
 557      E1F8
 558 0558 6C194E58 		.ascii	"l\031NX\261&)\303\202\264=f\002,\310l\217\311,\200\322"
 558      B12629C3 
 558      82B43D66 
 558      022CC86C 
 558      8FC92C80 
 559 056d 1E0D6E91 		.ascii	"\036\015n\221\264\202\007Sg^i\217\231\000\355\365\224"
 559      B4820753 
 559      675E698F 
 559      9900EDF5 
 559      94
 560 057e 1956F259 		.ascii	"\031V\362Y2\014sK\206\021\005Hn\322\335\353\223\347"
 560      320C734B 
 560      86110548 
 560      6ED2DDEB 
 560      93E7
 561 0590 6EF232EC 		.ascii	"n\3622\354\340\262\321bm4PC\2121~P\230\347\361\271\272"
 561      E0B2D162 
 561      6D345043 
 561      8A317E50 
 561      98E7F1B9 
 562 05a5 4E94DBBB 		.ascii	"N\224\333\273\216\227\\g\035\267\1775X\317S\257\006"
 562      8E975C67 
 562      1DB77F35 
 562      58CF53AF 
 562      06
 563 05b6 553CF5DC 		.ascii	"U<\365\334\030i\234X\227z\031\230v\372_\3122\035\315"
 563      18699C58 
 563      977A1998 
 563      76FA5FCA 
 563      321DCD
 564 05c9 7D50CD95 		.ascii	"}P\315\225\207b\244\3179\0357\017\264w\254\323\325q"
 564      8762A4CF 
 564      391D370F 
 564      B477ACD3 
ARM GAS  /tmp/ccWFeo0t.s 			page 45


 564      D571
 565 05db 13E00B5E 		.ascii	"\023\340\013^\310nB46\326+\363\234\371\306\023H\322"
 565      C86E4234 
 565      36D62BF3 
 565      9CF9C613 
 565      48D2
 566 05ed AB036CE0 		.ascii	"\253\003l\340!\206\000(X\024\037\232dnnz}\272\215\342"
 566      21860028 
 566      58141F9A 
 566      646E6E7A 
 566      7DBA8DE2 
 567 0601 25DF9533 		.ascii	"%\337\2253\351\032F\306U~\034_X\\\034T\177k\312\202"
 567      E91A46C6 
 567      557E1C5F 
 567      585C1C54 
 567      7F6BCA82 
 568 0615 6BCB8365 		.ascii	"k\313\203ekK\202%\253\313JV\257*.a\342\223\362R\361"
 568      6B4B8225 
 568      ABCB4A56 
 568      AF2A2E61 
 568      E293F252 
 569 062a 71D98762 		.ascii	"q\331\207bMy)/)\345\345\245\377\003)\231(\014"
 569      4D79292F 
 569      29E5E5A5 
 569      FF032999 
 569      280C
 570              		.text
 571              		.section	.gnu.lto_chSchIsPreemptionRequired.e0395f94f624d85c,"",%progbits
 572 0000 789C9592 		.ascii	"x\234\225\222\315k\023Q\024\305\337yo\222\214\261)\356"
 572      CD6B1351 
 572      14C5DF79 
 572      6F928CB1 
 572      29EE
 573 0012 0D1AC42C 		.ascii	"\015\032\304,\2620\243\255\340\337\241[\227q\321\235"
 573      B230A3AD 
 573      E0DFA15B 
 573      9771D19D 
 574 0022 A5719F97 		.ascii	"\245q\237\227\217\241-\224\032\020\225\212\322\205\225"
 574      8FA12D94 
 574      1A10958A 
 574      D28595
 575 0031 56AB6DE2 		.ascii	"V\253m\342gS\265\006Q\024k#]\010\202\213h\255\225\026"
 575      6753B506 
 575      51146B23 
 575      5D08828B 
 575      68AD9516 
 576 0045 21069480 		.ascii	"!\006\224\200\220\304{\337\244~\224l\034\022\346\275"
 576      90C47BDF 
 576      A47E946C 
 576      1C12E6BD 
 577 0055 93774FCE 		.ascii	"\223wO\316\357\314X\002\202\257\230\022\342 \335\367"
 577      EFCC5802 
 577      82AF9812 
 577      E220DDF7 
 578 0065 D2174A40 		.ascii	"\322\027J@\346+B\244m\011\360B\333\020)\211\024~\310"
 578      E62B42A4 
 578      6D09F042 
ARM GAS  /tmp/ccWFeo0t.s 			page 46


 578      DB102989 
 578      147EC8
 579 0078 A6C472E3 		.ascii	"\246\304r\343\345X06\255uF\177\370\\\353\2778S\206K"
 579      E5583036 
 579      AD75467F 
 579      F85CEBBF 
 579      3853864B 
 580 008c E36D29D0 		.ascii	"\343m)\320\037\306\3410[L#&\350\350j\256pY}\227\256"
 580      1FC6E130 
 580      5B4C2326 
 580      E8E86AAE 
 580      70597D97 
 581 00a1 022CDAD6 		.ascii	"\002,\332\326W.}\352\345\255D\204\266g\227\307+A\265"
 581      572E7DEA 
 581      E5AD4484 
 581      B66797C7 
 581      2B41B5
 582 00b4 1F7C727C 		.ascii	"\037|r|\245\330\010E\257\262i\371\\54\241\313\271\210"
 582      A5D80845 
 582      AFB269F9 
 582      5C3534A1 
 582      CBB988
 583 00c7 AB146E40 		.ascii	"\253\024n@\261\361u\2041\203\260\311J\247\2476\227j"
 583      B1F17584 
 583      3183B0C9 
 583      4AA7A736 
 583      976A
 584 00d9 BDEA8099 		.ascii	"\275\352\200\231\254n>Y\332\236\314W{t>m\363\340\315"
 584      AC6E3E59 
 584      DA9ECC57 
 584      7B743E6D 
 584      F3E0CD
 585 00ec AE836BC5 		.ascii	"\256\203k\305\326\371\220?\247\351\212\340\026\242\230"
 585      D6F9903F 
 585      A7E98AE0 
 585      16A298
 586 00fb 45949353 		.ascii	"E\224\223S\3449\370\251\013\271\255\316\237(\353v;\253"
 586      E439F8A9 
 586      0BB9ADCE 
 586      9F28EB76 
 586      3BAB
 587 010d CBED7D95 		.ascii	"\313\355}\225w\215\335\001)\\eQ3\364\263\305K\237\340"
 587      778DDD01 
 587      295C6551 
 587      33F4B3C5 
 587      4B9FE0
 588 0120 537EC1E8 		.ascii	"S~\301\350\342\0339pQu)\371\2566\220Y,\256\017\373\330"
 588      E21B3970 
 588      517529F9 
 588      AE369059 
 588      2CAE0FFB 
 589 0135 34ABB8B4 		.ascii	"4\253\270\264\013\356\3237\001F\367\231\320\245\322"
 589      0BEED337 
 589      0146F799 
 589      D0A5D2
 590 0144 D7F78154 		.ascii	"\327\367\201TS\217h\275\207\264Q\345\305\333z\375\366"
 590      538F68BD 
ARM GAS  /tmp/ccWFeo0t.s 			page 47


 590      87B451E5 
 590      C5DB7AFD 
 590      F6
 591 0155 59701257 		.ascii	"Yp\022W\322\332\350~\024\250\364y\216\317\025-\024F"
 591      D2DAE87E 
 591      14A8F479 
 591      8ECF152D 
 591      1446
 592 0167 6DE790AB 		.ascii	"m\347\220\253\002(b\022-\331az>\266:et\033\267\341\264"
 592      02286212 
 592      2DD9617A 
 592      3EB63A65 
 592      741BB7E1 
 593 017c 243CB9F6 		.ascii	"$<\271\366\345g\037\253\026\356\260j\030\357\302\021"
 593      E5671FAB 
 593      16EEB06A 
 593      18EFC211 
 594 018c 9CED63C8 		.ascii	"\234\355c\310K\246\376Nf\231d\215\027\257Fz:\021\364"
 594      4BA6FE4E 
 594      6699648D 
 594      17AF467A 
 594      3A11F4
 595 019f 71C2DB45 		.ascii	"q\302\333E\000\270\327\311pm=3\027`W\205\373&\003\007"
 595      00B8D7C9 
 595      706D3D33 
 595      17605785 
 595      FB260307 
 596 01b3 C703B25D 		.ascii	"\307\003\262]CF\0373%RC\344l\376\247\376\273\003\353"
 596      43461F33 
 596      255243E4 
 596      6CFEA7FE 
 596      BB03EB
 597 01c6 3FA017BA 		.ascii	"?\240\027\272C\227\272B[Xd<\213s<\334\201\347\333\311"
 597      4397BA42 
 597      5B58643C 
 597      8B733CDC 
 597      81E7DBC9 
 598 01da 73D2E3B1 		.ascii	"s\322\343\261\272\361<\372\303\363\370\037\236Y\346"
 598      BAF13CFA 
 598      C3F3F81F 
 598      9E59E6
 599 01e9 F19171B6 		.ascii	"\361\221q\2660\274\321<\352Ysy\254nAv\004a\336\003\360"
 599      30BCD13C 
 599      EA597379 
 599      AC6E4176 
 599      0461DE03 
 600 01fe F3A790E1 		.ascii	"\363\247\220\341x\334\361>\247\223\316\320\031'9\224"
 600      78DCF13E 
 600      A793CED0 
 600      19273994 
 601 020e 701203C9 		.ascii	"p\022\003\311\304\300\251xB\310\301>9x\344\027\305\037"
 601      C4C0A978 
 601      42C8C13E 
 601      3978E417 
 601      C51F
 602 0220 0E09     		.ascii	"\016\011"
 603              		.text
ARM GAS  /tmp/ccWFeo0t.s 			page 48


 604              		.section	.gnu.lto_chSchDoRescheduleBehind.e0395f94f624d85c,"",%progbits
 605 0000 789C9D57 		.ascii	"x\234\235W]l\024U\024\276g\356\376L\273\273\025\023"
 605      5D6C1455 
 605      14BE67EE 
 605      FE4CBBBB 
 605      1513
 606 0012 137DA8A1 		.ascii	"\023}\250\241\211b\302\203l\210\017JLL\214\211\017&"
 606      8962C283 
 606      6C880F4A 
 606      4C4C8C89 
 606      0F26
 607 0024 24461F88 		.ascii	"$F\037\210O\232\024\223\232\020ii}\362\241\267\335\256"
 607      4F9A1493 
 607      9A106969 
 607      7DF2A1B7 
 607      DDAE
 608 0036 82218231 		.ascii	"\202!\2021-,\2054\304\037P\240t)\012[D\226R(\362\323"
 608      2D2C8534 
 608      C41F50A0 
 608      74290A5B 
 608      44965228 
 609 004c D256AC05 		.ascii	"\322V\254\005\204v\333m\241\026\350B\241V\331]\317\271"
 609      8476DB6D 
 609      A116E842 
 609      A156D95D 
 609      CFB9
 610 005e F76E9DB2 		.ascii	"\367n\235\262\263K\353\244\235\351\314\334{\276\363"
 610      B34BEBA4 
 610      9DE9CCDC 
 610      7BBEF3
 611 006d 9DEFBBE7 		.ascii	"\235\357\273\347N\035\014\030\035\025^\306V\342\365"
 611      4E1D0C18 
 611      1D155EC6 
 611      56E2F5
 612 007c 75FC0517 		.ascii	"u\374\005\027\003cs\027c5\246\001\\\375\301\015\347"
 612      03637317 
 612      6335A601 
 612      5CFDC10D 
 612      E7
 613 008d C64EC644 		.ascii	"\306N\306D\241\243\316\315\204\327\251\236\277\352\000"
 613      A1A3CECD 
 613      84D7A99E 
 613      BFEA00
 614 009c A0AB3081 		.ascii	"\240\2530\201U\033\334\351\000<3u\3343\222\006\264\177"
 614      551BDCE9 
 614      003C3375 
 614      DC339206 
 614      B47F
 615 00ae 3A1A3196 		.ascii	":\0321\226\356\022x\014\306S/\210\335Q\010\342\200\264"
 615      EE12780C 
 615      C6532F88 
 615      DD5108E2 
 615      80B4
 616 00c0 A1C6C02E 		.ascii	"\241\306\300.X\312pXO]\313v>e\0049\200\003o\023\347"
 616      58CA7058 
 616      4F5DCB76 
 616      3E650439 
ARM GAS  /tmp/ccWFeo0t.s 			page 49


 616      80036F13 
 617 00d5 B70D17D1 		.ascii	"\267\015\027\321\255\001%x\373\240qS\273\311\027\003"
 617      AD012578 
 617      FBA07153 
 617      BBC91703 
 618 00e5 8DBC7B79 		.ascii	"\215\274{y4b.\371J\210Z\021\235\271V\024\022\321\272"
 618      34622EF9 
 618      4A885A11 
 618      9DB95614 
 618      12D1BA
 619 00f8 9220E7F0 		.ascii	"\222 \347\360=p\014\012\337A1\354\206b\031\034G\307"
 619      3D700C0A 
 619      DF4131EC 
 619      8662191C 
 619      47C7
 620 010a C2A97A9F 		.ascii	"\302\251z\237\253\216\340K`\017,Q\300\260\027\\\310"
 620      AB8EE04B 
 620      600F2C51 
 620      C0B0175C 
 620      C8
 621 011b 9AD3131C 		.ascii	"\232\323\023\034\3247\326p\324\344\317\310\360\365\267"
 621      D437D670 
 621      D4E4CFC8 
 621      F0F5B7
 622 012a 4FD5830E 		.ascii	"O\325\203\016\177\277\313+6\327\230\024}_vth\226\223"
 622      7FBFCB2B 
 622      36D79814 
 622      7D5F7674 
 622      689693
 623 013d 3BE20F7A 		.ascii	";\342\017z=\37499\271fO\343v\257\232<x \271\362\213"
 623      3DFC3939 
 623      B9664FE3 
 623      76AF9A3C 
 623      7820B9F2 
 624 0152 80382D1C 		.ascii	"\2008-\0344}\277\315\364\026X\262\377\255\250H\247\003"
 624      347DBFCD 
 624      F41658B2 
 624      FFADA848 
 624      A703
 625 0164 5899573A 		.ascii	"X\231W:7\354:\371\370\0238\006Sr\311\227\246D(\220\347"
 625      37EC3AF9 
 625      F8133806 
 625      5372C997 
 625      A6442890 
 626 0179 4216E40E 		.ascii	"B\026\344\016\017\235\274x\342>:16\211\\P\214\204a\340"
 626      0F9DBC78 
 626      E23E3A31 
 626      36895C50 
 626      8C8461E0 
 627 018d 858F426D 		.ascii	"\205\217Bm[8\325\317\211\\\200S\355\033\202\355\335"
 627      5B38D5CF 
 627      895C8053 
 627      ED1B82ED 
 627      DD
 628 019e 6EAAA253 		.ascii	"n\252\242Sf\027\211L\\vW'\305z!\026\341\263\015\\\225"
 628      6617894C 
 628      5C765727 
ARM GAS  /tmp/ccWFeo0t.s 			page 50


 628      C57A2116 
 628      E1B30D5C 
 629 01b3 68FCDCC5 		.ascii	"h\374\334\305\216\302&\330Q#\344s\027\034\200j\010S"
 629      8EC226D8 
 629      5123E473 
 629      171C806A 
 629      0853
 630 01c5 96F8F2F3 		.ascii	"\226\370\362\363\303-\033L\377>\252\237X\025\344nh\205"
 630      C32D1B4C 
 630      FF3EAA9F 
 630      5815E46E 
 630      6885
 631 01d7 264819BA 		.ascii	"&H\031\272\272'7\366|m\372\237'\206\007\301\2372\310"
 631      BA2737F6 
 631      7C6DFA9F 
 631      278607C1 
 631      9F32C8
 632 01ea 49F003F8 		.ascii	"I\360\003\370Y\014j\305\313\262\312H\007\223\301\007"
 632      590C6AC5 
 632      CBB2CA48 
 632      0793C107 
 633 01fa 06DDE29C 		.ascii	"\006\335\342\234+\215WS\005\374\015\231\321\211\340"
 633      2B8D5753 
 633      05FC0D99 
 633      D189E0
 634 0209 F15AB72E 		.ascii	"\361Z\267.\366t\023\327Z\232\360\243M\271\016\311j\317"
 634      F67413D7 
 634      5A9AF0A3 
 634      4DB90EC9 
 634      6ACF
 635 021b 97C3617B 		.ascii	"\227\303a{\016\321t\323\263\304\"\222\315Bq\334\201"
 635      0ED174D3 
 635      B3C42292 
 635      CD4271DC 
 635      81
 636 022c EE2C8036 		.ascii	"\356,\2006\"c\250\2677\222\301vP\210\342EJ\356\010\370"
 636      2263A8B7 
 636      3792C176 
 636      5088E245 
 636      4AEE08F8 
 637 0240 890A839F 		.ascii	"\211\012\203\237\240\232Q\321g\366\036k\255\232\353"
 637      A09A51D1 
 637      67F61E6B 
 637      AD9AEB
 638 024f B5E8D9F4 		.ascii	"\265\350\331\364!\000\312Yz-m@\226\031[\350\335Q\214"
 638      2100CA59 
 638      7A2D6D40 
 638      96195BE8 
 638      DD518C
 639 0262 C3E06712 		.ascii	"\303\340g\022\314e\025\314\\\200`\005\020E\262\307\262"
 639      CC6515CC 
 639      5C806005 
 639      1045B2C7 
 639      B2
 640 0273 C90EB626 		.ascii	"\311\016\266&W\3668I\234\343\222.Wx\320>+\020\002S\036"
 640      57F63849 
 640      9CE3922E 
ARM GAS  /tmp/ccWFeo0t.s 			page 51


 640      5778D03E 
 640      2B100253 
 641 0288 082E8924 		.ascii	"\010.\211$FB[Ae\343\263f\303e6\323\235g\326{\377\203"
 641      46425B41 
 641      65E3B366 
 641      C36536D3 
 641      9D67D67B 
 642 029e 2DC45970 		.ascii	"-\304YpB\243~3R\333\354\326%\374\230R\352\220\210\016"
 642      42A37E33 
 642      52DBECD6 
 642      25FC9852 
 642      EA90880E 
 643 02b2 85484B6C 		.ascii	"\205HKl\263\330\012z@\010(\344I\252q&\245S\230\022f"
 643      B3D80A7A 
 643      400828E4 
 643      49AA7126 
 643      A5539812 
 644 02c7 D030544C 		.ascii	"\3200TL\360\013\240\336iO]\370\010\342\364\034\332\277"
 644      F00BA0DE 
 644      694F5DF8 
 644      08E2F41C 
 644      DABF
 645 02d9 801F7911 		.ascii	"\200\037y\021\314\266p<\264N\003e\263\362\331\262ZA"
 645      CCB6703C 
 645      B44E0365 
 645      B3F2D9B2 
 645      5A41
 646 02eb 6867F2B0 		.ascii	"hg\362\260ZE\210g\211\224S\003\236\003\377\002\034{"
 646      5A458867 
 646      89945303 
 646      9E03FF02 
 646      1C7B
 647 02fd DEDEB183 		.ascii	"\336\336\261\203\361\364k\016\262lW~\313v\347\263\354"
 647      F1F46B0E 
 647      B26C577E 
 647      CB76E7B3 
 647      EC
 648 030e 858C657B 		.ascii	"\205\214e{\320\262z)Js\316\336\220\033\2514\275\237"
 648      D0B27A29 
 648      4A73CEDE 
 648      901BA934 
 648      BD9F
 649 0320 9D03BD50 		.ascii	"\235\003\275P\347\233xo\216v\341\246\254\373r\264\213"
 649      E79B786F 
 649      8E76E1A6 
 649      ACFB72B4 
 649      8B
 650 0331 5F67DBC5 		.ascii	"_g\333\305E\222E\372o\252\245c\353\233\032\334*\213"
 650      459245FA 
 650      6FAAA563 
 650      EB9B1ADC 
 650      2A8B
 651 0343 58CE6CED 		.ascii	"X\316l\355\206\201<\360\233\004pQ\244~Y\357\203\035"
 651      86813CF0 
 651      9B047051 
 651      A47E59EF 
 651      831D
ARM GAS  /tmp/ccWFeo0t.s 			page 52


 652 0355 9D9F98E4 		.ascii	"\235\237\230\344Z/.\300\337q\002Z=\272%v!C\313\322\243"
 652      5A2F2EC0 
 652      DF71025A 
 652      3DBA2576 
 652      2143CBD2 
 653 036a 2D3DC7BE 		.ascii	"-=\307\276E\017\250\346E\271M\306\373\370\334%,\246"
 653      450FA8E6 
 653      45B94DC6 
 653      FBF8DC25 
 653      2CA6
 654 037c 3B2A6884 		.ascii	";*h\204^\341F\326\012o\246w\227\344\012\277\234\303"
 654      5EE146D6 
 654      0A6FA677 
 654      97E40ABF 
 654      9CC3
 655 038e 6B869DD7 		.ascii	"k\206\235\327\242[\272\015\242vES\2231\340\017\311n"
 655      A25BBA0D 
 655      A2764553 
 655      9331E00F 
 655      C96E
 656 03a0 FF4464C6 		.ascii	"\377Dd\306\247\3301\270\252\331\2056qB\320\033\322|"
 656      A7D831B8 
 656      AAD98536 
 656      7142D01B 
 656      D27C
 657 03b2 75BB9643 		.ascii	"u\273\226C\267wI\267A\255\233\304~\310pr\201\017)\277"
 657      B77749B7 
 657      41AD9BC4 
 657      7EC87072 
 657      810F29BF 
 658 03c6 65DE5B2D 		.ascii	"e\336[-\367\016Y.\206\226\223y\017\243\345\030\356Q"
 658      F70E592E 
 658      86969379 
 658      0FA3E518 
 658      EE51
 659 03d8 9CE17702 		.ascii	"\234\341w\002\307t\027\311\035-\300M\331s\302c\001\231"
 659      C77417C9 
 659      1D2DC04D 
 659      D973C263 
 659      0199
 660 03ea 7C8017D8 		.ascii	"|\200\027\330V\310\314\275\032G2\253\361R\216\325\030"
 660      56C8CCBD 
 660      1A4732AB 
 660      F1528ED5 
 660      18
 661 03fb D72D46E6 		.ascii	"\327-F\3461\252\273\336\362L\251\020Qu\275\261a\235"
 661      31AABBDE 
 661      F24CA910 
 661      5175BDB1 
 661      619D
 662 040d 41A16D06 		.ascii	"A\241m\006\005\331\266\363\301\230\304v\353\330\327"
 662      05D9B6F3 
 662      C198C476 
 662      EBD8D7
 663 041c 55FB6ADB 		.ascii	"U\373j\333\371\264\012\344\231\227\3302\320\2159\201"
 663      F9B40AE4 
 663      9997D832 
ARM GAS  /tmp/ccWFeo0t.s 			page 53


 663      D08D3981 
 664 042c C631D010 		.ascii	"\3061\320\020\324\015\004\212tF\030\213\234x\007L\234"
 664      D40D048A 
 664      7446188B 
 664      9C78074C 
 664      9C
 665 043d D65FD31F 		.ascii	"\326_\323\037\323\004\243\241\356'Q'\024\327\252\322"
 665      D304A3A1 
 665      EE275127 
 665      14D7AAD2 
 666 044d 81F3A1C6 		.ascii	"\201\363\241\306\"\253J\177\316U\251\267\373\3335V\221"
 666      22AB4A7F 
 666      CE55A9B7 
 666      FBDB3556 
 666      91
 667 045e 263222DD 		.ascii	"&2\"\335\304\317\2662\244\352\234\230y\017?+\234\014"
 667      C4CFB632 
 667      A4EA9C98 
 667      790F3F2B 
 667      9C0C
 668 0470 3FF52081 		.ascii	"?\365 \201\265U\337\025\015\211\211a\367\302L,<\204"
 668      B555DF15 
 668      0D898961 
 668      F7C24C2C 
 668      3C84
 669 0482 7F2B8F44 		.ascii	"\177+\217D+H\242\333V\211&\251\025(Q\3027\277\364\250"
 669      2B48A2DB 
 669      568926A9 
 669      152851C2 
 669      37BFF4A8 
 670 0496 1278E725 		.ascii	"\022x\347%\212\012Y/[a\"\017h\253\334{\356\3506-Q\357"
 670      8A0A592F 
 670      5B61220F 
 670      68ABDC7B 
 670      EEE8362D 
 671 04ac EABD67E7 		.ascii	"\352\275g\347\342\377\303p\352Q\014\357Y\261\356\023"
 671      E2FFC370 
 671      EA510CEF 
 671      59B1EE13 
 672 04bc 43AFDC83 		.ascii	"C\257\334\203\0227\363\224\324k\013\3706\001N\347\001"
 672      1237F394 
 672      D46B0BF8 
 672      36014EE7 
 672      01
 673 04cd AC20C0BF 		.ascii	"\254 \300\277\254%\235!@Cmz\267\362\000\332\327S2\374"
 673      AC259D21 
 673      40436D7A 
 673      B7F200DA 
 673      D75332FC 
 674 04e1 FB510CFF 		.ascii	"\373Q\014\377\2612|\240\000\251-\035\211\275$\367\226"
 674      B1327CA0 
 674      00A92D1D 
 674      89BD24F7 
 674      96
 675 04f2 01EB46D3 		.ascii	"\001\353F\323l\275\241\017rv\035\202\321\236\330Sr\203"
 675      6CBDA10F 
 675      72761D82 
ARM GAS  /tmp/ccWFeo0t.s 			page 54


 675      D19ED853 
 675      7283
 676 0504 CA6A5F45 		.ascii	"\312j_Ei\372w\002\222\330Dp\003\300\310A\376\030\033"
 676      69FA7702 
 676      92D84470 
 676      03C0C841 
 676      FE181B
 677 0517 C7E07D31 		.ascii	"\307\340}1S\316\240c\022w\222:7\256\203\342e\313\374"
 677      53CEA063 
 677      1277923A 
 677      37AE83E2 
 677      65CBFC
 678 052a EA676DA5 		.ascii	"\352gm\245\177]\225\277r]\251\277\264\254\262\264l\365"
 678      7F5D95BF 
 678      725DA9BF 
 678      B4ACB2B4 
 678      6CF5
 679 053c B252C6D7 		.ascii	"\262R\306\327V\225\033\245\345FUy\311C\303>\370\260"
 679      56951BA5 
 679      E5465579 
 679      C943C33E 
 679      F8B0
 680 054e 74CD47AB 		.ascii	"t\315G\253\337\317\014-c\274\252\242\374_q:Q\302"
 680      DFCF0C2D 
 680      63BCAAA2 
 680      FC5F713A 
 680      51C2
 681              		.text
 682              		.section	.gnu.lto_chSchDoRescheduleAhead.e0395f94f624d85c,"",%progbits
 683 0000 789C9D57 		.ascii	"x\234\235W]L\034U\024\276g\356\376\014\260\213}0\221"
 683      5D4C1C55 
 683      14BE67EE 
 683      FE0CB08B 
 683      7D3091
 684 0013 44929218 		.ascii	"D\222\222\030L\372 k\237\264\372\242/\306\230\220\030"
 684      4CFA206B 
 684      9FB4FAA2 
 684      2FC69890 
 684      18
 685 0024 7D687C32 		.ascii	"}h|2\206\232`\322X(\370\344\003\027\330\251\2556J\265"
 685      869A60D2 
 685      5828F8E4 
 685      0317D8A9 
 685      AD364AB5 
 686 0038 107EDA34 		.ascii	"\020~\3324\306\237\252m\371m\245K\255\335R\012\265\362"
 686      C69FAA6D 
 686      F96DA54B 
 686      ADDD520A 
 686      B5F2
 687 004a 53B6206D 		.ascii	"S\266 mA\004v\201\026\261e[j\305\362\3439\367\316\322"
 687      41047681 
 687      16B1655B 
 687      6AC5F2E3 
 687      39F7CED2 
 688 005e A13B6CC1 		.ascii	"\241;l\301\011\31403\367\236\357\373\316\371\356\271"
 688      09CC3033 
 688      F79EEFFB 
ARM GAS  /tmp/ccWFeo0t.s 			page 55


 688      CEF9EEB9 
 689 006e 838301A3 		.ascii	"\203\203\001\243\243\300\303X6^_\301_p1\320\312\272"
 689      A3C0C358 
 689      365E5FC1 
 689      5F7031D0 
 689      CABA
 690 0080 192BD635 		.ascii	"\031+\3265\340\352\017\2569\367v0&\222\035~7\023\036"
 690      E0EA0FAE 
 690      39F77630 
 690      26921D7E 
 690      37131E
 691 0093 A77AFEB2 		.ascii	"\247z\376\262\003\200\256B\007V\244q\247\003\360\314"
 691      0380AE42 
 691      0756A471 
 691      A703F0CC 
 692 00a3 D471575B 		.ascii	"\324qW[\320\240\365\243\211\200\266\351\260\300c\304"
 692      D0A0F5A3 
 692      8980B6E9 
 692      B0C063C4 
 693 00b3 A8F3EC12 		.ascii	"\250\363\354\022F\232\201\003\22645\006\016\303&\206"
 693      469A8103 
 693      96343506 
 693      0EC32686 
 694 00c3 C37AFDF5 		.ascii	"\303z\375\365\007\370\254fp\000\007\336F\273\252\303"
 694      07F8AC66 
 694      700007DE 
 694      46BBAAC3 
 695 00d3 A974AB41 		.ascii	"\251t\253A\006\336\316\327|\326\252\363\215@#\357\014"
 695      06DECED7 
 695      7CD6AAF3 
 695      8D4023EF 
 695      0C
 696 00e4 4E04F4CC 		.ascii	"N\004\364\314\257\204(\021\301\373c\271\373J\305\005"
 696      AF842811 
 696      C1FB63B9 
 696      FB4AC505 
 697 00f4 E1303887 		.ascii	"\34108\207\037\200cT\370\036\322\341;H\227\321q\370"
 697      1F806354 
 697      F81ED2E1 
 697      3B4897D1 
 697      71F8
 698 0106 58C362B9 		.ascii	"X\303b\271\327\345'\374\0148\002\231\012\031\216\202"
 698      D7E527FC 
 698      0C380299 
 698      0A198E82 
 699 0116 0B65737A 		.ascii	"\013esz\202\203.OV\234\326\371S2~\371\255\366r0\343"
 699      82832E4F 
 699      569CD6F9 
 699      53327EF9 
 699      ADF67230 
 700 012b EF0F7944 		.ascii	"\357\017yDY\261N\321\217\305G\207Z9\271m|>\224\302\237"
 700      59B14ED1 
 700      8FC54787 
 700      5A39B96D 
 700      7C3E94C2 
 701 0140 96938B8F 		.ascii	"\226\223\213\217\324\034\360\250\311#\215\013\331\017"
 701      D41CF0A8 
ARM GAS  /tmp/ccWFeo0t.s 			page 56


 701      C9238D0B 
 701      D90F
 702 014e C8D5D94C 		.ascii	"\310\325\331L\257\207\314\2727\202bi\251\024S\343\253"
 702      AF87CCBA 
 702      37826269 
 702      A91453E3 
 702      AB
 703 015f AC88DEAC 		.ascii	"\254\210\336\254\324\036\307A\310\311%\337\352\022\""
 703      D41EC741 
 703      C8C925DF 
 703      EA1222
 704 016e 499E9399 		.ascii	"I\236\223\231\301\035)t\362\340\211{\351\304\330\014"
 704      C11D2974 
 704      F2E0897B 
 704      E9C4D80C 
 705 017e 8AC17244 		.ascii	"\212\301rD5\015/|\002JZ\242\303\225/\220\272RN\331\257"
 705      350D2F7C 
 705      024A5AA2 
 705      C3952F90 
 705      BA524ED9 
 706 0193 305A7BDC 		.ascii	"0Z{\334\224G\247\244\027\010L\017\272\213\026\304n!"
 706      9447A7A4 
 706      17084C0F 
 706      BA8B16C4 
 706      6E21
 707 01a5 36E0B33D 		.ascii	"6\340\263=\\\345h\252\263\277-\371\020\034,\026\362"
 707      5CE568AA 
 707      B3BF2DF9 
 707      101C2C16 
 707      F2
 708 01b6 B90B1AA1 		.ascii	"\271\013\032\241\010\032\210&\276\374\364d\375\036\335"
 708      081A8826 
 708      BEFCF464 
 708      FD1EDD
 709 01c5 778C1228 		.ascii	"w\214\022(\266\032\334\015Mp\010\02653\275\347\367\366"
 709      B61ADC0D 
 709      4D700816 
 709      3533BDE7 
 709      F7F6
 710 01d7 7EADFB9E 		.ascii	"~\255\373\236!\211\307\301\267\250\221\227\340\004\370"
 710      2189C7C1 
 710      B7A89197 
 710      E004F8
 711 01e6 D8189488 		.ascii	"\330\030\224\210\027e\232Q\016\222\301\007\032\335\342"
 711      17659A51 
 711      0E92C107 
 711      1ADDE2
 712 01f5 9CA19AE1 		.ascii	"\234\241\232\341\305$\376\232dt\3168[\3426\263=7\366"
 712      C524FE9A 
 712      6474CE38 
 712      5BE236B3 
 712      3D37F6
 713 0208 6C9508FA 		.ascii	"l\225\010\3723\014\256\303\2176\371j\226\351^\253\206"
 713      330CAEC3 
 713      8F36F96A 
 713      96E95EAB 
 713      86
ARM GAS  /tmp/ccWFeo0t.s 			page 57


 714 0219 93F61A82 		.ascii	"\223\366\032\202\373\302/9HF ^\206\022y\020\014\236"
 714      FBC22F39 
 714      4846205E 
 714      86127910 
 714      0C9E
 715 022b 042DA446 		.ascii	"\004-\244FSoo,\030\255\240 \305s\304\356\024\370H\013"
 715      536F6F2C 
 715      18ADA020 
 715      C573C4EE 
 715      14F8480B 
 716 023f 839FA088 		.ascii	"\203\237\240\210Q\326\347\216\236i*\\\351\266\340'\221"
 716      51D6E78E 
 716      9E692A5C 
 716      E9B6E027 
 716      91
 717 0250 B42789B3 		.ascii	"\264'\211\2634\333\222\006qn\254\247w\2471\014\203\237"
 717      34DB9206 
 717      716EACA7 
 717      77A7310C 
 717      839F
 718 0262 A9602E6B 		.ascii	"\251`.k\301\364u\024,\011\202(\366L\274\330\221\246"
 718      C1F47514 
 718      2C098228 
 718      F64CBCD8 
 718      91A6
 719 0274 85EC5E27 		.ascii	"\205\354^'\025\347\254T\313\025\036\264.\027\010\201"
 719      15E7AC54 
 719      CB151EB4 
 719      2E170881 
 720 0284 8907824B 		.ascii	"\211\007\202K\035\321HU%(6^+\033.\331\334\353\270\270"
 720      1DD14855 
 720      2528365E 
 720      2B1B2ED9 
 720      DCEBB8B8 
 721 0298 DBF30036 		.ascii	"\333\363\0006\031g\3019\023\365\233HI\255\333\314\340"
 721      1967C139 
 721      13F59B48 
 721      49ADDBCC 
 721      E0
 722 02a9 8744A94D 		.ascii	"\207D\251M\":\024\"\255\2612Q\011\346\200*\240\220\347"
 722      223A1422 
 722      ADB13251 
 722      09E6802A 
 722      A090E7
 723 02bc 29C5314A 		.ascii	")\3051J\355H\011\031T\214\246\023\374:\244w\330K\027"
 723      ED480919 
 723      548CA613 
 723      FC3AA477 
 723      D84B17
 724 02cf 5E82B8B0 		.ascii	"^\202\270\260B\366/\340C]\004S\3350^\265\323\004\212"
 724      42F62FE0 
 724      435D0453 
 724      DD305EB5 
 724      D3048A
 725 02e2 57E5B555 		.ascii	"W\345\265U\265\205\320.&P\265\225\020\177%QN\023\260"
 725      B585D02E 
 725      2650B595 
ARM GAS  /tmp/ccWFeo0t.s 			page 58


 725      107F2551 
 725      4E13B0
 726 02f5 137CEB70 		.ascii	"\023|\353pl\227\275cG\214F\317\253\344\330\356\304\216"
 726      6C97BD63 
 726      478C46CF 
 726      ABE4D8EE 
 726      C48E
 727 0307 ED49E4D8 		.ascii	"\355I\344\330K1\307\366\242c\315\245(\315\271|Cn\244"
 727      4B31C7F6 
 727      A263CDA5 
 727      28CDB97C 
 727      436EA4
 728 031a D4843EEE 		.ascii	"\324\204>\356\004s\241\256\225xh\225v\341&\326\227W"
 728      0473A1AE 
 728      95786895 
 728      76E126D6 
 728      9757
 729 032c 69177DCB 		.ascii	"i\027}\313\355\242\237\312\"\3757;\023\251|\335\004"
 729      EDA29FCA 
 729      22FD373B 
 729      13A97CDD 
 729      04
 730 033d B796456C 		.ascii	"\267\226Elf\266v\303@)\360\233\004pQ\244\001\231\357"
 730      66B676C3 
 730      4029F09B 
 730      047051A4 
 730      0199EF
 731 0350 E36D1DBB 		.ascii	"\343m\035\273tr\255\007\000\256\340\004\264z\260*|)"
 731      7472AD07 
 731      00AEE004 
 731      B47AB02A 
 731      7C29
 732 0362 26CBD2A4 		.ascii	"&\313\322\244-=\307\276G_U\315\213\270\325w\365\361"
 732      2D3DC7BE 
 732      475F55CD 
 732      8BB8D577 
 732      F5F1
 733 0374 954B584C 		.ascii	"\225KXL\266\347\323\010s\205kq+\274\226\336]\223+|p"
 733      B6E7D308 
 733      73856B71 
 733      2BBC96DE 
 733      5D932B7C 
 734 0389 15AF6976 		.ascii	"\025\257iv^\013\236\010i$m\310\224&c\300\357R]\335t"
 734      5E0B9E08 
 734      69246DC8 
 734      942663C0 
 734      EF525DDD 
 735 039e 60CEABD4 		.ascii	"`\316\253\3241\0306\3255\177\316\011\301\334\221\326"
 735      311836D5 
 735      357FCE09 
 735      C1DC91D6 
 736 03ae 5AB73F56 		.ascii	"Z\267?V\251\333\333T\267\021\263n\022\373!\303\311\005"
 736      A9DBDB54 
 736      B711B36E 
 736      12FB21C3 
 736      C905
 737 03c0 3EAAFC16 		.ascii	">\252\374\026{o\265\334[d\2711\264\234\344\035F\313"
ARM GAS  /tmp/ccWFeo0t.s 			page 59


 737      7B6FB5DC 
 737      5B64B931 
 737      B49CE41D 
 737      46CB
 738 03d2 31DCA338 		.ascii	"1\334\2438\303/\005\216t7\310\035\255\224\353\252\347"
 738      C32F058E 
 738      7437C81D 
 738      AD94EBAA 
 738      E7
 739 03e3 74FB25F9 		.ascii	"t\373%\371R\236d\233!}\365\325\030\211\255\306k\253"
 739      529E649B 
 739      217DF5D5 
 739      1889ADC6 
 739      6BAB
 740 03f5 ACC671B3 		.ascii	"\254\306q\263\305H\036\023f\327\333\034K\025\"J\006"
 740      C5481E13 
 740      66D7DB1C 
 740      4B15224A 
 740      06
 741 0406 0D3D1193 		.ascii	"\015=\021\223A\262-\203\244x\333yaRb\273\315\330\327"
 741      41B22D83 
 741      A478DB79 
 741      615262BB 
 741      CDD8D7
 742 0419 55FB6AC1 		.ascii	"U\373j\301\366%\003\245\254\251\3302\320\215\025\201"
 742      F62503A5 
 742      ACA9D832 
 742      D08D1581 
 743 0429 A630D028 		.ascii	"\2460\320(\370\257\224\246\232\2140\0269\3616\3508m"
 743      F8AF94A6 
 743      9A8C3016 
 743      39F136E8 
 743      386D
 744 043b A07860CC 		.ascii	"\240x`\314\024\030l\016=\201u\302\342Z\253\324\330U"
 744      14186C0E 
 744      3D8175C2 
 744      E25AABD4 
 744      D855
 745 044d 55936AAD 		.ascii	"U\223j\255\322\237+\253\024\352\371v\273\265H\323\261"
 745      D29F2BAB 
 745      14EAF976 
 745      BBB548D3 
 745      B1
 746 045e 22FD851F 		.ascii	"\"\375\205\037n\271(\3259\364\305;\370Y\341d\370\261"
 746      6EB928D5 
 746      39F4C53B 
 746      F859E164 
 746      F8B1
 747 0470 0751CCAD 		.ascii	"\007Q\314\255\372\256\250h\350\213\270\327gb\221B\370"
 747      FAAEA868 
 747      E88BB8D7 
 747      67629142 
 747      F8
 748 0481 37139468 		.ascii	"7\023\224h\013\225\350\226\265D3\324\012TQ\242}\373"
 748      0B95E896 
 748      B54433D4 
 748      0A5451A2 
ARM GAS  /tmp/ccWFeo0t.s 			page 60


 748      7DFB
 749 0493 53540A3C 		.ascii	"ST\012<k*\212\012Y.[a4\001h\223\334{n\233mZ\242\336"
 749      6B2A8A0A 
 749      592E5B61 
 749      34016893 
 749      DC7B6E9B 
 750 04ab 31F79E2F 		.ascii	"1\367\236/7\376\037\205\263\217Rx\327\212\3657)\364"
 750      37FE1F85 
 750      B38F5278 
 750      D78AF537 
 750      29F4
 751 04bd A83DA83F 		.ascii	"\250=\250?AJ=\266\200o\022\340\275\004\200\371\004\370"
 751      414A3DB6 
 751      806F12E0 
 751      BD0480F9 
 751      04F8
 752 04cf 8F35A573 		.ascii	"\2175\245s\004(;Xu4\021\240}>\245\302\177\037\245\360"
 752      04283B58 
 752      753411A0 
 752      7D3EA5C2 
 752      7F1FA5F0 
 753 04e3 BE55E1BC 		.ascii	"\276U\341\274\002\244\266\324\024~^\356-W\255\033M\255"
 753      02A4B6D4 
 753      147E5EEE 
 753      2D57AD1B 
 753      4DAD
 754 04f5 F586BEC8 		.ascii	"\365\206\276\310\331u0\202\201p\232\334\240\342\332"
 754      D9753082 
 754      81709ADC 
 754      A0E2DA
 755 0504 57EA12FD 		.ascii	"W\352\022\375C\001\013\330Dp\003\300\310\006\177\214"
 755      43010BD8 
 755      447003C0 
 755      C8067F8C 
 756 0514 4D61F053 		.ascii	"Ma\360Sa]\316\240c\006w\022\277\033\327AzV\226O\375"
 756      615DCEA0 
 756      63067712 
 756      BF1BD741 
 756      7A56964F 
 757 0529 EC28F0ED 		.ascii	"\354(\360\355,\364\025\354\314\361\345\344\026\344\344"
 757      2CF415EC 
 757      CCF1E5E4 
 757      16E4E4
 758 0538 6ECBCA61 		.ascii	"n\313\312a|Ga\236\226\223\247\025\346e<4\354\275\367"
 758      7C47619E 
 758      9693A715 
 758      E6653C34 
 758      ECBDF7
 759 054b 73B67FB0 		.ascii	"s\266\177\260\355\335\330\320\\\306\013\363\363\376"
 759      EDDDD8D0 
 759      5CC60BF3 
 759      F3FE
 760 0559 036C4950 		.ascii	"\003lIPP"
 760      50
 761              		.text
 762              		.section	.gnu.lto_chSchRescheduleS.e0395f94f624d85c,"",%progbits
 763 0000 789C9552 		.ascii	"x\234\225RMk\023A\030~\237\231\315\356\032*\370\003"
ARM GAS  /tmp/ccWFeo0t.s 			page 61


 763      4D6B1341 
 763      187E9F99 
 763      CDEE1A2A 
 763      F803
 764 0012 4AE94D7A 		.ascii	"J\351MzhV\324\273\377A<{\331\212\021D\241Q<f\232t\261"
 764      6856D4BB 
 764      FF413C7B 
 764      D98A1144 
 764      A1513C66 
 765 0029 A5225E14 		.ascii	"\245\"^\024/\022\012J\353G\277\324j\023\017.U\021D\""
 765      2F120A4A 
 765      EB47BFD4 
 765      6A130F2E 
 765      55114422 
 766 003d 1E144190 		.ascii	"\036\024A\220\266H\224\"\330\202\"*\315\372\276\263"
 766      B6489422 
 766      D882222A 
 766      CDFABEB3 
 767 004d 5BB4A61E 		.ascii	"[\264\246\036\034v\230\341}\336y>v\306!\220\214\025"
 767      1C7698E1 
 767      7DDE793E 
 767      76C62190 
 767      8C15
 768 005f 457480D7 		.ascii	"Et\200\327\375<\221#\250\013M\242!_)\335\350!\223w^"
 768      FD3C9123 
 768      A80B4DA2 
 768      215F29DD 
 768      E8219377 
 769 0074 0764BA34 		.ascii	"\007d\2724\234\264\354\000\2621>\250\254\264\2032\276"
 769      9CB4EC00 
 769      B2313EA8 
 769      ACB48332 
 769      BE
 770 0085 AA0D85C5 		.ascii	"\252\015\205\305\263\255\272\352\2330<\226\242\326>"
 770      B3ADBAEA 
 770      9B303C96 
 770      A2D63E
 771 0094 331923D2 		.ascii	"3\031#\322D\211\262\022\204\011\364\021\267\255\314"
 771      4489B212 
 771      8409F411 
 771      B7ADCC
 772 00a3 B52FEE74 		.ascii	"\265/\356t\207\245\2557\0051\011W|\314\034\214M\222"
 772      87A5AD37 
 772      05310957 
 772      7CCC1C8C 
 772      4D92
 773 00b5 548DF9B9 		.ascii	"T\215\371\271\247\026\370\232\"\315^\"\255\\\331y\262"
 773      A716F89A 
 773      22CD5E22 
 773      AD5CD979 
 773      B2
 774 00c6 235AE329 		.ascii	"#Z\343)\342\353J\311\252[\2504\276\327.\317\027\267"
 774      E2EB4AC9 
 774      AA5BA834 
 774      BED72ECF 
 774      17B7
 775 00d8 32C763CD 		.ascii	"2\307c\3153\2267Q\350\020\305u\270\254z\003nUk\006/"
ARM GAS  /tmp/ccWFeo0t.s 			page 62


 775      33963751 
 775      E810C575 
 775      B8AC7A03 
 775      6E556B06 
 776 00ed 458B2FBC 		.ascii	"E\213/\274/*\322\332\366\326\353\237\336z\345\0153b"
 776      2F2AD2DA 
 776      F6D6EB9F 
 776      DE7AE50D 
 776      3362
 777 00ff CC2EAE8D 		.ascii	"\314.\256\215r\006)\257>\177\3658_\303\225!c\353\016"
 777      720629AF 
 777      3E7FF538 
 777      5FC39521 
 777      63EB0E
 778 0112 6E71F09B 		.ascii	"nq\360\233\350\266\340\371\205\331Q?\230\262\331\223"
 778      E8B6E0F9 
 778      85D9513F 
 778      98B2D993 
 779 0122 A543E33A 		.ascii	"\245C\343:\3229L\241\2066\373\265z\334\364\344\334\313"
 779      D2394CA1 
 779      8636FBB5 
 779      7ADCF4E4 
 779      DCCB
 780 0134 AB7ED01F 		.ascii	"\253~\320\037i\027\323\010\332\354l\023\371\374\341"
 780      6917D308 
 780      DAEC6C13 
 780      F9FCE1
 781 0143 C75E0180 		.ascii	"\307^\001\200\031\001T\012`\026\001I@\244^s\177z\205"
 781      1901540A 
 781      60160149 
 781      40A45E73 
 781      7F7A85
 782 0156 F5FAEDE9 		.ascii	"\365\372\355\351\263\221\256\337\246<\016\204\271\314"
 782      B391AEDF 
 782      A63C0E84 
 782      B9CC
 783 0164 D3B5F795 		.ascii	"\323\265\367\225iOX}\334\266NtF{'\243]\336\235\362\272"
 783      694F587D 
 783      DCB64E74 
 783      467B27A3 
 783      5DDE9DF2 
 784 0179 FF11FA6E 		.ascii	"\377\021\372nG\350~\211:\377\257\250\300=I\344d\322"
 784      47E87E89 
 784      3AFFAFA8 
 784      C03D49E4 
 784      64D2
 785 018b F733E9F1 		.ascii	"\3673\351\361B*\355m\233\301\335.\303\302\226\014u&"
 785      422AED6D 
 785      9BC1DD2E 
 785      C3C2960C 
 785      7526
 786 019d 5AC6F09B 		.ascii	"Z\306\360\233Gc\315\243r\317\374w\230\315>\264unj\364"
 786      4763CDA3 
 786      72CFFC77 
 786      98CD3EB4 
 786      756E6AF4 
 787 01b1 E88FA8C6 		.ascii	"\350\217\250\306\017\336)\001;ouG\242\304m\003e~Vy{"
ARM GAS  /tmp/ccWFeo0t.s 			page 63


 787      0FDE2901 
 787      3B6F7547 
 787      A2C46D03 
 787      657E5679 
 788 01c6 C8B1EF69 		.ascii	"\310\261\357i\025\225\370\341a{H\306\032_\022\227\271"
 788      1595F8E1 
 788      617B48C6 
 788      1A5F1297 
 788      B9
 789 01d7 B7BB5008 		.ascii	"\267\273P\010\322\357d)\030<\025\224\006\303 ,\226\302"
 789      D2EF6429 
 789      183C1594 
 789      06C3202C 
 789      96C2
 790 01e9 E24021A4 		.ascii	"\342@!\244\336\277\300c'\302\343\247\007\216l6\024\351"
 790      DEBFC063 
 790      27C2E3A7 
 790      078E6C36 
 790      14E9
 791 01fb 17CBC80A 		.ascii	"\027\313\310\012\213"
 791      8B
 792              		.text
 793              		.section	.gnu.lto_chSchDoReschedule.e0395f94f624d85c,"",%progbits
 794 0000 789C9D57 		.ascii	"x\234\235W]l\024U\024\276g\356\376\314vw+\017&\222\330"
 794      5D6C1455 
 794      14BE67EE 
 794      FECC7677 
 794      2B0F2692 
 795 0015 84260613 		.ascii	"\204&\006\023\036d\345I\321\304\350\2131&M\214>\020"
 795      1E64E549 
 795      D1C4E88B 
 795      31264D8C 
 795      3E10
 796 0027 9F8C594C 		.ascii	"\237\214YLjB\244\264\365\311\207\336vw\020\224(*m\272"
 796      6A42A4B4 
 796      F5C987DE 
 796      76771094 
 796      282A6DBA 
 797 003b 2D84187F 		.ascii	"-\204\030\177P\201\376\202\245U\350RZ\212\330R\272\024"
 797      5081FE82 
 797      A555E852 
 797      5A8AD852 
 797      BA14
 798 004d 0B14A1B4 		.ascii	"\013\024\241\264e\371U\272@\255\325n\327s\356\235\205"
 798      65F955BA 
 798      40ADD56E 
 798      D773EE9D 
 798      85
 799 005e 293BBBB4 		.ascii	");\273\264N\332\231\316\314\275\347\373\276s\276{\356"
 799      4EDA99CE 
 799      CCBDE7FB 
 799      BE73BE7B 
 799      EE
 800 006f D4C180D1 		.ascii	"\324\301\200\321Q\346c\254\010\257/\343/\270\030h[O"
 800      51E663AC 
 800      08AF2FE3 
 800      2FB81868 
ARM GAS  /tmp/ccWFeo0t.s 			page 64


 800      5B4F
 801 0081 3056A96B 		.ascii	"0V\251k\300\325\037\\sn\351eL\3449\302n&|N\365\374%"
 801      C0D51F5C 
 801      736EE965 
 801      4CE439C2 
 801      6E267C4E 
 802 0098 07005D85 		.ascii	"\007\000]\205\016\254B\343N\007\340\231\251cJKj\320"
 802      0EAC42E3 
 802      4E07E099 
 802      A9634A4B 
 802      6AD0
 803 00aa F561BC5D 		.ascii	"\365a\274][\261K\3401\332s\310\267Q\030K\015\034\220"
 803      5BB14BE0 
 803      31DA73C8 
 803      B751184B 
 803      0D1C90
 804 00bd D2D418D8 		.ascii	"\322\324\030\330\005+\030\016\033\0147m\347w5\203\003"
 804      052B180E 
 804      1B0C376D 
 804      E7773583 
 804      03
 805 00ce 38F036D1 		.ascii	"8\3606\321_7\236O\267\032\024\342\355l\375\247]:_\006"
 805      5F379E4F 
 805      B71A14E2 
 805      ED6CFDA7 
 805      5D3A5F06 
 806 00e2 34F2CE48 		.ascii	"4\362\316H\274]_\376\225\020U\":=^\374YH\034\023\016"
 806      BC5D5FFE 
 806      95105522 
 806      3A3D5EFC 
 806      59481C13 
 807 00f7 8373F801 		.ascii	"\203s\370\0018F\205\357\241\000\276\203\002\031\035"
 807      384685EF 
 807      A100BE83 
 807      02191D
 808 0106 878F35CF 		.ascii	"\207\2175\317U\373]a\302/\204\335\260\\!\303\036p\241"
 808      55FB5D61 
 808      C22F84DD 
 808      B05C21C3 
 808      1E70A1
 809 0119 6C4E4F70 		.ascii	"lNOp\320\251+5\007u\376\204\214_}\353h5\230\361\267"
 809      D0A92B35 
 809      0775FE84 
 809      8C5F7DEB 
 809      683598F1 
 810 012e C57C626B 		.ascii	"\305|bk\245N\321\367fF\207\0069\271\373\362l\314\313"
 810      A54ED1F7 
 810      66468706 
 810      39B9FBF2 
 810      6CCCCB
 811 0141 9F94932B 		.ascii	"\237\224\223+w\327o\367\251\311\243-\311\242\373\344"
 811      77D76FF7 
 811      A9C9A32D 
 811      C9A2FBE4 
 812 0151 1A6DA637 		.ascii	"\032m\2467\301\362\306\327\243\"\225\012aj^\250\235"
 812      C1F2C6D7 
 812      A322950A 
ARM GAS  /tmp/ccWFeo0t.s 			page 65


 812      616A5EA8 
 812      9D
 813 0162 9DBC18D1 		.ascii	"\235\274\030\321\036\305A\310\311%\337\352\022\302#"
 813      1EC541C8 
 813      C925DFEA 
 813      12C223
 814 0171 CF79CCE0 		.ascii	"\317y\314\340\016/\235|x\342~:16\211b\260\034\011M\303"
 814      0E2F9D7C 
 814      78E27E3A 
 814      31368962 
 814      B01C094D 
 815 0186 0B8F4355 		.ascii	"\013\217CUG\"Y\373\034\251\013q\312~\215\3215\340\246"
 815      472259FB 
 815      1CA90B71 
 815      CA7E8DD1 
 815      35E0A6
 816 0199 3C3A25BD 		.ascii	"<:%\275\366\366\233#\356\212\244\330$\304\022|\266\231"
 816      F6F69B23 
 816      EE8AA4D8 
 816      24C4127C 
 816      B699
 817 01ab AB1C5DEF 		.ascii	"\253\034]\357;\335\235\267\023vT\012\371\334\005-P\001"
 817      3BDD9DB7 
 817      1376540A 
 817      F9DC052D 
 817      5001
 818 01bd CD44135F 		.ascii	"\315D\023_~r\240i\263\036\330K\011\024k\014\356\206"
 818      7E72A069 
 818      B31ED84B 
 818      09146B0C 
 818      EE86
 819 01cf 56D80973 		.ascii	"V\330\011s\232\231\336\236-\203_\353\201\247H\342>\010"
 819      9A99DE9E 
 819      2D835FEB 
 819      81A748E2 
 819      3E08
 820 01e1 CC69E425 		.ascii	"\314i\344%\330\017\0016\006U\342y\231f\224\203d\360"
 820      D80F0136 
 820      0655E279 
 820      99669483 
 820      64F0
 821 01f3 8146B738 		.ascii	"\201F\2678\347|\375\2059\017\177U2:b\034\256r\233\331"
 821      E77CFD85 
 821      390F7F55 
 821      323A621C 
 821      AE729BD9 
 822 0207 9E1A7F3A 		.ascii	"\236\032\177:\"\242\341B\203\353\360\243M\276\332d\272"
 822      22A2E142 
 822      83EBF0A3 
 822      4DBEDA64 
 822      BA
 823 0218 17AAE180 		.ascii	"\027\252\341\200\275\206hr\374E\007\311h\317\224\241"
 823      BD866872 
 823      FC4507C9 
 823      68CF94A1 
 824 0228 44EE0083 		.ascii	"D\356\000\203{\240\203\324h\352\355\265\244\321\005"
 824      7BA083D4 
ARM GAS  /tmp/ccWFeo0t.s 			page 66


 824      68EAEDB5 
 824      A4D105
 825 0237 0A523C43 		.ascii	"\012R<C\354~\202\000ia\3603T0\312\372\314\236\316\326"
 825      EC7E8200 
 825      6961F033 
 825      5430CAFA 
 825      CC9ECED6 
 826 024b F2F96E8B 		.ascii	"\362\371n\213~\234Z\3728q\226fKi\220\341\306&zw\020"
 826      7E9C5AFA 
 826      38719666 
 826      4B6990E1 
 826      C6267A77 
 827 0260 C3303844 		.ascii	"\30308D\005sY\013\246/\242`\036\210\242\330\316L\261"
 827      0573590B 
 827      A62FA260 
 827      1E88A2D8 
 827      CE4CB1
 828 0273 A3ADC9A2 		.ascii	"\243\255\311\242A'\025\347\260T\313\025\036t\335+\020"
 828      412715E7 
 828      B054CB15 
 828      1E74DD2B 
 828      10
 829 0284 02130F04 		.ascii	"\002\023\017\004\227:\022\023\221ZPl\374V6\\\262\231"
 829      973A1213 
 829      915A506C 
 829      FC56365C 
 829      B299
 830 0296 EE3DBEC9 		.ascii	"\356=\276\311w\0376\017g\301\021\023\365\233\211\252"
 830      771F360F 
 830      67C11113 
 830      F59B89AA 
 831 02a6 06B799C1 		.ascii	"\006\267\231\301\017\210R\267Dt(DZc[E-\230\003\"@!{"
 831      0F8852B7 
 831      44742844 
 831      5A635B45 
 831      2D980322 
 832 02bd 28C5694A 		.ascii	"(\305iJG\221\0222\250\271T@\360\213\220\336k/]\370\011"
 832      47911232 
 832      A8B95440 
 832      F08B90DE 
 832      6B2F5DF8 
 833 02d2 E2D83CD9 		.ascii	"\342\330<\331\277@\000u\021L]\363\345H\251\011\224\251"
 833      BF400075 
 833      114C5DF3 
 833      E548A909 
 833      94A9
 834 02e4 CA6FAB6A 		.ascii	"\312o\253j5\241\035\317\241j\015!\376J\242\234&`\037"
 834      35A11DCF 
 834      A16A0D21 
 834      FE4AA29C 
 834      26601F
 835 02f7 0416E1D8 		.ascii	"\004\026\341\330~{\307\216\366t\372^!\307\236\310\355"
 835      7E7BC78E 
 835      F674FA5E 
 835      21C79EC8 
 835      ED
 836 0308 D8815C8E 		.ascii	"\330\201\\\216=\231v\354 :\326\\\212\322\234\367n\310"
ARM GAS  /tmp/ccWFeo0t.s 			page 67


 836      3D9976EC 
 836      203AD65C 
 836      8AD29CF7 
 836      6EC8
 837 031a 8D949AD8 		.ascii	"\215\224\232\330G}`.\324\205\022\217ei\027nb}*K\273"
 837      477D602E 
 837      D485128F 
 837      6569176E 
 837      627D2A4B 
 838 032f 18BAD72E 		.ascii	"\030\272\327.NSY\244\377\356N\246j_3\301\255e\021\253"
 838      4E5359A4 
 838      FFEE4EA6 
 838      6A5F33C1 
 838      AD6511AB 
 839 0343 98ADDD30 		.ascii	"\230\255\3350\220\027~\223\000.\2124,\363\275\257\273"
 839      90177E93 
 839      002E8A34 
 839      2CF3BDAF 
 839      BB
 840 0354 77A34EAE 		.ascii	"w\243N\256\365\001\300\031\234\200V\217V\307O\246eY"
 840      F501C019 
 840      9C80568F 
 840      56C74FA6 
 840      6559
 841 0366 9AB4A5E7 		.ascii	"\232\264\245\347\330\367\350\263\252y\021\267\246\376"
 841      D8F7E8B3 
 841      AA7911B7 
 841      A6FE
 842 0374 213E7F09 		.ascii	"!>\177\011\213\033\375\033h\204\271\302\265\214\025"
 842      8B1BFD1B 
 842      6884B9C2 
 842      B58C15
 843 0383 DE40EFCE 		.ascii	"\336@\357\316\311\025>\222\305k\232\235\327\242\373"
 843      C9153E92 
 843      C56B9A9D 
 843      D7A2FB
 844 0392 631A493B 		.ascii	"c\032I;oJ\2231\340w\251\256\361f\373\214_\251cp\301"
 844      6F4A9331 
 844      E077A9AE 
 844      F166FB8C 
 844      5FA96370 
 845 03a7 54D7F639 		.ascii	"T\327\3669'\004sGZh\335.f\251\333[T\267Q\263n\022\373"
 845      27047347 
 845      5A68DD2E 
 845      66A9DB5B 
 845      54B751B3 
 846 03be 01C3C905 		.ascii	"\001\303\311\005~I\371-\375\336j\2717\311rch9\311{\034"
 846      7E49F92D 
 846      FDDE6AB9 
 846      37C97263 
 846      6839C97B 
 847 03d3 2DC7708F 		.ascii	"-\307p\217\342\014\277\0248\322]\"w\264\020\327U\317"
 847      E20CBF14 
 847      38D25D22 
 847      77B410D7 
 847      55CF
 848 03e5 391196E4 		.ascii	"9\021\226\344C\334c\233!=\373j\234H\257\306sYV\343e"
ARM GAS  /tmp/ccWFeo0t.s 			page 68


 848      43DC639B 
 848      213DFB6A 
 848      9C48AFC6 
 848      735956E3 
 849 03fa B3C5481E 		.ascii	"\263\305H\036q\263\353\255J\247\012\021%\203\346\201"
 849      71B3EBAD 
 849      4AA70A11 
 849      2583E681 
 850 040a 0993419E 		.ascii	"\011\223A\236-\003O\246\355\374pEb\273\315\330WU\373"
 850      2D034FA6 
 850      EDFC7045 
 850      62BBCDD8 
 850      5755FB
 851 041d EAC0F625 		.ascii	"\352\300\366%\003y\027Tl\031\350\332\274@\3271\320%"
 851      03791754 
 851      6C19E8DA 
 851      BC40D731 
 851      D025
 852 042f 089F09E5 		.ascii	"\010\237\011\345\233\2140\0269\3616\3508m\270rx\314"
 852      9B8C3016 
 852      39F136E8 
 852      386DB872 
 852      78CC
 853 0441 14186D8B 		.ascii	"\024\030m\213=\206u\302\342Z\253\324\322\037\251\317"
 853      3D8675C2 
 853      E25AABD4 
 853      D21FA9CF 
 854 0451 B756E9C6 		.ascii	"\267V\351\306\374*\305\006\276]g-\322\315t\221\376\300"
 854      FC2AC506 
 854      BE5D672D 
 854      D2CD7491 
 854      FEC0
 855 0463 0FB76294 		.ascii	"\017\267b\224\352<\377\305\333\370Y\341d\370\261\007"
 855      EA3CFFC5 
 855      DBF859E1 
 855      64F8B107 
 856 0473 09CCADFA 		.ascii	"\011\314\255\372\256\250i\036\232p/\316\304\302K\370"
 856      AEA8691E 
 856      9A702FCE 
 856      C4C24BF8 
 857 0483 7FE628D1 		.ascii	"\177\346(\321j*\321-k\211&\251\025\250\242$\206\266"
 857      6A2AD12D 
 857      6B8926A9 
 857      15A8A224 
 857      86B6
 858 0495 79550A7C 		.ascii	"yU\012|\013*\212\012Y-[a\"\007h\253\334{n\233mZ\242"
 858      0B2A8A0A 
 858      592D5B61 
 858      220768AB 
 858      DC7B6E9B 
 859 04ac DE31F79E 		.ascii	"\3361\367\236/\227\375\037\205w\037\246p\312\212\365"
 859      2F97FD1F 
 859      85771FA6 
 859      70CA8AF5 
 860 04bc 1729F4A9 		.ascii	"\027)\364\251=\350t\216\224\372l\001\337 \300\351\034"
 860      3DE8748E 
 860      94FA6C01 
ARM GAS  /tmp/ccWFeo0t.s 			page 69


 860      DF20C0E9 
 860      1C
 861 04cd 801B08F0 		.ascii	"\200\033\010\360okJg\010Pv\260\272D.@\373|J\205\377"
 861      6F6B4A67 
 861      085076B0 
 861      BA442E40 
 861      FB7C4A85 
 862 04e2 3C4CE1BF 		.ascii	"<L\341\277V\205\263\012\220\332\322T\374Y\271\267\234"
 862      5685B30A 
 862      90DAD254 
 862      FC59B9B7 
 862      9C
 863 04f3 B56E340D 		.ascii	"\265n4\015\326\033\372\"gW\301\210&\343K\345\006\225"
 863      D61BFA22 
 863      6757C188 
 863      26E34BE5 
 863      0695
 864 0505 D1BEF253 		.ascii	"\321\276\362S\364\017\005$\261\211\340\006\200\221\015"
 864      F40F0524 
 864      B189E006 
 864      80910D
 865 0514 FE08BB8E 		.ascii	"\376\010\273\216\301Sq]\316\240c\022w\222\260\033\327"
 865      C153715D 
 865      CEA06312 
 865      7792B01B 
 865      D7
 866 0525 41C1CA95 		.ascii	"A\301\312\225\001\365\263\276,PZ\036(+\015\006\202\305"
 866      01F5B3BE 
 866      2C505A1E 
 866      282B0D06 
 866      82C5
 867 0537 65C1E2B5 		.ascii	"e\301\342\265+\203\214\257//\321\202%ZyI\341\003\303"
 867      2B838CAF 
 867      2F2FD182 
 867      255A7949 
 867      E103C3
 868 054a DE7D2FB8 		.ascii	"\336}/\270\356\375\265\357\244\207\0263^\276\241\344"
 868      EEFDB5EF 
 868      A4871633 
 868      5EBEA1E4 
 869 055a 3FD13853 		.ascii	"?\3218S'"
 869      27
 870              		.text
 871              		.section	.gnu.lto_.symbol_nodes.e0395f94f624d85c,"",%progbits
 872 0000 789C55CF 		.ascii	"x\234U\317\273J\003a\024\004\340\371\347lvc6\331\210"
 872      BB4A0361 
 872      1404E0F9 
 872      E76C7663 
 872      36D988
 873 0013 9585A0BE 		.ascii	"\225\205\240\276\203\3577\177Tb\251XX\033\021\357\327"
 873      83EF377F 
 873      5462A958 
 873      581B11EF 
 873      D7
 874 0024 4012B5B0 		.ascii	"@\022\265\260\020k\237 \225li\235J\301]\215\340\251"
 874      106B9F20 
 874      956C699D 
ARM GAS  /tmp/ccWFeo0t.s 			page 70


 874      4AC15D8D 
 874      E0A9
 875 0036 86F9E634 		.ascii	"\206\371\3464'A\300V\000\300g*`\357\015\020\302c\034"
 875      2741C056 
 875      00C0672A 
 875      60EF0D10 
 875      C2631C
 876 0049 C435A071 		.ascii	"\3045\240qB\364\226\352\361\222\302|\304\303\341 Ze"
 876      42F496EA 
 876      F192C27C 
 876      C4C3E120 
 876      5A65
 877 005b A714FFEC 		.ascii	"\247\024\377\354)\256WrF\231\227s*\361rA5\274\\Q\251"
 877      29AE5772 
 877      46999773 
 877      2AF17241 
 877      35BC5C51 
 878 0070 976B2AF3 		.ascii	"\227k*\363rK5\275\334Q\013^\356\251\226\227\033*\367"
 878      724B35BD 
 878      DC510B5E 
 878      EEA99697 
 878      1B2AF7
 879 0083 32A4DA4E 		.ascii	"2\244\332N\302\210\352\374\010\020\353\237\303\204*"
 879      C288EAFC 
 879      0810EB9F 
 879      C3842A
 880 0092 1C8CA9EE 		.ascii	"\034\214\251\356\1770\002G\373\345\212\245\005^w>V-"
 880      7F300247 
 880      FBE58AA5 
 880      055E773E 
 880      562D
 881 00a4 5B44F939 		.ascii	"[D\3719\015\226\245\330\374\252\263\213\343\376l\271"
 881      0D96A5D8 
 881      FCAAB38B 
 881      E3FE6CB9 
 882 00b4 EEEFFD69 		.ascii	"\356\357\375ib\315\002\333\007\263\314Z\005\312\335"
 882      62CD02DB 
 882      07B3CC5A 
 882      05CADD
 883 00c3 EA3E9F67 		.ascii	"\352>\237g;\307\313h\303:\277\025\337h\245cN"
 883      3BC7CB68 
 883      C33ABF15 
 883      DF68A563 
 883      4E
 884              		.text
 885              		.section	.gnu.lto_.refs.e0395f94f624d85c,"",%progbits
 886 0000 789C658C 		.ascii	"x\234e\214A\022\304 \010\004\351AQ\023\267j\217yA>\236"
 886      4112C420 
 886      0804E941 
 886      5113B76A 
 886      8F79413E 
 887 0015 8F2EBAC7 		.ascii	"\217.\272\307\\\206\251n\240\030\366\230e\012\206\203"
 887      5C86A96E 
 887      A018F698 
 887      650A8683 
 888 0025 443617D9 		.ascii	"D6\027\331+\204\010h\242Q\026\253\0315\014l\331.\006"
 888      2B840868 
ARM GAS  /tmp/ccWFeo0t.s 			page 71


 888      A25116AB 
 888      19350C6C 
 888      D92E06
 889 0038 4C6F9677 		.ascii	"Lo\226wrc\226\236N\034\342\202[co\2268\376s\177\352"
 889      7263969E 
 889      4E1CE282 
 889      5B636F96 
 889      38FE737F 
 890 004d 708A6F9C 		.ascii	"p\212o\234o\246\271\231\307\347\355\354\007\017-\002"
 890      6FA6B999 
 890      C7E7EDEC 
 890      070F2D02 
 891 005d D1       		.ascii	"\321"
 892              		.text
 893              		.section	.gnu.lto_.decls.e0395f94f624d85c,"",%progbits
 894 0000 789CBD7B 		.ascii	"x\234\275{iTTi\226`|\357\013\002\010\002\260\324\311"
 894      69545469 
 894      96607CEF 
 894      0B020802 
 894      B0D4C9
 895 0013 CE3A43F5 		.ascii	"\316:C\365\344dY\223\3149\223\222[ee\367\314\364dVv"
 895      E4645993 
 895      CC399392 
 895      5B6565F7 
 895      CCF46456 
 896 0028 55A57DA6 		.ascii	"U\245}\246\372\344\244\2259\2255\225\023\211\020\012"
 896      FAE4A495 
 896      39953595 
 896      1389100A 
 897 0038 956C1904 		.ascii	"\225l\031\004\232\376\350\323\301\242\010n \010\262"
 897      9AFEE8D3 
 897      C1A2086E 
 897      2008B2
 898 0047 29020A08 		.ascii	")\002\012\010\010\262*\213\206\210\200\"\202\"(*\233"
 898      08B22A8B 
 898      86888022 
 898      8222282A 
 898      9B
 899 0058 22AE880A 		.ascii	"\"\256\210\012\262\3106\367[^\274\027\301\013\323>g"
 899      B2C836F7 
 899      5B5EBC17 
 899      C10BD33E 
 899      67
 900 0069 BAD1CB7B 		.ascii	"\272\321\313{\367\275\373\335\375\336\367}\337{\250"
 900      F7BDFBDD 
 900      FDDEF77D 
 900      DF7BA8
 901 0078 5548457E 		.ascii	"UHE~\014\377U\245\362tQ\251:\235U\252E\370\361\200k"
 901      0CFF55A5 
 901      F27451A9 
 901      3A9D55AA 
 901      45F8F180 
 902 008d 5F016000 		.ascii	"_\001`\000/\200b\200\267T\354g\031@)@\005@5\300\016"
 902      2F806280 
 902      B754EC67 
 902      19402940 
 902      054035C0 
ARM GAS  /tmp/ccWFeo0t.s 			page 72


 903 00a2 60B10B60 		.ascii	"`\261\013`\017@:\300\001\200|\200B\200\"\200\022\200"
 903      0F403AC0 
 903      01807C80 
 903      42802280 
 903      1280
 904 00b4 52804A80 		.ascii	"R\200J\200\013\000]\000D\352\353\202\312\346\207\360"
 904      0B005D00 
 904      44EAEB82 
 904      CAE687F0 
 905 00c4 13E52E07 		.ascii	"\023\345.\007X\011\360%\300\327\210\311\376\023\034"
 905      5809F025 
 905      C0D788C9 
 905      FE131C
 906 00d3 FF0CD004 		.ascii	"\377\014\320\004\347\010\306\376\024\240\221\350\007"
 906      E708C6FE 
 906      14A091E8 
 906      07
 907 00e0 C7FF08A0 		.ascii	"\307\377\010\240\201\363\030\270\257\007\210\006\360"
 907      81F318B8 
 907      AF078806 
 907      F0
 908 00ed 806BD370 		.ascii	"\200k\323p\374\006\261{\025\\\327\237\303\365_\000\274"
 908      FC06B17B 
 908      155CD79F 
 908      C3F55F00 
 908      BC
 909 00fe 05F0B6A0 		.ascii	"\005\360\266\240\254\013\261\357\337;\320E\303}b\202"
 909      AC0BB1EF 
 909      DF3BD045 
 909      C37D6282 
 910 010e F36064AB 		.ascii	"\363`d\253\003\321\321\003 \020 \002\340]\270\366\036"
 910      03D1D103 
 910      20102002 
 910      E05DB8F6 
 910      1E
 911 011f C02315D3 		.ascii	"\300#\025\323}\034\216\357\003\376W\202d\303\007\000"
 911      7D1C8EEF 
 911      03FE5782 
 911      64C30700 
 912 012f E5705D0B 		.ascii	"\345p]\013\360O@\023\000\020\016\020\204\230=\337p\233"
 912      F04F4013 
 912      00100E10 
 912      84983DDF 
 912      709B
 913 0141 36CB6CD2 		.ascii	"6\313l\322q\035?\004\374#\200\277\345\266\310m\373;"
 913      711D3F04 
 913      FC2380BF 
 913      E5B6C86D 
 913      FB3B
 914 0153 808F0566 		.ascii	"\200\217\005f3\261\235\350\375\011\340\277\006\370\024"
 914      33B19DE8 
 914      FD09E0BF 
 914      06F814
 915 0162 E0EF017E 		.ascii	"\340\357\001~#,\265\235\304Tgg;\321S\2567\261\345k\036"
 915      232CB59D 
 915      C4546767 
 915      3BD153AE 
ARM GAS  /tmp/ccWFeo0t.s 			page 73


 915      37B1E56B 
 916 0177 0B129BDF 		.ascii	"\013\022\233\337\3025g\225\244\237\236\353\375\002`"
 916      C2356795 
 916      A49F9EEB 
 916      FD0260
 917 0186 01601E40 		.ascii	"\001`\036@\340\274\377\301\201\317\211\236\3562\231"
 917      E0BCFFC1 
 917      81CF899E 
 917      EE3299
 918 0195 F2B8139F 		.ascii	"\362\270\023\237z\251\226\352@\364\":8s\337\211\362"
 918      7AA996EA 
 918      40F4223A 
 918      3873DF89 
 918      F2
 919 01a6 E579F00D 		.ascii	"\345y\360\015\317\267\035\\\207\377\245`\363\256\177"
 919      CFB71D5C 
 919      87FFA560 
 919      F3AE7F
 920 01b5 65D9BBB8 		.ascii	"e\331\273\270\354?*\310&u#\346=\221%\327A.\363O\\\346"
 920      EC3F2AC8 
 920      267523E6 
 920      3D9125D7 
 920      412EF34F 
 921 01cb 9FB93E5F 		.ascii	"\237\271>_\303y\005\222\374>\205\230\036\242\377\305"
 921      C3790592 
 921      FC3E8598 
 921      1EA2FFC5 
 922 01db DCC15CC6 		.ascii	"\334\301\\\3067\002\253A%\337\223\272\375\251\314\376"
 922      3702AB41 
 922      25DF93BA 
 922      FDA9CCFE 
 923 01eb 71AE4B0A 		.ascii	"q\256K\012@3\217\365\377\025\230O\344:\351\211\017\020"
 923      40338FF5 
 923      FF15984F 
 923      E43AE989 
 923      0F10
 924 01fd EB0F97E1 		.ascii	"\353\017\227\341\370-\340\211p\364\205\243\037\200?"
 924      F82DE089 
 924      70F485A3 
 924      1F803F
 925 020c 8001A00D 		.ascii	"\200\001\240\0151\375I]\250e\372\006\360\274v\342:\220"
 925      31FD495D 
 925      A865FA06 
 925      F0BC76E2 
 925      3A90
 926 021e DE50CAF5 		.ascii	"\336P\312\365\275\340@\327\003\334G\362\374\374\232"
 926      BDE040D7 
 926      03DC47F2 
 926      FCFC9A
 927 022d D796BD7E 		.ascii	"\327\226\275~\242\314&\225\024G1v\242\377\264\012\372"
 927      A2CC2695 
 927      14473176 
 927      A2FFB40A 
 927      FA
 928 023e 44CB7C29 		.ascii	"D\313|)\306S\364%\221\277\203\3673\242Z\220BL\3639\337"
 928      C653F425 
 928      91BF83F7 
ARM GAS  /tmp/ccWFeo0t.s 			page 74


 928      33A25A90 
 928      424CF339 
 929 0253 1C593C9B 		.ascii	"\034Y<\233\024b\372g\356\027'\273\332!\362\247\270\375"
 929      1462FA67 
 929      EE1727BB 
 929      DA21F2A7 
 929      B8FD
 930 0265 F90EFC40 		.ascii	"\371\016\374@\372\3532\005?\330\373\340\24729\242\017"
 930      FAEB3205 
 930      3FD8FBE0 
 930      A73239A2 
 930      0F
 931 0276 9A64F9E3 		.ascii	"\232d\371\343\"\263\337>w\376\211\353\242\346\362\276"
 931      22B3DF3E 
 931      77FE89EB 
 931      A2E6F2BE 
 932 0286 1124DB95 		.ascii	"\021$\333\225t*\3727\326\251\210\353\264\353%:\221\347"
 932      742AFA37 
 932      D6A988EB 
 932      B4EB253A 
 932      91E7
 933 0298 8F1BD749 		.ascii	"\217\033\327II\027Q\017\"?\030\360*\225\343x`\316/T"
 933      4917510F 
 933      223F18F0 
 933      2A95E378 
 933      60CE2F54 
 934 02ac 60B295E4 		.ascii	"`\262\225\344\225\376\033\373\240\364\025|0/\240\201"
 934      95FE1BFB 
 934      A0F4157C 
 934      302FA081 
 935 02bc 9982DFAE 		.ascii	"\231\202\337\256.6\303O\202\331,\010\322\215K1e\231"
 935      2E36C34F 
 935      82D92C08 
 935      D28D4B31 
 935      6599
 936 02ce 784240CB 		.ascii	"xB@\313\265H\015\350\323\366\364\333\036\200\256\324"
 936      B5480DE8 
 936      D3F6F4DB 
 936      1E80AED4 
 937 02de A237003D 		.ascii	"\2427\000=Z<[\246U\023\225\277\324\241uj2\340\332\226"
 937      5A3C5BA6 
 937      551395BF 
 937      D4A1756A 
 937      32E0DA96 
 938 02f2 2BFB85D7 		.ascii	"+\373\205\327S(\253h\363\033j\364\325k\250\020y\241"
 938      5328AB68 
 938      F31B6AF4 
 938      D56BA810 
 938      79A1
 939 0304 020426A0 		.ascii	"\002\004&\240\"\364:\374>\202\324\214\273\371\200y\267"
 939      22F43AFC 
 939      3E82D48C 
 939      BBF98079 
 939      B7
 940 0315 A08B379B 		.ascii	"\240\2137\233\243\010\361\362V\017B #/F:\224\217V\253"
 940      A308F1F2 
 940      560F4220 
ARM GAS  /tmp/ccWFeo0t.s 			page 75


 940      232F463A 
 940      948F56AB 
 941 0329 D8290C68 		.ascii	"\330)\014h\350\232\275\250\276\201z\211\213\3202\252"
 941      E89ABDA8 
 941      BE817A89 
 941      8BD032AA 
 942 0339 2442EC37 		.ascii	"$B\3547\242\240b@Q\352In\263x\011\211\204\034\027\304"
 942      A2A06240 
 942      51EA496E 
 942      B3780989 
 942      841C17C4 
 943 034d 53959519 		.ascii	"S\225\225\031\375\317\307\323\371\016\375\241L$\356"
 943      FDCFC7D3 
 943      F90EFDA1 
 943      4C24EE
 944 035c 880F6238 		.ascii	"\210\017b8\037\254B\034\027$\001\210\241\342\000\031"
 944      1FAC421C 
 944      17240188 
 944      A1E20019 
 945 036c 3FA62E67 		.ascii	"?\246.g'\351l\265\011\2111\210\177:\333\242\301n\210"
 945      27E96CB5 
 945      09893188 
 945      7F3ADBA2 
 945      C16E88
 946 037f 9CB7A5E5 		.ascii	"\234\267\245\345\236wz3\333l)3\017v\317\275\225Un6\307"
 946      9E777A33 
 946      DB6C2933 
 946      0F76CFBD 
 946      95556E36 
 947 0394 81FBD4D4 		.ascii	"\201\373\324\324qG\021\026\335\005\247\344P\202n\000"
 947      71471116 
 947      DD05A7E4 
 947      50826E00 
 948 03a4 D352F426 		.ascii	"\323R\364&\014=8\221\364\324\003\373P6\377\342\300\225"
 948      0C3D3891 
 948      F4D403FB 
 948      5036FFE2 
 948      C095
 949 03b6 D3C01D13 		.ascii	"\323\300\035\023\003w\332\034\233\305\3250\227[\314"
 949      0377DA1C 
 949      9BC5D530 
 949      975BCC
 950 03c5 28064661 		.ascii	"(\006FaB\204\312$\035\312\344:TP\035\232c\373k\324\370"
 950      4284CA24 
 950      1DCAE43A 
 950      54501D9A 
 950      63FB6BD4 
 951 03da BF531DE6 		.ascii	"\277S\035\346\317e\244;\026XE\005\256\343\362\0167>"
 951      CF65A43B 
 951      16584505 
 951      AEE3F20E 
 951      373E
 952 03ec 8F45202F 		.ascii	"\217E /\273\314lI\332\212\323\314\026\"Q T\250R\222"
 952      BBCC6C49 
 952      DA8AD3CC 
 952      16225120 
 952      54A85292 
ARM GAS  /tmp/ccWFeo0t.s 			page 76


 953 0400 58299758 		.ascii	"X)\227XM%^2[\0261\376=\225X\363\270\250\306\235%\263"
 953      4D255E32 
 953      5B1631FE 
 953      3D9558F3 
 953      B8A8C69D 
 954 0416 85E00523 		.ascii	"\205\340\005#\231\273t\014\377\010\320+\235\375\207"
 954      99BB740C 
 954      FF08D02B 
 954      9DFD87
 955 0425 30FE9A92 		.ascii	"0\376\232\222\366\265\026\026\221\274\177K\213H\264"
 955      F6B51616 
 955      91BC7F4B 
 955      8B48B4
 956 0434 3CE152E9 		.ascii	"<\341R\351\243\0233\356\354\022\241\270\274\373Y\236"
 956      A31333EE 
 956      EC12A1B8 
 956      BCFB599E 
 957 0444 335E47CE 		.ascii	"3^G\316\205\346\235\025\345n\310[{\230\030\223]\327"
 957      85E69D15 
 957      E56EC85B 
 957      7B981893 
 957      5DD7
 958 0456 E26536BB 		.ascii	"\342e6\273\240SH\213\032$\335\336\"-\177\233\224\352"
 958      A053488B 
 958      1A24DDDE 
 958      222D7F9B 
 958      94EA
 959 0468 2AABB1E8 		.ascii	"*\253\261\350$\362&\\\011!\252\207\213up\021$\024\346"
 959      24F2265C 
 959      0921AA87 
 959      8B757011 
 959      2414E6
 960 047b 25E66870 		.ascii	"%\346hp\027\242\"\322*\217LiE\021\2033\273>\200j]\206"
 960      17A222D2 
 960      2A8F4C69 
 960      45118333 
 960      BB3E806A 
 961 0491 1A418645 		.ascii	"\032A\206E\222\001\"\035\0129\255,\304\234<{\300\035"
 961      9201221D 
 961      0A39AD2C 
 961      C49C3C7B 
 961      C01D
 962 04a3 D7085448 		.ascii	"\327\010THF\352\251\006'\244\365V\346pV\201\003Sg1\311"
 962      46EAA906 
 962      27A4F556 
 962      E6705681 
 962      03536731 
 963 04b8 A781A8D3 		.ascii	"\247\201\250\323\004\352\234\221\324i\244\352\200\220"
 963      04EA9C91 
 963      D469A4EA 
 963      8090
 964 04c6 9B153BCF 		.ascii	"\233\025;\317\270\340i*\004\245\327M\234wb^w\0014\341"
 964      B8E0692A 
 964      04A5D74D 
 964      9C77625E 
 964      770134E1 
 965 04da E64CBD1B 		.ascii	"\346L\275\033\206\354!\367\212\246b\252<\361\026l\023"
ARM GAS  /tmp/ccWFeo0t.s 			page 77


 965      86EC21F7 
 965      8AA662AA 
 965      3CF1166C 
 965      13
 966 04eb AE953C5C 		.ascii	"\256\225<\\/\222NT\271\341\355\354f\323\355\256V'\234"
 966      2F924E54 
 966      B9E1EDEC 
 966      66D3EDAE 
 966      56279C
 967 04fe C890ECC6 		.ascii	"\310\220\354\306\241\267q\016;\257\335[?\352\202\363"
 967      A1B7710E 
 967      3BAFDD5B 
 967      3FEA82F3 
 968 050e 19727ABE 		.ascii	"\031rz\2767S\213k\030r\371\311\205,7&x\031\240\325#"
 968      37538B6B 
 968      1872F9C9 
 968      852C3726 
 968      7819A0D5 
 969 0523 E79AB58C 		.ascii	"\347\232\265\214\275\031\001>w\250\343\232\013>\305"
 969      BD19013E 
 969      77A8E39A 
 969      0B3EC5
 970 0532 68EB6AEA 		.ascii	"h\353j\352\233\271\222\357\000\032=\2345\344\201[\331"
 970      9BB992EF 
 970      001A3D9C 
 970      35E4815B 
 970      D9
 971 0543 BDE6DD31 		.ascii	"\275\346\3351;\264\370\022E\204\362\221\214,W1.\226"
 971      3BB4F812 
 971      4584F291 
 971      8C2C5731 
 971      2E96
 972 0555 CB6819BA 		.ascii	"\313h\031\272\012N\350\266w\202\262G{\224c\2221\336"
 972      0A4EE8B6 
 972      7782B247 
 972      7B946392 
 972      31DE
 973 0567 77DF9509 		.ascii	"w\337\225\011\367&yP;~H\203\373\230\360[\213\013\177"
 973      F7267950 
 973      3B7E4883 
 973      FB98F05B 
 973      8B0B7F
 974 057a C123EC3C 		.ascii	"\301#\354<\2568\256\331\003?fH\316\251\272G\316x\201"
 974      AE38AED9 
 974      033F6648 
 974      CEA9BA47 
 974      CE7881
 975 058d 21629F5E 		.ascii	"!b\237^\316\372t\301\203\2019\214w\252\351\275\241\233"
 975      CEFA74C1 
 975      8381398C 
 975      77AAE9BD 
 975      A19B
 976 059f 2D651E78 		.ascii	"-e\036x7C\352\2462\352<q\012C\332o/>\323\342,\206\324"
 976      3743EAA6 
 976      32EA3C71 
 976      0A43DA6F 
 976      2F3ED3E2 
ARM GAS  /tmp/ccWFeo0t.s 			page 78


 977 05b6 A42F58D4 		.ascii	"\244/X\3248\217![v\226\244\022_iX98\303\245\341'/\252"
 977      388F215B 
 977      7696A412 
 977      5F695839 
 977      38C3A5E1 
 978 05cd D5EC1231 		.ascii	"\325\354\0221\375\007\270\224\225v\363\230\007.\240"
 978      FD07B894 
 978      9576F398 
 978      072EA0
 979 05dc 43845353 		.ascii	"C\204SS\245\315.\326\204\255k\371\037\307I\206\334\005"
 979      A5CD2ED6 
 979      84AD6BF9 
 979      1FC74986 
 979      DC05
 980 05ee E7DC919C 		.ascii	"\347\334\221\234\243\341\2761/\365\315\010\370F\303"
 980      A3E1BE31 
 980      2FF5CD08 
 980      F846C3
 981 05fd 7D330C17 		.ascii	"}3\014\027o3\337<\233yR\251\306\345LFC\374\243\006W"
 981      6F33DF3C 
 981      9B7952A9 
 981      C6E54C46 
 981      43FCA306 
 982 0612 5951AC2E 		.ascii	"YQ\254.\"2\036\200\214{\222\214\273\310\261\220\373"
 982      22321E80 
 982      8C7B928C 
 982      BBC8B190 
 982      FB
 983 0623 CA4286CC 		.ascii	"\312B\206\314\263i:\\\313\204\324\305\367\365\251YQ"
 983      B3693A5C 
 983      CB84D4C5 
 983      F7F5A959 
 983      51
 984 0634 28701855 		.ascii	"(p\030U\340\300\213\242\353\227\264(\036\201:\017%u"
 984      E0C08BA2 
 984      EB97B428 
 984      1E813A0F 
 984      2575
 985 0646 1E8845B1 		.ascii	"\036\210E\261}\357\350a\017la\016\236\275\227\334\213"
 985      7DEFE861 
 985      0F6C610E 
 985      9EBD97DC 
 985      8B
 986 0657 58C0C873 		.ascii	"X\300\310s.\252\2567\321\223\345\346 M\335\027\333\026"
 986      2EAAAE37 
 986      D193E5E6 
 986      204DDD17 
 986      DB16
 987 0669 D4B89DD1 		.ascii	"\324\270\235\321^\335\321uC\203\273\231v\345q\275iN"
 987      5EDDD175 
 987      4383BB99 
 987      76E571BD 
 987      694E
 988 067b 0EB59B70 		.ascii	"\016\265\233p\244\235\345$d\3528h\366LA\263\346\216"
 988      A49DE524 
 988      64EA3868 
 988      F64C41B3 
ARM GAS  /tmp/ccWFeo0t.s 			page 79


 988      E68E
 989 068d EC71177C 		.ascii	"\354q\027|\203I;\221\270\007\352i\210!\375\373\266\327"
 989      83493B91 
 989      B807EA69 
 989      8821FDFB 
 989      B6D7
 990 069f B9E10986 		.ascii	"\271\341\011\206\234\334\375\354\270+\236eH\354\364"
 990      9CDCFDEC 
 990      B82B9E65 
 990      48ECF4
 991 06ae AD324F1C 		.ascii	"\2552O\034\343dSi+Y\245=\210\266\014\251\361vv\257t"
 991      E3645369 
 991      2B59A53D 
 991      88B60CA9 
 991      F17676AF 
 992 06c3 CB70A10B 		.ascii	"\313p\241\013\334\363\202TB\262\266\352\305\332j\245"
 992      DCF38254 
 992      42B2B6EA 
 992      C5DA6AA5 
 993 06d3 65BC448D 		.ascii	"e\274D\215\023(\255p\251\242\367\254\253,\207\376\232"
 993      1328AD70 
 993      A9A2F7AC 
 993      AB2C87FE 
 993      9A
 994 06e4 E69059D0 		.ascii	"\346\220Y\320\242\005Im/k}=\3111k^W\241\367\275\320"
 994      A205496D 
 994      2F6B7D3D 
 994      C9316B5E 
 994      57A1F7BD 
 995 06f9 3B60FB22 		.ascii	";`\373\"\330\356\305m\237\007\333\347xW=P\320\344\216"
 995      D8EEC56D 
 995      9F07DBE7 
 995      78573D50 
 995      D0E48E
 996 070c D39980D1 		.ascii	"\323\231\200\321\344\207\333\260,\201\274h\002E\203"
 996      E487DBB0 
 996      2C81BC68 
 996      024583
 997 071b 8048C12A 		.ascii	"\200H\301*\000\344)K\210\022\024%D%u\025\273\342\034"
 997      00E4294B 
 997      88121425 
 997      44257515 
 997      BBE21C
 998 072e 2621B9A4 		.ascii	"&!\271\244\244H*\203\305\244\3254'\266\202\204\030I"
 998      A4482A83 
 998      C5A4D534 
 998      27B68284 
 998      1849
 999 0740 42B42309 		.ascii	"B\264#\011[\224%\354M\037y\035\037a\376\334\276c\241"
 999      5B9425EC 
 999      4D1F791D 
 999      1F61FEDC 
 999      BE63A1
 1000 0753 14E33226 		.ascii	"\024\3432&m\252!\267R\352F\225\020\343x\220\264\355"
 1000      6DAA21B7 
 1000      52EA4695 
 1000      10E37890 
ARM GAS  /tmp/ccWFeo0t.s 			page 80


 1000      B4ED
 1001 0765 1524C529 		.ascii	"\025$\305)K\352\313\032\033W\343\343LT\336\231\322K"
 1001      4BEACB1A 
 1001      1B57E3E3 
 1001      4C54DE99 
 1001      D24B
 1002 0777 CEF82413 		.ascii	"\316\370$\0235?0Z\343a\025U\015\242v\201\250\035\257"
 1002      353F305A 
 1002      E3611555 
 1002      0DA27681 
 1002      A81DAF
 1003 078a 206AA7B2 		.ascii	" j\247\262\250\3071w\006y{~\235t\373\344}\357\343\026"
 1003      A8C73177 
 1003      06797B7E 
 1003      9D74FBE4 
 1003      7DEFE316 
 1004 079e 2678F4D0 		.ascii	"&x\364\320\305r\322\020\275\265\350\237e)\343\315R&"
 1004      C572D210 
 1004      BDB5E89F 
 1004      6529E3CD 
 1004      5226
 1005 07b0 33F156AA 		.ascii	"3\361V\252+\276\310\324\332[8\235#\210\217\260\354h"
 1005      2BBEC8D4 
 1005      DA5B389D 
 1005      23888FB0 
 1005      EC68
 1006 07c2 F39B91C7 		.ascii	"\363\233\221\307@\344y\020\323B\012b/\310"
 1006      40E47910 
 1006      D3420A62 
 1006      2FC8
 1007 07d0 F6E6B2F7 		.ascii	"\366\346\262\367\010^(Q\020\313\265\256\345\233\304"
 1007      085E2851 
 1007      10CBB5AE 
 1007      E59BC4
 1008 07df 5832A748 		.ascii	"X2\247H\0063\222$3\274yQ\304\306\024\354v\303\275L\312"
 1008      06339224 
 1008      33BC7951 
 1008      C4C614EC 
 1008      76C3BD4C 
 1009 07f4 FEC4C93A 		.ascii	"\376\304\311:\255c)\373\034J\231\331\365w\364\301\235"
 1009      AD6329FB 
 1009      1C4A99D9 
 1009      F577F4C1 
 1009      9D
 1010 0805 0A425224 		.ascii	"\012BR$!\311\002\227\322_z\243I\215o1)\215\325\275O"
 1010      21C90297 
 1010      D25F7AA3 
 1010      498D6F31 
 1010      298DD5BD 
 1011 081a 358EA564 		.ascii	"5\216\245d8\266e, \353\212\331\374\006J\0071i\222\230"
 1011      38B6652C 
 1011      20EB8AD9 
 1011      FC064A07 
 1011      31699298 
 1012 082e 5451CCE1 		.ascii	"TQ\314\341K\217\366\330N\274\011\2454\373\312\024t|"
 1012      4B8FF6D8 
 1012      4EBC09A5 
ARM GAS  /tmp/ccWFeo0t.s 			page 81


 1012      34FBCA14 
 1012      747C
 1013 0840 F21975AB 		.ascii	"\362\031u\253\272\007\341T\015\365t\367t\303\013\035"
 1013      BA07E154 
 1013      0DF574F7 
 1013      74C30B1D 
 1014 0850 CEA488BA 		.ascii	"\316\244\210\272\"j\340 $\200\027\202Q\210\245\001Y"
 1014      226AE020 
 1014      24801782 
 1014      5188A501 
 1014      59
 1015 0861 3CA8500E 		.ascii	"<\250P\016\260\332/`qy\221n\006\375\237\3743\271\014"
 1015      B0DA2F60 
 1015      7179916E 
 1015      06FD9FFC 
 1015      33B90C
 1016 0874 E72EF4A8 		.ascii	"\347.\364\250\220\025\007\300\032rK\205\016\202-\331"
 1016      901507C0 
 1016      1A724B85 
 1016      0E822DD9 
 1017 0884 02CD89EB 		.ascii	"\002\315\211\353-\027b4ZN\235\360c\324\017\213Fz<l\254"
 1017      2D176234 
 1017      5A4E9DF0 
 1017      63D40F8B 
 1017      467A3C6C 
 1018 0899 CAB5B12A 		.ascii	"\312\265\261*\317j\325\351\366\350B7|\220Yuk\376\340"
 1018      CF6AD5E9 
 1018      F6E84237 
 1018      7C905975 
 1018      6BFEE0
 1019 08ac B033CE67 		.ascii	"\2603\316g\310\364\276sy\356\270\204!{\212;\257j\360"
 1019      C8F4BE73 
 1019      79EEB884 
 1019      217B8A3B 
 1019      AF6AF0
 1020 08bf 3186F41F 		.ascii	"1\206\364\037]\250\327\340J\206\034\270\371\264\304"
 1020      5DA8D7E0 
 1020      4A861CB8 
 1020      F9B4C4
 1021 08ce 19D75044 		.ascii	"\031\327PD\270\233x\270\002\372\266\267\\\262l2\213"
 1021      B89B78B8 
 1021      02FAB6B7 
 1021      5CB26C32 
 1021      8B
 1022 08df 8A41D92F 		.ascii	"\212A\331/\305\225\014\253\227\214\026O2G,\022t\350"
 1022      C5950CAB 
 1022      978C164F 
 1022      32472C12 
 1022      74E8
 1023 08f1 88149F2F 		.ascii	"\210\024\237/uL\275\301\250\346.\027la\242\236>\276"
 1023      754CBDC1 
 1023      A8E62E17 
 1023      6C61A29E 
 1023      3EBE
 1024 0903 32E78E9B 		.ascii	"2\347\216\233\030b\2369y]\203[\031rc\357\364\240+nc"
 1024      18629E39 
 1024      795D835B 
ARM GAS  /tmp/ccWFeo0t.s 			page 82


 1024      197263EF 
 1024      F4A02B6E 
 1025 0918 486BF7F6 		.ascii	"Hk\367\366Sj|\221!\371m\203f'|\211!\365\361ms.\370\012"
 1025      536A7C91 
 1025      21F96D83 
 1025      66277C89 
 1025      21F5F16D 
 1026 0930 43D26B63 		.ascii	"C\322kc\243\264\370*C\212\026\307w\353\360uny\375\245"
 1026      A3B4F82A 
 1026      438A16C7 
 1026      77EBF075 
 1026      6E79FDA5 
 1027 0944 1C81D5DF 		.ascii	"\034\201\325\337*@\217X\266\267b\326\303\263\205y\301"
 1027      2A408F58 
 1027      B6B762D6 
 1027      C3B38579 
 1027      C1
 1028 0955 6D4757CF 		.ascii	"mGW\317~\001\255\242?+\274\341W\016\261v0k\352\333\376"
 1028      7E01ADA2 
 1028      3F2BBCE1 
 1028      570EB176 
 1028      306BEADB 
 1029 096a CBC366F3 		.ascii	"\313\303f\363\036\0355\246\020\2149)\254\220l\357\243"
 1029      1E1D35A6 
 1029      108C3929 
 1029      AC906CEF 
 1029      A3
 1030 097b 9E7F97AC 		.ascii	"\236\177\227\254_\351\000\313\311\253:s\202/%>fO\334"
 1030      5FE900CB 
 1030      C9AB3A73 
 1030      822F253E 
 1030      664FDC
 1031 098e 42890B91 		.ascii	"B\211\013\221D}E\242>jO\275[\260c\335#\021\227(\023"
 1031      447D45A2 
 1031      3E6A4FBD 
 1031      5BB063DD 
 1031      23119728 
 1032 09a3 CB59D74A 		.ascii	"\313Y\327J\324\025\366\324>\366\304\227%\342R{\342N"
 1032      D415F6D4 
 1032      3EF6C497 
 1032      25E2527B 
 1032      E24E
 1033 09b5 99D689BC 		.ascii	"\231\326\211\274\014\314\310\244B5\220\232\325 \027"
 1033      0CCCC8A4 
 1033      4235909A 
 1033      D52017
 1034 09c4 55F12110 		.ascii	"U\361!\020ft\012\222\301\"\254B\365\000\215\000'\000"
 1034      66740A92 
 1034      C122AC42 
 1034      F5008D00 
 1034      2700
 1035 09d6 4E033400 		.ascii	"N\0034\000\324\002\324\001\034\027V\321\322a\2712\236"
 1035      D402D401 
 1035      1C1756D1 
 1035      D261B932 
 1035      9E
 1036 09e7 A223B902 		.ascii	"\242#\271\002\014T<QTV\275N\\]I\026C\230jV\251h\206"
ARM GAS  /tmp/ccWFeo0t.s 			page 83


 1036      0C543C51 
 1036      5456BD4E 
 1036      5C5D4916 
 1036      43986A56 
 1037 09fe CC419D92 		.ascii	"\314A\235\222\025e\312V\310\210\353%\342r\345@Qb\262"
 1037      1565CA56 
 1037      C888EB25 
 1037      E272E540 
 1037      5162B2
 1038 0a11 2A9F4E4F 		.ascii	"*\237NOr\265\251;9\261\012\235\261\326]\177}\316\224"
 1038      72B5A93B 
 1038      39B10A9D 
 1038      B1D65D7F 
 1038      7DCE94
 1039 0a24 3B4E7626 		.ascii	";Nv&\011\207\323\212\007&]\321*\357\025,\223\352\306"
 1039      0987D38A 
 1039      07265DD1 
 1039      2AEF152C 
 1039      93EAC6
 1040 0a37 3E2FEC67 		.ascii	">/\354g\231\004\003P\001\310lQ6\206\271\245\"\236\272"
 1040      99040350 
 1040      01C86C51 
 1040      3686B9A5 
 1040      229EBA
 1041 0a4a A5C5D62D 		.ascii	"\245\305\326-\211|\036D\003`\035\333\304\231\221\000"
 1041      897C1E44 
 1041      03601DDB 
 1041      C4999100 
 1042 0a5a 344300CE 		.ascii	"4C\000\316r\007\223\032\210\272;\212\361A\252\022z8"
 1042      7207931A 
 1042      88BA3B8A 
 1042      F141AA12 
 1042      7A38
 1043 0a6c 52D423E0 		.ascii	"R\324#\340\303\014\311\034h\354\347\323\360&\202W\017"
 1043      C30CC91C 
 1043      68ECE7D3 
 1043      F0268257 
 1043      0F
 1044 0a7d 24C7E978 		.ascii	"$\307\351xE\220\315\220\273\223\223=\032\\\306\210+"
 1044      4590CD90 
 1044      BB93933D 
 1044      1A5CC688 
 1044      2B
 1045 0a8e 160BB762 		.ascii	"\026\013\267b\\M\221\377\366\342~\314\230;Z\265\002"
 1045      5C4D91FF 
 1045      F6E27ECC 
 1045      983B5AB5 
 1045      02
 1046 0a9f AA44B782 		.ascii	"\252D\267\202\377'\377\274\275\311\001~\257dwVA\035"
 1046      FF27FFBC 
 1046      BDC9017E 
 1046      AF647756 
 1046      411D
 1047 0ab1 E974A498 		.ascii	"\351t\244\230\274WY\177\340\266\2677s\311\342\354\267"
 1047      BC57597F 
 1047      E0B6B737 
 1047      73C9E2EC 
ARM GAS  /tmp/ccWFeo0t.s 			page 84


 1047      B7
 1048 0ac2 E79F3197 		.ascii	"\347\2371\227\220U\305\025\230\364t\310]\322\345(\363"
 1048      9055C515 
 1048      98F474C8 
 1048      5DD2E528 
 1048      F3
 1049 0ad3 DA20F3CE 		.ascii	"\332 \363\316\223\314;'\260!\304\360-\330\033\305\340"
 1049      93CC3B27 
 1049      B021C4F0 
 1049      2DD81BC5 
 1049      E0
 1050 0ae4 55281A20 		.ascii	"U(\032 \012 \022\300\014\260\010\031\267\0000\0170\007"
 1050      0A2012C0 
 1050      0CB00819 
 1050      B700300F 
 1050      3007
 1051 0af6 300B700F 		.ascii	"0\013p\017\340\026\300\015\200\213\000\227\001.\001"
 1051      E016C00D 
 1051      808B0097 
 1051      012E01
 1052 0b05 7472C7B1 		.ascii	"tr\307\261\024\311J\372\031\313>\350n\027\004;\345\216"
 1052      14C94AFA 
 1052      19CB3EE8 
 1052      6E17043B 
 1052      E58E
 1053 0b17 DB27D4E2 		.ascii	"\333'\324\342e/FM\226\211\265\366\266\234XR\373S{8\367"
 1053      652F464D 
 1053      9689B5F6 
 1053      B69C5852 
 1053      FB537B38 
 1054 0b2c 2E488766 		.ascii	".H\207fez\312^\236yWl2\257\213e\236\215o.\301]\222\354"
 1054      657ACA5E 
 1054      9E79576C 
 1054      32AF8B65 
 1054      9E8D6F2E 
 1055 0b44 E832B0BC 		.ascii	"\3502\260\274\302}\263\015|\023\013\276\270\0066v\313"
 1055      C27DB30D 
 1055      7C130BBE 
 1055      B8063676 
 1055      CB
 1056 0b55 6D1C4C58 		.ascii	"m\034LX\014K\2156\267\276\203z@\213V>D\261c\311\325"
 1056      0C4B8D36 
 1056      B7BE837A 
 1056      408B563E 
 1056      44B163C9 
 1057 0b6a B86AA346 		.ascii	"\270j\243F\317\313\324\210\003\321?\252\206e\332`\216"
 1057      CFCBD488 
 1057      03D13FAA 
 1057      8665DA60 
 1057      8E
 1058 0b7b D3A05ED0 		.ascii	"\323\240^\320\341\234\262\016K<q\335F\0052\222U\211"
 1058      E19CB20E 
 1058      4B3C71DD 
 1058      46053292 
 1058      5589
 1059 0b8d 72A26C05 		.ascii	"r\242l\005\311\377J\211B\346\275\263a\347\236\305\320"
 1059      C9FF4A89 
ARM GAS  /tmp/ccWFeo0t.s 			page 85


 1059      42E6BDB3 
 1059      61E79EC5 
 1059      D0
 1060 0b9e 44BE0942 		.ascii	"D\276\011Bzy0\255S\231k\216\022\331J1\004U\333\317\365"
 1060      7A7930AD 
 1060      53996B8E 
 1060      12D94A31 
 1060      0455DBCF 
 1061 0bb3 1B84F301 		.ascii	"\033\204\363\001\220\321g\343\241\214x\236.\304\324"
 1061      90D167E3 
 1061      A18C789E 
 1061      2EC4D4
 1062 0bc2 7690D0EF 		.ascii	"v\220\320\357\240\2433\001\026;\001\027\370\010\307"
 1062      A0A33301 
 1062      163B0117 
 1062      F808C7
 1063 0bd1 02F69DA7 		.ascii	"\002\366\235\247\015\261\227\347\301R\366\262\346\224"
 1063      0DB197E7 
 1063      C152F6B2 
 1063      E694
 1064 0bdf CA9A53BF 		.ascii	"\312\232S\277msb\263\263\304\234\300}{\"avF\\qQZ\310"
 1064      6D7362B3 
 1064      B3C49CC0 
 1064      7D7B2261 
 1064      76465C71 
 1065 0bf6 1062C961 		.ascii	"\020b\311a\037\237\343\225\177\033\250\256\333g\377"
 1065      1F9FE395 
 1065      7F1BA8AE 
 1065      DB67FF
 1066 0c05 3529E6CA 		.ascii	"5)\346\312\035\357.\230p\207\2333\002\347\3036\246\314"
 1066      1DEF2E98 
 1066      70879B33 
 1066      02E7C336 
 1066      A6CC
 1067 0c17 C6CA7C45 		.ascii	"\306\312|E\214\271\243l\2142\357\033|\200=of\372L,5"
 1067      8CB9A36C 
 1067      8C32EF1B 
 1067      7C803D6F 
 1067      66FA4C2C 
 1068 0c2c FD8EB2E9 		.ascii	"\375\216\262\351\337\307\306\221I61\352\246d\372\035"
 1068      DFC7C691 
 1068      493631EA 
 1068      A664FA1D 
 1069 0c3c 1BD3FFD8 		.ascii	"\033\323\377\330\312M\277/\254D\375\366\246\367\311"
 1069      CA4DBF2F 
 1069      AC44FDF6 
 1069      A6F7C9
 1070 0c4b 72658F92 		.ascii	"re\217\222~*:\216(\367\002\224\233\2018N\003L\001\214"
 1070      7E2A3A8E 
 1070      28F70294 
 1070      9B81384E 
 1070      034C018C 
 1071 0c5f 033C0378 		.ascii	"\003<\003x\004\360\020\340\201\215S\366\\\246\361%\235"
 1071      04F010E0 
 1071      818D53F6 
 1071      5CA6F125 
 1071      9D
ARM GAS  /tmp/ccWFeo0t.s 			page 86


 1072 0c70 76008412 		.ascii	"v\000\204\022&\016\237\244\343\273e\275i\360\307\250"
 1072      260E9FA4 
 1072      E3BB65BD 
 1072      69F0C7A8 
 1073 0c80 3B3B28E7 		.ascii	";;(\347Q\240\035rL+/\336\3076\305;\252\320?\236\300"
 1073      51A01D72 
 1073      4C2B2FDE 
 1073      C736C53B 
 1073      AAD03F9E 
 1074 0c95 DD31C2E0 		.ascii	"\3351\302\3401p|\314\243\361\024\014~\002\206\215\331"
 1074      31707CCC 
 1074      A3F1140C 
 1074      7E02868D 
 1074      D9
 1075 0ca6 545F46EE 		.ascii	"T_F\356\346\224\374\255D\003\262\027q\213\323+\365\017"
 1075      E694FCAD 
 1075      4403B217 
 1075      718BD32B 
 1075      F50F
 1076 0cb8 4A6FB9EE 		.ascii	"Jo\271\356Dz\015\311\3166Nk\255\022\373<\357=\210H\260"
 1076      447A0DC9 
 1076      CE364E6B 
 1076      AD12FB3C 
 1076      EF3D8848 
 1077 0ccd 1F2F999B 		.ascii	"\037/\231\233\320@\376P\317\003Iv\032\236\376\230\227"
 1077      D040FE50 
 1077      CF034976 
 1077      1A9EFE98 
 1077      97
 1078 0cde F68A3E9D 		.ascii	"\366\212>\235\000?=\1775?='sN\253\237&\230\237\034u"
 1078      003F3D7F 
 1078      353F3D27 
 1078      734EAB9F 
 1078      26989F1C 
 1079 0cf3 413409EE 		.ascii	"A4\011\356\221\032\241\230\222kZ\266\220\224$\254&\245"
 1079      911AA198 
 1079      926B5AB6 
 1079      909424AC 
 1079      26A5
 1080 0d05 94ECA5BC 		.ascii	"\224\354\245\274\304\347\360\037\353&\230%\360\244\233"
 1080      C4E7F01F 
 1080      EB269825 
 1080      F0A49B
 1081 0d14 7AA921C4 		.ascii	"z\251!\304)\027\371\203\216\230=\375c\324\265\027ir"
 1081      2917F983 
 1081      8E983DFD 
 1081      63D4B517 
 1081      6972
 1082 0d26 10DA19C7 		.ascii	"\020\332\031\307\264\314\335Y\027\251\273\201f\351T"
 1082      B4CCDD59 
 1082      17A9BB81 
 1082      66E954
 1083 0d35 B0BBCD2B 		.ascii	"\260\273\315+\325l\211\304tsa\226W\015_.\261\232y!\237"
 1083      D56C89C4 
 1083      74736196 
 1083      570D5F2E 
 1083      B19A7921 
ARM GAS  /tmp/ccWFeo0t.s 			page 87


 1084 0d4a FDB6B999 		.ascii	"\375\266\271\231\313\276\245\333\003\261\202\002\355"
 1084      CBBEA5DB 
 1084      03B18202 
 1084      ED
 1085 0d57 FB126939 		.ascii	"\373\022i9#%\313\373\355J\244\262\020\246m\347!\204"
 1085      2325CBFB 
 1085      ED4AA4B2 
 1085      10A66DE7 
 1085      2184
 1086 0d69 05244AB0 		.ascii	"\005$J\260\237\021,\235\203O\262\226\012\0133\224\245"
 1086      9F112C9D 
 1086      834FB296 
 1086      0A0B3394 
 1086      A5
 1087 0d7a 4C2D637E 		.ascii	"L-c~M\352\277\207\354\211\345sp\276\030\220\250\017"
 1087      4DEABF87 
 1087      EC89E573 
 1087      70BE1890 
 1087      A80F
 1088 0d8c 2B53CB62 		.ascii	"+S\313b\320u\236G\214N\022\355\311\227.K:\031s2\221"
 1088      D0759E47 
 1088      8C4E12ED 
 1088      C9972E4B 
 1088      3A197332 
 1089 0da1 6955A696 		.ascii	"iU\246\2261?\371\017\204V,\247\216\227\225S\003{lt("
 1089      313FF90F 
 1089      84562CA7 
 1089      8E979553 
 1089      037B6C74 
 1090 0db6 F74EDFC3 		.ascii	"\367N\337\303t\203\202\244t\273\264h\354\220\365\316"
 1090      748382A4 
 1090      74BBB468 
 1090      EC90F5CE 
 1091 0dc6 C4C5CF53 		.ascii	"\304\305\317S\363\315rqW^&n\334\227H\273\242 \315\322"
 1091      F3CD7271 
 1091      575E266E 
 1091      DC9748BB 
 1091      A220CDD2 
 1092 0dda 7B87661A 		.ascii	"{\207f\032\231\307tHEq\205\312\"\273!\351wK\324\364"
 1092      99C77448 
 1092      457185CA 
 1092      22BB21E9 
 1092      774BD4F4 
 1093 0dee 05127130 		.ascii	"\005\022q0{\203t\241v\341\254\253\374\205N\257Mqn\307"
 1093      7B8374A1 
 1093      76E1ACAB 
 1093      FC854EAF 
 1093      4D716EC7 
 1094 0e02 E48D4E3C 		.ascii	"\344\215N<\346\257t\232\223\207\276z3\333<H^d\335\373"
 1094      E6AF749A 
 1094      9387BE7A 
 1094      33DB3C48 
 1094      5E64DDFB 
 1095 0e16 5986F545 		.ascii	"Y\206\365E\026\220\241\032Ib\215\374\225\316\016L^\351"
 1095      1690A11A 
 1095      49628DFC 
 1095      95CE0E4C 
ARM GAS  /tmp/ccWFeo0t.s 			page 88


 1095      5EE9
 1096 0e28 9CAD4BD9 		.ascii	"\234\255K\331\357\212\317\272\320yw\344\271+\327\234"
 1096      EF8ACFBA 
 1096      D07977E4 
 1096      B92BD79C 
 1097 0e38 191FD6C0 		.ascii	"\031\037\326\300#\315\331\037S&;\261\225\011\234JLv"
 1097      23CDD91F 
 1097      53263BB1 
 1097      95099C4A 
 1097      4C76
 1098 0e4a 51269746 		.ascii	"Q&\227F\033\352\335p\017c\322\026\177\374.\242\326\220"
 1098      1BEADD70 
 1098      0F63D216 
 1098      7FFC2EA2 
 1098      D690
 1099 0e5c 2467D68C 		.ascii	"$g\326\214\354\217\035tw\370z*\221\032\223 \032\323"
 1099      EC8F1D74 
 1099      77F87A2A 
 1099      911A9320 
 1099      1AD3
 1100 0e6e 7472FCA4 		.ascii	"tr\374\244\007\327\")Iz?\005dh\267\244\307n\271\036"
 1100      07D72229 
 1100      497A3F05 
 1100      6468B7A4 
 1100      C76EB91E 
 1101 0e82 7BA81ECD 		.ascii	"{\250\036\315#\226B\015\036fzL\236K-r\3073\024\021\362"
 1101      2396420D 
 1101      1E667A4C 
 1101      9E4B2D72 
 1101      C7331411 
 1102 0e97 F68C59AC 		.ascii	"\366\214Y\254/\225\006\017\034Ys\200n\351\244`-J\306"
 1102      2F95060F 
 1102      1C597380 
 1102      6EE9A460 
 1102      2D4AC6
 1103 0eaa AFF47A61 		.ascii	"\257\364za/V|\275p\254uv\2273\265\226\360b\326>y\374"
 1103      2F567CBD 
 1103      70AC7576 
 1103      9733B596 
 1103      F062D63E 
 1104 0ec0 EC3BAB03 		.ascii	"\354;\253\003R1\275657\334\213\344\036 -JrA\032u\301"
 1104      5231BD36 
 1104      3537DC8B 
 1104      E41E202D 
 1104      4A72411A 
 1105 0ed6 3ED10557 		.ascii	">\321\005W\306\356\266\270\212\001\255\367!sf3\321\027"
 1105      C6EEB6B8 
 1105      8A01ADF7 
 1105      21736633 
 1105      D117
 1106 0ee8 C85092A4 		.ascii	"\310P\222\244o\222\334\005\351\324\005\333K\213G\264"
 1106      6F92DC05 
 1106      E9D405DB 
 1106      4B8B47B4 
 1107 0ef8 B8C095BA 		.ascii	"\270\300\225\272 uh\354\241\206jB\2441\345\006js\242"
 1107      207568EC 
 1107      A1866A42 
ARM GAS  /tmp/ccWFeo0t.s 			page 89


 1107      A431E506 
 1107      6A73A2
 1108 0f0b 9CACC996 		.ascii	"\234\254\311\226\311\264kj\270s\333\323a|\366S\345\262"
 1108      C9B46B6A 
 1108      B873DBD3 
 1108      617CF653 
 1108      E5B2
 1109 0f1d 44E59E3C 		.ascii	"D\345\236<\335\235\357\316\3433\223.\305\007\310P\206"
 1109      DD9DEFCE 
 1109      E333932E 
 1109      C507C850 
 1109      86
 1110 0f2e A45C865C 		.ascii	"\244\\\206\\\271\003T\271\354}\223\3675\270\212)\327"
 1110      B90354B9 
 1110      EC7D93F7 
 1110      35B88A29 
 1110      D7
 1111 0f3f 7EB66B9F 		.ascii	"~\266k\2373\356\240\210z\370he\017F\256l\377\313;\226"
 1111      33EEA088 
 1111      7AF86865 
 1111      0F46AE6C 
 1111      FFCB3B96 
 1112 0f53 EE514565 		.ascii	"\356QEe\277\361\275u\217\352\020\270?\007\273\002\303"
 1112      BFF1BD75 
 1112      8FEA10B8 
 1112      3F07BB02 
 1112      C3
 1113 0f64 5CEC85F2 		.ascii	"\\\354\205\362\260\027\333\376\202+tKl\031=\225\357"
 1113      B017DBFE 
 1113      822B744B 
 1113      6C193D95 
 1113      EF
 1114 0f75 9B615774 		.ascii	"\233aWt\020[\367\315@^\327\343\333\026'\271\215\204"
 1114      105BF7CD 
 1114      405ED7E3 
 1114      DB1627B9 
 1114      8D84
 1115 0f87 4432F230 		.ascii	"D2\3620\226\277#\215)\211\214\027\337\221.\364\323J"
 1115      96BF238D 
 1115      29898C17 
 1115      DF912EF4 
 1115      D34A
 1116 0f99 305BD484 		.ascii	"0[\324\204\010eK"
 1116      08654B
 1117 0fa0 2666CB4D 		.ascii	"&f\313M\314\247&F5>\257t\302\335\314\304\254\330\242"
 1117      CCA72646 
 1117      353EAF74 
 1117      C2DDCCC4 
 1117      ACD8A2
 1118 0fb3 4A4FEEA9 		.ascii	"JO\356\251\311\001\306\345c\372\236\265@bR gRH\231<"
 1118      C901C6E5 
 1118      63FA9EB5 
 1118      40625220 
 1118      67524899 
 1119 0fc8 4CEE2B70 		.ascii	"L\356+p\302\243\214I\345\341\341T\321\335\323\353l\336"
 1119      C2A38C49 
 1119      E5E1E154 
ARM GAS  /tmp/ccWFeo0t.s 			page 90


 1119      D1DDD3EB 
 1119      6CDE
 1120 0fda D61E91B8 		.ascii	"\326\036\221\270\034\221s)\242\\\362\222\347\376\021"
 1120      1C917329 
 1120      A25CF292 
 1120      E7FE11
 1121 0fe9 C7B06DDD 		.ascii	"\307\260m\335\275\327\216\015\211\232\224\365\3135)"
 1121      BDD78E0D 
 1121      899A94F5 
 1121      CB3529
 1122 0ff8 967814CB 		.ascii	"\226x\024\313y\224P\036"
 1122      7994501E 
 1123 1000 F90D3BB2 		.ascii	"\371\015;\262\020\336\313\230l\331Z\234\247\341N\231"
 1123      10DECB98 
 1123      6CD95A9C 
 1123      A7E14E99 
 1124 1010 F0B3D1E4 		.ascii	"\360\263\321\344\250\304\345\250\234K)\345\022Y\037"
 1124      A8C4E5A8 
 1124      9C4B29E5 
 1124      12591F
 1125 101f 5FA9C6F9 		.ascii	"_\251\306\371\214\213R\267\033Y\230N\224\222\362\030"
 1125      8C8B52B7 
 1125      1B59984E 
 1125      9492F218 
 1126 102f 4BCAEED2 		.ascii	"K\312\356\322\376a\307M\243\202\306\253\\L\312\234\304"
 1126      FE61C74D 
 1126      A382C6AB 
 1126      5C4CCA9C 
 1126      C4
 1127 1040 9E583762 		.ascii	"\236X7b\240\231l\243\375q\241l\330\274m9\245Be\222n"
 1127      A0996CA3 
 1127      FD71A16C 
 1127      D8BC6D39 
 1127      A5426592 
 1128 1055 653C2350 		.ascii	"e<#P%\325\353\326\275\206\007.\270\222\3515T\334\030"
 1128      25D5EBD6 
 1128      BD86072E 
 1128      B892E935 
 1128      54DC18
 1129 1068 A7C1A719 		.ascii	"\247\301\247\031RP\223\\\344\206\233)\"\354\252\313"
 1129      5250935C 
 1129      E4869B29 
 1129      22ECAACB 
 1130 1078 3EED8ABC 		.ascii	">\355\212\274u\3269Nz')\306\023X\207jd\336C:\273\351"
 1130      75D6394E 
 1130      7A2729C6 
 1130      1358876A 
 1130      64DE433A 
 1131 108e 92FCFB0B 		.ascii	"\222\374\373\013t\034\022X\372\004\003D\334k\235\274"
 1131      741C1258 
 1131      FA040344 
 1131      DC6B9DBC 
 1132 109e E3823B98 		.ascii	"\343\202;\230<Kem\205\016w3\344\351\\V\015\337+Y\011"
 1132      3C4B656D 
 1132      850E7733 
 1132      E4E95C56 
 1132      0DDF2B59 
ARM GAS  /tmp/ccWFeo0t.s 			page 91


 1133 10b3 E8FC4042 		.ascii	"\350\374@B\2023\337*!/yJ\262\307\2630\036\341\003g\217"
 1133      8233DF2A 
 1133      212F794A 
 1133      B2C7B330 
 1133      1EE10367 
 1134 10c8 DFD0E107 		.ascii	"\337\320\341\007\024\321\036\357=\344\207\310~\242\216"
 1134      14D11EEF 
 1134      3DE487C8 
 1134      7EA28E
 1135 10d7 EC8FACB2 		.ascii	"\354\217\254\262\231\3426@\331\324C\331\240:P\331\202"
 1135      99E23640 
 1135      D9D443D9 
 1135      A03A50D9 
 1135      82
 1136 10e8 D914B715 		.ascii	"\331\024\267\025\224j\204\305h\013\300\031\200s\000"
 1136      946A84C5 
 1136      680BC019 
 1136      807300
 1137 10f7 67B17C01 		.ascii	"g\261|\001\322\327\274\212<\272\232a\300)\311V\030/"
 1137      D2D7BC8A 
 1137      3CBA9A61 
 1137      C029C956 
 1137      182F
 1138 1109 9BCF7DDE 		.ascii	"\233\317}\336\301\347sM\230-\200\010{\2073\323\231."
 1138      C1E7734D 
 1138      982D8008 
 1138      7B8733D3 
 1138      992E
 1139 111b 3E3D200D 		.ascii	">= \015\263\026\333Q;X\1777c\371\024\036\344HS\265E"
 1139      B316DB51 
 1139      3B587F37 
 1139      63F9141E 
 1139      E44853B5 
 1140 1130 D9BEC949 		.ascii	"\331\276\311I{v\262\311\211\2627N\203\007^\305\033|"
 1140      7B76B2C9 
 1140      89B2374E 
 1140      83075EC5 
 1140      1B7C
 1141 1142 8AD5C5A6 		.ascii	"\212\325\305\246*\230-\212\227\332\311\3465|B\220D\347"
 1141      2A982D8A 
 1141      97DAC9E6 
 1141      357C4290 
 1141      44E7
 1142 1154 1FC4574B 		.ascii	"\037\304WK\346\227\263\242\023H\022U+;\201\361\"/\323"
 1142      E697B3A2 
 1142      13481255 
 1142      2B3B81F1 
 1142      222FD3
 1143 1167 B3A67258 		.ascii	"\263\246rXu\020\301\254b.\265e\365\273:,\2166Z\034\347"
 1143      7510C1AC 
 1143      622EB565 
 1143      F5BB3A2C 
 1143      8E365A1C 
 1144 117c C5E21879 		.ascii	"\305\342\030y\260P/\026\307\363\232\3004^\034@\205\252"
 1144      B0502F16 
 1144      C7F39AC0 
 1144      345E1C40 
ARM GAS  /tmp/ccWFeo0t.s 			page 92


 1144      85AA
 1145 118e A4A05689 		.ascii	"\244\240V\211\305q\201\026GYCL\2073Nss\364\215\313\356"
 1145      C5718116 
 1145      4759434C 
 1145      87334E73 
 1145      73F48DCB 
 1146 11a3 BC33E7DC 		.ascii	"\2743\347\334\351%b\303EV\263y\2653{\221\365q\330\301"
 1146      E92562C3 
 1146      4556B379 
 1146      B5337B91 
 1146      F571D8C1 
 1147 11b7 2E664E96 		.ascii	".fN\226\357T[\365\357d\027+\257\355i\362ph\300ej\300"
 1147      EF545BF5 
 1147      EF64172B 
 1147      AFED69F2 
 1147      7068C065 
 1148 11cd 25D180E8 		.ascii	"%\321\200\350\033\325y\316\314\000Ku\263\316\222\200"
 1148      1BD579CE 
 1148      CC004B75 
 1148      B3CE9280 
 1149 11dd 08056A97 		.ascii	"\010\005j\227\224o\027\225\357\242\312_\235\230j\324"
 1149      946F1795 
 1149      EFA2CA5F 
 1149      9D986AD4 
 1150 11ed E23CA6FC 		.ascii	"\342<\246\374\266\241\330.-\253\247i\272K\231;;\345"
 1150      B6A1D82E 
 1150      2DABA769 
 1150      BA4B993B 
 1150      3BE5
 1151 11ff C4BF8520 		.ascii	"\304\277\205 o\337\027\357\367\346\362z{B\356\247\214"
 1151      6FDF17EF 
 1151      F7E6F27A 
 1151      7B42EEA7 
 1151      8C
 1152 1210 B43F73C5 		.ascii	"\264?s\305\371l\360\330Pt\236'.gHv\333\266\213\256\270"
 1152      F96CF0D8 
 1152      50749E27 
 1152      2E674876 
 1152      DBB68BAE 
 1153 1225 9A216509 		.ascii	"\232!e\011\221\221\03073$\312\374p\267\023\331\266\215"
 1153      91911837 
 1153      3324CAFC 
 1153      70B713D9 
 1153      B68D
 1154 1237 FE91D725 		.ascii	"\376\221\327%x\2543OK\212Ty;\340:\230\324\307\363\261"
 1154      78AC334F 
 1154      4B8A5479 
 1154      3BE03A98 
 1154      D4C7F3B1 
 1155 124b 1FF27140 		.ascii	"\037\362q@^\215\203\013\263\037\367\223\207]\237}N\305"
 1155      5E8D830B 
 1155      B31FF793 
 1155      875D9F7D 
 1155      4EC5
 1156 125d 449B2D4F 		.ascii	"D\233-OS\377\023\313\251\233\340\345\033\234\217B\031"
 1156      53FF13CB 
 1156      A99BE0E5 
ARM GAS  /tmp/ccWFeo0t.s 			page 93


 1156      1B9C8F42 
 1156      19
 1157 126e 925E17F7 		.ascii	"\222^\027\367\274T\215;\251\352B\313\263\027s.\310{"
 1157      BC548D3B 
 1157      A9EA42CB 
 1157      B317732E 
 1157      C87B
 1158 1280 85D8DE3E 		.ascii	"\205\330\336>\311L \033*\267`\364\240\344\340>Z\362"
 1158      C94C201B 
 1158      2AB760F4 
 1158      A0E4E03E 
 1158      5AF2
 1159 1292 CA4A0F81 		.ascii	"\312J\017\201\242JJ\203\244\231}\367\343\334\361\000"
 1159      A24A4A83 
 1159      A4997DF7 
 1159      E3DCF100 
 1160 12a2 73D2A1D3 		.ascii	"s\322\241\323\223\026-\036a\310\\y\311\234\006\3173"
 1160      93162D1E 
 1160      61C85C79 
 1160      C99C06CF 
 1160      33
 1161 12b3 6477D58D 		.ascii	"dw\325\2159O\274UG\025Z\234\034\251\322:\374r\346\236"
 1161      394FBC55 
 1161      47155A9C 
 1161      1CA9D23A 
 1161      FC72E69E 
 1162 12c7 C2444C9C 		.ascii	"\302DL\234\326\005\2627uw!\367F\354\247u\363\202\346"
 1162      D605B237 
 1162      757721F7 
 1162      46ECA775 
 1162      F382E6
 1163 12da 72547B8A 		.ascii	"rT{\212+\242;\304+\304\346\025\326\313\227\325b;z\354"
 1163      2BA23BC4 
 1163      2BC4E615 
 1163      D6CB97D5 
 1163      623B7AEC 
 1164 12ee A01DB1C2 		.ascii	"\240\035\261\302\255J\341\335F\354u\217_\326\353\216"
 1164      AD4AE1DD 
 1164      46EC758F 
 1164      5FD6EB8E 
 1165 12fe F7D8F48B 		.ascii	"\367\330\364\213\245\264\362~Q\301^M<V\352\027}=\274"
 1165      A5B4F27E 
 1165      51C15E4D 
 1165      3C56EA17 
 1165      7D3DBC
 1166 1311 5F10D3EE 		.ascii	"_\020\323\356(k\251\260\343g\335\027\035\346CH\204\036"
 1166      286BA9B0 
 1166      E367DD17 
 1166      1DE64348 
 1166      841E
 1167 1323 81031F40 		.ascii	"\201\003\037@k{\010p\037`T\212V\322\371\362\007\316"
 1167      6B7B0870 
 1167      1F60548A 
 1167      56D2F9F2 
 1167      07CE
 1168 1335 388185C1 		.ascii	"8\201\205\301\234\221\320\342.\313\213\2573\312H^<\005"
 1168      9C91D0E2 
ARM GAS  /tmp/ccWFeo0t.s 			page 94


 1168      2ECB8BAF 
 1168      33CA485E 
 1168      3C05
 1169 1347 36639273 		.ascii	"6c\222s\037\313\362\302^\352\023\220\364\012R\2177\214"
 1169      1FCBF2C2 
 1169      5EEA1390 
 1169      F40A528F 
 1169      378C
 1170 1359 BEC7CACF 		.ascii	"\276\307\312\317\013\260\332\276\247\026\376\275\303"
 1170      0BB0DABE 
 1170      A716FEBD 
 1170      C3
 1171 1366 2079DC95 		.ascii	" y\334\225]\334\225\351\216\017S\235PIbd\222\200\213"
 1171      5DDC95E9 
 1171      8E0F539D 
 1171      50496264 
 1171      92808B
 1172 1379 19D21B3B 		.ascii	"\031\322\033;q\336\011\327R\304%?\353l;\215-}\241&F"
 1172      71DE09D7 
 1172      52C4253F 
 1172      EB6C3B8D 
 1172      2D7DA126 
 1173 138e F7B33EFE 		.ascii	"\367\263>\376h\"\363\212I\320z\026;\\\025C\010\026{"
 1173      6822F38A 
 1173      49D07A16 
 1173      3B5C1543 
 1173      08167B
 1174 13a1 BC225909 		.ascii	"\274\"Y\011\361\025\037!WX\3611\352d\366RG\\\346\316"
 1174      F1151F21 
 1174      5758F131 
 1174      EA64F652 
 1174      475CE6CE 
 1175 13b5 3A0A090B 		.ascii	":\012\011\013a\302U\233e\256\002\365\322\307\3248<\246"
 1175      61C2559B 
 1175      65AE02F5 
 1175      D2C7D438 
 1175      3CA6
 1176 13c7 9E91C7D4 		.ascii	"\236\221\307\324s\256:\361\344\034xr\032<\370\002`\006"
 1176      73AE3AF1 
 1176      E41C7872 
 1176      1A3CF802 
 1176      6006
 1177 13d9 6001601E 		.ascii	"`\001`\036`\312\346\301=\317\262iV)\233\262Re;\226\207"
 1177      60CAE6C1 
 1177      3DCFB269 
 1177      56299BB2 
 1177      52653B96 
 1178 13ee EC9559BA 		.ascii	"\354\225Y\272\374O\277j\263\374W\240\026\033\313\360"
 1178      FC4FBF6A 
 1178      B3FC57A0 
 1178      161BCBF0 
 1179 13fe 58CA7D35 		.ascii	"X\312}5nd\011t\366\356\305\017e\371\343\2336G\2123R"
 1179      6E640974 
 1179      F6EEC50F 
 1179      65F9E39B 
 1179      36478A33 
 1180 1413 BD022D4A 		.ascii	"\275\002-J\3713\2734\177\254V\233\325\336\257l5\010"
ARM GAS  /tmp/ccWFeo0t.s 			page 95


 1180      F933BB34 
 1180      7FAC569B 
 1180      D5DEAF6C 
 1180      3508
 1181 1425 EF9CC885 		.ascii	"\357\234\310\205\031\\\007K\216\306\354\332\237\341"
 1181      195C074B 
 1181      8EC6ECDA 
 1181      9FE1
 1182 1433 5E763E91 		.ascii	"^v>\221t}\300\003\337d\310\375\222\256.\214o3\025\367"
 1182      747DC003 
 1182      DF64C8FD 
 1182      92AE2E8C 
 1182      6F3315F7 
 1183 1447 B48EBDEF 		.ascii	"\264\216\275\357\260\323\304\252\035~\243\327\365\026"
 1183      B0D3C4AA 
 1183      1D7EA3D7 
 1183      F516
 1184 1455 FBF444AD 		.ascii	"\373\364D\255E[\324K\032\015\356\210\251\274\215\020"
 1184      455BD44B 
 1184      1A0DEE88 
 1184      A9BC8D10 
 1185 1465 CCC114FB 		.ascii	"\314\301\024\373\245\012mS3\243\342AB\234Z\376\206\244"
 1185      A50A6D53 
 1185      33A3E241 
 1185      429C5AFE 
 1185      86A4
 1186 1477 E6AE6F2A 		.ascii	"\346\256o*\333^$\274c\2007\241u\270\207\365\324@\202"
 1186      DB5E24BC 
 1186      638037A1 
 1186      75B887F5 
 1186      D44082
 1187 148a 0C24F220 		.ascii	"\014$\362 \223)d\356\275n\015\216wg\2375uN\025b1\020"
 1187      932964EE 
 1187      BD6E0D8E 
 1187      77679F35 
 1187      754E1562 
 1188 14a0 96597798 		.ascii	"\226Yw\230\263\357\004\246\333%\305\011\003G\315}\007"
 1188      B3EF04A6 
 1188      DB25C509 
 1188      0347CD7D 
 1188      07
 1189 14b1 E8A8A4EF 		.ascii	"\350\250\244\357\274\340\334~,2\232\325\034k\250t\237"
 1189      BCE0DC7E 
 1189      2C329AD5 
 1189      1C6BA874 
 1189      9F
 1190 14c2 F2DB07FC 		.ascii	"\362\333\007\374\345\004\011\364\004\004:\031\216\326"
 1190      E50409F4 
 1190      04043A19 
 1190      8ED6
 1191 14d0 90DAD750 		.ascii	"\220\332\327P\372\015\232ZD\237h5\243\265J\276\212m"
 1191      FA0D9A5A 
 1191      449F6835 
 1191      A3B54ABE 
 1191      8A6D
 1192 14e2 1211A813 		.ascii	"\022\021\250\023\376\017!&{6\3278c\353;\227.\373\235"
 1192      FE0F2126 
ARM GAS  /tmp/ccWFeo0t.s 			page 96


 1192      7B36D738 
 1192      63EB3B97 
 1192      2EFB9D
 1193 14f5 A2277F22 		.ascii	"\242'\177\"\264\244[\335\346\264\326\276$\337;cN\271"
 1193      B4A45BDD 
 1193      E6B4D6BE 
 1193      24DF3B63 
 1193      4EB9
 1194 1507 944EAB25 		.ascii	"\224N\253%Y\275t\353\3252s\235\367^\362D\354\305vJ:"
 1194      59BD74EB 
 1194      D532739D 
 1194      F75EF244 
 1194      ECC5764A 
 1195 151c 7CDBD203 		.ascii	"|\333\322\003&w\023\223\243\270]\304\201{\300\201\273"
 1195      26771393 
 1195      A3B85DC4 
 1195      817BC081 
 1195      BB
 1196 152d D4AB5022 		.ascii	"\324\253P\"@\022@\002\300n\253CQ\303\226\230Iw\234\301"
 1196      40124002 
 1196      C06EAB43 
 1196      51C39698 
 1196      49779CC1 
 1197 1541 C2D677EC 		.ascii	"\302\326w\354V\256\274\377\006fN\220\372I\005V{\245"
 1197      56AEBCFF 
 1197      06664E90 
 1197      FA490556 
 1197      7BA5
 1198 1553 D025AB97 		.ascii	"\320%\253\227\324\217Ur\012H{E\311)\027f\257k\177\221"
 1198      D48F5572 
 1198      0A487B45 
 1198      C9291766 
 1198      AF6B7F91 
 1199 1567 6B1ECC26 		.ascii	"k\036\314&[H\177\001~\237QIWX\245Zy\252\310\025\262"
 1199      5B487F01 
 1199      7E9F5149 
 1199      5758A55A 
 1199      79AAC815 
 1200 157c 55A1FE05 		.ascii	"U\241\376\005\371\244\344\301\355)\333O_n\332\354\265"
 1200      F9A4E4C1 
 1200      ED29DB4F 
 1200      5F6EDAEC 
 1200      B5
 1201 158d A7A9E9AC 		.ascii	"\247\251\351\254\207\034\201\272*\253g\277\233V\366"
 1201      871C81BA 
 1201      2AAB67BF 
 1201      9B56F6
 1202 159c 711D69F9 		.ascii	"q\035i\371\022q\272\232|\202\342C\327\373dgjq\312\342"
 1202      1271BA9A 
 1202      7C82E243 
 1202      D7FB6467 
 1202      6A71CAE2 
 1203 15b0 C91E0B02 		.ascii	"\311\036\013\002\240\327\246\006\246\334\227'\320\301"
 1203      A0D7A606 
 1203      A6DC9727 
 1203      D0C1
 1204 15be 1658BBD2 		.ascii	"\026X\273\322/c^\300\340\0145\031\234\251^.\262\240"
ARM GAS  /tmp/ccWFeo0t.s 			page 97


 1204      2F635EC0 
 1204      E00C3519 
 1204      9CA95E2E 
 1204      B2A0
 1205 15d0 08E945B3 		.ascii	"\010\351E\263%\265\374\273M\015\231\310\335\236\272"
 1205      25B5FCBB 
 1205      4D0D99C8 
 1205      DD9EBA
 1206 15df E5E258FA 		.ascii	"\345\342X\372~Qz\226\232\212\237\210\3372\305?\326'"
 1206      7E517A96 
 1206      9A8A9F88 
 1206      DF32C53F 
 1206      D627
 1207 15f1 7344F1F3 		.ascii	"sD\361\363\346\225\354\363\346\255\331)cn\\\033\263"
 1207      E695ECF3 
 1207      E6ADD929 
 1207      636E5C1B 
 1207      B3
 1208 1602 A84DB6DA 		.ascii	"\250M\266\332\013\035\240\332\034\244\332\354g\332\034"
 1208      0B1DA0DA 
 1208      1CA4DAEC 
 1208      67DA1C
 1209 1611 A4DA241F 		.ascii	"\244\332$\037j\211\2035\260;\373\330d|g\033\342_\236"
 1209      6A898335 
 1209      B03BFBD8 
 1209      647C671B 
 1209      E25F9E
 1210 1624 3F7F18F8 		.ascii	"?\177\030\370\360\032yH\231\3151HMW\3239Rx\341Te]M\347"
 1210      F01A7948 
 1210      99CD3148 
 1210      4D57D339 
 1210      5278E154 
 1211 163c AAC9DCF6 		.ascii	"\252\311\334\366\334pI\243\007\276\3168\265\035\234"
 1211      DC7049A3 
 1211      07BECE38 
 1211      B51D9C
 1212 164b B1889C32 		.ascii	"\261\210\2342\247\276-\314\335Jw\355>\243\037}\243<"
 1212      A7BE2DCC 
 1212      DD4A77ED 
 1212      3EA31F7D 
 1212      A33C
 1213 165d 89519E9C 		.ascii	"\211Q\236\234\321!\312h\360\300\335$w<\306\030\305\355"
 1213      D121CA68 
 1213      F0C0DD24 
 1213      773CC618 
 1213      C5ED
 1214 166f 7CF8847F 		.ascii	"|\370\204\177\205n\271\262\201-\356\017\262\305\375"
 1214      856EB9B2 
 1214      812DEE0F 
 1214      B2C5FD
 1215 167e 6189CB61 		.ascii	"a\211\313a9\227|\312\345\352H\243?\236eL\216\224\354"
 1215      39977CCA 
 1215      E5EA48A3 
 1215      3F9E654C 
 1215      8E94EC
 1216 1691 2FF3C071 		.ascii	"/\363\300q\036\354c\272\3063\231d\367\011\025\322Ad"
 1216      1EEC63BA 
ARM GAS  /tmp/ccWFeo0t.s 			page 98


 1216      C6339964 
 1216      F70915D2 
 1216      4164
 1217 16a3 E9FF28AF 		.ascii	"\351\377(\257G\240\013\201F\353~ToO\316\373\016\227"
 1217      47A00B81 
 1217      46EB7E54 
 1217      6F4FCEFB 
 1217      0E97
 1218 16b5 01C56AB2 		.ascii	"\001\305j\262\014(R\363e\300\315G\343\243\256\334\330"
 1218      0C2852F3 
 1218      65C0CD47 
 1218      E3A3AEDC 
 1218      D8
 1219 16c6 81675FCF 		.ascii	"\201g_\317O\212n[I(Q\201\250':\242V\023LR\265\204\252"
 1219      4F8A6E5B 
 1219      49285181 
 1219      A8273AA2 
 1219      56134C52 
 1220 16dd DA1537B8 		.ascii	"\332\0257\270\323\015_\246\352\011G\316=\232\265v\305"
 1220      D30D5FA6 
 1220      EA0947CE 
 1220      3D9AB576 
 1220      C5
 1221 16ee C18CDC4F 		.ascii	"\301\214\334OjHG/\203\234?*\331\373XXR]\326wE\245PQ"
 1221      6A48472F 
 1221      839C3F2A 
 1221      D9FB5858 
 1221      525DD677 
 1222 1706 8EDE1591 		.ascii	"\216\336\025\221-\227\234\331,'\233\332(S\313k\343\030"
 1222      2D979CD9 
 1222      2C279BDA 
 1222      2853CB6B 
 1222      E318
 1223 1718 AF8D63B4 		.ascii	"\257\215c\2646\242\016\345\035\327\331P?\262\331 ,\347"
 1223      36A20EE5 
 1223      1DD7D950 
 1223      3FB2D920 
 1223      2CE7
 1224 172a D4E5947A 		.ascii	"\324\345\224zGy\3531\333\217\263RmxWp\352\012J\275\364"
 1224      4779EB31 
 1224      DB8FB352 
 1224      6D785770 
 1224      EA0A4ABD 
 1225 173f 2F43CA6D 		.ascii	"/C\312m\3762\244\222SWR\352'\223m\211\030\367\263\030"
 1225      FE32A492 
 1225      535752EA 
 1225      27936D89 
 1225      18F7B318 
 1226 1753 D6C7D425 		.ascii	"\326\307\324%8[\023u\315}\273D\255\222<U%ww5u\367\231"
 1226      385B1375 
 1226      CD7DBB44 
 1226      AD923C55 
 1226      25777735 
 1227 176a C99E1267 		.ascii	"\311\236\022g<\3068-\036;0\347bM\324\317\012l\023\265"
 1227      3CC6382D 
 1227      1E3B30E7 
 1227      624DD4CF 
ARM GAS  /tmp/ccWFeo0t.s 			page 99


 1227      0A6C13B5 
 1228 177e 46625423 		.ascii	"FbT#gt\2342:<5\275\335\003GyRF\317\366\237\337\207y"
 1228      67749C32 
 1228      3A3C35BD 
 1228      DD034779 
 1228      5246CFF6 
 1229 1796 A24EACB7 		.ascii	"\242N\254\267I\324\023\022\227\023r.\265\224Kr\365\376"
 1229      49D41312 
 1229      9713722E 
 1229      B5944B72 
 1229      F5FE
 1230 17a8 3477BC83 		.ascii	"4w\274\203qi\236Iy\301\266F\301\377<\025\323:[\333\035"
 1230      71699E49 
 1230      79C1B646 
 1230      C1FF3C15 
 1230      D33A5BDB 
 1231 17bd 2F491B68 		.ascii	"/I\033h.\326\213\271\230\026;\366T\364Lz\356\367\005"
 1231      2ED68BB9 
 1231      98163BF6 
 1231      54F44C7A 
 1231      EEF705
 1232 17d0 6CCFBD51 		.ascii	"l\317\275QM\350P\235\244H\235\\\221\223T\221\262\254"
 1232      4DE8509D 
 1232      A4489D5C 
 1232      91935491 
 1232      B2AC
 1233 17e2 53077438 		.ascii	"S\007t8\213)\322\232\364|H\364\313\342\354\307\373s"
 1233      8B29D29A 
 1233      F47C48F4 
 1233      CBE2ECC7 
 1233      FB73
 1234 17f4 2FEE3067 		.ascii	"/\3560gG\231?\376\214\356\273\237\222\030\235\2223\262"
 1234      47993FFE 
 1234      8CEEBB9F 
 1234      92189D92 
 1234      33B2
 1235 1806 5046A793 		.ascii	"PF\247\223\257\017:\375\374 \313\316x\250\264\257^\243"
 1235      AF0F3AFD 
 1235      FC20CBCE 
 1235      78A8B4AF 
 1235      5EA3
 1236 1818 7FA0C256 		.ascii	"\177\240\302V\302\247\325?'\215\253\273%\0279\244i\244"
 1236      C2A7D53F 
 1236      278DABBB 
 1236      251739A4 
 1236      69A4
 1237 182a 3473D10F 		.ascii	"4s\321\017\267i\031\315`\367\360\177\2116oA\266dg(Y"
 1237      B76919CD 
 1237      60F7F07F 
 1237      89366F41 
 1237      B6646728 
 1238 183f DAE0A134 		.ascii	"\332\340\2414.\316r\371\265x\301\226\246\211\322\034"
 1238      2ECE72F9 
 1238      B578C196 
 1238      A689D21C 
 1239 184f 7A716454 		.ascii	"zqdT\244\251]Bs\226\322$7\036Yt\266\311\307H\233\354"
 1239      A4A95D42 
ARM GAS  /tmp/ccWFeo0t.s 			page 100


 1239      7396D224 
 1239      371E5974 
 1239      B6C9C748 
 1240 1865 6DE6F9D8 		.ascii	"m\346\371\330L\3631\371\376\203L\214\213\230\267J\257"
 1240      4CF331F9 
 1240      FE834C8C 
 1240      8B98B74A 
 1240      AF
 1241 1876 A627B1FD 		.ascii	"\246'\261\375\2054k\330\242\312\307\022\035\357\023"
 1241      85346BD8 
 1241      A2CAC712 
 1241      1DEF13
 1242 1885 9EA3616B 		.ascii	"\236\243ak\265\206\355\356\203\375\316Vw\177\266=\272"
 1242      B586EDEE 
 1242      83FDCE56 
 1242      777FB63D 
 1242      BA
 1243 1896 4D743710 		.ascii	"Mt7\020\242\026\311\335-rw\237\247\356\236\312<\321"
 1243      A216C9DD 
 1243      2D72779F 
 1243      A7EE9ECA 
 1243      3CD1
 1244 18a8 E48EAB99 		.ascii	"\344\216\253\231&\007\333\307S\264\270\211!W{cN\360"
 1244      2607DBC7 
 1244      53B4B889 
 1244      21577B63 
 1244      4EF0
 1245 18ba 2FCEDDE8 		.ascii	"/\316\335\350v\305B\243\247\343G\315E\361Q\323\316\036"
 1245      76C542A3 
 1245      A7E347CD 
 1245      45F151D3 
 1245      CE1E
 1246 18cc 35D1E6D8 		.ascii	"5\321\346\330yd\3770\021\333\214\012u\320\207\011\035"
 1246      7964FF30 
 1246      11DB8C0A 
 1246      75D08709 
 1246      1D
 1247 18dd 44574B3B 		.ascii	"DWK;\213\0334r\352\334\227Q\337H}R\204\340\271\336I"
 1247      8B1B3472 
 1247      EADC9751 
 1247      DF487D52 
 1247      84E0B9DE 
 1248 18f2 9EEBD33F 		.ascii	"\236\353\323?K2\307\3543\253Q\247z9\272\000\266\356"
 1248      4B32C7EC 
 1248      33AB51A7 
 1248      7A39BA00 
 1248      B6EE
 1249 1904 C06FCA86 		.ascii	"\300o\312\206\266\301\225?@\206\\\242\317\366\233\371"
 1249      B6C1953F 
 1249      40865CA2 
 1249      CFF69BF9 
 1250 1914 CFEFE870 		.ascii	"\317\357\350p;3p[K\17777\360'\200\026\267\267\334\344"
 1250      3B33705B 
 1250      4B7F3737 
 1250      F0278016 
 1250      B7B7DCE4 
 1251 1928 DF336E23 		.ascii	"\3373n#k\264t\363\326\243\330\261\301\335\242\301\235"
ARM GAS  /tmp/ccWFeo0t.s 			page 101


 1251      6BB474F3 
 1251      D6A3D8B1 
 1251      C1DDA2C1 
 1251      9D
 1252 1939 ECA5C9E9 		.ascii	"\354\245\311\351}O&=\354\015\276\002O\317.\372\364\354"
 1252      7D4F263D 
 1252      EC0DBE02 
 1252      4FCF2EFA 
 1252      F4EC
 1253 194b A126748B 		.ascii	"\241&t\213&\\\214\271q\336\323\336`\207\324'+\0322\\"
 1253      265C8CB9 
 1253      71DED3DE 
 1253      6087D427 
 1253      2B1A325C 
 1254 195f 98C196F4 		.ascii	"\230\301\226\364/\266\225\221\367n\334\332]`\2554\356"
 1254      2FB69591 
 1254      F76EDCDA 
 1254      5D60AD34 
 1254      EE
 1255 1970 32B7F61A 		.ascii	"2\267\366\032\265\266*\355\316\270m\217$[\307\262O~"
 1255      B5B62AED 
 1255      CEB86D8F 
 1255      245BC7B2 
 1255      4F7E
 1256 1982 784EF6D2 		.ascii	"xN\366\322\234\214l\316\217v\3067\034\347d\303\323\316"
 1256      9C8C6CCE 
 1256      8F76C637 
 1256      1CE764C3 
 1256      D3CE
 1257 1994 2D1AC7AF 		.ascii	"-\032\307\257\357n\322\244\274!&ea\334\301y\301\232"
 1257      EF6ED2A4 
 1257      BC212665 
 1257      61DCC179 
 1257      C19A
 1258 19a6 94611952 		.ascii	"\224a\031R\017\000Bt]J\312\353\362\244\354\243I\331"
 1258      0F004274 
 1258      5D4ACAEB 
 1258      F2A4ECA3 
 1258      49D9
 1259 19b8 70B02ECA 		.ascii	"p\260.\312ST<\341\245\177\366\327Ou\317y\272k\320\366"
 1259      53543CE1 
 1259      A57FF6D7 
 1259      4F75CF79 
 1259      BA6BD0F6 
 1260 19cc 03C3CB36 		.ascii	"\003\303\3136\226\016pK\007(\365\361\276\255q\266~I"
 1260      960E704B 
 1260      0728F5F1 
 1260      BEAD71B6 
 1260      7E49
 1261 19de B4A11EE4 		.ascii	"\264\241\036\344\324\203\224\272m\342\350IO\033j\"^"
 1261      D48394BA 
 1261      6DE2E849 
 1261      4F1B6A22 
 1261      5E
 1262 19ef A21EE2D4 		.ascii	"\242\036\342\324C\224z\347\271\353\367\264+\370\303"
 1262      43947AE7 
 1262      B9EBF7B4 
ARM GAS  /tmp/ccWFeo0t.s 			page 102


 1262      2BF8C3
 1263 19fe D5E2705F 		.ascii	"\325\342p_V\345pS\226<\333\032\332\242\2656\022o\331"
 1263      56E57053 
 1263      963CDB1A 
 1263      DAA2B536 
 1263      126FD9
 1264 1a11 F492DB5C 		.ascii	"\364\222\333\\\342m*1\276O\366\251\366\022g\331\355"
 1264      E26D2A31 
 1264      BE4FF6A9 
 1264      F61267D9 
 1264      ED
 1265 1a22 D1A3613A 		.ascii	"\321\243a:\246\"\346\356\234\273\215\2046\033\017\334"
 1265      A622E6EE 
 1265      9CBB8D84 
 1265      361B0FDC 
 1266 1a32 E112EE50 		.ascii	"\341\022\356P\352\216\266\256*w<\3122#\367\301\2113"
 1266      EA8EB6AE 
 1266      2A773CCA 
 1266      3223F7C1 
 1266      8933
 1267 1a44 FC0F9FDC 		.ascii	"\374\017\237\334IE\345$\037R\263\252\271Gno\335\327"
 1267      4945E524 
 1267      1F52B3AA 
 1267      B9476E6F 
 1267      DDD7
 1268 1a56 5CE3EAB8 		.ascii	"\\\343\352\270j\356\213U3\306\252f\242\377\316*\373"
 1268      6AEE8B55 
 1268      33C6AA66 
 1268      A2FFCE2A 
 1268      FB
 1269 1a67 A2B907E9 		.ascii	"\242\271\007\351|\227\246\363\003Z\006\367\3052\250"
 1269      7C97A6F3 
 1269      035A06F7 
 1269      C532A8
 1270 1a76 ABBDD9EB 		.ascii	"\253\275\331\353d_4\016\251\257=/\254\325\211]\"\357"
 1270      645F340E 
 1270      A9AF3D2F 
 1270      ACD5895D 
 1270      22EF
 1271 1a88 43DE251E 		.ascii	"C\336%\036\362\2729\000u#\015\035\341u\363\210\326\315"
 1271      F2BA3900 
 1271      75230D1D 
 1271      E175F388 
 1271      D6CD
 1272 1a9a EC9DD2BB 		.ascii	"\354\235\322\273\266\363\226*\233\364\033\345\336\031"
 1272      B6F3962A 
 1272      9BF41BE5 
 1272      DE19
 1273 1aa8 A5DE3913 		.ascii	"\245\3369\023S\273\350\211g\231w\366\354\273?\356d\315"
 1273      53BBE889 
 1273      679977F6 
 1273      ECBB3FEE 
 1273      64CD
 1274 1aba FA6F0BC4 		.ascii	"\372o\013\304V\334\312\336\263=\226\315\302\344i?\246"
 1274      56DCCADE 
 1274      B33D96CD 
 1274      C2E4693F 
ARM GAS  /tmp/ccWFeo0t.s 			page 103


 1274      A6
 1275 1acb 7E53E5F2 		.ascii	"~S\345\362\273\177\374\362\215O\337}W\245\331\344\373"
 1275      BB7FFCF2 
 1275      8D4FDF7D 
 1275      57A5D9E4 
 1275      FB
 1276 1adc 9D2122CC 		.ascii	"\235!\"\314k\365j\037\366?4\334\307h\362\0117\372\371"
 1276      6BF56A1F 
 1276      F63F34DC 
 1276      C768F209 
 1276      37FAF9
 1277 1aef F80584FB 		.ascii	"\370\005\204\373\005\370\257\366S\2713\232\325a\276"
 1277      05F8AFF6 
 1277      53B9339A 
 1277      D561BE
 1278 1afe 46D3EAF7 		.ascii	"F\323\352\367<\365p\331\340\037\021d0\352\003C\002M"
 1278      3CF570D9 
 1278      E01F1164 
 1278      30EA0343 
 1278      024D
 1279 1b10 6E7E016B 		.ascii	"n~\001k\375\002\2760\370\372o^\343b4\370\006\205\031"
 1279      FD02BE30 
 1279      F8FA6F5E 
 1279      E36234F8 
 1279      068519
 1280 1b23 0343B57A 		.ascii	"\003C\265z}D`\210\351\375\367\364&\203O@h\260\301\307"
 1280      7D446088 
 1280      E9FDF7F4 
 1280      26834F40 
 1280      68B0C1C7 
 1281 1b37 DF3724D0 		.ascii	"\3377$\320\020\344\363\233\340u\006\177\177\203\377"
 1281      10E4F39B 
 1281      E075067F 
 1281      7F83FF
 1282 1b46 27C6609F 		.ascii	"'\306`\237\015~~o\373\032\203\337\016\011\0151\274m"
 1282      0D7E7E6F 
 1282      FB1A83DF 
 1282      0E090D31 
 1282      BC6D
 1283 1b58 F05D17F8 		.ascii	"\360]\027\370\366/\365\037\274\375\336;\357~\370\375"
 1283      F62FF51F 
 1283      BCFDDE3B 
 1283      EF7EF8FD 
 1284 1b68 FB3E3637 		.ascii	"\373>67|\002C\374\202\"\374\015>\301\276~\001\201!\006"
 1284      7C0243FC 
 1284      8222FC0D 
 1284      3EC1BE7E 
 1284      01812106 
 1285 1b7c 1FBDBF61 		.ascii	"\037\275\277a\275oD\220Io\332\034f\010_\035\240r\021"
 1285      BD6F4490 
 1285      496FDA1C 
 1285      66085F1D 
 1285      A07211
 1286 1b8f C5FDE9FF 		.ascii	"\305\375\351\377\247\270\360\315\341>\372p\223?\360"
 1286      A7B8F0CD 
 1286      E13EFA70 
 1286      933FF0
ARM GAS  /tmp/ccWFeo0t.s 			page 104


 1287 1b9e 0619CE26 		.ascii	"\006\031\316&b\232\336\364\221\334Y~\241\301\301\241"
 1287      629ADEF4 
 1287      91DC597E 
 1287      A1C1C1A1 
 1288 1bae 213E61A1 		.ascii	"!>a\241FS\270\317'_\374\376\323\337\377@\256\205\005"
 1288      4653B8CF 
 1288      275FFCFE 
 1288      D3DFFF40 
 1288      AE8505
 1289 1bc1 827FC27D 		.ascii	"\202\177\302}~\367\351\247\340GQI\347`\323\017A\201"
 1289      7EF7E9A7 
 1289      E0475149 
 1289      E760D30F 
 1289      4181
 1290 1bd3 E1267588 		.ascii	"\341&u\210\341\007\223S\350\246\020\203\321\351\373"
 1290      E1079353 
 1290      E8A61083 
 1290      D1E9FB
 1291 1be2 08438461 		.ascii	"\010C\204a\231_\200\336\024\000\316\363\017\327\323"
 1291      995F80DE 
 1291      1400CEF3 
 1291      0FD7D3
 1292 1bf1 0BEA30A3 		.ascii	"\013\3520\243a\243\247\315%\275\31198\302d\370Aor\001"
 1292      61A3A7CD 
 1292      25BDC939 
 1292      38C264F8 
 1292      416F7201 
 1293 1c05 6A7AEA62 		.ascii	"jz\352b\0103\204\200r\033\334\014\033\015!\246`\337"
 1293      08338480 
 1293      721BDC0C 
 1293      1B0D21A6 
 1293      60DF
 1294 1c17 F0EFE06E 		.ascii	"\360\357\340np\370\006:\300y\223o\240\011nz\312\230"
 1294      70F8063A 
 1294      C079936F 
 1294      A0096E7A 
 1294      CA98
 1295 1c29 13E91E72 		.ascii	"\023\351\036rDoB\021\032\303&2T\263\311\004\372\205"
 1295      446F4211 
 1295      1AC32632 
 1295      54B3C904 
 1295      FA85
 1296 1c3b C121DC10 		.ascii	"\301!\334\020\034\206\375BL\256z=\367\2523?:\301U\275"
 1296      1C86FD42 
 1296      4CAE7A3D 
 1296      F7AA333F 
 1296      3AC155BD 
 1297 1c4f 49071C81 		.ascii	"I\007\034\201\3067, \324hp\016'\242\30378\001\000\301"
 1297      C6372C20 
 1297      D468700E 
 1297      27A2C337 
 1297      380100C1 
 1298 1c63 2693C918 		.ascii	"&\223\311\030\266\234\211\320\033\015\353\015FC\210"
 1298      B69C89D0 
 1298      1B0DEB0D 
 1298      464388
 1299 1c72 1F280F6C 		.ascii	"\037(\017lC\327\375%\314\305\360C\240\311/\324\337\240"
ARM GAS  /tmp/ccWFeo0t.s 			page 105


 1299      43D7FD25 
 1299      CCC5F043 
 1299      A0C92FD4 
 1299      DFA0
 1300 1c84 31FA6F86 		.ascii	"1\372o\206\021j \011we\331\362\021\310\021\217&r\035"
 1300      116A2009 
 1300      7765D9F2 
