ARM GAS  /tmp/ccOxO95O.s 			page 1


   1              		.syntax unified
   2              		.cpu cortex-m4
   3              		.fpu softvfp
   4              		.eabi_attribute 20, 1
   5              		.eabi_attribute 21, 1
   6              		.eabi_attribute 23, 3
   7              		.eabi_attribute 24, 1
   8              		.eabi_attribute 25, 1
   9              		.eabi_attribute 26, 1
  10              		.eabi_attribute 30, 2
  11              		.eabi_attribute 34, 1
  12              		.eabi_attribute 18, 4
  13              		.thumb
  14              		.syntax unified
  15              		.file	"chsem.c"
  16              		.text
  17              	.Ltext0:
  18              		.section	.gnu.lto_.profile.b2d60e8ac4ac89bf,"",%progbits
  19 0000 789C6361 		.ascii	"x\234ca`d`c`\000\222\347\23162\002\000\0059\001\220"
  19      60646063 
  19      600092E7 
  19      99363202 
  19      00053901 
  20              		.text
  21              		.section	.gnu.lto_.icf.b2d60e8ac4ac89bf,"",%progbits
  22 0000 789C6361 		.ascii	"x\234ca`d\000\201P\006\004\340c\230\274\247\361\026"
  22      60640081 
  22      500604E0 
  22      6398BCA7 
  22      F116
  23 0012 33D3BDFF 		.ascii	"3\323\275\377{k\230\257\354\2369\225\221e\337\237-S"
  23      7B6B98AF 
  23      EC9E3995 
  23      9165DF9F 
  23      2D53
  24 0024 595867EE 		.ascii	"YXg\356hi\347g;\367\354\314>V\366\313{/.\347\343X\366"
  24      6869E767 
  24      3BF7ECCC 
  24      3E56F6CB 
  24      7B2F2EE7 
  25 003b B6E5270F 		.ascii	"\266\345'\017\347\217E\337^\261p}mk\337\310\312\275"
  25      E78F45DF 
  25      5EB1707D 
  25      6D6BDFC8 
  25      CABD
  26 004d E2C59549 		.ascii	"\342\305\225I\214</?\356\375\312\317{\344\312\367\313"
  26      8C3C2F3F 
  26      EEFDCACF 
  26      7BE4CAF7 
  26      CB
  27 005e FC7C0B5A 		.ascii	"\374|\013Zo\335\345g\000\0008d+]"
  27      6FDDE567 
  27      00003864 
  27      2B5D
  28              		.text
  29              		.section	.gnu.lto_.jmpfuncs.b2d60e8ac4ac89bf,"",%progbits
  30 0000 789C6D8F 		.ascii	"x\234m\217;\016\302@\014Dg\274\016\004Hr\002.\232j\253"
ARM GAS  /tmp/ccOxO95O.s 			page 2


  30      3B0EC240 
  30      0C4467BC 
  30      0E044872 
  30      022E9A6A 
  31 0015 DC830209 		.ascii	"\334\203\002\011:j\270\001w\241L\203D$\3545(A\302\315"
  31      3A6AB801 
  31      77A14C83 
  31      4424EC35 
  31      2841C2CD 
  32 0029 8E3F6F46 		.ascii	"\216?oF\253 \274F\314\325\201d\026N\302\373\361\366"
  32      AB20BC46 
  32      CCD58164 
  32      164EC2FB 
  32      F1F6
  33 003b 6A461912 		.ascii	"jF\031\022X\361\304= B\246L\345\247\355\235O\0050\354"
  33      58F1C43D 
  33      2042A64C 
  33      E5A7ED9D 
  33      4F0530EC 
  34 004f 20065D1E 		.ascii	" \006]\036\327g\353\020\011\236\355J\013\223\253x\304"
  34      D767EB10 
  34      099EED4A 
  34      0B93AB78 
  34      C4
  35 0060 80954B5B 		.ascii	"\200\225K[\253\364\236\030.\353\342\022\223z\2417\301"
  35      ABF49E18 
  35      2EEBE212 
  35      937AA137 
  35      C1
  36 0071 FDDC6EFF 		.ascii	"\375\334n\377\314v\316\250\011\226T4\013\217v\316\356"
  36      CC76CEA8 
  36      09965434 
  36      0B8F76CE 
  36      EE
  37 0082 4242BE5F 		.ascii	"BB\276_\360\375\033\325\031 2"
  37      F0FD1BD5 
  37      192032
  38              		.text
  39              		.section	.gnu.lto_.inline.b2d60e8ac4ac89bf,"",%progbits
  40 0000 789C8592 		.ascii	"x\234\205\222\277J\003A\020\306\277\331\335\313\335"
  40      BF4A0341 
  40      10C6BFD9 
  40      DDCBDD
  41 000f DEBF5C22 		.ascii	"\336\277\\\"D\220@.6\202\205`\223:`\177o`\251\205>\203"
  41      4490402E 
  41      36828560 
  41      933A607F 
  41      6F60A985 
  42 0025 208292F2 		.ascii	" \202\222\362\036!\235`c\233\364\261\261K\027\254,\005"
  42      1E219D60 
  42      639BF4B1 
  42      B14B17AC 
  42      2C05
  43 0037 452C6C14 		.ascii	"E,l\024\004\347v/\227\273B\\\216Y\330o\366\267\337\314"
  43      04E7762F 
  43      97BB425C 
  43      8E59D86F 
ARM GAS  /tmp/ccOxO95O.s 			page 3


  43      F6B7DFCC 
  44 004b 9C02A158 		.ascii	"\234\002\241X'\002\325\212\371\353\021!eI$\227\027\360"
  44      2702D58A 
  44      F9EB1121 
  44      65492497 
  44      17F0
  45 005d 3E0E8C2C 		.ascii	">\016\214,\002p\272\250\251\341\363q\245\252\210\017"
  45      0270BAA8 
  45      A9E1F371 
  45      A5AA880F 
  46 006d 9067127E 		.ascii	"\220g\022~\227\204\321\213 \241\334\325\010\356dO\200"
  46      9784D18B 
  46      20A1DCD5 
  46      08EE644F 
  46      80
  47 007e 5E5CCFC6 		.ascii	"^\\\317\306\012\227g\012-g\315\223\263m\350\325\310"
  47      0A97670A 
  47      2D67CD93 
  47      B36DE8D5 
  47      C8
  48 008f F01C244B 		.ascii	"\360\034$K\262 96\262j?N4\364\315\003\031\210\262\021"
  48      B2203936 
  48      B26A3F4E 
  48      34F4CD03 
  48      1988B211 
  49 00a3 8A936548 		.ascii	"\212\223eH\005\253\005\275\303\016\325t\200\326t`0\344"
  49      05AB05BD 
  49      C30ED574 
  49      80D67460 
  49      30E4
  50 00b5 1B99E179 		.ascii	"\033\231\341y\226g.\242\200\232\276\013\215\257z\010"
  50      96672EA2 
  50      809ABE0B 
  50      8DAF7A08 
  51 00c5 B4B521C7 		.ascii	"\264\265!\307\212\271\225c~\206\013P\265T\215NL\222"
  51      8AB99563 
  51      7E860B50 
  51      B5548D4E 
  51      4C92
  52 00d7 D2B31F41 		.ascii	"\322\263\037A\367o\363\257\350S\\K\301\006n\251\017"
  52      F76FF3AF 
  52      E8535C4B 
  52      C1066EA9 
  52      0F
  53 00e8 4ACFCB9D 		.ascii	"J\317\313\235\035;\325Cj\026$\240a\341y\250\312vy\326"
  53      1D3BD543 
  53      6A1624A0 
  53      61E179A8 
  53      CA7679D6 
  54 00fc 938F7648 		.ascii	"\223\217vH\212q\215\373\326\211\241\270u;\211\261\223"
  54      8A718DFB 
  54      D689A1B8 
  54      753B89B1 
  54      93
  55 010d 14C0F40F 		.ascii	"\024\300\364\017`\200N\270\356h\367\351\024\376\373"
  55      60804EB8 
  55      EE68F7E9 
ARM GAS  /tmp/ccOxO95O.s 			page 4


  55      14FEFB
  56 011c 61552927 		.ascii	"aU)' \204\377o\251\345p\"l\275\242\234\246\361\"zW\013"
  56      2084FF6F 
  56      A9E57022 
  56      6CBDA29C 
  56      A6F1227A 
  57 0132 0DFF7BC9 		.ascii	"\015\377{\311\207\336\246\3611v\373\215\264\375\273"
  57      87DEA6F1 
  57      3176FB8D 
  57      B4FDBB
  58 0141 39215E1C 		.ascii	"9!^\034mf`\377\236\262\205\370\005Z\205LO"
  58      6D6660FF 
  58      9EB285F8 
  58      055A854C 
  58      4F
  59              		.text
  60              		.section	.gnu.lto_.pureconst.b2d60e8ac4ac89bf,"",%progbits
  61 0000 789C05C1 		.ascii	"x\234\005\301\301\001\200 \000\003\261\026A\004\225"
  61      C1018020 
  61      0003B116 
  61      410495
  62 000f 01EEC9FE 		.ascii	"\001\356\311\376\023t:\222*kKZ\242pQi\334q\217\037F"
  62      13743A92 
  62      2A6B4B5A 
  62      A2705169 
  62      DC718F1F 
  63 0024 3C79E38F 		.ascii	"<y\343\217\237\025\037OU\005/"
  63      9F151F4F 
  63      55052F
  64              		.text
  65              		.section	.gnu.lto_chSemWaitS.part.0.b2d60e8ac4ac89bf,"",%progbits
  66 0000 789C9554 		.ascii	"x\234\225TIO\024Q\020~\337{\335\323\303*'/\242b\242"
  66      494F1451 
  66      107EDF7B 
  66      DDD3C32A 
  66      272FA262 
  67 0015 311CA44F 		.ascii	"1\034\244O\036\214\177\300\213\0279y\036L0qA\301\233"
  67      1E8C7FC0 
  67      8B173979 
  67      1E4C3071 
  67      41C19B
  68 0028 669A195A 		.ascii	"f\232\031Z .!&\022\001\2151B\334P\031Wf\334\006\301"
  68      202E2126 
  68      12018D31 
  68      42DC5019 
  68      5766DC06 
  69 003d 5D36153D 		.ascii	"]6\025=\270\004wc4q\214Fct\306\252\327\240\003\314\270"
  69      B8047763 
  69      34718C46 
  69      6374C6AA 
  69      D7A003CC 
  70 0052 74BAFBED 		.ascii	"t\272\373\355\337W_U\2752\004\004?\333|B,\241v\001}"
  70      DF575F55 
  70      BD320404 
  70      3FDB7C42 
  70      2CA17601 
  71 0067 30058CA6 		.ascii	"0\005\214\246\001\352\030\220\272\225P\334\326\372\025"
ARM GAS  /tmp/ccOxO95O.s 			page 5


  71      01EA1890 
  71      BA9550DC 
  71      D6FA15
  72 0076 C01DC70F 		.ascii	"\300\035\307\017\0214\244B\020\237\345\017\211\341\272"
  72      1134A442 
  72      109FE50F 
  72      89E1BA
  73 0085 AEDDEA93 		.ascii	"\256\335\352\223t\025\035\241a\242\277\365y!\017\201"
  73      74151DA1 
  73      61A2BFF5 
  73      79210F81 
  74 0095 121ABE88 		.ascii	"\022\032\276\210n~o\224\036p\350\031\355x\276\250\345"
  74      6E7E6F94 
  74      1E70E819 
  74      ED78BEA8 
  74      E5
  75 00a6 60DC7095 		.ascii	"`\334p\225\024))p\020\3058\200b&=\204R\332\273\243s"
  75      14292970 
  75      10C53880 
  75      62263D84 
  75      52DABBA3 
  76 00bb E8814FCD 		.ascii	"\350\201O\315\202\240~}c\377\0269\277\303qB\216\223"
  76      82A07E7D 
  76      63FF1639 
  76      BFC37142 
  76      8E93
  77 00cd AA70725C 		.ascii	"\252pr\\\245p\030*\375\034M\011\034\301|\336\376,\222"
  77      A570182A 
  77      FD1C4D09 
  77      1CC17CDE 
  77      FE2C92
  78 00e0 DC59E0AB 		.ascii	"\334Y\340\253c\232\022\006'\314N\370H\036\032\2258\276"
  78      639A1206 
  78      27CC4EF8 
  78      481E1A95 
  78      38BE
  79 00f2 8C305261 		.ascii	"\2140Ra\247\351\334LL\003\2353$\370\240\242\256i\360"
  79      A7E9DC4C 
  79      4C039D33 
  79      24F8A0A2 
  79      AE69F0
  80 0105 D8E49F8F 		.ascii	"\330\344\237\217~\322\342\237\020\037\350c\261\037\244"
  80      7ED2E29F 
  80      101FE863 
  80      B11FA4
  81 0114 C1AD4A48 		.ascii	"\301\255JH\251\333W\010\305\"\203\345\014\036V \342"
  81      A9DB5708 
  81      C52283E5 
  81      0C1E5620 
  81      E2
  82 0125 66F7F2A0 		.ascii	"f\367\362\240\305r}\332\354h\364\335C+\370\303ip\234"
  82      C5727DDA 
  82      EC68F4DD 
  82      432BF8C3 
  82      69709C
  83 0138 229A6B54 		.ascii	"\"\232kTd\002M\277\275=\322\227\273\027{j\035=o\341"
  83      64024DBF 
ARM GAS  /tmp/ccOxO95O.s 			page 6


  83      BD3DD297 
  83      BB177B6A 
  83      1D3D6FE1 
  84 014c 1879EF28 		.ascii	"\030y\357(k\247\305\355\335]\215~{\201\253\3748\216"
  84      6BA7C5ED 
  84      DD5D8D7E 
  84      7B81ABFC 
  84      388E
  85 015e BD48B2F5 		.ascii	"\275H\262\365<\177e\353p\273\2367\320\005;)9X\210\300"
  85      3C7F65EB 
  85      70BB9E37 
  85      D0053B29 
  85      395888C0 
  86 0172 166444EB 		.ascii	"\026dD\353\323\351lC\272\001\2066\340\313\265\233\015"
  86      D3E96C43 
  86      BA018636 
  86      E0CBB59B 
  86      0D
  87 0183 F9BF9972 		.ascii	"\371\277\231r\310J\234\030#\352x\021:f\331G\331I\316"
  87      C84A9C18 
  87      23EA7811 
  87      3A66D947 
  87      D949CE
  88 0196 4257E5E2 		.ascii	"BW\345\342\244\246\223\036\335\335&g\027\306V\027\273"
  88      A4A6931E 
  88      DDDD2667 
  88      17C65617 
  88      BB
  89 01a7 2A0FA798 		.ascii	"*\017\247\230T1\351i\330a\362\012\361~\253OFs=\365*"
  89      5431E969 
  89      D861F20A 
  89      F17EAB4F 
  89      46733DF5 
  90 01bc 9D5C6522 		.ascii	"\235\\e\"\317\247C83\201\234\324\024\340\254\2465<\332"
  90      CFA74338 
  90      33819CD4 
  90      14E0ACA6 
  90      353CDA
  91 01cf 87ED3DED 		.ascii	"\207\355=\355y\301M\024\011t\2236\201(\202\342\031e"
  91      79C14D14 
  91      09749336 
  91      812882E2 
  91      1965
  92 01e1 9D27AFEF 		.ascii	"\235'\257\357\345\367;yj\216\206\257=\322\266;\177\336"
  92      E5F73B79 
  92      6A8E86AF 
  92      3DD2B63B 
  92      7FDE
  93 01f3 7ECE8978 		.ascii	"~\316\211x\333\200jq\342u%\254;61/\370\3019\314#\351"
  93      DB806A71 
  93      E27525AC 
  93      3B36312F 
  93      F8C139CC 
  94 0209 04148A5F 		.ascii	"\004\024\212_\032\030\007{\324\366$\231\243\346j\260"
  94      1A18077B 
  94      D4F62499 
  94      A3E66AB0 
ARM GAS  /tmp/ccOxO95O.s 			page 7


  95 0219 5EB72764 		.ascii	"^\267'dM\0013q>\003\330\005\006S\332\357\321\316\356"
  95      4D013371 
  95      3E03D805 
  95      0653DAEF 
  95      D1CEEE
  96 022c 935F3131 		.ascii	"\223_11\343\342\267(#h\017\223\352\274KILIJ\\\004]3"
  96      E3E2B728 
  96      23680F93 
  96      EABC4B49 
  96      4C494A5C 
  97 0243 5CD286FC 		.ascii	"\\\322\206\374c\224F\273\236.\005{,\256=fz \223b\265"
  97      639446BB 
  97      9E2E057B 
  97      2CAE3D66 
  97      7A209362 
  98 0258 885DD0C3 		.ascii	"\210]\320\303\261\362y\353\270\314\341\322\346\306\022"
  98      B1F279EB 
  98      B8CCE1D2 
  98      E6C612
  99 0267 8F5A9AC1 		.ascii	"\217Z\232\301\244ae\244\307\313\314\024\257\002\216"
  99      A46165A4 
  99      C7CBCC14 
  99      AF028E
 100 0276 57EFE478 		.ascii	"W\357\344x\031\350\323\354\326\030\372\025/\003\233"
 100      19E8D3EC 
 100      D618FA15 
 100      2F039B
 101 0285 F7CDFE3F 		.ascii	"\367\315\376?1N\036+\271\3727%\327X\3118\327uVbh\307"
 101      314E1E2B 
 101      B9FA3725 
 101      D758C938 
 101      D7755662 
 102 029b 471EB76C 		.ascii	"G\036\267l\314Jhd$,g\302\033\177 \\\307\2047\323]w\213"
 102      CC4A6864 
 102      242C67C2 
 102      1B7F205C 
 102      C78437D3 
 103 02b2 09A10913 		.ascii	"\011\241\011\023Y\0113\370\311\303+`\274\333\023\274"
 103      590933F8 
 103      C9C32B60 
 103      BCDB13BC 
 104 02c2 D5EF0152 		.ascii	"\325\357\001R\036\216\276|]\252\213\022g\311x\206s\332"
 104      1E8EBE7C 
 104      5DAA8B12 
 104      67C97886 
 104      73DA
 105 02d4 08F10675 		.ascii	"\010\361\006u\361\241B\036O\255!\205)\276\240\030\240"
 105      F1A1421E 
 105      4FAD2185 
 105      29BEA018 
 105      A0
 106 02e5 5B416B37 		.ascii	"[Ak7\332c\337\3639\200\323`b\020\305\256*\322q\216\214"
 106      DA63DFF3 
 106      3980D360 
 106      6210C5AE 
 106      2AD2718E 
 107 02fa F42AEF5A 		.ascii	"\364*\357Z\232\377Q\205\2062W\241\341,U\350\316\257"
ARM GAS  /tmp/ccOxO95O.s 			page 8


 107      9AFF5185 
 107      863257A1 
 107      E12C55E8 
 107      CEAF
 108 030c 2A74D7CB 		.ascii	"*t\327\313\201\030<\316\314A1\263\005%\027\367\262\025"
 108      81183CCE 
 108      CC4131B3 
 108      052517F7 
 108      B215
 109 031e 9EE5547D 		.ascii	"\236\345T}1\302<~\346\271\317\025A$\250\012q\361}\213"
 109      31C23C7E 
 109      E6B9CF15 
 109      4124A80A 
 109      71F17D8B 
 110 0332 5091082B 		.ascii	"P\221\010+\213\246>\302\"Zy]Q\205\006/\022\326\214\262"
 110      8BA63EC2 
 110      225A795D 
 110      5185062F 
 110      12D68CB2 
 111 0346 32DB7BD7 		.ascii	"2\333{\327V\333\353k\354\352\365\001;PY\275buY@\310"
 111      56DBEB6B 
 111      ECEAF501 
 111      3B5059BD 
 111      62755940 
 112 035b EA2A5953 		.ascii	"\352*YS\245j\326U\225L\332\265rM`\325\206\212\025\274"
 112      A56AD655 
 112      954CDAB5 
 112      724D60D5 
 112      868A15BC 
 113 036f 33505951 		.ascii	"3PYQV)~\0029\014=B"
 113      56297E02 
 113      390C3D42 
 114              		.text
 115              		.section	.gnu.lto_chSemWaitTimeoutS.part.1.b2d60e8ac4ac89bf,"",%progbits
 116 0000 789C9554 		.ascii	"x\234\225T[OTW\024\336\337\336\3472\334F\372\342KI\245"
 116      5B4F5457 
 116      14DEDFDE 
 116      E732DC46 
 116      FAE24B49 
 117 0015 0F846094 		.ascii	"\017\204`\224\363\324\207\352o0iZ\377\301H\202\211\012"
 117      F3D487EA 
 117      6F30695A 
 117      FFC14882 
 117      890A
 118 0027 CAF8A699 		.ascii	"\312\370\246\231\315\014G%5\206\230J\212\227\030#^A"
 118      CD0C4725 
 118      3586984A 
 118      8A971823 
 118      5E41
 119 0039 65C4B60C 		.ascii	"e\304\266\014m\355\240xCP\300\030\037\244-\250\030c"
 119      6DEDA078 
 119      4350C018 
 119      1FA42DA8 
 119      1863
 120 004b 5AE37889 		.ascii	"Z\343x\211M\2433]k\037\210\003\214Vw\346\314\276\256"
 120      4DA3335D 
 120      6B1F8803 
ARM GAS  /tmp/ccOxO95O.s 			page 9


 120      8C5677E6 
 120      CCBEAE
 121 005e EF5BEB5B 		.ascii	"\357[\353[koK@p{b\013\361\025\365\313\351\203-`\265"
 121      6B6F4B40 
 121      707B620B 
 121      F115F5CB 
 121      E9832D60 
 122 0073 DDA08105 		.ascii	"\335\240\201\005iz\011\305}sH\001<\320!\210\230%\025"
 122      697A09C5 
 122      7D734801 
 122      3CD02188 
 122      982515
 123 0086 627829DF 		.ascii	"bx)\337H\214\265\364\354W/\244\257\310\204\246\231\221"
 123      488CB5F4 
 123      EC572FA4 
 123      AFC884A6 
 123      9991
 124 0098 BDF7C33C 		.ascii	"\275\367\303<\005*i\372 \265\355o\253\346\230\2466\351"
 124      052A69FA 
 124      20B5ED6F 
 124      ABE698A6 
 124      36E9
 125 00aa 1F5DD171 		.ascii	"\037]\321q<m\371J\212\234\0248\216\012\034C\005\223"
 125      3C6DF94A 
 125      8A9C1438 
 125      8E0A1C43 
 125      0593
 126 00bc 9E400D9D 		.ascii	"\236@\015\235\335\335=z\307Q\237A\320x{\353\310\267"
 126      DDDD3D7A 
 126      C7519F41 
 126      D0787BEB 
 126      C8B7
 127 00ce B2FA88D6 		.ascii	"\262\372\210\326q\255\017\324\351\"_)\234\204\312\267"
 127      71AD0FD4 
 127      E9225F29 
 127      9C84CAB7 
 128 00de A325812E 		.ascii	"\243%\201.T\323\351\211]\337M\207\325\347\306\362\331"
 128      54D3E989 
 128      5DDF4D87 
 128      D5E7C6F2 
 128      D9
 129 00ef F927DB42 		.ascii	"\371'\333B3\226\031ci\241{\276\245%p\012\325|\374^2"
 129      33961963 
 129      69A17BBE 
 129      A525700A 
 129      D57CFC5E 
 130 0104 BBA7CC69 		.ascii	"\273\247\314ia\007+\331-\362\3464\034\022\006\255J\234"
 130      61072BD9 
 130      2DF2E634 
 130      1C1206AD 
 130      4A9C
 131 0116 F95AEB5C 		.ascii	"\371Z\353\\.\241\333^Ua\021\310\316\226`JEC\307\342"
 131      2EA1DB5E 
 131      556111C8 
 131      CE96604A 
 131      4543C7E2 
 132 012a B90D0672 		.ascii	"\271\015\006rh(]\376\023\342)}\254\323Siq\2572R\232"
ARM GAS  /tmp/ccOxO95O.s 			page 10


 132      68285DFE 
 132      13E2297D 
 132      ACD35369 
 132      71AF3252 
 133 013f FE21E2FD 		.ascii	"\376!\342\375\311;\253\031=\241@\314\355\376\205\233"
 133      C93BAB19 
 133      3DA140CC 
 133      EDFE859B 
 134 014f 2E2BE51A 		.ascii	".+\345\032\277S\251\277\356\272\2617z\207\326\345\264"
 134      BF53A9BF 
 134      EEBAB137 
 134      7A87D6E5 
 134      B4
 135 0160 D6AAC807 		.ascii	"\326\252\310\007Z~<|{\260\370 \0164k\263\036B\017\011"
 135      5A7E3C7C 
 135      7BB0F820 
 135      0E346BB3 
 135      1E420F09 
 136 0174 7F8665A3 		.ascii	"\177\206e\243\315]}=\255!o\271\257\212\220\304Ad\331"
 136      CD5D7D3D 
 136      AD216FB9 
 136      AF8A90C4 
 136      4164D9
 137 0187 7D5EBFB4 		.ascii	"}^\277\264s\254\323\254\3338\013/+9\317\350\205'\310"
 137      73ACD3AC 
 137      DB380B2F 
 137      2B39CFE8 
 137      8527C8
 138 019a 89BD538B 		.ascii	"\211\275S\213\331\207|\007l\343\300\253+C;J\3372\025"
 138      D9877C07 
 138      6CE3C0AB 
 138      2B433B4A 
 138      DF3215
 139 01ad 93973837 		.ascii	"\223\22787Ct\344A\374\264\353\235b\225\364\027\276*"
 139      4374E441 
 139      FCB4EB9D 
 139      6295F417 
 139      BE2A
 140 01bf C10F864E 		.ascii	"\301\017\206N\006t\267\332\364\367\230\331]\351\253"
 140      0674B7DA 
 140      F4F798D9 
 140      5DE9AB
 141 01ce 52FCC8A4 		.ascii	"R\374\310\244\212I\177\202\227 U\210\367\337\355\331"
 141      8A497F82 
 141      97205588 
 141      F7DFEDD9 
 142 01de A1E2207A 		.ascii	"\241\342 z\225O\256\012\221\227\221\021\372\346\220"
 142      954FAE0A 
 142      91979111 
 142      FAE690
 143 01ed 533461A4 		.ascii	"S4a\244\014\255\025\320\336\355\034\350,\211m\245T\240"
 143      0CAD15D0 
 143      DEED1CE8 
 143      2C896DA5 
 143      54A0
 144 01ff 9F6213F8 		.ascii	"\237b\023\370\0311q\217\0126\010op\372\365x\211\252"
 144      1931718F 
ARM GAS  /tmp/ccOxO95O.s 			page 11


 144      0A36086F 
 144      70FAF578 
 144      89AA
 145 0211 31F0CD5D 		.ascii	"1\360\315]\373\366\227V\035\346\242H'\307U\207N\267"
 145      FBF69756 
 145      1DE6A248 
 145      27C75587 
 145      4EB7
 146 0223 5472DCBF 		.ascii	"Tr\334\277\314-\014n\370\025U\024:\001\305\323\177\216"
 146      CC2D0C6E 
 146      F8155514 
 146      3A01C5D3 
 146      7F8E
 147 0235 CF824DEC 		.ascii	"\317\202M\354\373#[\244\226\031\260\213\376@\334]\000"
 147      FB235BA4 
 147      9619B08B 
 147      FE40DC5D 
 147      00
 148 0246 E6E07C01 		.ascii	"\346\340|\001\260\337\030L\031\335S\347\372z\377\301"
 148      B0DF184C 
 148      19DD53E7 
 148      FA7AFFC1 
 149 0256 DC924B5F 		.ascii	"\334\222K_\247\212\2403Lj\012/'\261\240*\221\206CP\003"
 149      A78AA033 
 149      4C6A0A2F 
 149      27B1A02A 
 149      91864350 
 150 026b C6910FCC 		.ascii	"\306\221\017\314\322\344\350\324*\260b\027\214bv\000"
 150      D2E4E8D4 
 150      2AB06217 
 150      8C627600 
 151 027b 322F575F 		.ascii	"2/W_\262\004\0279WN\260\217AN\227q\267?3\321\321\016"
 151      B2041739 
 151      574EB08F 
 151      414E9771 
 151      B73F33D1 
 152 0291 264D282B 		.ascii	"&M(+?_N\241|\2059_\227\346\347\313\306e\303\356\316"
 152      3F5F4EA1 
 152      7C85395F 
 152      97E6E7CB 
 152      C665C3EE 
 153 02a6 A05F092A 		.ascii	"\240_\011*\260\375\320\222\217\013F\227p$W\377/\222"
 153      B0FDD092 
 153      8F0B4697 
 153      702457FF 
 153      2F92
 154 02b8 6B1CC92C 		.ascii	"k\034\311,\327\020Gb\031\341\223\277wly'\241U\220\360"
 154      D7104762 
 154      19E193BF 
 154      776C7927 
 154      A15590F0 
 155 02cc 1B26BCFE 		.ascii	"\033&\274\376\036\302\215L8\234/\335\010\023\302\020"
 155      1EC28D4C 
 155      389C2FDD 
 155      0813C210 
 156 02dc 66DE4958 		.ascii	"f\336IX@\247\000\257\214\361n\314Q\353f\000Hu89\335"
 156      40A700AF 
ARM GAS  /tmp/ccOxO95O.s 			page 12


 156      8CF16ECC 
 156      51EB6600 
 156      48753839 
 157 02f1 B5D4BC4A 		.ascii	"\265\324\274J\\%\263\025\316e#\304#\370\351\347\273"
 157      5C25B315 
 157      CE6523C4 
 157      23F8E9E7 
 157      BB
 158 0302 C3C1BD72 		.ascii	"\303\301\275r\026<#\213r|G1J\027\203\366\256u\366\277"
 158      163C238B 
 158      727C4731 
 158      4A1783F6 
 158      AE75F6BF 
 159 0316 2EE51C96 		.ascii	".\345\034\226\303\306\030*\022\312\366\325'T\246\031"
 159      C3C6182A 
 159      12CAF6D5 
 159      2754A619 
 160 0326 BAACFC46 		.ascii	"\272\254\374F=F\274\\$\224KK\317\340\022\240y\317\300"
 160      3D46BC5C 
 160      24944B4B 
 160      CFE012A0 
 160      79CFC0
 161 0339 7B34FAB4 		.ascii	"{4\372\264\266\326\013~\015M\336\246\250\327\264)\342"
 161      B6D60B7E 
 161      0D4DDEA6 
 161      A8D7B429 
 161      E2
 162 034a 45EA9BEA 		.ascii	"E\352\233\352\326\327F\204ljt\243k\327\3275l\216\312"
 162      D6D74684 
 162      6C6A74A3 
 162      6BD7D735 
 162      6C8ECA
 163 035d 68A38A6E 		.ascii	"h\243\212nl\254\234wz\355\206\310\272\315k\352\330\""
 163      6CAC9C77 
 163      7AED86C8 
 163      BACD6BEA 
 163      D822
 164 036f 52BFA6B6 		.ascii	"R\277\246\266^\374\007\363\273\013\254"
 164      5EFC07F3 
 164      BB0BAC
 165              		.text
 166              		.section	.gnu.lto_chSemSignalI.part.2.b2d60e8ac4ac89bf,"",%progbits
 167 0000 789C8D53 		.ascii	"x\234\215SKL\223A\020\336\331\375\373\340Q\361.1\365"
 167      4B4C9341 
 167      10DED9FD 
 167      FBE051F1 
 167      2E31F5
 168 0013 D01012ED 		.ascii	"\320\020\022\355\237\230x0^5\361\342\305\203\217s!\301"
 168      9F987830 
 168      5E35F1E2 
 168      C5838F73 
 168      21C1
 169 0025 C407D27A 		.ascii	"\304\007\322z\362\320m\351/ \232T\215\204\002\206\003"
 169      F2D06DE9 
 169      2F209A54 
 169      8D840286 
 169      03
ARM GAS  /tmp/ccOxO95O.s 			page 13


 170 0036 20286F11 		.ascii	" (o\021\261(R^\242$\250h\2021\030\203\010\304\030\016"
 170      B128525E 
 170      A224A868 
 170      82311883 
 170      08C4180E 
 171 004a 348118D1 		.ascii	"4\201\030\321Rg\266U\0134\206?m\366\337\177g\276\307"
 171      5267B655 
 171      0B34863F 
 171      6DF6DF7F 
 171      67BEC7
 172 005d CCACC680 		.ascii	"\314\254\306\200\321s\330\304\330Q\\\367\341\037L\014"
 172      D173D8C4 
 172      D8515CF7 
 172      E11F4C0C 
 173 006d B4E02B7C 		.ascii	"\264\340+|\321\200\253\225\203\240\325g\025\000\364"
 173      D180AB95 
 173      83A0D567 
 173      1500F4
 174 007c 22ADC0BC 		.ascii	"\"\255\300\274\032\027\340\205U\036\3430\\\266\030\346"
 174      1A17E085 
 174      551EE330 
 174      5CB618E6 
 175 008c F9CD129F 		.ascii	"\371\315\022\237\331\205\301\375\262%\002\206`,\316"
 175      D985C1FD 
 175      B2250286 
 175      602CCE
 176 009b 15368366 		.ascii	"\0256\203f\310\307\250\251@W\235X\341\006\202h\270\215"
 176      C8C7A8A9 
 176      40579D58 
 176      E1068268 
 176      B88D
 177 00ad 4ED67CD9 		.ascii	"N\326|\331A[\016v\334\336l{\363\336,v\003\303\367\262"
 177      415B0E76 
 177      DCDE6C7B 
 177      F3DE2C76 
 177      03C3F7B2 
 178 00c1 8AC94A9E 		.ascii	"\212\311J\236\327$\245_\312\033\2052\303\020\002\356"
 178      D724A55F 
 178      CA1B8532 
 178      C31002EE 
 179 00d1 83403CB8 		.ascii	"\203@<\270\007\271\320\002\271\014?1h\205<\012\237\353"
 179      07B9D002 
 179      B90C3F31 
 179      68853C0A 
 179      9FEB
 180 00e3 5EBF6D33 		.ascii	"^\277m3\007\210\336\236 \20560\2431\255B\320\371\350"
 180      0788DE9E 
 180      20853630 
 180      A331AD42 
 180      D0F9E8
 181 00f6 C2AFB759 		.ascii	"\302\257\267Yb\217\202\366\265\326\326e;\032\010z6\024"
 181      628F82F6 
 181      B5D6D665 
 181      3B1A087A 
 181      3614
 182 0108 3B36D570 		.ascii	";6\325pE\006}VCh\320\276\221@\011\357\000\007\346\\"
 182      45067D56 
ARM GAS  /tmp/ccOxO95O.s 			page 14


 182      4368D0BE 
 182      914009EF 
 182      0007E65C 
 183 011c BB1E5BC9 		.ascii	"\273\036[\311\241\234\253\312^\250%\022\260c\006\333"
 183      A19CABCA 
 183      5EA82512 
 183      B06306DB 
 184 012c 12DEA9C2 		.ascii	"\022\336\251\302S(\"\275\3239!\231\010OK\320\005\216"
 184      532822BD 
 184      D3392199 
 184      084F4BD0 
 184      058E
 185 013e CEE352C6 		.ascii	"\316\343R\306\343\2452\370s/d\002\220)\216\366LB\235"
 185      E3A532F8 
 185      732F6402 
 185      90298EF6 
 185      4C429D
 186 0151 6A8C98D8 		.ascii	"j\214\230\3302\272\242\312/s\215V\021\345\\\255\213"
 186      32BAA2CA 
 186      2F738D56 
 186      11E55CAD 
 186      8B
 187 0162 E05F2B9B 		.ascii	"\340_+\233\376pjS\025(S\025\001)\272\301\\*\250KU\306"
 187      FE706A53 
 187      15285315 
 187      0129BAC1 
 187      5C2AA84B 
 188 0178 F06B0B15 		.ascii	"\360k\013\025\\\250J|\037\237(\317\256\207;>L\330i\010"
 188      5CA84A7C 
 188      1F9F28CF 
 188      AE873B3E 
 188      4CD86908 
 189 018c 0C027840 		.ascii	"\014\002x@\272\360\254i\336\337a\321\333\011K\366`/"
 189      BAF0AC69 
 189      DEDF61D1 
 189      DB094BF6 
 189      602F
 190 019e 2DD003F5 		.ascii	"-\320\003\365\260\256\372\211\3073\215C\215Y\336\230"
 190      B0AEFA89 
 190      C7338D43 
 190      8D59DE98 
 191 01ae 3A3E8D52 		.ascii	":>\215R\341!\350\310\324\013^6\207\303\202\214\030\364"
 191      E121E8C8 
 191      D40B5E36 
 191      87C3828C 
 191      18F4
 192 01c0 B1F6D37A 		.ascii	"\261\366\323z\2068\242\270F\214!\277%Y\222\370-\221"
 192      8638A2B8 
 192      468C21BF 
 192      255992F8 
 192      2D91
 193 01d2 2C89091E 		.ascii	",\211\011\036\245)I\0378P/Cg\375\341\273\203=\236\215"
 193      A529491F 
 193      38502F43 
 193      67FDE1BB 
 193      833D9E8D 
 194 01e6 D6229593 		.ascii	"\326\"\225\223\253X\244>\362\207<q\016\233'\200\232"
ARM GAS  /tmp/ccOxO95O.s 			page 15


 194      AB58A43E 
 194      F2873C71 
 194      0E9B2780 
 194      9A
 195 01f7 C6E0B1F2 		.ascii	"\306\340\261\362\036&\357\"\325\273)\235w\013y\357\337"
 195      1E26EF22 
 195      D5BB299D 
 195      770B79EF 
 195      DF
 196 0208 EA5D4D88 		.ascii	"\352]M\210\211z\367D\331\207\004.<E\273s\340\227\207"
 196      897AF744 
 196      D987042E 
 196      3C45BB73 
 196      E09787
 197 021b 8880F890 		.ascii	"\210\200\370\220D\011\216\316\207\252!\301\252\245\262"
 197      44098ECE 
 197      87AA21C1 
 197      AAA5B2
 198 022a 6AE958AD 		.ascii	"j\351X\255\230\005\003i*~\231\012\376L1\362\004#\006"
 198      98050369 
 198      2A7E990A 
 198      FE4C31F2 
 198      042306
 199 023d BC0BCA6A 		.ascii	"\274\013\312jH\006\204\200 \007A\377')\202\222PA\325"
 199      48068480 
 199      200741FF 
 199      27298292 
 199      5041D5
 200 0250 E75CA2DF 		.ascii	"\347\\\242\337\276Ei#\250\241\015\366\206AG\375\004"
 200      BE456923 
 200      A8A10DF6 
 200      864147FD 
 200      04
 201 0261 57D3BD10 		.ascii	"W\323\275\020*I\017\210\352\265\264\352\017\222\372"
 201      2A490F88 
 201      EAB5B4EA 
 201      0F92FA
 202 0270 91FFA83F 		.ascii	"\221\377\250?I\214\243$^$\011\307\210\220SIg\307\026"
 202      498CA324 
 202      5E2409C7 
 202      88905349 
 202      67C716
 203 0283 D7801AAB 		.ascii	"\327\200\032\253:\374g\232TK\377nh\266I\334\312\362"
 203      3AFC679A 
 203      544BFF6E 
 203      68B649DC 
 203      CAF2
 204 0295 64932939 		.ascii	"d\223)9l\333-m\216!2\340\271\022\247%f9U\331\001Cd\302"
 204      6CDB2D6D 
 204      8E2132E0 
 204      B912A725 
 204      663955D9 
 205 02ad 382933D1 		.ascii	"8)3\321$\276\000\035\003:\227\302?l\324\304,\254\317"
 205      24BE001D 
 205      033A97C2 
 205      3F6CD4C4 
 205      2CACCF
ARM GAS  /tmp/ccOxO95O.s 			page 16


 206 02c0 4BC4FC0A 		.ascii	"K\304\374\012\201HxZi!\200pxi\306\202\227\241\\1g\307"
 206      8148785A 
 206      69218070 
 206      7869C682 
 206      97A15C31 
 207 02d6 D1358309 		.ascii	"\3215\203\011\274\012\250\301\0206\004\212\242Q\272"
 207      BC0AA8C1 
 207      1036048A 
 207      A251BA
 208 02e5 ACDFC01F 		.ascii	"\254\337\300\037\0318\221\270\226\214\3562\320g\014"
 208      193891B8 
 208      968CEE32 
 208      D0670C
 209 02f4 DFE574EA 		.ascii	"\337\345t\352\211\337\005\267^\342\321\335%.\335U\344"
 209      89DF05B7 
 209      5EE2D1DD 
 209      252EDD55 
 209      E4
 210 0305 2E3CE774 		.ascii	".<\347t1\356.\346\236b\373\246\2103\347]g/\025\024R"
 210      31EE2EE6 
 210      9E62FBA6 
 210      8833E75D 
 210      672F1514 
 211 031a 94ABA8C0 		.ascii	"\224\253\250\300Y\304\204\347b\361o\"\033\330\232"
 211      59C484E7 
 211      62F16F22 
 211      1BD89A
 212              		.text
 213              		.section	.gnu.lto_chSemObjectInit.b2d60e8ac4ac89bf,"",%progbits
 214 0000 789C8D52 		.ascii	"x\234\215RKk\023Q\030\275\347\336\274Jmp)\264H$\224"
 214      4B6B1351 
 214      18BDE7DE 
 214      BC4A6D70 
 214      29B44824 
 215 0015 D08519BB 		.ascii	"\320\205\031\273u/\335\353/\2204\020Akm\342:\267i\206"
 215      752FDDEB 
 215      2F903410 
 215      416B6DE2 
 215      3AB76986 
 216 0029 58DC888F 		.ascii	"X\334\210\217\252\265\222\205\015\251\332W|\327(N\353"
 216      AAB59285 
 216      0DA9DA57 
 216      7CD7284E 
 216      EB
 217 003a 42506AED 		.ascii	"BPj\355\312\205\245\224(\021\004\265\365\201($\361\373"
 217      CA85A594 
 217      281104B5 
 217      F5812824 
 217      F1FB
 218 004c 6E522111 		.ascii	"nR!\021\301\313\014w\356\314\371\316w\316\371\306% "
 218      C1CB0C77 
 218      EECCF9CE 
 218      77CEF9C6 
 218      2520
 219 005e 78059510 		.ascii	"x\005\225\020}\264w\322\015% \317\274\024b\330'\001"
 219      7DB477D2 
 219      0D2520CF 
ARM GAS  /tmp/ccOxO95O.s 			page 17


 219      BC1462D8 
 219      2701
 220 0070 7ED03E88 		.ascii	"~\320>\210\244D\022\337eEb)S^\220=yMk#\367e\237\236"
 220      A44412DF 
 220      65456229 
 220      535E903D 
 220      794D6B23 
 221 0088 72605379 		.ascii	"r`SyM\032&\201<z\010\265\232\236\237P\337\244\255\000"
 221      4D1A2681 
 221      3C7A08B5 
 221      9A9E9F50 
 221      DFA4AD00 
 222 009c 171DB796 		.ascii	"\027\035\267\226\307\337\372\371(\021\240\343\331\351"
 222      C7DFFAF9 
 222      2811A0E3 
 222      D9E9
 223 00aa 57AF3D6A 		.ascii	"W\257=j7\004=gF\227O\313PN\353\224\326\027\243\272\315"
 223      37043D67 
 223      46974FCB 
 223      504EEB94 
 223      D617A3BA 
 224 00bf 560A37A0 		.ascii	"V\0127\240\210\017\327\321\205)t\011z%p\023!BW\364\371"
 224      880FD7D1 
 224      85297409 
 224      7A257013 
 224      214257F4 
 225 00d4 31BFDA63 		.ascii	"1\277\332c*\237~^{\342\347JZES\351\302tk\245K`\006!"
 225      2A9F7E5E 
 225      7BE2E74A 
 225      5A4553E9 
 225      C2746BA5 
 226 00ec 86970AD5 		.ascii	"\206\227\012\325\013\035\2364\243\003\243\333\2121\013"
 226      0B1D9E34 
 226      A303A3DB 
 226      8A310B
 227 00fb 0F673077 		.ascii	"\017g0w\320\321\265\332\210\326\253\275+A\037\300\355"
 227      D0D1B5DA 
 227      88D6ABBD 
 227      2B411FC0 
 227      ED
 228 010c 2495BBDD 		.ascii	"$\225\273\3350\365b\223\320\034\306\226\224\274\253"
 228      30F56293 
 228      D01CC696 
 228      94BCAB
 229 011b 3252BF32 		.ascii	"2R\2772\237&<L0\2428\2301{i\305\313\036\225Q\367\343"
 229      9F263C4C 
 229      30A23898 
 229      317B69C5 
 229      CB1E9551 
 230 0131 D9F3533B 		.ascii	"\331\363S;\262\270:\314\015\017\021\025\301\2009\022"
 230      B2B83ACC 
 230      0D0F1115 
 230      C1803912 
 231 0141 C55F73EF 		.ascii	"\305_s\357R\263^k\257\255\274\230G\026U\223\036\275"
 231      52B35E6B 
 231      AFADBC98 
 231      47165593 
ARM GAS  /tmp/ccOxO95O.s 			page 18


 231      1EBD
 232 0153 7F33B938 		.ascii	"\1773\2718\331\236\254\030O^j\217\002,Ry\013IQ\202\344"
 232      D99EAC18 
 232      4F5E6A8F 
 232      022C5279 
 232      0B495182 
 233 0168 66045ABB 		.ascii	"f\004Z\273\262^mS\301z\010\366b\312\333}\215\343s\316"
 233      B25E6D53 
 233      C17A08F6 
 233      62CADB7D 
 233      8DE373CE 
 234 017c 65D465ED 		.ascii	"e\324e\355\244\003\\w\2739\0103\232;\350&\251\202\244"
 234      A4035C77 
 234      BB390833 
 234      9A3BE826 
 234      A982A4
 235 018f 8FFFCC17 		.ascii	"\217\377\314\027\013\211\346P\234\027\345^\206\230L"
 235      0B89E650 
 235      9C17E55E 
 235      86984C
 236 019e 6A12AD99 		.ascii	"j\022\255\231\011\334\205\207X\356\031\015\177\334\272"
 236      09DC8587 
 236      58EE190D 
 236      7FDCBA
 237 01ad FF72BB93 		.ascii	"\377r\273\223\\\261\327\373M^g\314\037\223\375x\340"
 237      5CB1D7FB 
 237      4D5E67CC 
 237      1F93FD78 
 237      E0
 238 01be B0AD7C78 		.ascii	"\260\255|x`L\243\316\211\005X\333\302\012\353\227\366"
 238      604CA3CE 
 238      890558DB 
 238      C20AEB97 
 238      F6
 239 01cf 375AFC27 		.ascii	"7Z\374'\247\356`\302\207\206P6\010\213u\302\022R\033"
 239      A7EE60C2 
 239      87865036 
 239      088B75C2 
 239      12521B
 240 01e2 B9AFBBCC 		.ascii	"\271\257\273\314\220\331Y\275\303\373\202j\004\3314"
 240      90D959BD 
 240      C3FB826A 
 240      04D934
 241 01f1 A3F67F8D 		.ascii	"\243\366\177\215\310\205G\206\\q\206\217\231\331-> "
 241      C8854786 
 241      5C71868F 
 241      99D92D3E 
 241      20
 242 0202 E564FB98 		.ascii	"\345d\373\230\306D\273IV\350\257\240)v\206\303V\375"
 242      C644BB49 
 242      56E8AFA0 
 242      297686C3 
 242      56FD
 243 0214 3A1EB786 		.ascii	":\036\267\206\022V|(bEb\361\350\261pD\310\370 \006T"
 243      12567C28 
 243      624562F1 
 243      E8B17044 
ARM GAS  /tmp/ccOxO95O.s 			page 19


 243      C8F82006 
 244 0229 E2C460A0 		.ascii	"\342\304`\240\005td r\364d\177\224\201\221X\1778&~\003"
 244      05746420 
 244      72F4647F 
 244      94819158 
 244      7F38267E 
 245 023e 44E720BE 		.ascii	"D\347 \276"
 246              		.text
 247              		.section	.gnu.lto_chSemResetI.b2d60e8ac4ac89bf,"",%progbits
 248 0000 789C8D54 		.ascii	"x\234\215TmO\034U\024\276\317\2753\263\273\260\354\266"
 248      6D4F1C55 
 248      14BECFBD 
 248      33B3BBB0 
 248      ECB6
 249 0012 9F250663 		.ascii	"\237%\006c\010A#\023\375bL\343/h\322&\375\342\017XH"
 249      08412313 
 249      FD624CE3 
 249      2F68D226 
 249      FDE20F58 
 250 0027 302A22AC 		.ascii	"0*\"\254\237L\344\262/\245\2655!\276l\012\264\251\261"
 250      9F4CE4B2 
 250      2FA5B535 
 250      21BE6C0A 
 250      B4A9B1
 251 003a 6DA8A594 		.ascii	"m\250\245\224.\210u\261\312@\253T\012\245h\0146m\020"
 251      2E8875B1 
 251      CA40AB54 
 251      0AA5680C 
 251      366D10
 252 004d 6A698CA1 		.ascii	"ji\214\241\261\230jcSX\317\271\263\244\260l\215\223"
 252      B1986A63 
 252      5358CFB9 
 252      B3A4B06C 
 252      8D93
 253 005f 7DB973E7 		.ascii	"}\271s\347\234\363<\3179\317\035K@\360\365\232#\304"
 253      9CF33CCF 
 253      39CF1D4B 
 253      40F0F59A 
 253      23C4
 254 0071 2EFADF4D 		.ascii	".\372\337M_8\002\262\363\212\020\355A\011\313_(\177"
 254      5F3802B2 
 254      F38A10ED 
 254      4109CB5F 
 254      287F
 255 0083 3116B4A4 		.ascii	"1\026\264\244:8!\204.\263S\001\241\3036\300\373:\010"
 255      3A382184 
 255      2EB35301 
 255      A1C336C0 
 255      FB3A08
 256 0096 D1269565 		.ascii	"\321&\225e\243MZ\002\236\005MW\320\224\376K\256J\214"
 256      A34D5A02 
 256      9E054D57 
 256      D094FE4B 
 256      AE4A8C
 257 00a9 77DCCEC9 		.ascii	"w\334\316\311\332^\336]X:\365\274>\351!\255\204\310"
 257      DA5EDE5D 
 257      583AF5BC 
ARM GAS  /tmp/ccOxO95O.s 			page 20


 257      3EE921AD 
 257      84C8
 258 00bb 4B1322D0 		.ascii	"K\023\"\320\213Z\212\232M\235=\254\356\311\264\002,"
 258      8B5A8A9A 
 258      4D9D3DAC 
 258      EEC9B402 
 258      2C
 259 00cc BA5D99EE 		.ascii	"\272]\231\356\3765\302\267\022Ut\373\301\351\253s\216"
 259      FE35C2B7 
 259      125574FB 
 259      C1E9AB73 
 259      8E
 260 00dd 7A1282D6 		.ascii	"z\022\202\326\035\373\247\017\310\232\023Z'\264\316"
 260      1DFBA70F 
 260      C89A135A 
 260      27B4CE
 261 00ec D7EB505A 		.ascii	"\327\353PZ)\234\202\242z\370\014\2258\211JA[\002}\250"
 261      299C82A2 
 261      7AF80C95 
 261      38894A41 
 261      5B027DA8 
 262 0100 A1E855FD 		.ascii	"\241\350U\375Q&\242\2362\231\027\376\2701\032\341L\272"
 262      5126A29E 
 262      329917FE 
 262      B8311AE1 
 262      4CBA
 263 0112 861A38D3 		.ascii	"\206\0328\323\302\351\342L\322\320\217\032\016?\327"
 263      C2E9E24C 
 263      D2D08F1A 
 263      0E3FD7
 264 0121 BDE659EA 		.ascii	"\275\346Y\352i\223\372\351\265\351\236P\3651\316\364"
 264      6993FAE9 
 264      B5E99E50 
 264      F531CEF4 
 265 0131 AE4D86BB 		.ascii	"\256M\206\273\264\227\252\342\3643\233\323\371\242\350"
 265      B497AAE2 
 265      F4339BD3 
 265      F9A2E8
 266 0140 9BD9B58F 		.ascii	"\233\331\265\217+\234\024GWa\000\325\373\327\365\342"
 266      2B9C1447 
 266      576100D5 
 266      FBD7F5E2 
 267 0150 2C1CEABA 		.ascii	",\034\352\272\344M\212\273\270\364\360\207rUc\020\332"
 267      E44D8ABB 
 267      B8F4F087 
 267      72556310 
 267      DA
 268 0161 FB7A0E87 		.ascii	"\373z\016\207\031!\241\027\206\027w\315\036\333\253"
 268      1921A117 
 268      861777CD 
 268      1EDBAB
 269 0170 3BDB8369 		.ascii	";\333\203ie#\273\025\003\203\250\036\330\343\351|>I"
 269      6523BB15 
 269      0383A81E 
 269      D8E3E97C 
 269      3E49
 270 0182 4D7D66FC 		.ascii	"M}f\374@o\006\333!\270\254\005Vn\233\265\003\326\022"
ARM GAS  /tmp/ccOxO95O.s 			page 21


 270      406F06DB 
 270      21B8AC05 
 270      566E9BB5 
 270      03D612
 271 0195 34EB1069 		.ascii	"4\353\020is\302\364cGLz\224\227B\334%Z4\316\025)\351"
 271      73C2F463 
 271      474C7A94 
 271      9742DC25 
 271      5A34CE15 
 272 01ab 4FDD4662 		.ascii	"O\335Fb$;\337\3024\223\312&V\231\364\370L\200\347\240"
 272      243BDFC2 
 272      3493CA26 
 272      5699F4F8 
 272      4C80E7A0 
 273 01bf 0CC9FB13 		.ascii	"\014\311\373\023\223\373\302Gq\244\235\245\275H\025"
 273      93FBC247 
 273      71A49DA5 
 273      BD4815
 274 01ce 02496AC2 		.ascii	"\002Ij\302\020\263\242\247'n%\316\004\334\347\270/\237"
 274      10B3A2A7 
 274      276E25CE 
 274      04DCE7B8 
 274      2F9F
 275 01e0 E328D6CC 		.ascii	"\343(\326\314\2041\014W\334DBG\215xbB\225\005\001u\257"
 275      84310C57 
 275      DC444247 
 275      8D786242 
 275      95050175 
 276 01f5 CC0F2ADE 		.ascii	"\314\017*\336+\256[\376\370\262_<*{\016nR\221u\211\272"
 276      2BAE5BFE 
 276      F8B25F3C 
 276      2A7B0E6E 
 276      52917589 
 277 020a 12E44BE6 		.ascii	"\022\344K\346\376\240\343\301\263>\367Pq\321#x,\333"
 277      FEA0E3C1 
 277      B33EF750 
 277      71D12378 
 277      2CDB
 278 021c 20BE3465 		.ascii	" \2764e\341\017\357\372\361\261\343\345m\253\272@\305"
 278      E10FEFFA 
 278      F1B1E3E5 
 278      6DABBA40 
 278      C5
 279 022d 418E0408 		.ascii	"A\216\004\010\214\240\215d\310\002\341\033=\363k!\265"
 279      8CA08D64 
 279      C802E11B 
 279      3DF36B21 
 279      B5
 280 023e D3B7557A 		.ascii	"\323\267Uz,\021\360'\347\315\275\247\012\336p\360U\211"
 280      2C11F027 
 280      E7CDBDA7 
 280      0ADE70F0 
 280      5589
 281 0250 B99D67F9 		.ascii	"\271\235g\371!\226?\222\353\377y(\276\331,\336\345_"
 281      21963F92 
 281      EBFF7928 
 281      BED92CDE 
ARM GAS  /tmp/ccOxO95O.s 			page 22


 281      E55F
 282 0262 F67088F1 		.ascii	"\366p\210\361I^b\213\227\006\371\331\327tJ\005\276a"
 282      495E628B 
 282      9706F9D9 
 282      D7744A05 
 282      BE61
 283 0274 99918D23 		.ascii	"\231\221\215#r\266\214h\033\211c\311\243\233$\367\233"
 283      72B68C68 
 283      1B8963C9 
 283      A39B24F7 
 283      9B
 284 0285 A3C81EB3 		.ascii	"\243\310\036\263\331^\236\021/\375\272\030+Lk\007\003"
 284      D95E9E11 
 284      2FFDBA18 
 284      2B4C6B07 
 284      03
 285 0296 301E8118 		.ascii	"0\036\201\030\272\331;]\207\340\243F7\242\332\245PC"
 285      BAD93B5D 
 285      87E0A346 
 285      37A2DAA5 
 285      5043
 286 02a8 9485F1AD 		.ascii	"\224\205\361\255\250\372\035n\367\005\203\250|D\012"
 286      A8FA1D6E 
 286      F70583A8 
 286      7C440A
 287 02b7 F8B1531F 		.ascii	"\370\261S\037B!\240\013\\\362\"\334G\224\276%J\304 "
 287      4221A00B 
 287      5CF222DC 
 287      4794BE25 
 287      4AC420
 288 02ca B358C9F0 		.ascii	"\263X\311\360\377_\242\256\340R\337m\2227\301\256\211"
 288      FF5FA2AE 
 288      E052DF6D 
 288      9237C1AE 
 288      89
 289 02db FAF6BBD3 		.ascii	"\372\366\273\323\325R\272 \261\217\226d\377\022\263"
 289      D552BA20 
 289      B18F9664 
 289      FF12B3
 290 02ea BFF41FEC 		.ascii	"\277\364\037\354_a\304\357\231\274U\000\234d\300\020"
 290      5F61C4EF 
 290      99BC5500 
 290      9C64C010 
 291 02fa B7746169 		.ascii	"\267tai\240\326\034\001\036\360\272\225\314D\305o\260"
 291      A0D61C01 
 291      1EF0BA95 
 291      CC44C56F 
 291      B0
 292 030b 7CDB86A9 		.ascii	"|\333\206\251^.\267|=@\376\333g\270\224\345\211\273"
 292      5E2EB77C 
 292      3D40FEDB 
 292      67B894E5 
 292      89BB
 293 031d C065721F 		.ascii	"\300er\037\3654\255\312\231\373\275O^.upF\331\343D>"
 293      F534ADCA 
 293      99FBBD4F 
 293      5E2E7570 
ARM GAS  /tmp/ccOxO95O.s 			page 23


 293      46D9E344 
 294 0332 5C449E3C 		.ascii	"\\D\236<\036\306\224\241m\373\036\337\310\371'\352x"
 294      1EC694A1 
 294      6DFB1EDF 
 294      C8F927EA 
 294      78
 295 0343 05A69934 		.ascii	"\005\246\2314\037'\\\201K\021\347\007\337\277\017\236"
 295      1F275C81 
 295      4B11E707 
 295      DFBF0F9E 
 296 0353 6F04EF62 		.ascii	"o\004\357b\306\330w\205D\321\033_\221\226m\302?\310"
 296      C6D87785 
 296      44D11B5F 
 296      91966DC2 
 296      3FC8
 297 0365 2036C9CC 		.ascii	" 6\311\314\336\277\373^\360\371\323(@\311\303\035S\331"
 297      DEBFFB5E 
 297      F0F9D328 
 297      40C9C31D 
 297      53D9
 298 0377 324EA697 		.ascii	"2N\246\227\021\256R\362\272Z\223\024\024\213H\315\250"
 298      11AE52F2 
 298      BA5A9314 
 298      148B48CD 
 298      A8
 299 0388 4206850F 		.ascii	"B\006\205\017,\347\376\251\360\261\004f\375\243\362"
 299      2CE7FEA9 
 299      F0B10466 
 299      FDA3F2
 300 0397 2740EF09 		.ascii	"'@\357\01195WI1jy\256\236\340m~E\375\216\204\367\341"
 300      39355749 
 300      316A79AE 
 300      9EE06D7E 
 300      45FD8E84 
 301 03ad 4E4E3627 		.ascii	"NN6'\352.\235\222T\200Z\364D]\235\353\177\336lu[\342"
 301      EA2E9D92 
 301      54805AF4 
 301      445D9DEB 
 301      7FDE6C75 
 302 03c3 6E6B4BCC 		.ascii	"nkK\314\2155\2666\274Q\027\023\262\265\031M*\326\024"
 302      8D35B636 
 302      BC511713 
 302      B2B5194D 
 302      2AD614
 303 03d6 97F1E6AA 		.ascii	"\227\361\346\252\242\270W\233b\257\277]\337\300\261"
 303      A2B8579B 
 303      62AFBF5D 
 303      DFC0B1
 304 03e5 B1C6FABA 		.ascii	"\261\306\372\272F\241\342o5\377\013Ei1\327"
 304      46A1E26F 
 304      35FF0B45 
 304      6931D7
 305              		.text
 306              		.section	.gnu.lto_chSemReset.b2d60e8ac4ac89bf,"",%progbits
 307 0000 789C8592 		.ascii	"x\234\205\222\337K\223Q\030\307\317s\316\273\037\272"
 307      DF4B9351 
 307      18C7CF73 
ARM GAS  /tmp/ccOxO95O.s 			page 24


 307      CEBB1FBA 
 308 0010 12EF95DA 		.ascii	"\022\357\225\332\020\021\241|\355J\350.\274\362b\024"
 308      1011A17C 
 308      ED4AE82E 
 308      BCF26214 
 309 0020 FA0748BD 		.ascii	"\372\007H\275\216\0344'{-\364\246\0357\337L\272\221"
 309      8E1C3427 
 309      7B2DF4A6 
 309      1D37DF4C 
 309      BA91
 310 0032 48919084 		.ascii	"H\221\220\204B\234\345\257\231e\313\234S3\372\201YR"
 310      429CE5AF 
 310      9965CB9C 
 310      5333FA81 
 310      5952
 311 0044 7461176B 		.ascii	"ta\027k\366K\261\3222\220`[\317ym\240\233\322a\343}"
 311      F64BB1D2 
 311      3290605B 
 311      CF796DA0 
 311      9BD261E3 
 312 0059 CF79BEDF 		.ascii	"\317y\276\337s\236\363\375\274\022\001\"\3062#d\001"
 312      739EF3FD 
 312      BC120122 
 312      C6322364 
 312      01
 313 006a 9F79F807 		.ascii	"\237y\370\007F\200\266\277$\244\331L\001\304\0137\003"
 313      4680B6BF 
 313      24A4D94C 
 313      01C40B37 
 313      03
 314 007b F152F0C2 		.ascii	"\361R\360\302o\032\2470\323\3729D\213\3738\216\250\226"
 314      6F1AA730 
 314      D3FA3944 
 314      8BFB388E 
 314      A896
 315 008d 28E58108 		.ascii	"(\345\201\010hhOR}'\002}P\214\252\327-#\335l\223j\014"
 315      68684F52 
 315      7D27027D 
 315      508CAAD7 
 315      2D23DD6C 
 316 00a4 40C2E9C6 		.ascii	"@\302\351\306\374\365\345\0341\245`\305\351\325\201"
 316      FCF5E51C 
 316      31A560C5 
 316      E9D581
 317 00b3 57EF8CEC 		.ascii	"W\357\214\354\020\020|om\233\277B\213z9\367q\036\257"
 317      10107C6F 
 317      6D9BBF42 
 317      8B7A39F7 
 317      711EAF
 318 00c6 E1591A63 		.ascii	"\341Y\032cp\033\030\356\007\375\220\017\001\310'\270"
 318      701B18EE 
 318      07FD900F 
 318      01C827B8 
 319 00d6 44E00E14 		.ascii	"D\340\016\024\241:\316\257u\3460\233\356\234\375\361"
 319      A13ACEAF 
 319      75E6309B 
 319      EE9CFDF1 
ARM GAS  /tmp/ccOxO95O.s 			page 25


 320 00e6 7E2A4738 		.ascii	"~*G8q\004\035\302)\301@\272S\"0\010EB\036\013&:\016"
 320      71041DC2 
 320      29C140BA 
 320      53223008 
 320      45421E0B 
 321 00fd 1A5B84DA 		.ascii	"\032[\204\332\272\335.\014\201Q\0040\\\031\341\311\244"
 321      BADD2E0C 
 321      81510430 
 321      5C19E1C9 
 321      A4
 322 010e 9FF3F163 		.ascii	"\237\363\361c\211\0023\266\214gI\240\373\310:\012E\010"
 322      890233B6 
 322      8C6749A0 
 322      FBC83A0A 
 322      4508
 323 0120 1B948A27 		.ascii	"\033\224\212'\213\201/W\354\326\373|q\312\302\012\364"
 323      8B812F57 
 323      ECD6FB7C 
 323      71CAC20A 
 323      F4
 324 0131 4636BB82 		.ascii	"F6\273\202\201\254\302[\342\012\321\361\025\373t\357"
 324      81ACC25B 
 324      E20AD1F1 
 324      15FB74EF 
 325 0141 25DEDE6C 		.ascii	"%\336\336l\326\230\001\206w\267\243\0074\002\205\342"
 325      D6980186 
 325      77B7A307 
 325      340285E2 
 326 0151 DA2B7C52 		.ascii	"\332+|R\022\211\030\300\012A\254}\001_\354\327\223\357"
 326      128918C0 
 326      0A41AC7D 
 326      015FECD7 
 326      93EF
 327 0163 65BB3B8D 		.ascii	"e\273;\215\264\305A\3573I!\355\022\221`\307\0130\020"
 327      B4C541EF 
 327      334921ED 
 327      129160C7 
 327      0B3010
 328 0176 1815459A 		.ascii	"\030\025E\232^\374\266\330\015 \316\"pW\010XF\0040\006"
 328      5EFCB6D8 
 328      0D20CE22 
 328      70570858 
 328      46043006 
 329 018a 466CE79E 		.ascii	"Fl\347\236\310\000\310\030`\375f\317\350V\266m\016z"
 329      C800C818 
 329      60FD66CF 
 329      E856B66D 
 329      0E7A
 330 019c 78975563 		.ascii	"x\227UcFa\031\\\236\340f\011C\200\373`#be}\355\315\022"
 330      4661195C 
 330      9EE06609 
 330      4380FB60 
 330      2362657D 
 331 01b3 C5151807 		.ascii	"\305\025\030\007I\357\234\300\003\035r <\373\351\200"
 331      49EF9CC0 
 331      031D7220 
 331      3CFBE980 
ARM GAS  /tmp/ccOxO95O.s 			page 26


 332 01c3 EDE93FB7 		.ascii	"\355\351?\267Ih\177\016\215\276\265\350\356\220p\303"
 332      49687F0E 
 332      8DBEB5E8 
 332      EE9070C3 
 333 01d3 4390480C 		.ascii	"C\220H\014\250\036\002!_A\213~\274(n'\264\241\320\332"
 333      A81E0221 
 333      5F418B7E 
 333      BC286E27 
 333      B4A1D0DA 
 334 01e7 92C91BE7 		.ascii	"\222\311\033\347\2279\317\325\2309I%4L\200\227\370\031"
 334      9739CFD5 
 334      98394925 
 334      344C8097 
 334      F819
 335 01f9 F3334963 		.ascii	"\3633IcYh\360G\266L{\033\262\223\324\200\206Gh\320\230"
 335      5968F047 
 335      B64C7B1B 
 335      B293D480 
 335      864768D0 
 336 020e 85A438ED 		.ascii	"\205\2448\355b\323\177\362?l&u6\235\332\314\202i\233"
 336      62D37FF2 
 336      3F6C2675 
 336      369DDACC 
 336      82699B
 337 0221 0D81F0FE 		.ascii	"\015\201\360\376l\236%Rl\214\231\351N\211t3\210\375"
 337      6C9E2552 
 337      6C8C99E9 
 337      4E897433 
 337      88FD
 338 0233 11C422C2 		.ascii	"\021\304\"\302b\312 \266z\003\211M\012b\323\373\020"
 338      62CA20B6 
 338      7A03894D 
 338      0A62D3FB 
 338      10
 339 0244 9BD189CD 		.ascii	"\233\321\211\315\356 \226\350\371\020\266\244`\204u"
 339      EE2096E8 
 339      F910B6A4 
 339      608475
 340 0253 188F7518 		.ascii	"\030\217u\030\351\311\317\245\222\027\007\220U\360E"
 340      E9C9CFA5 
 340      92170790 
 340      55F045
 341 0262 E792663D 		.ascii	"\347\222f=I1\326\361\353\302\257\033\345y%%\362\366"
 341      4931D6F1 
 341      EBC2AF1B 
 341      E5792525 
 341      F2F6
 342 0274 CFADCA9E 		.ascii	"\317\255\312\236\006Y\365(\262R\253:\\%\012\241j=\324"
 342      0659F528 
 342      B252AB3A 
 342      5C250AA1 
 342      6A3DD4
 343 0287 99CE9C56 		.ascii	"\231\316\234V\035\247<\316\243;\205\212\333\345r\327"
 343      1DA73CCE 
 343      A33B858A 
 343      DBE572D7 
 344 0297 C9F56E4F 		.ascii	"\311\365nO\203*\237\250\264\227\333\033\321\245\270"
ARM GAS  /tmp/ccOxO95O.s 			page 27


 344      832A9FA8 
 344      B497DB1B 
 344      D1A5B8
 345 02a6 3D8EEA0B 		.ascii	"=\216\352\013e\256\222Zr|\017\265\243\261Ah\345r{UE"
 345      65AE925A 
 345      727C0FB5 
 345      A3B14168 
 345      E5727B55 
 346 02bb 955C8E62 		.ascii	"\225\\\216b\271\242N9w\276\306!+.\325\251V\237U\024"
 346      B9A24E39 
 346      77BEC621 
 346      2B2ED5A9 
 346      569F5514 
 347 02cf B41E4EEB 		.ascii	"\264\036N\353\310\231\322\324\252M*\326s\355U\225V\321"
 347      C899D2D4 
 347      AA4D2AD6 
 347      73ED5595 
 347      56D1
 348 02e1 54BDC779 		.ascii	"T\275\307y\304ZXJ\250\207\230\\\016\227\333\323D\376"
 348      C45A584A 
 348      A887985C 
 348      0E97DBD3 
 348      44FE
 349 02f3 024CF091 		.ascii	"\002L\360\221\253"
 349      AB
 350              		.text
 351              		.section	.gnu.lto_chSemWait.b2d60e8ac4ac89bf,"",%progbits
 352 0000 789C8D53 		.ascii	"x\234\215S\335O\223W\030?\3179o\373\266\264\220^O\262"
 352      DD4F9357 
 352      183FCF39 
 352      6FFBB6B4 
 352      905E4FB2 
 353 0014 958BC698 		.ascii	"\225\213\306\230l\274\2730![\226\230\205+/\232-\360"
 353      6CBCBB30 
 353      215B9698 
 353      852B2F9A 
 353      2DF0
 354 0026 0798AD36 		.ascii	"\007\230\2556B\262Z\322\027\027\275\342\320\017\246"
 354      42B25AD2 
 354      1717BDE2 
 354      D00FA6
 355 0035 D9C58C09 		.ascii	"\331\305\214\011L\026\267\306-D\330\344\323MV:\341\365"
 355      4C16B7C6 
 355      2D44D8E4 
 355      D34D563A 
 355      E1F5
 356 0047 8BBA56AA 		.ascii	"\213\272V\252\020\027.\274A\324m\032f\300\310p&\320"
 356      10172EBC 
 356      41D46D1A 
 356      66C0C870 
 356      26D0
 357 0059 3DCF69BB 		.ascii	"=\317i\273@\273\2577\355\373q\316\3579\277\347\371="
 357      40BBAF37 
 357      EDFB71CE 
 357      EF39BFE7 
 357      F93D
 358 006b CF4F63C0 		.ascii	"\317Oc\300\350:ecl\036\237{\361\0176\006\374d\236\261"
ARM GAS  /tmp/ccOxO95O.s 			page 28


 358      E83A6563 
 358      6C1E9F7B 
 358      F10F3606 
 358      FC649EB1 
 359 007f 6E07E762 		.ascii	"n\007\347b\243\216\311\032\255\177\037\223n\001ZqY\003"
 359      A38EC91A 
 359      AD7F1F93 
 359      6E015A71 
 359      5903
 360 0091 A017E900 		.ascii	"\240\027\351\000\326\305\205\006]\260\31679\314\307"
 360      D6C58506 
 360      5DB0CE37 
 360      39CCC7
 361 00a0 C7CE8867 		.ascii	"\307\316\210g<!\030h\370\2716\367\331\375:\372\004\360"
 361      3C211868 
 361      F8B936F7 
 361      D9FD3AFA 
 361      04F0
 362 00b2 E2E78354 		.ascii	"\342\347\203T\317o\332\236s\022\257\245\207\223o\364"
 362      CF6FDA9E 
 362      7312AFA5 
 362      87936FF4 
 363 00c2 0F5A5A42 		.ascii	"\017ZZBpV\340\014\006\241\036\316A=q\017\301\036\304"
 363      7056E00C 
 363      06A11ECE 
 363      413D710F 
 363      C11EC4
 364 00d5 9E3A7F7B 		.ascii	"\236:\177{\321.^\006\206\357\037\235\230\373\230\357"
 364      D12E5E06 
 364      86EF1F9D 
 364      98FB98EF 
 365 00e5 1E90322A 		.ascii	"\036\2202*\345\346A\351L\010\001_\203\330\036\207K\014"
 365      E5E641E9 
 365      4C08015F 
 365      83D81E87 
 365      4B0C
 366 00f7 BE81DD04 		.ascii	"\276\201\335\004\2779\226Z\324D\203\012\355}\261x\326"
 366      BF39965A 
 366      D444830A 
 366      ED7DB178 
 366      D6
 367 0108 E5FB8A28 		.ascii	"\345\373\212(\255\371\234\273_Zq/r\302\371\235\341t"
 367      ADF99CBB 
 367      5F5A712F 
 367      72C2F99D 
 367      E174
 368 011a 217A797C 		.ascii	"!zy|\253\267\326\036'\264\027\206\301G\251aF#`'\215"
 368      ABB7D61E 
 368      27B41786 
 368      C147A961 
 368      46236027 
 369 012f 465B2C59 		.ascii	"F[,Y(\304\2445\343\312>O;Q\014b\264!\267f\247\233\216"
 369      28C4A435 
 369      E3CA3E4F 
 369      3B510C62 
 369      B421B766 
 370 0146 37EEA01B 		.ascii	"7\356\240\033c\253\370'\201\3268\247\247X\206\250\207"
ARM GAS  /tmp/ccOxO95O.s 			page 29


 370      63ABF827 
 370      81D638A7 
 370      A75886A8 
 370      87
 371 0157 1806B20B 		.ascii	"\030\006\262\0133.\341S\271=;=>\350\244\334\242r)\375"
 371      332EE153 
 371      B93D3B3D 
 371      3EE8A4DC 
 371      A27229FD 
 372 016b C87F79A0 		.ascii	"\310\177y\240G\236\354v$\204\015F\253\263\2031\360\221"
 372      479EEC76 
 372      24840D46 
 372      ABB38331 
 372      F091
 373 017d 148FE425 		.ascii	"\024\217\344%\215\024\265\201\027\306q\357\027\210."
 373      8D14B581 
 373      17C671EF 
 373      17882E
 374 018c 6FCC3E69 		.ascii	"o\314>i\332\231\275ub\235\253\274\013\034*\012\263R"
 374      DA99BD75 
 374      629DABBC 
 374      0B1C2A0A 
 374      B352
 375 019e BD39EAEF 		.ascii	"\2759\352\357\004m\362\312\315\365\2053\000\304\305"
 375      046DF2CA 
 375      CDF58533 
 375      00C4C5
 376 01ad E0020144 		.ascii	"\340\002\001D\245,\014\276\005;\246\363\035i\002\354"
 376      A52C0CBE 
 376      053BA6F3 
 376      1D6902EC 
 377 01bd 22E0FE97 		.ascii	"\"\340\376\227\311\211\3475\015\031H\312\323(\256\235"
 377      C989E735 
 377      0D1948CA 
 377      D328AE9D 
 378 01cd 4286EFA7 		.ascii	"B\206\357\247\245CC\021\340\"4(mWW\356\334\345\270\002"
 378      A5434311 
 378      E0223428 
 378      6D5757EE 
 378      DCE5B802 
 379 01e1 93A0A9CC 		.ascii	"\223\240\251\314\031|\257\206dp\372\352CwC\266\024\255"
 379      197CAF86 
 379      6470FAEA 
 379      437743B6 
 379      14AD
 380 01f3 13F6E9C8 		.ascii	"\023\366\351\310\304O.\025\235\242h\230\002\215-\003"
 380      C44F2E15 
 380      9DA26898 
 380      028D2D03 
 381 0203 5722307C 		.ascii	"W\"0|\213.]\233\002*\017\261\013\223\237d\334E\025\255"
 381      8B2E5D9B 
 381      022A0FB1 
 381      0B939F64 
 381      DC4515AD 
 382 0217 999C2875 		.ascii	"\231\234(u\270j@\224\206i\360\305pP~\206\350\324Z\376"
 382      B86A4094 
 382      8669F0C5 
ARM GAS  /tmp/ccOxO95O.s 			page 30


 382      70507E86 
 382      E8D45AFE 
 383 022b 82D8599A 		.ascii	"\202\330Y\232\034\375T'DI7\255\272\362\037T\345\227"
 383      1CFD5427 
 383      444937AD 
 383      BAF21F54 
 383      E597
 384 023d C01E1336 		.ascii	"\300\036\0236\334\354K\\\271\245S/\204\322x#\223=\356"
 384      DCEC4B5C 
 384      B9A5532F 
 384      84D27823 
 384      933DEE
 385 0250 4EC2E7DD 		.ascii	"N\302\347\335\010\366$\204\003\231`\232\230\251\355"
 385      08F62484 
 385      0399609A 
 385      98A9ED
 386 025f 0FA223BA 		.ascii	"\017\242#\2721\254$N\347k\023\302\0113\220\204-*\221"
 386      31AC244E 
 386      E76B13C2 
 386      09339084 
 386      2D2A91
 387 0272 4E050B0C 		.ascii	"N\005\013\014L+\326\327\363V\361\374\022Ea\350\311\224"
 387      4C2BD6D7 
 387      F356F1FC 
 387      124561E8 
 387      C994
 388 0284 9D289CE8 		.ascii	"\235(\234\350\260\313x\030\246\336wV\020\346\3773\312"
 388      B0CB7818 
 388      A6DE7756 
 388      10E6FF33 
 388      CA
 389 0295 268ABFB2 		.ascii	"&\212\277\262\203\357*\030H\302\356A<\037{\251D\211"
 389      83EF2A18 
 389      48C2EE41 
 389      3C1F7BA9 
 389      4489
 390 02a7 51A32BA9 		.ascii	"Q\243+\251?j\211O\303\346^+\311\266\206S\260Q'~\205"
 390      3F6A894F 
 390      C3E65E2B 
 390      C9B68653 
 390      B051277E 
 391 02bc B8A788D4 		.ascii	"\270\247\210\324\021\231J\255\334\325\2736\345qE]S\340"
 391      11994AAD 
 391      DCD5BB36 
 391      E571455D 
 391      53E0
 392 02ce B6E2C1D7 		.ascii	"\266\342\301\327\241\213a\036\011\341R\221Zy\372\255"
 392      A18B611E 
 392      09E15291 
 392      5A79FAAD 
 393 02de C59C5046 		.ascii	"\305\234PFJ\027[\310\325\307p\251\237\236*?\014\275"
 393      4A175BC8 
 393      D5C770A9 
 393      9F9E2A3F 
 393      0CBD
 394 02f0 F31F7E98 		.ascii	"\363\037~\230U~\370\253\0076L8\363/~\370\275\354\007"
 394      557EF8AB 
ARM GAS  /tmp/ccOxO95O.s 			page 31


 394      07364C38 
 394      F32F7EF8 
 394      BDEC07
 395 0303 7B755F6F 		.ascii	"{u_oP_\253\\\362\202\\\362#\205\350U.y\374\005\272d"
 395      505FAB5C 
 395      F2825CF2 
 395      2385E855 
 395      2E79FC05 
 396 0319 966625FB 		.ascii	"\226f%\373\017.\311\251Y\271\271\315%[\311{\323\256"
 396      0F2EC9A9 
 396      59B9B9CD 
 396      255BC97B 
 396      D3AE
 397 032b B20132CA 		.ascii	"\262\0012\312\000s\312\000\225\323\236/O;\021\260\307"
 397      0073CA00 
 397      95D39E2F 
 397      4F3B11B0 
 397      C7
 398 033c 38EDD7D3 		.ascii	"8\355\327\323\363j\334c\302\201\245?\005\307\366\312"
 398      F36ADC63 
 398      C281A53F 
 398      05C7F6CA 
 399 034c D1E1700B 		.ascii	"\321\341p\013\352\371\235#\330\031\034\305U\\@\321\361"
 399      EAF99D23 
 399      D8191CC5 
 399      555C40D1 
 399      F1
 400 035d BC5D8D8D 		.ascii	"\274]\215\215F\361\0276\215H\247aF\002F\240\315\014"
 400      46F11736 
 400      8D48A761 
 400      460246A0 
 400      CD0C
 401 036f 861A038C 		.ascii	"\206\032\003\214\233\035\"d\036\322\337\177\317\014"
 401      9B1D2264 
 401      1ED2DF7F 
 401      CF0C
 402 037d BE1B697F 		.ascii	"\276\033i\177m;4\020\016\205\302\207\215\216p\244\323"
 402      6D3B3410 
 402      0E85C287 
 402      8D8E70A4 
 402      D3
 403 038e 34DE6EF1 		.ascii	"4\336n\3617\373\217b\\ \034\011\036\370\260)\324\330"
 403      37FB8F62 
 403      5C201C09 
 403      1EF8B029 
 403      D4D8
 404 03a0 C6DEFC1B 		.ascii	"\306\336\374\033t\360h'a\215f\177\353\376V\243\031\301"
 404      74F06827 
 404      618D667F 
 404      EBFE56A3 
 404      19C1
 405 03b2 C6FEC381 		.ascii	"\306\376\303\201\017\216\034\014\032\201\220\331n\036"
 405      0F8E1C0C 
 405      1A8190D9 
 405      6E1E
 406 03c0 38140860 		.ascii	"8\024\010`\350+\0259\265\2271m\3461\023\367=\376\326"
 406      E82B1539 
ARM GAS  /tmp/ccOxO95O.s 			page 32


 406      B597316D 
 406      E63113F7 
 406      3DFED6
 407 03d3 162F25D5 		.ascii	"\026/%\325\021i\177\325\353{\235\361\010\323C\301P8"
 407      11697FD5 
 407      EB7B9DF1 
 407      08D343C1 
 407      5038
 408 03e5 728CFD09 		.ascii	"r\214\375\011\362=\036\265"
 408      F23D1EB5 
 409              		.text
 410              		.section	.gnu.lto_chSemWaitS.b2d60e8ac4ac89bf,"",%progbits
 411 0000 789C7551 		.ascii	"x\234uQMk\023Q\024\275\347\335\227I,m\310\332\006\311"
 411      4D6B1351 
 411      14BDE7DD 
 411      97492C6D 
 411      C8DA06C9 
 412 0014 2E746106 		.ascii	".ta\006q\241\202\340\177\360/\244B7Ei\334\3475\223\351"
 412      71A182E0 
 412      7FF02FA4 
 412      42374569 
 412      DCE73593 
 413 0029 076E4430 		.ascii	"\007nD0RQ\212\213\320V\333\244\265\272HW\305\215 4\352"
 413      52518A8B 
 413      D056DBA4 
 413      B5BA4857 
 413      C58D2034 
 414 003e CA852EB4 		.ascii	"\312\205.\264-\245\224\266\030\261\004\027\355x\357"
 414      2DA594B6 
 414      18B10417 
 414      ED78EF
 415 004d A460363E 		.ascii	"\244`6>f\336\307\345\236s\3369\317\022H\307uC\224\223"
 415      66DEC7E5 
 415      9E73DE39 
 415      CF1248C7 
 415      75439493 
 416 0061 F5AAFC48 		.ascii	"\365\252\374H\020\314\3036\321d\312\030\356\246\311"
 416      10CCC336 
 416      D164CA18 
 416      EEA6C9
 417 0070 0DD8B95B 		.ascii	"\015\330\271[\344\006\031V\313\260\200\256.\005*\033"
 417      E4061956 
 417      CBB080AE 
 417      2E052A1B 
 418 0080 B628E3C4 		.ascii	"\266(\343\304\234\032|\256\256>\343\337&d\351\220cg"
 418      9C1A7CAE 
 418      AE3EE3DF 
 418      2664E990 
 418      6367
 419 0092 EBE94E5A 		.ascii	"\353\351NZ\217@N\216\273\255\251#;\262\340d|\257\357"
 419      8F404E8E 
 419      BBADA923 
 419      3BB2E064 
 419      7CAFEF
 420 00a5 DC985BDC 		.ascii	"\334\230[\334\264!\033\212\014a\021Y, \253\322K\030"
 420      B4211B8A 
 420      0C611159 
ARM GAS  /tmp/ccOxO95O.s 			page 33


 420      2C20ABD2 
 420      4B18
 421 00b7 91DE47CB 		.ascii	"\221\336G\313\237\276x|\011$\373\351\331\255\007&_w"
 421      9FBE787C 
 421      0924FBE9 
 421      D9AD0726 
 421      5F77
 422 00c9 AEE25C34 		.ascii	"\256\342\\4\352.\204\314x\011\356\307I\211\360\012y"
 422      EA2E84CC 
 422      7809EEC7 
 422      4989F00A 
 422      79
 423 00da 6DDF5E3B 		.ascii	"m\337^;{<\344UU&7\313\244\374B\273\014O}6oo\272(\012"
 423      7B3CE455 
 423      552637CB 
 423      A4FC42BB 
 423      0C4F7D36 
 424 00f3 9C7B72A5 		.ascii	"\234{r\245\221\037\200\000\215\321I\014\011<![\353\351"
 424      911F8000 
 424      8DD1490C 
 424      093C215B 
 424      EBE9
 425 0105 44F45360 		.ascii	"D\364S`\352\261#\015\262\362\036*\033\235\366:+S\300"
 425      EAB1230D 
 425      B2F21E2A 
 425      1B9DF63A 
 425      2B53C0
 426 0118 0911AA85 		.ascii	"\011\021\252\205\357>&\325\036\307\327\354\276\3770"
 426      EF3E26D5 
 426      1EC7D7EC 
 426      BEFF30
 427 0127 33388FE7 		.ascii	"38\217\347\0109\021H&+\352G\352\365\335J#\351_\016\331"
 427      08391148 
 427      262BEA47 
 427      EAF5DD4A 
 427      23E95F0E 
 428 013c 4303F338 		.ascii	"C\003\3638\323\353\020\232\360i\017Am\352f\217\360\234"
 428      D3EB109A 
 428      F0690F41 
 428      6DEA668F 
 428      F09C
 429 014e 335A3ADE 		.ascii	"3Z:\336\360\224\323\223LW\205Adk/b\321>\211I5w\215\376"
 429      F094D393 
 429      4C578541 
 429      646B2F62 
 429      D13E8949 
 430 0166 2FB4F64F 		.ascii	"/\264\366O\3505|a\247\037\250\266\203\213\347Z\322\334"
 430      E8357C61 
 430      A71FA8B6 
 430      838BE75A 
 430      D2DC
 431 0178 3C6CFD19 		.ascii	"<l\375\031R!\013\302z\034\275ze\352\246y\037\325L\257"
 431      52210BC2 
 431      7A1CBD7A 
 431      65EAA679 
 431      1FD54CAF 
 432 018c 531FB5D5 		.ascii	"S\037\265\325:\374\232,\237\272\031\3472!'##9\342\015"
ARM GAS  /tmp/ccOxO95O.s 			page 34


 432      3AFC9A2C 
 432      9FBA19E7 
 432      32212723 
 432      2339E20D 
 433 01a0 CA24DA21 		.ascii	"\312$\332!\247b\230\215#:@%#U\315\371\027 hF\177L\002"
 433      A762988D 
 433      233A4025 
 433      2355CDF9 
 433      17206846 
 434 01b7 C45B64CD 		.ascii	"\304[d\315\267\2231I\027\012\221+\016\027\012~\357\273"
 434      B7933149 
 434      170A912B 
 434      0E170A7E 
 434      EFBB
 435 01c9 5BF227EE 		.ascii	"[\362'\356\373\245\211\242_\034+\335\031/\024\311\224"
 435      FBA589A2 
 435      5F1C2BDD 
 435      192F14C9 
 435      94
 436 01da EEFD059C 		.ascii	"\356\375\005\234\244\277w"
 436      A4BF77
 437              		.text
 438              		.section	.gnu.lto_chSemWaitTimeout.b2d60e8ac4ac89bf,"",%progbits
 439 0000 789C9554 		.ascii	"x\234\225T\357O[U\030>\3579\267\367\266P\030\037\375"
 439      EF4F5B55 
 439      183EEF39 
 439      B7F7B650 
 439      181FFD
 440 0013 D168F940 		.ascii	"\321h\371@\010\211\343j\374@4~1|\332\007\324\300\037"
 440      0889E36A 
 440      FC40347E 
 440      317CDA07 
 440      D4C01F
 441 0026 B0686D06 		.ascii	"\260hm\006\211]\227\226\231\361E.-E\210\211.F\330\246"
 441      895D9796 
 441      99F1452E 
 441      2D458889 
 441      2E46D8A6 
 442 003a 93661A02 		.ascii	"\223f\032\002\350\370\3516,\223\322ml(\003\272\362C"
 442      E8F8E936 
 442      2C93D26D 
 442      6C2803BA 
 442      F243
 443 004c A2988C31 		.ascii	"\242\230\2141P\247\210@\3209\222Q\337\367\264]J\353"
 443      50A78840 
 443      D0399251 
 443      DFF7B45D 
 443      4AEB
 444 005e CF9BF6F6 		.ascii	"\317\233\366\366\236\336\3479\357s\236\363\274Ga\300"
 444      9EDEE739 
 444      EF739EF3 
 444      BC4761C0 
 445 006e E81A5719 		.ascii	"\350\032W\031\373\006\177_\300/h\014\370\361i\306\032"
 445      FB067F5F 
 445      C02F680C 
 445      F8F169C6 
 445      1A
ARM GAS  /tmp/ccOxO95O.s 			page 35


 446 007f CC9C8B98 		.ascii	"\314\234\213\230\215\0319\352\350S\314\260\012\256\264"
 446      8D1939EA 
 446      E853CCB0 
 446      0AAEB4
 447 008e 6B38326D 		.ascii	"k82m]c8T@M\240L\251\007\025\200\036\0143\260z.\024\223"
 447      5D633854 
 447      404DA04C 
 447      A9071580 
 447      1E0C33B0 
 448 00a6 0AF5F01B 		.ascii	"\012\365\360\033\277\317!\326\330\177Zl\363\200`\240"
 448      BFCF21D6 
 448      D87F5A6C 
 448      F38060A0 
 449 00b6 E07073EA 		.ascii	"\340ps\352\375\333\3714\004\260\343p%\324\364\213R\322"
 449      FDDBF934 
 449      04B0E370 
 449      25D4F48B 
 449      52D2
 450 00c8 69E0B5B4 		.ascii	"i\340\265\264\372\3733\247\272\"J@p\026\347\014\272"
 450      FAFB33A7 
 450      BA224A40 
 450      7016E70C 
 450      BA
 451 00d9 C0069D60 		.ascii	"\300\006\235`#U\335P\202\330w\317\336XP\305c\300\360"
 451      2355DD50 
 451      82D877CF 
 451      DE5850C5 
 451      63C0F0
 452 00ec F9CD96A9 		.ascii	"\371\315\226\251\267xq\207a\370\014\343\003\247a\011"
 452      B7787187 
 452      61F80CE3 
 452      03A76109 
 453 00fc 08019F80 		.ascii	"\010\001\237\200H\347\341_\014>\205bD\177\367\366{\253"
 453      48E7E15F 
 453      0C3E8562 
 453      447FF7F6 
 453      7BAB
 454 010e F9A25032 		.ascii	"\371\242P2\267\302\353M\346$\363\246d*p6\223\2510\350"
 454      B7C2EB4D 
 454      E624F3A6 
 454      642A7036 
 454      93A930E8 
 455 0122 8162824F 		.ascii	"\201b\202O\366\207\026\024Q\"\251\255;\013gr\213>&\261"
 455      F6871614 
 455      5122A9AD 
 455      3B0B6772 
 455      8B3E26B1 
 456 0136 9150D47A 		.ascii	"\221P\324z\312\2104\332Q-\364\356\245\323\205\350\345"
 456      CA8834DA 
 456      512DF4EE 
 456      A5D385E8 
 456      E5
 457 0147 81DDD63C 		.ascii	"\201\335\326<\265\221\320v\350\203\"Z\024\256\245\037"
 457      B591D076 
 457      E883225A 
 457      14AEA51F 
 458 0157 54F2BDAF 		.ascii	"T\362\275\2572b\304\343~#2\264\257\331\337\027\204|"
ARM GAS  /tmp/ccOxO95O.s 			page 36


 458      3262C4E3 
 458      7E2332B4 
 458      AFD9DF17 
 458      847C
 459 0169 3404C52A 		.ascii	"4\004\305*@\205U\224`\322\350f\306\033\267\320\215\261"
 459      40855594 
 459      60D2E866 
 459      C61BB7D0 
 459      8DB1
 460 017b 0DFC92C7 		.ascii	"\015\374\222\307\233\234\323\257X\006_\001\025\352\230"
 460      9B9CD3AF 
 460      58065F01 
 460      15EA98
 461 018a 9819CD15 		.ascii	"\230\031\315\025\373\245\304\355\223\003]\026\222\350"
 461      FBA5C4ED 
 461      93035D16 
 461      92E8
 462 0198 339616EF 		.ascii	"3\226\026\357T\\\352h2\2167\230\003B\205\201l\2210\010"
 462      545CEA68 
 462      328E3798 
 462      03428581 
 462      6C913008 
 463 01ac 45E4E51D 		.ascii	"E\344\345\035cD\241-Q\301\016\237\341\273\037\300\267"
 463      6344A12D 
 463      51C10E9F 
 463      E1BB1FC0 
 463      B7
 464 01bd 7C627CBD 		.ascii	"|b|\275l\357\"\"-\277\012)?\316!c}\221{\255\327\301"
 464      6CEF2222 
 464      2DBF0A29 
 464      3FCE2163 
 464      7D917BAD 
 465 01d3 C4E01CBD 		.ascii	"\304\340\034\275\344\231/\317\317\236\006\240Z\014\316"
 465      E4992FCF 
 465      CF9E06A0 
 465      5A0CCE
 466 01e2 134064BA 		.ascii	"\023@d\272\303\340\002`\010a\210\254\001\026\006|\377"
 466      C3E00260 
 466      086188AC 
 466      0116067C 
 466      FF
 467 01f3 5170F08F 		.ascii	"Qp\360\217\234\302(\004\215\223\350\261F\224\236\333"
 467      9CC22804 
 467      8D93E8B1 
 467      46949EDB 
 468 0203 170DB382 		.ascii	"\027\015\263\202&\300\347P(-\336X\233[\344\370\017\204"
 468      26C0E750 
 468      282DDE58 
 468      9B5BE4F8 
 468      0F84
 469 0215 4091CA19 		.ascii	"@\221\312\031\014\313\224u\205\257\254Z\013g\222l\263"
 469      0CCB9475 
 469      85AFAC5A 
 469      0B67926C 
 469      B3
 470 0226 DCF7DEC1 		.ascii	"\334\367\336\301\371\\\311\276Hl\370\002\024\266\014"
 470      F95CC9BE 
ARM GAS  /tmp/ccOxO95O.s 			page 37


 470      486CF802 
 470      14B60C
 471 0235 5C9AC0F0 		.ascii	"\\\232\300\360\311\2674v\027hy\210\235\031zg\334\232"
 471      C9B73476 
 471      17687988 
 471      9D197A67 
 471      DC9A
 472 0247 70313214 		.ascii	"p12\024\025\311\215\316J\230\364p\004\212\374\2304\234"
 472      15C98DCE 
 472      4A98F470 
 472      048AFC98 
 472      349C
 473 0259 2032124D 		.ascii	" 2\022MM\320r\341\346\033Y\374\254\234I~\230\370\012"
 473      4DD072E1 
 473      E61B59FC 
 473      AC9C497E 
 473      98F80A
 474 026c FB1E7CC3 		.ascii	"\373\036|\303\003s\347\304^k\214x\273F\010\252\222\364"
 474      0373E7C4 
 474      5E6B8C78 
 474      BB4608AA 
 474      92F4
 475 027e 5EC9766F 		.ascii	"^\311voT\272\027\001\325/\250x[\340rT\243\375\024r\237"
 475      54BA1701 
 475      D52FA878 
 475      5BE07254 
 475      A3FD1472 
 476 0293 EE8E4F34 		.ascii	"\356\216O4[\203\360a\003\202\013\002\302\202j\341\022"
 476      5B83F061 
 476      03820B02 
 476      C2826AE1 
 476      12
 477 02a4 55A7E8AC 		.ascii	"U\247\350\254\370z5\275GnSl&/ r\3402\004a\227l\242Y"
 477      F87A35BD 
 477      476E536C 
 477      262F2072 
 477      E0320461 
 478 02bc E10AE828 		.ascii	"\341\012\350(\315\337\326\364\\b~-Q\"\336\275>\254R"
 478      CDDFD6F4 
 478      5C627E2D 
 478      5122DEBD 
 478      3EAC52
 479 02cf 891C6CF3 		.ascii	"\211\034l\3631\234\014\345\267\235\021\204\371\357\025"
 479      319C0CE5 
 479      B79D1184 
 479      F9EF15
 480 02de 8D32E25F 		.ascii	"\2152\342_\335S\357\032\350X\204\335\202\306i\377#\311"
 480      DD53EF1A 
 480      E85884DD 
 480      82C669FF 
 480      23C9
 481 02f0 92C8EA5B 		.ascii	"\222\310\352[\013\335\313\243z&\014\310x\322\272MLR"
 481      0BDDCBA3 
 481      7A260CC8 
 481      78D2BA4D 
 481      4C52
 482 0302 CC2610FB 		.ascii	"\314&\020\373\255\277\263\343\241\004ZIG\347\"\372\313"
ARM GAS  /tmp/ccOxO95O.s 			page 38


 482      ADBFB3E3 
 482      A1045A49 
 482      47E722FA 
 482      CB
 483 0313 076885CD 		.ascii	"\007h\205\315rAB\007\346W\376\257\324\247I\352W{\244"
 483      72414207 
 483      E657FEAF 
 483      D4A749EA 
 483      577BA4
 484 0326 4E905455 		.ascii	"N\220TU\316lb\273\017\213\037!P\220\320`Fr(\264\266"
 484      CE6C62BB 
 484      0F8B1F21 
 484      5090D060 
 484      467228B4 
 485 033b A8D5DF37 		.ascii	"\250\325\3377\232\345\274\32687%X\327\241\236a\021\024"
 485      9AE5BCD6 
 485      38372558 
 485      D7A19E61 
 485      1114
 486 034d 1A107992 		.ascii	"\032\020y\222\254\246\23292\032\025\362x\030I$\222\313"
 486      ACA69A39 
 486      321A15F2 
 486      78184924 
 486      92CB
 487 035f 41387DD0 		.ascii	"A8}\320\227\314jAV\257w\277\370/\275>){\375A6\250\323"
 487      97CC6A41 
 487      56AF77BF 
 487      F82FBD3E 
 487      297BFD41 
 488 0376 A6FEA1D7 		.ascii	"\246\376\241\327\267S\275\256f\347m\232\362\226u\002"
 488      B753BDAE 
 488      66E76D9A 
 488      F2967502 
 489 0386 ECD00910 		.ascii	"\354\320\011\020%\212\226u\002\374\334\216'\300$e\370"
 489      258A9675 
 489      02FCDC8E 
 489      27C02465 
 489      F8
 490 0397 C6DF9C00 		.ascii	"\306\337\234\0001\231\341\231\264\023`7x+\234\233j\356"
 490      3199E199 
 490      B4136037 
 490      782B9C9B 
 490      6AEE
 491 03a9 29D9DCB3 		.ascii	")\331\334\263\262\2713;y.\325\311T\200\375\204\235|"
 491      B2B9333B 
 491      792ED5C9 
 491      5480FD84 
 491      9D7C
 492 03bb 7527263B 		.ascii	"u'&;\321/,\270\364-\260\244\257\034O/\230\007\033\037"
 492      D12F2CB8 
 492      F42DB0A4 
 492      AF1C4F2F 
 492      98071B1F 
 493 03cf 3B01E949 		.ascii	";\001\351I\346\230\344\257\301\246L\266\326\341\016"
 493      E698E4AF 
 493      C1A64CB6 
 493      D6E10E
ARM GAS  /tmp/ccOxO95O.s 			page 39


 494 03de 62CE3610 		.ascii	"b\3166\020\210;\203u\036--\325\023\037\267W\367\324"
 494      883B8375 
 494      1E2D2DD5 
 494      131FB757 
 494      F7D4
 495 03f0 EA5E8F43 		.ascii	"\352^\217CwT{\235\256R\007\343\336#Zm\215\313\351>Z"
 495      77547B9D 
 495      AE5207E3 
 495      DE235A6D 
 495      8DCBE93E 
 496 0405 2B5CDE43 		.ascii	"+\\\336C\332+/{\235/yj\366\247S\034n\227\313}X?\342"
 496      DA2B2F7B 
 496      9D2F796A 
 496      F6A7531C 
 496      6E97CB7D 
 497 041c F6D47AF5 		.ascii	"\366\324z\365\347++\312+\216!\337\341\3668\017\276^"
 497      E72B2BCA 
 497      2B8E21DF 
 497      E1F6380F 
 497      BE5E
 498 042e E62AAD66 		.ascii	"\346*\255f\317\376\005\332y\254\226\260zyE\325\201*"
 498      CFFE05DA 
 498      79AC96B0 
 498      7A7945D5 
 498      812A
 499 0440 BD1CC1FA 		.ascii	"\275\034\301\372\201\303\216\327\216\276\352\324\035"
 499      81C38ED7 
 499      8EBEEAD4 
 499      1D
 500 044d 2E6F8DF7 		.ascii	".o\215\367\340!\207\003\251\217gh\253Ia\252\275u^|_"
 500      E0218703 
 500      A98F6768 
 500      AB4961AA 
 500      BD755E7C 
 501 0462 50515569 		.ascii	"PQUi'QG<5O\330\213\236d\334\3034\227\323\345\366\324"
 501      2751473C 
 501      354FD88B 
 501      9E64DCC3 
 501      3497D3E5 
 502 0478 B13F01A4 		.ascii	"\261?\001\244\350\211\016"
 502      E8890E
 503              		.text
 504              		.section	.gnu.lto_chSemWaitTimeoutS.b2d60e8ac4ac89bf,"",%progbits
 505 0000 789C7D52 		.ascii	"x\234}RMkSA\024\275gf\336{iIK\027.\374\010RW\265\013"
 505      4D6B5341 
 505      14BD6766 
 505      DE7B6949 
 505      4B172EFC 
 506 0019 F3101782 		.ascii	"\363\020\027\202\370\027\334\370\027B\300.J\245\211"
 506      F817DCF8 
 506      1742C02E 
 506      4AA589
 507 0028 0B579926 		.ascii	"\013W\231&}\261E\020\2516\242X\213\213\230Vk\323h\375"
 507      7DB14510 
 507      A936A258 
 507      8B8B9856 
 507      6BD368FD 
ARM GAS  /tmp/ccOxO95O.s 			page 40


 508 003c 48042D2E 		.ascii	"H\004-.\024\244\255\006\025A]\370Q\213H-&(\305E\023"
 508      14A4AD06 
 508      15415DF8 
 508      518B482D 
 508      2628C545 
 509 0051 EFBC141B 		.ascii	"\357\274\024\033D}\27473w\336\271\347\234\271w\024\201"
 509      447DBC37 
 509      3377DEB9 
 509      E79CB977 
 509      1481
 510 0063 CCB34512 		.ascii	"\314\263E\022\355\346\371\020\177p\010\342\364\"\321"
 510      EDE6F910 
 510      7F7008E2 
 510      F422D1
 511 0072 40400859 		.ascii	"@@\010Y\016\221n\265\037\354%\035\224B]r8\262\252\217"
 511      0E916EB5 
 511      1FEC251D 
 511      94425D72 
 511      38B2AA8F 
 512 0086 884305BB 		.ascii	"\210C\005\273\201\262\032\013\330\200\231u\000\224\020"
 512      81B21A0B 
 512      D8809975 
 512      009410
 513 0095 52593612 		.ascii	"RY6\022\370!\326\005\312\2033\027\345w\341I\202\342"
 513      F821D605 
 513      CA833317 
 513      E577E149 
 513      82E2
 514 00a7 B0B270E1 		.ascii	"\260\262p\341c\273\011\201N\016\227\212\351\257\252"
 514      63BB0981 
 514      4E0E978A 
 514      E9AFAA
 515 00b6 3BA7F979 		.ascii	";\247\371y\347]9p~bNyRP]\020&\020B\016!cj\022\335\214"
 515      E75D3970 
 515      7E624E79 
 515      52505D10 
 515      2610420E 
 516 00d0 1D997AF6 		.ascii	"\035\231z\366\312\226;A\274>1\274pRte\265Nj=\026\325"
 516      CA963B41 
 516      BC3E31BC 
 516      70527465 
 516      B54E6A3D 
 517 00e6 2D9E94B8 		.ascii	"-\236\224\270\012\331\234\307[\204k\350b\364\333Sg?"
 517      0AD99CC7 
 517      5B846BE8 
 517      62F4DB53 
 517      673F
 518 00f8 B5CB5D7E 		.ascii	"\265\313]~f\365\376j:\260\221Y\3613\025\246\376\314"
 518      66F5FE6A 
 518      3AB09159 
 518      F13315A6 
 518      FECC
 519 010a 5484EBE8 		.ascii	"T\204\353\3502\360\017\205\332h\233=h\014v\016s\241"
 519      32F00F85 
 519      DA689B3D 
 519      680C760E 
 519      73A1
ARM GAS  /tmp/ccOxO95O.s 			page 41


 520 011c 18C786A6 		.ascii	"\030\307\206\246\371\274<\347\017\317\351z=\245\365"
 520      F9BC3CE7 
 520      0FCFE97A 
 520      3DA5F5
 521 012b 197B2D8B 		.ascii	"\031{-\213 8S\0103(\030e\213\227\226m\206\000|>\372"
 521      20385308 
 521      33281865 
 521      8B97966D 
 521      86007C3E 
 522 0140 C6D9A64C 		.ascii	"\306\331\246L\025\206\361,\227\221,\025^\314JC\230\222"
 522      1586F12C 
 522      97912C15 
 522      5ECC4A43 
 522      9892
 523 0152 16EB65BC 		.ascii	"\026\353e\274\207O\035S\037\351\273]{\374d(8\2161x\222"
 523      874F1D53 
 523      1FE9BB5D 
 523      7BFC6428 
 523      388E3178 
 524 0167 010A7953 		.ascii	"\001\012yS\020\336\317.%\247\035w\217'\035\314`\034"
 524      10DECF2E 
 524      25A71D77 
 524      8F271DCC 
 524      601C
 525 0179 35E38A50 		.ascii	"5\343\212P\200K\313He\322\007\033\204\033\234\365\311"
 525      804BCB48 
 525      65D2071B 
 525      841B9CF5 
 525      C9
 526 018a D5926D38 		.ascii	"\325\222m8\035n\312\015f`\331\314e_\264Ib\300\234q?"
 526      1D6ECA0D 
 526      6660D9CC 
 526      655FB449 
 526      62C09C71 
 527 019f FD5BE8E6 		.ascii	"\375[\350\346\246\320,\\f\247\367\030\\Lm\337\320bp"
 527      A6D02C5C 
 527      66A7F718 
 527      5C4C6DDF 
 527      D06270
 528 01b2 7EA5F8B3 		.ascii	"~\245\370\263\315\010Y \334\362{g\316*\251\034\222\214"
 528      CD085920 
 528      DCF27B67 
 528      CE2AA91C 
 528      928C
 529 01c4 7D9DCA65 		.ascii	"}\235\312e\2676\320\201f4\337\031\334\376\215V\364\\"
 529      B736D081 
 529      6634DF19 
 529      DCFE8D56 
 529      F45C
 530 01d6 98C2640A 		.ascii	"\230\302d\012/\227\376\352q\337\177<\336\331\364x\327"
 530      2F97FEEA 
 530      71DF7F3C 
 530      DED9F478 
 530      D7
 531 01e7 78B47C4A 		.ascii	"x\264|J\213j\333\344gx\035\015qs-\213\305\2257Nb]\017"
 531      8B6ADBE4 
 531      67781D0D 
ARM GAS  /tmp/ccOxO95O.s 			page 42


 531      71732D8B 
 531      C595374E 
 532 01fe 69DDE1C9 		.ascii	"i\335\341\311\226\272\340~\242\210\00411\333\363d\253"
 532      96BAE07E 
 532      A2880431 
 532      31DBF364 
 532      AB
 533 020f 9F69FB6D 		.ascii	"\237i\373m\372\202d\007\3770-\257\002\315\025\025\\"
 533      FA826407 
 533      FF302DAF 
 533      02CD1515 
 533      5C
 534 0220 D112426A 		.ascii	"\321\022Bj~\3648\363Zh\356 S\342\036Bb\376\\\0177\036"
 534      7EF438F3 
 534      5A68EE20 
 534      53E21E42 
 534      62FE5C0F 
 535 0236 86899DED 		.ascii	"\206\211\235\355\010\207\335\306\333\027s\373\343n\254"
 535      0887DDC6 
 535      DB1773FB 
 535      E36EAC
 536 0245 3FE2468E 		.ascii	"?\342F\216\304\242\275\341\010\211\330Q'\336\323\033"
 536      C4A2BDE1 
 536      0889D851 
 536      27DED31B 
 537 0255 ED3B16FF 		.ascii	"\355;\026\377\005>\343\014\023"
 537      053EE30C 
 537      13
 538              		.text
 539              		.section	.gnu.lto_chSemSignal.b2d60e8ac4ac89bf,"",%progbits
 540 0000 789C8D54 		.ascii	"x\234\215T_L\233U\024\277\347\273_\373\025Z\030\257"
 540      5F4C9B55 
 540      14BFE7BB 
 540      5FFB155A 
 540      18AF
 541 0012 2AD1F240 		.ascii	"*\321\362@\226\031\307g\324H\374\223\030C|\330\003\211"
 541      9619C767 
 541      D448FC93 
 541      18437CD8 
 541      0389
 542 0024 01139FCC 		.ascii	"\001\023\237\314\242\245q$v\305\2663[|\340R(\014\365"
 542      A2A57124 
 542      76C5B633 
 542      5B7CE052 
 542      280CF5
 543 0037 81CC8874 		.ascii	"\201\314\210t\177\322\3506A\0310`s+8(0\304\301\030\203"
 543      7FD2E836 
 543      41193060 
 543      732B3828 
 543      30C4C118 
 544 004c 6D30652E 		.ascii	"m0e.\300`\323\205),\020t\021\3529\267\255\243\245\250"
 544      C060D385 
 544      292C1074 
 544      11EA39B7 
 544      ADA3A5A8 
 545 0060 0D7CED77 		.ascii	"\015|\355w\3579\347w\316\357\376\356Oe\300\350\363\221"
 545      EF39E777 
ARM GAS  /tmp/ccOxO95O.s 			page 43


 545      CEEFFEEE 
 545      4F65C0E8 
 545      F391
 546 0072 C6D8327E 		.ascii	"\306\3302~?\207\377``\240\324\\b\254\314\244(|%\235"
 546      3F87FF60 
 546      60A0D45C 
 546      62ACCCA4 
 546      287C259D 
 547 0086 8954D5FF 		.ascii	"\211T\325\377\012\023\026\016jdY\005\240\037\302\004"
 547      0A13160E 
 547      6A645905 
 547      A01FC204 
 548 0096 AC54E12A 		.ascii	"\254T\341*\224\302\262\262\252@o\325\355\240\262\255"
 548      94C2B2B2 
 548      AA406FD5 
 548      EDA0B2AD 
 549 00a6 5EE067AA 		.ascii	"^\340g\252\277\375\031\321\020\002\037g,\254H\010\006"
 549      BFFD19D1 
 549      10021F67 
 549      2CAC4808 
 549      06
 550 00b7 F5B00DA3 		.ascii	"\365\260\015\243F+N\036\346K\212\217\003\250\370\272"
 550      462B4E1E 
 550      E64B8A8F 
 550      03A8F8BA 
 551 00c7 387CF056 		.ascii	"8|\360V:\275*`\305\327\003'.O\030\371\343\300\360wU"
 551      3ABD2A60 
 551      C5D70327 
 551      2E4F18F9 
 551      E3C0F077 
 552 00dc F5F0C7CA 		.ascii	"\365\360\307\312\326\343Bx\205\010\027\211\024\037\347"
 552      D6E34278 
 552      85081789 
 552      141FE7
 553 00eb F00D70AC 		.ascii	"\360\015p\254\007_C&4@&\303%\006\215\260\225\302gZ\327"
 553      075F4326 
 553      344026C3 
 553      25068DB0 
 553      95C2675A 
 554 0100 3E4B3356 		.ascii	">K3V\020\274\265:\206\013'\300\210#\002\356\237\237"
 554      10BCB53A 
 554      860B27C0 
 554      882302EE 
 554      9F9F
 555 0112 FB6BCCCC 		.ascii	"\373k\314\314\263d\351\262\306C\207-\331G\251\364\224"
 555      B364E9B2 
 555      C643872D 
 555      D947A9F4 
 555      94
 556 0123 7F357FF4 		.ascii	"\1775\177\364h\245\250)3\371p\226\246x\000\331x3d\267"
 556      68A5A829 
 556      33F97096 
 556      A67800D9 
 556      783364B7 
 557 0137 14844438 		.ascii	"\024\204D8\\\216\203={\252\272\261\036\266p\271\214"
 557      5C8E833D 
 557      7BAABAB1 
ARM GAS  /tmp/ccOxO95O.s 			page 44


 557      1EB670B9 
 557      8C
 558 0148 4C20BA01 		.ascii	"L \272\001\3730\030\351a\302\207\321\202\017\225\261"
 558      FB3018E9 
 558      61C287D1 
 558      820F95B1 
 559 0158 05C4279A 		.ascii	"\005\304'\232\026\025\205\276\371\014x3\010\373\370"
 559      161585BE 
 559      F90C7833 
 559      08FBF8
 560 0167 E058B799 		.ascii	"\340X\267\231\277&\373X\252kmH\211\366\321Y\371\226"
 560      BF26FB58 
 560      AA6B6D48 
 560      89F6D159 
 560      F996
 561 0179 FFFAAC10 		.ascii	"\377\372\254\020\007\004\322\246AK\222FNB6\361\362\253"
 561      0704D2A6 
 561      414B9246 
 561      4E4236F1 
 561      F2AB
 562 018b 38A71265 		.ascii	"8\247\022e\032X\241\025\367\356\200wfe\340\267\334x"
 562      1A58A115 
 562      F7EE8077 
 562      6665E0B7 
 562      DC78
 563 019d 1242D5F7 		.ascii	"\022B\325\367T9\177X\201\004~B\301\317\207\350\230\333"
 563      54397F58 
 563      81047E42 
 563      C1CF87E8 
 563      98DB
 564 01af 685349DC 		.ascii	"hSI\334\\\376d\020\036!,\006\355\024\300\023\331ep\012"
 564      5CFE6410 
 564      1E212C06 
 564      ED14C013 
 564      D965700A 
 565 01c3 8CD8CE69 		.ascii	"\214\330\316i\342\026\3308\261\373e\240\355\217\324"
 565      E216D838 
 565      B1FB65A0 
 565      ED8FD4
 566 01d2 AC3B1010 		.ascii	"\254;\020\020uV\0377QJ\323\255NaR\221\005\370\026\262"
 566      75561F37 
 566      514AD3AD 
 566      4E615291 
 566      05F816B2 
 567 01e6 18AD2CCC 		.ascii	"\030\255,\314_\235Tp\005\316\200*;gpV\252\240\241\253"
 567      5F9D5470 
 567      05CE802A 
 567      3B677056 
 567      AAA0A1AB 
 568 01fa 6FCE9275 		.ascii	"o\316\222u7\232\235B\261\367\233\333\256\231ev\220\262"
 568      379A9D42 
 568      B1F79BDB 
 568      AE996576 
 568      90B2
 569 020c A1035436 		.ascii	"\241\003T6\003\212$\201\261\333\340\355\010.\016?O\363"
 569      038A2481 
 569      B1DBE0ED 
ARM GAS  /tmp/ccOxO95O.s 			page 45


 569      082E0E3F 
 569      4FF3
 570 021e 957303C6 		.ascii	"\225s\003\306\327\372zG4b\205\313iW\006\006\367[\002"
 570      D7FA7A47 
 570      346285CB 
 570      69570606 
 570      F75B02
 571 0231 7004B94C 		.ascii	"p\004\271L-\307s\355$4b\177\326\333\254\351\333}\334"
 571      2DC773ED 
 571      2434627F 
 571      D6DBACE9 
 571      DB7DDC
 572 0244 0CDF4100 		.ascii	"\014\337A\000\326\2448\341\034\350X\262\274\266\362"
 572      D6A438E1 
 572      1CE858B2 
 572      BCB6F2
 573 0253 E548C168 		.ascii	"\345H\301h\315\323U\027[S\251\246\031\000\272\260\002"
 573      CDD35517 
 573      5B53A9A6 
 573      1900BAB0 
 573      02
 574 0264 C2D67EC1 		.ascii	"\302\326~\301)f\035D\031\221\222\3136\007\352~\010\024"
 574      29661D44 
 574      199192CB 
 574      3607EA7E 
 574      0814
 575 0276 021DABB3 		.ascii	"\002\035\253\263i\250\030)\1774\212\205\301-\363\301"
 575      69A81829 
 575      7F348A85 
 575      C12DF3C1 
 576 0286 3FD308C8 		.ascii	"?\323\010\310\200\204\366D\217{\021\231_I\347\210\371"
 576      8084F644 
 576      8F7B1199 
 576      5F49E788 
 576      F9
 577 0297 A06A6D38 		.ascii	"\240jm85\022mJ\004\016\300\246\310\026\350\225\310t"
 577      35126D4A 
 577      040EC0A6 
 577      C816E895 
 577      C874
 578 02a9 C7717DF2 		.ascii	"\307q}\362X\3171s\351*%\0113\352\024\372pj\006\347\241"
 578      58CF3173 
 578      E92A2509 
 578      33EA14FA 
 578      706A06E7 
 579 02be 94888D0E 		.ascii	"\224\210\215\016u\343\320\315\265\024~\037$\211}\276"
 579      75E3D0CD 
 579      B5147E1F 
 579      24897DBE 
 580 02ce 1EAF1691 		.ascii	"\036\257\026\221g\350\310\247\334/B\025VJ\354O\242\315"
 580      67E8C8A7 
 580      DC2F4215 
 580      564AEC4F 
 580      A2CD
 581 02e0 EF211BBB 		.ascii	"\357!\033\273\213\034\314W\335\355\236\004Q\015\375"
 581      8B1CCC57 
 581      DDED9E04 
ARM GAS  /tmp/ccOxO95O.s 			page 46


 581      510DFD
 582 02ef FE068544 		.ascii	"\376\006\205D\005\251&J\212.\023\203\001)\253\037hN"
 582      05A9264A 
 582      8A2E1383 
 582      0129AB1F 
 582      684E
 583 0301 BEFE488D 		.ascii	"\276\376H\215qGJcg\340t4\363\205\270\231\233\244\367"
 583      71474A63 
 583      67E07434 
 583      F385B899 
 583      9BA4F7
 584 0314 D08536D0 		.ascii	"\320\2056\320]\036\224\323+\221\2720\204\323\342\035"
 584      5D1E94D3 
 584      2B91BA30 
 584      84D3E21D 
 585 0324 142F1100 		.ascii	"\024/\021\000\341!\210lwq\326_\007\021T\313zT5\031j"
 585      E121886C 
 585      7771D65F 
 585      071154CB 
 585      7A543519 
 586 0339 1A66C1C5 		.ascii	"\032f\301\305\215\250\342C\342{X\"\362\010\"\006\\\251"
 586      8DA8E243 
 586      E27B5822 
 586      F2082206 
 586      5CA9
 587 034b 1175100D 		.ascii	"\021u\020\015\360\003\225\274\004\372\303\226F\244\354"
 587      F00395BC 
 587      04FAC396 
 587      46A4EC
 588 035a BCB5D399 		.ascii	"\274\265\323\231\004\377\377G\024iT\352r\334x\243\244"
 588      04FFFF47 
 588      146954EA 
 588      72DC78A3 
 588      A4
 589 036b 2C0B953B 		.ascii	",\013\225;\330:\347w%/\210\335[\222v\377\002u?\366/"
 589      D83AE777 
 589      252F88DD 
 589      5B9276FF 
 589      02753FF6 
 590 0380 DDBF4988 		.ascii	"\335\277I\210W\250y5\012x\225\000MD\351\324\334\231"
 590      57A87935 
 590      0A789500 
 590      4D44E9D4 
 590      DC99
 591 0392 27A5D1D2 		.ascii	"'\245\321\322\001\307\264$O\224\375\002\006z\241j\301"
 591      01C7B424 
 591      4F94FD02 
 591      067AA16A 
 591      C1
 592 03a3 E0FCA486 		.ascii	"\340\374\244\206\362\333/;I\017+\006<\353k(>b\0245\357"
 592      F2DB2F3B 
 592      490F2B06 
 592      3CEB6B28 
 592      3E621435 
 593 03b8 E35BA4E8 		.ascii	"\343[\244\350\3258\267\214w\310=\377\345\220\343\322"
 593      D538B78C 
 593      77C83DFF 
ARM GAS  /tmp/ccOxO95O.s 			page 47


 593      E590E3D2 
 594 03c8 21FF3942 		.ascii	"!\3779B\015\257\323\304\346\016ya)\346\220\306\215\036"
 594      0DAFD3C4 
 594      E60E7961 
 594      29E690C6 
 594      8D1E
 595 03da 779DC4B8 		.ascii	"w\235\304\270\3017\037\220o\376H)\332F\337\274\207\276"
 595      C1371F90 
 595      6FFE4829 
 595      DA46DFBC 
 595      87BE
 596 03ec 394E42FE 		.ascii	"9NB\376i\023\337\234\224\002\277\261\3167\327\002\323"
 596      6913DF9C 
 596      9402BFB1 
 596      CE37D702 
 596      D3
 597 03fd 5DE69825 		.ascii	"]\346\230%NHK\374YZb\242\377\335\214\371\037\001\260"
 597      4E484BFC 
 597      595A62A2 
 597      FFDD8CF9 
 597      1F01B0
 598 0410 BBC87A7F 		.ascii	"\273\310z\177\207\364\0049\370\002^r\244\015\303\037"
 598      87F40439 
 598      F8025E72 
 598      A40DC31F 
 599 0420 CBC9D123 		.ascii	"\313\311\321#\177N\267\356\362\350n\227M\267\355r\333"
 599      7F4EB7EE 
 599      F2E86E97 
 599      4DB7ED72 
 599      DB
 600 0431 1D3936A6 		.ascii	"\03596\246\270K\024O\2115!\242x\267\355\275=Ev\212\262"
 600      B84B144F 
 600      893521A2 
 600      78B7EDBD 
 600      3D45768A 
 601 0446 ED2ACAD9 		.ascii	"\355*\312\331\305\264w\336v\333_w\025o_\037hs:\034\316"
 601      C5B477DE 
 601      76DB5F77 
 601      156F5F1F 
 601      68733A1C 
 602 045b DD7A89D3 		.ascii	"\335z\211\323\345q\353\257\026\344\347\345\357\305\014"
 602      E571EBAF 
 602      16E4E7E5 
 602      EFC50C
 603 046a 9BD365DF 		.ascii	"\233\323e\337\371A\256\003\263^L\022m\337\353\241X="
 603      F941AE03 
 603      B35E4C12 
 603      6DDFEBA1 
 603      583D
 604 047c 2FBF7047 		.ascii	"/\277pG\241\236\207\301\372\216\030\232\303]\354\336"
 604      A19E87C1 
 604      FA8E189A 
 604      C35DECDE 
 605 048c F9AECD86 		.ascii	"\371\256\315\206\251Ol\336\321>7\356g\344\027\026X\251"
 605      A94F6CDE 
 605      D13E37EE 
 605      67E41716 
ARM GAS  /tmp/ccOxO95O.s 			page 48


 605      58A9
 606 049e A91257F1 		.ascii	"\251\022W\361S\326\354\247\231\342b\232\303\356p\272"
 606      53D6ECA7 
 606      99E2629A 
 606      C3EE70BA 
 607 04ae F631EE79 		.ascii	"\3661\356y\277\344o\257i\322%"
 607      BFE46FAF 
 607      69D225
 608              		.text
 609              		.section	.gnu.lto_chSemSignalI.b2d60e8ac4ac89bf,"",%progbits
 610 0000 789C7550 		.ascii	"x\234uPMkSQ\020\2353s\373\022C\033\272\326\"\331\225"
 610      4D6B5351 
 610      109D3373 
 610      FB12431B 
 610      BAD622D9 
 611 0015 22E6A12E 		.ascii	"\"\346\241.\334\010\376\007\027\375\003\241\340F\224"
 611      DC08FE07 
 611      17FD03A1 
 611      E04694
 612 0024 C67D6EF3 		.ascii	"\306}n\363\362L\213\033\025\014T\324\342\242\264\265"
 612      F24C8B1B 
 612      150C54D4 
 612      E2A2B4B5 
 613 0034 1F69D42E 		.ascii	"\037i\324.\"\210\241\233\202X\253+\027n\374\014\"]4"
 613      2288A19B 
 613      8258AB2B 
 613      176EFC0C 
 613      225D34
 614 0047 A004176D 		.ascii	"\240\004\027m\234yi\321\215\303\273o\356\014g\316\231"
 614      9C7969D1 
 614      8DC3BB6F 
 614      EE0C67CE 
 614      99
 615 0058 731D812C 		.ascii	"s\035\201,2L\224\323|N\017\006\010|\353\015\321T\232"
 615      324C94D3 
 615      7C4E0F06 
 615      087CEB0D 
 615      D1549A
 616 006b 59BA59F2 		.ascii	"Y\272Y\362\0317{\221\374\240\300Y\033\016\260\354\323"
 616      19377B91 
 616      FCA0C059 
 616      1B0EB0EC 
 616      D3
 617 007c A0128B43 		.ascii	"\240\022\213C\011\277x\237\261Ym7yl\301k|\374\366\362"
 617      09BF789F 
 617      B1596D37 
 617      796CC16B 
 617      7CFCF6F2 
 618 0090 AC5F6C21 		.ascii	"\254_l!\026\242\036'\012\204\005\214)\352]e\375\276"
 618      16A21E27 
 618      0A84058C 
 618      29EA5D65 
 618      FDBE
 619 00a2 FCE45800 		.ascii	"\374\344X\000\247eg\373\336\227\254\225\214\234\226"
 619      A76567FB 
 619      DE97AC95 
 619      8C9C96
ARM GAS  /tmp/ccOxO95O.s 			page 49


 620 00b1 7756DEBE 		.ascii	"wV\336\276\017\344$H\357\325\231\355\233<:\357}\331"
 620      0FE42448 
 620      EFD599ED 
 620      9B3C3AEF 
 620      7DD9
 621 00c3 FBDB13FE 		.ascii	"\373\333\023\376X,\202\307\020\345\303\022F\260\210"
 621      582C82C7 
 621      10E5C312 
 621      46B088
 622 00d2 11D21661 		.ascii	"\021\322\026a\031\243\006\377\3348\270;\024TL>7s\244"
 622      19A306FF 
 622      DC38B83B 
 622      14544C3E 
 622      3773A4
 623 00e5 8B1504E6 		.ascii	"\213\025\004\346\260~\251\345{\275\310\373\3313\017"
 623      B07EA9E5 
 623      7BBDC8FB 
 623      D9330F
 624 00f4 4FA51936 		.ascii	"O\245\0316$:\356\234\375\210\366\024l\236:\314\226\245"
 624      243AEE9C 
 624      FD88F614 
 624      6C9E3ACC 
 624      96A5
 625 0106 8DF2F3CE 		.ascii	"\215\362\363\316\326\206\330|$\242\364\265xs'e\213J"
 625      D686D87C 
 625      24A2F4B5 
 625      78732765 
 625      8B4A
 626 0118 B25C77EB 		.ascii	"\262\\w\353\325\364\340\034\036\250\305\201H\227_\325"
 626      D5F4E01C 
 626      1EA8C581 
 626      48975FD5 
 627 0128 6DAC3FFF 		.ascii	"m\254?\377\265\274\226\012O\307\022`\015s8H\314\243"
 627      B5BC960A 
 627      4FC71260 
 627      0D733848 
 627      CCA3
 628 013a 8E90DA88 		.ascii	"\216\220\332\210j7.\364\011]\237s\243\372\272\2211\316"
 628      6A372EF4 
 628      095D9F73 
 628      A3FABA91 
 628      31CE
 629 014c 00C0BA32 		.ascii	"\000\300\2722\250l\355Q\"\372\217\304\224Y:O\377\027"
 629      A86CED51 
 629      22FA8FC4 
 629      94593A4F 
 629      FF17
 630 015e 6AFC157A 		.ascii	"j\374\025z\202P\331\351\023*;\321\361C-\005\327w\233"
 630      8250D9E9 
 630      132A3BD1 
 630      F1432D05 
 630      D7779B
 631 0171 BF874CC8 		.ascii	"\277\207L\310\201\360\324\030\310\274\012u\263\362\035"
 631      81F0D418 
 631      C8BC0A75 
 631      B3F21D
 632 0180 9561431A 		.ascii	"\225aC\032i\263\271\373!U\332\367\323\336\017\307\222"
ARM GAS  /tmp/ccOxO95O.s 			page 50


 632      69B3B9FB 
 632      2155DAF7 
 632      D3DE0FC7 
 632      92
 633 0191 EAB1BE1D 		.ascii	"\352\261\276\035\236\241D\252\034K:\031r\311\003\375"
 633      9EA144AA 
 633      1C4B3A19 
 633      72C903FD 
 634 01a1 40B9F562 		.ascii	"@\271\365b<\231\263\330S\244\266u\211\023\371|\330\377"
 634      3C99B3D8 
 634      53A4B675 
 634      8913F97C 
 634      D8FF
 635 01b3 AE16C3C9 		.ascii	"\256\026\303\311\353aq\262\020\026.\027'\256\344\013"
 635      EB6171B2 
 635      10162E17 
 635      27AEE40B 
 636 01c3 C4C56B7F 		.ascii	"\304\305k\177\000\266Z\262x"
 636      00B65AB2 
 636      78
 637              		.text
 638              		.section	.gnu.lto_chSemAddCounterI.b2d60e8ac4ac89bf,"",%progbits
 639 0000 789C8D55 		.ascii	"x\234\215U]L\233U\030>\3179\337O)m\201x\265H\014\306"
 639      5D4C9B55 
 639      183ECF39 
 639      DF4F296D 
 639      8178B548 
 640 0016 10B20BF9 		.ascii	"\020\262\013\371\022\357t\211\267&&\336\314\213\335"
 640      12EF7489 
 640      B72626DE 
 640      CC8BDD
 641 0025 DB91B044 		.ascii	"\333\221\260D'\002\273\362\242\037\375\031[\324\204"
 641      2702BBF2 
 641      A21FFD19 
 641      5BD484
 642 0034 18D7AC1B 		.ascii	"\030\327\254\033\313f6\302~auN,sR`\212n\374l.F\315\320"
 642      CB6636C2 
 642      7E61754E 
 642      2C735260 
 642      8A6EFC6C 
 643 004c 301CCC98 		.ascii	"0\034\314\230E\250\316\030\235P\337\367\234\222\321"
 643      45A8CE18 
 643      9D50DFF7 
 643      9C92D1
 644 005b DA19BFB4 		.ascii	"\332\031\277\264\347\353w\276\347}\237\347\375;\265"
 644      E7EB77BE 
 644      E77D9FE7 
 644      FD3BB5
 645 006a 04045F2F 		.ascii	"\004\004_/;B\274H\367]\364E@@\366\315\012\321\023\220"
 645      3B42BC48 
 645      F75DF445 
 645      4040F6CD 
 645      0AD11390 
 646 007e 70CC0F25 		.ascii	"p\314\017%\255cA\341\007\355\325I!\374\220\005\333\354"
 646      AD6341E1 
 646      07EDD549 
 646      21FC9005 
ARM GAS  /tmp/ccOxO95O.s 			page 51


 646      DBEC
 647 0090 DB06301E 		.ascii	"\333\0060\036p\244z{\212^\005\335\244K\000\027\340}"
 647      70A47A7B 
 647      8A5E05DD 
 647      A44B0017 
 647      E07D
 648 00a2 3F001193 		.ascii	"?\000\021\223\312\262\035\0271\351\010\344-\024\351"
 648      CAB21D17 
 648      31E908E4 
 648      2D14E9
 649 00b1 7235E9EF 		.ascii	"r5\351\357rMb\242w9'\267\016\372t-\014\254<\343\237"
 649      724D62A2 
 649      773927B7 
 649      0EFA742D 
 649      0CAC3CE3 
 650 00c6 CC23A584 		.ascii	"\314#\245\204(J\015\021\030\304VB\335H\236\357W\367"
 650      284A0D11 
 650      18C45642 
 650      DD489EEF 
 650      57F7
 651 00d8 654A0116 		.ascii	"eJ\001\026=\026f\016\375\030\341G\211&z|\367\354\365"
 651      3D16660E 
 651      FD18E147 
 651      89267A7C 
 651      F7ECF5
 652 00eb 6F1CF504 		.ascii	"o\034\365\004\004\375\356\335?\363\226l\031\360\375"
 652      04FDEEDD 
 652      3FF3966C 
 652      19F0FD
 653 00fa B8EF67DA 		.ascii	"\270\357g\332\374\232\224R8\015E\376p\012\2158\211F"
 653      FC9A9452 
 653      380D45FE 
 653      700A8D38 
 653      8946
 654 010c 415B0267 		.ascii	"A[\002g\320B\3505\377\275tD=\251-'W\346\307\"lI\327"
 654      D042E835 
 654      FFBD7444 
 654      3DA92D27 
 654      57E6C722 
 655 0123 656D69E1 		.ascii	"emi\341l\245\245%p\016-\014_\314\256\037\010;IF7\355"
 655      6CA5A525 
 655      700E2D0C 
 655      5FCCAE1F 
 655      083B4946 
 656 0139 DF508C21 		.ascii	"\337P\214!8\224Q\320\373+K\177\177U\253\236\322\256"
 656      389451D0 
 656      FB2B4B7F 
 656      7F55AB9E 
 656      D2AE
 657 014b 7BCE1CEE 		.ascii	"{\316\034\356\0175\037gQ\013G\326^\272q|\257\337\327"
 657      0F351F67 
 657      510B47D6 
 657      5EBA717C 
 657      AFDFD7
 658 015e 1348291B 		.ascii	"\023H)\033\303\345\004:\344\363h\036\336\236\367\213"
 658      C3E5043A 
 658      E4F3681E 
ARM GAS  /tmp/ccOxO95O.s 			page 52


 658      DE9EF78B 
 659 016e C504A5C4 		.ascii	"\305\004\245\304;\360\316\312\020\036\203\346\265\300"
 659      3BF0CECA 
 659      101E83E6 
 659      B5C0
 660 017c AB0356EF 		.ascii	"\253\003V\357\222\032'\300K\220\0267L\213]\247Q\365"
 660      921A27C0 
 660      4B901637 
 660      4C8B5DA7 
 660      51F5
 661 018e DA45036F 		.ascii	"\332E\003o\010\261J\262\250$\253R\322M\025\244\022T"
 661      08B14AB2 
 661      A824AB52 
 661      D24D15A4 
 661      1254
 662 01a0 27B58CF8 		.ascii	"'\265\214\370h\366\356\327\212\365&\224K\022\323\251"
 662      68F6EED7 
 662      8AF52694 
 662      4B12D3A9 
 663 01b0 89399753 		.ascii	"\2119\227S\252\264\342?\246\256\356\013\035\305\021"
 663      AAB4E23F 
 663      A6AEEE0B 
 663      1DC511
 664 01bf 2A4620A1 		.ascii	"*F \241\034dY\034\355\017\334\211\017\271\336\323\234"
 664      1C64591C 
 664      ED0FDC89 
 664      0FB9DED3 
 664      9C
 665 01d0 9B0F7014 		.ascii	"\233\017p\024\353\272L\270\000O,#\221\336;\015\3431"
 665      EBBA4CB8 
 665      004F2C23 
 665      91DE3B0D 
 665      E331
 666 01e2 609C5EEC 		.ascii	"`\234^\354\235\316\006\331)\011\307\207\344\202x\323"
 666      9DCE06D9 
 666      2909C787 
 666      E48278D3 
 667 01f2 EF8718B3 		.ascii	"\357\207\030\263\211\243\207s\270M<\232\351\342C\246"
 667      89A38773 
 667      B84D3C9A 
 667      E9E243A6 
 668 0202 8FE09177 		.ascii	"\217\340\221wq\033\311\271\304+%.\002\017\337\313\375"
 668      711BC9B9 
 668      C42B252E 
 668      020FDFCB 
 668      FD
 669 0213 196622CA 		.ascii	"\031f\"\312>FJ\211,HK\234\256\341X\377\352]\237\217"
 669      3E464A89 
 669      2C484B9C 
 669      AEE158FF 
 669      EA5D9F8F 
 670 0227 1874B092 		.ascii	"\030t\260\2228\213G2\327\340c\315\3143B\373\267N\214"
 670      388B4732 
 670      D7E063CD 
 670      CC3342FB 
 670      B74E8C
 671 023a 9FA88DAD 		.ascii	"\237\250\215\255\351\006\251\243\224#Ga\013\214\"&\026"
ARM GAS  /tmp/ccOxO95O.s 			page 53


 671      E906A9A3 
 671      94234761 
 671      0B8C2226 
 671      16
 672 024b 214B41CD 		.ascii	"!KA\315\037\376a\275F\275`:*5\036wM\331\363\017\322"
 672      1FFE61BD 
 672      46BD603A 
 672      2A351E77 
 672      4DD9F30F 
 673 0260 2AE3E793 		.ascii	"*\343\347\223Mlw\251J\321?A3\211\343\004\215\346\006"
 673      4D6C77A9 
 673      4AD13F41 
 673      3389E304 
 673      8DE606
 674 0273 C72E7497 		.ascii	"\307.t\227wX\376\332\335=\014\321\015V\224\250l@.\270"
 674      7758FEDA 
 674      DD3D0CD1 
 674      0D5694A8 
 674      6C402EB8 
 675 0287 C065D018 		.ascii	"\300e\320\030\343S\016\263~sI\335\262\222r\324\365\024"
 675      E3530EB3 
 675      7E7349DD 
 675      B29272D4 
 675      F514
 676 0299 1C873C56 		.ascii	"\034\207<V\026\3629=\205\334\2406\367f^\007/\215_\214"
 676      16F2393D 
 676      85DCA036 
 676      F7665E07 
 676      2F8D5F8C 
 677 02ad 53B08B88 		.ascii	"S\260\213\210\373\333\230\200\371\210D\313-\334\311"
 677      FBDB9880 
 677      F98844CB 
 677      2DDCC9
 678 02bc 1C84616D 		.ascii	"\034\204am\330\314jWc\015\222\025&\376\315\352\277\311"
 678      D8CC6A57 
 678      630D9215 
 678      26FECDEA 
 678      BFC9
 679 02ce E99ED48C 		.ascii	"\351\236\324\214\3120\022\340f\237\177\020%@\006\354"
 679      CA3012E0 
 679      669F7F10 
 679      254006EC 
 680 02de F20ABC87 		.ascii	"\362\012\274\207\222>\323m\027O\337nd\372\377\037\242"
 680      923ED36D 
 680      174FDF6E 
 680      64FAFF1F 
 680      A2
 681 02ef 1F66579F 		.ascii	"\037fW\237\227\2057\305\215\325\300\356\016e\2272\235"
 681      978537C5 
 681      8DD5C0EE 
 681      0E659732 
 681      9D
 682 0300 D51D92FA 		.ascii	"\325\035\222\372\206\252\352\237e\365_\374\207\372\035"
 682      86AAEA9F 
 682      65F55FFC 
 682      87FA1D
 683 030f CCF8258B 		.ascii	"\314\370%\213\267J\204W\2310\310)]X\372\3559}pp\201"
ARM GAS  /tmp/ccOxO95O.s 			page 54


 683      B74A8457 
 683      9930C829 
 683      5D58FAED 
 683      397D7070 
 684 0324 375A4957 		.ascii	"7ZIWT\374\004\313\264m\230\374\345r\367n\271\324\177"
 684      54FC04CB 
 684      B46D98FC 
 684      E572F76E 
 684      B9D47F
 685 0337 FBB496DA 		.ascii	"\373\264\226\332\"i\027\270F\335G9M\251\020k\277\177"
 685      226917B8 
 685      46DD4739 
 685      4DA9106B 
 685      BF7F
 686 0349 ECF96AC3 		.ascii	"\354\371j\303u\223{\234\304\207+\304S\217\2071\255e"
 686      75937B9C 
 686      C4872BC4 
 686      538F8731 
 686      AD65
 687 035b DBA6C737 		.ascii	"\333\246\3077k\376\2162\036\301\014\213v\270Eg\341\225"
 687      6BFE8E32 
 687      1EC10C8B 
 687      76B84567 
 687      E195
 688 036d 66AB4070 		.ascii	"f\253@ps\214\320\314\317~\0372\032\353\022\212\017\276"
 688      738CD0CC 
 688      CF7E1F32 
 688      1AEB128A 
 688      0FBE
 689 037f E2A95F46 		.ascii	"\342\251_F\0353\3641\314\021~#\":\232\010\244\315\035"
 689      1D33F431 
 689      CC117E23 
 689      223A9A08 
 689      A4CD1D
 690 0392 417F0F8A 		.ascii	"A\177\017\212b\257\027f\033<\322\337&F\206\266\030_"
 690      62AF1766 
 690      1B3CD2DF 
 690      264686B6 
 690      185F
 691 03a4 D898E25F 		.ascii	"\330\230\342_\201\204\262$-uv\377\245-d\353\362A\366"
 691      8184B224 
 691      2D7576FF 
 691      A52D64EB 
 691      F241F6
 692 03b7 33E2F991 		.ascii	"3\342\371\221\035\214\325\343\263J#\221t)\037\217\267"
 692      1D8CD5E3 
 692      B34A2391 
 692      74291F8F 
 692      B7
 693 03c8 B67AE6F3 		.ascii	"\266z\346\363z\227\327\331\355uuF\275h{W\333k\255Q!"
 693      7A97D7D9 
 693      ED757546 
 693      BD687B57 
 693      DB6BAD51 
 694 03dd BB3AB05B 		.ascii	"\273:\260[vw4U`v\355\216\276\272gg\033\343\242\355;"
 694      76773455 
 694      6076ED8E 
ARM GAS  /tmp/ccOxO95O.s 			page 55


 694      BEBA6767 
 694      1BE3A2ED 
 695 03f2 5BDB85EA 		.ascii	"[\333\205\352~\243\343\037\022\030+4"
 695      7EA3E31F 
 695      12182B34 
 696              		.text
 697              		.section	.gnu.lto_chSemSignalWait.b2d60e8ac4ac89bf,"",%progbits
 698 0000 789C9557 		.ascii	"x\234\225W}L\\U\026\277\347\3367\357\0153C\001\213Z"
 698      7D4C5C55 
 698      16BFE7DE 
 698      37EF0D33 
 698      43018B5A 
 699 0014 A559A909 		.ascii	"\245Y\251\0116~1\232\375\243\266\273nc\372\227\177\220"
 699      367E319A 
 699      FDA3B6BB 
 699      6E63FA97 
 699      7F90
 700 0026 6C4AA226 		.ascii	"lJ\242&\306\030\035\211m\"\2023\270\253\321\015\217"
 700      C6181D89 
 700      6D228233 
 700      B8ABD10D 
 700      8F
 701 0037 81A1C5F5 		.ascii	"\201\241\305\365\2431\2210\265\033\354\226\332j\355"
 701      A3319130 
 701      B51BEC96 
 701      DA6AED
 702 0046 C750D0D2 		.ascii	"\307P\320\322j;\265\305ZJ\313\002\".\375\020((\255P"
 702      6A3BB5C5 
 702      5A4ACB02 
 702      222EFD10 
 702      2828AD50 
 703 005a 4BA58576 		.ascii	"K\245\205v\333\231=\347\27672\037oj\235\300\343\315"
 703      DB993DE7 
 703      BE37321F 
 703      6F6A9DC0 
 703      E3CD
 704 006c BBE79CDF 		.ascii	"\273\347\234\337\357\234{\316\357]\024\006\214>\267"
 704      EF9C7BCE 
 704      EF5D1406 
 704      8C3EB7
 705 007b 6631C6F1 		.ascii	"f1\306\361\366\011\274\007;\003\276\346\030cUv\316\305"
 705      F609BC07 
 705      3B03BEE6 
 705      18635576 
 705      CEC5
 706 008d 070EA63B 		.ascii	"\007\016\246;\224\363\007\030\323]\002\024\343\271\302"
 706      94F30718 
 706      D35D0214 
 706      E3B9C2
 707 009c 6D3373F0 		.ascii	"m3s\360\271\332\260\024\037\333@3\036\253\261\033\015"
 707      B9DAB014 
 707      1FDB4033 
 707      1EABB11B 
 707      0D
 708 00ad 806E743B 		.ascii	"\200nt;\260J.\024\233\252A%\\\344\3278t\327\354X'\246"
 708      B04A2E14 
 708      9BAA4125 
ARM GAS  /tmp/ccOxO95O.s 			page 56


 708      5CE4D738 
 708      74D7EC58 
 709 00c3 78403050 		.ascii	"x@0P\360\353\344\321\265\247\347\320W\200|\374:\322"
 709      F0EBE4D1 
 709      B5A7E7D0 
 709      57807CFC 
 709      3AD2
 710 00d5 563BA1DC 		.ascii	"V;\241\334\275I\307\317`{dIpsX\011\010\316\242\234\301"
 710      BD49C7CF 
 710      607B6449 
 710      70735809 
 710      08CEA29C 
 711 00ea 66980F9B 		.ascii	"f\230\017\233`>\361\373\010\356F\333\236=}\233\024\361"
 711      603EF1FB 
 711      08EE46DB 
 711      9E3D7D9B 
 711      14F1
 712 00fc 076078DF 		.ascii	"\007`x\337\264\255\271],\334\250\353~]\017\226\350\031"
 712      B4ADB95D 
 712      2CDCA8EB 
 712      7E5D0F96 
 712      E819
 713 010e 0121E063 		.ascii	"\001!\340c\020\361~\370\210\301\026X\210\326\301\215"
 713      10F17EF8 
 713      88C11658 
 713      88D6C18D 
 714 011e D18826EE 		.ascii	"\321\210&\356\224\2363\343oL\273L\317\223\246\347'\026"
 714      949E33E3 
 714      6F4CBB4C 
 714      CF93A6E7 
 714      2716
 715 0130 9E5B6121 		.ascii	"\236[a!\231w\356h\353W\304]\322\365\275+\375\353\235"
 715      9977EE68 
 715      EB57C45D 
 715      D2F5BD2B 
 715      FDEB9D
 716 0143 051B886C 		.ascii	"\005\033\210lx\272\337\025\324\3035\371\310\026\266"
 716      78BADF15 
 716      D4C335F9 
 716      C816B6
 717 0152 25BAD307 		.ascii	"%\272\323\007\255\207C\221\3672\325\032\262\316\207"
 717      AD874391 
 717      F732D51A 
 717      B2CE87
 718 0161 ED505027 		.ascii	"\355PP'\030\345\205\351\354\000\025+/\350!!DZ\272\034"
 718      18E585E9 
 718      EC00152B 
 718      2FE82121 
 718      445ABA1C 
 719 0175 E21E89F0 		.ascii	"\342\036\211\360\311D\373U\225\020\374z\270u \313DP"
 719      C944FB55 
 719      9510FC7A 
 719      B87520CB 
 719      4450
 720 0187 20948A00 		.ascii	" \224\212\000\315\322\373\340\350\325\036\247(\224\336"
 720      CDD2FBE0 
 720      E8D51EA7 
ARM GAS  /tmp/ccOxO95O.s 			page 57


 720      2894DE
 721 0196 555BDE5F 		.ascii	"U[\336_\3472\274\007{\257\025uo\250\325\327T\331\311"
 721      E732BC07 
 721      7BAF1575 
 721      6FA8D5D7 
 721      54D9C9
 722 01a9 7FA7857F 		.ascii	"\177\247\205\177\013\024l_\036\326\243\321j,\375_Z\337"
 722      0B146C5F 
 722      1ED6A3D1 
 722      6A2CFD5F 
 722      5ADF
 723 01bb D9D70A58 		.ascii	"\331\327\012X!\"e\223\213*P\3654\254\206\315N\027\007"
 723      21226593 
 723      8B2A50F5 
 723      34AC86CD 
 723      4E1707
 724 01ce 5E54275E 		.ascii	"^T'^\224L\272d\001\225(\233Vr\3502W2\312%\243y2J\036"
 724      944CBA64 
 724      0195289B 
 724      5672E832 
 724      5732CA25 
 725 01e7 5931761E 		.ascii	"Y1v\036S\246\326\230\344\234\376\212a\360g\023\331\215"
 725      53A6D698 
 725      E49CFE8A 
 725      61F06713 
 725      D98D
 726 01f9 1D3DFB9C 		.ascii	"\035=\373\234b\271$>\325\020\332\234a\022\277X\373T"
 726      62B9243E 
 726      D510DA9C 
 726      6112BF58 
 726      FB54
 727 020b F0BB115D 		.ascii	"\360\273\021]\177W\207\200\320\240\325\202\371\2472"
 727      7F578780 
 727      D0A0D582 
 727      F9A732
 728 021a F35567F4 		.ascii	"\363Ug\364/\024\352$\015\362\3413\\\373\021\374\303"
 728      2F14EA24 
 728      0DF2E133 
 728      5CFB11FC 
 728      C3
 729 022b A18E738B 		.ascii	"\241\216s\213\022k\037>\034\265\311\222G9$mKx\353\272"
 729      126B1F3E 
 729      1CB5C992 
 729      4739246D 
 729      4B78EBBA 
 730 023f 23808BBB 		.ascii	"#\200\213\273h\221'/\236y\253\003n#,\006md \2227\225"
 730      6891272F 
 730      9E79AB03 
 730      6E232C06 
 730      6D642092 
 731 0255 C16E5091 		.ascii	"\301nP\221\316\036\332N`\247\001\327\377\335\330<\343"
 731      CE1EDA4E 
 731      60A701D7 
 731      FFDDD83C 
 731      E3
 732 0266 5830058D 		.ascii	"X0\005\215z\003n\234\235\\\266\236\336\243\343\374\240"
 732      7A036E9C 
ARM GAS  /tmp/ccOxO95O.s 			page 58


 732      9D5CB69E 
 732      DEA3E3FC 
 732      A0
 733 0277 E1E7B040 		.ascii	"\341\347\260@v\306\371\361o\216s|\002_\200\"\2313\330"
 733      76C6F9F1 
 733      6F8E737C 
 733      025F8022 
 733      9933D8
 734 028a 2B8763F3 		.ascii	"+\207c\363\336\003\243\256\005\323\246w\006\331^\330"
 734      DE03A3AE 
 734      05D3A677 
 734      06D95ED8 
 735 029a D6DCE794 		.ascii	"\326\334\347\224\336\373\310\033\302\240\260a\340\262"
 735      DEFBC81B 
 735      C2A0B061 
 735      E0B2
 736 02a8 088CFD00 		.ascii	"\010\214\375\000\376\335m\223c\017Q~\325BC\373\372\300"
 736      FEDD6D93 
 736      630F517E 
 736      D54243FB 
 736      FAC0
 737 02ba 975D1A55 		.ascii	"\227]\032UE\310l\247\017u\254v5\302\277\260\226\216"
 737      45C86CA7 
 737      0F75AC76 
 737      35C2BFB0 
 737      968E
 738 02cc 6AA1C27E 		.ascii	"j\241\302~B\243\352\217\370\267i\356\373\003\302\011"
 738      42A3EA8F 
 738      F8B769EE 
 738      FB03C209 
 739 02dc 5F422344 		.ascii	"_B#D\270,\354\001pc\310\352\372\332?\033\001\355F\314"
 739      B82CEC01 
 739      7063C8EA 
 739      FADA3F1B 
 739      01ED46CC 
 740 02f0 D6559D21 		.ascii	"\326U\235!\007\305t\002\300A\214\200\260\365\353\005"
 740      07C57402 
 740      C0418C80 
 740      B0F5EB05 
 741 0300 D9C44154 		.ascii	"\331\304ATQQ\026\263\364@\355\263@_\201\033\243\263"
 741      515116B3 
 741      F440EDB3 
 741      405F811B 
 741      A3B3
 742 0312 21A8E9AA 		.ascii	"!\250\351\252\276\335\304B\343\355\343m\2273\011\310"
 742      BEDDC442 
 742      E3EDE36D 
 742      973309C8 
 743 0322 86053D64 		.ascii	"\206\005=dn\367$V\376\003\207@\314+\253\"c\016\303\332"
 743      6EF72456 
 743      FE038740 
 743      CC2BAB22 
 743      630EC3DA 
 744 0336 910CDC08 		.ascii	"\221\014\334\010i\221]\360\265D\006c.\2177\355orV^#"
 744      69915DF0 
 744      B5440663 
 744      2E8F37ED 
ARM GAS  /tmp/ccOxO95O.s 			page 59


 744      6F72565E 
 745 034b 27DD89DD 		.ascii	"'\335\211\335\012\2071k\006\035PI\2055\223:\361\376"
 745      0A87316B 
 745      061D5049 
 745      8535933A 
 745      F1FE
 746 035d A9488688 		.ascii	"\251H\206\210\202,\342\201\300~\277fN\345\305~aN\245"
 746      822CE281 
 746      C07EBF66 
 746      4EE5C57E 
 746      614EA5
 747 0370 0A472C7A 		.ascii	"\012G,z\263\023\012\220\235\334\230\313-\373vV$5\325"
 747      B3130A90 
 747      9DDC98CB 
 747      2DFB7656 
 747      2435D5
 748 0383 91438F91 		.ascii	"\221C\217\221\211\331\220J\212N\264\320\332Q\331V\307"
 748      89D9904A 
 748      8A4EB4D0 
 748      DA51D956 
 748      C7
 749 0394 284F5BFC 		.ascii	"(O[\374\226\252\011[Jigcv\224sWB\316[\245\234\222\002"
 749      96AA095B 
 749      4A696763 
 749      76947357 
 749      42CE5BA5 
 750 03ab D868F8FF 		.ascii	"\330h\370\377#\263\347F\\\350\306lq\006\365?\021\000"
 750      23B3E746 
 750      5CE8C66C 
 750      7106F53F 
 750      1100
 751 03bd E12188A4 		.ascii	"\341!\210\244;9\022l\000\0035/\036U\261B\315D/\350I"
 751      3B39126C 
 751      0003352F 
 751      1E55B142 
 751      CD442FE8 
 752 03d2 45D55FA3 		.ascii	"E\325_\243z\367JDa \242A\357\032\275\001L\203 P\310"
 752      7AF74A44 
 752      6120A241 
 752      EF1ABD01 
 752      4C832050 
 753 03e7 6FC03D4B 		.ascii	"o\300=K\251O\266\235\277~h>\301\337x\212z&\205\3726"
 753      A94FB69D 
 753      BF7E683E 
 753      C1DF788A 
 753      7A2685FA 
 754 03fc 21BD7EEA 		.ascii	"!\275~\352\254<\012\26764\032\364Z\007D\366y\226\354"
 754      AC3C0AB7 
 754      36341AF4 
 754      5A0744F6 
 754      7996EC
 755 040f 1713FBEF 		.ascii	"\027\023\373\357\256\303\376qB\374/\221WL\300\001\002"
 755      AEC3FE71 
 755      42FC2F91 
 755      574CC001 
 755      02
 756 0420 74504907 		.ascii	"tPI\007G7\334+\265\23568\326KrG\331\030\016\272\354"
ARM GAS  /tmp/ccOxO95O.s 			page 60


 756      4737DC2B 
 756      B59D3638 
 756      D64B7247 
 756      D9180EBA 
 757 0435 DB4C8CD7 		.ascii	"\333L\214\327\3266~\\\303\006\\-\271\314\211r\033\356"
 757      D6367E5C 
 757      C3065C2D 
 757      B9CC8972 
 757      1BEE
 758 0447 F6716C3F 		.ascii	"\366ql?\254i@d\021\367\251\301\207\255\246\253\233\232"
 758      AC694064 
 758      11F7A9C1 
 758      87ADA6AB 
 758      9B9A
 759 0459 1CC96726 		.ascii	"\034\311g&\221\307&\317\206\023\222\266\315h\362x\316"
 759      91C726CF 
 759      861392B6 
 759      CD68F278 
 759      CE
 760 046a FD402FA9 		.ascii	"\375@/\251\223DZ\245\026=\005ns\270&1\013\322d\271\375"
 760      93445AA5 
 760      163D056E 
 760      73B82631 
 760      0BD264B9 
 761 047f 9D5F0983 		.ascii	"\235_\011\203cv\212ndY\215\363\367\263\343<\230\244"
 761      63768A6E 
 761      64598DF3 
 761      F7B3E33C 
 761      98A4
 762 0491 1B394690 		.ascii	"\0339F\220\350G\347v\253\206nT\302\320\215\350\206%"
 762      E847E776 
 762      AB866E54 
 762      C2D08DE8 
 762      8625
 763 04a3 D0F02CD0 		.ascii	"\320\360,\320i*v\016\351\306\261\230n\344\304\011\205"
 763      692A760E 
 763      E9C6B198 
 763      6EE4C409 
 763      85
 764 04b4 8DCDCC91 		.ascii	"\215\315\314\221\311\204\216^\022\311\243\325l\216\035"
 764      C9848E5E 
 764      12C9A3D5 
 764      6C8E1D
 765 04c3 861921C7 		.ascii	"\206\031!\307\271\361M\236#\233<qgr\352PC\351\361\331"
 765      B9F14D9E 
 765      239B3C71 
 765      6772EA50 
 765      43E9F1D9 
 766 04d7 CEBE838E 		.ascii	"\316\276\203\216\331\356\271\011~\300|FM\242o\357\332"
 766      D9EEB909 
 766      7EC07C46 
 766      4DA26FEF 
 766      DA
 767 04e8 5167372B 		.ascii	"Qg7+\375d@\314\205\037%]\315\330\207\3667\273\233\354"
 767      FD6440CC 
 767      851F255D 
 767      CDD887F6 
ARM GAS  /tmp/ccOxO95O.s 			page 61


 767      37BB9BEC 
 768 04fc 94860263 		.ascii	"\224\206\002c\264\001v\312\342\2149\202K\211\010\361"
 768      B40176CA 
 768      E28C3982 
 768      4B8908F1 
 769 050c 42324CEA 		.ascii	"B2L\352\333\2513\016\203\\\356\215\354\201\013\316\246"
 769      DBA9330E 
 769      835CEE8D 
 769      EC810BCE 
 769      A6
 770 051d 0ADB3F48 		.ascii	"\012\333?H'~\222\2226nJ\332\210\254w\334\351 N\305\254"
 770      277E9292 
 770      366E4ADA 
 770      88AC77DC 
 770      E9204EC5 
 771 0532 CF061306 		.ascii	"\317\006\023\006'$\031\376l \026\340\367\310\3409\012"
 771      272419FE 
 771      6C2016E0 
 771      F7C8E039 
 771      0A
 772 0543 902BC7F0 		.ascii	"\220+\307\360r\313\256\2353\220\254\203G\037#\033\002"
 772      72CBAE9D 
 772      3390AC83 
 772      471F231B 
 772      02
 773 0554 92DB11E5 		.ascii	"\222\333\021\345j\352\353\365g\271Y\347\323L\360\\\253"
 773      6AEAEBF5 
 773      67B959E7 
 773      D34CF05C 
 773      AB
 774 0565 091EEC19 		.ascii	"\011\036\354\031*\002\252\314dl\210\177N\035\342\305"
 774      2A02AACC 
 774      646C887F 
 774      4E1DE2C5 
 775 0575 94F60553 		.ascii	"\224\366\005S\201h\035~\241\276\3125d\360D\260\036\010"
 775      81681D7E 
 775      A1BECA35 
 775      64F044B0 
 775      1E08
 776 0587 B45A382D 		.ascii	"\264Z8-\245(+I\212\344\346NI8\305\014w\321\024\264\365"
 776      A5282B49 
 776      8AE4E64E 
 776      4938C50C 
 776      77D114B4 
 777 059c 77FC3EF6 		.ascii	"w\374>\366\364>r\301\245\337\242>m\352\217\304\232!"
 777      F43E72C1 
 777      A5DFA23E 
 777      6DEA8FC4 
 777      9A21
 778 05ae EA4E43F0 		.ascii	"\352NC\360N\006_O\013\350\264\004,&\300\313\327\001"
 778      4E065F4F 
 778      0BE8B404 
 778      2C26C0CB 
 778      D701
 779 05c0 7C8900AF 		.ascii	"|\211\000\257\304\327\352\177\004(\373u\355dZ@\213:"
 779      C4D7EA7F 
 779      0428FB75 
ARM GAS  /tmp/ccOxO95O.s 			page 62


 779      ED645A40 
 779      8B3A
 780 05d2 C549F6D5 		.ascii	"\305I\366\325\204j]3\002J\005\375\360^9\023\0231\005"
 780      846A5D33 
 780      024A05FD 
 780      F05E3913 
 780      133105
 781 05e5 A52FE7CC 		.ascii	"\245/\347\314\223\316\332\320\261Omf/&\210\307\203\314"
 781      93CEDAD0 
 781      B14F6D66 
 781      2F2688C7 
 781      83CC
 782 05f7 B2A45215 		.ascii	"\262\244R\025#\351TqQ@\344B\224\022\313\240\206\325"
 782      23E95471 
 782      5140E442 
 782      9412CBA0 
 782      86D5
 783 0609 3992C842 		.ascii	"9\222\310B\241\256\011\3571:>U\020n\216\322XC\025\257"
 783      A1AE09EF 
 783      313A3E55 
 783      106E8ED2 
 783      584315AF 
 784 061d A4B5C34D 		.ascii	"\244\265\303M\273\257\272H;n\001\033\370\371\374\200"
 784      BBAFBA48 
 784      3B6E011B 
 784      F8F9FC80 
 785 062d B8553650 		.ascii	"\270U6P\250\253^\030C</\231\350\303\327!Z\315\323\020"
 785      A8AB5E18 
 785      433C2F99 
 785      E8C3D721 
 785      5ACDD310 
 786 0641 2D26F5AE 		.ascii	"-&\365\256\3411\365\016pC<\376(k\263\235\346l\236\024"
 786      E131F50E 
 786      70433CFE 
 786      286BB39D 
 786      E66C9E14 
 787 0655 3F95352C 		.ascii	"?\2255,\025cP\035\356\035\220o\236T\376\363\242\244"
 787      1563501D 
 787      EE1D906F 
 787      9E54FEF3 
 787      A2A4
 788 0667 3F508BFC 		.ascii	"?P\213\374\003\34269\335}\003.\371\226\3028\277\276"
 788      03E23639 
 788      DD7D032E 
 788      F996C238 
 788      BFBE
 789 0679 13B4D973 		.ascii	"\023\264\331s\272\021\037X\354\320\236xP\177\371\267"
 789      BA111F58 
 789      ECD09E78 
 789      507FF9B7 
 790 0689 0EEAAB78 		.ascii	"\016\352\253xA\274\310jx\252[\315\323\036\324\353\276"
 790      41BCC86A 
 790      78AA5BCD 
 790      D31ED4EB 
 790      BE
 791 069a 55CD7351 		.ascii	"U\315sQF\252\026\324Q\366)\307\367+t|\177\203\243\213"
 791      46AA16D4 
ARM GAS  /tmp/ccOxO95O.s 			page 63


 791      51F629C7 
 791      F72B747C 
 791      7F83A38B 
 792 06ae 23F5F83E 		.ascii	"#\365\370>\201\307wd\300\340\237\334\372\370\376&\305"
 792      81C77764 
 792      C0E09FDC 
 792      FAF8FE26 
 792      C5
 793 06bf 84B7F8EC 		.ascii	"\204\267\370\354\361=\3228\264\327\031;\231\023U\006"
 793      F13DD238 
 793      B4D7193B 
 793      99135506 
 794 06cf 6F73C5E2 		.ascii	"os\305\342\030\376\0167\217\341\004\300\316b\353\266"
 794      18FE0E37 
 794      8FE104C0 
 794      CE62EBB6 
 795 06df 6FE905E3 		.ascii	"o\351\005\343\215Dr|\001\000\367\3056\336[BeU\233\372"
 795      8D44727C 
 795      0100F7C5 
 795      36DE5B42 
 795      65559BFA 
 796 06f3 00FF1102 		.ascii	"\000\377\021\002*,\306\310+,t\033?e>\267\267\302\355"
 796      2A2CC6C8 
 796      2B2C741B 
 796      3F653EB7 
 796      B7C2ED
 797 0706 F37ADC9E 		.ascii	"\363z\334\236\025\276\222\322B\017\023\276r\037\376"
 797      15BE92D2 
 797      420F13BE 
 797      721FFE
 798 0715 FE5D94FA 		.ascii	"\376]\224\372\236\027\236\212r^Q\236\237d\276\362E\317"
 798      9E179E8A 
 798      725E519E 
 798      9F64BEF2 
 798      45CF
 799 0727 0B2F3F57 		.ascii	"\013/?WB.\236\025\317\025\256`\332\263\317\370J\376"
 799      422E9E15 
 799      CF15AE60 
 799      DAB3CFF8 
 799      4AFE
 800 0739 EA5D797F 		.ascii	"\352]y\177\274\241\247\254\264\264\354Ewy\231\267\302"
 800      BCA1A7AC 
 800      B4B4EC45 
 800      777999B7 
 800      C2
 801 074a E77E6479 		.ascii	"\347~dy\321\262\242W\320\303S\346-y\372o\213J\321k\211"
 801      D1B2A257 
 801      D0C353E6 
 801      2D79FA6F 
 801      8B4AD16B 
 802 075f 8575C92B 		.ascii	"\205u\311+\025d\353^VT\374h\261{\031\032\273\037\215"
 802      1564EB5E 
 802      5654FC68 
 802      B17B191A 
 802      BB1F8D
 803 0772 A195FA56 		.ascii	"\241\225\372V\372\236~\336\343A\327;\3223z\325\207\353"
 803      FA9E7EDE 
ARM GAS  /tmp/ccOxO95O.s 			page 64


 803      E341D73B 
 803      D2337AD5 
 803      87EB
 804 0784 D945C5CB 		.ascii	"\331E\305\313\363\211T\271w\345}\371\005\0170\356eZ"
 804      F38954B9 
 804      77E57DF9 
 804      050F30EE 
 804      655A
 805 0796 69496999 		.ascii	"iIi\231\367U&*^*\377?m\265U\224"
 805      F755262A 
 805      5E2AFF3F 
 805      6DB55594 
 806              		.text
 807              		.section	.gnu.lto_.symbol_nodes.b2d60e8ac4ac89bf,"",%progbits
 808 0000 789C5DCF 		.ascii	"x\234]\317\313J\303`\020\305\361\363\235\351\227\336"
 808      CB4AC360 
 808      10C5F1F3 
 808      9DE997DE 
 809 0010 93A62EDC 		.ascii	"\223\246.\334\010\326}\337qB\011d[\360\011\224\340\375"
 809      08D67DDF 
 809      71420964 
 809      5BF00994 
 809      E0FD
 810 0022 868852C5 		.ascii	"\206\210R\305]U\354\242 >\200(.\013\342\003hM\252\013"
 810      5D55ECA2 
 810      203E8028 
 810      2E0BE203 
 810      684DAA0B 
 811 0036 A7AB03BF 		.ascii	"\247\253\003\277?\014L\005\016/\016\000\307T`8\005\024"
 811      3F0C4C05 
 811      0E2F0E00 
 811      C7546038 
 811      0514
 812 0048 6E946E25 		.ascii	"n\224n%=\300_\022\275\262=R\335R\343\023\225\313\266"
 812      3DC05F12 
 812      BDB23D52 
 812      DD52E313 
 812      95CBB6
 813 005b 43953FC3 		.ascii	"C\225?\303u\262Q\310\036\265be\227\352\255\354S\003"
 813      75B251C8 
 813      1EB56265 
 813      97EAADEC 
 813      5303
 814 006d 2B07D4AA 		.ascii	"+\007\324\252\225Cj\315\312\021\265n\345\230\332\260"
 814      95436ACD 
 814      CA11B56E 
 814      E598DAB0 
 815 007d 72426D5A 		.ascii	"rBmZ9\245\266\254\234Q\333F\334\0255\\\010\220\224o"
 815      39A5B6AC 
 815      9C51DB46 
 815      DC15355C 
 815      0890946F 
 816 0091 B9113532 		.ascii	"\271\02152pA\355\0308\247\306\006n\250\335\377 \210"
 816      7041ED18 
 816      38A7C606 
 816      6EA8DDFF 
 816      2088
ARM GAS  /tmp/ccOxO95O.s 			page 65


 817 00a3 9067B375 		.ascii	"\220g\263ua\347w%FZ\256\217\221?\314o\275\004\036\203"
 817      61E77725 
 817      465AAE8F 
 817      913FCC6F 
 817      BD041E83 
 818 00b7 D76F2741 		.ascii	"\327o'A\027y\271U`\373~N\251\025\373\265*ub\220M\275"
 818      1779B955 
 818      60FB7E4E 
 818      A915FBB5 
 818      2A756290 
 819 00cd 3488B7CF 		.ascii	"4\210\267\317\2764W\220O\212\332\222Em\307\030g\037"
 819      BE345790 
 819      4F8ADA92 
 819      456DC718 
 819      671F
 820 00df 7D098B6B 		.ascii	"}\011\213k\223;J\030!}.r\330\305\373\346l\015?\337\246"
 820      933B4A18 
 820      217D2E72 
 820      D8C5FBE6 
 820      6C0D3FDF 
 821 00f4 7BEC     		.ascii	"{\354"
 822              		.text
 823              		.section	.gnu.lto_.refs.b2d60e8ac4ac89bf,"",%progbits
 824 0000 789C6361 		.ascii	"x\234ca`d\020f```b``dd`\344cd\002\322\214|\014\214\342"
 824      60641066 
 824      60606062 
 824      60606464 
 824      60E46364 
 825 001b 0C0003FA 		.ascii	"\014\000\003\372\000X"
 825      0058
 826              		.text
 827              		.section	.gnu.lto_.decls.b2d60e8ac4ac89bf,"",%progbits
 828 0000 789CB57B 		.ascii	"x\234\265{yT\024Y\232oF\334$\201$\201*uf\352\314\243"
 828      79541459 
 828      9A6F46DC 
 828      24812481 
 828      2A7566EA 
 829 0016 DFD4A9A1 		.ascii	"\337\324\251\241\247x\347L\211Vu-\363\316LO\325xf\272"
 829      A778E74C 
 829      8956752D 
 829      F3CE4C4F 
 829      D57866BA 
 830 002a 9C33D5AF 		.ascii	"\2343\325\257\246\354\352\356Y\336C\204T\350b\353$\261"
 830      A6ECEAEE 
 830      59DE4384 
 830      54E862EB 
 830      24B1
 831 003c 74FEE944 		.ascii	"t\376\351D@DT\026\221U\020AQdU\220\035MQ\331\024DP\020"
 831      40445416 
 831      91551041 
 831      51645590 
 831      1D4D51D9 
 832 0054 D995C59D 		.ascii	"\331\225\305\235U\220M\336w\227\310\210L2\3209g\006"
 832      55904DDE 
 832      7797C888 
 832      4C32D039 
 832      6706
ARM GAS  /tmp/ccOxO95O.s 			page 66


 833 0066 FDC8B811 		.ascii	"\375\310\270\021\337\375\226\337\267\304\215\033\211"
 833      DFFD96DF 
 833      B7C48D1B 
 833      89
 834 0073 52C129F0 		.ascii	"R\301)\360\317\201\277Q(Tv\360i\253P\254\300\2173\234"
 834      CF81BF51 
 834      285476F0 
 834      69AB50AC 
 834      C08F339C 
 835 0087 FB351002 		.ascii	"\3735\020\002r\001R\001}\250\240?\353\201\302a\332!"
 835      72015201 
 835      7DA8A03F 
 835      EB81C261 
 835      DA21
 836 0099 A058A063 		.ascii	"\240X\240c@I@)@\351@'\200N\001\345\000\235\003\312\007"
 836      40494029 
 836      40E94027 
 836      804E01E5 
 836      009D03CA 
 837 00ae 2A042A01 		.ascii	"*\004*\001*\007\252\0012\002]\005j\004\302\026\270\362"
 837      2A07AA01 
 837      32025D05 
 837      6A04C216 
 837      B8F2
 838 00c0 0AB31F2C 		.ascii	"\012\263\037,\377]\370\\\007\264\001\250\017(\024\316"
 838      FF5DF85C 
 838      07B401A8 
 838      0F2814CE 
 839 00d0 7D03F453 		.ascii	"}\003\364S\340\375\013\240?\007r\004\372%\234\373\277"
 839      E0FD0BA0 
 839      3F077204 
 839      FA259CFB 
 839      BF
 840 00e1 409E4006 		.ascii	"@\236@\006\240o\201>\344\251\335epl\017\237\177\012"
 840      A06F813E 
 840      E4A9DD65 
 840      706C0F9F 
 840      7F0A
 841 00f3 6304F4EF 		.ascii	"c\004\364\3570\336\016\344\015\264\007h\033\320?\003"
 841      30DE0EE4 
 841      0DB40768 
 841      1BD03F03 
 842 0103 F973D457 		.ascii	"\371s\324W\254\367/yj'6\351S~\265m\330\357uVl;\360\237"
 842      ACF72F79 
 842      6A2736E9 
 842      537EB56D 
 842      D8EF7556 
 843 011b B0EF3366 		.ascii	"\260\3573f_5\034\333\275\205}\210\351\305\266\3250\333"
 843      5F351CDB 
 843      BD857D88 
 843      E9C5B6D5 
 843      30DB
 844 012d 7E6EC536 		.ascii	"~n\3056\034\017'\026;\301>)n\202~\301\246>\026\333\277"
 844      1C0F2716 
 844      3BC13E29 
 844      6E827EC1 
 844      A63E16DB 
ARM GAS  /tmp/ccOxO95O.s 			page 67


 845 0142 856B9739 		.ascii	"\205k\2279z\354\315\364\356a\272\377]\202\017\226\277"
 845      7AECCDF4 
 845      EE61BAFF 
 845      5D820F96 
 845      BF
 846 0153 85A7F1C3 		.ascii	"\205\247\361\303q\373G\013\375\307\030\336\226\372\277"
 846      71FB470B 
 846      FDC718DE 
 846      96FABF
 847 0162 B4D08FED 		.ascii	"\264\320\217\355QJta=^\314/,\343\227<\225\377+\013\371"
 847      514A7461 
 847      3D5ECC2F 
 847      2CE3973C 
 847      95FF2B0B 
 848 0177 38CF9C65 		.ascii	"8\317\234e\344[\363Q\360K\352+\2448\321\345\315\364"
 848      E45BF351 
 848      F04BEA2B 
 848      A438D1E5 
 848      CDF4
 849 0189 0A384BFD 		.ascii	"\0128K\375\304z~-\361\363\337,\354\300\271\256\221\261"
 849      C47A7E2D 
 849      F1F3DF2C 
 849      ECC0B9AE 
 849      91B1
 850 019b A30A8EFF 		.ascii	"\243\012\216\377\037\360{\001y\003%\3009-|\326\321R"
 850      1FF07B01 
 850      790325C0 
 850      392D7CD6 
 850      D152
 851 01ad 23F1C6F3 		.ascii	"#\361\306\363w\3019_\240@\236\352\303\365\360{8\016"
 851      77C1395F 
 851      A0409EEA 
 851      C3F5F07B 
 851      380E
 852 01bf B6D0857F 		.ascii	"\266\320\205\177\322\231>\313\234\303\376H\365\031\230"
 852      D2993ECB 
 852      9CC3FE48 
 852      F51998
 853 01ce 0D7A380E 		.ascii	"\015z8\016c\266{\261\034K\267\320\211\3534|\015\235"
 853      63B67BB1 
 853      1C4BB7D0 
 853      89EB347C 
 853      0D9D
 854 01e0 27582CAD 		.ascii	"'X,\255\351\224\323\303+D\271\370\334\247\026rO\261"
 854      E994D3C3 
 854      2B44B9F8 
 854      DCA71672 
 854      4FB1
 855 01f2 FCB4563B 		.ascii	"\374\264V;r\276\340\276\023\002\343h\013\177NY\370\203"
 855      72BEE0BE 
 855      1302E368 
 855      0B7F4E59 
 855      F883
 856 0204 FBCDA135 		.ascii	"\373\315\2415\374\301\327\035\326\320\275\226>^!\312"
 856      FCC1D71D 
 856      D6D0BD96 
 856      3E5E21CA 
ARM GAS  /tmp/ccOxO95O.s 			page 68


 857 0214 C7E77E6E 		.ascii	"\307\347~n!\037\367\271w\254\344\3037L6\316Kk\276\011"
 857      211FF7B9 
 857      77ACE4C3 
 857      374C36CE 
 857      4B6BBE09 
 858 0228 79BA1BCE 		.ascii	"y\272\033\3165\300\247\215B\314Mi\015\3321\035R\177"
 858      35C0A78D 
 858      42CC4D69 
 858      0DDA311D 
 858      527F
 859 023a 711D364A 		.ascii	"q\0356J\374\305v\355\261\260+_\246\036\245\376\356\205"
 859      FCC576ED 
 859      B1B02B5F 
 859      A61EA5FE 
 859      EE85
 860 024c 393116BE 		.ascii	"91\026\276\342y\26125^\370\206\032\024\374]\253\016"
 860      E279B132 
 860      355EF886 
 860      1A14FC5D 
 860      AB0E
 861 025e A53528D7 		.ascii	"\2455(\327k\012-z\315\037,\354\300\367\223?\265\022"
 861      6B0A2D7A 
 861      CD1F2CEC 
 861      C0F7933F 
 861      B512
 862 0270 CFB7C55C 		.ascii	"\317\267\305\\j\223\264_\343>-\275\177\010\265\253~"
 862      6A93B45F 
 862      E33E2DBD 
 862      7F08B5AB 
 862      7E
 863 0281 83CD420F 		.ascii	"\203\315B\017\337\316\362\254\304J\274\260/\302\375"
 863      DFCEF2AC 
 863      C44ABCB0 
 863      2FC2FD
 864 0290 455AEFD8 		.ascii	"EZ\357\330\265P+\375|\231\347j;\026[\225=\\7\207C\374"
 864      B5502BFD 
 864      7C99E76A 
 864      3B165B95 
 864      3D5C3787 
 865 02a6 0E39CB71 		.ascii	"\0169\313q\3647GHA\211\014\341\200W0\274\204S\234\300"
 865      F4374748 
 865      41890CE1 
 865      805730BC 
 865      84539CC0 
 866 02ba C8C6BC70 		.ascii	"\310\306\274p\2500\011#\377\331|r\377'?D\210(\235c\223"
 866      A8300923 
 866      FFD97C72 
 866      FF273F44 
 866      88289D63 
 867 02cf E8984D56 		.ascii	"\350\230MVpl\314\213\0128:\024&H\344Qs\2318\321f\223"
 867      706CCC8B 
 867      0A383A14 
 867      2648E451 
 867      739938D1 
 868 02e5 4F9CE074 		.ascii	"O\234\340t\314\245\003\257\225\210\347\360\361\300\374"
 868      CCA503AF 
 868      9588E7F0 
ARM GAS  /tmp/ccOxO95O.s 			page 69


 868      F1C0FC
 869 02f4 D97FD898 		.ascii	"\331\177\330\230o\200\237X\203\201\377K\021\231\333"
 869      6F809F58 
 869      8381FF4B 
 869      1199DB
 870 0303 E1C5C7D1 		.ascii	"\341\305\307\321\014\317\255SsJ\030N\266\244>t\202\341"
 870      0CCFAD53 
 870      734A184E 
 870      B6A43E74 
 870      82E1
 871 0315 0635F73E 		.ascii	"\0065\367>\014S\253g\232m\350U;\030\226\277\310+w\244"
 871      0C53AB67 
 871      9A6DE855 
 871      3B1896BF 
 871      C82B77A4 
 872 0329 578D78F2 		.ascii	"W\215x\362\302\321\312\213\016\350'DCl\357|\215\003"
 872      C2D1CA8B 
 872      0EE82744 
 872      436CEF7C 
 872      8D03
 873 033b FA73722C 		.ascii	"\372sr,\360\255c|gG\217\037\321\320\361\0270\274\323"
 873      F0AD637C 
 873      67478F1F 
 873      D1D0F117 
 873      30BCD3
 874 034e D67F1A21 		.ascii	"\326\177\032!7\302\332\327\230\233\207\365\177\250\346"
 874      37C2DAD7 
 874      989B87F5 
 874      7FA8E6
 875 035d C89A094E 		.ascii	"\310\232\011N\025=\253\234w\244\2470G{\314\324)[\264"
 875      153DAB9C 
 875      77A4A730 
 875      477BCCD4 
 875      295BB4
 876 0370 191FF3F5 		.ascii	"\031\037\363\365\207K.8pn\352\034\354\311\340\374iM"
 876      874B2E38 
 876      706EEA1C 
 876      ECC9E0FC 
 876      694D
 877 0382 A5C1F00E 		.ascii	"\245\301\360\016W\316\251\271\213\034\342r\271\215\330"
 877      57CEA9B9 
 877      8B1CE272 
 877      B98DD8
 878 0391 FF0F7192 		.ascii	"\377\017q\222\0350\030\366\031b\303\014\353\032\235"
 878      1D3018F6 
 878      1962C30C 
 878      EB1A9D
 879 03a0 145C1EE7 		.ascii	"\024\\\036\347\302\235\343\\\024\\\031\347\206\305b"
 879      C29DE35C 
 879      145C19E7 
 879      86C562
 880 03af 46AE144E 		.ascii	"F\256\024N\226\300IP\221{*.K\205\2628\242#\245\364\334"
 880      96C04950 
 880      917B2A2E 
 880      4B85B238 
 880      A223A5F4 
 881 03c4 9CDAA4A3 		.ascii	"\234\332\244\243<\372g\371XG\025\350\250\020u\200JY"
ARM GAS  /tmp/ccOxO95O.s 			page 70


 881      3CFA67F9 
 881      584715E8 
 881      A8107580 
 881      4A59
 882 03d6 2595D695 		.ascii	"%\225\326\225\030\022\026O8\242\375$\036|Z\322\345Z"
 882      1812164F 
 882      38A2FD24 
 882      1E7C5AD2 
 882      E55A
 883 03e8 1B4EED66 		.ascii	"\033N\355f]B\255\025\011\324\234\332x\367ZlN\015\230"
 883      5D42AD15 
 883      09D49CDA 
 883      78F75A6C 
 883      4E0D98
 884 03fb 532D9A53 		.ascii	"S-\232SE\314\001%\275%\207\257\332\241\006\032\364\274"
 884      45CC0125 
 884      BD2587AF 
 884      DAA1061A 
 884      F4BC
 885 040d B9F08BCE 		.ascii	"\271\360\213\316\350\026\035\\Y\356>\256Fw\351\240}"
 885      E8161D5C 
 885      59EE3EAE 
 885      4677E9A0 
 885      7D
 886 041e E266BA03 		.ascii	"\342f\272\003\015\310;0,\033m\252W\323\270\0328\030"
 886      0DC83B30 
 886      2C1B6DAA 
 886      57D3B81A 
 886      3818
 887 0430 2F9DBE75 		.ascii	"/\235\276u\317\016\365Q\336\352\362\232z\226\003\233"
 887      CF0EF551 
 887      DEEAF29A 
 887      7A96039B 
 888 0440 6018369C 		.ascii	"`\0306\234>\344\204F\351\265\372\230\360Cj4N}\2720\232"
 888      3EE48446 
 888      E9B5FA98 
 888      F0436A34 
 888      4E7DBA30 
 889 0455 966E2F00 		.ascii	"\226n/\000gl\347\336\341\032\301\312zK+\255\273\334"
 889      676CE7DE 
 889      E11AC1CA 
 889      7A4B2BAD 
 889      BBDC
 890 0467 601DB4B4 		.ascii	"`\035\264\264\351\276\307\366T\271\033\016T\325\364"
 890      E9BEC7F6 
 890      54B91B0E 
 890      54D5F4
 891 0476 69155AA4 		.ascii	"i\025Z\244\312\037\254\274\376\035\012G\3448*?\252\336"
 891      CA1FACBC 
 891      FE1D0A47 
 891      E4382A3F 
 891      AADE
 892 0488 091DA283 		.ascii	"\011\035\242\203\254\313\325\317l\321q:\0202z\035\315"
 892      ACCBD5CF 
 892      6CD1713A 
 892      10327A1D 
 892      CD
ARM GAS  /tmp/ccOxO95O.s 			page 71


 893 0499 E8B34F06 		.ascii	"\350\263O\006\226\020\312\243\327\206z\033\212\235P"
 893      9610CAA3 
 893      D7867A1B 
 893      8A9D50
 894 04a8 011D54CF 		.ascii	"\001\035T\317\245U;\243R:hy\2702\245F\325t\320\276\200"
 894      A5553BA3 
 894      523A6879 
 894      B832A546 
 894      D574D0BE 
 895 04bd 0BA98E0E 		.ascii	"\013\251\216\016\"\016\027$a\254T4am\341\324\360\304"
 895      220E1724 
 895      61AC5434 
 895      616DE1D4 
 895      F0C4
 896 04cf 4299929E 		.ascii	"B\231\222\236\302\256\357\201S\351)\275\347\235P3\231"
 896      C2AEEF81 
 896      53E929BD 
 896      E79D5033 
 896      99
 897 04e0 C25F9E2B 		.ascii	"\302_\236+\252\267\023\263vyK\230\301\300q\367\000\234"
 897      AAB713B3 
 897      76794B98 
 897      C1C071F7 
 897      009C
 898 04f2 4E111C15 		.ascii	"N\021\034\025\303\306\260\032\233.\300F\305\260\271"
 898      C3C6B01A 
 898      9B2EC046 
 898      C5B0B9
 899 0501 0B27EF50 		.ascii	"\013'\357Pl\246\346'J\225\350\016\325Q{\360Y\255\275"
 899      6CA6E627 
 899      4A95E80E 
 899      D5517BF0 
 899      59ADBD
 900 0514 246B37E6 		.ascii	"$k7\346\3414\351\001\035\335\242\216{\234\274\222\373"
 900      E134E901 
 900      1DDDA28E 
 900      7B9CBC92 
 900      FB
 901 0525 D695741D 		.ascii	"\326\225t\035\352\350Q\241^\252\344BTw\012\313Z+\022"
 901      EAE851A1 
 901      5EAAE442 
 901      54770ACB 
 901      5A2B12
 902 0538 FAAD4860 		.ascii	"\372\255H`Y\333N\263\266\017\314\351\025\315\351\021"
 902      59DB4EB3 
 902      B60FCCE9 
 902      15CDE911 
 903 0548 B2B6FE56 		.ascii	"\262\266\376V\346\264\035z@\001\256\214\213\177n\207"
 903      E6B41D7A 
 903      4001AE8C 
 903      8B7F6E87 
 904 0558 1ED1417F 		.ascii	"\036\321A\177rt\265\003Z\244\203K1S\025\366h\237\222"
 904      7274B503 
 904      5AA4834B 
 904      315315F6 
 904      689F92
 905 056b 0C225F3D 		.ascii	"\014\"_=(vF\321J\263|\336@\363\371I\230qH\211\342\351"
ARM GAS  /tmp/ccOxO95O.s 			page 72


 905      287646D1 
 905      4AB37CDE 
 905      40F3F949 
 905      98714889 
 906 0581 B5A288E1 		.ascii	"\265\242\210\341\\;\270\346\002\001\343$\355\305\205"
 906      5C3BB8E6 
 906      0201E324 
 906      EDC585
 907 0590 B69752E3 		.ascii	"\266\227R\343t\201\022%\021^\376vI\367u\021\305\371"
 907      74811225 
 907      115EFE76 
 907      49F77511 
 907      C5F9
 908 05a2 975F9148 		.ascii	"\227_\221H=\001\263\037\211f\273\230\262x\"\313\240"
 908      3D01B31F 
 908      8966BB98 
 908      B27822CB 
 908      A0
 909 05b3 7A4FC17D 		.ascii	"zO\301}\342\302m\002\377\037\203\377.\314\3771\360\177"
 909      E2C26D02 
 909      FF1F83FF 
 909      2ECCFF31 
 909      F07F
 910 05c5 94359713 		.ascii	"\2245\227\023g\2579\242\223T\301\363\204\247\007\220"
 910      67AF39A2 
 910      9354C1F3 
 910      84A70790 
 911 05d5 244C2E24 		.ascii	"$L.$L\317A\301SQ\301\023NF\3033\353\032\366\035\355"
 911      4CCF41C1 
 911      5351C113 
 911      4E46C333 
 911      EB1AF61D 
 912 05ea C8B747B9 		.ascii	"\310\267G\271TCBAA\236\230l\265\361\033\011\362\023"
 912      54434241 
 912      419E986C 
 912      B5F11B09 
 912      F213
 913 05fc A0E185A8 		.ascii	"\240\341\205\250\341\271\234\206q\353\032\216\245\216"
 913      E1B99C86 
 913      71EB1A8E 
 913      A58E
 914 060a BE87CE53 		.ascii	"\276\207\316S<\243\017\275.B\250\234j\233\253\315.\025"
 914      3CA30FBD 
 914      2E42A89C 
 914      6A9BABCD 
 914      2E15
 915 061c 6BBE146A 		.ascii	"k\276\024j~\0064M\275\205\246i\353\232\372\322\307\247"
 915      7E06344D 
 915      BD85A669 
 915      EB9AFAD2 
 915      C7A7
 916 062e 95E83255 		.ascii	"\225\3502Uu\352j\321m[t\235\252Z\036x^\356dRU\006\252"
 916      75EA6AD1 
 916      6D5B749D 
 916      AA5A1E78 
 916      5EEE6452 
 917 0645 5E81AAD9 		.ascii	"^\201\252\331\267P5g]\325\213\360\221A\326\004\337\303"
ARM GAS  /tmp/ccOxO95O.s 			page 73


 917      B7503567 
 917      5DD58BF0 
 917      9141D604 
 917      DFC3
 918 0657 37B384E4 		.ascii	"7\263\204\344OP+U\374\374t\353\005\334v\334\324\334"
 918      4F502B55 
 918      FCFC74EB 
 918      05DC76DC 
 918      D4DC
 919 0669 1F2429E3 		.ascii	"\037$)\343FS\346x\334\203${t\227\232u,\367U\026/t\362"
 919      4653E678 
 919      DC83247B 
 919      74979A75 
 919      2CF75516 
 920 0680 CC30C307 		.ascii	"\3140\303\007\241\347Ae\001\250\311\307E\261\002\272"
 920      A1E74165 
 920      01A8C9C7 
 920      45B102BA 
 921 0690 DD98EE25 		.ascii	"\335\230\356%8\271h*\212\371\347\216\344\356\365\032"
 921      38B9682A 
 921      8AF9E78E 
 921      E4EEF51A 
 922 06a0 BC5816BD 		.ascii	"\274X\026\275pc5\021\031~6\306\001\015R%\031q\263\325"
 922      70633511 
 922      197E36C6 
 922      010D5225 
 922      1971B3D5 
 923 06b4 6A7925FB 		.ascii	"jy%\373x9%\345\321?'\267\257P\036z\023oR\362Z\250\274"
 923      783925E5 
 923      D13F27B7 
 923      AF501E7A 
 923      136F52F2 
 924 06cb FEA29E6B 		.ascii	"\376\242\236kJ\364\230j\251+\353\236T\311k\211\220\325"
 924      4AF4986A 
 924      A92BEB9E 
 924      54C96B89 
 924      90D5
 925 06dd D23DE693 		.ascii	"\322=\346\223~\307`x\237\013\0075a\242\032\320J\325"
 925      7EC76078 
 925      9F0B0735 
 925      61A21AD0 
 925      4AD5
 926 06ef E4DC7E16 		.ascii	"\344\334~\026\317k\016\212\235\237p\012\235C\301\355"
 926      CF6B0E8A 
 926      9D9F700A 
 926      9D43C1ED 
 927 06ff E7356C3D 		.ascii	"\3475l=\262\357A\0314\305\014\033\002\364\335W\265\013"
 927      B2EF4119 
 927      34C50C1B 
 927      02F4DD57 
 927      B50B
 928 0711 1A944D06 		.ascii	"\032\224M\006\312\222}\003'!\376.\034\314\342h\026\340"
 928      CA927D03 
 928      2721FE2E 
 928      1CCCE268 
 928      16E0
 929 0723 B58C823B 		.ascii	"\265\214\202;\004\242\016\360HX\356\245\032\300\376"
ARM GAS  /tmp/ccOxO95O.s 			page 74


 929      04A20EF0 
 929      4858EEA5 
 929      1AC0FE
 930 0732 893FE0D3 		.ascii	"\211?\340\323plG>\255$E\024x\203/)\270h\336\205;\310"
 930      706C473E 
 930      AD244514 
 930      78832F29 
 930      B868DE85 
 931 0748 9394B8DF 		.ascii	"\223\224\270\337p3\\\245f\334\261o\342~\2327\332\351"
 931      70335CA5 
 931      66DCB16F 
 931      E27E9A37 
 931      DAE9
 932 075a 64E6D561 		.ascii	"d\346\325a3\257\216\230\274\272\322\022\226\353\200"
 932      33AF8E98 
 932      BCBAD212 
 932      96EB80
 933 0769 CE52AF1E 		.ascii	"\316R\257\036,\237\034\266E\205t\360*\271\351\224#*"
 933      2C9F1CB6 
 933      458574F0 
 933      2AB9E994 
 933      232A
 934 077b A583F8FC 		.ascii	"\245\203\370\374\266.\025\252\240\203\376\302\3275*"
 934      B62E15AA 
 934      A083FEC2 
 934      D7352A
 935 078a 544D0727 		.ascii	"TM\007'z'\013l\321%2\340\307\342rJ\324\234\306M\252"
 935      7A270B6C 
 935      D12532E0 
 935      C7E2724A 
 935      D49CC64D 
 936 079f F9D77F2C 		.ascii	"\371\327\177,6\342D0\366{\015\013\002-\227\264\006g"
 936      36E24430 
 936      F67B0D0B 
 936      022D97B4 
 936      0667
 937 07b1 0360718C 		.ascii	"\003`q\214\327p\011b|\276\327P\363\006\367\325w\300"
 937      D7700962 
 937      7CBED750 
 937      F306F7D5 
 937      77C0
 938 07c3 AA81AA9A 		.ascii	"\252\201\252\232|qg\311\021\335\240\003\303"
 938      7C7167C9 
 938      11DDA003 
 938      C3
 939 07d0 FCA5FB2A 		.ascii	"\374\245\373*t\213\016z\216\275\032\264G\355t\320x7"
 939      748B0E7A 
 939      8EBD1AB4 
 939      47ED74D0 
 939      7837
 940 07e2 FAB212DD 		.ascii	"\372\262\022\335\245\20337\006\0156\350\036\035\324"
 940      A5833337 
 940      060D36E8 
 940      1E1DD4
 941 07f1 1CBCB164 		.ascii	"\034\274\261d\207z\350 \265*r\237\032\365\323A\336\312"
 941      877AE820 
 941      B52A729F 
ARM GAS  /tmp/ccOxO95O.s 			page 75


 941      1AF5D341 
 941      DECA
 942 0803 748C060D 		.ascii	"t\214\006\0151\317kng\361\264\374\\ax\316\030\335\210"
 942      31CF6B6E 
 942      67F1B4FC 
 942      5C6178CE 
 942      18DD88
 943 0816 680BCFE4 		.ascii	"h\013\317\344\227y\207C\035\235\031<\347J~\326\273\301"
 943      97798743 
 943      1D9D193C 
 943      E74A7ED6 
 943      BBC1
 944 0828 AF2CECED 		.ascii	"\257,\354\355`\365\370\366\376\366a\203!^C\2349\012"
 944      60F5F8F6 
 944      FEF66183 
 944      215E439C 
 944      390A
 945 083a CE9CE5D7 		.ascii	"\316\234\345\327\213\276\267\022\3447\343\347\0162\301"
 945      8BBEB712 
 945      E437E3E7 
 945      0E32C1
 946 0849 78A94B63 		.ascii	"x\251Kc\210\365$\314i\226\314\371\2049\217\023\271\357"
 946      88F524CC 
 946      6996CCF9 
 946      84398F13 
 946      B9EF
 947 085b 88DCC996 		.ascii	"\210\334\311\226\334\363\226\242;E\346$\353\314R\321"
 947      DCF396A2 
 947      3B45E624 
 947      EBCC52D1 
 948 086b 552277BA 		.ascii	"U\"w\272%\267\273%s\273\310\234b\311|E\":\216\225\201"
 948      25B7BB25 
 948      73BBC89C 
 948      62C97C45 
 948      223A8E95 
 949 0880 81D32BB8 		.ascii	"\201\323+\270\223\220\232\231\220\232\334\0116\005\302"
 949      93909A99 
 949      909ADC09 
 949      3605C2
 950 088f CCE54232 		.ascii	"\314\345B2\234\343]\271\034\240|\240l\240<\2403@\247"
 950      9CE35DB9 
 950      1CA07CA0 
 950      6CA03CA0 
 950      3340A7
 951 08a2 804E0365 		.ascii	"\200N\003e\361\256\244th\256L'jp\256\200\000\005K\024"
 951      F1AEA474 
 951      68AE4C27 
 951      6A70AE80 
 951      00054B14 
 952 08b6 85C9AECA 		.ascii	"\205\311\256\312\256\015)\006#,\272\260e\031V\335\220"
 952      AE0D2906 
 952      232CBAB0 
 952      651956DD 
 952      90
 953 08c7 00D4267A 		.ascii	"\000\324&z\221j\335\013\011s\215\310|\334z\240\0103"
 953      916ADD0B 
 953      09738DC8 
ARM GAS  /tmp/ccOxO95O.s 			page 76


 953      7CDC7AA0 
 953      0833
 954 08d9 7E9A7B95 		.ascii	"~\232{\225z\324\336\254\356\244\314\320\261Lu\327_\223"
 954      7AD4DEAC 
 954      EEA4CCD0 
 954      B14C75D7 
 954      5F93
 955 08eb 35E788D2 		.ascii	"5\347\210\322T8\341PJ\376\300\254=\347\352\266\236f"
 955      5438E150 
 955      4AFEC0AC 
 955      3DE7EAB6 
 955      9E66
 956 08fd 52F7D8B7 		.ascii	"R\367\330\267\271\3754\223`\002\027\017:\317[w\206\302"
 956      B9FD3493 
 956      6002170F 
 956      3ACF5B77 
 956      86C2
 957 090f 527290C0 		.ascii	"Rr\220\300r\336\034\2268\266\024\"\0010\315-d\302p\000"
 957      72DE1C96 
 957      38B61422 
 957      0130CD2D 
 957      64C27000 
 958 0923 8A210045 		.ascii	"\212!\000E\014`\\\003\373\306\236#t\226\230\304=\035"
 958      0C605C03 
 958      FBC69E23 
 958      749698C4 
 958      3D1D
 959 0935 CDEBE451 		.ascii	"\315\353\344Q\001\035\034\037\250\353gk\335kx\\6\220"
 959      011D1C1F 
 959      A8EB676B 
 959      DD6B785C 
 959      3690
 960 0947 10A56115 		.ascii	"\020\245a\025\201\237\315\306fg;U\250\2342\227\254\344"
 960      819FCDC6 
 960      66673B55 
 960      A89C3297 
 960      ACE4
 961 0959 EE47A896 		.ascii	"\356G\250\226\016\256=\354h\264A\365t\220Y7\364\021"
 961      0EAE3DEC 
 961      68B441F5 
 961      74905937 
 961      F411
 962 096b EAA2C755 		.ascii	"\352\242\307U\307j`-\325K\007\321\307\236\3478\241g"
 962      C76A602D 
 962      D54B07D1 
 962      C79EE738 
 962      A167
 963 097d 74B0F828 		.ascii	"t\260\370(\241\233\243\3124\270\355Vw\3079S]\203\344"
 963      A19BA3CA 
 963      34B8ED56 
 963      77C73953 
 963      5D83E4
 964 0990 092EF5B5 		.ascii	"\011.\365\265Q\211\346)\357\220a1E\203\226\311\200\257"
 964      5189E629 
 964      EF906131 
 964      458396C9 
 964      80AF
ARM GAS  /tmp/ccOxO95O.s 			page 77


 965 09a2 3ED8D7A7 		.ascii	">\330\327\247\224]\003^\341\345\327\200\237\222\225"
 965      945D035E 
 965      E1E5D780 
 965      9F9295
 966 09b1 88115AE4 		.ascii	"\210\021Z\344e~\325\032\360\257\027\036\207\217;r\256"
 966      657ED51A 
 966      F0AF171E 
 966      878F3B72 
 966      AE
 967 09c2 EBA1D235 		.ascii	"\353\241\3225\353\331\177\374\317\315\015\177\300\357"
 967      EBD97FFC 
 967      CFCD0D7F 
 967      C0EF
 968 09d0 0DF48A2B 		.ascii	"\015\364\212+\364\002\215\0067\0047W\323\017\\vs\243"
 968      F4028D06 
 968      37043757 
 968      D30F5C76 
 968      73A3
 969 09e2 614D5AD8 		.ascii	"aMZ\330\336<E\303\212\037?\256\303\235\365\2524\254"
 969      DE3C45C3 
 969      8A1F3FAE 
 969      C39DF5AA 
 969      34AC
 970 09f4 D7E4AAE7 		.ascii	"\327\344\252\347\"TO)\256\236\022\236N\301\301\233\007"
 970      22544F29 
 970      AE9E129E 
 970      4EC1C19B 
 970      07
 971 0a05 7F5E4185 		.ascii	"\177^A\205\314\001\315\002\275\004\232\001\232\006\232"
 971      CC01CD02 
 971      BD049A01 
 971      9A069A
 972 0a14 029A049A 		.ascii	"\002\232\004\232\000\032\007\352\005\352\004\272\005"
 972      001A07EA 
 972      05EA04BA 
 972      05
 973 0a21 5407540F 		.ascii	"T\007T\017t\035\350\032\013>M\363\364\243?\241\025\004"
 973      741DE81A 
 973      0B3E4DF3 
 973      F4A33FA1 
 973      1504
 974 0a33 1DBA8CB7 		.ascii	"\035\272\214\2670\256\330\262(V\332](7~\340\273`\351"
 974      30AED8B2 
 974      2856DA5D 
 974      28377EE0 
 974      BB60E9
 975 0a46 CBF9554D 		.ascii	"\313\371UMf.\236Io\200\224\276d\235\237\210\227VO\243"
 975      662E9E49 
 975      6F8094BE 
 975      649D9F88 
 975      97564FA3 
 976 0a5a 59F534D0 		.ascii	"Y\3654\320\3521\303\246\016\256\342\202\345\256\202"
 976      EA31C3A6 
 976      0EAEE282 
 976      E5AE82
 977 0a69 C84686CD 		.ascii	"\310F\206\315\022`\263\010\376\335\004j\222\3728\230"
 977      1260B308 
ARM GAS  /tmp/ccOxO95O.s 			page 78


 977      FEDD046A 
 977      92FA3898 
 978 0a79 BC189414 		.ascii	"\274\030\224\024fh\334\3045\203\025El\212\325\256+5"
 978      6668DCC4 
 978      35831545 
 978      6C8AD5AE 
 978      2B35
 979 0a8b E3869919 		.ascii	"\343\206\231\031\315k\231\261\014\252\337h\206\361\225"
 979      CD6B99B1 
 979      0CAADF68 
 979      86F195
 980 0a9a D610A5E2 		.ascii	"\326\020\245\342Z\300\206\313\326mX\205D\253\231\011"
 980      5AC086CB 
 980      D66D5885 
 980      44AB9909 
 981 0aaa 78264D53 		.ascii	"x&MS\353\211\262\000\232\377\233\022\305\200\0239\250"
 981      EB89B200 
 981      9AFF9B12 
 981      C5801339 
 981      A8
 982 0abb 692A9C24 		.ascii	"i*\234$r\033(if\3014-\307\232\344\022\331\304q\027l"
 982      721B2869 
 982      66C1342D 
 982      C79AE412 
 982      D9C47117 
 983 0ad0 6A67F6DD 		.ascii	"jg\366\335\201\343\016\320q\333\014\241\264\203,]\260"
 983      81E30ED0 
 983      71DB0CA1 
 983      B4832C5D 
 983      B0
 984 0ae1 AB95908D 		.ascii	"\253\225\220\215\3552w%\252\300h\241\240\202\315\220"
 984      ED327725 
 984      AAC068A1 
 984      A082CD90 
 985 0af1 5790DC4C 		.ascii	"W\220\334L\232z\013\313\203\325\342%\0156\2116\330v"
 985      9A7A0BCB 
 985      83D5E225 
 985      0D368936 
 985      D876
 986 0b03 F3064BBB 		.ascii	"\363\006K\273G\312k\237\344\370PXab(\252\304\366\201"
 986      47CA6B9F 
 986      E4F85058 
 986      616228AA 
 986      C4F681
 987 0b16 9945C0BE 		.ascii	"\231E\300\276lb\225\337\005\\7,\263\277I\214\271\365"
 987      6C6295DF 
 987      055C372C 
 987      B3BF498C 
 987      B9F5
 988 0b28 AEDD032E 		.ascii	"\256\335\003.t3w\356\303\361=3W\026#%Xag\272\255;c]"
 988      743377EE 
 988      C3F13D33 
 988      57162325 
 988      586167BA 
 989 0b40 F64D36C1 		.ascii	"\366M6\301R6u}>\222\270\336m\335\365\240\310(X\350\022"
 989      5236757D 
 989      3E92B8DE 
ARM GAS  /tmp/ccOxO95O.s 			page 79


 989      6DDDF5A0 
 989      C82858E8 
 990 0b55 A75AC407 		.ascii	"\247Z\304\007\205n3\327\177\333\310\\\357\3437p\267"
 990      856E33D7 
 990      7FDBC85C 
 990      EFE33770 
 990      B7
 991 0b66 2C5D6F95 		.ascii	",]o\225\344J\2745\373\024d\0366\356\005\030\367\034"
 991      E44ABC35 
 991      FB14641E 
 991      36EE0518 
 991      F71C
 992 0b78 E2F80CE8 		.ascii	"\342\370\014\350)\320\030\320(\320 \320\000P\277\031"
 992      29D018D0 
 992      28D020D0 
 992      0050BF19 
 993 0b88 28F1ED24 		.ascii	"(\361\355$\276\270\323\266\201R,Dv50\035#\351M\267\337"
 993      BEB8D3B6 
 993      81522C44 
 993      7635301D 
 993      23E94DB7 
 994 0b9d C4DD768B 		.ascii	"\304\335v\213H\036\002\336vy^i\361>0+\336!+\375\243"
 994      481E02DE 
 994      76795E69 
 994      F13E302B 
 994      DE212BFD 
 995 0bb2 162AB706 		.ascii	"\026*\267\006Wn5d\320\003\026\215\021px\030\034{hV}"
 995      576E3564 
 995      D003168D 
 995      11707818 
 995      1C7B6856 
 996 0bc7 252B7B12 		.ascii	"%+{\022\317\354\307\026\340\033\326%\306o\255\177\020"
 996      CFECC716 
 996      E01BD625 
 996      C66FAD7F 
 996      10
 997 0bd8 7EE37D1B 		.ascii	"~\343}\033\334kpv\026r\224\327T%\226y\336}\222\303\301"
 997      DC6B7076 
 997      167294D7 
 997      54259679 
 997      DE7D92C3 
 998 0bed 7EB06A7D 		.ascii	"~\260j}E\002\271\247F\010$`\332\361&\224\216\011\230"
 998      4502B9A7 
 998      46082460 
 998      DAF12694 
 998      8E0998
 999 0c00 3E029C06 		.ascii	">\002\234\006\336\016\247\307\300*\342\364\210\342$"
 999      DE0EA7C7 
 999      C02AE2F4 
 999      88E224
 1000 0c0f D705B927 		.ascii	"\327\005\271'\000\217\330\010\205\224\374\272!\002\247"
 1000      008FD808 
 1000      8594FCBA 
 1000      2102A7
 1001 0c1e 24163528 		.ascii	"$\0265(\246d\013\221%\334\207\177[=C=\201;\335\320\232"
 1001      A6640B91 
 1001      25DC877F 
ARM GAS  /tmp/ccOxO95O.s 			page 80


 1001      5B3D433D 
 1001      813BDDD0 
 1002 0c33 8E60505A 		.ascii	"\216`PZ\331\215\016\273\375\340M\334U\255$90\357Cy^"
 1002      D98D0EBB 
 1002      FDE04DDC 
 1002      55AD2439 
 1002      30EF4379 
 1003 0c48 0A777A2B 		.ascii	"\012wz+\201\033xV/g\357\336pI2\030C\021\331\037\031"
 1003      811B7856 
 1003      2F67EFDE 
 1003      70493218 
 1003      4311D91F 
 1004 0c5d 6155C31E 		.ascii	"aU\303\036\371h\315\014KW\3607\034\014\305\333\311\016"
 1004      F968CD0C 
 1004      4B57F037 
 1004      1C0CC5DB 
 1004      C90E
 1005 0c6f C7A435DE 		.ascii	"\307\2445\336OD\326\013\224\025\357P\274\264\306*\011"
 1005      4F44D60B 
 1005      9415EF50 
 1005      BCB4C62A 
 1005      09
 1006 0c80 614A340B 		.ascii	"aJ4\013!<\004s\013\226\225\273\3729b\226\266Tx\270\344"
 1006      213C0473 
 1006      0B9695BB 
 1006      FA396296 
 1006      B65478B8 
 1007 0c95 222DD70F 		.ascii	"\"-\327\017\253\036Q\356\211\3757\306\222\371\312*\321"
 1007      AB1E51EE 
 1007      89FD37C6 
 1007      92F9CA2A 
 1007      D1
 1008 0ca6 9D2277AC 		.ascii	"\235\"w\254unI\014:\232Y\304\360B7\316\222}\365\243"
 1008      756E490C 
 1008      3A9A59C4 
 1008      F04237CE 
 1008      927DF5A3 
 1009 0cba 551B154E 		.ascii	"U\033\025N\0262\326\271%\302/\375#\346\025\312\351\352"
 1009      1632D6B9 
 1009      25C22FFD 
 1009      23E615CA 
 1009      E9EA
 1010 0ccc 5AE5544B 		.ascii	"Z\345TKo\033W\255\367\316\3559\2218QqJ\227\213\267\215"
 1010      6F1B57AD 
 1010      F7CEED39 
 1010      91385171 
 1010      4A978BB7 
 1011 0ce1 AB92DE99 		.ascii	"\253\222\336\231\262\370m\322\031\203T]\343Z\352\246"
 1011      B2F86DD2 
 1011      1983545D 
 1011      E35AEAA6 
 1012 0cf1 3DB1B646 		.ascii	"=\261\266F+\332\214\335#$\323\360:\306(\026E#\321\005"
 1012      2BDA8CDD 
 1012      2324D3F0 
 1012      3AC62816 
 1012      4523D105 
 1013 0d05 CBE88EA8 		.ascii	"\313\350\216\250\301\303\016(\312\216,\243\3175=[D\234"
ARM GAS  /tmp/ccOxO95O.s 			page 81


 1013      C1C30E28 
 1013      CA8E2CA3 
 1013      CF353D5B 
 1013      449C
 1014 0d17 DBFA1CD6 		.ascii	"\333\372\034\326m\276,\307\213c\003Z\317\275\026\315"
 1014      6DBE2CC7 
 1014      8B63035A 
 1014      CFBD16CD 
 1015 0d27 7C40A65A 		.ascii	"|@\246Zoa+P\227r-\014\357\330e-\246\333\230=#a\331b"
 1015      6F612B50 
 1015      97722D0C 
 1015      EFD8652D 
 1015      A6DB983D 
 1016 0d3f D98722E1 		.ascii	"\331\207\"\341\031\251~>qA\245\344\3519n\207\222l\177"
 1016      19A97E3E 
 1016      7141A5E4 
 1016      E9396E87 
 1016      926C7F
 1017 0d52 5F3916C1 		.ascii	"_9\026\301\277\227\310\356\024\357+I\245\211\223\303"
 1017      BF97C8EE 
 1017      14EF2B49 
 1017      A58993C3 
 1018 0d62 D07BF07B 		.ascii	"\320{\360{\037RR\011U\225\375\323\316\037d\032\214\305"
 1018      1F525209 
 1018      5595FDD3 
 1018      CE1F641A 
 1018      8CC5
 1019 0d74 86C19E2C 		.ascii	"\206\301\236,\337\212\302\375\007bC\015\206\355\204"
 1019      DF8AC2FD 
 1019      0762430D 
 1019      86ED84
 1020 0d83 913B2B42 		.ascii	"\221;+B\001\207\370\343\014\254\372\025\\8\372\000\346"
 1020      0187F8E3 
 1020      0CACFA15 
 1020      5C38FA00 
 1020      E6
 1021 0d94 D68DCD94 		.ascii	"\326\215\315\224\332\243\363\004\024n\266))\317\021"
 1021      DAA3F304 
 1021      146EB629 
 1021      29CF11
 1022 0da3 3553844E 		.ascii	"5S\204N\305\217\033\305w=\2239[O\220-\246\003H\315\301"
 1022      C58F1BC5 
 1022      773D9339 
 1022      5B4F902D 
 1022      A60348CD 
 1023 0db8 93CFDBBC 		.ascii	"\223\317\333\274S\210DV\337)\234o\\<bK\034\306\262\250"
 1023      53884456 
 1023      DF299C6F 
 1023      5C3C624B 
 1023      1CC6B2A8 
 1024 0dcc C3350D45 		.ascii	"\3035\015E\237\2320\210B\344\334\341\233/\322l\344A"
 1024      9F9A3088 
 1024      42E4DCE1 
 1024      9B2FD26C 
 1024      E441
 1025 0dde 8826201C 		.ascii	"\210& \034\024@\350I\254\034U\231@\370\252I\004\001"
 1025      1440E849 
ARM GAS  /tmp/ccOxO95O.s 			page 82


 1025      AC1C5599 
 1025      40F8AA49 
 1025      0401
 1026 0df0 18B908D1 		.ascii	"\030\271\010\321b8\024A8D@\030\236Zx\202\320<\005\301"
 1026      62381441 
 1026      38444018 
 1026      9E5A7882 
 1026      D03C05C1 
 1027 0e04 5A3C52DA 		.ascii	"Z<R\332\032[\234\244\246H\266{\024\\\014\261\344\210"
 1027      1A5B9CA4 
 1027      A648B67B 
 1027      145C0CB1 
 1027      E488
 1028 0e16 60495F6B 		.ascii	"`I_kV\225\232Zb\\9\212R2\215\260\2124 \314\306\035\026"
 1028      56959A5A 
 1028      625C398A 
 1028      52328DB0 
 1028      8A3420CC 
 1029 0e2d ED382CB5 		.ascii	"\3558,\265#\226\330\321\373\372Y\276=:lO\354\010\313"
 1029      2396D8D1 
 1029      FBFA59BE 
 1029      3D3A6C4F 
 1029      EC08CB
 1030 0e40 78D8A126 		.ascii	"x\330\241&v\340; \203)y\376\272h[<\305\351\350\243\231"
 1030      76E03B20 
 1030      832979FE 
 1030      BA685B3C 
 1030      C5E9E8A3 
 1031 0e55 5C8DAC71 		.ascii	"\\\215\254q\011\304\270\243\202q#\245\241Q\016`\334"
 1031      09C4B8A3 
 1031      827123A5 
 1031      A1510E60 
 1031      DC
 1032 0e66 201817DF 		.ascii	" \030\027\337\000\035\0010\372\0223qq\242iqR\323\216"
 1032      001D0130 
 1032      FA123371 
 1032      71A26971 
 1032      52D38E
 1033 0e79 11D38A12 		.ascii	"\021\323\212\022g\307\224(\235\232Vz\347\354\200\212"
 1033      67C79428 
 1033      9D9A567A 
 1033      E7EC808A 
 1034 0e89 09213DCB 		.ascii	"\011!=\313$$Q\024\222(\025\222D\204\204_\015[\261G\271"
 1034      24245114 
 1034      92281592 
 1034      4484845F 
 1034      0D5BB147 
 1035 0e9e 54487DF8 		.ascii	"TH}\370\351+\316L\310\204\231%\311\242\220d\251\220"
 1035      E92BCE4C 
 1035      C8849925 
 1035      C9A29064 
 1035      A990
 1036 0eb0 1422E444 		.ascii	"\024\"\344DUF\022\207J\355e\203\365\206\3429N\000I\023"
 1036      55461287 
 1036      4AED6583 
 1036      F586E239 
 1036      4E004913 
ARM GAS  /tmp/ccOxO95O.s 			page 83


 1037 0ec4 00397B6E 		.ascii	"\0009{n\345\236\232\231q\371\006\302-\325\200;\026\260"
 1037      E59E9A99 
 1037      71F906C2 
 1037      2DD5803B 
 1037      16B0
 1038 0ed6 71A9A221 		.ascii	"q\251\242!\251RC\322\211!K\235%wm\321%jHh\352\355\010"
 1038      A95243D2 
 1038      89214B9D 
 1038      25776DD1 
 1038      256A4868 
 1039 0eed 01D7D456 		.ascii	"\001\327\324V\342M\346\227DH\206($C*\344\004\021\022"
 1039      E24DE697 
 1039      44488628 
 1039      24432AE4 
 1039      041112
 1040 0f00 7939FA81 		.ascii	"y9\372\201\035j\242B\336X\031'\337\2522\262\211\207"
 1040      1D6AA242 
 1040      DE581927 
 1040      DFAA32B2 
 1040      8987
 1041 0f12 5982872F 		.ascii	"Y\202\207/2g\262\354\231ie\267\004\240\201\211\313\024"
 1041      3267B2EC 
 1041      996965B7 
 1041      04A08189 
 1041      CB14
 1042 0f24 4DCB949A 		.ascii	"M\313\224\232v\212\230\366\270\275\341?\320}jY\357\310"
 1042      768A98F6 
 1042      B8BDE13F 
 1042      D07D6A59 
 1042      EFC8
 1043 0f36 F453C1BD 		.ascii	"\364S\301\275\342v\301=,\343\264(\343\264TF\016\221"
 1043      E276C13D 
 1043      2CE3B428 
 1043      E3B45446 
 1043      0E91
 1044 0f48 311711BE 		.ascii	"1\027\021\276_\215\236\311\007k\355\312\312%\236\234"
 1044      5F8D9EC9 
 1044      076BEDCA 
 1044      CA259E9C 
 1045 0f58 153C99C8 		.ascii	"\025<\231\310\254j\303\236d\026\343\347x1V\300\306\235"
 1045      AC6AC39E 
 1045      6416E3E7 
 1045      783156C0 
 1045      C69D
 1046 0f6a 11ED3823 		.ascii	"\021\3558#\265\343\034\261#in4\324\011\275\242v\034"
 1046      B5E31CB1 
 1046      23696E34 
 1046      D409BDA2 
 1046      761C
 1047 0f7c 0A9F4C16 		.ascii	"\012\237L\026B\376\272Cp\006\013\311\023\205\344I\205"
 1047      42FEBA43 
 1047      70060BC9 
 1047      1385E449 
 1047      85
 1048 0f8d E41321A5 		.ascii	"\344\023!\245\255\261\215\010E\320\227\020\005\015\371"
 1048      ADB18D08 
 1048      45D09710 
ARM GAS  /tmp/ccOxO95O.s 			page 84


 1048      050DF9
 1049 0f9c 310ECC96 		.ascii	"1\016\314\226"
 1050 0fa0 854E69FA 		.ascii	"\205Ni\372\026\210B\012\244B\012\211\220\362\336\324"
 1050      1688420A 
 1050      A4420A89 
 1050      90F2DED4 
 1051 0fb0 8BF62851 		.ascii	"\213\366(Q-\213\310\215\254\206\223\274\351\\1\215x"
 1051      2D8BC88D 
 1051      AC8693BC 
 1051      E95C318D 
 1051      78
 1052 0fc1 A8E164BB 		.ascii	"\250\341d\273\243|\304/\020\234\316\0138U^HN\3260\333"
 1052      A37CC42F 
 1052      109CCE0B 
 1052      38555E48 
 1052      4ED630DB 
 1053 0fd5 5E768938 		.ascii	"^v\2118\001\033W$ZW$\265\256\204Xw\373ym\215\003\312"
 1053      011B5724 
 1053      5A5724B5 
 1053      AE845877 
 1053      FB796D8D 
 1054 0feb A1D6DD38 		.ascii	"\241\326\3358X1\306\021K\360:\212Z7\232\0219\350(\033"
 1054      5831C611 
 1054      4BF03A8A 
 1054      5A379A11 
 1054      39E8281B 
 1055 0fff AF       		.ascii	"\257"
 1056 1000 3262C745 		.ascii	"2b\307E\301\216\301\252\230\375$k\350#\322B\361\260"
 1056      C18EC1AA 
 1056      98FD246B 
 1056      E823D242 
 1056      F1B0
 1057 1012 E1C03AC2 		.ascii	"\341\300:\302\305\225\212f\224\"\372\356\200+'&\324"
 1057      C5958A66 
 1057      9422FAEE 
 1057      802B2726 
 1057      D4
 1058 1023 8F1A7355 		.ascii	"\217\032sU\250T-[\021\023/\246~0YUI\361\231[\032\356"
 1058      A8542D5B 
 1058      11132FA6 
 1058      7E305955 
 1058      49F1995B 
 1059 1039 E6E4F1A9 		.ascii	"\346\344\361\251&vU\011v]h{4\254\241v\031\273\3735)"
 1059      26765509 
 1059      765D687B 
 1059      34ACA176 
 1059      19BBFB35 
 1060 104e 863A2566 		.ascii	"\206:%f\341*D\243*\004\243j(.\320\312\021j\242FE\246"
 1060      E12A44A3 
 1060      2A04A36A 
 1060      282ED0CA 
 1060      116AA246 
 1061 1064 8E152889 		.ascii	"\216\025(\211\005x\245F\215\272Y\365\372\272\275\324"
 1061      0578A546 
 1061      8DBA59F5 
 1061      FABABDD4 
 1062 1074 8016B355 		.ascii	"\200\026\263U\376eb\300%\323\035;nh\310\211\031\320"
ARM GAS  /tmp/ccOxO95O.s 			page 85


 1062      FE6562C0 
 1062      25D31D3B 
 1062      6E68C889 
 1062      19D0
 1063 1086 D1EF440C 		.ascii	"\321\357D\014\000\026\256V4\240V0\300H\0148\225\260"
 1063      0016AE56 
 1063      34A05630 
 1063      C0480C38 
 1063      95B0
 1064 1098 F44B7497 		.ascii	"\364Kt\227\352_nJK\345ecPGT\355`\232f\217\214$\3330"
 1064      EA5F6E4A 
 1064      4BE56563 
 1064      504754ED 
 1064      609A668F 
 1065 10b0 4D7D19D4 		.ascii	"M}\031\324U\340\340\256\210\232\256\010\232\256\022"
 1065      55E0E0AE 
 1065      889AAE08 
 1065      9AAE12
 1066 10bf 4DD145F9 		.ascii	"M\321E\371\243j4JU%\015\215?\245\011\332gJ\201\201\252"
 1066      A36A344A 
 1066      55250D8D 
 1066      3FA509DA 
 1066      674A8181 
 1067 10d4 AC7D3626 		.ascii	"\254}6&\367\257\323\000\\\253\035y\350,kS\003\261\251"
 1067      F7AFD300 
 1067      5CAB1D79 
 1067      E82C6B53 
 1067      03B1A9
 1068 10e7 5E70BFFB 		.ascii	"^p\277\373\325\3118%3\352~\277\306\030\313a\016\356"
 1068      D5C93825 
 1068      33EA7EBF 
 1068      C618CB61 
 1068      0EEE
 1069 10f9 9A68D335 		.ascii	"\232h\3235\301\246FbS\327\314\\\235\032MS\233\016\014"
 1069      C1A64662 
 1069      53D7CC5C 
 1069      9D1A4D53 
 1069      9B0E0C
 1070 110c 4576A8E9 		.ascii	"Ev\250\351\326\351+\262\243\233\2758g\303\276\025\203"
 1070      D6E92BB2 
 1070      A39BBD38 
 1070      67C3BE15 
 1070      83
 1071 111d BF0EB0F2 		.ascii	"\277\016\260\362\270;\233\355\343N\340\353\211\243-"
 1071      B83B9BED 
 1071      E34EE0EB 
 1071      89A32D
 1072 112c 53F66896 		.ascii	"S\366h\226N\036\037\012;\345\214B\035\350V\355\215\003"
 1072      4E1E1F0A 
 1072      3BE58C42 
 1072      1DE856ED 
 1072      8D03
 1073 113e ADF62882 		.ascii	"\255\366(\202\016\212cCC\021:F\007\373\014Oc\310\362"
 1073      0E8A6343 
 1073      43113A46 
 1073      07FB0C4F 
 1073      63C8F2
ARM GAS  /tmp/ccOxO95O.s 			page 86


 1074 1151 2DEC0DAF 		.ascii	"-\354\015\257\226\320x\333)5\267\336\315\325\372\266"
 1074      96D078DB 
 1074      2935B7DE 
 1074      CDD5FAB6 
 1075 1161 C32D70A9 		.ascii	"\303-p\251\035\321Ub\007,\207\356 \351\266C\333\237"
 1075      1DD15562 
 1075      072C87EE 
 1075      20E9B643 
 1075      DB9F
 1076 1173 4051C265 		.ascii	"@Q\302e\363\007\243\3600\203q2\351/\350\342\3766\364"
 1076      F307A3F0 
 1076      30837132 
 1076      E92FE8E2 
 1076      FE36F4
 1077 1186 803626C4 		.ascii	"\2006&\304\312#\026\336\035\216zY\244D'\210\335|\303"
 1077      CA2316DE 
 1077      1D8E7A59 
 1077      A4442788 
 1077      DD7CC3
 1078 1199 D4C2929D 		.ascii	"\324\302\222\235iY\233\362\372\313\343\261x\327\246"
 1078      69599BF2 
 1078      FACBE3B1 
 1078      78D7A6
 1079 11a8 0B66DF15 		.ascii	"\013f\337\025\321\305*\3456J:\301Jk\026\203\246\371"
 1079      D1C52AE5 
 1079      364A3AC1 
 1079      4A6B1683 
 1079      A6F9
 1080 11ba E4C7518E 		.ascii	"\344\307Q\216\250\220\"\364\250qv\304\016]\244\203\241"
 1080      A89022F4 
 1080      A87176C4 
 1080      0E5DA483 
 1080      A1
 1081 11cb FCBA2815 		.ascii	"\374\272(\025\252\246\203\302\374\305b\272p\371^\250"
 1081      AAA683C2 
 1081      FCC562BA 
 1081      70F95EA8 
 1082 11db 8E7B1177 		.ascii	"\216{\021w2\3443\266\227dG\217\220\035\206\023\206\030"
 1082      32E433B6 
 1082      9764478F 
 1082      901D8613 
 1082      8618
 1083 11ed F39795BD 		.ascii	"\363\227\225\275\2705\213;%Hx\032\306\267\357\362\204"
 1083      B8358B3B 
 1083      2548781A 
 1083      C6B7EFF2 
 1083      84
 1084 11fe 3C0764A4 		.ascii	"<\007d\244\336\037\251\316\274b\317\271i(\272\035\373"
 1084      DE1FA9CE 
 1084      BC62CFB9 
 1084      6928BA1D 
 1084      FB
 1085 120f 37E0C781 		.ascii	"7\340\307\201A`\357\027}\357#\013o9\351\334\000\270"
 1085      4160EF17 
 1085      7DEF230B 
 1085      6F39E9DC 
 1085      00B8
ARM GAS  /tmp/ccOxO95O.s 			page 87


 1086 1221 6CA6C058 		.ascii	"l\246\300XZU\242AM\324\265\311\245\364r\226Z\033p!\016"
 1086      5A55A241 
 1086      4DD4B5C9 
 1086      A5F47296 
 1086      5A1B7021 
 1087 1236 C4C6DAB2 		.ascii	"\304\306\332\2627\004\370\253\015\005\231\323\351\010"
 1087      3704F8AB 
 1087      0D0599D3 
 1087      E908
 1088 1244 DDA7BCC6 		.ascii	"\335\247\274\306\305\212\036\015\352'\003uE\367i/\234"
 1088      C58A1E0D 
 1088      EA270375 
 1088      45F7692F 
 1088      9C
 1089 1255 25AE1ABC 		.ascii	"%\256\032\274\245\356j\366H\361\020\271p\017\020\350"
 1089      A5EE6AF6 
 1089      48F110B9 
 1089      700F10E8 
 1090 1265 1E022B47 		.ascii	"\036\002+G\031\364/\300\216G\310\225{\016\364\030h\034"
 1090      19F42FC0 
 1090      8E47C895 
 1090      7B0EF418 
 1090      681C
 1091 1277 E8A959F2 		.ascii	"\350\251Y\362\364\325\273b\367\236\301\204\021\321\275"
 1091      F4D5BB62 
 1091      F79EC184 
 1091      11D1BD
 1092 1286 51B45E21 		.ascii	"Q\264^!n\001|{\213m\001<At\317l\324z\032\321'\304\371"
 1092      6E017C7B 
 1092      8B6D013C 
 1092      4174CF6C 
 1092      D47A1AD1 
 1093 129d 0EF64489 		.ascii	"\016\366D\211{m7\262\340\226\331\262}f\366X\363\204"
 1093      7B6D37B2 
 1093      E096D9B2 
 1093      7D66F658 
 1093      F384
 1094 12af 3ED6B0CD 		.ascii	">\326\260\315s\311V\373\260\2458\311\363\254u4\306\000"
 1094      73C956FB 
 1094      B0A538C9 
 1094      F3AC7534 
 1094      C600
 1095 12c1 81B74183 		.ascii	"\201\267A\203=\225w\220\247[\354'\336G]\355'}\024f\317"
 1095      3D957790 
 1095      A75BEC27 
 1095      DE475DED 
 1095      277D1466 
 1096 12d6 9047C923 		.ascii	"\220G\311#\353\250e\345\221mF\001\004\2347\367\255\203"
 1096      EBA865E5 
 1096      916D4601 
 1096      049C37F7 
 1096      AD83
 1097 12e8 4065418C 		.ascii	"@eA\214O_\2315\252\321\013\032\360\245\013\005K*\024"
 1097      4F5F9935 
 1097      AAD10B1A 
 1097      F0A50B05 
 1097      4B2A14
ARM GAS  /tmp/ccOxO95O.s 			page 88


 1098 12fb A1218398 		.ascii	"\241!\203\230\213=K\316\350\010\031\360+\263\243\027"
 1098      8B3D4BCE 
 1098      E80819F0 
 1098      2BB3A317 
 1099 130b D5B2DF36 		.ascii	"\325\262\3376\233\261\362\230$<t\371\322\367\372\323"
 1099      9BB1F298 
 1099      243C74F9 
 1099      D2F7FAD3 
 1100 131b 109029CB 		.ascii	"\020\220)\313\207\256e^\325\276\257%\321\236#\357b\326"
 1100      87AE655E 
 1100      D5BEAF25 
 1100      D19E23EF 
 1100      62D6
 1101 132d 0B310FEA 		.ascii	"\0131\017\352f\033XB\024\027d\242H\375\275\230\310\202"
 1101      661B5842 
 1101      141764A2 
 1101      48FDBD98 
 1101      C882
 1102 133f 24A4C8C2 		.ascii	"$\244\310\302Z)R\321i\006\363j^)\314%\364E\346\2025"
 1102      5A2952D1 
 1102      6906F36A 
 1102      5E29CC25 
 1102      F445E682 
 1103 1354 98FB3A19 		.ascii	"\230\373:\031\314\330\265I\353VZ\331[7\275\201\230`"
 1103      CCD8B549 
 1103      EB565AD9 
 1103      5B37BD81 
 1103      9860
 1104 1366 537076BC 		.ascii	"Spv\274\002\000g!#\346\200^\002\315\213-\353h\363\205"
 1104      02006721 
 1104      23E6805E 
 1104      02CD8B2D 
 1104      EB68F385 
 1105 137a 27B62899 		.ascii	"'\266(\231\206\301\220\026\333\340(i\216\277M+\306\315"
 1105      86C19016 
 1105      DBE02869 
 1105      8EBF4D2B 
 1105      C6CD
 1106 138c 7119C42C 		.ascii	"q\031\304,\212\340.\240U\017\375&\255K\240\351-\264"
 1106      8AE02EA0 
 1106      550FFD26 
 1106      AD4BA0E9 
 1106      2DB4
 1107 139e 56D43EFF 		.ascii	"V\324>\377\230v\011\027|\263\357\2334\262/G\015\342"
 1107      98760917 
 1107      7CB3EF9B 
 1107      34B22F47 
 1107      0DE2
 1108 13b0 2E51DC7A 		.ascii	".Q\334z\3448\264Q\232'\005q\241GyTJ\007\335\2213\315"
 1108      E438B451 
 1108      9A270571 
 1108      A1477954 
 1108      4A07DD91 
 1109 13c6 36A88E0C 		.ascii	"6\250\216\014\354\316\244_o!\261%\257\337\205\350~\335"
 1109      ECCEA45F 
 1109      6F21B125 
 1109      AFDF85E8 
ARM GAS  /tmp/ccOxO95O.s 			page 89


 1109      7EDD
 1110 13d8 C72A1ADF 		.ascii	"\307*\032\337{\367)\021\027\251\224\335\177\202\020"
 1110      7BF72911 
 1110      17A994DD 
 1110      7F8210
 1111 13e7 AC74BA84 		.ascii	"\254t\272\204\022\230\205\275\025\314neo\205r'\320W"
 1111      129885BD 
 1111      15CC6E65 
 1111      6F857227 
 1111      D057
 1112 13f9 C0C28692 		.ascii	"\300\302\206\222\231\350\325\033J\261]f\033JV\270WW"
 1112      99E8D51B 
 1112      4AB15D66 
 1112      1B4A56B8 
 1112      5757
 1113 140b F70A54F7 		.ascii	"\367\012T\367k\\\335\241\314t\214\344\001\245\033\027"
 1113      6B5CDDA1 
 1113      CC748CE4 
 1113      01A51B17 
 1114 141b AE74E5F6 		.ascii	"\256t\345\366\003E\000\035\004\212\002\012SJ\373\335"
 1114      0345001D 
 1114      048A020A 
 1114      534AFBDD 
 1115 142b 32CD2698 		.ascii	"2\315&\230\264:\233\322\223$\357\006b,\215Y\275\321"
 1115      B43A9BD2 
 1115      9324EF06 
 1115      622C8D59 
 1115      BDD1
 1116 143d 96DA65B6 		.ascii	"\226\332e\266\321f\205[\270\273\016\217'>V\242f\232"
 1116      D166855B 
 1116      B8BB0E8F 
 1116      273E56A2 
 1116      669A
 1117 144f 40D7C75A 		.ascii	"@\327\307Z?\223\344\317\366\224%\\\234\207av\264\322"
 1117      3F93E4CF 
 1117      F694255C 
 1117      9C876176 
 1117      B4D2
 1118 1461 943FD840 		.ascii	"\224?\330@9\257\017\201\247o\3535(o\233\311\206\333"
 1118      39AF0F81 
 1118      A76FEB35 
 1118      286F9BC9 
 1118      86DB
 1119 1473 6A174D8E 		.ascii	"j\027M\216\272\314\252\237\240!z<s\364\376\200\023\032"
 1119      BACCAA9F 
 1119      A0217A3C 
 1119      73F4FE80 
 1119      131A
 1120 1485 A683C705 		.ascii	"\246\203\307\005\035\035\010=\245&\3067\216\177\"\333"
 1120      1D1D083D 
 1120      A526C637 
 1120      8E7F22DB 
 1121 1495 698E2A65 		.ascii	"i\216*e\277\327\332\376!y;\034\257Tsq\312U\215\006\335"
 1121      BFD7DAFE 
 1121      21793B1C 
 1121      AF547371 
 1121      CA558D06 
ARM GAS  /tmp/ccOxO95O.s 			page 90


 1122 14aa 0A2F7DC8 		.ascii	"\012/}\310qp\353\262\272hPp\011\314\251D\320pL)}\027"
 1122      7170EBB2 
 1122      BA685070 
 1122      09CCA944 
 1122      D0704C29 
 1123 14c0 D935E699 		.ascii	"\3315\346\231D7\362\261\354X\220\235\240\\\343%\324"
 1123      4437F2B1 
 1123      EC58909D 
 1123      A05CE325 
 1123      D4
 1124 14d1 A4160739 		.ascii	"\244\026\0079\301<\310\370\316\233\375\350\256\012\305"
 1124      C13CC8F8 
 1124      CE9BFDE8 
 1124      AE0AC5
 1125 14e0 3BD2EF41 		.ascii	";\322\357A\266\315\345\2326\357\214\213\216\260\212"
 1125      B6CDE59A 
 1125      36EF8C8B 
 1125      8EB08A
 1126 14ef 4A01A149 		.ascii	"J\001\241I\242\341\011J\371\025N2\330h\315\336e\336"
 1126      A2E1094A 
 1126      F9154E32 
 1126      D868CDDE 
 1126      65DE
 1127 1501 B6E57C68 		.ascii	"\266\345|h\030\2559\332P\311s\313\366'\3545 \016\264"
 1127      18AD39DA 
 1127      50C973CB 
 1127      F627EC35 
 1127      200EB4
 1128 1514 017464C2 		.ascii	"\001td\302\247)\244\2265\224\332CR\013\333\023\303x"
 1128      A729A496 
 1128      3594DA43 
 1128      520BDB13 
 1128      C378
 1129 1526 C59750C8 		.ascii	"\305\227P\310,\021\201;\366\33703\336\035mA\224\331"
 1129      2C11813B 
 1129      F6DF3033 
 1129      DE1D6D41 
 1129      94D9
 1130 1538 F476F39A 		.ascii	"\364v\363\232e-O\374+\346\305\335\352\036\3435\365%"
 1130      652D4FFC 
 1130      2BE6C5DD 
 1130      EA1EE335 
 1130      F525
 1131 154a E92E3505 		.ascii	"\351.5\005\345v*\251\226\314U\325\202\337v\335g\275"
 1131      E5762AA9 
 1131      96CC55D5 
 1131      82DF76DD 
 1131      67BD
 1132 155c 172F0B5B 		.ascii	"\027/\013[\221\205\221\262\3575o\200\313\315\330\345"
 1132      918591B2 
 1132      EF356F80 
 1132      CBCDD8E5 
 1133 156c 23CC2F0C 		.ascii	"#\314/\014`\006\000\230\012Y\233\016t\002\3508P\232"
 1133      60060098 
 1133      0A599B0E 
 1133      7402E838 
 1133      509A
ARM GAS  /tmp/ccOxO95O.s 			page 91


 1134 157e 98C1B511 		.ascii	"\230\301\265\021\341\263\216(\233\206\255\357\374\203"
 1134      E1B38E28 
 1134      9B86ADEF 
 1134      FC83
 1135 158c 6C69FFF5 		.ascii	"li\377\3659>\203\353'\033D\235\024C\227\271\272~L\232"
 1135      393E83EB 
 1135      271B449D 
 1135      144397B9 
 1135      BA7E4C9A 
 1136 15a0 B340DB5B 		.ascii	"\263@\333[j\216\036\037\211r\370i6{\366\334\363\352"
 1136      6A8E1E1F 
 1136      8972F869 
 1136      367BF6DC 
 1136      F3EA
 1137 15b2 5E383C7B 		.ascii	"^8<{\022]M\264\327\233\244*\360\031\370}J\371S\230w"
 1137      125D4DB4 
 1137      D79BA42A 
 1137      F019F87D 
 1137      4AF95398 
 1138 15c7 FFC9C339 		.ascii	"\377\311\3039\363\325g\233\331{\255\323J\262\302\301"
 1138      F3D5679B 
 1138      D97BADD3 
 1138      4AB2C2C1 
 1139 15d7 9F782BE1 		.ascii	"\237x+\341B\343y\363\257\240e+\245\3349\214;\207pW\364"
 1139      42E379F3 
 1139      AFA0652B 
 1139      A5DC398C 
 1139      3B877057 
 1140 15ec ED8F3297 		.ascii	"\355\2172\227]f\266\262=\303\270\317\020\356k\315\323"
 1140      5D66B6B2 
 1140      3DC3B8CF 
 1140      10EE6BCD 
 1140      D3
 1141 15fd 3976A8C8 		.ascii	"9v\250\310\221~\213\266+\365(}\026\007\305lU\235\025"
 1141      917E8BB6 
 1141      2BF5287D 
 1141      1607C56C 
 1141      559D15
 1142 1610 7AB6CDCE 		.ascii	"z\266\315\316\364 \226\253$'\353\237\326} \273\322\316"
 1142      F42096AB 
 1142      2427EB9F 
 1142      D67D20BB 
 1142      D2CE
 1143 1622 53E295F6 		.ascii	"S\342\225\3669%[i\267u\305\015j\330Ne\357N\272Mp\222"
 1143      39255B69 
 1143      B775C50D 
 1143      6AD84E65 
 1143      EF4EBA4D 
 1144 1638 C75CDC59 		.ascii	"\307\\\334Y1 p\250\020wB\224\370y\254\362\266\021\226"
 1144      312070A8 
 1144      10774294 
 1144      F879ACF2 
 1144      B61196
 1145 164b 2335D4B4 		.ascii	"#5\324\264\256\356\360J\366U\026\007\274\3011t\354\262"
 1145      AEEEF04A 
 1145      F6551607 
 1145      BCC13174 
ARM GAS  /tmp/ccOxO95O.s 			page 92


 1145      ECB2
 1146 165d 3DBDDDDD 		.ascii	"=\275\335\335\303\227O\266L'\252Q3\345]\236h[f\177\211"
 1146      C3974FB6 
 1146      4C27AA51 
 1146      33E55D9E 
 1146      685B667F 
 1147 1672 A0C660E7 		.ascii	"\240\306`\347\255\224\221\357\373\011_e\301\027$\333"
 1147      AD9491EF 
 1147      FB095F65 
 1147      C11724DB 
 1148 1682 1A4AFC8D 		.ascii	"\032J\374\215?w\027\356\274\222\354\034w>K\212\344\326"
 1148      3F7717EE 
 1148      BC92EC1C 
 1148      773E4B8A 
 1148      E4D6
 1149 1694 C5B2D4F8 		.ascii	"\305\262\324\370\222#_=,R\272p\205J\314^\242\\'L\"{"
 1149      92235F3D 
 1149      2C52BA70 
 1149      854ACC5E 
 1149      A25C274C 
 1150 16aa 02B9A727 		.ascii	"\002\271\247'\235\244\334\207\327\342n\230\257\212\344"
 1150      9DA4DC87 
 1150      D7E26E98 
 1150      AF8AE4
 1151 16b9 205FDA32 		.ascii	" _\3322\311\376qe\216\341@1\024P\251r\035W\014X\234"
 1151      C9FE7165 
 1151      8EE14031 
 1151      1450A972 
 1151      1D570C58 
 1152 16ce 401F48E6 		.ascii	"@\037H\346\026\300\231_\361\012\356\"M\231\323\203\223"
 1152      16C0995F 
 1152      F10AEE22 
 1152      4D99D383 
 1152      93
 1153 16df 4AB3B056 		.ascii	"J\263\260V\233\205\265\214\205\265\214\204\365ax\322"
 1153      9B85B58C 
 1153      85B58C84 
 1153      F56178D2 
 1154 16ef B203EAA0 		.ascii	"\262\003\352\240x\234\037\\\252QR<\326\301p\372\332"
 1154      789C1F5C 
 1154      AA51523C 
 1154      D6C170FA 
 1154      DA
 1155 1700 D969F635 		.ascii	"\331i\3665\240X\274T8\320\320\177\227A\373.\014\233"
 1155      A058BC54 
 1155      38D0D07F 
 1155      9741FB2E 
 1155      0C9B
 1156 1712 6ED6F439 		.ascii	"n\326\3649\313\303U-\300UE\341\232<\225Z\252\262\204"
 1156      CBC3552D 
 1156      C05545E1 
 1156      9A3C955A 
 1156      AAB284
 1157 1725 AB129CA8 		.ascii	"\253\022\234\250 N\324\020\000\252\005\000\214%\005"
 1157      204ED410 
 1157      00AA0500 
 1157      8C2505
ARM GAS  /tmp/ccOxO95O.s 			page 93


 1158 1734 65BC255C 		.ascii	"e\274%\\\262\334\331Q\207\366\363\024.c\331w\004\252"
 1158      B2DCD951 
 1158      87F6F314 
 1158      2E63D977 
 1158      04AA
 1159 1746 5A06550E 		.ascii	"Z\006U\016@%\316+gP]\"P\275\230jm4\207\352\262\031T"
 1159      4025CE2B 
 1159      67505D22 
 1159      50BD986A 
 1159      6D3487EA 
 1160 175d 97195497 		.ascii	"\227\031T\227\011T\241\365g\302l\321\220|\005\324N\266"
 1160      0954A1F5 
 1160      67C26CD1 
 1160      907C05D4 
 1160      4EB6
 1161 176f 45A8E477 		.ascii	"E\250\344w]\352H\272_\021\322=7\352\3442\317^\021\300"
 1161      5DEA48BA 
 1161      5F11D23D 
 1161      37EAE432 
 1161      CF5E11C0 
 1162 1783 3A392DBB 		.ascii	":9-\273\365\220!s\237\341\313\2571#g\0243\336(\315\370"
 1162      F5902173 
 1162      9FE1CBAF 
 1162      31236714 
 1162      33DE28CD 
 1163 1798 AB24E36F 		.ascii	"\253$\343o\335\350\270\350\210\246\251)\331O*\257\262"
 1163      DDE8B8E8 
 1163      88A6A929 
 1163      D94F2AAF 
 1163      B2
 1164 17a9 3FC970C4 		.ascii	"?\311p\304\233\243Y\011\247\2254j\217\360\345\375\311"
 1164      9BA35909 
 1164      A795346A 
 1164      8FF0E5FD 
 1164      C9
 1165 17ba F5E5F6F2 		.ascii	"\365\345\366\362aj\020\302TC\277\306:\323?\342j\031"
 1165      616A10C2 
 1165      5443BFC6 
 1165      3AD33FE2 
 1165      6A19
 1166 17cc A57AC0EF 		.ascii	"\245z\300\357"
 1167 17d0 3AC1AF91 		.ascii	":\301\257\221\340\336 \340^]\325\333mc\031%Y\356sw\257"
 1167      E0DE20E0 
 1167      5E5DD5DB 
 1167      6D631925 
 1167      59EE7377 
 1168 17e5 35294D49 		.ascii	"5)MI\375\317\367XR7\261H\345C\244\304\271\327X\244\232"
 1168      FDCFF758 
 1168      5237B148 
 1168      E543A4C4 
 1168      B9D758A4 
 1169 17fa 49A4121E 		.ascii	"I\244\022\036?9\216P\250\223,\366\373.\214\307\311\357"
 1169      3F398E50 
 1169      A8932CF6 
 1169      FB2E8CC7 
 1169      C9EF
 1170 180c 04B610E8 		.ascii	"\004\266\020\350o\012\320\247\214=\311\2605A\377ut\330"
ARM GAS  /tmp/ccOxO95O.s 			page 94


 1170      6F0AD0A7 
 1170      8C3DC9B0 
 1170      3541FF75 
 1170      74D8
 1171 181e 0D017A60 		.ascii	"\015\001z`\344n\210\320\337\220B\337J\240\277s\377\346"
 1171      E46E88D0 
 1171      DF9042DF 
 1171      4AA0BF73 
 1171      FFE6
 1172 1830 091B7488 		.ascii	"\011\033t\210ZR85S\250\242\320\343\277U\032m\234\\r"
 1172      5A523835 
 1172      53A8A2D0 
 1172      E3BF551A 
 1172      6D9C5C72 
 1173 1844 9087FAB6 		.ascii	"\220\207\372\266\000u\033\255\210\314'\367\213\224\226"
 1173      00751BAD 
 1173      88CC27F7 
 1173      8B9496
 1174 1853 580B7751 		.ascii	"X\013wQ\005\327N\320\273-\240782{\316\321\022kY\356"
 1174      05D74ED0 
 1174      BB2DA037 
 1174      38327BCE 
 1174      D1126B59 
 1175 1868 86C4572B 		.ascii	"\206\304W+\274\011\353\1779\316\260\356`X\037\003\254"
 1175      BC09EB7F 
 1175      39CEB0EE 
 1175      60581F03 
 1175      AC
 1176 1879 C5B9B718 		.ascii	"\305\271\267\030\326w\010\326\257+RG\225(\225z\030]"
 1176      D67708D6 
 1176      AF2B5247 
 1176      9528957A 
 1176      185D
 1177 188b 7AB4C4C6 		.ascii	"z\264\304\306\004\325\236\343\346YzW\204\352\256\024"
 1177      04D59EE3 
 1177      E6597A57 
 1177      84EAAE14 
 1178 189b AA4E02D5 		.ascii	"\252N\002\325\211xC\203#\312\247\202\302z^\327\255\321"
 1178      89784383 
 1178      23CAA782 
 1178      C27A5ED7 
 1178      ADD1
 1179 18ad 2DEE09D8 		.ascii	"-\356\011\330\024Rl\302\014\221\313\253\232\253\360"
 1179      14526CC2 
 1179      0C91CBAB 
 1179      9AABF0
 1180 18bc BA53C175 		.ascii	"\272S\301u\023o\357\011\336V\034\316\257UYb#\313\335"
 1180      136FEF09 
 1180      DE561CCE 
 1180      AF555962 
 1180      23CBDD
 1181 18cf 57113E25 		.ascii	"W\021>%\346\341\336s\014\233\373\014\233$\300F\234\333"
 1181      E6E1DE73 
 1181      0C9BFB0C 
 1181      9B24C046 
 1181      9CDB
 1182 18e1 C5B0E921 		.ascii	"\305\260\351!\330\\L\357\314X#\302\275\202\027\233\210"
ARM GAS  /tmp/ccOxO95O.s 			page 95


 1182      D85C4CEF 
 1182      CC5823C2 
 1182      BD82179B 
 1182      88
 1183 18f2 13D757E6 		.ascii	"\023\327W\346\214\3164=x\274\357470'D\320(\3704\014"
 1183      8CCE343D 
 1183      78BCEF34 
 1183      37302744 
 1183      D028F834 
 1184 1907 93FB48C6 		.ascii	"\223\373H\306\367\023+\211\0102\300\353\375\305\202"
 1184      F7132B89 
 1184      0832C0EB 
 1184      FDC582
 1185 1916 2AF6E74A 		.ascii	"*\366\347J*\274]\370p\356\201\235\274\366AA\373\000"
 1185      2ABC5DF8 
 1185      70EE819D 
 1185      BCF64141 
 1185      FB00
 1186 1928 C570E660 		.ascii	"\305p\346`\304\034\373k>\274\023)\374\335\335\006\372"
 1186      C41CFB6B 
 1186      3EBC1329 
 1186      FCDDDD06 
 1186      FA
 1187 1939 7777FB33 		.ascii	"ww\3733\023\307\035,\021~\000\3657D\254yH\254\031\244"
 1187      13C71D2C 
 1187      117E00F5 
 1187      3744AC79 
 1187      48AC19A4 
 1188 194d D63C24D6 		.ascii	"\326<$\326d\335~\031ak\326.\023\314\332\3450k\227\303"
 1188      64DD7E19 
 1188      616BD62E 
 1188      13CCDAE5 
 1188      306B97C3 
 1189 1961 A45D2E8E 		.ascii	"\244].\216\024\215i\314\270\353\314\270G\030\367\010"
 1189      148D69CC 
 1189      B8EBCCB8 
 1189      4718F708 
 1190 1971 5DBA449C 		.ascii	"]\272D\234\013\265EU4W^>\036\230qbI\2272\273\265\367"
 1190      0BB54555 
 1190      34575E3E 
 1190      1E987162 
 1190      499732BB 
 1191 1987 1E7EC834 		.ascii	"\036~\3104\030\3029\272[<*f\335\2504\353\306H\326\345"
 1191      18C239BA 
 1191      5B3C2A66 
 1191      DDA834EB 
 1191      C648D6E5 
 1192 199b CCBD8A86 		.ascii	"\314\275\212\206\247\021*i*\2439\0311IU\343\337\246"
 1192      A7112A69 
 1192      2AA33919 
 1192      314955E3 
 1192      DFA6
 1193 19ad 65EF27EF 		.ascii	"e\357'\357W\276&\033\323\334#Q\320#\251\240\307DP\327"
 1193      57BE261B 
 1193      D3DC2351 
 1193      D023A9A0 
 1193      C74450D7 
ARM GAS  /tmp/ccOxO95O.s 			page 96


 1194 19c1 689D377A 		.ascii	"h\2357zA\345\234+\310(vBK\254&\352\256\036\307\333\320"
 1194      41E59C2B 
 1194      C8287642 
 1194      4BAC26EA 
 1194      AE1EC7DB 
 1195 19d6 DC533209 		.ascii	"\334S2\011\357\301?;\325I\337\222T\2316\246\273;\263"
 1195      EFC13F3B 
 1195      D549DF92 
 1195      549936A6 
 1195      BB3BB3
 1196 19e9 3E916D48 		.ascii	">\221mH/HCz.4\244\336g\323\317\355\231\231\027\027\376"
 1196      2F48437A 
 1196      2E34A4DE 
 1196      67D3CFED 
 1196      99991717 
 1197 19fe 65795670 		.ascii	"eyVpx\003\346\344\236\010vr\317\224J<\022M\035'\246"
 1197      7803E6E4 
 1197      9E087672 
 1197      CF944A3C 
 1197      124D1D27 
 1198 1a13 B6BDA83E 		.ascii	"\266\275\250>\344\200\256;\023\363\332\226\033[\224"
 1198      E480AE3B 
 1198      13F3DA96 
 1198      1B5B94
 1199 1a22 26F47CFB 		.ascii	"&\364|\373,\320\233\020\235\236\220J\232$\222\006O\214"
 1199      2CD09B10 
 1199      9D9E904A 
 1199      9A249206 
 1199      4F8C
 1200 1a34 1D7544B7 		.ascii	"\035uD\267\251\244\250\303O'lD\3642\314\321\233\022"
 1200      A9A4A8C3 
 1200      4F276C44 
 1200      F432CCD1 
 1200      9B12
 1201 1a46 054D4905 		.ascii	"\005MI\005M\023A\011\315\2135\346\367\3260\263\360\317"
 1201      4D134109 
 1201      CD8B35E6 
 1201      F7D630B3 
 1201      F0CF
 1202 1a58 B0F0CF90 		.ascii	"\260\360\317\220\360\017\327\305t\253\314\270\243\315"
 1202      F00FD7C5 
 1202      74ABCCB8 
 1202      A3CD
 1203 1a66 B85F32EE 		.ascii	"\270_2\356\227\204\273f(\355\261\271\354\0063\356Y\306"
 1203      9784BB66 
 1203      28EDB1B9 
 1203      EC0633EE 
 1203      59C6
 1204 1a78 3D4BEFDB 		.ascii	"=K\357\3331\007b5\250\217\272\224\034\336\030a/.\254"
 1204      31076235 
 1204      A88FBA94 
 1204      1CDE1861 
 1204      2F2EAC
 1205 1a8b 5A2C6AFF 		.ascii	"Z,j\377\234Y\355\317\261\332\177Ej\377J\370\362\035"
 1205      9C59EDCF 
 1205      B1DA7F45 
 1205      6AFF4AF8 
ARM GAS  /tmp/ccOxO95O.s 			page 97


 1205      F21D
 1206 1a9d 64A635C6 		.ascii	"d\2465\306L\353<\323:O\264\266\225\035\312\342\320S"
 1206      4CEB3CD3 
 1206      3A4FB4B6 
 1206      951DCAE2 
 1206      D053
 1207 1aaf AA35BFA5 		.ascii	"\2525\277\245\241\227\3759\303\001\274\222J5\354/D\362"
 1207      A197FD39 
 1207      C301BC92 
 1207      4A35EC2F 
 1207      44F2
 1208 1ac1 85BC2414 		.ascii	"\205\274$\024\362\025\372\035\205+\311\023\263N\226"
 1208      F215FA1D 
 1208      852BC913 
 1208      B34E96
 1209 1ad0 A5BAA8A4 		.ascii	"\245\272\250\244K+\005\267LJuIho\255\341=\315\316\226"
 1209      4B2B05B7 
 1209      4C4A7549 
 1209      686FADE1 
 1209      3DCDCE96 
 1210 1ae4 CD50963B 		.ascii	"\315P\226;.\2532\331\226-\235b\177C\300x\315\300(\004"
 1210      2EAB32D9 
 1210      962D9D62 
 1210      7F43C078 
 1210      CDC02804 
 1211 1af8 30C4790B 		.ascii	"0\304y\013\014\214\025\002\306\354|V\2463\232\247\356"
 1211      0C8C1502 
 1211      C6EC7C56 
 1211      A6339AA7 
 1211      EE
 1212 1b09 C58F3427 		.ascii	"\305\2174';3\031\013\2771\273\321\224\230\335h\0146"
 1212      3B33190B 
 1212      BF31BBD1 
 1212      9498DD68 
 1212      0C36
 1213 1b1b 5446A8CD 		.ascii	"TF\250\315O\025\357z\371l\323\372\377\306\323W\277m"
 1213      4F15EF7A 
 1213      F96CD3FA 
 1213      FFC6D357 
 1213      BF6D
 1214 1b2d 6390A74E 		.ascii	"c\220\247N\277q\223\335/~\371\375\373[6oV\330\374>D"
 1214      BF7193DD 
 1214      2F7EF9FD 
 1214      FB5B366F 
 1214      56D8FC3E 
 1215 1b42 1BA25506 		.ascii	"\033\242U\006h\367\350\355tZO\277 \235o\240\332\303"
 1215      68F7E8ED 
 1215      745A4FBF 
 1215      209D6FA0 
 1215      DAC3
 1216 1b54 23C43740 		.ascii	"#\3047@\377\311\307\036z\255\273O\240\277\326\335\333"
 1216      FFC9C71E 
 1216      7AADBB4F 
 1216      A0BFD6DD 
 1216      DB
 1217 1b65 33C057EB 		.ascii	"3\300W\353\347\376\367\376;\264\336\336Z\357\257t\376"
 1217      E7FEF7FE 
ARM GAS  /tmp/ccOxO95O.s 			page 98


 1217      3BB4DEDE 
 1217      5AEFAF74 
 1217      FE
 1218 1b76 EEBBBCBC 		.ascii	"\356\273\274\274>\362\324\371\177\024\020\030\240\375"
 1218      3EF2D4F9 
 1218      7F141018 
 1218      A0FD
 1219 1b84 48EBB9C3 		.ascii	"H\353\271\303\367\243O=~\366\321\307\2336\177\366\373"
 1219      F7A34F3D 
 1219      7EF6D1C7 
 1219      9B367FF6 
 1219      FB
 1220 1b95 4FDCCD2E 		.ascii	"O\334\315.\270\373\006x\371\205xk\335\375=\275||\003"
 1220      B8FB0678 
 1220      F985786B 
 1220      DDFD3DBD 
 1220      7C7C03
 1221 1ba8 B4EE1EDE 		.ascii	"\264\356\036\336\332\235\236!~z\017\375\336 m\360F\037"
 1221      DA9D9E21 
 1221      7E7A0FFD 
 1221      DE206DF0 
 1221      461F
 1222 1bba 859DA0EE 		.ascii	"\205\235\240\356_\377+\325\005\357\015v\367\010\326"
 1222      5FFF2BD5 
 1222      05EF0D76 
 1222      F708D6
 1223 1bc9 7B836CD0 		.ascii	"{\203l\320a\253\307\256y\350\277\330\270\321\235\376"
 1223      61ABC7AE 
 1223      79E8BFD8 
 1223      B8D19DFE 
 1224 1bd9 0F0C76F7 		.ascii	"\017\014v\367\012\364\367\017\014p\017\012\324\351\203"
 1224      0AF4F70F 
 1224      0C700F0A 
 1224      D4E983
 1225 1be8 DDBFFAEE 		.ascii	"\335\277\372\356\233-\337\354\301\347\202|\375\264\272"
 1225      9B2DDFEC 
 1225      C1E7827C 
 1225      FDB4BA
 1226 1bf7 60F75F6C 		.ascii	"`\367_l\331\342\356\345#\030i\353\257\337\343\347\033"
 1226      D9E2EEE5 
 1226      231869EB 
 1226      AFDFE3E7 
 1226      1B
 1227 1c08 ACB709FC 		.ascii	"\254\267\011\3741@\253\263\365\017\321k\367x\350\355"
 1227      3140ABB3 
 1227      F50FD16B 
 1227      F778E8ED 
 1228 1c18 BC7C3CC8 		.ascii	"\274|<\310\241\2356H\033\000\272v9hwk\003\364\376\236"
 1228      A19D3648 
 1228      1B00BA76 
 1228      3968776B 
 1228      03F4FE9E 
 1229 1c2c C13FC055 		.ascii	"\301?\300U\377\340]\004`\333\037\001|\270\350\014\354"
 1229      FFE05D04 
 1229      60DB1F01 
 1229      7CB8E80C 
 1229      EC
ARM GAS  /tmp/ccOxO95O.s 			page 99


 1230 1c3d 7A1F00DA 		.ascii	"z\037\000\332;\330\003\013s\222\016<\364\\\210J\373"
 1230      3BD8030B 
 1230      73920E3C 
 1230      F45C884A 
 1230      FB
 1231 1c4e 239EAAFA 		.ascii	"#\236\252\372Q\017\352\202\340#X\353\037d\033\214%\006"
 1231      510FEA82 
 1231      E02358EB 
 1231      1F641B8C 
 1231      2506
 1232 1c60 EFB2F7F0 		.ascii	"\357\262\367\360`@\331\262O\0338\013\277\177\324\353"
 1232      6040D9B2 
 1232      4F1B380B 
 1232      BF7FD4EB 
 1233 1c70 7541EBA8 		.ascii	"uA\353\250,\017\235v\247V\247\015\360\322z\350a~\340"
 1233      2C0F9D76 
 1233      A756A70D 
 1233      F0D27AE8 
 1233      617EE0
 1234 1c83 8EDF05D9 		.ascii	"\216\337\005\331i\367\370\352\275\002\275\265*\235\367"
 1234      69F7F8EA 
 1234      BD02BDB5 
 1234      2A9DF7
 1235 1c92 5E98A104 		.ascii	"^\230\241\004\226`{\032\345/@\230\360\251\307\347A\334"
 1235      96607B1A 
 1235      E52F4098 
 1235      F0A9C7E7 
 1235      41DC
 1236 1ca4 4E3FCF5D 		.ascii	"N?\317]\301\266z\177\230\001\243`\275\247^k\247'\037"
 1236      C1B67A7F 
 1236      9801A360 
 1236      BDA75E6B 
 1236      A7271F
 1237 1cb7 58A4E70E 		.ascii	"X\244\347\016\317`-\313\221\317~\006N\012\007\352`\375"
 1237      CF602DCB 
 1237      91CF7E06 
 1237      4E0A07EA 
 1237      60FD
 1238 1cc9 0F9E7EBE 		.ascii	"\017\236~\276\273\002<\364\377\353\215(\373x\005\352"
 1238      BB023CF4 
 1238      FFEB8D28 
 1238      FB7805EA 
 1239 1cd9 B400AB32 		.ascii	"\264\000\2532\300\323_\253\364\362\361\324\331\004\372"
 1239      C0D35FAB 
 1239      F4F2F1D4 
 1239      D904FA
 1240 1ce8 796B7536 		.ascii	"yku6\001\332\037\265:\344\245\337\303\007\007\361~:"
 1240      01DA1FB5 
 1240      3AE4A5DF 
 1240      C30707F1 
 1240      7E3A
 1241 1cfa C8CA5D10 		.ascii	"\310\312]\020_\017=\322m\336\014\264\211\327\375\025"
 1241      5F0F3DD2 
 1241      6DDE0CB4 
 1241      89D7FD15 
 1242 1d0a AFFB82D7 		.ascii	"\257\373\202\327}\316\353>\343u\237\362\272\2379`\311"
 1242      7DCEEB3E 
ARM GAS  /tmp/ccOxO95O.s 			page 100


 1242      E3759FF2 
 1242      BA9F3960 
 1242      C9
 1243 1d1b 181998F4 		.ascii	"\030\031\230\364\321\333)\366\330\375\271?(\327\220"
 1243      D1DB29F6 
 1243      D8FDB93F 
 1243      28D790
 1244 1d2a 995E8101 		.ascii	"\231^\201\001\020@\275\022'\210\275)@6\376A\201\201"
 1244      1040BD12 
 1244      2788BD29 
 1244      4036FE41 
 1244      8181
 1245 1d3c 7E760C54 		.ascii	"~v\014T\375;\222\310\321\232\011\322iw;\233\235\362"
 1245      FD3B92C8 
 1245      D19A09D2 
 1245      69773B9B 
 1245      9DF2
 1246 1d4e D06B800B 		.ascii	"\320k\200\013\"\346\031\344\003J\220W\200\336\006\310"
 1246      22E619E4 
 1246      034A9057 
 1246      80DE06C8 
 1247 1d5e 43FFBED4 		.ascii	"C\377\276\324*\235\336\224\242^>\301^>\336`\310\237"
 1247      2A9DDE94 
 1247      A25E3EC1 
 1247      5E3EDE60 
 1247      C89F
 1248 1d70 C932401A 		.ascii	"\3112@\032\300uWy\001{\203\205\014\225\027\002&\301"
 1248      C0755779 
 1248      017B8385 
 1248      0C951702 
 1248      26C1
 1249 1d82 75079365 		.ascii	"u\007\223e\036\372\377a\301\033\254\363b|^\212\367L"
 1249      1EFAFF61 
 1249      C11BACF3 
 1249      627C5E8A 
 1249      F74C
 1250 1d94 EDE257BE 		.ascii	"\355\342W\276\376\332\300\020\241klv\004e\000\263V\267"
 1250      FEDAC010 
 1250      A16B6C76 
 1250      046500B3 
 1250      56B7
 1251 1da6 DBD36F2D 		.ascii	"\333\323o-\247\3640\015\364\255'r\266ABx\372m\245\""
 1251      A7F4300D 
 1251      F4AD2772 
 1251      B6414278 
 1251      FA6DA522 
 1252 1dba 3E7626E7 		.ascii	">v&\347\376\317\216\337i\275\364[\003|\365\016d\374"
 1252      FECF8EDF 
 1252      69BDF45B 
 1252      037CF50E 
 1252      64FC
 1253 1dcc 9D3658AB 		.ascii	"\2356X\253\337\252\026\217\355M&\250\305\336\365\216"
 1253      DFAA168F 
 1253      ED4D26A8 
 1253      C5DEF58E 
 1254 1ddc A55DEFAE 		.ascii	"\245]\357\2562\324A\242R#UO\347~\345\355\275%0\004{"
 1254      32D441A2 
ARM GAS  /tmp/ccOxO95O.s 			page 101


 1254      5223554F 
 1254      E77EE5ED 
 1254      BD253004 
 1255 1df1 B0D55972 		.ascii	"\260\325Yr\025Kp\204\261\227\317/\002\267\371i\265A"
 1255      154B7084 
 1255      B197CF2F 
 1255      02B7F969 
 1255      B541
 1256 1e03 DB364847 		.ascii	"\3336HGR\341^>\337A\274\367\022y\370\030\342\247\365"
 1256      52E15E3E 
 1256      DF41BCF7 
 1256      1279F818 
 1256      E2A7F5
 1257 1e16 0EF1D36E 		.ascii	"\016\361\323n\323\220\023\277\361\374A\033\022\264\215"
 1257      D39013BF 
 1257      F1FC411B 
 1257      12B48D
 1258 1e25 F7F251FB 		.ascii	"\367\362Q\373{\002T$;\220\367\016R\3708TZ\177\350~;"
 1258      7B025424 
 1258      3B90F70E 
 1258      52F83854 
 1258      5A7FE87E 
 1259 1e3a 4276D907 		.ascii	"Bv\331\007A\217\363\362\200bt\222\236\206\372\332\255"
 1259      418FF3F2 
 1259      80627492 
 1259      9E86FADA 
 1259      AD
 1260 1e4b 275DC65B 		.ascii	"']\306[\353\247\367T\356\014\011\360\262\333\255\307"
 1260      EBA7F754 
 1260      EE0C09F0 
 1260      B2DBADC7 
 1261 1e5b 1F340577 		.ascii	"\0374\005w\373\352\364!\030}\260I\207\000Sg\2633\036"
 1261      FBEAF421 
 1261      187DB049 
 1261      87005367 
 1261      B3331E
 1262 1e6e FA3FB664 		.ascii	"\372?\266d\242\275\305\316\3173X\217\307\366X\035|z"
 1262      A2BDC5CE 
 1262      CF33588F 
 1262      C7F6581D 
 1262      7C7A
 1263 1e80 E8FFC80A 		.ascii	"\350\377\310\012\033\224\273\016\177\002\032\036\330"
 1263      1B94BB0E 
 1263      7F021A1E 
 1263      D8
 1264 1e8d F4BDE4AC 		.ascii	"\364\275\344\254\255W\210\016:\212^#\236\362\300!b\036"
 1264      AD57880E 
 1264      3A8A5E23 
 1264      9EF2C021 
 1264      621E
 1265 1e9f F17A7F55 		.ascii	"\361z\177U\340\316\235\0206[\235\236\344\373\377\224"
 1265      E0CE9D10 
 1265      365B9D9E 
 1265      E4FBFF94 
 1266 1eaf 4F0D9C88 		.ascii	"O\015\234\210\357\350\375=\274\240S\354\320y\352}\003"
 1266      EFE8FD3D 
 1266      BCA053EC 
ARM GAS  /tmp/ccOxO95O.s 			page 102


 1266      D079EA7D 
 1266      03
 1267 1ec0 A15D3888 		.ascii	"\241]8\210\350\3505\264\224|\003\202\265:\275\243\207"
 1267      E8E835B4 
 1267      947C0382 
 1267      B53ABDA3 
 1267      87
 1268 1ed1 07F1DD63 		.ascii	"\007\361\335c\343\347\233>\377\302N\030IO\177\361\305"
 1268      E3E79B3E 
 1268      FFC24E18 
 1268      494F7FF1 
 1268      C5
 1269 1ee2 BB74C64E 		.ascii	"\273t\306N\337\235\201`\264\177\340n\255\364\372_}\246"
 1269      DF9D8160 
 1269      B47FE06E 
 1269      ADF4FA5F 
 1269      7DA6
 1270 1ef4 1624FA9A 		.ascii	"\026$\372\232\311\373\364s6\321\317\372\304\317>\307"
 1270      C9FBF473 
 1270      36D1CFFA 
 1270      C4CF3EC7 
 1271 1f04 59B837F8 		.ascii	"Y\2707\370\237\002\275~X\243\264\366\342\322\263'\215"
 1271      9F02BD7E 
 1271      58A3B4F6 
 1271      E2D2B327 
 1271      8D
 1272 1f15 C40F3841 		.ascii	"\304\0178A\002\000\341\361w_m\373\373o\277\333\352\350"
 1272      0200E1F1 
 1272      775F6DFB 
 1272      FB6FBFDB 
 1272      EAE8
 1273 1f27 E9F7A3E7 		.ascii	"\351\367\243\347\336`\320\355\007w\276\377m\2459A\343"
 1273      DE60D0ED 
 1273      0777BEFF 
 1273      6DA53941 
 1273      E3
 1274 1f38 C1ADC97D 		.ascii	"\301\255\311}\3137\333\266ns\337\002\305\351\276U\020"
 1274      CB37DBB6 
 1274      6E73DF02 
 1274      C5E9BE55 
 1274      10
 1275 1f49 EE1FEC1B 		.ascii	"\356\037\354\033\354\001w>\\\273\304\224\357\003\260"
 1275      EC01773E 
 1275      5CBBC494 
 1275      EF03B0
 1276 1f58 0ADAEF42 		.ascii	"\012\332\357B\002\230:\321\323\217%\243\315\233\314"
 1276      02983AD1 
 1276      D38F25A3 
 1276      CD9BCC
 1277 1f67 469B37FF 		.ascii	"F\2337\377\177a\030U\275"
 1277      7F611855 
 1277      BD
 1278              		.text
 1279              		.section	.gnu.lto_.symtab.b2d60e8ac4ac89bf,"",%progbits
 1280 0000 63685365 		.ascii	"chSemObjectInit\000"
 1280      6D4F626A 
 1280      65637449 
ARM GAS  /tmp/ccOxO95O.s 			page 103


 1280      6E697400 
 1281 0010 00       		.ascii	"\000"
 1282 0011 00       		.ascii	"\000"
 1283 0012 00       		.ascii	"\000"
 1284 0013 00000000 		.ascii	"\000\000\000\000\000\000\000\000"
 1284      00000000 
 1285 001b 95010000 		.ascii	"\225\001\000\000"
 1286 001f 63685365 		.ascii	"chSemResetI\000"
 1286      6D526573 
 1286      65744900 
 1287 002b 00       		.ascii	"\000"
 1288 002c 00       		.ascii	"\000"
 1289 002d 00       		.ascii	"\000"
 1290 002e 00000000 		.ascii	"\000\000\000\000\000\000\000\000"
 1290      00000000 
 1291 0036 97010000 		.ascii	"\227\001\000\000"
 1292 003a 63685365 		.ascii	"chSemReset\000"
 1292      6D526573 
 1292      657400
 1293 0045 00       		.ascii	"\000"
 1294 0046 00       		.ascii	"\000"
 1295 0047 00       		.ascii	"\000"
 1296 0048 00000000 		.ascii	"\000\000\000\000\000\000\000\000"
 1296      00000000 
 1297 0050 99010000 		.ascii	"\231\001\000\000"
 1298 0054 63685365 		.ascii	"chSemWait\000"
 1298      6D576169 
 1298      7400
 1299 005e 00       		.ascii	"\000"
 1300 005f 00       		.ascii	"\000"
 1301 0060 00       		.ascii	"\000"
 1302 0061 00000000 		.ascii	"\000\000\000\000\000\000\000\000"
 1302      00000000 
 1303 0069 9D010000 		.ascii	"\235\001\000\000"
 1304 006d 63685365 		.ascii	"chSemWaitS\000"
 1304      6D576169 
 1304      745300
 1305 0078 00       		.ascii	"\000"
 1306 0079 00       		.ascii	"\000"
 1307 007a 00       		.ascii	"\000"
 1308 007b 00000000 		.ascii	"\000\000\000\000\000\000\000\000"
 1308      00000000 
 1309 0083 9F010000 		.ascii	"\237\001\000\000"
 1310 0087 63685365 		.ascii	"chSemWaitTimeout\000"
 1310      6D576169 
 1310      7454696D 
 1310      656F7574 
 1310      00
 1311 0098 00       		.ascii	"\000"
 1312 0099 00       		.ascii	"\000"
 1313 009a 00       		.ascii	"\000"
 1314 009b 00000000 		.ascii	"\000\000\000\000\000\000\000\000"
 1314      00000000 
 1315 00a3 A4010000 		.ascii	"\244\001\000\000"
 1316 00a7 63685365 		.ascii	"chSemWaitTimeoutS\000"
 1316      6D576169 
 1316      7454696D 
ARM GAS  /tmp/ccOxO95O.s 			page 104


 1316      656F7574 
 1316      5300
 1317 00b9 00       		.ascii	"\000"
 1318 00ba 00       		.ascii	"\000"
 1319 00bb 00       		.ascii	"\000"
 1320 00bc 00000000 		.ascii	"\000\000\000\000\000\000\000\000"
 1320      00000000 
 1321 00c4 A6010000 		.ascii	"\246\001\000\000"
 1322 00c8 63685365 		.ascii	"chSemSignal\000"
 1322      6D536967 
 1322      6E616C00 
 1323 00d4 00       		.ascii	"\000"
 1324 00d5 00       		.ascii	"\000"
 1325 00d6 00       		.ascii	"\000"
 1326 00d7 00000000 		.ascii	"\000\000\000\000\000\000\000\000"
 1326      00000000 
 1327 00df AA010000 		.ascii	"\252\001\000\000"
 1328 00e3 63685365 		.ascii	"chSemSignalI\000"
 1328      6D536967 
 1328      6E616C49 
 1328      00
 1329 00f0 00       		.ascii	"\000"
 1330 00f1 00       		.ascii	"\000"
 1331 00f2 00       		.ascii	"\000"
 1332 00f3 00000000 		.ascii	"\000\000\000\000\000\000\000\000"
 1332      00000000 
 1333 00fb AC010000 		.ascii	"\254\001\000\000"
 1334 00ff 63685365 		.ascii	"chSemAddCounterI\000"
 1334      6D416464 
 1334      436F756E 
 1334      74657249 
 1334      00
 1335 0110 00       		.ascii	"\000"
 1336 0111 00       		.ascii	"\000"
 1337 0112 00       		.ascii	"\000"
 1338 0113 00000000 		.ascii	"\000\000\000\000\000\000\000\000"
 1338      00000000 
 1339 011b AE010000 		.ascii	"\256\001\000\000"
 1340 011f 63685365 		.ascii	"chSemSignalWait\000"
 1340      6D536967 
 1340      6E616C57 
 1340      61697400 
 1341 012f 00       		.ascii	"\000"
 1342 0130 00       		.ascii	"\000"
 1343 0131 00       		.ascii	"\000"
 1344 0132 00000000 		.ascii	"\000\000\000\000\000\000\000\000"
 1344      00000000 
 1345 013a B3010000 		.ascii	"\263\001\000\000"
 1346 013e 636800   		.ascii	"ch\000"
 1347 0141 00       		.ascii	"\000"
 1348 0142 02       		.ascii	"\002"
