ARM GAS  /tmp/ccFJGd35.s 			page 1


   1              		.syntax unified
   2              		.cpu cortex-m4
   3              		.fpu softvfp
   4              		.eabi_attribute 20, 1
   5              		.eabi_attribute 21, 1
   6              		.eabi_attribute 23, 3
   7              		.eabi_attribute 24, 1
   8              		.eabi_attribute 25, 1
   9              		.eabi_attribute 26, 1
  10              		.eabi_attribute 30, 2
  11              		.eabi_attribute 34, 1
  12              		.eabi_attribute 18, 4
  13              		.thumb
  14              		.syntax unified
  15              		.file	"hal_st_lld.c"
  16              		.text
  17              	.Ltext0:
  18              		.section	.gnu.lto_.profile.51d37d9f9cdeab89,"",%progbits
  19 0000 789C6361 		.ascii	"x\234ca`d`a`\000\222\266\012\000\001\004\000h"
  19      60646061 
  19      600092B6 
  19      0A000104 
  19      0068
  20              		.text
  21              		.section	.gnu.lto_.icf.51d37d9f9cdeab89,"",%progbits
  22 0000 789C6361 		.ascii	"x\234ca`d\000\001>\006\004`bXun\311Z\026\306\346\376"
  22      60640001 
  22      3E060460 
  22      6258756E 
  22      C95A16C6 
  23 0016 9F4B3818 		.ascii	"\237K8\030\000+\205\005\233"
  23      002B8505 
  23      9B
  24              		.text
  25              		.section	.gnu.lto_.jmpfuncs.51d37d9f9cdeab89,"",%progbits
  26 0000 789C6361 		.ascii	"x\234ca`d\000\001s\006\004`\002\223@q\026\306\277L\214"
  26      60640001 
  26      73060460 
  26      02934071 
  26      16C6BF4C 
  27 0015 4F4F4E6E 		.ascii	"OONn\343\371\302\324\312\314\300(\303\270\234Q\006("
  27      E3F9C2D4 
  27      CACCC028 
  27      C3B89C51 
  27      0628
  28 0027 0314EDFA 		.ascii	"\003\024\355\372u\275\217\003\"\312\301\270\002$\312"
  28      75BD8F03 
  28      22CAC1B8 
  28      0224CA
  29 0036 00005D34 		.ascii	"\000\000]4\014\267"
  29      0CB7
  30              		.text
  31              		.section	.gnu.lto_.inline.51d37d9f9cdeab89,"",%progbits
  32 0000 789C6361 		.ascii	"x\234ca`d\000\001+\006\004`b`\340\021ed`\342\273\027"
  32      60640001 
  32      2B060460 
  32      6260E011 
ARM GAS  /tmp/ccFJGd35.s 			page 2


  32      656460E2 
  33 0016 C0C0B640 		.ascii	"\300\300\266@\236\011$\306\310\005'\030$\024\200\222"
  33      9E0924C6 
  33      C8052718 
  33      24148092 
  34 0026 2A0B6632 		.ascii	"*\013f2\301e\231y\300\272\030\000\250\263\004\362"
  34      C1659979 
  34      C0BA1800 
  34      A8B304F2 
  35              		.text
  36              		.section	.gnu.lto_.pureconst.51d37d9f9cdeab89,"",%progbits
  37 0000 789C6361 		.ascii	"x\234ca`d`c```b\330\305\310(\005\000\003\241\000\344"
  37      60646063 
  37      60606062 
  37      D8C5C828 
  37      050003A1 
  38              		.text
  39              		.section	.gnu.lto_VectorB0.51d37d9f9cdeab89,"",%progbits
  40 0000 789C8554 		.ascii	"x\234\205T_L\223W\024?\347\336\257\375J\213\223W\015"
  40      5F4C9357 
  40      143FE7DE 
  40      AFFD4A8B 
  40      93570D
  41 0013 71E5812C 		.ascii	"q\345\201,&\033\237\377\242\311\336\026\366Bb\343B}"
  41      261B9FFF 
  41      A2C9DE16 
  41      F64262E3 
  41      427D
  42 0025 27AE3683 		.ascii	"'\2566\203\204Z\323\217\031}\342B\251\232\354\305\227"
  42      845AD38F 
  42      197DE242 
  42      A99AECC5 
  42      97
  43 0036 19B2B935 		.ascii	"\031\262\2715\2311\026\265 ln+\016\250\240\242\"\020"
  43      993116B5 
  43      206C6E2B 
  43      0EA8A0A2 
  43      2210
  44 0048 17B71762 		.ascii	"\027\267\027b\202\020Q\027\262\324\311\037\215\203\356"
  44      82105117 
  44      B2D4C91F 
  44      8D83EE
  45 0057 9CDBC26A 		.ascii	"\234\333\302j\353\334M\363}\367\336\337\371\363;\347"
  45      EBDC4DF3 
  45      7DF7DEDF 
  45      F9F33BE7 
  46 0067 77BE1A80 		.ascii	"w\276\032\200\300\253\322\001 h\273\213\366\350\000"
  46      C0ABD201 
  46      2068BB8B 
  46      F6E800
  47 0076 14A72600 		.ascii	"\024\247&\000\332\\B\310\376-\240\334\306\357\026\250"
  47      DA5C42C8 
  47      FE2DA0DC 
  47      C6EF16A8 
  48 0086 728946EE 		.ascii	"r\211F\356\332@\344\215r!\264\012i`+.\212\025\201\303"
  48      DA40E48D 
  48      7221B40A 
ARM GAS  /tmp/ccFJGd35.s 			page 3


  48      69602B2E 
  48      8A1581C3 
  49 009a 27E65262 		.ascii	"'\346Rb\353yEk\372\321R\231J\2441&\001\262B\247\000"
  49      EB79456B 
  49      FAD15299 
  49      4AA43126 
  49      01B242A7 
  50 00af 3C8F5B81 		.ascii	"<\217[\201\314fzW\277\334\340\354`3o\016\304\004:\231"
  50      CC667A57 
  50      BFDCE0EC 
  50      60336F0E 
  50      C4043A99 
  51 00c3 474F7D5A 		.ascii	"GO}Ze\263Q\245V\266\275z\317-!F\031\371\001\220!3N\371"
  51      65B351A5 
  51      56B6BD7A 
  51      CF2D2146 
  51      19F90190 
  52 00db 4C087ECB 		.ascii	"L\010~\3139\034\356\357]\034q\260gTJ\212z:6<i.\210\230"
  52      391CEEEF 
  52      5D1C71B0 
  52      67544A8A 
  52      7A3A363C 
  53 00f3 A432E838 		.ascii	"\2442\3508\221\\\316\270sGNd\320\325\331\356\245QW\034"
  53      915CCEB8 
  53      73474E64 
  53      D0D5D9EE 
  53      A551571C 
  54 0107 BF215212 		.ascii	"\277!R\022/`%va%\260\355\205\361\205\347\246\225T\035"
  54      2F602576 
  54      6125B0ED 
  54      85F185E7 
  54      A695541D 
  55 011b 84187811 		.ascii	"\204\030x\021\343\270\252)\343%\264`\016\243\177\037"
  55      E3B8AA29 
  55      E325B460 
  55      0EA37F1F 
  56 012b BF2B7389 		.ascii	"\277+s\211\214\\\256\033\331\345\364F\016\216(0IQ\036"
  56      8C5CAE1B 
  56      D9E5F446 
  56      0E8E2830 
  56      49511E
  57 013e 62C75474 		.ascii	"b\307Tts\336\206\014z\346S/7\344\014\000\2739\0150w"
  57      73DE860C 
  57      7AE6532F 
  57      37E40C00 
  57      BB390D30 
  58 0153 09FD5B98 		.ascii	"\011\375[\230\372BfqVS/`\325\3064\375\360vn=\377r\273"
  58      FA426671 
  58      56532F60 
  58      D5C634FD 
  58      F0766E3D 
  59 016a 8C5661D5 		.ascii	"\214Va\325\006%\352%\237\031l\257`\277{\035\227\317"
  59      0625EA25 
  59      9F196CAF 
  59      60BF7B1D 
  59      97CF
  60 017c 48061CC8 		.ascii	"H\006\034\310\204\236\215\1775\373\016\037\235\350\245"
ARM GAS  /tmp/ccFJGd35.s 			page 4


  60      849E8D7F 
  60      35FB0E1F 
  60      9DE8A5
  61 018b E3B93BBF 		.ascii	"\343\271;\277\016y\344n\335\251\205\316\336DY\365Y\245"
  61      0E79E46E 
  61      DDA985CE 
  61      DE4459F5 
  61      59A5
  62 019d DAD5F4CA 		.ascii	"\332\325\364\312S\337\265s\307\325\2516WL\232\370\003"
  62      53DFB573 
  62      C7D5A936 
  62      574C9AF8 
  62      03
  63 01ae 4A9207BF 		.ascii	"J\222\007\277':}\371\032\360\012V\223\317\211\247j\300"
  63      273A7DF9 
  63      1AF00A56 
  63      93CF89A7 
  63      6AC0
  64 01c0 E070267A 		.ascii	"\340p&z\361G\302\036c\373Lj\364\317=\257\313\233\036"
  64      F147C21E 
  64      63FB4C6A 
  64      F4CF3DAF 
  64      CB9B1E
  65 01d3 5BF26B71 		.ascii	"[\362kq\2639Q\012\241\241\323I\354t\002\376\304\250"
  65      B339510A 
  65      A1A1D349 
  65      EC7402FE 
  65      C4A8
  66 01e5 284607CE 		.ascii	"(F\007\316|\215\004\376\314\240,\006_N%\270\257)\006"
  66      7C8D04FE 
  66      CCA02C06 
  66      5F4E25B8 
  66      AF2906
  67 01f8 8D225075 		.ascii	"\215\"PuM \223\004\354g\330Q2px\225\002\003\376\302"
  67      4D209304 
  67      EC67D851 
  67      32707895 
  67      0203FEC2 
  68 020c 1387C49B 		.ascii	"\023\207\304\233\360\357\342}/\334U/0\256:\2751\351"
  68      F0EFE27D 
  68      2FDC552F 
  68      30AE3ABD 
  68      31E9
  69 021e 6297E4EC 		.ascii	"b\227\344\354U\3452\250\3238\200UZ\210\314\374\375)"
  69      55E532A8 
  69      D3388055 
  69      5A88CCFC 
  69      FD29
  70 0230 41373888 		.ascii	"A78\210\206.\031pH\267618\362\250\274\352U\336\273\214"
  70      862E1970 
  70      48B73631 
  70      38F2A8BC 
  70      EA55DEBB 
  71 0245 6DFFEAEE 		.ascii	"m\377\352\356\373\315\243\275\323\354\215\327h\214g"
  71      FBCDA3BD 
  71      D3EC8DD7 
  71      688C67
ARM GAS  /tmp/ccFJGd35.s 			page 5


  72 0254 50E8EE01 		.ascii	"P\350\356\001<\301\350\364\267c\0176\025U\365\305\362"
  72      3CC1E8F4 
  72      B7630F36 
  72      1555F5C5 
  72      F2
  73 0265 5AAF9CA5 		.ascii	"Z\257\234\245\244\2075\351\021\324P*5?e\266\256\250"
  73      A48735E9 
  73      11D4502A 
  73      353F65B6 
  73      AEA8
  74 0277 934A55C4 		.ascii	"\223JU\304\244;+L\215\343ul\245\371\361\254\317\300"
  74      A43B2B4C 
  74      8DE3756C 
  74      A5F9F1AC 
  74      CFC0
  75 0289 6BCA76ED 		.ascii	"k\312v\355\373\037eohe\327\007\312\244\366\334|\213"
  75      FB1F656F 
  75      6865D707 
  75      CAA4F6DC 
  75      7C8B
  76 029b B2EB6C5D 		.ascii	"\262\353l]\245\312\336\322\312\2162ZV\252\354m\346z"
  76      A5CADED2 
  76      CA8E325A 
  76      56AAEC6D 
  76      E67A
  77 02ad 8B417789 		.ascii	"\213Aw\211\262\317\273X\331\333\014z\212\225\2752\211"
  77      B2CFBB58 
  77      D9DB0C7A 
  77      8A95BD32 
  77      89
  78 02be 4C12F0CE 		.ascii	"L\022\360\316\177(;\246\233t\267@\331\325\370\303A\317"
  78      7F283BA6 
  78      9B74B740 
  78      D9D5F8C3 
  78      41CF
  79 02d0 9A6837B5 		.ascii	"\232h7\265h\343Z\264b\205&\326\024\342\004\372[5\364"
  79      68E35AB4 
  79      628526D6 
  79      14E204FA 
  79      5B35F4
  80 02e3 FF0C6B75 		.ascii	"\377\014ku}\025\271\3227v\276\234|'\363m\377\003\333"
  80      7D15B9D2 
  80      3776BE9C 
  80      7C27F36D 
  80      FF03DB
  81 02f6 D3CBFBB4 		.ascii	"\323\313\373\264)\257\014\315<\205\240\034;kj\254\334"
  81      29AF0CCD 
  81      3C85A01C 
  81      3B6B6AAC 
  81      DC
  82 0307 2F6C5B8D 		.ascii	"/l[\215\007\232\255\303\341H\213m\371\367\373v\356\260"
  82      079AADC3 
  82      E1488B6D 
  82      F9F7FB76 
  82      EEB0
  83 0319 F6EEFDD8 		.ascii	"\366\356\375\330\332_\347;\262\235\221\006\273\245\241"
  83      DA5FE73B 
ARM GAS  /tmp/ccFJGd35.s 			page 6


  83      B29D9106 
  83      BBA5A1
  84 0328 B9F9604D 		.ascii	"\271\371`M\000\314O\017\330\301O\"M\037\024\372\006"
  84      00CC4F0F 
  84      D8C14F22 
  84      4D1F14FA 
  84      06
  85 0339 C2A150F8 		.ascii	"\302\241P\370P\336\375\243z_\255\357\250\025h\014\204"
  85      50DEFDA3 
  85      7A5FADEF 
  85      A815680C 
  85      84
  86 034a 23C18623 		.ascii	"#\301\206#{B5\215\360\341\033\254\203G[\330\326\252"
  86      7B42358D 
  86      F0E11BAC 
  86      83475BD8 
  86      D6AA
  87 035c F5F9EBFC 		.ascii	"\365\371\353\374V-\031[u\207\002\315\237\037\014Z\201"
  87      562D195B 
  87      758702CD 
  87      9F1F0C5A 
  87      81
  88 036d 90DD6437 		.ascii	"\220\335d7|\026\010\220\353\273\305$\3036=\"-\372]\214"
  88      7C160890 
  88      EBBBC524 
  88      C3363D22 
  88      2DFA5D8C 
  89 0381 D375D35A 		.ascii	"\323u\323Z\214F\373\230Mx\205\317_\357e\322\207#M\357"
  89      8C46FB98 
  89      4D7885CF 
  89      5FEF65D2 
  89      87234DEF 
  90 0395 7BABB781 		.ascii	"{\253\267\201\210\200\031\012\206\302\221c\360\017\331"
  90      8880190A 
  90      86C29163 
  90      F00FD9
  91 03a4 DB1D0E   		.ascii	"\333\035\016"
  92              		.text
  93              		.section	.gnu.lto_st_lld_init.51d37d9f9cdeab89,"",%progbits
  94 0000 789C9D94 		.ascii	"x\234\235\224KL\023A\030\307\347\333\335n\267+>.\236"
  94      4B4C1341 
  94      18C7E7DB 
  94      DD6EB72B 
  94      3E2E9E
  95 0013 ECC12B1E 		.ascii	"\354\301+\036X\001={\361b\002\027\341\342\211\030=x"
  95      58013D7B 
  95      F1620217 
  95      E1E28918 
  95      3D78
  96 0025 20C108F1 		.ascii	" \301\010\361\332\301v\201xP\214\2417\302\201\003\210"
  96      DAC17681 
  96      78508CA1 
  96      37C28103 
  96      88
  97 0036 F22802D2 		.ascii	"\362(\002\322\212Z*\017Q(\210<L\004A\023\032#\036\026"
  97      8A5A2A0F 
  97      5128883C 
ARM GAS  /tmp/ccFJGd35.s 			page 7


  97      4C044113 
  97      1A231E16 
  98 004a A88F48A0 		.ascii	"\250\217H\240~\337liK\274\300N\332\331\356\314\364\367"
  98      7EDF6C69 
  98      4BBCC04E 
  98      DAD9EECC 
  98      F4F7
  99 005c FBEFB73B 		.ascii	"\373\357\267;\2530`\324\252T\306\316\343\361\024~Af"
  99      AB3060D4 
  99      AA54C6CE 
  99      E3F1147E 
  99      4166
 100 006e 2035C619 		.ascii	" 5\306\031\253\325$\000\372\3015`>\011|\360S\332\221"
 100      ABD52400 
 100      FAC13560 
 100      3E097CF0 
 100      53DA91
 101 0081 20569F08 		.ascii	" V\237\010K\371m\034\333\352Zk\021o\217\202)3\226\222"
 101      4BF96D1C 
 101      DBEA5A6B 
 101      116F8F82 
 101      29339692 
 102 0095 0489411B 		.ascii	"\004\211A\033\3443\\\3665\264\333tT\015\320\262\323"
 102      E4335CF6 
 102      35B4DB74 
 102      540DD0B2 
 102      D3
 103 00a6 F624B483 		.ascii	"\366$\264\203J\272\356\313Q\236J\3719\3378\273\224\177"
 103      4ABAEECB 
 103      519E4AF9 
 103      39DF38BB 
 103      947F
 104 00b8 5262A68C 		.ascii	"Rb\246\214J\354\\\324\251\324i\324y\250\323\251c\314"
 104      4AEC5CD4 
 104      A9D469D4 
 104      79A8D3A9 
 104      63CC
 105 00ca C2FF5392 		.ascii	"\302\377S\222\015I\242\243\234\200Xd#~\216\210~\231"
 105      0D49A2A3 
 105      9C805864 
 105      237E8E88 
 105      7E99
 106 00dc 4205CDD8 		.ascii	"B\005\315\330\264;)\231\262\004$\0174\217&<\366)\267"
 106      B43B2999 
 106      B204240F 
 106      348F263C 
 106      F629B7
 107 00ef 1AB88243 		.ascii	"\032\270\202C\353+\333aW\0134cX\031:\300\013\217\300"
 107      EB2BDB61 
 107      570B3463 
 107      58193AC0 
 107      0B8FC0
 108 0102 CB68ED66 		.ascii	"\313h\355fpf5\317\350\344\201Z~\302\224\025x\014-\260"
 108      706635CF 
 108      E8E4815A 
 108      7EC29415 
 108      780C2DB0 
ARM GAS  /tmp/ccFJGd35.s 			page 8


 109 0116 2B2E069E 		.ascii	"+.\006\236\200\301\022\340\377\243\332\"\331v\365\215"
 109      80C112E0 
 109      FFA3DA22 
 109      D976F58D 
 110 0126 8CD76904 		.ascii	"\214\327i\004\007l\235H\3014A\240%\207\321te5\335` "
 110      076C9D48 
 110      C13441A0 
 110      2587D174 
 110      6535DD60 
 111 013b 9C3011B0 		.ascii	"\2340\021\260M\256\303\220z\004\211*\013\241\375\201"
 111      4DAEC390 
 111      7A04892A 
 111      0BA1FD81 
 112 014b 89E43C61 		.ascii	"\211\344<ao\226\373\224\022\252\271\011\265\003\221"
 112      6F96FB94 
 112      12AAB909 
 112      B50391
 113 015a 80387D59 		.ascii	"\2008}YN\277\310\027\213<\230Sl\214'\367\336\271\304"
 113      4EBFC817 
 113      8B3C9853 
 113      6C8C27F7 
 113      DEB9C4
 114 016d BDBBEB1F 		.ascii	"\275\273\353\037\356\325\354S\036m\344\307ph\346\363"
 114      EED5EC53 
 114      1E6DE4C7 
 114      7068E6F3 
 115 017d E0826E8B 		.ascii	"\340\202n\213Tx\206\242\201\264h`k\363~n\344A\241\022"
 115      547886A2 
 115      81B46860 
 115      6BF37E6E 
 115      E441A112 
 116 0191 0F5B787F 		.ascii	"\017[x\177)tt\375W\212\003s#Y\356s*\205N\230\2445\037"
 116      297474FD 
 116      578A0373 
 116      2359EE73 
 116      2A854E98 
 117 01a8 70A74999 		.ascii	"p\247I\231kp\213k\210w\376\266t\373\2246\000=\177\255"
 117      6B708B6B 
 117      8877FEB6 
 117      74FB9436 
 117      003D7FAD 
 118 01bc 5DBFC635 		.ascii	"]\277\3065t\325\322\300\005|\2545x\201\306\241\264\261"
 118      74D5D2C0 
 118      057CAC35 
 118      7881C6A1 
 118      B4B1
 119 01ce 632AB9E5 		.ascii	"c*\271\345\316\224\354\245\360\311\344{\005\006N\177"
 119      CE94ECA5 
 119      F0C9E47B 
 119      05064E7F 
 120 01de E90B3409 		.ascii	"\351\0134\011\276\002mc\014\242\366\205${\0262\011\016"
 120      BE026D63 
 120      0CA2F685 
 120      247B1632 
 120      090E
 121 01f0 C51F167C 		.ascii	"\305\037\026|\205\3701\301_\037\352\371\350\262\371"
 121      85F831C1 
ARM GAS  /tmp/ccFJGd35.s 			page 9


 121      5F1FEAF9 
 121      E8B2F9
 122 01ff 296CC7E1 		.ascii	")l\307\341u\332`94\214\010\203\213\014\243\302\220\251"
 122      75DA6039 
 122      348C0883 
 122      8B0CA3C2 
 122      90A9
 123 0211 90020CC6 		.ascii	"\220\002\014\306\366\362/:\241{`\\\320\361\245ES\251"
 123      F6F22F3A 
 123      A17B605C 
 123      D0F1A545 
 123      53A9
 124 0223 6068592D 		.ascii	"`hY-\354\246\233\305\257\020\377\015\030p\306+\266\326"
 124      ECA69BC5 
 124      AF10FF0D 
 124      1870C62B 
 124      B6D6
 125 0235 04146664 		.ascii	"\004\024fd\226#\231\002o\205\314M\270wH\316d_r\206\233"
 125      96239902 
 125      6F85CC4D 
 125      B87748CE 
 125      645F7286 
 126 024a 14388D70 		.ascii	"\0248\215pS98\313!..p\036\302M\213B\367\327O\206t\273"
 126      533938CB 
 126      212E2E70 
 126      1EC24D8B 
 126      42F7D74F 
 127 0261 D000337B 		.ascii	"\320\0003{a\227\235\321\337\013\272N\364Y\014K\270o"
 127      61979DD1 
 127      DF0BBA4E 
 127      F4590C4B 
 127      B86F
 128 0273 6046B767 		.ascii	"`F\267g\305\026\242\365\341\360\217On\337\016o\340\264"
 128      C516A2F5 
 128      E1F08F4F 
 128      6EDF0E6F 
 128      E0B4
 129 0285 55F4146D 		.ascii	"U\364\024mt\370\000>\232[\233xX\227GQ\216\240`\016\274"
 129      74F8003E 
 129      9A5B9B78 
 129      58974751 
 129      8EA0600E 
 130 029a B4BBFF2E 		.ascii	"\264\273\377.\336\323\354!\015\346\301k\312y\354;\334"
 130      DED3EC21 
 130      0DE6C16B 
 130      CA79EC3B 
 130      DC
 131 02ab 8986CB04 		.ascii	"\211\206\313\004\220\232\205\010|\311\343n+.(0\354O"
 131      909A8508 
 131      7CC9E36E 
 131      2B2E2830 
 131      EC4F
 132 02bd 55B571E3 		.ascii	"U\265q\343j\245q\263\352VM\265QV^Z\\d\224\224\\4\312"
 132      6AA571B3 
 132      EA564DB5 
 132      51565E5A 
 132      5C649494 
ARM GAS  /tmp/ccFJGd35.s 			page 10


 133 02d4 2F95DE2E 		.ascii	"/\225\336.\244\231\212\352\232\212\312\312\353\005\327"
 133      A4998AEA 
 133      9A8ACACA 
 133      EB05D7
 134 02e3 D83F0FD2 		.ascii	"\330?\017\3226r"
 134      3672
 135              		.text
 136              		.section	.gnu.lto_.symbol_nodes.51d37d9f9cdeab89,"",%progbits
 137 0000 789C55C8 		.ascii	"x\234U\310\313\011\2000\020\204\341\331\331`\033\321"
 137      CB098030 
 137      1084E1D9 
 137      D9601BD1 
 138 0010 12AD6073 		.ascii	"\022\255`s\010\010\236\254\307\002\342\013\254\302c"
 138      08089EAC 
 138      C702E20B 
 138      ACC263
 139 001f 8A70F164 		.ascii	"\212p\361d\346?\014|\001\202\021>n4`\271\001\2775\015"
 139      E63F0C7C 
 139      0182113E 
 139      6E3460B9 
 139      01BF350D 
 140 0033 2E3B4D1A 		.ascii	".;M\032\221\203\306O\200\224z\207\223\246\015\\\264"
 140      9183C64F 
 140      80947A87 
 140      93A60D5C 
 140      B4
 141 0044 F007F572 		.ascii	"\360\007\365r)\235\202\310S\215*\001\317\\#^3\034\033"
 141      299D82C8 
 141      538D2A01 
 141      CF5C235E 
 141      331C1B
 142 0057 9C       		.ascii	"\234"
 143              		.text
 144              		.section	.gnu.lto_.refs.51d37d9f9cdeab89,"",%progbits
 145 0000 789C6361 		.ascii	"x\234ca`\004B \000\000\0009\000\007"
 145      60044220 
 145      00000039 
 145      0007
 146              		.text
 147              		.section	.gnu.lto_.decls.51d37d9f9cdeab89,"",%progbits
 148 0000 789CCD59 		.ascii	"x\234\315Y{PTG\272\237>=\300\360\020r\321JY\267\334"
 148      7B505447 
 148      BA9F3E3D 
 148      C0F01072 
 148      D14A59B7 
 149 0015 DA548ABA 		.ascii	"\332T\212\272R\273\245#\350fo\335\277\202\003\012\265"
 149      52BBA523 
 149      E8666FDD 
 149      BF82030A 
 149      B5
 150 0026 925803C9 		.ascii	"\222X\003\311\246\362\307\235B\030#\265<\262\200\271"
 150      A6F2C79D 
 150      421823B5 
 150      3CB280B9 
 151 0036 A66A6FDD 		.ascii	"\246jo\335\303C\005\224\204\227\250 \210<D|\">\220\207"
 151      C3430594 
 151      8497A820 
ARM GAS  /tmp/ccFJGd35.s 			page 11


 151      883C447C 
 151      223E9087 
 152 004a 3282222A 		.ascii	"2\202\"*\030\203\004$\200 \340#\202\212 OA\366\353\356"
 152      18830424 
 152      8020E023 
 152      828A204F 
 152      41F6EBEE 
 153 005e 33737A0E 		.ascii	"3sz\016c*\177\334[u\247\370\3159_\367\257\177\375u\177"
 153      632A7FDC 
 153      5B75A7F8 
 153      CD395FF7 
 153      AF7FFD75 
 154 0073 7DFA7C3D 		.ascii	"}\372|=\250UHE>{\177\247R\271\331\251T\233\300\\\200"
 154      A8554845 
 154      3E7B7FA7 
 154      52B9D9A9 
 154      549BC05C 
 155 0088 0F86B2CF 		.ascii	"\017\206\262\317\001\244\366\254\212}\240Zu\001P\005"
 155      01A4F6AC 
 155      8A7DA05A 
 155      75015005 
 156 0098 A806D402 		.ascii	"\250\006\324\002L\252\305\037\302q\221\332\257\004\250"
 156      4CAAC51F 
 156      C27191DA 
 156      AF04A8
 157 00a7 41440034 		.ascii	"AD\0004\301\275;`\231\244\351\002e\377\002p\007\234"
 157      C1BD3B60 
 157      99A4E902 
 157      65FF0270 
 157      079C
 158 00b9 97FA9A05 		.ascii	"\227\372\232\005,\2214\226A\301\373\200\345\200\177"
 158      2C913496 
 158      41C1FB80 
 158      E5807F
 159 00c8 057C00F8 		.ascii	"\005|\000\370\020\261~=\340\372o\000O\300\037\020\363"
 159      10B17E3D 
 159      E0FA6F00 
 159      4FC01F10 
 159      F3
 160 00d9 47F9A992 		.ascii	"G\371\251\222\264\314~\3747\360\376!\371\221\012\327"
 160      B4CC7EFC 
 160      37F0FE21 
 160      F9910AD7 
 161 00e9 1424FBD6 		.ascii	"\024$\373\326\016e{\020\363\253\036\340\014\010\001"
 161      0E657B10 
 161      F3AB1EE0 
 161      0C0801
 162 00f8 FBAF8004 		.ascii	"\373\257\200\004\300$\330s\200)\300\014\340\225\212"
 162      C024D873 
 162      8029C00C 
 162      E0958A
 163 0107 39BC0097 		.ascii	"9\274\000\227\327\000A\352\317\326|\314\013\250\267"
 163      D70041EA 
 163      CFD67CCC 
 163      0BA8B7
 164 0116 B9FC047E 		.ascii	"\271\374\004~-\240\225N\210\314\256\033\024\235\031"
 164      2DA0954E 
ARM GAS  /tmp/ccFJGd35.s 			page 12


 164      88CCAE1B 
 164      149D19
 165 0125 A99E59C2 		.ascii	"\251\236Y\302\212\010\243o\346\330\206\325'E\370\244"
 165      8A08A36F 
 165      E6D886D5 
 165      2745F8A4 
 166 0135 8BA220C8 		.ascii	"\213\242 \310M\333\276\037+q\300\316\224\364cR\305!"
 166      4DDBBE1F 
 166      2B71C0CE 
 166      94F46352 
 166      C521
 167 0147 22E3EE84 		.ascii	"\"\343\356\204\324`\276j\315\035t\005s\231\023\372`"
 167      D460BE6A 
 167      CD1D7405 
 167      739913FA 
 167      60
 168 0158 5E109AD2 		.ascii	"^\020\232\322\316U:#O\247\243D\245\277\267\304\245Z"
 168      CE553A23 
 168      4FA7A344 
 168      A5BFB7C4 
 168      A55A
 169 016a 14DF43A7 		.ascii	"\024\337C\247\221\023:\2160*G\253\211\313+\235\340;"
 169      91133A8E 
 169      302A47AB 
 169      89CB2B9D 
 169      E03B
 170 017c 591413C4 		.ascii	"Y\024\023\304\364D\321\275\331U\205N\242\025\350\004"
 170      F444D1BD 
 170      D955854E 
 170      A215E804 
 171 018c 5AA142A7 		.ascii	"Z\241B\247\220'\361\206\020\3211(,\203B\350\245\274"
 171      9027F186 
 171      10D13128 
 171      2C8342E8 
 171      A5BC
 172 019e 24A3C81E 		.ascii	"$\243\310\036\377\2038 \034<\177|\312\311\322E^\352"
 172      FF833820 
 172      1C3C7F7C 
 172      CAC9D245 
 172      5EEA
 173 01b0 BA93A48B 		.ascii	"\272\223\244\213\263\320\305\031\271\013\350\361\235"
 173      B3D0C519 
 173      B90BE8F1 
 173      9D
 174 01bd 7D54D8E8 		.ascii	"}T\330\350\203\264\207~.\337{sG\335\215\272\020\014"
 174      83B4877E 
 174      2EDF7B73 
 174      47DD8DBA 
 174      100C
 175 01cf 1EBD4787 		.ascii	"\036\275G\207\217\020\373F\024*\006j\302\215@\277Ur"
 175      8F10FB46 
 175      142A066A 
 175      C28D40BF 
 175      5572
 176 01e1 11321325 		.ascii	"\0212\023%[0\337\252,b\364OjO\3279\375P\021Y\035I\215"
 176      5B30DFAA 
 176      2C62F44F 
ARM GAS  /tmp/ccFJGd35.s 			page 13


 176      6A4FD739 
 176      FD501159 
 177 01f8 982D3556 		.ascii	"\230-5V!\311\026\344\016\0203\315\0158=\346\256$'\373"
 177      21C916E4 
 177      0E1033CD 
 177      0D383DE6 
 177      AE2427FB 
 178 020c 6C191332 		.ascii	"l\031\0232G\367\371\313\2212W\334\217hx\347o\346\345"
 178      47F7F9CB 
 178      913257DC 
 178      8F6878E7 
 178      6FE6E5
 179 021f 0ACB73E8 		.ascii	"\012\313s\350\"H\024?P\243\317\337\267\314\234\012\235"
 179      2248143F 
 179      50A3CFDF 
 179      B7CC9C0A 
 179      9D
 180 0230 47CBE17B 		.ascii	"G\313\341{\213\2325<]\263+\325\355\303B\261\260B\354"
 180      8B9A353C 
 180      5DB32BD5 
 180      EDC342B1 
 180      B042EC
 181 0243 3FF74364 		.ascii	"?\367CdV\245(\246@;5\241\241sr0\340\226\\*Q7xp\001}"
 181      56A528A6 
 181      403B35A1 
 181      A1737230 
 181      E0965C2A 
 182 025d 4896CDDE 		.ascii	"H\226\315\336\227\205n8_\240}\356\275q!\0131\035\323"
 182      97856E38 
 182      5FA07DEE 
 182      BD71210B 
 182      311DD3
 183 0270 E14C7C50 		.ascii	"\341L|P4%\201\214@e.\3122\027y\231**\3237:~\303\031"
 183      3425818C 
 183      40652ECA 
 183      32177999 
 183      2A2AD337 
 184 0288 973399E3 		.ascii	"\2273\231\343\317K'\210L?,\213\231\254\355\273\213w"
 184      CF4B2788 
 184      4C3F2C8B 
 184      99ACEDBB 
 184      8B77
 185 029a 99D211F5 		.ascii	"\231\322\021\365\031]\222U.Q\025\270\251\246\012)U\215"
 185      195D9255 
 185      2E5115B8 
 185      A9A60A29 
 185      558D
 186 02ac 69183F63 		.ascii	"i\030?c\012\342\345\356*\265\2440\333i\310N,\364\247"
 186      0AE2E5EE 
 186      2AB5A430 
 186      DB69C84E 
 186      2CF4A7
 187 02bf CD6BE4E6 		.ascii	"\315k\344\3465\346\346\265\264y^\373@\261\200\3631m"
 187      35E6E6B5 
 187      B4795EFB 
 187      40B180F3 
 187      316D
ARM GAS  /tmp/ccFJGd35.s 			page 14


 188 02d1 BE7BA4A4 		.ascii	"\276{\244\244CP\223\245CV#\314\022\224\015\365\\\355"
 188      435093A5 
 188      435623CC 
 188      12940DF5 
 188      5CED
 189 02e3 72B3945D 		.ascii	"r\263\224]F\264p\177\316\276\011\207wNr=\235\344+H\232"
 189      46B4707F 
 189      CEBE0987 
 189      774E723D 
 189      9DE42B48 
 190 02f8 E5B194E4 		.ascii	"\345\261\224\344[\216\222Suy\237f\020\247\200\202\352"
 190      5B8E9253 
 190      75799F66 
 190      10A78082 
 190      EA
 191 0309 64A7EACC 		.ascii	"d\247\352\314N\231\250SU\017\367\325;\262G\364>Q\310"
 191      4E99A853 
 191      550FF7D5 
 191      3BB247F4 
 191      3E51C8
 192 031c AD7D7DCB 		.ascii	"\255}}\313\216\331\032R\375\342D\325\022\366\310\232"
 192      8ED91A52 
 192      FDE244D5 
 192      12F6C89A 
 193 032c 48F5BDC7 		.ascii	"H\365\275\307G\222\\X\365]b7v\334\030U\343\237\331\230"
 193      47925C58 
 193      F55D6237 
 193      76DC1855 
 193      E39FD998 
 194 0340 EE9625DF 		.ascii	"\356\226%\337\305N\360 %\376\266\007\011\232\264\264"
 194      C54EF020 
 194      25FEB607 
 194      099AB4B4 
 195 0350 BC69B5C3 		.ascii	"\274i\265\303\375\254\375\236\353\027\232\244\355\242"
 195      FDACFD9E 
 195      EB179AA4 
 195      EDA2
 196 035e 99D8D935 		.ascii	"\231\330\3315\215\265\316x\220U\016\246\0164\332\343"
 196      8DB5CE78 
 196      90550EA6 
 196      0E34DAE3 
 197 036e A7CC30BB 		.ascii	"\247\3140\273\345.\271u\270{\342\026\302#\254\262\266"
 197      E52EB975 
 197      B87BE216 
 197      C223ACB2 
 197      B6
 198 037f AAAE491A 		.ascii	"\252\256I\032\302\032\262!\215\266\344;3\363=0/>\276"
 198      C21AB221 
 198      8DB6E43B 
 198      33F33D30 
 198      2F3EBE
 199 0392 D9E4C446 		.ascii	"\331\344\304F$\"\362\030\267\365|\214_\261\226\015c"
 199      2422F218 
 199      B7F57C8C 
 199      5FB1960D 
 199      63
 200 03a3 1565D2E8 		.ascii	"\025e\322\3500\230/\247\212R4d<\2424\036R!\317}\033"
ARM GAS  /tmp/ccFJGd35.s 			page 15


 200      30982FA7 
 200      8A523464 
 200      3CA2341E 
 200      5221CF7D 
 201 03b8 D9379076 		.ascii	"\3317\220v\005\372\221\215ew~\3379;\367tiO\3748\216"
 201      05FA918D 
 201      65777EDF 
 201      393BF774 
 201      694FFC38 
 202 03cd 46F107A0 		.ascii	"F\361\007\240\337\241\364{\310\335\334\210\260\037\314"
 202      DFA1F47B 
 202      C8DDDC88 
 202      B01FCC
 203 03dc 1DBA8E79 		.ascii	"\035\272\216yv\323\257\261O\027\227\356w\302\023\314"
 203      76D3AFB1 
 203      4F1797EE 
 203      77C213CC 
 204 03ec CDBCF1DE 		.ascii	"\315\274\361\336_\244\230y\202yt\2626Q\203gX]\326\225"
 204      5FA49879 
 204      827974B2 
 204      36518367 
 204      585DD695 
 205 0400 FC56073C 		.ascii	"\374V\007<\317\014\363\206\353N7\\\224\320\271\036\307"
 205      CF0CF386 
 205      EB4E375C 
 205      94D0B91E 
 205      C7
 206 0411 AB694D7D 		.ascii	"\253iM}Ff/\302;\231\361\"\351Q\2774C\313\301\334w{x"
 206      46662FC2 
 206      3B99F122 
 206      E951BF34 
 206      43CBC1DC 
 207 0428 254E6555 		.ascii	"%NeUo\233\033W\342tv\337t\361X\031\3029\314\030\313"
 207      6F9B1B57 
 207      E27476DF 
 207      74F15819 
 207      C239CC18 
 208 043d 6D1A76C2 		.ascii	"m\032v\302\271\314(l;tI\203\363\231qt:\347\250\013."
 208      B9CC286C 
 208      3B744983 
 208      F3997174 
 208      3AE7A80B 
 209 0452 62467BF5 		.ascii	"bF{\365O\311\316\270\214\031\311g\317\036p\306'\230"
 209      4FC9CEB8 
 209      8C19C967 
 209      CF1E70C6 
 209      2798
 210 0464 9150DB95 		.ascii	"\221P\333\225\341\306:\355\247\213\277t\250\320Q\212"
 210      E1C63AED 
 210      A78BBF74 
 210      A8D0518A 
 211 0474 8B3DD8A9 		.ascii	"\213=\330\251m-S\010\237a\344\013\371\035\005\316\357"
 211      6D2D5308 
 211      9F61E40B 
 211      F91D05CE 
 211      EF
 212 0485 8EC45373 		.ascii	"\216\304Ss$\326\320@\344u\275\255p\223\246\326d\016"
ARM GAS  /tmp/ccFJGd35.s 			page 16


 212      24D6D040 
 212      E475BDAD 
 212      7093A6D6 
 212      640E
 213 0497 4423B01B 		.ascii	"D#\260\033(\373\027:\265O\315S[\231U\332\244\341\331"
 213      28FB173A 
 213      B54FCD53 
 213      5B9955DA 
 213      A4E1D9
 214 04aa 4DBFC27E 		.ascii	"M\277\302~\277\271o\350\264#\362P|<=<\226zx\024\211"
 214      BFB96FE8 
 214      B423F250 
 214      7C3C3D3C 
 214      967A7814 
 215 04bf 4989627F 		.ascii	"I\211b\177\327\340\307)\305w\366\212\205\015\210J]\207"
 215      D7E0C729 
 215      C577F68A 
 215      850D884A 
 215      5D87
 216 04d1 67EF2D5A 		.ascii	"g\357-Z*?\012\327\250\356I\362\255\242ML\263}.bz\010"
 216      2A3F0AD7 
 216      A8EE49F2 
 216      ADA24D4C 
 216      B37D2E62 
 217 04e7 65F72AD9 		.ascii	"e\367*\331=\213\330\2432{@\311f>{\311\3449\231\334\255"
 217      3D8BD8A3 
 217      327B40C9 
 217      663E7BC9 
 217      E43999DC 
 218 04fc 247729C9 		.ascii	"$w)\311\007\266\220\375\024Sv\213\222}{\221#\331\034"
 218      07B690FD 
 218      1453768B 
 218      927D7B91 
 218      23D91C
 219 050f FD2725BD 		.ascii	"\375'%\275U)>&{\362\320\266\333\274\366!N\373\246\222"
 219      55293E26 
 219      7BF2D0B6 
 219      DBBCF621 
 219      4EFBA692 
 220 0523 DE6C4D8F 		.ascii	"\336lM\217\027M\225[\342)\375\031rGO$\2729\206\350\252"
 220      174D955B 
 220      E229FD19 
 220      72474F24 
 220      BA3986E8 
 221 0538 D2951ED9 		.ascii	"\322\225\036\331\225!\245\266V\301\315\345\034\271e"
 221      9521A5B6 
 221      56C1CDE5 
 221      1CB965
 222 0547 DB118E9D 		.ascii	"\333\021\216\235\316\261\357+\331\035J\366\264\354\307"
 222      CEB1EF2B 
 222      D91D4AF6 
 222      B4ECC7
 223 0556 03DB71E7 		.ascii	"\003\333q\347\310\005\234\364\015\333k\312K\236\220"
 223      C8059CF4 
 223      0DDB6BCA 
 223      4B9E90
 224 0565 1C6942DA 		.ascii	"\034iB\332aB\356Jl\363\356\"\305\206\237\356\327\262"
ARM GAS  /tmp/ccFJGd35.s 			page 17


 224      6142EE4A 
 224      6CF3EE22 
 224      C5869FEE 
 224      D7B2
 225 0577 27FD4AED 		.ascii	"'\375J\355;\2626\315\243L\335@\0265\204\244\222\336"
 225      3BB236CD 
 225      A34CDD40 
 225      163584A4 
 225      92DE
 226 0589 2A2A8B50 		.ascii	"**\213P\326\200\177V\242\330\274\206Ju\332\236\001\276"
 226      D6807F56 
 226      A2D8BC86 
 226      4A75DA9E 
 226      01BE
 227 059b E3B772C7 		.ascii	"\343\267r\307?\333^\237\214\235!m\224\"\212S\241\307"
 227      3FDB5E9F 
 227      8C9D216D 
 227      94228A53 
 227      A1C7
 228 05ad C078442B 		.ascii	"\300xD+\011\037\\@o\340\365\362\032y Q\360@\317\341"
 228      091F5C40 
 228      6FE0F5F2 
 228      1A792051 
 228      F040CFE1 
 229 05c1 FA0A300B 		.ascii	"\372\0120\013X\000L\001F\000/\000\363\200I\300\034`"
 229      58004C01 
 229      46002F00 
 229      F38049C0 
 229      1C60
 230 05d3 14300378 		.ascii	"\0240\003x\011\230\000\214\001\246\001\303\200q\344"
 230      0998008C 
 230      01A601C3 
 230      8071E4
 231 05e2 C10D6A52 		.ascii	"\301\015jRv\262\317\366\354\360Cz \263\007m\256.F&i"
 231      76B2CFF6 
 231      ECF0437A 
 231      20B3076D 
 231      AE2E4626 
 232 05f7 764BC731 		.ascii	"vK\3071W\374\204\356qB{\342\251r\204\226z\332\034)J"
 232      57FC84EE 
 232      71427BE2 
 232      A9728496 
 232      7ADA1C29 
 233 060c 143CFFCF 		.ascii	"\024<\377\317\007\313\242{a`9\211n\202\260\024\305\013"
 233      07CBA27B 
 233      61603989 
 233      6E82B014 
 233      C50B
 234 061e 96B48104 		.ascii	"\226\264\201\004\233\372,\356<\330\351\352\222*g\313"
 234      9BFA2CEE 
 234      3CD8E9EA 
 234      922A67CB 
 235 062e 9429EFC5 		.ascii	"\224)\357\305I\202\013M/\340\012\354\353\013S&i\227"
 235      49820B4D 
 235      2FE00AEC 
 235      EB0B5326 
 235      6997
ARM GAS  /tmp/ccFJGd35.s 			page 18


 236 0640 17B877F1 		.ascii	"\027\270w\3612\366.\376i\372\362\254\013\036\247\343"
 236      32F62EFE 
 236      69FAF2AC 
 236      0B1EA7E3 
 237 0650 579F4BE8 		.ascii	"W\237K\350;\342\212<W \220B,c'G\013\025\332#8\241\335"
 237      3BE28A3C 
 237      57209042 
 237      2C632747 
 237      0B15DA23 
 238 0667 02361F4F 		.ascii	"\0026\037OrEx\017\214\376\017)\206{\015\275\322\344"
 238      7245780F 
 238      8CFE0F29 
 238      867B0DBD 
 238      D2E4
 239 0679 7DB448B4 		.ascii	"}\264H\264_\256Bk\351k\000%\303\204\221*\025J\025V\240"
 239      5FAE426B 
 239      E96B0025 
 239      C384912A 
 239      154A1556 
 240 068e 1481BE19 		.ascii	"\024\201\276\031\356O\365M-\221\367zD\265wA\375N\201"
 240      EE4FF54D 
 240      2D91F77A 
 240      44B57741 
 240      FD4E81
 241 06a1 F8BE5790 		.ascii	"\370\276W\220\367zb\220\327\322\233S5\322+\224\274\225"
 241      F77A6290 
 241      D7D29B53 
 241      35D22B94 
 241      BC95
 242 06b3 5E0E4E0D 		.ascii	"^\016N\015\374JJ\360\235 \275\210\322X\177\257SwNI\031"
 242      FC4A4AF0 
 242      9D20BD88 
 242      D2587FAF 
 242      53774E49 
 243 06c8 8D0398C7 		.ascii	"\215\003\230\307\036\037\372\316\205\015\377\337\301"
 243      1E1FFACE 
 243      850DFFDF 
 243      C1
 244 06d5 DC5598F3 		.ascii	"\334U\230\363\322YN\001\2307\351\340\315\367\324\233"
 244      D2594E01 
 244      9837E9E0 
 244      CDF7D49B 
 245 06e5 0CEA0D95 		.ascii	"\014\352\015\225\244\006\264x\363\350\314\023\027\253"
 245      A406B478 
 245      F3E8CC13 
 245      17AB
 246 06f3 C92729A7 		.ascii	"\311')\247\334\177\2464\371\231t\362\237\224\211S\256"
 246      DC7FA634 
 246      F99974F2 
 246      9F948953 
 246      AE
 247 0704 789ABD42 		.ascii	"x\232\275B\257\232\232\317h 54A\002^\365\354\213\324"
 247      AF9A9ACF 
 247      68203534 
 247      41025EF5 
 247      EC8BD4
 248 0717 C4DBF08A 		.ascii	"\304\333\360\212J\020?fYk\226\034\351,\201K\235\263"
ARM GAS  /tmp/ccFJGd35.s 			page 19


 248      4A103F66 
 248      596B961C 
 248      E92C814B 
 248      9DB3
 249 0729 0592248E 		.ascii	"\005\222$\216N\336\316\300\370\204\035\025\252K\252"
 249      4EDECEC0 
 249      F8841D15 
 249      AA4BAA
 250 0738 4D779084 		.ascii	"Mw\220\204f;7\345\300\323\016\376{P\231}\262\314>^&"
 250      663B37E5 
 250      C0D30EFE 
 250      7B50997D 
 250      B2CC3E5E 
 251 074d 87CA344E 		.ascii	"\207\3124Nv\234r\300uLf\341\354\3419\263?\323\367|s"
 251      769C72C0 
 251      754C66E1 
 251      ECE139B3 
 251      3FD3F77C 
 252 0762 D981A081 		.ascii	"\331\201\240\201\035\010\366\313:\373y\235\003T\347"
 252      1D08F6CB 
 252      3AFB799D 
 252      0354E7
 253 0771 E8D4F41E 		.ascii	"\350\324\364\036W\374\003\323\031+\270u\0003\035\323"
 253      57FC03D3 
 253      192BB875 
 253      00331DD3 
 254 0781 EBADEC3C 		.ascii	"\353\255\354<p\204\235\007\016\312*\007y\225\\\252\322"
 254      70849D07 
 254      0ECA2A07 
 254      79955CAA 
 254      D2
 255 0792 F9B8210C 		.ascii	"\371\270!\014w1\221\343\247\012*\340Ad\306\236\206\306"
 255      773191E3 
 255      A70A2AE0 
 255      4164C69E 
 255      86C6
 256 07a4 43F69086 		.ascii	"C\366\220\206\243C\264\321;\222\365\256\216\242\265"
 256      A343B4D1 
 256      3B92F5AE 
 256      8EA2B5
 257 07b3 EF4CCB0F 		.ascii	"\357L\313\017\013$-/\020\244\264\274gd\374\271\2434"
 257      0B242D2F 
 257      10A4B4BC 
 257      6764FCB9 
 257      A334
 258 07c5 D6EE975F 		.ascii	"\326\356\227_\314O\016\211b\246("
 258      CC4F0E89 
 258      62A628
 259 07d0 26A16584 		.ascii	"&\241e\204\211\362\314~\242|AM,\331\325B\352\352\364"
 259      89F2CC7E 
 259      A27C414D 
 259      2CD9D542 
 259      EAEAF4
 260 07e3 C4D5AB1A 		.ascii	"\304\325\253\032\\aO\335\353j\231\034w\262\004\322?"
 260      5C614FDD 
 260      EB6A991C 
 260      77B204D2 
ARM GAS  /tmp/ccFJGd35.s 			page 20


 260      3F
 261 07f4 CF3A9047 		.ascii	"\317:\220G\3441\037\341\205\212\250P\321\375\256J{|"
 261      E4311FE1 
 261      858AA850 
 261      D1FDAE4A 
 261      7B7C
 262 0806 8D099556 		.ascii	"\215\011\225V\036\177$\005\3224\267\305j\346\212e\225"
 262      1E7F2405 
 262      D234B7C5 
 262      6AE68A65 
 262      95
 263 0817 625EA584 		.ascii	"b^\245\204\252d\227\336HQ\343.\246\322=\236v\033Y\226"
 263      AA6497DE 
 263      4851E32E 
 263      A6D23D9E 
 263      761B5996 
 264 082b C37F5A2D 		.ascii	"\303\177Z-\207RY\246\224\2279Jen\016\235jp\305#L\346"
 264      875259A6 
 264      9497394A 
 264      656E0E9D 
 264      6A70C523 
 265 0841 F6911993 		.ascii	"\366\221\031\223Yf:\353\023\353\345P&\353\224\361:\307"
 265      59663AEB 
 265      13EBE550 
 265      26EB94F1 
 265      3AC7
 266 0853 A84EFFE1 		.ascii	"\250N\377\341'YKp\274\003\325II\033\036\265\223\006"
 266      27594B70 
 266      BC03D549 
 266      491B1EB5 
 266      9306
 267 0865 D5FE95D5 		.ascii	"\325\376\225\325\240\312e\225r^\3458U\031\277vl\\\332"
 267      A0CA6595 
 267      725EE538 
 267      5519BF76 
 267      6C5CDA
 268 0878 A9D2C9B9 		.ascii	"\251\322\311\271\340\312\333\341[\3168\215\251\236l"
 268      E0CADBE1 
 268      5BCE388D 
 268      A99E6C
 269 0887 BDD1233D 		.ascii	"\275\321#=\307\311\244\362\350\275\334W\3668\207U\026"
 269      C7C9A4F2 
 269      E8BDDC57 
 269      F6388755 
 269      16
 270 0898 1E684E10 		.ascii	"\036hN\020p\0013\314\307\013w\351xQr\251\177\016\341"
 270      700133CC 
 270      C70B77E9 
 270      785172A9 
 270      7F0EE1
 271 08ab 7256696A 		.ascii	"rVij\332\373\034\341\363\314H~\270\373\236\304\234\246"
 271      DAFB1CE1 
 271      F3CC487E 
 271      B8FB9EC4 
 271      9CA6
 272 08bd 0F44C3D4 		.ascii	"\017D\303\324\375%\270\206U.\374\322U,\245\370\243\364"
 272      FD25B886 
ARM GAS  /tmp/ccFJGd35.s 			page 21


 272      552EFCD2 
 272      552CA5F8 
 272      A3F4
 273 08cf 14583D30 		.ascii	"\024X=0\352\212\257\261\312\214\306\211qg\334\314\214"
 273      EA8AAFB1 
 273      CA8CC689 
 273      7167DCCC 
 273      8C
 274 08e0 9EA2EC52 		.ascii	"\236\242\354R5c>%v\376\334\\\222\032\267\262\312\266"
 274      35633E25 
 274      76FEDC5C 
 274      921AB7B2 
 274      CAB6
 275 08f2 84AC127B 		.ascii	"\204\254\022{\334\311\2147/\312F\355\361Cf4\216\037"
 275      DCC98C37 
 275      2FCA46ED 
 275      F1436634 
 275      8E1F
 276 0904 7AE58287 		.ascii	"z\345\202\207\231\261\263\244}\257\003\236`\306xwZ\223"
 276      99B1B3A4 
 276      7DAF039E 
 276      60C67877 
 276      5A93
 277 0916 0B5E60C6 		.ascii	"\013^`\306\265\346\301{\032\234\242\241F\374\323\212"
 277      B5E6C17B 
 277      1A9CA2A1 
 277      46FCD38A 
 278 0926 DD186731 		.ascii	"\335\030g1\343\325\335\306TG\234\317\214\326\224Lx\336"
 278      E3D5DDC6 
 278      54479CCF 
 278      8CD6944C 
 278      78DE
 279 0938 4B9961DE 		.ascii	"K\231a\336\345\334\331.\267\2207\232\357\202O\261\272"
 279      E5DCD92E 
 279      B790379A 
 279      EF824FB1 
 279      BA
 280 0949 BAE29DE5 		.ascii	"\272\342\235\345\032\\\305\214\244;i=.\270\236\031\247"
 280      1A5CC58C 
 280      A43B693D 
 280      2EB89E19 
 280      A7
 281 095a 9FEE3639 		.ascii	"\237\35669\340\033\022\255u\346$<\341\222\321}A\213"
 281      E01B12AD 
 281      75E6243C 
 281      E192D17D 
 281      418B
 282 096c BBD8FD91 		.ascii	"\273\330\375\221\247\325Ynx\200\031\017{\237\244\272"
 282      A7D5596E 
 282      7880190F 
 282      7B9FA4BA 
 283 097c E26166EC 		.ascii	"\342af\354\252\337w\331\021O0\343Z?\344So\331\375p\252"
 283      AADF77D9 
 283      114F30E3 
 283      5A3FE453 
 283      6FD9FD70 
 284 0991 A94BC0BB 		.ascii	"\251K\300\273\035\251Q^\235\366\320\016\2473c\260*i"
ARM GAS  /tmp/ccFJGd35.s 			page 22


 284      1DA9515E 
 284      9DF6D00E 
 284      A73363B0 
 284      2A69
 285 09a3 528DB399 		.ascii	"R\215\263\231qb\256\340\256#>\310\214\2735\375\217\\"
 285      7162AEE0 
 285      AE233EC8 
 285      8CBB35FD 
 285      8F5C
 286 09b5 F11166DC 		.ascii	"\361\021f\334LH3\237\012\017\220\220\276\310\251l\260"
 286      4C48339F 
 286      0A0F9090 
 286      BEC8A96C 
 286      B0
 287 09c6 97CEC48E 		.ascii	"\227\316\304\216`?\333SP\242\306%\224\354\3614\347\373"
 287      603FDB53 
 287      50A2C625 
 287      94ECF134 
 287      E7FB
 288 09d8 1CFB45E7 		.ascii	"\034\373E\347\003\253\243\302RvSD\177\223\252=\021~"
 288      03ABA3C2 
 288      52765344 
 288      7F93AA3D 
 288      117E
 289 09ea A0F89648 		.ascii	"\240\370\226HO\013p\324@\315\260H\307\005.y]\2244\266"
 289      4F0B70D4 
 289      40CDB048 
 289      C7052E79 
 289      5D9434B6 
 290 09fe 6D95F3C0 		.ascii	"m\225\363\300Z\211m\311/\036)\331\231\034\273E\311\266"
 290      5A896DC9 
 290      2F1E29D9 
 290      991CBB45 
 290      C9B6
 291 0a10 CA31C9BB 		.ascii	"\3121\311\273\277g+\313\032\211'\347\225\236\234\023"
 291      BF672BCB 
 291      1A8927E7 
 291      959E9C13 
 292 0a20 14DA0F38 		.ascii	"\024\332\0178\355J\245v\205\240\320\356\340\264\253"
 292      ED4AA576 
 292      85A0D0EE 
 292      E0B4AB
 293 0a2f 95DA9794 		.ascii	"\225\332\227\224\332\323\241\262\366\217Jm\2552\345"
 293      DAD3A1B2 
 293      F68F4A6D 
 293      AD32E5
 294 0a3e BACF7952 		.ascii	"\272\317yR\245d_Pj\247s\354V%{q>7\306\321\317(\351\247"
 294      A5645F50 
 294      6AA773EC 
 294      56257B71 
 294      3E37C6D1 
 295 0a56 94E2051C 		.ascii	"\224\342\005\034\273I\311^\234x\237\347\350\015J\372"
 295      BB49C95E 
 295      9C789FE7 
 295      E80D4AFA 
 296 0a66 ED450706 		.ascii	"\355E\007\006\216\375\223\222}B\340\305!E0eKt\362\326"
 296      8EFD9392 
ARM GAS  /tmp/ccFJGd35.s 			page 23


 296      7D42E0C5 
 296      21453065 
 296      4B74F2D6 
 297 0a7a BA6D3BF8 		.ascii	"\272m;\370\274/\223\234\372I\333\352^\262x%'~M\311n"
 297      BC2F939C 
 297      FA49DBEA 
 297      5EB27825 
 297      277E4DC9 
 298 0a8f 1494E273 		.ascii	"\024\224\342s\\@\177P\322m\234\3778_n\330\236Fn^*8\366"
 298      5C407F50 
 298      D26D9CFF 
 298      385F6ED8 
 298      9E466E5E 
 299 0aa6 75DBBE70 		.ascii	"u\333\276p\354\2379\366E\333\253\305\352l\304\321O\333"
 299      EC9F39F6 
 299      45DBABC5 
 299      EA6CC4D1 
 299      4FDB
 300 0ab8 8E3F4FAF 		.ascii	"\216?O\257\343\350W\224\364\305g\377\034\216~KI_|B\347"
 300      E3E85794 
 300      F4C567FF 
 300      1C8E7E4B 
 300      495F7C42 
 301 0acd D8376DB3 		.ascii	"\3307m\263\255~X\340&\375\256\355I\347\304/r\342Wm\257"
 301      AD7E58E0 
 301      26FDAEED 
 301      49E7C42F 
 301      72E2576D 
 302 0ae2 45ABA31B 		.ascii	"E\253\243\033'~\307\366c\304\035\032\307\007\375\343"
 302      277EC7F6 
 302      63C41D1A 
 302      C707FDE3 
 303 0af2 E14C4358 		.ascii	"\341LCX\326\247F\262\226~|\354\237IO\215d1\325)\265"
 303      D6A746B2 
 303      967E7CEC 
 303      9F494F8D 
 303      6431D529 
 304 0b07 AEBEEB1C 		.ascii	"\256\276\353\034\330\016\271\362=\032\000\302'G\243"
 304      D80EB9F2 
 304      3D1A00C2 
 304      2747A3
 305 0b16 5790F54F 		.ascii	"W\220\365O\302\261\250\007\360\002\360\0300\012x\000"
 305      C2B1A807 
 305      F002F018 
 305      300A7800 
 306 0b26 B80F1804 		.ascii	"\270\017\030\004\214\220c\023\240\003\360\004\320\017"
 306      8C906313 
 306      A003F004 
 306      D00F
 307 0b34 780A7804 		.ascii	"x\012x\004x\010x\011\230\001\274\006\014\003\246\000"
 307      78087809 
 307      9801BC06 
 307      0C03A600 
 308 0b44 63804EC0 		.ascii	"c\200N\300\004\240\033\320\013\370\005\320\005\370\031"
 308      04A01BD0 
 308      0BF805D0 
 308      05F819
ARM GAS  /tmp/ccFJGd35.s 			page 24


 309 0b53 300DE803 		.ascii	"0\015\350\003<\003\014\001\006\004\376\374X\303Ml\275"
 309      3C030C01 
 309      0604FEFC 
 309      58C34D6C 
 309      BD
 310 0b64 ED25C185 		.ascii	"\355%\301\205\241\235c\327\330\336\340\255\236Z.\014"
 310      A19D63D7 
 310      D8DEE0AD 
 310      9E5A2E0C 
 311 0b74 6D36774A 		.ascii	"m6wJN\373\012\247}\331\366<s\354Q\216}\326\366\006o"
 311      4EFB0AA7 
 311      7DD9F63C 
 311      73EC518E 
 311      7DD6F606 
 312 0b89 D96E20C4 		.ascii	"\331n \304\227\270\035\336\244\334\341\271\237J\340"
 312      97B81DDE 
 312      A4DCE1B9 
 312      9F4AE0
 313 0b98 9D3971F2 		.ascii	"\2359q\362d\2573\356\247\357La\354Ic>\234\374\226\262"
 313      64AF33EE 
 313      A7EF4C61 
 313      EC49633E 
 313      9CFC96B2 
 314 0bac 85F2E631 		.ascii	"\205\362\3461=\177\316A\343Y9c#\313\346\035\321Go \350"
 314      3D7FCE41 
 314      E3593963 
 314      23CBE61D 
 314      D1476F20 
 315 0bc1 FF5F1700 		.ascii	"\377_\027\000\371\201q\276\240Acuh\233\263:1\317K\207"
 315      F98171BE 
 315      A0416375 
 315      689BB33A 
 315      31CF4B87 
 316 0bd5 B6797A68 		.ascii	"\266yzh\233i\373n\247\035\036a\251GcoE\205\006\2173"
 316      9B69FB6E 
 316      A71D1E61 
 316      A947636F 
 316      4585068F 
 317 0bea 637EA8BE 		.ascii	"c~\250\276\337\021\317R\303~4\265\244\015!\226O\260"
 317      DF11CF52 
 317      C37E34B5 
 317      A40D2196 
 317      4FB0
 318 0bfc 6065742E 		.ascii	"`et.\223\243\265\0003\267\013\377\312B\310\356\264\374"
 318      93A3B500 
 318      33B70BFF 
 318      CA42C8EE 
 318      B4FC
 319 0c0e 48F156C9 		.ascii	"H\361V\311]\2641\344\310d\021\333$\263e\300\0028\337"
 319      5DB431E4 
 319      C86411DB 
 319      24B365C0 
 319      0238DF
 320 0c21 417F1E02 		.ascii	"A\177\036\002\226\215\237\207x'\333l:i\3439\227\177"
 320      968D9F87 
 320      7827DB6C 
 320      3A69E339 
ARM GAS  /tmp/ccFJGd35.s 			page 25


 320      977F
 321 0c33 16277412 		.ascii	"\026't\022\346$\354\211\342\261\007\332\011H\000$b\313"
 321      E624EC89 
 321      E2B107DA 
 321      09480024 
 321      62CB
 322 0c45 741F189A 		.ascii	"t\037\030\232\357G8\236\376\233R\310\234=\336\242\261"
 322      EF47389E 
 322      FE9B52C8 
 322      9C3DDEA2 
 322      B1
 323 0c56 2CAD83FB 		.ascii	",\255\203\373\021\361,\005D \2215/-\342\350;:D\311\320"
 323      11F12C05 
 323      44209135 
 323      2F2DE2E8 
 323      3B3A44C9 
 324 0c6b CF6FE833 		.ascii	"\317o\3503\355AW\005\266\012q\012\346C\234\212Y\210"
 324      ED415705 
 324      B60A710A 
 324      E6439C8A 
 324      5988
 325 0c7d E14A0E2C 		.ascii	"\341J\016,i#UnV\354z\253S\374\036\211M\256\232\215\237"
 325      6923556E 
 325      56EC7AAB 
 325      53FC1E89 
 325      4DAE9A8D 
 326 0c92 7CF681CE 		.ascii	"|\366\201\316\313K\345d0l\017\217\212[\353m\2103j\267"
 326      CB4BE564 
 326      306C0F8F 
 326      8A5BEB6D 
 326      88336AB7 
 327 0ca6 45471AB5 		.ascii	"EG\032\265a!Q\341\306\010\255_\344\026cX\2301\314'&"
 327      612151E1 
 327      C608AD5F 
 327      E4166358 
 327      9831CC27 
 328 0cbb 52FB5568 		.ascii	"R\373Uh\350\252\220\230\310UQ\321Q\306U\306\220-\341"
 328      E8AA9098 
 328      C85551D1 
 328      51C655C6 
 328      902DE1
 329 0cce ABFE6458 		.ascii	"\253\376dX\267\312{\215\327G\177_\253\265\252\320\206"
 329      B7CA7B8D 
 329      D7477F5F 
 329      ABB5AAD0 
 329      86
 330 0cdf 4785466C 		.ascii	"G\205Fl\0173j#CB\267\205G\031\265\2060\343\326\220\355"
 330      0F336A23 
 330      4342B785 
 330      4719B586 
 330      30E3D690 
 331 0cf4 117186B8 		.ascii	"\021q\206\270o\2776\306\256\336\246\322\230\273\373"
 331      6FBF36C6 
 331      AEDEA6D2 
 331      98BBFB
 332 0d03 F27FB3BB 		.ascii	"\362\177\263\273\330oc\265\206\330\2700\320&}|n\014"
 332      D86F63B5 
ARM GAS  /tmp/ccFJGd35.s 			page 26


 332      86D8B830 
 332      D0267D7C 
 332      6E0C
 333 0d15 8D8B8E59 		.ascii	"\215\213\216Y\277f\355\352\325Z\366\027\035\253\335"
 333      BF66EDEA 
 333      D55AF617 
 333      1DABDD
 334 0d24 1612A1FD 		.ascii	"\026\022\241\375::&.V\033\024\034\270\326[\273i\223"
 334      3A3A262E 
 334      561B141C 
 334      B8D65BBB 
 334      6993
 335 0d36 AF363820 		.ascii	"\25768 \360\033/R\003\215\015\021\021a\253CU\316\354"
 335      F01B2F52 
 335      038D0D11 
 335      1161AB43 
 335      55CEEC
 336 0d49 CE101E15 		.ascii	"\316\020\036\025\036\347n \015\014\3411\1777\030\277"
 336      1EE76E20 
 336      0D0CE131 
 336      7F3718BF 
 337 0d59 0E8F88FE 		.ascii	"\016\217\210\376j\273q\025/\031\032\035\031\031\035"
 337      6ABB7115 
 337      2F191A1D 
 337      19191D
 338 0d68 25A9FAE8 		.ascii	"%\251\372\350\003u\201;\264\241\333B\243c\214\206o\376"
 338      0375813B 
 338      B4A1DB42 
 338      A3638C86 
 338      6FFE
 339 0d7a 1C099EB8 		.ascii	"\034\011\236\270\207n\013\372668<\322\030\343\037\022"
 339      876E0BFA 
 339      3636383C 
 339      D218E31F 
 339      12
 340 0d8b 1516618C 		.ascii	"\025\026a\214\011\370=/\020\023g\031B\3506\030\0044"
 340      09F83D2F 
 340      10136719 
 340      42E83618 
 340      0434
 341 0d9d 792FEA9B 		.ascii	"y/\352\233\360P\277\250\220-\021F6\214?\332\036\204"
 341      F050BFA8 
 341      902D1146 
 341      368C3FDA 
 341      1E84
 342 0daf D4B7D42B 		.ascii	"\324\267\324+i\004\215\355t\272@\375Z\341S\275\3327"
 342      69048DED 
 342      74BA40FD 
 342      5AE153BD 
 342      DA37
 343 0dc1 D0478F7D 		.ascii	"\320G\217}uz\365z\337`=\326\351\364X\017\360\321\353"
 343      757AF57A 
 343      DF603DD6 
 343      E9F4580F 
 343      F0D1EB
 344 0dd4 F1E6201D 		.ascii	"\361\346 \035\326}\022\254\326\351\374\364\224\357M"
 344      D67D12AC 
ARM GAS  /tmp/ccFJGd35.s 			page 27


 344      D6E9FCF4 
 344      94EF4D
 345 0de3 BFBDB0DF 		.ascii	"\277\275\260\337F\275\020\004-\003\374\364\352\240@"
 345      46BD1004 
 345      2D03FCF4 
 345      EAA040
 346 0df2 60EBF4DE 		.ascii	"`\353\364\336\000/`~\241\367\376mS\031\033\027I\202"
 346      002F607E 
 346      A1F7FE6D 
 346      53191B17 
 346      4982
 347 0e04 1B4E06EF 		.ascii	"\033N\006\357l1\014q\352\320m!1\356\321\261!\0210\037"
 347      6C310C71 
 347      EAD06D21 
 347      31EED1B1 
 347      2111301F 
 348 0e18 9BA243FF 		.ascii	"\233\242C\377\266!&:2 H\377{\245,\241\220i!W2\033t\002"
 348      B621263A 
 348      322048FF 
 348      7BA52CA1 
 348      90692157 
 349 0e30 B906EE34 		.ascii	"\271\006\3564\"\021P`\330\012%\206\360\330\030GK\321"
 349      22115060 
 349      D80A2586 
 349      F0D81847 
 349      4BD1
 350 0e42 128321D6 		.ascii	"\022\203!\326\030gX\357\023\344\267Y\037\260$$\342\277"
 350      186758EF 
 350      13E4B759 
 350      1FB02424 
 350      E2BF
 351 0e54 42BE8D85 		.ascii	"B\276\215\205HF\300R\374\017\033\2013\356\210#\023\250"
 351      4846C052 
 351      FC0F1B81 
 351      33EE8823 
 351      13A8
 352 0e66 D5050605 		.ascii	"\325\005\006\005\004iu\0207m\2009\034\221\261\341\261"
 352      04697510 
 352      376D8039 
 352      1C91B1E1 
 352      B1
 353 0e77 06588AE0 		.ascii	"\006X\212\340\304R\342\314\247\326a\\&\215\345\263\250"
 353      C452E2CC 
 353      A7D6615C 
 353      268DE5B3 
 353      A8
 354 0e88 08CE39EA 		.ascii	"\010\3169\352\255U\3212\352\334\366(+\217\235\271B\215"
 354      AD55D132 
 354      EADCF628 
 354      2B8F9DB9 
 354      428D
 355 0e9a EE2F1B7D 		.ascii	"\356/\033}\202\375>\321;\370\352\376\242\333\260Q\357"
 355      82FD3ED1 
 355      3BF8EAFE 
 355      A2DBB051 
 355      EF
 356 0eab B479D3A6 		.ascii	"\264y\323\246 \237\000\363m\200w\020\271\265\013\012"
ARM GAS  /tmp/ccFJGd35.s 			page 28


 356      209F00F3 
 356      6D807710 
 356      B9B50B0A 
 357 0ebb D26DD43B 		.ascii	"\322m\324;\352\375\202\374\364\237\373\371~\204uA$\266"
 357      EAFD82FC 
 357      F49FFBF9 
 357      7E847541 
 357      24B6
 358 0ecd 3AB9E84F 		.ascii	":\271\350O\216>\233\327{o\332\014R\344\316\213\335\231"
 358      8E3E9BD7 
 358      7B6FDA0C 
 358      52E4CE8B 
 358      DD99
 359 0edf 6BD739FA 		.ascii	"k\3279\372\370\257_+\325\372[x\376J\336Z\007\242B\334"
 359      F8AF5F2B 
 359      D5FA5B78 
 359      FE4ADE5A 
 359      07A242DC 
 360 0ef3 211A7C8D 		.ascii	"!\032|\215\267\003Q\2405\376\022\303\337\232\341\245"
 360      B70351A0 
 360      35FE12C3 
 360      DF9AE1A5 
 361 0f03 216DF541 		.ascii	"!m\365A\301zr\343En,uk4\2445\253\3637\223\374\031\011"
 361      C17A72E3 
 361      456E2C75 
 361      6B34A435 
 361      ABF33793 
 362 0f1a EB02F46A 		.ascii	"\353\002\364j2H\007\030/\271\012:\275F\232\015o\357"
 362      32480718 
 362      2FB90A3A 
 362      BD469A0D 
 362      6FEF
 363 0f2c 77C42D28 		.ascii	"w\304-(\230-\276\015\353v\354`\313n\353\272u\037\355"
 363      982DBE0D 
 363      EB76EC60 
 363      CB6EEBBA 
 363      751FED
 364 0f3f D841169E 		.ascii	"\330A\026\236^\2473\004\303\206\343k\334jO<\331\360"
 364      5EA73304 
 364      C386E36B 
 364      DC6A4F3C 
 364      D9F0
 365 0f51 A57D80AF 		.ascii	"\245}\200\257\356S_?byo\370\322\325w\375\306@\335gf"
 365      EE535F3F 
 365      62796FF8 
 365      D2D577FD 
 365      C640DD67 
 366 0f66 CE3F011A 		.ascii	"\316?\001\032\223Nw"
 366      934E77
 367              		.text
 368              		.section	.gnu.lto_.symtab.51d37d9f9cdeab89,"",%progbits
 369 0000 56656374 		.ascii	"VectorB0\000"
 369      6F724230 
 369      00
 370 0009 00       		.ascii	"\000"
 371 000a 00       		.ascii	"\000"
 372 000b 00       		.ascii	"\000"
ARM GAS  /tmp/ccFJGd35.s 			page 29


 373 000c 00000000 		.ascii	"\000\000\000\000\000\000\000\000"
 373      00000000 
 374 0014 B5000000 		.ascii	"\265\000\000\000"
 375 0018 73745F6C 		.ascii	"st_lld_init\000"
 375      6C645F69 
 375      6E697400 
 376 0024 00       		.ascii	"\000"
 377 0025 00       		.ascii	"\000"
 378 0026 00       		.ascii	"\000"
 379 0027 00000000 		.ascii	"\000\000\000\000\000\000\000\000"
 379      00000000 
 380 002f B7000000 		.ascii	"\267\000\000\000"
 381 0033 5F706F72 		.ascii	"_port_irq_epilogue\000"
 381      745F6972 
 381      715F6570 
 381      696C6F67 
 381      756500
 382 0046 00       		.ascii	"\000"
 383 0047 02       		.ascii	"\002"
 384 0048 00       		.ascii	"\000"
 385 0049 00000000 		.ascii	"\000\000\000\000\000\000\000\000"
 385      00000000 
 386 0051 B9000000 		.ascii	"\271\000\000\000"
 387 0055 63685379 		.ascii	"chSysTimerHandlerI\000"
 387      7354696D 
 387      65724861 
 387      6E646C65 
 387      724900
 388 0068 00       		.ascii	"\000"
 389 0069 02       		.ascii	"\002"
 390 006a 00       		.ascii	"\000"
 391 006b 00000000 		.ascii	"\000\000\000\000\000\000\000\000"
 391      00000000 
 392 0073 BB000000 		.ascii	"\273\000\000\000"
 393 0077 6E766963 		.ascii	"nvicEnableVector\000"
 393      456E6162 
 393      6C655665 
 393      63746F72 
 393      00
 394 0088 00       		.ascii	"\000"
 395 0089 02       		.ascii	"\002"
 396 008a 00       		.ascii	"\000"
 397 008b 00000000 		.ascii	"\000\000\000\000\000\000\000\000"
 397      00000000 
 398 0093 C0000000 		.ascii	"\300\000\000\000"
 399              		.text
 400              		.section	.gnu.lto_.opts,"",%progbits
 401 0000 272D666D 		.ascii	"'-fmath-errno' '-fsigned-zeros' '-ftrapping-math' '"
 401      6174682D 
 401      6572726E 
 401      6F272027 
 401      2D667369 
 402 0033 2D666E6F 		.ascii	"-fno-trapv' '-fno-openmp' '-fno-openacc' '-mcpu=cor"
 402      2D747261 
 402      70762720 
 402      272D666E 
 402      6F2D6F70 
ARM GAS  /tmp/ccFJGd35.s 			page 30


 403 0066 7465782D 		.ascii	"tex-m4' '-mthumb' '-ggdb' '-O2' '-fomit-frame-point"
 403      6D342720 
 403      272D6D74 
 403      68756D62 
 403      2720272D 
 404 0099 65722720 		.ascii	"er' '-falign-functions=16' '-ffunction-sections' '-"
 404      272D6661 
 404      6C69676E 
 404      2D66756E 
 404      6374696F 
 405 00cc 66646174 		.ascii	"fdata-sections' '-fno-common' '-flto'\000"
 405      612D7365 
 405      6374696F 
 405      6E732720 
 405      272D666E 
 406              		.text
 407              		.comm	__gnu_lto_v1,1,1
 408              		.comm	__gnu_lto_slim,1,1
 409              		.ident	"GCC: (GNU Tools for ARM Embedded Processors) 5.4.1 20160919 (release) [ARM/embedded-5-bran
ARM GAS  /tmp/ccFJGd35.s 			page 31


DEFINED SYMBOLS
                            *ABS*:00000000 hal_st_lld.c
                            *COM*:00000001 __gnu_lto_v1
                            *COM*:00000001 __gnu_lto_slim

NO UNDEFINED SYMBOLS
