ARM GAS  /tmp/ccHACQMa.s 			page 1


   1              		.syntax unified
   2              		.cpu cortex-m4
   3              		.fpu softvfp
   4              		.eabi_attribute 20, 1
   5              		.eabi_attribute 21, 1
   6              		.eabi_attribute 23, 3
   7              		.eabi_attribute 24, 1
   8              		.eabi_attribute 25, 1
   9              		.eabi_attribute 26, 1
  10              		.eabi_attribute 30, 2
  11              		.eabi_attribute 34, 1
  12              		.eabi_attribute 18, 4
  13              		.thumb
  14              		.syntax unified
  15              		.file	"hal_serial_lld.c"
  16              		.text
  17              	.Ltext0:
  18              		.section	.gnu.lto_.profile.b926381b8180d65a,"",%progbits
  19 0000 789C6361 		.ascii	"x\234ca`d`c`\000\222\027\231v0\002\000\005O\001\231"
  19      60646063 
  19      60009217 
  19      99763002 
  19      00054F01 
  20              		.text
  21              		.section	.gnu.lto_.icf.b926381b8180d65a,"",%progbits
  22 0000 789C6361 		.ascii	"x\234ca`d\000\001'\006\004\340f\370\263\364\327#v\306"
  22      60640001 
  22      270604E0 
  22      66F8B3F4 
  22      D72376C6 
  23 0014 868BE7D7 		.ascii	"\206\213\347\327p2\375<\377\274\213\233\371\361\225"
  23      7032FD3C 
  23      FFBC8B9B 
  23      F9F195
  24 0023 BDE79858 		.ascii	"\275\347\230X\356M\352\370\304\317z\366h\263\035[\307"
  24      EE4DEAF8 
  24      C4CF7AF6 
  24      68B31D5B 
  24      C7
  25 0034 D9DB8B59 		.ascii	"\331\333\213Y\331\373\027\334>\317\307\261\374\367\355"
  25      D9FB17DC 
  25      3ECFC7B1 
  25      FCF7ED
  26 0043 533C9C07 		.ascii	"S<\234\007zZ\3338\271n\036\272\247\313\000\000o> \317"
  26      7A5ADB38 
  26      B96E1EBA 
  26      A7CB0000 
  26      6F3E20CF 
  27              		.text
  28              		.section	.gnu.lto_.jmpfuncs.b926381b8180d65a,"",%progbits
  29 0000 789C7590 		.ascii	"x\234u\220;\012\002A\014\206\363\317\214\356\372(\266"
  29      3B0A0241 
  29      0C86F3CF 
  29      8CEEFA28 
  29      B6
  30 0011 160B0FE1 		.ascii	"\026\013\017\341\225<\204\325\016\310\202^@A\260\366"
  30      953C84D5 
ARM GAS  /tmp/ccHACQMa.s 			page 2


  30      0EC8825E 
  30      4041B0F6 
  31 0021 B1BA6229 		.ascii	"\261\272b)v\332\211 \330\211\255\215\240`ac\261\350"
  31      76DA8920 
  31      D889AD8D 
  31      A0606163 
  31      B1E8
  32 0033 64674041 		.ascii	"dg@AL3I\276\374I&\212@l\015\373dV \001\3100\004LRX_"
  32      4C3349BE 
  32      FC49268A 
  32      406C0DFB 
  32      64562001 
  33 004e C99AAB94 		.ascii	"\311\232\253\224&\235\205\306\220\012\034\356\273A\351"
  33      269D85C6 
  33      900A1CEE 
  33      BB41E9
  34 005d 21224908 		.ascii	"!\"I\0100D\225\350\013\366W\217m\316B\037#\206Bj\311"
  34      304495E8 
  34      0BF6578F 
  34      6DCE421F 
  34      2386426A 
  35 0072 5489A61B 		.ascii	"T\211\246\033\367\345}\204\275\333\263buZa\234u5Z&\227"
  35      F7E57D84 
  35      BDDBB362 
  35      755A619C 
  35      75355A26 
  36 0087 739CF88C 		.ascii	"s\234\370\214\200:&Lr\344\320ry=ya\252\333Z\007\221"
  36      803A264C 
  36      72E4D072 
  36      793D7961 
  36      AADB5A07 
  37 009c 141D1E84 		.ascii	"\024\035\036\204\030!A\221G\224\377[3\2655\314\273\321"
  37      18214191 
  37      4794FF5B 
  37      33B535CC 
  37      BBD1
  38 00ae 7AEF717B 		.ascii	"z\357q{\011\302\314\264\207O\277:\365\022\254K\214\216"
  38      09C2CCB4 
  38      874FBF3A 
  38      F512AC4B 
  38      8C8E
  39 00c0 7C77A1CF 		.ascii	"|w\241\3177`\367bYks\\\270m\313\230s\266\310\367#z\003"
  39      3760F762 
  39      596B735C 
  39      B86DCB98 
  39      73B6C8F7 
  40 00d7 BEC64D2F 		.ascii	"\276\306M/"
  41              		.text
  42              		.section	.gnu.lto_.inline.b926381b8180d65a,"",%progbits
  43 0000 789C6D92 		.ascii	"x\234m\222?h\024A\024\306\2777;\267;w\331KN99\015\207"
  43      3F681441 
  43      14C6BF37 
  43      3BB73B77 
  43      D94B4E39 
  44 0017 39444CE5 		.ascii	"9DL\345\255\177*\255V\260\214)L\254E4\250\311I$\027"
  44      AD7F2AAD 
  44      56B08C29 
ARM GAS  /tmp/ccHACQMa.s 			page 3


  44      4CAC4534 
  44      A8C94924 
  45 002c D26604CF 		.ascii	"\322f\004\317K\300\"`\274\326\353L\364D-\004OD\304*"
  45      4BC02260 
  45      BCD6EB4C 
  45      F4442D04 
  45      4F44C42A 
  46 0040 85A2C434 		.ascii	"\205\242\3044\242\205`\223\"\202\2056B\300y\263\177"
  46      A2856093 
  46      22828536 
  46      42C079B3 
  46      7F
  47 0051 92039765 		.ascii	"\222\003\227e\2767\363\336\354\374\336|+A\340\347\220"
  47      BE37F3DE 
  47      ECFCDE7C 
  47      2B41E0E7 
  47      90
  48 0062 039C46F4 		.ascii	"\003\234F\364d\201\303G(\213\312\344\266\240?\313_>"
  48      6481C347 
  48      288BCAE4 
  48      B6A03FCB 
  48      5F3E
  49 0074 D36FD170 		.ascii	"\323o\321p2\244\333\267\265\244\207Tv\332\036*Si\304"
  49      32A4DBB7 
  49      B5A48754 
  49      76DA1E2A 
  49      5369C4
  50 0087 65F7167F 		.ascii	"e\367\026\177\336\312\306e+\\\266\222\226%\021\301\010"
  50      DECAC665 
  50      2B5CB692 
  50      962511C1 
  50      08
  51 0098 B1800A66 		.ascii	"\261\200\012f\254\330\361\230\035\303\201\375\315;\004"
  51      ACD8F198 
  51      1DC381FD 
  51      CD3B04
  52 00a7 D51C16A0 		.ascii	"\325\034\026\240M/\024\310,\014\207\220k\203\241\002"
  52      4D2F14C8 
  52      2C0C8790 
  52      6B83A102 
  53 00b7 AD673455 		.ascii	"\255g4U\224\200\363j\216\003\320}\241\251h\346\335\243"
  53      9480F36A 
  53      8E03D07D 
  53      A1A968E6 
  53      DDA3
  54 00c9 46798316 		.ascii	"Fy\203\026\002\371\265\011mwkiR/KZ\332\211\212&\212"
  54      02F9B509 
  54      6D776B69 
  54      522F4B5A 
  54      DA898A26 
  55 00de 3B23B819 		.ascii	";#\270\031\202p\177U\341\266\207\004/\011\354+\223`"
  55      82707F55 
  55      E1B68704 
  55      2F09EC2B 
  55      9360
  56 00f0 0830A281 		.ascii	"\0100\242\201C\224;\270\261A\222+\034\337T-\215.\215"
  56      43943BB8 
ARM GAS  /tmp/ccHACQMa.s 			page 4


  56      B141922B 
  56      1CDF542D 
  56      8D2E8D
  57 0103 3AF8802D 		.ascii	":\370\200-\"\021\267b\313\345d\253\263\027\2717\263"
  57      2211B762 
  57      CBE564AB 
  57      B317B937 
  57      B3
  58 0114 F664198D 		.ascii	"\366d\031\215\273v\365(\231o\370\346\374\365\301\236"
  58      BB76F528 
  58      996FF8E6 
  58      FCF5C19E 
  59 0124 202A90F0 		.ascii	" *\220\360\213f\251\377\331\215\035\266>F\316\300-\231"
  59      8B66A9FF 
  59      D98D1DB6 
  59      3E46CEC0 
  59      2D99
  60 0136 44C2C56D 		.ascii	"D\302\305m\344\322\244\007e\320\205\3704\220fe>\352"
  60      E4D2A407 
  60      65D085F8 
  60      34906665 
  60      3EEA
  61 0148 42A154A4 		.ascii	"B\241T\244,Y{Z\215w\037=\266\307%\320*\225A\306\030"
  61      2C597B5A 
  61      8D771F3D 
  61      B6C725D0 
  61      2A9541C6 
  62 015d 56284EBF 		.ascii	"V(N\277h\276\177\236\343\264GD\217\214_!\324T\034\330"
  62      68BE7F9E 
  62      E3B44744 
  62      8F8C5F21 
  62      D4541CD8 
  63 0171 FDDDEED6 		.ascii	"\375\335\356\326Wo~[/h\375\375\307S\377@\303\021\213"
  63      576F7E5B 
  63      2F68FDFD 
  63      C753FF40 
  63      C3118B
  64 0184 7C063DA6 		.ascii	"|\006=\246y\260\311\254\354\255\371 \333i\357\306K\220"
  64      79B0C9AC 
  64      ECADF920 
  64      DB69EFC6 
  64      4B90
  65 0196 657B68C7 		.ascii	"e{h\307\031c\254qFn\366iU@\377\262\014\013\275\227\354"
  65      1963AC71 
  65      466EF669 
  65      5540FFB2 
  65      0C0BBD97 
  66 01ab C3AC9846 		.ascii	"\303\254\230Fr\310+\362\"\276\327\017\356\256\306|\202"
  66      72C82BF2 
  66      22BED70F 
  66      EEAEC67C 
  66      82
  67 01bc 3A095FE7 		.ascii	":\011_\347\277|o[WS\272'1\235\325\024,\361N%|\273\376"
  67      BF7C6F5B 
  67      5753BA27 
  67      319DD514 
  67      2CF14E25 
ARM GAS  /tmp/ccHACQMa.s 			page 5


  68 01d3 38FA6B7E 		.ascii	"8\372k~-\266\321*\334o{\"V!\343\213/pp\252Z\015\242"
  68      2DB6D12A 
  68      DC6F7B22 
  68      5621E38B 
  68      2F7070AA 
  69 01ea 77BA1E5C 		.ascii	"w\272\036\\\273T\013nN\317\314\326\203\261\361s'O\004"
  69      BB540B6E 
  69      4ECFCCD6 
  69      83B1F173 
  69      274F04
  70 01fd 23236783 		.ascii	"##g\203\013cg\316\217\317\035\347\334\305\372\304\314"
  70      0B6367CE 
  70      8FCF1DE7 
  70      DCC5FAC4 
  70      CC
  71 020e 7523B5DA 		.ascii	"u#\265\332\225\352e\374\003\320^\243\313"
  71      95EA65FC 
  71      03D05EA3 
  71      CB
  72              		.text
  73              		.section	.gnu.lto_.pureconst.b926381b8180d65a,"",%progbits
  74 0000 789C6361 		.ascii	"x\234ca`d\020a``\340d\220b\224b\222`\336\305\310\"\305"
  74      60641061 
  74      6060E064 
  74      90629462 
  74      9260DEC5 
  75 0017 2AC12EC1 		.ascii	"*\301.\301!\305%\005\000\0247\001\320"
  75      21C52505 
  75      00143701 
  75      D0
  76              		.text
  77              		.section	.gnu.lto_usart_init.b926381b8180d65a,"",%progbits
  78 0000 789C9D55 		.ascii	"x\234\235UilTU\024\276\347\335\267\316L;\323\300\004"
  78      696C5455 
  78      14BEE7DD 
  78      B7CE4C3B 
  78      D3C004
  79 0013 B04D6852 		.ascii	"\260MhR\011b\"\023P\023I\220hb4\232\372\303\002\277"
  79      09622213 
  79      50134990 
  79      6862349A 
  79      FAC302BF 
  80 0027 89A12044 		.ascii	"\211\241 D\"\204\252\177y\235\255\250\304\005\013\221"
  80      2284AA7F 
  80      799DADA8 
  80      C4050B91 
  81 0037 B512252D 		.ascii	"\265\022%-\024hG+\320\262t\030\272P\226\"\202 X\331"
  81      1468472B 
  81      D0B27418 
  81      BA509622 
  81      822058D9 
  82 004b 6A8A6214 		.ascii	"j\212b\024\246\264i#\323\216\347\334\373\206.\242i\231"
  82      A6B46923 
  82      D38EE7DC 
  82      FB862EA2 
  82      6999
  83 005d B4F7DD77 		.ascii	"\264\367\335w\3579\337\371\276\357.Oe\300\350w\305b"
ARM GAS  /tmp/ccHACQMa.s 			page 6


  83      EF39DFF9 
  83      BEEF2E4F 
  83      65C0E877 
  83      C562
  84 006f AC109F1F 		.ascii	"\254\020\237\037\341?x\030(\237\2663Vj*\212\332\341"
  84      E13F7818 
  84      289FB633 
  84      566A2A8A 
  84      DAE1
  85 0081 66B68BD7 		.ascii	"f\266\213\327%\030\263=\334y\325\344\253\012\272\014"
  85      2518B33D 
  85      DC79D5E4 
  85      AB0ABA0C 
  86 0091 D3321D5D 		.ascii	"\3232\035]1\326\3711\300\014\317\301y\003L9l*V\253\027"
  86      31D6F931 
  86      C00CCFC1 
  86      79034C39 
  86      6C2A56AB 
  87 00a6 875D6DF3 		.ascii	"\207]m\363p\330\002\267\034ve:n\000\352\330&\2605\012"
  87      70D802B7 
  87      1C76653A 
  87      6E00EAD8 
  87      26B0350A 
  88 00ba 5735DD30 		.ascii	"W5\3350-\227\033\326@\2572\240@\242\254\253^\231Qi\343"
  88      2D971BD6 
  88      40AF32A0 
  88      40A2ACAB 
  88      5E995169 
  89 00cf EFFACE7B 		.ascii	"\357\372\316{\313J\355\310\344\010g,\255\010\346\014"
  89      CB4AEDC8 
  89      E408672C 
  89      AD08E60C 
  90 00df 2A610646 		.ascii	"*a\006F\235\013\327n\345=J\204\003\250\370\232<\263"
  90      9D0BD76E 
  90      E53D4A84 
  90      03A8F89A 
  90      3CB3
  91 00f1 B9339B5E 		.ascii	"\2713\233^\025\310\307\327\316\232c\327\\|.0\354\247"
  91      15C8C7D7 
  91      CE9A63D7 
  91      5C7C2E30 
  91      ECA7
  92 0103 4E351D35 		.ascii	"N5\0355\247\357\264\355\240mo[b[\021\316a7p\304\203"
  92      A7EFB4ED 
  92      A06D6F5B 
  92      625B11CE 
  92      613770C4 
  93 0118 5D900755 		.ascii	"]\220\007U\220\307p\210A5L\307\350\337\007kn\251\374"
  93      90C77088 
  93      41354CC7 
  93      E8DF076B 
  93      6EA9FC
  94 012b 0591B9EB 		.ascii	"\005\221\271\353\352\2267\234\304\264HTa\317\350D\225"
  94      EA96379C 
  94      C4B44854 
  94      61CFE844 
  94      95
ARM GAS  /tmp/ccHACQMa.s 			page 7


  95 013c C15E984E 		.ascii	"\301^\230N\321U\267\257\2458\177Ed\336\337\276\3653"
  95      D155B7AF 
  95      A5387F45 
  95      64DEDFBE 
  95      F533
  96 014e EFB4AF28 		.ascii	"\357\264\257(5^Q\346\337d\307\303\371\021\256\301\276"
  96      355E51E6 
  96      DF64C7C3 
  96      F911AEC1 
  96      BE
  97 015f 91E9F4C3 		.ascii	"\221\351\364\303\350\336\272MM^\376\252\310\374m\177"
  97      E8DEBA4D 
  97      4D5EFEAA 
  97      C8FC6D7F 
  98 016f 5B277732 		.ascii	"['w2\267\225e;\231:\324>4\363flpC\226\036&\257\362!"
  98      B795653B 
  98      993AD43E 
  98      34F3666C 
  98      7043961E 
  99 0187 06D3A006 		.ascii	"\006\323\240\006\246I\247\340\033\320q\255\225\314h"
  99      A649A7E0 
  99      1BD071AD 
  99      95CC68
 100 0196 4D51DC4E 		.ascii	"MQ\334N\247Cv|\213\361I\350~9<\016\214\246\024\321j"
 100      A743767C 
 100      8BF149E8 
 100      7E393C0E 
 100      8CA614D1 
 101 01ab 40EA7546 		.ascii	"@\352uF\201\006\220 \023\245\031\226\230tQ\327-\272"
 101      81069020 
 101      13A51996 
 101      987451D7 
 101      2DBA
 102 01bd 1EEC9A59 		.ascii	"\036\354\232Y\330X\3314\350\245\306GM\216\230\236@\323"
 102      D858D934 
 102      E8A5C647 
 102      4D8E989E 
 102      40D3
 103 01cf 13A9F1D3 		.ascii	"\023\251\361\323\340$\352M\246f\012\275\346R\217,3\246"
 103      E024EA4D 
 103      A6660ABD 
 103      E6528F2C 
 103      33A6
 104 01e1 52934F4D 		.ascii	"R\223OM\001\2151v\027\031\323\216H*\012=y\027\004\033"
 104      018D3176 
 104      1719D38E 
 104      482A0A3D 
 104      7917041B 
 105 01f5 92B77668 		.ascii	"\222\267vh$\"\304u\024\2721\2228k\320\372r\341R_\353"
 105      2422C475 
 105      14BA3192 
 105      386BD0FA 
 105      72E1525F 
 106 020a C9B59E0A 		.ascii	"\311\265\236\012\330VJ\312K\020\304\025Bw\277%cpv\347"
 106      D8564ACA 
 106      4B10C415 
 106      4277BF25 
ARM GAS  /tmp/ccHACQMa.s 			page 8


 106      637076E7 
 107 021e AFC17D46 		.ascii	"\257\301}F\340)2\274\016*`P\354\034\370\016\002\354"
 107      E02932BC 
 107      0E2A6050 
 107      EC1CF80E 
 107      02EC
 108 0230 2604ED85 		.ascii	"&\004\355\205\302\032T\212\310\354\006\204\257\204\356"
 108      C21A548A 
 108      C8EC0684 
 108      AF84EE
 109 023f 7CAC0F55 		.ascii	"|\254\017U\352-\277|\036\250\222\006\366\227a[\205\375"
 109      EA2DBF7C 
 109      1EA89206 
 109      F697615B 
 109      85FD
 110 0251 8EDD4985 		.ascii	"\216\335I\2053<\010\\\244\374\015C\031\237\177\360g"
 110      333C085C 
 110      A4FC0D43 
 110      199F7FF0 
 110      67
 111 0262 A9E56454 		.ascii	"\251\345dTQ\306\201\007\031*\273\344\227j\356$\015\231"
 111      51C68107 
 111      192ABBE4 
 111      976AEE24 
 111      0D99
 112 0274 E11AAE46 		.ascii	"\341\032\256F\035\241\006\"\334\035\342\006\034ttl\377"
 112      1DA10622 
 112      DC1DE206 
 112      1C74746C 
 112      FF
 113 0285 E2E0BDEC 		.ascii	"\342\340\275\354\300^\333\027\341\036\250\027J\350\370"
 113      C05EDB17 
 113      E11EA817 
 113      4AE8F8
 114 0294 42032AE9 		.ascii	"B\003*\351\202Pm\364\264\303\302\215\301\273;*+\263"
 114      82506DF4 
 114      B4C3C28D 
 114      C1BB3B2A 
 114      2BB3
 115 02a6 08D3007B 		.ascii	"\010\323\000{C\357\223p\010\362\260\030*V\204\336\030"
 115      43EF9370 
 115      08F2B018 
 115      2A5684DE 
 115      18
 116 02b7 E9750B52 		.ascii	"\351u\013R\032\253\177N\222\352\311\2202\307\312\342"
 116      1AAB7F4E 
 116      92EAC990 
 116      32C7CAE2 
 117 02c7 F0108B23 		.ascii	"\360\020\213#\243YX\030\334\035\354\333\342\221,\342"
 117      A3595818 
 117      DC1DECDB 
 117      E2912CE2 
 118 02d7 271BFC70 		.ascii	"'\033\374p\224X\230#YX\202\205.V\032\027\304\307\344"
 118      94589823 
 118      59588285 
 118      2E561A17 
 118      C4C7E4
ARM GAS  /tmp/ccHACQMa.s 			page 9


 119 02ea 3030C1A9 		.ascii	"00\301\251\357\034\227p\236\261q\312\202F\301Il\372"
 119      EF1C9770 
 119      9EB171CA 
 119      8246C149 
 119      6CFA
 120 02fc B8E014EC 		.ascii	"\270\340\024\354.\233+1\262\020\206\326\270=\364\230"
 120      2E9B2B31 
 120      B21086D6 
 120      B83DF498 
 121 030c 3330DC7D 		.ascii	"30\334}\013\317\3001\271V\335\000h\217\232:T\214\374"
 121      0BCFC031 
 121      B956DD00 
 121      688F9A3A 
 121      548CFC
 122 031f B4F2E791 		.ascii	"\264\362\347\221\240\301\326\321\332\205R\321\226\212"
 122      A0C1D6D1 
 122      DA8552D1 
 122      968A
 123 032d 22999D8D 		.ascii	"\"\231\235\215,\021\340B\370\353\253\226\024\331\237"
 123      2C11E042 
 123      F8EBAB96 
 123      14D99F
 124 033c 4EA7BD90 		.ascii	"N\247\275\220@\020\214\334\034M)2\320\213\261\030\330"
 124      40108CDC 
 124      1C4D2932 
 124      D08BB118 
 124      D8
 125 034d 9CEE8B7B 		.ascii	"\234\356\213{e\240\002\307eP*\332\241\312 \237D\353"
 125      65A002C7 
 125      65502ADA 
 125      A1CA209F 
 125      44EB
 126 035f F930D2C7 		.ascii	"\3710\322\307e\220\001M2\250\377\201\2519\002\3147\322"
 126      6590014D 
 126      32A8FF81 
 126      A93902CC 
 126      37D2
 127 0371 C11CE1A0 		.ascii	"\301\034\341\2409\332A\005S\023\033c\003;\204\203\303"
 127      39DA4105 
 127      53131B63 
 127      033B8483 
 127      C3
 128 0382 956AFF3E 		.ascii	"\225j\377>5x\235\241\034\035\232\035K/uw\037\367\240"
 128      35789DA1 
 128      1C1D9A1D 
 128      4B2F7577 
 128      1FF7A0
 129 0395 A561F4DA 		.ascii	"\245a\364\332\013-\302SN\236\266B@B\343\342\014f\316"
 129      0B2DC253 
 129      4E9EB642 
 129      4042E3E2 
 129      0C66CE
 130 03a8 E484B12E 		.ascii	"\344\204\261.\316\011\001\244\022P\233\3340\375\321"
 130      CE0901A4 
 130      12509BDC 
 130      30FDD1
 131 03b7 0B8EB689 		.ascii	"\013\216\266\211\022\347\300_\325\007\304\3165!\316"
ARM GAS  /tmp/ccHACQMa.s 			page 10


 131      12E7C05F 
 131      D507C4CE 
 131      3521CE
 132 03c6 E0A47020 		.ascii	"\340\244p \330\355\354L?\206\011Y\340h\032\207\210S"
 132      D8EDEC4C 
 132      3F860959 
 132      E0681A87 
 132      8853
 133 03d8 A2B646B5 		.ascii	"\242\266F\265O\223\010\277\020\021KgDL\032\253\2103"
 133      4F9308BF 
 133      10114B67 
 133      444C1AAB 
 133      8833
 134 03ea 024827A0 		.ascii	"\002H'\240\366\321\"&K\234\272\246\326\250)E\000\234"
 134      F6D12226 
 134      4B9CBAA6 
 134      D6A82945 
 134      009C
 135 03fc 1DA9610A 		.ascii	"\035\251a\012F=\252\206\357Ei\203J\237#\015Sd\365\301"
 135      463DAA86 
 135      EF456983 
 135      4A9F230D 
 135      5364F5C1 
 136 0410 8A672476 		.ascii	"\212g$v\256<(-\233\326\036\366\312\362{\022\014~\030"
 136      AE3C282D 
 136      9BD61EF6 
 136      CAF27B12 
 136      0C7E18
 137 0423 4900CF60 		.ascii	"I\000\317`\356\243\0228/\010\230D\340\002\021 \340D"
 137      EEA31238 
 137      2F089844 
 137      E0021120 
 137      E044
 138 0435 4F6DF37A 		.ascii	"Om\363z>~\254\037\005\026\235\177\270\010\201\341\033"
 138      3E7EAC1F 
 138      05169D7F 
 138      B80881E1 
 138      1B
 139 0446 D48B47F1 		.ascii	"\324\213G\361\222 \235hH6\317\226\264\247\216F\177\226"
 139      92209D68 
 139      4836CF96 
 139      B4A78E46 
 139      7F96
 140 0458 FD2FFC4F 		.ascii	"\375/\374OC\360\227\3052%\032b-\016V\3768\261\256\010"
 140      43F097C5 
 140      32251A62 
 140      2D0E56FE 
 140      38B1AE08 
 141 046c 2C1761FD 		.ascii	",\027a\375,\227<\3652\013\361\002iwi\262\372\230G\332"
 141      2C973CF5 
 141      320BF102 
 141      697769B2 
 141      FA9847DA 
 142 0480 6D3F011D 		.ascii	"m?\001\035\210 \276\012\235\345\316\207\244\000c\006"
 142      8820BE0A 
 142      9DE5CE87 
 142      A4006306 
ARM GAS  /tmp/ccHACQMa.s 			page 11


 143 0490 2EFED104 		.ascii	".\376\321\004N\214\011\277d\356\031\005O\275\216\227"
 143      4E8C09BF 
 143      64EE1905 
 143      4FBD8E97 
 144 04a0 4D8EB1AE 		.ascii	"M\216\261\256\261\030O\261\305Z\275t\033\367\334=\275"
 144      B1184FB1 
 144      C55ABD74 
 144      1BF7DC3D 
 144      BD
 145 04b1 5E7B98A5 		.ascii	"^{\230\245\263\376\363\363\346\203\253\202%]\353pM\030"
 145      B3FEF3F3 
 145      E683AB82 
 145      255DEB70 
 145      4D18
 146 04c3 7AFF4457 		.ascii	"z\377DW\243\330\007>H3\270.\212&QF\333<Q\243\266}\374"
 146      A3D8073E 
 146      4833B82E 
 146      8A265146 
 146      DB3C51A3 
 147 04da 356E0CD5 		.ascii	"5n\014\325\270)j\234\0175\235\345N\015\200N\247\206"
 147      B8296A9C 
 147      0F359DE5 
 147      4E0D804E 
 147      A786
 148 04ec 5BDC46B7 		.ascii	"[\334F\267!\030?\362\032\225\020_\300\273\370\251\300"
 148      21183FF2 
 148      1A95105F 
 148      C0BBF8A9 
 148      C0
 149 04fd 61BC9BE7 		.ascii	"a\274\233\347\314\234\031\220\177+K\002\313\336\\\021"
 149      CC9C1990 
 149      7F2B4B02 
 149      CBDE5C11 
 150 050d 58B572F5 		.ascii	"X\265r\365\273%\201\371\013^\177zv\240\260\360\245\300"
 150      BB2581F9 
 150      0B5E7F7A 
 150      76A0B0F0 
 150      A5C0
 151 051f C2F92F16 		.ascii	"\302\371/\026-x\177\026\315-*Y\262z9>V\254(\236\271"
 151      2D787F16 
 151      CD2D2A59 
 151      B27A393E 
 151      56AC289E 
 152 0534 98F192E2 		.ascii	"\230\361\222\342U\372\342\225\357,]\376\026\274\307"
 152      55FAE295 
 152      EF2C5DFE 
 152      16BCC7
 153 0543 972E7EFB 		.ascii	"\227.~\373\037\215,MU"
 153      1F8D2C4D 
 153      55
 154              		.text
 155              		.section	.gnu.lto_notify4.b926381b8180d65a,"",%progbits
 156 0000 789C9551 		.ascii	"x\234\225Q=H[Q\024>\337\275\317\230*JG\241\016\331$"
 156      3D485B51 
 156      143EDFBD 
 156      CF982A4A 
 156      47A10ED9 
ARM GAS  /tmp/ccHACQMa.s 			page 12


 157 0015 4B2ED649 		.ascii	"K.\326I\020A\350\250KL\347RZ\241J\300\237\210\2537\311"
 157      1041E8A8 
 157      4B4CE752 
 157      5AA14AC0 
 157      9F88AB37 
 158 002a 7B38B620 		.ascii	"{8\266 \376W\202\024Ikk\2234\203(\016!\035\272D\245"
 158      FE578214 
 158      496B6B93 
 158      3483280E 
 158      211DBA44 
 159 003f 3838B6B4 		.ascii	"88\266\264\222A\020\224Zt\321\364\234\367\206\316^\356"
 159      92411094 
 159      5A74D1F4 
 159      9CF786CE 
 159      5EEE
 160 0051 BBE79EF7 		.ascii	"\273\347\236\367\276\373\375\334\347\020H\306\016\227"
 160      BEFBFDDC 
 160      E71048C6 
 160      0E97
 161 005f 7EAE8FF8 		.ascii	"~\256\217\370\201&\2507\207D\351\260\002dc\303\240Y"
 161      8126A837 
 161      8744E9B0 
 161      026463C3 
 161      A059
 162 0071 8559FC55 		.ascii	"\205Y\374U\267\012\325\271\372\256\212\346-\217\237"
 162      B70AD5B9 
 162      FAAE8AE6 
 162      2D8F9F
 163 0080 9BEFC6D2 		.ascii	"\233\357\306\322\326\353\3604QC\371L\204<\242\214\372"
 163      D6EBF034 
 163      5143F94C 
 163      843CA28C 
 163      FA
 164 0091 EE16DFEA 		.ascii	"\356\026\337\352+\345i\300\341\366\362`\365w\273\264"
 164      2BE569C0 
 164      E1F6F260 
 164      F577BBB4 
 165 00a1 0A116EAF 		.ascii	"\012\021n\257~\254e\224\356\003\361\376[\355\317qK\327"
 165      7EAC6594 
 165      EE03F1FE 
 165      5BEDCF71 
 165      4BD7
 166 00b3 A6B5196B 		.ascii	"\246\265\031k\347G\354\003OklA3\037>\240\023\357\321"
 166      E747EC03 
 166      4F6B6C41 
 166      331F3EA0 
 166      13EFD1
 167 00c6 49FC8AF0 		.ascii	"I\374\212\360\021]\002\377U\272[h\013\271\"\037\011"
 167      115D02FF 
 167      55BA5B68 
 167      0BB9221F 
 167      09
 168 00d7 44F10921 		.ascii	"D\361\011!\211Q\210Wl\243\221\265v\255{%\332\244\370"
 168      89518857 
 168      6CA391B5 
 168      76AD7B25 
 168      DAA4F8
ARM GAS  /tmp/ccHACQMa.s 			page 13


 169 00ea 94A36521 		.ascii	"\224\243e!\272`\230\004\271TJ\252\256\243\272W\252\235"
 169      BA609804 
 169      B9544AAA 
 169      AEA3BA57 
 169      AA9D
 170 00fc 6A3999D5 		.ascii	"j9\231\325\022j\321\253\0365\213\277&\337\323\326\353"
 170      126AD1AB 
 170      1E358BBF 
 170      26DFD3D6 
 170      EB
 171 010d 8DB9D6A0 		.ascii	"\215\271\326\240\265\313i+\011N\226\316\256\235\034"
 171      B5CB692B 
 171      094E96CE 
 171      AE9D1C
 172 011c D6E1E910 		.ascii	"\326\341\351\020>\263\261m6&\330Z\376\364k\213\331\266"
 172      3EB3B16D 
 172      3626D85A 
 172      FEF46B8B 
 172      D9B6
 173 012e 6EDA3EF4 		.ascii	"n\332>\364t3\012\310\341\316\277\014\024a\250\216\354"
 173      74330AC8 
 173      E1CEBF0C 
 173      1461A88E 
 173      EC
 174 013f 4D2810D2 		.ascii	"M(\020\322\201Vq\337=\367\357\302A\005(1\015\373Y\204"
 174      815671DF 
 174      3DF7EFC2 
 174      41052831 
 174      0DFB5984 
 175 0153 60EEA3F3 		.ascii	"`\356\243\363\345\277N\031\206\331\351\014\231J9.<\376"
 175      E5BF4E19 
 175      86D9E90C 
 175      994A392E 
 175      3CFE
 176 0165 9FB85090 		.ascii	"\237\270P\220\264\014\351\215\305L0\307S\346\325\363"
 176      B40CE98D 
 176      C54C30C7 
 176      53E6D5F3 
 177 0175 A499189F 		.ascii	"\244\231\030\237\232N\231\341\304P\317c38\370\304<\035"
 177      9A4E99E1 
 177      C450CF63 
 177      3338F8C4 
 177      3C1D
 178 0187 1E882766 		.ascii	"\036\210'f\272\345\333\263\324\310\324(\227d\362e\354"
 178      BAE5DBB3 
 178      D4C8D428 
 178      9764F265 
 178      EC
 179 0198 05A9C989 		.ascii	"\005\251\311\211\177\374k\246\215"
 179      7FFC6BA6 
 179      8D
 180              		.text
 181              		.section	.gnu.lto_set_error.b926381b8180d65a,"",%progbits
 182 0000 789C6D94 		.ascii	"x\234m\224MlTU\024\307\357\377\336\367=\323\241&.X\020"
 182      4D6C5455 
 182      14C7EFFF 
 182      DEF73DD3 
ARM GAS  /tmp/ccHACQMa.s 			page 14


 182      A1262E58 
 183 0015 ED864C58 		.ascii	"\355\206LX\320\027ue\342B\243\321\005\270\001\\\271"
 183      D0177565 
 183      E242A3D1 
 183      05B8015C 
 183      B9
 184 0026 308DAD42 		.ascii	"0\215\255B\322\244M\247qg\346\321\351\263\365#\304\015"
 184      D2A44DA7 
 184      7167E6D1 
 184      E9B3F523 
 184      C40D
 185 0038 34E0D41A 		.ascii	"4\340\324\032\241\001DZZ\305R)tZ\012$\264j\254\304\212"
 185      A101445A 
 185      5AC55229 
 185      745A0A24 
 185      B46AACC4 
 186 004d D5585B6D 		.ascii	"\325X[m\020\211t\254\002!-\343\271\367\2767\224\301"
 186      108974AC 
 186      02212DE3 
 186      B9F7BE37 
 186      94C1
 187 005f 9799FB71 		.ascii	"\227\231\373q\316y\377\363\273\367\334\373\014\006&"
 187      CE79FFF3 
 187      BBF7DCFB 
 187      0C0626
 188 006e 9F6993B1 		.ascii	"\237i\223\261f\352\263\364G\202\201\277\3775c\273\035"
 188      66EAB3F4 
 188      478281BF 
 188      FF3563BB 
 188      1D
 189 007f CE45679A 		.ascii	"\316Eg\232\005\236!\333\244\200\241\315\0067\225\331"
 189      059E21DB 
 189      A480A1CD 
 189      063795D9 
 190 008f 52661396 		.ascii	"Rf\023\2266[\334VfG\231m8\332\354p\367\262Ofo\344\021"
 190      365BDC56 
 190      6647996D 
 190      38DAEC70 
 190      F7B24F66 
 191 00a6 32BBF0B4 		.ascii	"2\273\360\264\331\003\344 p\300\262\\\030\246e;\256"
 191      D903E420 
 191      70C0B25C 
 191      18A6653B 
 191      AE
 192 00b7 872CFEE5 		.ascii	"\207,\376\345\253\034\343\035\213\303|\323\341\200\236"
 192      AB1CE31D 
 192      8BC37CD3 
 192      E1809E
 193 00c6 B9DF0777 		.ascii	"\271\337\007w\355\016\302\365\241`\254\304\025-\303"
 193      ED0EC2F5 
 193      A160ACC4 
 193      152DC3
 194 00d5 616CA2A8 		.ascii	"al\242\250o\333O\344\305?<\024\200A\323\342W\007\026"
 194      6FDB4FE4 
 194      C53F3C14 
 194      8041D3E2 
 194      570716
ARM GAS  /tmp/ccHACQMa.s 			page 15


 195 00e8 5272CA51 		.ascii	"Rr\312QC\323\205\376\261_<\361\024\030\215W&'\316:\351"
 195      43D385FE 
 195      B15F3CF1 
 195      14188D57 
 195      2627CE3A 
 196 00fd DE20680B 		.ascii	"\336 h\013\202\017\032\0027\024\002\237@\220\036\216"
 196      820F1A02 
 196      3714029F 
 196      40901E8E 
 197 010d 62038E60 		.ascii	"b\003\216`\003#\023\3031\244)\372|\351Va\235\326\225"
 197      032313C3 
 197      31A429FA 
 197      7CE95661 
 197      9DD695
 198 0120 30D34B53 		.ascii	"0\323KS\335\011\255[M\323SAa\336\020O+\335\322\221?"
 198      DD09AD5B 
 198      4DD35341 
 198      61DE104F 
 198      2BDDD291 
 199 0135 BEB723DD 		.ascii	"\276\267#\335\231\272\300\014\205\201>\255{\234t?U\272"
 199      99BAC00C 
 199      85813EAD 
 199      7B9C743F 
 199      55BA
 200 0147 06433FD2 		.ascii	"\006C?\3222\374\207\256\237\247m\361\254z\365\303s7"
 200      32FC87AE 
 200      9FA76DF1 
 200      AC7AF5C3 
 200      7337
 201 0159 57D76D3C 		.ascii	"W\327m<(_-\354\177\367\341\375A\241\275&\024&N\334\217"
 201      285F2DEC 
 201      7FF7E1FD 
 201      41A1BD26 
 201      14264EDC 
 202 016e 251F8A9E 		.ascii	"%\037\212\236\037\270\273\267\312j\227\033R\203\001"
 202      1FB8BBB7 
 202      CA6A971B 
 202      528301
 203 017d 6CD45B81 		.ascii	"l\324[\201AXT@HK\377\266BP*\345\202BW\342\306\355!\367"
 203      41585440 
 203      484BFFB6 
 203      42502AE5 
 203      824257E2 
 204 0195 213069E5 		.ascii	"!0i\345\252\025\2525TkJ\"\013\022\311\226CG6\256ryr"
 204      AA15AA35 
 204      546B4A22 
 204      0B12C996 
 204      434736AE 
 205 01ac 9850C3A4 		.ascii	"\230P\303\244j\253 w$Ef\213\261%\312(+V\344\\\366b\036"
 205      6AAB2077 
 205      2445668B 
 205      B125CA28 
 205      2B56E45C 
 206 01c3 6D125C31 		.ascii	"m\022\\1P,A\356\013\307\277\261\345F\231\224\3743\202"
 206      502C41EE 
 206      0BC7BFB1 
 206      E5469994 
ARM GAS  /tmp/ccHACQMa.s 			page 16


 206      FC3382
 207 01d6 5F446EE5 		.ascii	"_Dn\345y\226\023fNX\344\177\347\316\314\036G\372\015"
 207      79961366 
 207      4E58E47F 
 207      E7CECC1E 
 207      47FA0D
 208 01e9 38F89CFC 		.ascii	"8\370\234\374\277\242}6wz\237%5(j\255\204A\022'\243"
 208      BFA27D36 
 208      777A9F25 
 208      35286AAD 
 208      84411227 
 209 01fe F517B960 		.ascii	"\365\027\271`\235i\225\260g2\271&\341ro\276\313\321"
 209      9D6995B0 
 209      6732B926 
 209      E1726FBE 
 209      CBD1
 210 0210 0903E00B 		.ascii	"\011\003\340\013\025^\344F\214W\255\026\221\023(\203"
 210      155EE446 
 210      8C57AD16 
 210      91132883 
 211 0220 D81AE464 		.ascii	"\330\032\344d\307\324\200\247\263\000C1\310B\014b\307"
 211      C7D480A7 
 211      B3004331 
 211      C8420C62 
 211      C7
 212 0231 99FF2637 		.ascii	"\231\377&7\255\203O]\371H\311\213\225+\365\224\300\224"
 212      AD834F5D 
 212      F948C98B 
 212      952BF594 
 212      C094
 213 0243 342479FB 		.ascii	"4$y\373\255K\233\365\033.%Y{\002m\324\340\024i\314\203"
 213      AD4B9BF5 
 213      1B2E2559 
 213      7B026DD4 
 213      E01469CC 
 214 0258 C7B814A4 		.ascii	"\307\270\024\244\350\254J:^\246s4\335H\317{G#:\216\341"
 214      E8AC4A3A 
 214      5EA67334 
 214      DD48CF7B 
 214      47233A8E 
 215 026d 98EECF98 		.ascii	"\230\356\317\230\316\271G\307)\255\001R6\363\263\022"
 215      CEB947C7 
 215      29AD0152 
 215      36F3B312 
 216 027d CC2E83FD 		.ascii	"\314.\203\375\030\201%H\237$\207\376:6T\245\301\012"
 216      18812548 
 216      9F2487FE 
 216      3A3654A5 
 216      C10A
 217 028f 0C5F5692 		.ascii	"\014_V\222%\024\231SI&\312d\236&\033\233\033,&4\231"
 217      25149953 
 217      4926CA64 
 217      9E261B9B 
 217      1B2C2634 
 218 02a4 81D331D9 		.ascii	"\201\3231\331rL\346\335#\023\224\327\"\262\204=\242"
 218      724CE6DD 
 218      231394D7 
ARM GAS  /tmp/ccHACQMa.s 			page 17


 218      22B2843D 
 218      A2
 219 02b5 C85C76D9 		.ascii	"\310\\v\331\327d\327\"\262$\351\223d\337\325\321\274"
 219      D764D722 
 219      B224E993 
 219      64DFD5D1 
 219      BC
 220 02c6 A7C9025A 		.ascii	"\247\311\002Zz%YR\221y\225d\006\221\265\335\351\270"
 220      7A255952 
 220      91799564 
 220      0691B5DD 
 220      E9B8
 221 02d8 793CCA9C 		.ascii	"y<\312\234Z{t\204\272_\267.^\352L\366\240\033\241\334"
 221      5A7B7484 
 221      BA5FB72E 
 221      5EEA4CF6 
 221      A01BA1DC 
 222 02ec D72A9C91 		.ascii	"\327*\234\221hd\357\375\255\255\317\3667\207\302\305"
 222      6864EFFD 
 222      ADADCFF6 
 222      3787C2C5 
 223 02fc 59F4E02E 		.ascii	"Y\364\340.\217n\330\354\241\261C\211\354\233t\3241\012"
 223      8F6ED8EC 
 223      A1B14389 
 223      EC9B74D4 
 223      310A
 224 030e 9F2E5501 		.ascii	"\237.U\001\331\230\205\334\3353s\327]\361\202\222>\270"
 224      D99885DC 
 224      DD3373D7 
 224      5DF18292 
 224      3EB8
 225 0320 945FB6A2 		.ascii	"\224_\266\242\253\3335\231\212\256\256\205\261\007\257"
 225      ABDB3599 
 225      8AAEAE85 
 225      B107AF
 226 032f 2EC6256E 		.ascii	".\306%n\212\311\263{f\022\221\330\336\003\213\353\305"
 226      8AC9B37B 
 226      661291D8 
 226      DE038BEB 
 226      C5
 227 0340 16A5F5F1 		.ascii	"\026\245\365\361\236\321\227\037\2202q\356\177\244&"
 227      9ED1971F 
 227      903271EE 
 227      7FA426
 228 034f F4CAAF22 		.ascii	"\364\312\257\"\234\373\356B\251\333\272\377\263Px\373"
 228      9CFBEE42 
 228      A9DBBAFF 
 228      B35078FB 
 229 035f 06972132 		.ascii	"\006\227!2\243\3720\2248*\277\034\014\347A7\031\027"
 229      A3FA3094 
 229      382ABF1C 
 229      0CE74137 
 229      1917
 230 0371 A825D7F0 		.ascii	"\250%\327\360\360\365Y;\273\032t\006Au(\274\022\347"
 230      F0F5593B 
 230      BB1A7406 
 230      417528BC 
ARM GAS  /tmp/ccHACQMa.s 			page 18


 230      12E7
 231 0383 CA8F8BB4 		.ascii	"\312\217\213\264r\202\246d!\035\215\270\036R\267<\231"
 231      7282A664 
 231      211D8DB8 
 231      1E52B73C 
 231      99
 232 0394 90936BB4 		.ascii	"\220\223k\264\250\321-r\256\213nPI\035*z\322\375\211"
 232      A8D12D72 
 232      AE8B6E50 
 232      491D2A7A 
 232      D2FD89
 233 03a7 8ABE44F9 		.ascii	"\212\276D\371\251l\264\277O\326\326\372\372\327\224"
 233      A96CB4BF 
 233      4FD6D6FA 
 233      FAD794
 234 03b6 F177D635 		.ascii	"\361w\3265\372\315M-\255\031\177\373\216\027\237x\334"
 234      FACD4D2D 
 234      AD197FFB 
 234      8E179F78 
 234      DC
 235 03c7 DFBAF539 		.ascii	"\337\272\3659\377\245\355\317l\333\361\306c\322\367"
 235      FFA5EDCF 
 235      6CDBF1C6 
 235      63D2F7
 236 03d6 4AA6A165 		.ascii	"J\246\241e\027u\215\215\365\265\2572\221\251o\346\231"
 236      17758D8D 
 236      F5B5AF32 
 236      91A96FE6 
 236      99
 237 03e7 169169CD 		.ascii	"\026\221i\315\210\206L\263\371Zc\335\353\231G+\345\232"
 237      88864CB3 
 237      F95A63DD 
 237      EB99472B 
 237      E59A
 238 03f9 32D4B4B4 		.ascii	"2\324\264\264\252\276v'\373\017\024\336\374\356"
 238      AABE7627 
 238      FB0F14DE 
 238      FCEE
 239              		.text
 240              		.section	.gnu.lto_serve_interrupt.b926381b8180d65a,"",%progbits
 241 0000 789C9D58 		.ascii	"x\234\235X{PUu\036\377}\177\347\302}r/\310C 2\330\206"
 241      7B505575 
 241      1EFF7D7F 
 241      E7C27D72 
 241      2FC84320 
 242 0017 D15AF3E6 		.ascii	"\321Z\363\346#{\2613\333\270\263\273\315\346\314\216"
 242      237BB133 
 242      DBB8B3BB 
 242      CDE6CC8E 
 243 0027 D41F3B3B 		.ascii	"\324\037;;;=\210Mg4\034n55\315\016G.Wm\311\326j\025"
 243      3B3D884D 
 243      67341C6E 
 243      3535CD0E 
 243      472E576D 
 244 003f 3488D634 		.ascii	"4\210\3264-E\004K\342\241^\361\015\012\251\024\032\265"
 244      2D45044B 
 244      E2A15EF1 
ARM GAS  /tmp/ccHACQMa.s 			page 19


 244      0D0AA914 
 244      1AB5
 245 0051 820FD432 		.ascii	"\202\017\3242\027\3044\023\271\373\375\376~\347\\/p"
 245      17C43413 
 245      B9FBFDFE 
 245      7EE75C2F 
 245      70
 246 0062 CF05BBA3 		.ascii	"\317\005\273\243\207s~\337\327\357\367}}\276\347\230"
 246      87737EDF 
 246      D7EFF77D 
 246      7DBEE798 
 247 0072 1830FA75 		.ascii	"\0300\372u\2472\226\201\267\177\304\377\220\312\200"
 247      A7329681 
 247      B77FC4FF 
 247      90CA80
 248 0081 2F6F656C 		.ascii	"/oel\221\205s\245=\211\2516S\343\203Lu(`\222\313&\260"
 248      918573A5 
 248      3D89A936 
 248      53E3834C 
 248      75286092 
 249 0098 C99B281E 		.ascii	"\311\233(\036-\350fA\217\006\263\\6s\213X\266\212e\013"
 249      2DE86641 
 249      8F06B35C 
 249      36738B58 
 249      B68A650B 
 250 00ac 58E5B255 		.ascii	"X\345\262U\212\355\262\330x\324\233\373\0312\330\213"
 250      8AEDB2D8 
 250      78D49BFB 
 250      1932D88B 
 251 00bc CCC860E7 		.ascii	"\314\310`\347\216\245\023\361)\216\256\016\007\217\021"
 251      8EA513F1 
 251      298EAE0E 
 251      078F11
 252 00cb C2714238 		.ascii	"\302qB8\206;?\260\341\223\253w7\0128\234\020+u\271\364"
 252      863B3FB0 
 252      E193AB77 
 252      370A389C 
 252      102B75B9 
 253 00e0 9B588893 		.ascii	"\233X\210\2237q|\\\273\0339S\032' \3438\036\037\362"
 253      37717C5C 
 253      BB1B3953 
 253      1A2720E3 
 253      381E1FF2 
 254 00f4 14CF13BE 		.ascii	"\024\317\023\276\261\343S\342\247M\244%\201'\011\203"
 254      B1E353E2 
 254      A74DA425 
 254      81270983 
 255 0104 89C26022 		.ascii	"\211\302`\"$I\015I|\274\260\234,,\217\207d\271\234\014"
 255      24490D49 
 255      7CBCB09C 
 255      2C2C8F87 
 255      64B99C0C 
 256 0118 29F22605 		.ascii	")\362&\005\200nT\013\260\002\256\230\242\242\315\026"
 256      806E540B 
 256      B002AE98 
 256      A2A2CD16 
 257 0128 ABCDEE88 		.ascii	"\253\315\356\210q\272b\343\306\305'$&\215ON\201\002"
ARM GAS  /tmp/ccHACQMa.s 			page 20


 257      71BA62E3 
 257      C6C52724 
 257      268D4F4E 
 257      8102
 258 013a 6E63F2F7 		.ascii	"nc\362\367#\277\311\241iIO\035\277g\275\212\277\256"
 258      23BFC9A1 
 258      69494F1D 
 258      BF67BD8A 
 258      BFAE
 259 014c BD0DF316 		.ascii	"\275\015\363\026\251\276d\237\302X\200K\036X\017\367"
 259      A9BE649F 
 259      C258804B 
 259      1E580FF7 
 260 015c 20D791A2 		.ascii	" \327\221\242-e\312\025\356S\000L\370\330wx\365i'=r"
 260      2D65CA15 
 260      EE53004C 
 260      F8D87778 
 260      F569273D 
 261 0171 48C7C7D3 		.ascii	"H\307\307\323U\273N\332\224,`x?\320\262g\207e\342:U"
 261      55BB4EDA 
 261      942C6078 
 261      3FD0B267 
 261      8765E23A 
 262 0186 2D54D5DA 		.ascii	"-T\325\332\\\325\352S\024\370\004\024\324\007\037C\032"
 262      5CD5EA53 
 262      14F80414 
 262      D4071F43 
 262      1A
 263 0197 6C803486 		.ascii	"l\2004\206K\0146\302Db\337\033\270\346wI\305\264\233"
 263      4B0C36C2 
 263      4462DF1B 
 263      B8E67749 
 263      C5B49B
 264 01aa A3BD87CA 		.ascii	"\243\275\207\312\355Rq,>~\256\372O\231\224\337\012\305"
 264      ED52712C 
 264      3E7EAEFA 
 264      4F9994DF 
 264      0AC5
 265 01bc C74F1F6A 		.ascii	"\307O\037j\261g~H\212\375\375\305\316R\325_\230\356"
 265      B1677E48 
 265      8AFDFDC5 
 265      CE52D55F 
 265      98EE
 266 01ce 534CB059 		.ascii	"SL\260Y*\257D\345\233P9\375\220{\373\212\257o\230\224"
 266      2AAF44E5 
 266      9B5039FD 
 266      907BFB8A 
 266      AF6F9894 
 267 01e2 5942729B 		.ascii	"YBr\233w\325Z\233&\331[\354P\277P-$\270%\254\340\206"
 267      77D55A9B 
 267      26D95BEC 
 267      50BF502D 
 267      24B825AC 
 268 01f8 EF4E0E28 		.ascii	"\357N\016(\312\037\204\340\215\367\313\336vi\202'\213"
 268      CA1F84E0 
 268      8DF7CBDE 
 268      76698227 
ARM GAS  /tmp/ccHACQMa.s 			page 21


 268      8B
 269 0209 1357A9FE 		.ascii	"\023W\251\376\"4\031\0055C\317\243I\236\252\036\\\021"
 269      22341905 
 269      3543CFA3 
 269      499EAA1E 
 269      5C11
 270 021b 135D449E 		.ascii	"\023]D\236L\207\255\220\011\325\370\277\0122\245/\341"
 270      4C87AD90 
 270      09D5F8BF 
 270      0A32A52F 
 270      E1
 271 022c 5388C6DC 		.ascii	"S\210\306\3345\011\012\256\242@\331\342O\316*\312\343"
 271      35090AAE 
 271      A240D9E2 
 271      4FCE2ACA 
 271      E3
 272 023d C2D4DE81 		.ascii	"\302\324\336\201\023\373\365=V\264:KT\377\"4\025\015"
 272      13FBF53D 
 272      56B43A4B 
 272      54FF2234 
 272      150D
 273 024f 9F4953D3 		.ascii	"\237IS\323\323\340~i\010\266\011\331}\355\235\033\315"
 273      D3E07E69 
 273      08B609D9 
 273      7DED9D1B 
 273      CD
 274 0260 C4AFAAFE 		.ascii	"\304\257\252\376\316\326\030mkf\235?tkP\013\231Us\374"
 274      CED6186D 
 274      6B669D3F 
 274      746B500B 
 274      995573FC 
 275 0274 6A20E055 		.ascii	"j \340U\375\337\332\317\037\277j\375\0150\332\003\307"
 275      FDDFDACF 
 275      1FBF6AFD 
 275      0D30DA03 
 275      C7
 276 0285 50581C40 		.ascii	"PX\034@\261\210a\2641'.X]t\211\025\014qxk\213\307\213"
 276      B18861B4 
 276      31272E58 
 276      5D748915 
 276      0C71786B 
 277 029c 3D192FA6 		.ascii	"=\031/\246T\242\334\201\027\007\005\321q\247\330\314"
 277      54A2DC81 
 277      170705D1 
 277      71A7D8CC 
 278 02ac 04A2A413 		.ascii	"\004\242\244\023%C\310\334M2\231x\211\231(LO\"\361{"
 278      2543C8DC 
 278      4D329978 
 278      8999284C 
 278      4F22F17B 
 279 02c0 893E992E 		.ascii	"\211>\231.n\"O\305\213s\032]\246\323\343\014R\361\000"
 279      6E224FC5 
 279      8B731A5D 
 279      A6D3E30C 
 279      52F100
 280 02d3 5E5C3389 		.ascii	"^\\3\211\371!\342{\224\326\262\350\302X/:\020\013\261"
 280      F921E27B 
ARM GAS  /tmp/ccHACQMa.s 			page 22


 280      94D6B2E8 
 280      C2582F3A 
 280      100BB1
 281 02e6 8F73FCA3 		.ascii	"\217s\374\243\364@a}\337\2655Q\344Q\257\022\203\316"
 281      F440617D 
 281      DFB53551 
 281      E451AF12 
 281      83CE
 282 02f8 58E96B6A 		.ascii	"X\351kj3S\326(\302\227\327\3667/uT@\371\"\362\216\007"
 282      3353D628 
 282      C297D7F6 
 282      372F7554 
 282      40F922F2 
 283 030e 55C47A15 		.ascii	"U\304z\025\007|N\356@\352\2723\205\233\315\356\373("
 283      077C4EEE 
 283      40EABA33 
 283      859BCDEE 
 283      FB28
 284 0320 8E755001 		.ascii	"\216uP\001\203\"\321\241\036\334\354\024\024\252O\211"
 284      8322D1A1 
 284      1EDCEC14 
 284      14AA4F89 
 285 0330 38A12B50 		.ascii	"8\241+P3\353\201\246\372\352\201\032\315\2223\324R\324"
 285      33EB81A6 
 285      FAEA811A 
 285      CD9233D4 
 285      52D4
 286 0342 104BE053 		.ascii	"\020K\340S\342P\000\0324\033\035\227/\357v\270+\325"
 286      E250001A 
 286      341B1D97 
 286      2FEF76B8 
 286      2BD5
 287 0354 22248C83 		.ascii	"\"$\214\203Fa\206\372\030l\327\314<,\314T\213P\236\373"
 287      466186FA 
 287      186CD7CC 
 287      3C2CCC54 
 287      8B509EFB 
 288 0368 BE61FEEB 		.ascii	"\276a\376\353\257\341A\321\004-3\330\001\257\013\333"
 288      AFE141D1 
 288      042D33D8 
 288      01AF0BDB 
 289 0378 7D03FA29 		.ascii	"}\003\372)]c6\266S\030\023\031\347Gc\350\254\313K\316"
 289      5D6336B6 
 289      53181319 
 289      E74763E8 
 289      ACCB4BCE 
 290 038c 80D4827E 		.ascii	"\200\324\202~p\241y.\214W\321\031c\221\301;\260\270"
 290      70A1792E 
 290      8C57D119 
 290      6391C13B 
 290      B0B8
 291 039e A76A86E4 		.ascii	"\247j\206\344\210\223\2466\237\337Yf\243cZA\345\260"
 291      8893A636 
 291      9FDF5966 
 291      A3635A41 
 291      E5B0
 292 03b0 0B0D7543 		.ascii	"\013\015uCQ\2477UcB\216\252\213u\327c\210\303\206\251"
ARM GAS  /tmp/ccHACQMa.s 			page 23


 292      51A73755 
 292      63428EAA 
 292      8B75D763 
 292      88C386A9 
 293 03c4 D4A4655A 		.ascii	"\324\244eZ\037W\230\217+x\300X\341\351\346\243;\355"
 293      1F57988F 
 293      2B78C058 
 293      E1E9E6A3 
 293      3BED
 294 03d6 CA9F84A7 		.ascii	"\312\237\204\247\256\224Vo\260\312\374\356\352X\374"
 294      AE94566F 
 294      B0CAFCEE 
 294      EA58FC
 295 03e5 B755C7CF 		.ascii	"\267U\307\317\250\352;*\3568\036v\207I\331=\3023K.\250"
 295      A8EA3B2A 
 295      EE381E76 
 295      8749D93D 
 295      C2334B2E 
 296 03fa DB4D6424 		.ascii	"\333Md$\036\322a/\322\316A\341\251w\233/=8\264\332\374"
 296      1ED2612F 
 296      D2CE41E1 
 296      A9779B2F 
 296      3D38B4DA 
 297 040f 2D837344 		.ascii	"-\203sD}\0058\014+D\177\177I%\224\242K\367\021\225\017"
 297      7D05380C 
 297      2B447F7F 
 297      492594A2 
 297      4BF71195 
 298 0424 A7F695BF 		.ascii	"\247\366\225\277G\376\336ODe8\261rY1!\315\001\"\232"
 298      47FEDE4F 
 298      446538B1 
 298      72593121 
 298      CD01229A 
 299 0438 8611D58F 		.ascii	"\206\021\325\217[\2016\311\340 \221\243\206\327?\203"
 299      5B8136C9 
 299      E02091A3 
 299      86D73F83 
 300 0448 6654CCA0 		.ascii	"fT\314\240\205\212\036\330\000 }ME\315O\266\214e\274"
 300      858A1ED8 
 300      00207D4D 
 300      45CD4FB6 
 300      8C65BC
 301 045b 422DC552 		.ascii	"B-\305RM \221\312\323\015\252\305\204\301\202C\220!"
 301      4D2091CA 
 301      D30DAAC5 
 301      84C18243 
 301      9021
 302 046d 82D97BB1 		.ascii	"\202\331{\261\275\223\343\012\034\006\22382\203V\321"
 302      BD93E30A 
 302      1C069338 
 302      328356D1 
 303 047d 7237ECD8 		.ascii	"r7\354\330}\326\221\261\\\223N$\336\313\233k\276\264"
 303      7DD691B1 
 303      5C934E24 
 303      DECB9B6B 
 303      BEB4
 304 048f 0BE93692 		.ascii	"\013\3516\222\206/\300D\321\025\336c\024\371\237\227"
ARM GAS  /tmp/ccHACQMa.s 			page 24


 304      862FC044 
 304      D115DE63 
 304      14F99F97 
 305 049f 940CAED3 		.ascii	"\224\014\256\323b\037?4\203\302\227D\022\034\021\351"
 305      621F3F34 
 305      83C29744 
 305      121C11E9 
 306 04af A3C88ED6 		.ascii	"\243\310\216\326\271v\327Z{\301?\260$\341(\346\022\203"
 306      B976D75A 
 306      7BC13FB0 
 306      24E128E6 
 306      1283
 307 04c1 6350A0E7 		.ascii	"cP\240\347\017\222\313;\272.Z\225R\351\364\017{\313"
 307      0F92CB3B 
 307      BA2E5A95 
 307      52E9F40F 
 307      7BCB
 308 04d3 FAA3B506 		.ascii	"\372\243\265\006\366m\213SkHvh\017\023\335/)\365\342"
 308      F66D8B53 
 308      6B487668 
 308      0F13DD2F 
 308      29F5E2
 309 04e6 A910FC37 		.ascii	"\251\020\3747[tm+V\367$+eR\331\232\267v\376u\204\256"
 309      5B746D2B 
 309      56F7242B 
 309      6552D99A 
 309      B776FE75 
 310 04fc F1F05518 		.ascii	"\361\360U\030]\035\"SJ~\270\236\252\345\253\011\216"
 310      5D1D2253 
 310      4A7EB89E 
 310      AAE5AB09 
 310      8E
 311 050d 23ED3CF8 		.ascii	"#\355<\370\272\256\267\004\312\243\207\005\26580\207"
 311      BAAEB704 
 311      CAA38705 
 311      B5383087 
 312 051d 44680B5A 		.ascii	"Dh\013Z\312D\217\214\335\011\021\273\257A\220\352\352"
 312      CA448F8C 
 312      DD0911BB 
 312      AF4190EA 
 312      EA
 313 052e 2E769A0B 		.ascii	".v\232\013n\252KU5\326\247$\007\270Y\320\241\023}\201"
 313      6EAA4B55 
 313      35D6A724 
 313      07B859D0 
 313      A1137D81 
 314 0542 A7206B3E 		.ascii	"\247 k>%%XV\2448\370\320!\003\321t\2457P\243h\347\034"
 314      25255856 
 314      A438F8D0 
 314      2103D174 
 314      A53750A3 
 315 0559 D29D6222 		.ascii	"\322\235b\"\326\3627\267j\371[p#\371\304\271-\325\002"
 315      D6F237B7 
 315      6AF95B70 
 315      23F9C4B9 
 315      2DD502
 316 056c 1EC741E0 		.ascii	"\036\307A\340f \340\202\377\242\234^nCK\354\345\321"
ARM GAS  /tmp/ccHACQMa.s 			page 25


 316      6620E082 
 316      FFA29C5E 
 316      6E434BEC 
 316      E5D1
 317 057e 4AECA470 		.ascii	"J\354\244p\\\260\241\305c\236v\031\227X\361\236l\315"
 317      5CB0A1C5 
 317      639E7619 
 317      9758F19E 
 317      6CCD
 318 0590 5F969125 		.ascii	"_\226\221%v@\224X7Q\255#K\354 y\353\024\021m#K\354}"
 318      76409458 
 318      3751AD23 
 318      4BEC2079 
 318      EB14116D 
 319 05a8 2AB1D344 		.ascii	"*\261\323D\264\017/\261\317\332\2006\311\340\214A\211"
 319      B40F2FB1 
 319      CFDA8036 
 319      C9E08C41 
 319      89
 320 05b9 9D1561EA 		.ascii	"\235\025a\352\011)\261\301\212\356\035v\275z\272D\365"
 320      0929B1C1 
 320      8AEE1D76 
 320      BD7ABA44 
 320      F5
 321 05ca 9C13D533 		.ascii	"\234\023\3253\274T\316\353\245B\006D\3472\021\264\204"
 321      BC54CEEB 
 321      A5420644 
 321      E73211B4 
 321      84
 322 05db 71A5FFC7 		.ascii	"q\245\377\307\236g\336\361\252\007T\223\221#/`:EhNo"
 322      9E67DEF1 
 322      AA075493 
 322      91232F60 
 322      3A45684E 
 323 05f0 EC538C9A 		.ascii	"\354S\214\232S\0376\247d\006\337E\352M\337G\352M\027"
 323      531F36A7 
 323      6406DF45 
 323      EA4DDF47 
 323      EA4D17
 324 0603 0D7BD305 		.ascii	"\015{\323\005r\334\017\006\216\273$\034\367\277\020"
 324      72DC0F06 
 324      8EBB241C 
 324      F7BF10
 325 0612 C785693B 		.ascii	"\307\205i;\275a\035\327\247;\356\202\356\270(\206\243"
 325      BD611DD7 
 325      A73BEE82 
 325      EEB82886 
 325      A3
 326 0623 B24230F2 		.ascii	"\262B0\362{\254\207\031^\205\364m\372\250O\216u&p\301"
 326      7BAC8719 
 326      5E85F46D 
 326      FAA84F8E 
 326      752670C1 
 327 0637 650D3F76 		.ascii	"e\015?v\027\037\366*\303\007\245mZ!\242\356~\352S3B"
 327      171FF62A 
 327      C307A56D 
 327      5A21A2EE 
ARM GAS  /tmp/ccHACQMa.s 			page 26


 327      7EEA5333 
 328 064c 93D2841B 		.ascii	"\223\322\204\033\274\022\004\227h\326\226\240`a\373"
 328      BC120497 
 328      68D696A0 
 328      6061FB
 329 065b 6B5B1562 		.ascii	"k[\025b\036Y\235\251\001\356@E?\212\322t\340V|\312\035"
 329      1E599DA9 
 329      01EE4045 
 329      3F8AD274 
 329      E0567CCA 
 330 0670 42D4AC6D 		.ascii	"B\324\254m\022\361\274uk\224\264\224:fL\275*\352\320"
 330      12F1BC75 
 330      6B94B494 
 330      3A664CBD 
 330      2AEAD0
 331 0683 44C1BEA6 		.ascii	"D\301\276\246c\352!\220Z\356@E\264R\337=A.\244\215\245"
 331      63EA2190 
 331      5AEE4045 
 331      B452DF3D 
 331      412EA48D 
 332 0698 D146C34F 		.ascii	"\321F\303OBg\024\351\274.t\"\014gI\015w\012\255i\242"
 332      426714E9 
 332      BC2E7422 
 332      0C67490D 
 332      770AAD69 
 333 06ad 8BE002B9 		.ascii	"\213\340\002\271\010\027\231\356\342d\351\342 8\232"
 333      081799EE 
 333      E264E9E2 
 333      20389A
 334 06bc 101C7FD6 		.ascii	"\020\034\177\326!\372ZY\262T\222\034\3428\213\356\270"
 334      21FA5A59 
 334      B254921C 
 334      E2388BEE 
 334      B8
 335 06cd ED468E4B 		.ascii	"\355F\216K\013\360\030\334\311\015\335qw\372\320 \211"
 335      0BF018DC 
 335      C90DDD71 
 335      77FAD020 
 335      89
 336 06de 5A838EEB 		.ascii	"Z\203\216\353k\333\252H\325\351cv\334\300\255\006vS"
 336      6BDBAA48 
 336      D5E96376 
 336      DCC0AD06 
 336      7653
 337 06f0 77DC1ECD 		.ascii	"w\334\036\315q\031\250(xD1\214d\010\2136\206\3570\262"
 337      7119A828 
 337      7844318C 
 337      64088B36 
 337      86EF30B2 
 338 0704 12E53204 		.ascii	"\022\3452\004O>A\236\274\244\363\330\361hyr7\014\352"
 338      4F3E419E 
 338      BCA4F3D8 
 338      F1687972 
 338      370CEA
 339 0717 27AF2D4B 		.ascii	"'\257-K\221H7A?\371e\000\234pLe'\027\242n\353@\3773"
 339      91483741 
 339      3FF96500 
ARM GAS  /tmp/ccHACQMa.s 			page 27


 339      9C704C65 
 339      2717A26E 
 340 072f A8DD6E50 		.ascii	"\250\335nP\346c\351\230\001,\364\010-\362`\273b\324"
 340      E663E998 
 340      012CF408 
 340      2DF260BB 
 340      62D4
 341 0741 22FBB045 		.ascii	"\"\373\260Eb\241\253<B\207\\\304#t\310Bn\324!\003T?"
 341      62A1AB3C 
 341      42875CC4 
 341      2374C842 
 341      6ED42103 
 342 0757 5E1EBED0 		.ascii	"^\036\276\320\2138\325\225\217G\354\220\213y\270B_\302"
 342      8B38D595 
 342      8F47EC90 
 342      8B79B842 
 342      5FC2
 343 0769 B5420F48 		.ascii	"\265B\017H\014\303\364,\331\264\304,]|\267\234\206\267"
 343      0CC3F42C 
 343      D9B4C42C 
 343      5D7CB79C 
 343      86B7
 344 077b F51CDCA7 		.ascii	"\365\034\334\247\217\211\000K\371\3201\361\356\220\271"
 344      8F89004B 
 344      F9D031F1 
 344      EE90B9
 345 078a D0C19A94 		.ascii	"\320\301\232\224`\217xT\206\261\177]Y\211E\206\021\245"
 345      608F7854 
 345      86B17F5D 
 345      59894586 
 345      11A5
 346 079c DFD0A507 		.ascii	"\337\320\245\007\265\201\345\321\220\004\216a^0\210"
 346      B581E5D1 
 346      90048E61 
 346      5E3088
 347 07ab DAA8A3E4 		.ascii	"\332\250\243\344?y\244\366\234N\257(Z\003\032\016y\035"
 347      3F79A4F6 
 347      9C4EAF28 
 347      5A031A0E 
 347      791D
 348 07bd 0879C53C 		.ascii	"\010y\305<\322T\371&\217\320\271\227\361\010\235\373"
 348      D254F926 
 348      8FD0B997 
 348      F1089DFB 
 349 07cd 2D6ED4   		.ascii	"-n\324"
 350 07d0 B971BF0C 		.ascii	"\271q\277\014\376e\020\320\345\"\240o\363\210\235\373"
 350      FE6510D0 
 350      E522A06F 
 350      F3889DFB 
 351 07e0 9DB0017D 		.ascii	"\235\260\001}W\017(\031\320\246\303\252\365\321tB\257"
 351      570F2819 
 351      D0A6C3AA 
 351      F5D17442 
 351      AF
 352 07f1 92397C30 		.ascii	"\2229|0\371\213\341k\323\004\3707\247\252\216\016\235"
 352      F98BE16B 
 352      D304F837 
ARM GAS  /tmp/ccHACQMa.s 			page 28


 352      A7AA8E0E 
 352      9D
 353 0802 116F8AED 		.ascii	"\021o\212\355O\307\227>X\301iR\\\311\013p\006+R]R\377"
 353      4FC7973E 
 353      58C16952 
 353      5CC90B70 
 353      062B525D 
 354 0818 C4111DE7 		.ascii	"\304\021\035\347\256\000w\"_\011\247\216\223\351\323"
 354      AE007722 
 354      5F09A78E 
 354      93E9D3
 355 0827 7A013253 		.ascii	"z\0012S@P\200\222\241\325{\272<\371\226\202\340;G\006"
 355      40508092 
 355      A1D57BBA 
 355      3CF99682 
 355      E03B4706 
 356 083b 9EBE94EB 		.ascii	"\236\276\224\353\311\341dq\2128Nk\203S2O\032\333\254"
 356      C9E16471 
 356      8A384E6B 
 356      8353324F 
 356      1ADBAC
 357 084e BB8A879F 		.ascii	"\273\212\207\237uW\213\023\274\307\013\364-\335\346"
 357      75578B13 
 357      BCC70BF4 
 357      2DDDE6
 358 085d 785BC6F1 		.ascii	"x[\306\361\000\223\304x\333\217\015W*\270\215\221\266"
 358      0093C478 
 358      DB8F0D57 
 358      2AB88D91 
 358      B6
 359 086e 9C533856 		.ascii	"\234S8V7\\i\216\222\305e\201\367\271\361H\333\362\215"
 359      375C698E 
 359      92C56581 
 359      F7B9F148 
 359      DBF28D
 360 0881 8744C8AC 		.ascii	"\207D\310\254\226\257aF\332\012\2218\037p\243\221\226"
 360      96AF6146 
 360      DA0A9138 
 360      1F70A391 
 360      96
 361 0892 E8F01F11 		.ascii	"\350\360\037\021\214IdM\037i) \2448\370P\316\365v\360"
 361      8C49644D 
 361      1F692920 
 361      A438F850 
 361      CEF576F0 
 362 08a6 55439674 		.ascii	"UC\226t\367\275\262\033\034\331u\351\254\"7\034\030"
 362      F7BDB21B 
 362      1CD975E9 
 362      AC22371C 
 362      18
 363 08b7 54600D6E 		.ascii	"T`\015n\031qc%h\016\030\222^\364\001 \002n|\310\203"
 363      19716325 
 363      680E1892 
 363      5EF40120 
 363      026E7CC8 
 364 08cc 6FCC6BB9 		.ascii	"o\314k\271\033-\210@\273X\037A\021b\310\245\206G\244"
 364      1B2D8840 
ARM GAS  /tmp/ccHACQMa.s 			page 29


 364      BB581F41 
 364      1162C8A5 
 364      8647A4
 365 08df E9C99429 		.ascii	"\351\311\224)\277\324\312:\036\204\365\217\310\312d"
 365      BFD4CA3A 
 365      1E84F58F 
 365      C8CA64
 366 08ee 61259615 		.ascii	"a%\226\025\032\365\232Q\021b=\217\210\020\305'\365\216"
 366      1AF59A51 
 366      11623D8F 
 366      8810C527 
 366      F58E
 367 0900 6238446F 		.ascii	"b8Do\210\004\021\037G\202\210O\014!b=%\306F\203\216"
 367      8804111F 
 367      4782884F 
 367      0C21623D 
 367      25C64683 
 368 0915 B2492446 		.ascii	"\262I$Fed\210\330\034\266\243T\351\035\205\014\010\337"
 368      656488D8 
 368      1CB6A354 
 368      E91D850C 
 368      08DF
 369 0927 C5C9EF33 		.ascii	"\305\311\3573\204\025\315:V\270ev\324^\332X\033#\263"
 369      8415CD3A 
 369      56B86576 
 369      D45EDA58 
 369      1B23B3
 370 093a C3CF60CB 		.ascii	"\303\317`\3130\254p\207`\3058\266\316\024\304\212,\211"
 370      30AC7087 
 370      60C538B6 
 370      CE14C48A 
 370      2C89
 371 094c 156BAE7A 		.ascii	"\025k\256z\227\331%V\240t\265.\375\263\206\025Y!X\021"
 371      97D92556 
 371      A074B52E 
 371      FDB38615 
 371      59215811 
 372 0960 CFDAF82F 		.ascii	"\317\332\370/\305\212\232\210X\341o9\233=\332w\206\255"
 372      C58A9A88 
 372      58E16F39 
 372      9B3DDA77 
 372      86AD
 373 0972 9110E1D3 		.ascii	"\221\020\341\323H\210\360\231!\"\324P\374\266\031\304"
 373      4888F099 
 373      2122D450 
 373      FCB619C4 
 374 0982 AF56C4EF 		.ascii	"\257V\304\357\363\310\210P\0276~\365z\374j4D\250\257"
 374      F3C88850 
 374      17367EF5 
 374      7AFC6A34 
 374      44A8AF
 375 0995 EB6E9C26 		.ascii	"\353n\234&=:u,-t\0024\204B\301\261\345j)\320\272\023"
 375      3D3A752C 
 375      2D740234 
 375      8442C1B1 
 375      E56A29D0 
 376 09ab 1AB97B10 		.ascii	"\032\271{\020\207n\372\342\305\305\334W\257Ej\332\330"
ARM GAS  /tmp/ccHACQMa.s 			page 30


 376      876EFAE2 
 376      C5C5DC57 
 376      AF456ADA 
 376      D8
 377 09bc F4EE30D0 		.ascii	"\364\3560\320\273\223\364Z\304\307-\324\2139\360\265"
 377      BB93F45A 
 377      C4C72DD4 
 377      8B39F0B5 
 378 09cc A2ED1755 		.ascii	"\242\355\027Uk\011\220\300\246\211\201U\2638}l\026w"
 378      6B0990C0 
 378      A6898155 
 378      B3387D6C 
 378      1677
 379 09de 855ADCBE 		.ascii	"\205Z\334\276\365\350>\256\365\211_A\023\031\265\222"
 379      F5E83EAE 
 379      F5895F41 
 379      1319B592 
 380 09ee D1DDD268 		.ascii	"\321\335\322h\247ftz0k{y\"\333\306\225>\236D\331G=J"
 380      A766747A 
 380      306B7B79 
 380      22DBC695 
 380      3E9E44D9 
 381 0a05 CBFE07BC 		.ascii	"\313\376\007\274\012\227\271\372\234\266\020\372~\343"
 381      0A97B9FA 
 381      9CB610FA 
 381      7EE3
 382 0a13 C2A0EDE1 		.ascii	"\302\240\355\341\332\260\312\341\327i\011\245\012\334"
 382      DAB0CAE1 
 382      D76909A5 
 382      0ADC
 383 0a21 9B9648C7 		.ascii	"\233\226H\307\030\317\272\231\304\265K\215N);sl\270"
 383      18CFBA99 
 383      C4B54B8D 
 383      4E293B73 
 383      6CB8
 384 0a33 B6D700D7 		.ascii	"\266\327\000\327\366\011\\\333\317C\277\341\334\016"
 384      F6095CDB 
 384      CF43BFE1 
 384      DC0E
 385 0a41 AE1D205C 		.ascii	"\256\035 \\\233)p\355\2756\375s\306m\340\332A\201k\301"
 385      9B2970ED 
 385      BD36FD73 
 385      C66DE0DA 
 385      41816BC1 
 386 0a55 4FFC5688 		.ascii	"O\374V\210\205\346H\270\326\343!\0212k\374\251\246E"
 386      85E648B8 
 386      D6E32111 
 386      326BFCA9 
 386      A645
 387 0a67 A4FF2143 		.ascii	"\244\377!C\\#:\034\026\2706\223\254\205~\2529\300C>"
 387      5C233A1C 
 387      16B83693 
 387      AC857EAA 
 387      39C0433E 
 388 0a7b D51C0CE2 		.ascii	"\325\034\014\342\332\325\306,\351\356\207d\347\252\\"
 388      DAD5C62C 
 388      E9EE8764 
ARM GAS  /tmp/ccHACQMa.s 			page 31


 388      E7AA5C
 389 0a8a 5977C325 		.ascii	"Yw\303%7\2743\240@k\020\327\302|\317\031\005q\332n\341"
 389      37BC33A0 
 389      406B10D7 
 389      C27CCF19 
 389      0571DA6E 
 390 0a9f DA178438 		.ascii	"\332\027\2048\017\211\204M6\356X\243\"\316\221Q\020"
 390      0F89844D 
 390      36EE58A3 
 390      22CE9151 
 390      10
 391 0ab0 E7E2A89F 		.ascii	"\347\342\250\237m\216FB\234c\221\020\247\335\020q\216"
 391      6D8E4642 
 391      9C639110 
 391      A7DD1071 
 391      8E
 392 0ac1 50C8BE34 		.ascii	"P\310\2764\350X_\211\220uDF\234\343a;\326\011\275c\035"
 392      E8585F89 
 392      90754446 
 392      9CE3613B 
 392      D609BD63 
 393 0ad6 D1112785 		.ascii	"\321\021'\205\020\347;(\354\332{\325*\247xQ\215\200"
 393      10E73B28 
 393      ECDA7BD5 
 393      2AA77851 
 393      8D80
 394 0ae8 CB28F6F0 		.ascii	"\313(\366\360\224)n\371/\317\343\236\373\354|\367\302"
 394      94296EF9 
 394      2FCFE39E 
 394      FBEC7CF7 
 394      C2
 395 0af9 BCFC973C 		.ascii	"\274\374\227<\356\354'gO\237\346~\342\211\337\271\237"
 395      EEEC2767 
 395      4F9FE67E 
 395      E289DFB9 
 395      9F
 396 0b0a CA7E6CCE 		.ascii	"\312~l\316\223\257L%\332\323\236\334\374y\370g\376\374"
 396      93AF4C25 
 396      DAD39EDC 
 396      FC79F867 
 396      FEFC
 397 0b1c E7A7E430 		.ascii	"\347\247\3440\305\363\374B\356\311Wr\362\247\302\313"
 397      C5F3FC42 
 397      EEC95772 
 397      F2A7C2CB 
 398 0b2c F09CF9B9 		.ascii	"\360\234\371\271g=\271\177\316\237w_\250\302\234\274"
 398      673DB97F 
 398      CE9F775F 
 398      A8C29CBC 
 399 0b3c 050BF25E 		.ascii	"\005\013\362^\324t>6g\366\254\331\257\272s\346\346\344"
 399      D4743E36 
 399      67F6ACD9 
 399      AFBA73E6 
 399      E6E4
 400 0b4e E5E73EFD 		.ascii	"\345\347>\375\312\203\013\246\314e\217\204\341\316}"
 400      CA830BA6 
 400      CC658F84 
ARM GAS  /tmp/ccHACQMa.s 			page 32


 400      E1CE7D
 401 0b5d F525E275 		.ascii	"\365%\342u\317\232\235\375x\266{\0262\273\037\1771g"
 401      CF9A9DFD 
 401      78B67B16 
 401      32BB1F7F 
 401      3167
 402 0b6f FECBCFE7 		.ascii	"\376\313\317\347\272s\026x\346y\236~!'\007E\357\032"
 402      BA731678 
 402      E6799E7E 
 402      21270745 
 402      EF1A
 403 0b81 BEF33C0F 		.ascii	"\276\363<\017^\362_\022\177\207\323qy\236\256c\256\347"
 403      5EF25F12 
 403      7F87D371 
 403      799EAE63 
 403      AEE7
 404 0b93 350FD263 		.ascii	"5\017\322cgg\317I\247M/\314\23779=\363~\306\363\231"
 404      6767CF49 
 404      A74D2FCC 
 404      9F37393D 
 404      F37EC6F3 
 405 0ba8 7941EE82 		.ascii	"yA\356\202\274\374\327\230\222\353Y\030\365\367\371"
 405      BCFCD798 
 405      92EB5918 
 405      F5F7F9
 406 0bb7 CFBEE0F9 		.ascii	"\317\276\340\371?W\330`i"
 406      3F57D860 
 406      69
 407              		.text
 408              		.section	.gnu.lto_sd_lld_stop.part.0.b926381b8180d65a,"",%progbits
 409 0000 789CA592 		.ascii	"x\234\245\222Kh\023A\030\307\347?\263\233\244\245\246"
 409      4B681341 
 409      18C7E73F 
 409      B39BA4A5 
 409      A6
 410 0011 EDCD430E 		.ascii	"\355\315C\016\275\224\322\202Y|\\\004A\005\017\036\352"
 410      BD94D282 
 410      597C5C04 
 410      41050F1E 
 410      EA
 411 0022 A5AD6711 		.ascii	"\245\255g\021+*\004Z\032\361$d\332\354j\217\0255`\261"
 411      2B2A045A 
 411      1AF12464 
 411      DAEC6A8F 
 411      153560B1 
 412 0036 1494D06A 		.ascii	"\024\224\320j\355+\365\225TK\014\212\007\361\005\202"
 412      ED2BF595 
 412      544B0C8A 
 412      07F10582 
 413 0046 070F296D 		.ascii	"\007\017)mY|\201\255\217\223m\327\357\333\225Fo\026"
 413      597C81AD 
 413      8F936DD7 
 413      EFDB9546 
 413      6F16
 414 0058 87DDF976 		.ascii	"\207\335\371vv\276\371\375\377\363\315\030\002\202\333"
 414      76BEF9FD 
 414      FFF3CD18 
ARM GAS  /tmp/ccHACQMa.s 			page 33


 414      0282DB
 415 0067 5925C45E 		.ascii	"Y%\304^\212\333\350\205)`\014\274\240\017\003\322\217"
 415      8ADBE885 
 415      29600CBC 
 415      A00F03D2 
 415      8F
 416 0078 128A636F 		.ascii	"\022\212coD\001\374\241#\020)C*\244\360C\256I\224\316"
 416      4401FCA1 
 416      23102943 
 416      2AA4F043 
 416      AE4994CE 
 417 008c BB79D93C 		.ascii	"\273y\331<\242\251\315g\335\232s\332\331\352\020\320"
 417      A2A9CD67 
 417      DD9A73DA 
 417      D9EA10D0 
 418 009c 933E5B60 		.ascii	"\223>[`\004\315\202\322^\333SW\325w\351\020\305\240"
 418      04CD82D2 
 418      5EDB5357 
 418      D577E910 
 418      C5A0
 419 00ae E1CAF3C1 		.ascii	"\341\312\363\301\305(\017%\032h\2708\371\250\\\255\366"
 419      C5280F25 
 419      1A68B838 
 419      F9A85CAD 
 419      F6
 420 00bf 8033DDA7 		.ascii	"\2003\335\247K\027\314\306\353Z\367i\235\323\032v\203"
 420      4B17CCC6 
 420      EB5AF769 
 420      9DD31A76 
 420      83
 421 00d0 A3146E42 		.ascii	"\243\024nB\021\0227\020\303(b>\232r\027\246\327/o\011"
 421      11123710 
 421      C328623E 
 421      9A7217A6 
 421      D72F6F09 
 422 00e4 D92CDE80 		.ascii	"\331,\336\20014\006\262\270\205\020m\015\374g\262Mk"
 422      313406B2 
 422      B885106D 
 422      0DFC67B2 
 422      4D6B
 423 00f6 CF4BEB81 		.ascii	"\317K\353\201\331\216\372j\010G\031\222;\305\235\301"
 423      D98EFA6A 
 423      08471992 
 423      3BC59DC1 
 424 0106 9DC99D10 		.ascii	"\235\311\235\020\313\264\220\267\267\"\015\216j\001"
 424      CBB490B7 
 424      B7220D8E 
 424      6A01
 425 0114 7DF5ACF0 		.ascii	"}\365\254\360\366\332\334\305h\313(+\350\\\261\216\222"
 425      F6DADCC5 
 425      68CB282B 
 425      E85CB18E 
 425      92
 426 0125 95F8BDB3 		.ascii	"\225\370\275\263q\264P\302\352\263\307s\221\246,\333"
 426      71B450C2 
 426      EAB3C773 
 426      91A62CDB 
ARM GAS  /tmp/ccHACQMa.s 			page 34


 427 0135 2DCEB8FB 		.ascii	"-\316\270\373.\245\365\301\015\277\330\360\313\3130"
 427      2EA5F5C1 
 427      0DBFD8F0 
 427      CBCB30
 428 0144 812641DC 		.ascii	"\201&A\334:\301\306x\271`=\351\353\271(\025\246\335"
 428      3AC1C678 
 428      B9603DE9 
 428      EBB92815 
 428      A6DD
 429 0156 2B51F69E 		.ascii	"+Q\366\236V p\306)\275\014s\211L\277,\366\320\023\267"
 429      562070C6 
 429      29BD0C73 
 429      894CBF2C 
 429      F6D013B7 
 430 016a 2A18EAE5 		.ascii	"*\030\352\345~\315E\374T\376\2317\2071\324K\336\352"
 430      7ECD45FC 
 430      54FE9937 
 430      8731D44B 
 430      DEEA
 431 017c 1C15C214 		.ascii	"\034\025\302\024\251Mruh\362k\346\325|\2155\256\355"
 431      A94D7275 
 431      68F26BE6 
 431      D57C8D35 
 431      AEED
 432 018e 5E9E0B63 		.ascii	"^\236\013c\032\303X\367\017\0059X\302Ez5\024\210\311"
 432      1AC358F7 
 432      0F053958 
 432      C2457A35 
 432      1488C9
 433 01a1 402FFBE6 		.ascii	"@/\373\346\333\227Z\0260\340ye\257\0263D\"[\031p\332"
 433      DB975A16 
 433      30E07965 
 433      AF163344 
 433      225B1970 
 434 01b6 66E56E57 		.ascii	"f\345nW\344\356\300\"\021F\025\020(\252\315\322\356"
 434      E4EEC022 
 434      11461510 
 434      28AACDD2 
 434      EE
 435 01c7 FA34BEAE 		.ascii	"\3724\276\256\270\367\267y\203h\377\347\364~\205\235"
 435      B8F7B779 
 435      8368FFE7 
 435      F47E859D 
 436 01d7 67A7C69F 		.ascii	"g\247\306\237N\315\177\246\201Y\205\012k\226|\276\207"
 436      4ECD7FA6 
 436      8159850A 
 436      6B967CBE 
 436      87
 437 01e8 5D1C3CC1 		.ascii	"]\034<\301$N\315\347?\277\013\247\326t\277\217\211x"
 437      244ECDE7 
 437      3FBF0BA7 
 437      D674BF8F 
 437      8978
 438 01fa 74F2020F 		.ascii	"t\362\002\017\220\342\271\017Kc\023\021.~\025v\341!"
 438      90E2B90F 
 438      4B631311 
 438      2E7E1576 
ARM GAS  /tmp/ccHACQMa.s 			page 35


 438      E121
 439 020c 628EAAF6 		.ascii	"b\216\252\366/\207\362/\307G\2764~[&8\375\241\225\273"
 439      2F87F22F 
 439      C747BE34 
 439      7E5B2638 
 439      FDA195BB 
 440 0220 E3712B78 		.ascii	"\343q+x\272\222\326\311\243\011\253\273\253\347t\322"
 440      BA92D6C9 
 440      A309ABBB 
 440      ABE774D2 
 441 0230 6AEF38B4 		.ascii	"j\3578\264s\207\325\332z\300:\334\276\277\255\343\314"
 441      7387D5DA 
 441      7AC03ADC 
 441      BEBFADE3 
 441      CC
 442 0241 769E3B92 		.ascii	"v\236;\222<\336s\212B\"\321\031?&T\262\263\373\027g"
 442      3CDE738A 
 442      4222D119 
 442      3F2654B2 
 442      B3FB1767 
 443 0255 0F3A40   		.ascii	"\017:@"
 444              		.text
 445              		.section	.gnu.lto_Vector110.b926381b8180d65a,"",%progbits
 446 0000 789C6D4F 		.ascii	"x\234mO;H\003A\024|\263\033\223#(\330Yha\033\204;\242"
 446      3B480341 
 446      147CB31B 
 446      932328D8 
 446      5968611B 
 447 0017 58889560 		.ascii	"X\210\225`\031\233$b)\242\202B \222\023\333\333\230"
 447      199B2462 
 447      29A28242 
 447      209213DB 
 447      DB98
 448 0029 1C6A67A3 		.ascii	"\034jg\243\235\304.\361\217e\272#h'Z\005\013\021\304"
 448      9DC42EF1 
 448      8F65BA23 
 448      68275A05 
 448      0B11C4
 449 003c 4242B088 		.ascii	"BB\260\210\250E\002\361|{)\365\261\313,of\347\315\013"
 449      A84502F1 
 449      7C7B29F5 
 449      B1CB2C6F 
 449      66E7CD0B 
 450 0050 1148D724 		.ascii	"\021H\327$\3034\3430_H\202\330\277'\312\033\002\320"
 450      C334E330 
 450      5F4882D8 
 450      BF27CA1B 
 450      02D0
 451 0062 0F65801C 		.ascii	"\017e\200\034\001\007\337\242+P\333y\253\212XYq\275"
 451      0107DFA2 
 451      2B50DB79 
 451      AB8A5859 
 451      71BD
 452 0074 DC76A2AA 		.ascii	"\334v\242\252\342\301\225D\276\010\234\010e\304\210"
 452      E2C19544 
 452      BE089C08 
 452      65C488
ARM GAS  /tmp/ccHACQMa.s 			page 36


 453 0083 65AFD73F 		.ascii	"e\257\327?\007\003\341\242\226\215\366HT\020\326\343"
 453      0703E1A2 
 453      968DF648 
 453      5410D6E3 
 454 0093 AE929EF2 		.ascii	"\256\222\236\362\375\202R\245x{,D\324bR\217\371\020"
 454      FD8252A5 
 454      787B2C44 
 454      D462528F 
 454      F910
 455 00a5 42A36CA0 		.ascii	"B\243l\240\350=?B\313\265Q\265\372\376\024q\272jW\251"
 455      E83D3F42 
 455      CBB551B5 
 455      FAFE1471 
 455      BA6A57A9 
 456 00b9 4157C217 		.ascii	"AW\302\027\354\201\0238\232;tk\017\221/\341Jn\376\221"
 456      EC811338 
 456      9A3B746B 
 456      0F912FE1 
 456      4A6EFE91 
 457 00cd 8A3D8EA5 		.ascii	"\212=\216\245\333\315\273\372M\264\204\243\274\012\372"
 457      DBCDBBFA 
 457      4DB484A3 
 457      BC0AFA
 458 00dc 1267BCCB 		.ascii	"\022g\274\313)F\002\362\270\323\256\367\363\037C\233"
 458      294602F2 
 458      B8D3AEF7 
 458      F31F439B 
 459 00ec 9CA3D49B 		.ascii	"\234\243\324\233\213\0138\256\014Q\003\005\2575\364"
 459      8B0B38AE 
 459      0C510305 
 459      AF35F4
 460 00fb 7F943E9F 		.ascii	"\177\224>\237\003\023.9\212+\303\324\304\266\367\271"
 460      03132E39 
 460      8A2BC3D4 
 460      C4B6F7B9 
 461 010b 104875B5 		.ascii	"\020Hu\2658\022o\303\212)\323\264z'k[kK\031k#\233\333"
 461      38126FC3 
 461      8A29D3B4 
 461      7A276B5B 
 461      6B4B196B 
 462 0122 B4AD547A 		.ascii	"\264\255Tznb\334J$f\255\371\324L2\275\025\327\334\242"
 462      6E62DC4A 
 462      2466ADF9 
 462      D44C32BD 
 462      15D7DCA2 
 463 0136 BD9A5B67 		.ascii	"\275\232[g\310dV\314e\372\005\200\264\202\177"
 463      C86456CC 
 463      65FA0580 
 463      B4827F
 464              		.text
 465              		.section	.gnu.lto_sd_lld_init.b926381b8180d65a,"",%progbits
 466 0000 789C9550 		.ascii	"x\234\225P=,CQ\024\276\337\275O_\343'\261\353`\265\364"
 466      3D2C4351 
 466      14BEDFBD 
 466      4F5FE327 
 466      B1EB60B5 
 467 0015 FA99C424 		.ascii	"\372\231\304$1\262\264\314\215 !iBT\254\357\026\017"
ARM GAS  /tmp/ccHACQMa.s 			page 37


 467      31B2B4CC 
 467      8D202169 
 467      4254ACEF 
 467      160F
 468 0027 5DB0F859 		.ascii	"]\260\370Y\004\203\224RmYt{\021\24305\006\00314\322"
 468      04839452 
 468      6D59747B 
 468      11A33035 
 468      06033134 
 469 003c 18DA8441 		.ascii	"\030\332\204A\023\236s\337[\232\230\234\334\233ss\276"
 469      139E73DF 
 469      5B9A989C 
 469      DC9B7373 
 469      BE
 470 004d EF7CE7BB 		.ascii	"\357|\347\273\307``:.)\015P\356\240\013\301\300\267"
 470      C760603A 
 470      2E290D50 
 470      EEA00BC1 
 470      C0B7
 471 005f EE194B06 		.ascii	"\356\031K\0069\240\037*\010fqX\370\344\337\0347k\345"
 471      39A01F2A 
 471      08667158 
 471      F8E4DF1C 
 471      376BE5
 472 0072 22EF4A2B 		.ascii	"\"\357J+\212\227\343J\237:q`\013\306\\\356)1\244\321"
 472      8A97E34A 
 472      9F3A7160 
 472      0BC65CEE 
 472      2931A4D1 
 473 0086 C588F65A 		.ascii	"\305\210\366Z\370\331n\013\254hZ\247\017\342\004\001"
 473      F8D96E0B 
 473      AC685AA7 
 473      0FE20401 
 474 0096 3D2E1771 		.ascii	"=.\027q\224\353.+U\353\256K\203\261*\201zL\215s\235"
 474      94EB2E2B 
 474      55EBAE4B 
 474      83B12A81 
 474      7A4C8D73 
 475 00ab C51B569D 		.ascii	"\305\033V\235\335gh\272\026*\026\337\237L\353[\255+"
 475      DD6768BA 
 475      162A16DF 
 475      9F4CEB5B 
 475      AD2B
 476 00bd D56E0BB8 		.ascii	"\325n\013\270\2344p\012Kc;\366\315\203\371\301mA\305"
 476      9C34700A 
 476      4B633BF6 
 476      CD83F9C1 
 476      6D41C5
 477 00d0 3F549E22 		.ascii	"?T\236\"[\272\\\271+\3356\037`?\251\274\272\300\031"
 477      5BBA5CB9 
 477      2BDD361F 
 477      603FA9BC 
 477      BAC019
 478 00e3 FD258390 		.ascii	"\375%\203\220\007\036\326\277J\255\324\023\324\"\347"
 478      071ED6BF 
 478      4AADD413 
 478      D422E7
ARM GAS  /tmp/ccHACQMa.s 			page 38


 479 00f2 38F0E722 		.ascii	"8\360\347\"\013\253Q\337\000\303\005B\0153\210\337\344"
 479      0BAB51DF 
 479      00C30542 
 479      0D3388DF 
 479      E4
 480 0103 72EEB373 		.ascii	"r\356\263s\260l\021`e,}\344\313\217B\027\377a'\337`"
 480      B06C1160 
 480      652C7DE4 
 480      CB8F4217 
 480      FF6127DF 
 481 0118 67E33A9F 		.ascii	"g\343:\237\012\312\254^\233j\263\205\211\002Y\372\361"
 481      0ACAAC5E 
 481      9B6AB385 
 481      890259FA 
 481      F1
 482 0129 768B4B48 		.ascii	"v\213KHbd6\217\326Z\264'\023j/\251\014\\Qk\005K\316"
 482      6264368F 
 482      D65AB427 
 482      136A2FA9 
 482      0C5C516B 
 483 0140 67CC33A3 		.ascii	"g\3143\243\243J\373\240UR[\1778,\3753\233\220\323\343"
 483      A34AFBA0 
 483      55525B7F 
 483      382CFD33 
 483      9B90D3E3 
 484 0154 7139373B 		.ascii	"q97;\277\220\220\321\321\221\276^9<<$\307\242\203\221"
 484      BF9090D1 
 484      D191BE5E 
 484      393C3C24 
 484      C7A28391 
 485 0168 D1C51E8D 		.ascii	"\321\305\036\215\305\022S\3633\224\342\361\311\360\004"
 485      C51253F3 
 485      3394E2F1 
 485      C9F004
 486 0177 FB05890A 		.ascii	"\373\005\211\012\256\364"
 486      AEF4
 487              		.text
 488              		.section	.gnu.lto_sd_lld_start.b926381b8180d65a,"",%progbits
 489 0000 789C9D54 		.ascii	"x\234\235TKLTW\030>\337=\3675\017\020w\244\301\304\035"
 489      4B4C5457 
 489      183EDF3D 
 489      F7350F10 
 489      77A4C1C4 
 490 0015 7121B7AD 		.ascii	"q!\267\255nL4\251\211\351\246vQ\264[\215\301GMI!b\334"
 490      6E4C34A9 
 490      89E9A676 
 490      51B45B8D 
 490      C1474D49 
 491 002c CE81995B 		.ascii	"\316\201\231[qG\332H\210\217\330\2441\326R\300\361="
 491      7147DA48 
 491      888FD8A4 
 491      31D652C0 
 491      F13D
 492 003e D8EA38BC 		.ascii	"\330\3528\274\024|&\272h5\212\014\231Vt\001Z\342\003"
 492      147C26BA 
 492      68358A0C 
 492      99567401 
ARM GAS  /tmp/ccHACQMa.s 			page 39


 492      5AE203
 493 0051 61FCFF73 		.ascii	"a\374\377s0\240\355\242\366d\346\334{\376{\376\357\373"
 493      30A0EDA2 
 493      F664E6DC 
 493      7BFE7BFE 
 493      EFFB
 494 0063 FEEFFEE7 		.ascii	"\376\357\376\347\332\002\202\307g\216\020\237\322u\003"
 494      DA0282C7 
 494      678E109F 
 494      D27503
 495 0072 FDE10B58 		.ascii	"\375\341\013X-\327\204h\364-K\336\215\011\025\265O\346"
 495      2DD78468 
 495      F42D4BDE 
 495      8D0915B5 
 495      4FE6
 496 0084 84507109 		.ascii	"\204Pq\011\333\304m\313\351_Dqo\360C\012;\226;\351\361"
 496      DBC46DCB 
 496      E95F4471 
 496      6FF0430A 
 496      3B963BE9 
 497 0099 6A7F3FEF 		.ascii	"j\177?\357r\341\231]\036\3007\312\207HX\322v\\\017\011"
 497      72E1995D 
 497      1EC037CA 
 497      874858D2 
 497      765C0F09 
 498 00ad 4C5AD316 		.ascii	"LZ\323\026r\273\013\031k\311\021Ec\270\357\307\370\267"
 498      72BB0B19 
 498      6BC91145 
 498      63B8EFC7 
 498      F8B7
 499 00bf 2A2C0FA5 		.ascii	"*,\017\245\020EK\213\0218\202%\264\353f\352\330\001"
 499      10454B8B 
 499      11388225 
 499      B4EB66EA 
 499      D801
 500 00d1 F9B7154A 		.ascii	"\371\267\025J\300\246\345\304\325}\371R^ZXL\313|\327"
 500      C0A6E5C4 
 500      D57DF952 
 500      5E5A584C 
 500      CB7CD7
 501 00e4 C5FB51B9 		.ascii	"\305\373Q\271\022\202\356_\015\365\236\367+\017+\325"
 501      1282EE5F 
 501      0DF59EF7 
 501      2B0F2BD5 
 502 00f4 A4D4F75B 		.ascii	"\244\324\367[T$\224\022?C\022\036\216\242\002?\241B"
 502      54249412 
 502      3F43121E 
 502      8EA2023F 
 502      A142
 503 0106 5048A01D 		.ascii	"PH\240\035\225\264\373\341L\327\237\266\374Dg\036\275"
 503      95B4FBE1 
 503      4CD79FB6 
 503      FC44671E 
 503      BD
 504 0117 B7FF8BD9 		.ascii	"\267\377\213\331\304I\235h\343\227w\023m\201\016T\362"
 504      C4499D68 
 504      E3977713 
ARM GAS  /tmp/ccHACQMa.s 			page 40


 504      6D810E54 
 504      F2
 505 0128 EE91F4CC 		.ascii	"\356\221\364\314\336\0227\305\272\027\033\265\350\204"
 505      DE1237C5 
 505      BA171BB5 
 505      E884
 506 0136 CB167655 		.ascii	"\313\026vUgU\261\230Tj\257;5\260\260\014:\205\204\323"
 506      6755B198 
 506      546AAF3B 
 506      35B0B00C 
 506      3A8584D3 
 507 014a EC80795D 		.ascii	"\354\200y]\002r<\232\\\237\247(O1\236Jx\022b\234\320"
 507      02723C9A 
 507      5C9FA728 
 507      4F319E4A 
 507      7812629C 
 508 015f D8AD09CB 		.ascii	"\330\255\011\313\342\253|\200\324\037\311|\357&&HJI"
 508      E2AB7C80 
 508      D41FC97C 
 508      EF262648 
 508      4A49
 509 0171 E4AD61EE 		.ascii	"\344\255a\356\272\307\365\333\204\336E\312xLXR\334\215"
 509      BAC7F5DB 
 509      84DE45CA 
 509      784C5852 
 509      DC8D
 510 0183 C9113465 		.ascii	"\311\0214eO\214\014C\313\351\320U&_^xZ\232\230VmJ\225"
 510      4F8C0C43 
 510      CBE9D055 
 510      265F5E78 
 510      5A9A9856 
 511 019a 51CE1EF2 		.ascii	"Q\316\036\362\227K\270\274\257\375\353C8\330\330\242"
 511      974BB8BC 
 511      AFFDEB43 
 511      38D8D8A2 
 512 01aa C31E8ED1 		.ascii	"\303\036\216\321;\321`\364\2548v\2743bR\324*\346I\343"
 512      3BD160F4 
 512      AC3876BC 
 512      336252D4 
 512      2AE649E3 
 513 01be 101587E3 		.ascii	"\020\025\207\343Hh*[+#\2562]^RB\024\320\324=q\265m\271"
 513      48682A5B 
 513      2B23AE32 
 513      5D5E5242 
 513      14D0D43D 
 514 01d6 91E9CE97 		.ascii	"\221\351\316\227)\265\301\317\006\006\233\343D\210P"
 514      29B5C1CF 
 514      06069BE3 
 514      448850
 515 01e5 FA49E9E0 		.ascii	"\372I\351\340\304,\327\341\321\246N/X\032\312\010N\022"
 515      C42CD7E1 
 515      D1A64E2F 
 515      581ACA08 
 515      4E12
 516 01f7 CB8C7EF5 		.ascii	"\313\214~\3658\205@\350\312?\230\003<\265\373J:\312"
 516      388540E8 
 516      CA3F9803 
ARM GAS  /tmp/ccHACQMa.s 			page 41


 516      3CB5FB4A 
 516      3ACA
 517 0209 801100A7 		.ascii	"\200\021\000\247M\335O\0002\305\302\333u\222\005\365"
 517      4DDD4F00 
 517      32C5C2DB 
 517      759205F5 
 518 0219 78532BCE 		.ascii	"xS+\316 !/I\222\355\210\376E\306\317b_\2434\300\016"
 518      20212F49 
 518      92ED88FE 
 518      45C6CF62 
 518      5FA334C0 
 519 022e 6566328F 		.ascii	"ef2\217\357x\224\331\254\255\220{H0+\033\273r\2737\312"
 519      EF7894D9 
 519      ACAD907B 
 519      48302B1B 
 519      BB72BB37 
 520 0243 16291DF7 		.ascii	"\026)\035\367q\226,z#\373\207\227/n\307M\216Z\3065f"
 520      71962C7A 
 520      23FB8797 
 520      2F6EC74D 
 520      8E5AC635 
 521 0258 8C45DDDA 		.ascii	"\214E\335\332\"6\311\245\306\220\005\344\272\323\243"
 521      2236C9A5 
 521      C69005E4 
 521      BAD3A3
 522 0267 6DA586CC 		.ascii	"m\245\206\314\233oKT\333\222:\330W\210\230\245\032o"
 522      9B6F4B54 
 522      DB923AD8 
 522      578898A5 
 522      1A6F
 523 0279 56DCDF8F 		.ascii	"V\334\337\217\356Oe\034\343T\014\277R\367\235\233\345"
 523      EE4F651C 
 523      E3540CBF 
 523      52F79D9B 
 523      E5
 524 028a 7CD27A63 		.ascii	"|\322zc8\036t\250T#\353\211\3437\355\027w\035\316\223"
 524      381E74A8 
 524      5423EB89 
 524      E337ED17 
 524      771DCE93 
 525 029e 5F05249F 		.ascii	"_\005$\237\273\206\3107\\\251\366\354-\233\301]P\243"
 525      BB86C837 
 525      5CA9F6EC 
 525      2D9BC15D 
 525      50A3
 526 02b0 E202E190 		.ascii	"\342\002\341\220\240V\335\035\357C\224\235#\272\210"
 526      A056DD1D 
 526      EF43949D 
 526      23BA88
 527 02bf 80E019A6 		.ascii	"\200\340\031\246\033\206+\372>H9\215\244\017L\317\333"
 527      1B862BFA 
 527      3E48398D 
 527      A40F4CCF 
 527      DB
 528 02d0 926384F4 		.ascii	"\222c\204\364\377\025\366\316\341\366\261\302\330|\205"
 528      FF15F6CE 
 528      E1F6B1C2 
ARM GAS  /tmp/ccHACQMa.s 			page 42


 528      D87C85
 529 02df 25FF0909 		.ascii	"%\377\011\011\214\323?\2073@\372\376B\230\375\256\206"
 529      8CD33F87 
 529      3340FAFE 
 529      4298FDAE 
 529      86
 530 02f0 51C43FFA 		.ascii	"Q\304?\372\244\244\310\216\340\022\275p\376\226\214"
 530      A4A4C88E 
 530      E012BD70 
 530      FE968C
 531 02ff B677FA6C 		.ascii	"\266w\372lu)\226\3432*\270!{~O\317\206\342\030DE(\027"
 531      752996E3 
 531      322AB821 
 531      7B7E4FCF 
 531      86E21844 
 532 0316 E8C6F0F4 		.ascii	"\350\306\360\364\351a\350\251|\371\277c\227\025Y\003"
 532      E961E8A9 
 532      7CF9BF63 
 532      97155903 
 533 0326 86089B5A 		.ascii	"\206\010\233Z\224\316W(\027\2121:\333\323y_g\360\030"
 533      94CE5728 
 533      178A313A 
 533      DBD3795F 
 533      67F018
 534 0339 277E42A2 		.ascii	"'~B\242\215+\252\252\002\363\253k\010\276\332T\033\324"
 534      8D2BAAAA 
 534      02F3AB6B 
 534      08BEDA54 
 534      1BD4
 535 034b D7EDD8D9 		.ascii	"\327\355\330\331\020\254[\377\371\262\217\203\265k\327"
 535      10AC5BFF 
 535      F9B28F83 
 535      B56BD7
 536 035a 045FAE5B 		.ascii	"\004_\256[]\275~\327G\374lc\303\226\035\333\351R[\273"
 536      5DBD7ED7 
 536      47FC6C63 
 536      C3961DDB 
 536      E9525BBB 
 537 036e B9AA46C8 		.ascii	"\271\252F\310\206\315\365nM\3357[\267o{\015\256\302"
 537      86CDF56E 
 537      4DDD375B 
 537      B76F7B0D 
 537      AEC2
 538 0380 DF9F     		.ascii	"\337\237"
 539              		.text
 540              		.section	.gnu.lto_default_config.b926381b8180d65a,"",%progbits
 541 0000 789C6361 		.ascii	"x\234ca`d\000\201` \206\260\030\030\37621\256\177\263"
 541      60640081 
 541      602086B0 
 541      1818FE32 
 541      31AE7FB3 
 542 0014 F327EF17 		.ascii	"\363'\357\027\246Vf\240 \220\273hM\307\021\016\020\227"
 542      A65666A0 
 542      2090BB68 
 542      4DC7110E 
 542      1097
 543 0026 91B1A185 		.ascii	"\221\261\241\205\035(0y\367\326\225\254\026\333\032"
ARM GAS  /tmp/ccHACQMa.s 			page 43


 543      1D283079 
 543      F7D695AC 
 543      16DB1A
 544 0035 3A163438 		.ascii	":\02648\26423\375cb`\\\301(\363\217\211\221q9\210b\202"
 544      B43233FD 
 544      6362605C 
 544      C128F38F 
 544      89917139 
 545 004c 50CC208A 		.ascii	"P\314 \212\201q%\243\005\003\000_\321\033\357"
 545      817125A3 
 545      0503005F 
 545      D11BEF
 546              		.text
 547              		.section	.gnu.lto_sd_lld_stop.b926381b8180d65a,"",%progbits
 548 0000 789C9D53 		.ascii	"x\234\235SMHTQ\024\276\347\3367\277N\3452B\301\215\231"
 548      4D485451 
 548      14BEE7DE 
 548      37BF4EE5 
 548      3242C18D 
 549 0015 423ECD36 		.ascii	"B>\3156A\213\244\226\266Hm\325\"\"\205\002Aq\252\355"
 549      418BA496 
 549      B6486DD5 
 549      22228502 
 549      4171AAED 
 550 0029 DCF97965 		.ascii	"\334\371ye\021\221D\301\244\246\030\242V:cf5f6\216b"
 550      119144C1 
 550      A4A618A2 
 550      563A6366 
 550      3566368E 
 551 003e 606AB410 		.ascii	"`j\264\020\241\037,\215!\206\026\216)Q\251\3239w&\177"
 551      A11F2C8D 
 551      2186168E 
 551      2951A9D3 
 551      3977267F 
 552 0052 B045F498 		.ascii	"\260E\364\230\231;\367\276\357|\337\371\316=Gc\300\350"
 552      993BF7BE 
 552      EF7CDFF9 
 552      CE3D4763 
 552      C0E8
 553 0064 D9AD3156 		.ascii	"\331\2551V\214\353a\374\202\231\001\277>\311\230\333"
 553      8CEB61FC 
 553      829901BF 
 553      3EC998DB 
 554 0074 CAB918CD 		.ascii	"\312\271\030\315d\322n\032+`\322!\270\266d\241]\303"
 554      64D26E1A 
 554      2B60D221 
 554      B8B664A1 
 554      5DC3
 555 0086 28C3AD06 		.ascii	"(\303\255\006&B\201\011\200Vi\005\346\342B3\201\013"
 555      26428109 
 555      80566905 
 555      E6E24233 
 555      810B
 556 0098 96F80A87 		.ascii	"\226\370\012\207\310\245h\210\347\266K|>\266E\035\027"
 556      C8A56888 
 556      E7B64B7C 
 556      3EB6451D 
ARM GAS  /tmp/ccHACQMa.s 			page 44


 556      17
 557 00a9 A5B1D310 		.ascii	"\245\261\323\020\214%\270Rd\320\016\271\210z\343\013"
 557      8C25B852 
 557      64D00EB9 
 557      887AE30B 
 558 00b9 368A456E 		.ascii	"6\212En\010\000\015\267\361\211\333s\333i\313!\013\267"
 558      08000DB7 
 558      F189DB73 
 558      DB69CB21 
 558      0BB7
 559 00cb 7381A119 		.ascii	"s\201\241\031\2738\010\014\377/\277\032\031\264\346"
 559      BB38080C 
 559      FF2FBF1A 
 559      19B4E6
 560 00da B449E991 		.ascii	"\264I\351\221\262\276R\332\014!\340\036\010\344\203"
 560      B2BE52DA 
 560      0C21E01E 
 560      08E483
 561 00e9 4EC8800E 		.ascii	"N\310\200\016\310`x\304\340>\344\020|\266g\365\3466"
 561      C86078C4 
 561      E03EE410 
 561      7CB667F5 
 561      E636
 562 00fb B38FE4B3 		.ascii	"\263\217\344\263\222\242\360\000\314d7P\032\226\211"
 562      92A2F000 
 562      CC643750 
 562      1A9689
 563 010a 8457CA86 		.ascii	"\204W\312\206\302k}\232\235\003\205\010\014\3264\374"
 563      C26B7D9A 
 563      9D038508 
 563      0CD634FC 
 564 011a 3131368F 		.ascii	"116\217h\262\024\347\234V\021\005O\177|\302\277\237"
 564      68B214E7 
 564      9C561105 
 564      4F7F7CC2 
 564      BF9F
 565 012c 08BC4220 		.ascii	"\010\274B \371-#\362\332Bi\012\225\332\367\227cu\216"
 565      F92D23F2 
 565      DA42690A 
 565      95DAF797 
 565      63758E
 566 013f 66680243 		.ascii	"fh\002C \200C\027\346B\347m\237=\335\026}\257!,\320"
 566      20804317 
 566      E642E76D 
 566      9F3DDD16 
 566      7DAF212C 
 567 0154 0DCDB0AA 		.ascii	"\015\315\260\252\254C\000t\366\011|o\275\273\326\011"
 567      AC430074 
 567      F6097C6F 
 567      BDBBD609 
 568 0164 079AAF76 		.ascii	"\007\232\257v\332\211\320\002\034\202\024\316H_\260"
 568      DA89D002 
 568      1C8214CE 
 568      485FB0
 569 0173 D14C25DF 		.ascii	"\321L%\3373\351\267'\321\332\006=7\271;\301\376\252"
 569      33E9B727 
 569      D1DA063D 
ARM GAS  /tmp/ccHACQMa.s 			page 45


 569      37B93BC1 
 569      FEAA
 570 0185 DA45EF64 		.ascii	"\332E\357d\032\032\202\036\245M\326\341!j\317\242\004"
 570      1A1A821E 
 570      A54DD6E1 
 570      216ACFA2 
 570      04
 571 0196 5221B223 		.ascii	"R!\262#6\263,\304!\345\341\327\235\306\372\035\331w"
 571      36B32CC4 
 571      21E5E1D7 
 571      9DC6FA1D 
 571      D977
 572 01a8 A9BCE1DE 		.ascii	"\251\274\341\336h\201_\206}Y\024\334\273\271\304\312"
 572      68815F86 
 572      7D5914DC 
 572      BBB9C4CA 
 573 01b8 C123C8C6 		.ascii	"\301#\310\306DX\024\"\213\301\367\255bs\265\345\267"
 573      44581422 
 573      8BC1F7AD 
 573      6273B5E5 
 573      B7
 574 01c9 F1638450 		.ascii	"\361c\204P\365Np\330r\031\320\207-\306\340\261Ja\255"
 574      F54E70D8 
 574      7219D087 
 574      2DC6E0B1 
 574      4A61AD
 575 01dc 92A64D95 		.ascii	"\222\246M\225$g\351\206\260\242\014<I\371\232^X\030"
 575      2467E986 
 575      B0A20C3C 
 575      49F99A5E 
 575      5818
 576 01ee 76A02F9F 		.ascii	"v\240/\237[\206\343W0\304\006O\2253\236\244\204\020"
 576      5B86E357 
 576      30C4064F 
 576      95339EA4 
 576      8410
 577 0200 E81B196D 		.ascii	"\350\033\031m\300\240\037c)\315yL3\245\370\217\022\324"
 577      C0A01F63 
 577      29CD794C 
 577      33A5F88F 
 577      12D4
 578 0212 603678A6 		.ascii	"`6x\246\004DJ`\000\3645\306\340\207\377c|\256\030\265"
 578      04444A60 
 578      00F435C6 
 578      E087FF63 
 578      7CAE18B5 
 579 0226 14E3608A 		.ascii	"\024\343`\212q\026<\341Pt\217jQ\252]\262A\002\223n\221"
 579      71163CE1 
 579      50748F6A 
 579      51AA5DB2 
 579      4102936E 
 580 023b BC751AA8 		.ascii	"\274u\032\250P\350\353;\213kE\326)\025q\031\207\211"
 580      50E8EB3B 
 580      8B6B45D6 
 580      29157119 
 580      8789
 581 024d 1462E353 		.ascii	"\024b\343S#\366uu3\274\300\011\374\323\013-?\177L9\222"
ARM GAS  /tmp/ccHACQMa.s 			page 46


 581      23F67575 
 581      33BCC009 
 581      FCD30B2D 
 581      3F7F4C39 
 582 0262 31B288DA 		.ascii	"1\262\210\3325\214\362X\374!p\245ZL\303\341\020(\237"
 582      358CF258 
 582      FC2170A5 
 582      5A4CC3E1 
 582      10289F
 583 0275 9EEA89E9 		.ascii	"\236\352\211\351\326\301\033\333\363:\350\252\302M1"
 583      D6C11BDB 
 583      F33AE8AA 
 583      C24D31
 584 0284 ABBFC54A 		.ascii	"\253\277\305JS\225\232\331\010\344a.\354\013x\025\234"
 584      53959AD9 
 584      08E4612E 
 584      EC0B7815 
 584      9C
 585 0295 6DC9CA9E 		.ascii	"m\311\312\236\300\333`0\214\364\206HS\002&5C1TH\222"
 585      C0DB6030 
 585      8CF48648 
 585      53022635 
 585      43315448 
 586 02aa CC634BE0 		.ascii	"\314cK\340\011\302\016\344\347\353\311O\265S?s\252J"
 586      09C20EE4 
 586      E7EBC94F 
 586      B5533F73 
 586      AA4A
 587 02bc AFA9AE3D 		.ascii	"\257\251\256=\347\324\313\312\217\026\355\323KJ\216"
 587      E7D4CBCA 
 587      8F16EDD3 
 587      4B4A8E
 588 02cb E8C7CB8A 		.ascii	"\350\307\313\212K\313/\024\322\273\223\316\312\332\263"
 588      4BCB2F14 
 588      D2BB93CE 
 588      CADAB3
 589 02da B8545555 		.ascii	"\270TUU\344\237f\302YQ\003\347\177\003K\262\177R"
 589      E49F66C2 
 589      595103E7 
 589      7F034BB2 
 589      7F52
 590              		.text
 591              		.section	.gnu.lto_.symbol_nodes.b926381b8180d65a,"",%progbits
 592 0000 789C5DCD 		.ascii	"x\234]\315\317JBA\030\005\3603\347\233\2337\377\226"
 592      CF4A4241 
 592      1805F033 
 592      E79B9B37 
 592      FF96
 593 0012 D032AA95 		.ascii	"\3202\252\225O\325\263|\223\\\014\334\030\364\000i\334"
 593      4FD5B37C 
 593      935C0CDC 
 593      18F40069 
 593      DC
 594 0023 87C8D642 		.ascii	"\207\310\326BEe\377\254\2046R\266\213\226-\243\0315"
 594      4565FFAC 
 594      843652B6 
 594      8B962DA3 
ARM GAS  /tmp/ccHACQMa.s 			page 47


 594      1935
 595 0035 705C1DE6 		.ascii	"p\\\035\346w\316\360Y\030\344\006\000\257\250\006GC"
 595      77CEF059 
 595      18E40600 
 595      AFA80647 
 595      43
 596 0046 4081BEEB 		.ascii	"@\201\276\3539\361vK\377X\330Ywn\327T\256\356n\250\262"
 596      39F1764B 
 596      FF58D859 
 596      776ED754 
 596      AEEE6EA8 
 597 005b 6A1F54BB 		.ascii	"j\037T\2730\323\317zn\327\333\220\232\374\357\316\335"
 597      30D3CF7A 
 597      6ED7DB90 
 597      9AFCEFCE 
 597      DD
 598 006c 1E905C10 		.ascii	"\036\220\\\020\007\365p\376\216\272\026U\274\247\026"
 598      07F570FE 
 598      8EBA1655 
 598      BCA716
 599 007b E2F1258D 		.ascii	"\342\361%\215\363c\341\0035\215*\363L]\237\011\340\302"
 599      F363E103 
 599      358D2AF3 
 599      4C5D9F09 
 599      E0C2
 600 008d 2933A216 		.ascii	")3\242\026#x\242\226\"\030S\313\021<R+\021\274P\253"
 600      2378A296 
 600      221853CB 
 600      113C522B 
 600      11BC50AB 
 601 00a1 11BC526B 		.ascii	"\021\274Rk\313 ,!\353|\355\210\370l\177Z\021\242\331"
 601      CB202C21 
 601      EB7CED88 
 601      F86C7F5A 
 601      11A2D9
 602 00b4 F9D917A9 		.ascii	"\371\331\027\251 ;\016Y\306\364m\304\320\347'[\263\370"
 602      203B0E59 
 602      C6F46DC4 
 602      D0E7275B 
 602      B3F8
 603 00c6 1E6F8BAD 		.ascii	"\036o\213\255b\320\362\337\022\301\351\344\327HR\303"
 603      62D0F2DF 
 603      12C1E9E4 
 603      D74852C3 
 604 00d6 20646103 		.ascii	" da\003y\310t\023\323\303\206\244@\263\355gE\213\367"
 604      79C87413 
 604      D3C386A4 
 604      40B3ED67 
 604      458BF7
 605 00e9 56037F29 		.ascii	"V\003\177)ull"
 605      756C6C
 606              		.text
 607              		.section	.gnu.lto_.refs.b926381b8180d65a,"",%progbits
 608 0000 789C0DC4 		.ascii	"x\234\015\304\301\001\000\020\020\003\301l\216\034\212"
 608      C1010010 
 608      1003C16C 
 608      8E1C8A
ARM GAS  /tmp/ccHACQMa.s 			page 48


 609 000f D07F99CC 		.ascii	"\320\177\231\314c\206\320\225\304t\250\376\031\210\275"
 609      6386D095 
 609      C474A8FE 
 609      1988BD
 610 001e BCCB698E 		.ascii	"\274\313i\216\263\365\000\013\013\000\226"
 610      B3F5000B 
 610      0B0096
 611              		.text
 612              		.section	.gnu.lto_.decls.b926381b8180d65a,"",%progbits
 613 0000 789CCD7C 		.ascii	"x\234\315|yTTi\226g|\361E\004\001\004`\241S'\377\260"
 613      79545469 
 613      96677CF1 
 613      45040104 
 613      60A15327 
 614 0016 A673AAAD 		.ascii	"\246s\252\255,\272k2I\227\312\256\236\3513\247M5S\253"
 614      2CBA6B32 
 614      4997CAAE 
 614      9EE933A7 
 614      4D3553AB 
 615 002a 332BB335 		.ascii	"3+\26353{\252O\315\241\020C\245JA\203p\253\323s*XdS"
 615      337BAA4F 
 615      CDA11043 
 615      A54A4183 
 615      70ABD373 
 616 0042 945D0441 		.ascii	"\224]\004ADd\021\224\305\005\331\303\015pG@\024\224"
 616      44641194 
 616      C505D9C3 
 616      0D704740 
 616      1494
 617 0054 4D11C415 		.ascii	"M\021\304\025AY\004d\356\267\274x\357\005/2\255:3\347"
 617      41590464 
 617      EEB7BC78 
 617      EF052F32 
 617      AD3A33E7 
 618 0068 4CE8E5BD 		.ascii	"L\350\345\275\373\336\375\356\375}\367\336o}/B\243B"
 618      FBDEFDEE 
 618      FD7DF7DE 
 618      6F7D2F42 
 618      A342
 619 007a 2AF2E95D 		.ascii	"*\362\351]\251R\375\027W\225j\216V\245\232\206\017\234"
 619      A952FD17 
 619      57956A8E 
 619      56A59A86 
 619      0F9C
 620 008c AABE03D2 		.ascii	"\252\276\003\322\003\375\034\250\004\350K\265Ju\032"
 620      03FD1CA8 
 620      04E84BB5 
 620      4A751A
 621 009b C4CB80AE 		.ascii	"\304\313\200\256\003\277\026\370\026V\\5\013\310\037"
 621      03BF16F8 
 621      16565C35 
 621      0BC81F
 622 00aa F800A020 		.ascii	"\370\000\240 \240m@\177\002\372\337@\177\006\012\006"
 622      A06D407F 
 622      02FADF40 
 622      7F060A06 
 623 00ba 0A058A02 		.ascii	"\012\005\212\002\332\003\224\000\264\017h?\320A\240"
ARM GAS  /tmp/ccHACQMa.s 			page 49


 623      DA039400 
 623      B40F683F 
 623      D041A0
 624 00c9 6C20F8AF 		.ascii	"l \370\257\312\201?yj\225\354Ct\376\210\343\361\004"
 624      CA813F79 
 624      6A95EC43 
 624      74FE88E3 
 624      F104
 625 00db 9AC3B110 		.ascii	"\232\303\261\020\373\32796\202\361\003\240\002\270\366"
 625      FBD73936 
 625      82F103A0 
 625      02B8F6
 626 00ea 059011A8 		.ascii	"\005\220\021\250\020\350\030\3205\270~\006\350.\220"
 626      10E818D0 
 626      35B87E06 
 626      E82E90
 627 00f9 01E873B8 		.ascii	"\001\350s\270\366{\240\377\005T\007\274\017\034\317"
 627      F67BA0FF 
 627      055407BC 
 627      0F1CCF
 628 0108 C3F17770 		.ascii	"\303\361wpl\200\343E\240K@\027\200V\3005\3041\330\177"
 628      6C80E345 
 628      A04B4017 
 628      8056C035 
 628      C431D87F 
 629 011c 487DF576 		.ascii	"H}\365v\270J\020\303Bp\011v\021\327\211x\031\373\017"
 629      B84A10C3 
 629      42700976 
 629      11D78978 
 629      19FB0F
 630 012f F19741A1 		.ascii	"\361\227A\241~\377\006\324\006\205\302\325L'\251\327"
 630      7EFF06D4 
 630      0685C2D5 
 630      4C27A9D7 
 631 013f 20F0C7E1 		.ascii	" \360\307\341\030\311q-\203#\346:\212\271\177\355?$"
 631      18C9712D 
 631      8323E63A 
 631      8AB97FED 
 631      3F24
 632 0151 167FEB40 		.ascii	"\026\177\353@\377u\356\227\237\200\262\257\271\037\277"
 632      FF75EE97 
 632      9F80B2AF 
 632      B91FBF
 633 0160 52319B73 		.ascii	"R1\233s\341\270\013\216}p,\345~\025\352D|^\006|\025"
 633      E1B80B8E 
 633      7D702CE5 
 633      7E15EA44 
 633      7C5E067C 
 634 0175 C7D426C1 		.ascii	"\307\324&\301U\015d\002\252\001\212'\276\205{\265p\214"
 634      550D6402 
 634      AA018A27 
 634      BE857BB5 
 634      708C
 635 0187 01D241B9 		.ascii	"\001\322A\271A \027\036\007\301\327\244\036\202\277"
 635      4120171E 
 635      07C1D7A4 
 635      1E82BF
ARM GAS  /tmp/ccHACQMa.s 			page 50


 636 0196 7F0D5409 		.ascii	"\177\015T\011e*\200j\200<x\035\316\022]\244\014P=\320"
 636      652A806A 
 636      803C781D 
 636      CE125DA4 
 636      0C503DD0 
 637 01aa 15499DAF 		.ascii	"\025I\235\257\001\335\000\272\011\324\314s0\201\347"
 637      01DD00BA 
 637      09D4CC73 
 637      3081E7
 638 01b9 9AFD87E4 		.ascii	"\232\375\207\344\245\220\337R\177\320\034\002g\376\014"
 638      A590DF52 
 638      7FD01C02 
 638      67FE0C
 639 01c8 B33AFE1C 		.ascii	"\263:\376\034\263z&\363\334t!\216\306\314\337\177\342"
 639      B37A26F3 
 639      DC74218E 
 639      C6CCDF7F 
 639      E2
 640 01d9 F9BC4F41 		.ascii	"\371\274OA?\311y'\256\337\0133\335\304w[\201\376\016"
 640      3FC97927 
 640      AEDF0B33 
 640      DDC4775B 
 640      81FE0E
 641 01ec F8FFE065 		.ascii	"\370\377\340e0\227\335\306\333\001\211g\216\235\276"
 641      3097DDC6 
 641      DB018967 
 641      8E9DBE
 642 01fb 3F4B72EC 		.ascii	"?Kr\354\357%\272\204v\230\301c\210\270?1/C\332\224\277"
 642      EF25BA84 
 642      7698C163 
 642      88B83F31 
 642      2F43DA94 
 643 0210 039DA42D 		.ascii	"\003\235\244-z*\324\237\264\247F\236\277Fn\207\264o"
 643      7A2AD49F 
 643      B4A7469E 
 643      BF466E87 
 643      B46F
 644 0222 A94F7EC1 		.ascii	"\251O~\301}r\030\356\375W8\337\310m.W\313\375\023\314"
 644      7D7218EE 
 644      FD5738DF 
 644      C86D2E57 
 644      CBFD13CC 
 645 0236 DB7400F7 		.ascii	"\333t\000\367\035i\323\3668\362x\331\017T\242M\215J"
 645      1D69D3F6 
 645      38F278D9 
 645      0F54A24D 
 645      8D4A
 646 0248 6C9BA45D 		.ascii	"l\233\244]\376N\301\277\344\023\352\240\3154\362\276"
 646      FE4EC1BF 
 646      E413EAA0 
 646      CD34F2BE 
 647 0258 49C02EE4 		.ascii	"I\300.\344\353\207`h\007\\\323r\254B\356\221v\337\300"
 647      EB876068 
 647      075CD372 
 647      AC42EE91 
 647      76DFC0
 648 026b 634174CE 		.ascii	"cAt\316\307,\266J~\233R\243\216\206\374\002\374J\215"
ARM GAS  /tmp/ccHACQMa.s 			page 51


 648      C72CB64A 
 648      7E9B52A3 
 648      8E86FC02 
 648      FC4A8D
 649 027e 7EEE8248 		.ascii	"~\356\202H/\351\001\227\212\236\226\217\273\261KD\242"
 649      2FE90197 
 649      8A9E968F 
 649      BBB14B44 
 649      A2
 650 028f 6B3CEFB3 		.ascii	"k<\357\263\217\012-\360\211\265X\324j\261h\323\336\241"
 650      8F0A2DF0 
 650      89B558D4 
 650      6AB168D3 
 650      DEA1
 651 02a1 6C27EC4A 		.ascii	"l'\354J\205n\206\025\037 j<]\220\006\330\227\327R\037"
 651      856E8615 
 651      1F206A3C 
 651      5D9006D8 
 651      97D7521F 
 652 02b5 B8033BC7 		.ascii	"\270\003;\307\005\275?\245V\327\305\234(uE^.9DKwG\266"
 652      05BD3FA5 
 652      56D7C59C 
 652      2875455E 
 652      2E39444B 
 653 02cc A1DC6299 		.ascii	"\241\334b\231\205\216#\027t\024a\224\217>\"\361\376"
 653      858E2317 
 653      74146194 
 653      8F3E22F1 
 653      FE
 654 02dd 39694191 		.ascii	"9iA\221\026K\210%6\324\342\331\340\256B\205h.*@sU\350"
 654      164B8825 
 654      36D4E2D9 
 654      E0AE4285 
 654      682E2A40 
 655 02f4 18F22268 		.ascii	"\030\362\"h\210 \312\203\213\271p\021\254\344g\307e"
 655      8820CA83 
 655      8BB97011 
 655      ACE467C7 
 655      65
 656 0305 E9F07F10 		.ascii	"\351\360\177\020\000\352\375'\217\216\272\330L\244E"
 656      00EAFD27 
 656      8F8EBAD8 
 656      4CA445
 657 0314 2F2A2426 		.ascii	"/*$&J\300D\221h\002,:\264Q\254`\203\224\007;\221=\021"
 657      4AC04491 
 657      68022C3A 
 657      B451AC60 
 657      8394073B 
 658 032b CD2EAC72 		.ascii	"\315.\254rc\304\356\364@\333ag\306\017\022\276p\344"
 658      63C4EEF4 
 658      40DB6167 
 658      C60F12BE 
 658      70E4
 659 033d D86384BB 		.ascii	"\330c\204\273\021\365\304\363\260\207\335\256\354\346"
 659      11F5C4F3 
 659      B087DDAE 
 659      ECE6
ARM GAS  /tmp/ccHACQMa.s 			page 52


 660 034b 7BC44983 		.ascii	"{\304I\203W\3239;\013\330\356\370\370\032W\334\307D"
 660      57D3393B 
 660      0BD8EEF8 
 660      F81A57DC 
 660      C744
 661 035d 1B73231B 		.ascii	"\033s#\033\261\013\300\011}78P\244\245\374V\244+~\314"
 661      B10BC009 
 661      7D373850 
 661      A4A5FC56 
 661      A42B7ECC 
 662 0371 CAA756BE 		.ascii	"\312\247V\276\272\254e\272\365\004fII\212+~\316\356"
 662      BAAC65BA 
 662      F5046649 
 662      498A2B7E 
 662      CEEE
 663 0383 95B6E655 		.ascii	"\225\266\346U\352\361\020\307\364:\372\276\006\2170"
 663      EAF110C7 
 663      F43AFABE 
 663      068F30
 664 0392 6628B5EE 		.ascii	"f(\265\356\211\013\036g\314\231\352g\013\230\206\271"
 664      890B1E67 
 664      CC99EA67 
 664      0B9886B9 
 665 03a2 C05574BC 		.ascii	"\300Ut\274\264\272\262\260u#\340[\007\202\203\365x\222"
 665      B4BAB2B0 
 665      7523E05B 
 665      078283F5 
 665      7892
 666 03b4 8A3AB79C 		.ascii	"\212:\267\234\274\235\203\321\354y\360\361\002\212\343"
 666      BC9D83D1 
 666      EC79F0F1 
 666      028AE3
 667 03c3 19614166 		.ascii	"\031aAf\025\262\002\302Z@\250B\347\320l\002\032\325"
 667      15B202C2 
 667      5A40A842 
 667      E7D06C02 
 667      1AD5
 668 03d5 03FE4B68 		.ascii	"\003\376Kh\036\272\000T\007t\021\350<P\003\320e4\217"
 668      1EBA0054 
 668      077411E8 
 668      3C5003D0 
 668      65348F
 669 03e8 E6509625 		.ascii	"\346P\226%,\324\322\235\320\344s\240\251\327b\2117\240"
 669      2CD4D29D 
 669      D0E473A0 
 669      A9D76289 
 669      37A0
 670 03fa 3310AE72 		.ascii	"3\020\256r\010\027Qb\363\304i\252w\376\\\241\200u\314"
 670      08175162 
 670      F3C469AA 
 670      77FE5CA1 
 670      8075CC
 671 040d B4DF620D 		.ascii	"\264\337b\015\303T\272\332^\332\233\010\027\"QzR\"]"
 671      C354BADA 
 671      5EDA9B08 
 671      1722517A 
 671      52225D
ARM GAS  /tmp/ccHACQMa.s 			page 53


 672 0420 692F5D81 		.ascii	"i/]\201\354\305\337H\304\253\224\305)\024\232g\326\341"
 672      ECC5DF48 
 672      C4AB94C5 
 672      29149A67 
 672      D6E1
 673 0432 A1E5C1E0 		.ascii	"\241\345\301\340\001\"\245\342If\253\2305nxy|\250\245"
 673      0122A5E2 
 673      4966AB98 
 673      356E7879 
 673      7CA8A5
 674 0445 E163AAAB 		.ascii	"\341c\252\253L\271ZR\323#\022\3235\212\365\2228!>H\024"
 674      4CB95A52 
 674      D32312D3 
 674      358AF592 
 674      38213E48 
 675 045a 3E6B2F7C 		.ascii	">k/|J\304\011Ql\350(I\304\370\244\232\266\223\222\244"
 675      4AC40951 
 675      6CE82849 
 675      C4F8A49A 
 675      B69392A4 
 676 046e B34F10F2 		.ascii	"\263O\020\362\232\315\360'\015\277g\261\350\3215(|E"
 676      9ACDF027 
 676      0DBF67B1 
 676      E8D13528 
 676      7C45
 677 0480 6C26A436 		.ascii	"l&\2446*\225b\200\321U\210\353_\022c\260\177</\376\262"
 677      2A956280 
 677      D15588EB 
 677      5F1263B0 
 677      7F3C2FFE 
 678 0495 8B215A6C 		.ascii	"\213!Zlu\324\236\000V\205\256#\003\227\014\251l\213"
 678      75D49E00 
 678      5685AE23 
 678      03970CA9 
 678      6C8B
 679 04a7 F360E9D8 		.ascii	"\363`\351\330M\370\323}\227\352\\X>ZH>\236\335eM\326"
 679      4DF8D37D 
 679      97EA5C58 
 679      3E5A483E 
 679      9EDD654D 
 680 04bc E373B426 		.ascii	"\343s\264&\350\370\320\253\343:&Lz\255\276\206\227\223"
 680      E8F8D0AB 
 680      E33A264C 
 680      7AADBE86 
 680      9793
 681 04ce AEA43159 		.ascii	"\256\2441Y\004+pC4\322L\232>x\0215\261\206T\264\263"
 681      042B7043 
 681      34D24C9A 
 681      3E781135 
 681      B18654B4 
 682 04e3 375F0FA5 		.ascii	"7_\017\245\347B\277\207$\235\336\\\326\351\235\264\016"
 682      E742BF87 
 682      249DDE5C 
 682      D6E99DB4 
 682      0E
 683 04f4 1FD3E08B 		.ascii	"\037\323\340\213\314g7O\264]t\026\273\257W\213CI\314"
 683      CC67374F 
ARM GAS  /tmp/ccHACQMa.s 			page 54


 683      B45D7416 
 683      BBAF578B 
 683      4349CC
 684 0507 EF80E75B 		.ascii	"\357\200\347[E\247\315\265u-\203Y\026\335{*\264p.\372"
 684      45A7CDB5 
 684      752D8359 
 684      16DD7B2A 
 684      B4702EFA 
 685 051b 181C761B 		.ascii	"\030\034v\033\2344\2277\344[\000\247\205\367]\007\363"
 685      9C349737 
 685      E45B00A7 
 685      85F75D07 
 685      F3
 686 052c 2EB8E11B 		.ascii	".\270\341\033\314\300\263\304'\221X\322y\315- \235\327"
 686      CCC0B3C4 
 686      279158D2 
 686      79CD2D20 
 686      9DD7
 687 053e 5D30D026 		.ascii	"]0\320&\032\270\203\034XhW\266`\311\216\356\323x\306"
 687      1AB8831C 
 687      586857B6 
 687      60C98EEE 
 687      D378C6
 688 0551 F228FE33 		.ascii	"\362(\3763\242\372\032\341>\313\274{\310Sp\013\221n"
 688      A2FA1AE1 
 688      3ECBBC7B 
 688      C853700B 
 688      916E
 689 0563 EE3B1466 		.ascii	"\356;\024f`\336l$|g\334\350k\027|\233\271\272\262\254"
 689      60DE6C24 
 689      7C67DCE8 
 689      6B177C9B 
 689      B9BAB2AC 
 690 0577 AA8E7734 		.ascii	"\252\216w4\037\003;Vu3K\315\330y\300\036\265\356j\300"
 690      1F033B56 
 690      75334BCD 
 690      D879C01E 
 690      B5EE6AC0 
 691 058b 2C4A996A 		.ascii	",J\231j\242*\256=C\203\333YQa$\360\244#\001\212~\030"
 691      A22AAE3D 
 691      4383DB59 
 691      516124F0 
 691      A423018A 
 692 05a1 1A6AC03D 		.ascii	"\032j\300=\354^m\367h\246\013~\314\230\304G\365\316"
 692      EC5E6DF7 
 692      68A60B7E 
 692      CC98C447 
 692      F5CE
 693 05b3 B2242170 		.ascii	"\262$!p\305\370\365\331\222$*\372U\251+\036b\245nFO"
 693      C5F8F5D9 
 693      92242AFA 
 693      55A92B1E 
 693      62A56E46 
 694 05c8 15E8F11B 		.ascii	"\025\350\361\033\306<\356,\311\325b\013\246\314\370"
 694      C63CEE2C 
 694      C9D5620B 
 694      A6CCF8
ARM GAS  /tmp/ccHACQMa.s 			page 55


 695 05d7 C3BD1637 		.ascii	"\303\275\0267\034\305\030a\224\373j\346(\367\025\013"
 695      1CC51861 
 695      94FB6AE6 
 695      28F7150B 
 696 05e7 78F6F88B 		.ascii	"x\366\370\2132\003N\240\342\352\314\230c\003Z[<^\247"
 696      32034EA0 
 696      E2EACC98 
 696      63035A5B 
 696      3C5EA7
 697 05fa FE6E7827 		.ascii	"\376nx'\014}\350\005 z&\006\344+\307\203\311s\010\311"
 697      0C7DE805 
 697      207A2606 
 697      E42BC783 
 697      C97308C9 
 698 060e 573C244F 		.ascii	"W<$O\341\342\023\026\222\220\310\314\004g\007\035\276"
 698      E1E21316 
 698      9290C8CC 
 698      0467071D 
 698      BE
 699 061f 832265CF 		.ascii	"\203\"e\317\013\312\334\230s\255\204?\367,6\033\343"
 699      0BCADC98 
 699      73AD843F 
 699      F72C361B 
 699      E3
 700 0630 B7AC5AB1 		.ascii	"\267\254Z\261\367\306\253\\q\244\006I%=\271d^\337\201"
 700      F7C6AB5C 
 700      71A40649 
 700      253DB964 
 700      5EDF81
 701 0643 3D3CA2BF 		.ascii	"=<\242\277\"#Gc\347\021\214c\230\254%q\342\240\033N"
 701      22234763 
 701      E7118C63 
 701      98AC2571 
 701      E2A01B4E 
 702 0657 A68C3A6D 		.ascii	"\246\214:m_m\265\026\271x)We\\a b~\231\272\277\351V"
 702      5F6DB516 
 702      B9782957 
 702      655C6120 
 702      627E99BA 
 703 066e 04F1CB18 		.ascii	"\004\361\313\030\370eT\364K\211\220S\367N\304\234\327"
 703      F86554F4 
 703      4B899053 
 703      F74EC49C 
 703      D7
 704 067f E3DBCC64 		.ascii	"\343\333\314d\301h\330)\017\334\305\2307\011\345\247"
 704      C168D829 
 704      0FDCC598 
 704      3709E5A7 
 705 068f 5CF143C6 		.ascii	"\\\361C\306\234\235j;\340\202\2370f\362\310\215;z<\314"
 705      9C9D6A3B 
 705      E0829F30 
 705      66F2C88D 
 705      3B7A3CCC 
 706 06a3 98D0DEF4 		.ascii	"\230\320\336\364\036w<\311\230\272\275a\273]\360N-\305"
 706      1E773CC9 
 706      98BABD61 
 706      BB5DF04E 
ARM GAS  /tmp/ccHACQMa.s 			page 56


 706      2DC5
 707 06b5 5CDA9796 		.ascii	"\\\332\227\226nk\222\326&4\013\205\250\241\223P\333"
 707      6E6B92D6 
 707      26340B85 
 707      A8A19350 
 707      DB
 708 06c6 8150AE52 		.ascii	"\201P\256R\260ZqlM\033\356\030\340\303\272\027i\241"
 708      B05A716C 
 708      4D1BEE18 
 708      E0C3BA17 
 708      69A1
 709 06d8 15C34774 		.ascii	"\025\303Gt8\216\332C\367\247\337\376\001\247\262\363"
 709      388EDA43 
 709      F7A7DFFE 
 709      01A7B2F3 
 710 06e8 A8C2A83A 		.ascii	"\250\302\250:w\234\305\230\254\332\312\247N\270\224"
 710      779CC598 
 710      ACDACAA7 
 710      4EB894
 711 06f7 31798FBB 		.ascii	"1y\217\273&1>\313\230\236{\365\305\356\370<c*G\323*"
 711      26313ECB 
 711      989E7BF5 
 711      C5EEF83C 
 711      632A47D3 
 712 070c 3DF065C6 		.ascii	"=\360e\306\\{0=\344\202o2\246,\365\255U\203\3570fg\314"
 712      5C7B303D 
 712      E4826F32 
 712      A62CF5AD 
 712      5583EF30 
 713 0723 B17DA4C3 		.ascii	"\261}\244\303\323\261<u\202K\275\203oNk\330%R\327\355"
 713      D3B13C75 
 713      824BBD83 
 713      6F4E6BD8 
 713      2552D7ED 
 714 0737 70297DFF 		.ascii	"p)}\377\275\022w|\217y\242v\264\250N/vN\223Kh\347\024"
 714      BD12777C 
 714      8F79A276 
 714      B4A84E2F 
 714      764E934B 
 715 074e 07DED82B 		.ascii	"\007\336\330+zC\307\235a\231\351\214Xp\206\216;c\217"
 715      7A43C79D 
 715      6199E98C 
 715      5870868E 
 715      3B638F
 716 0761 7A2E8A51 		.ascii	"z.\212QSg\014\215\017\236\324\340>f\243:\372i\265\263"
 716      53670C8D 
 716      0F9ED4E0 
 716      3E66A33A 
 716      FA69B5B3 
 717 0775 A47FFA88 		.ascii	"\244\177\372\210\366O\211`#^\264\001&\035\032IP6\322"
 717      F64F8960 
 717      235EB401 
 717      261D1A49 
 717      5036D2
 718 0788 6399D86F 		.ascii	"c\231\330o\300\317\231\221\312\350\216\016\015KC\005"
 718      C0CF9991 
 718      CAE88E0E 
ARM GAS  /tmp/ccHACQMa.s 			page 57


 718      0D4B4305 
 719 0798 0DFB1434 		.ascii	"\015\373\0244\010i\370?[i\032&\003\236$\021O\242\232"
 719      0869F83F 
 719      5B691A26 
 719      039E2411 
 719      4FA29A
 720 07ab A7E1AEA4 		.ascii	"\247\341\256\244g9\356\370\025\363\360\304\243\3046"
 720      6739EEF8 
 720      15F3F0C4 
 720      A3C436
 721 07ba C4826C90 		.ascii	"\304\202l\220\2148s\370\210\323\364&\362\255\006\007"
 721      8C3873F8 
 721      88D3F426 
 721      F2AD0607 
 722 07ca EBA8ECED 		.ascii	"\353\250\354\355\335\315"
 722      DDCD
 723 07d0 7775384A 		.ascii	"wu8J\3072.\252m\277\326!\274\014G\360\2545\220\233\351"
 723      C7322EAA 
 723      6DBFD621 
 723      BC0C47F0 
 723      AC35909B 
 724 07e5 80EC8002 		.ascii	"\200\354\200\002\262\272\033\231\303z\274\227Y+\217"
 724      B2BA1B99 
 724      C37ABC97 
 724      592B8F
 725 07f4 8B7FA6C7 		.ascii	"\213\177\246\307I\214\351L\331U\351\212\363\030S\263"
 725      498CE94C 
 725      D955E98A 
 725      F31853B3 
 726 0804 77E88C33 		.ascii	"w\350\2143.bL\304\330\375b\017|\2061\302\354r\016\233"
 726      2E624CC4 
 726      D8FD620F 
 726      7C8631C2 
 726      EC720E9B 
 727 0818 5D3E0EB5 		.ascii	"]>\016\265\366hp-\273\027\222\320\\\350\214/0\364\211"
 727      F668702D 
 727      BB1792D0 
 727      5CE88C2F 
 727      30F489
 728 082b C78E15D8 		.ascii	"\307\216\025\330\262\304z\0060\345\001\246\034\021\323"
 728      B2C47A06 
 728      30E501A6 
 728      1C11D3
 729 083a 5D47A34B 		.ascii	"]G\243K\256ZqtIJ\355{\017_e\226v\355~[\204q\023\263"
 729      AE5A7174 
 729      494AED7B 
 729      0F5F6596 
 729      76ED7E5B 
 730 0852 345A7DF8 		.ascii	"4Z}\370\244\3302O\202\245B\260t\364\035,\025([\352H"
 730      A4D8324F 
 730      82A542B0 
 730      74F41D2C 
 730      15285BEA 
 731 0867 7F310CC3 		.ascii	"\1771\014\303\0113\225}\276\350\246\023\356f\246\246"
 731      0933957D 
 731      BEE8A613 
 731      EE66A6A6 
ARM GAS  /tmp/ccHACQMa.s 			page 58


 732 0877 BA9E95B9 		.ascii	"\272\236\225\271\333L\235\006S\305`\352\370;\230*R6"
 732      DB4C9D06 
 732      53C560EA 
 732      F83B982A 
 732      5236
 733 0889 F5263165 		.ascii	"\365&1e!\036`\226\236\035\271^Jz\003/\027\364g\311p"
 733      211E6096 
 733      9E1DB95E 
 733      4A7A032F 
 733      17F467C9 
 734 089e E1C5868B 		.ascii	"\341\305\206\213\003q\367\3679\343A\206#)\177,K-t\240"
 734      0371F7F7 
 734      39E34186 
 734      23297F2C 
 734      4B2D74A0 
 735 08b2 99A1969F 		.ascii	"\231\241\226\237\006\227\200\215\227\240\267\202\316"
 735      0697808D 
 735      97A0B782 
 735      CE
 736 08bf F4C09817 		.ascii	"\364\300\230\0277v\002r\243\324\226\272\035O\335\350"
 736      37760272 
 736      A3D496BA 
 736      1D4FDDE8 
 737 08cf 4AE814C0 		.ascii	"J\350\024\300>)\302\366\342\351\021\021\226\267\327"
 737      3E29C2F6 
 737      E2E91111 
 737      96B7D7
 738 08de 154F3023 		.ascii	"\025O0#\031q#\225.\216\215\224;4\222\026\375?\350Z\350"
 738      19712395 
 738      2E8E8D94 
 738      3B349216 
 738      FD3FE85A 
 739 08f3 0C182913 		.ascii	"\014\030)\023\215\234\022\222\260\263\350\356\005\015"
 739      8D9C1292 
 739      B0B3E8EE 
 739      050D
 740 0901 0E73A256 		.ascii	"\016s\242V\316\235n{\251sl\245\312\241\225\3327\353"
 740      CE9D6E7B 
 740      A9736CA5 
 740      CAA195DA 
 740      37EB
 741 0913 D35B2C96 		.ascii	"\323[,\226\367Q%\230\251\020\315\234\021\314\344\334"
 741      F7512598 
 741      A910CD9C 
 741      11CCE4DC 
 742 0923 7C1AAF96 		.ascii	"|\032\257\226\015\360DR\034\340\253\325\266Y\340\375"
 742      0DF04452 
 742      1CE0ABD5 
 742      B659E0FD 
 743 0933 D330AF2A 		.ascii	"\3230\257*\247\200\320\255\261\3527\006\\C\031\315\211"
 743      A780D0AD 
 743      B1EA3706 
 743      5C4319CD 
 743      89
 744 0944 90AE4310 		.ascii	"\220\256C\020\360\271\010J!\026v\262&U\241\363\240\252"
 744      F0B9084A 
 744      211676B2 
ARM GAS  /tmp/ccHACQMa.s 			page 59


 744      2655A1F3 
 744      A0AA
 745 0956 568D8575 		.ascii	"V\215\205um\252\005\360\017\376\231\\\206s==*d\201\025"
 745      6DAA05F0 
 745      0FFE995C 
 745      86733D3D 
 745      2A648115 
 746 096a 6A436EC1 		.ascii	"jCn\301\214\027\352r\226\365I\355\365W\303t.\\:\366"
 746      8C17EA72 
 746      96F549ED 
 746      F557C374 
 746      2E5C3AF6 
 747 097e 87A49F14 		.ascii	"\207\244\237\024\364\265\272\313juAV\253\213\266Z\235"
 747      F4B5BACB 
 747      6A754156 
 747      AB8BB65A 
 747      9D
 748 098f BD169AEF 		.ascii	"\275\026\232\357\212\317\263Z\335\237:\324\353\204/"
 748      8ACFB35A 
 748      DD9F3AD4 
 748      EB842F
 749 099e 31662CE5 		.ascii	"1f,\345R6L\005\031\023_\330x[\207\233\031\323y\374m"
 749      52364C05 
 749      19135FD8 
 749      785B879B 
 749      19D379FC 
 750 09b3 950EB732 		.ascii	"\225\016\2672\346\340\275\227\307\234p\033\213S\177"
 750      E6E0BD97 
 750      C79C701B 
 750      8B537F
 751 09c2 5CCE09E8 		.ascii	"\\\316\011\350\301\274\244\226\277\373\261\330\037]"
 751      C1BCA496 
 751      BFFBB1D8 
 751      1F5D
 752 09d0 03B0DF1A 		.ascii	"\003\260\337\032x\020X\373H\253\367 s\375\253j\003\272"
 752      781058FB 
 752      48ABF720 
 752      73FDAB6A 
 752      03BA
 753 09e2 22C6E75B 		.ascii	"\"\306\347[\003\203\327\035R\327\254\307\367\231\251"
 753      0383D71D 
 753      52D7ACC7 
 753      F799A9
 754 09f1 97CF5B26 		.ascii	"\227\317[&\335p\037c,\3435\355:\374\2301w\223\306\272"
 754      DD701F63 
 754      2CE335ED 
 754      3AFC9831 
 754      7793C6BA 
 755 0a05 9DF133C6 		.ascii	"\235\3613\3064\334\332U\253\301\203\214\311\275\322"
 755      34DCDA55 
 755      ABC1838C 
 755      C9BDD2
 756 0a14 6DD1E261 		.ascii	"m\321\342a\306TE_\231\324\343\021\306\244VD\204\300"
 756      C654455F 
 756      99D4E311 
 756      C6A45644 
 756      84C0
ARM GAS  /tmp/ccHACQMa.s 			page 60


 757 0a26 82933105 		.ascii	"\202\2231\005\323\303{\015x\2222\256\273\233[3\324h"
 757      D3C37B0D 
 757      789232AE 
 757      BB9B5B33 
 757      D468
 758 0a38 1EFDCC26 		.ascii	"\036\375\314&\213\312,R\235\356\222,\337N\276\"$h/\003"
 758      8BCA2C52 
 758      9DEE922C 
 758      DF4EBE22 
 758      24682F03 
 759 0a4c DA0EB564 		.ascii	"\332\016\265dy\363@\272\"\204\002\326\232\333\006K\254"
 759      79F340BA 
 759      228402D6 
 759      9ADB064B 
 759      AC
 760 0a5d 2F156EB2 		.ascii	"/\025n\262\027\226/\361\210t\213(}\303^\372\224\275"
 760      17962FF1 
 760      88748B28 
 760      7DC35EFA 
 760      94BD
 761 0a6f EA5651F8 		.ascii	"\352VQ\370\272\262\260Tu\205(\335b/\355m/\334$\0127"
 761      BAB2B054 
 761      758528DD 
 761      622FED6D 
 761      2FDC240A 
 762 0a84 DA0B4B57 		.ascii	"\332\013KW\207\262\205X\017Ht\023\211V^\204,\304:!\332"
 762      87B28558 
 762      0F487413 
 762      89565E84 
 762      2CC43A21 
 763 0a99 5DEA79E8 		.ascii	"]\352y\350.P\017\320\035\240n\240{@m@\355@\267\325l"
 763      2E500FD0 
 763      1DA06EA0 
 763      7B406D40 
 763      ED40B7D5 
 764 0aae 41C617AE 		.ascii	"A\306\027\256\311\006\222\014\240@\276n%\270\312o\317"
 764      C906920C 
 764      A040BE6E 
 764      25B8CA6F 
 764      CF
 765 0abf 616B4B82 		.ascii	"akK\202\354\226b5$\016j\024kqS\271\026\022\341*Q\270"
 765      EC966235 
 765      240E6A14 
 765      6B7153B9 
 765      1612E12A 
 766 0ad5 593950C2 		.ascii	"Y9P\302\242\265z,5A\276\036\220\012\253\320}[\303\352"
 766      A2B57A2C 
 766      3541BE1E 
 766      900AABD0 
 766      7D5BC3EA 
 767 0ae9 ACCA1A75 		.ascii	"\254\312\032u\303\247\365$\243\360\376\302\256\021g"
 767      C3A7F524 
 767      A3F0FEC2 
 767      AE1167
 768 0af8 34CF6B36 		.ascii	"4\317k6\313\244\3327_\347w\262L\202\002\350\022\330"
 768      CBA4DA37 
 768      5FE777B2 
ARM GAS  /tmp/ccHACQMa.s 			page 61


 768      4C8202E8 
 768      12D8
 769 0b0a EC53AE0C 		.ascii	"\354S\256\014s\313\211h\352\226>\271[\342\370\220O\003"
 769      73CB8968 
 769      EA963EB9 
 769      5BE2F890 
 769      4F03
 770 0b1c 20662157 		.ascii	" f!WF\002\360\020\002\320\253\266\255x\013B\372\237"
 770      4602F010 
 770      02D0ABB6 
 770      AD780B42 
 770      FA9F
 771 0b2e 617C9E42 		.ascii	"a|\236BBO\372\012 V\015\2149\320u\256\223\3171/\320"
 771      424FFA0A 
 771      20560D8C 
 771      39D075AE 
 771      93CF312F 
 772 0b43 156E5762 		.ascii	"\025nWb\224\201\257\235\310\306Y\377\310H\253\01671"
 772      9481AF9D 
 772      C8C659FF 
 772      C848AB0E 
 772      3731
 773 0b55 E113D3F9 		.ascii	"\341\023\323\371\341\030\337a\314\205\007\315\015Z\334"
 773      E118DF61 
 773      CC8507CD 
 773      0D5ADC
 774 0b64 C398CC73 		.ascii	"\303\230\314s=\037\342!v^\221T\005\363\206Q\312\374"
 774      3D1FE221 
 774      765E9154 
 774      05F38651 
 774      CAFC
 775 0b76 D39B81B0 		.ascii	"\323\233\201\260\027nh\036\331\2451\314\346\377\311"
 775      176E681E 
 775      D9A531CC 
 775      E6FFC9
 776 0b85 3F2F2F72 		.ascii	"?//r\200\277s\330\035\262\205c0x\361\275\034\376\201"
 776      80BF73D8 
 776      1DB28563 
 776      3078F1BD 
 776      1CFE81
 777 0b98 DB5E5ECC 		.ascii	"\333^^\314q\007\217\372^\036b\216#\023\353i\230\335"
 777      71078FFA 
 777      5E1E628E 
 777      2313EB69 
 777      98DD
 778 0baa BF943AAE 		.ascii	"\277\224:\256\313Q~>\206\276q\000\372F\364H\315\212"
 778      CB517E3E 
 778      86BE7100 
 778      FA46F448 
 778      CD8A
 779 0bbc 10F7E462 		.ascii	"\020\367\344b/\224\203\347\241#@\331@\207\201\262\200"
 779      2F9483E7 
 779      A12340D9 
 779      408781B2 
 779      80
 780 0bcd 0E016502 		.ascii	"\016\001e\002\035\004\312\000J\007\212\006\012\003\232"
 780      1D04CA00 
ARM GAS  /tmp/ccHACQMa.s 			page 62


 780      4A078A06 
 780      0A039A
 781 0bdc 829C1D04 		.ascii	"\202\234\035\004z\0054\0144\244\236'\311\321\364\204"
 781      7A05340C 
 781      34A49E27 
 781      C9D1F484 
 782 0bec 9FB01C85 		.ascii	"\237\260\034\205N\356\211\332\016\334+\373\264\233n"
 782      4EEE89DA 
 782      0EDC2BFB 
 782      B49B6E
 783 0bfb 9ACBA4C9 		.ascii	"\232\313\244\311Je\304\276.\257g4\343\321x\256\3755"
 783      4A65C4BE 
 783      2EAF6734 
 783      E3D178AE 
 783      FD35
 784 0c0d 24CD1B65 		.ascii	"$\315\033ey\252^\232\237#\262\374|\315\362S\346\033"
 784      79AA5E9A 
 784      9F23B2FC 
 784      7CCDF253 
 784      E61B
 785 0c1f 61F18DDE 		.ascii	"a\361\215\336\202\312\021\356\233\243\340\233|\250\357"
 785      82CA11EE 
 785      9BA3E09B 
 785      7CA8EF
 786 0c2e 1BA8E3A8 		.ascii	"\033\250\343\250\264\216\335\305\005\233\367\321\375"
 786      B48EDDC5 
 786      059BF7D1 
 786      FD
 787 0c3b A3314031 		.ascii	"\2431@1\314\213(\366kR\030\3432\030c\337\007\243\000"
 787      CC8B28F6 
 787      6B5218E3 
 787      321863DF 
 787      07A300
 788 0c4e 4CFF200C 		.ascii	"L\377 \014\353\230\321\002S\340\011\3000\241\214a\206"
 788      EB98D102 
 788      53E009C0 
 788      30A18C61 
 788      86
 789 0c5f 27266510 		.ascii	"'&e\020HI\326\226\224\023%\017,\377?J\024\013I\344\315"
 789      4849D696 
 789      9413250F 
 789      2CFF3F4A 
 789      140B49E4 
 790 0c74 9786C268 		.ascii	"\227\206\302h\"\277\005#a<Wl3\232P\265\203D\026%\000"
 790      22BF0523 
 790      613C576C 
 790      339A50B5 
 790      83441625 
 791 0c89 9305337C 		.ascii	"\223\0053|!p\036\0146\247e\036J\213\346\351B\252\372"
 791      21701E0C 
 791      36A7651E 
 791      4A8BE6E9 
 791      42AAFA
 792 0c9c 1C2C1071 		.ascii	"\034,\020q\245~\237\031\260\332\031x\306K86\220r\231"
 792      A57E9F19 
 792      B0DA1978 
 792      C64B3836 
ARM GAS  /tmp/ccHACQMa.s 			page 63


 792      907299
 793 0caf 769B133C 		.ascii	"v\233\023<\017f\252\227ta\373X\027\0062\322.\214M\322"
 793      0F66AA97 
 793      7461FB58 
 793      170632D2 
 793      2E8C4DD2 
 794 0cc3 4A8EFBA7 		.ascii	"J\216\373\247\304\007\303$\215\270\342\2058\011 \302"
 794      C407C324 
 794      8DB8E285 
 794      380920C2 
 795 0cd3 A2C3165F 		.ascii	"\242\303\026_\342-\177'\330\331i\337\270\230\303\346"
 795      E22D7F27 
 795      D8D969DF 
 795      B898C3E6 
 796 0ce3 8BD5B1EF 		.ascii	"\213\325\261\357\027\243\240\012\021\274:\221p\036\216"
 796      17A3A00A 
 796      11BC3A91 
 796      701E8E
 797 0cf2 A5559988 		.ascii	"\245U\231\210\220\370\212T&B\2712\312\272\303\325XQ"
 797      90F88A54 
 797      2642B932 
 797      CABAC3D5 
 797      5851
 798 0d04 37ABFA78 		.ascii	"7\253\372x\004\255z\204r\3257GD\221U\"\251T\204X\365"
 798      04AD7A84 
 798      72D53747 
 798      44915522 
 798      A9548458 
 799 0d19 0859D57F 		.ascii	"\010Y\325\177\333\300\253\276\013\317A\221\366U\177"
 799      DBC0ABBE 
 799      0BCF4191 
 799      F6557F
 800 0d28 206972F1 		.ascii	" ir\361J\370T\264\034\001w\000\300\245A\034S\201\366"
 800      4AF854B4 
 800      1C017700 
 800      C0A5411C 
 800      5381F6
 801 0d3b 03250125 		.ascii	"\003%\001%\002\355\001\212\001\332-sJ|\023\215/\351"
 801      02ED018A 
 801      01DA2D73 
 801      4A7C138D 
 801      2FE9
 802 0d4d 69A3C028 		.ascii	"i\243\300(Q\342p\274\035\336+\351\233\242\177H\272\361"
 802      51E270BC 
 802      1DDE2BE9 
 802      9BA27F48 
 802      BAF1
 803 0d5f 06D5BC17 		.ascii	"\006\325\274\027C\225\034\313J\033o,\2266^(8\243\377"
 803      43951CCB 
 803      4A1B6F2C 
 803      96365E28 
 803      38A3FF
 804 0d72 488596BB 		.ascii	"H\205\226\273\237\264\334\024\320\030\313\243\221\000"
 804      9FB4DC14 
 804      D018CBA3 
 804      9100
 805 0d80 158E878A 		.ascii	"\025\216\207\212\305ai\353\253,\332\221\234\033N\020"
ARM GAS  /tmp/ccHACQMa.s 			page 64


 805      C56169EB 
 805      AB2CDA91 
 805      9C1B4E10 
 806 0d90 90C5F96E 		.ascii	"\220\305\371n.\257\324\177Pyk\273\226\3645$;'\021\223"
 806      2EAFD47F 
 806      50796BBB 
 806      96F43524 
 806      3B271193 
 807 0da4 B5B512FB 		.ascii	"\265\265\022\373<o;\204H\260c\261\375\014\206\006rG"
 807      3C6F3B84 
 807      48B063B1 
 807      FD0C8606 
 807      7247
 808 0db6 150F2459 		.ascii	"\025\017$Yz\247\375\220\227\222\004\237&\203\237\016"
 808      7AA7FD90 
 808      9792049F 
 808      26839F0E 
 809 0dc6 BE9B9FF6 		.ascii	"\276\233\237\366\201\250\350\247d\346'G\275 J\001\367"
 809      81A8E8A7 
 809      64E62747 
 809      BD204A01 
 809      F7
 810 0dd7 881DA190 		.ascii	"\210\035\241\220\222+\352\351\276\"Q\225)\246\344\004"
 810      922BEAE9 
 810      BE225195 
 810      29A6E404 
 811 0de7 EDB38571 		.ascii	"\355\263\205q\370\267\225\257XM`\244;\364\275\025!N"
 811      F8B795AF 
 811      584D60A4 
 811      3BF4BD15 
 811      214E
 812 0df9 B9CE073A 		.ascii	"\271\316\007:R\355\254\037\222\256\270N\223\203\310"
 812      52EDAC1F 
 812      92AEB84E 
 812      9383C8
 813 0e08 1E762CCB 		.ascii	"\036v,\313\334\235~\235\272\033dfN\030o]\231\273\317"
 813      DC9D7E9D 
 813      BA1B6466 
 813      4E186F5D 
 813      99BBCF
 814 0e1b 620DC674 		.ascii	"b\015\306tO\341\010o5|\325\304\332L\266Z2G\276\342j"
 814      4FE1086F 
 814      357CD5C4 
 814      DA4CB65A 
 814      3247BEE2 
 815 0e30 29FE3DDD 		.ascii	")\376=\335\025\310W\222](\212\2262Q\262\252?\246$*\011"
 815      15C85792 
 815      5D288A96 
 815      3251B2AA 
 815      3FA6242A 
 816 0e45 E1FE5D3C 		.ascii	"\341\376]<\204\260\216D%\366-w\346L}\204u\251\260>C"
 816      84B08E44 
 816      25F62D77 
 816      E64C7D84 
 816      75A9B03E 
 817 0e5a 35CAD212 		.ascii	"5\312\322\022\345w\304\376\267\316^\370\364\014\325"
 817      E577C4FE 
ARM GAS  /tmp/ccHACQMa.s 			page 65


 817      B7CE5EF8 
 817      F40CD5
 818 0e69 ADA274BD 		.ascii	"\255\242t\275\262\264$\006\315\227y\304\310T\262\301"
 818      B2B42406 
 818      CD9779C4 
 818      C854B2C1 
 819 0e79 5E7CE6E2 		.ascii	"^|\346\342\245\221)'\023\231~ei\211\362\232_\023Y\241"
 819      A5912927 
 819      13997E65 
 819      6989F29A 
 819      5F1359A1 
 820 0e8d 39C9C63D 		.ascii	"9\311\306=\373\370V\263a\343\245Z\261\357\364\315\241"
 820      FBF856B3 
 820      61E3A55A 
 820      B1EFF4CD 
 820      A1
 821 0e9e 3B6C24A5 		.ascii	";l$\245\237\212\211J\204\205&WR\360\257\373r-Rs#\337"
 821      9F8A894A 
 821      84852657 
 821      52F0AFFB 
 821      722D5273 
 822 0eb4 676ED897 		.ascii	"gn\330\227X\033Q\260fm{H3\215\314c\246\304M\345\021"
 822      581B51B0 
 822      666D7B48 
 822      338DCC63 
 822      A6C44DE5 
 823 0ec9 6A0BA6BB 		.ascii	"j\013\246\273\247\"\016\355\366\3001l\033\246{\340\355"
 823      A7220EED 
 823      F6C0316C 
 823      1BA67BE0 
 823      ED
 824 0eda 552D4E61 		.ascii	"U-NaLBNW\225\006g1\346\364\245\327/\265\270\2002\236"
 824      4C424E57 
 824      95066731 
 824      E6F4A5D7 
 824      2FB5B880 
 825 0ef0 0FAEB5C5 		.ascii	"\017\256\265\305\270!\015\235\013\033\014\357y\011\323"
 825      B8210D9D 
 825      0B1B0CEF 
 825      7909D3
 826 0eff 5DF258BC 		.ascii	"]\362X\274\004\032\337j\215\254\345\226\312\272\300"
 826      041ADF6A 
 826      8DACE596 
 826      CABAC0
 827 0f0e 12852ED0 		.ascii	"\022\205.\320\266\012;\013\355\372$\357\002\255p^\013"
 827      B60A3B0B 
 827      EDFA24EF 
 827      02AD705E 
 827      0B
 828 0f1f 5D600D50 		.ascii	"]`\015P5P\025P%P\005\320)\240\023\322>\277\373\326\011"
 828      35501550 
 828      255005D0 
 828      29A013D2 
 828      3EBFFBD6 
 829 0f34 DF54B165 		.ascii	"\337T\261e\027aL\365(\255q\225-\037\347%\376b\313\326"
 829      17614CF5 
 829      28AD7195 
ARM GAS  /tmp/ccHACQMa.s 			page 66


 829      2D1FE725 
 829      FE62CBD6 
 830 0f48 DB753CE5 		.ascii	"\333u<\345NC\325{\221\235aiS\221:\345\014~O\024*\007"
 830      4E43D57B 
 830      919D6169 
 830      53913AE5 
 830      0C7E4F14 
 831 0f5e 836558E8 		.ascii	"\203eX\350\316\034\211\251$2\311|\274|_#\335\247P\021"
 831      CE1C89A9 
 831      2432C97C 
 831      BC7C5F23 
 831      DDA75011 
 832 0f72 79F85B8C 		.ascii	"y\370[\2145\266\370'\204\317!\361'\340\216a[\374\313"
 832      35B6F827 
 832      84CF21F1 
 832      27E08E61 
 832      5BFCCB
 833 0f85 B0AD53B4 		.ascii	"\260\255S\264\336\012\347m\275\017\031\320C\345\012"
 833      DE0AE76D 
 833      BD0F19D0 
 833      43E50A
 834 0f94 485A6F53 		.ascii	"HZoS\035m2D\270\337^x"
 834      1D6D3244 
 834      B8DF5E78 
 835 0fa0 66EBAD11 		.ascii	"f\353\255\021\245\037)KK\327\263\242\360\200\275\360"
 835      A51F294B 
 835      4BD7B3A2 
 835      F080BDF0 
 836 0fb0 CC67CB95 		.ascii	"\314g\313\225\202\343\007\241\365>V\226\227\264\336"
 836      82E307A1 
 836      F53E5696 
 836      97B4DE
 837 0fbf 339F09CD 		.ascii	"3\237\011\315i\210\313:lNe\341\264\365\236T\230\371"
 837      6988CB3A 
 837      6C4E65E1 
 837      B4F59E54 
 837      98F9
 838 0fd1 585FB3F6 		.ascii	"X_\263\366D\223Z\364\347I\314\333S\316\215\3037t\370"
 838      44935AF4 
 838      E749CCDB 
 838      53CE8DC3 
 838      3774F8
 839 0fe4 8E0BDB26 		.ascii	"\216\013\333&~\224\032\241F\263\275\224S\356\302_\221"
 839      7E941AA1 
 839      46B3BD94 
 839      53EEC25F 
 839      91
 840 0ff5 EC0C4365 		.ascii	"\354\014Ce\304\217\011\206\363P\370"
 840      C48F0986 
 840      F350F8
 841 1000 9C88A154 		.ascii	"\234\210\241T\300\220\321\036\233b\300\375\254\345\356"
 841      C090D11E 
 841      9B62C0FD 
 841      ACE5EE
 842 100f EBADABD7 		.ascii	"\353\255\253\327\340\347\014PGo]\234\233C@\015\1775"
 842      E0E70C50 
 842      476F5D9C 
ARM GAS  /tmp/ccHACQMa.s 			page 67


 842      9B43400D 
 842      7F35
 843 1021 A07827E8 		.ascii	"\240x'\350\316\352\241h\235\002\234\213\323\243V\362"
 843      CEEAA168 
 843      9D029C8B 
 843      D3A356F2 
 844 1031 50E06B17 		.ascii	"P\340k\027D\236g\3467\307\266x\340I\206\356Hsa\027\326"
 844      449E67E6 
 844      37C7B678 
 844      E04986EE 
 844      48736117 
 845 1046 A855E832 		.ascii	"\250U\3502\024\274\204\347\322\002aq\326tg\274\223\275"
 845      14BC84E7 
 845      D2026171 
 845      D67467BC 
 845      93BD
 846 1058 0AF3BC36 		.ascii	"\012\363\2746\373\255\216H\\\005\211_\314EW \267\311"
 846      FBAD8E48 
 846      5C05895F 
 846      CC455720 
 846      B7C9
 847 106a F6DD70E2 		.ascii	"\366\335p\342\030\364[L&\254\240\350\260\013\221\271"
 847      18F45B4C 
 847      26ACA0E8 
 847      B00B91B9 
 848 107a 0E327F3F 		.ascii	"\0162\177?\027]\2432jkNr\2733\322{\205\323\335\307\220"
 848      175DA332 
 848      6A6B4E72 
 848      BB33D27B 
 848      85D3DDC7 
 849 108f 105D8ABB 		.ascii	"\020]\212\273\260\375\010\3136\254\247\025\275\011\025"
 849      B0FD08CB 
 849      36ACA715 
 849      BD0915
 850 109e BD8135B6 		.ascii	"\275\2015\266}k\326GwU,N\253\"\373\257 &\315\001\262"
 850      7D6BD647 
 850      77552C4E 
 850      AB22FBAF 
 850      2026CD01 
 851 10b3 5930FEAC 		.ascii	"Y0\376\254O\203\253]Y\204kS[\020\362\322\363\031s\035"
 851      4F83AB5D 
 851      59846B53 
 851      5B10F2D2 
 851      F319731D 
 852 10c7 CD8D1650 		.ascii	"\315\215\026P\335$:\202\250P\251\024@\240f\260\355\010"
 852      DD243A82 
 852      A850A914 
 852      40A066B0 
 852      ED08
 853 10d9 07584A09 		.ascii	"\007XJ\011\236:\350\216\353Y\035\317\017\364F\272\340"
 853      9E3AE88E 
 853      EB591DCF 
 853      0FF446BA 
 853      E0
 854 10ea 6B8C2988 		.ascii	"k\214)\210j\336\201\333\031\204\241\312=\215\342\023"
 854      6ADE81DB 
 854      1984A1CA 
ARM GAS  /tmp/ccHACQMa.s 			page 68


 854      3D8DE213 
 855 10fa ABA9FB5F 		.ascii	"\253\251\373_\263\3077m\330\005\335\306\357\364\000"
 855      B3C7376D 
 855      D805DDC6 
 855      EFF400
 856 1109 EF0E567C 		.ascii	"\357\016V|\200\267?w\252\021\343~f\261z\244\352\242"
 856      80B73F77 
 856      AA11E37E 
 856      66B17AA4 
 856      EAA2
 857 111b 3B7ECE98 		.ascii	";~\316\230\222\304\233\323:<\312\230\227\223\351e|\017"
 857      92C49BD3 
 857      3A3CCA98 
 857      9793E965 
 857      7C0F
 858 112d 660EB053 		.ascii	"f\016\260S]\261\261N|\013\206\274\011p(a\377\021\003"
 858      5DB1B14E 
 858      7C0B86BC 
 858      09702861 
 858      FF1103
 859 1140 0E3750D9 		.ascii	"\0167P\331\033%\315\301\3568\2062.\355\205e\025nd\273"
 859      1B25CDC1 
 859      EE388632 
 859      2EED8565 
 859      156E64BB 
 860 1154 D2E0356F 		.ascii	"\322\3405o\366\354y|\253d\352\376\216}l\216K\346\357"
 860      F6EC797C 
 860      AB64EAFE 
 860      8E7D6C8E 
 860      4BE6EF
 861 1167 ED50837E 		.ascii	"\355P\203~\307\315\232L\366Y\237A\252K\346?\012\302"
 861      C7CD9A4C 
 861      F6599F41 
 861      AA4BE63F 
 861      0AC2
 862 1179 D2EEE8F5 		.ascii	"\322\356\350\365\000b}F/f\353\245~\345\365\222\264\017"
 862      00627D46 
 862      2F66EBA5 
 862      7EE5F592 
 862      B40F
 863 118b 7E241BBF 		.ascii	"~$\033\277z\331\370\305\007\327)\032p\"\321-\372\272"
 863      7AD9F8C5 
 863      07D7291A 
 863      7022D12D 
 863      FABA
 864 119d 5F580491 		.ascii	"_X\004\221\005\232`\220\314_\356\332\327f\306b\2267"
 864      059A6090 
 864      CC5FEEDA 
 864      D766C662 
 864      9637
 865 11af C94E3C17 		.ascii	"\311N<\027u@k@\367x\011\222!\217!L\017\240\351\365\001"
 865      75406B40 
 865      F7780992 
 865      218F214C 
 865      0FA0E9F5 
 866 11c4 F500DD07 		.ascii	"\365\000\335\007\032\340\315P\271\364C(\361.\245\031"
 866      1AE0CD50 
ARM GAS  /tmp/ccHACQMa.s 			page 69


 866      B9F44328 
 866      F12EA519 
 867 11d4 D47D427F 		.ascii	"\324}B\177J|\331e\017U\322YK\347\034\375\362>rJ\215"
 867      4A7CD965 
 867      0F55D259 
 867      4BE71CFD 
 867      F23E724A 
 868 11e9 9B871E5D 		.ascii	"\233\207\036]B\010\342\251\274\346l\005\305O8\246g\200"
 868      4208E2A9 
 868      BCE66C05 
 868      C54F38A6 
 868      6780
 869 11fb E9A90C43 		.ascii	"\351\251\014C\2310\026\011\361y\362}\213\363Sll{b\217"
 869      99301609 
 869      F179F27D 
 869      8BF3536C 
 869      6C7B628F 
 870 120f 01DD7D73 		.ascii	"\001\335}s1\304\003\237\245y\246\356\031\016\351u\263"
 870      31C4039F 
 870      A579A6EE 
 870      190EE975 
 870      B3
 871 1220 BDA353CD 		.ascii	"\275\243S\315\332\350 \350}.\206\354\011\026\337\321"
 871      DAE820E8 
 871      7D2E86EC 
 871      0916DFD1 
 872 1230 B147FC02 		.ascii	"\261G\374\002P*!\006;q\323\331-\316\270\221%wI\325\271"
 872      502A2106 
 872      3B71D3D9 
 872      2DCEB891 
 872      257749D5 
 873 1245 6C8C5B18 		.ascii	"l\214[\0303ri_\201\033ng\010\262\343_X\305\027\366J"
 873      3372695F 
 873      811B6E67 
 873      08B2E35F 
 873      58C517F6 
 874 125a FA571CA4 		.ascii	"\372W\034\244\317v^\203\237\207\337\255\211\276Rn\242"
 874      CF765E83 
 874      9F87DFAD 
 874      89BE526E 
 874      A2
 875 126b 250D137B 		.ascii	"%\015\023{\2344d\336Et\255\246=c\301\236\230\343\256"
 875      9C3464DE 
 875      4574ADA6 
 875      3D63C19E 
 875      98E3AE
 876 127e F41A79C1 		.ascii	"\364\032y\301b\204u\227a\375\315\267\335\351E2\270\216"
 876      62847597 
 876      61FDCDB7 
 876      DDE94532 
 876      B88E
 877 1290 B28BED89 		.ascii	"\262\213\355\211\021o\\\350E\2302\215\261k\211I\343"
 877      116F5CE8 
 877      4598328D 
 877      B16B8949 
 877      E3
 878 12a1 196EEF49 		.ascii	"\031n\357I\246\027/d\357\215\274\241\363\213q:\277 "
ARM GAS  /tmp/ccHACQMa.s 			page 70


 878      A6172F64 
 878      EF8DBCA1 
 878      F38B713A 
 878      BF20
 879 12b3 8FEBA76B 		.ascii	"\217\353\247k\376\273lW\371\215l\2762\201m\217k\012"
 879      FEBB6C57 
 879      F98D6CBE 
 879      32816D8F 
 879      6B0A
 880 12c5 836BF438 		.ascii	"\203k\3648\312\015\275\033\352)\006&\375\326\375Xg\245"
 880      CA0DBD1B 
 880      EA290626 
 880      FDD6FD58 
 880      67A5
 881 12d7 87470EDE 		.ascii	"\207G\016\336\321\031\270W6i\220\341\231\306R\364\026"
 881      D119B857 
 881      366990E1 
 881      99C652F4 
 881      16
 882 12e8 8D80E7D5 		.ascii	"\215\200\347\325\351W\341\210\232\203k\350-3\367\366"
 882      E957E188 
 882      9A836BE8 
 882      2D33F7F6 
 883 12f8 46EF909B 		.ascii	"F\357\220\233\340\217`\015\275V6Pt\355{\374\021\252"
 883      E08F600D 
 883      BD563650 
 883      74ED7BFC 
 883      11AA
 884 130a 21FE08D1 		.ascii	"!\376\010\321p\177\344\326\354\275\215d\000@@\"\036"
 884      707FE4D6 
 884      ECBD8D64 
 884      00404022 
 884      1E
 885 131b 6603906A 		.ascii	"f\003\220jyp\325\003\307:v\310\305\354\326`\275\000"
 885      7970D503 
 885      C73A76C8 
 885      C5ECD660 
 885      BD00
 886 132d 269C8129 		.ascii	"&\234\201)\037\017MFR0\351\262\247c\221\024L\204\000"
 886      1F0F4D46 
 886      5230E9B2 
 886      A7639114 
 886      4C8400
 887 1340 66E7C8F1 		.ascii	"f\347\310\361j'\031\230H\031\230(\033\230\003)\273a"
 887      6A271998 
 887      48199828 
 887      1B980329 
 887      BB61
 888 1352 AA9FE418 		.ascii	"\252\237\344\030L{S\3070K\037\362\032\321.\206\2462"
 888      4C7B53C7 
 888      304B1FF2 
 888      1AD12E86 
 888      A632
 889 1364 E5F09046 		.ascii	"\345\360\220F@\270\233]k9Q\030\357\342\030\341\036\212"
 889      40B89B5D 
 889      6B395118 
 889      EFE218E1 
ARM GAS  /tmp/ccHACQMa.s 			page 71


 889      1E8A
 890 1376 304640D8 		.ascii	"0F@\330\374\262\241\305U\206p\217\014\341^\033\302\242"
 890      FCB2A1C5 
 890      5586708F 
 890      0CE15E1B 
 890      C2A2
 891 1388 8EAC4837 		.ascii	"\216\254H7\234\312\020\036/\234(\266\345-\003\230\326"
 891      9CCA101E 
 891      2F9C28B6 
 891      E52D0398 
 891      D6
 892 1399 3336A277 		.ascii	"36\242wl7\236\332\215\023\354\336=\330\326.\017S\274"
 892      6C379EDA 
 892      8D13ECDE 
 892      3DD8D62E 
 892      0F53BC
 893 13ac CC6E82CD 		.ascii	"\314n\202\315\356\364\213\341N\003\316`v{^T\357w\262"
 893      EEF48BE1 
 893      4E03CE60 
 893      767B5E54 
 893      EF77B2
 894 13bf 7981194E 		.ascii	"y\201\031N\276\324\276S+`IbNH\330y\243\305\3111\230"
 894      BED4BE53 
 894      2B604962 
 894      4E48D879 
 894      A3C5C931 
 895 13d4 7D144CB2 		.ascii	"}\024L\262\000f\372\320\235m2,\373dXRlX\236\207Wt\270"
 895      0066FAD0 
 895      9D6D322C 
 895      FB645852 
 895      6C589E87 
 896 13eb E32C86E5 		.ascii	"\343,\206\345N\325\325W\330\326^\030\226\342\353)=b"
 896      4ED5D557 
 896      D8D65E18 
 896      96E2EB29 
 896      3D62
 897 13fd 234F6560 		.ascii	"#Oe`\222\366\357\332m\003\230\306\256\205M\337\314B"
 897      92F6EFDA 
 897      6D0398C6 
 897      AE854DDF 
 897      CC42
 898 140f 8E933A9D 		.ascii	"\216\223:\235\002< \000|\236S\035\201e\010\323e\010"
 898      023C2000 
 898      7C9E531D 
 898      816508D3 
 898      6508
 899 1421 336C086F 		.ascii	"3l\010o\365\227\217\270\342\\\307\010\213\362\306&\334"
 899      F5978FB8 
 899      E25CC708 
 899      8BF2C626 
 899      DC
 900 1432 6DCD2E93 		.ascii	"m\315.\223\241)z\361:\302\026\316C\354Zv\332\365N\255"
 900      A1297AF1 
 900      3AC216CE 
 900      43EC5A76 
 900      DAF54EAD 
 901 1446 63848729 		.ascii	"c\204\207)\302,[\036\335+N\224?\014?,C\230mCx\274\351"
ARM GAS  /tmp/ccHACQMa.s 			page 72


 901      C22C5B1E 
 901      DD2B4E94 
 901      3F0C3F2C 
 901      43986D43 
 902 145d D16B353E 		.ascii	"\321k5>\306\020\036\316\037\032t\305\325\214\331\333"
 902      C6101ECE 
 902      1F1A74C5 
 902      D58CD9DB 
 903 146d 78F0AE9E 		.ascii	"x\360\256\236\277\031F\246\251\326\202\242\243\036\370"
 903      BF1946A6 
 903      A9D682A2 
 903      A31EF8
 904 147c 9AC38CEB 		.ascii	"\232\303\214\353\311}\270\205^!o\2311\320\367w\345\015"
 904      C97DB885 
 904      5E216F99 
 904      31D0F777 
 904      E50D
 905 148e 380B5247 		.ascii	"8\013RG\331\265\220\234\214\275\006\307\271PH+R T\244"
 905      D9B5909C 
 905      8CBD06C7 
 905      B950482B 
 905      522054A4 
 906 14a2 F461EF01 		.ascii	"\364a\357\001\371c\272BYE\216\011\0251\034=1\334\203"
 906      F963BA42 
 906      59458E09 
 906      15311C3D 
 906      31DC83
 907 14b5 D89329B6 		.ascii	"\330\223)\266\372\346\017{\273*Vd\344\320\351\0234\036"
 907      FAE60F7B 
 907      BB2A5664 
 907      E4D0E913 
 907      341E
 908 14c7 14ADC1A8 		.ascii	"\024\255\301\250H\363.\017Bs5s\351^4\312\341E\310hw"
 908      48F32E0F 
 908      42733573 
 908      E95E34CA 
 908      E145C868 
 909 14dc 46E3854E 		.ascii	"F\343\205Nk\346\241\022\240b\240S@'\200\216\003\225"
 909      6BE6A112 
 909      A062A053 
 909      4027808E 
 909      0395
 910 14ee 03950295 		.ascii	"\003\225\002\225\001\235\324H\306pK)h\204\021\034\322"
 910      019DD448 
 910      C6704B29 
 910      6884111C 
 910      D2
 911 14ff 02EDB7B7 		.ascii	"\002\355\267\267o?}\023\204!B\350\240\275\260\375#^"
 911      6F3F7D13 
 911      842142E8 
 911      A0BDB0FD 
 911      235E
 912 1511 41187A51 		.ascii	"A\030zQ4\211\355\204g\354I\011\322\320\230Q\254\262"
 912      3489ED84 
 912      67EC4909 
 912      D2D09851 
 912      ACB2
ARM GAS  /tmp/ccHACQMa.s 			page 73


 913 1523 1F66E200 		.ascii	"\037f\342\000\007\243<{\341\007\216TC\333D\211\312U"
 913      07A33C7B 
 913      E1078E54 
 913      43DB4489 
 913      CA55
 914 1535 54902629 		.ascii	"T\220&)|D\261\2163q\300\310\211\206\354\253(\331\304"
 914      7C44B18E 
 914      3371C0C8 
 914      8986ECAB 
 914      28D9C4
 915 1548 6073999B 		.ascii	"`s\231\233l\207\036\204f\356\"6\327\363\211't\363h\247"
 915      6C871E84 
 915      66EE2236 
 915      D7F38927 
 915      74F368A7 
 916 155c BD59F92B 		.ascii	"\275Y\371+\315u\307\256\347\032f\363|\260:\314\007\325"
 916      CD75C7AE 
 916      E71A66F3 
 916      7CB03ACC 
 916      07D5
 917 156e 5F940C64 		.ascii	"_\224\014d\315\222\235xA\336.+4\322\271t\245\255]^9"
 917      CD929D78 
 917      41DE2E2B 
 917      34D2B974 
 917      A5AD5D5E 
 918 1583 F0645C8F 		.ascii	"\360d\\\217o\262\326\026\027<\234\307W\024\223t\014"
 918      6FB2D616 
 918      173C9CC7 
 918      57149374 
 918      0C
 919 1594 7EDCDBAD 		.ascii	"~\334\333\255\346o\225\221w\370\"\232j\347\340N*\353"
 919      E66F9591 
 919      77F8229A 
 919      6AE7E04E 
 919      2AEB
 920 15a6 1A792AFC 		.ascii	"\032y*\374'Hx\337\201\275\362\000\216\231\374\234lt"
 920      274878DF 
 920      81BDF200 
 920      8E99FC9C 
 920      6C74
 921 15b8 DE439EA8 		.ascii	"\336C\236\250\023\346\220\347\301\250\355)]\307\214"
 921      13E690E7 
 921      C1A8ED29 
 921      5DC78C
 922 15c7 35C144FD 		.ascii	"5\301D\375<\346)\200\203^b&\357p\227w\252\036\005\323"
 922      3CE62980 
 922      835E6226 
 922      EF709777 
 922      AA1E05D3 
 923 15db DD59A2FD 		.ascii	"\335Y\242\375\246\275\366\033\216\332W\015\370\263Z"
 923      A6BDF61B 
 923      8EDA570D 
 923      F8B35A
 924 15ea 43DEF9D1 		.ascii	"C\336\371\321\260\"\244}]\200\366u\026\\v\021\250\001"
 924      B022A47D 
 924      5D80F675 
 924      165C7611 
ARM GAS  /tmp/ccHACQMa.s 			page 74


 924      A801
 925 15fc A80EE832 		.ascii	"\250\016\3502\220\025\350\034P=\320%\215t\241=\312\""
 925      9015E81C 
 925      503DD025 
 925      8D74A13D 
 925      CA22
 926 160e 7E7E46C4 		.ascii	"~~F\304\0312\276\037\002\223\325[\212\365\260U\333B"
 926      1932BE1F 
 926      0293D55B 
 926      8AF5B055 
 926      DB42
 927 1620 938D641A 		.ascii	"\223\215d\032Y\265_\344\302\266\235\000\2079|\035\006"
 927      59B55FE4 
 927      C2B69D00 
 927      87397C1D 
 927      06
 928 1631 9693C84E 		.ascii	"\226\223\310N\365\211\031\322\307A\032\\D\026\302d\247"
 928      F58919D2 
 928      C7411A5C 
 928      4416C264 
 928      A7
 929 1642 9948F399 		.ascii	"\231H\363\231\333\214\016\200\213\222\021\265V#\023"
 929      DB8C0E80 
 929      8B9211B5 
 929      562313
 930 1651 2DB5DBC1 		.ascii	"-\265\333\301\021\020\223m\217\373\310\016q\2274\241"
 930      1110936D 
 930      8FFBC80E 
 930      719734A1 
 931 1661 D5B139CD 		.ascii	"\325\2619\315a\032\333\224?\241\376?\323Wu@\236x\237"
 931      611ADB94 
 931      3FA1FE3F 
 931      D3577540 
 931      9E789F
 932 1674 4FB7890F 		.ascii	"O\267\211\017\035\005\351\012\004\346\257\011\022$g"
 932      1D05E90A 
 932      04E6AF09 
 932      122467
 933 1683 E8EBEC26 		.ascii	"\350\353\354&\017Y\316_\225\345\3745\226\363\344(\331"
 933      0F59CE5F 
 933      95E5FC35 
 933      96F3E428 
 933      D9
 934 1694 1BF1647B 		.ascii	"\033\361d{#\302\233\341s\330\233\341;\313\366Nc\374"
 934      23C29BE1 
 934      73D89BE1 
 934      3BCBF64E 
 934      63FC
 935 16a6 90B58A23 		.ascii	"\220\265\212#o&\006\311K\327\037\220\227Y\361\224\370"
 935      6F2606C9 
 935      4BD71F90 
 935      9759F194 
 935      F8
 936 16b7 0EDD076C 		.ascii	"\016\335\007l+\245\366\312\245\034\003\036pc+\016k\310"
 936      2BA5F6CA 
 936      A51C031E 
 936      70632B0E 
ARM GAS  /tmp/ccHACQMa.s 			page 75


 936      6BC8
 937 16c9 4E24BC78 		.ascii	"N$\274xf\011\265\270\344\271\323\307\006\350:\251\336"
 937      6609B5B8 
 937      E4B9D3C7 
 937      06E83AA9 
 937      DE
 938 16da 2DA8D207 		.ascii	"-\250\322\007|\372\334\004u\276\251\021_\241\3735}\341"
 938      7CFADC04 
 938      75BEA911 
 938      5FA1FB35 
 938      7DE1
 939 16ec B545E382 		.ascii	"\265E\343\202\232E_}\300\337:\253\211\273\333\347\202"
 939      9A455F7D 
 939      C0DF3AAB 
 939      89BBDBE7 
 939      82
 940 16fd 5F311BF9 		.ascii	"_1\033\371\203W\013=\034\332\270\343\320FZ\364\007\364"
 940      83570B3D 
 940      1CDAB8E3 
 940      D0465AF4 
 940      07F4
 941 170f 0DBADB60 		.ascii	"\015\272\333`\243U\264\001&\231\221\352\244\366\011"
 941      A355B401 
 941      269991EA 
 941      A4F609
 942 171e 0D9E62B5 		.ascii	"\015\236b\265n\036\036\202\256>\330\2352\243\271\247"
 942      6E1E1E82 
 942      AE3ED89D 
 942      32A3B9A7 
 943 172e C2D53882 		.ascii	"\302\3258\2022\272Se%W04}\362\366\005\033\373\312\206"
 943      32BA5365 
 943      25573034 
 943      7DF2F605 
 943      1BFBCA86 
 944 1742 7E7BE54D 		.ascii	"~{\345M\267\305\022m\240\272\357\202\356N\360\275\015"
 944      B7C5126D 
 944      A0BAEF82 
 944      EE4EF0BD 
 944      0D
 945 1753 D28CBD83 		.ascii	"\322\214\275\203\326x\203\245\361\367T\270\315^\330"
 945      D67883A5 
 945      F1F754B8 
 945      CD5ED8
 946 1762 D1D25C78 		.ascii	"\321\322\\x\\\247\242\342$Az\240\246\335\220\004\035"
 946      5CA7A2E2 
 946      24417AA0 
 946      A6DD9004 
 946      1D
 947 1773 405D40F7 		.ascii	"@]@\367\244\243\241\265S\264\321\250h\343\206F\262\001"
 947      A4A3A1B5 
 947      53B4D1A8 
 947      68E38646 
 947      B201
 948 1785 CA9E5C92 		.ascii	"\312\236\\\222\357Y\265sa\307\213\337&\332\025tj\354"
 948      EF59B573 
 948      61C78BDF 
 948      26DA1574 
ARM GAS  /tmp/ccHACQMa.s 			page 76


 948      6AEC
 949 1797 17BF5707 		.ascii	"\027\277W\007\312^\270\341\213\324K\352\230\214\202"
 949      CA5EB8E1 
 949      8BD44BEA 
 949      988C82
 950 17a6 AA193B7E 		.ascii	"\252\031;~\266G\216\275\000\375\207\252\301\267\266"
 950      B6478EBD 
 950      00FD87AA 
 950      C1B7B6
 951 17b5 9AE8B2F9 		.ascii	"\232\350\262\371\001\010\337\027c\326\251\341{|W\217"
 951      0108DF17 
 951      63D6A9E1 
 951      7B7C578F 
 952 17c5 845F7593 		.ascii	"\204_u\223\217 JFT\212\026"
 952      8F204A46 
 952      548A16
 953 17d0 482E1FBA 		.ascii	"H.\037\272\031*\377R\313CY\253\351\343\255\246\217\266"
 953      192AFF52 
 953      CB4359AB 
 953      E9E3ADA6 
 953      8FB6
 954 17e2 9AEAE689 		.ascii	"\232\352\346\211\353\232\273\250\015\221\271\326,\252"
 954      EB9ABBA8 
 954      0D91B9D6 
 954      2CAA
 955 17f0 0321F617 		.ascii	"\003!\366\027QR1\242,\234\250\351_\225x\011\011\202"
 955      515231A2 
 955      2C9CA8E9 
 955      5F957809 
 955      0982
 956 1802 9C570BA7 		.ascii	"\234W\013\247*\2332\372\237\227\247\337x\246\037\252"
 956      2A9B32FA 
 956      9F97A7DF 
 956      78A61FAA 
 957 1812 44D48E78 		.ascii	"D\324\216x!\306\363\302*\304y\265h\0001V( \321\307\340"
 957      21C6F3C2 
 957      2AC479B5 
 957      68003156 
 957      2820D1C7 
 958 1827 72752266 		.ascii	"ru\"f[\235\220\340\242\356\344\316\016\035nb-\241-b"
 958      5B9D90E0 
 958      A2EEE4CE 
 958      0E1D6E62 
 958      2DA12D62 
 959 183b CF11B79F 		.ascii	"\317\021\267\237fZ\254\305\226\356\327#\376\015\025"
 959      665AACC5 
 959      96EED723 
 959      FE0D15
 960 184a BD168BA7 		.ascii	"\275\026\213\247\206>.x$\206\007N\311\241\037|\245B"
 960      863E2E78 
 960      2486074E 
 960      C9A11F7C 
 960      A542
 961 185c 039A9F92 		.ascii	"\003\232\237\222\205\357\265\227]N8\321\203}\335\243"
 961      85EFB597 
 961      5D4E38D1 
 961      837DDDA3 
ARM GAS  /tmp/ccHACQMa.s 			page 77


 962 186c F1FC7EBE 		.ascii	"\361\374~\276`\320\010\363\332\246W\225\227\331B\034"
 962      60D008F3 
 962      DAA65795 
 962      97D9421C 
 963 187c 7A28F484 		.ascii	"z(\364\204\315b\217\206\237\352\222\255\202e\017\035"
 963      CD628F86 
 963      9FEA92AD 
 963      82650F1D 
 964 188c 9ED149EC 		.ascii	"\236\321I\354Sa\022\373\344F\266'\203fM\255\207|\016"
 964      536112FB 
 964      E446B627 
 964      83664DAD 
 964      877C0E
 965 189f 265F9701 		.ascii	"&_\227\001\031\364XD\366X\212\3549E\026W\3200\240\305"
 965      19F45844 
 965      F6588AEC 
 965      39451657 
 965      D030A0C5 
 966 18b3 0719B217 		.ascii	"\007\031\262\027w\303'\330\204\2334\034\206\354v\344"
 966      77C327D8 
 966      849B341C 
 966      86EC76E4 
 967 18c3 E576830D 		.ascii	"\345v\203\015\331 _\312\354\034\314\302\016\221\015"
 967      D9205FCA 
 967      EC1CCCC2 
 967      0E910D
 968 18d2 51642F05 		.ascii	"Qd/\005d\345\371\323\015j\016-\371\212\000\015\204\320"
 968      64E5F9D3 
 968      0D6A0E2D 
 968      F98A000D 
 968      84D0
 969 18e4 0B11DA0B 		.ascii	"\013\021\332\013)\264a\012\255\367\\X\253\026\3473h"
 969      29B4610A 
 969      ADF75C58 
 969      AB16E733 
 969      68
 970 18f5 E5A7CBC6 		.ascii	"\345\247\313\306E\030|\025x\341m\202c\377\214P\024\257"
 970      45187C15 
 970      78E16D82 
 970      63FF8C50 
 970      14AF
 971 1907 0514E3E7 		.ascii	"\005\024\343\347\037[\004\024\367l(@\010\275\022Q\274"
 971      1F5B0414 
 971      F76C2840 
 971      08BD1251 
 971      BC
 972 1918 92A218A5 		.ascii	"\222\242\030\245(\212s.\335\326\342r\206b\352RZ\252"
 972      288A732E 
 972      DDD6E272 
 972      8662EA52 
 972      5AAA
 973 192a DAA1C571 		.ascii	"\332\241\305qjq57X\020~\340\20037x\242\357\343\375\231"
 973      6A713537 
 973      58107EE0 
 973      80333778 
 973      A2EFE3FD 
 974 193f D6302886 		.ascii	"\3260(\206\211\024\032\023M\216IM\276\241&+\037\026"
ARM GAS  /tmp/ccHACQMa.s 			page 78


 974      89141A13 
 974      4D8E494D 
 974      BEA1262B 
 974      1F16
 975 1951 85E8F1D5 		.ascii	"\205\350\361\325w19)3\371\366p\341\036'0\231\011&o\375"
 975      77313929 
 975      33F9F670 
 975      E11E2730 
 975      9909266F 
 976 1966 1B999658 		.ascii	"\033\231\226X\350\023O\2608!Z\234\220Z\234\242\026_"
 976      E8134FB0 
 976      38215A9C 
 976      905A9CA2 
 976      165F
 977 1978 F78EB5A9 		.ascii	"\367\216\265\251q+\263x\340\332\310A\304\2654g`\231"
 977      712BB378 
 977      E0DAC841 
 977      C4B53467 
 977      6099
 978 198a 9AB7A29A 		.ascii	"\232\267\242\232\267R5\323TM\262%s\004\341\373LMJ\241"
 978      B75235D3 
 978      544DB225 
 978      7304E1FB 
 978      4C4D4AA1 
 979 199e 2543C7D5 		.ascii	"%C\307\325\034Xm\323BR\322\242\025\337\332\321J\264"
 979      1C586DD3 
 979      4252D2A2 
 979      15DFDAD1 
 979      4AB4
 980 19b0 046B8996 		.ascii	"\004k\211\226\207\017\363`=\373\202ii>\333\320)T\251"
 980      870FF360 
 980      3DFB8269 
 980      693EDBD0 
 980      2954A9
 981 19c3 742DD312 		.ascii	"t-\323\022\254\246q\013\021\265\204H\265\204R-g2,\026"
 981      ACA6710B 
 981      11B58448 
 981      B584522D 
 981      67322C16 
 982 19d7 1D9E605A 		.ascii	"\035\236`Z\366\266w&\252i\366\264\331vWz\312{\207\335"
 982      F6B67726 
 982      AA69F6B4 
 982      D976577A 
 982      CA7B87DD 
 983 19eb 649DDFA0 		.ascii	"d\235\337\240l\3139\\k\333\002h\330\237\303\232\005"
 983      6CCB395C 
 983      6BDB0268 
 983      D89FC39A 
 983      05
 984 19fc 5C433BB5 		.ascii	"\\C;\265\264\370\225\372#\263\034\206%RK\367\204\264"
 984      B4F895FA 
 984      23B31C86 
 984      25524BF7 
 984      84B4
 985 1a0e 3C2E9783 		.ascii	"<.\227\203\017\235\303P\211n\372\250`q~q\257%\322\223"
 985      0F9DC350 
 985      896EFAA8 
ARM GAS  /tmp/ccHACQMa.s 			page 79


 985      60717E71 
 985      AF25D293 
 986 1a22 4AA130B1 		.ascii	"J\2410\261\022aZ\366\3567\212\242\025\250O>_\240\307"
 986      12615AF6 
 986      EE378AA2 
 986      15A84F3E 
 986      5FA0C7
 987 1a35 B1B3584C 		.ascii	"\261\263XL\036\237n\226\357\331\234\227\201\335e\003"
 987      1E9F6E96 
 987      EFD99C97 
 987      81DD6503 
 988 1a45 DB73317A 		.ascii	"\333s1z\232m\227\3005^\325\352\227\271G\260\343\345"
 988      9A6D97C0 
 988      355ED5EA 
 988      97B947B0 
 988      E3E5
 989 1a57 700C45BB 		.ascii	"p\014E\273[@\333\374(\346\250;G{\353\304\346\033\245"
 989      5B40DBFC 
 989      28E6A83B 
 989      477BEBC4 
 989      E61BA5
 990 1a6a 0C2D48A1 		.ascii	"\014-H\241h\021m\264\200v\017E;~<\356\242\033\3367\313"
 990      68116DB4 
 990      80760F45 
 990      3B7E3CEE 
 990      A21BDE37 
 991 1a7f E1964DF9 		.ascii	"\341\226M\371\320\355*7[\003\216eN\334\275\373j\224"
 991      D0ED2A37 
 991      5B038E65 
 991      4EDCBDFB 
 991      6A94
 992 1a91 87432FC6 		.ascii	"\207C/\306S\\q\002\256\232\372\340\3578\254\256\212"
 992      535C7102 
 992      AE9AFAE0 
 992      EF38ACAE 
 992      8A
 993 1aa2 DF5EE34E 		.ascii	"\337^\343N\004!\264W\204\265W\200\225@a\335\352\254"
 993      0421B457 
 993      84B55780 
 993      954061DD 
 993      EAAC
 994 1ab4 1EC43897 		.ascii	"\036\3048\227\301\212x\232\335\312\262\240\304\006\253"
 994      C18A789A 
 994      DDCAB2A0 
 994      C406AB
 995 1ac3 AD356BA1 		.ascii	"\2555k\241C\000\311\024@\222\000 2*!M\010\343\320\341"
 995      4300C914 
 995      40920020 
 995      322A214D 
 995      08E3D0E1 
 996 1ad7 3FED2FB5 		.ascii	"?\355/\265\2049\023\031\224(\332O\024\354\357\243\366"
 996      84391319 
 996      9428DA4F 
 996      14ECEFA3 
 996      F6
 997 1ae8 BB0687EB 		.ascii	"\273\006\207\353]\361Cf\377\350\263#\257\021/_\234\365"
 997      5DF14366 
ARM GAS  /tmp/ccHACQMa.s 			page 80


 997      FFE8B323 
 997      AF112F5F 
 997      9CF5
 998 1afa AF6F6979 		.ascii	"\257oiy\322\252R\304\362)B\371\375\264\374@K\265\023"
 998      D2AA52C4 
 998      F22942F9 
 998      FDB4FC40 
 998      4BB513
 999 1b0d 1E63C51F 		.ascii	"\036c\305\037\237\270ca\036<\215m\221\035}^\243\267"
 999      9FB86361 
 999      1E3C8D6D 
 999      911D7D5E 
 999      A3B7
 1000 1b1f 5D4B635E 		.ascii	"]Kc^\2558\372\274\\t\365\001vq\250e\270\315\325aM3h"
 1000      AD38FABC 
 1000      5C74F501 
 1000      7671A865 
 1000      B8CDD561 
 1001 1b36 4DD3859A 		.ascii	"M\323\205\2326\224\014<\327q\244\235\025\376W)R\220"
 1001      36940C3C 
 1001      D771A49D 
 1001      15FE5729 
 1001      5290
 1002 1b48 41A922D2 		.ascii	"A\251\"\322T\001\351A\2124\255\345\376a5\336\371#\207"
 1002      5401E941 
 1002      8A34ADE5 
 1002      FE6135DE 
 1002      F92387
 1003 1b5b 9EEEBD77 		.ascii	"\236\356\275w\266\315\303v\355\020C\265/9\351\265\223"
 1003      B6CDC376 
 1003      ED1043B5 
 1003      2F39E9B5 
 1003      93
 1004 1b6c 43548729 		.ascii	"CT\207)\252,\001\325PT\344eg\233\377M\314\377 \2032"
 1004      AA2C01D5 
 1004      5054E465 
 1004      679BFF4D 
 1004      CCFF2083 
 1005 1b81 45549902 		.ascii	"ET\231\002\252l\212\352\301\263\273\223\006\234\314"
 1005      AA6C8AEA 
 1005      C1B3BB93 
 1005      069CCC
 1006 1b90 50F53F2F 		.ascii	"P\365?/\313t\376\331aKw&\031\2767\367\035\006\243\210"
 1006      CB74FED9 
 1006      614B7726 
 1006      19BE37F7 
 1006      1D06A388 
 1007 1ba4 2E148E30 		.ascii	".\024\2160\005\266\245\210\212\\\201\2779\332\237\221"
 1007      05B6A588 
 1007      8A5C81BF 
 1007      39DA9F91 
 1008 1bb4 DDA48359 		.ascii	"\335\244\203Y0z\2472%G/\006\0278\201\222F\350\331o\325"
 1008      307AA732 
 1008      25472F06 
 1008      17388192 
 1008      46E8D96F 
 1009 1bc9 FD0456A5 		.ascii	"\375\004V\245\032:k\312\345*\304\231*\271\362\015L\202"
ARM GAS  /tmp/ccHACQMa.s 			page 81


 1009      1A3A6BCA 
 1009      E52AC499 
 1009      2AB9F20D 
 1009      4C82
 1010 1bdb F288121C 		.ascii	"\362\210\022\034\2657,\306\200\370\267>\330w;\246\247"
 1010      B5372CC6 
 1010      80F8B73E 
 1010      D8773BA6 
 1010      A7
 1011 1bec 9D5081D6 		.ascii	"\235P\201\326\205}\323\303\022\227\365O\224\243\337"
 1011      857DD3C3 
 1011      1297F54F 
 1011      94A3DF
 1012 1bfb CDB29FD8 		.ascii	"\315\262\237\330\253\350-\025:\252\235\213\362\265s"
 1012      ABE82D15 
 1012      3AAA9D8B 
 1012      F2B573
 1013 1c0a 294BE274 		.ascii	")K\342t\353A\212\336\205?\274\210}\207\337\002(\244"
 1013      EB418ADE 
 1013      853FBC88 
 1013      7D87DF02 
 1013      28A4
 1014 1c1c C5EEA69E 		.ascii	"\305\356\246\236=\346\356\302W\020\261?\274\202@\307"
 1014      3DE6EEC2 
 1014      5710B13F 
 1014      BC8240C7 
 1015 1c2c 68B1FE84 		.ascii	"h\261\376\204\254Xy'Dz01\\\307Y'D\216 }\350\321\276"
 1015      AC587927 
 1015      447A3031 
 1015      5CC75927 
 1015      448E207D 
 1016 1c43 5E0F9CCF 		.ascii	"^\017\234\317\274\026\377\354i\243\236\317\234\222\216"
 1016      BC16FFEC 
 1016      69A39ECF 
 1016      9C928E
 1017 1c52 AFEE0ABD 		.ascii	"\257\356\012\275\262\333\222\031b\371\347\345TE\221"
 1017      B2DB9219 
 1017      62F9E7E5 
 1017      544591
 1018 1c61 18BF2269 		.ascii	"\030\277\"iO^Lcx\355bs\212\023\276O\025iz\217\237l\305"
 1018      4F5E4C63 
 1018      78ED6273 
 1018      8A13BE4F 
 1018      15697A8F 
 1019 1c78 C899F9D1 		.ascii	"\310\231\371\321+\202=\336\315|\177\263\355!\305)\255"
 1019      2B823DDE 
 1019      CD7C7FB3 
 1019      ED21C529 
 1019      AD
 1020 1c89 172AD53A 		.ascii	"\027*\325:\203\216\023\340\253\223\340+\362\345\031"
 1020      838E13E0 
 1020      AB93E02B 
 1020      F2E519
 1021 1c98 7285BA79 		.ascii	"r\205\272y\026=\225|\353\006XT\242\265}\353\206\360"
 1021      163D957C 
 1021      EB065854 
 1021      A2B57DEB 
ARM GAS  /tmp/ccHACQMa.s 			page 82


 1021      86F0
 1022 1caa 60F3547A 		.ascii	"`\363Tzk\306\367|\021\373\264\226\177\021\373c\372\004"
 1022      6BC6F77C 
 1022      11FBB496 
 1022      7F11FB63 
 1022      FA04
 1023 1cbc E4CE68D7 		.ascii	"\344\316h\327\250\033\377\226\262\225|K\231|\225G\014"
 1023      A81BFF96 
 1023      B2957C4B 
 1023      997C9547 
 1023      0C
 1024 1ccd 5D99D653 		.ascii	"]\231\326S(C\031\322\030&\216U\360o\024\353\310\304"
 1024      284319D2 
 1024      18268E55 
 1024      F06F14EB 
 1024      C8C4
 1025 1cdf EBC1E87D 		.ascii	"\353\301\350}\275cs\345\202\2713Zj\357U\364\316Q\376"
 1025      BD6373E5 
 1025      82B9335A 
 1025      6AEF55F4 
 1025      CE51FE
 1026 1cf2 43156467 		.ascii	"C\025dgF\370\222\354\034\366%\331\360\314\344\027\256"
 1026      46F892EC 
 1026      1CF625D9 
 1026      F0CCE417 
 1026      AE
 1027 1d03 D2EF4C13 		.ascii	"\322\357L\0234\225\340\214\012-QVE\321\22434U\024M\341"
 1027      3495E08C 
 1027      0A2D5156 
 1027      45D19433 
 1027      3455144D 
 1028 1d18 E4C9DDF2 		.ascii	"\344\311\335\362\235\371!\331\006h5\017l5\015l\304\275"
 1028      9DF921D9 
 1028      0668350F 
 1028      6C350D6C 
 1028      C4BD
 1029 1d2a B376DF6A 		.ascii	"\263v\337j\210\227\245A\015\227\256\241\322\243\017"
 1029      8897A541 
 1029      0D97AEA1 
 1029      D2A30F
 1030 1d39 9EF6C957 		.ascii	"\236\366\311W\34612\351Z.]K\245\373s-\243\356\370\021"
 1030      E63132E9 
 1030      5A2E5D4B 
 1030      A5FB732D 
 1030      A3EEF811 
 1031 1d4d 4B9AB3D6 		.ascii	"K\232\263\326\206\"\2364\326V>\2038\304\346!V1c\254"
 1031      86229E34 
 1031      D6563E83 
 1031      38C4E621 
 1031      563163AC 
 1032 1d61 D28C394B 		.ascii	"\322\2149K3fp\344J\034\306\023LKUXe\254\023O\2753\245"
 1032      336670E4 
 1032      4A1CC613 
 1032      4C4B5558 
 1032      65AC134F 
 1033 1d78 BF1E28B5 		.ascii	"\277\036(\265X\242,\226s\032\252\347\234\250\347\234"
 1033      58A22C96 
ARM GAS  /tmp/ccHACQMa.s 			page 83


 1033      731AAAE7 
 1033      9CA8E79C 
 1034 1d88 54CF79AA 		.ascii	"T\317y\252\347\374H\3531'\\\350I\365L\227\034\234\024"
 1034      E7FC48EB 
 1034      31275CE8 
 1034      49F54C97 
 1034      1C9C14
 1035 1d9b 52B8386B 		.ascii	"R\2708kE\336\341p2\207\314\\N'a\350\202\250\350\202"
 1035      45DEE170 
 1035      3287CC5C 
 1035      4E2761E8 
 1035      82A8E882 
 1036 1daf 54D145AA 		.ascii	"T\321E\252(gtl\227;\256e\212\2062.\247`^\255Wke\325"
 1036      2867746C 
 1036      973BAE65 
 1036      8A86322E 
 1036      A7605EAD 
 1037 1dc7 AA13B5D4 		.ascii	"\252\023\265\324I\265\324S-\267\373\316\255\301\227"
 1037      49B5D453 
 1037      2DB7FBCE 
 1037      ADC197
 1038 1dd6 9892A3C7 		.ascii	"\230\222\243\3072\212\335\361m\306\354:w\376\000}[\343"
 1038      328ADDF1 
 1038      6DC6EC3A 
 1038      77FE007D 
 1038      5BE3
 1039 1de8 122D0457 		.ascii	"\022-\004W\356=\035~\306'\237\335ie\377>5B^\322\262"
 1039      EE3D1D7E 
 1039      C6279FDD 
 1039      6965FF3E 
 1039      35425ED2 
 1040 1dfd 58C2D01C 		.ascii	"X\302\320\034:`5\010v\320e\255\206p\242\251+\324T\326"
 1040      3A603508 
 1040      76D065AD 
 1040      8670A2A9 
 1040      2BD454D6 
 1041 1e11 9DB6521D 		.ascii	"\235\266R\035\316\234\315\366@J\217>t\2625^\323.\261"
 1041      CE9CCDF6 
 1041      404A8F3E 
 1041      74B2355E 
 1041      D32EB1
 1042 1e24 F112CC57 		.ascii	"\361\022\314WE\314W\245\212\256QE\211G\352\2434\370"
 1042      45CC57A5 
 1042      8AAE5145 
 1042      8947EAA3 
 1042      34F8
 1043 1e36 14537477 		.ascii	"\024Stw8\346\012\262\205\342\017Od\241\270.\352\271"
 1043      38E60AB2 
 1043      85E20F4F 
 1043      64A1B82E 
 1043      EAB9
 1044 1e48 2ED57383 		.ascii	".\325s\203\352\271\324{\354\234;n`z\256\034\032\267"
 1044      EAB9D47B 
 1044      EC9C3B6E 
 1044      607AAE1C 
 1044      1AB7
 1045 1e5a 225B287C 		.ascii	"\"[(|\363\345\241h\024\0255J\025\335\244\212\272\017"
ARM GAS  /tmp/ccHACQMa.s 			page 84


 1045      F3E5A168 
 1045      1415354A 
 1045      15DDA48A 
 1045      BA0F
 1046 1e6c F627B8E1 		.ascii	"\366'\270\341\016\246(*\346\311\240\226\207\242e\235"
 1046      0EA6282A 
 1046      E6C9A096 
 1046      87A2659D 
 1047 1e7c 2C144DA2 		.ascii	",\024M\242\226&\251\226f\252e\370B\3360\337A\212%\357"
 1047      9626A996 
 1047      66AA65F8 
 1047      42DE30DF 
 1047      418A25EF 
 1048 1e90 5BD4BC7D 		.ascii	"[\324\274}r\331\025\0170\255\205\327\352\357\361\346"
 1048      72D9150F 
 1048      30AD85D7 
 1048      EAEFF1E6 
 1049 1ea0 19496EE6 		.ascii	"\031In\3464\247\276\324\341!v33\245!D\215\3370F\370"
 1049      34A7BED4 
 1049      E1217633 
 1049      33A52144 
 1049      8DDF3046 
 1050 1eb5 6D084FFE 		.ascii	"m\010O\376\333\020\331g\272'\021\3369\207\336\264\326"
 1050      DB10D967 
 1050      BA2711DE 
 1050      3987DEB4 
 1050      D6
 1051 1ec6 ED7E8670 		.ascii	"\355~\206p,c\246\317\215\336q\303\311\214Ik{[\354!\366"
 1051      2C63A6CF 
 1051      8DDE71C3 
 1051      C98C496B 
 1051      7B5BEC21 
 1052 1edb 37663AA2 		.ascii	"7f:\242\012\357U\251P\207\244\277!cl\371\375Aw\234\311"
 1052      0AEF55A9 
 1052      5087A4BF 
 1052      21636CF9 
 1052      FD41779C 
 1053 1ef0 8AC69D7F 		.ascii	"\212\306\235\177=\354\212\263\031s/+\361\210\206\231"
 1053      3DEC8AB3 
 1053      19732F2B 
 1053      F1888699 
 1054 1f00 7F44F8F4 		.ascii	"\177D\370\364\311\3110\015\316g7\233B\022\262u\370\004"
 1054      C9C9300D 
 1054      CE67379B 
 1054      4212B275 
 1054      F804
 1055 1f12 63269EE7 		.ascii	"c&\236\347\016\352p5c\312z\222j\371N\361\035\272\341"
 1055      0EEA7035 
 1055      63CA7A92 
 1055      6AF94EF1 
 1055      1DBAE1
 1056 1f25 3C7CE0A5 		.ascii	"<|\340\245\001\327\263\233;\263[v;\341\233\214\031\276"
 1056      01D7B39B 
 1056      3BB35B76 
 1056      3BE19B8C 
 1056      19BE
 1057 1f37 1B5367C0 		.ascii	"\033Sg\300w\031s\241\341A\263\036?d\314\256\213\247"
ARM GAS  /tmp/ccHACQMa.s 			page 85


 1057      771973A1 
 1057      E141B31E 
 1057      3F64CCAE 
 1057      8BA7
 1058 1f49 EAB88F1A 		.ascii	"\352\270\217\032\010\037\374\2508\002\343\027\354\346"
 1058      081FFCA8 
 1058      3802E317 
 1058      ECE6
 1059 1f57 CBC6F3D1 		.ascii	"\313\306\363\321\316x\2341\327\242\342\223\3248\370"
 1059      CE789C31 
 1059      D7A2E293 
 1059      D438F8
 1060 1f66 3F3137A4 		.ascii	"?17\244\015\246\033p\024c\252\016\357\314\327\343\004"
 1060      0DA61B70 
 1060      1463AA0E 
 1060      EFCCD7E3 
 1060      04
 1061 1f77 C6845D8F 		.ascii	"\306\204]\217\271g\300i\2149\376(\302\352\204\017s\261"
 1061      B967C069 
 1061      8C39FE28 
 1061      C2EA840F 
 1061      73B1
 1062 1f89 6BE385EE 		.ascii	"k\343\205\356\270\2003wOy\343S\354\374\320\243\362\004"
 1062      B8803377 
 1062      4F79E353 
 1062      ECFCD0A3 
 1062      F204
 1063 1f9b 0F5CC398 		.ascii	"\017\\\303\230\236"
 1063      9E
 1064 1fa0 8EFE6877 		.ascii	"\216\376hw\\\317\230\360\332\244jg|\2231\027\272;\021"
 1064      5CCF98F0 
 1064      DAA46A67 
 1064      7C933117 
 1064      BA3B11
 1065 1fb3 6E67E74F 		.ascii	"ng\347O\242\255\260Pz\300\230\374\362\230\036-~\312"
 1065      A2ADB050 
 1065      7AC098FC 
 1065      F2981E2D 
 1065      7ECA
 1066 1fc5 98076561 		.ascii	"\230\007ea#\032<\310\230\202\311\214Fg\374\2321\215"
 1066      231A3CC8 
 1066      9882C98C 
 1066      4667FC9A 
 1066      318D
 1067 1fd7 15DD0FDD 		.ascii	"\025\335\017\335\361\024c.\205\304\344\362\0374H!\021"
 1067      F114632E 
 1067      85C4E4F2 
 1067      1F344821 
 1067      11
 1068 1fe8 7F9E5C7A 		.ascii	"\177\236\\zN\307\037\200\221\201\347\361\256\214l\015"
 1068      4EC71F80 
 1068      9181E7F1 
 1068      AE8C6C0D 
 1069 1ff8 B6FC9808 		.ascii	"\266\374\230\010\317{\224\274"
 1069      CF7B94BC 
 1070 2000 375987E6 		.ascii	"7Y\207\3469\376x\011\217\242\330\373\253\011M\237\355"
 1070      39FE7809 
ARM GAS  /tmp/ccHACQMa.s 			page 86


 1070      8FA2D8FB 
 1070      AB094D9F 
 1070      ED
 1071 2011 6F62DF13 		.ascii	"ob\337\023\201\034@/!\205\017\350f|OD\362\003,Mk\305"
 1071      811C402F 
 1071      21850FE8 
 1071      667C4F44 
 1071      F2032C4D 
 1072 2027 1F6079C0 		.ascii	"\037`y\300\245m\023\210\033\310N:^\"\375\332^Z\376\306"
 1072      A56D1388 
 1072      1BC84E3A 
 1072      5E22FDDA 
 1072      5E5AFEC6 
 1073 203b A20516D9 		.ascii	"\242\005\026\331k\203\2514Ar\317\036I\251\275\356N\211"
 1073      6B83A934 
 1073      4172CF1E 
 1073      49A9BDEE 
 1073      4E89
 1074 204d EEBBF6BA 		.ascii	"\356\273\366\272\333\264v\272[%\272{\354uwk\355t\217"
 1074      DBB476BA 
 1074      5B25BA7B 
 1074      EC75776B 
 1074      ED748F
 1075 2060 F989BADF 		.ascii	"\371\211\272\337\330\353\236\361[;w$H\272\354\245O\330"
 1075      D8EB9EF1 
 1075      5B3B7724 
 1075      48BAECA5 
 1075      4FD8
 1076 2072 E38E9548 		.ascii	"\343\216\225H\217\330K\317\374y\234!\211\370\035{\361"
 1076      8FD84BCF 
 1076      FC799C21 
 1076      89F81D7B 
 1076      F1
 1077 2083 567BE019 		.ascii	"V{\340\031\022\351\027\366\322]3\224\237\224\210?\265"
 1077      12E917F6 
 1077      D25D3394 
 1077      9F94883F 
 1077      B5
 1078 2094 177F658F 		.ascii	"\027\177e\217|L\"\375\326^\272Ek\377\274&\221\213\223"
 1078      7C4C22FD 
 1078      D65EBA45 
 1078      6BFFBC26 
 1078      918B93
 1079 20a7 AEE69572 		.ascii	"\256\346\225r\360\245XF$\332o)k\227l\011\227J\224?\263"
 1079      F0A55846 
 1079      24DA6F29 
 1079      6B976C09 
 1079      974A943F 
 1080 20bc 977E3D43 		.ascii	"\227~=C\371\244$\240c\366\3423_Y= \3012\250\354F\211"
 1080      F9A424A0 
 1080      63F6E233 
 1080      5F593D20 
 1080      C132A8EC 
 1081 20d2 5F8A25D2 		.ascii	"_\212%\322\317\225\261H\244\333%\322\235\312\331\"\205"
 1081      CF95B148 
 1081      A4DB25D2 
 1081      9DCAD922 
ARM GAS  /tmp/ccHACQMa.s 			page 87


 1081      85
 1082 20e3 F24A227E 		.ascii	"\362J\"~[9\376R\361*\211x\277\275x\307\014\355\311\022"
 1082      5B39FE52 
 1082      F12A8978 
 1082      BFBD78C7 
 1082      0CEDC912 
 1083 20f7 F1617BF1 		.ascii	"\361a{\361\007\366\320S$\322C\312\322R\345o$N\037Wv"
 1083      07F6D053 
 1083      24D243CA 
 1083      D252E56F 
 1083      244E1F57 
 1084 210c BA44F969 		.ascii	"\272D\371i\211\362'\312\271(U\376V\242|T\271\031I_\202"
 1084      89F227CA 
 1084      B92855FE 
 1084      56A27C54 
 1084      B919495F 
 1085 2121 7BC07EB1 		.ascii	"{\300~\261\012\244f>\202\275\331\307\177\261\212$\323"
 1085      0AA4663E 
 1085      82BDD9C7 
 1085      7FB18A24 
 1085      D3
 1086 2132 437B5DBD 		.ascii	"C{]\275\022\037\313v\347\247`\202<Io\022y\272\222\323"
 1086      121FCB76 
 1086      E7A76082 
 1086      3C496F12 
 1086      79BA92D3 
 1087 2146 79A183BA 		.ascii	"y\241\203\272yh'\320>\240\275@\373\201\"\200\202\201"
 1087      796827D0 
 1087      3EA0BD40 
 1087      FB812280 
 1087      8281
 1088 2158 76032501 		.ascii	"v\003%\001%\003Mk\347\241X8F\001\305\001\355\001\212"
 1088      25034D6B 
 1088      E7A15838 
 1088      4601C501 
 1088      ED018A
 1089 216b 064A01CA 		.ascii	"\006J\001\312\002J\007J\004\312\004J\003\262\000e\000"
 1089      024A074A 
 1089      04CA044A 
 1089      03B20065 
 1089      00
 1090 217c 85018503 		.ascii	"\205\001\205\003\305\003\205\000\205\002\035\002\212"
 1090      C5038500 
 1090      85021D02 
 1090      8A
 1091 2189 044A008A 		.ascii	"\004J\000\212\001\332\245\223\374\322\230\265B\342\330"
 1091      01DAA593 
 1091      FCD298B5 
 1091      42E2D8
 1092 2198 47CA2921 		.ascii	"G\312)!\011C\213D\372\276r\007/k\265\2220L(\366\224"
 1092      09438B44 
 1092      FABE7207 
 1092      2F6BB592 
 1092      304C28F6 
 1093 21ad 12DD3512 		.ascii	"\022\3355\022\335}\312~\226H\017J\244\333\225;x\311"
 1093      DD7DCA7E 
 1093      96480F4A 
ARM GAS  /tmp/ccHACQMa.s 			page 88


 1093      A4DB953B 
 1093      78C9
 1094 21bf 7352EB19 		.ascii	"sR\353\031I\017\377\330\276\207\037\020\225\223\315"
 1094      490FFFD8 
 1094      BE871F10 
 1094      9593CD
 1095 21ce CBC2C20E 		.ascii	"\313\302\302\016W\034\365c\366^n\377\371tw\3333\310"
 1095      571CF563 
 1095      F65E6EFF 
 1095      F97477DB 
 1095      33C8
 1096 21e0 893EFAD3 		.ascii	"\211>\372\323`G\240\360a\235m>G\322\306A\364Q6\004\375"
 1096      6047A0F0 
 1096      619D6D3E 
 1096      47D2C641 
 1096      F4513604 
 1097 21f5 FFD70480 		.ascii	"\377\327\004\200\272\226Ne\234\323\313VSGt\322}\300"
 1097      BA964E65 
 1097      9CD3CB56 
 1097      534774D2 
 1097      7DC0
 1098 2207 1C1D5B4D 		.ascii	"\034\035[M\301\221l\257\015<<\242\225I'\313\326^\271"
 1098      C1916CAF 
 1098      0D3C3CA2 
 1098      954927CB 
 1098      D65EB9
 1099 221a 5C3A974A 		.ascii	"\\:\227J?\330\231\260K\376\306\321\210l\025\230\307"
 1099      3FD899B0 
 1099      4BFEC6D1 
 1099      886C1598 
 1099      C7
 1100 222b A5F3A8F4 		.ascii	"\245\363\250\364\304\303\242~\371[\177\2232\351|.\235"
 1100      C4C3A27E 
 1100      F95B7F93 
 1100      32E97C2E 
 1100      9D
 1101 223c 4FA52FD5 		.ascii	"O\245/\325V\325\312\177b\"C\206\344(\227>J\245\273c"
 1101      56D5CA7F 
 1101      62224386 
 1101      E428973E 
 1101      4AA5BB63 
 1102 2250 9E96C9D7 		.ascii	"\236\226\311\327\214\207e\322\005\\\272\200J?\263L\014"
 1102      8C8765D2 
 1102      055CBA80 
 1102      4A3FB34C 
 1102      0C
 1103 2261 CA753F93 		.ascii	"\312u?\223!)\344\322\205\016p\217\313_\366\341\322\307"
 1103      2129E4D2 
 1103      850E708F 
 1103      CB5FF6E1 
 1103      D2C7
 1104 2273 A8745756 		.ascii	"\250tWVo\250\033N\3721\233|6\036:\307\036\322\220\007"
 1104      6FA81B4E 
 1104      FA319B7C 
 1104      361E3AC7 
 1104      1ED29007 
 1105 2287 F26C572B 		.ascii	"\362lW+\375tG\252\326\341\006V\261\216l`\025\351\204"
ARM GAS  /tmp/ccHACQMa.s 			page 89


 1105      FD7447AA 
 1105      D6E10656 
 1105      B18E6C60 
 1105      15E984
 1106 229a 0DACA36D 		.ascii	"\015\254\243m1:\333\363\243\315G+\330\252L\243!\202"
 1106      313ADBF3 
 1106      A3CD472B 
 1106      D8AA4CA3 
 1106      2182
 1107 22ac E8B898A1 		.ascii	"\350\270\230\241p*\2568Jt?U\351?\377\315\267\357/\231"
 1107      702AAE38 
 1107      4A743F55 
 1107      E93FFFCD 
 1107      B7EF2F99 
 1108 22c0 3F5FE5E2 		.ascii	"?_\345\342\343\263\305?\300\274p\201\217\331\350\275"
 1108      E3B3C53F 
 1108      C0BC7081 
 1108      8FD9E8BD 
 1109 22d0 3E70A3D1 		.ascii	">p\243\321{\215o\200\277q\203\367\262\215\253\215k\326"
 1109      7B8D6F80 
 1109      BF7183F7 
 1109      B28DAB8D 
 1109      6BD6
 1110 22e2 18D72C36 		.ascii	"\030\327,6m\364^\347\347\367\241\257i\343\207\001\201"
 1110      6DF45EE7 
 1110      E7F7A1AF 
 1110      69E38701 
 1110      81
 1111 22f3 01C60F8D 		.ascii	"\001\306\017\215\276\253\375?\374\245\317\242\017\027"
 1111      BEABFD3F 
 1111      FCA5CFA2 
 1111      0F17
 1112 2301 7C3CFF93 		.ascii	"|<\377\223\315\013\275e7\274\375\003\3746lYc\364\336"
 1112      CD0BBD65 
 1112      37BCFD03 
 1112      FC366C59 
 1112      63F4DE
 1113 2314 E8EBB7DE 		.ascii	"\350\353\267\336?\300\350\355\263\306\270\326w\313\006"
 1113      3FC0E8ED 
 1113      B3C6B8D6 
 1113      77CB06
 1114 2323 B38F79C7 		.ascii	"\263\217y\307&c\320G\353Uz\301\334\277\377\3374\027"
 1114      2663D047 
 1114      EB557AC1 
 1114      DCBFFFDF 
 1114      3417
 1115 2335 B423C8DB 		.ascii	"\264#\310\333'\310\274\006t\203\015\355\226 _\223\031"
 1115      27C8BC06 
 1115      74830DED 
 1115      96205F93 
 1115      19
 1116 2346 2F59B910 		.ascii	"/Y\271\020h\001\320|\374\351\312\225\352\245+\325\253"
 1116      6801D07C 
 1116      FCE9CA95 
 1116      EAA52BD5 
 1116      AB
 1117 2357 566A3EFF 		.ascii	"Vj>\377\346\353\225\013>\372\310\233\375\017\014\362"
ARM GAS  /tmp/ccHACQMa.s 			page 90


 1117      E6EB950B 
 1117      3EFAC89B 
 1117      FD0F0CF2 
 1118 2367 F60BDCB8 		.ascii	"\366\013\334\27010\300\333\270\335\354\275\352\033\370"
 1118      3130C0DB 
 1118      B8DDECBD 
 1118      EA1BF8
 1119 2376 FFE5C205 		.ascii	"\377\345\302\005\237-\332\276\335;\310\274q\341\202"
 1119      9F2DDABE 
 1119      DD3BC8BC 
 1119      71E182
 1120 2385 B58B167D 		.ascii	"\265\213\026}\262};\350t\373v\325\342\225\337\370|\003"
 1120      B27D3BE8 
 1120      74FB76D5 
 1120      E295DFF8 
 1120      7C03
 1121 2397 D5586A5C 		.ascii	"\325Xj\\\253\016\\\355\314<\367+\037\263\023?\252\375"
 1121      AB0E5CED 
 1121      CC3CF72B 
 1121      1FB3133F 
 1121      AAFD
 1122 23a9 57EB0237 		.ascii	"W\353\0027o1n1\3527\373\004\004\232\375\327\356p\332"
 1122      6F316E31 
 1122      EA37FB04 
 1122      049AFDD7 
 1122      EE70DA
 1123 23bc EC635AB3 		.ascii	"\354cZ\263\311l\202\3436\023\034\265\233}\314\201\233"
 1123      C96C82E3 
 1123      36131CB5 
 1123      9B7DCC81 
 1123      9B
 1124 23cd E0F6EA2D 		.ascii	"\340\366\352-k\327\032M\316\233}\374\002\267\004\230"
 1124      6BD71A4D 
 1124      CE9B7DFC 
 1124      02B70498 
 1125 23dd 8D265D90 		.ascii	"\215&]\220\377\237\214>f\277\277\316)\033\374W\023\001"
 1125      FF9F8C3E 
 1125      66BFBFCE 
 1125      291BFC57 
 1125      1301
 1126 23ef 3BE7FCF2 		.ascii	";\347\374\362\243E\037\315\027]d\006Uk\241&`t\233\257"
 1126      A3451FCD 
 1126      175D6406 
 1126      556BA126 
 1126      60749BAF 
 1127 2403 BFD93F60 		.ascii	"\277\331?`\235&\000*\2557\031}7l2\371\007:\231\311_"
 1127      9D26002A 
 1127      AD37197D 
 1127      376C32F9 
 1127      073A99C9 
 1128 2418 1FF3AF14 		.ascii	"\037\363\257\024\234\263)\320d\016\362^\274\362\313"
 1128      9CB329D0 
 1128      640EF25E 
 1128      BCF2CB
 1129 2427 255F6E27 		.ascii	"%_n'\3276\371o0\232\202\274?_\262\304\333o\275\020Z"
 1129      D736F96F 
 1129      309A82BC 
ARM GAS  /tmp/ccHACQMa.s 			page 91


 1129      3F5FB2C4 
 1129      DB6FBD10 
 1130 243c A78DE6ED 		.ascii	"\247\215\346\355\033\374\203\314\332\300m\001F\250*"
 1130      1BFC83CC 
 1130      DAC06D01 
 1130      46A82A
 1131 244b F184D3C6 		.ascii	"\361\204\323\306-f\343v\037\263\336o\275\017=\325\033"
 1131      2D66E376 
 1131      1FB3DE6F 
 1131      BD0F3DD5 
 1131      1B
 1132 245c 37190320 		.ascii	"7\031\003 N\353\\\215[\215\001\346\215\276A\177\204"
 1132      4EEB5C8D 
 1132      5B8D01E6 
 1132      8DBE417F 
 1132      84
 1133 246d BB1B83D6 		.ascii	"\273\033\203\3261q\216\314\003\304\315\353\001\331\232"
 1133      31718ECC 
 1133      03C4CDEB 
 1133      01D99A
 1134 247c 201FA2D2 		.ascii	" \037\242\322]\312\370\230\321\026\235q\033)\252\333"
 1134      5DCAF898 
 1134      D1169D71 
 1134      1B29AADB 
 1135 248c 6606A39B 		.ascii	"f\006\243\233\340\020d\334\270\011\373\005\230!,<\301"
 1135      E01064DC 
 1135      B809FB05 
 1135      98212C3C 
 1135      C1
 1136 249d 9CF8510B 		.ascii	"\234\370Q\013W}\314\006\320\0102\276\233\326\007\232"
 1136      577DCC06 
 1136      D00832BE 
 1136      9BD6079A 
 1137 24ad 8C4E41C4 		.ascii	"\214NA\304t\320:-\020\010l3\233M\233<\231\011\037\223"
 1137      74D03A2D 
 1137      10086C33 
 1137      9B4D9B3C 
 1137      99091F93 
 1138 24c1 1102630C 		.ascii	"\021\002c\014\360\203h\200\332\300\325\177\330\2447"
 1138      F0836880 
 1138      DAC0D57F 
 1138      D8A437
 1139 24d0 6EF737FB 		.ascii	"n\3677\373\005\2561\352Lkv@\011\015\210\0049\231\311"
 1139      05AE31EA 
 1139      4C6B7640 
 1139      090D8804 
 1139      3999C9
 1140 24e3 5F28BC76 		.ascii	"_(\274v\203\357:\3406\302}\340\202\314\276f\243\336"
 1140      83EF3AE0 
 1140      36C27DE0 
 1140      82CCBE66 
 1140      A3DE
 1141 24f5 4C0F4481 		.ascii	"L\017D\201\357j\337 #od\237,\202\232\012'.A\346?\372"
 1141      EF6ADF20 
 1141      236F649F 
 1141      2C829A0A 
 1141      272E41E6 
ARM GAS  /tmp/ccHACQMa.s 			page 92


 1142 250b 6EF05F17 		.ascii	"n\360_\027\340c\376\273\037t\370z?\000\015\036\326\004"
 1142      E063FEBB 
 1142      1F74F87A 
 1142      3F000D1E 
 1142      D604
 1143 251d F86E346A 		.ascii	"\370n4j\374\326\373\232\264\201\033\326\200\217\003"
 1143      FCD6FB9A 
 1143      B4811BD6 
 1143      808F03
 1144 252c 8CDB8C26 		.ascii	"\214\333\214&\354g\336\256\016\332\244\336`\202X\256"
 1144      EC67DEAE 
 1144      0EDAA4DE 
 1144      608258AE 
 1145 253c 831CF031 		.ascii	"\203\034\3601c\323\374\371@\037\253M\377\2506\375Jm"
 1145      63D3FCF9 
 1145      401FAB4D 
 1145      FFA836FD 
 1145      4A6D
 1146 254e FA07B5E9 		.ascii	"\372\007\265\351\023\265\351\227j\323\"W\242\231\270"
 1146      13B5E997 
 1146      6AD32257 
 1146      A299B8
 1147 255d 080A7DF8 		.ascii	"\010\012}\370n\206}\266\376\303F0n\240%\375\002!]\267"
 1147      6E867DB6 
 1147      FEC34630 
 1147      6EA025FD 
 1147      02215DB7 
 1148 2571 9B352457 		.ascii	"\2335$W\234mQ\322n\334\024\030\270A\317]h\236%\011\037"
 1148      9C6D51D2 
 1148      6EDC1418 
 1148      B841CF5D 
 1148      689E2509 
 1149 2586 8D2B881B 		.ascii	"\215+\210\033\267z\310.\371\230\337\227\2327\231m\231"
 1149      B77AC82E 
 1149      F998DF97 
 1149      9A37996D 
 1149      99
 1150 2597 EAB73EC8 		.ascii	"\352\267>\310o\375\032\260\3707\016\005 \350p\177\236"
 1150      6FFD1AB0 
 1150      F8370E05 
 1150      20E8707F 
 1150      9E
 1151 25a8 63053B82 		.ascii	"c\005;\202\204\254t\254\004\322\001\356\273@\316s@\316"
 1151      84AC74AC 
 1151      04D201EE 
 1151      BB40CE73 
 1151      40CE
 1152 25ba 9B59AB85 		.ascii	"\233Y\253\2050\011\027u\233!\345\002\376\3703\251\222"
 1152      30091775 
 1152      9B21E502 
 1152      FEF833A9 
 1152      92
 1153 25cb F5BE1B6C 		.ascii	"\365\276\033lZ\340\234\011\022S\356\201[\314\233\266"
 1153      5AE09C09 
 1153      1253EE81 
 1153      5BCC9BB6 
 1154 25db 9805753A 		.ascii	"\230\005u:\177z\342\346\037 \271\250_\265\324g\345\262"
ARM GAS  /tmp/ccHACQMa.s 			page 93


 1154      7F7AE2E6 
 1154      1F20B9A8 
 1154      5FB5D467 
 1154      E5B2
 1155 25ed C54B7FEB 		.ascii	"\305K\177\353\004'\253\276\371\352kg8~\373\233\025\277"
 1155      0427ABBE 
 1155      F9EA6B67 
 1155      387EFB9B 
 1155      15BF
 1156 25ff 59F1CDF7 		.ascii	"Y\361\315\367\032\0112\232\374}7\220\346\033\264\206"
 1156      1A09329A 
 1156      FC7D3790 
 1156      E61BB486 
 1157 260f 679796B6 		.ascii	"g\227\226\266 \003\375\353\023\024\270\305\344gd\014"
 1157      2003FDEB 
 1157      1314B8C5 
 1157      E467640C 
 1158 261f 4D49B04F 		.ascii	"MI\260O\231 =i3Fh\221\356LR`u\333\250\334,\371U\037"
 1158      99203D69 
 1158      33466891 
 1158      EE4C5260 
 1158      75DBA8DC 
 1159 2637 F34F1D3A 		.ascii	"\363O\035:\214\351#\025\225\332\204l\333\272\321\254"
 1159      8CE92315 
 1159      95DA846C 
 1159      DBBAD1AC 
 1160 2647 25A135BB 		.ascii	"%\2415\273\201\343\375I\177\266\025 \177O\200\315\376"
 1160      81E3FD49 
 1160      7FB61520 
 1160      7F4F80CD 
 1160      FE
 1161 2658 1B493EEB 		.ascii	"\033I>\353\266\231\374\315F\263f\235\321\014\031\265"
 1161      B699FCCD 
 1161      46B3669D 
 1161      D10C19B5 
 1162 2668 C56CC670 		.ascii	"\305l\306p\206\341DC\223\212\336\365\360\017\200\372"
 1162      86E14443 
 1162      938ADEF5 
 1162      F00F80FA 
 1163 2678 92F618B8 		.ascii	"\222\366\030\270vm\220\321\354\261\212zb\251\311\177"
 1163      766D90D1 
 1163      ECB18A7A 
 1163      62A9C97F 
 1164 2688 ABD1F4DD 		.ascii	"\253\321\364\335\227\337@\366o0H\257\351L\333I\327\200"
 1164      97DF40F6 
 1164      6F3048AF 
 1164      E94CDB49 
 1164      D780
 1165 269a FD4C0B78 		.ascii	"\375L\013x\303\233\377\011ox\344\004\256\317\327\006"
 1165      C39BFF09 
 1165      6F78E404 
 1165      AECFD706 
 1166 26aa 6D321AD7 		.ascii	"m2\032\327\300\331\302\177\264\3679\313\177:\012x\177"
 1166      C0D9C27F 
 1166      B4F739CB 
 1166      7F3A0A78 
 1166      7F
ARM GAS  /tmp/ccHACQMa.s 			page 94


 1167 26bb F1C5526F 		.ascii	"\361\305Ro\332\355o\235/\211\201\317\206\015$9\271\315"
 1167      DAED6F9D 
 1167      2F8981CF 
 1167      860D2439 
 1167      B9CD
 1168 26cd 2581016B 		.ascii	"%\201\001k\375\3279\261\304Y\364\327\252\363S\271\320"
 1168      FDD739B1 
 1168      C459F4D7 
 1168      AAF353B9 
 1168      D0
 1169 26de 310B1AA6 		.ascii	"1\013\032\246\277\331\031j\351c4\231\002M\036 \262\325"
 1169      BFD9196A 
 1169      E9633499 
 1169      024D1E20 
 1169      B2D5
 1170 26f0 E8433D6A 		.ascii	"\350C=j\332\262\311\354\031\264\206\210\303H\027\270"
 1170      DAB2C9EC 
 1170      19B48688 
 1170      C34817B8 
 1171 2700 E9A34D20 		.ascii	"\351\243M \377\321\307\316\337\031\375\314\201\320\334"
 1171      FFD1C7CE 
 1171      DF19FDCC 
 1171      81D0DC
 1172 270f 3F76E537 		.ascii	"?v\3457\211\012\203M\020\204\\%\245\346\370\255_\266"
 1172      890A834D 
 1172      10845C25 
 1172      A5E6F8AD 
 1172      5FB6
 1173 2721 D5FCA929 		.ascii	"\325\374\251)\320w\215\237o\220\3713\222\001+`\324\372"
 1173      D0778D9F 
 1173      6F90F933 
 1173      92012B60 
 1173      D4FA
 1174 2733 DC685EE1 		.ascii	"\334h^\341\021\264fE\000t\003\320\377.\3655\373\256"
 1174      11B46645 
 1174      007403D0 
 1174      FF2EF535 
 1174      FBAE
 1175 2745 F851C056 		.ascii	"\370Q\300V\177\277\245\376A\276\2537\030\231\225_(W"
 1175      7FBFA5FE 
 1175      41BEAB37 
 1175      1899955F 
 1175      2857
 1176 2757 8F771DBC 		.ascii	"\217w\035\274\323 \245\300?\236>\254\2471m\3661\302"
 1176      D320A5C0 
 1176      3F9E3EAC 
 1176      A7316DF6 
 1176      31C2
 1177 2769 7011B86E 		.ascii	"p\021\270n\213\021P}\265\372\017\240i\005@\234E\344"
 1177      8B11507D 
 1177      B5FA0FA0 
 1177      6905409C 
 1177      45E4
 1178 277b 960588CA 		.ascii	"\226\005\210\312\361\252\245\213\334\205\351\202\037"
 1178      F1AAA58B 
 1178      DC85E982 
 1178      1F
ARM GAS  /tmp/ccHACQMa.s 			page 95


 1179 2788 75EB7B81 		.ascii	"u\353{\201A\276\033\226\221\\\263C\3747\366@\210 I1"
 1179      41BE1B96 
 1179      915CB343 
 1179      FC37F640 
 1179      88204931 
 1180 279c 72243300 		.ascii	"r$3\000\237O\241?\362$\334\252\035A_\004\372\375\361"
 1180      9F4FA13F 
 1180      F224DCAA 
 1180      1D415F04 
 1180      FAFDF1
 1181 27af 3353E0C6 		.ascii	"3S\340\306\025\253VB\317$\277\360=\335\303\016\222\352"
 1181      15AB5642 
 1181      CF24BFF0 
 1181      3DDDC30E 
 1181      92EA
 1182 27c1 9EB4161B 		.ascii	"\236\264\026\033\240\200\317Z(\341\343\037dr\266"
 1182      A080CF5A 
 1182      28E1E31F 
 1182      6472B6
 1183 27d0 5D72F3F1 		.ascii	"]r\363\361!\261\372t\361\252e_\257\\\341\346\273a\233"
 1183      21B1FA74 
 1183      F1AA655F 
 1183      AF5CE1E6 
 1183      BB619B
 1184 27e3 EF8E2008 		.ascii	"\357\216 \010\000t\031\306\377\346`\216\001^\362^\362"
 1184      007419C6 
 1184      FFE6608E 
 1184      015EF25E 
 1184      F2
 1185 27f4 E5AA15AB 		.ascii	"\345\252\025\253\274\227@\337\352\275B\260\2671\310"
 1185      BC9740DF 
 1185      EABD42B0 
 1185      B731C8
 1186 2803 3FC80706 		.ascii	"?\310\007\006q\2609\207\343\3766`\203\010\324\223\""
 1186      71B03987 
 1186      E3FE3660 
 1186      8308D493 
 1186      22
 1187 2814 975D9A43 		.ascii	"\227]\232C\201l\011\220\241s\225\\\324/\371\227\317"
 1187      816C0990 
 1187      A173955C 
 1187      D42FF997 
 1187      CF
 1188 2825 177FB3EC 		.ascii	"\027\177\263\3547+\235\226.\371\227%\237}\276\322\345"
 1188      372B9D96 
 1188      2EF99725 
 1188      9F7DBED2 
 1188      E5
 1189 2836 EB2FBE58 		.ascii	"\353/\276X\265x\205p\272b\301*r\252]\265j\311\347+\235"
 1189      B5788570 
 1189      BA62C12A 
 1189      72AA5DB5 
 1189      6AC9E72B 
 1190 284b 572E5BB5 		.ascii	"W.[\265l\345w\313\226~\202\227\300<\351\323\245K\304"
 1190      6CE577CB 
 1190      967E8297 
 1190      C03CE9D3 
ARM GAS  /tmp/ccHACQMa.s 			page 96


 1190      A54BC4
 1191 285e 4BBF745E 		.ascii	"K\277t^\374\365\247\013\276\370\032T\221\263\371\354"
 1191      FCF5A70B 
 1191      BEF81A54 
 1191      91B3F9EC 
 1192 286e 4CB8BBC8 		.ascii	"L\270\273\310y\361\362O\027\362\273\313mr\313\355\345"
 1192      79F1F24F 
 1192      17F2BBCB 
 1192      6D72CBED 
 1192      E5
 1193 287f 163A112D 		.ascii	"\026:\021-\004\016\321!\275\263\300\211h\240w\226s\211"
 1193      040ED121 
 1193      BDB3C089 
 1193      68A07796 
 1193      7389
 1194 2891 E57289F9 		.ascii	"\345r\211\371zRv\345\252oV\222\223\371\344\304v\357"
 1194      7A5276E5 
 1194      AA6F5692 
 1194      93F9E4C4 
 1194      76EF
 1195 28a3 633D29CD 		.ascii	"c=)\315\356-\027\204\2263!\274d\305J\015\251\244\023"
 1195      EE2D1784 
 1195      963321BC 
 1195      64C54A0D 
 1195      A9A413
 1196 28b6 D4971CD5 		.ascii	"\324\227\034\325KV\352\2717\026\270\256\\\262D\230\322"
 1196      4B56EAB9 
 1196      3716B8AE 
 1196      5CB24498 
 1196      D2
 1197 28c7 1958035C 		.ascii	"\031X\003\\c$\355\347\377\000?\036\004\244"
 1197      6324EDE7 
 1197      FF003F1E 
 1197      04A4
 1198              		.text
 1199              		.section	.gnu.lto_.symtab.b926381b8180d65a,"",%progbits
 1200 0000 56656374 		.ascii	"Vector110\000"
 1200      6F723131 
 1200      3000
 1201 000a 00       		.ascii	"\000"
 1202 000b 00       		.ascii	"\000"
 1203 000c 00       		.ascii	"\000"
 1204 000d 00000000 		.ascii	"\000\000\000\000\000\000\000\000"
 1204      00000000 
 1205 0015 7D020000 		.ascii	"}\002\000\000"
 1206 0019 53443400 		.ascii	"SD4\000"
 1207 001d 00       		.ascii	"\000"
 1208 001e 00       		.ascii	"\000"
 1209 001f 00       		.ascii	"\000"
 1210 0020 00000000 		.ascii	"\000\000\000\000\000\000\000\000"
 1210      00000000 
 1211 0028 A6020000 		.ascii	"\246\002\000\000"
 1212 002c 73645F6C 		.ascii	"sd_lld_init\000"
 1212      6C645F69 
 1212      6E697400 
 1213 0038 00       		.ascii	"\000"
 1214 0039 00       		.ascii	"\000"
ARM GAS  /tmp/ccHACQMa.s 			page 97


 1215 003a 00       		.ascii	"\000"
 1216 003b 00000000 		.ascii	"\000\000\000\000\000\000\000\000"
 1216      00000000 
 1217 0043 7F020000 		.ascii	"\177\002\000\000"
 1218 0047 73645F6C 		.ascii	"sd_lld_start\000"
 1218      6C645F73 
 1218      74617274 
 1218      00
 1219 0054 00       		.ascii	"\000"
 1220 0055 00       		.ascii	"\000"
 1221 0056 00       		.ascii	"\000"
 1222 0057 00000000 		.ascii	"\000\000\000\000\000\000\000\000"
 1222      00000000 
 1223 005f 81020000 		.ascii	"\201\002\000\000"
 1224 0063 73645F6C 		.ascii	"sd_lld_stop\000"
 1224      6C645F73 
 1224      746F7000 
 1225 006f 00       		.ascii	"\000"
 1226 0070 00       		.ascii	"\000"
 1227 0071 00       		.ascii	"\000"
 1228 0072 00000000 		.ascii	"\000\000\000\000\000\000\000\000"
 1228      00000000 
 1229 007a 83020000 		.ascii	"\203\002\000\000"
 1230 007e 63684576 		.ascii	"chEvtBroadcastFlagsI\000"
 1230      7442726F 
 1230      61646361 
 1230      7374466C 
 1230      61677349 
 1231 0093 00       		.ascii	"\000"
 1232 0094 02       		.ascii	"\002"
 1233 0095 00       		.ascii	"\000"
 1234 0096 00000000 		.ascii	"\000\000\000\000\000\000\000\000"
 1234      00000000 
 1235 009e 89020000 		.ascii	"\211\002\000\000"
 1236 00a2 6F714765 		.ascii	"oqGetI\000"
 1236      744900
 1237 00a9 00       		.ascii	"\000"
 1238 00aa 02       		.ascii	"\002"
 1239 00ab 00       		.ascii	"\000"
 1240 00ac 00000000 		.ascii	"\000\000\000\000\000\000\000\000"
 1240      00000000 
 1241 00b4 8E020000 		.ascii	"\216\002\000\000"
 1242 00b8 7364496E 		.ascii	"sdIncomingDataI\000"
 1242      636F6D69 
 1242      6E674461 
 1242      74614900 
 1243 00c8 00       		.ascii	"\000"
 1244 00c9 02       		.ascii	"\002"
 1245 00ca 00       		.ascii	"\000"
 1246 00cb 00000000 		.ascii	"\000\000\000\000\000\000\000\000"
 1246      00000000 
 1247 00d3 93020000 		.ascii	"\223\002\000\000"
 1248 00d7 6E766963 		.ascii	"nvicDisableVector\000"
 1248      44697361 
 1248      626C6556 
 1248      6563746F 
 1248      7200
ARM GAS  /tmp/ccHACQMa.s 			page 98


 1249 00e9 00       		.ascii	"\000"
 1250 00ea 02       		.ascii	"\002"
 1251 00eb 00       		.ascii	"\000"
 1252 00ec 00000000 		.ascii	"\000\000\000\000\000\000\000\000"
 1252      00000000 
 1253 00f4 97020000 		.ascii	"\227\002\000\000"
 1254 00f8 5F706F72 		.ascii	"_port_irq_epilogue\000"
 1254      745F6972 
 1254      715F6570 
 1254      696C6F67 
 1254      756500
 1255 010b 00       		.ascii	"\000"
 1256 010c 02       		.ascii	"\002"
 1257 010d 00       		.ascii	"\000"
 1258 010e 00000000 		.ascii	"\000\000\000\000\000\000\000\000"
 1258      00000000 
 1259 0116 99020000 		.ascii	"\231\002\000\000"
 1260 011a 73644F62 		.ascii	"sdObjectInit\000"
 1260      6A656374 
 1260      496E6974 
 1260      00
 1261 0127 00       		.ascii	"\000"
 1262 0128 02       		.ascii	"\002"
 1263 0129 00       		.ascii	"\000"
 1264 012a 00000000 		.ascii	"\000\000\000\000\000\000\000\000"
 1264      00000000 
 1265 0132 9F020000 		.ascii	"\237\002\000\000"
 1266 0136 6E766963 		.ascii	"nvicEnableVector\000"
 1266      456E6162 
 1266      6C655665 
 1266      63746F72 
 1266      00
 1267 0147 00       		.ascii	"\000"
 1268 0148 02       		.ascii	"\002"
 1269 0149 00       		.ascii	"\000"
 1270 014a 00000000 		.ascii	"\000\000\000\000\000\000\000\000"
 1270      00000000 
 1271 0152 A4020000 		.ascii	"\244\002\000\000"
 1272              		.text
 1273              		.section	.gnu.lto_.opts,"",%progbits
 1274 0000 272D666D 		.ascii	"'-fmath-errno' '-fsigned-zeros' '-ftrapping-math' '"
 1274      6174682D 
 1274      6572726E 
 1274      6F272027 
 1274      2D667369 
 1275 0033 2D666E6F 		.ascii	"-fno-trapv' '-fno-openmp' '-fno-openacc' '-mcpu=cor"
 1275      2D747261 
 1275      70762720 
 1275      272D666E 
 1275      6F2D6F70 
 1276 0066 7465782D 		.ascii	"tex-m4' '-mthumb' '-ggdb' '-O2' '-fomit-frame-point"
 1276      6D342720 
 1276      272D6D74 
 1276      68756D62 
 1276      2720272D 
 1277 0099 65722720 		.ascii	"er' '-falign-functions=16' '-ffunction-sections' '-"
 1277      272D6661 
ARM GAS  /tmp/ccHACQMa.s 			page 99


 1277      6C69676E 
 1277      2D66756E 
 1277      6374696F 
 1278 00cc 66646174 		.ascii	"fdata-sections' '-fno-common' '-flto'\000"
 1278      612D7365 
 1278      6374696F 
 1278      6E732720 
 1278      272D666E 
 1279              		.text
 1280              		.comm	__gnu_lto_v1,1,1
 1281              		.comm	__gnu_lto_slim,1,1
 1282              		.ident	"GCC: (GNU Tools for ARM Embedded Processors) 5.4.1 20160919 (release) [ARM/embedded-5-bran
ARM GAS  /tmp/ccHACQMa.s 			page 100


DEFINED SYMBOLS
                            *ABS*:00000000 hal_serial_lld.c
                            *COM*:00000001 __gnu_lto_v1
                            *COM*:00000001 __gnu_lto_slim

NO UNDEFINED SYMBOLS
