ARM GAS  /tmp/ccErb3td.s 			page 1


   1              		.syntax unified
   2              		.cpu cortex-m4
   3              		.fpu softvfp
   4              		.eabi_attribute 20, 1
   5              		.eabi_attribute 21, 1
   6              		.eabi_attribute 23, 3
   7              		.eabi_attribute 24, 1
   8              		.eabi_attribute 25, 1
   9              		.eabi_attribute 26, 1
  10              		.eabi_attribute 30, 2
  11              		.eabi_attribute 34, 1
  12              		.eabi_attribute 18, 4
  13              		.thumb
  14              		.syntax unified
  15              		.file	"oslib_test_sequence_002.c"
  16              		.text
  17              	.Ltext0:
  18              		.section	.gnu.lto_.profile.3a5bf21447051f7d,"",%progbits
  19 0000 789C6361 		.ascii	"x\234ca`d`c`\000\222+8\372Y\000\004n\001P"
  19      60646063 
  19      6000922B 
  19      38FA5900 
  19      046E0150 
  20              		.text
  21              		.section	.gnu.lto_.icf.3a5bf21447051f7d,"",%progbits
  22 0000 789C6361 		.ascii	"x\234ca`d\000\001\177\006\004\340e\3704\177\306\033"
  22      60640001 
  22      7F0604E0 
  22      65F8347F 
  22      C61B
  23 0012 1EC68E9E 		.ascii	"\036\306\216\236\273G\331\230\036\375\354Z\303\317<"
  23      BB47D998 
  23      1EFDEC5A 
  23      C3CF3C
  24 0021 73E5C219 		.ascii	"s\345\302\031\214,\273\027n\233\315\312v\260uc/3\373"
  24      8C2CBB17 
  24      6E9BCDCA 
  24      76B07563 
  24      2F33FB
  25 0034 C73FD32E 		.ascii	"\307?\323.\362s\034]\362\267\235\221s\336\327\277\317"
  25      F2731C5D 
  25      F2B79D91 
  25      73DED7BF 
  25      CF
  26 0045 38B996EC 		.ascii	"8\271\226\354h\375\312\315\335u\276\3615/\317\226\271"
  26      68FDCACD 
  26      DD75BEF1 
  26      352FCF96 
  26      B9
  27 0056 9339789F 		.ascii	"\2239x\237\315\372\371\211\231\001\000\374\202&G"
  27      CDFAF989 
  27      990100FC 
  27      822647
  28              		.text
  29              		.section	.gnu.lto_.jmpfuncs.3a5bf21447051f7d,"",%progbits
  30 0000 789CA596 		.ascii	"x\234\245\226\331O\023Q\024\306\357\275Sh\241T0\276"
  30      D94F1351 
ARM GAS  /tmp/ccErb3td.s 			page 2


  30      14C6EFBD 
  30      5368A154 
  30      30BE
  31 0012 F2D079F7 		.ascii	"\362\320y\367_\360\217ip\242M\244%t\242\211/T\261JQ"
  31      5FF08F69 
  31      70A24DA4 
  31      2574A289 
  31      2F54B14A 
  32 0027 8B35C620 		.ascii	"\2135\306 1\341\321]\026\027\254\240Xq\007Q\020E\254"
  32      31E1D15D 
  32      1617ACA0 
  32      58710751 
  32      1045AC
  33 003a 0BB8632B 		.ascii	"\013\270c+\212\305\245\265E;\347\226\226f\322\236\336"
  33      8AC5A5B5 
  33      453BE796 
  33      9666D29E 
  33      DE
  34 004b 6192BEF4 		.ascii	"a\222\276\364\314\357|\337\371\316\315\314\230\010%"
  34      CCEF7CDF 
  34      F9CECDCC 
  34      980825
  35 005a DA556F23 		.ascii	"\332Uo#d\023\341W\245\366\243iFC\241X\304\334\222\366"
  35      6413E157 
  35      A5F6A369 
  35      4643A158 
  35      C4DC92F6 
  36 006e B679BD75 		.ascii	"\266y\275u>\211\370\245L\201\236\240-\204\232\210\276"
  36      3E89F8A5 
  36      4C819EA0 
  36      2D849A88 
  36      BE
  37 007f 4EFD52A6 		.ascii	"N\375R\246\027=\231\257\267'\247\003\226%\346\223\030"
  37      173D99AF 
  37      B727A703 
  37      9625E693 
  37      18
  38 0090 B5D053B4 		.ascii	"\265\320S\264\236\020\251T\347\323H\3473\371\372`<5"
  38      9E10A954 
  38      E7D348E7 
  38      33F9FA60 
  38      3C35
  39 00a2 CA78E73A 		.ascii	"\312x\347:zV\353l\"\304R\264\363\271<\331\232\034\216"
  39      7A56EB6C 
  39      22C452B4 
  39      F3B93CD9 
  39      9A1C8E
  40 00b5 AFCBD43B 		.ascii	"\257\313\324;\241.\371%\226\251\237\317\326y+\355\266"
  40      A12EF925 
  40      96A99FCF 
  40      D6792BED 
  40      B6
  41 00c6 9E582861 		.ascii	"\236X(a\323\004L\224\320\236\254\000TR\211@\334&\323"
  41      D3044C94 
  41      D09EAC00 
  41      54528940 
  41      DC26D3
ARM GAS  /tmp/ccErb3td.s 			page 3


  42 00d9 6E6FA7DD 		.ascii	"no\247\335'U\220\314?S\207#C4\327\262\222\366R9sk\037"
  42      275590CC 
  42      3F538723 
  42      4334D7B2 
  42      92F65239 
  43 00f0 EFB9821D 		.ascii	"\357\271\202\035\355\352^`\262\215cf\015\353\015\004"
  43      EDEA5E60 
  43      B28D6366 
  43      0DEB0D04 
  44 0100 03520EB3 		.ascii	"\003R\016\263\320~\300.p\314L\210\000z\021\320K\205"
  44      D07EC02E 
  44      70CC4C88 
  44      007A11D0 
  44      4B85
  45 0112 8AB8D1CB 		.ascii	"\212\270\321\313\200\015p\254xzW\370\015duD<\023\213"
  45      800D70AC 
  45      787A57F8 
  45      0D647544 
  45      3C138B
  46 0125 88C910A8 		.ascii	"\210\311\020\250]\305\324\006\213\252\255H\035\017\017"
  46      5DC5D406 
  46      8BAAAD48 
  46      1D0F0F
  47 0134 8C49B2CC 		.ascii	"\214I\262\314\245\2524\251#\307:\346ksR\325t\010\244"
  47      A5AA34A9 
  47      23C73AE6 
  47      6B7352D5 
  47      7408A4
  48 0147 AE896EE0 		.ascii	"\256\211n\340:`\303\242\330\015\300\302\330`7\221C8"
  48      3A60C3A2 
  48      D80DC0C2 
  48      D8603791 
  48      4338
  49 0159 52780845 		.ascii	"Rx\010EO\335-pq[\324\374\035\300\356b\346\357\241[\301"
  49      4FDD2D70 
  49      715BD4FC 
  49      1DC0EE62 
  49      E6EFA15B 
  50 016e 1DDE07A9 		.ascii	"\035\336\007\251\007\242\016G\001\033\343Xe\321\370"
  50      07A20E47 
  50      011BE358 
  50      65D1F8
  51 017d 1EEA1DE6 		.ascii	"\036\352\035\3464&\203\023\265\362F\256a\3254\306\273"
  51      34268313 
  51      B5F246AE 
  51      61D534C6 
  51      BB
  52 018e D2E1BCB5 		.ascii	"\322\341\274\265\032:\016\032\217\260\024\036#+\234"
  52      1A3A0E1A 
  52      8FB0141E 
  52      232B9C
  53 019d C8D7C3B3 		.ascii	"\310\327\303\263\375\213V\376\2042\321ICy=\001SS\242"
  53      FD8B56FE 
  53      8432D149 
  53      43793D01 
  53      5353A2
  54 01b0 793D05EC 		.ascii	"y=\005\354\0316\31342\313\363U\365\221\231\276\354s"
ARM GAS  /tmp/ccErb3td.s 			page 4


  54      1936CB34 
  54      32CBF355 
  54      F59199BE 
  54      EC73
  55 01c2 BC86CE18 		.ascii	"\274\206\316\030\232\345\005\230\212\210\316\362\022"
  55      9AE50598 
  55      8A88CEF2 
  55      12
  56 01cf B057D82C 		.ascii	"\260W\330,\257\013vo,\3557 5+\352p\016\260\267\330\351"
  56      AF0B766F 
  56      2CED3720 
  56      352BEA70 
  56      0EB0B7D8 
  57 01e4 7CA77758 		.ascii	"|\247wX\376\351|\017\032\037\260\024>\026h\030\333\323"
  57      FEE97C0F 
  57      1A1FB014 
  57      3E166818 
  57      DBD3
  58 01f6 2790FA2C 		.ascii	"'\220\372,\232\302<`_\260\024\242z\207\345\247\020\003"
  58      9AC23C60 
  58      5FB014A2 
  58      7A87E5A7 
  58      1003
  59 0208 8DAF580A 		.ascii	"\215\257X\012\013\310\271\376\226\257/G\347\2426~\256"
  59      0BC8B9FE 
  59      96AF2F47 
  59      E7A2367E 
  59      AE
  60 0219 2BE87743 		.ascii	"+\350wCy-\202\251\037\242y\305\001[\302f\371Y\220\227"
  60      792D82A9 
  60      1FA279C5 
  60      015BC266 
  60      F9599097 
  61 022d 3187BF40 		.ascii	"1\207\277@\352\267\250\303?\200%\260\215&\365\016\313"
  61      EAB7A8C3 
  61      3F8025B0 
  61      8D26F50E 
  61      CB
  62 023e DFE85FD0 		.ascii	"\337\350_\320Ha)\244\221\215.\257\355\305\371\017\\"
  62      486129A4 
  62      918D2EAF 
  62      EDC5F90F 
  62      5C
  63 024f 78996040 		.ascii	"x\231`@\273\230\206\355f\210\371V\266\366\027\347\036"
  63      BB9886ED 
  63      6688F956 
  63      B6F617E7 
  63      1E
  64 0260 90F2893A 		.ascii	"\220\362\211:\334\013\330>\206\254\260M\357\260\374"
  64      DC0BD83E 
  64      86ACB04D 
  64      EFB0FC
  65 026f 15FA41A3 		.ascii	"\025\372A\243\235\267\250\"\"\037i\373\001=\200\005"
  65      9DB7A822 
  65      221F69FB 
  65      013D8005 
  66 027f 789095DE 		.ascii	"x\220\225\336~\200\225\330>\036R\007\2708\304\233\260"
ARM GAS  /tmp/ccErb3td.s 			page 5


  66      7E8095D8 
  66      3E1E5207 
  66      B838C49B 
  66      B0
  67 0290 A22E82D9 		.ascii	"\242.\202\331\220\254;\232\335\256-v\217s\247B68]\333"
  67      90AC3B9A 
  67      DDAE2D76 
  67      8F73A742 
  67      36385DDB 
  68 02a4 1DDB9C9B 		.ascii	"\035\333\234\233\355M\316&\305\356Q\035\252B\252]n\325"
  68      ED4DCE26 
  68      C5EE511D 
  68      AA42AA5D 
  68      6ED5
  69 02b6 DEAC7814 		.ascii	"\336\254x\024\225\254op\273T\305\245\332\033\235\236"
  69      95AC6F70 
  69      BB54C5A5 
  69      DA1B9D9E 
  70 02c6 4687DAB0 		.ascii	"F\207\332\260\225\374\0073\376\337\222"
  70      95FC0733 
  70      FEDF92
  71              		.text
  72              		.section	.gnu.lto_.inline.3a5bf21447051f7d,"",%progbits
  73 0000 789C6361 		.ascii	"x\234ca`d\000\201P&\0068`c``\347gd\000\211\260-\220"
  73      60640081 
  73      50260638 
  73      60636060 
  73      E7676400 
  74 0018 074BB0F0 		.ascii	"\007K\260\3602003\2000.\031\026\0019\035\240\214\314"
  74      32303033 
  74      80302E19 
  74      1601391D 
  74      A08CCC
  75 002b 814CB814 		.ascii	"\201L\270\024\033?P\030\246\206i\202\037\0033\017\204"
  75      1B3F5018 
  75      A6866982 
  75      1F03330F 
  75      84
  76 003c 66175032 		.ascii	"f\027P2\000\252U8Q\003W\313\310\205\244\016F\303\015"
  76      00AA5538 
  76      510357CB 
  76      C885A40E 
  76      46C30D
  77 004f E078C0B0 		.ascii	"\340x\300\260\202Y\027\250e\035\363\254M\214(v\243\250"
  77      825917A8 
  77      651DF3AC 
  77      4D8C2876 
  77      A3A8
  78 0061 433780A0 		.ascii	"C7\200\240\002\234\022\254|Po\221m\002\345FS\356\006"
  78      029C12AC 
  78      7C506F91 
  78      6D02E546 
  78      53EE06
  79 0074 EA99008B 		.ascii	"\352\231\000\213:N\006UP\324)=\350e\304\036w\030&1q"
  79      3A4E0655 
  79      50D4293D 
  79      E865C41E 
ARM GAS  /tmp/ccErb3td.s 			page 6


  79      77182631 
  80 0089 3380D218 		.ascii	"3\200\322\030\000\314\0001q"
  80      00CC0031 
  80      71
  81              		.text
  82              		.section	.gnu.lto_.pureconst.3a5bf21447051f7d,"",%progbits
  83 0000 789C6361 		.ascii	"x\234ca`d\340e```c\220`\226`\221`\227\340\220\342\224"
  83      6064E065 
  83      60606063 
  83      90609660 
  83      916097E0 
  84 0017 000005A7 		.ascii	"\000\000\005\247\000\312"
  84      00CA
  85              		.text
  86              		.section	.gnu.lto_oslib_test_002_002_setup.3a5bf21447051f7d,"",%progbits
  87 0000 789C6D90 		.ascii	"x\234m\220?K\003A\020\305\367\355\306\344\020\005K\301"
  87      3F4B0341 
  87      10C5F7ED 
  87      C6E41005 
  87      4BC1
  88 0012 14B66992 		.ascii	"\024\266i\222h)~\012\375\000\001\303\025\212\030\364"
  88      68297E0A 
  88      FD0001C3 
  88      158A18F4 
  89 0022 92C2EA36 		.ascii	"\222\302\3526\352\251\261\020\033\355$v\361\177\214"
  89      EAA9B110 
  89      1BED2476 
  89      F17F8C
  90 0031 8D5C6508 		.ascii	"\215\\e\010\332\211\"\022,l\304BB\260\210\240\205\201"
  90      DA892212 
  90      2C6CC442 
  90      42B088A0 
  90      8581
  91 0043 78CE5C40 		.ascii	"x\316\\@\202f\270c\2267o~\217\335\200\200\340\312R\033"
  91      8266B863 
  91      96376F7E 
  91      8FDD8080 
  91      E0CA521B 
  92 0057 A73E443F 		.ascii	"\247>D?\224\200\334\272%\321\220\000\037\264\001aK\330"
  92      9480DCBA 
  92      25D19000 
  92      1FB40161 
  92      4BD8
  93 0069 F8942D89 		.ascii	"\370\224-\211\312\332\253+#\005M\365|}1\223\325\316"
  93      CADAAB2B 
  93      23054DF5 
  93      7C7D3193 
  93      D5CE
  94 007b A0A384F0 		.ascii	"\240\243\204\360\244O\022( \"\310\366R\372\336\356\017"
  94      A44F1228 
  94      2022C8F6 
  94      52FADEEE 
  94      0F
  95 008c AEB06DB8 		.ascii	"\256\260m\270=\304>\202\034W\234(k\317[\326\332\035"
  95      3DC43E82 
  95      1C579C28 
  95      6BCF5BD6 
ARM GAS  /tmp/ccErb3td.s 			page 7


  95      DA1D
  96 009e A94568B3 		.ascii	"\251Eh\263AC\216y\227\222\273\252a\265|\371\000\266"
  96      41438E79 
  96      9792BBAA 
  96      61B57CF9 
  96      00B6
  97 00b0 33C875DF 		.ascii	"3\310u\337\236BvK\257k=\340(x\222\0308\200\315\263\035"
  97      9E42764B 
  97      AF6B3DE0 
  97      28789218 
  97      3880CDB3 
  98 00c5 A77217FA 		.ascii	"\247r\027\372\220\216\"\361\237U\346\010\316r\375\246"
  98      908E22F1 
  98      9F55E608 
  98      CE72FDA6 
  99 00d5 7AD59BC7 		.ascii	"z\325\233\307nV\373\272\302\021\335\345\020a\177\270"
  99      6E56FBBA 
  99      C211DDE5 
  99      10617FB8 
 100 00e5 D7FCAAF6 		.ascii	"\327\374\252\366\321\216\301\220c\344\333\2718\201\335"
 100      D18EC190 
 100      63E4DBB9 
 100      3881DD
 101 00f4 C90F74E1 		.ascii	"\311\017t\341\007r\012\335\370=(\022\377\364\017\237"
 101      07720ADD 
 101      F83D2812 
 101      FFF40F9F 
 102 0104 76F42283 		.ascii	"v\364\"\203\316~3J~\306F\363q\323\340\214 \014\234#"
 102      CE7E334A 
 102      7EC646F3 
 102      71D3E08C 
 102      200C9C23 
 103 0118 ECA890A8 		.ascii	"\354\250\220\250c\251|?\351\273\270\032t=z\031z\247"
 103      63A97C3F 
 103      E9BBB81A 
 103      743D7A19 
 103      7AA7
 104 012a B16834D6 		.ascii	"\261h4\326\376\322\246\225\216\245\254\331\351\251\230"
 104      FED2A695 
 104      8EA5ACD9 
 104      E9A998
 105 0139 95CA2C24 		.ascii	"\225\312,$\315\016%\301\307\204e\316g\314\271\244\231"
 105      CD0E25C1 
 105      C78465CE 
 105      67CCB9A4 
 105      99
 106 014a 88C747A3 		.ascii	"\210\307G\243I\361\003d?\240\364"
 106      49F10364 
 106      3FA0F4
 107              		.text
 108              		.section	.gnu.lto_pipe1.3a5bf21447051f7d,"",%progbits
 109 0000 789CA593 		.ascii	"x\234\245\223\273N\033A\024\206\347\2371\336\3056\204"
 109      BB4E1B41 
 109      1486E79F 
 109      31DEC536 
 109      84
 110 0011 07A0E005 		.ascii	"\007\240\340\005\360Z\251\254(\017\300[X\302\332\002"
ARM GAS  /tmp/ccErb3td.s 			page 8


 110      F05AA9AC 
 110      280FC05B 
 110      58C2DA02 
 111 0021 0981C050 		.ascii	"\011\201\300P{S\254bG\210\222\006\021(\"q\007\207\273"
 111      7B53AC62 
 111      47889206 
 111      11282271 
 111      0787BB
 112 0034 B9253197 		.ascii	"\271%1\227\334\314\315\\\032\232PP\200\\\200\204\220"
 112      DCCCCD5C 
 112      1A9A5050 
 112      805C8084 
 112      90
 113 0045 5278C5CC 		.ascii	"Rx\305\314\216\205\260\274SX\214V{\346\23493\337\374"
 113      8E85B0BC 
 113      53588C56 
 113      7BE69C39 
 113      33DFFC
 114 0058 BF343E02 		.ascii	"\2774>\002\"\306\245\217\220\367D\216\022\305\220\235"
 114      22C6A58F 
 114      90F7448E 
 114      12C5909D 
 115 0068 3BD21EA8 		.ascii	";\322\036\250\315\370\362\313\024\225)u\323l\266x\251"
 115      CDF8F2CB 
 115      14952975 
 115      D36CB678 
 115      A9
 116 0079 254B56CA 		.ascii	"%KV\312\262\232x-\315\344\031\267\371\363\335\300(F"
 116      B29A782D 
 116      CDE419B7 
 116      F9F3DDC0 
 116      2846
 117 008b 3E586E9D 		.ascii	">Xn\235a\012IL\242\331]\034\\\313\244uc\226/Y\377\256"
 117      610A494C 
 117      A2D95D1C 
 117      5CCBA475 
 117      63962F59 
 118 00a1 874336F3 		.ascii	"\207C6\363a\032\243ph\371\002{\003'_t\243\325fu\230"
 118      611AA370 
 118      68F9027B 
 118      03275F74 
 118      A3D56675 
 119 00b6 81E150C8 		.ascii	"\201\341P\310\362M\311\316\201\243t\233\3711\013\203"
 119      F24DC9CE 
 119      81A3749B 
 119      F9310B83 
 120 00c6 D4C29FAF 		.ascii	"\324\302\237\257\342\267\012nF\301\375\252\342.\224"
 120      E2B70A6E 
 120      46C1FDAA 
 120      E22E94
 121 00d5 B9A5C5CF 		.ascii	"\271\245\305\317\343\241\350\212\225\032\263Z\370\006"
 121      E3A1E88A 
 121      951AB35A 
 121      F806
 122 00e3 87522C22 		.ascii	"\207R,\"\351P\2069$E\303\316r!\025\224\015\021N\342"
 122      E9508639 
 122      2445C3CE 
ARM GAS  /tmp/ccErb3td.s 			page 9


 122      72211594 
 122      0D114EE2 
 123 00f7 A7610951 		.ascii	"\247a\011Q\207\3720\201f\207\326a\234\337\246\006\001"
 123      87FA3081 
 123      6687D661 
 123      9CDFA606 
 123      01
 124 0108 2BDE0256 		.ascii	"+\336\002V]\001\376*\001k*\001\331\032\215\333\360\346"
 124      5D01FE2A 
 124      016B2A01 
 124      D91A8DDB 
 124      F0E6
 125 011a 6E2AB85B 		.ascii	"n*\270[*\356\266\332\270o\322\270u\245q\337_c\\\316"
 125      2AEEB6DA 
 125      B86FD2B8 
 125      75A571DF 
 125      5F635CCE 
 126 012e 5BC08E2B 		.ascii	"[\300\216+@\253\022\260\253\022\260W\243q?\275\271\277"
 126      40AB12B0 
 126      AB12B057 
 126      A3713FBD 
 126      B9BF
 127 0140 14DCDF2A 		.ascii	"\024\334\337*\356\037\265q\177\245q\373J\343\362^\306"
 127      EE1FB571 
 127      7FA571FB 
 127      4AE3F25E 
 127      C6
 128 0151 3DBF60CD 		.ascii	"=\277`\315}\301\363\305\354\377\006\221\352\025\017"
 128      7DC1F3C5 
 128      ECFF0691 
 128      EA150F
 129 0160 9AB3EBD3 		.ascii	"\232\263\353\323\014DU+\334\345G\202b[\000M\212\226"
 129      0C44552B 
 129      DCE54782 
 129      625B004D 
 129      8A96
 130 0172 FB4F0B57 		.ascii	"\373O\013W\241\266}Q\013\342\224\333Q(\333\341\325\374"
 130      A1B67D51 
 130      0BE294DB 
 130      5128DBE1 
 130      D5FC
 131 0184 F1AAF8A8 		.ascii	"\361\252\370\250\313\333g\030\367\317\241:\316\205\276"
 131      CBDB6718 
 131      F7CFA13A 
 131      CE85BE
 132 0193 7A9CA1CD 		.ascii	"z\234\241\315\241\001\234\210,\210c\021B8\022\232\032"
 132      A1019C88 
 132      2C886311 
 132      4238129A 
 132      1A
 133 01a4 702842A3 		.ascii	"p(B\243T\370F\006\015\007B\266\037?D XF\224\340\202"
 133      54F84606 
 133      0D0742B6 
 133      1F3F4420 
 133      584694E0 
 134 01b9 FFDE85C3 		.ascii	"\377\336\205\303\206\374\372\314D\237\321\235\350\354"
 134      86FCFACC 
ARM GAS  /tmp/ccErb3td.s 			page 10


 134      449FD19D 
 134      E8EC
 135 01c7 683712DD 		.ascii	"h7\022\335\375\275q\363E%&\246\261\204\331\323ov\305"
 135      FDBD71F3 
 135      452526A6 
 135      B184D9D3 
 135      6F76C5
 136 01da CD5824F2 		.ascii	"\315X$\3626\034'O\235M\277V"
 136      361C274F 
 136      9D4DBF56 
 137              		.text
 138              		.section	.gnu.lto_oslib_test_002_001_setup.3a5bf21447051f7d,"",%progbits
 139 0000 789C6D90 		.ascii	"x\234m\220\277KBQ\024\307\357\367^S\211\002\307 \207"
 139      BF4B4251 
 139      14C7EFF7 
 139      5E538902 
 139      C72087
 140 0013 A0C945AD 		.ascii	"\240\311E\2551\232\373\003\372\007\204\344AA$\365th"
 140      319AFB03 
 140      FA0784E4 
 140      414124F5 
 140      7468
 141 0025 7AD7EA55 		.ascii	"z\327\352Un-\265\205m\226\3750\333^-\"\321R\324\344"
 141      6E2DB585 
 141      6D96FD30 
 141      DB5E2D22 
 141      D152D4E4 
 142 0039 D4120D11 		.ascii	"\324\022\015\021\022a\230C\221\275\316yBHyx\217s\371"
 142      12619843 
 142      91BDCE79 
 142      42487978 
 142      8F73F9
 143 004c 9EEFF97C 		.ascii	"\236\357\371|\271\327' \270\262\324&\251\017\323\017"
 143      B9D72720 
 143      B8B2D426 
 143      A90FD30F 
 144 005c 2520B76E 		.ascii	"% \267nI\014J\200\017:\010aIXh\311\266Du\343\311\221"
 144      490C4A80 
 144      0F3A0861 
 144      495868C9 
 144      B64475E3 
 145 0072 9182A67A 		.ascii	"\221\202\246z\260_g\263\332\036\262\225\020\256\364"
 145      B05F67B3 
 145      DA1EB295 
 145      10AEF4
 146 0081 48020544 		.ascii	"H\002\005D\004\331\036\313\337\333\203\3765\266\215"
 146      04D91ECB 
 146      DFDB83FE 
 146      35B68D
 147 0090 7486D887 		.ascii	"t\206\330\207\237\343J\323\025\355\272\253Z;c\347\243"
 147      9FE34AD3 
 147      15EDBAAB 
 147      5A3B63E7 
 147      A3
 148 00a1 B4D9A021 		.ascii	"\264\331\240!\307\274I\311]=c\275\322\274\002\333\031"
 148      C7BC49C9 
 148      5D3D63BD 
ARM GAS  /tmp/ccErb3td.s 			page 11


 148      D2BC02DB 
 148      19
 149 00b2 E4382FF7 		.ascii	"\3448/\367\001\253\2557\265\016\331\012\256$\006\016"
 149      01ABAD37 
 149      B50ED90A 
 149      AE24060E 
 150 00c2 60F16CC7 		.ascii	"`\361l\307\256\336\005\336\245\255H\374g\2259\202\263"
 150      AEDE05DE 
 150      A5AD48FC 
 150      67953982 
 150      B3
 151 00d3 5CBFA95D 		.ascii	"\\\277\251]\366\347\261\233\325\236\256pHw)\"\354\015"
 151      F6E7B19B 
 151      D59EAE70 
 151      48772922 
 151      EC0D
 152 00e5 F73E3F6A 		.ascii	"\367>?j\003\264\023d\310\021\362\235\\\034\303\352\346"
 152      03B41364 
 152      C811F29D 
 152      5C1CC3EA 
 152      E6
 153 00f6 FB7AF07D 		.ascii	"\373z\360}9\205^\374>\224\210\177\362\207O;z\231A\247"
 153      39855EFC 
 153      3E94887F 
 153      F2874F3B 
 153      7A9941A7 
 154 010a BF19652F 		.ascii	"\277\031e/\343\242\371u-9\303\217\020\316\020\266U@"
 154      E3A2F975 
 154      2D39C38F 
 154      10CE10B6 
 154      5540
 155 011c D4B15269 		.ascii	"\324\261RiMy.\256\006]\217^\206\336i\"\032\215u\276"
 155      4D792EAE 
 155      065D8F5E 
 155      86DE6922 
 155      1A8D75BE 
 156 0130 B461A663 		.ascii	"\264a\246c)s~n&f\2462KI\243KI\3601a\032\213\031c!i$"
 156      29737E6E 
 156      2666A632 
 156      4B49A34B 
 156      49F03161 
 157 014b E2F1F168 		.ascii	"\342\361\361hR\374\000{#\241\201"
 157      52FC007B 
 157      23A181
 158              		.text
 159              		.section	.gnu.lto_oslib_test_002_002_execute.part.1.3a5bf21447051f7d,"",%progbits
 160 0000 789C9554 		.ascii	"x\234\225T\357O\333E\030\277\347\356\373\253--\3149"
 160      EF4FDB45 
 160      18BFE7EE 
 160      FBAB2D2D 
 160      CC39
 161 0012 E38BC694 		.ascii	"\343\213\306\224\027\274\230?\350\2421!&\306\027\376"
 161      17BC983F 
 161      E8A23121 
 161      26C617FE 
 162 0022 0126FE03 		.ascii	"\001&\376\003d`5\325\005\346\012\232\370\246GK\303\252"
 162      646035D5 
ARM GAS  /tmp/ccErb3td.s 			page 12


 162      05E60A9A 
 162      F8A6474B 
 162      C3AA
 163 0034 49839BE2 		.ascii	"I\203\233\342\300-]b\342\246L`\033\342\312\320uu\240"
 163      C02D5D62 
 163      E2A64C60 
 163      1BE2CAD0 
 163      7575A0
 164 0047 08DB642B 		.ascii	"\010\333d+[\224%\342L\210!\213)\003c\300u\365y\356\312"
 164      5B9425E2 
 164      4C88218B 
 164      290363C0 
 164      75F579EE 
 165 005c D60D62C2 		.ascii	"\326\015b\3027\355\335=\367\343\363\371\334s\237;\203"
 165      37EDDD3D 
 165      F7E3F3F9 
 165      DC739F3B 
 165      83
 166 006d 01A32F6E 		.ascii	"\001\243/n1\326\204u;\376\301\315\300\325}\011\033."
 166      31D68475 
 166      3BFEC1CD 
 166      C0D57D09 
 166      1B2E
 167 007f E0AAE6DC 		.ascii	"\340\252\346\334\031{\202I\267\310\007\231\254\022\334"
 167      197B8249 
 167      B7C80799 
 167      AC12DC
 168 008e B8E1C1C8 		.ascii	"\270\341\301\310\032\3161\014\015nV\206&\267\013;(<"
 168      1ACE310C 
 168      0D6E5686 
 168      26B70B3B 
 168      283C
 169 00a0 DA809105 		.ascii	"\332\200\221\0056!t868\272\341\000PC:\300\242..\014"
 169      36217438 
 169      3638BAE1 
 169      0050433A 
 169      C0A22E2E 
 170 00b5 D3B21D88 		.ascii	"\323\262\035\210\302\337\274\310!\327\265\220\341;\217"
 170      C2DFBCC8 
 170      21D7B590 
 170      E13B8F
 171 00c4 49FCE6C7 		.ascii	"I\374\346\307G\337\354\220\211\307\023\202\261\022W"
 171      47DFEC90 
 171      89C71382 
 171      B11257
 172 00d3 1A191C83 		.ascii	"\032\031\034\203\235\014\247\335<y\367c\257\325I\323"
 172      9D0CA7DD 
 172      3C79F763 
 172      AFD549D3 
 173 00e3 027A108E 		.ascii	"\002z\020\216\203\205\033\02188\3239tX\254\360\204\000"
 173      83851B11 
 173      3838D339 
 173      7458ACF0 
 173      8400
 174 00f5 30305CBA 		.ascii	"00\\\272\330\367\207\217B\016\001\014\213\362\243\036"
 174      D8F7878F 
 174      420E010C 
ARM GAS  /tmp/ccErb3td.s 			page 13


 174      8BF2A31E 
 175 0105 9F781108 		.ascii	"\237x\021\010fu\276\370\271Y\367\231\2241\231\375\264"
 175      6675BEF8 
 175      B959F799 
 175      943199FD 
 175      B4
 176 0116 C7D72BB3 		.ascii	"\307\327+\263\235\201\204\020\320\017\002A\341K\360"
 176      9D818410 
 176      D00F0241 
 176      E14BF0
 177 0125 C317E0D7 		.ascii	"\303\027\340\327\314'\240\016W\\)L\037\361h\354\032"
 177      CC27A00E 
 177      575C294C 
 177      1FF168EC 
 177      1A
 178 0136 0C471626 		.ascii	"\014G\026&'\334\032[\002\306\375+\305)C\274\244\300"
 178      27DC1A5B 
 178      02C6FD2B 
 178      C52943BC 
 178      A4C0
 179 0148 8F7F3276 		.ascii	"\217\1772v\330\215\340Y)\263KW}\035\032\334\200A\015"
 179      D88DE059 
 179      29B34B57 
 179      7D1D1ADC 
 179      80410D
 180 015b 3E80E05F 		.ascii	">\200\340_\255\203\017)\360J9\277\035\374\1779'\241"
 180      AD830F29 
 180      F04A39BF 
 180      1DFC7F39 
 180      27A1
 181 016d 6EF05529 		.ascii	"n\360U)K\245\270\354\376\367i\330\006J!g\011a\012*\014"
 181      4BA5B8EC 
 181      FEF769D8 
 181      064A2167 
 181      09610A2A 
 182 0182 2C2C930A 		.ascii	",,\223\012\213\012\033\013\333\301\302q\321(c\005L\032"
 182      8B0A1B0B 
 182      DBC1C271 
 182      D1286305 
 182      4C1A
 183 0194 9D4281BB 		.ascii	"\235B\201\273\250\026K\234\253z\001r7\314\2072Ld$Q%"
 183      A8164B9C 
 183      AB7A0172 
 183      37CC8732 
 183      4C642451 
 184 01a9 19B94F61 		.ascii	"\031\271Oa\252\265\342\336\371\354\001\263aD\356\007"
 184      AAB5E2DE 
 184      F9EC01B3 
 184      6144EE07 
 185 01b9 DC1983D3 		.ascii	"\334\031\203\323\320\300\026 \266R\030\177\236\246\342"
 185      D0C01620 
 185      B652187F 
 185      9EA6E2
 186 01c8 849E44EE 		.ascii	"\204\236D\356\262M\011r\251\234d2\267\346\354hQ\356"
 186      B24D0972 
 186      A99C6432 
 186      B7E6EC68 
ARM GAS  /tmp/ccErb3td.s 			page 14


 186      51EE
 187 01da 97B206FB 		.ascii	"\227\262\006\373\222x\264\324\375A!\177\332\235\206"
 187      9278B4D4 
 187      FD41217F 
 187      DA9D86
 188 01e9 231D52F5 		.ascii	"#\035R\365\333\3605\372a\230\266\012#\220\246\304\216"
 188      DBF035FA 
 188      6198B60A 
 188      2390A6C4 
 188      8E
 189 01fa 97FEC956 		.ascii	"\227\376\311V\023\216\015\034\276\301\221?\241+\233"
 189      138E0D1C 
 189      BEC1913F 
 189      A12B9B
 190 0209 BE261E56 		.ascii	"\276&\036Vz\342\276\3123`\305\005l u\2278\372\0042\020"
 190      7AE2BECA 
 190      3360C505 
 190      6C207597 
 190      38FA0432 
 191 021e 6595FA3C 		.ascii	"e\225\372<\233\350\363$\005(}\213\323\263\027*\364U"
 191      9BE8F324 
 191      05287D8B 
 191      D3B3172A 
 191      F455
 192 0230 C159D437 		.ascii	"\301Y\3247J\372p\360\350\332\352l\225^#\237#\2401\224"
 192      4AFA70F0 
 192      E8DAEA6C 
 192      955E239F 
 192      23A03194 
 193 0244 4CEC0CBE 		.ascii	"L\354\014\276\205h%\207Wq\304\327\316-\373p\376!\205"
 193      85682587 
 193      5771C4D7 
 193      CE2DFB70 
 193      FE2185
 194 0257 E54D0AAE 		.ascii	"\345M\012\256`&\373\372\337\"\212n\325\355\203sH\361"
 194      6026FBFA 
 194      DF228A6E 
 194      D5ED8373 
 194      48F1
 195 0269 5D99A2B4 		.ascii	"]\231\242\264xj\300\245\227\310^ \240\354=\216\363\212"
 195      786AC0A5 
 195      97C85E20 
 195      A0EC3D8E 
 195      F38A
 196 027b E3ECF29D 		.ascii	"\343\354\362\235)N\034\002j \007~\354\032\274\225Y\365"
 196      294E1C02 
 196      6A20077E 
 196      EC1ABC95 
 196      59F5
 197 028d 5257357A 		.ascii	"RW5z\343{\360'D\015\273\0111YM\353(Q\230\035<\255\370"
 197      E37BF027 
 197      440DBB09 
 197      31594DEB 
 197      2851981D 
 198 02a4 70D7C42F 		.ascii	"p\327\304/n\235-\256\023\366\376\332\365\224\243\301"
 198      6E9D2DAE 
 198      13F6FEDA 
ARM GAS  /tmp/ccErb3td.s 			page 15


 198      F594A3C1 
 199 02b4 1CB8A092 		.ascii	"\034\270\240\222m\352\011bC\216\266\225\3208\014\306"
 199      6DEA0962 
 199      438EB695 
 199      D0380CC6 
 200 02c4 319DB81E 		.ascii	"1\235\270\036\207\357\254\246\226\275\265/\247\345!"
 200      87EFACA6 
 200      96BDB52F 
 200      A7E521
 201 02d3 F4EE23A4 		.ascii	"\364\356#\244>\177`n\014EJ\274\311\333a\002j\265\356"
 201      3E7F606E 
 201      0C454ABC 
 201      C9DB6102 
 201      6AB5EE
 202 02e6 1F209A10 		.ascii	"\037 \232\020\217\262\337\241sN\334\007\277\227+\023"
 202      8FB2DFA1 
 202      734EDC07 
 202      BF972B13 
 203 02f6 45FF5836 		.ascii	"E\377X6\373\022\027,\037Dk\306Fg\246\313J\214-\234\326"
 203      FB12172C 
 203      1F446BC6 
 203      4667A6CB 
 203      4A8C2D9C 
 204 030b 64C569A5 		.ascii	"d\305i\245\316\014%\235\3403x%\340'\314\341]\365\260"
 204      CE0C259D 
 204      E0337825 
 204      E027CCE1 
 204      5DF5B0
 205 031e C01404C9 		.ascii	"\300\024\004\311\270\243\240\301\315-\200Oo\016~Q\201"
 205      B8A3A0C1 
 205      CD2D804F 
 205      6F0E7E51 
 205      81
 206 032f D3D30A97 		.ascii	"\323\323\012\227\020\034\267\371ky\233F\234\356\237"
 206      101CB7F9 
 206      6B799B46 
 206      9CEE9F
 207 033e DA96C10E 		.ascii	"\332\226\301\016\332\242\202\327\332\002\357\345\315"
 207      DAA282D7 
 207      DA02EFE5 
 207      CD
 208 034b 797F56BC 		.ascii	"y\177V\274\352E\234y\220\327D\3742\257\311\222P\311"
 208      EA459C79 
 208      90D744FC 
 208      32AFC992 
 208      50C9
 209 035d 6B6F81F7 		.ascii	"ko\201\367\312f\274\002\256*^\272\317\220\177\220\327"
 209      CA66BC02 
 209      AE2A5EBA 
 209      CF907F90 
 209      D7
 210 036e 5616A2AF 		.ascii	"V\026\242\257\300-6\020\304\247\306.\037\347m[Oq\305"
 210      C02D3610 
 210      C4A7C62E 
 210      1FE76D5B 
 210      4F71C5
 211 0381 85B36EB2 		.ascii	"\205\263n\262\215\327\260l\261Ye1\027\231\244/\375\027"
ARM GAS  /tmp/ccErb3td.s 			page 16


 211      8DD7B06C 
 211      B1596531 
 211      1799A42F 
 211      FD17
 212 0393 AF7D455B 		.ascii	"\257}E[l\007-\030J}\230\022\332b\217\301\265u\213]\327"
 212      6C072D18 
 212      4A7D9812 
 212      DA628FC1 
 212      B5758B5D 
 213 03a8 1663B7D1 		.ascii	"\026c\267\321\306O\371M\006O\372-\332\276\243^\272E"
 213      C64FF94D 
 213      064FFA2D 
 213      DABEA35E 
 213      BA45
 214 03ba 88D5B0B2 		.ascii	"\210\325\260\262.\240\036$y\241\276>\250\177m\241H["
 214      2EA01E24 
 214      79A1BE3E 
 214      A87F6DA1 
 214      485B
 215 03cc B035B227 		.ascii	"\2605\262'\334\024\214\264\266\357k\016U\3644R\2631"
 215      DC148CB4 
 215      B6EF6B0E 
 215      55F43452 
 215      B331
 216 03de 127ABB3D 		.ascii	"\022z\273=\324\322\034j\334\265\353\331\372f\006-\242"
 216      D4D21C6A 
 216      DCB5EBD9 
 216      FA66062D 
 216      A2
 217 03ef A9FD75CF 		.ascii	"\251\375u\317\273\373Z[\336\010D\302\357\205\330\366"
 217      BBFB5A5B 
 217      DE0844C2 
 217      EF85D8F6 
 218 03ff 70CB3BBB 		.ascii	"p\313;\273\367\204_\013\354\015\357\015\005\"m\273\333"
 218      F7845F0B 
 218      EC0DEF0D 
 218      05226DBB 
 218      DB
 219 0410 42EC3F57 		.ascii	"B\354?W\021S@"
 219      115340
 220              		.text
 221              		.section	.gnu.lto_oslib_test_002_002_execute.3a5bf21447051f7d,"",%progbits
 222 0000 789C9554 		.ascii	"x\234\225T\337oTE\024\2363s\367\336\273w\177\260R\374"
 222      DF6F5445 
 222      149E3373 
 222      F7DEBB77 
 222      7FB052FC 
 223 0014 F1B031DB 		.ascii	"\361\2601\333\207\306 \261K\324\007\2421>\030\237M\374"
 223      87C620B1 
 223      4BD407A2 
 223      313E189F 
 223      4DFC
 224 0026 071A5A57 		.ascii	"\007\032ZW\263\206\264\310\266\232\370\262\263\335^"
 224      B386B4C8 
 224      B69AF8B2 
 224      B3DD5E
 225 0035 DBC6A40A 		.ascii	"\333\306\244\012(\010\201\324\304DP\324\026\251\225"
ARM GAS  /tmp/ccErb3td.s 			page 17


 225      280881D4 
 225      C44450D4 
 225      16A995
 226 0044 2D55AE6B 		.ascii	"-U\256k)B\013\265\2645j\011\026L*!\304\354B1\251a\273"
 226      29420BB5 
 226      B4356A09 
 226      164C2A21 
 226      C4EC4231 
 227 005b 9E33B3AD 		.ascii	"\2363\263\255\213\255\017\275\331\235{\317\2319\337"
 227      8BAD0FBD 
 227      D99D7BCF 
 227      9939DF
 228 006a F79D3367 		.ascii	"\367\2353g\306`\300\350y\336d\254\021\337.\376!\300"
 228      C660C0E8 
 228      79DE64AC 
 228      11DF2EFE 
 228      21C0
 229 007c 80BF7B91 		.ascii	"\200\277{\221\261\214\315\271\177\370a&\0351\035g2("
 229      B18CCDB9 
 229      7FF86126 
 229      1D311D67 
 229      3228
 230 008e B8713980 		.ascii	"\270q9\200\2269\220gh\032\334Wm\372\270\325\365\010"
 230      96399067 
 230      681ADC57 
 230      6DFAB8D5 
 230      F508
 231 00a0 9934064D 		.ascii	"\2314\006M\2604\204\305\375?a\260c\017!P\320\006\207"
 231      B03484C5 
 231      FD3F61B0 
 231      630F2150 
 231      D00687
 232 00b3 DCE0D7EF 		.ascii	"\334\340\327\357\214\355\000\320\207\264\201\245\271"
 232      8CED00D0 
 232      87B481A5 
 232      B9
 233 00c0 307CA665 		.ascii	"0|\246e\373\035H\303\035^\342\220\357\234\317\361\315"
 233      FB1D48C3 
 233      1D5EE290 
 233      EF9CCFF1 
 233      CD
 234 00d1 47243E73 		.ascii	"G$>sg\206^\315H\367!W0V\346J3\203#\260\231\341\262k"
 234      67865ECD 
 234      48F72157 
 234      3056E64A 
 234      338323B0 
 235 00e9 C797DE0F 		.ascii	"\307\227\336\017\231\035\264,\246'\341(\230\230\030"
 235      991DB42C 
 235      A627E128 
 235      989818
 236 00f8 614C76F4 		.ascii	"aLv\364\037\022\013\334\025\000\006\232\305\013\007"
 236      1F120BDC 
 236      1500069A 
 236      C50B07
 237 0107 7F0F93C9 		.ascii	"\177\017\223\311!\206fI\276\267/,\236\001\202Y\234+"
 237      21866649 
 237      BEB72F2C 
ARM GAS  /tmp/ccErb3td.s 			page 18


 237      9E018259 
 237      9C2B
 238 0119 7DECABFB 		.ascii	"}\354\253\373H\312v\351\375\2667|@z\0351W\0108\006\002"
 238      48CA76E9 
 238      FDB6377C 
 238      407A1D31 
 238      57083806 
 239 012e 41E15388 		.ascii	"A\341S\210\302'\020\325\314\237A\035F\\*\214\037\016"
 239      C22710D5 
 239      CC9F411D 
 239      465C2A8C 
 239      1F0E
 240 0140 68EC089A 		.ascii	"h\354\010\232\203\363\347F\035\215-\001\355c\013\245"
 240      83F3E746 
 240      1D8D2D01 
 240      ED630BA5 
 241 0150 31433CAB 		.ascii	"1C<\253\300\217\356\037>\344 \270'\245W\234\012g4\270"
 241      C08FEE1F 
 241      3EE420B8 
 241      27A5579C 
 241      0A6734B8 
 242 0164 017D1AFC 		.ascii	"\001}\032\374\013\004\377|\031\274\037\352\372^\364"
 242      0B04FF7C 
 242      19BC1FEA 
 242      FA5EF4
 243 0173 64B99C95 		.ascii	"d\271\234\225\336L\315\225\237\377p6\001s\205\317T\274"
 243      DE4CCD95 
 243      9FFF7036 
 243      017385CF 
 243      54BC
 244 0185 167E9A7E 		.ascii	"\026~\232~\032\034\034\254\000\015A\032B8\330a\232\210"
 244      1A1C1CAC 
 244      000D411A 
 244      4238D861 
 244      9A88
 245 0197 D0C05801 		.ascii	"\320\300X\001KA\305-rNo1\017\355\013\205\277\236\244"
 245      4B41C52D 
 245      724E6F31 
 245      0FED0B85 
 245      BF9EA4
 246 01aa E2A0A27D 		.ascii	"\342\240\242}n~\302\"\265~%0\227\2739k\245K\262K\312"
 246      6E7EC222 
 246      B57E2530 
 246      97BB396B 
 246      A54BB24B 
 247 01bf 08FABAB1 		.ascii	"\010\372\272\261\316\344~\2730}\302\351\205\303\031"
 247      CEE47EBB 
 247      307DC2E9 
 247      85C319
 248 01ce A9FC367C 		.ascii	"\251\3746|\211\233s\234\224\302\011\350\245,\007F\316"
 248      899B739C 
 248      94C209E8 
 248      A52C0746 
 248      CE
 249 01df BE65138E 		.ascii	"\276e\023\216\015\000\0038s\035:\275;S\342?\033C\322"
 249      0D000338 
 249      731D3ABD 
ARM GAS  /tmp/ccErb3td.s 			page 19


 249      3B53E23F 
 249      1B43D2
 250 01f2 2933B537 		.ascii	")3\2657\030\375\025\230Ya\256\"v\312\0347\016\006!\315"
 250      18FD1598 
 250      5961AE22 
 250      76CA1C37 
 250      0E0621CD 
 251 0206 AA3506D6 		.ascii	"\2525\006\326\320\030\350\026\2404\336\030\237\031\251"
 251      D018E816 
 251      A034DE18 
 251      9F19A9
 252 0215 D2188493 		.ascii	"\322\030\204\223\250\361k\322\210\223\037\376\2758\023"
 252      A8F16BD2 
 252      88931FFE 
 252      BD3813
 253 0224 D431F209 		.ascii	"\3241\362\011\002\312\241lbg0\004i\212\376\345\352\026"
 253      02CAA16C 
 253      62673004 
 253      698AFEE5 
 253      EA16
 254 0236 9CA7673F 		.ascii	"\234\247g?\270\"D\"\365\374)5\177\352\366\3351N\032"
 254      B8224422 
 254      F5FC2935 
 254      7FEAF6DD 
 254      314E1A
 255 0249 04446018 		.ascii	"\004D`\030\242\350\352\273\231[\014\221+\014\014\276"
 255      A2E8EABB 
 255      995B0C91 
 255      2B0C0CBE 
 256 0259 81A82B36 		.ascii	"\201\250+6\260k\320.7P\034%\212\231\261y\310\016t^\231"
 256      B06BD02E 
 256      37501C25 
 256      8A99B179 
 256      C80E745E 
 257 026e 7074A696 		.ascii	"pt\246\226Nv%!\224\016\337\252b\371\364\002\377\252"
 257      4E762521 
 257      940EDFAA 
 257      62F9F402 
 257      FFAA
 258 0280 FC2265DC 		.ascii	"\374\"e\3347\006\247\261\024\030\217\323w\027{n\207"
 258      3706A7B1 
 258      14188FD3 
 258      77177B6E 
 258      87
 259 0291 6A9FEB95 		.ascii	"j\237\353\225\037`\353\334G\311M\357\231\035F\221\022"
 259      1F60EBDC 
 259      47C94DEF 
 259      991D4691 
 259      12
 260 02a2 8FC546F0 		.ascii	"\217\305F\360\240V\353\376\016\322\256\250aW\241cV\374"
 260      A056EBFE 
 260      0ED2AEA8 
 260      6157A163 
 260      56FC
 261 02b4 0BBE428D 		.ascii	"\013\276B\215'\003\362\225^+r\301\246\343\324\031C\273"
 261      2703F295 
 261      5E2B72C1 
ARM GAS  /tmp/ccErb3td.s 			page 20


 261      A6E3D419 
 261      43BB
 262 02c6 970CBDD8 		.ascii	"\227\014\275\330YG\245\277\257\252t\317\311\376n;\376"
 262      5947A5BF 
 262      AFAA74CF 
 262      C9FE6E3B 
 262      FE
 263 02d7 1876228C 		.ascii	"\030v\"\214`\215\227\324)\2053\020g\004\017\032<\260"
 263      608D97D4 
 263      29853310 
 263      67040F1A 
 263      3CB0
 264 02e9 0EF0D1B5 		.ascii	"\016\360\321\265\301\317*p\272\267\340\007\004\3074"
 264      C1CF2A70 
 264      BAB7E007 
 264      04C734
 265 02f8 7FADA4E9 		.ascii	"\177\255\244\351 ~%-\203\355\265D\025op\035\274\347"
 265      207E252D 
 265      83EDB544 
 265      156F701D 
 265      BCE7
 266 030a D6E63DAF 		.ascii	"\326\346=\257x\325\3652v/o\000\361+\274>\326\015\325"
 266      78D5F532 
 266      762F6F00 
 266      F12BBC3E 
 266      D60DD5
 267 031d BCA175F0 		.ascii	"\274\241u\360\216\257\305+\340\202\342\245\363\010\027"
 267      8EAFC52B 
 267      E082E2A5 
 267      F30817
 268 032c EFE50DA9 		.ascii	"\357\345\015\251\026\242\247\300M\366N\\\024\271U\331"
 268      16A2A7C0 
 268      4DF64E5C 
 268      14B955D9 
 269 033c CE5B965E 		.ascii	"\316[\226^\022\316\"\333J\223E\376\257\311&T\223\205"
 269      12CE22DB 
 269      4A9345FE 
 269      AFC92654 
 269      9385
 270 034e A94D0EF6 		.ascii	"\251M\016\366\376\311k_\320M\266\211\244\364\367\354"
 270      FEC96B5F 
 270      D04DB689 
 270      A4F4F7EC 
 271 035e EE11BAC9 		.ascii	"\356\021\272\311\356\207\037\227\233lrU\223E\226\273"
 271      EE871F97 
 271      9B6C7255 
 271      934596BB 
 272 036e EA165E04 		.ascii	"\352\026^\004[\242>\006\217FM\252\211\315\316o\024\327"
 272      5BA23E06 
 272      8F464DAA 
 272      89CDCE6F 
 272      14D7
 273 0380 211B5147 		.ascii	"!\033QG\177\225\204\007\312\224\034\\B\011\256xPU\321"
 273      7F958407 
 273      CA941C5C 
 273      4209AE78 
 273      5055D1
ARM GAS  /tmp/ccErb3td.s 			page 21


 274 0393 CF469FC6 		.ascii	"\317F\237\306,\362\227'K\252)\351Lb\334\2019o\217o\333"
 274      2CF29727 
 274      4BAA29E9 
 274      4C62DC81 
 274      396F8F6F 
 275 03a8 A0ECC273 		.ascii	"\240\354\302sj0\230\202mj\265\243n\267\033\320\036a"
 275      6A309882 
 275      6D6AB5A3 
 275      6EB71BD0 
 275      1E61
 276 03ba 95620079 		.ascii	"\225b\000y0\257\247\352\353\343\372\327\232H\265\306"
 276      30AFA7EA 
 276      EBE3FAD7 
 276      9A48B5C6 
 277 03ca 5B523B92 		.ascii	"[R;\222\215\361TK\333\256\246D\225\247\201>\033R\211"
 277      8DF1544B 
 277      DBAEA644 
 277      95A7813E 
 277      1B5289
 278 03dd D7DA12CD 		.ascii	"\327\332\022\315M\211\206\255[\037\257ob\320,\032\333"
 278      4D8986AD 
 278      5B1FAF6F 
 278      62D02C1A 
 278      DB
 279 03ee 5E0EBCB1 		.ascii	"^\016\274\261\253\245\371\225X*\371f\202\325$\233_\337"
 279      ABA5F995 
 279      582AF966 
 279      82D5249B 
 279      5FDF
 280 0400 BE23F952 		.ascii	"\276#\371Rlgrg\"\226j\335\336\232`\377\000aS<\356"
 280      6C677267 
 280      22966ADD 
 280      DE9A60FF 
 280      0061533C 
 281              		.text
 282              		.section	.gnu.lto_oslib_test_002_001_execute.part.2.3a5bf21447051f7d,"",%progbits
 283 0000 789C959C 		.ascii	"x\234\225\234\007x\025\305\026\307gf7\355\246\022:\004"
 283      077815C5 
 283      16C76766 
 283      37EDA612 
 283      3A04
 284 0012 4880D021 		.ascii	"H\200\320!tB\257\212\035D\021\261\361\024\243\360D@"
 284      7442AF8A 
 284      1D4411B1 
 284      F114A3F0 
 284      4440
 285 0024 13F43D5B 		.ascii	"\023\364=[.\204\320T\004D\020D\301\012\002B\350$\264"
 285      2E84D054 
 285      04441044 
 285      C10A0242 
 285      E824B4
 286 0037 D0214020 		.ascii	"\320!@ \241\204.\250 \017[\200 RB\336\2343\263\345f"
 286      A1842EA8 
 286      200F5B80 
 286      205242DE 
 286      9C33B3E5 
 287 004c 776FB27C 		.ascii	"wo\262|~\303\356\224\3779s\346\314og7A\225P\002\177"
ARM GAS  /tmp/ccErb3td.s 			page 22


 287      7EC3EE94 
 287      FF3973E6 
 287      CC6F6737 
 287      41955002 
 288 0061 42FA10B2 		.ascii	"B\372\020\262\220\377\335(\200\020\3724\241OM\313\345"
 288      90FFDD28 
 288      8010FA34 
 288      A14F4DCB 
 288      E5
 289 0072 17270965 		.ascii	"\027'\011ex\301\230r:\224x=\001\253\267\021\342\015"
 289      78C19872 
 289      3A94783D 
 289      01ABB711 
 289      E20D
 290 0084 53986ABE 		.ascii	"S\230j\276UY\340\244\206p\013eX\000\015\2041c\203\003"
 290      5559E0A4 
 290      86700B65 
 290      58000D84 
 290      31638303 
 291 0098 D9E06309 		.ascii	"\331\340c\011\274:(\2536\257\016b\021\033\371\337\236"
 291      BC3A28AB 
 291      36AF0E62 
 291      111BF9DF 
 291      9E
 292 00a9 E023BC2E 		.ascii	"\340#\274.,\230\205\240B\250P\010a\036\363\255\207\205"
 292      2C9885A0 
 292      42A85008 
 292      611EF3AD 
 292      8785
 293 00bb A160280A 		.ascii	"\241`(\012\206\3220!\030&%\302Q\"\234E\342\230\012b"
 293      86D23021 
 293      182625C2 
 293      51229C45 
 293      E2980A62 
 294 00cf 4C041D2C 		.ascii	"L\004\035,zE\262(s}\024\213F\255\012\250U\201F\213^"
 294      7A45B228 
 294      737D148B 
 294      46AD0AA8 
 294      5581468B 
 295 00e4 D1D2B98A 		.ascii	"\321\322\271\212\350\\E6\030\225+\241r%V\031\025\252"
 295      E85C4536 
 295      18952BA1 
 295      72255619 
 295      15AA
 296 00f6 0A85CAAC 		.ascii	"\012\205\312\254\212\371\266\012\253VX\031n\027$\362"
 296      8AF9B60A 
 296      AB565819 
 296      6E1724F2 
 297 0106 BBAAB49A 		.ascii	"\273\252\264\232\020\254&\005\253\243`u\026\207\202"
 297      10AC2605 
 297      ABA36075 
 297      168782
 298 0115 3550B006 		.ascii	"5P\260\006\253\211\012\265\204BM\026c\276\215a\265\321"
 298      AB890AB5 
 298      84424D16 
 298      63BE8D61 
 298      B5D1
ARM GAS  /tmp/ccErb3td.s 			page 23


 299 0127 C35AE861 		.ascii	"\303Z\350a-Z[\010\326fq(X\007\005\353\310\273X\274\213"
 299      2D5A5B08 
 299      D6667128 
 299      580705EB 
 299      C8BB58BC 
 300 013c 95FED645 		.ascii	"\225\376\326E\3718m\352uY=\224\364\304\203~X=V\037\355"
 300      F9386DEA 
 300      75593D94 
 300      F4C4837E 
 300      583D561F 
 301 0151 C40B3BF5 		.ascii	"\304\013;\365Y\003t<\036\035\217\247\015\304\240\006"
 301      5903743C 
 301      1E1D8FA7 
 301      0DC4A006 
 302 0161 D2F186A8 		.ascii	"\322\361\206\250\334P*7B\345F\2541*4\025\012\215Y\023"
 302      DC502A37 
 302      42E546AC 
 302      312A3415 
 302      0A8D5913 
 303 0175 F36D13D6 		.ascii	"\363m\023\326\014\005\233\242`S\332L\0106\223\202\315"
 303      0C059BA2 
 303      6053DA4C 
 303      08369382 
 303      CD
 304 0186 51B0396B 		.ascii	"Q\2609k\207\202-P\260\005K\020\036\266B\017\023XK\024"
 304      87822D50 
 304      B0054B10 
 304      1EB6420F 
 304      13584B14 
 305 019a 6C25045B 		.ascii	"l%\004[\262\326(\330\012\005[\321\326B\2605k\207\202"
 305      B2D628D8 
 305      0A055BD1 
 305      D642B035 
 305      6B8782
 306 01ad 6D50B08D 		.ascii	"mP\260\215\274k\213wmYW\224o\217\362\355\264H\264g\035"
 306      BC6B8B77 
 306      6D595794 
 306      6F8FF2ED 
 306      B448B467 
 307 01c2 50B8A310 		.ascii	"P\270\243\020\356\300\022\315\267\211\254\023F\274#"
 307      EEC012CD 
 307      B789AC13 
 307      46BC23
 308 01d1 46BC23ED 		.ascii	"F\274#\355$\006ub]Q\2713*w\226w]\360\256\213\214K7\264"
 308      24067562 
 308      5D51B933 
 308      2A779677 
 308      5DF0AE8B 
 309 01e9 D355B3D3 		.ascii	"\323U\263\323\215u\027\363\351\211\363\351\316z\240"
 309      8D7517F3 
 309      E989F3E9 
 309      CE7AA0
 310 01f8 9D9EC24E 		.ascii	"\235\236\302N6a\275pB=qB[\011\355%\206m#2F\275Q|;a\017"
 310      3661BD70 
 310      423D7142 
 310      5B09ED25 
 310      866D2332 
ARM GAS  /tmp/ccErb3td.s 			page 24


 311 0213 A27A1F54 		.ascii	"\242z\037T\337A\330=(\323W\310\354$\354^a\245/Z\331"
 311      DF41D83D 
 311      28D357C8 
 311      EC24EC5E 
 311      61A52F5A 
 312 0228 45D87DE8 		.ascii	"E\330}\350\177_\364\1777\241\367\011\331=\\\007e\357"
 312      7F5FF47F 
 312      37A1F709 
 312      D93D5C07 
 312      65EF
 313 023a 47D9BDDA 		.ascii	"G\331\275\332\355\003x\233C\344\034\036B+\373\2106\211"
 313      ED03789B 
 313      43E41C1E 
 313      422BFB88 
 313      3689
 314 024c FD843D8C 		.ascii	"\375\204=\214\366\372\011{\007\010{D\330\353\207\366"
 314      F6FA097B 
 314      07087B44 
 314      D8EB87F6 
 315 025c 7209EB8F 		.ascii	"r\011\353\217\323\350\207\3238Hh\1771\360\2206\215G"
 315      D3E887D3 
 315      3848687F 
 315      31F09036 
 315      8D47
 316 026e D1401E61 		.ascii	"\321@\036aO\242_\003\320\257|\302\036C\331\201B\366"
 316      4FA25F03 
 316      D0AF7CC2 
 316      1E43D981 
 316      42F6
 317 0280 30618F0B 		.ascii	"0a\217\013\331\201({\204\260'\260\373@\354~\224\320"
 317      D981287B 
 317      84B027B0 
 317      FB40EC7E 
 317      94D0
 318 0292 2784EC31 		.ascii	"'\204\3541\256s\263+o\0304;\2127\024\350\216\036\327"
 318      AE73B32B 
 318      6F18343B 
 318      8A3714E8 
 318      8E1ED7
 319 02a5 AF4E104A 		.ascii	"\257N\020J\341\312\033LI\352I\302\0245 0(8\304\023\032"
 319      E1CA1B4C 
 319      49EA49C2 
 319      14352030 
 319      2838C413 
 320 02ba 161E1119 		.ascii	"\026\036\021\031U!\272b\245\312U\252V\253^\243fL\255"
 320      5521BA62 
 320      A5CA55AA 
 320      56AB5EA3 
 320      664CAD
 321 02cd DA7562E3 		.ascii	"\332ub\343\352\326\253\037\337\240a\243\306M\2326k\336"
 321      EAD6AB1F 
 321      DFA061A3 
 321      C64D9A36 
 321      6BDE
 322 02df 22A165AB 		.ascii	"\"\241e\253\326m\332\266k\337!\261c\247\316]\272v\353"
 322      D66DDAB6 
 322      6BDF21B1 
ARM GAS  /tmp/ccErb3td.s 			page 25


 322      63A7CE5D 
 322      BA76EB
 323 02f2 9E4DB692 		.ascii	"\236M\266\222md;\331Av\222]d7\331C\366\222\034\262\217"
 323      6D643BD9 
 323      4176925D 
 323      6437D943 
 323      F6921CB2 
 324 0307 EC270748 		.ascii	"\354'\007H.9H\016\221<\222O\016\223#\344(9F\012\310"
 324      2E39480E 
 324      913C924F 
 324      0E9323E4 
 324      2839460A 
 325 031c 71C2CDA7 		.ascii	"q\302\315\247\322\353\254\230\321m\023/f\262\306\013"
 325      D2EBAC98 
 325      D16D132F 
 325      66B2C60B 
 326 032c BDFCCFB9 		.ascii	"\275\374\317\271\364\277\206\215\365\246WKW\010)a\210"
 326      F4BF868D 
 326      F5A6574B 
 326      57082961 
 326      88
 327 033d 554217D2 		.ascii	"UB\027\322\306\204w\373i\305\335O\302\003\307C\267X"
 327      C68477FB 
 327      69C5DD4F 
 327      C203C743 
 327      B758
 328 034f D14817D1 		.ascii	"\321H\027\321@\316\336h\336\230_\270\377\363\320\"\226"
 328      40CEDE68 
 328      DE985FB8 
 328      FFF3D022 
 328      96
 329 0360 AE501AC5 		.ascii	"\256P\032\305o\327^\334\273\313\003\267\214z)\277_R"
 329      6FD75EDC 
 329      BBCB03B7 
 329      8C7A29BF 
 329      5F52
 330 0372 54BC4F55 		.ascii	"T\274OU\272R\320Y4{\343<O\374\327\336l\2577{\363\000"
 330      BA52D059 
 330      347BE33C 
 330      4FFCD7DE 
 330      6CAF377B 
 331 0388 EFB4B1C1 		.ascii	"\357\264\261\301\351\212B\227P\205k\322\3054\206~Oc"
 331      E98A4297 
 331      50856BD2 
 331      C534867E 
 331      4F63
 332 039a 84E1A534 		.ascii	"\204\341\2454\236\367\317\033\2371O\021\322*\277\275"
 332      9EF7CF1B 
 332      9F314F11 
 332      D22ABFBD 
 333 03aa 7260EECF 		.ascii	"r`\356\317\021B:\226\337\026{g\316\212Pz\242\362\315"
 333      11423A96 
 333      DF167B67 
 333      CE8A507A 
 333      A2F2CD
 334 03bd 73C5DF05 		.ascii	"s\305\337\005pe\3578o\366\246\031\021s\274\331\343c"
 334      7065EF38 
ARM GAS  /tmp/ccErb3td.s 			page 26


 334      6FF6A619 
 334      1173BCD9 
 334      E363
 335 03cf D315952E 		.ascii	"\323\025\225.\027\332\313\270\366\017\232v\006j\233"
 335      17DACBB8 
 335      F60F9A76 
 335      066A9B
 336 03de 47CCC80F 		.ascii	"G\314\310\017\023\316\330\017X\201\003\314\316\027\034"
 336      13CED80F 
 336      588103CC 
 336      CE171C
 337 03ed 8C182B4C 		.ascii	"\214\030+L\330\273\277\322b\342\350G\376\235Ze\0311"
 337      D8BBBFD2 
 337      62E2E847 
 337      FE9D5A65 
 337      1931
 338 03ff F7A05FA7 		.ascii	"\367\240_\247V[\234\3721\327\277Sk,&\316L\365\357\324"
 338      565B9CFA 
 338      31D7BF53 
 338      6B2C26CE 
 338      4CF5EFD4 
 339 0413 5A8B8D15 		.ascii	"Z\213\215\025e\330Xg\2611\277\014\033\353-#\212\366"
 339      65D85867 
 339      B131BF0C 
 339      1BEB2D23 
 339      8AF6
 340 0425 F99D78A6 		.ascii	"\371\235x\246e@\226\377\001Y\226Y\224\344\370\237\305"
 340      654096FF 
 340      01599659 
 340      94E4F89F 
 340      C5
 341 0436 068B89E2 		.ascii	"\006\213\211\342)\376g\261\3212\"?\307\257S\233,N]\337"
 341      29FE67B1 
 341      D132223F 
 341      C7AF539B 
 341      2C4E5DDF 
 342 044a EDDFA9CD 		.ascii	"\355\337\251\315\026\023\327&\372wj\213e\304\372\335"
 342      1613D726 
 342      FA776A8B 
 342      65C4FADD 
 343 045a 7E9DCAA6 		.ascii	"~\235\312\246\361\313\007x\275%%i\336i\277\306\323\303"
 343      F1CB0778 
 343      BD252569 
 343      DE69BFC6 
 343      D3C3
 344 046c 94927425 		.ascii	"\224\222t%\200A\241@\241\362\"0\200\027A\201\274\010"
 344      8041A140 
 344      A1F22230 
 344      80174181 
 344      BC08
 345 047e 0E822218 		.ascii	"\016\202\"\030\355\204\300\245\007\212P\350\030\006"
 345      ED84C0A5 
 345      078A50E8 
 345      1806
 346 048c 45381411 		.ascii	"E8\024\0210$\022\206DAk\005(\242\241\241\"\024\225\240"
 346      30241286 
 346      44416B05 
ARM GAS  /tmp/ccErb3td.s 			page 27


 346      28A2A1A1 
 346      221495A0 
 347 04a0 A80C5DAA 		.ascii	"\250\014]\252@\227\252\320Z\015\212\352\030\241\032"
 347      4097AAD0 
 347      5A0D8AEA 
 347      18A11A
 348 04af 7059138A 		.ascii	"pY\023\212\030\350X\013\212\332P\324\201!\2610$\016"
 348      18E8580B 
 348      8ADA50D4 
 348      8121B130 
 348      240E
 349 04c1 5AEB4251 		.ascii	"Z\353BQ\017W\241>\\\306C\321\000:6\204\242\021\024\215"
 349      0F57A13E 
 349      5CC643D1 
 349      003A3684 
 349      A211148D 
 350 04d5 61481318 		.ascii	"aH\023\030\322\024Z\233A\321\034n[\300U\002\024-1WZ"
 350      D2145A9B 
 350      41D11C6E 
 350      5BC05502 
 350      142D3157 
 351 04ea C1656B28 		.ascii	"\301ek(\332\300\270\266P\264\203\242=(t\200!\211\320"
 351      DAC0B8B6 
 351      50B483A2 
 351      3D287480 
 351      2189D0
 352 04fd DA118A4E 		.ascii	"\332\021\212N\230\217\235\341\262\013\024]\241c7(\272"
 352      988F9DE1 
 352      B20B145D 
 352      A1633728 
 352      BA
 353 050e 43D10386 		.ascii	"C\321\003\206\364\204!\275\240\2657\024}0\347\357\201"
 353      F48421BD 
 353      A0B53714 
 353      7D30E7EF 
 353      81
 354 051f CB7BA1E8 		.ascii	"\313{\241\350\013\035\357\203\342~(\036\200!\017\302"
 354      0B1DEF83 
 354      E27E281E 
 354      80210FC2 
 355 052f 9087A0F5 		.ascii	"\220\207\240\365a(\036\201\333~p\325\037\212Gqg\016"
 355      61281E81 
 355      DB7E70D5 
 355      1F8A4771 
 355      670E
 356 0541 80CBC7A0 		.ascii	"\200\313\307\240x\034\306\015\204\342\011(\006\201\302"
 356      781CC60D 
 356      84E20928 
 356      0681C2
 357 0550 93306430 		.ascii	"\2230d0\264>\005\305\323p\373\014\\=\013\305s\310\217"
 357      B43E05C5 
 357      D370FB0C 
 357      5C3D0BC5 
 357      73C88F
 358 0563 2170F92F 		.ascii	"!p\371/(\236\207q/@1\024\212\027A!\011\206\274\004\255"
 358      289E8771 
 358      2F403114 
ARM GAS  /tmp/ccErb3td.s 			page 28


 358      8A174121 
 358      0986BC04 
 359 0578 2F43310C 		.ascii	"/C1\014\0315\034.\377\015\305+\320q\004\024\257B1\022"
 359      19351C2E 
 359      FF0DC52B 
 359      D0710414 
 359      AF423112 
 360 058c 868C8221 		.ascii	"\206\214\202!\243\241\3655(^\207\333d\270J\201b\014"
 360      A3A1F535 
 360      285E87DB 
 360      64B84A81 
 360      620C
 361 059e 92F40DB8 		.ascii	"\222\364\015\270|\023\212\377\300\270\377B\361\026\024"
 361      7C138AFF 
 361      C0B8FF42 
 361      F11614
 362 05ad 6F83C23B 		.ascii	"o\203\302;0\344]h}\017\212T\244\265\027\3220x,\226\343"
 362      30E45D68 
 362      7D0F8A54 
 362      A4B517D2 
 362      30782C96 
 363 05c2 3025D3B0 		.ascii	"0%\323\260\034\217e:\224\201\023\240\014\232\210}&a"
 363      1C8F653A 
 363      948113A0 
 363      0C9A887D 
 363      2661
 364 05d4 39196BA6 		.ascii	"9\031k\246\3405!\205\374\251\005\217\334B\366\024\374"
 364      E0352185 
 364      FCA9058F 
 364      DC42F614 
 364      FC
 365 05e5 AD5C610C 		.ascii	"\255\\a\014\377\276H\307e\255(z\264\324C\016v\002>\343"
 365      FFBE48C7 
 365      65AD287A 
 365      B4D4430E 
 365      76023EE3 
 366 05f9 F8A6D84A 		.ascii	"\370\246\330J\003\323\024x\222\315J\337v0\010\036?!"
 366      03D31478 
 366      92CD4ADF 
 366      7630081E 
 366      3F21
 367 060b F8C8C9CC 		.ascii	"\370\310\311\314\374\375TPj\261w\222\327\033\305\353"
 367      FCFD5450 
 367      6AB17792 
 367      D71BC5EB 
 368 061b 26F3E726 		.ascii	"&\363\347&T_\336\177t\207g>\375|\254\027\353=t;\177"
 368      545FDE7F 
 368      7487673E 
 368      FD7CAC17 
 368      EB3D743B 
 369 0630 D86E831D 		.ascii	"\330n\203\035\306\033\247\256\317\230\034\234\320\234"
 369      C61BA7AE 
 369      CF981C9C 
 369      D09C
 370 063e 7B4D77D0 		.ascii	"{Mw\320\371\364.>g\351N\232@\300\017*l1\027\342\273"
 370      F9F42E3E 
 370      67E94E9A 
ARM GAS  /tmp/ccErb3td.s 			page 29


 370      40C00F2A 
 370      6C3117E2 
 371 0653 ECC577A3 		.ascii	"\354\305w\2438\274\034\321=\\\374<\035\177R\221\023"
 371      38BC1CD1 
 371      3D5CFC3C 
 371      1D7F5291 
 371      13
 372 0664 E1FAB8D9 		.ascii	"\341\372\270\331\2570\205\234\016ULv\025\027v\367\332"
 372      AF30859C 
 372      0E554C76 
 372      151776F7 
 372      DA
 373 0675 DBCD41BB 		.ascii	"\333\315A\273x@\330\347k\227q}iW\345\365f\273\252\013"
 373      7840D8E7 
 373      6B97717D 
 373      6957E5F5 
 373      66BBAA0B 
 374 0689 BBFBEDEC 		.ascii	"\273\373\355\354\252\364\000\332\205A4\327\327\256j"
 374      AAF400DA 
 374      854134D7 
 374      D7AE6A
 375 0698 5E389512 		.ascii	"^8\225\022zP\302\256\220\005\220\005\007 \021\002\265"
 375      7A50C2AE 
 375      90059005 
 375      07201102 
 375      B5
 376 06a9 44B81A24 		.ascii	"D\270\032$\306\360\377\002\310%\032 \356\202,\356\205"
 376      C6F0FF02 
 376      C8251A20 
 376      EE822CEE 
 376      85
 377 06ba 964068E9 		.ascii	"\226@h\351!\232Jxg00w\376\237,\256\367|\357\247\234"
 377      219A4A78 
 377      67303077 
 377      FE9F2CAE 
 377      F77CEFA7 
 378 06cf C561E05B 		.ascii	"\305a\340[\306\324\351S\025>\200\037\247\302i\036\215"
 378      C6D4E953 
 378      153E801F 
 378      A7C2691E 
 378      8D
 379 06e0 032942F3 		.ascii	"\003)B\363ij\272\022\001\356\235R\014q\335=~\032\344"
 379      696ABA12 
 379      01EE9D52 
 379      0C71DD3D 
 379      7E1AE4
 380 06f3 CC45F7AE 		.ascii	"\314E\367\256r\353McTB\233\304\004@\314\202HVmp\261"
 380      72EB4D63 
 380      54429BC4 
 380      0440CC82 
 380      48566D70 
 381 0708 A8F0462B 		.ascii	"\250\360F+\310K\363\260H\233t\214\234\254P\014\322\373"
 381      C84BF3B0 
 381      489B748C 
 381      9CAC500C 
 381      D2FB
 382 071a 85475699 		.ascii	"\205GV\231\"\030H\217\362\010\036\001#\364\030\017\032"
ARM GAS  /tmp/ccErb3td.s 			page 30


 382      2218488F 
 382      F2081E01 
 382      23F4180F 
 382      1A
 383 072b 9C01AF66 		.ascii	"\234\001\257f,\014\003\235@\252\320\002\336r\211N\314"
 383      2C0C039D 
 383      40AAD002 
 383      DE72894E 
 383      CC
 384 073c BEB95B29 		.ascii	"\276\271[)\275%8\345\341\031\244m\213\343\340~\260\305"
 384      BD2538E5 
 384      E119A46D 
 384      8BE3E07E 
 384      B0C5
 385 074e 7054092C 		.ascii	"pT\011,?=\301c\343bYO\232\226u\301\255\233G\303\304"
 385      3F3DC163 
 385      E362594F 
 385      9A9675C1 
 385      AD9B47C3 
 386 0763 186F1BD8 		.ascii	"\030o\033\330l\247\270\237`\216\320\3234\025F\2378\337"
 386      6CA7B89F 
 386      608ED0D3 
 386      3415469F 
 386      38DF
 387 0775 94B7C39F 		.ascii	"\224\267\303\237\3314]\251\000^\211\3663\330\276\341"
 387      D9345DA9 
 387      005E89F6 
 387      33D8BEE1 
 388 0785 DA9D7D4C 		.ascii	"\332\235}L,w\024=Kcx\325\362\3373o\206CU4\017\361\217"
 388      2C77143D 
 388      4B6378D5 
 388      F2DF336F 
 388      86435534 
 389 079c 34265DA9 		.ascii	"4&]\251H~\242\343\274\2210\016f\306\247\302\267`\332"
 389      487EA2E3 
 389      BC91300E 
 389      66C6A7C2 
 389      B760DA
 390 07af EA897FCE 		.ascii	"\352\211\177\316\367\210\251\205\360*L\026H\004\254"
 390      F788A985 
 390      F02A4C16 
 390      4804AC
 391 07be F13825C2 		.ascii	"\3618%\3029L\204\020\336<o\353\272\375J\334 \221"
 391      394C8410 
 391      DE3C6FEB 
 391      BAFD4ADC 
 391      2091
 392 07d0 08956036 		.ascii	"\010\225`63\347|\364\277H\221\010\225\351y\236\010\350"
 392      33E77CF4 
 392      BF489108 
 392      95E9799E 
 392      08E8
 393 07e2 E84FE644 		.ascii	"\350O\346D\020\342\332\312\363\305\016&9\321\270A\246"
 393      10E2DACA 
 393      F3C50E26 
 393      39D1B841 
 393      A6
ARM GAS  /tmp/ccErb3td.s 			page 31


 394 07f3 9750D11A 		.ascii	"\227P\321\032\352\"\226?\333o\315_\014\336\\\320y\203"
 394      EA22963F 
 394      DB6FCD5F 
 394      0CDE5CD0 
 394      7983
 395 0805 E2612EC4 		.ascii	"\342a.\304/\332\213\377j\360\346\222\276\377\204\347"
 395      2FDA8BFF 
 395      6AF0E692 
 395      BEFF84E7 
 396 0815 5C5F4E2B 		.ascii	"\\_N+\204\\`\212\311n\270\013\273\377\263\267{\331\340"
 396      845C608A 
 396      C96EB80B 
 396      BBFFB3B7 
 396      7BD9E0
 397 0828 CD6FBE76 		.ascii	"\315o\276v\303\270\276\264\353!\355\315f#\\\230\375"
 397      C3B8BEB4 
 397      EB21EDCD 
 397      66235C98 
 397      FD
 398 0839 DD1E377F 		.ascii	"\335\0367\177\030\270\371\323\327l\204\211/\241dy4\307"
 398      18B8F9D3 
 398      D76C8489 
 398      2FA16479 
 398      34C7
 399 084b 4B985C4D 		.ascii	"K\230\\MN\027\354\022\225\246D\032IU\301)\251\376\302"
 399      4E17EC12 
 399      95A6441A 
 399      4955C129 
 399      A9FEC2
 400 085e A48A2A9B 		.ascii	"\244\212*\233.\205ZR]\261$U\005\003'\221\034'\036\300"
 400      2E855A52 
 400      5DB12455 
 400      05032791 
 400      1C271EC0 
 401 0872 49288424 		.ascii	"I(\204$\234,\006\364o;\215^\310\243\345\234s\3313\002"
 401      9C2C06F4 
 401      6F3B8D5E 
 401      C8A3E59C 
 401      73D93302 
 402 0886 12D77A27 		.ascii	"\022\327z'\361M\245\020z\225&\022$\316\256\326\2228"
 402      F14DA510 
 402      7A952612 
 402      24CEAED6 
 402      9238
 403 0898 E545CC35 		.ascii	"\345E\3145\0351E\0021\372{\\ U\351u\336\302\367^\366"
 403      1D314502 
 403      31FA7B5C 
 403      2055E975 
 403      DEC2F75E 
 404 08ad FC1C2675 		.ascii	"\374\034&u\013\276\332\374qD\223E\260\241\263\327\014"
 404      0BBEDAFC 
 404      71449345 
 404      B0A1B3D7 
 404      0C
 405 08be 9AB3809F 		.ascii	"\232\263\200\237OC\210|\003\375\2336q\261^7\3549\002"
 405      4F43887C 
 405      03FD9B36 
ARM GAS  /tmp/ccErb3td.s 			page 32


 405      71B15E37 
 405      EC3902
 406 08d1 B68024FF 		.ascii	"\266\200$\377\000I\000_\364&\217.w\"\012:~\361\341\365"
 406      0049005F 
 406      F4268F2E 
 406      77220A3A 
 406      7EF1E1F5 
 407 08e5 134C7901 		.ascii	"\023Ly\001)Z0\365|\236<,\237\373lw\337\355\337N\020"
 407      295A30F5 
 407      7C9E3C2C 
 407      9FFB6C77 
 407      DFEDDF4E 
 408 08fa E7E5107A 		.ascii	"\347\345\020z\313\346\274|\233\203\207;(\302\264\377"
 408      CBE6BC7C 
 408      9B83873B 
 408      28C2B4FF 
 409 090a 70296466 		.ascii	"p)df\357\333=\000\272 1Kx\272\224~\223\246w\220\244"
 409      EFDB3D00 
 409      BA20314B 
 409      78BA947E 
 409      93A67790 
 410 091f C518846F 		.ascii	"\305\030\204o\276\273\371\027R\253\012\255\344<\343"
 410      BEBBF917 
 410      52AB0AAD 
 410      E43CE3
 411 092e C219EB27 		.ascii	"\302\031\353'D\0323\016\246%|\306w1\326^\306'\007\353"
 411      441A330E 
 411      A6257CC6 
 411      7731D65E 
 411      C62707EB 
 412 0942 8DE4D88F 		.ascii	"\215\344\330\217\301MS\242]Do,\263\335d\343\230N\216"
 412      C14D53A2 
 412      5D446F2C 
 412      B3DD64E3 
 412      984E8E
 413 0955 34A69103 		.ascii	"4\246\221\003\305+\272\020\037o/\236\316trL`\332V\022"
 413      C52BBA10 
 413      1F6F2F9E 
 413      CE74724C 
 413      60DA5612 
 414 0969 9E737DB9 		.ascii	"\236s}\271\203#\310\264\212\230\256yw\251s\302Nd\211"
 414      8323C8B4 
 414      8A98AE79 
 414      77A973C2 
 414      4E6489
 415 097c D83B929C 		.ascii	"\330;\222\234\024\347\013=\010~\002j\361s\222\275\237"
 415      14E70B3D 
 415      087E026A 
 415      F17392BD 
 415      9F
 416 098d 93994E9A 		.ascii	"\223\231N\232)\276~V\344\372\322\317(\022\247\230\302"
 416      29BE7E56 
 416      E4FAD2CF 
 416      2812A798 
 416      C2
 417 099e 53D985D9 		.ascii	"S\331\205\331\367\355\314\252\364\003\246\223\346C_"
 417      F7EDCCAA 
ARM GAS  /tmp/ccErb3td.s 			page 33


 417      F403A693 
 417      E6435F
 418 09ad B3954DA4 		.ascii	"\263\225M\244\251@\346\206r\322D\213]\015\244\301.U"
 418      A940E686 
 418      72D2448B 
 418      5D0DA4C1 
 418      2E55
 419 09bf D3942A48 		.ascii	"\323\224*H\032\274\253\346D\232\251\014HS\265l\322|"
 419      1ABCABE6 
 419      449AA90C 
 419      4853B56C 
 419      D27C
 420 09d1 C4E2C4EE 		.ascii	"\304\342\304\356\231\306L\244\021\342\006i\252p\322"
 420      99C64CA4 
 420      11E20669 
 420      AA70D2
 421 09e0 4401692A 		.ascii	"D\001i*@H*\2225\2528\270\034t\213\221\351L\303\310\014"
 421      40482A92 
 421      35AA38B8 
 421      1C748B91 
 421      E94CC3C8 
 422 09f5 8618D9FB 		.ascii	"\206\030\331\373M\326\035yR\011\240\0373qR)\310\261"
 422      4DD61D79 
 422      5209A01F 
 422      33715229 
 422      C8B1
 423 0a07 9C543619 		.ascii	"\234T6\031\247\224\231\214;W\335b\264j\011?\205\022"
 423      A794998C 
 423      3B57DD62 
 423      B46A093F 
 423      8512
 424 0a19 FA097375 		.ascii	"\372\011suJ\231\305\374\234Rf\303\366\343\346\010\375"
 424      4A99C5FC 
 424      9C5266C3 
 424      F6E3E608 
 424      FD
 425 0a2a 94A59A8F 		.ascii	"\224\245\232\217g\325\020,i\267\266\\\213\340\375?E"
 425      67D5102C 
 425      69B7B65C 
 425      8BE0FD3F 
 425      45
 426 0a3b AD6A93E1 		.ascii	"\255j\223\341\024\016S\232\273\344\02501\015\253\253"
 426      140E539A 
 426      BBE41530 
 426      310DABAB 
 427 0a4b D3B9DCC4 		.ascii	"\323\271\334\304\034&L\224\\^\271,D\014\361\316\241"
 427      1C264C94 
 427      5C5EB92C 
 427      440CF1CE 
 427      A1
 428 0a5c 20F4996E 		.ascii	" \364\231nc\036\357\307\2176\342,SC\236ex\013\314\235"
 428      631EEFC7 
 428      8F36E22C 
 428      53439E65 
 428      780BCC9D 
 429 0a70 4F589C65 		.ascii	"OX\234e..\366\210\000\324\340U\320\035\223\001kj:%\303"
 429      2E2EF688 
ARM GAS  /tmp/ccErb3td.s 			page 34


 429      00D4E055 
 429      D01D9301 
 429      6B6A3A25 
 430 0a85 E7980C35 		.ascii	"\347\230\0145x\363\235\233S\257\205\307M\241\"\033j"
 430      78F39D9B 
 430      53AF85C7 
 430      4DA1221B 
 430      6A
 431 0a96 82474766 		.ascii	"\202GGf\234\332HE6\304\320/x6\240/\363\315\331 \324"
 431      9CDA4845 
 431      36C4D02F 
 431      7836A02F 
 431      F3CDD920 
 432 0aab 4D87994A 		.ascii	"M\207\231J\344\204x\352\347\035c\2425\306E\310\027\330"
 432      E48478EA 
 432      E71D63A2 
 432      35C645C8 
 432      17D8
 433 0abd EFC62F0D 		.ascii	"\357\306/\015$}\245#\011\305k\271\020\377\332^\374\033"
 433      247DA523 
 433      09C56BB9 
 433      10FFDA5E 
 433      FC1B
 434 0acf 0349DFEA 		.ascii	"\003I\337\352{Nx\316\365\345\264*\223\266\212\311lm"
 434      7B4E78CE 
 434      F5E5B42A 
 434      93B68AC9 
 434      6C6D
 435 0ae1 1766BFB3 		.ascii	"\027f\277\2637\273\320 \314\"_\263\265\270\2764[\205"
 435      37BBD020 
 435      CC225FB3 
 435      B5B8BE34 
 435      5B85
 436 0af3 049BCDD6 		.ascii	"\004\233\315\326qa\366{{\302,6\010\263\304\327l\035"
 436      7161F67B 
 436      7BC22C36 
 436      08B3C4D7 
 436      6C1D
 437 0b05 4C194198 		.ascii	"L\031A\230\252\244\200q\302T\223\213\311\011\203]\342"
 437      AAA48071 
 437      C254938B 
 437      C909835D 
 437      E2
 438 0b16 D2945823 		.ascii	"\322\224X#\251\352:%\325RL\252\270\262\011\363\203\226"
 438      A9EA3A25 
 438      D5524CAA 
 438      B8B209F3 
 438      8396
 439 0b28 53CB2C39 		.ascii	"S\313,9U\327 L,'L\025 LU\010Iu2\001q_\224q\326-a\226"
 439      55D7204C 
 439      2C274C15 
 439      204C5508 
 439      49753201 
 440 0b44 EB84C910 		.ascii	"\353\204\311\020\204\371\345\366\017Y\021\2020\201t"
 440      84F9E5F6 
 440      0F591182 
 440      308174
ARM GAS  /tmp/ccErb3td.s 			page 35


 441 0b53 8524CCC7 		.ascii	"\205$\314\307\373,\204\331\310\037\374\033\014\312\254"
 441      FB2C84D9 
 441      C81FFC1B 
 441      0CCAAC
 442 0b62 0407EB39 		.ascii	"\004\007\3539\275\013\255rG\231\325\376(\263\006\010"
 442      BD0BAD72 
 442      4799D5FE 
 442      28B30608 
 443 0b72 B01222B4 		.ascii	"\260\022\"\264\226\331\276\013q\257D\373:3!\264\267"
 443      96D9BE0B 
 443      71AF44FB 
 443      3A3321B4 
 443      B7
 444 0b83 1DDE02BE 		.ascii	"\035\336\002\276sg\005!\216-\365\010\347\353\363*\235"
 444      73670521 
 444      8E2DF508 
 444      E7EBF32A 
 444      9D
 445 0b94 105813EF 		.ascii	"\020X\023\357\264\230\353q1\353\227\203\020\231|5\321"
 445      B498EB71 
 445      31EB9783 
 445      10997C35 
 445      D1
 446 0ba5 972CF36A 		.ascii	"\227,\363j\012u\023!j\220|\361\035&\357\002\023\255"
 446      0A751321 
 446      6A907CF1 
 446      1D26EF02 
 446      13AD
 447 0bb7 0D5C846B 		.ascii	"\015\\\204k\203\375n\332h\020b\223N\010\024o\350B|\263"
 447      83FD6EDA 
 447      68106293 
 447      4E08146F 
 447      E8427CB3 
 448 0bcb BDF81683 		.ascii	"\275\370\026\203\020\331\372\236\021\236s}9\255\232"
 448      10D9FA9E 
 448      119E737D 
 448      39AD9A
 449 0bda 244C3199 		.ascii	"$L1\231m\344\302\354V{\263\333\014Bl\3675\333\220\353"
 449      6DE4C2EC 
 449      567BB3DB 
 449      0C426CF7 
 449      35DB90EB 
 450 0bee 4BB33184 		.ascii	"K\2631\204\231\3156vav\207=!v\032\204\330\345k\266\261"
 450      99CD3676 
 450      6176873D 
 450      21761A84 
 450      D8E56BB6 
 451 0c03 E90C528B 		.ascii	"\351\014R\213\344\301\307\224\332r19!\260K\3234\245"
 451      E4C1C794 
 451      DA723139 
 451      21B04BD3 
 451      34A5
 452 0c15 899154CD 		.ascii	"\211\221T\315\234\222j7&U\323\262\011\261G\313\251\275"
 452      9C926A37 
 452      2655D3B2 
 452      09B147CB 
 452      A9BD
ARM GAS  /tmp/ccErb3td.s 			page 36


 453 0c27 969C6A66 		.ascii	"\226\234jf\020\242\011'D\014\020\242\026\204\244\016"
 453      10A20927 
 453      440C10A2 
 453      1684A40E 
 454 0c37 89552ED1 		.ascii	"\211U.\321\011\331_\204\212\216\315-^\324*a\360\253"
 454      09D95F84 
 454      8A8ECD2D 
 454      5ED42A61 
 454      F0AB
 455 0c49 033962A7 		.ascii	"\0039b\247\226\363Y\275\317\346Y]\015\036\323\373\365"
 455      96F359BD 
 455      CFE6595D 
 455      0D1ED3FB 
 455      F5
 456 0c5a 4D7AC0D8 		.ascii	"Mz\300\330\244\357\372\354\316\\\261;\3239\330a#\312"
 456      A4EFFAEC 
 456      CE5CB13B 
 456      D339D861 
 456      23CA
 457 0c6c 60B5E0BE 		.ascii	"`\265\340\276q\247\215x%8\305\353 \306\253\005\304+"
 457      71A78D78 
 457      2538C5EB 
 457      20C6AB05 
 457      C42B
 458 0c7e 7F7A5E64 		.ascii	"\177z^d\334,\271\011\353\2003\271s\213\267\312M\030"
 458      DC2CB909 
 458      EB8033B9 
 458      738BB7CA 
 458      4D18
 459 0c90 4B0F6901 		.ascii	"K\017i\001\313\263\004,\301\264\011c1[\341\205\020\030"
 459      CBB3042C 
 459      C1B40963 
 459      315BE185 
 459      1018
 460 0ca2 B1C1EE7C 		.ascii	"\261\301\356|\235\317\344\013\341\037n9{X\347\354\021"
 460      9DCFE40B 
 460      E11F6E39 
 460      7B58E7EC 
 460      11
 461 0cb3 C1D9A229 		.ascii	"\301\331\242)\3517\344\013a\020=*9\273\305\312\331,"
 461      E937E40B 
 461      61103D2A 
 461      39BBC5CA 
 461      D92C
 462 0cc5 83B1C7C0 		.ascii	"\203\261\307\300\343\226N'\271\002w\214=\356\217\261"
 462      E3964E27 
 462      B902778C 
 462      3DEE8FB1 
 463 0cd5 2760F98E 		.ascii	"'`\371\216A\310N\342\362\2253\035N\371=\272\235\326"
 463      41C84EE2 
 463      F295331D 
 463      4EF93DBA 
 463      9DD6
 464 0ce7 45CFA0E8 		.ascii	"E\317\240\350\326s+\257\204\212\217T*=\313J\235\344"
 464      D6732BAF 
 464      848A8F54 
 464      2A3DCB4A 
ARM GAS  /tmp/ccErb3td.s 			page 37


 464      9DE4
 465 0cf9 7847983B 		.ascii	"xG\230;\237\260\340\364\256e\036\021\200V\274\012\272"
 465      9FB0E0F4 
 465      AE651E11 
 465      8056BC0A 
 465      BA
 466 0d0a 638A604D 		.ascii	"c\212`Mk\247\024\371\021S\244U98}\216\247\010\272v\336"
 466      6BA714F9 
 466      1153A455 
 466      39387D8E 
 466      A708BA76 
 467 0d1f 9C2242DD 		.ascii	"\234\"B\335\224\"q\344\026\301\034\231.8m\237%?\311"
 467      942271E4 
 467      16C11C99 
 467      2E386D9F 
 467      253FC9
 468 0d32 B7B0BAF2 		.ascii	"\267\260\272\362\244\222W\304\204T\0337\337\260\354"
 468      A49257C4 
 468      84541B37 
 468      DFB0EC
 469 0d41 01F88B01 		.ascii	"\001\370\213\001\365\013:\324Q\274\255\233oX\366\342"
 469      F50B3AD4 
 469      51BCAD9B 
 469      6F58F6E2 
 470 0d51 BF1A74BD 		.ascii	"\277\032t\275$0\247\005\241\015\327\2271\250G\002\025"
 470      2430A705 
 470      A10DD797 
 470      31A84702 
 470      15
 471 0d62 93D9766E 		.ascii	"\223\331vn>a\331\233\275l<K~\323\351\252\231m'\315\326"
 471      3E61D99B 
 471      BD6C3C4B 
 471      7ED3E9AA 
 471      996D27CD 
 472 0d77 27D46CB6 		.ascii	"'\324l\266\275\233OX\366P\377\303\200\372\237\276f\333"
 472      BD9B4F58 
 472      F650FFC3 
 472      80FA9FBE 
 472      66DB
 473 0d89 637E09A8 		.ascii	"c~\011\250\307\223 \316\364\006b)9\322\261Cb\232\322"
 473      C79320CE 
 473      F4066229 
 473      39D2B143 
 473      629AD2
 474 0d9c C1C8BF8E 		.ascii	"\301\310\277\216\216\037\2600\377\022\313\361\001KK"
 474      8E1FB030 
 474      FF12CBF1 
 474      014B4B
 475 0dab BF2B96F4 		.ascii	"\277+\226\364\353h \275\003Gz}@z<\004\244!Q\304\231"
 475      EB6820BD 
 475      03477A7D 
 475      407A3C04 
 475      A42151C4 
 476 0dc0 EF8E5B16 		.ascii	"\357\216[\026]\325YtM\260h\356\206\242\234\000\301\242"
 476      5DD55974 
 476      4DB068EE 
 476      86A29C00 
ARM GAS  /tmp/ccErb3td.s 			page 38


 476      C1A2
 477 0dd2 605A2459 		.ascii	"`Z$Yt\323\312\242L\203E\327\301\267NN,\372\333\035\213"
 477      74D3CAA2 
 477      4C8345D7 
 477      C1B74E4E 
 477      2CFADB1D 
 478 0de7 6EF863D1 		.ascii	"n\370c\321?\200\215\353\020\234\233nXt\313/\213n\353"
 478      3F808DEB 
 478      109C9B6E 
 478      5874CB2F 
 478      8B6EEB
 479 0dfa A27784E8 		.ascii	"\242w\204\350\366\023+\202\005\213\302xDJ\261\210w\204"
 479      F6132B82 
 479      058BC278 
 479      444AB188 
 479      7784
 480 0e0c B9F309CB 		.ascii	"\271\363\011\313/\344\313=\"\000\235y\025t\307\\\300"
 480      2FE4CB3D 
 480      22009D79 
 480      1574C75C 
 480      C0
 481 0e1d 9A2E4EB9 		.ascii	"\232.N\271p\027s\241s9XT\302\223\001]\363*\246d\020"
 481      701773A1 
 481      73395854 
 481      C293015D 
 481      F32AA664 
 482 0e32 EA261635 		.ascii	"\352&\0265\222\247\234\351\\\037\033\273\272\371\316"
 482      92A79CE9 
 482      5C1F1BBB 
 482      BAF9CE
 483 0e41 A5D87FE7 		.ascii	"\245\330\177\347R\214\357\\\212F\027\024\357\346\346"
 483      528CEF5C 
 483      8A461714 
 483      EFE6E6
 484 0e50 3B97BD78 		.ascii	";\227\275x\272b|\347R\264\375&<\347\372rV\215\011QL"
 484      BA627CE7 
 484      52B4FD26 
 484      3CE7FA72 
 484      568D0951 
 485 0e65 66BBBB30 		.ascii	"f\273\2730;\321\336\354$E\207\332d_\263\335\270\276"
 485      3BD1DEEC 
 485      244587DA 
 485      645FB3DD 
 485      B8BE
 486 0e77 34DBC4D7 		.ascii	"4\333\304\327l\017\027f\247\330\231U\351\373\212N\227"
 486      6C0F1766 
 486      A7D89955 
 486      E9FB8A4E 
 486      97
 487 0e88 0F7CCDF6 		.ascii	"\017|\315\3660\275T6%\360N\331\214h\257\224\330\241"
 487      30BD5436 
 487      25F04ED9 
 487      8C68AF94 
 487      D8A1
 488 0e9a 579AD2D3 		.ascii	"W\232\322\323\310\250\336N\031\365\241\002\031\325\253"
 488      C8A8DE4E 
 488      19F5A102 
ARM GAS  /tmp/ccErb3td.s 			page 39


 488      19D5AB
 489 0ea9 6CBA4C55 		.ascii	"l\272LUdB}dI\250\336\006]zr\2724\001\2724\205\2004\027"
 489      64427D64 
 489      49A8DE06 
 489      5D7A72BA 
 489      3401BA34 
 490 0ec1 B82D2ADC 		.ascii	"\270-*\334\325\306%]\246)\032]\246+H\227%k\277\315\242"
 490      D5C6255D 
 490      A6291A5D 
 490      A62B4897 
 490      256BBFCD 
 491 0ed6 822E2174 		.ascii	"\202.!t\206\"\350\262&\327B\227\365\374d\270\316 \314"
 491      8622E8B2 
 491      26D74297 
 491      F5FC64B8 
 491      CE20CC
 492 0ee9 C7F043C8 		.ascii	"\307\360C\310>No\2243\025W\204\371D\361C\230Y\334O0"
 492      3E4E6F94 
 492      33155784 
 492      F944F143 
 492      9859DC4F 
 493 0efe 47E86CC5 		.ascii	"G\350l\305\366\215\222{%\332?\3452\372IE{\243\344-\340"
 493      F68D927B 
 493      25DA3FE5 
 493      32FA4945 
 493      7BA3E42D 
 494 0f13 3B7756D0 		.ascii	";wV\320\341l\246G8\177\017\257\322O*Xs\257\323Z\316"
 494      E16CA647 
 494      387F0FAF 
 494      D24F2A58 
 494      73AFD35A 
 495 0f28 C1B5BCA7 		.ascii	"\301\265\274\247\034t\230\313\027\023}\371\314\274\230"
 495      1C7498CB 
 495      17137DF9 
 495      CCBC98
 496 0f37 42DD4487 		.ascii	"B\335D\207\0262\241\247\347\312\306\276.\2425\317~'"
 496      1632A1A7 
 496      E7CAC6BE 
 496      2EA235CF 
 496      7E27
 497 0f49 7D6ED0E1 		.ascii	"}n\320\341\013\235\016(~\237\013\361\371\366\342\013"
 497      0B9D0E28 
 497      7E9F0BF1 
 497      F9F6E20B 
 498 0f59 0C3A7CA9 		.ascii	"\014:|\251$\230\247\325\227\353\313Y%\350\333\024[\356"
 498      2498A7D5 
 498      97EBCB59 
 498      25E8DB14 
 498      5BEE
 499 0f6b 7761F62B 		.ascii	"wa\366+{\263_\033t\370F\337\246bN\\_\232m\351k\366\001"
 499      7BB35F1B 
 499      74F846DF 
 499      A6624E5C 
 499      5F9A6DE9 
 500 0f82 1766BFB5 		.ascii	"\027f\277\265\247\303w\006\035\026\372\232}\000\237"
 500      A7C37706 
 500      1D16FA9A 
ARM GAS  /tmp/ccErb3td.s 			page 40


 500      7D009F
 501 0f91 27820EAD 		.ascii	"'\202\016\255\010\274O\266&\332\353$vx("
 501      08BC4FB6 
 501      26DAEB24 
 501      767828
 502 0fa0 4D79D0C8 		.ascii	"My\320\310\250\207\2352j\021f\324Ce\323\341{-\241\026"
 502      A8879D32 
 502      6A1166D4 
 502      4365D3E1 
 502      7B2DA116 
 503 0fb4 5B12EA61 		.ascii	"[\022\352a\203\016\017r:\264\004:\264\202\200\264\341"
 503      830E0F72 
 503      3AB4043A 
 503      B48280B4 
 503      E1
 504 0fc5 2EC1EBE4 		.ascii	".\301\353\344\241\010\321\361\021\247\327\311%\212\233"
 504      A108D1F1 
 504      11A7D7C9 
 504      258A9B
 505 0fd4 D7C9A58A 		.ascii	"\327\311\245\212\303\353\344\017\372\016]\246\370\276"
 505      C3EBE40F 
 505      FA0E5DA6 
 505      F8BE
 506 0fe2 4EEA5B73 		.ascii	"N\352[s\271\330\232\306\353$:\326\217\373\246\275Nb"
 506      B9D89AC6 
 506      EB243AD6 
 506      8FFBA6BD 
 506      4E62
 507 0ff4 457FA778 		.ascii	"E\177\247xe`\274\372\225\343ur"
 507      6560BCFA 
 507      95E37572 
 508 1000 8516B095 		.ascii	"\205\026\260\225\226\200\3657\355\300\266\204\310\327"
 508      9680F537 
 508      EDC0B684 
 508      C8D7
 509 100e 4900C43A 		.ascii	"I\000\304:\273\027\205U\212x\235\3148\346\026\262\253"
 509      BB178555 
 509      8A789DCC 
 509      38E616B2 
 509      AB
 510 101f 75C8AE11 		.ascii	"u\310\256\021\220-.<T,\1770\340\241k%d\257Y!\273\226"
 510      902D2E3C 
 510      542C7F30 
 510      E0A16B25 
 510      64AF5921 
 511 1035 C76B8D01 		.ascii	"\307k\215\001\331u\340\365\243N\220]\357\016\262\231"
 511      D975E0F5 
 511      A34E905D 
 511      EF0EB299 
 512 1045 FE209B05 		.ascii	"\376 \233\005K\270\016\302\266\301\036\262k\000\377"
 512      4BB80EC2 
 512      B6C11EB2 
 512      6B00FF
 513 1054 D0BE91CB 		.ascii	"\320\276\221\313\024\227\206,o\001\337\271\263\362\263"
 513      1497862C 
 513      6F01DFB9 
 513      B3F2B3
ARM GAS  /tmp/ccErb3td.s 			page 41


 514 1063 DD068F70 		.ascii	"\335\006\217p~\000\257\322\217`X\363\230\323\022o\302"
 514      7E00AFD2 
 514      8F6058F3 
 514      98D3126F 
 514      C2
 515 1074 251E500E 		.ascii	"%\036P\016\310n\346K\214\276l1/\261P7-q;|Hn;\235w@q"
 515      C86EE64B 
 515      8CBE6C31 
 515      2FB15037 
 515      2D713B7C 
 516 108f 5EE46C45 		.ascii	"^\344lE\274\015\266\227\020\311;#\225\036w\3639\314"
 516      BC0DB697 
 516      10C93B23 
 516      951E77F3 
 516      39CC
 517 10a1 9E5EDB0C 		.ascii	"\236^\333\014\"o\327\211\214\342\003\335|\364\262\027"
 517      226FD789 
 517      8CE203DD 
 517      7CF4B217 
 518 10b1 DF691079 		.ascii	"\337i\020y\227\316(\3419\327\227!\350\240\243\021[\236"
 518      97CE28E1 
 518      39D79721 
 518      E8A0A311 
 518      5B9E
 519 10c3 706176B7 		.ascii	"pav\267\275\331=\006\221\367\372\232\035\310\365\245"
 519      BDD93D06 
 519      91F7FA9A 
 519      1DC8F5A5 
 520 10d3 D9445FB3 		.ascii	"\331D_\263\203\\\230\315\261'\362>\203\310\373}\315"
 520      835C98CD 
 520      B127F23E 
 520      83C8FB7D 
 520      CD
 521 10e4 0E327DE2 		.ascii	"\0162}\342\353\210D\356\244\023\031;\014NS\2364\322"
 521      EB8844EE 
 521      A413193B 
 521      0C4E539E 
 521      34D2
 522 10f6 EF29A7F4 		.ascii	"\357)\247\364;\200\3517\270l\"\347j\331w\320\222}O\031"
 522      3B80E937 
 522      B86C22E7 
 522      6AD977D0 
 522      927D4F19 
 523 110a 447E9213 		.ascii	"D~\222\0239\021\210\334\021\002\322Y\022\371n\204\350"
 523      391188DC 
 523      1102D259 
 523      12F96E84 
 523      E8
 524 111b F8B41391 		.ascii	"\370\264\023\221\017\271\"r\236\023\221\363\365\355"
 524      0FB92272 
 524      9E1391F3 
 524      F5ED
 525 1129 7CB81491 		.ascii	"|\270\024\221\365}|D\354c\203\310\350\3303\3347\215"
 525      F57D7C44 
 525      EC6383C8 
 525      E8D833DC 
 525      378D
ARM GAS  /tmp/ccErb3td.s 			page 42


 526 113b C858F1AC 		.ascii	"\310X\361\254S\274\216b\274\236)\007\221\217i\001+\260"
 526      53BC8E62 
 526      BC9E2907 
 526      918F6901 
 526      2BB0
 527 114d 04EC59D3 		.ascii	"\004\354Y\323v\355\242\023\031h\262\306n\263\036\227"
 527      76EDA213 
 527      1968B2C6 
 527      6EB31E97 
 528 115d 442EBCE0 		.ascii	"D.\274\340\226\310't\"\237\024D.81>S\036{C\351)I\344"
 528      96C82774 
 528      229F1444 
 528      2E38313E 
 528      531E7B43 
 529 1175 F9072D44 		.ascii	"\371\007-D^m\320\3704x\374\234\323K\365\031w4>\353\217"
 529      5E6DD0F8 
 529      3478FC9C 
 529      D34BF519 
 529      77343EEB 
 530 118a C63FC2F2 		.ascii	"\306?\302\362\235\206\220\235S\\\274T\237\267I\007\343"
 530      9D86909D 
 530      535CBC54 
 530      9FB74907 
 530      E3
 531 119b A5FA275D 		.ascii	"\245\372']\364g\024\275\373\333\371\337\302\305Ku\000"
 531      F46714BD 
 531      FBDBF9DF 
 531      C2C54B75 
 531      00
 532 11ac FD4529F5 		.ascii	"\375E)\365R}\032\036c@\364\347\344\007\276M\036\021"
 532      527D1A1E 
 532      6340F4E7 
 532      E407BE4D 
 532      1E11
 533 11be 8021BC0A 		.ascii	"\200!\274\012\272c\212`\315\277\234R\344\002\246\310"
 533      BA638A60 
 533      CDBF9C52 
 533      E402A6C8 
 534 11ce 907210FD 		.ascii	"\220r\020\375\"O\021t\355Ws\212\010uS\212t\225)2]@\332"
 534      224F1174 
 534      ED57738A 
 534      0875538A 
 534      74952932 
 535 11e5 3E492E49 		.ascii	">I.I\242w\323\210\376\273Tz\336\315\2670{\372]6\210"
 535      A277D388 
 535      FEBB547A 
 535      DECDB730 
 535      7BFA5D36 
 536 11fa FE9B4E74 		.ascii	"\376\233Nt\024\177\301\315\027/{\361?\014\264\376\251"
 536      147FC1CD 
 536      172F7BF1 
 536      3F0CB4FE 
 536      A9
 537 120b 9FB185E7 		.ascii	"\237\261\205\347\\_\206\240\273\216Vl\031\352\302\354"
 537      5C5F86A0 
 537      BB8E566C 
 537      19EAC2EC 
ARM GAS  /tmp/ccErb3td.s 			page 43


 538 121b 5FF6660B 		.ascii	"_\366f\013\215\007\311\025\035\255\232\331\241\322l"
 538      8D07C915 
 538      1DAD9AD9 
 538      A1D26C
 539 122a 0F5FB32F 		.ascii	"\017_\263/\2720{\325\236\350\327\014\242\027\371\232"
 539      BA307BD5 
 539      9EE8D70C 
 539      A217F99A 
 540 123a 7D11D34B 		.ascii	"}\021\323K\020\275'\022\275\227Nt\354\360R\232\222d"
 540      10BD2712 
 540      BD974E74 
 540      ECF0529A 
 540      9264
 541 124c A4DFCB4E 		.ascii	"\244\337\313N\351w\035\323\357\245\262\211\376\267\226"
 541      E9771DD3 
 541      EFA5B289 
 541      FEB796
 542 125b 7D372CD9 		.ascii	"}7,\331\367\262A\364$N\364\036@\364\236\020\220\336"
 542      F7B241F4 
 542      244EF41E 
 542      40F49E10 
 542      90DE
 543 126d C2A5A28C 		.ascii	"\302\245\242\214\"\267(\372GG\321M\201\242\333\227f"
 543      22B728FA 
 543      4747D14D 
 543      81A2DB97 
 543      66
 544 127e 9E90280A 		.ascii	"\236\220(\012\243\267$\212NYQ\264\012~6c\340\3506\370"
 544      A3B7248A 
 544      4E5951B4 
 544      0A7E3663 
 544      E0E836F8 
 545 1292 37CCE970 		.ascii	"7\314\351px\307\035\216\212\375\341\350.\220\3436\004"
 545      78C71D8E 
 545      8AFDE1E8 
 545      2E90E336 
 545      04
 546 12a3 A8C4FE70 		.ascii	"\250\304\376p\310\275\022\355^5\325@\211v8\344-\340"
 546      C8BD12ED 
 546      5E35D540 
 546      897638E4 
 546      2DE0
 547 12b5 3B7756A0 		.ascii	";wV\240\344\357\315\036\341\374p^\245\243\004k\376\355"
 547      E4EFCD1E 
 547      E1FC705E 
 547      A5A3046B 
 547      FEED
 548 12c7 B4966355 		.ascii	"\264\226cUX\313\341\345@\31185N\370\222\246\232\026"
 548      58CBE1E5 
 548      40C93835 
 548      4EF892A6 
 548      9A16
 549 12d9 53A89B50 		.ascii	"S\250\233P\322G\243\303\015\331\370\212\233Oh\252\375"
 549      D247A3C3 
 549      0DD9F88A 
 549      9B4F68AA 
 549      FD
ARM GAS  /tmp/ccErb3td.s 			page 44


 550 12ea 273455A7 		.ascii	"'4U\247\303\004U\243\003\212\217p\363\241\314^|\222"
 550      C30455A3 
 550      038A8F70 
 550      F3A1CC5E 
 550      7C92
 551 12fc 6A7C2853 		.ascii	"j|(S\265\375\"<\347\372rV\367\350\333\024[^u\363\241"
 551      B5FD223C 
 551      E7FA7256 
 551      F7E8DB14 
 551      5B5E75F3 
 552 1311 CCDEECFB 		.ascii	"\314\336\354\373\252N\207\017\324\004s4Gp}i\366^_\263"
 552      AA4E870F 
 552      D4047334 
 552      47707D69 
 552      F65E5FB3 
 553 1325 235D98FD 		.ascii	"#]\230\375\320\316\254J\247\252:\035>\362\235\355H\323"
 553      D0CEAC4A 
 553      A7AA3A1D 
 553      3EF29DED 
 553      48D3
 554 1337 79AF2FD2 		.ascii	"y\257/\322\341>\235\016\330at\2322\312\310\250\327\234"
 554      E13E9D0E 
 554      D861749A 
 554      32CAC8A8 
 554      D79C
 555 1349 326A1A66 		.ascii	"2j\032f\324\350\262\3510]K\250\031\226\204z\315\240"
 555      D4E8B2E9 
 555      305D4BA8 
 555      1996847A 
 555      CDA0
 556 135b C3284E87 		.ascii	"\303(N\207{\201\016}! \367\313\363\336\337\221\242\343"
 556      7B810E7D 
 556      2120F7CB 
 556      F3DEDF91 
 556      A2E3
 557 136d EB4EE7BD 		.ascii	"\353N\347\275\217U7\347\275\231\252\303y\357\023U\333"
 557      8F5537E7 
 557      BD99AAC3 
 557      79EF1355 
 557      DB
 558 137e A1B354DF 		.ascii	"\241\263T\337\363\236\2765g\213\255i\234\367\320\261"
 558      F39EBE35 
 558      678BAD69 
 558      9CF7D0B1 
 559 138e 64EE9B76 		.ascii	"d\356\233v\336\303\212\024\247x}\212\361J.\307yo\216"
 559      DEC38A14 
 559      A7787D8A 
 559      F14A2EC7 
 559      796F8E
 560 13a1 16B0B996 		.ascii	"\026\260\271\226\200\245\230v\340\003\372y\017\000\261"
 560      80A59876 
 560      E003FA79 
 560      0F00B1
 561 13b0 D2EE51FE 		.ascii	"\322\356Q\376\231*\317{%n!;O\325 \373\271\212\220\375"
 561      992ACF7B 
 561      256E213B 
 561      4FD520FB 
ARM GAS  /tmp/ccErb3td.s 			page 45


 561      B98A90FD 
 562 13c4 FA72E676 		.ascii	"\372r\346v\371C\224p\372\205* ;;\337\002\331\025\006"
 562      F9439470 
 562      FA852A20 
 562      3B3BDF02 
 562      D91506
 563 13d7 60E7ABDC 		.ascii	"`\347\253\334\3431N\347\275\005\252+\300~\251\372\001"
 563      E3314EE7 
 563      BD05AA2B 
 563      C07EA9FA 
 563      01
 564 13e8 EC57B07C 		.ascii	"\354W\260|\334\034\241_\253.\316{\337\330\244\203q\336"
 564      DC1CA15F 
 564      AB2ECE7B 
 564      DFD8A483 
 564      71DE
 565 13fa FB5617FD 		.ascii	"\373V\027\375N\265\371]<\336\002\223\3453\224\277\213"
 565      4EB5F95D 
 565      3CDE0293 
 565      E53394BF 
 565      8B
 566 140b B7C72366 		.ascii	"\267\307#f\374\006\257\322\177\323\006k\336t\312\211"
 566      FC06AFD2 
 566      7FD3066B 
 566      DE74CA89 
 567 141b 8598136F 		.ascii	"\205\230\023o\224\203\312\213xN\240/\337\233sB\250\233"
 567      9483CA8B 
 567      784EA02F 
 567      DF9B7342 
 567      A89B
 568 142d 72E241ED 		.ascii	"r\342A\355\200'\250l\237\025\213Uq\300{HC\370.U(\375"
 568      8027A86C 
 568      9F158B55 
 568      71C07B48 
 568      43F82E55 
 569 1443 C7C57A2C 		.ascii	"\307\305z,\261\307\335R\003\341?\350\010G\361\377\272"
 569      B1C7DD52 
 569      03E13FE8 
 569      0847F1FF 
 569      BA
 570 1454 105F662F 		.ascii	"\020_f/\276\334@x\206\0165\3419\327\227!xXg)\266\274"
 570      BEDC4078 
 570      860E35E1 
 570      39D79721 
 570      78586729 
 571 146a E5C2EC0A 		.ascii	"\345\302\354\012{\263+\015\204\257\322\021.\346\304"
 571      7BB32B0D 
 571      84AFD211 
 571      2EE6C4
 572 1479 F5A5D947 		.ascii	"\365\245\331G|\315\276\355\302\354j{\204\2571\020\276"
 572      7CCDBEED 
 572      C2EC6A7B 
 572      84AF3110 
 572      BE
 573 148a D677B66F 		.ascii	"\326w\266o\233~\304\322\017\021\336_G8vx7My\307H\277"
 573      9B7EC4D2 
 573      0F11DE5F 
ARM GAS  /tmp/ccErb3td.s 			page 46


 573      47387678 
 573      374D79C7 
 574 14a0 F79CD26F 		.ascii	"\367\234\322o\035\246\337\273e#|\275\226}\231\226\354"
 574      1DA6DFBB 
 574      65237CBD 
 574      967D9996 
 574      EC
 575 14b1 7BCF40F8 		.ascii	"{\317@\370;\034\341\217\000\302\373A@\036\325\016x\271"
 575      3B1CE18F 
 575      00C2FB41 
 575      401ED50E 
 575      78B9
 576 14c3 6D5DB227 		.ascii	"m]\262'Kg\317\006\301\236\342\323c\3572\301\236\010"
 576      4B67CF06 
 576      C19EE2D3 
 576      63EF32C1 
 576      9E08
 577 14d5 BA51B2E7 		.ascii	"\272Q\262\347\260\225=\031\234\325K\015\376l\002\377"
 577      B0953D19 
 577      9CD54B0D 
 577      FE6C02FF 
 578 14e5 529D0E78 		.ascii	"R\235\016x\233\335\361g\213?\376d\003*6A\200\266\252"
 578      9BDDF167 
 578      8B3FFE64 
 578      032A3641 
 578      80B6AA
 579 14f8 B6073CEE 		.ascii	"\266\007<\356\225h\337\246\332\374\322\036o\001\337"
 579      9568DFA6 
 579      DAFCD21E 
 579      6F01DF
 580 1507 B9B3F2EB 		.ascii	"\271\263\362\353_\216G8\357\245iJ\252\316\022\254\032"
 580      5F8E4738 
 580      EFA5694A 
 580      AACE12AC 
 580      1A
 581 1518 4B9D5673 		.ascii	"K\235Vs;\256&\376\223\374\262h\262\203\257'\272\263"
 581      3BAE26FE 
 581      93FCB268 
 581      B283AF27 
 581      BAB3
 582 152a D3BC9E52 		.ascii	"\323\274\236R\337\204\223\001\032!\216\252\242u\234"
 582      DF849301 
 582      1A218EAA 
 582      A2759C
 583 1539 D5BA9F7F 		.ascii	"\325\272\237\177\272h\277\235v\033\210\330\243#\002"
 583      BA68BF9D 
 583      761B88D8 
 583      A32302
 584 1548 D5D3DCA8 		.ascii	"\325\323\334\250\357\265W\3171\030\261O\3375\322w\260"
 584      EFB557CF 
 584      3118B14F 
 584      DF35D277 
 584      B0
 585 1559 2067F698 		.ascii	" g\366\230\276]\261m\274\033\313\373\355-\03700\221"
 585      BE5DB16D 
 585      BC1BCBFB 
 585      ED2D1F30 
ARM GAS  /tmp/ccErb3td.s 			page 47


 585      3091
 586 156b AB6342CE 		.ascii	"\253cB\316\013,H\313\217\373ZNwc\371\240=)\016\031\244"
 586      0B2C48CB 
 586      8FFB5A4E 
 586      7763F9A0 
 586      3D290E19 
 587 1580 C8F39D73 		.ascii	"\310\363\235s:5\235\366\006\"*\236\320Q\201=&r\337&"
 587      3A359DF6 
 587      06222A9E 
 587      D051813D 
 587      2672DF26 
 588 1594 5023BF26 		.ascii	"P#\277&9\346W>\346\327DZ6.\016k\351u\304\222^\223\250"
 588      39E6573E 
 588      E6D7445A 
 588      362E0E6B 
 588      E975C492 
 589 15ab C18B0994 		.ascii	"\301\213\011\224\003\343q\000\306@\010\314 y\346;\033"
 589      03E37100 
 589      C64008CC 
 589      2079E63B 
 589      1B
 590 15bc 2DBA4EB6 		.ascii	"-\272N\266z\"\017}G]\035\372\2169\035\372\012\364]{"
 590      7A220F7D 
 590      475D1DFA 
 590      8E391DFA 
 590      0AF45D7B 
 591 15d0 BCD4A14F 		.ascii	"\274\324\241O\337\256'\324R\277\305\207\236M\241\340"
 591      DFAE27D4 
 591      52BFC587 
 591      9E4DA1E0 
 592 15e0 9D76EC83 		.ascii	"\235v\354\203\216N1;\2111\233B\313q\352;\245\005\355"
 592      8E4E313B 
 592      89319B42 
 592      CB71EA3B 
 592      A505ED
 593 15f3 B4081A84 		.ascii	"\264\010\032\204\344I\355q.\366\237\374\237f\224z\234"
 593      E449ED71 
 593      2EF69FFC 
 593      9F66947A 
 593      9C
 594 1604 9F918FF3 		.ascii	"\237\221\217\363\301\370\257\\/\303\277y\222\013N\241"
 594      C1F8AF5C 
 594      2FC3BF79 
 594      920B4EA1 
 595 1614 8607A553 		.ascii	"\206\007\245S\213\026\011\342\277\224\244\344\224\204"
 595      8B1609E2 
 595      BF94A4E4 
 595      9484
 596 1622 51C92386 		.ascii	"Q\311#\206\277\220\220<j\314\353C\223L5C\340rHr\322"
 596      BF90903C 
 596      6ACCEB43 
 596      934C3543 
 596      E0724872 
 597 1637 6B639246 		.ascii	"kc\222F\016M\032\322\262e\353\026C\211\362\302\230\227"
 597      0E4D1AD2 
 597      B265EB16 
 597      4389F2C2 
ARM GAS  /tmp/ccErb3td.s 			page 48


 597      9897
 598 1649 E8C88AC3 		.ascii	"\350\310\212\303G\276\361\374\210\341/\306\216\036>"
 598      47BEF1FC 
 598      88E12FC6 
 598      8E1E3E
 599 1658 3A293639 		.ascii	":)69\345\371\224$\342\0319*%\366\365\244\344\244\024"
 599      E5F99424 
 599      E219392A 
 599      25F6F5A4 
 599      E4A414
 600 166b C2468FAE 		.ascii	"\302F\217\256\257\233\030\225,\015\014\0379t\304\230"
 600      AF9B1895 
 600      2C0D0C1F 
 600      3974C498 
 601 167b 17931286 		.ascii	"\027\223\022\206\016\203Q\311-\206\221\3207_\0375\362"
 601      0E8351C9 
 601      2D8691D0 
 601      375F1F35 
 601      F2
 602 168c E5D8E4E1 		.ascii	"\345\330\344\341o%\221\012CG\215LI\032\231\022\373\352"
 602      6F25910A 
 602      43478D4C 
 602      491A9912 
 602      FBEA
 603 169e F0E4579F 		.ascii	"\360\344W\237O\031:\214\374\037\016\330C]"
 603      4F193A8C 
 603      FC1F0ED8 
 603      435D
 604              		.text
 605              		.section	.gnu.lto_oslib_test_002_001_execute.3a5bf21447051f7d,"",%progbits
 606 0000 789C9554 		.ascii	"x\234\225T\357oSU\030>\3579\275?\333\265\335\360\007"
 606      EF6F5355 
 606      183EEF39 
 606      BD3FDBB5 
 606      DDF007
 607 0013 260DE93E 		.ascii	"&\015\351>\020\003\306\025\365\033\211\361\177\320\317"
 607      1003C615 
 607      F51B89F1 
 607      7FD0CF
 608 0022 66C17913 		.ascii	"f\301y\023\027\311\206\264\370\305\017=[{\035\013\311"
 608      17C986B4 
 608      F8C50F3D 
 608      5B7B1D0B 
 608      C9
 609 0033 8408842D 		.ascii	"\204\010\204-\220\221\230\210\212n\005\246\254\003\244"
 609      90919888 
 609      8A6E05A6 
 609      AC03A4
 610 0042 CCE1646C 		.ascii	"\314\341dl\340pC#D\021#\031\013\302\306\217\230\021"
 610      E0704323 
 610      44112319 
 610      0BC2C68F 
 610      9811
 611 0054 B7EBFB9E 		.ascii	"\267\353\373\236\333\315\213\253\011k\266s{\336s\316"
 611      DBCD8BAB 
 611      096BB673 
 611      7BDE73CE 
ARM GAS  /tmp/ccErb3td.s 			page 49


 612 0064 F33CF7ED 		.ascii	"\363<\367\355\363\234\020\003F\237q\235\261\327\361"
 612      F39C1003 
 612      469F719D 
 612      B1D7F1
 613 0073 F91EFE83 		.ascii	"\371\036\376\203\315\200\357\274\300X\213\311\271\270"
 613      CD80EFBC 
 613      C0588BC9 
 613      B9B8
 614 0081 1A66D2D6 		.ascii	"\032f\322\326\372\006\031\223\021\301C\301i\210\353"
 614      FA061993 
 614      11C143C1 
 614      6988EB
 615 0090 DB9FA529 		.ascii	"\333\237\245)\215\021\015t\377\220\316\255\313),\033"
 615      8D110D74 
 615      FF90CEAD 
 615      CB292C1B 
 616 00a0 036BB06C 		.ascii	"\003k\260lp\353$>ms\002k\021\023,\332\004\026\000=\245"
 616      70EB243E 
 616      6D73026B 
 616      11132CDA 
 616      0416003D 
 617 00b5 092CCB45 		.ascii	"\011,\313EH\323\015\323\202,<\340\363\034\006\333n\024"
 617      48D30DD3 
 617      822C3CE0 
 617      F31C06DB 
 617      6E14
 618 00c7 F9BA4312 		.ascii	"\371\272C\022?\327\334;o\265Hw\265+\030\363\270R\312"
 618      3FD7DC3B 
 618      6FB54877 
 618      B52B18F3 
 618      B852CA
 619 00da E010AC63 		.ascii	"\340\020\254c\270\355\372\221\205=Uz\236\266%\375E\370"
 619      B8EDFA91 
 619      853D557A 
 619      9EB625FD 
 619      45F8
 620 00ec 04747C1D 		.ascii	"\004t|\035\300\305\361|a\277\270\317]\001\020\302\351"
 620      C0C5F17C 
 620      61BFB8CF 
 620      5D0110C2 
 620      E9
 621 00fd EC58D7EF 		.ascii	"\354X\327\357Q\232rH\342t^\356\336\033\025/\003\301"
 621      519A7248 
 621      E2745EEE 
 621      DE1B152F 
 621      03C1
 622 010f CC5D9BFF 		.ascii	"\314]\233\377X[\373\221\224\255\262Tl\213v\312R>\351"
 622      585BFB91 
 622      94ADB254 
 622      6C8B76CA 
 622      523EE9
 623 0122 0A018741 		.ascii	"\012\001\207A (|\006\011\370\024\022>\363\347\260\266"
 623      20287C06 
 623      09F81412 
 623      3EF3E7B0 
 623      B6
 624 0133 F7D592F4 		.ascii	"\367\325\222\364\274\234,\315\351\277\364\367\330O\000"
ARM GAS  /tmp/ccErb3td.s 			page 50


 624      BC9C2CCD 
 624      E9BFF4F7 
 624      D84F00
 625 0142 73513E0E 		.ascii	"sQ>\016\232N\203A\203\211\203n\341`\204i\210\252\203"
 625      9A4E8341 
 625      8389836E 
 625      E1608469 
 625      88AA83
 626 0155 31FA5A4D 		.ascii	"1\372ZM\003c3\250\226^\177\226sz\212\033\320z\177\346"
 626      036333A8 
 626      965E7F96 
 626      737A8A1B 
 626      D07A7FE6 
 627 0169 D717483F 		.ascii	"\327\027H?*\332\353\016^4H\254\251\004\026\213\267\256"
 627      2ADAEB0E 
 627      5E3448AC 
 627      A904168B 
 627      B7AE
 628 017b 18D979B9 		.ascii	"\030\331y\271]\3128\326\332\261\025T\33613q\314\356"
 628      5DCA38D6 
 628      DAB11554 
 628      DE313371 
 628      CCEE
 629 018d 86032D52 		.ascii	"\206\003-R\325u\350\301\376}AJ\241\027\272\251\007}"
 629      D575E8C1 
 629      FE7D414A 
 629      A117BAA9 
 629      077D
 630 019f 43C3EF9B 		.ascii	"C\303\357\233\204\243\003@\001W\246 _\372p\230\023\315"
 630      84A30340 
 630      0157A620 
 630      5FFA7098 
 630      13CD
 631 01b1 7260CBE3 		.ascii	"r`\313\343\324\273#\220eA\015v\005\015v\273\000\245"
 631      D4BB2390 
 631      65410D76 
 631      050D76BB 
 631      00A5
 632 01c3 617A7472 		.ascii	"aztr(\240!\014\307P\303Q\322\200\213\007\037\316MF\360"
 632      28A0210C 
 632      C750C351 
 632      D2808B07 
 632      1FCE4D46 
 633 01d8 8C49207D 		.ascii	"\214I }(I\361\302\227\220uE\204\341+\017\214\377\241"
 633      2849F1C2 
 633      97907545 
 633      84E12B0F 
 633      8CFFA1
 634 01eb 6A39A1AD 		.ascii	"j9\241\255\200\342\253\000EG\177\241\335L=\217-\207"
 634      80E2AB00 
 634      45477FA1 
 634      DD4C3D8F 
 634      2D87
 635 01fd E348B0A0 		.ascii	"\343H\260\240\034\002\375\220R\360ep}\005\340\305\312"
 635      1C02FD90 
 635      52F06570 
 635      7D05E0C5 
ARM GAS  /tmp/ccErb3td.s 			page 51


 635      CA
 636 020e E0030A9C 		.ascii	"\340\003\012\234\222\002'\020\3747\310\377,\312\312"
 636      92022710 
 636      FC37C8FF 
 636      2CCACA
 637 021d 115F7963 		.ascii	"\021_yc\226\013v5,\002\274\306\012xOV\346=\245x\225"
 637      960B7635 
 637      2C02BCC6 
 637      0A784F56 
 637      E63DA578 
 638 0232 B5BF7E94 		.ascii	"\265\277~\224\227\360\313\274!\254\007y\315\025\360"
 638      97F0CBBC 
 638      21AC0779 
 638      CD15F0
 639 0241 9EAEC42B 		.ascii	"\236\256\304+\240\244x\311hp\346Q^3\350\015D\205\301"
 639      A0A478C9 
 639      6870E651 
 639      5E33E80D 
 639      4485C1
 640 0254 723666B8 		.ascii	"r6f\270\306\016\21611\313\365EK\3375\3743V\0167N\201"
 640      C60E8E31 
 640      31CBF545 
 640      4BDF35FC 
 640      33560E37 
 641 026a E6CFC2CB 		.ascii	"\346\317\302\313\344Uy\364\212\360\015:\0177\023AW\367"
 641      E45579F4 
 641      8AF00D3A 
 641      0F371341 
 641      57F7
 642 027c 6D5EFB4A 		.ascii	"m^\373J\267\334\207I\214\222\266B\307\256\016\201\007"
 642      B7DC8749 
 642      8C92B642 
 642      C7AE0E81 
 642      07
 643 028d F02288C1 		.ascii	"\360\"\210\301\020\324\372V:KV\212\223\274+\342_\360"
 643      10D4FA56 
 643      3A4B568A 
 643      93BC2BE2 
 643      5FF0
 644 029f 257906CA 		.ascii	"%y\006\312\373\326\227w\027\023\360\\\"\304`}B\243\236"
 644      FBD69777 
 644      1713F05C 
 644      22C4607D 
 644      42A39E
 645 02b2 196C608D 		.ascii	"\031l`\215J]\341\317\305\324=n\314\206\227b\366\235"
 645      4A5DE1CF 
 645      C5D43D6E 
 645      CC869762 
 645      F69D
 646 02c4 1FB3B3DE 		.ascii	"\037\263\263\336_\245\230\0373\016\347T\314\332J\247"
 646      5FA5981F 
 646      330EE754 
 646      CCDA4AA7 
 647 02d4 86C57FAE 		.ascii	"\206\305\177\256(\272\003\324\015\205'GHkt\031i\265"
 647      28BA03D4 
 647      0D852747 
 647      486B7419 
ARM GAS  /tmp/ccErb3td.s 			page 52


 647      69B5
 648 02e6 473D87F3 		.ascii	"G=\207\363~\004\037\3677\034\255\2209<#_\242\334\215"
 648      7E041FF7 
 648      371CAD90 
 648      393C235F 
 648      A2DC8D
 649 02f9 51EE46A8 		.ascii	"Q\356F\250Y\027 \033lN\215\312u\356\341\351{Q\334\277"
 649      5917201B 
 649      6C4E8DCA 
 649      75EEE1E9 
 649      7B51DCBF 
 650 030d 4F61D5B4 		.ascii	"Oa\325\264\013\256`\316u\035~\233(v\252\362*\370\036"
 650      0BAE60CE 
 650      751D7E9B 
 650      2876AAF2 
 650      2AF81E
 651 0320 292E9629 		.ascii	").\226)\274\351\243=\226\177Dv\002\001\215/q\\R\034"
 651      BCE9A33D 
 651      967F4476 
 651      02018D2F 
 651      715C521C 
 652 0334 27EEFD7D 		.ascii	"'\356\375}\236\373\376\210\303\017\220\300R\357\255"
 652      9EFBFE88 
 652      C30F90C0 
 652      52EFAD
 653 0343 E25C1595 		.ascii	"\342\\\025\225\360\276\204\011H\270\342Iv\035Ze\214"
 653      F0BE8409 
 653      48B8E249 
 653      761D5A65 
 653      8C
 654 0354 CE5167B0 		.ascii	"\316Qg\260\035\230\331\\_\333\302\001\333oO\014K\312"
 654      1D98D95C 
 654      5FDBC201 
 654      DB6F4F0C 
 654      4BCA
 655 0366 5DE41C55 		.ascii	"]\344\034U\251\376?\347L*\347\304py\377\231\343\243"
 655      A9FE3FE7 
 655      4C2AE7C4 
 655      7079FF99 
 655      E3A3
 656 0378 A2F635DF 		.ascii	"\242\3665\3379O\221\334\335\235\037\334\214\371\316"
 656      394F91DC 
 656      DD9D1FDC 
 656      8CF9CE
 657 0387 791A2EA3 		.ascii	"y\032.\243s\224\320\037\203\316\361\301\027\255\202"
 657      7394D01F 
 657      83CEF1C1 
 657      17AD82
 658 0396 EE30D948 		.ascii	"\3560\331H\215\230\202\\\274\362M\271\332\303\3141\370"
 658      8D98825C 
 658      BCF24DB9 
 658      DAC3CC31 
 658      F8
 659 03a7 09595DF1 		.ascii	"\011Y]\361\214:a)\317OCk\234\225\323\000TAq\033\353"
 659      8C3A6129 
 659      CF4F436B 
 659      9C95D300 
ARM GAS  /tmp/ccErb3td.s 			page 53


 659      5441711B 
 660 03bc EA52FE5F 		.ascii	"\352R\376_\306IgR\315\351\315\215o\244\322\315\333\266"
 660      C6496752 
 660      CDE9CD8D 
 660      6FA4D2CD 
 660      DBB6
 661 03ce 3638814A 		.ascii	"68\201J=}\255O;\357ls\232\032\234\372\015\033^\254k"
 661      3D7DAD4F 
 661      3BEF6C73 
 661      9A1A9CFA 
 661      0D1B5EAC 
 662 03e3 60D0B4AA 		.ascii	"`\320\264\252\261\351\335M\233\033\337Lni\334\342$\323"
 662      B1E9DD4D 
 662      9B1BDF4C 
 662      6E69DCE2 
 662      24D3
 663 03f5 994D1987 		.ascii	"\231M\031\207\331M\315\231\344V'\355d\330?\315Mn\227"
 663      D94DCD99 
 663      E45627ED 
 663      64D83FCD 
 663      4D6E97
 664              		.text
 665              		.section	.gnu.lto_oslib_test_sequence_002.3a5bf21447051f7d,"",%progbits
 666 0000 789C6361 		.ascii	"x\234ca`d\000\201l vf\200\200\277L\214\315\277\366\177"
 666      60640081 
 666      6C207666 
 666      8080BF4C 
 666      8CCDBFF6 
 667 0015 E6ABFFDB 		.ascii	"\346\253\377\3330\243\241\341\301\322oR\255\314\014"
 667      30A3A1E1 
 667      C1D26F52 
 667      ADCC0C
 668 0024 9DCC1099 		.ascii	"\235\314\020\231KK\177\376\343Q\264\235\3370C\241\225"
 668      4B4B7FFE 
 668      E351B49D 
 668      DF3043A1 
 668      95
 669 0035 991124F2 		.ascii	"\231\021$\362\346\375\354\217L\020\265\0076\210\267"
 669      E6FDEC8F 
 669      4C10B507 
 669      3688B7
 670 0044 323331AE 		.ascii	"231\256`T\004\253}ym\311k>\213m\015\035\013\032\200"
 670      605404AB 
 670      7D796DC9 
 670      6B3E8B6D 
 670      0D1D0B1A 
 671 0059 8A99FF31 		.ascii	"\212\231\377110\256d\254\377\307\304\310\270\234\261"
 671      3130AE64 
 671      ACFFC7C4 
 671      C8B89CB1 
 672 0069 9E817115 		.ascii	"\236\201q\025\243\005\203\225\236\236>\004\225\244\026"
 672      A3058395 
 672      9E9E3E04 
 672      95A416
 673 0078 97E8E717 		.ascii	"\227\350\347\027\347d&\351\027\347\227\026%\247\"\211"
 673      E76426E9 
 673      17E79716 
ARM GAS  /tmp/ccErb3td.s 			page 54


 673      25A72289 
 674 0088 C48398F1 		.ascii	"\304\203\230\361\305\251\205\245\251y\311\251\361\006"
 674      C5A985A5 
 674      A979C9A9 
 674      F106
 675 0096 06467AC9 		.ascii	"\006Fz\311\014l\001\231\005\251\305\014\000\200\377"
 675      0C6C0199 
 675      05A9C50C 
 675      0080FF
 676 00a5 41CD     		.ascii	"A\315"
 677              		.text
 678              		.section	.gnu.lto_oslib_test_sequence_002_array.3a5bf21447051f7d,"",%progbits
 679 0000 789C6361 		.ascii	"x\234ca`d\000\201: \266a\200\200\277L\214\323Z\017\235"
 679      60640081 
 679      3A20B661 
 679      8080BF4C 
 679      8CD35A0F 
 680 0015 67FFC2D4 		.ascii	"g\377\302\324\312\014\224\006r\217\376\377~\200\037"
 680      CA0C9406 
 680      728FFEFF 
 680      7E801F
 681 0024 C4656464 		.ascii	"\304edd\002r\233\177\355\377\314W\377\267aFC\303\203"
 681      02729B7F 
 681      EDFFCC57 
 681      FFB76146 
 681      43C383
 682 0037 D64F5240 		.ascii	"\326OR@U\235\314\020}H2\007\376\211\201%\030\301\022"
 682      559DCC10 
 682      7D483207 
 682      FE898125 
 682      18C112
 683 004a 9BD6F6CE 		.ascii	"\233\326\366\316\341\264\330\326\320\261\240\301\240"
 683      E1B4D8D6 
 683      D0B1A0C1 
 683      A0
 684 0057 959989D1 		.ascii	"\225\231\211\321P\206q\025c=\243\221\014\343J \265\202"
 684      50867115 
 684      633DA391 
 684      0CE34A20 
 684      B582
 685 0069 51867139 		.ascii	"Q\206q9\243\014\003\343jF\013\006+==}\010*I-.\321\317"
 685      A30C03E3 
 685      6A460B06 
 685      2B3D3D7D 
 685      082A492D 
 686 0080 2FCEC94C 		.ascii	"/\316\311L\322/\316/-JNE\022\211\0071\343\213S\013K"
 686      D22FCE2F 
 686      2D4A4E45 
 686      12890731 
 686      E38B530B 
 687 0095 53F39253 		.ascii	"S\363\222S\343\015\014\214\364\222\031\000]\035C\004"
 687      E30D0C8C 
 687      F4921900 
 687      5D1D4304 
 688              		.text
 689              		.section	.gnu.lto_oslib_test_002_001.3a5bf21447051f7d,"",%progbits
 690 0000 789C6361 		.ascii	"x\234ca`d\000\201\205@\234\304\000\001\177\231\030w"
ARM GAS  /tmp/ccErb3td.s 			page 55


 690      60640081 
 690      85409CC4 
 690      00017F99 
 690      1877
 691 0012 EE7C739B 		.ascii	"\356|s\233\275\376oCGC\303\203\247\353\245Z\231\031"
 691      BDFE6F43 
 691      4743C383 
 691      A7EBA55A 
 691      9919
 692 0024 FE334164 		.ascii	"\3763Ad\246\265\036:\317\376\205\011(\302\210\246\360"
 692      A6B51E3A 
 692      CFFE8509 
 692      28C288A6 
 692      F0
 693 0035 C02F21B0 		.ascii	"\300/!\260:F\260\272\353]\313\027\361(\332\316o\230"
 693      3A46B0BA 
 693      EB5DCB17 
 693      F128DACE 
 693      6F98
 694 0047 A1D0CA0C 		.ascii	"\241\320\312\014V\372\375\345\256vf\240\322\031@\245"
 694      56FAFDE5 
 694      AE7666A0 
 694      D21940A5 
 695 0057 3F804A99 		.ascii	"?\200J\231\030W1*\202\325\036^;\3714\257\305\266\206"
 695      1857312A 
 695      82D51E5E 
 695      3BF934AF 
 695      C5B686
 696 006a 8E050D0E 		.ascii	"\216\005\015\016\255\314\314\377\230\030\030W3\326\377"
 696      ADCCCCFF 
 696      98181857 
 696      33D6FF
 697 0079 6362645C 		.ascii	"cbd\\\011\242\230\030W0\312\374cbf\\\316X\317\300\270"
 697      09A29818 
 697      5730CAFC 
 697      6362665C 
 697      CE58CFC0 
 698 008e 86D182C1 		.ascii	"\206\321\202\301JOO\037\202JR\213K\364\363\213s2\223"
 698      4A4F4F1F 
 698      824A528B 
 698      4BF4F38B 
 698      733293
 699 00a1 F48BF34B 		.ascii	"\364\213\363K\213\222S\221D\342A\314\370\342\324\302"
 699      8B925391 
 699      44E241CC 
 699      F8E2D4C2 
 700 00b1 D2D4BCE4 		.ascii	"\322\324\274\344\324x\003\003#\275d\006\325\200\314"
 700      D4780303 
 700      23BD6406 
 700      D580CC
 701 00c0 82D46285 		.ascii	"\202\324b\205\274\374\242\334\304\034\005\307\000O\035"
 701      BCFCA2DC 
 701      C41C05C7 
 701      004F1D
 702 00cf 203B4F37 		.ascii	" ;O7)'?9;3/]\001\244\247\230\001\000\272\366`\305"
 702      29273F39 
 702      3B332F5D 
ARM GAS  /tmp/ccErb3td.s 			page 56


 702      01A4A798 
 702      0100BAF6 
 703              		.text
 704              		.section	.gnu.lto_oslib_test_002_002.3a5bf21447051f7d,"",%progbits
 705 0000 789C6361 		.ascii	"x\234ca`d\000\201\205@\354\315\000\001\177\231\030w"
 705      60640081 
 705      8540ECCD 
 705      00017F99 
 705      1877
 706 0012 EE7C739B 		.ascii	"\356|s\233\275\376oCGC\303\203\326\327R\255\314\014"
 706      BDFE6F43 
 706      4743C383 
 706      D6D752AD 
 706      CC0C
 707 0024 FF992032 		.ascii	"\377\231 2\323Z\017\235g\377\302\004\024aDSx\340\212"
 707      D35A0F9D 
 707      67FFC204 
 707      14614453 
 707      78E08A
 708 0037 18581D23 		.ascii	"\030X\035#X\335\217\3569{\330\025m\3477\314Phe\006+"
 708      58DD8FEE 
 708      397BD815 
 708      6DE737CC 
 708      50686506 
 709 004c BDD8FDF8 		.ascii	"\275\330\375\370\036\017P\351\014\240\322K@\245L\214"
 709      1E0F50E9 
 709      0CA0D24B 
 709      40A54C8C 
 710 005c AB1815C1 		.ascii	"\253\030\025\301j\373\036\317\232\316n\261\255\241c"
 710      6AFB1ECF 
 710      9ACE6EB1 
 710      ADA163
 711 006b 4183432B 		.ascii	"A\203C+3\363?&\006\306\325\214\365\377\230\030\031W"
 711      33F33F26 
 711      06C6D58C 
 711      F5FF9818 
 711      1957
 712 007d 822826C6 		.ascii	"\202(&\306\025\2142\377\230\230\031\2273\32630\256a"
 712      158C32FF 
 712      98981997 
 712      33D63330 
 712      AE61
 713 008f B460B0D2 		.ascii	"\264`\260\322\323\323\207\240\222\324\342\022\375\374"
 713      D3D387A0 
 713      92D4E212 
 713      FDFC
 714 009d E29CCC24 		.ascii	"\342\234\314$\375\342\374\322\242\344T$\221x\0203\276"
 714      FDE2FCD2 
 714      A2E45424 
 714      91781033 
 714      BE
 715 00ae 38B5B034 		.ascii	"8\265\26045/95\336\300\300H/\231\201/ \263 U\241$37"
 715      352F3935 
 715      DEC0C048 
 715      2F99812F 
 715      20B32055 
 716 00c6 35BFB4A4 		.ascii	"5\277\264\244\230\001\000\011DXR"
ARM GAS  /tmp/ccErb3td.s 			page 57


 716      98010009 
 716      445852
 717              		.text
 718              		.section	.gnu.lto_.symbol_nodes.3a5bf21447051f7d,"",%progbits
 719 0000 789C5D90 		.ascii	"x\234]\220?K\003A\020\305\347f\357rw\012\306\304F+m"
 719      3F4B0341 
 719      10C5E766 
 719      EF72770A 
 719      C6C4462B 
 720 0015 FC16F956 		.ascii	"\374\026\371VB\032\301=\345P\260\262\023l4xD\260\021"
 720      421AC13D 
 720      E550B0B2 
 720      136C3478 
 720      44B011
 721 0028 22882204 		.ascii	"\"\210\"\004\221\303h\242\361_4\242\215\3213\221(\021"
 721      91C368A2 
 721      F15F34A2 
 721      8DD13391 
 721      2811
 722 003a D20816E2 		.ascii	"\322\010\026\342\356L\012\357\232\375\355\233yofY\023"
 722      EE4C0AEF 
 722      9AFDED9B 
 722      796F6659 
 722      13
 723 004b 0C682000 		.ascii	"\014h \000\340\005J\200\225:\200\302\376F\301\023\000"
 723      E0054A80 
 723      953A80C2 
 723      FE46C113 
 723      00
 724 005c D6298297 		.ascii	"\326)\202\227\005\020V\005\015\272`\025\245\221p\341"
 724      05105605 
 724      0DBA6015 
 724      A59170E1 
 725 006c 234A1CD4 		.ascii	"#J\034\324\214\003\257\340M\251\344\015\012\005\260"
 725      8C03AFE0 
 725      4DA9E40D 
 725      0A05B0
 726 007b CE103958 		.ascii	"\316\0209XG)\222\301'\224f\"\2105\224V\362\031\327h"
 726      472992C1 
 726      27946622 
 726      88359456 
 726      F219D768 
 727 008f CE67F5B4 		.ascii	"\316g\365\264+\264\370r\216)~\330%\332t1\356Q\246(\007"
 727      2BB4F872 
 727      8E297ED8 
 727      25DA7431 
 727      EE51A628 
 728 00a4 E0E941C6 		.ascii	"\340\351A\306\035J;Vh\240tb\205[\224n\254\360\200r("
 728      1D4A3B56 
 728      68A07462 
 728      855B946E 
 728      ACF08072 
 729 00b9 5668A21C 		.ascii	"Vh\242\034\376_\0200\002\301\363\257!\304\200\346(\004"
 729      FE5F1030 
 729      02C1F3AF 
 729      21C480E6 
 729      2804
ARM GAS  /tmp/ccErb3td.s 			page 58


 730 00cb CB6F139A 		.ascii	"\313o\023\232aK\3534D\272ng $\252~\213\351k\237m\302"
 730      614BEB34 
 730      44BA6E67 
 730      2024AA7E 
 730      8BE96B9F 
 731 00e1 71B52784 		.ascii	"q\265'\204\243\374?\206p\262\340k(\365M\210\372\012"
 731      A3FC3F86 
 731      70B2E06B 
 731      28F54D88 
 731      FA0A
 732 00f3 19F0FBA4 		.ascii	"\031\360\373\244\202/FW!\015a\207\235m\316\265Y\275"
 732      822F4657 
 732      210D6187 
 732      9D6DCEB5 
 732      59BD
 733 0105 72AECCB9 		.ascii	"r\256\314\2712\007\016\031{\234\333eg\211s%V;\214m\312"
 733      32070E19 
 733      7B9CDB65 
 733      67897325 
 733      563B8C6D 
 734 011a 455B3CA5 		.ascii	"E[<\245H\226\240\310j\223\340K\355\010\346\310>K\215"
 734      4896A0C8 
 734      6A93E04B 
 734      ED08E6C8 
 734      3E4B8D
 735 012d BC1EEBE7 		.ascii	"\274\036\353\347i\307\014\235=\2076}8\344\352\216\323"
 735      69C70C9D 
 735      3D87367D 
 735      38E4EA8E 
 735      D3
 736 013e 260DA53A 		.ascii	"&\015\245:G<\356\345\235\337HT\231\365ij\257\345t4Z"
 736      473CEEE5 
 736      9DDF4854 
 736      99F5696A 
 736      AFE57434 
 737 0153 CDD1B266 		.ascii	"\315\321\262f\003\311\\\347O\362\253')Z_\321T\356\305"
 737      03C95CE7 
 737      4FF2AB27 
 737      295A5FD1 
 737      54EEC5
 738 0166 CF49E18E 		.ascii	"\317I\341\216\361\347\272\252\277\244\265\212\353\276"
 738      F1E7BAAA 
 738      BFA4B58A 
 738      EBBE
 739 0174 D2A1F6BB 		.ascii	"\322\241\366\273\016,\324z\002\376\000\241\335\266\254"
 739      0E2CD47A 
 739      02FE00A1 
 739      DDB6AC
 740              		.text
 741              		.section	.gnu.lto_.refs.3a5bf21447051f7d,"",%progbits
 742 0000 789C4D90 		.ascii	"x\234M\220\317+\204Q\024\206\337\367|s\2771c\206\"\331"
 742      CF2B8451 
 742      1486DFF7 
 742      7C73BF31 
 742      638622D9 
 743 0014 2994ACD8 		.ascii	")\224\254\330\220\254\374m\262\262aE\262\262aE\262b"
 743      90ACFC6D 
ARM GAS  /tmp/ccErb3td.s 			page 59


 743      B2B26145 
 743      B2B26145 
 743      B262
 744 0026 43523429 		.ascii	"CR4)\2620#EX`R$+6x\374*\337\355\271\367\275\3479\213"
 744      B2302345 
 744      58605224 
 744      2B3678FC 
 744      2ADFEDB9 
 745 003f FB9D82AC 		.ascii	"\373\235\202\254\232\245P\330\021.\263\375~\376\267"
 745      9AA550D8 
 745      112EB3FD 
 745      7EFEB7
 746 004e B21F5B2C 		.ascii	"\262\037[,8qd\221gr\213\\\222[\345j^t\372\352\222\213"
 746      38716491 
 746      67728B5C 
 746      925BE56A 
 746      5E74FAEA 
 747 0064 DFE5B25C 		.ascii	"\337\345\262\\i\210`}\025\013r\356T\011W\345\016\271"
 747      6988607D 
 747      150B72EE 
 747      540957E5 
 747      0EB9
 748 0076 53EE92BB 		.ascii	"S\356\222\273\235z\354^\271O\356\227\007\344A\247\241"
 748      9D7AEC5E 
 748      B94FEE97 
 748      07E441A7 
 748      A1
 749 0087 F070E4C3 		.ascii	"\360p\344\303\362\210<*\217\311\343N\023\341]\311\373"
 749      F2883C2A 
 749      8FC9E34E 
 749      13E15DC9 
 749      FB
 750 0098 70003538 		.ascii	"p\00058T\344'r\252\363\352\006\271A\355\002.\341\012"
 750      54E42772 
 750      AAF3EA06 
 750      B941ED02 
 750      2EE10A
 751 00ab 6E70F7B8 		.ascii	"np\367\270&\256\311\375\021\236\340\031^p\257\2707\362"
 751      26AEC9FD 
 751      119EE019 
 751      5E70AFB8 
 751      37F2
 752 00bd 3B7CC024 		.ascii	";|\300$\017\235r\344\323v\232\341Of\271\317\301<,\300"
 752      0F9D72E4 
 752      D3769AE1 
 752      4F66B9CF 
 752      C13C2CC0 
 753 00d1 226E09B7 		.ascii	"\"n\011\267\214[!\257P[\2055X\207\015\334&n\213\274"
 753      8C5B21AF 
 753      505B8535 
 753      58870DDC 
 753      266E8BBC 
 754 00e5 0D3BB00B 		.ascii	"\015;\260\013{\364\326pG\270c\3621\265S\250\303\031"
 754      7BF4D670 
 754      47B863F2 
 754      31B553A8 
 754      C319
ARM GAS  /tmp/ccErb3td.s 			page 60


 755 00f7 9CE3AE70 		.ascii	"\234\343\256p\327\344[\270\203&<\320\373\354R\351o\254"
 755      D7E45BB8 
 755      83263CD0 
 755      FBEC52E9 
 755      6FAC
 756 0109 D9CF1019 		.ascii	"\331\317\020\031\256S[\270=\362v\227\243\225U\211*d"
 756      AE535BB8 
 756      3DF27697 
 756      A3955589 
 756      2A64
 757 011b 51E25414 		.ascii	"Q\342T\024\365\0118\2618\022"
 757      F50938B1 
 757      3812
 758              		.text
 759              		.section	.gnu.lto_.decls.3a5bf21447051f7d,"",%progbits
 760 0000 789CB55B 		.ascii	"x\234\265[yTT\331\231\257\373\356\243\330\012\260\325"
 760      795454D9 
 760      99AFFBEE 
 760      A3D80AB0 
 760      D5
 761 0011 933839F4 		.ascii	"\22389\364i\273\307LHNZ\264\367dr\346L\247'\235t&=\335"
 761      69BBC74C 
 761      484E5AB4 
 761      F76472E6 
 761      4CA7279D 
 762 0029 C9496772 		.ascii	"\311Igr\346\217\241\021\253[\022\266.\312V3\177\244"
 762      E68FA111 
 762      AB5B12B6 
 762      2ECA5633 
 762      7FA4
 763 003b 585C4011 		.ascii	"X\\@\021\\\020\004\027\\\221M\026\001e/AY\004d\223M"
 763      5C100417 
 763      5C914D16 
 763      01652F41 
 763      59046493 
 764 0050 11411114 		.ascii	"\021A\021\02476Ed\233\357.\257\336{E\225:3\231\352\376"
 764      37364564 
 764      9BEF2EAF 
 764      DE7B4595 
 764      3A3399EA 
 765 0065 EAD577DF 		.ascii	"\352\325w\337w\277\357\367-\367\276{\357CQ\2034\344"
 765      77BFEFF7 
 765      2DF7BE7B 
 765      EF435183 
 765      34E4
 766 0077 E3FD9E46 		.ascii	"\343\375\236F\023\353\250\321\224:h4\363\360\321A\333"
 766      13EBA8D1 
 766      943A6834 
 766      F3F0D141 
 766      DB
 767 0088 1F80DC80 		.ascii	"\037\200\334\200\216\201H*P4\320i\240\037@\333\031\270"
 767      8E81482A 
 767      5034D069 
 767      A01F40DB 
 767      19B8
 768 009a E6031501 		.ascii	"\346\003\025\001\025\003\225\003U\000\231\201\3163\225"
 768      15039503 
ARM GAS  /tmp/ccErb3td.s 			page 61


 768      55009981 
 768      CE3395
 769 00a9 1AA2E322 		.ascii	"\032\242\343\"\374\256\001\272\004\324\000\324\004\324"
 769      FCAE01BA 
 769      04D400D4 
 769      04D4
 770 00b7 02D40974 		.ascii	"\002\324\011t\023h\010\350!\320\014\351#h4N\344\002"
 770      136808E8 
 770      21D00CE9 
 770      2368344E 
 770      E402
 771 00c9 570CA425 		.ascii	"W\014\244%<\320\012\240\037\001\375\030h\245\240Q}\210"
 771      3CD00AA0 
 771      1F01FD18 
 771      68A5A051 
 771      7D88
 772 00db 7E278ED5 		.ascii	"~'\216\325[`X\217p\274'9\346\016\216G\340\362\304\266"
 772      5B60588F 
 772      70BC2739 
 772      E60E8E47 
 772      E0F2C4B6 
 773 00ef A0B0A3FC 		.ascii	"\240\260\243\374\2206\202\373\023\220\371\015\222\365"
 773      903682FB 
 773      1390F90D 
 773      92F5
 774 00fd FD1AE833 		.ascii	"\375\032\3503\240Up?\234\374\3260\033\213\341\272\003"
 774      A055703F 
 774      9CFCD630 
 774      1B8BE1BA 
 774      03
 775 010e AE8BE07A 		.ascii	"\256\213\340z\020\256\177\001\372\035\320\347@\377\012"
 775      10AE7F01 
 775      FA1DD0E7 
 775      40FF0A
 776 011d F42BA0C3 		.ascii	"\364+\240\303@{\201\022\201\366\003\305\003\355\003"
 776      407B8112 
 776      81F603C5 
 776      03ED03
 777 012c 4A00DA03 		.ascii	"J\000\332\003\224\004tH\201\321\026\256\232\377\241"
 777      94047448 
 777      81D116AE 
 777      9AFFA1
 778 013b 9F352FF0 		.ascii	"\2375/\360\223\344\343\273\\\037\361a\251\206\351 \272"
 778      93E4E3BB 
 778      5C1FF161 
 778      A986E920 
 778      BA
 779 014c 887F3BB8 		.ascii	"\210\177;\270\217\237\003\255\206\276o)l\222\032\310"
 779      8F9F03AD 
 779      86BE6F29 
 779      6C921AC8 
 780 015c E275D00F 		.ascii	"\342u\320\017\327\267\005\271\036\006\0255!j\230\237"
 780      D7B705B9 
 780      1E061535 
 780      216A989F 
 781 016c F1DC77E2 		.ascii	"\361\334w\342/\346\266\245\334\023\236\344X\340\371"
 781      2FE6B6A5 
ARM GAS  /tmp/ccErb3td.s 			page 62


 781      DC139EE4 
 781      58E0F9
 782 017b 567E48BD 		.ascii	"V~H\275,\263\203\221\340R\342$\030\337\261\212\013\301"
 782      2CB38391 
 782      E052E224 
 782      18DFB18A 
 782      0BC1
 783 018d F7E039F8 		.ascii	"\367\3409\370\336\205\366:\005\316D\2165\201\2675\360"
 783      DE85F63A 
 783      05CE448E 
 783      3581B735 
 783      F0
 784 019e DA1CE2F5 		.ascii	"\332\034\342\365+(\260*?\244\246_\267\302)\345D\031"
 784      2B28B02A 
 784      3FA4A65F 
 784      B7C229E5 
 784      4419
 785 01b0 C770453D 		.ascii	"\307pE=\021L\022\016\202I\302\257\304-\215\251\367x"
 785      114C120E 
 785      8249C2AF 
 785      C42D8DA9 
 785      F778
 786 01c2 FCA5B893 		.ascii	"\374\245\270\223\230K\376\274\017\355\323\212qg\313"
 786      984BFEBC 
 786      0FEDD38A 
 786      7167CB
 787 01d1 172DC728 		.ascii	"\027-\307(\215\265\237\010,\3763<\376\002\037g\326\361"
 787      8DB59F08 
 787      2CFE333C 
 787      FE021F67 
 787      D6F1
 788 01e3 27E3F47B 		.ascii	"'\343\364{6\342\377\271F\366+\234c\377\251\"\366\363"
 788      36E2FFB9 
 788      46F62B9C 
 788      63FFA922 
 788      F6F3
 789 01f5 36FC53E2 		.ascii	"6\374S\342\227\352F\362\357\037\341\336e;\330\0358\016"
 789      97EA46F2 
 789      EF1FE1DE 
 789      653BD81D 
 789      380E
 790 0207 12FC215E 		.ascii	"\022\374!^7M/\250\0332_\020]?\203\353\207@?\007\372"
 790      374D2FA8 
 790      1B325F10 
 790      5D3F83EB 
 790      87403F07 
 791 021c 7B81E5EF 		.ascii	"{\201\345\357U\370z\215\313\023\265?\262\352Kx\242\373"
 791      55F87A8D 
 791      CB13B53F 
 791      B2EA4B78 
 791      A2FB
 792 022e EF04E6EF 		.ascii	"\357\004\346\357\017\025\367\311\317\225|\036R~~\314"
 792      0F15F7C9 
 792      CF957C1E 
 792      527E7ECC 
 793 023e EDE9E0FA 		.ascii	"\355\351\340\3721\320/\201\226\361\266W\340\272\010"
 793      31D02F81 
ARM GAS  /tmp/ccErb3td.s 			page 63


 793      96F1B657 
 793      E0BA08
 794 024d C8036831 		.ascii	"\310\003h1\307@\374\251A\232\005\237\225\012=\277\001"
 794      C740FCA9 
 794      419A059F 
 794      950A3DBF 
 794      01
 795 025e FAF4057A 		.ascii	"\372\364\005zH}^\264\241gV@-\2219\007\360\204\200\026"
 795      487D5EB4 
 795      A1675640 
 795      2D913907 
 795      F0848016 
 796 0272 BB2011D8 		.ascii	"\273 \021\330\321\306\244[\356\300.uA\313\201=\3730"
 796      D1C6A45B 
 796      EEC02E75 
 796      41CB813D 
 796      FB30
 797 0284 E3AC1BBB 		.ascii	"\343\254\033\273k&\322\255#\015\007]\031\277\010\330"
 797      6B26D2AD 
 797      230D075D 
 797      19BF08D8 
 798 0294 C2C1BA6A 		.ascii	"\302\301\272j\027&mB\300\227\234-\255v`\267W\001\233"
 798      17266D42 
 798      C0979C2D 
 798      AD7660B7 
 798      57019B
 799 02a7 716DE23F 		.ascii	"qm\342?\261\200H\307\244\222\211K\374\216\023\2713\031"
 799      B18048C7 
 799      A492894B 
 799      FC8E13B9 
 799      3319
 800 02b9 59E0811D 		.ascii	"Y\340\201\035\351\255\033S\247>^\231i\202O\234\311$"
 800      E9AD1B53 
 800      A73E5E99 
 800      69824F9C 
 800      C924
 801 02cb BC2A433B 		.ascii	"\274*C;5x`\247\216\365\371\000\330+\315\275'0\376\016"
 801      357860A7 
 801      8EF5F900 
 801      D82BCDBD 
 801      2730FE0E 
 802 02df ED73BD36 		.ascii	"\355s\2756-\203\240\376\201\013\"\317 \017h\312\276"
 802      2D83A0FE 
 802      810B22CF 
 802      200F68CA 
 802      BE
 803 02f0 5F34E5C6 		.ascii	"_4\345\306\232(\322\330\261\343\216\3705\362[\250\216"
 803      9A28D2D8 
 803      B1E38EF8 
 803      35F25BA8 
 803      8E
 804 0301 3993E78A 		.ascii	"9\223\347\212\274\\N\022#}\005'tE&\323\"t\026\271\240"
 804      BC5C4E12 
 804      237D0527 
 804      744526D3 
 804      227416B9 
 805 0316 0284510E 		.ascii	"\002\204Q\016ZIR\374\003\027\370\336f2\205\233\342\""
ARM GAS  /tmp/ccErb3td.s 			page 64


 805      5A4952FC 
 805      0317F8DE 
 805      6632859B 
 805      E222
 806 0328 4C8B6BDD 		.ascii	"L\213k\3355\350\024\362D\251\310S\203\012\221\027QK"
 806      35E814F2 
 806      44A9C853 
 806      830A9117 
 806      514B
 807 033a 04513E34 		.ascii	"\004Q>4\236\201F0\221v|\327Q-\216C\324\306\376\374\364"
 807      9E814630 
 807      91767CD7 
 807      512D8E43 
 807      D4C6FEFC 
 808 034f 49178B8D 		.ascii	"I\027\213\215\361\350w2\211\215b\260qN\266\001&\355"
 808      F1E87732 
 808      898D62B0 
 808      714EB601 
 808      26ED
 809 0361 1A29B26D 		.ascii	"\032)\262m\304\264w\372\260\033\236`F\222\023*\312\034"
 809      C4B477FA 
 809      B01B9E60 
 809      4692132A 
 809      CA1C
 810 0373 908B976D 		.ascii	"\220\213\227m\015e6408S\261\336e\004N)\300)\221\341"
 810      0D653634 
 810      303853B1 
 810      DE65044E 
 810      29C02991 
 811 0388 14533860 		.ascii	"\024S8`\244\347LL\225\023.`\251\212\0308\330\357\216"
 811      A4E74C4C 
 811      95132E60 
 811      A98A1838 
 811      D8EF8E
 812 039b CB18531D 		.ascii	"\313\030S\035\033\271\303\005WSF\310\033L>\350,\371"
 812      1BB9C305 
 812      575346C8 
 812      1B4C3EE8 
 812      2CF9
 813 03ad 686E458B 		.ascii	"hnE\213P%(4[+\264\215\356\274m\377\222\307\257\337u"
 813      50252834 
 813      5B2BB48D 
 813      EEBC6DFF 
 813      92C7AFDF 
 814 03c2 6649F652 		.ascii	"fI\366R\024\334R^pi\305\343'\264\270\225\201\211\353"
 814      14DC525E 
 814      7069C5E3 
 814      27B4B895 
 814      8189EB
 815 03d5 992A75C5 		.ascii	"\231*u\305\327\030s\341V[\255\003\356cLJe\377\233x\224"
 815      D71873E1 
 815      565BAD03 
 815      EE634C4A 
 815      65FF9B78 
 816 03ea FD2E8E2F 		.ascii	"\375.\216/}\340\204\2370\346\346\374\334\237\360\026"
 816      7DE0849F 
 816      30E6E6FC 
ARM GAS  /tmp/ccErb3td.s 			page 65


 816      DC9FF016 
 817 03fa 4C7F4765 		.ascii	"L\177GeFU\273\343\235\2149ZQr\337\021\037b\214T\365"
 817      4655BBE3 
 817      9D8C395A 
 817      5172DF11 
 817      1F628C54 
 818 040f 8B59D59F 		.ascii	"\213Y\325\237\032\2761\203q\026\273\327\337S\223\343"
 818      1ABE3183 
 818      7116BBD7 
 818      DF5393E3 
 819 041f 8EB31953 		.ascii	"\216\263\031S2\231\\\342\201\013\031\323xk~\314\005"
 819      32995CE2 
 819      810B19D3 
 819      786B7ECC 
 819      05
 820 0430 9731E66C 		.ascii	"\2271\346l\322\234Y\304\027\030\2639&+\201\214\013-"
 820      D29C59C4 
 820      1718B339 
 820      262B818C 
 820      0B2D
 821 0442 2B4F4768 		.ascii	"+OGh\032\030yV(\262&\022\275\215\320tp\177O\256;\256"
 821      1A187956 
 821      28B22612 
 821      BD8DD074 
 821      707F4FAE 
 822 0458 A55D848A 		.ascii	"\245]\204\212\311\354j'\271Fg?\2120\231\020\352\204"
 822      C9EC6A27 
 822      B946673F 
 822      8A309910 
 822      EA84
 823 046a F8B6CBF1 		.ascii	"\370\266\313\361\325\362\360\232\026\206\267\003\302"
 823      D5F2F09A 
 823      1686B703 
 823      C2
 824 0477 ABE5E1BD 		.ascii	"\253\345\341\275\002\215m,\274cS#\371\"ne6\312\242\357"
 824      028D6D2C 
 824      BC635323 
 824      F9226E65 
 824      36CAA2EF 
 825 048b 97392B6A 		.ascii	"\2279+jte\006)\212\253`\243K\266\321\211\354\033\351"
 825      74650629 
 825      8AAB60A3 
 825      4BB6D189 
 825      EC1BE9
 826 049e B66DA4DF 		.ascii	"\266m\244\3374\275_\207\2572#%\321\327\257\213\254F"
 826      34BD5F87 
 826      AF322325 
 826      D1D7AF8B 
 826      AC46
 827 04b0 6D68B86E 		.ascii	"mh\270nC\003\257\321\246wi\215\366\000\234k2\234\253"
 827      4303AFD1 
 827      A677698D 
 827      F6009C6B 
 827      329CAB
 828 04c3 528D3EDB 		.ascii	"R\215>\333ST\340\212\373X\200\267\307?8\351\216\007"
 828      5354E08A 
 828      FB5880B7 
ARM GAS  /tmp/ccErb3td.s 			page 66


 828      C73F38E9 
 828      8E07
 829 04d5 19337D67 		.ascii	"\0313}go7b\331\323\001\033^\322\275\313\203\225P\037"
 829      6F3762D9 
 829      D3011B5E 
 829      D2BDCB83 
 829      95501F
 830 04e8 9D099E6D 		.ascii	"\235\011\236m\233\023\3618\223\355\334\321vM\213\247"
 830      9B13F138 
 830      93EDDCD1 
 830      764D8BA7 
 831 04f8 19D4BCA8 		.ascii	"\031\324\274\250\356\375\016v\241\336\266\007\325\\"
 831      EEFD0E76 
 831      A1DEB607 
 831      D55C
 832 0506 0E953F00 		.ascii	"\016\225?\0000o\331\200Y\335\2242\356\204\303Dj\255"
 832      306FD980 
 832      59DD9432 
 832      EE84C344 
 832      6AAD
 833 0518 68D76E28 		.ascii	"h\327n(\305\255\214\351M\334^\342\212\223\030S\036;"
 833      C5AD8CE9 
 833      4DDC5EE2 
 833      8A931853 
 833      1E3B
 834 052a 76CE191F 		.ascii	"v\316\031\037a\314\326\2477s<p:c\244)v)\233b\207#\314"
 834      61CCD6A7 
 834      37733C70 
 834      3A63A429 
 834      76299B62 
 835 0541 FD22CE65 		.ascii	"\375\"\316e\367\2627\017\2449\301=O\250+\244\230\363"
 835      F7B2370F 
 835      A439C13D 
 835      4FA82BA4 
 835      98F3
 836 0553 3CD99C97 		.ascii	"<\331\234\227o\036\317\022q!\225\025Z\316t_\224\223"
 836      6F1ECF12 
 836      71219515 
 836      5ACE745F 
 836      9493
 837 0565 5DF0F843 		.ascii	"]\360\370CZP\243\000\373\221\014\333\3232^G\216\232"
 837      5A50A300 
 837      FB910CDB 
 837      D3325E47 
 837      8E9A
 838 0577 B4CB34E8 		.ascii	"\264\3134\350mO\264\012|\037\001\337=\271\357\017\301"
 838      6D4FB40A 
 838      7C1F01DF 
 838      3DB9EF0F 
 838      C1
 839 0588 F7077CC6 		.ascii	"\367\007|\306;|\352\202\03363\003\017\366\336\333\206"
 839      3B7CEA82 
 839      1B363303 
 839      0FF6DEDB 
 839      86
 840 0599 15D5E449 		.ascii	"\025\325\344I\253i\002\014\214\311\006F\221\035\013"
 840      AB69020C 
ARM GAS  /tmp/ccErb3td.s 			page 67


 840      8CC90646 
 840      911D0B
 841 05a8 E3B62D84 		.ascii	"\343\266-\204\357i\313t\306\265\314\302\336\254\254"
 841      EF69CB74 
 841      C6B5CCC2 
 841      DEACAC
 842 05b7 0C794C4C 		.ascii	"\014yLL\305\256\244\0052\011\026\036\313\026&\354Yx"
 842      C5AEA405 
 842      3209161E 
 842      CB1626EC 
 842      5978
 843 05c9 62DB427C 		.ascii	"b\333B|\322\3402\334\314\342\271}\307\\6\306\035\314"
 843      D2E032DC 
 843      CCE2B97D 
 843      C75C36C6 
 843      1DCC
 844 05db DA64D9B1 		.ascii	"\332d\331\261|yv\313\207\034O\203\245\251\227\260\364"
 844      7C7976CB 
 844      871C4F83 
 844      A5A997B0 
 844      F4
 845 05ec CCB6A5EB 		.ascii	"\314\266\245\353\007\037\215\213\270\227\231:^\225\335"
 845      071F8D8B 
 845      B897993A 
 845      5E95DD
 846 05fb E2880798 		.ascii	"\342\210\007\230\251\331\033\017\316\272[L\025\202\251"
 846      A9D91B0F 
 846      CEBA5B4C 
 846      1582A9
 847 060a 793035FB 		.ascii	"y05\373\022\246\346l\233z\030y\273\217?\227\227\221"
 847      12A6E66C 
 847      9B7A1879 
 847      BB8F3F97 
 847      9791
 848 061c B1B237F1 		.ascii	"\261\2627\361m\374\200\031~p\342r\036\231`\275\\\320"
 848      6DFC8019 
 848      7E70E272 
 848      1E9960BD 
 848      5CD0
 849 062e 5F1525E3 		.ascii	"_\025%\343\305J\346\300\256\233\011\316x\202\301\212"
 849      C54AE6C0 
 849      AE9B09CE 
 849      7882C18A 
 850 063e 4F7B7A54 		.ascii	"O{zT\220\036/)\021\2467\302r\301\344\0050s\232\014\210"
 850      901E2F29 
 850      11A637C2 
 850      72C1E405 
 850      30739A0C 
 851 0653 2D8217E9 		.ascii	"-\202\027\351FmG\010\236(\\\220\306n\301\0037\372H\335"
 851      466D4708 
 851      9E285C90 
 851      C66EC103 
 851      37FA48DD 
 852 0667 2CB8A048 		.ascii	",\270\240H\301\342\205\027\037\023[#O\305\272\342yf"
 852      C1E28517 
 852      1F135B23 
 852      4FC5BAE2 
ARM GAS  /tmp/ccErb3td.s 			page 68


 852      7966
 853 0679 E4D0AE27 		.ascii	"\344\320\256'%.\366\215D\33152\036\375O\364\231\272"
 853      252EF68D 
 853      44D93532 
 853      1EFD4FF4 
 853      99BA
 854 068b 0D8C6C95 		.ascii	"\015\214l\225\215\200Mf\2457\373\332\005\021os\240V"
 854      8D804D66 
 854      A537FBDA 
 854      05116F73 
 854      A056
 855 069d 2A0BBB47 		.ascii	"*\013\273G\265\366\255\354\260k\245sx\335\301+&\323"
 855      B5F6ADEC 
 855      B06BA573 
 855      78DDC12B 
 855      26D3
 856 06af 72B41DCC 		.ascii	"r\264\035\314D\313f\266IfN\266\334\337-\350\242\345"
 856      44CB66B6 
 856      49664EB6 
 856      DCDF2DE8 
 856      A2E5
 857 06c1 671C9594 		.ascii	"g\034\225\224f\015\015\212\021t|\375\022~\263\260\003"
 857      660D0D8A 
 857      11747CFD 
 857      127EB3B0 
 857      03
 858 06d2 E1320A08 		.ascii	"\3412\012\010\265?-{\246\303\225\224\021\317\204\337"
 858      B53F2D7B 
 858      A6C39594 
 858      11CF84DF 
 859 06e2 3802F9F7 		.ascii	"8\002\371\367D\320\013\261* k\037\015\332\003\252b\005"
 859      44D00BB1 
 859      2A206B1F 
 859      0DDA03AA 
 859      6205
 860 06f4 2CADCF92 		.ascii	",\255\317\222L\200\177\344\257\244\031~;\321\253\215"
 860      4C807FE4 
 860      AFA4197E 
 860      3BD1AB8D 
 861 0704 A288036F 		.ascii	"\242\210\003o\310-\015\332\015\276\354\022hI\\\255i"
 861      C82D0DDA 
 861      0DBEEC12 
 861      68495CAD 
 861      69
 862 0715 88D4BA70 		.ascii	"\210\324\272p\351\270\027I\337\313\030\354pWy\265W\345"
 862      E9B81749 
 862      DFCB18EC 
 862      705779B5 
 862      57E5
 863 0727 55BCC5AB 		.ascii	"U\274\305\253\363\215\021i\256\270\206yus\366\310\200"
 863      F38D1169 
 863      AEB88679 
 863      7573F6C8 
 863      80
 864 0738 236E64CC 		.ascii	"#nd\314\323\304\272\343n\270\2151\2733\233;\265\270"
 864      D3C4BAE3 
 864      6EB88D31 
ARM GAS  /tmp/ccErb3td.s 			page 69


 864      BB339B3B 
 864      B5B8
 865 074a 9331BDA7 		.ascii	"\2231\275\247\347J\265\370*c\016\367\214f9\342\353,"
 865      E74AB5F8 
 865      2A630EF7 
 865      8C6639E2 
 865      EB2C
 866 075c 4F43BB4E 		.ascii	"OC\273N\236\201i\333Ki\371\017\337\221'\341\203\000"
 866      9E8169DB 
 866      4B69F90F 
 866      DF9127E1 
 866      8300
 867 076e F60B1D4F 		.ascii	"\366\013\035O\002\033.\3115\036&\210\305\001A\207\222"
 867      021B2EC9 
 867      351E2688 
 867      C5014187 
 867      92
 868 077f E5FC7CA1 		.ascii	"\345\374|\241c\360\372\302\253\333\234\360 35\372\360"
 868      63F0FAC2 
 868      ABDB9CF0 
 868      203335FA 
 868      F0
 869 0790 CA8C1B1E 		.ascii	"\312\214\033\036f\214i\252\374\252\026?d\314\265\370"
 869      668C69AA 
 869      FCAA163F 
 869      64CCB5F8 
 870 07a0 A77DCE78 		.ascii	"\247}\316x\2241\265\355\333+D<\301\230\324\372>\223"
 870      9431B5ED 
 870      DB2B443C 
 870      C198D4FA 
 870      3E93
 871 07b2 039E644C 		.ascii	"\003\236dLit\375\214\023~\306\230\244\342\255\341.x"
 871      6974FD8C 
 871      137EC698 
 871      A4E2ADE1 
 871      2E78
 872 07c4 963119F3 		.ascii	"\2261\031\363\343\261:l\3222\317K"
 872      E3B13A6C 
 872      D232CF4B 
 873 07d0 5B8E0A6C 		.ascii	"[\216\012l\370\255\0006\335\274\275\026\263)<E\230\025"
 873      F8AD0036 
 873      DDBCBD16 
 873      B3293C45 
 873      9815
 874 07e2 5C77B475 		.ascii	"\\w\264u\034\022\320\012\372Y\342\005_G\211\267}Ec_"
 874      1C12D00A 
 874      FA59E205 
 874      5F4789B7 
 874      7D45635F 
 875 07f6 F6B60E98 		.ascii	"\366\266\016\230L\273u\324\231$p&[X\"\373\336H#\277"
 875      4CBB75D4 
 875      99247026 
 875      5B5822FB 
 875      DE4823BF 
 876 080a 1ABE34B4 		.ascii	"\032\2764\264\203\271\274Sg\212\363\245\302G\255\205"
 876      83B9BC53 
 876      678AF3A5 
ARM GAS  /tmp/ccErb3td.s 			page 70


 876      C247AD85 
 877 081a 4F53E153 		.ascii	"OS\341SH\226\276\"K\037\266\2266\011V\252;d\341C\266"
 877      4896BE22 
 877      4B1FB696 
 877      360956AA 
 877      3B64E143 
 878 082f 8595AA8B 		.ascii	"\205\225\252\213e\351\343\326\322\336\326\302\255\262"
 878      65E9E3D6 
 878      D2DED6C2 
 878      ADB2
 879 083d 708AB570 		.ascii	"p\212\265p\272\002\365.>\014L\310\010MP\232\251`\027"
 879      BA02F52E 
 879      3E0C4CC8 
 879      084D509A 
 879      A96017
 880 0850 9DE45D20 		.ascii	"\235\344] \315(\007\212!WX\201\262\200\316\000\245\003"
 880      CD28078A 
 880      21575881 
 880      B280CE00 
 880      A503
 881 0862 E5019D06 		.ascii	"\345\001\235\006\312\000\312\004J\023V\320\241\303j"
 881      CA00CA04 
 881      4A1356D0 
 881      A1C36A
 882 0871 657C9F8E 		.ascii	"e|\237\216\324\012(\320\360B\321Xp\025u.\335o2Gb\212"
 882      D40A28D0 
 882      F042D158 
 882      7015752E 
 882      DD6F3247 
 883 0887 EC844D37 		.ascii	"\354\204M7\024\001j\226\2758b\333\013\205p\251,|\314"
 883      14016A96 
 883      BD3862DB 
 883      0B8570A9 
 883      2C7CCC
 884 089a 76A2A830 		.ascii	"v\242\2500\224J\331\323\244=\316\252q\247\024\206\225"
 884      944AD9D3 
 884      A43DCEAA 
 884      71A71486 
 884      95
 885 08ab B265DCF5 		.ascii	"\262e\334\365\226\036\235t\303\305\264\340\360\376\314"
 885      961E9D74 
 885      C3C5B4E0 
 885      F0FECC
 886 08ba 1B4F9CD1 		.ascii	"\033O\234\321\012\257%\254\222:\207?O\353e\225\004\035"
 886      0AAF25AC 
 886      923A873F 
 886      4FEB6595 
 886      041D
 887 08cc D07EB079 		.ascii	"\320~\260y\316\2663,,g\242iX\316\251\303\262\213/\203"
 887      CEB6332C 
 887      2C67A269 
 887      58CEA9C3 
 887      B28B2F83 
 888 08e0 5802A4BE 		.ascii	"X\002\244\276\005\\\031I\300YH@!\0170\031\003\341C\017"
 888      055C1949 
 888      C0594840 
 888      210F3019 
ARM GAS  /tmp/ccErb3td.s 			page 71


 888      03E1430F 
 889 08f4 30AE6163 		.ascii	"0\256ac\340\336`F\207\200\033\030s\340Fe/_\325_ |\341"
 889      E0DE6046 
 889      87801B18 
 889      73E04665 
 889      2F5FD55F 
 890 090b 8DBD513A 		.ascii	"\215\275Q:>\"\3106s\350\311\223\016-\356`\302g\346\323"
 890      3E22C836 
 890      73E8C993 
 890      0E2DEE60 
 890      C267E6D3 
 891 091f B660DCC3 		.ascii	"\266`\334\303\230\231\023M]N\3706c\316\317v\037p\301"
 891      9899134D 
 891      5D4EF836 
 891      63CECF76 
 891      1F70C1
 892 0932 0F29F3B3 		.ascii	"\017)\363\263gw#\037\271\241\025K`\374\350\226\360\377"
 892      6777231F 
 892      B9A1154B 
 892      60FCE896 
 892      F0FF
 893 0944 C97F5E5E 		.ascii	"\311\177^^\344\002\337K\331\235\0250\302t:2\314\274"
 893      E402DF4B 
 893      D99D1530 
 893      C2743A32 
 893      CCBC
 894 0956 56583E70 		.ascii	"VX>p\333\313\213\005\353\372\344\227\227\306X\260\310"
 894      DBCB8B05 
 894      EBFAE497 
 894      97C658B0 
 894      C8
 895 0967 F6A5029E 		.ascii	"\366\245\002\236\272\225\312`e\332\253\311R\250\311"
 895      BA95CA60 
 895      65DAABC9 
 895      52A8C9
 896 0976 125293C5 		.ascii	"\022R\223\305\002\353BB\362\024B2\011u\367\004\3501"
 896      02EB4242 
 896      F2144232 
 896      0975F704 
 896      E831
 897 0988 D004D038 		.ascii	"\320\004\3208\320\030\320(\320\010\320#\240\207@\327"
 897      D018D028 
 897      D008D023 
 897      A08740D7 
 898 0998 80DA812E 		.ascii	"\200\332\201.\003\235\007\272\010t\001\250\212\207\224"
 898      039D07BA 
 898      087401A8 
 898      8A8794
 899 09a7 15CFC13D 		.ascii	"\025\317\301=\257\262\272\204y\257L\260\002\227f]j\363"
 899      AFB2BA84 
 899      79AF4CB0 
 899      0297665D 
 899      6AF3
 900 09b9 AD9E4C9A 		.ascii	"\255\236L\232\354\355\362\254}\311]0+L\356\346\332\253"
 900      ECEDF2AC 
 900      7DC95D30 
 900      2B4CEEE6 
ARM GAS  /tmp/ccErb3td.s 			page 72


 900      DAAB
 901 09cb A150CA6D 		.ascii	"\241P\312m\313S\365\312\232\254Q\325d5\253IUl2\340."
 901      CB53F5CA 
 901      9AAC51D5 
 901      6435AB49 
 901      556C32E0 
 902 09e0 1906A802 		.ascii	"\031\006\250\002\020\327\360\330LCl\236\201\177\365"
 902      10D7F0D8 
 902      4C436C9E 
 902      817FF5
 903 09ef 40B54A1F 		.ascii	"@\265J\037\373z\237\205$D\230jW\241:@Q\215\260\312\202"
 903      FB7A9F85 
 903      2444986A 
 903      57A13A40 
 903      518DB0CA 
 904 0a04 6A2E53C2 		.ascii	"j.S\302\270\244\202Q\367<\0303`\372\2050\314O\365\246"
 904      B8A48251 
 904      F73C1833 
 904      60FA8530 
 904      CC4FF5A6 
 905 0a18 282D6A00 		.ascii	"(-j\000\014\331\2661,\210D\243\012\002\351\311\306\217"
 905      0CD9B631 
 905      2C8844A3 
 905      0A02E9C9 
 905      C68F
 906 0a2a ED429902 		.ascii	"\355B\231\002\313\377O\205b\"\205\034R7\026I\013\271"
 906      CBFF4F85 
 906      6222851C 
 906      52371649 
 906      0BB9
 907 0a3c 098C5CE4 		.ascii	"\011\214\\\344\311\264,r\252\354\025\262E\342\012`j"
 907      C9B42C72 
 907      AAEC15B2 
 907      45E20A60 
 907      6A
 908 0a4d E1F8DAE0 		.ascii	"\341\370\332\340w+\330hVE(9\232\227\013q\265\026,\264"
 908      772BD868 
 908      56452839 
 908      9A970B71 
 908      B5162CB4 
 909 0a61 D899EB99 		.ascii	"\330\231\353\231\001\263\225\201\032\336\303\276\201"
 909      01B39581 
 909      1ADEC3BE 
 909      81
 910 0a6e C44B74AA 		.ascii	"\304Kt\252l\340u\260P\275b\332J`\323V\213z\332b\353"
 910      6CE075B0 
 910      50BD62DA 
 910      4A60D356 
 910      8B7ADA62 
 911 0a83 B61BD3EB 		.ascii	"\266\033\323\353\022w\207\301\272\215\204\242N^I\023"
 911      127787C1 
 911      BA8D84A2 
 911      4E5E4913 
 912 0a93 613960FF 		.ascii	"a9`\377\\\307G~\007H]\262\256\376*9\347\266\347\302"
 912      5CC7477E 
 912      07485DB2 
 912      AEFE2A39 
ARM GAS  /tmp/ccErb3td.s 			page 73


 912      E7B6E7C2 
 913 0aa7 ABE04217 		.ascii	"\253\340B\027w\247\033~w\252\\\231\336\252\210\025q"
 913      77A71B7E 
 913      77AA5C99 
 913      DEAA8815 
 913      71
 914 0ab8 A6CBB633 		.ascii	"\246\313\2663\266u\327\363\016\326\272\231\353S[\251"
 914      B675D7F3 
 914      0ED6BA99 
 914      EB535BA9 
 915 0ac8 EB5DB65D 		.ascii	"\353]\266]\017\331\032\005\313G\352T\203\354z\227\312"
 915      0FD91A05 
 915      CB47EA54 
 915      83EC7A97 
 915      CA
 916 0ad9 F53FD672 		.ascii	"\365?\326r\327{\204\245\350\262\265\353\215\212Z\331"
 916      D77B84A5 
 916      E8B2B5EB 
 916      8D8A5AD9 
 917 0ae9 6D0B9F86 		.ascii	"m\013\237\206\366#\340\036\000\270\373\220\307{@\303"
 917      F623E01E 
 917      00B8FB90 
 917      C77B40C3 
 918 0af9 408340B7 		.ascii	"@\203@\267\201n\000\365\002]W\005ew+\315/\231i\233\300"
 918      816E00F5 
 918      025D5705 
 918      65772BCD 
 918      2F99699B 
 919 0b0e 285162F7 		.ascii	"(Qb\367\031;\036\253\230\233\232_$\335\334D5\367\201"
 919      193B1EAB 
 919      989B9A5F 
 919      24DDDC44 
 919      35F781
 920 0b21 6C8B7D59 		.ascii	"l\213}Y\345\340\355W\015\336>\033\363G?\334\355#\012"
 920      E5E0ED57 
 920      0DDE3E1B 
 920      F3473FDC 
 920      ED230A
 921 0b34 6E80C67E 		.ascii	"n\200\306~\236\215\001p\370\0268vS5\372\246\3466\356"
 921      9E8D0170 
 921      F8163876 
 921      5335FAA6 
 921      E636EE
 922 0b47 4BDD4210 		.ascii	"K\335B\020\220\023\213V.ok\376\240\362\346\253\016d"
 922      90138B56 
 922      2E6F6BFE 
 922      A0F2E6AB 
 922      0E64
 923 0b59 AE21D5D9 		.ascii	"\256!\325\331\313e-\243\304\272\316\273\217 \222\354"
 923      CB652DA3 
 923      C4BACEBB 
 923      8F2092EC 
 924 0b69 FE05AB16 		.ascii	"\376\005\253\026\232\310\215\245<\221\344\010\342\346"
 924      9AC88DA5 
 924      3C91E408 
 924      E2E6
 925 0b77 8BA2142F 		.ascii	"\213\242\024/\305t\010\3424\370rq\272\003\242r\234\206"
ARM GAS  /tmp/ccErb3td.s 			page 74


 925      C57408E2 
 925      34F87271 
 925      BA03A272 
 925      9C86
 926 0b89 589CECCD 		.ascii	"X\234\354\315\202\350.\204G\236\010\245\222\374U\315"
 926      82E82E84 
 926      479E08A5 
 926      92FC55CD 
 927 0b99 66529244 		.ascii	"fR\222D\325\220\\\222\015T\227\364\034\376c\311\004"
 927      D5905C92 
 927      0D5497F4 
 927      1CFE63C9 
 927      04
 928 0baa F3049E74 		.ascii	"\363\004\236tw\236\353\010\011\312e\376\240#n\337}\221"
 928      779EEB08 
 928      09CA65FE 
 928      A0236EDF 
 928      7D91
 929 0bbc 74F1655A 		.ascii	"t\361eZ\034Dv\330\276,\013\367\301\3134\334 \263p\221"
 929      1C4476D8 
 929      BE2C0BF7 
 929      C1CB34DC 
 929      20B37091 
 930 0bd0 D85EEF99 		.ascii	"\330^\357\231`2\207az\352p\237\217\032\276\221bc\346"
 930      60328761 
 930      7AEA709F 
 930      8F1ABE91 
 930      6263E6
 931 0be3 9E725D5C 		.ascii	"\236r]\\\357j\312\371\222\236\033<\265%\373\266,\232"
 931      EF6ACAF9 
 931      929E1B3C 
 931      B525FBB6 
 931      2C9A
 932 0bf5 C744C9BE 		.ascii	"\307D\311\276\177\306\226\250\"\205\373\267\363\024"
 932      7FC696A8 
 932      2285FBB7 
 932      F314
 933 0c03 C2D61285 		.ascii	"\302\326\022\205Y\257\010\026\256\316\237\260)\025\266"
 933      59AF0816 
 933      AECE9FB0 
 933      2915B6
 934 0c12 6C68A76D 		.ascii	"lh\247mi\205\362.y\376\335g-\254\\\235\363m\202,\235"
 934      6985F22E 
 934      79FEDD67 
 934      2DAC5C9D 
 934      F36D822C 
 935 0c27 605B5A91 		.ascii	"`[Z\221\203\266K<cd\371\230h-\276p\303\322\314\224\223"
 935      83B64B3C 
 935      6364F998 
 935      682DBE70 
 935      C3D2CC94 
 936 0c3c 854C916D 		.ascii	"\205L\221mi\205\362\362_\023Yi8U>o8\225\261\307F\245"
 936      6985F2F2 
 936      5F135969 
 936      38553E6F 
 936      3895B1C7 
 937 0c52 EDB9F3CB 		.ascii	"\355\271\363\313\223[I\241\222\222.\227\267\223\225"
ARM GAS  /tmp/ccErb3td.s 			page 75


 937      935B49A1 
 937      92922E97 
 937      B79395
 938 0c61 8AB9F3C6 		.ascii	"\212\271\363\306\263\317\023RMJs5\31737\356K\254\325"
 938      B3CF1352 
 938      4D4A7335 
 938      CF3337EE 
 938      4BACD5
 939 0c74 D8B066EE 		.ascii	"\330\260f\356\276M+\215\254c\314\262\255\032j\013\226"
 939      BE4D2B8D 
 939      AC63CCB2 
 939      AD1A6A0B 
 939      96
 940 0c85 BB3B1377 		.ascii	"\273;\023w\214;\342\031\376Z\344\344\336|'\034\346\304"
 940      8C3BE219 
 940      FE5AE4E4 
 940      DE7C271C 
 940      E6C4
 941 0c97 4E8FEA27 		.ascii	"N\217\352'GE\274\2311c\303G\373=p\024c\032/\266%:\342"
 941      4745BC99 
 941      3163C347 
 941      FB3D7014 
 941      631A2FB6 
 942 0cae 58CA8803 		.ascii	"X\312\210\003\247\363;0rf\347\012^[\351\336?<e\3717"
 942      A7F33B30 
 942      7266E70A 
 942      5E5BE9DE 
 942      3F3C65F9 
 943 0cc3 96BDFF66 		.ascii	"\226\275\377f\354\205\302\2613\030\215\300\236(\022"
 943      EC85C2B1 
 943      33188DC0 
 943      9E2812
 944 0cd2 7BD26305 		.ascii	"{\322c\005\322B\217\032\026\321\237\212\363\010`Q\030"
 944      D2428F1A 
 944      16D19F8A 
 944      F3086051 
 944      18
 945 0ce3 B69C4728 		.ascii	"\266\234G(\336\274|\266\360\315\313g\354H\351\370\324"
 945      DEBC7CB6 
 945      F0CDCB67 
 945      EC48E9F8 
 945      D4
 946 0cf4 A3B33A1C 		.ascii	"\243\263:\034O\021\011)1Yw\035\344#\274\243\037\226"
 946      4F110929 
 946      3159771D 
 946      E423BCA3 
 946      1F96
 947 0d06 F492C395 		.ascii	"\364\222\303\225h\354\202\266aK\004>\263\377\332 \012"
 947      68EC82B6 
 947      614B043E 
 947      B3FFDA20 
 947      0A
 948 0d17 107FC64F 		.ascii	"\020\177\306Oj\266\002\346-\230\236W\314m)5\271c\223"
 948      6AB602E6 
 948      2D989E57 
 948      CC6D2935 
 948      B96393
ARM GAS  /tmp/ccErb3td.s 			page 76


 949 0d2a 33B5B8F7 		.ascii	"3\265\270\367N\215z\017E\016!\345\011l\007\226\366P"
 949      4E8D7A0F 
 949      450E21E5 
 949      096C0796 
 949      F650
 950 0d3c 47EEE566 		.ascii	"G\356\345f9\340-\254W\325\346\315\277\307;\330\357\324"
 950      39E02DAC 
 950      57D5E6CD 
 950      BFC73BD8 
 950      EFD4
 951 0d4e C8926E67 		.ascii	"\310\222ng\034\307\230\266\301#\221\374\275S3U\177\246"
 951      1CC798B6 
 951      C12391FC 
 951      BD533355 
 951      7FA6
 952 0d60 EA0DFE92 		.ascii	"\352\015\376\222\313\201\274\261\310\275Q\353\212\023"
 952      CB81BCB1 
 952      C8BD51EB 
 952      8A13
 953 0d6e A8ACDBFC 		.ascii	"\250\254\333\374\315\023\235\010I\273\014\305\346~*"
 953      CD139D08 
 953      49BB0CC5 
 953      E67E2A
 954 0d7d DD376168 		.ascii	"\3357ah3\031\342$\206&\3605\031[\206\270\325\300\202"
 954      3319E224 
 954      8626F035 
 954      195B86B8 
 954      D5C082
 955 0d90 CA88FB98 		.ascii	"\312\210\373\230\324\027)\014\330\335QQ\313Rv\301|0"
 955      D417290C 
 955      D8DD5151 
 955      CB5276C1 
 955      7C30
 956 0da2 7E17B171 		.ascii	"~\027\261q\005\216\241\030\256\331\316H\001\361\011"
 956      058EA118 
 956      AED9CE48 
 956      01F109
 957 0db1 BAC825B2 		.ascii	"\272\310%\262\333m\313\252\266\007\267\271n\222!\362"
 957      DB6DCBAA 
 957      B607B7B9 
 957      6E9221F2 
 958 0dc1 5053C92F 		.ascii	"PS\311/\330\350^SB\211\265Vo\375,\352\265 \331iST\011"
 958      D8E85E53 
 958      4289B556 
 958      6FFD2CEA 
 958      B520D969 
 959 0dd8 645A0242 		.ascii	"dZ\002B\236 \363\202\225\270b\032S=\277wA\205\304ar"
 959      9E20F382 
 959      95B8621A 
 959      533DBF77 
 959      4185C461 
 960 0ded 8F889387 		.ascii	"\217\210\223\207\367\001\250\237D\274\002\355\007\212"
 960      F701A89F 
 960      44BC02ED 
 960      078A
 961 0dfb 07DA0794 		.ascii	"\007\332\007\224\000\264\007(\011\350\020\320^\240\303"
 961      00B40728 
ARM GAS  /tmp/ccErb3td.s 			page 77


 961      09E810D0 
 961      5EA0C3
 962 0e0a 4007B172 		.ascii	"@\007\261r\311\325\255'c\025\364,x\010\233\343\253="
 962      C9D5AD27 
 962      6315F42C 
 962      78089BE3 
 962      AB3D
 963 0e1c C3283892 		.ascii	"\303(8\222\260\335\330*a\013\366h3\324o\342\310\234"
 963      B0DDD82A 
 963      610BF668 
 963      33D46FE2 
 963      C89C
 964 0e2e 6D479495 		.ascii	"mG\224\225\260\333R\011Y\310Jq\246\352\350\340\366t"
 964      B0DB5209 
 964      59C84A71 
 964      A6EAE8E0 
 964      F674
 965 0e40 FB61177C 		.ascii	"\373a\027|\236\326\241\020=\270\275\302\021-\361\262"
 965      9ED6A110 
 965      3DB8BDC2 
 965      112DF1B2 
 966 0e50 190D7414 		.ascii	"\031\015t\024\202\360\177\017Hn5\235\275\216\200\242"
 966      82F07F0F 
 966      486E359D 
 966      BD8E80A2 
 967 0e60 1479EC92 		.ascii	"\024y\354\222\000Q<)\211\221\021\016\252ax\004+\327"
 967      00513C29 
 967      8991110E 
 967      AA617804 
 967      2BD7
 968 0e72 5BC7D830 		.ascii	"[\307\3300$W\220>=6qZ\313\006\031\231C\006kGg\\]\024"
 968      2457903E 
 968      3D36715A 
 968      CB061999 
 968      43066B47 
 969 0e8a 2F62C80D 		.ascii	"/b\310\015\271\357\011L\316+\275=\321q6\374M\307\243"
 969      B9EF094C 
 969      CE2BBD3D 
 969      D17136FC 
 969      4DC7A3
 970 0e9d 07C5C571 		.ascii	"\007\305\305q\334\331\177Ft\304Kq\322\240\223x\261\324"
 970      DCD97F46 
 970      74C44B71 
 970      D2A09378 
 970      B1D4
 971 0eaf 89480F3D 		.ascii	"\211H\017=\270S\340\244B\006\002\012\355\251\034Y*E"
 971      B853E0A4 
 971      4206020A 
 971      EDA91C59 
 971      2A45
 972 0ec1 9664DA72 		.ascii	"\226d\332r\032\333\207rJ\202\222\316\216\336\267\325"
 972      1ADB8772 
 972      4A8292CE 
 972      8EDEB7D5 
 973 0ed1 F4B6F3B7 		.ascii	"\364\266\363\267O\257\000\233\331X\323\303\317\376\266"
 973      4FAF009B 
 973      D958D3C3 
ARM GAS  /tmp/ccErb3td.s 			page 78


 973      CFFEB6
 974 0ee0 9157348F 		.ascii	"\221W4\217'\263c\334\254\221\246Cb\322h\231fP\244\247"
 974      27B363DC 
 974      AC91A643 
 974      62D26899 
 974      6650A4A7 
 975 0ef4 24A407DB 		.ascii	"$\244\007\333o\3069\333:\264\265\363\272\244=\255bB"
 975      6FC639DB 
 975      3AB4B5F3 
 975      BAA43DAD 
 975      6242
 976 0f06 A7D49E89 		.ascii	"\247\324\236\211\237\243=l\340\361\234:CY\2528\234\346"
 976      9FA33D6C 
 976      E0F19C3A 
 976      4359AA38 
 976      9CE6
 977 0f18 71384DE3 		.ascii	"q8M\3430;\322<\313\247A\027r\236\2341_\250\265\037\226"
 977      303BD23C 
 977      CBA74117 
 977      729E9C31 
 977      5FA8B51F 
 978 0f2d 1C292CD9 		.ascii	"\034),\331,C\235\335\221E<,\256\344\365h\177|\2053\013"
 978      2C439DDD 
 978      91453C2C 
 978      AEE4F568 
 978      7F7C8533 
 979 0f42 4B17B9DD 		.ascii	"K\027\271\335q?a+R\002''\337y\000<\227\002?C\201S\235"
 979      713F612B 
 979      52022727 
 979      DF79003C 
 979      97023F43 
 980 0f59 94213DCC 		.ascii	"\224!=\314c7\325'\324gT\340\3639\370|\012>\267o\246"
 980      6337D527 
 980      D46754E0 
 980      F339F87C 
 980      0A3EB76F 
 981 0f6e 5464E649 		.ascii	"Td\346I\347\207\246\326\323n\366\301\027J\340\013\030"
 981      E787A6D6 
 981      D36EF6C1 
 981      174AE00B 
 981      18
 982 0f7f F889A22D 		.ascii	"\370\211\242-\317\370\373\340%\300\326\205\307\244\362"
 982      CFF8FBE0 
 982      25C0D685 
 982      C7A4F2
 983 0f8e D3AB4492 		.ascii	"\323\253D\222\323\346\007\271\363Zk\360\347\000\374"
 983      D3E607B9 
 983      F35A6BF0 
 983      E700FC
 984 0f9d 590ABE   		.ascii	"Y\012\276"
 985 0fa0 88822F64 		.ascii	"\210\202/d\340\213(\370\315\3451\321\352\310\027\251"
 985      E08B28F8 
 985      CDE531D1 
 985      EAC817A9 
 986 0fb0 C01773F0 		.ascii	"\300\027s\360\305\024|F\341\211b\036;g`\273g\217\246"
 986      C5147C46 
 986      E189621E 
ARM GAS  /tmp/ccErb3td.s 			page 79


 986      3B6760BB 
 986      678FA6
 987 0fc3 3C676C94 		.ascii	"<gl\224J\340K\030x\351\361\265\224?\276\302\023\363"
 987      4AE04B18 
 987      78E9F1B5 
 987      943FBEC2 
 987      13F3
 988 0fd5 27056BB4 		.ascii	"'\005k\264e\230eJ\203\312)\332R\206\266\234\242m\357"
 988      6598654A 
 988      83CA29DA 
 988      5286B69C 
 988      A26DEF
 989 0fe8 CE98528F 		.ascii	"\316\230R\217\227r\025\332\012\216\266\202\242=\237"
 989      977215DA 
 989      0A8EB682 
 989      A23D9F
 990 0ff7 38F2C4DD 		.ascii	"8\362\304\335Z\277\\\203f"
 990      5ABF5C83 
 990      66
 991 1000 450D1206 		.ascii	"E\015\022\006z\304<5\317\272\251\364\233U\372\317s\375"
 991      7AC43C35 
 991      CFBAA9F4 
 991      9B55FACF 
 991      73FD
 992 1012 E7A9FEB2 		.ascii	"\347\251\376\262\266\351\313\3425\324\215\004hZD\347"
 992      B6E9CBE2 
 992      35D48D04 
 992      685A44E7 
 993 1022 2384D837 		.ascii	"#\204\3307\242\244aDY\370!\320o\215\334\204$A\316\013"
 993      A2A46144 
 993      59F821D0 
 993      6F8DDC84 
 993      2441CE0B 
 994 1036 D24F8D45 		.ascii	"\322O\215E\031\375\237\367\247\177\325H?T\211\254\035"
 994      19FD9FF7 
 994      A77FD548 
 994      3F5489AC 
 994      1D
 995 1047 F14E8CE7 		.ascii	"\361N\214\347\2355\210\363\202l\0001V\352\240\320\307"
 995      9D3588F3 
 995      826C0031 
 995      56EAA0D0 
 995      C7
 996 1058 E0727532 		.ascii	"\340ru2f\213OHZf\235\355\252}\250\303\265lA2[\227\234"
 996      668B4F48 
 996      5A669DED 
 996      AA7DA8C3 
 996      B56C4132 
 997 106f 242CDBC7 		.ascii	"$,\333\307\013`\271\250|C\242A\027\3602\370^#\262\216"
 997      0B60B9A8 
 997      7C43A241 
 997      17F032F8 
 997      5E23B28E 
 998 1083 B135771E 		.ascii	"\2615w\036:\277\221b2\347\230\372\366d\177\323X\014"
 998      3ABF9162 
 998      32E798FA 
 998      F6647FD3 
ARM GAS  /tmp/ccErb3td.s 			page 80


 998      580C
 999 1095 3BACC522 		.ascii	";\254\305\"\021BU\362\244]E\327t\250\022_\003\373\027"
 999      114255F2 
 999      A45D45D7 
 999      74A8125F 
 999      03FB17
 1000 10a8 F11B64EA 		.ascii	"\361\033d\352\031\232\012w\304\007\330\032.soX\244\216"
 1000      199A0A77 
 1000      C407D81A 
 1000      2E736F58 
 1000      A48E
 1001 10ba 69318F54 		.ascii	"i1\217T\303\262<\214d\226(\251\226\225T+\225\324P%\375"
 1001      C3B23C8C 
 1001      649628A9 
 1001      9695542B 
 1001      95D45025 
 1002 10cf 19F99D5A 		.ascii	"\031\371\235Z\\\340\362\022\260\353T\260\023\342\223"
 1002      5CE0F212 
 1002      B0EB54B0 
 1002      13E293
 1003 10de 9A396CF3 		.ascii	"\2329l\363\2256\3356b\360K\"\203je\203\265J\203\227"
 1003      9536DD36 
 1003      62F04B22 
 1003      836A6583 
 1003      B54A8397 
 1004 10f2 A8C1A1D4 		.ascii	"\250\301\241\324\360S\256\270\223\031\3547U\316z0%\246"
 1004      F053AEB8 
 1004      9319EC37 
 1004      55CE7A30 
 1004      25A6
 1005 1104 3C780446 		.ascii	"<x\004F\232La\002E]/+\251W*i\240J\"\216\2156;\341\261"
 1005      9A4C6102 
 1005      455D2F2B 
 1005      A9572A69 
 1005      A04A228E 
 1006 111d 97417D59 		.ascii	"\227A}Y\205z0\371\270\311\225\243~Z-\241\006\031\324"
 1006      857A30F9 
 1006      B8C995A3 
 1006      7E5A2DA1 
 1006      0619D4
 1007 1130 281B6C54 		.ascii	"(\033lT\032l\242\006w\365\230S\035\360^W\366G\002\355"
 1007      1A6CA206 
 1007      77F59853 
 1007      1DF05E57 
 1007      F64702ED 
 1008 1144 E7EEBBD9 		.ascii	"\347\356\273\331D\335,+iV*ia\261N\211\030v\300\331L"
 1008      44DD2C2B 
 1008      69562A69 
 1008      61B14E89 
 1008      1876C0D9 
 1009 1159 495769C3 		.ascii	"IWi\303\004\026\311\010!\0137\300\007m9\227\023\373"
 1009      0416C908 
 1009      210B37C0 
 1009      076D3997 
 1009      13FB
 1010 116b DD691B59 		.ascii	"\335i\033Yr\265a\3328\225\0366\317\032\3419\214\256"
 1010      72B561DA 
ARM GAS  /tmp/ccErb3td.s 			page 81


 1010      38951E36 
 1010      CF1AE139 
 1010      8CAE
 1011 117d B0C65D3B 		.ascii	"\260\306];j\312\334\354\372\334A}n\307\334\351\343}"
 1011      6ACADCEC 
 1011      FADC417D 
 1011      6EC7DCE9 
 1011      E37D
 1012 118f 89771C01 		.ascii	"\211w\034\001o\037Y\320\247\177\230\2263`\332\266\230"
 1012      6F1F59D0 
 1012      A77F9896 
 1012      3360DAB6 
 1012      98
 1013 11a0 4AA15619 		.ascii	"J\241V\031p+\3375\240N\0126*\276\037vWf\006\366I]B\206"
 1013      702BDF35 
 1013      A04E0A36 
 1013      2ABE1F76 
 1013      576606F6 
 1014 11b8 1B6EA38C 		.ascii	"\033n\243\214p|\367#\263\374\307Y{*>9L_\277^\0037\272"
 1014      707CF723 
 1014      B3FCC759 
 1014      7B2A3E39 
 1014      4C5FBF5E 
 1015 11cf F14BFD65 		.ascii	"\361K\375e\321Ul\363/\213rk\247w:RO\257YB\222\2613\346"
 1015      D1556CF3 
 1015      2F8B726B 
 1015      A7773A52 
 1015      4FAF5942 
 1016 11e7 B4AB254C 		.ascii	"\264\253%L=\314\373\273=ggt\252\351\210<Ee\377{-\373"
 1016      3DCCFBBB 
 1016      3D676774 
 1016      AAE9883C 
 1016      4565FF7B 
 1017 11fd 8789C289 		.ascii	"\207\211\302\211-\210v\2076t\235u?|\367p\246\316\022"
 1017      2D887687 
 1017      36749D75 
 1017      3F7CF770 
 1017      A6CE12
 1018 1210 D11BAC71 		.ascii	"\321\033\254q[\376\\\262\2072\242\321*\225\3754\244"
 1018      5BFE5CB2 
 1018      8732A2D1 
 1018      2A95FD34 
 1018      A4
 1019 1221 7D52482B 		.ascii	"}RH+\363\022\376l\211\350o\323\362YDA\010u\311!\350"
 1019      F312FE6C 
 1019      89E86FD3 
 1019      F2594441 
 1019      0875C921 
 1020 1236 92227A93 		.ascii	"\222\"z\223F\264| =V\207\303u4\242uU\365\341,\375d\327"
 1020      46B47C20 
 1020      3D5687C3 
 1020      7534A275 
 1020      55F5E12C 
 1021 124d CF7C4DAF 		.ascii	"\317|M\257\256Le`\311\016d\200\341z\324\324\237\351"
 1021      AE4C6560 
 1021      C90E6480 
 1021      E17AD4D4 
ARM GAS  /tmp/ccErb3td.s 			page 82


 1021      9FE9
 1022 125f A8C445EE 		.ascii	"\250\304E\356\311\270\006)\256\333\022\256\371\226\221"
 1022      C9B80629 
 1022      AEDB12AE 
 1022      F99691
 1023 126e 691D0756 		.ascii	"i\035\007Vq\363\267\347x\252A\012\335\222\201\335\222"
 1023      71F3B7E7 
 1023      78AA410A 
 1023      DD9281DD 
 1023      92
 1024 127f 800D5160 		.ascii	"\200\015Q`\267\017\015d\272\340L\006\354\305I\270\313"
 1024      B70F0D64 
 1024      BAE04C06 
 1024      ECC549B8 
 1024      CB
 1025 1290 80450EB5 		.ascii	"\200E\016\265u\312\305:\314\032\033\217?\253\302\226"
 1025      75CAC53A 
 1025      CC1A1B8F 
 1025      3FABC296 
 1026 12a0 D0DE638D 		.ascii	"\320\336c\215\207F\237\306\271\332\017\355\003\352\302"
 1026      87469FC6 
 1026      B9DA0FED 
 1026      03EAC2
 1027 12af 7DC985F8 		.ascii	"}\311\205\370\301\251iwKl}\245\330\202\024\272#\273"
 1027      C1A96977 
 1027      4B6C7DA5 
 1027      D88214BA 
 1027      23BB
 1028 12c1 704772E1 		.ascii	"pGr\341!u\241\245\270\255\336\015\2273\0276'D7`|\221"
 1028      2175A1A5 
 1028      B8ADDE0D 
 1028      97331736 
 1028      27443760 
 1029 12d7 31E9FB32 		.ascii	"1\351\3732GI\262\321\010\355A0f\337\335\256\305\227"
 1029      4749B2D1 
 1029      08ED4130 
 1029      66DFDDAE 
 1029      C597
 1030 12e9 D8ED9B7D 		.ascii	"\330\355\233};O\222\230\2431\270\215F\031\340\2340s"
 1030      3B4F9298 
 1030      A331B88D 
 1030      4619E09C 
 1030      3073
 1031 12fb AA1B6E62 		.ascii	"\252\033nb\022\267\266\264\227\023\347\321\004\221\030"
 1031      12B7B6B4 
 1031      9713E7D1 
 1031      049118
 1032 130a 6712B646 		.ascii	"g\022\266FoW\177\345]\221\266}\252COx\366\256^\230\027"
 1032      6F577FE5 
 1032      5D91B67D 
 1032      AA434F78 
 1032      F6AE5E98 
 1033 131f A4B649D6 		.ascii	"\244\266I\3266\321\263\277\324\001w2\355e\217\257\327"
 1033      36D1B3BF 
 1033      D4017732 
 1033      ED658FAF 
 1033      D7
ARM GAS  /tmp/ccErb3td.s 			page 83


 1034 1330 11013425 		.ascii	"\021\0014%\301\333\036\3610L\247\214\326\347\226`\241"
 1034      C1DB1EF1 
 1034      304CA78C 
 1034      D6E79660 
 1034      A1
 1035 1341 67A0014D 		.ascii	"g\240\001M\323x=\225\342U\222s|\020\223x\305\231\372"
 1035      D3783D95 
 1035      E2559273 
 1035      7C109378 
 1035      C599FA
 1036 1354 E6077F3B 		.ascii	"\346\007\177;\236g\212\2142%\232\226_\025\210$z$\305"
 1036      9E678A8C 
 1036      32259A96 
 1036      5F158824 
 1036      7A24C5
 1037 1367 0C3DC622 		.ascii	"\014=\306\"\341X\330fh\330\322\263N\0248\342\0027\012"
 1037      E158D866 
 1037      68D8D2B3 
 1037      4E1438E2 
 1037      02370A
 1038 137a 252FA2F1 		.ascii	"%/\242\361\277,\251c.\245\355+u\267;\313\314S\034s\022"
 1038      BF2CA963 
 1038      2EA5ED2B 
 1038      75B73BCB 
 1038      CC531C73 
 1039 138f 8EA6F16B 		.ascii	"\216\246\361k\357[\322\366\2114\311\200\020\232\225"
 1039      EF5BD2F6 
 1039      8934C980 
 1039      109A95
 1040 139e D3362BD9 		.ascii	"\3236+\3317\211\304~_\363!\330`\235g\366\333#7\017\342"
 1040      3789C47E 
 1040      5FF321D8 
 1040      609D67F6 
 1040      DB23370F 
 1041 13b3 EF1F3399 		.ascii	"\357\0373\231A\311\356\354M`\366WtC\022&\322\356\212"
 1041      41C9EEEC 
 1041      4D60F657 
 1041      74431226 
 1041      D2EE8A
 1042 13c6 AD2269F9 		.ascii	"\255\"i\371=9\354\020\277\017\375\012\3123c\035X?\363"
 1042      3D39EC10 
 1042      BF0FFD0A 
 1042      CA33631D 
 1042      583FF3
 1043 13d9 F52308F6 		.ascii	"\365#\010\366y\"\335.\3042\263\212]F,\261\216\"h\257"
 1043      7922DD2E 
 1043      C432B38A 
 1043      5D462CB1 
 1043      8E2268AF 
 1044 13ed D3E7365F 		.ascii	"\323\3476_F\257\327\270\0356%.'\253j\272\004\2568\032"
 1044      46AFD7B8 
 1044      1D36252E 
 1044      27AB6ABA 
 1044      04AE381A 
 1045 1401 86713783 		.ascii	"\206q7\203s\251\2617\216\300i\006\265\343EL-Y}o\346"
 1045      73A9B137 
 1045      8EC06906 
ARM GAS  /tmp/ccErb3td.s 			page 84


 1045      B5E3454C 
 1045      2D597D6F 
 1046 1416 70E40513 		.ascii	"p\344\005\023i\211\024_\327\240-TsOR]%\302\203L\313"
 1046      6989145F 
 1046      D7A02D54 
 1046      734F525D 
 1046      25C2834C 
 1047 142b 7041649A 		.ascii	"pAd\232+hI\011\247\0032\273\225\204\205\234\217l\345"
 1047      2B684909 
 1047      A70332BB 
 1047      9584859C 
 1047      8F6CE5
 1048 143e 6AE47842 		.ascii	"j\344xB\013|o\243:*c\256L\272\342\021\246#5cd\257\003"
 1048      0B7C6FA3 
 1048      3A2A63AE 
 1048      4CBAE211 
 1048      A6233563 
 1049 1455 DEE6CEDE 		.ascii	"\336\346\316\336\332\266\267\334q\302;\0313};{H=\021"
 1049      DAB6B7DC 
 1049      71C23B19 
 1049      337D3B7B 
 1049      483D11
 1050 1468 92A790E2 		.ascii	"\222\247\220\342 E\224&\302\204\306\250s\002N`\335\332"
 1050      20459426 
 1050      C284C6A8 
 1050      73024E60 
 1050      DDDA
 1051 147a E74ED4BB 		.ascii	"\347N\324\273\343\203\224\321\306\014\235\277\346D\017"
 1051      E38394D1 
 1051      C60C9DBF 
 1051      E6440F
 1052 1489 44F8CB69 		.ascii	"D\370\313i\363\341-n\374\214@\324\241\355\200s\257\370"
 1052      F3E12D6E 
 1052      FC8C40D4 
 1052      A1ED8073 
 1052      AFF8
 1053 149b BCE38A03 		.ascii	"\274\343\212\003\325\364\024\220\010\307X\013/8%H\256"
 1053      D5F41490 
 1053      08C7580B 
 1053      2F382548 
 1053      AE
 1054 14ac F660BAA5 		.ascii	"\366`\272\245\303\316\205\342\012\325\271J$;m#a\332"
 1054      C3CE85E2 
 1054      0AD5B94A 
 1054      243B6D23 
 1054      61DA
 1055 14be D986777F 		.ascii	"\331\206w\1775=8\004\251\205\257\311M\352\027\216\032"
 1055      353D3804 
 1055      A985AFC9 
 1055      4DEA178E 
 1055      1A
 1056 14cf AA8B6460 		.ascii	"\252\213d`\217\350\205v\211+P\034P,\320n\321\362\276"
 1056      8FE88576 
 1056      892B501C 
 1056      502CD06E 
 1056      D1F2BE
 1057 14e2 BCFB54D7 		.ascii	"\274\373T\327\000\306'h\240\204\246gW\252\334\221\327"
ARM GAS  /tmp/ccErb3td.s 			page 85


 1057      00C62768 
 1057      A084A667 
 1057      57AADC91 
 1057      D7
 1058 14f3 12FE469E 		.ascii	"\022\376F\236\355\255\023@I\274h\251ob\331\336\033\316"
 1058      EDAD1340 
 1058      49BC68A9 
 1058      6F62D9DE 
 1058      1BCE
 1059 1505 7D60E725 		.ascii	"}`\347%l\266<nor\\\302U\230\355\252\320\330\353\237"
 1059      6CB63C6E 
 1059      6F725CC2 
 1059      5598EDAA 
 1059      D0D8EB9F 
 1060 1519 B123FD92 		.ascii	"\261#\375\222z\333\225(*w\365\373-5Q\366\344T\213\243"
 1060      7ADB9528 
 1060      2A77F5FB 
 1060      2D3551F6 
 1060      E4548BA3 
 1061 152d 2419F73C 		.ascii	"$\031\367<\311\336\334\301\375\036*\235I\242\362\215"
 1061      C9DEDCC1 
 1061      FD1E2A9D 
 1061      49A2F28D 
 1062 153d 43B22429 		.ascii	"C\262$)\366UO\2478\240%+\274V\330|\277\250A\007x\004"
 1062      F6554FA7 
 1062      38A0252B 
 1062      BC56D87C 
 1062      BFA84107 
 1063 1553 0E812B07 		.ascii	"\016\201+\007\001\371aQ\371\362\251b\313w\325\345q\300"
 1063      01F96151 
 1063      F9F2A962 
 1063      CB77D5E5 
 1063      71C0
 1064 1565 7679F073 		.ascii	"vy\360sb\226\356\003\242\215?\026i\331\362\032\323\004"
 1064      6296EE03 
 1064      A28D3F16 
 1064      69D9F21A 
 1064      D304
 1065 1577 D850B468 		.ascii	"\330P\264hK\023\253\034po4;\272\311\003\347\2604\227"
 1065      4B13AB1C 
 1065      706F343B 
 1065      BAC903E7 
 1065      B03497
 1066 158a F5E59E72 		.ascii	"\365\345\236r\263\244\271\215\245\371(tN\221\323|@\221"
 1066      B3A4B98D 
 1066      A5F92874 
 1066      4E91D37C 
 1066      4091
 1067 159c 662B0FD1 		.ascii	"f+\017\321\021p\314\236\223`k<e\370\220\007O\257\331"
 1067      1170CC9E 
 1067      93606B3C 
 1067      65F89007 
 1067      4FAFD9
 1068 15af 6CB7ABC6 		.ascii	"l\267\253\306\272_d}\362M\027\230HrR\3106aSO\017\254"
 1068      BA5F647D 
 1068      F24D1798 
 1068      487252C8 
ARM GAS  /tmp/ccErb3td.s 			page 86


 1068      3661534F 
 1069 15c5 3A17A363 		.ascii	":\027\243c \035\305g\0229\306Q|~<\316\346\243\230\254"
 1069      201DC567 
 1069      1239C651 
 1069      7C7E3CCE 
 1069      E6A398AC 
 1070 15d9 3E575CC1 		.ascii	">W\\\301\206\376\305\371I\263\007\333\251\012dZ\030"
 1070      86FEC5F9 
 1070      49B307DB 
 1070      A90A645A 
 1070      18
 1071 15ea 696E75B1 		.ascii	"inu\261\277SM\025\371N\365\244HWh\007\036\347\347)v"
 1071      BF534D15 
 1071      F94EF5A4 
 1071      48576807 
 1071      1EE7E729 
 1072 15ff A6465222 		.ascii	"\246FR\"\226Wp\020Pq\261\324\211\326\327HT\204V)\235"
 1072      96577010 
 1072      5071B1D4 
 1072      89D6D748 
 1072      54845629 
 1073 1614 F43CE9C8 		.ascii	"\364<\351\310\254[\243d\276\035\201\371vv\337\253t\276"
 1073      AC5BA364 
 1073      BE1D81F9 
 1073      7676DFAB 
 1073      74BE
 1074 1626 4D1317A3 		.ascii	"M\023\027\243\023\334=\271\343\011\356^:u\357\321\241"
 1074      13DC3DB9 
 1074      E309EE5E 
 1074      3A75EFD1 
 1074      A1
 1075 1637 E8434EF8 		.ascii	"\350CN\370:s/o\356\326?\3609{\262\325\223\352 5\235"
 1075      3A732F6F 
 1075      EED63FF0 
 1075      397BB2D5 
 1075      93EA2035 
 1076 164c 215A3F0A 		.ascii	"!Z?\0122\270\216L\252\243\244\255\271\302\021\2170\035"
 1076      32B88E4C 
 1076      AAA3A4AD 
 1076      B9C2118F 
 1076      301D
 1077 165e 3523F549 		.ascii	"5#\365I.\\I\363\037Lq\210\252\310Z\240\"\213\2538MU"
 1077      2E5C49F3 
 1077      1F4C7188 
 1077      AAC85AA0 
 1077      228BAB38 
 1078 1674 B48C45D6 		.ascii	"\264\214E\326\252\247\342\016\325T\234\315\206\010\271"
 1078      AAA7E20E 
 1078      D5549CCD 
 1078      8608B9
 1079 1683 92B399E1 		.ascii	"\222\263\231\341[\223\352\277IlR\275\352\314\341\322"
 1079      5B93EABF 
 1079      496C52BD 
 1079      EACCE1D2 
 1080 1693 39547AE6 		.ascii	"9Tz\346Yo\267\253J\3723e\226r\271p.\025\336\276#\241"
 1080      596FB7AB 
 1080      4AFA3365 
ARM GAS  /tmp/ccErb3td.s 			page 87


 1080      9672B970 
 1080      2E15DEBE 
 1081 16a9 1DA984FB 		.ascii	"\035\251\204\373U@\362\270t\036\225n9w\276D-=\250\222"
 1081      5540F2B8 
 1081      741E956E 
 1081      3977BE44 
 1081      2D3DA892 
 1082 16bd 3EC3A5CF 		.ascii	">\303\245\317P\351\262\346\20415\220\007*\351|.\235"
 1082      50E9B2E6 
 1082      84313590 
 1082      072AE97C 
 1082      2E9D
 1083 16cf 4FA5173E 		.ascii	"O\245\027>\235\352T\322\005\\\272\200Jg\236l*P\207D"
 1083      9DEA54D2 
 1083      055CBA80 
 1083      4A679E6C 
 1083      2A508744 
 1084 16e3 BDD22DE4 		.ascii	"\275\322-\344\322\205Tz\370\351L\257\032\311\264J\367"
 1084      D285547A 
 1084      F8E94CAF 
 1084      1AC9B44A 
 1084      F7
 1085 16f4 592E7D96 		.ascii	"Y.}\226J\017\235\254\352v\304\021\0364\277\023\263\347"
 1085      4A0F9DAC 
 1085      EA76C411 
 1085      1E34BF13 
 1085      B3E7
 1086 1706 1A1DF986 		.ascii	"\032\035\371\206{*}\323\271.\362J\323d\212D\"]\255\234"
 1086      7B2A7DD3 
 1086      B92EF24A 
 1086      D3648A44 
 1086      225DAD9C 
 1087 171a 9387F939 		.ascii	"\223\207\3719Q\261\207+\242+\226\341\223\205\375\352"
 1087      51B1872B 
 1087      A22B96E1 
 1087      9385FDEA 
 1088 172a 73A17995 		.ascii	"s\241y\225\335bn\267\330N\004.\253\244K\270t\011\225"
 1088      DD626EB7 
 1088      D84E042E 
 1088      ABA44BB8 
 1088      740995
 1089 173d 1EB837D7 		.ascii	"\036\2707\327\256\326M\352_qn\304\245K\251t\335\361"
 1089      AED64DEA 
 1089      5F716EC4 
 1089      A54BA974 
 1089      DDF1
 1090 174f E2197EDA 		.ascii	"\342\031~\332G^r\034\212=w\3429#\271\\\032\311el$\017"
 1090      475E721C 
 1090      8A3D77E2 
 1090      3923B95C 
 1090      1AC9656C 
 1091 1765 4C6715F3 		.ascii	"Lg\025\363\0033\355\254\374\357\200\226\262\177\007"
 1091      0333EDAC 
 1091      FCEF8096 
 1091      B27F07
 1092 1774 34DC7F77 		.ascii	"4\334\177w\217\316\372\204\310,z\242\012\221\036\367"
 1092      8FCEFA84 
ARM GAS  /tmp/ccErb3td.s 			page 88


 1092      C82C7AA2 
 1092      0A911EF7 
 1093 1784 D0914B55 		.ascii	"\320\221KUR\206\254\332K\363r\\T\330\317\253\260Wr\354"
 1093      5286ACDA 
 1093      4BF3725C 
 1093      54D8CFAB 
 1093      B05772EC 
 1094 1798 95147B74 		.ascii	"\225\024{t\335\371A\235}\260U\022\330T\366\267\256\275"
 1094      DDF9419D 
 1094      7DB05512 
 1094      D854F6B7 
 1094      AEBD
 1095 17aa E6CB5DFC 		.ascii	"\346\313]\374\350\231\014\265\322\210\216Z\016\366\024"
 1095      E8990CB5 
 1095      D2888E5A 
 1095      0EF614
 1096 17b9 99C45A5A 		.ascii	"\231\304ZZ\017\354\023\255\321^\004\264\027(\332j\212"
 1096      0FEC13AD 
 1096      D15E04B4 
 1096      1728DA6A 
 1096      8A
 1097 17ca B68AA1AD 		.ascii	"\266\212\241\255\246h"
 1097      A668
 1098 17d0 5BAED63E 		.ascii	"[\256\326>TG\272Z\205\266\206\243\255\241h\217\015\027"
 1098      5447BA5A 
 1098      85B686A3 
 1098      ADA1688F 
 1098      0D17
 1099 17e2 55F17F0A 		.ascii	"U\361\177\012\345Fv\306\365\015\323N\366\301\327I\340"
 1099      E54676C6 
 1099      F50DD34E 
 1099      F6C1D749 
 1099      E0
 1100 17f3 6B59A467 		.ascii	"kY\244g{\302\346\370\237\232\272\223\035\332\335\356"
 1100      7BC2E6F8 
 1100      9F9ABA93 
 1100      1DDADDEE 
 1101 1803 63FC5C75 		.ascii	"c\374\\u\204\036u'G]Z\000\276\036\300_\242\340\033("
 1101      841E7527 
 1101      475D5A00 
 1101      BE1EC05F 
 1101      A2E01B28 
 1102 1817 F83A06BE 		.ascii	"\370:\006\276\201\202O\336\323\231\245~{\326\240\002"
 1102      81824FDE 
 1102      D399A57E 
 1102      7BD6A002 
 1103 1827 DFC8C193 		.ascii	"\337\310\301\223\253\270!\320\270\321!xC\220\336\340"
 1103      ABB821D0 
 1103      B8D12178 
 1103      4390DEE0 
 1104 1837 F4CB7FFB 		.ascii	"\364\313\177\373b\371G\253Wk\234\014z\337\200\020\203"
 1104      62F947AB 
 1104      576B9C0C 
 1104      7ADF8010 
 1104      83
 1105 1848 7FB08B8F 		.ascii	"\177\260\213\217\317z\377 \343\333o\371\030\365\336"
 1105      CF7AFF20 
ARM GAS  /tmp/ccErb3td.s 			page 89


 1105      E3DB6FF9 
 1105      18F5DE
 1106 1857 EB8203F5 		.ascii	"\353\202\003\365\336k}\203\374\365\001\336\277\010\\"
 1106      DE6B7D83 
 1106      FCF501DE 
 1106      BF085C
 1107 1866 A35FBB56 		.ascii	"\243_\273V\277\366CC\240\367\327~~o\372\032\002\337"
 1107      BFF64343 
 1107      A0F7D77E 
 1107      7E6FFA1A 
 1107      02DF
 1108 1878 0C0A0ED2 		.ascii	"\014\012\016\322\277\251\367]\343\377\346\273>\357\274"
 1108      BFA9F75D 
 1108      E3FFE6BB 
 1108      3EEFBC
 1109 1887 F9D6AAD5 		.ascii	"\371\326\252\325\357}\363\266\267\352\206\267\177\220"
 1109      EF7DF3B6 
 1109      B7EA86B7 
 1109      7F90
 1110 1895 5FC0FAB5 		.ascii	"_\300\372\265z\357@_\277u\376Azo\237\265\372\257|\327"
 1110      7AEF405F 
 1110      BF75FE41 
 1110      7A6F9FB5 
 1110      FAAF7CD7 
 1111 18a9 07187D8C 		.ascii	"\007\030}\214\233B\364\241+\327i\234$s\377\361\2674"
 1111      9B42F4A1 
 1111      2BD7699C 
 1111      2473FFF1 
 1111      B734
 1112 18bb 17BA29D4 		.ascii	"\027\272)\324\333'\324\270\026t\203\015G#q\315\307\370"
 1112      DB27D4B8 
 1112      1674830D 
 1112      472371CD 
 1112      C7F8
 1113 18cd C1CA95DE 		.ascii	"\301\312\225\336\354\377\340Po\277\340\300\300\340 "
 1113      ECFFE050 
 1113      6FBFE0C0 
 1113      C0E020
 1114 18dc EF906083 		.ascii	"\357\220`\2031\324\373\303\337}\372\321\247\033I[\210"
 1114      31D4FBC3 
 1114      DF7DFAD1 
 1114      A71B495B 
 1114      88
 1115 18ed 7F80DE10 		.ascii	"\177\200\336\020\352\375\313\217>\362\366['\201t\204"
 1115      EAFDCB8F 
 1115      3EF2F65B 
 1115      27817484 
 1116 18fd 8805F887 		.ascii	"\210\005\370\207\032\235\364!\372 P\372\265\253\376"
 1116      1A9DF421 
 1116      FA2050FA 
 1116      B5ABFE
 1117 190c 5B7D9031 		.ascii	"[}\2201\3207\364\317>F\247\300\320\257\277Y\257_\257"
 1117      D037F4CF 
 1117      3E46A7C0 
 1117      D0AFBF59 
 1117      AF5FAF
 1118 191f 1783F41B 		.ascii	"\027\203\364\033\215\213\374\326\371\030\327A8\327\206"
ARM GAS  /tmp/ccErb3td.s 			page 90


 1118      8D8BFCD6 
 1118      F918D741 
 1118      38D786
 1119 192e FAB0D610 		.ascii	"\372\260\326\020\203\376[\017U\223\217\321q\203\257"
 1119      83FE5B0F 
 1119      55938FD1 
 1119      7183AF
 1120 193d BF11F478 		.ascii	"\277\021\364x(\244\211\001w%\343cD\353\265\372\015\304"
 1120      28A48901 
 1120      7725E363 
 1120      44EBB5FA 
 1120      0DC4
 1121 194f 8A768311 		.ascii	"\212v\203\021 \204\300%T\037\030\202\375\202\214\316"
 1121      2084C025 
 1121      541F1882 
 1121      FD828CCE 
 1122 195f 3E3E3C70 		.ascii	">><p\216\374\352\000\255\360M-\350@/H\372\206\254\013"
 1122      8EFCEA00 
 1122      ADF04D2D 
 1122      E8402F48 
 1122      FA86AC0B 
 1123 1973 36E81D43 		.ascii	"6\350\035C\011\326\320\257\035\200@`\203\321h\010Y\314"
 1123      09D6D0AF 
 1123      1D804060 
 1123      83D16808 
 1123      59CC
 1124 1985 0CF918F4 		.ascii	"\014\371\030\364_\351\015\372 ?\300\004\312\203\327"
 1124      5FE90DFA 
 1124      203FC004 
 1124      CA83D7
 1125 1994 FC29C449 		.ascii	"\374)\304I\277\321\337\350\027\274V\2575\254\335\004"
 1125      BFD1DFE8 
 1125      17BC56AF 
 1125      35ACDD04 
 1126 19a4 3D441009 		.ascii	"=D\020\011ufe\361\001X\223\256F\322\016\352\276\012"
 1126      756665F1 
 1126      015893AE 
 1126      46D20EEA 
 1126      BE0A
 1127 19b6 F0FD3AD4 		.ascii	"\360\375:\324\321\030\010=\200\0135\372\032\365NFz!"
 1127      D118083D 
 1127      800B35FA 
 1127      1AF54E46 
 1127      7A21
 1128 19c8 2A7DD7F8 		.ascii	"*}\327\370\206\352yQ\275\367\016\004K\372\341\022j\374"
 1128      86EA7951 
 1128      BDF70E04 
 1128      4BFAE112 
 1128      6AFC
 1129 19da B36F80FF 		.ascii	"\263o\200\377\327A>\306\037\2760-\353\374\300\015\310"
 1129      D7413EC6 
 1129      1FBE302D 
 1129      EBFCC00D 
 1129      C8
 1130 19eb 8318E41B 		.ascii	"\203\030\344\033\250\027\375\326\371\032\034\202\003"
 1130      A817FDD6 
 1130      F91A1C82 
ARM GAS  /tmp/ccErb3td.s 			page 91


 1130      03
 1131 19f8 D6EA0D0E 		.ascii	"\326\352\015\016A\372\015z\003\3663n\024BC\204\000\003"
 1131      41FA0D7A 
 1131      03F6336E 
 1131      14424384 
 1131      0003
 1132 1a0a 94F1D750 		.ascii	"\224\361\327P\020>FlX\275\032h\225`\370\211`\370@0\274"
 1132      103E466C 
 1132      58BD1A68 
 1132      9560F889 
 1132      60F84030 
 1133 1a1f 2F18DE13 		.ascii	"/\030\336\023\014\357\012\206w\\\211f\022:\350\364\346"
 1133      0CEF0A86 
 1133      775C8966 
 1133      123AE8F4 
 1133      E6
 1134 1a30 CB19F6F9 		.ascii	"\313\031\366\371\366\375@0\256\243=\375\202\203\214"
 1134      F6FD4030 
 1134      AEA33DFD 
 1134      82838C
 1135 1a3f 90669154 		.ascii	"\220f\221T\224\263%{\016\201!\301\301\001N<\250F'\270"
 1135      94B3257B 
 1135      0E8121C1 
 1135      C1014E3C 
 1135      A84627B8 
 1136 1a53 11B81EE4 		.ascii	"\021\270\036\344\034\351\267\217q\271\322\222\301h\251"
 1136      1CE9B78F 
 1136      71B9D292 
 1136      C168A9
 1137 1a62 53BF75A1 		.ascii	"S\277u\241~\353\326\202\362\327\354\012@\336\341\376"
 1137      7EEBD682 
 1137      F2D7EC0A 
 1137      40DEE1FE 
 1138 1a72 0AFB0A36 		.ascii	"\012\373\0126\205Jej_\011\324\002\011\237\037(\303\006"
 1138      854A656A 
 1138      5F09D402 
 1138      099F1F28 
 1138      C306
 1139 1a84 A3016F30 		.ascii	"\243\001o0\032\034\014\372P\275\321\301\347\347\000"
 1139      1A1C0CFA 
 1139      50BDD1C1 
 1139      E7E700
 1140 1a93 5C1BEAFF 		.ascii	"\\\033\352\377\027H\227\337\377n\010\006\370\257!\002"
 1140      174897DF 
 1140      FF6E0806 
 1140      F8AF2102 
 1141 1aa3 5643F1DD 		.ascii	"VC\361\335\225\357\254\\-\017H#\250\372\01208\030\326"
 1141      95EFAC5C 
 1141      2D0F4823 
 1141      A8FA0A30 
 1141      3818D6
 1142 1ab6 8680F10D 		.ascii	"\206\200\361\015\006\370\306\306\340\020\355\232\365"
 1142      06F8C6C6 
 1142      E010ED9A 
 1142      F5
 1143 1ac3 5F41098A 		.ascii	"_A\011\212\006\200\246r28\224\350\225]\010\361gNj\311"
 1143      0680A672 
ARM GAS  /tmp/ccErb3td.s 			page 92


 1143      323894E8 
 1143      955D08F1 
 1143      674E6AC9 
 1144 1ad7 0F1FE332 		.ascii	"\017\037\3432z\037f)\030'\253V\275E\011\374Y\037\362"
 1144      7A1F6629 
 1144      1827AB56 
 1144      BD4509FC 
 1144      591FF2
 1145 1aea 538B1272 		.ascii	"S\213\022r\217\253\011\015^o\360\323+ZX\307P=\214\026"
 1145      8FAB090D 
 1145      5E6FF0D3 
 1145      2B5A58C7 
 1145      503D8C16 
 1146 1afe 52FCD07B 		.ascii	"R\374\320{\245\237f\241\316\325L\347\3536\214\3517\352"
 1146      A59F66A1 
 1146      CED54CE7 
 1146      EB368CE9 
 1146      37EA
 1147 1b10 FD20B92B 		.ascii	"\375 \271+C|\015\306\225\253\277g_ba\347\325\352\316"
 1147      437C0DC6 
 1147      95ABBF67 
 1147      5F6261E7 
 1147      D5EACE
 1148 1b23 6F2DEC6C 		.ascii	"o-\354l\221\200\351\344s\360\367\2635\177\322\373\031"
 1148      9180E9E4 
 1148      73F0F7B3 
 1148      357FD2FB 
 1148      19
 1149 1b34 3F09F237 		.ascii	"?\011\3627.f\015\377n\3607\352\177\357\037\250\017^"
 1149      2E660DFF 
 1149      6EF037EA 
 1149      7FEF1FA8 
 1149      0F5E
 1150 1b46 6F748312 		.ascii	"ot\203\022\200\202\326\033\276\365\015x^\251\031A\234"
 1150      8082D61B 
 1150      BEF50D78 
 1150      5EA91941 
 1150      9C
 1151 1b57 D43133E4 		.ascii	"\32413\344\033\032\2527\030=\325\321\"\261\"E\015\277"
 1151      1B1AAA37 
 1151      183DD5D1 
 1151      22B12245 
 1151      0DBF
 1152 1b69 41F21566 		.ascii	"A\362\025f\353wP\323\334\2246P\037\350\027\030\"\206"
 1152      EB7750D3 
 1152      DC943650 
 1152      1FE81718 
 1152      2286
 1153 1b7b AC37E8C5 		.ascii	"\2547\350\305\000\275\357W\216A\301P\364\301\033\340"
 1153      00BDEF57 
 1153      8E41C150 
 1153      F4C11BE0 
 1154 1b8b 1A14B43E 		.ascii	"\032\024\264> \340\213\277\351,n4\300\034\011@\\% \244"
 1154      20E08BBF 
 1154      E92C6E34 
 1154      C01C0940 
 1154      5C2520A4 
ARM GAS  /tmp/ccErb3td.s 			page 93


 1155 1b9f 6249FE57 		.ascii	"bI\376W\277\262j\365[o\277\363\356{\357\177\360\223"
 1155      BFB26AF5 
 1155      5B6FBFF3 
 1155      EE7BEF7F 
 1155      F093
 1156 1bb1 0F7FFED1 		.ascii	"\017\177\376\321\277\374\342c\030\236\244.B|\215\020"
 1156      BFFCE263 
 1156      189EA42E 
 1156      427C8D10 
 1157 1bc1 88206796 		.ascii	"\210 g\226^\243>\344\273v\322\355\340\007\023S\250\223"
 1157      5EA33EE4 
 1157      BB76D2ED 
 1157      E0071353 
 1157      A893
 1158 1bd3 51EF6B58 		.ascii	"Q\357kX\013\317B\007\232gG\036u\027\"N\004|`F\206\237"
 1158      0BCF4207 
 1158      9A67471E 
 1158      7517224E 
 1158      047C6046 
 1159 1be9 968EC657 		.ascii	"\226\216\306W\355\250\363\3615\030|7-^\230\310\205M"
 1159      EDA8F3F1 
 1159      35187C37 
 1159      2D5E98C8 
 1159      854D
 1160 1bfb 6FE92CDE 		.ascii	"o\351,\336\254\017\324\3777\321\"\262\257"
 1160      AC0FD4FF 
 1160      37D122B2 
 1160      AF
 1161              		.text
 1162              		.section	.gnu.lto_.symtab.3a5bf21447051f7d,"",%progbits
 1163 0000 6F736C69 		.ascii	"oslib_test_sequence_002\000"
 1163      625F7465 
 1163      73745F73 
 1163      65717565 
 1163      6E63655F 
 1164 0018 00       		.ascii	"\000"
 1165 0019 00       		.ascii	"\000"
 1166 001a 00       		.ascii	"\000"
 1167 001b 00000000 		.ascii	"\000\000\000\000\000\000\000\000"
 1167      00000000 
 1168 0023 24020000 		.ascii	"$\002\000\000"
 1169 0027 6F736C69 		.ascii	"oslib_test_sequence_002_array\000"
 1169      625F7465 
 1169      73745F73 
 1169      65717565 
 1169      6E63655F 
 1170 0045 00       		.ascii	"\000"
 1171 0046 00       		.ascii	"\000"
 1172 0047 00       		.ascii	"\000"
 1173 0048 00000000 		.ascii	"\000\000\000\000\000\000\000\000"
 1173      00000000 
 1174 0050 2A020000 		.ascii	"*\002\000\000"
 1175 0054 74657374 		.ascii	"test_step\000"
 1175      5F737465 
 1175      7000
 1176 005e 00       		.ascii	"\000"
 1177 005f 02       		.ascii	"\002"
ARM GAS  /tmp/ccErb3td.s 			page 94


 1178 0060 00       		.ascii	"\000"
 1179 0061 00000000 		.ascii	"\000\000\000\000\000\000\000\000"
 1179      00000000 
 1180 0069 08020000 		.ascii	"\010\002\000\000"
 1181 006d 63685069 		.ascii	"chPipeObjectInit\000"
 1181      70654F62 
 1181      6A656374 
 1181      496E6974 
 1181      00
 1182 007e 00       		.ascii	"\000"
 1183 007f 02       		.ascii	"\002"
 1184 0080 00       		.ascii	"\000"
 1185 0081 00000000 		.ascii	"\000\000\000\000\000\000\000\000"
 1185      00000000 
 1186 0089 D7010000 		.ascii	"\327\001\000\000"
 1187 008d 63685069 		.ascii	"chPipeWriteTimeout\000"
 1187      70655772 
 1187      69746554 
 1187      696D656F 
 1187      757400
 1188 00a0 00       		.ascii	"\000"
 1189 00a1 02       		.ascii	"\002"
 1190 00a2 00       		.ascii	"\000"
 1191 00a3 00000000 		.ascii	"\000\000\000\000\000\000\000\000"
 1191      00000000 
 1192 00ab E2010000 		.ascii	"\342\001\000\000"
 1193 00af 5F746573 		.ascii	"_test_assert\000"
 1193      745F6173 
 1193      73657274 
 1193      00
 1194 00bc 00       		.ascii	"\000"
 1195 00bd 02       		.ascii	"\002"
 1196 00be 00       		.ascii	"\000"
 1197 00bf 00000000 		.ascii	"\000\000\000\000\000\000\000\000"
 1197      00000000 
 1198 00c7 E7010000 		.ascii	"\347\001\000\000"
 1199 00cb 63685069 		.ascii	"chPipeReadTimeout\000"
 1199      70655265 
 1199      61645469 
 1199      6D656F75 
 1199      7400
 1200 00dd 00       		.ascii	"\000"
 1201 00de 02       		.ascii	"\002"
 1202 00df 00       		.ascii	"\000"
 1203 00e0 00000000 		.ascii	"\000\000\000\000\000\000\000\000"
 1203      00000000 
 1204 00e8 EE010000 		.ascii	"\356\001\000\000"
 1205 00ec 63685069 		.ascii	"chPipeReset\000"
 1205      70655265 
 1205      73657400 
 1206 00f8 00       		.ascii	"\000"
 1207 00f9 02       		.ascii	"\002"
 1208 00fa 00       		.ascii	"\000"
 1209 00fb 00000000 		.ascii	"\000\000\000\000\000\000\000\000"
 1209      00000000 
 1210 0103 00020000 		.ascii	"\000\002\000\000"
 1211              		.text
ARM GAS  /tmp/ccErb3td.s 			page 95


 1212              		.section	.gnu.lto_.opts,"",%progbits
 1213 0000 272D666D 		.ascii	"'-fmath-errno' '-fsigned-zeros' '-ftrapping-math' '"
 1213      6174682D 
 1213      6572726E 
 1213      6F272027 
 1213      2D667369 
 1214 0033 2D666E6F 		.ascii	"-fno-trapv' '-fno-openmp' '-fno-openacc' '-mcpu=cor"
 1214      2D747261 
 1214      70762720 
 1214      272D666E 
 1214      6F2D6F70 
 1215 0066 7465782D 		.ascii	"tex-m4' '-mthumb' '-ggdb' '-O2' '-fomit-frame-point"
 1215      6D342720 
 1215      272D6D74 
 1215      68756D62 
 1215      2720272D 
 1216 0099 65722720 		.ascii	"er' '-falign-functions=16' '-ffunction-sections' '-"
 1216      272D6661 
 1216      6C69676E 
 1216      2D66756E 
 1216      6374696F 
 1217 00cc 66646174 		.ascii	"fdata-sections' '-fno-common' '-flto'\000"
 1217      612D7365 
 1217      6374696F 
 1217      6E732720 
 1217      272D666E 
 1218              		.text
 1219              		.comm	__gnu_lto_v1,1,1
 1220              		.comm	__gnu_lto_slim,1,1
 1221              		.ident	"GCC: (GNU Tools for ARM Embedded Processors) 5.4.1 20160919 (release) [ARM/embedded-5-bran
ARM GAS  /tmp/ccErb3td.s 			page 96


DEFINED SYMBOLS
                            *ABS*:00000000 oslib_test_sequence_002.c
                            *COM*:00000001 __gnu_lto_v1
                            *COM*:00000001 __gnu_lto_slim

NO UNDEFINED SYMBOLS
