ARM GAS  /tmp/cc7c2vFc.s 			page 1


   1              		.syntax unified
   2              		.cpu cortex-m4
   3              		.fpu softvfp
   4              		.eabi_attribute 20, 1
   5              		.eabi_attribute 21, 1
   6              		.eabi_attribute 23, 3
   7              		.eabi_attribute 24, 1
   8              		.eabi_attribute 25, 1
   9              		.eabi_attribute 26, 1
  10              		.eabi_attribute 30, 2
  11              		.eabi_attribute 34, 1
  12              		.eabi_attribute 18, 4
  13              		.thumb
  14              		.syntax unified
  15              		.file	"rt_test_sequence_001.c"
  16              		.text
  17              	.Ltext0:
  18              		.section	.gnu.lto_.profile.53bb30036d2034ca,"",%progbits
  19 0000 789C6361 		.ascii	"x\234ca`d`c`\000\222S\371\3161\001\000\004\260\001\200"
  19      60646063 
  19      60009253 
  19      F9CE3101 
  19      0004B001 
  20              		.text
  21              		.section	.gnu.lto_.icf.53bb30036d2034ca,"",%progbits
  22 0000 789C6361 		.ascii	"x\234ca`d\000\001#\006\004\340`\270\365v\365b^\246\355"
  22      60640001 
  22      230604E0 
  22      60B8F576 
  22      F5625EA6 
  23 0015 73A6F6B2 		.ascii	"s\246\366\2621o\377\263\344<;K\317\365\217\273\371X"
  23      316FFFB3 
  23      E43C3B4B 
  23      CFF58FBB 
  23      F958
  24 0027 BB0F6E7D 		.ascii	"\273\017n}\315\310vr\371\203-<\354\257\373\276L\346"
  24      CDC87672 
  24      F9832D3C 
  24      ECAFFBBE 
  24      4CE6
  25 0039 E358BFF5 		.ascii	"\343X\277\365\353'~\006\000q\004\030\257"
  25      EB277E06 
  25      00710418 
  25      AF
  26              		.text
  27              		.section	.gnu.lto_.jmpfuncs.53bb30036d2034ca,"",%progbits
  28 0000 789C9598 		.ascii	"x\234\225\230kLSi\032\307{Z\344&\212;\223\375\260\233"
  28      6B4C5369 
  28      1AC77B5A 
  28      E4268A3B 
  28      93FDB09B 
  29 0014 CDA6EFB7 		.ascii	"\315\246\357\267\365\003\216\316:nt\222Mj9@W\3322m\321"
  29      F5038ECE 
  29      3A6E7492 
  29      4D6A3940 
  29      57DA326D 
  30 0029 71369BA6 		.ascii	"q6\233\246JwdE\330t\320\354\267)rs@ADQ\306\013\336P"
ARM GAS  /tmp/cc7c2vFc.s 			page 2


  30      4A776445 
  30      D874D0EC 
  30      B7297273 
  30      40414451 
  31 0041 41140519 		.ascii	"A\024\005\031@n\"\367\2132\012\202\002\202\250\250 "
  31      406E22F7 
  31      8B320A82 
  31      0282A8A8 
  31      20
  32 0052 82080372 		.ascii	"\202\010\003r\337\323\247\205>\330\267\300!11\370\377"
  32      DFD3A785 
  32      3ED8B7C0 
  32      213131F8 
  32      FF
  33 0063 BDBFE779 		.ascii	"\275\277\347yo\347\034\035\004\214\300\364\243\373\203"
  33      6FE71C1D 
  33      048CC0F4 
  33      A3FB83
  34 0072 40D0E102 		.ascii	"@\320\341\002\177\025\210\270?BfJ\310\344\354\277R\351"
  34      7F1588B8 
  34      3F42664A 
  34      C8E4ECBF 
  34      52E9
  35 0084 489814E3 		.ascii	"H\230\024\343\011q$\367K\3567WsZ\2169\3758e<a4\256\212"
  35      097124F7 
  35      4BEE3757 
  35      735A8E39 
  35      FD38653C 
  36 009c 1431CC65 		.ascii	"\0241\314e\206\010\004\314\025\346G\001\343`f\222\""
  36      860804CC 
  36      15E64701 
  36      E3606692 
  36      22
  37 00ad EF36380D 		.ascii	"\35768\015\013#EBF\300\2441\177\262\014\025{#6\321\205"
  37      0B234542 
  37      46C0A431 
  37      7FB20C15 
  37      7B2336D1 
  38 00c2 88CC4389 		.ascii	"\210\314C\211LC\215<\255\355[67\224\003\223\016C]EC"
  38      4C438D3C 
  38      ADED5B36 
  38      37940393 
  38      0E435D45 
  39 00d7 2DAECF00 		.ascii	"-\256\317\000\346\332,\203|e\341\3572\034\210\007\362"
  39      E6DA2C83 
  39      7C65E1EF 
  39      321C8807 
  39      F2
  40 00e8 9D8B3B51 		.ascii	"\235\213;Q\346\214|\327\201\315\344\345\273\001\314"
  40      E68C7CD7 
  40      81CDE4E5 
  40      BB01CC
  41 00f7 4D8AAF77 		.ascii	"M\212\257w`\364\262\033\331\206|%\307o]sD\276,`\263"
  41      60F4B21B 
  41      D9867C25 
  41      C76F5D73 
  41      44BE2C60 
ARM GAS  /tmp/cc7c2vFc.s 			page 3


  42 010c 79F96E01 		.ascii	"y\371n\001\223\203\230\241\324S\307\235\315\323kd\230"
  42      938398A1 
  42      D453C79D 
  42      CDD36B64 
  42      98
  43 011d 5FE6FC47 		.ascii	"_\346\374G/\214g\210H\030\203\012x\232\364v\302\015"
  43      2F8C6788 
  43      4818830A 
  43      789AF476 
  43      C20D
  44 012f 15900B83 		.ascii	"\025\220\013\203\345\361* \037\230\333\210i\014/o\020"
  44      E5F12A20 
  44      1F98DB88 
  44      690C2F6F 
  44      10
  45 0140 990B9861 		.ascii	"\231\013\230a\230\202\271\002j.\034\233d\310U\\@v\372"
  45      9882B902 
  45      6A2E1C9B 
  45      64C8555C 
  45      4076FA
  46 0153 B52C3CE3 		.ascii	"\265,<\343\2050X\021\257\002\212\201)\241\314\370\265"
  46      85305811 
  46      AF028A81 
  46      29A1CCF8 
  46      B5
  47 0164 A68B4745 		.ascii	"\246\213GE\344\021\026\336J\216\212\301[\352\016\300"
  47      E41116DE 
  47      4A8E8AC1 
  47      5BEA0EC0 
  48 0174 A5BC8477 		.ascii	"\245\274\204w\201)\243-\361de\261\003\231\301\302\343"
  48      8129A32D 
  48      F16465B1 
  48      0399C1C2 
  48      E3
  49 0185 A351530E 		.ascii	"\243QS\016HX\016p\005/a%0U\024\241\321\330V\344F\322"
  49      48580E70 
  49      052F6125 
  49      305514A1 
  49      D1D856E4 
  50 019b 8448385D 		.ascii	"\204H8]\224\372q9\022V\003\\\303KX\013L\035E\370\256"
  50      94FA7139 
  50      1256035C 
  50      C34B580B 
  50      4C1D45F8 
  51 01b0 E9FC880B 		.ascii	"\351\374\210\013i\304\302\003\3717\037\273\"a=\300\367"
  51      69C4C203 
  51      F9371FBB 
  51      22613DC0 
  51      F7
  52 01c1 7809EF03 		.ascii	"x\011\357\003\323\200\231\350\372\233\256\346M\3040"
  52      D38099E8 
  52      FA9BAEE6 
  52      4DC430
  53 01d0 BFCEF9BB 		.ascii	"\277\316\371\273/4t.#S\330\337\321\327~\311\011\371"
  53      2F34742E 
  53      2353D8DF 
  53      D1D77EC9 
ARM GAS  /tmp/cc7c2vFc.s 			page 4


  53      09F9
  54 01e2 1FC0580F 		.ascii	"\037\300X\017y\371\033\201i\232k\330*<\024\367\252\332"
  54      79F91B81 
  54      699A6BD8 
  54      2A3C14F7 
  54      AADA
  55 01f4 955CC6D7 		.ascii	"\225\\\306\327\322\375\264W\031\356H\370\010\340f^\302"
  55      D2FDB457 
  55      19EE48F8 
  55      08E0665E 
  55      C2
  56 0205 16601E53 		.ascii	"\026`\036S\204\245\327\333zW\220\007Xx%\242px%\022>"
  56      84A5D7DB 
  56      7A579007 
  56      587825A2 
  56      70782512 
  57 021a 01B89597 		.ascii	"\001\270\225\227\260\015\230v\212\360rwu\237\033\231"
  57      B00D9876 
  57      8AF07277 
  57      759F1B99 
  58 022a C0C28137 		.ascii	"\300\302\2017\027s\361\261|\012p\007/a'0\317(\302\263"
  58      1773F1B1 
  58      7C0A7007 
  58      2F612730 
  58      CF28C2B3 
  59 023e 61B951AE 		.ascii	"a\271Q\256$\325\001\011_\366\2759\205;\354\002\3709"
  59      24D50109 
  59      5FF6BD39 
  59      853BEC02 
  59      F839
  60 0250 2FE10B60 		.ascii	"/\341\013`^\"&f\274%\316r\023:3\335\326{\250\351\344"
  60      5E222666 
  60      BC25CE72 
  60      133A33DD 
  60      D67BA8E9 
  61 0265 A81369C0 		.ascii	"\250\023i\300\376\250\256\304l\274\244\257`\254\327"
  61      FEA8AEC4 
  61      6CBCA4AF 
  61      60ACD7
  62 0274 BCFC6F80 		.ascii	"\274\374o\200\351\2414<\372\270\252\330\215\214aaI\370"
  62      E9A1343C 
  62      FAB8AAD8 
  62      8D8C6161 
  62      49F8
  63 0286 CBD3F8EA 		.ascii	"\313\323\370\352\357\005\370-/a\0370\357(\302sqiE\""
  63      EF05F82D 
  63      2F611F30 
  63      EF28C273 
  63      71694522 
  64 029a 7261193E 		.ascii	"ra\031>\245q\357S\031$\354\007x\200\227\360=0\203\024"
  64      A571EF53 
  64      1924EC07 
  64      788097F0 
  64      3D308314 
  65 02ae E1FB87D1 		.ascii	"\341\373\207\321\271\256\344\036\026\366\024\266&\343"
  65      B9AEE41E 
  65      16F614B6 
ARM GAS  /tmp/cc7c2vFc.s 			page 5


  65      26E3
  66 02bc 7BE803C0 		.ascii	"{\350\003\300C\274\204\303\300\374F\021N\036\211-p#"
  66      43BC84C3 
  66      C0FC4611 
  66      4E1E892D 
  66      7023
  67 02ce A3587866 		.ascii	"\243Xxf\344\366m\274iG\000\036\345%\374\010\314\030"
  67      E4F66DBC 
  67      6947001E 
  67      E525FC08 
  67      CC18
  68 02e0 45D8D6F7 		.ascii	"E\330\326\367:\306\221\234sD\302\363\275\261\343\370"
  68      3AC6919C 
  68      7344C2F3 
  68      BDB1E3F8 
  69 02f0 59320EF0 		.ascii	"Y2\016\360\004/\341$0S\024\341\335\314\322zWR\207\205"
  69      042FE124 
  69      305314E1 
  69      DDCCD27A 
  69      57528785 
  70 0304 F9C9A959 		.ascii	"\371\311\251Yx\015\247\001\236\341%4\012ML\230\320V"
  70      780DA701 
  70      9EE12534 
  70      0A4D4C98 
  70      D056
  71 0316 F8286364 		.ascii	"\370(cdFH~\303\302\311\202\301\363+\220p?\300\341B>"
  71      46487EC3 
  71      C2C982C1 
  71      F32B9070 
  71      3FC0E142 
  72 032b C2086022 		.ascii	"\302\010`\"\205\266\317\222\234\2103\375n$\305\011\011"
  72      85B6CF92 
  72      9C8833FD 
  72      6E24C509 
  72      09
  73 033c E30F3F1B 		.ascii	"\343\017?\033\020\"a\024\300\321\274\204\007\200\371"
  73      10226114 
  73      C0D1BC84 
  73      0780F9
  74 034b 89D261E7 		.ascii	"\211\322a\347x\333jR\203}I\315-\235\270\301\030`cy\371"
  74      78DB6A52 
  74      837D49CD 
  74      2D9DB8C1 
  74      18606379 
  75 0360 0E027388 		.ascii	"\016\002s\210\342;\026\223\035\353H\206\2600\345\334"
  75      E23B1693 
  75      1DEB4886 
  75      B030E5DC 
  76 0370 99692C8C 		.ascii	"\231i,\214\0038\236\227\36000\011\024\341\325\344\356"
  76      03389E97 
  76      F0303009 
  76      14E1D5E4 
  76      EE
  77 0381 4BEEE4B4 		.ascii	"K\356\344\2643\022\266t\366\337\302\357\037G\000N\344"
  77      3312B674 
  77      F6DFC2EF 
  77      1F47004E 
ARM GAS  /tmp/cc7c2vFc.s 			page 6


  77      E4
  78 0392 253C0ACC 		.ascii	"%<\012\3141\212\360FE\355\230#\251\302\302\274\302\226"
  78      318AF046 
  78      45ED9823 
  78      A9C2C2BC 
  78      C296
  79 03a4 61DC6112 		.ascii	"a\334a\022\300\307y\011O\000\223L\021\026\214\307U\272"
  79      C0C77909 
  79      4F00934C 
  79      11168CC7 
  79      55BA
  80 03b6 90412C8C 		.ascii	"\220A,\214(\276\367G\344\373\031\330\223\274|\247\200"
  80      28BEF747 
  80      E4FB19D8 
  80      93BC7CA7 
  80      80
  81 03c7 394DDBA3 		.ascii	"9M\333\243\205\015\227E\344\244\013\362\365u\335\374"
  81      850D9745 
  81      E4A40BF2 
  81      F575DDFC 
  82 03d7 33F29D01 		.ascii	"3\362\235\0016\205\227\357,0\347(\375\325\376\\9$$\025"
  82      368597EF 
  82      2C30E728 
  82      FDD5FE5C 
  82      39242415 
  83 03eb D817379A 		.ascii	"\330\0277\232X\201_\322\317\003|\201\227\360\"0\251"
  83      58815FD2 
  83      CF037C81 
  83      97F02230 
  83      A9
  84 03fc 9406EBEB 		.ascii	"\224\006\353\353\222*Dd\000\013\223\007\343k\361Ez\011"
  84      922A4464 
  84      000B9307 
  84      E36BF145 
  84      7A09
  85 040e E0CBBC84 		.ascii	"\340\313\274\204W\200I\243th<\232\337!$\311\256Hh|Z"
  85      578049A3 
  85      74683C9A 
  85      DF2124C9 
  85      AE48687C 
  86 0423 53849FBE 		.ascii	"S\204\237\276\351\000_\345%\314\000\346\032E8^\3238"
  86      E9005FE5 
  86      25CC00E6 
  86      1A45385E 
  86      D338
  87 0435 E046CAB0 		.ascii	"\340F\312\2600\246n\302\005\177\347\001\233\311\313"
  87      30A66EC2 
  87      057FE701 
  87      9BC9CB
  88 0444 7703989B 		.ascii	"w\003\230\233\024_vz[\247+y\207}\0373F\222q\203Y\000"
  88      145F767A 
  88      5BA72B79 
  88      877D1F33 
  88      46927183 
  89 045a 67F312DE 		.ascii	"g\363\022\336\002&\207\"\034\213\311\252\027\222\343"
  89      02268722 
  89      1C8BC9AA 
ARM GAS  /tmp/cc7c2vFc.s 			page 7


  89      1792E3
  90 0469 CB9130B1 		.ascii	"\313\2210\261\251\260\010\037\302_\000\316\345%\314"
  90      A9B0081F 
  90      C25F00CE 
  90      E525CC
  91 0478 03269F22 		.ascii	"\003&\237\",\276W\3605)\305\276W\021o\206\3607\300m"
  91      2CBE57F0 
  91      3529C5BE 
  91      57116F86 
  91      F037C06D 
  92 048c 600B78F9 		.ascii	"`\013x\371\012\201)\242\354\321\351\321\251\006\027"
  92      0A8129A2 
  92      ECD1E9D1 
  92      A90617
  93 049b F2160B0F 		.ascii	"\362\026\013\017\235\252(\304\017\212b\200Kx\011\357"
  93      9DAA28C4 
  93      0F8A6280 
  93      4B7809EF 
  94 04ab 00534A11 		.ascii	"\000SJ\021\206O\324\347\271\223cnx\313\344T\037\301"
  94      864FD4E7 
  94      B993636E 
  94      78CBE454 
  94      1FC1
  95 04bd A7F02EC0 		.ascii	"\247\360.\300e\274\204\345\300TP\204\021\227\012\273"
  95      65BC84E5 
  95      C0545084 
  95      11970ABB 
  96 04cd 9C490916 		.ascii	"\234I\011\026\356\037<\332\200\247\264\022\340*^\302"
  96      EE1F3CDA 
  96      80A7B412 
  96      E02A5EC2 
  97 04dd 6A606A10 		.ascii	"j`j\020S\230r0\315\362Y\305]6\302Y\377p\343\271\223"
  97      53987230 
  97      CDF259C5 
  97      5D36C259 
  97      FF70E3B9 
  98 04f2 AEA407FB 		.ascii	"\256\244\007\373\037\266\307\366\210\220\277\016\306"
  98      1FB6C7F6 
  98      8890BF0E 
  98      C6
  99 04ff AAE7E5BF 		.ascii	"\252\347\345\277\007\314}\304D\367\030\213\034\314~"
  99      07CC7DC4 
  99      44F7188B 
  99      1CCC7E
 100 050e 31D330E7 		.ascii	"1\3230\347\177\222\376\374\357$q\005>2\231#]\370\271"
 100      7F92FEFC 
 100      EF247105 
 100      3E329923 
 100      5DF8B9
 101 0521 F52B0CF5 		.ascii	"\365+\014\365\200\227\376!0\215s\363m\365\365U\235N"
 101      8097FE21 
 101      308D73F3 
 101      6DF5F555 
 101      9D4E
 102 0533 1192222C 		.ascii	"\021\222\",\354l:\233\207o\275&\200\037\361\0226\003"
 102      EC6C3A9B 
 102      876FBD26 
ARM GAS  /tmp/cc7c2vFc.s 			page 8


 102      801FF112 
 102      3603
 103 0545 D38298DA 		.ascii	"\323\202\230\332\252\204v\306\334\357\341\373\334\007"
 103      AA8476C6 
 103      DCEFE1FB 
 103      DC07
 104 0553 DF5C05C6 		.ascii	"\337\\\005\306\251G\345\216\3445\256 &!}\022\277\336"
 104      A947E58E 
 104      E435AE20 
 104      26217D12 
 104      BFDE
 105 0565 3D81D15A 		.ascii	"=\201\321ZyU\320\006L;\245\345\247'\313\275I\302J\374"
 105      7955D006 
 105      4C3BA5E5 
 105      A727CBBD 
 105      49C24AFC 
 106 0579 6A70A7E4 		.ascii	"jp\247\344k\374\221\007h\207\005]\362\377\357u\002\366"
 106      6BFC9107 
 106      6887055D 
 106      F2FFEF75 
 106      02F6
 107 058b 8CB2A98B 		.ascii	"\214\262\251\213\2473\257;\220\002\254\234\356\037\231"
 107      A733AF3B 
 107      9002AC9C 
 107      EE1F99
 108 059a C19BBA0B 		.ascii	"\301\233\272\013\340\347\274Z|\001\314K\212\260m\270"
 108      E0E7BC5A 
 108      7C01CC4B 
 108      8AB06DB8 
 109 05aa 2E887463 		.ascii	".\210tc_IRl.\366u\003\373\212\227\35750o\020\323}\245"
 109      5F49526C 
 109      2EF67503 
 109      FB8A97EF 
 109      35306F10 
 110 05c1 EC85E510 		.ascii	"\354\205\345\02092=s3\034\177\2623w\005\211w\307\357"
 110      39323D73 
 110      331C7FB2 
 110      33770589 
 110      77C7EF
 111 05d4 97B5E351 		.ascii	"\227\265\343QxI{a\254\267h\254\370\372\304r\027\222"
 111      78497B61 
 111      ACB768AC 
 111      F8FAC472 
 111      1792
 112 05e6 6F819699 		.ascii	"o\201\226\231\240\027M/\302\255;\321\221\351\003\350"
 112      A0174D2F 
 112      C2AD3BD1 
 112      91E903E8 
 113 05f6 1D823A92 		.ascii	"\035\202:\222\332K\226\223;\330\224\236\235\326\200"
 113      DA4B9693 
 113      3BD8949E 
 113      9DD680
 114 0605 BFA0FB01 		.ascii	"\277\240\373\001\032\340\325\351{`\006i\357y\2159/\205"
 114      1AE0D5E9 
 114      7B600669 
 114      EF798D39 
 114      2F85
ARM GAS  /tmp/cc7c2vFc.s 			page 9


 115 0617 A4170B07 		.ascii	"\244\027\013\007\243/D\342\003\372\001\340!$<Sq\360"
 115      A32F44E2 
 115      03FA01E0 
 115      21243C53 
 115      71F0
 116 0629 8E1339BA 		.ascii	"\216\0239\272\312\0149\301|L\266\247Y\037\204\316\334"
 116      CA0C39C1 
 116      7C4CB6A7 
 116      591F84CE 
 116      DC
 117 063a C9800F3C 		.ascii	"\311\200\017<3$Z\362\236\033\001lt\256P\353\267}c\305"
 117      33245AF2 
 117      9E1B016C 
 117      74AE50EB 
 117      B77D63C5 
 118 064e C5F065A4 		.ascii	"\305\360e\244z\025*\364qB\351\347\250\316\217\300\216"
 118      7A152AF4 
 118      7142E9E7 
 118      A8CE8FC0 
 118      8E
 119 065f F19A9871 		.ascii	"\361\232\230q`&(\276\244\234\207\017V\222\017\330\227"
 119      602628BE 
 119      A49C870F 
 119      56920FD8 
 119      97
 120 0670 F97A2613 		.ascii	"\371z&\023?)&\001\236\342%\234\006f\0061\245\317\262"
 120      3F292601 
 120      9EE2259C 
 120      06660631 
 120      A5CFB2
 121 0683 06979BF7 		.ascii	"\006\227\233\367\234\003c\024\315]dE\365\317W\222S\277"
 121      9C036314 
 121      CD5D6445 
 121      F5CF5792 
 121      53BF
 122 0695 43FED6F1 		.ascii	"C\376\326\361\244#\370\355&Ld\032k\277\310:V\177I\377"
 122      A423F8ED 
 122      264C641A 
 122      6BBFC83A 
 122      567F49FF 
 123 06a9 902BA9B4 		.ascii	"\220+\251\264@.&\250\177&\257\331\2720\256L8@\021\010"
 123      402E26A8 
 123      7F26AFD9 
 123      BA30AE4C 
 123      38401108 
 124 06bd 1A1F4CB9 		.ascii	"\032\037L\271\341@\332\261\351\301\343\266\010\274\347"
 124      E140DAB1 
 124      E9C1E3B6 
 124      08BCE7
 125 06cc 22018A42 		.ascii	"\"\001\212BP\353Pj\012C\242>3C\313a9\016\2455[!7&\032"
 125      50EB506A 
 125      0A43A23E 
 125      3343CB61 
 125      390EA535 
 126 06e5 A00308CA 		.ascii	"\240\003\010\312l\256\310r'\365\237!\323X\\\356\014"
 126      6CAEC872 
 126      27F59F21 
ARM GAS  /tmp/cc7c2vFc.s 			page 10


 126      D3585CEE 
 126      0C
 127 06f6 7E81FA09 		.ascii	"~\201\372\011\240\030\004\335\217\257\361##\026f\205"
 127      A01804DD 
 127      8FAFF123 
 127      23166685 
 128 0706 89A9E92E 		.ascii	"\211\251\351.\215\265\376\027\313J&\026\230\203\210"
 128      8DB5FE17 
 128      CB4A2616 
 128      988388
 129 0715 799B927D 		.ascii	"y\233\222}\211!a\237\343c\364</\014_\030\207\000\212"
 129      8921619F 
 129      E363F43C 
 129      2F0C5F18 
 129      87008A
 130 0728 43D0F984 		.ascii	"C\320\371\204\214\017\014\271j\201\334M\320\341\206"
 130      8C0F0CB9 
 130      6A81DC4D 
 130      D0E186
 131 0737 FA2756D3 		.ascii	"\372'V\323*&\036\240\303\010\272y\276\262\322\231\344"
 131      2A261EA0 
 131      C308BA79 
 131      BEB2D299 
 131      E4
 132 0748 60537169 		.ascii	"`Sqig+~\336$\000t\304\014\011\030\301j\017\017\017\261"
 132      672B7EDE 
 132      240074C4 
 132      0C0918C1 
 132      6A0F0F0F 
 133 075d D447EBB9 		.ascii	"\324G\353\271\331[\253\361Q\261\022O\265\326O\245\364"
 133      D95BABF1 
 133      51B1124F 
 133      B5D64FA5 
 133      F4
 134 076e 92F9CA14 		.ascii	"\222\371\312\024\336\233\304\326\237yI\356\237}g\343"
 134      DE9BC4D6 
 134      9F7949EE 
 134      9F7D67E3 
 135 077e 38649B64 		.ascii	"8d\233d\025\222\315\276\254V\255\221H\267h\245>\254"
 135      1592CDBE 
 135      AC56AD91 
 135      48B768A5 
 135      3EAC
 136 0790 74CB263B 		.ascii	"t\313&;I\215J\"e\265\233\375\275\274X\225V-\373\216"
 136      498D4A22 
 136      65B59BFD 
 136      BDBC5895 
 136      562DFB8E 
 137 07a4 B56B3727 		.ascii	"\265k7'\345\022\365\026\0337\335.Q\253Y\225\346\323"
 137      E512F516 
 137      1B37DD2E 
 137      51AB5995 
 137      E6D3
 138 07b6 4A6949A8 		.ascii	"JiI\250\320\246\245yI\365v\265\206\225\233:\322\260"
 138      D0A6A579 
 138      49F576B5 
 138      86959B3A 
ARM GAS  /tmp/cc7c2vFc.s 			page 11


 138      D2B0
 139 07c8 0B77648A 		.ascii	"\013wd\212\310\324\032\231"
 139      C8D41A99 
 140 07d0 D4768E50 		.ascii	"\324v\216PR\352\305\315\247D\252Q\252\266k\225\233\377"
 140      52EAC5CD 
 140      A744AA51 
 140      AAB66B95 
 140      9BFF
 141 07e2 C1CDAD97 		.ascii	"\301\315\255\227RM\355\035'\345\022\231\357f\345\267"
 141      524DED1D 
 141      27E51299 
 141      EF66E5B7 
 142 07f2 ECE24935 		.ascii	"\354\342I5+\227\370\371(U\363\242\324\2447\253`U2\251"
 142      2B97F8F9 
 142      2855F3A2 
 142      D4A437AB 
 142      605532A9 
 143 0806 650D2C71 		.ascii	"e\015,q{u\262R\215Z\253b\275\271\006U\3337-P\347\267"
 143      7B75B252 
 143      8D5AAB62 
 143      BDB90655 
 143      DB372D50 
 144 081c 5A8544CE 		.ascii	"Z\205D\316\252\265\276\254\302[\343c\233\364W\263\263"
 144      AAB5BEAC 
 144      C25BE363 
 144      9BF457B3 
 144      B3
 145 082d 69DB69B2 		.ascii	"i\333i\262Izn\347F\223I\227\220\244\316%5)g\345~J\245"
 145      497A6EE7 
 145      46934997 
 145      90A4CE25 
 145      352967E5 
 146 0844 EF023B79 		.ascii	"\357\002;y6\351\303J\374(kI\037S\312\315\371\022\352"
 146      36E9C34A 
 146      FC286B49 
 146      1F53CACD 
 146      F912EA
 147 0857 A4AEA49D 		.ascii	"\244\256\244\2351\325j\2117k:\2402\245J\246\231\233"
 147      31D56A89 
 147      376B3AA0 
 147      32A54AA6 
 147      999B
 148 0869 2FBBC9C5 		.ascii	"/\273\311\305;b\267\262\012n!529\253\364\327\330\333"
 148      3B62B7B2 
 148      0A6E2135 
 148      3239ABF4 
 148      D7D8DB
 149 087c 21D6E462 		.ascii	"!\326\344b;\331\224\224*\025\236[%*\333Q\355&\027\257"
 149      3BD99494 
 149      2A159E5B 
 149      252ADB51 
 149      ED2617AF 
 150 0890 53EEAF61 		.ascii	"S\356\257a\2719\342v\234\324_\245\226me\355\367nN.a"
 150      B939E276 
 150      9CD45FA5 
 150      966D65ED 
 150      F76E4E2E 
ARM GAS  /tmp/cc7c2vFc.s 			page 12


 151 08a5 E6AD27E3 		.ascii	"\346\255'\343\223\031] i\357\016\231Mn\223\3108\275"
 151      93195D20 
 151      69EF0E99 
 151      4D6E93C8 
 151      38BD
 152 08b7 4CB37847 		.ascii	"L\263xG\363\316\316\202I\215\234\272\347>I*\375\270"
 152      F3CECE82 
 152      498D9CBA 
 152      E73E492A 
 152      FDB8
 153 08c9 E9E6AE4D 		.ascii	"\351\346\256M\255\332\217e=\027\252S\241\324\312<\271"
 153      ADDA8F65 
 153      3D17AA53 
 153      A1D4CA3C 
 153      B9
 154 08da CBCE7C81 		.ascii	"\313\316|\201/\224\264\354b\233\353\3306iZj\3557\376"
 154      2F94B4EC 
 154      629BEBD8 
 154      36695A6A 
 154      ED37FE
 155 08ed 1285C6DF 		.ascii	"\022\205\306\337\266\332yI\265\006\302\236\254\257F"
 155      B6DA7949 
 155      B506C29E 
 155      ACAF46
 156 08fc B2843135 		.ascii	"\262\20415\333\375\270\365\261-`^R\246\320\260\252\255"
 156      DBFDB8F5 
 156      B12D605E 
 156      52A6D0B0 
 156      AAAD
 157 090e 125F5AD0 		.ascii	"\022_Z\320\306\356\245b\277\361g\025\322Ef\236Kr\353"
 157      C6EEA562 
 157      BFF16715 
 157      D245669E 
 157      4B72EB
 158 0921 ADF4F5D7 		.ascii	"\255\364\365\327\310\224\012\372\331\364\323\205\356"
 158      C8940AFA 
 158      D9F4D385 
 158      EE
 159 092e DC2556EC 		.ascii	"\334%V\354\335\263Co\260\263D\226\244<08\304\260\264"
 159      DDB3436F 
 159      B0B34496 
 159      A43C3038 
 159      C4B0B4
 160 0941 A4EE3F8B 		.ascii	"\244\356?\213'\0357\254Y\273f\255\031\330\2527\374\020"
 160      271D37AC 
 160      59BB66AD 
 160      19D8AA37 
 160      FC10
 161 0953 18122C56 		.ascii	"\030\022,V\207\032\002\203\277\247#\346\244:T\267#H"
 161      871A0283 
 161      BFA723E6 
 161      A43A54B7 
 161      2348
 162 0965 2FF60AD2 		.ascii	"/\366\012\322\331\211\231\222\177\205\306\014!\001{"
 162      D9899992 
 162      7F85C60C 
 162      21017B
ARM GAS  /tmp/cc7c2vFc.s 			page 13


 163 0974 7786DA4D 		.ascii	"w\206\332M\231~\244\273\002w\004*\325_\2504\346\321"
 163      997EA4BB 
 163      0277042A 
 163      D55FA834 
 163      E6D1
 164 0986 B7851876 		.ascii	"\267\205\030vs\005\210u\006\275N\254\013\012\374>x\217"
 164      73058875 
 164      06BD4EAC 
 164      0B0AFC3E 
 164      788F
 165 0998 3E3894B6 		.ascii	">8\224\266h\\\035;w\333\213\314K*t\241{\015\272\240"
 165      685C1D3B 
 165      77DB8BCC 
 165      4B2A74A1 
 165      7B0DBAA0 
 166 09ac 05B382DF 		.ascii	"\005\263\202\337K\002\366\351\202w\352\003\304\273\365"
 166      4B02F6E9 
 166      8277EA03 
 166      C4BBF5
 167 09bb 86607D90 		.ascii	"\206`}\220xOH\200\336\262@!\206P\261,\370\337!\013t"
 167      784F4880 
 167      DEB24021 
 167      8650B12C 
 167      F8DF210B 
 168 09d0 2260BDA5 		.ascii	"\"`\275\245R\361Wk\326\257Y'\376r\355\272\015k7\256"
 168      52F1576B 
 168      D6AF5927 
 168      FE72EDBA 
 168      0D6B37AE 
 169 09e4 DB28FE8B 		.ascii	"\333(\376\213A\037\244\327\375\240_-\376\247D%\377B"
 169      411FA4D7 
 169      FDA05F2D 
 169      FEA74425 
 169      FF42
 170 09f6 CFAD4640 		.ascii	"\317\255F@\200>\300\343+\217\035\006\316\265Kl\320\357"
 170      803EC0E3 
 170      2B8F1D06 
 170      CEB54B6C 
 170      D0EF
 171 0a08 0B8469FF 		.ascii	"\013\204i\377r\375\332\365\0337\374\313\262uB\366\374"
 171      72FDDAF5 
 171      1B37FCCB 
 171      B27542F6 
 171      FC
 172 0a19 3730C8FE 		.ascii	"70\310\376\302\201\317U\312U\245\377\237\207|\375,d"
 172      C281CF55 
 172      CA55A5FF 
 172      9F877CFD 
 172      2C64
 173 0a2b D08BB7EA 		.ascii	"\320\213\267\352\014\201:;sa\202\\\2702\366\375\215"
 173      0C813A3B 
 173      7361825C 
 173      B832F6FD 
 173      8D
 174 0a3c F5909B19 		.ascii	"\365\220\233\031\211a\347\256\300P\375Nnz\364v\231\377"
 174      8961E7AE 
 174      C050FD4E 
ARM GAS  /tmp/cc7c2vFc.s 			page 14


 174      6E7AF476 
 174      99FF
 175 0a4e 0375531F 		.ascii	"\003uS\037\263"
 175      B3
 176              		.text
 177              		.section	.gnu.lto_.inline.53bb30036d2034ca,"",%progbits
 178 0000 789C6361 		.ascii	"x\234ca`d\000\001q\026\0068`f`\350aZ\317\315\310\300"
 178      60640001 
 178      71160638 
 178      606660E8 
 178      615ACFCD 
 179 0016 C474819F 		.ascii	"\304t\201\237\201m\201<\023H\224\211\233\001\250v\224"
 179      816D813C 
 179      13489489 
 179      9B01A876 
 179      94
 180 0027 1C254749 		.ascii	"\034%GI\024\222Ai\005##\275\362\0123\203\332>\372\331"
 180      14924169 
 180      052323BD 
 180      F20A3383 
 180      DA3EFAD9 
 181 003b 864C3200 		.ascii	"\206L2\000\000fn\021\032"
 181      00666E11 
 181      1A
 182              		.text
 183              		.section	.gnu.lto_.pureconst.53bb30036d2034ca,"",%progbits
 184 0000 789C6361 		.ascii	"x\234ca`d`g```f\220`\222`\226\000\000\001\240\000]"
 184      60646067 
 184      60606066 
 184      90609260 
 184      96000001 
 185              		.text
 186              		.section	.gnu.lto_rt_test_001_003_execute.53bb30036d2034ca,"",%progbits
 187 0000 789C8DDA 		.ascii	"x\234\215\332YP\023[\036\006\360\234\016\262\211:5\363"
 187      5950135B 
 187      1E06F09C 
 187      0EB2893A 
 187      35F3
 188 0012 3235736B 		.ascii	"25sk\312~\364A\275wj\252\246\312[5U16\230\021\010&\301"
 188      CA7EF441 
 188      BD776AAA 
 188      A6CA5B35 
 188      55313698 
 189 002a B9DE97D4 		.ascii	"\271\336\227\324\224\345\303\274\314r\365>\033dSPD\331"
 189      94E5C3BC 
 189      CC72F53E 
 189      1B645350 
 189      44D9
 190 003c 05445444 		.ascii	"\005DTD\020d\011\010HXT\026Y\004\331\014\012\210\270"
 190      10640908 
 190      48585416 
 190      5904D90C 
 190      0A88B8
 191 004f 202A2A08 		.ascii	" **\010\202\254\231NN\216\347t\223\234\323)\253\300"
 191      82AC994E 
 191      4E8EE774 
 191      939CD329 
ARM GAS  /tmp/cc7c2vFc.s 			page 15


 191      ABC0
 192 0061 E4CFD7DF 		.ascii	"\344\317\327\337\2577N\000\037\025P9\037S;T\252\377"
 192      AF374E00 
 192      1F155039 
 192      1F533B54 
 192      AAFF
 193 0073 FAA9547F 		.ascii	"\372\251T\177\024?\007j\025\340\222{T\252(\177\016\000"
 193      143F076A 
 193      15E0927B 
 193      54AA287F 
 193      0E00
 194 0085 E727167F 		.ascii	"\347'\026\177\240:\301\201\023\340\013\267\306\201{"
 194      A03AC181 
 194      13E00BB7 
 194      C6817B
 195 0094 F19375DC 		.ascii	"\361\223u\334\216B\213\370x\336Z\366\257(K\354\357c"
 195      8E428BF8 
 195      78DE5AF6 
 195      AF284BEC 
 195      EF63
 196 00a6 D52A9583 		.ascii	"\325*\225\203s%\251@!\330\241\022\307^T\254\247m\361"
 196      7325A940 
 196      21D8A112 
 196      C75E54AC 
 196      A76DF1
 197 00b9 8D718E6D 		.ascii	"\215q\216m\207/\202\033\300\327\271\2712C\263\305\341"
 197      872F821B 
 197      C0D7B9B9 
 197      3243B3C5 
 197      E1
 198 00ca 88B6586A 		.ascii	"\210\266Xj~\030\336\021/>3#\276\352\334\316,\3079?\252"
 198      7E18DE11 
 198      2F3E3323 
 198      BEEADCCE 
 198      2CC7393F 
 199 00df 27C1C9F9 		.ascii	"'\301\311\371\231W\177v\316\213A\351\261\367z\375\346"
 199      99577F76 
 199      CE8B41E9 
 199      B1F77AFD 
 199      E6
 200 00f0 B9583500 		.ascii	"\271X5\000\316\334\272\272\351\021\277\023k\226S\026"
 200      CEDCBABA 
 200      E911BF13 
 200      6B965316 
 201 0100 CB6FC4E7 		.ascii	"\313o\304\347N\213\233v>\23583h\015\314\003\271Q\026"
 201      4E8B9B76 
 201      3E9D3833 
 201      680DCC03 
 201      B95116
 202 0113 D7F31C28 		.ascii	"\327\363\034(\026\373\026\201\357\304\315\336\004y@"
 202      16FB1681 
 202      EFC4CDDE 
 202      047940
 203 0122 9CA86A69 		.ascii	"\234\250ji\217\363w\346\210*P\"\2762\005b\2323\2728"
 203      8FF377E6 
 203      882A5022 
 203      BE320562 
ARM GAS  /tmp/cc7c2vFc.s 			page 16


 203      9A33BA38 
 204 0136 E7663606 		.ascii	"\347f6\006\253\035\234\330\014\224\202\023\316\327\306"
 204      AB1D9CD8 
 204      0C948213 
 204      CED7C6
 205 0145 B25B42F8 		.ascii	"\262[B\370\277\346Y2\267\307\252}\234O\330\233\233~"
 205      BFE65932 
 205      B7C7AA7D 
 205      9C4FD89B 
 205      9B7E
 206 0157 146733C5 		.ascii	"\024g3\305\255\035\214Uo\002\267\000\357\312\001e\340"
 206      AD1D8C55 
 206      6F02B700 
 206      EFCA0165 
 206      E0
 207 0168 44ACDAD7 		.ascii	"D\254\332\327\225\235\345-\333\317!BU\240\034f\307\277"
 207      959DE52D 
 207      DBCF2142 
 207      55A01C66 
 207      C7BF
 208 017a B534F838 		.ascii	"\2654\3708{\371\203\355\240\002|\027\253\016p}\371\305"
 208      7BF983ED 
 208      A0027C17 
 208      AB0E707D 
 208      F9C5
 209 018c CD5E9B89 		.ascii	"\315^\233\211fP\011\277\272\372\344\2156_\376\237\260"
 209      665009BF 
 209      BAFAE48D 
 209      365FFE9F 
 209      B0
 210 019d 5AA0F399 		.ascii	"Z\240\363\231\233\325\3664?w\267\310X\365f`E\335\252"
 210      9BD5F634 
 210      3F77B7C8 
 210      58F56660 
 210      45DDAA
 211 01b0 70B75C86 		.ascii	"p\267\\\206\273\032\246[\326\206Z|\371#\004<\341|\361"
 211      BB1AA65B 
 211      D6865A7C 
 211      F923043C 
 211      E17CF1
 212 01c3 2A20E5B7 		.ascii	"* \345\267Qz\015N\317c\310kazg\373\371Q\000\345\342"
 212      517A0D4E 
 212      CF63C86B 
 212      617A67FB 
 212      F95100E5 
 213 01d8 610775D8 		.ascii	"a\007u\330^N\267\337Ql\257G\355l\270\235\225ao\200\351"
 213      5E4EB7DF 
 213      516CAF47 
 213      ED6CB89D 
 213      95616F80 
 214 01ed D3EDB979 		.ascii	"\323\355\271y\034\177\026\020\370\361\301\313\265\376"
 214      1C7F1610 
 214      F8F1C1CB 
 214      B5FE
 215 01fb 24BE11C5 		.ascii	"$\276\021\3057\341\370j\006\276Y\214'\217\363m\272\365"
 215      37E1F86A 
 215      06BE598C 
ARM GAS  /tmp/cc7c2vFc.s 			page 17


 215      278FF36D 
 215      BAF5
 216 020d AE62EB3D 		.ascii	"\256b\353=T\346>.S\307\260\266\300\364'\305/\376\306"
 216      54E63E2E 
 216      53C7B0B6 
 216      C0F427C5 
 216      2FFEC6
 217 0220 D790D4AF 		.ascii	"\327\220\324\257e\013\023>$\265\025\245\267\341\364"
 217      650B133E 
 217      24B515A5 
 217      B7E1F4
 218 022f 7A06B55D 		.ascii	"z\006\265]F\265\321\251\017\024S;P\231N\\\246\211A\355"
 218      46B5D1A9 
 218      0F14533B 
 218      50994E5C 
 218      A68941ED 
 219 0243 82E9F303 		.ascii	"\202\351\363\003\371\331\201\374\004i\355\037M|\253"
 219      F9D981FC 
 219      0469ED1F 
 219      4D7CAB
 220 0252 26ADDD28 		.ascii	"&\255\335(\376!\216\357cX{`\274-\357LQ <\2479\320\213"
 220      FE218EEF 
 220      63587B60 
 220      BC2DEF4C 
 220      51203CA7 
 221 0269 E9FD74FA 		.ascii	"\351\375t\372#\305\364>\324\255\037w\033b\320\007`z"
 221      23C5F43E 
 221      D4AD1F77 
 221      1B62D007 
 221      607A
 222 027b CC75DB84 		.ascii	"\314u\333\204?\237\310\021\364\223\263\251\275\201$"
 222      3F9FC811 
 222      F493B3A9 
 222      BD8124
 223 028a 7D10C50F 		.ascii	"}\020\305\017\341x;\203\376\030\306\177\273Q\213\337"
 223      E1783B83 
 223      FE18C67F 
 223      BB518BDF 
 224 029a 2E801DD3 		.ascii	".\200\035\323\207\351\364a\305\364'\250\333S\334m\204"
 224      87E9F461 
 224      C5F427A8 
 224      DB53DC6D 
 224      84
 225 02ab 411F81E9 		.ascii	"A\037\201\351\321+\335\265\333\370j\222\236P\375\340"
 225      D12BDDB5 
 225      DBF86A92 
 225      9E50FDE0 
 226 02bb 4210491F 		.ascii	"B\020I\037E\361c8~\214A\177\346<\303\011\3533\272u\\"
 226      45F16338 
 226      7E8C417F 
 226      E63CC309 
 226      EB33BA75 
 227 02d0 B1F5392A 		.ascii	"\261\3659*3\201\313\3142\254/`\372\372\342Zo\000?NZ"
 227      3381CBCC 
 227      32AC2F60 
 227      FAFAE25A 
 227      6F003F4E 
ARM GAS  /tmp/cc7c2vFc.s 			page 18


 228 02e5 CFE6B4DA 		.ascii	"\317\346\264\3328\322\372\022\305\277\302\361s\014\353"
 228      38D2FA12 
 228      C5BFC2F1 
 228      730CEB
 229 02f4 6B99759E 		.ascii	"k\231u\236n\235Tl}\203\312L\3412\213\014\353[\230\336"
 229      6E9D546C 
 229      7D83CA4C 
 229      E1328B0C 
 229      EB5B98DE 
 230 0308 F8B0FE47 		.ascii	"\370\260\376G\376\264\232\240N\306L\315I\316\350w(\375"
 230      FEB49AA0 
 230      4EC64CCD 
 230      49CEE877 
 230      28FD
 231 031a 3D4E5F62 		.ascii	"=N_bP\247\335\335\343\273+\334\0273\000\037\260|\231"
 231      50A7DDDD 
 231      E3BB2BDC 
 231      1733001F 
 231      B07C99
 232 032d 2EFFA858 		.ascii	".\377\250X\376\011u\233\301\335\326\030\362Y\230\276"
 232      FE09759B 
 232      C1DDD618 
 232      F25998BE 
 233 033d 9450D9CD 		.ascii	"\224P\331\315\361V\222\2362hk\330B\322?\243\3709\034"
 233      F156929E 
 233      32686BD8 
 233      42D23FA3 
 233      F8391C
 234 0350 EF60D0E7 		.ascii	"\357`\320\347\235G\231\260&o\245Z\277(\266.\2402\213"
 234      9D4799B0 
 234      266FA55A 
 234      BF28B62E 
 234      A0328B
 235 0363 B84C4A0F 		.ascii	"\270LJ\017\335\372\025\246[\213G\306\003\3711\322\372"
 235      DDFA15A6 
 235      5B8B47C6 
 235      03F931D2 
 235      FA
 236 0374 B564216B 		.ascii	"\265d!k\033i]B\361\3138>\315[\274\333\272\"\263\246"
 236      1B695D42 
 236      F1CB383E 
 236      CD5BBCDB 
 236      BA22B3A6 
 237 0388 D3ADAB8A 		.ascii	"\323\255\253\212\255k\250\314:\261\034dX\0350}\271c"
 237      AD6BA8CC 
 237      3AB11C64 
 237      581D307D 
 237      B963
 238 039a E053101F 		.ascii	"\340S\020\037\357C\336\251\272V\002H\252\205s\247Gq"
 238      EF43DEA9 
 238      BA560248 
 238      AA8573A7 
 238      4771
 239 03ac DFD2B319 		.ascii	"\337\322\263\031\324\223\234\224\232C\247FsJ\2511\250"
 239      D4939C94 
 239      9A43A746 
 239      734AA931 
ARM GAS  /tmp/cc7c2vFc.s 			page 19


 239      A8
 240 03bd 4C2C2E93 		.ascii	"L,.\223\307\240\306\301tKj\3353\216\257 \251\226\261"
 240      C7A0C6C1 
 240      744B6ADD 
 240      338EAF20 
 240      A996B1
 241 03d0 8E06C961 		.ascii	"\216\006\311a\215G\361\247p|\005\303zZf\255\244[\023"
 241      8D47F1A7 
 241      707C05C3 
 241      7A5A66AD 
 241      A45B13
 242 03e3 145B1351 		.ascii	"\024[\023Q\2313\270L5\303z\026\246ww\245\267\252\371"
 242      9933B84C 
 242      35C37A16 
 242      A67777A5 
 242      B7AAF9
 243 03f6 11D29A35 		.ascii	"\021\322\2325{\256S\262\232LB\361\347p|\015\303\232"
 243      7BAE53B2 
 243      9A4C42F1 
 243      E7707C0D 
 243      C39A
 244 0408 CC496FCA 		.ascii	"\314Io\312\265t\353y\305\326\013\250L\012.S\317\260"
 244      B574EB79 
 244      C5D60BA8 
 244      4C0A2E53 
 244      CFB0
 245 041a A6C2F4CE 		.ascii	"\246\302\364\316\213ms\034\037\273\211\260&-\246\264"
 245      8B6D731C 
 245      1FBB89B0 
 245      262DA6B4 
 246 042a 4ABED9A6 		.ascii	"J\276\331\246\241\370t\034\337\300\260f\310\216k#\335"
 246      A1F8741C 
 246      DFC0B066 
 246      C88E6B23 
 246      DD
 247 043b 9AA9D89A 		.ascii	"\232\251\330\232\205\312\\\304e\372\030\326lw\272\255"
 247      85CA5CC4 
 247      65FA18D6 
 247      6C77BAAD 
 248 044b B750CD97 		.ascii	"\267P\315\227\221\326\351\211\212?\221\324\034\224\236"
 248      91D6E989 
 248      8A3F91D4 
 248      1C949E
 249 045a 8BD30718 		.ascii	"\213\323\007\030\324K\262\303:H\247\346)\246^Fe\362"
 249      D44BB2C3 
 249      3A48A7E6 
 249      29A65E46 
 249      65F2
 250 046c 71193B83 		.ascii	"q\031;\203z\005\246\327/'\265\005\360OHjL\343\303?\220"
 250      7A05A6D7 
 250      2F27B505 
 250      F04F486A 
 250      4CE3C33F 
 251 0481 D4AB28FD 		.ascii	"\324\253(\375\032N\177\302\240\026\310\216\352S:\365"
 251      1A4E7FC2 
 251      A016C88E 
 251      EA533AF5 
ARM GAS  /tmp/cc7c2vFc.s 			page 20


 252 0491 BA626A21 		.ascii	"\272bj!*s\003\227\031cP\213`zyk\347\222/\037\355KPk"
 252      2A730397 
 252      1963508B 
 252      607A796B 
 252      E7922F1F 
 253 04a9 6DF679C9 		.ascii	"m\366y\3117\327b\024\177\023\307\2173\254%2\353\014"
 253      37D76214 
 253      7F13C78F 
 253      33AC2532 
 253      EB0C
 254 04bb DD5AAAD8 		.ascii	"\335Z\252\330z\013\225)\303e\346\030\326r\230~3\353"
 254      7A0B9529 
 254      C365E618 
 254      D672987E 
 254      33EB
 255 04cd F5F56D7C 		.ascii	"\365\365m|)i\265\217\177\254\222\274\371\253@\361\225"
 255      2969B58F 
 255      7FAC92BC 
 255      F9AB40F1 
 255      95
 256 04de 38FE0BC3 		.ascii	"8\376\013\303j\225Y\027\350\326*\305\326jT\3466.\263"
 256      6A955917 
 256      E8D62AC5 
 256      D66A54E6 
 256      362EB3
 257 04f1 C4B0D6C0 		.ascii	"\304\260\326\300\364\264\004k\242/o'\255y\371\227\326"
 257      F4B4046B 
 257      A22F6F27 
 257      AD79F997 
 257      D6
 258 0502 25C7B516 		.ascii	"%\307\265\026\305\327\341\370\025\206\365\216\314\272"
 258      C5D7E1F8 
 258      1586F58E 
 258      CCBA
 259 0510 4AB7D62B 		.ascii	"J\267\326+\266\332P\231\006\\\306\301\2606\302\364\361"
 259      B6DA5099 
 259      065CC6C1 
 259      B036C2F4 
 259      F1
 260 0521 E5911D7C 		.ascii	"\345\221\035|\224\037AM\177l\037\227P\233Pz3N?\337K"
 260      941F414D 
 260      7F6C1F97 
 260      509B507A 
 260      334E3FDF 
 261 0536 A7DE9551 		.ascii	"\247\336\225Q/l\243R\357)\246\336GeZp\2314oe\334\324"
 261      2F6CA352 
 261      EF29A6DE 
 261      47655A70 
 261      99346F65 
 262 054c 56777ACC 		.ascii	"Vwz\314\245\217A\374M\322z.\371\371'\311;\2366\024\337"
 262      A58F41FC 
 262      4DD27A2E 
 262      F9F927C9 
 262      3B9E3614 
 263 0561 8EE33318 		.ascii	"\216\3433\030\326\007\262\273p&\335\332\241\330\332"
 263      D607B2BB 
 263      7026DDDA 
ARM GAS  /tmp/cc7c2vFc.s 			page 21


 263      A1D8DA
 264 0570 89CA7411 		.ascii	"\211\312t\021+8\206\265\033\246\017\225,88~\210\264"
 264      2B3886B5 
 264      1BA60F95 
 264      2C38387E 
 264      88B4
 265 0582 AED6CF5E 		.ascii	"\256\326\317^\221\034\327\207(\276\007\307\3472\254"
 265      911CD787 
 265      28BE07C7 
 265      E732AC
 266 0591 BDB2E37A 		.ascii	"\275\262\343z\211n}\244\330\332\207\312\364\023+8\206"
 266      896E7DA4 
 266      D8DA87CA 
 266      F4132B38 
 266      86
 267 05a2 7500A6DF 		.ascii	"u\000\246\337+\273\333\035\310;Hk]VA\245\344\347\217"
 267      2BBBDB1D 
 267      C83B486B 
 267      5D5641A5 
 267      E4E78F
 268 05b5 83287E08 		.ascii	"\203(~\010\307[\031\326\3072k\025\335jWl\035Fe\236\020"
 268      C75B19D6 
 268      C7326B15 
 268      DD6A576C 
 268      1D46659E 
 269 05ca 2B3886F5 		.ascii	"+8\206\365)L\037\231~\223\340\313\027\371\023\326+\357"
 269      294C1F99 
 269      7E93E0CB 
 269      17F913D6 
 269      2BEF
 270 05dc 12973791 		.ascii	"\022\2277\221\326\021\024?\212\343\353\030\3261\231"
 270      D611143F 
 270      8AE3EB18 
 270      D63199
 271 05eb F50EDDFA 		.ascii	"\365\016\335\372L\261u\034\225yN\254\340\030\326\011"
 271      4CB1751C 
 271      95794EAC 
 271      E018D609 
 272 05fb 98BE7A21 		.ascii	"\230\276z!\261>\210\037 \255\227\026\356\334\221,\206"
 272      B13E881F 
 272      20AD9716 
 272      EEDC912C 
 272      86
 273 060c 5FA0F897 		.ascii	"_\240\370\2278\276\211a}%\263>\242[_+\266N\2422o\210"
 273      38BE8961 
 273      7D25B33E 
 273      A25B5F2B 
 273      B64EA232 
 274 0622 251CC33A 		.ascii	"%\034\303:\005\323g\372\343k\002\3715\322\372\326\366"
 274      05D367FA 
 274      E36B02F9 
 274      35D2FAD6 
 274      F6
 275 0633 346B3369 		.ascii	"4k3i}\213\342\337\341\370!\206\365\275\314\372\230n"
 275      7D8BE2DF 
 275      E1F82186 
 275      F5BDCCFA 
ARM GAS  /tmp/cc7c2vFc.s 			page 22


 275      986E
 276 0645 9D566CFD 		.ascii	"\235Vl\375\200\312|$\326p\014\353'\230\236\237T\324"
 276      80CA7C24 
 276      D6700CEB 
 276      27989E9F 
 276      54D4
 277 0657 A0E60B03 		.ascii	"\240\346\013\003\010\353\251\244\231\002\311\365:\203"
 277      08EBA9A4 
 277      9902C9F5 
 277      3A83
 278 0665 E26771FC 		.ascii	"\342gq\374\010\303\372Yf\035\245[\347\024[\347Q\231"
 278      08C3FA59 
 278      661DA55B 
 278      E7145BE7 
 278      5199
 279 0677 2FC41A8E 		.ascii	"/\304\032\216a]\200\351\213\303\355\215A|\037im\212"
 279      615D80E9 
 279      8BC3ED8D 
 279      417C1F69 
 279      6D8A
 280 0689 7E95EB4B 		.ascii	"~\225\353KZ\027Q\374W\034?\313\260.\311\254\237\351"
 280      5A1751FC 
 280      571C3FCB 
 280      B02EC9AC 
 280      9FE9
 281 069b D665C5D6 		.ascii	"\326e\305\326\025Tf\225X\3031\254k0\275c0{\321\217_"
 281      15546695 
 281      58C331AC 
 281      6B30BD63 
 281      307BD18F 
 282 06b0 21AD7113 		.ascii	"!\255q\023)V\311\033\365u\024\357\300\361\213\014\253"
 282      2956C91B 
 282      F57514EF 
 282      C0F18B0C 
 282      AB
 283 06c1 45ED8A4F 		.ascii	"E\355\212OX\266'\371\303\037\263\371\203(\3657\372W"
 283      58B627F9 
 283      C31FB3F9 
 283      8328F537 
 283      FA57
 284 06d3 3AFDA45A 		.ascii	":\375\244Z)=Z\355\356\026\243\306K:\006=\026\246_\216"
 284      293D5AED 
 284      EE16A3C6 
 284      4B3A063D 
 284      16A65F8E 
 285 06e7 AA890BE4 		.ascii	"\252\211\013\344\013\002\011\372\253\351\251\234\255"
 285      0B0209FA 
 285      ABE9A99C 
 285      AD
 286 06f4 243D0EC5 		.ascii	"$=\016\305\307\343\3705\006\375\224Zz\230\327\351\326"
 286      C7E3F835 
 286      06FD945A 
 286      7A98D7E9 
 286      D6
 287 0705 D38AAD09 		.ascii	"\323\212\255\011\250L\".s\276\237n=\003\323\013_?\230"
 287      A84C222E 
 287      73BE9F6E 
ARM GAS  /tmp/cc7c2vFc.s 			page 23


 287      3D03D30B 
 287      5F3F98
 288 0718 0EE27B49 		.ascii	"\016\342{I\353\247\251k5\222\333\362Y\024\237\204\343"
 288      EBA7A96B 
 288      3592DBF2 
 288      59149F84 
 288      E3
 289 0729 53BCC5BB 		.ascii	"S\274\305\273\255\347d\326\324\337R\255\311\212\255"
 289      ADE764D6 
 289      D4DF52AD 
 289      C98AAD
 290 0738 E751990B 		.ascii	"\347Q\231\013\270L\006\303\232\002\323\357\336\032y"
 290      B84C06C3 
 290      9A02D3EF 
 290      DE1A79
 291 0747 B7855F22 		.ascii	"\267\205_\"\2557bl\363\222\343\232\212\342\323p|\026"
 291      AD37626C 
 291      F392E39A 
 291      8AE2D370 
 291      7C16
 292 0759 C39A2EB3 		.ascii	"\303\232.\263^\244[3\024[3Q\231,\\&\227a\275\010\323"
 292      5EA45B33 
 292      145B3351 
 292      992C5C26 
 292      9761BD08 
 293 076e CF264D3E 		.ascii	"\317&M>\010\344\257n&\254=E\223%\222\3137\033\305\347"
 293      08E4AF6E 
 293      26AC3D45 
 293      932592CB 
 293      371BC5E7 
 294 0782 E0F83C86 		.ascii	"\340\370<\2065Wf-\247[/)\266\346\2412\227q\031+\303"
 294      3557662D 
 294      A75B2F29 
 294      B6E6A132 
 294      9771192B 
 295 0797 9A0FD35F 		.ascii	"\232\017\323__\355\035\337\304?$\255\317\246G\257\373"
 295      5FED1DDF 
 295      C43F24AD 
 295      CFA647AF 
 295      FB
 296 07a8 91D62B28 		.ascii	"\221\326+(\376*\216\257fX\257\311\254\267\351\326\002"
 296      FE2A8EAF 
 296      6658AFC9 
 296      ACB7E9D6 
 296      02
 297 07b9 C5D6EBA8 		.ascii	"\305\326\353\250L!.S\307\260\336\200\351\037\006\257"
 297      4C212E53 
 297      C7B0DE80 
 297      E91F06AF 
 298 07c9 2C04F08B 		.ascii	",\004\360\213\244\365T"
 298      A4F554
 299 07d0 5DC5B0E4 		.ascii	"]\305\260\344\267\037E(\276\030\307\3273\2547\325\322"
 299      B71F4528 
 299      BE18C7D7 
 299      33AC37D5 
 299      D2
 300 07e1 B73D36BA 		.ascii	"\267=6\272\265D\261\265\024\225\271\205\31341\254e0"
ARM GAS  /tmp/cc7c2vFc.s 			page 24


 300      B544B1B5 
 300      1495B985 
 300      CB3431AC 
 300      6530
 301 07f3 DD621969 		.ascii	"\335b\031i\010\342\363\203\010\353zC\301W\3112\252\034"
 301      08E2F383 
 301      08EB7A43 
 301      C157C932 
 301      AA1C
 302 0805 C557E0F8 		.ascii	"\305W\340\370>\206\265Rf\355\247[\255\212\255U\250L"
 302      3E86B552 
 302      66EDA75B 
 302      AD8AAD55 
 302      A84C
 303 0817 352E33C4 		.ascii	"5.3\304\260\336\206\351\357V\333\032}\370.\322\232\261"
 303      B0DE86E9 
 303      EF56DB1A 
 303      7DF82ED2 
 303      9AB1
 304 0829 18B726F9 		.ascii	"\030\267&\371\211L\015\212\257\305\361v\206\265Nf\035"
 304      894C0D8A 
 304      AFC5F176 
 304      86B54E66 
 304      1D
 305 083a A65BEF28 		.ascii	"\246[\357(\266\326\24326\\f\204am\200\351\245\203\327"
 305      B6D6A332 
 305      365C6684 
 305      616D80E9 
 305      A583D7
 306 084d C4DBEC17 		.ascii	"\304\333\354\027\322Z\225\025\227 y\333\323\210\342"
 306      D25A9515 
 306      972079DB 
 306      D388E2
 307 085c 9B70FC18 		.ascii	"\233p\374\030\303\332,\263>\243[\357*\266\336Ce\356"
 307      C3DA2CB3 
 307      3EA35BEF 
 307      2AB6DE43 
 307      65EE
 308 086e E332B30C 		.ascii	"\3432\263\014k\013L\357\270\232\266\012\370\274-\204"
 308      6B0B4CEF 
 308      B89AB60A 
 308      F8BC2D84 
 309 087e D55A5C5A 		.ascii	"\325Z\\Z)\371\376\332\212\342\333p\374\034\303\332\016"
 309      29F9FEDA 
 309      8AE2DB70 
 309      FC1CC3DA 
 309      0E
 310 088f E307A25B 		.ascii	"\343\007\242[z\325p\031\345\000\340\001^G\315\323\355"
 310      7AD57019 
 310      E500E001 
 310      5E47CDD3 
 310      ED
 311 08a0 1D8AED9D 		.ascii	"\035\212\355\235\250\\\027.\267\310\260w\303\364\324"
 311      A85C172E 
 311      B7C8B077 
 311      C3F4D4
 312 08af ABCB256A 		.ascii	"\253\313%j\276\203\264\217\245\277_\221\374N\340!\212"
ARM GAS  /tmp/cc7c2vFc.s 			page 25


 312      BE83B48F 
 312      A5BF5F91 
 312      FC4EE021 
 312      8A
 313 08c0 EFC1F14B 		.ascii	"\357\301\361K\014{/\214\237+\310\311p/!-\000<\302\366"
 313      0C7B2F8C 
 313      9F2BC8C9 
 313      702F212D 
 313      003CC2F6 
 314 08d4 65BABD4F 		.ascii	"e\272\275O\261\275\037\225\033 \026y\014\373\240\373"
 314      B1BD1F95 
 314      1B201679 
 314      0CFBA0FB 
 315 08e4 7AFEB458 		.ascii	"z\376\264X\030\304\317\221\366\246\214\252R\311[\205"
 315      18C4CF91 
 315      F6A68CAA 
 315      52C95B85 
 316 08f4 2114FF18 		.ascii	"!\024\377\030\307;\030v\273\354\034O\376\035\325:\254"
 316      C73B1876 
 316      BBEC1C4F 
 316      FE1DD53A 
 316      AC
 317 0905 D8FA0495 		.ascii	"\330\372\004\225yJ,\362\006\030\177h\001\323\357G\177"
 317      794A2CF2 
 317      06187F68 
 317      01D3EF47 
 317      7F
 318 0916 28F1E173 		.ascii	"(\361\341s\267\022\326\374\244\314\373\222s|\024\305"
 318      B712D6FC 
 318      A4CCFB92 
 318      737C14C5 
 319 0926 8FE1F834 		.ascii	"\217\341\3704o\361\350\017-d\326t\272u\\\261\3659*3"
 319      6FF1E80F 
 319      2D64D674 
 319      BA755CB1 
 319      F5392A33 
 320 093a 412CF218 		.ascii	"A,\362\030\326\0270=\261<1%\200o'\255\013c\235\323\222"
 320      D617303D 
 320      B13C3125 
 320      806F27AD 
 320      0B639DD3 
 321 094f 7BD74B14 		.ascii	"{\327K\024\377\012\307g3\254\257e\326\034\272uR\261"
 321      FF0AC767 
 321      33ACAF65 
 321      D61CBA75 
 321      52B1
 322 0961 F50D2A33 		.ascii	"\365\015*3\005\313\274\003'\233+\214\256\247\234\217"
 322      05CBBC03 
 322      279B2B8C 
 322      AEA79C8F 
 323 0971 191197DC 		.ascii	"\031\021\227\334\243\022+\374e\327\256\335\360\337\361"
 323      A3122BFC 
 323      65D7AEDD 
 323      F0DFF1
 324 0980 A3C78EEF 		.ascii	"\243\307\216\357\376\345\370\356c\377\371\365\227#G"
 324      FEE5F8EE 
 324      63FFF9F5 
ARM GAS  /tmp/cc7c2vFc.s 			page 26


 324      972347
 325 098f D17FCDCE 		.ascii	"\321\177\315\316\217\346cG\377\367\353\321\177\0379"
 325      8FE66347 
 325      FFF7EBD1 
 325      7F1F39
 326 099e 6AFEFEFB 		.ascii	"j\376\376\373\037v\035Q\355\330\271s\347v\355~\2636"
 326      1F761D51 
 326      EDD8B973 
 326      E776ED7E 
 326      B336
 327 09b0 38C46C34 		.ascii	"8\304l4\231\015\202Q\037\032i\322\351\303\367l\227>"
 327      990D8251 
 327      1F1A69D2 
 327      E9C3F76C 
 327      973E
 328 09c2 54403E1B 		.ascii	"T@>\033l\020\016F\012\341\332\303\362\321\355\222I]"
 328      6C100E46 
 328      0AE1DAC3 
 328      F2D1ED92 
 328      495D
 329 09d4 B849301C 		.ascii	"\270I0\034\322\204\032\315F\335\317\302\036\312\244"
 329      D2841ACD 
 329      46DDCFC2 
 329      1ECAA4
 330 09e3 49172698 		.ascii	"I\027&\230M\207#\004O\243\362\255;\207\367\011\241&"
 330      4D872304 
 330      4FA3F2AD 
 330      3B87F709 
 330      A126
 331 09f5 0D7DEBAE 		.ascii	"\015}\353\256\314\203\221\232pSd\030}2L\010\323\352"
 331      CC83919A 
 331      70536418 
 331      7D324C08 
 331      D3EA
 332 0a07 0D82A796 		.ascii	"\015\202\247\226\262\311p\275Y\267/T\254\272\337 h\366"
 332      B2C970BD 
 332      59B72F54 
 332      ACBADF20 
 332      68F6
 333 0a19 D144FA08 		.ascii	"\321D\372\010q\373b\236\331\030!\010\324\311H\243\230"
 333      71FB629E 
 333      D9182108 
 333      D4C948A3 
 333      98
 334 0a2a B7B1A197 		.ascii	"\267\261\241\227I\203\020\2423\232\014\214=\357\234"
 334      498310A2 
 334      339A0C8C 
 334      3DEF9C
 335 0a39 FC874667 		.ascii	"\374\207Fg\022~\322\231\330\223F!L\023\261_\334\003"
 335      127ED299 
 335      D8934621 
 335      4C13B15F 
 335      DC03
 336 0a4b 46564F3C 		.ascii	"FVO<i\2160\350\364\006\235\311]d\303dX\244\270\361\015"
 336      698E30E8 
 336      F4069DC9 
 336      5D64C364 
ARM GAS  /tmp/cc7c2vFc.s 			page 27


 336      58A4B8F1 
 337 0a60 81944951 		.ascii	"\201\224IQ\246\2154\030u\207\276\035\202\015\223Z}\370"
 337      A68D3418 
 337      7587BE1D 
 337      820D935A 
 337      7DF8
 338 0a72 BE431AC3 		.ascii	"\276C\032\303\306P\257\223\256\223@\037\211\367\301"
 338      C650AF93 
 338      AE93401F 
 338      89F7C1
 339 0a81 8649E190 		.ascii	"\206I\341\220\020n\362P\323\333\344\206DO\"\301h\324"
 339      106EF250 
 339      D3DBE486 
 339      444F22C1 
 339      68D4
 340 0a93 8478C07B 		.ascii	"\204x\300{\235\224\355MO\223\032]\350^\275\207=\352"
 340      9D94ED4D 
 340      4F931A5D 
 340      E85EBD87 
 340      3DEA
 341 0aa5 21D37536 		.ascii	"!\323u6+\330\363\373\005M\204\307\363\316Sf\204^\037"
 341      2BD8F3FB 
 341      054D84C7 
 341      F3CE5366 
 341      845E1F
 342 0ab8 AA40A4DF 		.ascii	"\252@\244\337\373ws\260.X\317\356\271\357p\270&L\247"
 342      FB7773B0 
 342      2E58CFEE 
 342      B9EF70B8 
 342      264CA7
 343 0acb 55D03358 		.ascii	"U\3203X\2435\351=\234\362\322I\367\224\270\247~2\213"
 343      A335E93D 
 343      9CF2D249 
 343      F794B8A7 
 343      7E328B
 344 0ade C9E24E0D 		.ascii	"\311\342N\015\025\302CL\373\367x\235\024\273\012Z\223"
 344      15C2434C 
 344      FBF7789D 
 344      14BB0A5A 
 344      93
 345 0aef 517A4D79 		.ascii	"QzMy\234\014\021\302\005\203Nk\336\033\031\034,\240"
 345      9C0C11C2 
 345      05834E6B 
 345      DE1B191C 
 345      2CA0
 346 0b01 13D0E3A4 		.ascii	"\023\320\343\244\307k\311KO\017G\324[\317\215\373\364"
 346      C76BC94B 
 346      4F0F47D4 
 346      5BCF8DFB 
 346      F4
 347 0b12 DBE4BEBD 		.ascii	"\333\344\276\275\316\273\242\306$\022tZ\352\231\354"
 347      CEBBA2C6 
 347      2412745A 
 347      EA99EC
 348 0b21 9A3C6C34 		.ascii	"\232<l4\011a\256/\020/\223\375\202\366\200\247\236\316"
 348      0961AE2F 
 348      102F93FD 
ARM GAS  /tmp/cc7c2vFc.s 			page 28


 348      82F680A7 
 348      9ECE
 349 0b33 49215CB3 		.ascii	"I!\\\2637\324=\343\375h\022\223\032\243Q0l\270\226$"
 349      37D43DE3 
 349      FD681293 
 349      1AA35130 
 349      6CB89624 
 350 0b47 93268346 		.ascii	"\223&\203F\353<\227\215\007X=\341$\334\337\033n\314"
 350      EB3C978D 
 350      07583DE1 
 350      24DCDF1B 
 350      6ECC
 351 0b59 9EB62E8A 		.ascii	"\236\266.\212\264\007\350\242`]h\250\373\326M9\223]"
 351      B407E8A2 
 351      605D68A8 
 351      FBD64D39 
 351      935D
 352 0b6b 5B8743E2 		.ascii	"[\207C\342e\251\027\277H\027\036\"\331\372\377\001+"
 352      65A917BF 
 352      48171E22 
 352      D9FAFF01 
 352      2B
 353 0b7c 04B1F4   		.ascii	"\004\261\364"
 354              		.text
 355              		.section	.gnu.lto_rt_test_001_002_execute.53bb30036d2034ca,"",%progbits
 356 0000 789C8D95 		.ascii	"x\234\215\225KL\023A\030\307\347\233-m)\002\306\223"
 356      4B4C1341 
 356      18C7E79B 
 356      2D6D2902 
 356      C693
 357 0012 891CBA07 		.ascii	"\211\034\272\007\017\034hK4\232x5z0Q\021\324+)u#U\244"
 357      0F1C684B 
 357      349A7835 
 357      7A305111 
 357      D42B2975 
 358 0029 B18F7397 		.ascii	"\261\217s\227\307\202\006\0235HA\024{0\206\227B\021"
 358      C7820613 
 358      35484114 
 358      7B308697 
 358      4211
 359 003b 6AAD0F28 		.ascii	"j\255\017(o\004\004\025\022\017\020%\242\304\030c\300"
 359      6F040415 
 359      120F1025 
 359      A2C41863 
 359      C0
 360 004c 804604EA 		.ascii	"\200F\004\352L\267\353\2561}L\232\354\364\233o~\363"
 360      4CB7EBAE 
 360      317D4C9A 
 360      ECF49B6F 
 360      7EF3
 361 005e FF75D256 		.ascii	"\377u\322V\205\000\321\261\220\202\320!2\335E\346\300"
 361      8500D1B1 
 361      9082D021 
 361      32DD45E6 
 361      C0
 362 006f 20C0D7A6 		.ascii	" \300\327\246\020*\323b\000:\341\265\200\334\030\334"
 362      102AD362 
ARM GAS  /tmp/cc7c2vFc.s 			page 29


 362      003AE1B5 
 362      80DC18DC 
 363 007f B0863731 		.ascii	"\260\20671\014T/\005qv3O\306\302\275\337\305e\274\260"
 363      0C542F05 
 363      7176334F 
 363      C6C2BDDF 
 363      C565BCB0 
 364 0093 5360100A 		.ascii	"S`\020\012\343\010\011A3d#\322\366\241k\253.]]I\333"
 364      E3080941 
 364      336423D2 
 364      F6A16BAB 
 364      2E5D5D49 
 365 00a8 F4E222B4 		.ascii	"\364\342\"\264\200\232\036\327\231\037\342\303\341\012"
 365      809A1ED7 
 365      991FE2C3 
 365      E10A
 366 00b6 9E0FE436 		.ascii	"\236\017\3446\356\336\201\3202Y\244\307\254`L\237\314"
 366      EEDE81D0 
 366      3259A4C7 
 366      AC604C9F 
 366      CC
 367 00c7 1294AFFA 		.ascii	"\022\224\257\3726ri;\341x\204\201i\315*\026\030\000"
 367      3672693B 
 367      E1788481 
 367      69CD2A16 
 367      1800
 368 00d9 8A0D06BF 		.ascii	"\212\015\006\277\316i\334\233\374%\236\337Nj\227\311"
 368      CE69DC9B 
 368      FC259EDF 
 368      4E6A97C9 
 369 00e9 C9B45CB3 		.ascii	"\311\264\\\263<\333\255\363BS\031\037\251ch#q[!\213"
 369      3CDBADF3 
 369      4253191F 
 369      A9636823 
 369      715B218B 
 370 00fd 9CDA0E5E 		.ascii	"\234\332\016^ \035=C\243UZ\312!Rp\237\254|\206\312\320"
 370      201D3D43 
 370      A3555ACA 
 370      2152709F 
 370      AC7C86CA 
 371 0112 DA28A6C7 		.ascii	"\332(\246\307\374\017f\302\230D\205\007\340\246kw\206"
 371      FC0F66C2 
 371      98448507 
 371      E0A66B77 
 371      86
 372 0123 AF8434EC 		.ascii	"\257\2044\354~/\337\240\027\030\025\255x6\346[3Iw\003"
 372      7E2FDFA0 
 372      171815AD 
 372      7836E65B 
 372      33497703 
 373 0137 39EF94C0 		.ascii	"9\357\224\300\244@\007\260\021\022t\202[`\324\021\372"
 373      A44007B0 
 373      11127482 
 373      5B60D411 
 373      FA
 374 0148 CF3874E2 		.ascii	"\3178t\342\014>\221\356\233\361\177\304\354y\221\256"
 374      0C3E91EE 
ARM GAS  /tmp/cc7c2vFc.s 			page 30


 374      9BF17FC4 
 374      EC7991AE 
 375 0158 A19595EA 		.ascii	"\241\225\225\352\273\202*J?!0Z\350\222\350\017e\372"
 375      BB822A4A 
 375      3F21305A 
 375      E892E80F 
 375      65FA
 376 016a AF58F4D4 		.ascii	"\257X\364\3240&\237\012t\213t\177\365d\227\216z\353"
 376      30269F0A 
 376      748B747F 
 376      F564978E 
 376      7AEB
 377 017c 88770F64 		.ascii	"\210w\017d\011LZd\373\272&\256\271?\272\273\274eD\315"
 377      094C5A64 
 377      FBBA26AE 
 377      B93FBABB 
 377      BC6544CD 
 378 0190 D681186E 		.ascii	"\326\201\030n\033-\265\373\337\326id\365tx$\205\013"
 378      1B2DB5FB 
 378      DFD66964 
 378      F5747824 
 378      850B
 379 01a2 C8E13613 		.ascii	"\310\3416\023\250?\026\361\357<\363}il=(\334\333\272"
 379      A83F16F1 
 379      EF3CF37D 
 379      696C3D28 
 379      DCDBBA
 380 01b5 5BA73394 		.ascii	"[\2473\224\356A\011\377D\306\207\023\334\333S\021\177"
 380      EE4109FF 
 380      44C68713 
 380      DCDB5311 
 380      7F
 381 01c6 75B27628 		.ascii	"u\262v(\225\355\217\3423hiqv\261B+\247\317\204g\022"
 381      95ED8FE2 
 381      33686971 
 381      76B1422B 
 381      A7CF8467 
 382 01db FEB98CBF 		.ascii	"\376\271\214\277>\036?}o\024\177\353} \235\035S\246"
 382      3E1E3F7D 
 382      6F147FEB 
 382      7D209D1D 
 382      53A6
 383 01ed F78CAF57 		.ascii	"\367\214\257W\2012}\237\204\017\311\370\332X\370\350"
 383      81327D9F 
 383      840FC9F8 
 383      DA58F8E8 
 384 01fd CDF58BF8 		.ascii	"\315\365\213\370O-\203\213\321\233S\303\200|s7tq\335"
 384      4F2D838B 
 384      D19B53C3 
 384      807C7337 
 384      7471DD
 385 0210 0793BFB9 		.ascii	"\007\223\277\271!)\334\260\034\256>\201\373\210\210"
 385      2129DCB0 
 385      1CAE3E81 
 385      FB8888
 386 021f 9F5B9D28 		.ascii	"\237[\235(a\277+\325\373<5\001\235R}T\242\217\311\364"
 386      61BF2BD5 
ARM GAS  /tmp/cc7c2vFc.s 			page 31


 386      FB3C3501 
 386      9D527D54 
 386      A28FC9F4 
 387 0233 9B09D45F 		.ascii	"\233\011\324_\210\364\277_z\035 \030\227\325\033\343"
 387      88F4BF5F 
 387      7A1D2018 
 387      97D51BE3 
 388 0243 AB4F24AF 		.ascii	"\253O$\257>)\205{)\207kJ\240>%\342{\267:;T\354m\254"
 388      3E29857B 
 388      29876B4A 
 388      A03E25E2 
 388      7BB73A3B 
 389 025b 70DFFAF6 		.ascii	"p\337\372\366#\374\217\373\264\204\177%\343\275\011"
 389      23FC8FFB 
 389      B4847F25 
 389      E3BD09
 390 026a DC5F13BC 		.ascii	"\334_\023\274R\326\027_\366M\362\2623R\232Y1\315\027"
 390      52D6175F 
 390      F64DF2B2 
 390      33529A59 
 390      31CD17
 391 027d 280FF98F 		.ascii	"(\017\371\217DJt,\023\036\371\341%\212{\015\006\243"
 391      444A742C 
 391      131EF9E1 
 391      258A7B0D 
 391      06A3
 392 028f F872720E 		.ascii	"\370rr\016\247\321\3564:l.\273\205\223\336\026\322g"
 392      A7D1EE34 
 392      3A6C2EBB 
 392      8593DE16 
 392      D267
 393 02a1 A183BBE8 		.ascii	"\241\203\273\350\342J-\\\241\311\224k\260\240=999\372"
 393      E24A2D5C 
 393      A1C9946B 
 393      B0A03D39 
 393      3939FA
 394 02b4 3CBBED8C 		.ascii	"<\273\355\214\313\342<\240\2173\016\026[\213\254\307"
 394      CBE23CA0 
 394      8F330E16 
 394      5B8BACC7 
 395 02c4 0B8CF927 		.ascii	"\013\214\371'Q6\335S\3404\027\225p\372\303%\346\263"
 395      5136DD53 
 395      E0341795 
 395      70FAC325 
 395      E6B3
 396 02d6 31F7913F 		.ascii	"1\367\221?\250H\357i\316\356\260\332J\311\036\273\265"
 396      A848EF69 
 396      CEEEB0DA 
 396      4AC91EBB 
 396      B5
 397 02e7 34463B52 		.ascii	"4F;R\3573\230\014&q\303Q\3639\233]\177\314u\241\210"
 397      EF33980C 
 397      2671C351 
 397      F3399B5D 
 397      7FCC75A1 
 398 02fc B3C7A247 		.ascii	"\263\307\242G;\255\245Iv\346\231\235\226\342D\235\177"
 398      3BADA549 
ARM GAS  /tmp/cc7c2vFc.s 			page 32


 398      76E6999D 
 398      96E2449D 
 398      7F
 399 030d 00D58C65 		.ascii	"\000\325\214e/"
 399      2F
 400              		.text
 401              		.section	.gnu.lto_rt_test_001_001_execute.53bb30036d2034ca,"",%progbits
 402 0000 789C8D96 		.ascii	"x\234\215\226]LSg\030\307\337\347\034,\245jA\335\256"
 402      5D4C5367 
 402      18C7DFE7 
 402      1C2CA56A 
 402      41DDAE
 403 0013 E6C539D9 		.ascii	"\346\3059\331\315\270hiI\325\340\035!\306\354\002\343"
 403      CDB86869 
 403      49D5E01D 
 403      21C6EC02 
 403      E3
 404 0024 5CDC2E96 		.ascii	"\\\334.\226\205\034\333Wm(\255;-\304\273\036\220\263"
 404      851CDB57 
 404      6D28AD3B 
 404      2DC4BB1E 
 404      90B3
 405 0036 2F33871A 		.ascii	"/3\207\032\2307\246\213q\212\037[\005\354\370\330\220"
 405      9837A68B 
 405      718A1F5B 
 405      05ECF8D8 
 405      90
 406 0047 96491DCA 		.ascii	"\226I\035\312@\374\200\012\027\030\222\271e3\006\324"
 406      40FC800A 
 406      171892B9 
 406      653306D4 
 407 0057 5DC874DD 		.ascii	"]\310t\335\373\236\227\223s\022\245\307\223&=}\336\347"
 407      FB9E9793 
 407      7312A5C7 
 407      93263D7D 
 407      DEE7
 408 0069 F93DBF7F 		.ascii	"\371=\277\177\223\223\266\010\001\242\327\240\015\241"
 408      9393B608 
 408      01A2D7A0 
 408      0DA1
 409 0077 0972FB16 		.ascii	"\011r\373\026\271\007\036\001\3276\216P\263\235\003"
 409      B9071E01 
 409      D7368E50 
 409      B39D03
 410 0086 A0378A1D 		.ascii	"\2407\212\035P\234\2038\374\303\275\340`\370\263\007"
 410      509C8338 
 410      FCC3BDE0 
 410      60F8B307 
 411 0096 FD5CF959 		.ascii	"\375\\\371Y\205\\\367\3259\247\322\231\006\225G(\317"
 411      855CF7D5 
 411      39A7D299 
 411      06954728 
 411      CF
 412 00a7 69240467 		.ascii	"i$\004g\241\034\221\266\371\256\377\332\327\332Zi\233"
 412      A11C91B6 
 412      F9AEFFDA 
 412      D7DA5A69 
ARM GAS  /tmp/cc7c2vFc.s 			page 33


 412      9B
 413 00b8 C00EA113 		.ascii	"\300\016\241\023lt]rWZ\311\347\017)J\257w\364\3557\020"
 413      6C745D72 
 413      575AC9E7 
 413      0F294AAF 
 413      77F4ED37 
 414 00cd 5A208774 		.ascii	"Z \207t\315\"\307\321w\376\001\264<]\030\342i;\341t"
 414      CD22C7D1 
 414      77FE01B4 
 414      3C5D18E2 
 414      693BE174 
 415 00e1 A8C313C5 		.ascii	"\250\303\023\305O9\225\007\240\330\376\376\207\263\305"
 415      4F399507 
 415      A0D8FEFE 
 415      87B3C5
 416 00f0 F117CAE7 		.ascii	"\361\027\312\347\212RFj_\220\315\264|x\341N\217#\001"
 416      8A52466A 
 416      5F90CDB4 
 416      7C78E14E 
 416      8F2301
 417 0103 279B15AD 		.ascii	"'\233\025\255\316\301y\242{\0166\222\255\027 \001\244"
 417      CEC179A2 
 417      7B0E3692 
 417      AD172001 
 417      A4
 418 0114 E3F2D56B 		.ascii	"\343\362\325k\237\332)\207\204\202\213\344\344OhM\267"
 418      9FDA2987 
 418      84828BE4 
 418      E44F684D 
 418      B7
 419 0125 6739BAE6 		.ascii	"g9\272\346e0\237\347\210*|\017qz\326u*\233\265\213["
 419      65309FE7 
 419      882A7C0F 
 419      717AD675 
 419      2A9BB58B 
 420 013a 12CA0941 		.ascii	"\022\312\011A\345\213h\345Jfn\306N\272O\220}\357\251"
 420      E58B68E5 
 420      4A666EC6 
 420      4EBA4F90 
 420      7DEFA9
 421 014d FC2AF801 		.ascii	"\374*\370\001D\215\004I\210\253\274M\243\177S\200N2"
 421      448D0449 
 421      88ABBC4D 
 421      A37F5380 
 421      4E32
 422 015f C325463F 		.ascii	"\303%F?u\364\342c\020%F/\246\225\266\211\261{\266e\372"
 422      75F4E263 
 422      1025462F 
 422      A695B689 
 422      B17BB665 
 423 0174 6E95B743 		.ascii	"n\225\267C\227N\3576\350'-\334{\030\375\357D\317\031"
 423      974EEF36 
 423      E8272DDC 
 423      7B18FDEF 
 423      44CF19
 424 0187 10EB4DEE 		.ascii	"\020\353M\356\347\347\373\232\035f\367\313:=e\320\023"
 424      E7E7FB9A 
ARM GAS  /tmp/cc7c2vFc.s 			page 34


 424      1D66F7CB 
 424      3A3D65D0 
 424      13
 425 0198 16EE3F32 		.ascii	"\026\356?2\372\370\327\243;\305v`\364\022Z\031\375="
 425      FAF8D7A3 
 425      3BC57660 
 425      F4125A19 
 425      FD3D
 426 01aa 73D8E4EE 		.ascii	"s\330\344\356\200^\235\336g\320S\026\356\375\214\236"
 426      805E9DDE 
 426      67D05316 
 426      EEFD8C9E 
 427 01ba 9C1AE92E 		.ascii	"\234\032\351.\025\277\005\223\374\263#\275\371R\263"
 427      15BF0593 
 427      FCB323BD 
 427      F952B3
 428 01c9 FC808EFF 		.ascii	"\374\200\216\377\311\300\367Z\310\377\314\3603O\276"
 428      C9C0F75A 
 428      C8FFCCF0 
 428      334FBE
 429 01d8 4B80787D 		.ascii	"K\200x}\031\277\232\226r_\235\233r\032\366k`P\307_1"
 429      19BF9A96 
 429      725F9D9B 
 429      721AF66B 
 429      6050C75F 
 430 01ed F08316F6 		.ascii	"\360\203\026\366C\014\277\264\230\270T$\266q&\373\311"
 430      430CBFB4 
 430      98B85424 
 430      B67126FB 
 430      C9
 431 01fe DC6CABD3 		.ascii	"\334l\253\323l\237\326\361\031\003?da?\314\360\217\206"
 431      6C9FD6F1 
 431      19033F64 
 431      613FCCF0 
 431      8F86
 432 0210 1E3D7188 		.ascii	"\036=q\210\003\313\370\265Z)\3377Uj\330;\341\027\035"
 432      03CBF8B5 
 432      5A29DF37 
 432      556AD83B 
 432      E1171D
 433 0223 7FD5C0DF 		.ascii	"\177\325\300\337\265\260\037a\370\207\203c\363N\361"
 433      B5B01F61 
 433      F8878363 
 433      F34EF1
 434 0232 A6D97E66 		.ascii	"\246\331~f\251\343X\211\331>\253\343\257\031\370\351"
 434      A9E35889 
 434      D93EABE3 
 434      AF19F8E9 
 435 0242 95F0A579 		.ascii	"\225\360\245y\216<\254\360+\303g\356w/\256\246\217c"
 435      8E3CACF0 
 435      2BC367EE 
 435      772FAEA6 
 435      8F63
 436 0254 1914C128 		.ascii	"\031\024\301(lT\371u\332x\316V0\373u6\235j\351\314\332"
 436      6C54F975 
 436      DA78CE56 
 436      30FB7536 
ARM GAS  /tmp/cc7c2vFc.s 			page 35


 436      9D6AE9CC 
 437 0269 C4A565B9 		.ascii	"\304\245e\271\365\264t!5\335^ld\337\0007t\2711Cn\316"
 437      F5B47421 
 437      35DD5E6C 
 437      64DF0037 
 437      74B93143 
 438 027f 22FB6F0C 		.ascii	"\"\373o\014\337\221\2725\351\024\237\233\263'\377\310"
 438      DF91BA35 
 438      E9149F9B 
 438      B327FFC8 
 439 028f 27D798B3 		.ascii	"'\327\230\263\217\353\370\011\003\277h\221\375&\303"
 439      8FEBF809 
 439      03BF6891 
 439      FD26C3
 440 029e 7FB9347D 		.ascii	"\177\2714}\304\316\262\333a\322\310\376\270p\366[\257"
 440      C4CEB2DB 
 440      61D2C8FE 
 440      B870F65B 
 440      AF
 441 02af 9FFDB62E 		.ascii	"\237\375\266.w\307\220{f\221\375.\303\337\0369}h\225"
 441      77C7907B 
 441      6691FD2E 
 441      C3DF1E39 
 441      7D6895
 442 02c2 78863765 		.ascii	"x\2067e\317\035\315l0G\237\322\351\323\006\375_\213"
 442      CF1DCD6C 
 442      30479FD2 
 442      E9D306FD 
 442      5F8B
 443 02d4 E8394237 		.ascii	"\3509B7g}^8\353\275\327\317:\243\333\3142\233\277\240"
 443      677D5E38 
 443      EBBDD7CF 
 443      3AA3DBCC 
 443      329BBFA0 
 444 02e8 257D7CBB 		.ascii	"%}|\273V\242\327\002\011G~U\010\324\347vW\260W\014G"
 444      56A2D702 
 444      09477E55 
 444      08D4E776 
 444      57B0570C 
 445 02fd 631572AC 		.ascii	"c\025r\254\"\032i\224\375X\377XG\337\353\242\370\223"
 445      221A6994 
 445      FD58FF58 
 445      47DFEBA2 
 445      F893
 446 030f 461CF6E3 		.ascii	"F\034\366\343:\217\307\353\366\243r\227\313%T\313\376"
 446      3A8FC7EB 
 446      F6A37297 
 446      CB2554CB 
 446      FE
 447 0320 FDC118F6 		.ascii	"\375\301\030\366\307\032e\274Ux\365\205J\252w\3256m"
 447      C71A65BC 
 447      5578F585 
 447      4AAA77D5 
 447      366D
 448 0332 D9E6AA65 		.ascii	"\331\346\252e35\021\031\013\037HrP\012\307V\234q\220"
 448      33351119 
 448      0B1F4872 
ARM GAS  /tmp/cc7c2vFc.s 			page 36


 448      500AC756 
 448      9C7190
 449 0345 AE183EE8 		.ascii	"\256\030>\350\252\365\351C\015\007\202!,\2574\240\015"
 449      AAF5E943 
 449      0D078221 
 449      2CAF34A0 
 449      0D
 450 0356 6DDB5E53 		.ascii	"m\333^S#lr\373\334^\241\322\343\335\354\251\362V\011"
 450      236C72FB 
 450      DC5EA1D2 
 450      E3DDECA9 
 450      F25609
 451 0369 EFC83884 		.ascii	"\357\3108\204\245(.\027>\"\032\025\270a\017\016\004"
 451      A5282E17 
 451      3E221A15 
 451      B8610F0E 
 451      04
 452 037a 70C0B5C9 		.ascii	"p\300\265\311\265G\226\302\376\375\202\214\233\202\321"
 452      B54796C2 
 452      FEFD828C 
 452      9B82D1
 453 0389 60242C54 		.ascii	"`$,T\372<\276\252\315\037\263};\311z\341\335\360\336"
 453      FA3CBEAA 
 453      CD1FB37D 
 453      3BC97AE1 
 453      DDF0DE
 454 039c 488185E8 		.ascii	"H\201\205\350\315\352@\023a\340\200P\217\3450\016\011"
 454      CDEA4013 
 454      61E08050 
 454      8FE5300E 
 454      09
 455 03ad 0D910066 		.ascii	"\015\221\000f\363;$\362\225H!A\012\005\367\205\033\360"
 455      F33B24F2 
 455      95482141 
 455      0A05F785 
 455      1BF0
 456 03bf 2B9392BF 		.ascii	"+\223\222\277\030Z\357\3731\311__\260\223\364j\235\037"
 456      185AEFFB 
 456      31C95F5F 
 456      B093F46A 
 456      9D1F
 457 03d1 46E4FA60 		.ascii	"F\344\372`x\237 \311XZi\000\375\017A\245\346\023"
 457      789F20C9 
 457      585A6900 
 457      FD0F41A5 
 457      E613
 458              		.text
 459              		.section	.gnu.lto_rt_test_sequence_001.53bb30036d2034ca,"",%progbits
 460 0000 789C6361 		.ascii	"x\234ca`d\000\201l vf\200\200\277L\214\315\277\366\177"
 460      60640081 
 460      6C207666 
 460      8080BF4C 
 460      8CCDBFF6 
 461 0015 E6ABFFDB 		.ascii	"\346\253\377\3330\243\241\341A\353c\251Vf\206Nf\210"
 461      30A3A1E1 
 461      41EB63A9 
 461      5666864E 
ARM GAS  /tmp/cc7c2vFc.s 			page 37


 461      6688
 462 0027 CC925D2B 		.ascii	"\314\222]+\246q)\232\317o\230\241\320\312\314\010\022"
 462      A671299A 
 462      CF6F98A1 
 462      D0CACC08 
 462      12
 463 0038 39BB7AED 		.ascii	"9\273z\355AV\210\332\003\323\304Z\231\231\030W0*\202"
 463      415688DA 
 463      03D3C45A 
 463      99991857 
 463      302A82
 464 004b D54EB8D0 		.ascii	"\325N\270\320\363\223\333b[C\307\202\006\240b\346\177"
 464      F393DB62 
 464      5B43C782 
 464      06A062E6 
 464      7F
 465 005c 4C0C8C2B 		.ascii	"L\014\214+\031\353\377112.g\254g`\\\305h\301`\242\247"
 465      19EBFF31 
 465      31322E67 
 465      AC67605C 
 465      C568C160 
 466 0072 A70F4125 		.ascii	"\247\017A%\251\305%\372E%\372\305\371\245E\311\2510"
 466      A9C525FA 
 466      4525FAC5 
 466      F9A545C9 
 466      A930
 467 0084 6E3C888E 		.ascii	"n<\210\216/N-,M\315KN\215700\324Kf\340\361\314K\313"
 467      2F4E2D2C 
 467      4DCD4B4E 
 467      8D373030 
 467      D44B66E0 
 468 009c 2FCA4D2C 		.ascii	"/\312M,\311\314\317c\000\000i#?\331"
 468      C9CCCF63 
 468      00006923 
 468      3FD9
 469              		.text
 470              		.section	.gnu.lto_rt_test_sequence_001_array.53bb30036d2034ca,"",%progbits
 471 0000 789C6361 		.ascii	"x\234ca`d\000\201u@l\306\000\001\177\231\030\247\265"
 471      60640081 
 471      75406CC6 
 471      00017F99 
 471      18A7B5
 472 0013 1E3ACFFE 		.ascii	"\036:\317\376\205\251\225\031(\015\344\036\372\264a"
 472      85A99519 
 472      280DE41E 
 472      FAB461
 473 0022 390F88CB 		.ascii	"9\017\210\313\310\310\014\3446\377\332\377\231\257\376"
 473      C8C80CE4 
 473      36FFDAFF 
 473      99AFFE
 474 0031 6FC38C86 		.ascii	"o\303\214\206\206\007O\367I\001Uu2C\364\035\375\377"
 474      86074FF7 
 474      49015575 
 474      3243F41D 
 474      FDFF
 475 0043 FD003F44 		.ascii	"\375\000?D!\023\252\302\003_\204\301\352\030\301\352"
 475      2113AAC2 
ARM GAS  /tmp/cc7c2vFc.s 			page 38


 475      035F84C1 
 475      EA18C1EA 
 476 0053 90253E41 		.ascii	"\220%>A$\230\300\022\037\346\237\336\304f\261\255\241"
 476      2498C012 
 476      1FE69FDE 
 476      C466B1AD 
 476      A1
 477 0064 63418343 		.ascii	"cA\203C+3\023\243\241\014\343\032\306zF#\031\306\325"
 477      2B3313A3 
 477      A10CE31A 
 477      C67A4623 
 477      19C6D5
 478 0077 406A15A3 		.ascii	"@j\025\243\014\343J \275\002H/g\224a`\\\313h\301`\242"
 478      0CE34A20 
 478      BD02482F 
 478      67946160 
 478      5CCB68C1 
 479 008d A7A70F41 		.ascii	"\247\247\017A%\251\305%\372E%\372\305\371\245E\311\251"
 479      25A9C525 
 479      FA4525FA 
 479      C5F9A545 
 479      C9A9
 480 009f 306E3C88 		.ascii	"0n<\210\216/N-,M\315KN\215700\324Kf\000\000\227\353"
 480      8E2F4E2D 
 480      2C4DCD4B 
 480      4E8D3730 
 480      30D44B66 
 481 00b7 53AF     		.ascii	"S\257"
 482              		.text
 483              		.section	.gnu.lto_rt_test_001_001.53bb30036d2034ca,"",%progbits
 484 0000 789C6361 		.ascii	"x\234ca`d\000\201\016 vd\200\200\277L\214;w\276\271"
 484      60640081 
 484      0E207664 
 484      8080BF4C 
 484      8C3B77BE 
 485 0015 CD5EFFB7 		.ascii	"\315^\377\267\241\243\241\341\301\323\317\022\255\314"
 485      A1A3A1E1 
 485      C1D3CF12 
 485      ADCC
 486 0023 0CFF9920 		.ascii	"\014\377\231 2\323Z\017\235g\377\302\004\024a\004q\327"
 486      32D35A0F 
 486      9D67FFC2 
 486      04146104 
 486      71D7
 487 0035 CFFF3895 		.ascii	"\317\3778\225[\321|~\303\014\205Vf\260\310\346\271/"
 487      5BD17C7E 
 487      C30C8556 
 487      66B0C8E6 
 487      B92F
 488 0047 16F100B5 		.ascii	"\026\361\000\265\316hh80\203\275\225\231\211q%\243\""
 488      CE686838 
 488      3083BD95 
 488      99897125 
 488      A322
 489 0059 58EBA7F5 		.ascii	"X\353\247\365\213\357qYlk\350X\320\340\320\312\314\374"
 489      8BEF7159 
 489      6C6BE858 
ARM GAS  /tmp/cc7c2vFc.s 			page 39


 489      D0E0D0CA 
 489      CCFC
 490 006b 8F898171 		.ascii	"\217\211\201q\025c\375?&F\306\025\2142\377\230\230 "
 490      1563FD3F 
 490      2646C615 
 490      8C32FF98 
 490      9820
 491 007d 1433E372 		.ascii	"\0243\343r\306z\006\306\325\214\026\014&zz\372\020T"
 491      C67A06C6 
 491      D58C160C 
 491      267A7AFA 
 491      1054
 492 008f 925A5CA2 		.ascii	"\222Z\\\242_T\242_\234_Z\224\234\012\343\306\203\350"
 492      5F54A25F 
 492      9C5F5A94 
 492      9C0AE3C6 
 492      83E8
 493 00a1 F8E2D4C2 		.ascii	"\370\342\324\302\322\324\274\344\324x\003\003C\275d"
 493      D2D4BCE4 
 493      D4780303 
 493      43BD64
 494 00b0 06AE80FC 		.ascii	"\006\256\200\374\242\022\005\317\274\264|\006\000K\252"
 494      A21205CF 
 494      BCB47C06 
 494      004BAA
 495 00bf 48DC     		.ascii	"H\334"
 496              		.text
 497              		.section	.gnu.lto_rt_test_001_002.53bb30036d2034ca,"",%progbits
 498 0000 789C6361 		.ascii	"x\234ca`d\000\2016 vf\200\200\277L\214;w\276\271\315"
 498      60640081 
 498      36207666 
 498      8080BF4C 
 498      8C3B77BE 
 499 0016 5EFFB7A1 		.ascii	"^\377\267\241\243\241\341A\353*\311Vf\206\377L\020\231"
 499      A3A1E141 
 499      EB2AC956 
 499      6686FF4C 
 499      1099
 500 0028 69AD87CE 		.ascii	"i\255\207\316\263\177a\002\2120\202\270\177Z\317\352"
 500      B37F6102 
 500      8A3082B8 
 500      7F5ACFEA 
 501 0038 2B9ACF6F 		.ascii	"+\232\317o\230\241\320\312\014\026h\337;q.\037P\347"
 501      98A1D0CA 
 501      0C1668DF 
 501      3B712E1F 
 501      50E7
 502 004a 8C868603 		.ascii	"\214\206\206\003\273\270Z\231\231\030W2*\202u\236X\366"
 502      BBB85A99 
 502      99185732 
 502      2A82759E 
 502      58F6
 503 005c 96D5625B 		.ascii	"\226\325b[C\307\202\006\207Vf\346\177L\014\214\253\030"
 503      43C78206 
 503      875666E6 
 503      7F4C0C8C 
 503      AB18
ARM GAS  /tmp/cc7c2vFc.s 			page 40


 504 006e EBFF3131 		.ascii	"\353\377112\256`\224\371\307\304\004\241\230\031\227"
 504      32AE6094 
 504      F9C7C404 
 504      A1981997 
 505 007e 33D63330 		.ascii	"3\32630\256f\264`0\321\323\323\207\240\222\324\342\022"
 505      AE66B460 
 505      30D1D3D3 
 505      87A092D4 
 505      E212
 506 0090 FDA212FD 		.ascii	"\375\242\022\375\342\374\322\242\344T\0307\036D\307"
 506      E2FCD2A2 
 506      E4541837 
 506      1E44C7
 507 009f 17A71696 		.ascii	"\027\247\026\226\246\346%\247\306\033\030\030\352%3"
 507      A6E625A7 
 507      C61B1818 
 507      EA2533
 508 00ae F078A716 		.ascii	"\360x\247\026\345\245\346(x\346\245\3453\000\000p\263"
 508      E5A5E628 
 508      78E6A5E5 
 508      33000070 
 508      B3
 509 00bf 4783     		.ascii	"G\203"
 510              		.text
 511              		.section	.gnu.lto_rt_test_001_003.53bb30036d2034ca,"",%progbits
 512 0000 789C6361 		.ascii	"x\234ca`d\000\201v vg\200\200\277L\214;w\276\271\315"
 512      60640081 
 512      76207667 
 512      8080BF4C 
 512      8C3B77BE 
 513 0016 5EFFB7A1 		.ascii	"^\377\267\241\243\241\341\301\321\355R\255\314\014\377"
 513      A3A1E1C1 
 513      D1ED52AD 
 513      CC0CFF
 514 0025 992032D3 		.ascii	"\231 2\323Z\017\235g\377\302\004\024a\004q\217\266u"
 514      5A0F9D67 
 514      FFC20414 
 514      6104718F 
 514      B675
 515 0037 76722B9A 		.ascii	"vr+\232\317o\230\241\320\312\014\026\371\272\362\266"
 515      CF6F98A1 
 515      D0CA0C16 
 515      F9BAF2B6 
 516 0047 3550E78C 		.ascii	"5P\347\214\206\206\003\333\204[\231\231\030W2*\202u"
 516      868603DB 
 516      845B9999 
 516      1857322A 
 516      8275
 517 0059 2EDB3DE5 		.ascii	".\333=\345\017\227\305\266\206\216\005\015\016\255\314"
 517      0F97C5B6 
 517      868E050D 
 517      0EADCC
 518 0068 CCFF9818 		.ascii	"\314\377\230\030\030W1\326\377cbd\\\301(\363\217\211"
 518      185731D6 
 518      FF636264 
 518      5CC128F3 
 518      8F89
ARM GAS  /tmp/cc7c2vFc.s 			page 41


 519 007a 09423133 		.ascii	"\011B13.g\254g`\\\315h\301`\242\247\247\017A%\251\305"
 519      2E67AC67 
 519      605CCD68 
 519      C160A2A7 
 519      A70F4125 
 520 0090 25FA4525 		.ascii	"%\372E%\372\305\371\245E\311\2510n<\210\216/N-,M\315"
 520      FAC5F9A5 
 520      45C9A930 
 520      6E3C888E 
 520      2F4E2D2C 
 521 00a6 4B4E8D37 		.ascii	"KN\215700\324Kf\020\360N-\312K\315Q\010N-)\311\314K"
 521      3030D44B 
 521      6610F04E 
 521      2DCA4BCD 
 521      51084E2D 
 522 00be 2F660000 		.ascii	"/f\000\000J\367J^"
 522      4AF74A5E 
 523              		.text
 524              		.section	.gnu.lto_.symbol_nodes.53bb30036d2034ca,"",%progbits
 525 0000 789C5D94 		.ascii	"x\234]\224\333\252\032A\024D\367\354\326\200\232\247"
 525      DBAA1A41 
 525      1444F7EC 
 525      D6809AA7 
 526 0010 FC40F2A7 		.ascii	"\374@\362\247c`s\004\005\015\012\012\012\232\313|D\036"
 526      63607304 
 526      050D0A0A 
 526      0A9ACB7C 
 526      441E
 527 0022 1318C8FD 		.ascii	"\023\030\310\375\344\362\0051\016G\320\240\240\240\240"
 527      E4F20531 
 527      0E47D0A0 
 527      A0A0A0
 528 0031 44D3D35D 		.ascii	"D\323\323]\005\311y\352=U\272\326[U$\221\207\017DD?"
 528      05C979EA 
 528      3D55BAD6 
 528      5B552491 
 528      870F4444 
 529 0046 692AF2EC 		.ascii	"i*\362\354V\304?\257\237\277h:\221\352W\225'e\367A\323"
 529      56C43FAF 
 529      9FBF683A 
 529      91EA5795 
 529      2765F741 
 530 005b E45EA7EF 		.ascii	"\344^\247\3574\325\373\277\277\325\344\351#\377\207"
 530      34D5FBBF 
 530      BFD5E4E9 
 530      23FF87
 531 006a EA17D578 		.ascii	"\352\027\325x\274W\327\364\207\253~\324J<>k5\034\311"
 531      BC57D7F4 
 531      87AB7ED4 
 531      4A3C3E6B 
 531      351CC9
 532 007d 0F4D5D00 		.ascii	"\017M]\000\2104\233^\223|\327\264\362_\360M\323\352"
 532      88349B5E 
 532      937CD7B4 
 532      F25FF04D 
 532      D3EA
 533 008f BF819386 		.ascii	"\277\201\223\206\344?/\211\223\272\024\341\255\211\315"
ARM GAS  /tmp/cc7c2vFc.s 			page 42


 533      E43F2F89 
 533      93BA14E1 
 533      AD89CD
 534 009e CBB721D9 		.ascii	"\313\267!\331<\346\371<\346\005r\273\371\375\270\314"
 534      3CE6F93C 
 534      E60572BB 
 534      F9FDB8CC 
 535 00ae B3F0D624 		.ascii	"\263\360\326$\017oC\012\344\326\212y\326\212y\336\212"
 535      0F6F430A 
 535      E4D68A79 
 535      D68A79DE 
 535      8A
 536 00bf 7981DCDA 		.ascii	"y\201\334\3321\317\3321\317\3331/\220[\007\374\016\370"
 536      31CFDA31 
 536      CFDB312F 
 536      905B07FC 
 536      0EF8
 537 00d1 1DF0915B 		.ascii	"\035\360\221[\027\374.\370]\360\221[\017\374\036\370"
 537      17FC2EF8 
 537      5DF0915B 
 537      0FFC1EF8 
 538 00e1 3DF0915B 		.ascii	"=\360\221[\037\374>\370}\360\221\333\000\374\001\370"
 538      1FFC3EF8 
 538      7DF091DB 
 538      00FC01F8 
 539 00f1 03F091DB 		.ascii	"\003\360\221\333\020\374!\370C\360\221\333\010\374\021"
 539      10FC21F8 
 539      43F091DB 
 539      08FC11
 540 0100 F823F091 		.ascii	"\370#\360\221\333\030\3741\370c\360\221\333\004\374"
 540      DB18FC31 
 540      F863F091 
 540      DB04FC
 541 010f 09F813F0 		.ascii	"\011\370\023\360\221\333\024\374)\370S\360\221\333\014"
 541      91DB14FC 
 541      29F853F0 
 541      91DB0C
 542 011e FC19F833 		.ascii	"\374\031\3703\360\221\333\2577\177\\\020\304\303\033"
 542      F091DBAF 
 542      377F5C10 
 542      C4C31B
 543 012d E2E115AC 		.ascii	"\342\341\025\254l\201*[\240\312\027\250\012Vv\207*\273"
 543      6C812A5B 
 543      A0CA17A8 
 543      0A567687 
 543      2ABB
 544 013f 4395DFA1 		.ascii	"C\225\337\241*X\331\222\256%]K\272X\331\212\256\025"
 544      2A58D992 
 544      AE255D4B 
 544      BA58D98A 
 544      AE15
 545 0151 5D2BBA58 		.ascii	"]+\272X\331\232\2565]k\272X\331\206\256\015]\033\272"
 545      D99AAE35 
 545      5D6BBA58 
 545      D986AE0D 
 545      5D1BBA
 546 0164 58D996AE 		.ascii	"X\331\226\256-][\272X\331\216\256\035];\272X\331\236"
ARM GAS  /tmp/cc7c2vFc.s 			page 43


 546      2D5D5BBA 
 546      58D98EAE 
 546      1D5D3BBA 
 546      58D99E
 547 0177 AE3D5D7B 		.ascii	"\256=]{\272X\331\201\256\003]\007\272X\331\221\256#"
 547      BA58D981 
 547      AE035D07 
 547      BA58D991 
 547      AE23
 548 0189 5D47BA58 		.ascii	"]G\272X\331\211\256\023]'\272X\331\231\2563]g\272X\331"
 548      D989AE13 
 548      5D27BA58 
 548      D999AE33 
 548      5D67BA58 
 549 019e 85AE0B5D 		.ascii	"\205\256\013]\027\272X\331\225\256+]W\272X\331\313\267"
 549      17BA58D9 
 549      95AE2B5D 
 549      57BA58D9 
 549      CBB7
 550 01b0 70C5C3BB 		.ascii	"p\305\303\273\342\341]\254\354\025\252,\034Z\213+\243"
 550      E2E15DAC 
 550      EC15AA2C 
 550      1C5A8B2B 
 550      A3
 551 01c1 8DB8325A 		.ascii	"\215\2702Z\217+\343\363\2602>\317\361]\340;\254\214"
 551      8F2BE3F3 
 551      B0323ECF 
 551      F15DE03B 
 551      AC8C
 552 01d3 6265142B 		.ascii	"be\024+\243X\031\305\312(VF\2612\212\225Q\254\214\303"
 552      A35819C5 
 552      CA285646 
 552      B1328A95 
 552      51AC8CC3 
 553 01e7 BAB95AF4 		.ascii	"\272\271Z\364\372\357\340u\360:x\035\274\016\336\262"
 553      FAEFE075 
 553      F03A781D 
 553      BC0EDEB2 
 554 01f7 BFC1FFC3 		.ascii	"\277\301\377\303[\217^\237\007\257\317\203\327\347\301"
 554      5B8F5E9F 
 554      07AFCF83 
 554      D7E7C1
 555 0206 5BFE1F79 		.ascii	"[\376\037y\364\326\343\272\371\274\\7\371\013\242\313"
 555      F4D6E3BA 
 555      F9BC5C37 
 555      F90BA2CB 
 556 0216 F6C0     		.ascii	"\366\300"
 557              		.text
 558              		.section	.gnu.lto_.refs.53bb30036d2034ca,"",%progbits
 559 0000 789C15C4 		.ascii	"x\234\025\304\301\001\000 \010\003\261\366@a\024\367"
 559      C1010020 
 559      0803B1F6 
 559      406114F7 
 560 0010 9F50C823 		.ascii	"\237P\310#)\353I\263\007[l\311\211\303\245h_\302\005"
 560      29EB49B3 
 560      075B6CC9 
 560      89C3A568 
ARM GAS  /tmp/cc7c2vFc.s 			page 44


 560      5FC205
 561 0023 6EA40F0E 		.ascii	"n\244\017\016\233\000\221"
 561      9B0091
 562              		.text
 563              		.section	.gnu.lto_.decls.53bb30036d2034ca,"",%progbits
 564 0000 789CAD98 		.ascii	"x\234\255\230[P\024\351\025\307\373t\317\000\016\003"
 564      5B5014E9 
 564      15C7FB74 
 564      CF000E03 
 565 0010 B862A295 		.ascii	"\270b\242\225b\215ea$\0172\002&/yI*\265\311V\222\312"
 565      628D6561 
 565      240F3202 
 565      262F7949 
 565      2AB5C956 
 566 0026 3E24BB0F 		.ascii	">$\273\017y\241\020:\321*A\027\206J|J;\022\360.\254"
 566      79A1103A 
 566      D12A4117 
 566      864A7C4A 
 566      3B12F02E 
 567 003b BA0AC81D 		.ascii	"\272\012\310\035\005\004\344\242(\210\340\200\210\010"
 567      0504E4A2 
 567      2888E080 
 567      8808
 568 0049 5E4074B8 		.ascii	"^@t\270\210\202(\027\321\225\253W\004s\276K3\323\343"
 568      88822817 
 568      D195AB57 
 568      0473BE4B 
 568      33D3E3
 569 005c 0CE6215D 		.ascii	"\014\346!]\234\351\376\276>\347\177~\337w\276\351\376"
 569      9CE9FEBE 
 569      3EE77F7E 
 569      DF77BEE9 
 569      FE
 570 006d 069D0002 		.ascii	"\006\235\000\0029\376\350/\010_\212\202\260Q\022\204"
 570      39FEE82F 
 570      085F8A82 
 570      B0511284 
 571 007d 0F782CC1 		.ascii	"\017x,\301\276o\320>C+C+G\253A\253G\273\214\326\204"
 571      BE6FD03E 
 571      432B432B 
 571      47AB41AB 
 571      47BB8CD6 
 572 0092 7615AD15 		.ascii	"v\025\255\025\255\015\255\035\255\003\315\206\326\205"
 572      AD0DAD1D 
 572      AD03CD86 
 572      D685
 573 00a0 D687F600 		.ascii	"\326\207\366\000\355\021\332\240\300\016\017\264a\264"
 573      ED11DAA0 
 573      C00E0FB4 
 573      61B4
 574 00ae 51B431B4 		.ascii	"Q\2641\264\011\264\031\264W\374\336\033\264\225\210"
 574      09B419B4 
 574      57FCDE1B 
 574      B49588
 575 00bd B30A6D35 		.ascii	"\263\012m5\332\032\264@\0204\007\2117r\266\265x\357"
 575      DA1AB440 
 575      10340789 
ARM GAS  /tmp/cc7c2vFc.s 			page 45


 575      3772B6B5 
 575      78EF
 576 00cf 2B3CFF0C 		.ascii	"+<\377\014\354\\\343h\353\200\261N;\260\223C\307\343"
 576      EC5CE368 
 576      EB80B14E 
 576      3BB09343 
 576      C7E3
 577 00e1 5FF1BC24 		.ascii	"_\361\274$?\360\274\216\007\341[\352\"\207:\326q\207"
 577      3FF0BC8E 
 577      07E15BEA 
 577      22873AD6 
 577      7187
 578 00f3 7970954B 		.ascii	"yp\225K\235\0335\347(\317\245\346u\225\223\314\307\362"
 578      9D1B35E7 
 578      28CFA5E6 
 578      759593CC 
 578      C7F2
 579 0105 4F8C4B9D 		.ascii	"O\214K\235Kun\325\271V\347~\261q\217\361\374\352\234"
 579      4B756ED5 
 579      B956E77E 
 579      B1718FF1 
 579      FCEA9C
 580 0118 BB622073 		.ascii	"\273b sO|\203\360\274\036-\030m\005\032.\013\3413<\373"
 580      4F7C83F0 
 580      BC1E2D18 
 580      6D051A2E 
 580      0BE1333C 
 581 012d F35A90D3 		.ascii	"\363Z\220\323*\247\272\2206.\035\301\007\3308>w\270"
 581      2AA7BA90 
 581      362E1DC1 
 581      07D8383E 
 581      77B8
 582 013f 4FFA0379 		.ascii	"O\372\003y=W;\305\255\3469\347\035\306e\344}zr&\272"
 582      3D573BC5 
 582      ADE639E7 
 582      1DC665E4 
 582      7D7A7226 
 583 0154 681EC0F2 		.ascii	"h\036\300\362\216\011\037\037k\0344T\356\3054F]h\004"
 583      8E091F1F 
 583      6B1C3454 
 583      EEC53446 
 583      5D6804
 584 0167 3A6884E0 		.ascii	":h\204\340u\350'4\206]h\314\211\320\221P~B\232\021a"
 584      75E82734 
 584      865D68CC 
 584      89D09150 
 584      7E429A11 
 585 017c 990174D8 		.ascii	"\231\001t\330\234\274\231\366\330\027\233\313\015\260"
 585      9CBC99F6 
 585      D8179BCB 
 585      0DB0
 586 018a 1A9B5519 		.ascii	"\032\233U\031\266Lo\303n\005\217\344]\312\262\026_\342"
 586      B64C6FC3 
 586      6E058FE4 
 586      5DCAB216 
 586      5FE2
 587 019c 57080150 		.ascii	"W\010\001P\000\001([\004\006\3744\005\340\037\321\272"
ARM GAS  /tmp/cc7c2vFc.s 			page 46


 587      0001285B 
 587      0406FC34 
 587      05E01FD1 
 587      BA
 588 01ad F7A6EE9D 		.ascii	"\367\246\356\235Q\022\001\257ug-\3759\276\020\024\000"
 588      511201AF 
 588      75672DFD 
 588      39BE1014 
 588      00
 589 01be E80C8653 		.ascii	"\350\014\206STAQD\001\316\200\001N\203\244\"\244)\250"
 589      54415144 
 589      01CE8001 
 589      4E83A422 
 589      A429A8
 590 01d1 3EF16FD2 		.ascii	">\361o\322\215\327^\364\214=\026e\"W\361X)@X\000l\010"
 590      8DD75EF4 
 590      8C3D1665 
 590      2257F158 
 590      29405800 
 591 01e7 10A01882 		.ascii	"\020\240\030\202\350-\001JQ\260\004h>[\275-\005\226"
 591      E82D014A 
 591      51B00468 
 591      3E5BBD2D 
 591      0596
 592 01f9 2513ED09 		.ascii	"%\023\355\011\213\362k\240\332,@\2002X\246\022\322\006"
 592      8BF26BA0 
 592      DA2C4080 
 592      3258A612 
 592      D206
 593 020b FAEF2A18 		.ascii	"\372\357*\030\032\3626\356%\352|4\330\3570\234r0\322"
 593      1AF236EE 
 593      25EA7C34 
 593      D8EF309C 
 593      7230D2
 594 021e D58267F4 		.ascii	"\325\202g\364~\320RTLff\235\001\310\363\305\017\273"
 594      7ED05254 
 594      4C66669D 
 594      01C8F3C5 
 594      0FBB
 595 0230 CA9ED7BC 		.ascii	"\312\236\327\274\365a]$\177\377\333\302\337\005\227"
 595      F5615D24 
 595      7FFFDBC2 
 595      DF0597
 596 023f A843F3B4 		.ascii	"\250C\363\264O\352\235CS\371\236\322R\342$6\0378[\351"
 596      4FEA9D43 
 596      53F99ED2 
 596      52E22436 
 596      1F385BE9 
 597 0253 0D416C0A 		.ascii	"\015Al\012\006^\347\033k\024e)\234G\322s \301Y\010&"
 597      065EE71B 
 597      6B146529 
 597      9C47D273 
 597      20C15908 
 598 0268 19D711CA 		.ascii	"\031\327\021\312\335v0a\201\012\252p\344\230\2178B%"
 598      DD763061 
 598      810AAA70 
 598      E4988F38 
ARM GAS  /tmp/cc7c2vFc.s 			page 47


 598      4225
 599 027a 7656B0B1 		.ascii	"vV\260\261\027\345\247\344zH;\201\346H=w\372\265a!G"
 599      17E5A7E4 
 599      7A483B81 
 599      E6483D77 
 599      FAB56121 
 600 028f D5DE8D25 		.ascii	"\325\336\215%$G\015\346\270`\317q\036\334'\251v\221"
 600      24470DE6 
 600      B860CF71 
 600      1EDC27A9 
 600      7691
 601 02a1 84C463A2 		.ascii	"\204\304c\242\364\351\007O\227\260\005\022\204\315\267"
 601      F4E9074F 
 601      97B00512 
 601      84CDB7
 602 02b0 070EF4EA 		.ascii	"\007\016\364\352\335\257\210ZuE\\d\230\357j\036\344"
 602      DDAF885A 
 602      75455C64 
 602      98EF6A1E 
 602      E4
 603 02c1 EA58F4CF 		.ascii	"\352X\364\317\261\231\225|1\301\207-\257\026\221LT\363"
 603      B199957C 
 603      31C1872D 
 603      AF16914C 
 603      54F3
 604 02d3 54BD1FAB 		.ascii	"T\275\037\253 ~\360\012\326\241\332%\252VOkX\313jXO"
 604      207EF00A 
 604      D6A1DA25 
 604      AA564F6B 
 604      58CB6A58 
 605 02e8 6B98D13B 		.ascii	"k\230\321;V\252\323\324\260^S\303\313\274\206\227i\015"
 605      56AAD3D4 
 605      B05E53C3 
 605      CBBC8697 
 605      690D
 606 02fa AFE75F7C 		.ascii	"\257\347_|od\351\365\330\314<T}\322\340\036\276A\205"
 606      6F64E9F5 
 606      D8CC3C54 
 606      7DD2E01E 
 606      BE4185
 607 030d B732F827 		.ascii	"\2672\370'\263\245\027}Y\264\0076k/\\j\3263\370\015"
 607      B3A5177D 
 607      59B40736 
 607      6B2F5C6A 
 607      D633F80D 
 608 0321 D81C7BF4 		.ascii	"\330\034{\364\364\260\321\231\375\012\2125R\261&\312"
 608      F4B0D199 
 608      FD0A8A35 
 608      52B126CA 
 609 0331 DEC0D89B 		.ascii	"\336\300\330\233(\373\321K\225\345\006\015{\223\206"
 609      28FBD14B 
 609      95E5060D 
 609      7B9386
 610 0340 FD2A67BF 		.ascii	"\375*g\277J\331\253\206\367(>,{(6_L\266\324\201{\366"
 610      4AD9AB86 
 610      F7283E2C 
 610      7B28365F 
ARM GAS  /tmp/cc7c2vFc.s 			page 48


 610      4CB6D481 
 611 0356 6B2A7B33 		.ascii	"k*{3c\377\356\331\370mO\026\035\206\315\301\274\023"
 611      63FFEED9 
 611      F86D4F16 
 611      1D86CDC1 
 611      BC13
 612 0368 37FC18FB 		.ascii	"7\374\030\373q\011\333\247zw5\210\316\360\327Q\255\205"
 612      7109DBA7 
 612      7A773588 
 612      CEF0D751 
 612      AD85
 613 037a AAB552F8 		.ascii	"\252\265R\370k\014\276\225\302\347\2164\364{i\340[5"
 613      6B0CBE95 
 613      C2E78E34 
 613      F47B69E0 
 613      5B35
 614 038c F06D1CBE 		.ascii	"\360m\034\276\215\302O\276\317\270\300W\315rl\326\355"
 614      8DC24FBE 
 614      CFB8C057 
 614      CD726CD6 
 614      ED
 615 039d AF1FD2B9 		.ascii	"\257\037\322\271\207\277\251\302\337`\360\217\013\346"
 615      87BFA9C2 
 615      DF60F08F 
 615      0BE6
 616 03ab 8F79B0E8 		.ascii	"\217y\260\350\037as\272\2602\323\213\301\027\002\266"
 616      1F6173BA 
 616      B032D38B 
 616      C11702B6 
 617 03bb ADD39D23 		.ascii	"\255\323\235#^\316\360\267Q\355\026Uk\247\3607\031|"
 617      5ECEF0B7 
 617      51ED1655 
 617      6BA7F037 
 617      197C
 618 03cd 3B857F3B 		.ascii	";\205\177;vT\361\320\300\267k\340;8|\007\205?\321\337"
 618      7654F1D0 
 618      C0B76BE0 
 618      3B387C07 
 618      853FD1DF 
 619 03e1 F890C337 		.ascii	"\370\220\3037\021\234\224\332\261\243F\367\364\235*"
 619      119C94DA 
 619      B1A346F7 
 619      F49D2A
 620 03f0 FD1D46FF 		.ascii	"\375\035F\377\352F\331]\276\350\256\222v{u\335$\237"
 620      EA46D95D 
 620      BEE8AE92 
 620      767B75DD 
 620      249F
 621 0402 FB42F28C 		.ascii	"\373B\362\214\235:\177\365\275\344\214\177\017\345\356"
 621      9D3A7FF5 
 621      BDE48C7F 
 621      0FE5EE
 622 0411 52391BC5 		.ascii	"R9\033\305\357d\3706\212\237U\227\224\245\235{\233\006"
 622      EF64F836 
 622      8A9F5597 
 622      94A59D7B 
 622      9B06
ARM GAS  /tmp/cc7c2vFc.s 			page 49


 623 0423 BF8BE377 		.ascii	"\277\213\343wQ\374\342\363'/\002\313\277\004\233=s\271"
 623      51FCE2F3 
 623      272F02CB 
 623      BF049B3D 
 623      73B9
 624 0435 D98B3CC3 		.ascii	"\331\213<\303{T\372nF?7\321>\307\351\311\327\277s8'"
 624      7B54FA6E 
 624      463F37D1 
 624      3EC7E9C9 
 624      D7BF7338 
 625 044a C1C8E0DB 		.ascii	"\301\310\340\333\311m\313\361s\257?Z8\367Q\255\227\252"
 625      C96DCBF1 
 625      73AF3F5A 
 625      38F751AD 
 625      97AA
 626 045c F551F81E 		.ascii	"\365Q\370\036\006\337G\341\357\365\024\277\325\302\367"
 626      06DF47E1 
 626      EFF514BF 
 626      D5C2F7
 627 046b 69E01F70 		.ascii	"i\340\037p\370\007\024>\255v\246U\317\322{\221/\360"
 627      F807143E 
 627      AD76A655 
 627      CFD27B91 
 627      2FF0
 628 047d 54CF2D1F 		.ascii	"T\317-\037\367\360\375*\374C\006\277\357jU\263\304\237"
 628      F7F0FD2A 
 628      FC4306BF 
 628      EF6A55B3 
 628      C49F
 629 048f 2FA45D5C 		.ascii	"/\244]\\\322:\340\351L;\000l\260\002<\242\264\375\214"
 629      D23AE0E9 
 629      4C3B006C 
 629      B0023CA2 
 629      B4FD8C
 630 04a2 F611A56D 		.ascii	"\366\021\245m<e\231\362\323\320>\322\320\016r\332AJ"
 630      3C6599F2 
 630      D3D03ED2 
 630      D00E72DA 
 630      414A
 631 04b4 5BD7397B 		.ascii	"[\3279{Kw\037\307\213;\016XJ\037\377\000\354\023\250"
 631      4B771FC7 
 631      8B3B0E58 
 631      4A1FFF00 
 631      EC13A8
 632 04c7 09CC6813 		.ascii	"\011\314h\023/D\201\277\215\325.P\035y[T/\205\0051\372"
 632      2F4481BF 
 632      8DD52E50 
 632      1D795B54 
 632      2F850531 
 633 04dc C7E3E94E 		.ascii	"\307\343\351N\227\036T\304\256\016<\210\265y\260\000"
 633      971E54C4 
 633      AE0E3C88 
 633      B579B000 
 634 04ec BC2DDA13 		.ascii	"\274-\332\023\000k\252\001\016z\014\227\313\331\231"
 634      006BAA01 
 634      0E7A0C97 
 634      CBD999
ARM GAS  /tmp/cc7c2vFc.s 			page 50


 635 04fb 17C604EA 		.ascii	"\027\306\004\352\333moa\325*i\210\276y`\356zz\232\270"
 635      DB6D6F61 
 635      D52A6988 
 635      BE7960EE 
 635      7A7A9AB8 
 636 050f F27B5E9F 		.ascii	"\362{^\237\325:\370\346\307\016\2235\004+\361s\223\216"
 636      D53AF8E6 
 636      C70E9335 
 636      042BF173 
 636      938E
 637 0521 C51D3935 		.ascii	"\305\035958\354\273&[\261\226+\003\263\207\302\357\344"
 637      38ECBB26 
 637      5BB1962B 
 637      03B387C2 
 637      EFE4
 638 0533 252AC93B 		.ascii	"%*\311;\261*\324\017\236\330\337TO\350\366\000\036\343"
 638      B12AD40F 
 638      9ED8DF54 
 638      4FE8F600 
 638      1EE3
 639 0545 BA126018 		.ascii	"\272\022`\030\326\220go\301\343L\017\251\222\356-\240"
 639      D690676F 
 639      C1E34C0F 
 639      A992EE2D 
 639      A0
 640 0556 FA607A92 		.ascii	"\372`z\222\017\023\262\366^32\025*2b\027\031q\024\031"
 640      0F13B2F6 
 640      5E333215 
 640      2A326217 
 640      19711419 
 641 056a A522C7CB 		.ascii	"\245\"\307\313_\276\320K\255L\244\3136\227\014\\\344"
 641      5FBED04B 
 641      AD4CA4CB 
 641      36970C5C 
 641      E4
 642 057b 8DACECC1 		.ascii	"\215\254\354\301\021\350\250\306S\273\306SG\2151\252"
 642      11E8A8C6 
 642      53BBC653 
 642      478D31AA 
 643 058b D1DCF4A1 		.ascii	"\321\334\364\241\300K\032d\032\275\327n$x\030\370v%"
 643      C04B1A64 
 643      1ABDD76E 
 643      247818F8 
 643      7625
 644 059d F953DB95 		.ascii	"\371S\333\225g\305\3036_\315\322z\016\216\213\371\007"
 644      67C5C336 
 644      5FCDD27A 
 644      0E8E8BF9 
 644      07
 645 05ae B6B4C8AA 		.ascii	"\266\264\310\252\277\322f\221t\"\353#\363\207}\211u"
 645      BFD26691 
 645      7422EB23 
 645      F3877D89 
 645      75
 646 05bf 190F756E 		.ascii	"\031\017ungz\234\316\364\013\340Sm9Z2\355\211\203\033"
 646      677A9CCE 
 646      F40BE053 
ARM GAS  /tmp/cc7c2vFc.s 			page 51


 646      6D395A32 
 646      ED89831B 
 647 05d3 C0EDC0E5 		.ascii	"\300\355\300\345\256?\355\312K\264&\003\365\202g\366"
 647      AE3FEDCA 
 647      4BB42603 
 647      F58267F6 
 648 05e3 E13DE3DB 		.ascii	"\341=\343\3330\230\240CK\262}H\222\244\375\022\035Z"
 648      3098A043 
 648      4BB27D48 
 648      92A4FD12 
 648      1D5A
 649 05f5 D2F37C9B 		.ascii	"\322\363|\233H\021\3106\202!\364\330r\303\334\022LS"
 649      4811C836 
 649      8221F4D8 
 649      72C3DC12 
 649      4C53
 650 0607 822995A0 		.ascii	"\202)\225\240\345\331Y\213\236\021X3o\0311=\361\200"
 650      E5D9598B 
 650      9E115833 
 650      6F19313D 
 650      F180
 651 0619 497BF649 		.ascii	"I{\366I5\373\014\315^u\370~\265N:\316\262w\357\035\314"
 651      35FB0CCD 
 651      5E75F87E 
 651      B54E3ACE 
 651      B277EF1D 
 652 062e 59C2A3CB 		.ascii	"Y\302\243\313Y4a\177i\217~\251F\277\242\321}i\327\033"
 652      5934617F 
 652      698F7EA9 
 652      46BFA2D1 
 652      7D69D71B 
 653 0642 41CA63D1 		.ascii	"A\312c\321cU\011E\336k\363\224l\213b}\331\266<Ui\324"
 653      63550945 
 653      DE6BF394 
 653      6C8B627D 
 653      D9B63C55 
 654 0658 C1570678 		.ascii	"\301W\006x\315\242\035\230_\023\021x\003k\311c\352H"
 654      CDA21D98 
 654      5F131178 
 654      036BC963 
 654      EA48
 655 066a 76BA5E2A 		.ascii	"v\272^*e\012\027^\024_\340\373\024+\235\317\301\363"
 655      650A175E 
 655      145FE0FB 
 655      142B9DCF 
 655      C1F3
 656 067c 36901AD9 		.ascii	"6\220\032\331\315\202\342\211#z\351\032k<\273\3271\352"
 656      CD82E289 
 656      237AE91A 
 656      6B3CBBD7 
 656      31EA
 657 068e 25DD648D 		.ascii	"%\335d\215\331\241\262\021\243\246\302dA\331\363\315"
 657      D9A1B211 
 657      A3A6C264 
 657      41D9F3CD 
 658 069e 2F54F8D8 		.ascii	"/T\370\330\315=\325\242dcaw&ndx\263g\336Rl\236\037\276"
 658      CD3DD5A2 
ARM GAS  /tmp/cc7c2vFc.s 			page 52


 658      64636177 
 658      266E6478 
 658      B367DE52 
 659 06b6 DE6C60C9 		.ascii	"\336l`\311\025\362\272\2737\177\262\315W\352\243\276"
 659      15F2BABB 
 659      377FB2CD 
 659      57EAA3BE 
 660 06c6 1E07461A 		.ascii	"\036\007F\032\356{A \036A\376\271$\2215+\321'U\261&"
 660      EE7B4120 
 660      1E41FEB9 
 660      2491352B 
 660      D12755B1 
 661 06db 48441DE6 		.ascii	"HD\035\346p\214\273E\177\373\316\356!M\034\202\037\002"
 661      708CBB45 
 661      7FFBCEEE 
 661      214D1C82 
 661      1F02
 662 06ed 733FD18C 		.ascii	"s?\321\214_\230\010\352\374\301\331\331D|\013\301\356"
 662      5F9808EA 
 662      FCC1D9D9 
 662      447C0BC1 
 662      EE
 663 06fe 9CDEECC7 		.ascii	"\234\336\354\307\264\311:\234u\351\356 ]\341Hb\021]"
 663      B4C93A9C 
 663      75E9EE20 
 663      5DE14862 
 663      115D
 664 0710 923075BA 		.ascii	"\2220u\272Q\265\246\"\012n\371\321K\340e%G\012\177Z"
 664      51B5A622 
 664      0A6EF9D1 
 664      4BE06525 
 664      470A7F5A 
 665 0724 2B601660 		.ascii	"+`\026`\247\030\000\212H\002\211\026\251^\222\030\004"
 665      A718008A 
 665      48028916 
 665      A95E9218 
 665      04
 666 0735 FF110321 		.ascii	"\377\021\003!\001m\027Z\242\030\250>\230z\012\273\237"
 666      016D175A 
 666      A218A83E 
 666      987A0ABB 
 666      9F
 667 0746 48D2133A 		.ascii	"H\322\023:Q\342\355ww\257\340\017\020\177\226\352l3"
 667      51E2ED77 
 667      77AFE00F 
 667      107F96EA 
 667      6C33
 668 0758 9054FB50 		.ascii	"\220T\373Pd\217\270\260\210Hf7\011a/\346\371\037rv\274"
 668      648FB8B0 
 668      88486637 
 668      09612FE6 
 668      F91F7276 
 669 076d BC77DBD3 		.ascii	"\274w\333\323\237KX\335J\010\356\342\213\367\237n\325"
 669      9F4B58DD 
 669      4A08EEE2 
 669      8BF79F6E 
 669      D5
ARM GAS  /tmp/cc7c2vFc.s 			page 53


 670 077e 3E14F63B 		.ascii	">\024\366;L\232\000\007Du\311\324\275*\354\360T=\223"
 670      4C9A0007 
 670      4475C9D4 
 670      BD2AECF0 
 670      543D93
 671 0791 17F37C58 		.ascii	"\027\363|X1\234\252}\207\035\024\215\016\236\207TO\335"
 671      319CAA7D 
 671      871D148D 
 671      0E9E8754 
 671      4FDD
 672 07a3 40F36CB6 		.ascii	"@\363l\266\036\374\003\203\002\331\010\254l\022\336"
 672      1EFC0383 
 672      02D908AC 
 672      6C12DE
 673 07b2 41002F57 		.ascii	"A\000/W2\237\201\357p()H~\230\223\263\202_N\\\241]\036"
 673      329F81EF 
 673      70282948 
 673      7E9893B3 
 673      825F4E5C 
 674 07c9 C9AE9707 		.ascii	"\311\256\227\007\253A\035"
 674      AB411D
 675 07d0 2B77B2B6 		.ascii	"+w\262\266\334L\251#\361\247L\011\331\340\275K%\266"
 675      DC4CA923 
 675      F1A74C09 
 675      D9E0BD4B 
 675      25B6
 676 07e2 72C8DEB2 		.ascii	"r\310\336\262l\357m?i\234\225\271n\240\242\320g\241"
 676      6CEF6D3F 
 676      699C95B9 
 676      6EA0A2D0 
 676      67A1
 677 07f4 CC9DACCC 		.ascii	"\314\235\254\314\337c\360\021{\231\223\035\312\3544"
 677      DF63F011 
 677      7B99931D 
 677      CAEC34
 678 0803 42388A03 		.ascii	"B8\212\003s7H\262\365\314\036\313\364\343\345\265Z\335"
 678      733748B2 
 678      F5CC1ECB 
 678      F4E3E5B5 
 678      5ADD
 679 0815 860ACE71 		.ascii	"\206\012\316q\335\027vfK\370\010*\317&\357\272/\206"
 679      DD177666 
 679      4BF8082A 
 679      CF26EFBA 
 679      2F86
 680 0827 4E623CC0 		.ascii	"Nb<\3001\364~\313\237B\3669&=\177\305\235\301q\221<"
 680      31F47ECB 
 680      9F42F639 
 680      263D7FC5 
 680      9DC17191 
 681 083c 8766B29E 		.ascii	"\207f\262\236\324\371H\363\354\311\3208U^\3007cd\327"
 681      D4F948F3 
 681      ECC9D038 
 681      555EC037 
 681      6364D7
 682 084f 3EFE3A77 		.ascii	">\376:w\217\227\373\335P\272\310wCi\"}\341$uW\015:\354"
 682      8F97FBDD 
ARM GAS  /tmp/cc7c2vFc.s 			page 54


 682      50BAC877 
 682      4369227D 
 682      E1247557 
 683 0866 93CD6489 		.ascii	"\223\315d\2118|\243N\210\313\324 \342]\321\266\357W"
 683      387CA34E 
 683      88CBD420 
 683      E25DD1B6 
 683      EF57
 684 0878 8ECE0717 		.ascii	"\216\316\007\027s>\333o\261\000\216o\002_\240\223\207"
 684      733EDB6F 
 684      B1008E6F 
 684      025FA093 
 684      87
 685 0889 3FDFA958 		.ascii	"?\337\251Xu\220!.\203T6\353\016\201\244\207\214.\223"
 685      7590212E 
 685      835436EB 
 685      0E81A487 
 685      8C2E93
 686 089c 8EAE6730 		.ascii	"\216\256g0-\307(\245\352\350\350~\270r|\312\210\"\355"
 686      2DC728A5 
 686      EAE8E87E 
 686      B8727CCA 
 686      8822ED
 687 08af 2872EC5A 		.ascii	"(r\354Z\000\025!k:\353#\221,.\222ME.&4?\027\245\"&R"
 687      0015216B 
 687      3AEB2391 
 687      2C2E924D 
 687      452E2634 
 688 08c9 D2D8A9F8 		.ascii	"\322\330\251\370r\221\352?\220Y&\0229\037I\344p\211"
 688      7291EA3F 
 688      90592612 
 688      391F49E4 
 688      7089
 689 08db 5C2AF121 		.ascii	"\\*\361!s~\217\237T\303$\332v7 \035\2238\367\027U\""
 689      737E8F9F 
 689      54C324DA 
 689      7637201D 
 689      9338F717 
 690 08f1 EF23893C 		.ascii	"\357#\211<.\221O%\336\277{\330\243\375o\302W\216\305"
 690      2E914F25 
 690      DEBF7BD8 
 690      A3FD6FC2 
 690      578EC5
 691 0904 38C9BE64 		.ascii	"8\311\276d\344Lv\012\265\325\217\264_\311q\315\233\341"
 691      E44C760A 
 691      B5D58FB4 
 691      5FC971CD 
 691      9BE1
 692 0916 14F73E45 		.ascii	"\024\367>E\275\367?\035:\251\327xOk\274\013\270w\001"
 692      BDF73F1D 
 692      3AA9D778 
 692      4F6BBC0B 
 692      B87701
 693 0929 F5BE6ED9 		.ascii	"\365\276n\331\367\245\306\231\024\302\356\\\310\235"
 693      F7A5C699 
 693      14C2EE5C 
 693      C89D
ARM GAS  /tmp/cc7c2vFc.s 			page 55


 694 0937 0BA97357 		.ascii	"\013\251sWOB\015\377q\340M\376%r\177\276\321\317\375"
 694      4F420DFF 
 694      71E04DFE 
 694      25727FBE 
 694      D1CFFD
 695 094a 8A3AADAE 		.ascii	"\212:\255\256\250\"\266\242fG\217\364\360h\"f\251\355"
 695      A822B6A2 
 695      66478FF4 
 695      F0682266 
 695      A9ED
 696 095c 49E1BF6C 		.ascii	"I\341\277l\006\310\355]J\322\0348o\267Kp\376\212\351"
 696      06C8ED5D 
 696      4AD21C38 
 696      6FB74B70 
 696      FE8AE9
 697 096f FC95D235 		.ascii	"\374\225\3225D5i\003#\232\006\272\357zj\340K5\360g8"
 697      44356903 
 697      239A06BA 
 697      EF7A6AE0 
 697      4B35F067 
 698 0984 FC190A7F 		.ascii	"\374\031\012\177fj\346\014\377]H\376\0353\3342\371~"
 698      666AE60C 
 698      FF5D48FE 
 698      1D33DC32 
 698      F97E
 699 0996 915F36E5 		.ascii	"\221_6\345*|\031\203\317\036\353-\3239\323\331\253["
 699      2A7C1983 
 699      CF1EEB2D 
 699      D339D3D9 
 699      AB5B
 700 09a8 41E9CA19 		.ascii	"A\351\312\031]\005\245\353\030\235\037\321\226\270B"
 700      5D05A5EB 
 700      189D1FD1 
 700      96B842
 701 09b7 4357C9E9 		.ascii	"CW\311\351\310Y\027\2719\"\326\353\367\177\376z\365"
 701      C85917B9 
 701      3922D6EB 
 701      F77FFE7A 
 701      F5
 702 09c8 6F434204 		.ascii	"oCB\004Cxx\374\226\030sXh\270Y6m\336\026-\233\242\""
 702      437878FC 
 702      96187358 
 702      68B85936 
 702      6DDE162D 
 703 09df 62B6C85B 		.ascii	"b\266\310[M_Do\222\243\242\344\250\337\304F\233\376"
 703      4D5F446F 
 703      92A3A2E4 
 703      A8DFC446 
 703      9BFE
 704 09f1 1119B93E 		.ascii	"\021\031\271>\"6z}\314\266\030y\275\034\261i\313\372"
 704      22367A7D 
 704      CCB61879 
 704      BD1CB169 
 704      CBFA
 705 0a03 5F846F5C 		.ascii	"_\204o\\\037\272!\344\227\337\206\23147L[b\"\267\306"
 705      1FBA21E4 
 705      97DF8699 
ARM GAS  /tmp/cc7c2vFc.s 			page 56


 705      34374C5B 
 705      6222B7C6 
 706 0a17 47C9A6E8 		.ascii	"G\311\246\350\210\310\315[bdSx\224\374\367\210\370\255"
 706      88C8CD5B 
 706      62645378 
 706      94FCF788 
 706      F8AD
 707 0a29 E670F38E 		.ascii	"\346p\363\216\355r\\\360f\301KM\367\267\377g\272\270"
 707      ED725CF0 
 707      66C14B4D 
 707      F7B7FF67 
 707      BAB8
 708 0a3b 1D71A6F0 		.ascii	"\035q\246\3608s\024jc\216\025\261\230O\2163\207o\330"
 708      3873146A 
 708      638E15B1 
 708      984F8E33 
 708      876FD8
 709 0a4e 10821616 		.ascii	"\020\202\026\026.\377K\216\2147\313\033\203\203M\354"
 709      2EFF4B8E 
 709      8C37CB1B 
 709      83834DEC 
 710 0a5e 8FDC35C5 		.ascii	"\217\3345\305\232Mq\333\342c#e\265\311\202\342\344o"
 710      9A4D71DB 
 710      E2632365 
 710      B5C982E2 
 710      E46F
 711 0a70 E3E59848 		.ascii	"\343\345\230H\231D\007G:\213\205\252bN\375!j\277\221"
 711      99440747 
 711      3A8B85AA 
 711      624EFD21 
 711      6ABF91
 712 0a83 766E8F45 		.ascii	"vn\217E\224\2551\001\332\214[\267l2En\246a\210\351m"
 712      94AD3101 
 712      DA8C5BB7 
 712      6C32456E 
 712      A66188E9 
 713 0a98 F78C31D8 		.ascii	"\367\2141\330\257\2270\012\263\274}\271+$]LD\264\254"
 713      AF97300A 
 713      B3BC7DB9 
 713      2B245D4C 
 713      44B4AC
 714 0aab 8F8C8893 		.ascii	"\217\214\210\223\343\274\314rDl\324\266\177\306\350"
 714      E3BCCC72 
 714      446CD4B6 
 714      7FC6E8
 715 0aba E36473FC 		.ascii	"\343ds\374vON@\265\210C\270\331\227\\.D\233\177\342"
 715      764F4E40 
 715      B58843B8 
 715      D9975C2E 
 715      449B7FE2 
 716 0ace 4A303C22 		.ascii	"J0<\"66b\207\237\323p\234\332\241N\355\260\377\002\030"
 716      36366287 
 716      9FD3709C 
 716      DAA14EED 
 716      B0FF0218 
 717 0ae2 D194C9   		.ascii	"\321\224\311"
 718              		.text
ARM GAS  /tmp/cc7c2vFc.s 			page 57


 719              		.section	.gnu.lto_.symtab.53bb30036d2034ca,"",%progbits
 720 0000 72745F74 		.ascii	"rt_test_sequence_001\000"
 720      6573745F 
 720      73657175 
 720      656E6365 
 720      5F303031 
 721 0015 00       		.ascii	"\000"
 722 0016 00       		.ascii	"\000"
 723 0017 00       		.ascii	"\000"
 724 0018 00000000 		.ascii	"\000\000\000\000\000\000\000\000"
 724      00000000 
 725 0020 18010000 		.ascii	"\030\001\000\000"
 726 0024 72745F74 		.ascii	"rt_test_sequence_001_array\000"
 726      6573745F 
 726      73657175 
 726      656E6365 
 726      5F303031 
 727 003f 00       		.ascii	"\000"
 728 0040 00       		.ascii	"\000"
 729 0041 00       		.ascii	"\000"
 730 0042 00000000 		.ascii	"\000\000\000\000\000\000\000\000"
 730      00000000 
 731 004a 1E010000 		.ascii	"\036\001\000\000"
 732 004e 74657374 		.ascii	"test_step\000"
 732      5F737465 
 732      7000
 733 0058 00       		.ascii	"\000"
 734 0059 02       		.ascii	"\002"
 735 005a 00       		.ascii	"\000"
 736 005b 00000000 		.ascii	"\000\000\000\000\000\000\000\000"
 736      00000000 
 737 0063 F8000000 		.ascii	"\370\000\000\000"
 738 0067 74657374 		.ascii	"test_println\000"
 738      5F707269 
 738      6E746C6E 
 738      00
 739 0074 00       		.ascii	"\000"
 740 0075 02       		.ascii	"\002"
 741 0076 00       		.ascii	"\000"
 742 0077 00000000 		.ascii	"\000\000\000\000\000\000\000\000"
 742      00000000 
 743 007f F0000000 		.ascii	"\360\000\000\000"
 744 0083 74657374 		.ascii	"test_printn\000"
 744      5F707269 
 744      6E746E00 
 745 008f 00       		.ascii	"\000"
 746 0090 02       		.ascii	"\002"
 747 0091 00       		.ascii	"\000"
 748 0092 00000000 		.ascii	"\000\000\000\000\000\000\000\000"
 748      00000000 
 749 009a F4000000 		.ascii	"\364\000\000\000"
 750 009e 74657374 		.ascii	"test_print\000"
 750      5F707269 
 750      6E7400
 751 00a9 00       		.ascii	"\000"
 752 00aa 02       		.ascii	"\002"
 753 00ab 00       		.ascii	"\000"
ARM GAS  /tmp/cc7c2vFc.s 			page 58


 754 00ac 00000000 		.ascii	"\000\000\000\000\000\000\000\000"
 754      00000000 
 755 00b4 F6000000 		.ascii	"\366\000\000\000"
 756              		.text
 757              		.section	.gnu.lto_.opts,"",%progbits
 758 0000 272D666D 		.ascii	"'-fmath-errno' '-fsigned-zeros' '-ftrapping-math' '"
 758      6174682D 
 758      6572726E 
 758      6F272027 
 758      2D667369 
 759 0033 2D666E6F 		.ascii	"-fno-trapv' '-fno-openmp' '-fno-openacc' '-mcpu=cor"
 759      2D747261 
 759      70762720 
 759      272D666E 
 759      6F2D6F70 
 760 0066 7465782D 		.ascii	"tex-m4' '-mthumb' '-ggdb' '-O2' '-fomit-frame-point"
 760      6D342720 
 760      272D6D74 
 760      68756D62 
 760      2720272D 
 761 0099 65722720 		.ascii	"er' '-falign-functions=16' '-ffunction-sections' '-"
 761      272D6661 
 761      6C69676E 
 761      2D66756E 
 761      6374696F 
 762 00cc 66646174 		.ascii	"fdata-sections' '-fno-common' '-flto'\000"
 762      612D7365 
 762      6374696F 
 762      6E732720 
 762      272D666E 
 763              		.text
 764              		.comm	__gnu_lto_v1,1,1
 765              		.comm	__gnu_lto_slim,1,1
 766              		.ident	"GCC: (GNU Tools for ARM Embedded Processors) 5.4.1 20160919 (release) [ARM/embedded-5-bran
ARM GAS  /tmp/cc7c2vFc.s 			page 59


DEFINED SYMBOLS
                            *ABS*:00000000 rt_test_sequence_001.c
                            *COM*:00000001 __gnu_lto_v1
                            *COM*:00000001 __gnu_lto_slim

NO UNDEFINED SYMBOLS
