ARM GAS  /tmp/ccmXZb2d.s 			page 1


   1              		.syntax unified
   2              		.cpu cortex-m4
   3              		.fpu softvfp
   4              		.eabi_attribute 20, 1
   5              		.eabi_attribute 21, 1
   6              		.eabi_attribute 23, 3
   7              		.eabi_attribute 24, 1
   8              		.eabi_attribute 25, 1
   9              		.eabi_attribute 26, 1
  10              		.eabi_attribute 30, 2
  11              		.eabi_attribute 34, 1
  12              		.eabi_attribute 18, 4
  13              		.thumb
  14              		.syntax unified
  15              		.file	"chdynamic.c"
  16              		.text
  17              	.Ltext0:
  18              		.section	.gnu.lto_.profile.3f8131bf1d78adeb,"",%progbits
  19 0000 789C6361 		.ascii	"x\234ca`d`a`\000\222\031\006\000\001j\000\243"
  19      60646061 
  19      60009219 
  19      0600016A 
  19      00A3
  20              		.text
  21              		.section	.gnu.lto_.icf.3f8131bf1d78adeb,"",%progbits
  22 0000 789C6361 		.ascii	"x\234ca`d\000\001>\006\004`bX\366\342\3551.\306\025"
  22      60640001 
  22      3E060460 
  22      6258F6E2 
  22      ED312EC6 
  23 0015 F3A67CE3 		.ascii	"\363\246|\343`\000\0000\351\006:"
  23      60000030 
  23      E9063A
  24              		.text
  25              		.section	.gnu.lto_.jmpfuncs.3f8131bf1d78adeb,"",%progbits
  26 0000 789C6361 		.ascii	"x\234ca`d\000\201\245\014\010\300\304\300\306\010\006"
  26      60640081 
  26      A50C08C0 
  26      C4C0C608 
  26      06
  27 0011 F68CF520 		.ascii	"\366\214\365 \300\302\300\310\330\301\364\227\211q\313"
  27      C0C2C0C8 
  27      D8C1F497 
  27      8971CB
  28 0020 91E36D1C 		.ascii	"\221\343m\034_\230Z\231\201\002\214\313\031e\030\030"
  28      5F985A99 
  28      81028CCB 
  28      19651818 
  29 0030 8182EBDF 		.ascii	"\201\202\353\337\354\374\311\013\022ddd`\\\001\024\004"
  29      ECFCC90B 
  29      12646464 
  29      605C0114 
  29      04
  30 0041 EA676064 		.ascii	"\352g`da`c\252\004\231\315T\011\262\000\244p\326\356"
  30      616063AA 
  30      0499CD54 
  30      09B200A4 
ARM GAS  /tmp/ccmXZb2d.s 			page 2


  30      70D6EE
  31 0054 2FA75841 		.ascii	"/\247XA\012\231\0309\030W\202\0242\262\202\255\221G"
  31      0A991839 
  31      18578214 
  31      32B282AD 
  31      9147
  32 0066 B5E5E8FF 		.ascii	"\265\345\350\377\357\007\370!\26601\256\002\331\202"
  32      EF07F821 
  32      B63031AE 
  32      02D982
  33 0075 6C2C13C4 		.ascii	"l,\023\304X\006\000\206\232#y"
  33      58060086 
  33      9A2379
  34              		.text
  35              		.section	.gnu.lto_.inline.3f8131bf1d78adeb,"",%progbits
  36 0000 789C6361 		.ascii	"x\234ca`d\000\201p\006\004`b\220\2202bd`\222X\261\205"
  36      60640081 
  36      70060460 
  36      62909032 
  36      62646092 
  37 0017 91816D81 		.ascii	"\221\201m\201<\023H\220\231\007(1\301\017L32\260\362"
  37      3C134890 
  37      99072831 
  37      C10F4C33 
  37      32B0F2
  38 002a 014526F8 		.ascii	"\001E&\370\001\371\214\020\265\322\327N12\260\337R\303"
  38      01F98C10 
  38      B5D2D74E 
  38      3132B0DF 
  38      52C3
  39 003c A2164C02 		.ascii	"\242\026L\002y\000\373\331\012\355"
  39      7900FBD9 
  39      0AED
  40              		.text
  41              		.section	.gnu.lto_.pureconst.3f8131bf1d78adeb,"",%progbits
  42 0000 789C6361 		.ascii	"x\234ca`d`g```b\330\305\310\270\213\021\000\005\321"
  42      60646067 
  42      60606062 
  42      D8C5C8B8 
  42      8B110005 
  43 0015 0186     		.ascii	"\001\206"
  44              		.text
  45              		.section	.gnu.lto_chThdCreateFromHeap.3f8131bf1d78adeb,"",%progbits
  46 0000 789C8595 		.ascii	"x\234\205\225mLSW\030\307\317s\317mo\241\264\3426\247"
  46      6D4C5357 
  46      18C7CF73 
  46      CF6D6FA1 
  46      B4E236A7 
  47 0014 2E26C325 		.ascii	".&\303%\204\231\014\256Y\262h\374\260\304\230%\372\201"
  47      84990CAE 
  47      59B268FC 
  47      B0C49825 
  47      FA81
  48 0026 64D17DD8 		.ascii	"d\321}\330\227\305\260\332\011\311j\233\026\247.Y\270"
  48      97C5B0DA 
  48      09C96A9B 
  48      16A72E59 
ARM GAS  /tmp/ccmXZb2d.s 			page 3


  48      B8
  49 0037 D05E2631 		.ascii	"\320^&1\306\227dN\220\015\347B\304!\210N\235\014\253"
  49      C697644E 
  49      900DE742 
  49      C421884E 
  49      9D0CAB
  50 004a 9D2F65D6 		.ascii	"\235/e\326\267\201\242\"\350x\365\005\205Y\327\315\227"
  50      B781A222 
  50      E878F505 
  50      8559D7CD 
  50      97
  51 005b 0DBAE739 		.ascii	"\015\272\3479\267\030(\350nh\332{\316\377\377<\347<"
  51      B71828E8 
  51      6E68DA7B 
  51      CEFFFF3C 
  51      E73C
  52 006d CFEF1C64 		.ascii	"\317\357\034d\006\214\036\237\205\261\030~\277\203\037"
  52      068C1E9F 
  52      85B1187E 
  52      BF831F
  53 007c 30319036 		.ascii	"01\2206_`\254\330\"Ir\2043-\225\207#\214ii\034dc\\\006"
  53      5F60ACD8 
  53      22497284 
  53      332D9587 
  53      238C6969 
  54 0095 A01F9A05 		.ascii	"\240\037\232\005X\221\304e(\202\277\244a\011Z\002\015"
  54      5891C465 
  54      2882BFA4 
  54      61095A02 
  54      0D
  55 00a6 953C26E9 		.ascii	"\225<&\351\234\201\214\257\321\363\025\275vz\005\310"
  55      9C818CAF 
  55      D1F315BD 
  55      767A05C8 
  56 00b6 C0D71D5A 		.ascii	"\300\327\035Zk\2312g\267\246\225h]\247\007>\334\342"
  56      6B993267 
  56      B7A69568 
  56      5DA7073E 
  56      DCE2
  57 00c8 D717EB5C 		.ascii	"\327\027\353\\bq\211A\015\314\202\3350\213\222\357\201"
  57      62718941 
  57      0DCC82DD 
  57      308B92EF 
  57      81
  58 00d9 39A83D38 		.ascii	"9\250=8\264\375a\012\177\003\030\376\256\330\324_e\312"
  58      B4FD610A 
  58      7F0318FE 
  58      AED8D45F 
  58      65CA
  59 00eb AA269F16 		.ascii	"\252&\237\026tj):\347\360\003\360\261>\034bP\013Y\250"
  59      746A293A 
  59      E7F003F0 
  59      B13E1C62 
  59      500B59A8 
  60 00ff DE55DC76 		.ascii	"\336U\334v\326\306\337\024\316/\353\202w\355\011\347"
  60      D6C6DF14 
  60      CE2FEB82 
ARM GAS  /tmp/ccmXZb2d.s 			page 4


  60      77ED09E7 
  61 010f 13E19461 		.ascii	"\023\341\224ao\262SfP'\234%=\207\257\000\317\026\316"
  61      6FB25366 
  61      50279C25 
  61      3D87AF00 
  61      CF16CE
  62 0122 9D6D3BD7 		.ascii	"\235m;\327\030\306\320\325pv\271\026\222un\202\372d"
  62      18C6D0D5 
  62      7076B916 
  62      92756E82 
  62      FA64
  63 0134 2F566A9F 		.ascii	"/Vj\237\360\326\226\334\036\344\374m\341-;3\334\253"
  63      F0D696DC 
  63      1EE4FC6D 
  63      E12D3B33 
  63      DCAB
  64 0146 24B2FE29 		.ascii	"$\262\376)\262\232\241!\331if\260_8\317\0154\035\262"
  64      B29AA121 
  64      D96966B0 
  64      5F38CF0D 
  64      341DB2
  65 0159 F079C219 		.ascii	"\360y\302\031?R\375\2675\221\266=\234e\244U\340@\262"
  65      3F52FDB7 
  65      3591B63D 
  65      9C65A455 
  65      E040B2
  66 016c 5961F0A3 		.ascii	"Ya\360\2430\337\3236\004\201/\020\346\266+{>Hd\275$"
  66      30DFD336 
  66      04812F10 
  66      E6B62B7B 
  66      3E4864BD 
  67 0181 B25AE060 		.ascii	"\262Z\340`\262\321\302\340\020d\221z(\320\337e5Z5\003"
  67      B2D1C2E0 
  67      1064917A 
  67      28D0DF65 
  67      355A3503 
  68 0195 5F1B8E06 		.ascii	"_\033\216\006\006\023\255\012\001\276\267w\037\035J"
  68      0613AD0A 
  68      01BEB777 
  68      1F1D4A
  69 01a4 E5EF8AC0 		.ascii	"\345\357\212\300u}\235\2533\277\327B\232\026\372'<\275"
  69      757D9DAB 
  69      33BFD742 
  69      9A16FA27 
  69      3CBD
  70 01b6 580B0532 		.ascii	"X\013\0052t\236\002G\214\340?a\360\303\242u\214\304"
  70      749E0247 
  70      8CE03F61 
  70      F0C3A275 
  70      8CC4
  71 01c8 A17BBDB5 		.ascii	"\241{\275\2652_(\214\275\033Oo\222\321I\333\271\021"
  71      325F288C 
  71      BD1B4F6F 
  71      92D149DB 
  71      B911
  72 01da 4E2B379C 		.ascii	"N+7\234\026\370y\374\262\022\316S\375\377\266Z\371{"
  72      16F879FC 
ARM GAS  /tmp/ccmXZb2d.s 			page 5


  72      B212CE53 
  72      FDFFB65A 
  72      F97B
  73 01ec C2595CBB 		.ascii	"\302Y\\\273\2432-\341\354\010\333\023N\011\216N\352"
  73      A3322DE1 
  73      EC08DB13 
  73      4E098E4E 
  73      EA
  74 01fd ECD93FF2 		.ascii	"\354\331?\362\225\315\034\320\360\311\200 dB\023~\032"
  74      95CD1CD0 
  74      F0C98020 
  74      6442137E 
  74      1A
  75 020e 2193D042 		.ascii	"!\223\320B\242\216\201\031!\347cg\366-\015i\361\270"
  75      A28E8119 
  75      21E76367 
  75      F62D0D69 
  75      F1B8
  76 0220 1FAB6C1E 		.ascii	"\037\253l\036z\374\324\362\032`m$\204\032\0212\001\341"
  76      7AFCD4F2 
  76      1A606D24 
  76      841A1132 
  76      01E1
  77 0232 801546A9 		.ascii	"\200\025F\251\005\250\275V\234L\265\001\365k\012P\341"
  77      05A8BD56 
  77      9C4CB501 
  77      F56B0A50 
  77      E1
  78 0243 A7025571 		.ascii	"\247\002Uq\032\243\210\214=\300$t\030\242\222D\337\374"
  78      1AA3888C 
  78      3DC02474 
  78      18A29244 
  78      DFFC
  79 0255 0E9486A2 		.ascii	"\016\224\206\242aNi\375\\\301\34556\336\357P\212\206"
  79      614E69FD 
  79      5CC1E535 
  79      36DEEF50 
  79      8A86
  80 0267 B5F59A96 		.ascii	"\265\365\232\226\256sk\\\302\325\300q(b~.\373\271\211"
  80      AE736B5C 
  80      C2D5C071 
  80      28627E2E 
  80      FBB989
  81 027a 086F8A45 		.ascii	"\010o\212ELT\3754\260`\375g\351\334\306z@\022+\307e"
  81      4C54FD34 
  81      B060FD67 
  81      E9DCC67A 
  81      40122BC7 
  82 028f 6018D60D 		.ascii	"`\030\326\015\201\353\376\333\033\315\211\260\220c\354"
  82      81EBFEDB 
  82      1BCD89B0 
  82      9063EC
  83 029e 3E2A7186 		.ascii	">*q\206g\223\337\202\222\212\350\315\250\211\2461\340"
  83      6793DF82 
  83      928AE8CD 
  83      A889A631 
  83      E0
ARM GAS  /tmp/ccmXZb2d.s 			page 6


  84 02af E66DDF6E 		.ascii	"\346m\337nP\324:\252H:\201\213[\036\241Z0\370\005T?"
  84      50D43AAA 
  84      483A818B 
  84      5B1EA15A 
  84      30F80554 
  85 02c4 6280FA6D 		.ascii	"b\200\372m0\2518\325\020\323\265\000'H\254\240\330_"
  85      30A938D5 
  85      10D3B500 
  85      2748ACA0 
  85      D85F
  86 02d6 591AAE4C 		.ascii	"Y\032\256L5r[q\010\227-B<7e\"\212\250\377I\212b%}\305"
  86      35725B71 
  86      08972D42 
  86      3C376522 
  86      8AA8FF49 
  87 02ef E429CD86 		.ascii	"\344)\315\206\230\223\370\024\211m/\020+\206X&\361i"
  87      9893F814 
  87      896D2F10 
  87      2B865826 
  87      F169
  88 0301 124F1927 		.ascii	"\022O\031'\216\325D;\340\231\330b\210M$\016\223x*\326"
  88      8ED5443B 
  88      E099D862 
  88      884D240E 
  88      93782AD6 
  89 0315 B5249DA0 		.ascii	"\265$\235\240\251\216\264\036\267\362\305\002\267\330"
  89      A98EB41E 
  89      B7F2C502 
  89      B7D8
  90 0323 F6FD3529 		.ascii	"\366\3755)\006n]-\245\037\225_\353\323\264\255\032\350"
  90      066E5D2D 
  90      A51F955F 
  90      EBD3B4AD 
  90      1AE8
  91 0335 DC0ECD13 		.ascii	"\334\016\315\023\211\203_!\223.\227\273ZP\246\246\331"
  91      89835F21 
  91      932E97BB 
  91      5A50A6A6 
  91      D9
  92 0346 2103CEE0 		.ascii	"!\003\316\340\334m\274A\206\233\207\346\215'2T6\004"
  92      DC6DBC41 
  92      869B87E6 
  92      8D273254 
  92      3604
  93 0358 82C13856 		.ascii	"\202\3018V#i\252\377\353\263t\331Fh\222'O~\2671\002"
  93      2369AAFF 
  93      EBB374D9 
  93      46689227 
  93      4F7EB731 
  94 036d 33291783 		.ascii	"3)\027\203\263$\220\223Qgp\016\314\270\234\363\3047"
  94      B3249093 
  94      5167700E 
  94      CCB89CF3 
  94      C437
  95 037f B0763AB7 		.ascii	"\260v:\267\273\252\016<N\235=\000U\332v<0S\304\361\355"
  95      BBAA0E3C 
  95      4E9D3D00 
ARM GAS  /tmp/ccmXZb2d.s 			page 7


  95      55DA763C 
  95      3053C4F1 
  96 0394 6DD22C32 		.ascii	"m\322,2v\002.\300lq^\036\334\277\334!\341\010\\\004"
  96      76022EC0 
  96      6C715E1E 
  96      DCBFDC21 
  96      E1085C04 
  97 03a8 59AC9CC1 		.ascii	"Y\254\234\301o\342\302\2569v\262?m\366`\302-\312\364"
  97      6FE2C2AE 
  97      3976B23F 
  97      6DF660C2 
  97      2DCAF4
  98 03bb B0FE409B 		.ascii	"\260\376@\233U\270[\310\015\255 \023\232\242\010\214"
  98      55B85BC8 
  98      0DAD2013 
  98      9AA2088C 
  99 03cb DD814057 		.ascii	"\335\201@W\365\243\271\006\030\323&\260>5N\245\207K"
  99      F5A3B906 
  99      18D326B0 
  99      3E354EA5 
  99      874B
 100 03dd C83ACEDD 		.ascii	"\310:\316\335\332\262\245\214\343\034=_\350\374%\352"
 100      DAB2A58C 
 100      E31C3D5F 
 100      E8FC25EA 
 101 03ed 0D39195C 		.ascii	"\0159\031\\\206\"\235\277L\255\321l\002\372 A?\215\032"
 101      86229DBF 
 101      4CADD16C 
 101      02FA2041 
 101      3F8D1A
 102 0400 1B6BF8A3 		.ascii	"\033k\370\243\205'z\273M?qQ\241\212K\242k\217\232#\353"
 102      85277ABB 
 102      4D3F7151 
 102      A18A4BA2 
 102      6B8F9A23 
 103 0415 D3AAE09B 		.ascii	"\323\252\340\233b\012h\325\371+h\2016\332\016\265\267"
 103      620A68D5 
 103      F92B6881 
 103      36DA0EB5 
 103      B7
 104 0426 AFA45E51 		.ascii	"\257\244^Q\263u\034\272\002U0\"\231\251sWA\245\177."
 104      B3751CBA 
 104      02553022 
 104      99A97357 
 104      41A57F2E 
 105 043a A79A4B2D 		.ascii	"\247\232K-\024\347U\000\270\206\206;\240\207\2167\013"
 105      14E75500 
 105      B886863B 
 105      A0878E37 
 105      0B
 106 044b 84D8844D 		.ascii	"\204\330\204ML\217\223\027\332\305\201\245=\356\273"
 106      4C8F9317 
 106      DAC581A5 
 106      3DEEBB
 107 045a DFF8C446 		.ascii	"\337\370\304F\366\031X\366\353tZg>\243j<I\253\377\217"
 107      F61958F6 
 107      EB745A67 
ARM GAS  /tmp/ccmXZb2d.s 			page 8


 107      3EA36A3C 
 107      49ABFF8F 
 108 046e A40E41D2 		.ascii	"\244\016A\322\263}\3311`\347\013H\212\215\222\244Ld"
 108      B37DD931 
 108      60E70B48 
 108      8A8D92A4 
 108      4C64
 109 0480 E106B130 		.ascii	"\341\006\2610\201\257\247\304\327M\262X&\3625\210|u"
 109      81AFA7C4 
 109      D74DB258 
 109      26F23588 
 109      7C75
 110 0492 105FBF3F 		.ascii	"\020_\277?\207\257.\301W\367\030\276F\252\272\217YG"
 110      87AF2EC1 
 110      57F718BE 
 110      46AABA8F 
 110      5947
 111 04a4 D1E914E8 		.ascii	"\321\351\024\350\364\010t\2229\351\035\345\204\022\210"
 111      F4087492 
 111      39E91DE5 
 111      841288
 112 04b3 8B4A16B7 		.ascii	"\213J\026\267\343-8\321)\256\014\352>\372\312\273B["
 112      E32D38D1 
 112      29AE0CEA 
 112      3EFACABB 
 112      425B
 113 04c5 4DF30F6B 		.ascii	"M\363\017k\353\261F)\014\372`>\033\240Z\3729\335@\017"
 113      EBB14629 
 113      0CFA603E 
 113      1BA05AFA 
 113      39DD400F 
 114 04d9 B141D851 		.ascii	"\261A\330Q\251>Vj\307\342\363\275\301|\274o\201\"a\252"
 114      A93E566A 
 114      C7E2F3BD 
 114      C17CBC6F 
 114      812261AA 
 115 04ed D7737254 		.ascii	"\327srT\343\317\355S\275\205\252\317\353P\035\371+\326"
 115      E3CFED53 
 115      BD85AACF 
 115      EB501DF9 
 115      2BD6
 116 04ff ADCA7315 		.ascii	"\255\312s\0258r\034\314\224\357\314\363xd_\301\347N"
 116      38721CCC 
 116      94EFCCF3 
 116      78645FC1 
 116      E74E
 117 0511 19C79CB2 		.ascii	"\031\307\234\262\307[\340\226<\237\360<\357J\251p\005"
 117      C75BE096 
 117      3C9FF03C 
 117      EF4AA970 
 117      05
 118 0522 5FE3F348 		.ascii	"_\343\363H\205\036\345\343<\237\363}oA\366\330h\016"
 118      851EE5E3 
 118      3C9FF37D 
 118      6F41F6D8 
 118      680E
 119 0534 B7CBE55E 		.ascii	"\267\313\345^\245z\334\336B\237\272pi\356\242\334\265"
ARM GAS  /tmp/ccmXZb2d.s 			page 9


 119      A57ADCDE 
 119      429FBA70 
 119      69EEA2DC 
 119      B5
 120 0545 18DAE1F6 		.ascii	"\030\332\341\366:\227\1776\317\225\223\317\026L\242"
 120      3A977F36 
 120      CF9593CF 
 120      164CA2
 121 0554 76AE2D24 		.ascii	"v\256-$\255\272(w\331\222e\352\"\024\253KV9>]\275\302"
 121      ADBA2877 
 121      D99265EA 
 121      2214AB4B 
 121      56393E5D 
 122 056a A93A5CBE 		.ascii	"\251:\\\276\002\337\362\225\016\007Z\223\227]0\252\311"
 122      02DFF295 
 122      0E075A93 
 122      975D30AA 
 122      C9
 123 057b F7ADF3E1 		.ascii	"\367\255\363\341|z\356\262\245\031\264(\\\356[\031\231"
 123      7C7AEEB2 
 123      A519B428 
 123      5CEE5B19 
 123      99
 124 058c 7399E465 		.ascii	"s\231\344e\212\313\351r{\327\261\377\000\366\323\033"
 124      8ACBE972 
 124      7BD7B1FF 
 124      00F6D31B 
 125 059c 92       		.ascii	"\222"
 126              		.text
 127              		.section	.gnu.lto_chThdCreateFromMemoryPool.3f8131bf1d78adeb,"",%progbits
 128 0000 789C8555 		.ascii	"x\234\205UklSe\030\376\336\363\235\365tmwA\235\200\316"
 128      6B6C5365 
 128      18FEDEF3 
 128      9DF5746D 
 128      77419D80 
 129 0015 384C1A82 		.ascii	"8L\032\202\201\0355Q\320\304D\303\037\371\261\304\200"
 129      811D3551 
 129      D0C444C3 
 129      1FF9B1C4 
 129      80
 130 0026 7FFC6108 		.ascii	"\177\374a\010\226\311\226X\272\264C\340\207\331\267"
 130      96C99658 
 130      BAB443E0 
 130      87D9B7
 131 0035 B50737D1 		.ascii	"\265\0077\321\010$\\6\320\021\315\302`nlC\006c\033T"
 131      08245C36 
 131      D011CDC2 
 131      606E6C43 
 131      06631B54 
 132 0049 2E43CACD 		.ascii	".C\312\315M\006\2141\354\256 \214\311\310\024o\254\276"
 132      4D068C31 
 132      ECAE208C 
 132      C9C8146F 
 132      ACBE
 133 005b EF77BAC9 		.ascii	"\357w\272\311\332\201'\355z\316y\237\347\275>\3577\225"
 133      DA8127ED 
 133      7ACE799F 
ARM GAS  /tmp/ccmXZb2d.s 			page 10


 133      E7BD3EEF 
 133      3795
 134 006d 01A3EB9C 		.ascii	"\001\243\353\234\225\261!\374}\031\277\220\300@\331"
 134      95B121FC 
 134      7D19BF90 
 134      C040D9
 135 007c 708EB142 		.ascii	"p\216\261B\253\242\250!\316\204\215\267\206\030\023"
 135      ABA2A821 
 135      CE848DB7 
 135      861813
 136 008b 0E0EAAF9 		.ascii	"\016\016\252\371^\005\240\033a\005V\240p\025\012\340"
 136      5E05A01B 
 136      610556A0 
 136      70150AE0 
 137 009b 37E5BE02 		.ascii	"7\345\276\002m\201\332\035|T18\003\025\037G\316\226"
 137      6D81DA1D 
 137      7C543138 
 137      03151F47 
 137      CE96
 138 00ad F525D323 		.ascii	"\365%\323#@\006>n\027\355%\332\234]B\024\211p\305\236"
 138      40063E6E 
 138      17ED25DA 
 138      9C5D4214 
 138      8970C59E 
 139 00c1 7737FA8D 		.ascii	"w7\372\215\267\014\256\260\210\302\240\022\322a\027"
 139      B70CAEB0 
 139      88C2A012 
 139      D26117
 140 00d0 A453F0DD 		.ascii	"\244S\360\3350\007\2617\016\266\026[\371s\300\360\276"
 140      3007B137 
 140      0EB6165B 
 140      F973C0F0 
 140      BE
 141 00e1 273CF2CC 		.ascii	"'<\362\314\354\012\242\211\316l\221hp\016{\200?H\303"
 141      EC0AA289 
 141      CE6C9168 
 141      700E7B80 
 141      3F48C3
 142 00f4 570CAA60 		.ascii	"W\014\252`6\202\213z\033.\002wJ\342\316\216\235\253"
 142      36828B7A 
 142      1B2E0277 
 142      4AE2CE8E 
 142      9DAB
 143 0106 A3C4D256 		.ascii	"\243\304\322V\207\330\000\006\246\372m,UeP-\251UE\327"
 143      87D80006 
 143      A6FA6D2C 
 143      5565502D 
 143      A95545D7 
 144 011a 6F73FEBC 		.ascii	"os\376\274\244\226\234\272\337\247\231\334`G(\263T\004"
 144      A4969CBA 
 144      DFA799DC 
 144      604728B3 
 144      5404
 145 012c 55832740 		.ascii	"U\203'@M,\031[\265W\222\317\334l\332o\345\272$G\016"
 145      4D2C195B 
 145      B55792CF 
 145      DC6CDA6F 
ARM GAS  /tmp/ccmXZb2d.s 			page 11


 145      E5BA2447 
 146 0141 56FC6E8F 		.ascii	"V\374n\217\006\276'3\266@m,\323\302\240N2o\211\365-"
 146      06BE2733 
 146      B6406D2C 
 146      D3C2A04E 
 146      326F89F5 
 147 0156 C05F92CC 		.ascii	"\300_\222\314\216\213\273\337\211\022\267G3\326\240"
 147      8E8BBBDF 
 147      8912B747 
 147      33D6A0
 148 0165 3E96AA31 		.ascii	">\226\2521\330\007\263\011?\034\030\010\333\315\206"
 148      D807B309 
 148      3F1C1808 
 148      DBCD86
 149 0174 CFC0C7DA 		.ascii	"\317\300\307\332\346\300\355h\303\203\200\317\235=\315"
 149      E6C0ED68 
 149      C38380CF 
 149      9D3DCD
 150 0183 C336FE8A 		.ascii	"\3036\376\212t]\335\177u\225\363\033\021\024\"\370w"
 150      745DDD7F 
 150      7595F31B 
 150      111422F8 
 150      77
 151 0194 687AA108 		.ascii	"hz\241\010\0062\014n\205\006\323\371~t\376\235\034\000"
 151      06320C6E 
 151      8506D3F9 
 151      7E74FE9D 
 151      1C00
 152 01a6 2370F056 		.ascii	"#p\360V_\225\312_\225\304\276\317O|\241\"\223Z\321\031"
 152      5F95CA5F 
 152      95C4BECF 
 152      4F7CA122 
 152      935AD119 
 153 01ba 72949A4C 		.ascii	"r\224\232L\015\016NN+\312<>\360O\273\235\277.\231\205"
 153      0D0E4E4E 
 153      2BCA3C3E 
 153      F04FBB9D 
 153      BF2E9985 
 154 01ce 55DB7738 		.ascii	"U\333w8\242\314K\241\344(S\201CS2{\353\3066'Y\002\002"
 154      A2CC4BA1 
 154      E4285381 
 154      4353327B 
 154      EBC63627 
 155 01e5 AF0C6802 		.ascii	"\257\014h\002'4\202\263\004\013;\000N\322\010J\243\031"
 155      273482B3 
 155      040B3B00 
 155      4ED2084A 
 155      A319
 156 01f7 2CA8563E 		.ascii	",\250V>n$\313\336\305A\021\211\370qH\2662\377\276\255"
 156      6E24CBDE 
 156      C5411189 
 156      F87148B6 
 156      32FFBEAD 
 157 020b F034607F 		.ascii	"\3604`\177\024\224'\252\001;\214(\015h\2746|\235h\307"
 157      149427AA 
 157      013B8C28 
 157      0D68BC36 
ARM GAS  /tmp/ccmXZb2d.s 			page 12


 157      7C9D68C7 
 158 021f 3FB624A0 		.ascii	"?\266$\240\211\245\000u\177\032P#\323\030yd\354\016"
 158      89A50075 
 158      7F1A5023 
 158      D3187964 
 158      EC0E
 159 0231 0621558F 		.ascii	"\006!U\217(\012\375\362\033\020\010\216\2048\205\365"
 159      280AFDF2 
 159      1B10088E 
 159      843885F5 
 160 0241 730B66D8 		.ascii	"s\013f\330\3308\324\245\025\334\027\305B\244\032\334"
 160      D838D4A5 
 160      15DC17C5 
 160      42A41ADC 
 161 0251 1E51301B 		.ascii	"\036Q0\033h\201\002\346\347\250\016\007\353\005E\346"
 161      688102E6 
 161      E7A80E07 
 161      EB0545E6 
 162 0261 885191C0 		.ascii	"\210Q\221\300z p\305\177}\263%\352\0002\315RG\024\316"
 162      7A2070C5 
 162      7F7DB325 
 162      EA0032CD 
 162      524714CE 
 163 0275 709DF820 		.ascii	"p\235\370 \024\225\215\\\273\233@ft\276a\313W\3535\275"
 163      14958D5C 
 163      BB9B4066 
 163      74BE61CB 
 163      57EB35BD 
 164 0289 9ACA4F25 		.ascii	"\232\312O%\235bqcT5\203\303\240\373q\346\210\337\002"
 164      9D627163 
 164      543583C3 
 164      A0FB71E6 
 164      88DF02
 165 029c 53826D26 		.ascii	"S\202m&\2306\031\216\020\330B\340Cu\375\365\211fl\033"
 165      9836198E 
 165      10D842E0 
 165      4375FDF5 
 165      89666C1B 
 166 02b0 52B61847 		.ascii	"R\266\030G\317k\244\015.gs\357d\250\330Q\016_\026\222"
 166      CF6BA40D 
 166      2E6773EF 
 166      64A8D851 
 166      0E5F1692 
 167 02c4 8F72EA5A 		.ascii	"\217r\352Z\022V\201\262I\227\303\250\350/\252\211\006"
 167      125681B2 
 167      4997C3A8 
 167      E82FAA89 
 167      06
 168 02d5 105B5185 		.ascii	"\020[Q\205\311\360=\224\303\230\"\347p\024t\014\340"
 168      C9F03D94 
 168      C39822E7 
 168      7014740C 
 168      E0
 169 02e6 DFB16EAE 		.ascii	"\337\261n\256\351\336\216\0211\210\314\360\241\025E"
 169      E9DE8E11 
 169      3188CCF0 
 169      A11545
ARM GAS  /tmp/ccmXZb2d.s 			page 13


 170 02f5 93E4E4E0 		.ascii	"\223\344\344\340\030%i'|\331\324\025%\230`\225\300\307"
 170      18256927 
 170      7CD9D415 
 170      25986095 
 170      C0C7
 171 0307 099CF408 		.ascii	"\011\234\364\010\260\305\004'\020\370\004\201S&\201"
 171      B0C50427 
 171      10F80481 
 171      532681
 172 0316 472B47BA 		.ascii	"G+G\272`\002\254\231`\013\201[\011<\015\307V\224*k\016"
 172      6002AC99 
 172      600B815B 
 172      093C0DC7 
 172      56942A6B 
 173 032b B51FB1F3 		.ascii	"\265\037\261\3637d{F\267\325U&\232\322\015\327\255{"
 173      37647B46 
 173      B7D55526 
 173      9AD20DD7 
 173      AD7B
 174 033d AFF472BF 		.ascii	"\257\364r\277\020\233\0046\"\005N\306\253\027~\000'"
 174      109B0436 
 174      22054EC6 
 174      AB177E00 
 174      27
 175 034e 923EF945 		.ascii	"\222>\371E\264\250\324\342\024\310\200Sh\273\216\307"
 175      B4A8D4E2 
 175      14C88053 
 175      68BB8EC7 
 176 035e 51F7C9E1 		.ascii	"Q\367\311\341\371\223\325\035,\031V\244\230#\330\316"
 176      F993D51D 
 176      2C1956A4 
 176      9823D8CE 
 177 036e 1853C5D6 		.ascii	"\030S\305\326\323t\374\206\310\310c\215=\237\205`&\305"
 177      D374FC86 
 177      C8C8638D 
 177      3D9F8560 
 177      26C5
 178 0380 62709A00 		.ascii	"bp\232\000j\354\33208\003X\031\234\245E\001\326Fg\300"
 178      6AECDA30 
 178      38035819 
 178      9CA54501 
 178      D64667C0 
 179 0394 D7E5F57F 		.ascii	"\327\345\365\177\330f\365B\271\330\206\313'\013\255"
 179      D866F542 
 179      B9D886CB 
 179      270BAD
 180 03a3 EE6B1256 		.ascii	"\356k\022V\025G\011\347`\226\034\367\235\241\013]\012"
 180      154709E7 
 180      60961CF7 
 180      9DA10B5D 
 180      0A
 181 03b4 BE81F3A0 		.ascii	"\276\201\363\240\312\314\031\374(\217\360\312\303\307"
 181      CACC19FC 
 181      288FF0CA 
 181      C3C7
 182 03c2 061CB306 		.ascii	"\006\034\263\006\242\354i\204\275[S\337a\227\3546bC"
 182      A2EC6984 
ARM GAS  /tmp/ccmXZb2d.s 			page 14


 182      BD5B53DF 
 182      6197EC36 
 182      6243
 183 03d4 3BA8A47C 		.ascii	";\250\244|\331\004\306pi\302\025\007^4\205\221\026\267"
 183      D904C670 
 183      69C21507 
 183      5E348591 
 183      16B7
 184 03e6 348F4568 		.ascii	"4\217EhN\360\023.\015\332\0067n,\341h\243\353c\203?"
 184      4EF0132E 
 184      0DDA0637 
 184      6E2CE168 
 184      A3EB6383 
 185 03fb 4EB32126 		.ascii	"N\263!&\203\013P`\360'h4\"I\356T\023\355T\032\015v\264"
 185      830B5060 
 185      F0276834 
 185      2249EE54 
 185      13ED541A 
 186 0412 F6D7761E 		.ascii	"\366\327v\036\235\355\204\250\225xQ\333\015\236\206"
 186      9DED84A8 
 186      957851DB 
 186      0D9E86
 187 0421 14E89824 		.ascii	"\024\350\230$\351y\006\177\022.J-k4\271K\240\243\355"
 187      E979067F 
 187      122E4A2D 
 187      6B34B94B 
 187      A0A3ED
 188 0434 44E45E30 		.ascii	"D\344^0\205\374L\307\025\276\214\004\271\234\377\305"
 188      85FC4CC7 
 188      15BE8C04 
 188      B99CFFC5 
 189 0444 79A4E3EE 		.ascii	"y\244\343\356\226\276\006N\2165\350\224\216\255\344"
 189      96BE064E 
 189      8E35E894 
 189      8EADE4
 190 0453 F80A894B 		.ascii	"\370\012\211K\305~\030\301\266\323R\213,\256\0333\""
 190      C57E18C1 
 190      B6D3528B 
 190      2CAE1B33 
 190      22
 191 0464 2444E892 		.ascii	"$D\350\222G\0105k\357P\343\237I\224\307L\234\337UH7"
 191      4708356B 
 191      EF50E39F 
 191      4994C74C 
 191      9CDF5548 
 192 0479 F85313F2 		.ascii	"\370S\023\362\234,\311U\377'\311n)\311\211\006\245\240"
 192      9C2CC955 
 192      FF27C96E 
 192      29C98906 
 192      A5A0
 193 048b C36B0F97 		.ascii	"\303k\017\227\344\251\321qIj\361\242\372\231D\025'\324"
 193      E4A9D171 
 193      496AF1A2 
 193      FA994415 
 193      27D4
 194 049d BF48A861 		.ascii	"\277H\250a\242X\343\205z\033\205\332MB\355y\210P{\245"
 194      A258E385 
ARM GAS  /tmp/ccmXZb2d.s 			page 15


 194      7A1B85DA 
 194      4D42ED79 
 194      88507BA5 
 195 04b1 50FB1E10 		.ascii	"P\373\036\020\352Xy\317a\373\270\006\257I\015\366K\015"
 195      EA5879CF 
 195      61FBB806 
 195      AF490DF6 
 195      4B0D
 196 04c3 C60A6E60 		.ascii	"\306\012n`\\p\024@\036\250\252<\257\007\341\350Uy\366"
 196      5C701440 
 196      1EA8AA3C 
 196      AF07E1E8 
 196      5579F6
 197 04d6 908C9057 		.ascii	"\220\214\220W\032\016nJX\320 \212\261GV\006\203\260"
 197      1A0E6E4A 
 197      58D0208A 
 197      B1475606 
 197      83B0
 198 04e8 80DDA45E 		.ascii	"\200\335\244^\3729\235\224w\001h\202J\315\350\247\311"
 198      FA399D94 
 198      77016882 
 198      4ACDE8A7 
 198      C9
 199 04f9 D87CDEDC 		.ascii	"\330|\336\334\235\203\377\001\200<a\250g33u\363\343"
 199      9D83FF01 
 199      803C61A8 
 199      67333375 
 199      F3E3
 200 050b F1E9DE7C 		.ascii	"\361\351\336|\335\347u\351\256\234\345kW.s\347\2722"
 200      DDE775E9 
 200      AE9CE56B 
 200      572E73E7 
 200      BA32
 201 051d 5D4C71E7 		.ascii	"]Lq\347\251x\237\255\346ys=J\336\007|\231w\205\222\277"
 201      A9789FAD 
 201      E679733D 
 201      4ADE077C 
 201      99778592 
 202 0532 9CAFF6E5 		.ascii	"\234\257\366\345)\371y\332\373\313|\331o{s\347=\350"
 202      29F979DA 
 202      FBCB7CD9 
 202      6F7B73E7 
 202      3DE8
 203 0544 C5E571BB 		.ascii	"\305\345q\273=+\365<\2177\337\247\277\2718ka\326\032"
 203      3D2BF53C 
 203      8F37DFA7 
 203      BFB9386B 
 203      61D61A
 204 0557 74E9F278 		.ascii	"t\351\362x\263\227~4\337\235\231\303^\233\002\235\275"
 204      B3977E34 
 204      DF9D99C3 
 204      5E9B029D 
 204      BD
 205 0568 269FB0FA 		.ascii	"&\237\260\372\302\254%\213\226\350\013\021\254/Z\351"
 205      C2AC258B 
 205      96E80B11 
 205      AC2F5AE9 
ARM GAS  /tmp/ccmXZb2d.s 			page 16


 206 0578 FA70D5F2 		.ascii	"\372p\325\362l\335\345\366\345\372\226\256p\271\220"
 206      6CDDE5F6 
 206      E5FA96AE 
 206      70B990
 207 0587 1A9B6EEE 		.ascii	"\032\233n\3568&\307\267\326\207\366\324\254%\2133()"
 207      3826C7B7 
 207      D687F6D4 
 207      AC258B33 
 207      2829
 208 0599 4C776E86 		.ascii	"Lwn\206\363\005\246x\231\346\316v{\274k\331\277c_6\335"
 208      F305A678 
 208      99E6CE76 
 208      7BBC6BD9 
 208      BF635F36 
 209              		.text
 210              		.section	.gnu.lto_.symbol_nodes.3f8131bf1d78adeb,"",%progbits
 211 0000 789C55C9 		.ascii	"x\234U\311=\016@@\024\004\340y\263\273\327\020N\372"
 211      3D0E4040 
 211      1404E079 
 211      B3BBD710 
 211      4EFA
 212 0012 B693A8D4 		.ascii	"\266\223\250\324j\361\027'P\253\235A\341\032\304Cc\247"
 212      6AF11727 
 212      50AB9D41 
 212      E11AC443 
 212      63A7
 213 0024 99C9371E 		.ascii	"\231\3117\036\202\006\026vT\240\336\000\253%\026&=U"
 213      82061676 
 213      54A0DE00 
 213      AB251626 
 213      3D55
 214 0036 129189CA 		.ascii	"\022\221\211\312W\200\030s\203\221\352\022\030\250>"
 214      57801873 
 214      8391EA12 
 214      18A83E
 215 0045 81991AFE 		.ascii	"\201\231\032\376\340\340\321\356\2278[kyf\016D[YK\370"
 215      E0E0D1EE 
 215      97385B6B 
 215      79660E44 
 215      5B594BF8 
 216 0059 DC9EE371 		.ascii	"\334\236\343q!\016s\334IV'\005"
 216      210E73DC 
 216      49562705 
 217              		.text
 218              		.section	.gnu.lto_.refs.3f8131bf1d78adeb,"",%progbits
 219 0000 789C6361 		.ascii	"x\234ca`\004B \000\000\0009\000\007"
 219      60044220 
 219      00000039 
 219      0007
 220              		.text
 221              		.section	.gnu.lto_.decls.3f8131bf1d78adeb,"",%progbits
 222 0000 789CB53A 		.ascii	"x\234\265:iTTiv\365\275\357\001EQ@G\315L\317\0143\323"
 222      69545469 
 222      76F5BDEF 
 222      01455140 
 222      47CD4CCF 
 223 0017 99386972 		.ascii	"\2318irr\024m\273\247;sr\222t\234\315$\235\236\036\247"
ARM GAS  /tmp/ccmXZb2d.s 			page 17


 223      72146DBB 
 223      A73B7372 
 223      92749CCD 
 223      249D9E1E 
 224 002c 27A77392 		.ascii	"'\247s\222SS\026\325\3024[W\225\255\346\317\024\210"
 224      535316D5 
 224      C2345B57 
 224      95ADE6CF 
 224      1488
 225 003e 0BE0C626 		.ascii	"\013\340\306&\373\"\202\262\012\210J\313\242\210\012"
 225      FB2282B2 
 225      0A884ACB 
 225      A2880A
 226 004d B8218A22 		.ascii	"\270!\212\"\210l\242 \"*\213,\"\220\373}\337{\365^\025"
 226      886CA220 
 226      222A8B2C 
 226      2290FB7D 
 226      DF7BF55E 
 227 0062 AFB42727 		.ascii	"\257\264'')\275T\335\367\356w\367{\277\373\026^\205"
 227      29BD54DD 
 227      F7EE77F7 
 227      7BBFFB16 
 227      5E85
 228 0074 54E413BE 		.ascii	"T\344\023\276J\245z\313M\245z\010\350\002|0\034\373"
 228      4AA57ACB 
 228      4DA57A08 
 228      E8027C30 
 228      1CFB
 229 0086 1D00F9F6 		.ascii	"\035\000\371\366\001p\005\370X\305>\344w-\320u\001\334"
 229      017005F8 
 229      58C53EE4 
 229      772DD075 
 229      01DC
 230 0098 03980698 		.ascii	"\003\230\006\230\007\3408\325\242\017\241\373.|/\001"
 230      07E038D5 
 230      A20FA1FB 
 230      2E7C2F01 
 231 00a8 58066002 		.ascii	"X\006`\002\274\014\340\012\374n \347\001\312\001>\005"
 231      BC0CE00A 
 231      FC6E20E7 
 231      01CA013E 
 231      05
 232 00b9 1883E33F 		.ascii	"\030\203\343?\005\300\034\2235\007\277\253\211<\300"
 232      05C01C93 
 232      3507BFAB 
 232      893CC0
 233 00c8 3D00B400 		.ascii	"=\000\264\000\236\000Sp\334\014\340\213\230n^\034\323"
 233      9E005370 
 233      DC0CE08B 
 233      986E5E1C 
 233      D3
 234 00d9 A90F7030 		.ascii	"\251\017p0A\365\010\276\237\000<\006x\0060\0140\002"
 234      41F508BE 
 234      9F003C06 
 234      7806300C 
 234      3002
 235 00eb 9008E02E 		.ascii	"\220\010\340.\350D\364\3753X\267\024\340;\034\263\201"
ARM GAS  /tmp/ccmXZb2d.s 			page 18


 235      E844F4FD 
 235      3358B714 
 235      E03B1CB3 
 235      81
 236 00fc D8F23DF8 		.ascii	"\330\362=\370\375}\005;\210\255\337s\260\343\016R\266"
 236      FD7D053B 
 236      88ADDF73 
 236      B0E30E52 
 236      B6
 237 010d 81E84EEC 		.ascii	"\201\350N\354\370\001\360A\000\355\202\275\177\252-"
 237      F801F041 
 237      00ED82BD 
 237      7FAA2D
 238 011c EE325B5A 		.ascii	"\3562[Z\235\330\023(\320u\011\376\177\225M$\322o;\330"
 238      9DD81328 
 238      D07509FE 
 238      7F954D24 
 238      D26F3BD8 
 239 0130 36C7A1DA 		.ascii	"6\307\241\332\326\331f\276\023u\020U\321\033\364(B\354"
 239      D6D966BE 
 239      13751055 
 239      D11BF428 
 239      42EC
 240 0142 2FA2A062 		.ascii	"/\242\240b@Qj\021b\274\304CH$\024pN\374\251\2621\243"
 240      40516A11 
 240      62BCC443 
 240      48241470 
 240      4EFCA9B2 
 241 0158 FF85F534 		.ascii	"\377\205\3654\277\350\2072\221\270#a\021\303\205\305"
 241      BFE88732 
 241      91B82361 
 241      11C385C5 
 242 0168 2A24E09C 		.ascii	"*$\340\234$\0001T\\ \343\307\324\025\330I:\333lB\242"
 242      24003154 
 242      5C20E3C7 
 242      D415D849 
 242      3ADB6C42 
 243 017d D15953F9 		.ascii	"\321YS\371\263n\230C\344w\317L\376/V\026[\341\263\337"
 243      B36E9843 
 243      E477CF4C 
 243      FE2F5616 
 243      5BE1B3DF 
 244 0191 6AE5564A 		.ascii	"j\345VJ\2369Z<[\246\341\211[>\325\242\015<9t=\262,\035"
 244      9E395A3C 
 244      5BA6E189 
 244      5B3ED5A2 
 244      0D3C3974 
 245 01a9 4F706889 		.ascii	"Oph\211\006\361\200\216^M\355\367\002t\231\006\275\245"
 245      06F1808E 
 245      5E4DEDF7 
 245      02749906 
 245      BDA5
 246 01bb BCA07DFB 		.ascii	"\274\240}\373\315L\356\315\003\224\3736\353[<\372\335"
 246      CD4CEECD 
 246      0394FB36 
 246      EB5B3CFA 
 246      DD
ARM GAS  /tmp/ccmXZb2d.s 			page 19


 247 01cc B75031F2 		.ascii	"\267P1\362AE\010\302\215\216\2427\341o\011\342\231@"
 247      414508C2 
 247      8D8EA237 
 247      E16F09E2 
 247      9940
 248 01de 6B96751F 		.ascii	"k\226u\037\247\215\266Z#\010\361\222&/B #/EZT\200V2"
 248      A78DB65A 
 248      2308F192 
 248      262F4220 
 248      232F455A 
 249 01f6 E2D2FADC 		.ascii	"\342\322\372\334\307j\374Cb\002w\250)\3610FZ_gK\321"
 249      C76AFC43 
 249      620277A8 
 249      29F13046 
 249      5A5F674B 
 250 020b 31E42B5B 		.ascii	"1\344+[}\230\250\323\233U\2766\302jE\250\034\216\227"
 250      7D98A8D3 
 250      9B55BE36 
 250      C26A45A8 
 250      1C8E97
 251 021e 212C9C23 		.ascii	"!,\234#dL\300\366\262\343\325n\324\032BQ\210\250=]M"
 251      644CC0F6 
 251      B2E3D56E 
 251      D41A4251 
 251      88A83D5D 
 252 0233 0545C401 		.ascii	"\005E\304\001ok\020q\2717Q\344\361\251\031Ov\210P\334"
 252      6F6B1071 
 252      B93751E4 
 252      F1A9194F 
 252      768850DC 
 253 0247 D83796EB 		.ascii	"\3307\226\353\206\377\205\352\325\260\247\342\230\007"
 253      86FF85EA 
 253      D5B0A7E2 
 253      9807
 254 0255 F2D53081 		.ascii	"\362\3250\201]\015?\213\335\011.F_#\015:)I|[\003\177"
 254      5D0D3F8B 
 254      DD092E46 
 254      5F230D3A 
 254      29497C5B 
 255 026b 7749AAAB 		.ascii	"wI\252\253$\275+Ao\340K\010\321\0118x\034\016\202\214"
 255      24BD2B41 
 255      6FE04B08 
 255      D1093878 
 255      1C0E828C 
 256 027f 82DCD81C 		.ascii	"\202\334\330\034W\\\203\250\220\224\343\205S\032\233"
 256      575C83A8 
 256      9094E385 
 256      531A9B
 257 028e 90B4BDEF 		.ascii	"\220\264\275\357B,\337@\325 \343\224$\003D:\025R\245"
 257      422CDF40 
 257      D520E394 
 257      2403443A 
 257      1552A5
 258 02a1 2CC49A30 		.ascii	",\304\2320\233\345\211\263i\222piIgj]\220\306W\231\303"
 258      9BE589B3 
 258      69927069 
 258      49676A5D 
ARM GAS  /tmp/ccmXZb2d.s 			page 20


 258      90C65799 
 259 02b6 69050E4C 		.ascii	"i\005\016L\235\362x\277Z\242N-\250S#\251SM\325\001!"
 259      9DF278BF 
 259      5AA24E2D 
 259      A85323A9 
 259      534DD501 
 260 02cb 274E86A7 		.ascii	"'N\206\247\262\224!\024\025\314\311\267\246k_hq\037"
 260      B2942114 
 260      15CCC9B7 
 260      A66B5F68 
 260      711F
 261 02dd 95CC5744 		.ascii	"\225\314WD\364\034\364B\276>\010\370\"f$\311S\025:\017"
 261      F41CF442 
 261      BE3E08F8 
 261      226624C9 
 261      53153A0F 
 262 02f1 0BEA1016 		.ascii	"\013\352\020\026K9\325\012\272=\373#9\014\277\325\364"
 262      4B39D50A 
 262      BA3DFB23 
 262      390CBFD5 
 262      F4
 263 0302 9B6AFB2C 		.ascii	"\233j\373,\307\352\372\246\012\255\361A\253@\325\263"
 263      C7EAFAA6 
 263      0AADF141 
 263      AB40D5B3 
 264 0312 A02A39A5 		.ascii	"\240*9\245B\347\200a=3\365N\343\225HW\215@\275\377u"
 264      42E78061 
 264      3D33F54E 
 264      E3954857 
 264      8D40BDFF 
 265 0327 D4C34503 		.ascii	"\324\303E\003m^viz\001T\221\322\264\201f\020\241\314"
 265      6D5E7669 
 265      7A015491 
 265      D2B48166 
 265      10A1CC
 266 033a CB3F57AC 		.ascii	"\313?W\254\246\326\3011t\306>\205>^\234B\037\263\024"
 266      A6D6C131 
 266      74C63E85 
 266      3E5E9C42 
 266      1FB314
 267 034d CA9D795A 		.ascii	"\312\235yZ\251\305\003\314\363\331{J\206\\l\341\255"
 267      A9C503CC 
 267      F3D97B4A 
 267      865C6CE1 
 267      AD
 268 035e 4EFACFF1 		.ascii	"N\372\317\361\355$\207\256\200\310K\222C?v\036\336\313"
 268      ED2487AE 
 268      80C84B92 
 268      433F761E 
 268      DECB
 269 0370 60C3C742 		.ascii	"`\303\307Bp.\302\301&f\305\2413\225#<\325\215\260jd"
 269      702EC2C1 
 269      2666C5A1 
 269      3395233C 
 269      D58DB06A 
 270 0385 BAA5564F 		.ascii	"\272\245VO\\ra\365\255&\271\374\354J\206\007C\337\000"
 270      5C7261F5 
ARM GAS  /tmp/ccmXZb2d.s 			page 21


 270      AD26B9FC 
 270      EC4A8607 
 270      43DF00
 271 0398 F4E4C0C5 		.ascii	"\364\344\300\305\006\015+w+\002\274\362IQ\245'\303\353"
 271      060D2B77 
 271      2B02BCF2 
 271      4951A527 
 271      C3EB
 272 03aa C8EA53E3 		.ascii	"\310\352S\343\326\343\236\370:\246F\234\237\3509\254"
 272      D6E39EF8 
 272      3AA6469C 
 272      9FE839AC 
 273 03ba C5ED0C19 		.ascii	"\305\355\014\031\353\316/t\307]\014\331\177w\246\306"
 273      EBCE2F74 
 273      C75D0CD9 
 273      7F77A6C6 
 274 03ca 03F73324 		.ascii	"\003\3673$o\307\255A/\374\220!\305\365)\227<\360\004"
 274      6FC7AD41 
 274      2FFC9021 
 274      C5F52997 
 274      3CF004
 275 03dd 4372C26F 		.ascii	"Cr\302o]\366\3043\014\351\231\355>\201\361<C\012\347"
 275      5DF6C433 
 275      0CE999ED 
 275      3E81F13C 
 275      430AE7
 276 03f0 272E79E3 		.ascii	"'.y\343m<E:3\033\206\2648\226!\3555W&\260\315(\241\005"
 276      6D3C453A 
 276      331B86B4 
 276      389621ED 
 276      355726B0 
 277 0408 F5D50F31 		.ascii	"\365\325\0171C\301\013w\231\2359\327\242\217hmt]\354"
 277      43C10B77 
 277      999D39D7 
 277      A28F686D 
 277      745DEC
 278 041b E0F9C2B1 		.ascii	"\340\371\302\261v/y\257\202.&E\265\207\366\252n\261"
 278      762F79AF 
 278      822E2645 
 278      B587F6AA 
 278      6EB1
 279 042d 57855FCE 		.ascii	"W\205_\316\275\304\333%A\217]\257\352\225\367\252\323"
 279      BDC4DB25 
 279      418F5DAF 
 279      EA95F7AA 
 279      D3
 280 043e B3455739 		.ascii	"\263EW9\234Ju\344Z.N9\366*\371R\324\017\361\352u\350"
 280      9C4A75E4 
 280      5A2E4E39 
 280      F62AF952 
 280      D40FF1EA 
 281 0454 55E5FDBF 		.ascii	"U\345\375\277O\271a\265\276\205\356\301\211>)\354\275"
 281      4FB961B5 
 281      BE85EEC1 
 281      893E29EC 
 281      BD
 282 0465 62B34A38 		.ascii	"b\263J8\320^\350\215\2571/|];\362\016\213\232\017`U"
ARM GAS  /tmp/ccmXZb2d.s 			page 22


 282      D05EE88D 
 282      AF312F7C 
 282      5D3BF20E 
 282      8B9A0F60 
 283 047a 5DA3751E 		.ascii	"]\243u\036,J\275$j\371\245Go{\340NFZ4\025y\302\033\367"
 283      2C4ABD24 
 283      6AF9A547 
 283      6F7BE04E 
 283      465A3415 
 284 0492 30448CE7 		.ascii	"0D\214\347\022!\236\371\003\351{\265\014\377\000\320"
 284      12219EF9 
 284      03E97BB5 
 284      0CFF00D0 
 285 04a2 9B2DDD79 		.ascii	"\233-\335y\030?`\264w+\366\234S\343'\014\251\256\254"
 285      183F60B4 
 285      772BF69C 
 285      53E3270C 
 285      A9AEAC
 286 04b5 6910D266 		.ascii	"i\020\322f\025\240\333\356g\364y\341Iv\256a_\344n\015"
 286      15A0DBEE 
 286      67F479E1 
 286      4976AE61 
 286      5FE46E0D 
 287 04c9 5E60B61F 		.ascii	"^`\266\037\033H\313p\267%sy\353\273\2649\214B\014\236"
 287      1B48CB70 
 287      B7257379 
 287      EBBBB439 
 287      8C420C9E 
 288 04dd 3A3607E5 		.ascii	":6\007\345d~\246\334\253\322\306\273\206\334\231\002"
 288      647EA6DC 
 288      ABD2C6BB 
 288      86DC9902 
 289 04ed BEA43F56 		.ascii	"\276\244?V\215\347\271\342\030\027\226\210\375\255M"
 289      8DE7B9E2 
 289      18179688 
 289      FDAD4D
 290 04fc 2E388121 		.ascii	".8\201!\331\365}+p\036\373]\225X3\242\306\205\014\271"
 290      D9F57D2B 
 290      701EFB5D 
 290      955833A2 
 290      C6850CB9 
 291 0510 B730FF07 		.ascii	"\2670\377\007\\\305~G\025G5x\341z\206\344\234\251~\354"
 291      5CC57E47 
 291      15473578 
 291      E17A86E4 
 291      9CA97EEC 
 292 0524 866F3044 		.ascii	"\206o0D\334\360\226\260\015/\377Q\317K\214\373\330\271"
 292      DCF096B0 
 292      0D2FFF51 
 292      CF4B8CFB 
 292      D8B9
 293 0536 BEBB8D65 		.ascii	"\276\273\215e^\270\237!\325Si\325\336\370\021C\256\366"
 293      5EB89F21 
 293      D55369D5 
 293      DEF81143 
 293      AEF6
 294 0548 2F8C69F0 		.ascii	"/\214i\360(C*S\347\353x<\315\220\355{J\222HE\271\262"
ARM GAS  /tmp/ccmXZb2d.s 			page 23


 294      28432A53 
 294      E7EB783C 
 294      CD90ED7B 
 294      4A924845 
 295 055e 5EE00687 		.ascii	"^\340\006\207\356?{q\222g\207\210\223\266\300\241\214"
 295      EE3F7B71 
 295      92678788 
 295      93B6C0A1 
 295      8C
 296 056f 94BBE55E 		.ascii	"\224\273\345^\370%]\302\235\231*mP\313\366\224\177\370"
 296      F8255DC2 
 296      9D992A6D 
 296      50CBF694 
 296      7FF8
 297 0581 9AB83092 		.ascii	"\232\2700\222\323\240\010\316\346BW\301\203\326\305"
 297      D3A008CE 
 297      E64257C1 
 297      83D6C5
 298 0590 1EDCC6F9 		.ascii	"\036\334\306\371\022\336\324\203\341\234\017\262r\324"
 298      12DED483 
 298      E19C0FB2 
 298      72D4
 299 059e 836333CF 		.ascii	"\203c3\317\216\363x\207+\225Q\033\375\270\326]\266\245"
 299      8EF37887 
 299      2B95511B 
 299      FDB8D65D 
 299      B6A5
 300 05b0 AC2C2232 		.ascii	"\254,\"2v\202\214\355\222\014\020\351T\310\016e!}\326"
 300      76828CED 
 300      920C10E9 
 300      54C80E65 
 300      217DD6
 301 05c3 D9142DDE 		.ascii	"\331\024-\336\313\204TGwu\361lKQ\340\020\255\300A\314"
 301      CB845447 
 301      7775F16C 
 301      4B51E010 
 301      ADC041CC 
 302 05d7 9AF768D6 		.ascii	"\232\367h\326D\201:\273$uvr\302\226\362\"\376\324\011"
 302      44813ABB 
 302      24757672 
 302      C296F222 
 302      FED409
 303 05ea 0F9C4085 		.ascii	"\017\234@\205\240\230\304\221\303^8\225!\263\017\023"
 303      A098C491 
 303      C35E3895 
 303      21B30F13 
 304 05fa 3A108B9E 		.ascii	":\020\213\236\026\320\210\352\216Xo\2410\350\316\375"
 304      16D088EA 
 304      8E586FA1 
 304      30E8CEFD 
 305 060a 62D73C8F 		.ascii	"b\327<\217\2170\332\333\273[;]q)S\365XTG\212\213SU\343"
 305      8F30DADB 
 305      BB5B3B5D 
 305      712953F5 
 305      5854478A 
 306 0622 9CA95A77 		.ascii	"\234\251Zw\032\275\201bA\315\375\012j6\\\313\036W\343"
 306      1ABD8162 
ARM GAS  /tmp/ccmXZb2d.s 			page 24


 306      41CDFD0A 
 306      6A365CCB 
 306      1E57E3
 307 0635 134CDAA9 		.ascii	"\023L\332\251\3308H\305j\206t'\307T{\340f\206\234\336"
 307      D83848C5 
 307      6A867427 
 307      C7547BE0 
 307      66869CDE 
 308 0649 37F6B53B 		.ascii	"7\366\265;\276\305\220\235\323\367\312\274q7C\304\346"
 308      BEC5909D 
 308      D3F7CABC 
 308      713743C4 
 308      E6
 309 065a BC8C35E7 		.ascii	"\274\2145\347G\333\352\372x\374\200\235+\335~\277@\015"
 309      47DBEAFA 
 309      78FC809D 
 309      2BDD7EBF 
 309      400D
 310 066c E77C20AF 		.ascii	"\347| \257\220l\203\361a\033\314\361\272\361\022\036"
 310      906C83F1 
 310      611BCCF1 
 310      BAF1121E 
 311 067c 3F62C65D 		.ascii	"?b\306]\257\350\270\340.K\250\037\320\204\312\004\265"
 311      AFE8B8E0 
 311      2E4BA81F 
 311      D084CA04 
 311      B5
 312 068d D325B57D 		.ascii	"\323%\265}l%i\277\235f\200\355>\202\355i`{*\013tAV\376"
 312      6C2569BF 
 312      9D6680ED 
 312      3E82ED69 
 312      607B2A0B 
 313 06a5 794F3CC1 		.ascii	"yO<\301\004\214$\014\357\302\262l\362\241\331t\020\004"
 313      048C240C 
 313      EFC2B26C 
 313      F2A1D974 
 313      1004
 314 06b7 64490232 		.ascii	"dI\00229'\022\262\225%D\304\267\026\273\343\227LBBI"
 314      392712B2 
 314      952544C4 
 314      B716BBE3 
 314      974C4242 
 315 06cc 49915413 		.ascii	"I\221T\023\345\361+i\202\344\202\204\034I\302Ag\022"
 315      E5F12B69 
 315      82E48284 
 315      1C49C241 
 315      6712
 316 06de 0E294B48 		.ascii	"\016)KHL\035x\023G\272\2614\332=_\212q4E\270\251\332"
 316      4C1D7813 
 316      47BAB134 
 316      DA3D5F8A 
 316      713445B8 
 317 06f4 43C76D0E 		.ascii	"C\307m\016\253;\0161\316\007I\207\277\201\244#\312\222"
 317      AB3B0E31 
 317      CE074987 
 317      BF81A423 
 317      CA92
ARM GAS  /tmp/ccmXZb2d.s 			page 25


 318 0706 BA329E8E 		.ascii	"\2722\236\216\3638\216\211\312=Wz\335\015'3Qs=#\225"
 318      F3388E89 
 318      CA3D577A 
 318      DD0D2733 
 318      51733D23 
 319 071b 5E365127 		.ascii	"^6Q'AT1\210*\374\006\242\212\224E=\211|\320+\354\350"
 319      41543188 
 319      2AFC06A2 
 319      8A94453D 
 319      897CD02B 
 320 0731 6F925A49 		.ascii	"o\222ZIH^\203\0172\301#y\315\307H\017\365\325\240?\312"
 320      485E830F 
 320      32C12379 
 320      CDC7480F 
 320      F5D5A03F 
 321 0746 52C697A5 		.ascii	"R\306\227\245Lz\354\275$w\234\317\324J,\230\316\341"
 321      4C7AECBD 
 321      24779CCF 
 321      D44A2C98 
 321      CEE1
 322 0758 C469307B 		.ascii	"\304i0{\233\365G\341\345 \362:\024D3)\210\012\220\355"
 322      9BF547E1 
 322      E520F23A 
 322      14443329 
 322      880A90ED 
 323 076c 2BC82E03 		.ascii	"+\310.\003\331\245\266\332\355j\370/6\002\037\0033\312"
 323      D9A5B6DA 
 323      ED6AF82F 
 323      36021F03 
 323      33CA
 324 077e 25337C85 		.ascii	"%3|\205\242\330\031\231\277\317\003W0)\231\261\223\325"
 324      A2D81999 
 324      BFCF0357 
 324      302999B1 
 324      93D5
 325 0790 1AE7524E 		.ascii	"\032\347RN:\225\222\266\367\357\351\014|\002\204\034"
 325      3A9592B6 
 325      F7EFE90C 
 325      7C02841C 
 326 07a0 97841C13 		.ascii	"\227\204\034\023K\257\273\264\363<\217k\230\224\372"
 326      4BAFBBB4 
 326      F33C8F6B 
 326      9894FA
 327 07af 931DA3AE 		.ascii	"\223\035\243\256\316\245\234r*%k> \343&\331\223\277"
 327      CEA59C72 
 327      2A256B3E 
 327      20E326D9 
 327      93BF
 328 07c1 06319592 		.ascii	"\0061\225\222\230\023\242\230\303\327\037\307\331_\316"
 328      9813A298 
 328      C3D71FC7 
 328      D95FCE
 329 07d0 104A6944 		.ascii	"\020JiD\250\342\30491\342\336\3116\204GY\034\316^\335"
 329      A8E2C439 
 329      31E2DEC9 
 329      36844759 
 329      1CCE5EDD 
ARM GAS  /tmp/ccmXZb2d.s 			page 26


 330 07e4 56E08127 		.ascii	"V\340\201'\031ro\356\340}7\374\222!\323\311\027s=q\204"
 330      19726FEE 
 330      E07D37FC 
 330      9221D3C9 
 330      17733D71 
 331 07f9 9A2271C5 		.ascii	"\232\"q\305-\267]\361\016\206t\037\235\257q\305Q\014"
 331      2DB75DF1 
 331      0E86741F 
 331      9DAF71C5 
 331      510C
 332 080b C9BA3B5A 		.ascii	"\311\272;Z\342\206wS\204\033\214=\\\241q\0307d\327`"
 332      E2867753 
 332      841B8C3D 
 332      5CA17118 
 332      3764D760 
 333 081f E81CD8F7 		.ascii	"\350\034\330\367\251\335\260Q\227\326\350m\205\001\272"
 333      A9DDB051 
 333      97D6E86D 
 333      8501BA
 334 082e 9ED3A2B3 		.ascii	"\236\323\242\263\222Y\237\012\223FoDC\253\032'2Q\243"
 334      92599F0A 
 334      93466F44 
 334      43AB1A27 
 334      3251A3
 335 0841 4F6EBEF4 		.ascii	"On\276\364\304)\014\261\316\234\276\343\2123\030\322"
 335      C4290CB1 
 335      CE9CBEE3 
 335      8A3318D2 
 336 0851 9938DDEB 		.ascii	"\2318\335\353\216\263\031\322t+\346\014\217\0171\344"
 336      8EB319D2 
 336      742BE60C 
 336      8F0F31E4 
 337 0861 C8E55EAB 		.ascii	"\310\345^\253\013>\314\220\232\350\313/\325\270\200"
 337      0B3ECC90 
 337      9AE8CB2F 
 337      D5B880
 338 0870 21A9553B 		.ascii	"!\251U;#4\270\230!E\013\343\373\264\270\224!\3235\327"
 338      2334B898 
 338      21450BE3 
 338      FBB4B894 
 338      21D335D7 
 339 0884 733896B6 		.ascii	"s8\226\266\313\311\000X\027\323\204Y\353\313\346\346"
 339      CBC90058 
 339      17D38459 
 339      EBCBE6E6 
 340 0894 388FDDAD 		.ascii	"8\217\335\255m\231\034ZN?K}\341O\016\261\266w\352\220"
 340      6D991C5A 
 340      4E3F4B7D 
 340      E14F0EB1 
 340      B677EA90 
 341 08a8 BEFBC67D 		.ascii	"\276\373\306}\2535NK\215\251\003cnqK%\333_\3200\254"
 341      AB354E4B 
 341      8DA90363 
 341      6E714B25 
 341      DB5FD030 
 342 08bd 26371EE8 		.ascii	"&7\036\350\202\272\323\267\265\326\375zJ\334\344H\334"
 342      82BAD3B7 
ARM GAS  /tmp/ccmXZb2d.s 			page 27


 342      B5D6FD7A 
 342      4ADCE448 
 342      DC
 343 08ce 4C898B91 		.ascii	"L\211\213\221D}S\242\276\340H]\3029\260n\223\210\317"
 343      447D53A2 
 343      BEE0485D 
 343      C239B06E 
 343      9388CF
 344 08e1 2B13CB59 		.ascii	"+\023\313YWI\324\227\034\251\375\034\211oH\304\015\216"
 344      5749D497 
 344      1CA9FD1C 
 344      896F48C4 
 344      0D8E
 345 08f3 C4D7645A 		.ascii	"\304\327dZ\307\012\327NVd\001s \227\257\202\\tEX\002"
 345      C70AD74E 
 345      56640173 
 345      2097AF82 
 345      5C744558 
 346 0908 61466D90 		.ascii	"aFm\220\014\267\271\345\250\025\240\003\240\005\240"
 346      0CB7B9E5 
 346      A815A003 
 346      A005A0
 347 0917 1DE026C0 		.ascii	"\035\340&\300u\200\033\000\327\270\345\364z\213\345"
 347      75801B00 
 347      D7B8E5F4 
 347      7A8BE5
 348 0926 CAF8012D 		.ascii	"\312\370\001-\311\025`\240\022\022Ee\323\353\324\355"
 348      C91560A0 
 348      12124565 
 348      D3EBD4ED 
 349 0936 6529D6BA 		.ascii	"e)\326\272HL5\273\254h\206\314A-\222\025\215\312V\310"
 349      484C35BB 
 349      AC6886CC 
 349      412D9215 
 349      8DCA56C8 
 350 094a 886B24E2 		.ascii	"\210k$\342\213\312\201\242\304\344\366\316tj\274\273"
 350      8BCA81A2 
 350      C4E4F6CE 
 350      746ABCBB 
 351 095a 5D11CA89 		.ascii	"]\021\312\211U\350\216\255\010\273kr\246<\361\020M8"
 351      55E88EAD 
 351      08BB6B72 
 351      A63CF110 
 351      4D38
 352 096c 9C52DC33 		.ascii	"\234R\3343\351\216\226\373.e\231\2245\377\353\202n\226"
 352      E98E96FB 
 352      2E659994 
 352      35FFEB82 
 352      6E96
 353 097e 49B0009D 		.ascii	"I\260\000\235\001\231\335\312\3060\267TDS\267t\333\273"
 353      0199DDCA 
 353      C630B754 
 353      4453B774 
 353      DBBB
 354 0990 2556181F 		.ascii	"%V\030\037h\000lk;\005f$\000]\020\200\273\202\203I\015"
 354      68006C6B 
 354      3B056624 
ARM GAS  /tmp/ccmXZb2d.s 			page 28


 354      005D1080 
 354      BB828349 
 355 09a5 440C8E60 		.ascii	"D\014\216`<\311j`x\240\250\215\303\263\014I\357\251"
 355      3CC96A60 
 355      78A0A88D 
 355      C3B30C49 
 355      EFA9
 356 09b7 EF1606DE 		.ascii	"\357\026\006\336\363\004?\331\223\020\245\025*\202\334"
 356      F3043FD9 
 356      9310A515 
 356      2A82DC
 357 09c6 99199C9C 		.ascii	"\231\031\234\234ls\305\333\335)q\305B\301\016\214c\030"
 357      6C73C5DB 
 357      DD2971C5 
 357      42C10E8C 
 357      6318
 358 09d8 F232EF5A 		.ascii	"\3622\357Z\273\032'0\344\354\\G\272\006gP\344\357^\014"
 358      BB1A2730 
 358      E4EC5C47 
 358      BA066750 
 358      E4EF5E0C 
 359 09ec 453EF544 		.ascii	"E>\365D\313\227B\375h\227\012\377\311?__\362\005\177"
 359      CB9742FD 
 359      68970AFF 
 359      C93F5F5F 
 359      F2057F
 360 09ff 97B133CB 		.ascii	"\227\2613\313\241\302\264ZRf\276\313m\0378\355\353\313"
 360      A1C2B45A 
 360      5266BECB 
 360      6D1F38ED 
 360      EBCB
 361 0a11 9C9556A4 		.ascii	"\234\225V\244\2774\306\234E&\373'0\331?\224;k\304YN"
 361      BF34C69C 
 361      4526FB27 
 361      30D93F94 
 361      3B6BC459 
 362 0a26 DE839CEC 		.ascii	"\336\203\234\354#9\331\313\261%\304%\231\330\027e\340"
 362      2339D9CB 
 362      B125C425 
 362      99D81765 
 362      E0
 363 0a37 E5281D20 		.ascii	"\345(\035 \015 \025 \005 \031 \011\340\000@\"@\002@"
 363      0D201520 
 363      05201920 
 363      09E00040 
 363      22400240 
 364 0a4b 38C02CE4 		.ascii	"8\300,\344\350\004\300 \3000\300#\200!\301\245,y2\342"
 364      E804C020 
 364      C030C023 
 364      8021C1A5 
 364      2C7932E2 
 365 0a5f BFCFF212 		.ascii	"\277\317\362\022\372^?\347\240\334\220c\252-\334\360"
 365      FA5E3FE7 
 365      A0DC9063 
 365      AA2DDCF0 
 366 0a6f 61D4E406 		.ascii	"a\324\344\006\305\260\243-\217\026u\205\2518\201\373"
 366      C5B0A32D 
ARM GAS  /tmp/ccmXZb2d.s 			page 29


 366      8F167585 
 366      A93881FB 
 367 0a7f 634894C7 		.ascii	"cH\224\307\312\364\224\275<'G\354r\3621\313I;\337\264"
 367      CAF494BD 
 367      3C2747EC 
 367      72F231CB 
 367      493BDFB4 
 368 0a93 C0595206 		.ascii	"\300YR\006\350\001h<\"\370\346 \370&\033l\036\005\033"
 368      E801683C 
 368      22F8E620 
 368      F8261B6C 
 368      1E051B
 369 0aa6 9FC86DEC 		.ascii	"\237\310m\354M?\372e\3226k\323*\364\024\264\270\205"
 369      4D3FFA65 
 369      D2366BD3 
 369      2AF414B4 
 369      B885
 370 0ab8 B09D04BB 		.ascii	"\260\235\004\273^&W\343\231\235\032O_\245F\016\210~"
 370      5E2657E3 
 370      999D1A4F 
 370      5FA5460E 
 370      887E
 371 0aca AD1A75D3 		.ascii	"\255\032u\323Fk\224+\032\003\035\036*\353\260\310\023"
 371      466B942B 
 371      1A031D1E 
 371      2AEBB0C8 
 371      13
 372 0adb E3762A90 		.ascii	"\343v*\220\225\254~\224\023%\013$\377?%\012\231#\212"
 372      95AC7E94 
 372      13250B24 
 372      FF3F250A 
 372      99238A
 373 0aee BEBC3816 		.ascii	"\276\2748\026I\023\3719\010\031\027\202i\233\015\306"
 373      4913F939 
 373      08191782 
 373      699B0DC6 
 374 0afe 9C25B28D 		.ascii	"\234%\262\215\342\005\324\363\224\240\337\014\374\236"
 374      E205D4F3 
 374      94A0DF0C 
 374      FC9E
 375 0b0c 06199376 		.ascii	"\006\031\223v\036J\213\026\322\205\230\372\034$L9\351"
 375      1E4A8B16 
 375      D28598FA 
 375      1C244C39 
 375      E9
 376 0b1d F54C409D 		.ascii	"\365L@\235\203\200\011a\205s\001\311\227h\253\034\023"
 376      83800961 
 376      857301C9 
 376      9768AB1C 
 376      13
 377 0b2e F260317B 		.ascii	"\362`1{Y\333Jbmk\312\276m\261q'\243409.\034\306\035"
 377      59DB4A62 
 377      6D6BCABE 
 377      6DB17127 
 377      A3343039 
 378 0b46 E28A49E9 		.ascii	"\342\212I\351j\235\020K\016\373\360\242P\371/\201j\312"
 378      6A9D104B 
ARM GAS  /tmp/ccmXZb2d.s 			page 30


 378      0EFBF0A2 
 378      50F92F81 
 378      6ACA
 379 0b58 31FBC7A4 		.ascii	"1\373\307\244\230+\367B+\304p^0g\001\314\231\2633ev"
 379      982BF742 
 379      2BC4705E 
 379      306701CC 
 379      99B33365 
 380 0b6d A7CC57C4 		.ascii	"\247\314W\304\230yec\224yO\013\013\034y3\323gvR\323"
 380      98796563 
 380      94794F0B 
 380      0B1C7933 
 380      D3677652 
 381 0b82 E7954DFF 		.ascii	"\347\225M\377rg\024\231Z\211Q3\222\351\363v\246\177"
 381      72671499 
 381      5A895133 
 381      92E9F376 
 381      A67F
 382 0b94 D624981E 		.ascii	"\326$\230\036\201\227\241YG\323_\310r%NI?\025]G\224"
 382      8197A159 
 382      47D35FC8 
 382      72254E49 
 382      3F155D47 
 383 0ba9 8B0727C4 		.ascii	"\213\007'\304A\202\306\002\354\007\330\015\020\003\260"
 383      4182C602 
 383      EC07D80D 
 383      1003B0
 384 0bb8 1D201260 		.ascii	"\035 \022`\033\226;%\356\006\215/\351\264/A(a\342t\217"
 384      1B963B25 
 384      EE068D2F 
 384      E9B42F41 
 384      2861E274 
 385 0bcd 1DDF27EB 		.ascii	"\035\337'\353Ms\257\243n\271F9\357\300Z4\357\234V^\274"
 385      4D73AFA3 
 385      6EB94639 
 385      EFC05A34 
 385      EF9C565E 
 386 0be2 3BB1BC78 		.ascii	";\261\274xa\341\242\376\261\027*w\017\251\334\335\320"
 386      61E1A2FE 
 386      B1172A77 
 386      0FA9DCDD 
 386      D0
 387 0bf3 C6083931 		.ascii	"\306\010918\032\014\216\002\303vay\365U\036\333z\340"
 387      381A0C8E 
 387      02C37661 
 387      79F5551E 
 387      DB7AE0
 388 0c06 C80EA201 		.ascii	"\310\016\242\001\271\322_@\330\216\275\274\177P\372"
 388      B9D25F40 
 388      D88EBDBC 
 388      7F50FA
 389 0c15 BA3B2EA4 		.ascii	"\272;.\244\327\220\354\214\021x\333\252\3041\317;\016"
 389      D790EC8C 
 389      1178DBAA 
 389      C431CF3B 
 389      0E
 390 0c26 22126CA0 		.ascii	"\"\022l\240q\230Zh \267\326\010\201$\227\356\373\270"
ARM GAS  /tmp/ccmXZb2d.s 			page 31


 390      71985A68 
 390      20B7D608 
 390      812497EE 
 390      FBB8
 391 0c38 D7782951 		.ascii	"\327x)Q\364\351\036\360S\274sj\271\237\366b\371\235"
 391      F4E91EF0 
 391      53BC736A 
 391      B99FF662 
 391      F99D
 392 0c4a C53DCC4F 		.ascii	"\305=\314O\316\272 \332\007\356\221\032\241\230\222"
 392      CEBA20DA 
 392      07EE911A 
 392      A19892
 393 0c59 EB1AE97D 		.ascii	"\353\032\351}`\302*A\232\322\307h\317\026\367\341\317"
 393      60C22A41 
 393      9AD2C768 
 393      CF16F7E1 
 393      CF
 394 0c6a AA279825 		.ascii	"\252'\230%\260\323%\276\322\020\342\224fa\243#f\037"
 394      B0D325BE 
 394      D210E294 
 394      6661A323 
 394      661F
 395 0c7c 781D7555 		.ascii	"x\035uU3M\016B\233\344\234\226\271;\243\231\272\033"
 395      334D0E42 
 395      9BE49C96 
 395      B93BA399 
 395      BA1B
 396 0c8e 68160F89 		.ascii	"h\026\017\211\267.\373$Y\353\3021\275ZO\021vc\341\032"
 396      B72EFB24 
 396      59EBC231 
 396      BD5A4F11 
 396      7663E11A 
 397 0ca2 96D54C32 		.ascii	"\226\325L2'\233\213/{X\313~O\257\267\363\224h\327H\244"
 397      279B8B2F 
 397      7B58CB7E 
 397      4FAFB7F3 
 397      9468D748 
 398 0cb7 C71829B9 		.ascii	"\307\030)\271^.P\"\225\2050%F\010!\\\221\241\243\216"
 398      5E2E5022 
 398      95853025 
 398      4608215C 
 398      91A1A38E 
 399 0ccb 13C1E2E9 		.ascii	"\023\301\342\351|\222\265TrO\277Z\231Z\306\274]\352"
 399      7C92B554 
 399      724FBF5A 
 399      995AC6BC 
 399      5DEA
 400 0cdd BF358EC4 		.ascii	"\2775\216\304\362\351\\\270L\220\250k\225\251e1h\275"
 400      F2E95CB8 
 400      4C90A86B 
 400      95A96531 
 400      68BD
 401 0cef 24448C8C 		.ascii	"$D\214\214\217\247\035\311\027_\260\2640\346d\220\351"
 401      8FA71DC9 
 401      175FB0B4 
 401      30E66490 
ARM GAS  /tmp/ccmXZb2d.s 			page 32


 401      E9
 402 0d00 51A69631 		.ascii	"Q\246\2261?\375\317\204V,'\273}\3171\276\265l\333x\250"
 402      3FFDCF84 
 402      562C27BB 
 402      7DCF31BE 
 402      B56CDB78 
 403 0d15 DC3BF587 		.ascii	"\334;\365\207\351\025?I\351\373R\242>\224\365\316\214"
 403      E9153F49 
 403      E9FB52A2 
 403      3E94F5CE 
 403      8C
 404 0d26 A39F241D 		.ascii	"\243\237$\035\261\312\305\215\274J\334\270\236H\033"
 404      B1CAC58D 
 404      BC4ADCB8 
 404      9E481B
 405 0d35 519056D7 		.ascii	"Q\220V\327\361\200f\032\231c\006$Y#T\026\214\273-\205"
 405      F180661A 
 405      99630624 
 405      59235416 
 405      8CBB2D85 
 406 0d49 39695A5C 		.ascii	"9iZ\\D\357h|\373Et\337qD\306]\3552\230l}\227.g\363."
 406      44EF687C 
 406      FB4574DF 
 406      7144C65D 
 406      ED32986C 
 407 0d63 8CB1BEE2 		.ascii	"\214\261\276\342$;V\021\230z\314J\332\012yLp\023ZP\036"
 407      243B5611 
 407      987ACC4A 
 407      DA0A794C 
 407      70135A50 
 408 0d78 FE137667 		.ascii	"\376\023vg\025%'\035\256\012J\3700t\270\\\273\326\335"
 408      1525271D 
 408      AE0A4AF8 
 408      3074B85C 
 408      BBD6DD
 409 0d8b B143C8BB 		.ascii	"\261C\310\273#\230\355g\213\271/j\035\371\262BS\221"
 409      2398ED67 
 409      8BB92F6A 
 409      1DF9B242 
 409      5391
 410 0d9d 852ADB86 		.ascii	"\205*\333\206\3428|\234\002\241\205\302\236R\014\277"
 410      E2387C9C 
 410      02A185C2 
 410      9E520CBF 
 411 0dad 8B408102 		.ascii	"\213@\201\002y\213\255{\336\300\205S\005J@\360mP\200"
 411      798BAD7B 
 411      DEC08553 
 411      054A40F0 
 411      6D5080
 412 0dc0 902BF83D 		.ascii	"\220+\370=Nq\366h\023\0268\347\177\367\027$\250\304"
 412      4E71F668 
 412      131638E7 
 412      7FF71724 
 412      A8C4
 413 0dd2 AA56E7CC 		.ascii	"\252V\347\314Y\344n5`\022\271B\373\036\341\304\255%"
 413      59E46E35 
 413      6012B942 
ARM GAS  /tmp/ccmXZb2d.s 			page 33


 413      FB1EE1C4 
 413      AD25
 414 0de4 825BBF06 		.ascii	"\202[\277\006\251\245 \365\250\235[\307\033\204\262"
 414      A9A520F5 
 414      A89D5BC7 
 414      1B84B2
 415 0df3 20416B47 		.ascii	" AkG\314:\347\227\317\243b\024\312 \012\035\212\344"
 415      CC3AE797 
 415      CFA36214 
 415      CA200A1D 
 415      8AE4
 416 0e05 8BA2506E 		.ascii	"\213\242Pn\267\321\225)lt\003p\366\001aP\011:V\010\372"
 416      B7D19529 
 416      6C740370 
 416      F6016150 
 416      093A5608 
 417 0e1a 9E84DF27 		.ascii	"\236\204\337'@\337\343\000\307\354<\225\326\350\303"
 417      40DFE300 
 417      C7EC3C95 
 417      D6E8C3
 418 0e29 22415277 		.ascii	"\"ARw\020\224 Kl\303\266\274\224\225\245\334\027\226"
 418      1094204B 
 418      6CC3B6BC 
 418      9495A5DC 
 418      1796
 419 0e3b BC5ACA81 		.ascii	"\274Z\312\201_\222x\220\024\272!\320\333\307C\356\226"
 419      5F927890 
 419      14BA21D0 
 419      DBC743EE 
 419      96
 420 0e4c B846DA2C 		.ascii	"\270F\332,\310\003\247N\201\330i\203\217e\303S\005V"
 420      C803A74E 
 420      81D86983 
 420      8F65C353 
 420      0556
 421 0e5e 28C9F21D 		.ascii	"(\311\362\035? \347\210\307\016a[I\022R\221\242\247"
 421      3F20E788 
 421      C70E615B 
 421      49125291 
 421      A2A7
 422 0e70 81166D89 		.ascii	"\201\026m\211\322\352\352\206\357\223sD\345;\322\340"
 422      D2EAEA86 
 422      EF937344 
 422      E53BD2E0 
 423 0e80 45B244A4 		.ascii	"E\262D\244\270\315V\347\331\257\206b/)\036)a\317\370"
 423      B8CD56E7 
 423      D9AF8662 
 423      2F291E29 
 423      61CFF8
 424 0e93 4860AFB2 		.ascii	"H`\257\262g|\351ssm\356\362g|\244\323J\221\254\301\344"
 424      677CE973 
 424      736DEEF2 
 424      677CA4D3 
 424      4A91ACC1 
 425 0ea8 215F3516 		.ascii	"!_5\026\036\362\335\274Y9\340\362\243lkv\231\2657\276"
 425      1EF2DDBC 
 425      5939E0F2 
ARM GAS  /tmp/ccmXZb2d.s 			page 34


 425      A36C6B76 
 425      99B537BE 
 426 0ebc F293D493 		.ascii	"\362\223\324\223\260\233.\341\011\025\312\227\264\311"
 426      B09B2EE1 
 426      0915CA97 
 426      B4C9
 427 0eca A70FA1D1 		.ascii	"\247\017\241\321\021\360\223\012\325\342\037\301\302"
 427      11F0930A 
 427      D5E21FC1 
 427      C2
 428 0ed7 0B037995 		.ascii	"\013\003y\225\2568\334\203^d+\274\026a\377n\301\031"
 428      AE38DC83 
 428      5E642BBC 
 428      1661FF6E 
 428      C119
 429 0ee9 CC2F7E16 		.ascii	"\314/~\026^\307\016\332?B>\313\016\356\237\235\353u"
 429      5EC70EDA 
 429      3F423ECB 
 429      0EEE9F9D 
 429      EB75
 430 0efb C3698CFD 		.ascii	"\303i\214\375pjF2\217\0172$9\256\370\024\302%\024\341"
 430      706A4632 
 430      8F0F3224 
 430      39AEF814 
 430      C22514E1 
 431 0f0f 07EE0C0D 		.ascii	"\007\356\014\015\360\320\341\264B;\033\257^w\204MTM"
 431      F0D0E1B4 
 431      423B1BAF 
 431      5E77844D 
 431      544D
 432 0f21 42C36954 		.ascii	"B\303iT\216\252\362\000}\001\263\005$\307.B\2165\010"
 432      8EAAF200 
 432      7D01B305 
 432      24C72E42 
 432      8E3508
 433 0f34 B9252F8C 		.ascii	"\271%/\214F\273\302hb\205\301\0025J\333v\343\2428I\356"
 433      46BBC268 
 433      6285C102 
 433      354ADB76 
 433      E3A23849 
 434 0f49 F9587C64 		.ascii	"\371X|d{1#\266\300\315\366x\366\0223:1=o\211\323\247"
 434      7B3123B6 
 434      C0CDF678 
 434      F612333A 
 434      313D6F89 
 435 0f5f B35768E0 		.ascii	"\263Wh\340.\213\201\313\030\275\275Ckw\327\007\010d"
 435      2E8B81CB 
 435      18BDBD43 
 435      6B77D707 
 435      0864
 436 0f71 E457B1EC 		.ascii	"\344W\261\354\351lE\367\336s\236\270\217\372\214\213"
 436      E96C45F7 
 436      DE739EB8 
 436      8FFA8C8B 
 437 0f81 1D4A0AF7 		.ascii	"\035J\012\367F\276Z\361\271\353\226d\372\334\265\005"
 437      46BE5AF1 
 437      B9EB9664 
ARM GAS  /tmp/ccmXZb2d.s 			page 35


 437      FADCB505 
 438 0f91 16344BE9 		.ascii	"\0264K\351{\225\032\346\214?\272\006\336\221\213"
 438      7B951AE6 
 438      8C3FBA06 
 438      DE918B
 439 0fa0 706DDD79 		.ascii	"pm\335yn^KoP\212w\224\306\253\365\311\302\230\011f\237"
 439      6E5E4B6F 
 439      508A7794 
 439      C6ABF5C9 
 439      C2980966 
 440 0fb5 03D66DCE 		.ascii	"\003\326m\316\247[(\307x\261K\211\241kS\016\2350\224"
 440      A75B28C7 
 440      78B14B89 
 440      A16B530E 
 440      9D3094
 441 0fc8 CA5BE079 		.ascii	"\312[\340yG\346\213j=\265\201\326:1\262\323\221\265"
 441      47E68B6A 
 441      3DB581D6 
 441      3A31B2D3 
 441      91B5
 442 0fda BCF708D5 		.ascii	"\274\367\010\325\336@\253\275\015+\334\334r\270M\240"
 442      DE40ABBD 
 442      0D2BDCDC 
 442      72B84DA0 
 443 0fea A2BC48C2 		.ascii	"\242\274H\302\334\002\227\334\200\206\324\012p\035\340"
 443      DC0297DC 
 443      8086D40A 
 443      701DE0
 444 0ff9 26B6DDE5 		.ascii	"&\266\335\345\272q\340"
 444      BA71E0
 445 1000 42911B7E 		.ascii	"B\221\033~\302\374\377hr\260W\213\226\372*\337u\350"
 445      C2FCFF68 
 445      72B0578B 
 445      96FA2ADF 
 445      75E8
 446 1012 002EAFE3 		.ascii	"\000.\257\343\310\224\314bm\241\235llR\334\332\2600"
 446      C894CC62 
 446      6DA19D6C 
 446      6C52DCDA 
 446      B030
 447 1024 098CEFCC 		.ascii	"\011\214\357\314\372\013\273\374h\267K\334;X\274+\230"
 447      FA0BBBFC 
 447      68B74BDC 
 447      3B58BC2B 
 447      98
 448 1035 11D37CDA 		.ascii	"\021\323|\332\213\246\"\034C\365BQ\356\177\321\347\342"
 448      8BA6221C 
 448      43F54251 
 448      EE7FD1E7 
 448      E2
 449 1046 BC8BDCA5 		.ascii	"\274\213\334\245\311\330)&cM\314\2214\017[\027YW(t\021"
 449      C9D82926 
 449      634DCC91 
 449      340F5B17 
 449      59572874 
 450 105b A042A725 		.ascii	"\240B\247%\325\340\247\324E\272h\027\211)-\036\320\340"
 450      D5E0A7D4 
ARM GAS  /tmp/ccmXZb2d.s 			page 36


 450      45BA6817 
 450      89292D1E 
 450      D0E0
 451 106d 97ACB293 		.ascii	"\227\254\262\223\372\236\016\273RE\310\314\315\352\244"
 451      FA9E0EBB 
 451      5245C8CC 
 451      CDEAA4
 452 107c A72A27C2 		.ascii	"\247*'\302\205\036#\012\3640\345\316\327>\350\367v\372"
 452      851E230A 
 452      F430E5CE 
 452      D73EE8F7 
 452      76FA
 453 108e CA551FD5 		.ascii	"\312U\037\325\255W\324\255c\372`,\017\272\365\322+\237"
 453      AD57D4AD 
 453      63FA602C 
 453      0FBAF5D2 
 453      2B9F
 454 10a0 C01765F7 		.ascii	"\300\027e\367\255\273\226P*\324-\351\326\215\331k6\350"
 454      ADBB9650 
 454      2AD42DE9 
 454      D68DD96B 
 454      36E8
 455 10b2 1ED52BAE 		.ascii	"\036\325+\256\260\255\231\307QZ\252W\343dI\2267\316"
 455      B0AD99C7 
 455      515AAA57 
 455      E3644996 
 455      37CE
 456 10c4 62C860DA 		.ascii	"b\310`\332\236l\015\316cH\321lj\277\026\0272\244\254"
 456      9E6C0DCE 
 456      6348D16C 
 456      6ABF1617 
 456      32A4AC
 457 10d7 26724478 		.ascii	"&rDxU\254\216<\221\034\266\306\324\"\\FO\252GN\264\226"
 457      55AC8E3C 
 457      911CB6C6 
 457      D4225C46 
 457      4FAA474E 
 458 10ed 60B494DD 		.ascii	"`\264\224\335H\\n\027\372A\354#\314\324CB\334\237B\334"
 458      485C6E17 
 458      FA41EC23 
 458      CCD44342 
 458      DC9F42DC 
 459 1101 1F41BC9F 		.ascii	"\037A\274\237\000<\006x\0060\0140\"\037\002z\263\236"
 459      003C0678 
 459      06300C30 
 459      221F027A 
 459      B39E
 460 1113 9BE3E80D 		.ascii	"\233\343\350\0150qJ\037zU\275T7|\213\325\013i\307\367"
 460      30714A1F 
 460      7A55BD54 
 460      377C8BD5 
 460      0B69C7F7 
 461 1127 B103F5A2 		.ascii	"\261\003\365\242\333\317i;\276-]0<p$_T\2737XyA\303z"
 461      DBCF693B 
 461      BE2D5D30 
 461      3C70245F 
 461      54BB3758 
ARM GAS  /tmp/ccmXZb2d.s 			page 37


 462 113f A8CCDA6E 		.ascii	"\250\314\332n\337e\304\204\363\200#\265\237c)\216\033"
 462      DF65C484 
 462      F38023B5 
 462      9F63298E 
 462      1B
 463 1150 49920F2D 		.ascii	"I\222\017-\272\216\005>\025\242I\342\270\257\240#c\005"
 463      BA8E053E 
 463      15A249E2 
 463      B8AFA023 
 463      6305
 464 1162 D1A8EF19 		.ascii	"\321\250\357\031\250\302\3708\215\006\327\231S5\354"
 464      A8C2F838 
 464      8D06D799 
 464      5335EC
 465 1171 E9588262 		.ascii	"\351X\202b\034\3208\270\377\233\206B\034\355h)\216\301"
 465      1CD038B8 
 465      FF9B8642 
 465      1CED6829 
 465      8EC1
 466 1183 A25129A7 		.ascii	"\242Q)\247\206\304R\274Q\037\177\337m\251 \254\316\251"
 466      86C452BC 
 466      511F7FDF 
 466      6DA920AC 
 466      CEA9
 467 1195 30D52B25 		.ascii	"0\325+%\001\237\370g\247\3135v5=aW\323\317m5\275P\022"
 467      019FF867 
 467      A7CB3576 
 467      353D6157 
 467      D3CF6D35 
 468 11ac D7CA761C 		.ascii	"\327\312v\0348&\224\322\235\013\027\377\306yEO\321\252"
 468      382694D2 
 468      9D0B17FF 
 468      C679454F 
 468      D1AA
 469 11be 9914ABA6 		.ascii	"\231\024\253\246\261\263e\227\007\253\232\272\244k^"
 469      B1B36597 
 469      07AB9ABA 
 469      A46B5E
 470 11cd 29D67A9E 		.ascii	")\326z\236\220\240~\311\274~\261d\246i\311,\034\352"
 470      90A07EC9 
 470      BC7EB164 
 470      A669C92C 
 470      1CEA
 471 11df AEF5C44D 		.ascii	"\256\365\304MZ\364\215v\274\027\254\222\313\367f7\253"
 471      5AF48D76 
 471      BC17AC92 
 471      CBF76637 
 471      AB
 472 11f0 6D13CCAC 		.ascii	"m\023\314\254P\336\271\273\006\261\323}p\216*\372RT"
 472      50DEB9BB 
 472      06B1D37D 
 472      708E2AFA 
 472      5254
 473 1202 74B63AA2 		.ascii	"t\266:\242Y+\224\367x\305\326\254c\254\274\201\012\315"
 473      592B94F7 
 473      78C5D6AC 
 473      63ACBC81 
ARM GAS  /tmp/ccmXZb2d.s 			page 38


 473      0ACD
 474 1214 48BACE88 		.ascii	"H\272\316\210\272\316S]\317>\217\332\243\301\235L\327"
 474      BACE535D 
 474      CF3E8FDA 
 474      A3C19D4C 
 474      D7
 475 1225 E7D11377 		.ascii	"\347\321\023w\334m\375\217)\333Tt<W\343T\205p\236\250"
 475      DC6DFD8F 
 475      29DB5474 
 475      3C57E354 
 475      85709EA8 
 476 1239 60E5C519 		.ascii	"`\345\305\031*u\357\214FPa\254\372\223\242c\326HwB\203"
 476      2A75EF8C 
 476      465061AC 
 476      FA93A263 
 476      D6487742 
 477 124e 16240516 		.ascii	"\026$\005\026D\005\"x\242\300\236G\331\211\336v\221"
 477      44052278 
 477      A2C09E47 
 477      D989DE76 
 477      91
 478 125f 9CB3DBBD 		.ascii	"\234\263\333\275\267\3614\222\344\233\214M\031m\231"
 478      B7F13492 
 478      E49B8C4D 
 478      196D99
 479 126e 1E1AD9AB 		.ascii	"\036\032\331\253\031\344\241\210D\034\311\223\327\367"
 479      19E4A188 
 479      441CC993 
 479      D7F7
 480 127c FCE8A53F 		.ascii	"\374\350\245?\231\314\026\246\352\274\331\203\023\016"
 480      99CC16A6 
 480      EABCD983 
 480      130E
 481 128a D0F6A99E 		.ascii	"\320\366\251\236)\317%\373\205\313\214\177D\364\255"
 481      29CF25FB 
 481      85CB8C7F 
 481      44F4AD
 482 1299 C264CE07 		.ascii	"\302d\316\007m\347\351-,~\211\310\202\"\344\375\234"
 482      6DE7E92D 
 482      2C7E89C8 
 482      8222E4FD 
 482      9C
 483 12aa D9922AE1 		.ascii	"\331\222*\341\025 W@\237\366O\335S;\227\276K\224\276"
 483      15205740 
 483      9FF64FDD 
 483      533B97BE 
 483      4B94BE
 484 12bd 93A7E227 		.ascii	"\223\247\342'\242\267O\011/\320\222\227}\3047\254\226"
 484      A2B74F09 
 484      2FD09297 
 484      7DC437AC 
 484      96
 485 12ce B137AC76 		.ascii	"\2617\254vd\037x\352!hc\025\265\211\346}P\024\325&\206"
 485      641F78EA 
 485      21686315 
 485      B589E67D 
 485      5014D526 
ARM GAS  /tmp/ccmXZb2d.s 			page 39


 486 12e3 6AB38B69 		.ascii	"j\263\213i\023C\265\031\336uh\324\3765\264);W\355\026"
 486      1343B519 
 486      DE7568D4 
 486      FE35B429 
 486      3B57ED16 
 487 12f7 5CB59BBA 		.ascii	"\\\265\233\272*s\270 \325\325\216z\314\256D\366\010"
 487      2A73B820 
 487      D5D58E7A 
 487      CCAE44F6 
 487      08
 488 1308 D47B2875 		.ascii	"\324{(uM_\332\220=\357>;\336{\005\352\275\224z\367\366"
 488      4D5FDA90 
 488      3DEF3E3B 
 488      DE7B05EA 
 488      BD947AF7 
 489 131d C270373C 		.ascii	"\302p7<\310\262f\356bZ\252\363\327~\367\323\014\331"
 489      C8B266EE 
 489      625AAAF3 
 489      D77EF7D3 
 489      0CD9
 490 132f 2024C8F3 		.ascii	" $\310\363\241\236\011/H\220:\330\036[\007\327\335m"
 490      A19E092F 
 490      48903AD8 
 490      1E5B07D7 
 490      DD6D
 491 1341 275391D5 		.ascii	"'S\221\325\032\211xB\210\366\361\2664\201\237\322\026"
 491      1A897842 
 491      88F6F1B6 
 491      34819FD2 
 491      16
 492 1352 194B53E5 		.ascii	"\031KS\345\360\324t\214\027\216\365do\031f^J\306\002"
 492      F0D4748C 
 492      178EF564 
 492      6F19665E 
 492      4AC602
 493 1365 A7C9439F 		.ascii	"\247\311C\237\244\035\202Y7\334\232\375+*\021\305I\214"
 493      A41D8259 
 493      37DC9AFD 
 493      2B2A11C5 
 493      498C
 494 1377 E2E48CE2 		.ascii	"\342\344\214\342)\243\333\003\365\3768\215\361),\311"
 494      29A3DB03 
 494      F5FE388D 
 494      F1292CC9 
 495 1387 2CF3C205 		.ascii	",\363\302\005\014\211\251?\227N\366]\224H\027\221\227"
 495      0C89A93F 
 495      974EF65D 
 495      94481791 
 495      97
 496 1398 141EE7B6 		.ascii	"\024\036\347\266q\264$\252m/\031v\264\345\254qjo2\265"
 496      71B424AA 
 496      6D2F1976 
 496      B4E5AC71 
 496      6A6F32B5 
 497 13ac 3749AC88 		.ascii	"7I\254\210\273\217\307G\334\0055{\206?\233\233\024\015"
 497      BB8FC747 
 497      DC05357B 
ARM GAS  /tmp/ccmXZb2d.s 			page 40


 497      863F9B9B 
 497      140D
 498 13be 5E462851 		.ascii	"^F(Q\202\250':\300\363\004\223TM\241\252\266<\251\336"
 498      82A8273A 
 498      C0F30493 
 498      544DA1AA 
 498      B63CA9DE 
 499 13d2 ED81C798 		.ascii	"\355\201\307\230z-sMWy\233\367\002\273\034\274\227*"
 499      7A2D734D 
 499      57799BF7 
 499      02BB1CBC 
 499      972A
 500 13e4 199D2AE7 		.ascii	"\031\235*\347\224F9\365f\015\306{\342y\306)j\317\360"
 500      944639F5 
 500      660DC67B 
 500      E279C629 
 500      6ACFF0
 501 13f7 3317C97B 		.ascii	"3\027\311{\231\366\336K\227\030\245\313\031ePF'\242"
 501      99F6DE4B 
 501      9718A5CB 
 501      19655046 
 501      27A2
 502 1409 D2073DED 		.ascii	"\322\007=\355R\205T\270\344\201L!U2i\252dU\344\247\271"
 502      528554B8 
 502      E4814C21 
 502      553269AA 
 502      6455E4A7 
 503 141e E3682F36 		.ascii	"\343h/62\014\036L\020^2\374.y\027&\376l\206+\253\210"
 503      320C1E4C 
 503      105E32FC 
 503      2E791726 
 503      FE6C862B 
 504 1434 1632271C 		.ascii	"\0262'\034\274:~@\203\223\031\355D\322\225\016\241x"
 504      BC3A7E40 
 504      839319ED 
 504      44D2950E 
 504      A178
 505 1446 BF03685A 		.ascii	"\277\003hZDc\224\306y\355\345\212\265w\210\325\336\243"
 505      446394C6 
 505      79EDE58A 
 505      B57788D5 
 505      DEA3
 506 1458 BA8A19B5 		.ascii	"\272\212\031\265cu\035\204\352\312\246\325\225G\253"
 506      63751D84 
 506      EACAA6D5 
 506      9547AB
 507 1467 8B2E22D4 		.ascii	"\213.\"\324}\271\327\366qr\352\013\257\242\236h\353"
 507      7DB9D7F6 
 507      7172EA0B 
 507      AFA29E68 
 507      EB
 508 1478 6CE57F7C 		.ascii	"l\345\177|\310\332\222Mf\274/\013\017[w\225\301\236"
 508      C8DA924D 
 508      66BC2F0B 
 508      0F5B7795 
 508      C19E
 509 148a 77985F82 		.ascii	"w\230_\202r\300s0\317\311\326f\301\221\337BF\035\341"
ARM GAS  /tmp/ccmXZb2d.s 			page 41


 509      72C07330 
 509      CFC9D666 
 509      C191DF42 
 509      461DE1
 510 149d 7FAC5A6A 		.ascii	"\177\254Zj\010\370m\200\377Z\223Qo1\376\302\024\032"
 510      08F86D80 
 510      FF5A9351 
 510      6F31FEC2 
 510      141A
 511 14af FC2BA33E 		.ascii	"\374+\243>L\375\313\177\373\364\255\265\253W\253\334"
 511      4CFDCB7F 
 511      FBF4ADB5 
 511      AB57ABDC 
 512 14bf 2C9F6F0A 		.ascii	",\237o\0121\350,\177\271r\245\037\373\037j\3663Y\374"
 512      31E82C7F 
 512      B972A51F 
 512      FB1F6AF6 
 512      3359FC
 513 14d2 02430C41 		.ascii	"\002C\014A\233\374\215~\206\000K\000\254\3647\257\014"
 513      9BFC8D7E 
 513      86004B00 
 513      ACF437AF 
 513      0C
 514 14e3 506974BA 		.ascii	"Pit\272M\201!\2265\357\350,F\277\200\320`\243\237\277"
 514      4D812196 
 514      35EFE82C 
 514      46BF80D0 
 514      60A39FBF 
 515 14f7 3E24D018 		.ascii	">$\320\030\344\367\363\340\015F\177\177\243\377\207"
 515      E4F7F3E0 
 515      0D467F7F 
 515      A3FF87
 516 1506 A660BF8D 		.ascii	"\246`\277\215\006\303\012\275)xEHh\210q\205Q\277!p\305"
 516      06C30ABD 
 516      29784548 
 516      68887185 
 516      51BF2170 
 517 151b 7BBA7757 		.ascii	"{\272wW\274\263j\365O\276\\\343gw\302&#Xo\010\010\014"
 517      BCB36AF5 
 517      4FBE5CE3 
 517      6777C226 
 517      23586F08 
 518 1531 31FAE9FC 		.ascii	"1\372\351\374\215\237\3537\005Yt\226\255aF\"P-\212\373"
 518      8D9FEB37 
 518      05597496 
 518      AD614622 
 518      502D8AFB 
 519 1545 8FFF4B71 		.ascii	"\217\377Kq\346\255f?\235\331\342\017\274A\206\233%\314"
 519      E6AD663F 
 519      9DD9E20F 
 519      BC41869B 
 519      25CC
 520 1557 1418AAB3 		.ascii	"\024\030\252\263| w\200!4884\304/,\324d1\373}\370\233"
 520      7C207780 
 520      21343838 
 520      34C42F2C 
 520      D46431FB 
ARM GAS  /tmp/ccmXZb2d.s 			page 42


 521 156e 8FD67EB4 		.ascii	"\217\326~\264\205\034\013\013\0142\232\314~\277\\\273"
 521      851C0B0B 
 521      0C329ACC 
 521      7EBF5CBB 
 522 157e 96F84550 		.ascii	"\226\370EP\2227\004\350M\256\346\300\3776\352,\206\377"
 522      923704E8 
 522      4DAEE6C0 
 522      FF36EA2C 
 522      86FF
 523 1590 9D9E4181 		.ascii	"\235\236A\201\033\010\201\203\276\357\255|w\345jIk\013"
 523      1B088183 
 523      BEEFAD7C 
 523      77E56A49 
 523      6B0B
 524 15a2 B0FA1CE4 		.ascii	"\260\372\034\344\271\006@8\214&\376s\223\321\350\022"
 524      B9064038 
 524      8C26FE73 
 524      93D1E812 
 525 15b2 A6DF6834 		.ascii	"\246\337h4\363!\306-\026\0178\034\246\023\316m2\033"
 525      F321C62D 
 525      160F381C 
 525      A613CE6D 
 525      321B
 526 15c4 FD79A212 		.ascii	"\375y\242\022O\216z\312N\351,\3520S\350W\201\360\323"
 526      4F8E7ACA 
 526      4EE92CEA 
 526      3053E857 
 526      81F0D3
 527 15d7 33D818BC 		.ascii	"3\330\030\274\321H\343\017.\376+\271\375\241f\242\222"
 527      D148E30F 
 527      2EFE2BB9 
 527      FDA166A2 
 527      92
 528 15e8 94034069 		.ascii	"\224\003@i\0105\031A\272\007\374\0145m%\334\302p\260"
 528      08351941 
 528      BA07FC0C 
 528      356D25DC 
 528      C270B0
 529 15fb 658B4BE8 		.ascii	"e\213K\350\346\020\243I\015)\022D\374\350\006\207\202"
 529      E610A349 
 529      0D291244 
 529      FCE80687 
 529      82
 530 160c 02CD16B5 		.ascii	"\002\315\026\2651\314\030\002\036\336\350a\374\312\030"
 530      31CC1802 
 530      1EDEE861 
 530      FCCA18
 531 161b 6209D69B 		.ascii	"b\011\326\233\277\000\311\301\346\215_n2n2\276a\010"
 531      BF00C9C1 
 531      E68D5F6E 
 531      326E32BE 
 531      6108
 532 162d D00969A5 		.ascii	"\320\011i\245\243\007\3700\223\361+o\273C:\213\333f"
 532      A307F830 
 532      93F12B6F 
 532      BB433A8B 
 532      DB66
ARM GAS  /tmp/ccmXZb2d.s 			page 43


 533 163f 7DA00558 		.ascii	"}\240\005Xx\313\250\011o/9\242\263\240M\256\306\315"
 533      78CBA809 
 533      6F2F39A2 
 533      B3A04DAE 
 533      C6CD
 534 1651 4480EB66 		.ascii	"D\200\353f\013H\017\203/\26318\014\033B,\356:\235\220"
 534      0B480F83 
 534      2FB33138 
 534      0C1B422C 
 534      EE3A9D90 
 535 1665 406EC2B7 		.ascii	"@n\302\267\013\034\205\277T\202\026\370\002\245>,\000"
 535      0B1C85BF 
 535      548216F8 
 535      02A53E2C 
 535      00
 536 1676 4C733313 		.ascii	"Ls3\0235\315\033]\000\200`\263\305b\012[\302\004\351"
 536      35CD1B5D 
 536      008060B3 
 536      C5620A5B 
 536      C204E9
 537 1689 4CC6CF8D 		.ascii	"L\306\317\215&c\210\001t\002\346\241\033\376\020\246"
 537      26638801 
 537      7402E6A1 
 537      1BFE10A6 
 538 1699 366E09B4 		.ascii	"6n\011\264\030B\375\215\256&\377\255\260\202\007\022"
 538      1842FD8D 
 538      AE26FFAD 
 538      B0820712 
 539 16a9 B33B2B8F 		.ascii	"\263;+\217\017@\232\370m!\307\201\335\347A\372\215f"
 539      0F409AF8 
 539      6D21C781 
 539      DDE741FA 
 539      8D66
 540 16bb 374B30AC 		.ascii	"7K0\254\000\314l\201JT[\350\027a\251\337\2407\033\205"
 540      00CC6C81 
 540      4A545BE8 
 540      1761A9DF 
 540      A0371B85 
 541 16cf E2FAC9BB 		.ascii	"\342\372\311\273\340'\361\207\306l\371B\037\024\270"
 541      E027F187 
 541      C66CF942 
 541      1F14B8
 542 16de 314467F9 		.ascii	"1Dg\371\353\327\246g\200\020!>D\037lt\011\015\202\010"
 542      EBD7A667 
 542      8010213E 
 542      441F6C74 
 542      090D8208 
 543 16f2 BB841837 		.ascii	"\273\204\0307\033M\330`\331\302\231\303\270 \022\246"
 543      1B4DD860 
 543      D9C299C3 
 543      B82012A6 
 544 1702 8D90633A 		.ascii	"\215\220c:\0136\255^\015\260\2123\375-g\372\2003\275"
 544      0B36AD5E 
 544      0DB08A33 
 544      FD2D67FA 
 544      8033BD
 545 1715 CF997EC2 		.ascii	"\317\231~\302\231\336\343L\357z\020\246\304k\260h\305"
ARM GAS  /tmp/ccmXZb2d.s 			page 44


 545      99DEE34C 
 545      EF7A10A6 
 545      C46BB068 
 545      C5
 546 1726 3793A9FB 		.ascii	"7\223\251\373\352\375`\220\253\245+\015\241!\026\310"
 546      EAFD6090 
 546      ABA52B0D 
 546      A12116C8 
 547 1736 469E2483 		.ascii	"F\236$\203\273-p.\301a\241\241Aj\301\237\0265\234\010"
 547      BB2D702E 
 547      C161A1A1 
 547      416AC19F 
 547      16359C08 
 548 174a DE04746E 		.ascii	"\336\004tn\364\257\316\362\226\323\356c6\004\370\003"
 548      F4AFCEF2 
 548      96D3EE63 
 548      3604F803 
 549 175a F31F3A25 		.ascii	"\363\037:%\200\220\303\371\345\316\031l5\213\225\352"
 549      8090C3F9 
 549      E5CE196C 
 549      358B95EA 
 550 176a 9C09A401 		.ascii	"\234\011\244\001\234\367\224\345\266\316\362\366k\012"
 550      9CF794E5 
 550      B6CEF2F6 
 550      6B0A
 551 1778 82502971 		.ascii	"\202P)q5\233\014@\340\277\025\302\020hXiP}\307\241\375"
 551      359B0C40 
 551      E0BF15C2 
 551      10685869 
 551      507DC7A1 
 552 178d 7E4485FC 		.ascii	"~D\205\374\032\374\341Bc\353\001\011e4Xt\244\\=\210"
 552      1AFCE142 
 552      63EB0109 
 552      65345874 
 552      A45C3D88 
 553 17a1 9B844A7D 		.ascii	"\233\204J}\235|BJ\344k\2452\326YD\023(\037\013d\370"
 553      9D7C424A 
 553      E46BA532 
 553      D6594413 
 553      281F0B64 
 554 17b6 7A43C0BF 		.ascii	"zC\300\277\353\2770n\012[\377\3472=\326o2\223\3724\372"
 554      EBBF306E 
 554      0A5BFFE7 
 554      323DD66F 
 554      3293FA34 
 555 17cb AF7321EB 		.ascii	"\257s!\353\302"
 555      C2
 556 17d0 F8CD80B9 		.ascii	"\370\315\200\271l&y\210\365\246\215K\205@\371\033\315"
 556      6C267988 
 556      F5A68D4B 
 556      8540F91B 
 556      CD
 557 17e1 06536098 		.ascii	"\006S`\230%\024\332\306\022C\000\3318>\014\012\0125"
 557      2514DAC6 
 557      124300D9 
 557      383E0C0A 
 557      0A35
ARM GAS  /tmp/ccmXZb2d.s 			page 45


 558 17f3 7C48F436 		.ascii	"|H\3646\372{\030\002\210\031\364\020\304z\375V\363\277"
 558      FA7B1802 
 558      8819F410 
 558      C47AFD56 
 558      F3BF
 559 1805 861ABE78 		.ascii	"\206\032\276x\205\227\267\022}\335i\236\300\222/<uP"
 559      8597B712 
 559      7DDD699E 
 559      C0922F3C 
 559      7550
 560 1817 7F16DD3F 		.ascii	"\177\026\335?}\270\376\347\277\376\315:O}\320f\375V"
 560      7DB8FEE7 
 560      BFFECD3A 
 560      4F7DD066 
 560      FD56
 561 1829 33E45E10 		.ascii	"3\344^\020l\006?U\310=\310+\222y~k?Z\277n\275\337ZH"
 561      6C063F55 
 561      C83DC82B 
 561      92797E6B 
 561      3F5ABF6E 
 562 1841 3DBF7522 		.ascii	"=\277u\"\363`s\240Y\007=\224\264(\252\312\247!D\004"
 562      F36073A0 
 562      59073D94 
 562      B428AACA 
 562      A7214404 
 563 1855 4BE74D21 		.ascii	"K\347M!\2028\352$\335\312\367W\275\277F-b\377\003\372"
 563      8238EA24 
 563      DDCAF757 
 563      BDBF462D 
 563      62FF03FA 
 564 1869 7F78A0   		.ascii	"\177x\240"
 565              		.text
 566              		.section	.gnu.lto_.symtab.3f8131bf1d78adeb,"",%progbits
 567 0000 63685468 		.ascii	"chThdCreateFromHeap\000"
 567      64437265 
 567      61746546 
 567      726F6D48 
 567      65617000 
 568 0014 00       		.ascii	"\000"
 569 0015 00       		.ascii	"\000"
 570 0016 00       		.ascii	"\000"
 571 0017 00000000 		.ascii	"\000\000\000\000\000\000\000\000"
 571      00000000 
 572 001f BD010000 		.ascii	"\275\001\000\000"
 573 0023 63685468 		.ascii	"chThdCreateFromMemoryPool\000"
 573      64437265 
 573      61746546 
 573      726F6D4D 
 573      656D6F72 
 574 003d 00       		.ascii	"\000"
 575 003e 00       		.ascii	"\000"
 576 003f 00       		.ascii	"\000"
 577 0040 00000000 		.ascii	"\000\000\000\000\000\000\000\000"
 577      00000000 
 578 0048 DD010000 		.ascii	"\335\001\000\000"
 579 004c 63685363 		.ascii	"chSchWakeupS\000"
 579      6857616B 
ARM GAS  /tmp/ccmXZb2d.s 			page 46


 579      65757053 
 579      00
 580 0059 00       		.ascii	"\000"
 581 005a 02       		.ascii	"\002"
 582 005b 00       		.ascii	"\000"
 583 005c 00000000 		.ascii	"\000\000\000\000\000\000\000\000"
 583      00000000 
 584 0064 E2010000 		.ascii	"\342\001\000\000"
 585 0068 63685468 		.ascii	"chThdCreateSuspendedI\000"
 585      64437265 
 585      61746553 
 585      75737065 
 585      6E646564 
 586 007e 00       		.ascii	"\000"
 587 007f 02       		.ascii	"\002"
 588 0080 00       		.ascii	"\000"
 589 0081 00000000 		.ascii	"\000\000\000\000\000\000\000\000"
 589      00000000 
 590 0089 F8010000 		.ascii	"\370\001\000\000"
 591 008d 63684865 		.ascii	"chHeapAllocAligned\000"
 591      6170416C 
 591      6C6F6341 
 591      6C69676E 
 591      656400
 592 00a0 00       		.ascii	"\000"
 593 00a1 02       		.ascii	"\002"
 594 00a2 00       		.ascii	"\000"
 595 00a3 00000000 		.ascii	"\000\000\000\000\000\000\000\000"
 595      00000000 
 596 00ab FE010000 		.ascii	"\376\001\000\000"
 597 00af 6368506F 		.ascii	"chPoolAlloc\000"
 597      6F6C416C 
 597      6C6F6300 
 598 00bb 00       		.ascii	"\000"
 599 00bc 02       		.ascii	"\002"
 600 00bd 00       		.ascii	"\000"
 601 00be 00000000 		.ascii	"\000\000\000\000\000\000\000\000"
 601      00000000 
 602 00c6 02020000 		.ascii	"\002\002\000\000"
 603              		.text
 604              		.section	.gnu.lto_.opts,"",%progbits
 605 0000 272D666D 		.ascii	"'-fmath-errno' '-fsigned-zeros' '-ftrapping-math' '"
 605      6174682D 
 605      6572726E 
 605      6F272027 
 605      2D667369 
 606 0033 2D666E6F 		.ascii	"-fno-trapv' '-fno-openmp' '-fno-openacc' '-mcpu=cor"
 606      2D747261 
 606      70762720 
 606      272D666E 
 606      6F2D6F70 
 607 0066 7465782D 		.ascii	"tex-m4' '-mthumb' '-ggdb' '-O2' '-fomit-frame-point"
 607      6D342720 
 607      272D6D74 
 607      68756D62 
 607      2720272D 
 608 0099 65722720 		.ascii	"er' '-falign-functions=16' '-ffunction-sections' '-"
ARM GAS  /tmp/ccmXZb2d.s 			page 47


 608      272D6661 
 608      6C69676E 
 608      2D66756E 
 608      6374696F 
 609 00cc 66646174 		.ascii	"fdata-sections' '-fno-common' '-flto'\000"
 609      612D7365 
 609      6374696F 
 609      6E732720 
 609      272D666E 
 610              		.text
 611              		.comm	__gnu_lto_v1,1,1
 612              		.comm	__gnu_lto_slim,1,1
 613              		.ident	"GCC: (GNU Tools for ARM Embedded Processors) 5.4.1 20160919 (release) [ARM/embedded-5-bran
ARM GAS  /tmp/ccmXZb2d.s 			page 48


DEFINED SYMBOLS
                            *ABS*:00000000 chdynamic.c
                            *COM*:00000001 __gnu_lto_v1
                            *COM*:00000001 __gnu_lto_slim

NO UNDEFINED SYMBOLS
