ARM GAS  /tmp/cc66EJ1o.s 			page 1


   1              		.syntax unified
   2              		.cpu cortex-m4
   3              		.fpu softvfp
   4              		.eabi_attribute 20, 1
   5              		.eabi_attribute 21, 1
   6              		.eabi_attribute 23, 3
   7              		.eabi_attribute 24, 1
   8              		.eabi_attribute 25, 1
   9              		.eabi_attribute 26, 1
  10              		.eabi_attribute 30, 2
  11              		.eabi_attribute 34, 1
  12              		.eabi_attribute 18, 4
  13              		.thumb
  14              		.syntax unified
  15              		.file	"chvt.c"
  16              		.text
  17              	.Ltext0:
  18              		.section	.gnu.lto_.profile.1f2851e71136c5,"",%progbits
  19 0000 789C6361 		.ascii	"x\234ca`d`e`\000\222\375\214q\000\002\213\000\372"
  19      60646065 
  19      600092FD 
  19      8C710002 
  19      8B00FA
  20              		.text
  21              		.section	.gnu.lto_.icf.1f2851e71136c5,"",%progbits
  22 0000 789C6361 		.ascii	"x\234ca`d\000\001)\006\004`axs\377\377a^\246-\337\337"
  22      60640001 
  22      29060460 
  22      617873FF 
  22      FF615EA6 
  23 0017 F4F231FF 		.ascii	"\364\3621\377:\264\1779\017\313\235\375\275\257\370"
  23      3AB47F39 
  23      0FCB9DFD 
  23      BDAFF8
  24 0026 1900BB61 		.ascii	"\031\000\273a\015H"
  24      0D48
  25              		.text
  26              		.section	.gnu.lto_.jmpfuncs.1f2851e71136c5,"",%progbits
  27 0000 789C6361 		.ascii	"x\234ca`d\000\001=\006\004`a`dd\254g`\0022\201\230\231"
  27      60640001 
  27      3D060460 
  27      61606464 
  27      AC676002 
  28 0018 05C863E4 		.ascii	"\005\310c\344\257\007\002\250\010\003H\244\236\211\251"
  28      AF0702A8 
  28      080348A4 
  28      9E89A9
  29 0027 12AC1700 		.ascii	"\022\254\027\000[\240\003\334"
  29      5BA003DC 
  30              		.text
  31              		.section	.gnu.lto_.inline.1f2851e71136c5,"",%progbits
  32 0000 789C4D4F 		.ascii	"x\234MO=K\003A\024\234y{f\217\004\314\0116\236B\266"
  32      3D4B0341 
  32      149C797B 
  32      668F04CC 
  32      09369E42 
  33 0015 4B778B7F 		.ascii	"Kw\213\177@\255\304J\3607\\a\320BH\202m\316\342\364"
ARM GAS  /tmp/cc66EJ1o.s 			page 2


  33      40ADC44A 
  33      F0375C61 
  33      D0424882 
  33      6DCEE2F4 
  34 0029 ECC41F10 		.ascii	"\354\304\037\020\202\370YXX\330h#\330\332X]+V\332\333"
  34      82F85958 
  34      58D86823 
  34      D8DA585D 
  34      2B56DADB 
  35 003d 46DDCD45 		.ascii	"F\335\315EpX\336\354c\346\315\276\015@x\3149ZD\205\000"
  35      7058DEEC 
  35      63E6CDBE 
  35      0D4078CC 
  35      395A4485 
  36 0052 88630630 		.ascii	"\210c\0060;cayP\276\323\336f\016o\317?[\314\025\216"
  36      3B636179 
  36      50BED3DE 
  36      660E6FCF 
  36      3F5BCC15 
  37 0067 15BEC51B 		.ascii	"\025\276\305\033\235<<=\317\232\203qV8\275\231+\362"
  37      9D3C3C3D 
  37      CF9A8371 
  37      5638BD99 
  37      2BF2
  38 0079 8A16E035 		.ascii	"\212\026\3405\007\0120\273\177\027bZ\327\364L\321\206"
  38      070A30BB 
  38      7F17625A 
  38      D7F44CD1 
  38      86
  39 008a 2EDA027E 		.ascii	".\332\002~\350H\340\332\010\361\331\220!\370\250M(\025"
  39      E848E0DA 
  39      08F1D990 
  39      21F8A84D 
  39      2815
  40 009c F978D6FD 		.ascii	"\371x\326\375*\322\200\223N6\005\272FH\370\264\202\332"
  40      2AD28093 
  40      4E3605BA 
  40      4648F8B4 
  40      82DA
  41 00ae A835795F 		.ascii	"\2505y_a\371\025T4\333n\223\373\243\227\273\372\227"
  41      61F91554 
  41      34DB6E93 
  41      FBA397BB 
  41      FA97
  42 00c0 E44A48DE 		.ascii	"\344JH\336p\0114\235)\273\277\251\215\3623\304\354\305"
  42      7009349D 
  42      29BBBFA9 
  42      8DF233C4 
  42      ECC5
  43 00d2 BA2018B5 		.ascii	"\272 \030\265\"?\355\202'\271\025\005\230\217\\\374"
  43      223FED82 
  43      27B91505 
  43      988F5CFC 
  44 00e2 C2E125D1 		.ascii	"\302\341%\321xX\225\177\016\304Ib\253\263\327\263\335"
  44      7858957F 
  44      0EC44962 
  44      ABB3D7B3 
ARM GAS  /tmp/cc66EJ1o.s 			page 3


  44      DD
  45 00f3 BEED7553 		.ascii	"\276\355uS\233v\366\373I\212_\311'<Q"
  45      9B76F6FB 
  45      498A5FC9 
  45      273C51
  46              		.text
  47              		.section	.gnu.lto_.pureconst.1f2851e71136c5,"",%progbits
  48 0000 789C6361 		.ascii	"x\234ca`d\340d```a\220b\222`\226b\221\002\000\002\263"
  48      6064E064 
  48      60606061 
  48      90629260 
  48      96629102 
  49 0017 0082     		.ascii	"\000\202"
  50              		.text
  51              		.section	.gnu.lto_chVTDoResetI.part.0.1f2851e71136c5,"",%progbits
  52 0000 789C9556 		.ascii	"x\234\225V]LTG\024\236s\347\376\355\262\374\264\215"
  52      5D4C5447 
  52      149E73E7 
  52      FEEDB2FC 
  52      B48D
  53 0012 69D2A8A5 		.ascii	"i\322\250\245\017\324\370 7j\333\304\207&m\332\227&"
  53      0FD4F820 
  53      376ADBC4 
  53      87266DDA 
  53      9726
  54 0024 F2A2F6D9 		.ascii	"\362\242\366\331\020 \301\204\037\303ni}\342\302\262"
  54      1020C184 
  54      1FC36E69 
  54      7DE2C2B2 
  55 0034 2A8A8AA6 		.ascii	"*\212\212\246jm\264\304Z@\261\200\324j]T\334\"\210\002"
  55      6A6DB4C4 
  55      5A40B180 
  55      D46A5D54 
  55      DC228802 
  56 0048 0A149556 		.ascii	"\012\024\225V\252\202\" \325\002J\3256\302\366\234\271"
  56      AA822220 
  56      D5024AD5 
  56      36C2F69C 
  56      B9
  57 0059 8B2CFB93 		.ascii	"\213,\373\223\350\015\314\2753s\3167\3379\337\231\231"
  57      E80DCCBD 
  57      3373CE37 
  57      DF39DF99 
  57      99
  58 006a 9519307A 		.ascii	"\225\0310z\336\214a\3541\276s\361\037\354\014leW\360"
  58      DE8C61EC 
  58      31BE73F1 
  58      1FEC0C6C 
  58      6557F0
  59 007d C3069278 		.ascii	"\303\006\222xK\022\367rf\332\345\3366\306L\007\007\235"
  59      4B12F772 
  59      66DAE5DE 
  59      36C64C07 
  59      079D
  60 008f 860B7559 		.ascii	"\206\013uY\322\317,\304q\345\252\201\303\212\244\226"
  60      D2CF2CC4 
  60      71E5AA81 
ARM GAS  /tmp/cc66EJ1o.s 			page 4


  60      C38AA496 
  61 009f CEC39E56 		.ascii	"\316\303\236V\274\002{*h\226\2216c\255\003\320\207\251"
  61      BC027B2A 
  61      68969136 
  61      63AD03D0 
  61      87A9
  62 00b1 032BB049 		.ascii	"\003+\260I\\VTM\207\002\370G\232\222\240i\323\220WZ"
  62      5C56544D 
  62      8702F847 
  62      9A92A069 
  62      D390575A 
  63 00c5 5C65E2D3 		.ascii	"\\e\342\323\177ot\251y\330\007\036\316\230_\022\354"
  63      7F6F74A9 
  63      79D8071E 
  63      CE985F12 
  63      EC
  64 00d6 1854C162 		.ascii	"\030T\301b\264\352.>\266\237OJ\036\016 cw\342\362\267"
  64      B4EA2E3E 
  64      B69F4F4A 
  64      1E0E2063 
  64      77E2F2B7 
  65 00ea 77E3A82B 		.ascii	"w\343\250+A\"v\253\006\207z5\276\000\030~\037i\364\266"
  65      412276AB 
  65      06877A35 
  65      BE00187E 
  65      1F69F4B6 
  66 00fe D8165598 		.ascii	"\330\026U\230f\221i\356\3130m\036\316\241\0328\342\301"
  66      669169EE 
  66      CB306D1E 
  66      CEA11A38 
  66      E2C1
  67 0110 11980F87 		.ascii	"\021\230\017\207a>\303!\006Ga\021\231\217\\|rO\347\357"
  67      613EC321 
  67      06476111 
  67      998F5C7C 
  67      724FE7EF 
  68 0124 08D7CAD2 		.ascii	"\010\327\312\322\235\215\216\244C\344\352+\357\\\260"
  68      9D8D8EA4 
  68      43E4EA2B 
  68      EF5CB0
  69 0133 CFF41527 		.ascii	"\317\364\025'z\270\014?\316u\247\007\255\253\217\354"
  69      7AB80C3F 
  69      CE75A707 
  69      ADAB8FEC 
  70 0143 1F8AE38B 		.ascii	"\037\212\343\213\204\347\304\211\236\026\233\345i\366"
  70      84E7C489 
  70      9E169BE5 
  70      69F6
  71 0151 A49B251F 		.ascii	"\244\233%\037\221[mD\267;\365\323\273c\325b\2127\021"
  71      915B6D44 
  71      B73BF5D3 
  71      BB63D562 
  71      8A3711
  72 0164 EA20096A 		.ascii	"\352 \011j \311\212\026\216\201\212\232\250%\234\354"
  72      20C98A16 
  72      8E818A9A 
  72      A8259CEC 
ARM GAS  /tmp/cc66EJ1o.s 			page 5


  73 0174 4AB74D4D 		.ascii	"J\267MM\306\023\344\026\323\327\273\235\357;,\310(,"
  73      C613E416 
  73      D3D7BB9D 
  73      EF3B2CC8 
  73      282C
  74 0186 1412EA21 		.ascii	"\024\022\352!i\256\271\371S\227\011Q\214\177\212j,\207"
  74      69AEB9F9 
  74      53970951 
  74      8C7F8A6A 
  74      2C87
  75 0198 1B1FB7D8 		.ascii	"\033\037\267\330\021\313\272U\246\351\367\273\315\262"
  75      11CBBA55 
  75      A6E9F7BB 
  75      CDB2
  76 01a6 E177611E 		.ascii	"\341wa\036\000eO\242<rlT\231\032\205\032\225\032\015"
  76      00654FA2 
  76      3C726C54 
  76      991A851A 
  76      951A0D
  77 01b9 1B45C746 		.ascii	"\033E\307F\2661\362\267\2136F\264\016\232cl\034\343"
  77      B631F2B7 
  77      8B3646B4 
  77      0E9A636C 
  77      1CE3
  78 01cb A58A1897 		.ascii	"\245\212\030\227l\364\346\023\222$\336CP\3240\361\374"
  78      6CF4E613 
  78      9224DE43 
  78      50D430F1 
  78      FC
  79 01dc B142A970 		.ascii	"\261B\251ps*\217=\236\246N\215\224\346\"\321O[\3336"
  79      732A8F3D 
  79      9EA64E8D 
  79      94E622D1 
  79      4F5BDB36 
  80 01f0 3BCAE140 		.ascii	";\312\341@!\246/\301\30357\026\304\317\304\027\347*"
  80      21A62FC1 
  80      C3353716 
  80      C4CFC417 
  80      E72A
  81 0202 068B6A35 		.ascii	"\006\213j5c\011\231\236\200r\230\026\025\004'\301`\010"
  81      6309999E 
  81      80729816 
  81      150427C1 
  81      6008
  82 0214 BBE7E03C 		.ascii	"\273\347\340<\002\015F\324\005\242\327\373\240O+\230"
  82      020D46D4 
  82      05A2D7FB 
  82      A04F2B98 
  83 0224 32370B40 		.ascii	"27\013@\275\004\327\241\341\321\216k\315\366\331\205"
  83      BD04D7A1 
  83      E1D18E6B 
  83      CDF6D985 
  84 0234 6C700A0B 		.ascii	"lp\012\013\366\227\300J\333O\035+\321\215\032\322\320"
  84      F697C04A 
  84      DB4F1D2B 
  84      D18D1AD2 
  84      D0
ARM GAS  /tmp/cc66EJ1o.s 			page 6


  85 0245 8CF1703B 		.ascii	"\214\361p;x\305z`)\334R\332\375\303\314\354\012b\323"
  85      78C57A60 
  85      29DC52DA 
  85      FDC3CCEC 
  85      0A62D3
  86 0258 00C6B424 		.ascii	"\000\306\264$\024>\015\006\206E|\376\333t\375\334\372"
  86      143E0D06 
  86      86457CFE 
  86      DB74FDDC 
  86      FA
  87 0269 00A3F0A0 		.ascii	"\000\243\360\240\244\220\240,\260\325\004vF,\305\011"
  87      A490A02C 
  87      B0D50476 
  87      462CC509 
  88 0279 ED2C18AF 		.ascii	"\355,\030\257\020@c\224\000\272\201\"8\027\034\301\326"
  88      10406394 
  88      00BA8122 
  88      38171CC1 
  88      D6
  89 028a AEC61D71 		.ascii	"\256\306\035q\026\244y\032\247c\300\207Yd\360+\024\020"
  89      16A4791A 
  89      A763C087 
  89      5964F02B 
  89      1410
  90 029c F7C9F1A9 		.ascii	"\367\311\361\251\036\036\225{\250 \326*\261\036\356"
  90      1E1E957B 
  90      A820D62A 
  90      B11EEE
  91 02ab 8026B188 		.ascii	"\200&\261\210L\334\317\013\356/\264p\000\203ft\033\200"
  91      4CDCCF0B 
  91      EE2FB470 
  91      00836674 
  91      1B80
  92 02bd E21BEE7F 		.ascii	"\342\033\356\177\337\236\325\377e\243k\211\022\335\373"
  92      DF9ED5FF 
  92      65A36B89 
  92      12DDFB
  93 02cc 14DC8568 		.ascii	"\024\334\205h\301\305Sl\255\"\266\213\030\033=\023\230"
  93      C1C5536C 
  93      AD22B68B 
  93      181B3D13 
  93      98
  94 02dd 5B2FE723 		.ascii	"[/\347#\340\356\357\256\331\306\347\356X_\273\177\265"
  94      E0EEEFAE 
  94      D9C6E7EE 
  94      585FBB7F 
  94      B5
  95 02ee D8A77E09 		.ascii	"\330\247~\011B73\203K\240\"P\033\266a\304c\375\222$"
  95      42373383 
  95      4BA02250 
  95      1BB661C4 
  95      63FD9224 
  96 0302 E6A11DD7 		.ascii	"\346\241\035\327\361\3608\261\222\314\360X\265\212\376"
  96      F1F038B1 
  96      92CCF058 
  96      B58AFE
  97 0311 C2D79A15 		.ascii	"\302\327\232\0254\177\371\202H\240S\246C\304\246PN/"
ARM GAS  /tmp/cc66EJ1o.s 			page 7


  97      347FF982 
  97      48A053A6 
  97      43C4A650 
  97      4E2F
  98 0323 5BA5DE30 		.ascii	"[\245\3360\020\310\237\374\262\033F\206+\263(\235\002"
  98      10C89FFC 
  98      B21B4686 
  98      2BB3289D 
  98      02
  99 0334 C5BD6763 		.ascii	"\305\275gc\007\267`\024$\205`b\027\301\253\225\254`"
  99      07B76014 
  99      24856062 
  99      17C1AB95 
  99      AC60
 100 0346 D8358BDD 		.ascii	"\3305\213\335M\365\257\010\222\365\235\203\001|\365"
 100      4DF5AF08 
 100      92F59D83 
 100      017CF5
 101 0355 1564FE2D 		.ascii	"\025d\376-\212\314\033H\346\236h\273\360C<t\340*\355"
 101      8ACC1B48 
 101      E69E68BB 
 101      F0433C74 
 101      E02AED
 102 0368 4295585C 		.ascii	"B\225X\\\023\02165x\007\353\257e\206\010\274\265s\020"
 102      13113635 
 102      7807EBAF 
 102      658608BC 
 102      B57310
 103 037b 2020310F 		.ascii	"  1\017\221\330w|\36738\210w\307u\232\225Cg\017\366"
 103      91D8777C 
 103      F7333888 
 103      77C7759A 
 103      9543670F 
 104 0390 2D60D04B 		.ascii	"-`\320KSJxm\374.j\343\017\212W\013.\374xQGWj\236\216"
 104      534A786D 
 104      FC2E6AE3 
 104      0F8A570B 
 104      2EFC7851 
 105 03a9 DBAD2ED9 		.ascii	"\333\255.\331\223p\207j\237\264\352\263\241'@\037\036"
 105      9370876A 
 105      9FB4EAB3 
 105      A127401F 
 105      1E
 106 03ba CD3702A1 		.ascii	"\3157\002\241W_\236|L)..4\373w\266~\276\013o\271\327"
 106      575F9E7C 
 106      4C292E2E 
 106      34FB77B6 
 106      7EBE0B6F 
 107 03d0 E04F11BE 		.ascii	"\340O\021\276f\255\00571\310;P\324\337R\365hF\264\363"
 107      66AD0537 
 107      31C83B50 
 107      D4DF52F5 
 107      6846B4F3 
 108 03e4 45355BE3 		.ascii	"E5[\343\370q\020K6u\234\252\214\013\\vt\277X\227\235"
 108      F871104B 
 108      36759CAA 
 108      8C0B5C76 
ARM GAS  /tmp/cc66EJ1o.s 			page 8


 108      74BF5897 
 109 03f9 02B7C26F 		.ascii	"\002\267\302o-\270\015I(\023\301\371\316\356\212\017"
 109      2DB80D49 
 109      2813C1F9 
 109      CEEE8A0F 
 110 0409 A03D2CDB 		.ascii	"\240=,\333q\336\306\275\026\332\367\273\033+\035\021"
 110      71DEC6BD 
 110      16DAF7BB 
 110      1B2B1D11 
 111 0419 D0FA23A0 		.ascii	"\320\372#\240\015\340\205G\025\366\315\306\261\272\256"
 111      0DE08547 
 111      15F6CDC6 
 111      B1BAAE
 112 0428 EF62C304 		.ascii	"\357b\303\004h\306\373\005mh\325\200\020jx>\357\210"
 112      68C6FB05 
 112      6D68D580 
 112      106A783E 
 112      EF88
 113 043a 7CDEA57C 		.ascii	"|\336\245|\352n\252?\242'\211+\224\374^t\006\202;u\324"
 113      EA6EAA3F 
 113      A227892B 
 113      94FC5E74 
 113      06823B75 
 114 044f C123A6D3 		.ascii	"\301#\246\323}\264B}Q\334z`\337+\254u\011\027\274\246"
 114      7DB4427D 
 114      51DC7A60 
 114      DF2BAC75 
 114      0917BCA6 
 115 0463 DB9659B3 		.ascii	"\333\226Y\263\266\200\301\014@\015%\302fA\214\315@\330"
 115      B680C10C 
 115      400D25C2 
 115      66418CCD 
 115      40D8
 116 0475 90DC894D 		.ascii	"\220\334\211M\035\365B@\031\311\017\006\"\235@\342\225"
 116      1DF54240 
 116      19C90F06 
 116      229D40E2 
 116      95
 117 0486 0E2E36D3 		.ascii	"\016.6\323P\373\007\226\265\035\361\250<\375O}\361\344"
 117      50FB0796 
 117      B51DF1A8 
 117      3CFD4F7D 
 117      F1E4
 118 0498 A022F43D 		.ascii	"\240\"\364=t\230\263\204]xkD\010\223\236\300\254\321"
 118      7498B384 
 118      5D786B44 
 118      08939EC0 
 118      ACD1
 119 04aa 18A14079 		.ascii	"\030\241@y\317\214\236\025\267\237\015\304\360[\226"
 119      CF8C9E15 
 119      B79F0DC4 
 119      F05B96
 120 04b9 02AD3D1B 		.ascii	"\002\255=\033\013c#(0\024A\201\341Y=g\321nz\032\232"
 120      0B632328 
 120      30144181 
 120      E1593D67 
 120      D16E7A1A 
ARM GAS  /tmp/cc66EJ1o.s 			page 9


 121 04ce 75242BD0 		.ascii	"u$+\320\372\006\017\324jah2\214D@\273oq\023a\216\325"
 121      FA060FD4 
 121      6A616832 
 121      8C4440BB 
 121      6F711361 
 122 04e4 958529DA 		.ascii	"\225\205)\332>\374\036\331\320\252\001=\265p=G\205\236"
 122      3EFC1ED9 
 122      D0AA013D 
 122      B5703D47 
 122      859E
 123 04f6 7F51861C 		.ascii	"\177Q\206\034\310\315\012\326\312\310p\260\204\367\203"
 123      C8CD0AD6 
 123      CAC870B0 
 123      84F783
 124 0505 3A0852E2 		.ascii	":\010R\342\333\322l\347c\026\351\362\352\223\017 B\012"
 124      DBD26CE7 
 124      6316E9F2 
 124      EA930F20 
 124      420A
 125 0517 1E4420FD 		.ascii	"\036D \375\220pF\240\270\277{*\354\220\2774,\213y\213"
 125      907046A0 
 125      B8BF7B2A 
 125      EC90BF34 
 125      2C8B798B 
 126 052b AC1E4EF6 		.ascii	"\254\036N\366oAv,\322A\377\272_\262\211y\030\307\203"
 126      6F41762C 
 126      D241FFBA 
 126      5FB28979 
 126      18C783
 127 053e 1E83F1F0 		.ascii	"\036\203\361\3607\030{\0041XI\312\363\275\331\250\255"
 127      37187B04 
 127      315849CA 
 127      F3BDD9A8 
 127      AD
 128 054f DABC1750 		.ascii	"\332\274\027P]]\374\342\031%y\3053\216'\027\216\340"
 128      5D5DFCE2 
 128      192579C5 
 128      338E2717 
 128      8EE0
 129 0561 EF84B792 		.ascii	"\357\204\267\222\223\015\353/\327i\344\271\014g^\232"
 129      930DEB2F 
 129      D769E4B9 
 129      0C675E9A 
 130 0571 919699EF 		.ascii	"\221\226\231\357JNc<\337\265^I\317\310r\245\3529\271"
 130      4A4E633C 
 130      DFB55E49 
 130      CFC872A5 
 130      EA39B9
 131 0584 5F8A0F23 		.ascii	"_\212\017#\330:-7;;7\307X\237\233\347r\032\037\257J"
 131      D83A2D37 
 131      3B3B37C7 
 131      589F9BE7 
 131      721A1FAF 
 132 0599 F924E52B 		.ascii	"\371$\345+tM\313\315\313X\353Z\227\235\221\227\234\311"
 132      744DCBCD 
 132      CB58EB5A 
 132      979D9197 
ARM GAS  /tmp/cc66EJ1o.s 			page 10


 132      9CC9
 133 05ab 9607DB67 		.ascii	"\226\007\333g\246f\005\214W\257IY\276\314X\271\362S"
 133      A666058C 
 133      57AF4959 
 133      BECC58B9 
 133      F253
 134 05bd 63CD6729 		.ascii	"c\315g)\371Kif\255\323\2656++\035}\026\2060Z\227\223"
 134      F94B6966 
 134      ADD3B536 
 134      2B2B1D7D 
 134      1686305A 
 135 05d3 96F5457A 		.ascii	"\226\365Ez\206\305*\223)NWj\236\213g\344\244'F5\244"
 135      86C52A93 
 135      294E576A 
 135      9E8B67E4 
 135      A4274635 
 136 05e8 E5D15473 		.ascii	"\345\321Tsnp\322\247\276.\307\225\221\227\237\232%S"
 136      6E70D2A7 
 136      BE2EC795 
 136      91979F9A 
 136      2553
 137 05fa EF7F6405 		.ascii	"\357\177d\005\012\274"
 137      0ABC
 138              		.text
 139              		.section	.gnu.lto__vt_init.1f2851e71136c5,"",%progbits
 140 0000 789C9593 		.ascii	"x\234\225\223\275n\023A\024\205\347\314\370O '\324\340"
 140      BD6E1341 
 140      1485E7CC 
 140      F84F2027 
 140      D4E0
 141 0012 2212951B 		.ascii	"\"\022\225\033oZ^\200\007\210x\0037tH\266\225v\307\206"
 141      6F5A5E80 
 141      07887803 
 141      377448B6 
 141      9576C786 
 142 0026 95B14098 		.ascii	"\225\261@\230&\010\212h\033\220c\034\3076\301\340M\202"
 142      26088A68 
 142      1B90631C 
 142      C736C1E0 
 142      4D82
 143 0038 31264414 		.ascii	"1&D\024\210\237\202\312B\012)RD)\214\024\012\"\305\313"
 143      889F82CA 
 143      420A2952 
 143      44298C14 
 143      0A22C5CB 
 144 004c BDB38994 		.ascii	"\275\263\211\224\206\025\276\332\325\254\346\316\234"
 144      8615BEDA 
 144      D5ACE6CE 
 144      9C
 145 0059 733EED4C 		.ascii	"s>\355LD@p=QB\244h\274B/\224\200|\370Y\210bB\002\374"
 145      4440703D 
 145      5142A468 
 145      BC422F94 
 145      807CF859 
 146 0072 A11310B6 		.ascii	"\241\023\020\266\204\215\337\362DbX\336\367d\272\246"
 146      848DDFF2 
 146      446258DE 
ARM GAS  /tmp/cc66EJ1o.s 			page 11


 146      F764BAA6 
 147 0082 A9769FB9 		.ascii	"\251v\237\271J\257\014\340\320v_\032%\201\032\322\202"
 147      4AAF0CE0 
 147      D0765F1A 
 147      25811AD2 
 147      82
 148 0093 96ED7526 		.ascii	"\226\355u&K\311\330\035^6\0274\261\202\030\333\265\026"
 148      4BC9D81D 
 148      5E361734 
 148      B18218DB 
 148      B516
 149 00a5 06DAF76F 		.ascii	"\006\332\367ok=\232\257^\215\0111\246&\333\374\222\222"
 149      6B3D9AAF 
 149      5E8D0931 
 149      A626DBFC 
 149      9292
 150 00b7 47B58FD2 		.ascii	"G\265\217\322qyR\213\362z\022z\344\014\277\304\217\244"
 150      7179528B 
 150      F27A127A 
 150      E40CBFC4 
 150      8FA4
 151 00c9 A300D6F5 		.ascii	"\243\000\326\365\274\303Q\334>\321w\265\276Ds\025\262"
 151      BCC351DC 
 151      3ED177B5 
 151      BE447315 
 151      B2
 152 00da E6E9834F 		.ascii	"\346\351\203O\337\267/\270X.j3/\361\234\362\326\221"
 152      DFB72FB8 
 152      582E6A33 
 152      2FF19CF2 
 152      D691
 153 00ec 32CD07BD 		.ascii	"2\315\007\275v%a59\213\276\350(\205\006\\LL`\352~\270"
 153      76256135 
 153      398BBEE8 
 153      2885065C 
 153      4C4C60EA 
 154 0102 FFEDE959 		.ascii	"\377\355\351Y\367\232\243\"X\2055\221\234\024MXSX\256"
 154      F79AA322 
 154      58853591 
 154      9C144D58 
 154      5358AE
 155 0115 FDC3B20B 		.ascii	"\375\303\262\013\366l\235\367\274\367\265_\235\011$"
 155      F66C9DF7 
 155      BCF7B55F 
 155      9D0924
 156 0124 B54BED28 		.ascii	"\265K\355(\332\260\310\260\003[\030\376\235\3077N\371"
 156      DAB0C8B0 
 156      035B18FE 
 156      9DC7374E 
 156      F9
 157 0135 FFD7FD45 		.ascii	"\377\327\375E\030\360z(\360K\0066\277\250;\025\360\253"
 157      18F07A28 
 157      F04B0636 
 157      BFA83B15 
 157      F0AB
 158 0147 50E0D7E1 		.ascii	"P\340\327\341\300=\003\354\005\300G\343\355NtJ\340\215"
 158      C03D03EC 
ARM GAS  /tmp/cc66EJ1o.s 			page 12


 158      05C047E3 
 158      ED4E744A 
 158      E08D
 159 0159 30E0CD10 		.ascii	"0\340\315\020\340\030\266\030\230u\361\306\000\377\370"
 159      E018B618 
 159      9875F1C6 
 159      00FFF8
 160 0168 586F283E 		.ascii	"Xo(>cq\370T\263\350\223\256\211\265\363s\332Xo\303b"
 160      6371F854 
 160      B3E893AE 
 160      89B5F373 
 160      DA586FC3 
 161 017d 0D426225 		.ascii	"\015Bb%\360\216cE8\326\320\304j\035z\177\222A,\201\367"
 161      F08E6345 
 161      38D6D0C4 
 161      6A1D7A7F 
 161      92412C81 
 162 0192 A47980D2 		.ascii	"\244y\200\322\300\275\316\201\314]\033\323)\245\033"
 162      C0BDCE81 
 162      CC5D1BD3 
 162      29A51B
 163 01a1 437A9733 		.ascii	"Cz\2273\031+xn\345\255\\\301\312\347\262V\366\346b!"
 163      192B786E 
 163      E5AD5CC1 
 163      CAE7B256 
 163      F6E66221 
 164 01b5 93157F01 		.ascii	"\223\025\177\001\230\313R+"
 164      98CB522B 
 165              		.text
 166              		.section	.gnu.lto_chVTDoSetI.1f2851e71136c5,"",%progbits
 167 0000 789C9558 		.ascii	"x\234\225XkP\223W\032>\3579I\276$$\301v\274_Q\207q\252"
 167      6B509357 
 167      1A3EEF39 
 167      49BE2424 
 167      C176BC5F 
 168 0018 B3A6ADD3 		.ascii	"\263\246\255\323\335u\366\327\316\356\237\316\324\037"
 168      DD75F6D7 
 168      CEEE9FCE 
 168      D41F
 169 0026 6BFBDFA1 		.ascii	"k\373\337\241@Gg\020\234\220\322\366\227\237\271\210"
 169      40476710 
 169      9C90D2F6 
 169      979FB988 
 170 0036 282D6017 		.ascii	"(-`\027\266\265R\274\337A\321\325\212U7\"\212\"\242"
 170      B6B552BC 
 170      DF41D1D5 
 170      8A553722 
 170      8A22A2
 171 0049 A22CADCA 		.ascii	"\242,\255\312zG\353\322j\304[\273J\366}\317\371\222"
 171      7A47EBD2 
 171      6AC45BBB 
 171      4AF67DCF 
 171      F992
 172 005b 202468BE 		.ascii	" $h\276a\222\357\\\336\347}\336\3539\301\304\200\321"
 172      6192EF5C 
 172      DEE77DDE 
 172      EB39C1C4 
ARM GAS  /tmp/cc66EJ1o.s 			page 13


 172      80D1
 173 006d F37C3863 		.ascii	"\363|8c\303\360u/\276C:\003^\336\306\330\022+\347\242"
 173      C3F0752F 
 173      BE433A03 
 173      5EDEC6D8 
 173      122BE7A2 
 174 0081 7404D3ED 		.ascii	"t\004\323\355\246\300l\246;\004\230\324\264\211\233"
 174      A6C06CA6 
 174      3B0498D4 
 174      B4899B
 175 0090 1B044E5B 		.ascii	"\033\004N[:[\030\316\233\301\245\346-\\[6\015\347\255"
 175      3A5B18CE 
 175      9BC1A5E6 
 175      2D5C5B36 
 175      0DE7AD
 176 00a3 F4E9D0C0 		.ascii	"\364\351\320\300\256\246\255\334va$N\333\017\376\001"
 176      AEA6ADDC 
 176      7661244E 
 176      DB0FFE01 
 177 00b3 A76DD169 		.ascii	"\247m\321i;8\350\005\322\324\367\021\253\203\247\225"
 177      3B38E805 
 177      D2D4F711 
 177      AB83A795 
 178 00c3 3623A0DD 		.ascii	"6#\240\335\031\320p\2433\012\353\002\240\027\335\012"
 178      19D070A3 
 178      330AEB02 
 178      A017DD0A 
 179 00d3 6C311726 		.ascii	"l1\027&\263E\263\332\354i\016\247\013\026s\007S\317"
 179      B345B3DA 
 179      EC690EA7 
 179      0B167307 
 179      53CF
 180 00e5 23FE9C43 		.ascii	"#\376\234Ccqw\003\177c\263\216\317\325[\367\336\324"
 180      63717703 
 180      7F63B38E 
 180      CFD55BF7 
 180      DED4
 181 00f7 B7842028 		.ascii	"\267\204 (\030\213p\265\0076\303\033\270\353\\`\327"
 181      188B70B5 
 181      0736C31B 
 181      B8EB5C60 
 181      D7
 182 0108 6AF19007 		.ascii	"j\361\220\007\005\200\011\207\341\323\253n\270h\310"
 182      05800987 
 182      E1D3AB6E 
 182      B868C8
 183 0117 2103879B 		.ascii	"!\003\207\233ovwjb\0020|\337z\270\341\230m\332F]\367"
 183      6F76776A 
 183      6202307C 
 183      DF7AB8E1 
 183      986DDA46 
 184 012d E97A65AE 		.ascii	"\351ze\256n\013\012\001\333@ \036l\205\361\260\005\306"
 184      6E0B0A01 
 184      DB40201E 
 184      6C85F1B0 
 184      05C6
 185 013f 339C62B0 		.ascii	"3\234b\260\035\246\341n\377\356\236\203v1YJ\226\255"
ARM GAS  /tmp/cc66EJ1o.s 			page 14


 185      1DA6E16E 
 185      FFEE9E83 
 185      7631594A 
 185      96AD
 186 0151 09ED7619 		.ascii	"\011\355v\031\222\227\244\244\011v\014\22441\250\225"
 186      9297A4A4 
 186      09760C94 
 186      3431A895 
 187 0161 92DF3CD8 		.ascii	"\222\337<\330p1]L\223\222\353N^\010\246+\311PE\361\204"
 187      70315D4C 
 187      9392EB4E 
 187      5E08A62B 
 187      C95045F1 
 188 0176 AFF59029 		.ascii	"\257\365\220)(\314P7P\330\314`\247\024\256]\323[-\304"
 188      28CC5037 
 188      50D8CC60 
 188      A714AE5D 
 188      D35B2DC4 
 189 018a 4C29BCF7 		.ascii	"L)\274\367\273\342rCX\257\227j-\260k\240\244\205A=L"
 189      BBE27243 
 189      58AF976A 
 189      2DB06BA0 
 189      A485413D 
 190 019f A3ED774E 		.ascii	"\243\355wN<\276e\025oK\321M\245\025\207\035\231\353"
 190      3CBE6515 
 190      6F4BD14D 
 190      A515871D 
 190      99EB
 191 01b1 A5DECAE6 		.ascii	"\245\336\312\346\341\2507\220A\254w\277(.\223\205Ck"
 191      E1A83790 
 191      41AC77BF 
 191      282E9385 
 191      436B
 192 01c3 A864A75D 		.ascii	"\250d\247]\374QJ\366\265\377t\337lH~Y<\322\220\024\360"
 192      FC514AF6 
 192      B5FF74DF 
 192      6C487E59 
 192      3CD29014 
 193 01d8 CF8492D7 		.ascii	"\317\204\222\327\353\373*\235\226\000\305(\003\366B"
 193      EBFB2A9D 
 193      9600C528 
 193      03F642
 194 01e7 26EC81CC 		.ascii	"&\354\201\314\222h\220`\037X0\013yta\347\334\220\036"
 194      92689060 
 194      1F58300B 
 194      797461E7 
 194      DC901E
 195 01fa 89F8D113 		.ascii	"\211\370\321\023Z\327\376n\333\233 =\206\240\270\216"
 195      5AD7FE6E 
 195      DB9B203D 
 195      86A0B88E 
 196 020a 7EC71D1A 		.ascii	"~\307\035\032\220\367\255@&\331\201\\\342\220\253N\240"
 196      90F7AD40 
 196      26D9815C 
 196      E290AB4E 
 196      A0
 197 021b 9D2E8ACF 		.ascii	"\235.\212\317\010\271q\024\276j\243\361\303:F\216\307"
ARM GAS  /tmp/cc66EJ1o.s 			page 15


 197      08B97114 
 197      BE6AA3F1 
 197      C33A468E 
 197      C7
 198 022c 5200C6D1 		.ascii	"R\000\306\321\230|\242M\240\217\2114\234$\2273$\312"
 198      987CA24D 
 198      A08F8934 
 198      9C249733 
 198      24CA
 199 023e 649A9822 		.ascii	"d\232\230\"'\246\312\211L\002\234N\2633\350\203\261"
 199      27A6CA89 
 199      4C029C4E 
 199      B333E883 
 199      B1
 200 024f FB48BB4E 		.ascii	"\373H\273Nca\316\361Kt\203oU\370\366\021Av\240\255U"
 200      6361CEF1 
 200      4B74836F 
 200      55F8F611 
 200      4176A0AD 
 201 0264 C1C6331A 		.ascii	"\301\3063\032\245\226\220\216z\322\334\262\314Q\003"
 201      A596908E 
 201      7AD2DCB2 
 201      CC5103
 202 0273 D54BC878 		.ascii	"\325K\310xgP\330\374B\203\357\3105\270\330u\350\306"
 202      6750D8FC 
 202      4283EFC8 
 202      35B8D875 
 202      E8C6
 203 0285 3EE1FE1D 		.ascii	">\341\376\035El?\324@\237\314Yh\000\267\037\325\020"
 203      456C3FD4 
 203      409FCC59 
 203      6800B71F 
 203      D510
 204 0297 6E7DCFB9 		.ascii	"n}\317\271(\356\220@\033o\372\3524\0022\303\001\011"
 204      28EE9040 
 204      1B6FFAEA 
 204      340232C3 
 204      0109
 205 02a9 44150EDF 		.ascii	"D\025\016\337\023\220\035\201\032\0174\034\332~\214"
 205      13901D81 
 205      1A0F341C 
 205      DA7E8C
 206 02b8 505AD705 		.ascii	"PZ\327\005\337\021\371\222Y P}\021T\010\257\006\237"
 206      DF11F992 
 206      5920507D 
 206      115408AF 
 206      069F
 207 02ca 7C5AE1D7 		.ascii	"|Z\341\327O\350\230v\032\034|y\014\017A\246\214[\277"
 207      4FE89876 
 207      1A1C7C79 
 207      0C0F41A6 
 207      8C5BBF
 208 02dd 154CECC3 		.ascii	"\025L\354\303`\211p\030\2609\264\275\354)\254\305\300"
 208      60897018 
 208      B039B4BD 
 208      EC29ACC5 
 208      C0
ARM GAS  /tmp/cc66EJ1o.s 			page 16


 209 02ee FD8B56F9 		.ascii	"\375\213V\371\300\325\215\225\227\000#\034\242E1P\017"
 209      C0D58D95 
 209      9700231C 
 209      A2453150 
 209      0F
 210 02ff 8323A403 		.ascii	"\203#\244\003\032\301\342\027\343\373;\327.\325\264"
 210      1AC1E217 
 210      E3FB3BD7 
 210      2ED5B4
 211 030e D53EB96F 		.ascii	"\325>\271oWC\332O\225\275\276\356q\263\325p\323\260"
 211      5743DA4F 
 211      95BDBEEE 
 211      71B3D570 
 211      D3B0
 212 0320 A0488326 		.ascii	"\240H\203&4\343\250\341\246m\247\037\366j\356Z=\260"
 212      34E3A8E1 
 212      A66DA71F 
 212      F66AEE5A 
 212      3DB0
 213 0332 44BFFAA8 		.ascii	"D\277\372\250v\304\273A\341\200c\322_\\\251\202\343"
 213      76C4BB41 
 213      E18063D2 
 213      5F5CA982 
 213      E3
 214 0343 E066D7C1 		.ascii	"\340f\327\301\207\016y\012d\217\264\224]\203\300\031"
 214      870E790A 
 214      648FB494 
 214      5D83C019 
 215 0353 FFFAB2D1 		.ascii	"\377\372\262\3214\343\027N*\272\342\326z\251\331\004"
 215      34E3174E 
 215      2ABAE2D6 
 215      7AA9D904 
 216 0363 00CD8697 		.ascii	"\000\315\206\227\302hA\037\010\224\017\235ovIqU\353"
 216      C268411F 
 216      08940F9D 
 216      6F764971 
 216      55EB
 217 0375 C7224F42 		.ascii	"\307\"OB\351\264\333\012\034N\310\335an\242\344\301"
 217      E9B4DB0A 
 217      1C4EC8DD 
 217      616EA2E4 
 217      C1
 218 0386 BDC3647E 		.ascii	"\275\303d~\3731]0\342\007\302\217+\322\225\032W\177"
 218      FB315D30 
 218      E207C28F 
 218      2BD2951A 
 218      577F
 219 0398 7B9DD2DE 		.ascii	"{\235\322\336\206\206\236K\332\342\347\3722i\233\263"
 219      86869E4B 
 219      DAE2E7FA 
 219      32699BB3 
 220 03a8 046568FA 		.ascii	"\004eh\372nkG\223=n\263\013Z`1\2344l\376b\377\256\022"
 220      6E6B4793 
 220      3D6EB30B 
 220      5A60319C 
 220      346CFE62 
 221 03bf 2BDA4C4F 		.ascii	"+\332LO\007\266\306t8%-\026*\254\307J\317m\210.\367"
ARM GAS  /tmp/cc66EJ1o.s 			page 17


 221      07B6C674 
 221      38252D16 
 221      2AACC74A 
 221      CF6D882E 
 222 03d4 02656D2B 		.ascii	"\002em+\270\373\220\034\272\3754:\003M\277\350\3770"
 222      B8FB901C 
 222      BAFD343A 
 222      034DBFE8 
 222      FF30
 223 03e6 CEE85529 		.ascii	"\316\350U)\264%\2410\233\030\234\351\317`\305\331\303"
 223      B425A130 
 223      9B189CE9 
 223      CF60C5D9 
 223      C3
 224 03f7 652E85A8 		.ascii	"e.\205\250\317\012\212ap\026\32528\007\213\311\247\017"
 224      CF0A8A61 
 224      7016D532 
 224      38078BC9 
 224      A70F
 225 0409 00D0E31C 		.ascii	"\000\320\343\034\310mb\365!/:\316\314\246S\321\265/"
 225      C86D62F5 
 225      212F3ACE 
 225      CCA653D1 
 225      B52F
 226 041b 6FABF112 		.ascii	"o\253\361\022\261\024X\265'a5\213X\235O\346\227\277"
 226      B11458B5 
 226      2761358B 
 226      589D4FE6 
 226      97BF
 227 042d 51555C20 		.ascii	"QU\\ \267\230\311-\035TV\343U}>\277fN\221\302\277\207"
 227      B798C92D 
 227      1D5456E3 
 227      557D3EBF 
 227      664E91C2 
 228 0443 A2D03904 		.ascii	"\242\3209\004\005\001?\304\"\363#Q\320$\205p\352\024"
 228      05013FC4 
 228      22F32351 
 228      D0248570 
 228      EA14
 229 0455 2E0E45E1 		.ascii	".\016E\341\322\220\024.\023\005\013Q\350\212Q\370\255"
 229      D290142E 
 229      13050B51 
 229      E88A51F8 
 229      AD
 230 0466 B8BB66AE 		.ascii	"\270\273f\256A\341\205.\365\016K\326\246\004\374G\252"
 230      41E1852E 
 230      F50E4BD6 
 230      A604FC47 
 230      AA
 231 0477 D108E90A 		.ascii	"\321\010\351\012\270S \1775\011\371=2\267\257%\313\254"
 231      B853207F 
 231      3509F93D 
 231      32B7AF25 
 231      CBAC
 232 0489 6AA0D4BA 		.ascii	"j\240\324\272.S\353\006\246\226\344\375K\352\274oJ\005"
 232      2E53EB06 
 232      A696E4FD 
ARM GAS  /tmp/cc66EJ1o.s 			page 18


 232      4BEABC6F 
 232      4A05
 233 049b 56E27D2B 		.ascii	"V\342}+%\336\335C\362\276=4\357;\222\367O\212\367\252"
 233      25DEDD43 
 233      F2BE3D34 
 233      EF3B92F7 
 233      4F8AF7AA 
 234 04af FAC85A73 		.ascii	"\372\310Zsj\274MpW*\260\021\357\377R\344\200\332\\\250"
 234      6ABC4D70 
 234      572AB011 
 234      EFFF52E4 
 234      80DA5CA8 
 235 04c3 BE451840 		.ascii	"\276E\030@\033\257<\275\226&\216\200\3543\315\347\227"
 235      1BAF3CBD 
 235      96268E80 
 235      EC33CDE7 
 235      97
 236 04d4 2E711AA7 		.ascii	".q\032\247{d\2510Nw\015z\006\237\014\3603dR5\274\210"
 236      7B64A930 
 236      4E770D7A 
 236      069F0CF0 
 236      33645235 
 237 04ea D6153CD0 		.ascii	"\326\025<\320d\025'\025\332\245\233\325u\332 4\023\374"
 237      64152715 
 237      DAA59BD5 
 237      75DA2034 
 237      13FC
 238 04fc 9200ED1E 		.ascii	"\222\000\355\036\241Q'\364W-\355<P\376\255s\300q\261"
 238      A15127F4 
 238      572DED3C 
 238      50FEAD73 
 238      C071B1
 239 050f A2D5437B 		.ascii	"\242\325C{H\253q\336\230\006\037\032\367\345\241\021"
 239      48AB71DE 
 239      98061F1A 
 239      F7E5A111 
 240 051f A696350A 		.ascii	"\246\2265\012\321\024=.\3731\311\305\006\367\372\015"
 240      D1143D2E 
 240      FB31C9C5 
 240      06F7FA0D 
 241 052f 10A424B4 		.ascii	"\020\244$\264\274\311.z\025\351\232m\373z \201\013\036"
 241      BCC92E7A 
 241      15E99A6D 
 241      FB7A2081 
 241      0B1E
 242 0541 2420DD4B 		.ascii	"$ \335K8w p\365|K\353[\011\010\367\306\310\232\007\223"
 242      38772070 
 242      F57C4BEB 
 242      5B0908F7 
 242      C6C89A07 
 243 0556 7D28C93E 		.ascii	"}(\311>\302\317A\311\364Z\204[\344:<\306\310\2431A\361"
 243      C2CF41C9 
 243      F45A845B 
 243      E43A3CC6 
 243      C8A33141 
 244 056b BA3C3A2C 		.ascii	"\272<:,, \217\216\320A\2734d/y\315%\317\217\372\216"
 244      2C208F8E 
ARM GAS  /tmp/cc66EJ1o.s 			page 19


 244      D041BB34 
 244      642F79CD 
 244      25CF8FFA 
 245 0580 76A1BAF5 		.ascii	"v\241\272\365\350\024\222\363I\222\344\374\204r\363"
 245      E81492F3 
 245      4992E4FC 
 245      8472F3
 246 058f 69B28EF0 		.ascii	"i\262\216\360'r\310\257\261\276\370\233<;\243\336<\352"
 246      2772C8AF 
 246      B1BEF89B 
 246      3C3BA3DE 
 246      3CEA
 247 05a1 AB5DE112 		.ascii	"\253]\341\022O\2257\033[\367or%\360\346\377\022x\363"
 247      4F95371B 
 247      5BF76F72 
 247      25F0E6FF 
 247      1278F3
 248 05b4 1919335A 		.ascii	"\031\0313Z&TG\213\313@\373\271\274\354\250M\364)\264"
 248      2654478B 
 248      CB40FBB9 
 248      BCECA84D 
 248      F429B4
 249 05c7 75958737 		.ascii	"u\225\20779\022\240=O\200\326\247\322\023\023\352+L"
 249      3912A03D 
 249      4F80D6A7 
 249      D21313EA 
 249      2B4C
 250 05d9 A8B38313 		.ascii	"\250\263\203\023\252\243\035Op\334Ez\215(i\203\243\024"
 250      AAA31D4F 
 250      70DC457A 
 250      8D286983 
 250      A314
 251 05eb 9151D239 		.ascii	"\221Q\3229\372u,\342)\202*\213\236\365O\251>\032\310"
 251      FA752CE2 
 251      29822A8B 
 251      9EF54FA9 
 251      3E1AC8
 252 05fe ECBD0C2A 		.ascii	"\354\275\014*\014cd\006\216\215\355\330C\204\306H\363"
 252      0C636406 
 252      8E8DEDD8 
 252      4384C648 
 252      F3
 253 060f 7E6C196E 		.ascii	"~l\031n\230\227\212\177\226\360\230\177\342\000\251"
 253      98978A7F 
 253      96F0987F 
 253      E200A9
 254 061e B8C4C763 		.ascii	"\270\304\307c\025k\000\020f\334\006\037WW\236\266\350"
 254      156B0010 
 254      66DC061F 
 254      57579EB6 
 254      E8
 255 062f B93F86F8 		.ascii	"\271?\206\370\253\013\216\306\032\205\220yvy\245Y\255"
 255      AB0B8EC6 
 255      1A859079 
 255      7679A559 
 255      AD
 256 0640 4EECD786 		.ascii	"N\354\327\206@6 W\242\006\344\347\261\006\024\340n\025"
ARM GAS  /tmp/cc66EJ1o.s 			page 20


 256      40362057 
 256      A206E4E7 
 256      B10614E0 
 256      6E15
 257 0652 901EC347 		.ascii	"\220\036\303G\223\244\216\211/\372h\222\272\017]^i\344"
 257      93A48E89 
 257      2FFA6892 
 257      BA0F5D5E 
 257      69E4
 258 0664 73C6C076 		.ascii	"s\306\300v7\233%\323& \310c\307\313R.\257t\372\254x"
 258      379B25D3 
 258      2620C863 
 258      C7CB522E 
 258      AF74FAAC 
 259 0679 A964485B 		.ascii	"\251dH[\254Q[\302]\017\014[\306\275\232-\305q[\226q"
 259      AC515BC2 
 259      5D0F0C5B 
 259      C6BD9A2D 
 259      C5715B96 
 260 068e B7F25551 		.ascii	"\267\362UQ\314W\343\014_\331\230O]\006+V\214B\371\336"
 260      CC57E30C 
 260      5FD9984F 
 260      5D062B56 
 260      8C42F9DE 
 261 06a2 9D8FD65B 		.ascii	"\235\217\326[\204O]\220\357<\373\336j\204\353\327\226"
 261      844F5D90 
 261      EF3CFBDE 
 261      6A84EBD7 
 261      96
 262 06b3 91B19658 		.ascii	"\221\261\226X\302_z\365^\316U\232\242\356\025\330\036"
 262      C25F7AF5 
 262      5ECE559A 
 262      A2EE15D8 
 262      1E
 263 06c4 96F3583A 		.ascii	"\226\363X:\325\234\0224\225b\377.\215\247S\034 \225"
 263      D59C1234 
 263      9562FF2E 
 263      8DA7531C 
 263      2095
 264 06d6 96FDB962 		.ascii	"\226\375\271b\220\264e\237\272\355\241=\244HRN\330\262"
 264      90B4659F 
 264      BAEDA13D 
 264      A448524E 
 264      D8B2
 265 06e8 BFA04B05 		.ascii	"\277\240K\005\224Q}M@:\312$.-,\215\346&\015>\3577H\261"
 265      94517D4D 
 265      403ACA24 
 265      2E2D2C8D 
 265      E6260D3E 
 266 0700 4B9773D5 		.ascii	"K\227s\325\245\327\234o\201\004\024\313c\364\254\203"
 266      A5D79C6F 
 266      810414CB 
 266      63F4AC83 
 267 0710 E955487A 		.ascii	"\351UHz+y\342&m\223\353\360%\247&=!\332\244\355\324"
 267      2B79E226 
 267      6D93EBF0 
 267      25A7263D 
ARM GAS  /tmp/cc66EJ1o.s 			page 21


 267      21DAA4ED 
 268 0725 A4F1FEEA 		.ascii	"\244\361\376\352\300$\262\336|\037?m\270\234\241\255"
 268      C024B2DE 
 268      7C1F3F6D 
 268      B89CA1AD 
 269 0735 EECC7900 		.ascii	"\356\314y\000#\320B\353\216\216<\374\242\331IZi']m\323"
 269      23D042EB 
 269      8E8E3CFC 
 269      A2D9495A 
 269      69275D6D 
 270 074a 58693313 		.ascii	"Xi3\023\2626\216\357\374=\375\302\362\213)~!\374b\262"
 270      B2368EEF 
 270      FC3DFDC2 
 270      F28B297E 
 270      21FC62B2 
 271 075e B47A5FB4 		.ascii	"\264z_\2648\246\250\342x\346Q{\246&\271\012\360D\265"
 271      38A6A8E2 
 271      78E6517B 
 271      A626B90A 
 271      F044B5
 272 0771 F1F7786D 		.ascii	"\361\367xmT\032\265\221.\221emL\225\344\035\254\274"
 272      541AB591 
 272      2E91656D 
 272      4C95E41D 
 272      ACBC
 273 0783 8D81FA75 		.ascii	"\215\201\372u\"\025\012\246\006r\017WG\315\343\335B"
 273      22150AA6 
 273      06720F57 
 273      47CDE3DD 
 273      42
 274 0794 A99F3CA8 		.ascii	"\251\237<\250l\022(6AU\274l\376\241\312\346\007\377"
 274      6C122836 
 274      4155BC6C 
 274      FEA1CAE6 
 274      07FF
 275 07a6 470A415A 		.ascii	"G\012AZ(\257\373\334/\034v\354\230S\323V_\031\217q\364"
 275      28AFFBDC 
 275      2F1C76EC 
 275      9853D356 
 275      5F198F71 
 276 07bb 8B11349C 		.ascii	"\213\0214\234\222Vz%\017\2119\311\253\250\275*\334\327"
 276      92567A25 
 276      0F8939C9 
 276      ABA8BD2A 
 276      DCD7
 277 07cd 9EDA4F   		.ascii	"\236\332O"
 278 07d0 63015FC5 		.ascii	"c\001_\305\015\377\232\273cfD|\232\"\221\371*f\010X"
 278      0DFF9ABB 
 278      6366447C 
 278      9A2291F9 
 278      2A660858 
 279 07e4 C56357C0 		.ascii	"\305cW\300od'\363U]s\245Heu\034\243\232\250d\252\273"
 279      6F6427F3 
 279      555D73A5 
 279      4865751C 
 279      A39AA864 
 280 07fa 7C64B739 		.ascii	"|d\2679\021\220\321\3512\023!}\0337\252\206\307~\025"
ARM GAS  /tmp/cc66EJ1o.s 			page 22


 280      1190D1E9 
 280      3213217D 
 280      1B37AA86 
 280      C77E15
 281 080d D437ED49 		.ascii	"\3247\355I\350\035[r\263\326\304)\255\215\001U\205\233"
 281      E81D5B72 
 281      B3D6C429 
 281      AD8D0155 
 281      859B
 282 081f 6EA4E666 		.ascii	"n\244\346f\023\254\213\207y=\001\011\345\346\343G\215"
 282      13AC8B87 
 282      793D0109 
 282      E5E6E347 
 282      8D
 283 0830 6C99FE52 		.ascii	"l\231\376R7\313\353\3050\302\332\020\307\332h\234\032"
 283      37CBEBC5 
 283      30C2DA10 
 283      C7DA689C 
 283      1A
 284 0841 16853203 		.ascii	"\026\2052\003\201\014\354*\030\300\360e\250\233\342"
 284      810CEC2A 
 284      18C0F065 
 284      A89BE2
 285 0850 A89B89E1 		.ascii	"\250\233\211\341\014By\270\253uO\324\373\257zo\332\302"
 285      0C4279B8 
 285      AB754FD4 
 285      FBAF7A6F 
 285      DAC2
 286 0862 13DF9BD2 		.ascii	"\023\337\233\322\350\336\264\225'\2717\315&\016\333"
 286      E8DEB495 
 286      27B937CD 
 286      260EDB
 287 0871 38DE9BEC 		.ascii	"8\336\233\354Da;\247\337\021]'\266n\027\352\177\004"
 287      44613BA7 
 287      DF115D27 
 287      B66E17EA 
 287      7F04
 288 0883 117CD261 		.ascii	"\021|\322a\007W\377'p\321\377\011\356R\361\311\347>"
 288      0757FF27 
 288      70D1FF09 
 288      EE52F1C9 
 288      E73E
 289 0895 1E20751A 		.ascii	"\036 u\032gl\354\314\231n\365WP\350\366x\335\205\236"
 289      676CECCC 
 289      996EF557 
 289      50E8F678 
 289      DD859E
 290 08a8 6C77F6FC 		.ascii	"lw\366\374\"\357\314l&\212\274\213\3149\271yY\237Y\212"
 290      22EFCC6C 
 290      268ABC8B 
 290      CC39B979 
 290      599F598A 
 291 08bc BC1F7D9C 		.ascii	"\274\037}\234\237-\026eyh\302\233\005\213f\365\227\233"
 291      9F2D1665 
 291      7968C29B 
 291      058B66F5 
 291      979B
ARM GAS  /tmp/cc66EJ1o.s 			page 23


 292 08ce 9F95E75E 		.ascii	"\237\225\347^T\340\361\026\272\337\377`\316\254\267"
 292      54E0F116 
 292      BADFFF60 
 292      CEACB7
 293 08dd DDEFBDF7 		.ascii	"\335\357\275\367W\367\007\357\316)z\213V\346\025z\347"
 293      57F707EF 
 293      CE297A8B 
 293      56E6157A 
 293      E7
 294 08ee E5E5E5CC 		.ascii	"\345\345\345\314\234\317D~\301'\023\007\350[\220\237"
 294      9CCF447E 
 294      C1271307 
 294      E85B909F 
 295 08fe 9DF7714E 		.ascii	"\235\367qN\256\3229\237\271\373/g\027,\\X\220o \377"
 295      AED2399F 
 295      B9FB2F67 
 295      172C5C58 
 295      906F20FF 
 296 0912 79EE9CBF 		.ascii	"y\356\234\277\314\371\024\367e\027xr\347y\027,\314\365"
 296      CCF914F7 
 296      65177872 
 296      E779172C 
 296      CCF5
 297 0924 E07EADF0 		.ascii	"\340~\255\360\263Bz\267.\310\367\346z\212\262\3622\222"
 297      B3427AB7 
 297      2EC8F7E6 
 297      7A8AB2F2 
 297      3292
 298 0936 E2D33694 		.ascii	"\342\3236\2240\321\267\271\320\233\345\361\212\334\374"
 298      30D1B7B9 
 298      D09BE5F1 
 298      8ADCFC
 299 0945 1C574E6E 		.ascii	"\034WNnVN\336\202\374\334y\322\260\377\003\227\346>"
 299      564EDE82 
 299      FCDC79D2 
 299      B0FF0397 
 299      E63E
 300 0957 A0       		.ascii	"\240"
 301              		.text
 302              		.section	.gnu.lto_chVTDoResetI.1f2851e71136c5,"",%progbits
 303 0000 789C8D54 		.ascii	"x\234\215TKOSA\024\2363sooi\013\351\312\005\201\210"
 303      4B4F5341 
 303      149E3373 
 303      6F6F690B 
 303      E9CA0581 
 304 0015 0B4258C8 		.ascii	"\013BX\310\015q\243\013\023\177\201\211\376\003\003"
 304      0D71A30B 
 304      137F8189 
 304      FE0303
 305 0024 242E8C18 		.ascii	"$.\214\030hp\311\320\333*D\342c!\021\203!F\021\212\362"
 305      6870C9D0 
 305      DB2A44E2 
 305      63211183 
 305      2146118A 
 306 0039 52408A8A 		.ascii	"R@\212\212\025A\020yH\210!\006\026\242@\010Q\241\021"
 306      15411079 
 306      48882106 
ARM GAS  /tmp/cc66EJ1o.s 			page 24


 306      16A24008 
 306      51A111
 307 004c 7405F59C 		.ascii	"t\005\365\234\271%\255<b'\355<\317\371\346;\3379s5\006"
 307      B925AD3C 
 307      6227ED3C 
 307      CFF9E63B 
 307      DF397335 
 308 0061 8CDA1D9D 		.ascii	"\214\332\035\2351\023\307\323\370\007\203\001\2779\311"
 308      3113C7D3 
 308      F8078301 
 308      BF39C9
 309 0070 58959373 		.ascii	"X\225\223s\321=\310\230t\351\363n&=\202k\366\322\241"
 309      D13DC898 
 309      74E9F36E 
 309      263D826B 
 309      F6D2A1
 310 0083 961A386C 		.ascii	"\226\0328l3\335\236\200\003\200F\351\004V\311\205\246"
 310      33DD9E80 
 310      038046E9 
 310      0456C985 
 310      A6
 311 0094 3BA01236 		.ascii	";\240\0226\371\026\207\301\253\313a\236\337,\261}YZ"
 311      F91687C1 
 311      ABCB619E 
 311      DF2CB17D 
 311      595A
 312 00a6 2D942D11 		.ascii	"-\224-\021\010\012\306b\\]\316\240\031\362\321j:\320"
 312      080AC662 
 312      5C5DCEA0 
 312      19F2D16A 
 312      3AD0
 313 00b8 D9203678 		.ascii	"\331 6xP\000h\270\214N\334\375\226AK\0169\270l^\\\236"
 313      500068B8 
 313      8C4EDCFD 
 313      96414B0E 
 313      39B86C5E 
 314 00ce 35443630 		.ascii	"5D60\234\207\006\302\303iyMR\372\245\254/\221iA!\240"
 314      9C8706C2 
 314      C369794D 
 314      52FAA5AC 
 314      2F916941 
 315 00e4 1504E241 		.ascii	"\025\004\342A\010\262\240\005\262\030n1x\014yd\2762"
 315      08B2A005 
 315      B2186E31 
 315      780C7964 
 315      BE32
 316 00f6 FA7BC929 		.ascii	"\372{\311)\216(\327G\265\267\006<\271\017\3105\3228"
 316      8E28D747 
 316      B5B7063C 
 316      B90FC835 
 316      D238
 317 0108 955D2F23 		.ascii	"\225]/#\201\234\240\320\340\311\277\356\324\320\272"
 317      819CA0D0 
 317      E0C9BFEE 
 317      D4D0BA
 318 0117 35D4B09C 		.ascii	"5\324\260\234!\362\224g\264gf8\315\366\2243\305\262"
 318      21F29467 
ARM GAS  /tmp/cc66EJ1o.s 			page 25


 318      B4676638 
 318      CDF69433 
 318      C5B2
 319 0129 E614B9B5 		.ascii	"\346\024\271\265\357\353\366\265k\373v\272#@\361\346"
 319      EFEBF6B5 
 319      6BFB76BA 
 319      2340F1E6 
 320 0139 D4208F0E 		.ascii	"\324 \217\016\310\2056\310\265\003\206N\024\012\307"
 320      C88536C8 
 320      B503864E 
 320      140AC7
 321 0148 8EB31119 		.ascii	"\216\263\021\031\213Y22\233\361\271\257\327\345\345"
 321      8B593232 
 321      9BF1B9AF 
 321      D7E5E5
 322 0157 C4196347 		.ascii	"\304\031cG\322\032Mu\352\014\352\\\330\351n\352<\324"
 322      D21A4D75 
 322      EA0CEA5C 
 322      D8E96EEA 
 322      3CD4
 323 0169 31B68E38 		.ascii	"1\266\2168\244t\224s\032\3052\370\373\243?,\235\240"
 323      A4749473 
 323      1AC532F8 
 323      FBA33F2C 
 323      9DA0
 324 017b 2D418AD7 		.ascii	"-A\212\327\005\007\247\014\022\317\241\270\207\303\337"
 324      0507A70C 
 324      12CFA1B8 
 324      87C3DF
 325 018a E78CCA2D 		.ascii	"\347\214\312-Y-\245\027\367j\004(\236\253\343\237\206"
 325      592DA517 
 325      F76A0428 
 325      9EABE39F 
 325      86
 326 019b 5C8D70AF 		.ascii	"\\\215p\257J\252}\003\236b\306\272(\016<\274\336\327"
 326      4AAA7D03 
 326      9E62C6BA 
 326      280E3CBC 
 326      DED7
 327 01ad 59E334DB 		.ascii	"Y\3434\333(\010y,(\234\360\014\032a\233\307C\034\256"
 327      2808792C 
 327      289CF00C 
 327      1A619BC7 
 327      431CAE
 328 01c0 9D7EB873 		.ascii	"\235~\270sz\206\364\357\006s\233S\\\320\003&[\200\300"
 328      7A86F4EF 
 328      06739B53 
 328      5CD00326 
 328      5B80C0
 329 01d3 9C9519E7 		.ascii	"\234\225\031\347ca.\250E\271`X@6\335\237\226\260\217"
 329      63612EA8 
 329      45B96058 
 329      4036DD9F 
 329      96B08F
 330 01e6 B564BA42 		.ascii	"\265d\272B\321\37532V\355A^X%i\350\014\275qJM\213\376"
 330      D1FD3332 
 330      56ED415E 
ARM GAS  /tmp/cc66EJ1o.s 			page 26


 330      582569E8 
 330      0CBD714A 
 331 01fd 76C33C4A 		.ascii	"v\303<Jf\317\025\031\245g\037\336G\220\367\263m@=5\204"
 331      66CF1519 
 331      A5671FDE 
 331      4790F7B3 
 331      6D403D35 
 332 0212 B0422066 		.ascii	"\260B f\320o#\324-\034\"\204$w\022F\236d\012D\333\017"
 332      D06F23D4 
 332      2D1C2284 
 332      24771246 
 332      9E640A44 
 333 0228 E44502E4 		.ascii	"\344E\002\344%\230x\267b\322\265\266\023\234\221\032"
 333      259878B7 
 333      62D2B5B6 
 333      139C911A 
 334 0238 97570998 		.ascii	"\227W\011\230\201T\270\030\373\201\274NH\022!.\032\341"
 334      8154B818 
 334      FB81BC4E 
 334      4812212E 
 334      1AE1
 335 024a 6CACAFFD 		.ascii	"l\254\257\375\022\373!\025\262\203\350\270\340\215B"
 335      12FB2115 
 335      B283E8B8 
 335      E08D42
 336 0259 D2086910 		.ascii	"\322\010i\020\314\344\374\270\200\301[tP\371\015\035"
 336      CCE4FCB8 
 336      80C15B74 
 336      50F90D1D 
 337 0269 4E04996A 		.ascii	"N\004\231j\205\015\035Pa'\250\302\206\223+\354\332\307"
 337      850D1D50 
 337      6127A8C2 
 337      86932BEC 
 337      DAC7
 338 027b 811B1936 		.ascii	"\201\033\0316\"\325\237\033\336\2412\014F\2402^L\032"
 338      22D59F1B 
 338      DEA1320C 
 338      46A0325E 
 338      4C1A
 339 028d 0B1FB76B 		.ascii	"\013\037\267ki\3232l&\256=r\357VJ\335\346\245\247;\252"
 339      69D3326C 
 339      26AE3D72 
 339      EF564ADD 
 339      E6A5A73B 
 340 02a2 2ED329C8 		.ascii	".\323)\310\367;\025\024\017\310\235J\3264\030K |P\010"
 340      F73B1514 
 340      0FC89D4A 
 340      D634184B 
 340      207C5008 
 341 02b6 56DD95A1 		.ascii	"V\335\225\241x\342=H\006\201T*a\227\376\377c6\236\300"
 341      78E23D48 
 341      0681542A 
 341      6197FEFF 
 341      63369EC0 
 342 02ca 9DA0447A 		.ascii	"\235\240DzT\270:\233w\213\025\010x\011m\357\243\366"
 342      54B83A9B 
 342      778B1508 
ARM GAS  /tmp/cc66EJ1o.s 			page 27


 342      78096DEF 
 342      A3F6
 343 02dc C4E8F5C1 		.ascii	"\304\350\365\301$\312\203t\203\"]99\324\367a\025\374"
 343      24CA8374 
 343      83225D39 
 343      39D4F761 
 343      15FC
 344 02ee 5EFB53BB 		.ascii	"^\373S\273\216F\270\203\032g\026\024\230\366\257\264"
 344      8E46B883 
 344      1A671614 
 344      98F6AFB4 
 345 02fe DC2CF399 		.ascii	"\334,\363\231\345eEf\321\371\012_A\021\023\025\276K"
 345      E5654566 
 345      D1F90A5F 
 345      41111315 
 345      BE4B
 346 0310 7A71C905 		.ascii	"zq\311\005\3379\347\305\322\313j\362\027J\033\340_"
 346      DF39E7C5 
 346      D2CB6AF2 
 346      174A1BE0 
 346      5F
 347              		.text
 348              		.section	.gnu.lto_.symbol_nodes.1f2851e71136c5,"",%progbits
 349 0000 789C55CC 		.ascii	"x\234U\314+\016\002A\024D\321\333\365\272\2075\340\206"
 349      2B0E0241 
 349      1444D1DB 
 349      F5BA8735 
 349      E086
 350 0012 0DB0C5D7 		.ascii	"\015\260\305\327b\022\004\006\217\"!|\302\307!@\022"
 350      62120406 
 350      8F22217C 
 350      C2C72140 
 350      12
 351 0023 1214080C 		.ascii	"\022\024\010\014\033`\003\354\200\031\202\240K\236\233"
 351      1B6003EC 
 351      801982A0 
 351      4B9E9B
 352 0032 5424B0A3 		.ascii	"T$\260\243\235\016r\230\334\301\011\307f\226kHkQwm!"
 352      9D0E7298 
 352      DCC109C7 
 352      66966B48 
 352      6B51776D 
 353 0047 0FBFC629 		.ascii	"\017\277\306)\017ZY\312U\312Jn\205\204\275<~\005rw\027"
 353      0F5A59CA 
 353      55CA4A6E 
 353      8584BD3C 
 353      7E057277 
 354 005c B6F254C0 		.ascii	"\266\362T\300F^\375\203Q1\177\\\373F\342\362\226Y\217"
 354      465EFD83 
 354      51317F5C 
 354      FB46E2F2 
 354      96598F
 355 006f D7786856 		.ascii	"\327xhV\321Lo\262\010\347\321S|\0001~)B"
 355      D14C6FB2 
 355      08E7D153 
 355      7C00317E 
 355      2942
ARM GAS  /tmp/cc66EJ1o.s 			page 28


 356              		.text
 357              		.section	.gnu.lto_.refs.1f2851e71136c5,"",%progbits
 358 0000 789C1D8C 		.ascii	"x\234\035\214\301\015\2000\014\304\316\227\200\224\266"
 358      C10D8030 
 358      0CC4CE97 
 358      8094B6
 359 000f C09B91BA 		.ascii	"\300\233\221\272:SQ\365e\331\017\247\320\224\224\002"
 359      3A5351F5 
 359      65D90FA7 
 359      D0949402 
 360 001f 9B3087E8 		.ascii	"\2330\207\350\247Y\012\273-\006d\205(\323\240\303\200"
 360      A7590ABB 
 360      2D066485 
 360      28D3A0C3 
 360      80
 361 0030 CBDCE611 		.ascii	"\313\334\346\021/|\362\036P\372\001=\177\001\376"
 361      2F7CF21E 
 361      50FA013D 
 361      7F01FE
 362              		.text
 363              		.section	.gnu.lto_.decls.1f2851e71136c5,"",%progbits
 364 0000 789CB53B 		.ascii	"x\234\265;\013PTW\226}\337m\240i\032\314\252\233Jm1"
 364      0B505457 
 364      967DDF6D 
 364      A0691ACC 
 364      AA9B4A6D 
 365 0015 BBD914B3 		.ascii	"\273\331\024\263\262U\033\321\230I2\265\263\2731&\223"
 365      B2551BD1 
 365      984932B5 
 365      B3BB3126 
 365      93
 366 0026 C9D62433 		.ascii	"\311\326$3\203&\225\231\331\251\036\204V\230\341\027"
 366      83269599 
 366      D9A91E84 
 366      5698E117 
 367 0036 688DA9DA 		.ascii	"h\215\251\332\255i>*\340\007\220\237\362\021\024P\021"
 367      AD693E2A 
 367      E007909F 
 367      F2111450 
 367      11
 368 0047 50FE5FC1 		.ascii	"P\376_\301\026\025Q\001\021\024\344# \376\377 \312\377"
 368      16155101 
 368      1114E423 
 368      20FEFF20 
 368      CAFF
 369 0059 B3E77EBA 		.ascii	"\263\347~\272\337\353\346\265Z[;\035\017\357\235\367"
 369      DFEBE6B5 
 369      5A5B3B1D 
 369      0FEF9DF7 
 370 0069 CE3DFF7B 		.ascii	"\316=\377{\3379\367\275(\025HA~\276\037)\024\027\035"
 370      DF39F7BD 
 370      28154841 
 370      7EBE1F29 
 370      14171D
 371 007c 148A1382 		.ascii	"\024\212\023\202B1\017?;\270\366\015\000\006\350\007"
 371      42310F3F 
 371      3BB8F60D 
ARM GAS  /tmp/cc66EJ1o.s 			page 29


 371      0006E807 
 372 008c 1800A800 		.ascii	"\030\000\250\000 \324\035\360\007H\025\275p\354\007"
 372      20D41DF0 
 372      074815BD 
 372      70EC07
 373 009b B80D701F 		.ascii	"\270\015p\037\340!\300S\200\021\304\350\306\030k\363"
 373      E021C053 
 373      8011C4E8 
 373      C6186BF3 
 374 00ab 8FD02FE5 		.ascii	"\217\320/\345|\027+\330\371\005\316\367\012\3002\200"
 374      7C172BD8 
 374      F905CEF7 
 374      0AC03280 
 375 00bb 668071A0 		.ascii	"f\200q\240{\201D\271'\001&\000\277\016\260\012\364["
 375      7B8144B9 
 375      27012600 
 375      BF0EB00A 
 375      F45B
 376 00cd 093003E7 		.ascii	"\0110\003\347\357\303\361\011\034Up\277\211\353\325"
 376      EFC3F109 
 376      1C5570BF 
 376      89EBD5
 377 00dc 05C71680 		.ascii	"\005\307\026\200K\000\347\001z\000\376\005\350\324\\"
 377      4B00E701 
 377      7A00FE05 
 377      E8D45C
 378 00eb FE0702D3 		.ascii	"\376\007\002\323\363\247p\374W\200\177\003\370\004\340"
 378      F3A770FC 
 378      57807F03 
 378      F804E0
 379 00fa 73802F04 		.ascii	"s\200/\004\246?\034\024\277\021\026\352Olu\344\372K"
 379      A63F1C14 
 379      BF1116EA 
 379      4F6C75E4 
 379      FA4B
 380 010c 75BC20F1 		.ascii	"u\274 \361\3172n\213\235D\237k\000\235\\\027\304\371"
 380      CF326E8B 
 380      9D449F6B 
 380      009D5C17 
 380      C4F9
 381 011e C8F987F8 		.ascii	"\310\371\207\370q\211\015\377\020\037|m\345'\251/\254"
 381      71890DFF 
 381      101F7C6D 
 381      E527A92F 
 381      AC
 382 012f 7D66F28D 		.ascii	"}f\362\215\023\234_\344\376 ~0\351\324\303\365j\342"
 382      139C5FE4 
 382      FE207E30 
 382      E9D4C3F5 
 382      6AE2
 383 0141 FE3ACF75 		.ascii	"\376:\317uTs=\244\376!\276Y+\260\270~b\345\247\337\313"
 383      54733DA4 
 383      FE21BE59 
 383      2BB0B87E 
 383      62E5A7DF 
 384 0156 F889E482 		.ascii	"\370\211\344\202\213\015;\226Y\371\256\231\333Ft\376"
 384      8B0D3B96 
ARM GAS  /tmp/cc66EJ1o.s 			page 30


 384      59F9AE99 
 384      DB4674FE 
 385 0166 2FE0D503 		.ascii	"/\340\325\003\327\355\255b\331$\211\247\300\371\367"
 385      D7EDAD62 
 385      D92489A7 
 385      C0F9F7
 386 0175 BE244EB3 		.ascii	"\276$N\263\002\032iI\275\351\362\\@K\325\350m@Sk\237"
 386      021A6949 
 386      BDE9F25C 
 386      404BD5E8 
 386      6D40536B 
 387 018a 5FB00374 		.ascii	"_\260\003t\261\032\251\000\275\034Y\224\216\031\252"
 387      B11AA900 
 387      BD1C5994 
 387      8E19AA
 388 0199 04F45ED3 		.ascii	"\004\364^\323\330m\025\026\020\031x\275)/\237\334Z\246"
 388      D86D1516 
 388      101978BD 
 388      292F9FDC 
 388      5AA6
 389 01ab 46641A2C 		.ascii	"Fd\032,\202K\307\037UO:\263K\204b`\362\310\317\227\027"
 389      824BC71F 
 389      554F3AB3 
 389      4B846260 
 389      F2C8CF97 
 390 01c0 18E01767 		.ascii	"\030\340\027g0\010o\2112\333c\237\3458\340\277!DB\343"
 390      30086F89 
 390      32DB639F 
 390      E538E0BF 
 390      214442E3 
 391 01d4 AED21227 		.ascii	"\256\322\022'\344\256>D\350\006's4\325\006\303\033\250"
 391      E4AE3E44 
 391      E8062773 
 391      34D506C3 
 391      1BA8
 392 01e6 08A9D131 		.ascii	"\010\251\3211\204Q!ZNRa\031qv\224\301\020n\210\2130"
 392      8451215A 
 392      4E526119 
 392      717694C1 
 392      106E888B 
 393 01fb 2C6E7251 		.ascii	",nrQ\240\303\310\025\345!W\005:\216\334\211<B\210\012"
 393      A0C3C815 
 393      E5215705 
 393      3A8EDC89 
 393      3C42880A 
 394 020f E0623E5C 		.ascii	"\340b>\\\004\021y9\361\007\355q8\2422\366\225\035\035"
 394      04117939 
 394      F107ED71 
 394      38A232F6 
 394      951D1D
 395 0222 579B6554 		.ascii	"W\233eT\306\274_@d\224\202\214bQ\006\210\264)\244D^"
 395      C6BC5F40 
 395      6494828C 
 395      62510688 
 395      B429A444 
 396 0237 C8D8F994 		.ascii	"\310\330\371\224|g|\207\011\311\331\363\324(\032\322"
 396      7C677C87 
ARM GAS  /tmp/cc66EJ1o.s 			page 31


 396      09C9D9F3 
 396      D4281AD2 
 397 0247 7DE9BF0F 		.ascii	"}\351\277\017l\005\253Q\005H)\023\245\224\276DJ\271"
 397      6C05AB51 
 397      05482913 
 397      A594BE44 
 397      4AB9
 398 0259 BC94AC86 		.ascii	"\274\224\254\206\033\357\342$\346\364\366\341\346\014"
 398      1BEFE224 
 398      E6F4F6E1 
 398      E60C
 399 0267 27168F37 		.ascii	"'\026\2177\000\275Q\320\020m\217S\331\275c\005\323E"
 399      00BD51D0 
 399      106D8F53 
 399      D9BD6305 
 399      D345
 400 0279 6A254419 		.ascii	"j%D\031}\255A\353\225\344\322\265\255W\366\013o%\323"
 400      7DAD41EB 
 400      95E4D2B5 
 400      AD57F60B 
 400      6F25D3
 401 028c 104418DE 		.ascii	"\020D\030\336V\242o\3364\213S\240Z\0041A5H\311\242b"
 401      56A26FDE 
 401      348B53A0 
 401      5A043141 
 401      3548C9A2 
 402 02a1 C834C40A 		.ascii	"\3104\304\012\232\030Q5B !?\2014\334\012 >R\231\230"
 402      9A185135 
 402      4220213F 
 402      8134DC0A 
 402      203E5299 
 403 02b6 EF8433A9 		.ascii	"\357\2043\251dawm\326)G\344\256a\246\027w\254\013\243"
 403      6461776D 
 403      D62947E4 
 403      AE61A617 
 403      77AC0BA3 
 404 02ca A69F8401 		.ascii	"\246\237\204\001u\242\3510\036\016\266\370\243z\260"
 404      75A2E930 
 404      1E0EB6F8 
 404      A37AB0
 405 02d9 DE42445C 		.ascii	"\336BD\\\337\344\011'\334\302\2143\226\325\224jp;CF"
 405      DFE40927 
 405      DCC28C33 
 405      96D5946A 
 405      703B4346 
 406 02ed 66322A1D 		.ascii	"f2*\035\231\027\226\002:;\020\027\347\300R8\013\001"
 406      99179602 
 406      3A3B1017 
 406      E7C05238 
 406      0B01
 407 02ff 5E98359A 		.ascii	"^\2305\232\201\361M>p\272\252W\203\357RD]\325\235\353"
 407      81F14D3E 
 407      70BAAA57 
 407      83EF5244 
 407      5DD59DEB 
 408 0313 8D96B8BB 		.ascii	"\215\226\270\273\271i\334\226\270\271\273\305\363\334"
 408      B969DC96 
ARM GAS  /tmp/cc66EJ1o.s 			page 32


 408      B8B9BBC5 
 408      F3DC
 409 0321 3420BD02 		.ascii	"4 \275\002\235\006E\032\210\"\247@\345F\264\204(\202"
 409      9D06451A 
 409      8822A740 
 409      E546B484 
 409      2882
 410 0333 5A41A926 		.ascii	"ZA\251&\344\206Z\000\316\003\\\002\270\210\334h\"Sk"
 410      E4865A00 
 410      CE035C02 
 410      B888DC68 
 410      22536B
 411 0346 8DD71BDD 		.ascii	"\215\327\033\335\014\006\025j\206\001gE[a<\034\016\022"
 411      0C06156A 
 411      86016745 
 411      5B613C1C 
 411      0E12
 412 0358 5B070752 		.ascii	"[\007\007R\376'\347\3606C\234\027\272\000\346\0319w"
 412      FE27E7F0 
 412      36439C17 
 412      BA00E619 
 412      3977
 413 036a B3DD1EC4 		.ascii	"\263\335\036\304\267+]M\344\306\311\016\327}\006c$\246"
 413      B72B5D4D 
 413      E4C6C90E 
 413      D77D0663 
 413      24A6
 414 037c 9973D49A 		.ascii	"\231s\324\232\372\0102\223K=\331,\241Q\0209\0123\277"
 414      FA083293 
 414      4B3DD92C 
 414      A1511039 
 414      0A33BF
 415 038f F9841F31 		.ascii	"\371\204\0371~\220\025g\254\331U\211\354\344\235q\016"
 415      7E901567 
 415      ACD95589 
 415      ECE49D71 
 415      0E
 416 03a0 1CF03ACE 		.ascii	"\034\360:\316`\262\306:4&;+e\355<L\344q\317\215&h\210"
 416      60B2C63A 
 416      34263B2B 
 416      65ED3C4C 
 416      E471CF8D 
 417 03b7 E788ABB8 		.ascii	"\347\210\253\270\333DF\323&'\220\034\252\226w\002\343"
 417      DB4446D3 
 417      2627901C 
 417      AA967702 
 417      E3
 418 03c8 0521CE3D 		.ascii	"\005!\316=5fT\343\275\230\306\273\342\316\371F5K\006"
 418      356654E3 
 418      BD98C6BB 
 418      E2CEF946 
 418      354B06
 419 03db 03498699 		.ascii	"\003I\206\231\222\302\031{|\234\335\214-\357\235Y\204"
 419      92C2197B 
 419      7C9CDD8C 
 419      2DEF9D59 
 419      84
ARM GAS  /tmp/cc66EJ1o.s 			page 33


 420 03ec AB2822CC 		.ascii	"\253(\"\314\217\335)W#\265\273\374d\274*3\031MS;\220"
 420      8FDD2957 
 420      23B5BBFC 
 420      64BC2A33 
 420      194D533B 
 421 0401 4DED2B10 		.ascii	"M\355+\020\240\016\353\251=+\330\267\207\267$;\"77\310"
 421      A00EEBA9 
 421      3D2BD8B7 
 421      87B7243B 
 421      223737C8 
 422 0415 B025A614 		.ascii	"\260%\246\024\370U\022K\001SP{m\004\225\231_\236\314"
 422      F855124B 
 422      0153507B 
 422      6D049599 
 422      5F9ECC
 423 0428 6366CA98 		.ascii	"cf\312\230\336\227eLU\247\205\327\027\322J\275^\232"
 423      DE97654C 
 423      55A785D7 
 423      17D24ABD 
 423      5E9A
 424 043a 4CBDDE2B 		.ascii	"L\275\336+\347\365\353\235\334\353\304\262vy-\031/\213"
 424      E7F5EB9D 
 424      DCEBC4B2 
 424      76792D19 
 424      2F8B
 425 044c 64B90C14 		.ascii	"d\271\014\024$\221P\033\037B\222\245\033\374\327\005"
 425      2491501B 
 425      1F4292A5 
 425      1BFCD705 
 426 045c 09720DA0 		.ascii	"\011r\015\240\023\240\207'\012D!\341B\311\003\007\334"
 426      13A08727 
 426      0A4421E1 
 426      42C90307 
 426      DC
 427 046d C0A26048 		.ascii	"\300\242`H\213;\347\214\334\227\230\326\216?\204\355"
 427      8B3BE78C 
 427      DC9798D6 
 427      8E3F84ED 
 428 047d 20BEED07 		.ascii	" \276\355\0076}\242o{\351|\222\227z\035$\275J*\341\007"
 428      367DA26F 
 428      7BE97C92 
 428      977A1D24 
 428      BD4A2AE1 
 429 0492 92F756D7 		.ascii	"\222\367V\327\267\250,\226\270~\213\2113\300&\0169\002"
 429      B7A82C96 
 429      B87E8B89 
 429      33C0260E 
 429      3902
 430 04a4 F593C8DB 		.ascii	"\365\223\310\333\203|\261}\013\320\371\373\335\331|"
 430      837CB17D 
 430      0BD0F9FB 
 430      DDD97C
 431 04b3 D5192666 		.ascii	"\325\031&f4d\325\374\010_c\211\365<\241g\300\005\367"
 431      3464D5FC 
 431      085F6389 
 431      F53CA167 
 431      C005F7
ARM GAS  /tmp/cc66EJ1o.s 			page 34


 432 04c6 32E47E61 		.ascii	"2\344~aG\007\306C\314\276=MOW\331L\262;6\223\254|`Y"
 432      4707C643 
 432      CCBE3D4D 
 432      4F57D94C 
 432      B23B3693 
 433 04de 1D7948DD 		.ascii	"\035yH\335\206H\334Z\230c\370Rd\331M\204`\021\213\347"
 433      8648DC5A 
 433      9863F852 
 433      64D94D84 
 433      60118BE7 
 434 04f2 8B3BF589 		.ascii	"\213;\365\211h\311]\356\220\373 \341\236t\216\016\246"
 434      68C95DEE 
 434      90FB20E1 
 434      9E748E0E 
 434      A6
 435 0503 DCFC630A 		.ascii	"\334\374c\012\313E\302\373&\360\276+\237\\,_Ft$]\356"
 435      CB45C2FB 
 435      26F0BE2B 
 435      9F5C2C5F 
 435      4674245D 
 436 0518 5AA60B59 		.ascii	"Z\246\013Y\203\263\357]\265\307\015JjdI\333x\0366\005"
 436      83B3EF5D 
 436      B5C70D4A 
 436      6A6449DB 
 436      781E3605 
 437 052c D138ED0C 		.ascii	"\3218\355\014\001|\004L\037\210\212\337\225\004\320"
 437      017C044C 
 437      1F888ADF 
 437      9504D0
 438 053b 4A59F410 		.ascii	"JY\364\020t\224\323\027\244\324V\236h\344\345\310\012"
 438      7494D317 
 438      A4D4569E 
 438      68E4E5C8 
 438      0A
 439 054c 40D3071A 		.ascii	"@\323\007\032\372y\010\316\320\311>\220\030\255\341"
 439      FA7908CE 
 439      D0C93E90 
 439      18ADE1
 440 055b 2B3FA94F 		.ascii	"+?\251O\222\357\264<s\304\035T)T\371$\277\322\231\021"
 440      92EFB43C 
 440      73C41D54 
 440      2954F924 
 440      BFD29911 
 441 056f 1BE923EB 		.ascii	"\033\351#\353N\372n\015\303?\002\364J[\177.\306\375"
 441      4EFA6E0D 
 441      C33F02F4 
 441      4A5B7F2E 
 441      C6FD
 442 0581 8CD69038 		.ascii	"\214\326\2208\235\351\214\3572k\322RN\326\331\331\214"
 442      9DE98CEF 
 442      326BD252 
 442      4ED6D9D9 
 442      8C
 443 0592 D998ED98 		.ascii	"\331\230\355\230ez\320\230\275\000\277>_\0303\324W\272"
 443      657AD098 
 443      BD00BF3E 
 443      5F1833D4 
ARM GAS  /tmp/cc66EJ1o.s 			page 35


 443      57BA
 444 05a4 EBB40A3F 		.ascii	"\353\264\012?e\022\363\307#\313\027\341qKU\227rU\247"
 444      6512F3C7 
 444      23CB17E1 
 444      714B5597 
 444      7255A7
 445 05b7 12AACB9D 		.ascii	"\022\252\313\235\360,\273y\346fG\223\035\216\260\243"
 445      F02CBB79 
 445      E6664793 
 445      1D8EB0A3 
 446 05c7 484DD289 		.ascii	"HM\322\211\307*\234\310\220S\263\335\351j\234\303\220"
 446      C72A9CC8 
 446      9053B3DD 
 446      E96A9CC3 
 446      90
 447 05d8 99DC4BD7 		.ascii	"\231\334K\327T\270\200!\021\2672n\270\340r\2064\306"
 447      54B88021 
 447      11B7326E 
 447      B8E07286 
 447      34C6
 448 05ea 46EE54E3 		.ascii	"F\356T\343z;\026\252;i\031\216\2462\305\330\216\336"
 448      7A3B16AA 
 448      3B69198E 
 448      A632C5D8 
 448      8EDE
 449 05fc 40E1022C 		.ascii	"@\341\002,\225\302kU(a\202l\205\2226z\375>\017\213;"
 449      95C26B55 
 449      2861826C 
 449      8592367A 
 449      FD3E0F8B 
 450 0611 A9BD6A46 		.ascii	"\251\275jFs\355\361\005&|h~\356O\270\203\235G\027D7"
 450      73EDF105 
 450      267C687E 
 450      EE4FB883 
 450      9D471744 
 451 0626 C22C61C8 		.ascii	"\302,a\310\301\223\265\217\034\360C\206\230\252\320"
 451      C193B58F 
 451      1CF04386 
 451      98AAD0
 452 0635 C5AC0A3D 		.ascii	"\305\254\012=\362``\006\343)v\357F\337\271\"\027<\303"
 452      F2606006 
 452      E32976EF 
 452      46DFB922 
 452      173CC3
 453 0648 90DAF1B4 		.ascii	"\220\332\361\264\332E8\302\236\"-7\347\237\251q\014"
 453      DA4538C2 
 453      9E222D37 
 453      E79FA971 
 453      0C
 454 0659 432A53E7 		.ascii	"C*S\347\214J\034\317\220\255\273\012S\310S\300\236\025"
 454      8C4A1CCF 
 454      90ADBB0A 
 454      53C853C0 
 454      9E15
 455 066b A70E70E9 		.ascii	"\247\016p\351\326\360T\205\222]\"\246o\201K\031\373"
 455      D6F05485 
 455      925D22A6 
ARM GAS  /tmp/cc66EJ1o.s 			page 36


 455      6F814B19 
 455      FB
 456 067c FA8A5D70 		.ascii	"\372\212]p\022\035\"\234\034?\336\250\022\013\321\231"
 456      121D229C 
 456      1C3FDEA8 
 456      120BD199 
 457 068c 35244DD1 		.ascii	"5$M\321\036pN\234\350\034{\356\033\303B\337\304\203"
 457      1E704E9C 
 457      E81C7BEE 
 457      1BC342DF 
 457      C483
 458 069e 6FECB96F 		.ascii	"o\354\271ob\005W\264[\240\276y69\\\246\304\231LF]\314"
 458      620557B4 
 458      5BA0BE79 
 458      36395CA6 
 458      C4994C46 
 459 06b4 A33A4749 		.ascii	"\243:GI!\272<\237\344K\022\310H\020e\200H\233B\022\345"
 459      21BA3C9F 
 459      E44B12C8 
 459      48106580 
 459      489B4212 
 460 06c9 85DC304C 		.ascii	"\205\3340L\357\323\340\303LHm\314\365\353J\226\2762"
 460      EFD3E0C3 
 460      4C486DCC 
 460      F5EB4A96 
 460      BE32
 461 06db 1CF6CA70 		.ascii	"\034\366\312p0-9?\241\351\233\002\352$\213\352$\011"
 461      302D393F 
 461      A1E99B02 
 461      EA248BEA 
 461      2409
 462 06ed 3C7D7724 		.ascii	"<}w$=>\344\202\013\231\203\247\357%v#\0260\262T\206"
 462      3D3EE482 
 462      0B9983A7 
 462      EF257623 
 462      1630B254 
 463 0702 D776C72F 		.ascii	"\327v\307/b\011<H\353\324\251\2509%\256a\264];;za\251"
 463      62093C48 
 463      EBD4A9A8 
 463      3925AE61 
 463      B45D3B3B 
 464 0719 60DA9544 		.ascii	"`\332\225Dw\357\263\263\251]\246-\355\214\365\220\251"
 464      77EFB3B3 
 464      A95DA62D 
 464      ED8CF590 
 464      A9
 465 072a FB41B30C 		.ascii	"\373A\263\014\031\315\032/e\215\252p\023\223V\035\277"
 465      19CD1A2F 
 465      658DAA70 
 465      1393561D 
 465      BF
 466 073b 0766482B 		.ascii	"\007fH+C\372\367\356\250u\3027\030R\037\373\254\312"
 466      43FAF7EE 
 466      A875C237 
 466      18521FFB 
 466      ACCA
 467 074d 11DF63C8 		.ascii	"\021\337c\310\366\211\241\242Ex\304\336\242\254^\312"
ARM GAS  /tmp/cc66EJ1o.s 			page 37


 467      F689A1A2 
 467      4578C4DE 
 467      A2AC5ECA 
 468 075d CAEA0711 		.ascii	"\312\352\007\021\306\033J<\301\356\035\337z+O\005\367"
 468      C61B4A3C 
 468      C1EE1DDF 
 468      7A2B4F05 
 468      F7
 469 076e 5C219590 		.ascii	"\\!\225\220\244\311qeMN\231q\264P\211g\231q\227K\273"
 469      A4C97165 
 469      4D4E9971 
 469      B4508967 
 469      9971974B 
 470 0783 CF8AF19D 		.ascii	"\317\212\361\235|\276\232\346P>\250\235'\252\355j\236"
 470      7CBE9AE6 
 470      503EA89D 
 470      27AAED6A 
 470      9E
 471 0794 5FC3070D 		.ascii	"_\303\007\015\366o)\320*W\264\002l?\012\266\273r\333"
 471      F66F29D0 
 471      2A57B402 
 471      6C3F0AB6 
 471      BB72DB
 472 07a7 8F80ED87 		.ascii	"\217\200\355\207Yl\3632\217\234q\306\333\035\250\200"
 472      596CF332 
 472      8F9C71C6 
 472      DB1DA880 
 473 07b7 C7890FA3 		.ascii	"\307\211\017\243\260$\201\\i\002\035\003\001\005\242"
 473      B024815C 
 473      69021D03 
 473      0105A2
 474 07c6 807CC186 		.ascii	"\200|\301\206\204By\011\341\011"
 474      84427909 
 474      E109
 475 07d0 1D058E38 		.ascii	"\035\005\2168\226IH,,\314\027\247Ay\346r\232\023\305"
 475      9649482C 
 475      2CCC17A7 
 475      4179E672 
 475      9A13C5
 476 07e3 20E1B828 		.ascii	" \341\270(\341\230-\011E\362\022\222R\357\274\205S\250"
 476      E1982D09 
 476      45F21292 
 476      52EFBC85 
 476      53A8
 477 07f5 00B463E7 		.ascii	"\000\264c\347\334q\2143\230\264\361\272\3542q5*\203"
 477      DC718C33 
 477      98B4F1BA 
 477      EC327135 
 477      2A83
 478 0807 189783A4 		.ascii	"\030\227\203\244\322\327\220T&/\351z\306\323Q%\316e"
 478      D2D79054 
 478      262FE97A 
 478      C6D35125 
 478      CE65
 479 0819 A2724E1F 		.ascii	"\242rN\037\277\354\200\363\231\250\331\201\307\225."
 479      BFEC80F3 
 479      99A8D981 
ARM GAS  /tmp/cc66EJ1o.s 			page 38


 479      C7952E
 480 0828 66511520 		.ascii	"fQ\025 \252\032DU\276\206\250*yQS\211{W\3412&\351qn"
 480      AA1A4455 
 480      BE86A82A 
 480      79515389 
 480      7B57E132 
 481 0840 6B095901 		.ascii	"k\011Y\001\335\325\350/\222\034qg9\222\036?\224\342"
 481      DDD5E82F 
 481      921C7167 
 481      39921E3F 
 481      94E2
 482 0852 886B991E 		.ascii	"\210k\231\036Iy\023\007\005\323\323%+\302\360NX1\310"
 482      49791307 
 482      05D3D325 
 482      2BC2F04E 
 482      5831C8
 483 0865 98841940 		.ascii	"\230\204\031@\012,t\022\204\271sa'@X\255y~N>r\246\275"
 483      0A2C7412 
 483      84B97361 
 483      274058AD 
 483      797E4E3E 
 484 087c 713DA85D 		.ascii	"q=\250]'\252\355\316'\301\366\310#\261N\270\221\011"
 484      27AAEDCE 
 484      27C1F6C8 
 484      23B14EB8 
 484      9109
 485 088e D91F3F56 		.ascii	"\331\037?V\253\266-\244\301\246\220\312\230\177\247"
 485      ABB62DA4 
 485      C1A690CA 
 485      987FA7
 486 089d CDF12910 		.ascii	"\315\361)\020b\024\205\324\233\246Z\377\361\3363J|\211"
 486      621485D4 
 486      9BA65AFF 
 486      F1DE334A 
 486      7C89
 487 08af 4969A8E8 		.ascii	"Ii\250\350\206\011dS\312Y\233R^\314\371f\\1\030\336"
 487      86096453 
 487      CA599B52 
 487      5ECCF966 
 487      5C3118DE 
 488 08c3 466740CC 		.ascii	"Fg@\314iQ\314)\223\230C\227\037\355\261\354E\011\245"
 488      6951CC29 
 488      93984397 
 488      1FEDB1EC 
 488      4509A5
 489 08d6 58DE340A 		.ascii	"X\3364\012\032^!\204\017Ut\"\034\251\242\216\276:Q7"
 489      1A5E2184 
 489      0F557422 
 489      1CA9A28E 
 489      BE3A5137 
 490 08ea A5C1D114 		.ascii	"\245\301\321\024Q\226\206\017\034\200\200\273\"\030"
 490      5196860F 
 490      1C8080BB 
 490      2218
 491 08f8 8558D8C9 		.ascii	"\205X\330\311>\204\0025\003\253&\001\2336AR\015\240"
 491      3E840235 
 491      03AB2601 
ARM GAS  /tmp/cc66EJ1o.s 			page 39


 491      9B364152 
 491      0DA0
 492 090a FFF05FC8 		.ascii	"\377\360_\310e8W\321\243L\026\234\007k\310-\005\272"
 492      653857D1 
 492      A34C169C 
 492      076BC82D 
 492      05BA
 493 091c 08B65C60 		.ascii	"\010\266\\`9\320s\2569\322^\315\251\343^E\3750\377N"
 493      39D073AE 
 493      39D25ECD 
 493      A9E35E45 
 493      FD30FF4E 
 494 0930 A78B8555 		.ascii	"\247\213\205U-\026V\265\232\255:\325\022\221\347\204"
 494      2D1656B5 
 494      9AAD3AD5 
 494      1291E784 
 495 0940 7733AB86 		.ascii	"w3\253\206f\017\334r\300\211\014\231\330{>\307\031\247"
 495      660FDC72 
 495      C0890C99 
 495      D87B3EC7 
 495      19A7
 496 0952 32644F41 		.ascii	"2dOA[\227=\336\317\220\376cs'\354\361\001\206d\366\215"
 496      5B973DDE 
 496      CF90FE63 
 496      7327ECF1 
 496      018664F6 
 497 0967 143AE01C 		.ascii	"\024:\340\034\212\010w\343\017\225\302:\355.\225,\331"
 497      8A0877E3 
 497      0F95C23A 
 497      ED2E952C 
 497      D9
 498 0978 09409DA0 		.ascii	"\011@\235\240\354\327\246\316\233\315\217\264s\213H"
 498      ECD7A6CE 
 498      9BCD8FB4 
 498      738B48
 499 0987 DD7755D0 		.ascii	"\335wU\320\240+b|\276\3260\365\006\303\033;T\270\220"
 499      A02B627C 
 499      BED630F5 
 499      06C31B3B 
 499      54B890
 500 099a 891A7972 		.ascii	"\211\032yre\306\031\0273\3040Y\337c\217\313\031\322"
 500      65C61917 
 500      33C43059 
 500      DF638FCB 
 500      19D2
 501 09ac 9B3431E8 		.ascii	"\23341\350\210\253\030\322tu\307I%\256e\310\341\213"
 501      88AB18D2 
 501      7475C749 
 501      25AE65C8 
 501      E18B
 502 09be 83063B5C 		.ascii	"\203\006;\\\317\220\0231\027gT\370\024CRk\266\207\253"
 502      CF901331 
 502      176754F8 
 502      1443526B 
 502      B687AB
 503 09d1 F11986E4 		.ascii	"\361\031\206\344\317\217\306j\3609n\371\211\313\007"
 503      CF8FC66A 
ARM GAS  /tmp/cc66EJ1o.s 			page 40


 503      F0396EF9 
 503      89CB07
 504 09e0 05F6C871 		.ascii	"\005\366\310q\003\364\250qG\023\346\265\2370+8\355\354"
 504      03F4A871 
 504      4713E6B5 
 504      9F302B38 
 504      EDEC
 505 09f2 E8DC2F90 		.ascii	"\350\334/\220\256\013~\244\305wc\345n\327!\257\376\366"
 505      AE0B7EA4 
 505      C57763E5 
 505      6ED721AF 
 505      FEF6
 506 0a04 5B06C31E 		.ascii	"[\006\303\036\0155\246\003\214\271'H\352\335(\301\252"
 506      0D35A603 
 506      8CB92748 
 506      EADD28C1 
 506      AA
 507 0a15 9BAAEFA2 		.ascii	"\233\252\357\242\335\024!\356\265&\226\266@\214\372"
 507      DD1421EE 
 507      B52696B6 
 507      408CFA
 508 0a24 8A487DCD 		.ascii	"\212H}\315\232z\320\272\255\353\024\211\273\344\211"
 508      9A7AD0BA 
 508      ADEB1489 
 508      BBE489
 509 0a33 A5AC6B44 		.ascii	"\245\254kD\352\353\326\324\036\326\304\355\"q\2675q"
 509      EAEBD6D4 
 509      1ED6C4ED 
 509      2271B735 
 509      71
 510 0a44 95ADC6ED 		.ascii	"\225\255\306\355\006\244\346 \330\217\006\370\020Z\201"
 510      06A4E620 
 510      D88F06F8 
 510      105A81
 511 0a53 43323C10 		.ascii	"C2<\020\334\320\035\200G\0007\001\036\002\334\005\270"
 511      DCD01D80 
 511      47003701 
 511      1E02DC05 
 511      B8
 512 0a64 05701B60 		.ascii	"\005p\033`H\220n\201\214\262\226\022\030,l)\253\273"
 512      48906E81 
 512      8CB29612 
 512      182C6C29 
 512      ABBB
 513 0a76 96B29692 		.ascii	"\226\262\226\222h\326/k\206\304Am\242\025=\362VH\210"
 513      68D62F6B 
 513      86C4416D 
 513      A2153DF2 
 513      564888
 514 0a89 4F88C47D 		.ascii	"O\210\304}\362\201Z\3117\010\352&R\023\034-\346\235"
 514      F2815AC9 
 514      3708EA26 
 514      52131C2D 
 514      E69D
 515 0a9b 9458811E 		.ascii	"\224X\201\036\233\347]\377\211\203\343\3168\314\221"
 515      9BE75DFF 
 515      8983E3CE 
ARM GAS  /tmp/cc66EJ1o.s 			page 41


 515      38CC91
 516 0aaa 241CDE57 		.ascii	"$\034\336W00\006}\274;o\342_\314\375:\257\237e\022\014"
 516      3030067D 
 516      BC3B6FE2 
 516      5FCCFD3A 
 516      AF9F6512 
 517 0abf 40ED2073 		.ascii	"@\355 sD\336\030\336i\307P\267\214X\272E\276\005z\302"
 517      44DE18DE 
 517      69C750B7 
 517      8C58BA45 
 517      BE057AC2 
 518 0ad3 9991000C 		.ascii	"\231\221\000\014C\000\236\012\346\026(?\374\356c\214"
 518      43009E0A 
 518      E616283F 
 518      FCEE638C 
 519 0ae3 775395D0 		.ascii	"wS\225\320\303;\371\235\002N`\310\335\261\261N{\234"
 519      C33BF99D 
 519      024E60C8 
 519      DDB1B14E 
 519      7B9C
 520 0af5 C190D2F9 		.ascii	"\301\220\322\371\274m\030gS\344gS\367#\237:#\267%0\013"
 520      BC6D1867 
 520      53E46753 
 520      F7239F3A 
 520      23B72530 
 521 0b0a 344BF83F 		.ascii	"4K\370?\362\237\273;9\300\337\245\354\216\033\331\012"
 521      F29FBB3B 
 521      39C0DFA5 
 521      EC8E1BD9 
 521      0A
 522 0b1b D3B8D3AD 		.ascii	"\323\270\323\255\012\363\017n\273\273\233\366-\276I"
 522      0AF30F6E 
 522      BBBB9BF6 
 522      2DBE49
 523 0b2a 64BD2269 		.ascii	"d\275\"i\022\346\241\247\031\227Z\374\330Vb=\005\212"
 523      12E6A1A7 
 523      19975AFC 
 523      D856623D 
 523      058A
 524 0b3c 27846254 		.ascii	"'\204bT`C\210]\205\330\035\025`7\224\017p\024 \017\340"
 524      6043885D 
 524      85D81D15 
 524      6037940F 
 524      7014200F 
 525 0b51 08C06180 		.ascii	"\010\300a\200C\000\271\0009\000\331\000q\0001\000\021"
 525      4300B900 
 525      3900D900 
 525      71003100 
 525      11
 526 0b62 00639070 		.ascii	"\000c\220pS\000\223\000\023\202t\273)C\262\265\365\\"
 526      53009300 
 526      138274BB 
 526      2943B2B5 
 526      F55C
 527 0b74 B0526EC4 		.ascii	"\260Rn\304:_\346\333\371\356\006\351\317F\255my\266"
 527      3A5FE6DB 
 527      F9EE06E9 
ARM GAS  /tmp/cc66EJ1o.s 			page 42


 527      CF46AD6D 
 527      79B6
 528 0b86 60FE8DEF 		.ascii	"`\376\215\357\341\334\247!\332\343\362\364\0136\342"
 528      E1DCA721 
 528      DAE3F2F4 
 528      0B36E2
 529 0b95 662C126B 		.ascii	"f,\022k\232%\226\374\276\305\034\260\234\341\276)\002"
 529      9A2596FC 
 529      BEC51CB0 
 529      9CE1BE29 
 529      02
 530 0ba6 DF1C075B 		.ascii	"\337\034\007[\015\000\263R\033\007\253\362\277K\211"
 530      0D00B352 
 530      1B07ABF2 
 530      BF4B89
 531 0bb5 3034AD40 		.ascii	"04\255@s\002\333\012\232\261\265 I\325\230\267Pc\356"
 531      7302DB0A 
 531      9AB1B520 
 531      49D598B7 
 531      5063EE
 532 0bc8 656A1483 		.ascii	"ej\024\203\350W\252a\234\320\031\242\355Q\030\326\240"
 532      E857AA61 
 532      9CD019A2 
 532      ED5118D6 
 532      A0
 533 0bd9 09791D16 		.ascii	"\011y\035\026x\"\034KU #\331$\220O\224c \371\257\224"
 533      78221C4B 
 533      552023D9 
 533      24904F94 
 533      6320F9AF 
 534 0bee 2806BAFF 		.ascii	"(\006\272\377\226x\330@\3628\022\264\212\344\251b.T"
 534      9678D840 
 534      F23812B4 
 534      8AE4A962 
 534      2E54
 535 0c00 22041B79 		.ascii	"\"\004\033yl\246\210\006\225\266a\246^\024\234o\007"
 535      6CA68806 
 535      95B661A6 
 535      5E149C6F 
 535      07
 536 0c11 715BB1D4 		.ascii	"q[\261\324Ai1<[\210\245d\033n\033\226_\257\231\000\243"
 536      4169313C 
 536      5B88A564 
 536      1B6E1B96 
 536      5FAF9900 
 537 0c26 9580693E 		.ascii	"\225\200i>\302\266\200\275\027\350rG\330\033e\331K\226"
 537      C2B680BD 
 537      17E87247 
 537      D81B65D9 
 537      4B96
 538 0c38 9E14B6F4 		.ascii	"\236\024\266\364\000\215t\3511m\261\375<>\232l\261\021"
 538      008D74E9 
 538      316DB1FD 
 538      3C3E9A6C 
 538      B111
 539 0c4a 57CC88DB 		.ascii	"W\314\210\333\024\204X\364\327/\371\274\337\001D[\255"
 539      148458F4 
ARM GAS  /tmp/cc66EJ1o.s 			page 43


 539      D72FF9BC 
 539      DF01445B 
 539      AD
 540 0c5b A75684F8 		.ascii	"\247V\204\370\314\224_\316b\301\202]\334\232\335p\276"
 540      CC945FCE 
 540      62C1825D 
 540      DC9ADD70 
 540      BE
 541 0c6c D3C292E9 		.ascii	"\323\302\222\351\355\022W\021[v\311\333\"\317{\233\200"
 541      ED125711 
 541      5B76C9DB 
 541      22CF7B9B 
 541      80
 542 0c7d 657933CB 		.ascii	"ey3\313'\267S\313w\311Z\236\360\037M\244\266%6m\027"
 542      27B753CB 
 542      77C95A9E 
 542      F01F4DA4 
 542      B625366D 
 543 0c92 8B9A5D52 		.ascii	"\213\232]R\303\273>\343\206\307\343\245(\332\332\360"
 543      C3BB3EE3 
 543      86C7E3A5 
 543      28DADAF0 
 544 0ca2 2849A2EC 		.ascii	"(I\242\354\221\337x#\343\210j\007A\265\003\020\304,"
 544      91DF7823 
 544      E3886A07 
 544      41B50310 
 544      C42C
 545 0cb4 804C8034 		.ascii	"\200L\2004\200T\200D\200\004\200=\026.\331\323\2561"
 545      80548044 
 545      8004803D 
 545      162ED9D3 
 545      AE31
 546 0cc6 ADB23120 		.ascii	"\255\2621 \2240\261\371\220\034\215\225\254K;^E\335"
 546      9430B1F9 
 546      901C8D95 
 546      AC4B3B5E 
 546      45DD
 547 0cd8 7689724E 		.ascii	"v\211rN\002W\357\264M+\235\270\311\026\023\027\006."
 547      0257EFB4 
 547      4D2B9DB8 
 547      C9161317 
 547      062E
 548 0cea 583BD2A0 		.ascii	"X;\322\240nH%u\303>\340\230\314c\261\017\014\336\013"
 548      6E482575 
 548      C33EE098 
 548      CC63B10F 
 548      0CDE0B
 549 0cfd 86A560E9 		.ascii	"\206\245`\351\314\253>\366C2s(\331V\330\305\351m\354"
 549      CCAB3EF6 
 549      43327328 
 549      D956D8C5 
 549      E96DEC
 550 0d10 7C43FC7A 		.ascii	"|C\374z\354\310:CRs\0121Z\363\024\261N\362\356\003\210"
 550      ECC83A43 
 550      52730A31 
 550      5AF314B1 
 550      4EF2EE03 
ARM GAS  /tmp/cc66EJ1o.s 			page 44


 551 0d25 843A195B 		.ascii	"\204:\031[\227\0354\216\033\023\230X\262g\220\376*'"
 551      971D348E 
 551      1B139858 
 551      B26790FE 
 551      2A27
 552 0d37 25995C9A 		.ascii	"%\231\\\232\016n\312z=7e\000\251\350\246t\346&[\013"
 552      0E6ECA7A 
 552      3D376500 
 552      A9E8A674 
 552      E6265B0B 
 553 0d4b 20DA0FDE 		.ascii	" \332\017\336\021\327@\323L\374\031\355\265\010\247"
 553      11D740D3 
 553      4CFC19ED 
 553      B508A7
 554 0d5a 03623E86 		.ascii	"\003b>\206QV\374\001\334\365\207lf\007<\342\016\276"
 554      5156FC01 
 554      DCF5876C 
 554      66073CE2 
 554      0EBE
 555 0d6c D40CE291 		.ascii	"\324\014\342\221V\376\204#Fg\277\212\272\246UcrP\216"
 555      56FE8423 
 555      4667BF8A 
 555      BAA65563 
 555      72508E
 556 0d7f 6D5AE6EB 		.ascii	"mZ\346\353\214V\352k\240YX\342]\275\350\232b0\206a\272"
 556      8C56EA6B 
 556      A05958E2 
 556      5DBDE89A 
 556      62308661 
 557 0d94 4970884F 		.ascii	"Ip\210O\031\336\006\261\011\223+H\252\332\213N\206\242"
 557      19DE06B1 
 557      09932B48 
 557      AADA8B4E 
 557      86A2
 558 0da6 3FD236BF 		.ascii	"?\3226\277D\216v\225HZ\302HI\233^!G*\011\340\276\035"
 558      448E7695 
 558      485AC248 
 558      499B5E21 
 558      472A09E0 
 559 0dbc 3C80D018 		.ascii	"<\200\320\030\242\032\353i\273\260\266\036c\213)4\\"
 559      A21AEB69 
 559      BBB0B61E 
 559      638B2934 
 559      5C
 560 0dcd E89C3CB5 		.ascii	"\350\234<\265\204\3715q\345\275dM\\\265\200u\247H\335"
 560      84F93571 
 560      E5BD644D 
 560      5CB58075 
 560      A748DD
 561 0de0 264F2D89 		.ascii	"&O-\211A\307\005\0361R\374]\266&_\330n\2641\346\244"
 561      41C7051E 
 561      3152FC5D 
 561      B6265FD8 
 561      6EB431E6 
 562 0df5 8279264F 		.ascii	"\202y&O-a^\377\237\246'\336\024\262z\342Y\307\267\216"
 562      2D615EFF 
 562      9FA627DE 
ARM GAS  /tmp/cc66EJ1o.s 			page 45


 562      14B27AE2 
 562      59C7B78E 
 563 0e09 3D30C605 		.ascii	"=0\306\005\331e\363\203\032\222\246$\237_\210iJh\315"
 563      D965F383 
 563      1A92A624 
 563      9F5F8869 
 563      4A68CD
 564 0e1c B33CFF37 		.ascii	"\263<\3777)\342\363u\212W\0106\245\215z\021a32\302\214"
 564      29E2F375 
 564      8A570836 
 564      A58D7A11 
 564      613332C2 
 565 0e31 DDB769A2 		.ascii	"\335\267i\242\221\372eV|6\315PYP\345>\275\021\221\263"
 565      91FA6556 
 565      7C36CD50 
 565      5950E53E 
 565      BD1191B3 
 566 0e45 083F6225 		.ascii	"\010?b%o\326\305\250VG<\314\220\242\270\2600\214\015"
 566      6FD6C5A8 
 566      56473CCC 
 566      90A2B8B0 
 566      308C0D
 567 0e58 6CC325DC 		.ascii	"l\303%\334\3600\326\216\024\374\021\257h\264\361\323"
 567      F030D68E 
 567      14FC11AF 
 567      68B4F1D3 
 568 0e68 B61C3579 		.ascii	"\266\0345y#,\377\254)\305\030U\360\365\255\022fp\225"
 568      232CFFAC 
 568      29C51855 
 568      F0F5AD12 
 568      667095
 569 0e7b F459034F 		.ascii	"\364Y\003OI\375\326\010\372\216\337z\011\212\2140\030"
 569      49FDD608 
 569      FA8EDF7A 
 569      098A8C30 
 569      18
 570 0e8c 4752FE89 		.ascii	"GR\376\211\205\266\0342\241\2143\222\231`d\3736\372"
 570      85B61C32 
 570      A18C3392 
 570      996064FB 
 570      36FA
 571 0e9e C571258E 		.ascii	"\305q%\216\241\272\013\347\236M\315\250\304\027b\011"
 571      A1BA0BE7 
 571      9E4DCDA8 
 571      C4176209 
 572 0eae 3E61F469 		.ascii	">a\364i]\013\243\253\261\331#\025\330\366\373\224\032"
 572      5D0BA3AB 
 572      B1D92315 
 572      D8F6FB94 
 572      1A
 573 0ebf D0544E6B 		.ascii	"\320TNk\220TU\367\370=\326B\273\222\227\011\327G\214"
 573      905455F7 
 573      F83DD642 
 573      BB929709 
 573      D7478C
 574 0ed2 7CDB7390 		.ascii	"|\333s\220lm\026\265\356Nw\306\373\230\017\013\343\303"
 574      6C6D16B5 
ARM GAS  /tmp/cc66EJ1o.s 			page 46


 574      EE4E77C6 
 574      FB980F0B 
 574      E3C3
 575 0ee4 12049CC9 		.ascii	"\022\004\234\311\220\356\355\317/\330\341B\212\250\016"
 575      90EEEDCF 
 575      2FD8E142 
 575      8AA80E
 576 0ef3 679C6DA1 		.ascii	"g\234m\241\3577i\237mZ\250\374s\331BE\037\352\240\350"
 576      EF37699F 
 576      6D5AA8FC 
 576      73D94245 
 576      1FEAA0E8 
 577 0f07 596C734E 		.ascii	"YlsNA\234\347;]\303\250wL\011sV~\251g\324\211\254\325"
 577      419CE73B 
 577      5DC3A877 
 577      4C097356 
 577      7EA967D4 
 578 0f1e 334D92B3 		.ascii	"3M\222\263\013\037!\322I\022\327e1Id\250\027\276\360"
 578      0B1F21D2 
 578      4912D765 
 578      314964A8 
 578      17BEF0
 579 0f31 AEC3AEE8 		.ascii	"\256\303\256\350\004&\373o\\u\342\274Fp^\003<\322\316"
 579      0426FB6F 
 579      5C75E2BC 
 579      46705E03 
 579      3CD2CE
 580 0f44 009C0668 		.ascii	"\000\234\006h\0028\007p\312\242\344\230e\355\357\331"
 580      02380770 
 580      CAA2E498 
 580      65EDEFD9 
 581 0f54 05CF21D2 		.ascii	"\005\317!\322\241\244HJ\235K\326\312,\\<R\273,\026\017"
 581      A1A4484A 
 581      9D4BD6CA 
 581      2C5C3C52 
 581      BB2C160F 
 582 0f68 196A53CE 		.ascii	"\031jS\316\334z\232|_\211\313Y\316\234\275\333\372\201"
 582      DC7A9A7C 
 582      5F89CB59 
 582      CE9CBDDB 
 582      FA81
 583 0f7a 2465BEBA 		.ascii	"$e\276\272\261\235\244\314E\030}^L\231\263x\301;T\263"
 583      B19DA4CC 
 583      45187D5E 
 583      4C99B378 
 583      C13B54B3 
 584 0f8e D517C0D2 		.ascii	"\325\027\300\322\327\265\032\204\267=\317\216\266\307"
 584      D7B51A84 
 584      B73DCF8E 
 584      B6C7
 585 0f9c 0D2C37A2 		.ascii	"\015,7\242"
 586 0fa0 6E6CEF50 		.ascii	"nl\357P\263\244\232\240\015k\366\364\270\035\177\231"
 586      B3A49AA0 
 586      0D6BF6F4 
 586      B81D7F99 
 587 0fb0 455EBC4C 		.ascii	"E^\274L\356\275\037\355\214\233)\261CKqX\004\313\035"
 587      EEBD1FED 
ARM GAS  /tmp/cc66EJ1o.s 			page 47


 587      8C9B29B1 
 587      434B7158 
 587      04CB1D
 588 0fc3 F6729C4E 		.ascii	"\366r\234N\243o\222\331\342A\024\256\007\205;\341hV"
 588      A36F92D9 
 588      E24114AE 
 588      07853BE1 
 588      6856
 589 0fd5 CD3A1752 		.ascii	"\315:\027R{\251\213\310\373\305!\304h\315.\272a\351"
 589      7BA98BC8 
 589      FBC521C4 
 589      68CD2EBA 
 589      61E9
 590 0fe7 50A08EFB 		.ascii	"P\240\216\373=\255\253\200h\230\023\233[\216\307\326"
 590      3DADAB80 
 590      6898139B 
 590      5B8EC7D6 
 591 0ff7 3939FC3B 		.ascii	"99\374;BK\336\010_"
 591      424BDE08 
 591      5F
 592 1000 E24A989B 		.ascii	"\342J\230\233$\351\023\204E\375r*\215z\247L\365a\234"
 592      24E91384 
 592      45FD722A 
 592      8D7AA74C 
 592      F5619C
 593 1013 ECE1AB3A 		.ascii	"\354\341\253:\231\264%\330JI\233\335F+\230\334BLn\346"
 593      99B425D8 
 593      4A499BDD 
 593      462B98DC 
 593      424C6EE6 
 594 1027 434834AE 		.ascii	"CH4\256@4\332\300\373\035\000W\001\332\001.\363H\220"
 594      4034DAC0 
 594      FB1D0057 
 594      01DA012E 
 594      F34890
 595 103a 8B647BA3 		.ascii	"\213d{\243c\272U\331\213\272\021\371\366\347\015v\007"
 595      63BA55D9 
 595      8BBA11F9 
 595      F6E70D76 
 595      07
 596 104b B1BF8882 		.ascii	"\261\277\210\202\202\001E\341DP\360\317\352L\227\220"
 596      820145E1 
 596      4450F0CF 
 596      EA4C9790 
 597 105b 8990E382 		.ascii	"\211\220\343\202\351TafF\377\361\361\364\263G\372\243"
 597      E9546166 
 597      46FFF1F1 
 597      F4B347FA 
 597      A3
 598 106c 4C44EE88 		.ascii	"LD\356\210\017b8\037\254@\034\027D\001\210\241\246\001"
 598      0F62381F 
 598      AC401C17 
 598      440188A1 
 598      A601
 599 107e 127E4C5D 		.ascii	"\022~L]\316N\324\331l\0232\245`\302\231\003;\034p\007"
 599      CE4ED4D9 
 599      6C1332A5 
ARM GAS  /tmp/cc66EJ1o.s 			page 48


 599      60C29903 
 599      3B1C7007 
 600 1092 4BC1998C 		.ascii	"K\301\231\214\361\203v\364\323'\362\021\004\373\366"
 600      F18376F4 
 600      D327F211 
 600      04FBF6
 601 10a1 E9F2C58C 		.ascii	"\351\362\305\214~G\233\337>\365`\362\355S7\346\337>"
 601      7E479BDF 
 601      3EF560F2 
 601      ED5337E6 
 601      DF3E
 602 10b3 45973FB9 		.ascii	"E\227?\271\267\350\235,\203\261\3100\230Y\371\333\232"
 602      B7E89D2C 
 602      83B1C830 
 602      9859F9DB 
 602      9A
 603 10c4 826D5171 		.ascii	"\202mQqa\006\303\037)!\272&N\"8%\207.\334\013z\365\342"
 603      6106C31F 
 603      2921BA26 
 603      4E223825 
 603      872EDC0B 
 604 10db 7760ECB6 		.ascii	"w`\354\266\354\241)\027\034\356D5\231=\237\226j\373"
 604      ECA12917 
 604      1CEE4435 
 604      993D9F96 
 604      6AFB
 605 10ed 8BABEB54 		.ascii	"\213\253\353T\352z.\264zhG\273\032\204f\025\031\214"
 605      EA7A2EB4 
 605      7A6847BB 
 605      1A846615 
 605      198C
 606 10ff 53D05FC3 		.ascii	"S\320_\303\030%!A}\242\274>\251\274~*\257\250.\362\222"
 606      18252141 
 606      7DA2BC3E 
 606      A9BC7E2A 
 606      AFA82EF2 
 607 1114 03DEE164 		.ascii	"\003\336\341d\353\243\257\330\234\323\347\235\351%\362"
 607      EBA3AFD8 
 607      9CD3E79D 
 607      E925F2
 608 1123 F1CC20A6 		.ascii	"\361\314 \246\027sj&\223\020\275H\276@\271\301.\246"
 608      17736A26 
 608      9310BD48 
 608      BE40B9C1 
 608      2EA6
 609 1135 8F95EC52 		.ascii	"\217\225\354R\232\3356\304.\226]\333s\306\305\246\005"
 609      9ADD36C4 
 609      2E965DDB 
 609      73C6C5A6 
 609      05
 610 1146 B7A80537 		.ascii	"\267\250\0057M~;v\273\276\322\021L\030\004\023\346\032"
 610      4D7E3B76 
 610      BBBED211 
 610      4C180413 
 610      E61A
 611 1158 616282D3 		.ascii	"ab\202\323>&Dh@\264a@j\303mj\303\320\275\272\007*\234"
 611      3E264468 
ARM GAS  /tmp/cc66EJ1o.s 			page 49


 611      40B46140 
 611      6AC36D6A 
 611      C3D0BDBA 
 612 116f ECF47F8C 		.ascii	"\354\364\177\214\336=\252\305]\223\026\031;\333\317"
 612      DE3DAAC5 
 612      5D931619 
 612      3BDBCF
 613 117e BB702D3A 		.ascii	"\273p-:[\251\026Y\037\023\"tG\324\342\216T\213\373T"
 613      5BA91659 
 613      1F132274 
 613      47D4E28E 
 613      548BFB54 
 614 1192 8BF3D325 		.ascii	"\213\363\323%.8\233)q\252,\246\330\211\360\200\025\351"
 614      2E389B29 
 614      71AA2CA6 
 614      D889F080 
 614      15E9
 615 11a4 64EDEAB4 		.ascii	"d\355\352\264\242[\206\250\3054b\350\201\310\344\001"
 615      A25B86A8 
 615      C53462E8 
 615      81C8E401 
 616 11b4 66AF0DD0 		.ascii	"f\257\015\320C\312`O\351x\246\035\276\3148d\346_\317"
 616      43CA604F 
 616      E978A61D 
 616      BECC3864 
 616      E65FCF
 617 11c7 76A06690 		.ascii	"v\240f\220\317g\230\031\025E\261#v6\315xB\315xl2#\367"
 617      CF679819 
 617      1545B123 
 617      7636CD78 
 617      42CD786C 
 618 11de 60C6730D 		.ascii	"`\306s\015S\301\370\254Qc\214C\204\002=\022\305?2\211"
 618      53C1F8AC 
 618      51638C43 
 618      84023D12 
 618      C53F3289 
 619 11f2 7F4AC547 		.ascii	"\177J\305G\024\364\304\330\341>&\276\2771<R\311G\367"
 619      14F4C4D8 
 619      E13E26BE 
 619      BF313C52 
 619      C947F7
 620 1205 8BA387C5 		.ascii	"\213\243\207\305\321\303\246\321#tt\327\363\361\006"
 620      D1C3A6D1 
 620      237474D7 
 620      F3F106
 621 1214 35BECF46 		.ascii	"5\276\317F\327m\215\034s\306\217(\"\\/\036\312\226~"
 621      D76D8D1C 
 621      73C68F28 
 621      225C2F1E 
 621      CA967E
 622 1227 93B3E100 		.ascii	"\223\263\341\000}\236\274\200%iTd\327\271\360yb^\301"
 622      7D9EBC80 
 622      25695464 
 622      D7B9F079 
 622      625EC1
 623 123a 9EC3AAF5 		.ascii	"\236\303\252\365:+\030y\037\370\364v\264\323\217\263"
 623      3A2B1879 
ARM GAS  /tmp/cc66EJ1o.s 			page 50


 623      1FF8F476 
 623      B4D38FB3 
 624 124a A9E307BA 		.ascii	"\251\343\007\272>?\227k \252\023Y\317\230,3W\005\271"
 624      3E3F976B 
 624      20AA1359 
 624      CF982C33 
 624      5705B9
 625 125d 027FC7F0 		.ascii	"\002\177\307\360\217a\334\316\222\246b\313\227)/,\032"
 625      8F61DCCE 
 625      92A662CB 
 625      97292F2C 
 625      1A
 626 126e D771D691 		.ascii	"\327q\326\221\221#y_}\373\370]\215\0055\211\254H=\301"
 626      9123795F 
 626      7DFBF85D 
 626      8D053589 
 626      AC483DC1 
 627 1282 A9272875 		.ascii	"\251'(u\345\215\244\223\374\203\206kD\307\216;\007\""
 627      E58DA493 
 627      FC83866B 
 627      44C78E3B 
 627      0722
 628 1294 F9A7236D 		.ascii	"\371\247#m\004?\335ynX\211'\230\353\332\016G\265a\362"
 628      043FDD79 
 628      6E588927 
 628      98EBDA0E 
 628      47B561F2 
 629 12a8 0E2862E1 		.ascii	"\016(b\341\373l\033\037\21667O\267\330\34196~\307\331"
 629      FB6C1B1F 
 629      8E36374F 
 629      B7D8E139 
 629      367EC7D9 
 630 12bc F246FE8D 		.ascii	"\362F\376\215m\023\301\023kN\327:\3410\015\275y3f\350"
 630      6D13C113 
 630      6B4ED73A 
 630      E1300DBD 
 630      793366E8 
 631 12d0 B43DDEC6 		.ascii	"\264=\336\306\220\314\336\027\027\020\216aH]{\337\307"
 631      90CCDE17 
 631      17108E61 
 631      485D7BDF 
 631      C7
 632 12e1 38969D37 		.ascii	"8\226\2357<+:\314\365\303\244J\036?\030\255RK\336\260"
 632      3C2B3ACC 
 632      F5C3A44A 
 632      1E3F18AD 
 632      524BDEB0 
 633 12f5 931BA2AD 		.ascii	"\223\033\242\255\221J\362^\312\303\025E(\2516\3333\006"
 633      914AF25E 
 633      CAC31545 
 633      28A936DB 
 633      3306
 634 1307 4AED16C7 		.ascii	"J\355\026\307\361@~\254\247_\306\232\036}\012\264U\271"
 634      F1407EAC 
 634      A75FC69A 
 634      1E7D0AB4 
 634      55B9
ARM GAS  /tmp/cc66EJ1o.s 			page 51


 635 1319 D83488E6 		.ascii	"\3304\210\346\331L\372Y,\245\236\301/\241>\226\235\233"
 635      D94CFA59 
 635      2CA59EC1 
 635      2FA13E96 
 635      9D9B
 636 132b A2C6094C 		.ascii	"\242\306\011L\315Cc\265\021*\234\302\220\204\372\214"
 636      CD4363B5 
 636      112A9CC2 
 636      9084FA8C 
 637 133b 16079CC6 		.ascii	"\026\007\234\306\220\360\256Op&;=\031\277\347:\302\331"
 637      90F0AE4F 
 637      70263B3D 
 637      19BFE73A 
 637      C2D9
 638 134d 0C49BAF8 		.ascii	"\014I\272\370p\031>\302\316\347\232N/\303\307\330yc"
 638      70193EC2 
 638      CEE79A4E 
 638      2FC3C7D8 
 638      7963
 639 135f C591C308 		.ascii	"\305\221\303\010\2271\344Yj\343C5\256bHV{z\225\012\327"
 639      9731E459 
 639      6AE34335 
 639      AE624856 
 639      7B7A950A 
 640 1374 728113C9 		.ascii	"r\201\023\311\2074\330\310\220+\325W\243\234\360Y\206"
 640      8734D8C8 
 640      902BD557 
 640      A39CF059 
 640      86
 641 1385 441517EF 		.ascii	"D\025\027\357u\302\347\271t\376\365\302b\376\365\302"
 641      75C2E7B9 
 641      74FEF5C2 
 641      62FEF5C2 
 642 1395 ADDC5B59 		.ascii	"\255\334[Y\216\374\033B{\300c\332\233\307\021na\304"
 642      8EFC1B42 
 642      7BC063DA 
 642      9BC7116E 
 642      61C4
 643 13a7 E5199DFB 		.ascii	"\345\031\235\373\235l;7\305\344\334\025\354\323\230"
 643      9D6C3B37 
 643      C5E4DC15 
 643      ECD398
 644 13b6 EEB9A245 		.ascii	"\356\271\242E\334[F\223oMu\256\002\355\245\336J1y\253"
 644      DC5B4693 
 644      6F4D75AE 
 644      02EDA5DE 
 644      4A3179AB 
 645 13ca 2421B751 		.ascii	"$!\267Q%\245&\276\265E\375f\323\300\255c\216\310\315"
 645      25A526BE 
 645      B545FD66 
 645      D3C0AD63 
 645      8EC8CD
 646 13dd EA0725F9 		.ascii	"\352\007%\371\022R\225C\0172x\365\316\352\350\354\326"
 646      12529543 
 646      0F3278F5 
 646      CEEAE8EC 
 646      D6
ARM GAS  /tmp/cc66EJ1o.s 			page 52


 647 13ee 9D86AC06 		.ascii	"\235\206\254\006DYM\223\031\245\224\324\"SXZ0\221\266"
 647      44594D93 
 647      19A594D4 
 647      2253585A 
 647      3091B6
 648 1401 656A8096 		.ascii	"ej\200\226W\204z\247\322\212\332\262\217&\324\303\""
 648      57847AA7 
 648      D28ADAB2 
 648      8F26D4C3 
 648      22
 649 1412 75BC35B5 		.ascii	"u\2745\265E?J\210gD\342\035\326\304\026\035=!\336\273"
 649      453F4A88 
 649      6744E21D 
 649      D6C4161D 
 649      3D21DEBB 
 650 1426 9E955084 		.ascii	"\236\225P\204:\314\232zd\201\"\211\022\362\355\326\344"
 650      3ACC9A7A 
 650      64812289 
 650      12F2EDD6 
 650      E4
 651 1437 8FAD3579 		.ascii	"\217\2555y&j\022'\257\266\224w\272\204\367\274\265\007"
 651      266A1227 
 651      AFB69477 
 651      BA84F7BC 
 651      B507
 652 1449 E72C3D08 		.ascii	"\347,=\010MM\311z\326\331\354S.F\311\234\273\271\263"
 652      4D4DC97A 
 652      D6D9EC53 
 652      2E46C99C 
 652      BBB9B3
 653 145c 99C456AA 		.ascii	"\231\304V\252\364\211\252$X\253\342aE\233*Q\304`M<g"
 653      F489AA24 
 653      58ABE261 
 653      459B2A51 
 653      C4604D3C 
 654 1471 CD394E42 		.ascii	"\3159NB\035mM\035a\355\357\011Q\217]\362q\227\020\357"
 654      1D6D4D1D 
 654      61EDEF09 
 654      518F5DF2 
 654      719710EF 
 655 1485 97B09E95 		.ascii	"\227\260\236\225\317\251\225\242C\222\271C\266\201C"
 655      CFA995A2 
 655      4392B943 
 655      B68143
 656 1494 C2396F73 		.ascii	"\3029ose\375x\201\273\237\213\232\304Zk\"\351\201X\031"
 656      65FD7881 
 656      BB9F8B9A 
 656      C45A6B22 
 656      E9815819 
 657 14a8 DE3B40CB 		.ascii	"\336;@\313p Z\330\201'\014\375\"\201\276:!\254\242\344"
 657      70205AD8 
 657      81270CFD 
 657      2281BE3A 
 657      21ACA2E4 
 658 14bc 3D20153C 		.ascii	"= \025<'\012\216\221\317O\231\242=I\351\212\022\225"
 658      270A8E91 
 658      CF4F99A2 
ARM GAS  /tmp/cc66EJ1o.s 			page 53


 658      3D49E98A 
 658      1295
 659 14ce E426A127 		.ascii	"\344&\241'\217\253\243Jw\224\255tC\307\001\322\001\262"
 659      8FABA34A 
 659      7794AD74 
 659      43C701D2 
 659      01B2
 660 14e0 00F2008E 		.ascii	"\000\362\000\216\001\034\002H\003\310\000(\000\310\005"
 660      011C0248 
 660      03C80028 
 660      00C805
 661 14ef C807C804 		.ascii	"\310\007\310\0048\002\260\037 \007\340\000\300a\200"
 661      3802B01F 
 661      2007E000 
 661      C06180
 662 14fe 5480834A 		.ascii	"T\200\203J7\211Qc\242\222\273\345\275#5\251_\244\336"
 662      37895163 
 662      A292BBE5 
 662      BD2335A9 
 662      5FA4DE
 663 1511 239B5D8C 		.ascii	"#\233]\214\230|8\323\334y\304\005ou\246\005\300\225"
 663      987C38D3 
 663      DC79C405 
 663      6F75A605 
 663      C095
 664 1523 88C23C84 		.ascii	"\210\302<\204\226\270\313Z\212J\300\300\277\266\261"
 664      96B8CB5A 
 664      8A4AC0C0 
 664      BFB6B1
 665 1532 2CBAE543 		.ascii	",\272\345Co\221\350\026\203\260\"\245\271\360 \301f"
 665      6F91E816 
 665      83B022A5 
 665      B9F020C1 
 665      66
 666 1543 FFC7C2D6 		.ascii	"\377\307\302\326}]\226%@\261RZ\002\224*\331C\035\216"
 666      7D5D9625 
 666      40B1525A 
 666      02942AD9 
 666      431D8E
 667 1556 6497A5FE 		.ascii	"d\227\245\376\322E\245\005\365\023\213\022\240\214S"
 667      D245A505 
 667      F5138B12 
 667      A08C53
 668 1565 9751EA2B 		.ascii	"\227Q\352+\323\005\320\201\307S\177\240\0277\242\246"
 668      D305D081 
 668      C7537FA0 
 668      1737A2A6 
 669 1575 9D4DEDC1 		.ascii	"\235M\355\301\303/R\257\221\327\300\006C$b\365z\271"
 669      C32F52AF 
 669      91D7C006 
 669      432462F5 
 669      7AB9
 670 1587 A81B9C8A 		.ascii	"\250\033\234\212Uf\205\222\324Y\367\262\302.\271\340"
 670      55668592 
 670      D459F7B2 
 670      C22EB9E0 
 671 1597 2EC6E9CC 		.ascii	".\306\351\314|\353U\007iAHjEQ\207*\245\264A\230O\033"
ARM GAS  /tmp/cc66EJ1o.s 			page 54


 671      7CEB5507 
 671      6941486A 
 671      4551872A 
 671      A5B44198 
 672 15ad 1C74E062 		.ascii	"\034t\340b\313\237\376v\3773Q,\020\242JQl\245Tl5\025"
 672      CB9FFE76 
 672      FF33512C 
 672      10A24A51 
 672      6CA5546C 
 673 15c3 FB6C5FC5 		.ascii	"\373l_\305]g\034\355B\305\026\024\036\271\255\346\234"
 673      5D671CED 
 673      42C51614 
 673      1EB9ADE6 
 673      9C
 674 15d4 F63FFC22 		.ascii	"\366?\374\"\243\304@\332\215\006\306\247F\344S#\345"
 674      A3C440DA 
 674      8D06C6A7 
 674      46E45323 
 674      E5
 675 15e5 534BF94C 		.ascii	"SK\371Lf\036\235q\306\031\214O\336`\337}%\347\3236\372"
 675      661E9D71 
 675      C6198C4F 
 675      DE60DF7D 
 675      25E7D336 
 676 15fa C5510B3E 		.ascii	"\305Q\013>'D>'\244|\352(\237\266\201\313\245J|\313\305"
 676      27443E27 
 676      A47CEA28 
 676      9FB681CB 
 676      A54A7CCB 
 677 160f 66AD7C20 		.ascii	"f\255| \342|\224\263\371\332I%\275X}\366\364\003\213"
 677      E27C94B3 
 677      F9DA4925 
 677      BD587DF6 
 677      F4038B
 678 1622 3EA0C2C2 		.ascii	">\240\302\302_\247\250\277\214J\356\260\324S\355;\354"
 678      5FA7A8BF 
 678      8C4AEEB0 
 678      D453ED3B 
 678      EC
 679 1633 40BD3650 		.ascii	"@\2756P\257;\366\253.\262#\005\275\300/(!\252\027\365"
 679      AF3BF6AB 
 679      2EB22305 
 679      BDC02F28 
 679      21AA17F5 
 680 1647 AB97EAD7 		.ascii	"\253\227\352\327@\365\313\354\031\210\321\340a\246_"
 680      40F5CBEC 
 680      1988D1E0 
 680      61A65F
 681 1656 71D3F46E 		.ascii	"q\323\364n\007s\273\304\364\213N\333:\2524\353w\206"
 681      0773BBC4 
 681      F48B4EDB 
 681      3AAA34EB 
 681      7786
 682 1668 E957D0DD 		.ascii	"\351W\320\335\033\263\310v<\033\251~gM\372Mm=<%0\375"
 682      1BB3C876 
 682      3C1BA97E 
 682      674DFA4D 
ARM GAS  /tmp/cc66EJ1o.s 			page 55


 682      6D3D3C25 
 683 167e 8CA3BD74 		.ascii	"\214\243\275t\223\300`8 \0202tZ\324\356\264T\273sT\273"
 683      93C06038 
 683      20103274 
 683      5AD4EEB4 
 683      54BB7354 
 684 1693 9D571FC6 		.ascii	"\235W\037\306\"<\315\264\213\352\213Nw0\247\243_\232"
 684      223CCDB4 
 684      8BEA8B4E 
 684      7730A7A3 
 684      5F9A
 685 16a5 241D494A 		.ascii	"$\035IJ7\211\234\232\244\234\3163;K\217\2449\342\270"
 685      37899C9A 
 685      A49CCE33 
 685      3B4B8FA4 
 685      39E2B8
 686 16b8 459453F6 		.ascii	"E\224S\366\203\352\323\374\373jg@\373\016&\346*Y\341"
 686      83EAD3FC 
 686      FB6A6740 
 686      FB0E26E6 
 686      2A59E1
 687 16cb 738F86A4 		.ascii	"s\217\206\244e4Y\215\3673\332m{\033+\035m\027>\255\246"
 687      6534598D 
 687      F733DA6D 
 687      7B1B2B1D 
 687      6D173EAD 
 688 16e0 C227957D 		.ascii	"\302'\225}\354\364\274\377\266\233X&\"\372\325U3,!\027"
 688      ECF4BCFF 
 688      B69B5826 
 688      22FAD555 
 688      332C2117 
 689 16f4 E9627989 		.ascii	"\351by\211\2262\255\246\302\247\266\246\257\333NJ\335"
 689      9632ADA6 
 689      C2A7B6A6 
 689      AFDB4E4A 
 689      DD
 690 1705 F232EA0B 		.ascii	"\3622\352\013\007\266\357u\200\226\241-\213t\353\337"
 690      07B6EF75 
 690      8096A12D 
 690      8B74EBDF 
 691 1715 D51C3244 		.ascii	"\325\0342D\025\3012\321\006\317\227\026\260\035\232"
 691      15C132D1 
 691      06CF9716 
 691      B01D9A
 692 1724 3BC9D80B 		.ascii	";\311\330\013pe\235\240@\227\225\244k\2108\327\273_"
 692      70659DA0 
 692      409795A4 
 692      6B8838D7 
 692      BB5F
 693 1736 C0879945 		.ascii	"\300\207\231EW\222\232\247Tf?\376\260\327\312\217\355"
 693      57929AA7 
 693      54663FFE 
 693      B0D7CA8F 
 693      ED
 694 1747 A21FDBA5 		.ascii	"\242\037\333\245~\354\240~<\272\357\366>\204\353\031"
 694      7EECA07E 
 694      3CBAEFF6 
ARM GAS  /tmp/cc66EJ1o.s 			page 56


 694      3E84EB19 
 695 1757 A7AEEEC8 		.ascii	"\247\256\356\310j\3769\254\223\244\177X\312\373\207"
 695      6AFE39AC 
 695      93A47F58 
 695      CAFB87
 696 1766 D9E1B659 		.ascii	"\331\341\266Y^\237\253\001\355\311\237\257\260\267\355"
 696      5E9FAB01 
 696      EDC99FAF 
 696      B0B7ED
 697 1775 C96B264F 		.ascii	"\311k&Ov\261\372\274\363Q\312vd\355\312N0\360*5\260"
 697      76B1FABC 
 697      F351CA76 
 697      64EDCA4E 
 697      30F02A35 
 698 178a 9B3AE79A 		.ascii	"\233:\347\232\3119\343y\271#.\326\256\264I\335\323<"
 698      C939E379 
 698      B9232ED6 
 698      AEB449DD 
 698      D33C
 699 179c 9FA432BB 		.ascii	"\237\2442\273\322/\235\273\262\207\273\022\272u\311"
 699      D22F9DBB 
 699      B287BB12 
 699      BA75C9
 700 17ab D82BDC95 		.ascii	"\330+\334\225\275\324\225\245\221wg\234-\326\323\036"
 700      BDD495A5 
 700      9177679C 
 700      2DD6D31E 
 701 17bb 8BF5B48F 		.ascii	"\213\365\264\217\257\247\344h\347\243\363\327{\251>"
 701      AFA7E468 
 701      E7A3F3D7 
 701      7BA93E
 702 17ca FFEAEBB7 		.ascii	"\377\352\353\267\327\254"
 702      D7AC
 703 17d0 5CA9506B 		.ascii	"\\\251Pk\265\233\374\002\365\253\336\323\352u\036\276"
 703      B59BFC02 
 703      F5ABDED3 
 703      EA751EBE 
 704 17e0 41013A0F 		.ascii	"A\001:\017\037\257@?\235\277\307g\001\353u>>:\237\325"
 704      1FAF403F 
 704      9DBFC767 
 704      01EB753E 
 704      3E3A9FD5 
 705 17f4 21011E1B 		.ascii	"!\001\036\033\275\275\337\365\012\011x70(P\367\256\316"
 705      BDBDDFF5 
 705      0A097837 
 705      302850F7 
 705      AECE
 706 1806 6BBDDFBB 		.ascii	"k\275\337\273?\321\276\377\356{+V~\360\335*\017\213"
 706      3FD1BEFF 
 706      EE7B2B56 
 706      7EF0DD2A 
 706      0F8B
 707 1818 1B1E7E81 		.ascii	"\033\036~\201\336\376\233|t\036\001^\336\276~\201:\017"
 707      DEFE9B7C 
 707      741E015E 
 707      DEBE7E81 
 707      3A0F
ARM GAS  /tmp/cc66EJ1o.s 			page 57


 708 182a AD8F6E83 		.ascii	"\255\217n\203\327&\177\275V\377C\260.t\271\257Be\022"
 708      D7267FBD 
 708      56FF43B0 
 708      2E74B9AF 
 708      426512
 709 183d F7BBFF4F 		.ascii	"\367\273\377Oq\241?\204zhC\365>\300\033d8\003\012g\272"
 709      71A13F84 
 709      7A6843F5 
 709      3EC01B64 
 709      38030A67 
 710 1852 90CD5EFE 		.ascii	"\220\315^\376Z\375\333\313\227{\260\177A\241\036!z\363"
 710      5AFDDBCB 
 710      977BB07F 
 710      41A11E21 
 710      7AF3
 711 1864 186F5FBD 		.ascii	"\030o_\275_\200\016\310\225\301!\272\315\312\015\233"
 711      5F800EC8 
 711      95C121BA 
 711      CDCA0D9B 
 712 1874 02BD559B 		.ascii	"\002\275U\233\365\344\240\325\273\331\034\003\254M\246"
 712      F5E4A0D5 
 712      BBD91C03 
 712      AC4DA6
 713 1883 2803755B 		.ascii	"(\003u[\364ox\373j7\373\205\3507\021Q\300/\004\007{"
 713      F46F78FB 
 713      6A37FB85 
 713      E8371151 
 713      C02F0407 
 714 1898 852CB2B8 		.ascii	"\205,\262\270\3622\025B\275}}\200\325\233\326\\B\265"
 714      F2321542 
 714      BD7D7D80 
 714      D59BD65C 
 714      42B5
 715 18aa FE7EA17A 		.ascii	"\376~\241z\225\277W\250\236\340\216D,\034\265\372\277"
 715      95BF57A8 
 715      9EE08E44 
 715      2C1CB5FA 
 715      BF
 716 18bb 9521D3EA 		.ascii	"\225!\323\352\005}\200}\320\206\015\241:\275C\210\336"
 716      057D807D 
 716      D0860DA1 
 716      3ABD4388 
 716      DE
 717 18cc 3B10AE7C 		.ascii	";\020\256|$\025\351\035\024\020\020\024\350\021\034"
 717      2415E91D 
 717      14101014 
 717      E8111C
 718 18db 14A20FF5 		.ascii	"\024\242\017\365X\355\371\345\232/\267\220k\301~\376"
 718      58EDF9E5 
 718      9A2FB790 
 718      6BC17EFE 
 719 18eb C0C2E3F3 		.ascii	"\300\302\343\3635k\2103\270U\177o\333]\001p\373\015"
 719      356B8833 
 719      B8557F6F 
 719      DB5D0170 
 719      FB0D
 720 18fd 7D80D6DB 		.ascii	"}\200\326\333\313\337o}\210\227\336/(P\253W\007x\201"
ARM GAS  /tmp/cc66EJ1o.s 			page 58


 720      CBDF6F7D 
 720      8897DE2F 
 720      2850AB57 
 720      077881
 721 1910 AF7D4374 		.ascii	"\257}Ct^>*\370\343\037\034\342\027\344\240'\177\265"
 721      5E3E2AF8 
 721      E31F1CE2 
 721      17E4A027 
 721      7FB5
 722 1922 7A8700FD 		.ascii	"z\207\000\375\026\242\240]\320\367\201\272\020\273\357"
 722      16A2A05D 
 722      D0F781BA 
 722      10BBEF
 723 1931 36E936E9 		.ascii	"6\3516\351\210\303\030y\250\226^Xd\201\221A\233\364"
 723      88C31879 
 723      A8965E58 
 723      64819141 
 723      9BF4
 724 1943 BA2D5ABD 		.ascii	"\272-Z\275\012\010\351\251J\027\254\013\204\320nt\322"
 724      0A08E9A9 
 724      4A17AC0B 
 724      84D06E74 
 724      D2
 725 1954 6DD605EA 		.ascii	"m\326\005\352\003\274B\377\014w\003B7\322\001\016\337"
 725      03BC42FF 
 725      0C770342 
 725      37D2010E 
 725      DF
 726 1965 7BF9E9E1 		.ascii	"{\371\351\341\346\"\011_\"\323E\212h\365h\223\275\356"
 726      E622095F 
 726      22D3458A 
 726      68F56893 
 726      BDEE
 727 1977 7B32D4FE 		.ascii	"{2\324\376{=h\025\014\207P]@0\006g9j\265<'\035\370\321"
 727      7B3D6815 
 727      0C87505D 
 727      40300667 
 727      396AB53C 
 728 198f 8EBA5003 		.ascii	"\216\272P\003\034\201\306+\3307(D\347\020JD\207n\264"
 728      1C81C62B 
 728      D8372844 
 728      E7104A44 
 728      876EB4
 729 19a2 030082EF 		.ascii	"\003\000\202\357\365\372\220\340\305L\2046D\267A\027"
 729      F5FA90E0 
 729      C54C8436 
 729      44B74117 
 730 19b2 A20BF406 		.ascii	"\242\013\364\006\345\201m\320\372?\005\253t[\374\364"
 730      E5816DD0 
 730      FA3F05AB 
 730      745BFCF4 
 731 19c2 DE413E3A 		.ascii	"\336A>:\373\020\237\037`\204\022HB\035\331\\\373\010"
 731      FB109F1F 
 731      60841248 
 731      421DD95C 
 731      FB08
 732 19d4 E4988E7A 		.ascii	"\344\230\216zr\035\330m\360\367\332\030\352\240\017"
ARM GAS  /tmp/cc66EJ1o.s 			page 59


 732      721DD86D 
 732      F0F7DA18 
 732      EAA00F
 733 19e3 80118085 		.ascii	"\200\021\200\205\352\275\364:\225\236\036\010K\257\365"
 733      EABDF43A 
 733      959E1E08 
 733      4BAFF5
 734 19f2 5EA13A3E 		.ascii	"^\241:>S?x\037l7\235\250C\365\177\206Xl\2040\374\363"
 734      533F781F 
 734      6C379DA8 
 734      43F57F86 
 734      586C8430 
 735 1a08 2BE3EDEB 		.ascii	"+\343\355\353\015f\320\264\365\012\320)\275}\275B\354"
 735      0D66D0B4 
 735      F50AD029 
 735      BD7DBD42 
 735      EC
 736 1a19 82FC7D20 		.ascii	"\202\374} ,\201\272\357!m\275\365[\204\320`\301?\004"
 736      2C81BAEF 
 736      216DBDF5 
 736      5B84D060 
 736      C13F04
 737 1a2c A2B81166 		.ascii	"\242\270\021f\231V\217CV\256\004X!\204\374T\010\371"
 737      99568F43 
 737      56AE0458 
 737      2184FC54 
 737      08F9
 738 1a3e 4808F950 		.ascii	"H\010\371P\010\371@\010\371\211\020\362\276\023\341"
 738      08F94008 
 738      F98910F2 
 738      BE13E1
 739 1a4d 4C9C0683 		.ascii	"L\234\006\203\336}=\301\332\315\037\222\364\321\320"
 739      DE7D3DC1 
 739      DACD1F92 
 739      F4D1D0
 740 1a5c 91DE4130 		.ascii	"\221\336A0;\267\350\225$K\034\315q\263\013\010\016\012"
 740      3BB7E895 
 740      244B1CCD 
 740      71B30B08 
 740      0E0A
 741 1a6e F25771A7 		.ascii	"\362Wq\247\352\377\301f\"B\374\200\225\355\373\0204"
 741      EAFFC166 
 741      2242FC80 
 741      95EDFB10 
 741      34
 742 1a7f B88F7DD6 		.ascii	"\270\217}\326\323\244 SG\027\000\013\321\372M\033\035"
 742      D3A42053 
 742      4717000B 
 742      D1FA4D1B 
 742      1D
 743 1a90 8361B9F1 		.ascii	"\203a\271\361\326BD\\\244\227\301\347!$M\234\201\234"
 743      D642445C 
 743      A497C1E7 
 743      21244D9C 
 743      819C
 744 1aa2 08FF8126 		.ascii	"\010\377\201&\215\203\367\246\020\010\253^#^\322\352"
 744      8D83F7A6 
ARM GAS  /tmp/cc66EJ1o.s 			page 60


 744      1008AB5E 
 744      235ED2EA 
 745 1ab2 1DCD1CED 		.ascii	"\035\315\034\3557\353\311\245%\336\276\337\254\3734"
 745      37EBC9A5 
 745      25DEBEDF 
 745      ACFB34
 746 1ac1 C8530793 		.ascii	"\310S\007\223\357\213\3450\371\365\313W\374\235\225"
 746      EF8BE530 
 746      F9F5CB57 
 746      FC9D95
 747 1ad0 6AA121DE 		.ascii	"j\241!\336\240\326f\375ro\205J\273\231x\316O\257f\343"
 747      A0D666FD 
 747      726F854A 
 747      BB9978CE 
 747      4FAF66E3 
 748 1ae4 D6C2288D 		.ascii	"\326\302(\215\224\205S\250~\255>(x\265?\304\340\037"
 748      948553A8 
 748      7EAD3E28 
 748      78B53FC4 
 748      E01F
 749 1af6 A57C7CBD 		.ascii	"\245||\275\374\3156\3029,w`$d\000p\240\304\0322\020"
 749      FCCD36C2 
 749      392C7760 
 749      24640070 
 749      A0C41A32 
 750 1b0b C45344F0 		.ascii	"\304SD\360\366u\022m\327\333\255Y\363\245\347*\341W"
 750      F675126D 
 750      D7DBAD59 
 750      F3A5E72A 
 750      E157
 751 1b1d 9ECA4FBF 		.ascii	"\236\312O\277\\\355\211?]\343\251\374\344\323u\236x"
 751      5CED893F 
 751      5DE3A9FC 
 751      E4D3759E 
 751      78
 752 1b2e CD1A4FEC 		.ascii	"\315\032O\354\011\260\332\323\023\377z\355\032\274\346"
 752      09B0DAD3 
 752      13FF7AED 
 752      1ABCE6
 753 1b3d AB75CA35 		.ascii	"\253u\3125k>\363\244\364\357\321\277+\361g\237{\012"
 753      6B3EF3A4 
 753      F4EFD1BF 
 753      2BF1679F 
 753      7B0A
 754 1b4f 6B61E417 		.ascii	"ka\344\027\237y*\327~\011\324k<\337\003X\011\224\337"
 754      9F792AD7 
 754      7E09D46B 
 754      3CDF0358 
 754      0994DF
 755 1b62 7ABE67AD 		.ascii	"z\276g\255\"\213\375\332u_\256z\317\343\227\277\374"
 755      228BFDDA 
 755      755FAE7A 
 755      CFE397BF 
 755      FC
 756 1b73 D463DD17 		.ascii	"\324c\335\027_n^\351\021\252\017 \023\313\217\004\306"
 756      5F6E5EE9 
 756      11AA0F20 
ARM GAS  /tmp/cc66EJ1o.s 			page 61


 756      13CB8F04 
 756      C6
 757 1b84 C98CC072 		.ascii	"\311\214\300rF\363\201-\223\241`\266\326\213h\357\361"
 757      46F3812D 
 757      93A160B6 
 757      D68B68EF 
 757      F1
 758 1b95 9A3945C7 		.ascii	"\2329E\307\001\307\305\304\201\237\353\364k\251\271"
 758      01C7C5C4 
 758      819FEBF4 
 758      6BA9B9
 759 1ba4 EBE0EAB7 		.ascii	"\353\340\352\267\266\227\261\315\304oK$r7\352\330\331"
 759      B697B1CD 
 759      C46F4B24 
 759      7237EAD8 
 759      D9
 760 1bb5 6288AFBF 		.ascii	"b\210\257\277\277\017\305\275\2036\221\007\310\252\327"
 760      BF0FC5BD 
 760      83369107 
 760      C8AAD7
 761 1bc4 B38E8583 		.ascii	"\263\216\205\203\014&\346y\373\022\015>\365\333\260"
 761      0C26E679 
 761      FB120D3E 
 761      F5DBB0
 762 1bd3 E15B353B 		.ascii	"\341[5;_\355\343\363\355R\251\245 \201\032\352\254\325"
 762      5FEDE3F3 
 762      ED52A9A5 
 762      20811AEA 
 762      ACD5
 763 1be5 D2078E76 		.ascii	"\322\007\216v\371\207+>\\\2452aoZx\005b\272\220\372"
 763      F9872B3E 
 763      5CA53261 
 763      6F5A7805 
 763      62BA90FA 
 764 1bf9 83F7FF17 		.ascii	"\203\367\377\027\257\3672\305"
 764      AFF732C5 
 765              		.text
 766              		.section	.gnu.lto_.symtab.1f2851e71136c5,"",%progbits
 767 0000 5F76745F 		.ascii	"_vt_init\000"
 767      696E6974 
 767      00
 768 0009 00       		.ascii	"\000"
 769 000a 00       		.ascii	"\000"
 770 000b 00       		.ascii	"\000"
 771 000c 00000000 		.ascii	"\000\000\000\000\000\000\000\000"
 771      00000000 
 772 0014 DE010000 		.ascii	"\336\001\000\000"
 773 0018 63685654 		.ascii	"chVTDoSetI\000"
 773      446F5365 
 773      744900
 774 0023 00       		.ascii	"\000"
 775 0024 00       		.ascii	"\000"
 776 0025 00       		.ascii	"\000"
 777 0026 00000000 		.ascii	"\000\000\000\000\000\000\000\000"
 777      00000000 
 778 002e E5010000 		.ascii	"\345\001\000\000"
 779 0032 63685654 		.ascii	"chVTDoResetI\000"
ARM GAS  /tmp/cc66EJ1o.s 			page 62


 779      446F5265 
 779      73657449 
 779      00
 780 003f 00       		.ascii	"\000"
 781 0040 00       		.ascii	"\000"
 782 0041 00       		.ascii	"\000"
 783 0042 00000000 		.ascii	"\000\000\000\000\000\000\000\000"
 783      00000000 
 784 004a E9010000 		.ascii	"\351\001\000\000"
 785 004e 636800   		.ascii	"ch\000"
 786 0051 00       		.ascii	"\000"
 787 0052 02       		.ascii	"\002"
 788 0053 00       		.ascii	"\000"
 789 0054 00000000 		.ascii	"\000\000\000\000\000\000\000\000"
 789      00000000 
 790 005c F6010000 		.ascii	"\366\001\000\000"
 791 0060 73745374 		.ascii	"stStopAlarm\000"
 791      6F70416C 
 791      61726D00 
 792 006c 00       		.ascii	"\000"
 793 006d 02       		.ascii	"\002"
 794 006e 00       		.ascii	"\000"
 795 006f 00000000 		.ascii	"\000\000\000\000\000\000\000\000"
 795      00000000 
 796 0077 EB010000 		.ascii	"\353\001\000\000"
 797 007b 73745365 		.ascii	"stSetAlarm\000"
 797      74416C61 
 797      726D00
 798 0086 00       		.ascii	"\000"
 799 0087 02       		.ascii	"\002"
 800 0088 00       		.ascii	"\000"
 801 0089 00000000 		.ascii	"\000\000\000\000\000\000\000\000"
 801      00000000 
 802 0091 EF010000 		.ascii	"\357\001\000\000"
 803 0095 73745374 		.ascii	"stStartAlarm\000"
 803      61727441 
 803      6C61726D 
 803      00
 804 00a2 00       		.ascii	"\000"
 805 00a3 02       		.ascii	"\002"
 806 00a4 00       		.ascii	"\000"
 807 00a5 00000000 		.ascii	"\000\000\000\000\000\000\000\000"
 807      00000000 
 808 00ad F1010000 		.ascii	"\361\001\000\000"
 809              		.text
 810              		.section	.gnu.lto_.opts,"",%progbits
 811 0000 272D666D 		.ascii	"'-fmath-errno' '-fsigned-zeros' '-ftrapping-math' '"
 811      6174682D 
 811      6572726E 
 811      6F272027 
 811      2D667369 
 812 0033 2D666E6F 		.ascii	"-fno-trapv' '-fno-openmp' '-fno-openacc' '-mcpu=cor"
 812      2D747261 
 812      70762720 
 812      272D666E 
 812      6F2D6F70 
 813 0066 7465782D 		.ascii	"tex-m4' '-mthumb' '-ggdb' '-O2' '-fomit-frame-point"
ARM GAS  /tmp/cc66EJ1o.s 			page 63


 813      6D342720 
 813      272D6D74 
 813      68756D62 
 813      2720272D 
 814 0099 65722720 		.ascii	"er' '-falign-functions=16' '-ffunction-sections' '-"
 814      272D6661 
 814      6C69676E 
 814      2D66756E 
 814      6374696F 
 815 00cc 66646174 		.ascii	"fdata-sections' '-fno-common' '-flto'\000"
 815      612D7365 
 815      6374696F 
 815      6E732720 
 815      272D666E 
 816              		.text
 817              		.comm	__gnu_lto_v1,1,1
 818              		.comm	__gnu_lto_slim,1,1
 819              		.ident	"GCC: (GNU Tools for ARM Embedded Processors) 5.4.1 20160919 (release) [ARM/embedded-5-bran
ARM GAS  /tmp/cc66EJ1o.s 			page 64


DEFINED SYMBOLS
                            *ABS*:00000000 chvt.c
                            *COM*:00000001 __gnu_lto_v1
                            *COM*:00000001 __gnu_lto_slim

NO UNDEFINED SYMBOLS
