ARM GAS  /tmp/ccLgDZi1.s 			page 1


   1              		.syntax unified
   2              		.cpu cortex-m4
   3              		.fpu softvfp
   4              		.eabi_attribute 20, 1
   5              		.eabi_attribute 21, 1
   6              		.eabi_attribute 23, 3
   7              		.eabi_attribute 24, 1
   8              		.eabi_attribute 25, 1
   9              		.eabi_attribute 26, 1
  10              		.eabi_attribute 30, 2
  11              		.eabi_attribute 34, 1
  12              		.eabi_attribute 18, 4
  13              		.thumb
  14              		.syntax unified
  15              		.file	"hal_pal_lld.c"
  16              		.text
  17              	.Ltext0:
  18              		.section	.gnu.lto_.profile.9e3892337d1b3dc3,"",%progbits
  19 0000 789C6361 		.ascii	"x\234ca`d`a`\000\222\376\276\000\001U\000\247"
  19      60646061 
  19      600092FE 
  19      BE000155 
  19      00A7
  20              		.text
  21              		.section	.gnu.lto_.icf.9e3892337d1b3dc3,"",%progbits
  22 0000 789C6361 		.ascii	"x\234ca`d\000\001>\006\004`bX?\363A\013\023c\317\317"
  22      60640001 
  22      3E060460 
  22      62583FF3 
  22      410B1363 
  23 0016 A37BF918 		.ascii	"\243{\371\030\000, \005\332"
  23      002C2005 
  23      DA
  24              		.text
  25              		.section	.gnu.lto_.jmpfuncs.9e3892337d1b3dc3,"",%progbits
  26 0000 789C6361 		.ascii	"x\234ca`d\000\001>\006\004`\002bFfFFF\366\372\372z\006"
  26      60640001 
  26      3E060460 
  26      02624666 
  26      464646F6 
  27 0018 00072601 		.ascii	"\000\007&\001\241"
  27      A1
  28              		.text
  29              		.section	.gnu.lto_.inline.9e3892337d1b3dc3,"",%progbits
  30 0000 789C6361 		.ascii	"x\234ca`d\000\0013\006\004`b``fb\004Q\014l\013\344A"
  30      60640001 
  30      33060460 
  30      62606066 
  30      6204510C 
  31 0018 1450D139 		.ascii	"\024P\3219\206\275L\214\214L\012@\345\314y-\347\025"
  31      86BD4C8C 
  31      8C4C0A40 
  31      E5CC792D 
  31      E715
  32 002a 1824E65C 		.ascii	"\030$\346\\dfb\020\233\263\213\211\005\254\013\000\257"
  32      64666210 
  32      9BB38B89 
ARM GAS  /tmp/ccLgDZi1.s 			page 2


  32      05AC0B00 
  32      AF
  33 003b 9307A0   		.ascii	"\223\007\240"
  34              		.text
  35              		.section	.gnu.lto_.pureconst.9e3892337d1b3dc3,"",%progbits
  36 0000 789C6361 		.ascii	"x\234ca`d`e```b``\224\002\000\000\237\000("
  36      60646065 
  36      60606062 
  36      60609402 
  36      00009F00 
  37              		.text
  38              		.section	.gnu.lto__pal_lld_init.9e3892337d1b3dc3,"",%progbits
  39 0000 789C6361 		.ascii	"x\234ca`d\000\201j 6\007bi fdf`d\232p\216\201\241\221"
  39      60640081 
  39      6A203607 
  39      62692066 
  39      64666064 
  40 001a 83899111 		.ascii	"\203\211\221\021\304h\340`d\250gb\254g\374\312\364\227"
  40      C468E060 
  40      64A86762 
  40      AC67FCCA 
  40      F497
  41 002c 89F150FB 		.ascii	"\211\361P\373\263\235L\232\313\033\200\340\301\322G"
  41      B39D4C9A 
  41      CB1B80E0 
  41      C1D247
  42 003b 060D2B0E 		.ascii	"\006\015+\0160\266230\374g\002\233\304\300\270\234Q"
  42      30B63233 
  42      30FC6702 
  42      9BC4C0B8 
  42      9C51
  43 004d 9301A8EC 		.ascii	"\223\001\250\354\321\306\177Sy\331Z@\312\024 \222\214"
  43      D1C67F53 
  43      79D95A40 
  43      CA142092 
  43      8C
  44 005e 2B18D940 		.ascii	"+\030\331@\326\255\017:\320\360\377\177sC\303W\203Y"
  44      D6AD0F3A 
  44      D0F0FF7F 
  44      7343C357 
  44      8359
  45 0070 CA40890F 		.ascii	"\312@\211\017@\014\262\346#\023\023\210f~\305\310\004"
  45      400CB2E6 
  45      23131388 
  45      667EC5C8 
  45      04
  46 0081 520A36ED 		.ascii	"R\0126\355\003\023#H\014\250\302TOO\037\202\362\213"
  46      03132348 
  46      0CA8C254 
  46      4F4F1F82 
  46      F28B
  47 0093 F5331273 		.ascii	"\3653\022s\364\013\362\213J\212\365\203C|\215\215\364"
  47      F40BF28B 
  47      4A8AF583 
  47      437C8D8D 
  47      F4
  48 00a4 7D7C5CF4 		.ascii	"}|\\\364\335\003<\375\313\214@R\361\005@\234\223\223"
ARM GAS  /tmp/ccLgDZi1.s 			page 3


  48      DD033CFD 
  48      CB8C4052 
  48      F105409C 
  48      9393
  49 00b6 A297CC00 		.ascii	"\242\227\314\000\000/\002=M"
  49      002F023D 
  49      4D
  50              		.text
  51              		.section	.gnu.lto__pal_lld_setgroupmode.9e3892337d1b3dc3,"",%progbits
  52 0000 789C9D57 		.ascii	"x\234\235W}PT\327\025\177\347\335\267\037,\273\213F"
  52      7D5054D7 
  52      157FE7DD 
  52      B71F2CBB 
  52      8B46
  53 0012 AB468921 		.ascii	"\253F\211!\037\0045\204U\214\312\250E\307\350\030\015"
  53      1F043584 
  53      558CCAA8 
  53      45C7E818 
  53      0D
  54 0023 08A49D4C 		.ascii	"\010\244\235L\376\310\2445\205\231t\002\003\203\264"
  54      FEC8A435 
  54      85997402 
  54      0383B4
  55 0032 9D763AD3 		.ascii	"\235v:\323\325\205\305\244h\230$\2301\302\230\244U0"
  55      D585C5A4 
  55      68982498 
  55      31C298A4 
  55      5530
  56 0044 262A51AB 		.ascii	"&*Q\253X\323\"\"D\0231\32441J\033QC\374 \010+\037&\341"
  56      58D32222 
  56      441331D4 
  56      34314A1B 
  56      5143FC20 
  57 005d A3E79CFB 		.ascii	"\243\347\234\373\336~\271u\030v\330\303{\347\376~\347"
  57      DE7EB975 
  57      1876D8C3 
  57      7BE7FE7E 
  57      E7
  58 006e 9DDFB9E7 		.ascii	"\235\337\271\347\336wWS@\241\317\320xE\371#\376?\210"
  58      DE775753 
  58      40A1CFD0 
  58      7845F923 
  58      FE3F88
  59 0081 5F885140 		.ascii	"_\210Q@-oQ\224\365V\025\204\274\020\252\2661Aq\333\354"
  59      2D6F5194 
  59      F5561584 
  59      BC10AAB6 
  59      314171DB 
  60 0096 64ED9A6A 		.ascii	"d\355\232j\352\376\011\336E\275\235\202w&\325\314c\026"
  60      EAFE09DE 
  60      45BD9D82 
  60      7726D5CC 
  60      6316
  61 00a8 1E338355 		.ascii	"\0363\203UR,\306\205\025\354\362\"J\26510\232\2016\303"
  61      522CC685 
  61      15ECF222 
  61      4AB53130 
ARM GAS  /tmp/ccLgDZi1.s 			page 4


  61      9A8136C3 
  62 00bc 1D6D5CD8 		.ascii	"\035m\\\330Ug\261\005\307\035e\315\012\002\034\362\341"
  62      5567B105 
  62      C71D65CD 
  62      0A021CF2 
  62      E1
  63 00cd C7AC4E00 		.ascii	"\307\254N\000\272p[A\371\223*4\223\331b\215\262E\333"
  63      BA705B41 
  63      F9932A34 
  63      93D9628D 
  63      B245DB
  64 00e0 1D4EC05B 		.ascii	"\035N\300[E~\372\324!\025\032J;\352\324\231\325n\374"
  64      457EFAD4 
  64      21151A4A 
  64      3BEAD499 
  64      D56EFC
  65 00f3 5CDCD135 		.ascii	"\\\334\3215\333]S\017%\010\030Q%\006\252a&\242Z\213"
  65      DB5D530F 
  65      25081851 
  65      2506AA61 
  65      26A25A8B 
  66 0107 F7558A5E 		.ascii	"\367U\212^\265D\000hx\333s\372\255\313N\272U!\016o\217"
  66      B5440068 
  66      78DB73FA 
  66      ADCB4EBA 
  66      55210E6F 
  67 011c B78C1CB6 		.ascii	"\267\214\034\266\211\024P\360z\303\273[\033\035\011"
  67      891450F0 
  67      7AC3BB5B 
  67      1B1D09
  68 012b 3BDCEE0D 		.ascii	";\334\356\015n\367\366\034wT\211\020\360\036\010\214"
  68      6EF7F61C 
  68      77548910 
  68      F01E088C 
  69 013b 07BB2016 		.ascii	"\007\273 \026j VA\227\002\273!\001\321#;\367\275l\025"
  69      6A205641 
  69      9702BB21 
  69      01D1233B 
  69      F7BD6C15 
  70 014f 3F65E6F7 		.ascii	"?e\346\367\025\037W\201d\326\3675%nu\327k%B\203\367"
  70      151F5781 
  70      64D6F735 
  70      256E75D7 
  70      6B254283 
  71 0164 C3C99A02 		.ascii	"\303\311\232\002\0370\371\326\376\035\257G\213eL\376"
  71      1F30F9D6 
  71      FE1DAF47 
  71      8B654CFE 
  72 0174 64F347CF 		.ascii	"d\363G\317\352\334\201\246G$\327\004{\302\271&\005\366"
  72      EADC81A6 
  72      4724D704 
  72      7BC2B926 
  72      05F6
  73 0186 420211CA 		.ascii	"B\002\021\312\326\357\272(\304J&\177s\366\362U\210\377"
  73      D6EFBA28 
  73      C44A267F 
  73      73F6F255 
ARM GAS  /tmp/ccLgDZi1.s 			page 5


  73      88FF
  74 0198 0BB32B4A 		.ascii	"\013\263+J\235\310.\216+\021f\330\027J\347IWa\327\310"
  74      9DC82E8E 
  74      2B1166D8 
  74      174AE749 
  74      5761D7C8 
  75 01ac 99D7ACE2 		.ascii	"\231\327\254\342)f\376\370\331\240\327\2523_k\266\273"
  75      2966FEF8 
  75      D9A0D7AA 
  75      335F6BB6 
  75      BB
  76 01bd CBD75B89 		.ascii	"\313\327[\211\370aD\342\315\327O\234VE&\0237o?\335\356"
  76      F86144E2 
  76      CDD74F9C 
  76      56452613 
  76      376F3FDD 
  77 01d2 D489E501 		.ascii	"\324\211\345\001\342\201\210\304\216s\236\255f\361\014"
  77      E28188C4 
  77      8E739EAD 
  77      66F10C
  78 01e1 13AF6F3E 		.ascii	"\023\257o>p\326\246\023\207\233\374\304\277E$\226\017"
  78      70D6A613 
  78      879BFCC4 
  78      BF452496 
  78      0F
  79 01f2 7DE5368B 		.ascii	"}\3456\213\347\231\330zk\377{\232N\034\014\020\017G"
  79      E799D87A 
  79      6BFF7B9A 
  79      4E1C0C10 
  79      0F47
  80 0204 246EBA79 		.ascii	"$n\272y\373\035M\3440\261\271\255\365\252\221\352\017"
  80      FB1D4DE4 
  80      30B1B9AD 
  80      F5AA91EA 
  80      0F
  81 0215 01E29188 		.ascii	"\001\342\221\210\304K\265\303\025\016s1\265S\034\374"
  81      C44BB5C3 
  81      150E7331 
  81      B5531CFC 
  82 0225 1DE2A10E 		.ascii	"\035\342\241\016\277\207\360{\020\277\373\361[\013\361"
  82      BF87F07B 
  82      10BFFBF1 
  82      5B0BF1
  83 0234 B2B9E028 		.ascii	"\262\271\340(\230q!\331\376\037\012\203\015]\253\335"
  83      987121D9 
  83      FE1F0A83 
  83      0D5DABDD 
  84 0244 6D132F71 		.ascii	"m\023/q\026;\217\016m2\262\330V:\321?G\037\335\231\006"
  84      163B8F0E 
  84      6D32B2D8 
  84      563AD13F 
  84      471FDD99 
  85 0259 FC83D915 		.ascii	"\374\203\331\025\327:j5Q\304l\337p\323\327\372\014\273"
  85      D73A6A35 
  85      51C46CDF 
  85      70D3D7FA 
  85      0CBB
ARM GAS  /tmp/ccLgDZi1.s 			page 6


  86 026b FBB2DD2F 		.ascii	"\373\262\335//%\352?#P\353\231\272\351\306\253\177\006"
  86      2F25EA3F 
  86      2350EB99 
  86      BAE9C6AB 
  86      7F06
  87 027d F13BA67E 		.ascii	"\361;\246~\353\275\341\261\353\324!\203z,\002\265\201"
  87      EBBDE1B1 
  87      EBD42183 
  87      7A2C02B5 
  87      81
  88 028e A965ED6F 		.ascii	"\251e\355oWG\211?0\365\225\303W\036\321\231\0259:\363"
  88      5747893F 
  88      30F595C3 
  88      571ED199 
  88      15393AF3 
  89 02a2 78046623 		.ascii	"x\004f#\304\357}\272\336=2\342\301\3565_8\2673\352i"
  89      C4EF7DBA 
  89      DE3D32E2 
  89      C1EE355F 
  89      38B733EA 
  90 02b7 E0264720 		.ascii	"\340&G V\007W\013\326\007\333\036+\204\015\21452+T!"
  90      5607570B 
  90      D607DB1E 
  90      2B840D8C 
  90      35322B54 
  91 02cc 1B503347 		.ascii	"\033P3G3\306\216\315mq0\320I\2271\214\036G\227\343\231"
  91      33C68ECD 
  91      6D7130D0 
  91      4997318C 
  91      1E4797E3 
  92 02e1 720F5D4E 		.ascii	"r\017]NP\250\272\023\201bO\"\307d2S\310\334\313e\233"
  92      50A8BA13 
  92      81624F22 
  92      C7643253 
  92      C8DCCB65 
  93 02f6 8A97D669 		.ascii	"\212\227\326i\\\006Z.\226\373\350~:k\273\237.\3438\331"
  93      5C065A2E 
  93      96FBE87E 
  93      3A6BBB9F 
  93      2EE338D9 
  94 030a 078096EF 		.ascii	"\007\200\226\357\203\004x\210\314\303d\342\311$\220"
  94      83047888 
  94      CCC364E2 
  94      C92490
  95 0319 99416626 		.ascii	"\231Af&\231Yd\022\311<F&\211\314l2s\310$\223\231Kf\036"
  95      99596412 
  95      C93C4626 
  95      89CC6C32 
  95      73C82493 
  96 0331 99F96416 		.ascii	"\231\371d\026\220I!\263\220\314\"2\213\311\244\222Y"
  96      904921B3 
  96      90CC2232 
  96      8BC9A492 
  96      59
  97 0342 42662999 		.ascii	"Bf)\231ed\236 \263\234\314\0122+\311<If\025\231\325"
  97      65649E20 
  97      B39CCC0A 
ARM GAS  /tmp/ccLgDZi1.s 			page 7


  97      322BC93C 
  97      49661599 
  98 0357 64D2B88E 		.ascii	"d\322\270\216\351\\\2305\\\223\014.G&W-\213\353\250"
  98      E95C9835 
  98      5C930C2E 
  98      4726572D 
  98      8BEBA8
  99 036a 28DDD890 		.ascii	"(\335\330\220\270\215\366\250*\376\023\035\340\031\364"
  99      B88DF6A8 
  99      2AFE131D 
  99      E019F4
 100 0379 766D4BA1 		.ascii	"vmK\241\016\365\210h\217\260\321>\351\333Wm\247-\317"
 100      0EF58868 
 100      8FB0D13E 
 100      E9DB576D 
 100      A72DCF
 101 038c 02024EE0 		.ascii	"\002\002N\340\314]\002\225[\030\303 HA\222\317\333\277"
 101      CC5D0295 
 101      5B18C320 
 101      484192CF 
 101      DBBF
 102 039e ED1C4896 		.ascii	"\355\034H\226]\262N\214\014\324\307\020\313\212\350"
 102      5DB24E8C 
 102      0CD4C710 
 102      CB8AE8
 103 03ad 266471EC 		.ascii	"&dq\354+:\310\2018\004\035hl\366Zeh\200\346\240\320"
 103      2B3AC881 
 103      38041D68 
 103      6CF65A65 
 103      6880E6A0 
 104 03c2 7514DA21 		.ascii	"u\024\332!C\017o;\257\263\234\030\032\022\303B\305\240"
 104      430F6F3B 
 104      AFB39C18 
 104      1A12C342 
 104      C5A0
 105 03d4 3F24AD43 		.ascii	"?$\255C\304\215\221\334\246J#\255q2\255\223\177=2h\227"
 105      C48D91DC 
 105      A64A23AD 
 105      7132AD93 
 105      7F3D3268 
 106 03e9 6999E0E3 		.ascii	"i\231\340\343\360\264\306#.$\326A\2125^\306j\251\354"
 106      F0B4C623 
 106      2E24D641 
 106      8A355EC6 
 106      6AA9EC
 107 03fc D661F7C8 		.ascii	"\326a\367\310X\275\257\224\014\010\031\313\002'\303"
 107      58BDAF94 
 107      0C0819CB 
 107      0227C3
 108 040b 634D401C 		.ascii	"cM@\034\202\366\370z\367\230\245\304\0308\025\024z?"
 108      82F6F87A 
 108      F798A5C4 
 108      18381514 
 108      7A3F
 109 041d 859E80B7 		.ascii	"\205\236\200\267\033\352\337\260\260G.\375-%\015g,D"
 109      1BEADFB0 
 109      B0472EFD 
ARM GAS  /tmp/ccLgDZi1.s 			page 8


 109      2D250D67 
 109      2C44
 110 042f C03D023E 		.ascii	"\300=\002>\341\205\322\203/.|\247\011\304\216\343y\363"
 110      E185D283 
 110      2F2E7CA7 
 110      09C48EE3 
 110      79F3
 111 0441 08B3226F 		.ascii	"\010\263\"o8A\223~\303\3125\375\206K(\364\033\236*U"
 111      3841937E 
 111      C3CA35FD 
 111      864B28F4 
 111      1B9E2A55 
 112 0455 BFC1B6F0 		.ascii	"\277\301\266\360\010\220\331vT\246\312t'\241\213\247"
 112      0890D976 
 112      54A6CA74 
 112      27A18BA7 
 113 0465 A01D8A2F 		.ascii	"\240\035\212/x^\320\235\230\317\336\316\272\357\035"
 113      785ED09D 
 113      98CFDECE 
 113      BAEF1D
 114 0474 5280029F 		.ascii	"R\200\002\237\312\205\353\003\360\210\211*\2324Ge\353"
 114      CA85EB03 
 114      F088892A 
 114      9A344765 
 114      EB
 115 0485 8B3E50B1 		.ascii	"\213>P\261\021\324\266C\005\036\221\351\030l\315\365"
 115      11D4B643 
 115      051E91E9 
 115      186CCDF5 
 116 0495 81C0E953 		.ascii	"\201\300\351S;\311\221\356h\314\362\201\206S\242\366"
 116      3BC991EE 
 116      68CCF281 
 116      8653A2F6 
 117 04a5 2EF08835 		.ascii	".\360\2105\216\266\326\"\037\230\260\254jY\035\216g"
 117      8EB6D622 
 117      1F98B0AC 
 117      6A591D8E 
 117      67
 118 04b6 383A8960 		.ascii	"8:\211`&\255\352\373\344\311r\224\235\375%\212\326\224"
 118      26ADEAFB 
 118      E4C97294 
 118      9DFD258A 
 118      D694
 119 04c8 8D09B225 		.ascii	"\215\011\262%\207+\313!|\213\3055K\213\225\026(\255"
 119      872BCB21 
 119      7C8BC535 
 119      4B8B9516 
 119      28AD
 120 04da 4CDE5571 		.ascii	"L\336UqG9MyO\306\002\005O\220\005'\250EN\320[\336NM"
 120      47394D79 
 120      4FC60205 
 120      4F900527 
 120      A8454ED0 
 121 04f2 82A6202E 		.ascii	"\202\246 .\370\005o\001\015\316HP\267\267Q\225\240{"
 121      F8056F01 
 121      0DCE4850 
 121      B7B75195 
ARM GAS  /tmp/ccLgDZi1.s 			page 9


 121      A07B
 122 0504 7922A7F0 		.ascii	"y\"\247\360\254\241\203\236\212N\211i\252Z,AS\341\321"
 122      ACA1839E 
 122      8A4E8969 
 122      AA5A2C41 
 122      53E1D1
 123 0517 589A920E 		.ascii	"X\232\222\016\330\340+\375\034\244s\032\372\375\264"
 123      D8E02BFD 
 123      1CA4731A 
 123      FAFDB4
 124 0526 7AA24D93 		.ascii	"z\242M\223\317o\251zN\"be\226\376\225bA\360gF\002\275"
 124      CF6FA97A 
 124      4E226265 
 124      96FE9562 
 124      41F06746 
 125 053c 7A98FBB0 		.ascii	"z\230\373\260\341\021\032\032{:\372\375\261\033(\366"
 125      E1111A1A 
 125      7B3AFAFD 
 125      B11B28F6 
 126 054c 74C9FAA2 		.ascii	"t\311\372\242*U\"\356\017n=+\266^+\304\222\216\2200"
 126      2A5522EE 
 126      0F6E3D2B 
 126      B65E2BC4 
 126      928E9030 
 127 0560 7188F387 		.ascii	"q\210\363\207i\2440q\010h8\322\363\3351\213D<\030\334"
 127      69A43071 
 127      086838D2 
 127      F3DD318B 
 127      443C18DC 
 128 0574 9082B7F6 		.ascii	"\220\202\267\366\201\346S\033\355\333\241\012\017KQ"
 128      81E6531B 
 128      EDDBA10A 
 128      0F4B51
 129 0583 1EF100FC 		.ascii	"\036\361\000\374\213Z\002\375_\372|\307\355\256\017"
 129      8B5A02FD 
 129      5FFA7CC7 
 129      EDAE0F
 130 0592 DCC53860 		.ascii	"\334\3058`\203\263\260\035\206\371$\005\237\203\213"
 130      83B3B01D 
 130      86F92405 
 130      9F838B
 131 05a1 1E3BEC1D 		.ascii	"\036;\354\035\324\013\377\220^\212A\377T<\214OB?9o{"
 131      D40BFF90 
 131      5E8A41FF 
 131      543C8C4F 
 131      423F396F 
 132 05b6 AF98A493 		.ascii	"\257\230\244\223\332\027\207(\243-\355\223\310\027\364"
 132      DA178728 
 132      A32DED93 
 132      C817F4
 133 05c5 F4F5D404 		.ascii	"\364\365\324\004\264e\336%\207\177\007r\370\002\\\030"
 133      B465DE25 
 133      877F0772 
 133      F8025C18 
 134 05d5 90C5D576 		.ascii	"\220\305\325v\031\342\022F\255\346K\216D\207_8g\250"
 134      19E21246 
 134      ADE64B8E 
ARM GAS  /tmp/ccLgDZi1.s 			page 10


 134      44875F38 
 134      67A8
 135 05e7 69D4D39C 		.ascii	"i\324\323\234\241\027\177\320\333\253\253\231\211\241"
 135      A1177FD0 
 135      DBABAB99 
 135      89A1
 136 05f5 D12FD574 		.ascii	"\321/\325t\352\260Y\2702qh\354j\276\012\344p\236\324"
 136      EAB059B8 
 136      327168EC 
 136      6ABE0AE4 
 136      709ED4
 137 0608 CC9253E5 		.ascii	"\314\222S\345W\2238j5\0278\022\237D\332X\015\355Zz\356"
 137      5793386A 
 137      35173812 
 137      9F44DA58 
 137      0DED5A7A 
 138 061d 8FB1A044 		.ascii	"\217\261\240D\231{\233\236{\022n184\366\334\377\023"
 138      997B9B9E 
 138      7B126E31 
 138      3834F6DC 
 138      FF13
 139 062f 78E27F29 		.ascii	"x\342\177)\367$\332e\316{~\334<U> \232\373^\341\255"
 139      F724DA65 
 139      CE7B7EDC 
 139      3C553E20 
 139      9AFB5EE1 
 140 0644 CEA4DCB6 		.ascii	"\316\244\334\266\011\034>\343\251~5V\016\323\343N\236"
 140      091C3EE3 
 140      A97E3556 
 140      0ED3E34E 
 140      9E
 141 0655 7AB3C62E 		.ascii	"z\263\306.\267E\013|\355G\233\225\243&\301\323\332\327"
 141      B7450B7C 
 141      ED479B95 
 141      A326C1D3 
 141      DAD7
 142 0667 AA1762F6 		.ascii	"\252\027b\366\250\013q\221\323\242\037\005\320nL\253"
 142      A80B7191 
 142      D3A21F05 
 142      D06E4CAB 
 143 0677 318973E4 		.ascii	"1\211s\344b\010*M2\206F\177hi\346\362\026\221\314\245"
 143      62082A4D 
 143      3286467F 
 143      6869E6F2 
 143      1691CCA5 
 144 068b 796772A4 		.ascii	"ygr\244\322,\271{i.\005r\270L\245\231\313\262,~Y\375"
 144      D22CB97B 
 144      692E0572 
 144      B84CA599 
 144      CBB22C7E 
 145 06a1 86AC79A3 		.ascii	"\206\254y\243\226u\205Cj\024\362\233pY\363\357\220\205"
 145      96758543 
 145      6A14F29B 
 145      7059F3EF 
 145      9085
 146 06b3 7BF23CF4 		.ascii	"{\362<\364\207\312JaY\013\306.\253#\220\303\267$+\205"
 146      87CA4A61 
ARM GAS  /tmp/ccLgDZi1.s 			page 11


 146      590BC62E 
 146      AB2390C3 
 146      B7242B85 
 147 06c7 6559696E 		.ascii	"eYin\271m\373\333uY\013G-\353*\2074Q\310kF\333\032\262"
 147      B96DFBDB 
 147      75590B47 
 147      2DEB2A87 
 147      3451C86B 
 148 06df 1671DB2E 		.ascii	"\026q\333.\014]r\213\361\225\207C\262m#\212Xtw\021\327"
 148      0C5D728B 
 148      F1958743 
 148      B26D238A 
 148      58747711 
 149 06f4 034FBC41 		.ascii	"\003O\274A\"\026\263\210(\245<V\316\315\220!\"u\324"
 149      2216B388 
 149      28A53C56 
 149      CECD9021 
 149      2275D4
 150 0707 223A0321 		.ascii	"\":\003!\277\013\027\261\204E\244\206\212X\312\"\226"
 150      BF0B17B1 
 150      8445A486 
 150      8A58CA22 
 150      96
 151 0718 8C5D4457 		.ascii	"\214]DW\340\2117I\304R\205\027\327M\377\342\012ZM6e"
 151      E0893749 
 151      C4528517 
 151      D74DFFE2 
 151      0A5A4D36 
 152 072d A3534A1B 		.ascii	"\243SJ\0336\332n\331\250\245u\007:\271'\274\355\236"
 152      36DA6ED9 
 152      A8A57507 
 152      3AB927BC 
 152      ED9E
 153 073f B8A3ED96 		.ascii	"\270\243\355\226ch\364\207\266\335\012n\273\345co;_"
 153      6368F487 
 153      B6DD0A6E 
 153      BBE5636F 
 153      3B5F
 154 0751 20875B24 		.ascii	" \207[$v\005\313\212\366\313\0321d\255\034\265\254\336"
 154      7605CB8A 
 154      F6CB1A31 
 154      64AD1CB5 
 154      ACDE
 155 0763 4027F785 		.ascii	"@'\367\205\313z\362\016Y\25304\372Ce\255fY\253\306."
 155      CB7AF20E 
 155      59AB3034 
 155      FA4365AD 
 155      6659ABC6 
 156 0778 AB3F90C3 		.ascii	"\253?\220\303\000\311Z\315\262\354|(\224g\323\232\307"
 156      00C95ACD 
 156      B2EC7C28 
 156      9467D39A 
 156      C7
 157 0789 E5892D8D 		.ascii	"\345\211-\215\216q\217\006N\231|\326K\223\333\355\356"
 157      8E718F06 
 157      4E997CD6 
 157      4B93DBED 
ARM GAS  /tmp/ccLgDZi1.s 			page 12


 157      EE
 158 079a 37A6E820 		.ascii	"7\246\350 \343\034\207A\034JY3\007\351\366v\324\350"
 158      E31C8741 
 158      1C4A5933 
 158      07E9F676 
 158      D4E8
 159 07ac 07FF747C 		.ascii	"\007\377t|\363\006\007\341\243d\272<at\325,\224\240"
 159      F30607E1 
 159      A364BA3C 
 159      6174D52C 
 159      94A0
 160 07be 35F842E3 		.ascii	"5\370B\343\203}\310\271{\215D\365\327\314\227\250\014"
 160      837DC8B9 
 160      7B8D44F5 
 160      D7CC97A8 
 160      0C
 161 07cf 7C       		.ascii	"|"
 162 07d0 7584A0F8 		.ascii	"u\204\240\370\300\232!Q?\314\220\240L\354\361\020\020"
 162      C09A2151 
 162      3FCC90A0 
 162      4CECF110 
 162      10
 163 07e1 1F573309 		.ascii	"\037W3\011\264\305\333\264k\266De\311\027\301\301\322"
 163      B4C5DBB4 
 163      6BB64465 
 163      C917C1C1 
 163      D2
 164 07f2 4F6B6DF2 		.ascii	"Okm\362E\000p;\210\304\347\342,\026\345\244\0373\327"
 164      4500703B 
 164      88C4E7E2 
 164      2C16E5A4 
 164      1F33D7
 165 0805 F164FDE6 		.ascii	"\361d\375\346)!\317\205\012\375\324\001t\343Kh^R\222"
 165      2921CF85 
 165      0AFDD401 
 165      74E34B68 
 165      5E5292
 166 0818 4BFEE5AF 		.ascii	"K\376\345\257s\275\2706\327U\220_X\264\316\365\263\237"
 166      73BDB836 
 166      D755905F 
 166      58B4CEF5 
 166      B39F
 167 082a A7CF4D76 		.ascii	"\247\317Mv\245\245-w\255\314\\\225\361\333d\032\372"
 167      A5A52D77 
 167      ADCC5C95 
 167      F1DB641A 
 167      FA
 168 083b 45017E73 		.ascii	"E\001~ss\263\223~\245h\204\322\362\326\256{I\313\313"
 168      73B3937E 
 168      A56884D2 
 168      F2D6AE7B 
 168      49CBCB
 169 084e CFCE112F 		.ascii	"\317\316\021/\374\272H[\233[Th*\370MAv\241%\177]ANN"
 169      FCBA485B 
 169      9B5B5468 
 169      2AF84D41 
 169      76A1257F 
ARM GAS  /tmp/ccLgDZi1.s 			page 13


 170 0866 76A139BF 		.ascii	"v\2419\277\350\367\0059\205&\202\024Zi\234\030j\336"
 170      E8F70539 
 170      85268214 
 170      5A699C18 
 170      6ADE
 171 0878 1C352F59 		.ascii	"\0345/Y\315{\374\177\266\327\326\207"
 171      CD7BFC7F 
 171      B6D7D687 
 172              		.text
 173              		.section	.gnu.lto_.symbol_nodes.9e3892337d1b3dc3,"",%progbits
 174 0000 789C6361 		.ascii	"x\234ca`dPc\000\002\246\343L\365\014\014\023\31610\000"
 174      60645063 
 174      0002A6E3 
 174      4CF50C0C 
 174      13CE3130 
 175 0015 A95D0D8A 		.ascii	"\251]\015\212@\221\023L\365\214(\"\014\000\276\235\011"
 175      4091134C 
 175      F58C2822 
 175      0C00BE9D 
 175      09
 176 0026 32       		.ascii	"2"
 177              		.text
 178              		.section	.gnu.lto_.refs.9e3892337d1b3dc3,"",%progbits
 179 0000 789C6361 		.ascii	"x\234ca`\004B \000\000\0009\000\007"
 179      60044220 
 179      00000039 
 179      0007
 180              		.text
 181              		.section	.gnu.lto_.decls.9e3892337d1b3dc3,"",%progbits
 182 0000 789CAD56 		.ascii	"x\234\255ViPSW\024~\347\335\2401$\340 \355\370\303\037"
 182      69505357 
 182      147EE7DD 
 182      A03124E0 
 182      20EDF8C3 
 183 0015 8E93C1FC 		.ascii	"\216\223\301\374(\274\342\366\337\012.S-L\\:\355t\232"
 183      28BCE2F6 
 183      DF0A2E53 
 183      2D4C5C3A 
 183      ED749A
 184 0028 46924A46 		.ascii	"F\222JF \224\304\3168\375\363\004\024\253\243\202\245"
 184      2094C4CE 
 184      38FDF304 
 184      14ABA382 
 184      A5
 185 0039 0A682BC5 		.ascii	"\012h+\305\225E\245\212\373\0267\300\005\005\334\212"
 185      9545A58A 
 185      FB1637C0 
 185      0505DC8A 
 186 0049 68C1BDD6 		.ascii	"h\301\275\326\215Ee\323\241\347\336\373\222\0270\231"
 186      8D4565D3 
 186      A1E7DEFB 
 186      92173099 
 187 0059 71DADEC9 		.ascii	"q\332\336\311yy\347\276\357\236\357;\347\235\367\336"
 187      7979E7BE 
 187      EF9EEF3B 
 187      E79DF7DE 
 188 0069 D50820D0 		.ascii	"\325\010 \3201+T\020>\022\005\341(\236\367\343 \370"
ARM GAS  /tmp/ccLgDZi1.s 			page 14


 188      312B5410 
 188      3E1205E1 
 188      289EF7E3 
 188      20F8
 189 007b 3F4F5007 		.ascii	"?OP\007^\022v\242\275\021\336\035t\036\374\360\240\314"
 189      5E1276A2 
 189      BD11DE1D 
 189      741EFCF0 
 189      A0CC
 190 008d 0D1E746D 		.ascii	"\015\036tm\250\202\213@\213D\353\0218\347A\264\375h"
 190      A8828B40 
 190      8B44EB11 
 190      38E741B4 
 190      FD68
 191 009f 63D112D1 		.ascii	"c\321\022\321^\241\235D\033\202\326\206\366\014\355"
 191      5EA19D44 
 191      1B82D686 
 191      F60CED
 192 00ae 09DA53B4 		.ascii	"\011\332S\264v\264\307\012O =oE8v\245\357\222\246\031"
 192      76B4C70A 
 192      4F203D6F 
 192      453876A5 
 192      EF92A619 
 193 00c2 9A0075C3 		.ascii	"\232\000u\303p\256\012\370\021\230\011\334\230\213'"
 193      70AE0AF8 
 193      119809DC 
 193      988B27
 194 00d1 223B0AEA 		.ascii	"\";\012\352\024x\201\212/zO\005_0\366S\326\263\232\261"
 194      1478818A 
 194      2F7A4F05 
 194      5F30F653 
 194      D6B39AB1 
 195 00e5 C182A8D1 		.ascii	"\301\202\250\321AY\304}o}@\361E\225\000\270\353]\340"
 195      4159C47D 
 195      6F7D40F1 
 195      459500B8 
 195      EB5DE0
 196 00f8 178FCB55 		.ascii	"\027\217\313U\302\251\232}9\2017\351\262\212\302\007"
 196      C2A99A7D 
 196      398137E9 
 196      B28AC207 
 197 0108 C38808F4 		.ascii	"\303\210\010\364\274\245g\307\324\230\012\031G\256,"
 197      BCA567C7 
 197      D4980A19 
 197      47AE2C
 198 0117 8B26B532 		.ascii	"\213&\2652\015\331\225\033\311K\021\"t\240A\267\275"
 198      0DD9951B 
 198      C94B1122 
 198      74A041B7 
 198      BD
 199 0128 AEE85E18 		.ascii	"\256\350^\030\272\221:\030\215\356\333s\033\212\304"
 199      BA913A18 
 199      8DEEDB73 
 199      1B8AC4
 200 0137 91EBD8BA 		.ascii	"\221\353\330\272,y\264\006\346}\010\3450\012\312`\024"
 200      2C79B406 
 200      E67D08E5 
ARM GAS  /tmp/ccLgDZi1.s 			page 15


 200      300ACA60 
 200      14
 201 0148 1255C048 		.ascii	"\022U\300H<\316\327\360H\247\312_g\205\217)\226++\345"
 201      3CCED7F0 
 201      48A7CA5F 
 201      67858F29 
 201      962B2BE5 
 202 015c D6CE2DFA 		.ascii	"\326\316-\372uYr-.\033MQ\260\003\010\224B\014U\207\247"
 202      7559722D 
 202      2E1B4D51 
 202      B0030894 
 202      420C5587 
 203 0171 F46F3B34 		.ascii	"\364o;4\243\354\2350\006W>\333\232\365S8I`Bo\327\226"
 203      A3EC9D30 
 203      06573EDB 
 203      9AF55338 
 203      4960426F 
 204 0187 96533D63 		.ascii	"\226S=cu@\323\015\307\251\335O\017\365\030\370\024E"
 204      7540D30D 
 204      C7A9DD4F 
 204      0FF518F8 
 204      1445
 205 0199 34AEE9D8 		.ascii	"4\256\351\3302\224\330\351\271X\275j\357\236P0\351\266"
 205      3294D8E9 
 205      B958BD6A 
 205      EF9E5030 
 205      E9B6
 206 01ab 5185C50D 		.ascii	"Q\205\305\0155\243dY\013{A\007\277\253\204cux\\.\313"
 206      35A36459 
 206      0B7B4107 
 206      BFAB8463 
 206      75785C2E 
 207 01c0 99348588 		.ascii	"\2314\205\210\3320\301\227\001\354\001\023\215J\201"
 207      DA30C197 
 207      01EC0113 
 207      8D4A81
 208 01cf 508993BB 		.ascii	"P\211\223\273q\022\031J\267\344\225\014!\327\201Q\024"
 208      7112194A 
 208      B7E4950C 
 208      21D78151 
 208      14
 209 01e0 569575E9 		.ascii	"V\225u\351\274\024\255\375\253'`\025\207\303~\344\250"
 209      BC14ADFD 
 209      AB276015 
 209      87C37EE4 
 209      A8
 210 01f1 52399032 		.ascii	"R9\2202(\311\276\300$eu\245o4\3440\273=bf\357\312}Z"
 210      28C9BEC0 
 210      246575A5 
 210      6F34E430 
 210      BB3D6266 
 211 0209 D0990247 		.ascii	"\320\231\002G8\024 \002\227\263\376\372\264\315K\361"
 211      38142002 
 211      97B3FEFA 
 211      B4CD4BF1 
 212 0219 86C241D4 		.ascii	"\206\302A\324s@\325\263\237\351A\226\256;9\347\210\206"
 212      7340D5B3 
ARM GAS  /tmp/ccLgDZi1.s 			page 16


 212      9FE94196 
 212      AE3B39E7 
 212      8886
 213 022b 763D45E0 		.ascii	"v=E\340\255\302\271\3543\257\363\014\244\2073\257\273"
 213      ADC2B9EC 
 213      33AFF30C 
 213      A48733AF 
 213      BB
 214 023c BABE3334 		.ascii	"\272\27634(\363\261`\314\236\3740d=\2121\217\004`\355"
 214      28F3B160 
 214      CC9EFC30 
 214      643D8A31 
 214      8F0460ED 
 215 0250 DBF8F291 		.ascii	"\333\370\362\221\201\261R\304a`\264\336\326\212\340"
 215      81B152C4 
 215      6160B4DE 
 215      D68AE0
 216 025f AD55D99F 		.ascii	"\255U\331\237\337j \313\010\273\247\365\333\227\327"
 216      DF6A20CB 
 216      08BBA7F5 
 216      DB97D7
 217 026e 131D6AC8 		.ascii	"\023\035j\310z\357\372=\317~\320\032\312\303\215D\367"
 217      7AEFFA3D 
 217      CF7ED01A 
 217      CAC38D44 
 217      F7
 218 027f 6E6655AD 		.ascii	"nfU\255\201\254\344\341V\345\237:\245!y\334\331\\\230"
 218      81ACE4E1 
 218      56E59F3A 
 218      A52179DC 
 218      D95C98
 219 0292 971342D6 		.ascii	"\227\023B\326q\247tmn\245\216\024p\247\261\355\342/"
 219      71A7746D 
 219      6EA58E14 
 219      70A7B1ED 
 219      E22F
 220 02a4 A1BCD987 		.ascii	"\241\274\331\207\243{\266\277\313\023\316#\212\350\026"
 220      A37BB6BF 
 220      CB13CE23 
 220      8AE816
 221 02b3 94DDE81D 		.ascii	"\224\335\350\035F\2128tko_\033m\313(\332\226\304\257"
 221      468A3874 
 221      6B6F5F1B 
 221      6DCB28DA 
 221      96C4AF
 222 02c6 29A37853 		.ascii	")\243xS\236\270pn\233\236\0243\260\270\305\223\271\024"
 222      9EB8706E 
 222      9B9E1433 
 222      B0B8C593 
 222      B914
 223 02d8 BC35C594 		.ascii	"\2745\305\224t;0\237\032\224^K\363\271\204\371D)\371"
 223      743B309F 
 223      1A945E4B 
 223      F3B984F9 
 223      4429F9
 224 02eb 5CC0C9F3 		.ascii	"\\\300\311\363\276\273\331P\023}\2106W\035\026\355\242"
 224      BEBBD950 
ARM GAS  /tmp/ccLgDZi1.s 			page 17


 224      137D8836 
 224      571D16ED 
 224      A2
 225 02fc 5AD628A5 		.ascii	"Z\326(\245\252\307\363\232\037\352H9\347(m\273X\021"
 225      AAC7F39A 
 225      1FEA4839 
 225      E7286DBB 
 225      5811
 226 030e 1E94A321 		.ascii	"\036\224\243!(G\377\352(\326\300\365\310qY\345\250\363"
 226      2847FFEA 
 226      28D6C0F5 
 226      C87159E5 
 226      A8F3
 227 0320 DEBACCEE 		.ascii	"\336\272\314\356\222\243ZR\305H4;\363\2336\015\001\343"
 227      92A35A52 
 227      C548343B 
 227      F39B360D 
 227      01E3
 228 0332 08A3A984 		.ascii	"\010\243\251\204\322\264\266o\370:/g\231\\\377\015["
 228      D2B4B66F 
 228      F83A2F67 
 228      995CFF0D 
 228      5B
 229 0343 DE88CBAF 		.ascii	"\336\210\313\257\302\010\225U\242/\205X<\010y\354\215"
 229      C2089555 
 229      A22F8558 
 229      3C0879EC 
 229      8D
 230 0354 E19165C8 		.ascii	"\341\221e\310\020\374^\030\024\215\204p\035\345]\001"
 230      10FC5E18 
 230      148D8470 
 230      1DE55D01 
 231 0364 235C0323 		.ascii	"#\\\003#{\017\261\350\236\336ezo\350s\001C\327\320 "
 231      7B0FB1E8 
 231      9EDE657A 
 231      6FE87301 
 231      43D7D020 
 232 0378 4AFF7555 		.ascii	"J\377uU\213\364YG\220\240\344\300_h\232\222\222\352"
 232      8BF45947 
 232      90A0E4C0 
 232      5F689A92 
 232      92EA
 233 038a BD5A8834 		.ascii	"\275Z\2104\032Mk\225\327\226\014n\177\0217 \222\211"
 233      1A4D6B95 
 233      D7960C6E 
 233      7F113720 
 233      9289
 234 039c B889229A 		.ascii	"\270\211\"\232P\304\037\252\010\214\373\266\232,\221"
 234      50C41FAA 
 234      088CFBB6 
 234      9A2C91
 235 03ab 3D999CBE 		.ascii	"=\231\234\276\032eP\270\257\027\325\014\271\344W\325"
 235      1A6550B8 
 235      AF17D50C 
 235      B9E457D5 
 236 03bb A30A654F 		.ascii	"\243\012eO6a\357\203\263\301\321\\s\347\2620\252\031"
 236      3661EF83 
ARM GAS  /tmp/ccLgDZi1.s 			page 18


 236      B3C1D15C 
 236      73E7B230 
 236      AA19
 237 03cd 310335C3 		.ascii	"1\0035\303\213\216\015\327\303#Q\357\222\340z\205\001"
 237      8B8E0DD7 
 237      C32351EF 
 237      92E07A85 
 237      01
 238 03de 62FDBA37 		.ascii	"b\375\2727\202wo\366\351k\373\364\344\031o\327\007\027"
 238      82776FF6 
 238      E96BFBF4 
 238      E4196FD7 
 238      0717
 239 03f0 76676A49 		.ascii	"vgjI;w\212\216\274<\037\302\201Zt\177\255\333u!\204"
 239      3B778A8E 
 239      BC3C1FC2 
 239      815A747F 
 239      ADDB7521 
 240 0405 BCE2D78E 		.ascii	"\274\342\327\216\224\357j\024I\037w*\016\265\255\004"
 240      94EF6A14 
 240      491F772A 
 240      0EB5AD04 
 241 0415 92A5614E 		.ascii	"\222\245aN{\316n7Y\301\3177t\336~<\214G0\241\273\246"
 241      7BCE6E37 
 241      59C1CF37 
 241      74DE7E3C 
 241      8C4730A1 
 242 042b 7E53B396 		.ascii	"~S\263\226?7\036\372\244t\377v\177\255Hr\031V\177t\357"
 242      3F371EFA 
 242      A474FF76 
 242      7FAD4872 
 242      19567F74 
 243 0440 93221D18 		.ascii	"\223\"\035\030\225a2\032G\224\310\331Y\262\247\305["
 243      9561321A 
 243      4794C8D9 
 243      59B2A7C5 
 243      5B
 244 0451 AA9358AA 		.ascii	"\252\223X\252?\261T\035X`_\251n\201_e\263\361\016\364"
 244      3FB1541D 
 244      58605FA9 
 244      6E815F65 
 244      B3F10EF4 
 245 0465 578B1CDE 		.ascii	"W\213\034\336\214\351\237\031\014?5\000\216\321o\370"
 245      8CE99F19 
 245      0C3F3500 
 245      8ED16FF8 
 246 0475 47BF3718 		.ascii	"G\2777\030.\015B\267U\353\345\\+\303\336\016\254\244"
 246      2E0D42B7 
 246      55EBE55C 
 246      2BC3DE0E 
 246      ACA4
 247 0487 1C54F42D 		.ascii	"\034T\364-\025\335:\030\335\362\016zm\215\017\355\031"
 247      15DD3A18 
 247      DDF20E7A 
 247      6D8D0FED 
 247      19
 248 0498 8C3E3158 		.ascii	"\214>1X\366M5\364\235\300\241\375\300\271j\344\323\201"
ARM GAS  /tmp/ccLgDZi1.s 			page 19


 248      F64D35F4 
 248      9DC0A1FD 
 248      C0B96AE4 
 248      D381
 249 04aa 0B52EEF7 		.ascii	"\013R\356\367\200\\\301\320\330l\035\003\037\020\036"
 249      805CC1D0 
 249      D86C1D03 
 249      1F101E
 250 04b9 A9C9BF5A 		.ascii	"\251\311\277Zw\003V\313?\245|\225\370a\340\2248:O\331"
 250      770356CB 
 250      3FA57C95 
 250      F861E094 
 250      383A4FD9 
 251 04cd 5FB0067E 		.ascii	"_\260\006~\200\210\373\354b\207\362\324\277\300\007"
 251      8088FBEC 
 251      6287F2D4 
 251      BFC007
 252 04dc EE31F670 		.ascii	"\3561\366p\033\3323\264'h\217\320\376F\373\013\3559"
 252      1BDA33B4 
 252      27688FD0 
 252      FE46FB0B 
 252      ED39
 253 04ee DA53B476 		.ascii	"\332S\264v\265\307=u\335U!\344g\326Y\342\345\343M\311"
 253      B5C73D75 
 253      DD5521E4 
 253      67D659E2 
 253      E5E34DC9 
 254 0502 601AC1D3 		.ascii	"`\032\301\323[_\0034\275W\030\273S}\215\321l\203\350"
 254      5B5F0334 
 254      BD5718BB 
 254      537D8DD1 
 254      6C83E8
 255 0515 809748FF 		.ascii	"\200\227H\377\037\244\324\357\331x\330\240_\241~&\031"
 255      1FA4D4EF 
 255      D978D8A0 
 255      5FA17E26 
 255      19
 256 0526 B7FA98BE 		.ascii	"\267\372\230\276\006\275\242\002\301\007~,xd %\\\367"
 256      06BDA202 
 256      C1077E2C 
 256      78642025 
 256      5CF7
 257 0538 893D1585 		.ascii	"\211=\025\205a`\322{?\331_e\345\320Ov\017.\350R\245"
 257      6160D27B 
 257      3FD95F65 
 257      E5D04F76 
 257      0F2EE852 
 258 054d E37AFC0B 		.ascii	"\343z\374\013\026\037\272Q\361\000\012OA\313\017\354"
 258      161FBA51 
 258      F1000A4F 
 258      41CB0FEC 
 259 055d 134BE31C 		.ascii	"\023K\343\034\347\237\330\307k\012\026\006\335\255\365"
 259      E79FD8C7 
 259      6B0A1606 
 259      DDADF5
 260 056c B1DD5A2F 		.ascii	"\261\335Z/(\333\265\342U5\233\350v\255\230n\327\356"
 260      28DBB5E2 
ARM GAS  /tmp/ccLgDZi1.s 			page 20


 260      55359BE8 
 260      76AD986E 
 260      D7EE
 261 057e 1B7CDB35 		.ascii	"\033|\3335\204\301.U\326.\377\355\332\033\030#\030,"
 261      84C12E55 
 261      D62EFFED 
 261      DA1B1823 
 261      182C
 262 0590 E9D6144B 		.ascii	"\351\326\024KJ\212\315\342Hs\270\265\323>\233;zJl\254"
 262      4A8ACDE2 
 262      4873B8B5 
 262      D33E9B3B 
 262      7A4A6CAC 
 263 05a4 30312646 		.ascii	"01&F\342?\247KJ\266\246H\351\316\014\267K\232=g\326"
 263      E23FA74B 
 263      4AB6A648 
 263      E9CE0CB7 
 263      4B9A3D67 
 264 05b9 F871D2CC 		.ascii	"\370q\322\314\231q\322\264\304\031\011\337\217\243\227"
 264      9971D2B4 
 264      C41909DF 
 264      8FA397
 265 05c8 BC016292 		.ascii	"\274\001b\222\204\017|\301\\v\367\202\014\347\242\364"
 265      840F7CC1 
 265      5C76F782 
 265      0CE7A2F4 
 266 05d8 54A7CDAE 		.ascii	"T\247\315\256\263X\0269\322\334\343\307Y\334v)\331\231"
 266      B3581639 
 266      D2DCE3C7 
 266      59DC7629 
 266      D999
 267 05ea 6A976CD6 		.ascii	"j\227l\3264\207=E\212O\235o\267\331\354\266\311\031"
 267      34873D45 
 267      8A4F9D6F 
 267      B7D9ECB6 
 267      C919
 268 05fc A9D282A4 		.ascii	"\251\322\202\244\244hkFjt\2323\315\036m\267\316wDO\264"
 268      A4686B46 
 268      6A749A33 
 268      CD1E6DB7 
 268      CE77444F 
 269 0611 4C881EF7 		.ascii	"L\210\036\367q\354\244\357\306K\003.H\216\264\244\224"
 269      71ECA4EF 
 269      C64B032E 
 269      488EB4A4 
 269      94
 270 0622 4536BB94 		.ascii	"E6\273\224jMJv\244\331%\213\315\376\255uQ\212\333\342"
 270      6A4D4A76 
 270      A4D9258B 
 270      CDFEAD75 
 270      518ADBE2 
 271 0636 5E9C6E77 		.ascii	"^\234nw\305$\013Z/\335\227\377'\235k\261K\262\270\334"
 271      C5240B5A 
 271      2FDD97FF 
 271      279D6BB1 
 271      4BB2B8DC 
 272 064a 368C4D39 		.ascii	"6\214M9\034N\232\233\305\375o*\225,\350\035N\212K\265"
ARM GAS  /tmp/ccLgDZi1.s 			page 21


 272      1C4E9A9B 
 272      C5FD6F2A 
 272      952CE81D 
 272      4E8A4BB5 
 273 065e BA165ADC 		.ascii	"\272\026Z\334\232\311S\3153Cf&L\371\324\254\371d\266"
 273      9AC953CD 
 273      33436626 
 273      4CF9D4AC 
 273      F964B6
 274 0671 D90C9FC3 		.ascii	"\331\014\237\303\364\220\244\024\2735C)]\354$\213[\353"
 274      F490A414 
 274      BB354329 
 274      5DEC248B 
 274      5BEB
 275 0683 3D2158DB 		.ascii	"=!X\333\011\357I\352r\247b\035\026\244;\234\310I\022"
 275      09EF49EA 
 275      72A7621D 
 275      16A43B9C 
 275      C84912
 276 0696 E2CC6446 		.ascii	"\342\314dF\2349$qnb\234yh\302\354\304\370\3708\363\220"
 276      9C392471 
 276      6E629C79 
 276      68C2ECC4 
 276      F8F838F3 
 277 06ab 84395F24 		.ascii	"\2049_$\306\233Cf%\304\305\233\251\222\351zu\225\305"
 277      C69B4366 
 277      25C4C59B 
 277      A992E97A 
 277      7595C5
 278 06be ADE3421D 		.ascii	"\255\343B\0356\213\373\037\256\304\360L"
 278      368BFB1F 
 278      AEC4F04C 
 279              		.text
 280              		.section	.gnu.lto_.symtab.9e3892337d1b3dc3,"",%progbits
 281 0000 5F70616C 		.ascii	"_pal_lld_init\000"
 281      5F6C6C64 
 281      5F696E69 
 281      7400
 282 000e 00       		.ascii	"\000"
 283 000f 00       		.ascii	"\000"
 284 0010 00       		.ascii	"\000"
 285 0011 00000000 		.ascii	"\000\000\000\000\000\000\000\000"
 285      00000000 
 286 0019 AD000000 		.ascii	"\255\000\000\000"
 287 001d 5F70616C 		.ascii	"_pal_lld_setgroupmode\000"
 287      5F6C6C64 
 287      5F736574 
 287      67726F75 
 287      706D6F64 
 288 0033 00       		.ascii	"\000"
 289 0034 00       		.ascii	"\000"
 290 0035 00       		.ascii	"\000"
 291 0036 00000000 		.ascii	"\000\000\000\000\000\000\000\000"
 291      00000000 
 292 003e FC000000 		.ascii	"\374\000\000\000"
 293              		.text
 294              		.section	.gnu.lto_.opts,"",%progbits
ARM GAS  /tmp/ccLgDZi1.s 			page 22


 295 0000 272D666D 		.ascii	"'-fmath-errno' '-fsigned-zeros' '-ftrapping-math' '"
 295      6174682D 
 295      6572726E 
 295      6F272027 
 295      2D667369 
 296 0033 2D666E6F 		.ascii	"-fno-trapv' '-fno-openmp' '-fno-openacc' '-mcpu=cor"
 296      2D747261 
 296      70762720 
 296      272D666E 
 296      6F2D6F70 
 297 0066 7465782D 		.ascii	"tex-m4' '-mthumb' '-ggdb' '-O2' '-fomit-frame-point"
 297      6D342720 
 297      272D6D74 
 297      68756D62 
 297      2720272D 
 298 0099 65722720 		.ascii	"er' '-falign-functions=16' '-ffunction-sections' '-"
 298      272D6661 
 298      6C69676E 
 298      2D66756E 
 298      6374696F 
 299 00cc 66646174 		.ascii	"fdata-sections' '-fno-common' '-flto'\000"
 299      612D7365 
 299      6374696F 
 299      6E732720 
 299      272D666E 
 300              		.text
 301              		.comm	__gnu_lto_v1,1,1
 302              		.comm	__gnu_lto_slim,1,1
 303              		.ident	"GCC: (GNU Tools for ARM Embedded Processors) 5.4.1 20160919 (release) [ARM/embedded-5-bran
ARM GAS  /tmp/ccLgDZi1.s 			page 23


DEFINED SYMBOLS
                            *ABS*:00000000 hal_pal_lld.c
                            *COM*:00000001 __gnu_lto_v1
                            *COM*:00000001 __gnu_lto_slim

NO UNDEFINED SYMBOLS
