ARM GAS  /tmp/cc6h3xZD.s 			page 1


   1              		.syntax unified
   2              		.cpu cortex-m4
   3              		.fpu softvfp
   4              		.eabi_attribute 20, 1
   5              		.eabi_attribute 21, 1
   6              		.eabi_attribute 23, 3
   7              		.eabi_attribute 24, 1
   8              		.eabi_attribute 25, 1
   9              		.eabi_attribute 26, 1
  10              		.eabi_attribute 30, 2
  11              		.eabi_attribute 34, 1
  12              		.eabi_attribute 18, 4
  13              		.thumb
  14              		.syntax unified
  15              		.file	"rt_test_sequence_007.c"
  16              		.text
  17              	.Ltext0:
  18              		.section	.gnu.lto_.profile.52e048088800b1f1,"",%progbits
  19 0000 789C6361 		.ascii	"x\234ca`d`e`\000\222\355\214\332\000\002@\000\277"
  19      60646065 
  19      600092ED 
  19      8CDA0002 
  19      4000BF
  20              		.text
  21              		.section	.gnu.lto_.icf.52e048088800b1f1,"",%progbits
  22 0000 789C6361 		.ascii	"x\234ca`d\000\001\005\006\004`e8\374\360\300.F\226\377"
  22      60640001 
  22      05060460 
  22      6538FCF0 
  22      C02E4696 
  23 0015 6FEFFE60 		.ascii	"o\357\376`b[\320\271\177;\037\373\256;\227\256ps\034"
  23      625BD0B9 
  23      7F3B1FFB 
  23      AE3B97AE 
  23      70731C
  24 0028 5DB7EC35 		.ascii	"]\267\3545\007\003\000\021\355\020&"
  24      07030011 
  24      ED1026
  25              		.text
  26              		.section	.gnu.lto_.jmpfuncs.52e048088800b1f1,"",%progbits
  27 0000 789C6361 		.ascii	"x\234ca`d\000\001S %\301\000\001L@\314\302\370\227\211"
  27      60640001 
  27      532025C1 
  27      00014C40 
  27      CCC2F897 
  28 0015 F1DCEFED 		.ascii	"\361\334\357\355\253X\024\031\3477\314Phef`\000\212"
  28      AB581419 
  28      E737CC50 
  28      68656660 
  28      008A
  29 0027 DCB8FA6D 		.ascii	"\334\270\372m-K\375\337\206\031\015\015\002\255\314"
  29      2D4BFDDF 
  29      86190D0D 
  29      02ADCC
  30 0036 8C8CCB19 		.ascii	"\214\214\313\031\025\031\030\030W0\32630\2620\200\264"
  30      15191818 
  30      5730D633 
ARM GAS  /tmp/cc6h3xZD.s 			page 2


  30      30B23080 
  30      B4
  31 0047 DC9EBEEB 		.ascii	"\334\236\276\353\021\227\";D\013\023H\313\334E\373\326"
  31      1197223B 
  31      440B1348 
  31      CBDC45FB 
  31      D6
  32 0058 32C3B530 		.ascii	"2\303\26503\256\004kY\005\321\002\261\013j/\027\020"
  32      33AE046B 
  32      5905D102 
  32      B10B6A2F 
  32      1710
  33 006a 83CC983F 		.ascii	"\203\314\230?aW\013\357\027\246Vf\026\306\023L\214\253"
  33      61570BEF 
  33      17A65666 
  33      16C6134C 
  33      8CAB
  34 007c 1965C0B2 		.ascii	"\031e\300\262 \231\235;\337\334f\007\232\325\0016\213"
  34      20999D3B 
  34      DFDC6607 
  34      9AD50136 
  34      8B
  35 008d F53F4837 		.ascii	"\365?H7\343\032\240Q\014`'32\262\2600U\302\024\037\355"
  35      E31AA051 
  35      0C602733 
  35      32B2B030 
  35      55C2141F 
  36 00a2 DD7C861B 		.ascii	"\335|\206\033d\014\033\343\021\006\306\265 c\220d\027"
  36      640C1BE3 
  36      1106C6B5 
  36      20639064 
  36      17
  37 00b3 7FDB728E 		.ascii	"\177\333r\216\017\"{\230\201q\035\232\354\202\227?f"
  37      0F227B98 
  37      81711D9A 
  37      EC82973F 
  37      66
  38 00c4 41F51E62 		.ascii	"A\365\036b`\\\017\223e\204\310\366M\355=\310\010\221"
  38      605C0F93 
  38      6584C8F6 
  38      4DED3DC8 
  38      0891
  39 00d6 3DC8C0B8 		.ascii	"=\310\300\270\001\354@VG'g\027\006\301\314\274\262\304"
  39      01EC4056 
  39      47276717 
  39      06C1CCBC 
  39      B2C4
  40 00e8 9CCC1485 		.ascii	"\234\314\024\205\342\324\302\322\324\274\344T\006\000"
  40      E2D4C2D2 
  40      D4BCE454 
  40      0600
  41 00f6 4C1258A7 		.ascii	"L\022X\247"
  42              		.text
  43              		.section	.gnu.lto_.inline.52e048088800b1f1,"",%progbits
  44 0000 789C6361 		.ascii	"x\234ca`d\000\201r\006\004`b`P8\311\310\310\300$v\241"
  44      60640081 
  44      72060460 
ARM GAS  /tmp/cc6h3xZD.s 			page 3


  44      62605038 
  44      C9C8C8C0 
  45 0017 8D99816D 		.ascii	"\215\231\201m\201<\023H\224\231\007,\303\310\005R\301"
  45      813C1348 
  45      9499072C 
  45      C3C80552 
  45      C1
  46 0028 CDC8C038 		.ascii	"\315\310\3008\301\217\231\007\250h\202\337\004?\020"
  46      C18F9907 
  46      A86882DF 
  46      043F10
  47 0037 9F815D80 		.ascii	"\237\201]\200\201\201u\202\037\003\030\2610\360\033"
  47      81817582 
  47      1F0318B1 
  47      30F01B
  48 0046 3182D4A3 		.ascii	"1\202\324\243\352\007\312\341\242\031\000q\241\016\010"
  48      EA07CAE1 
  48      A2190071 
  48      A10E08
  49              		.text
  50              		.section	.gnu.lto_.pureconst.52e048088800b1f1,"",%progbits
  51 0000 789C6361 		.ascii	"x\234ca`d`e```b\220d\221\000\000\000\356\000B"
  51      60646065 
  51      60606062 
  51      90649100 
  51      0000EE00 
  52              		.text
  53              		.section	.gnu.lto_rt_test_007_001_execute.52e048088800b1f1,"",%progbits
  54 0000 789C8D55 		.ascii	"x\234\215U]L\024W\024\276\347\336Yv\\\226\005\251X\332"
  54      5D4C1457 
  54      14BEE7DE 
  54      59765C96 
  54      05A958DA 
  55 0014 D20A551E 		.ascii	"\322\012U\036\364\201\225\244\211i\232\230\364\347\311"
  55      F48195A4 
  55      89699A98 
  55      F4E7C9
  56 0023 873E34E9 		.ascii	"\207>4\351\2631\260)\244\026[\026\372\272\003\273\263"
  56      B331B029 
  56      A4165B16 
  56      FABA03BB 
  56      B3
  57 0034 8A9A86B6 		.ascii	"\212\232\206\266\001A4\024\205`\265\310Zma\261\305\341"
  57      01413414 
  57      8560B5C8 
  57      5A6D61B1 
  57      C5E1
  58 0046 1F7F1165 		.ascii	"\037\177\021e\013-V)\255\304X\023\371\321\032\261:="
  58      0B2D5629 
  58      ADC45813 
  58      F9D11AB1 
  58      3A3D
  59 0058 E7CE82C8 		.ascii	"\347\316\202\310\256I'0;s\357w\316w\316w\316=\2430`"
  59      AE492730 
  59      3B73EF77 
  59      CE77CE77 
  59      CE3DA330 
ARM GAS  /tmp/cc6h3xZD.s 			page 4


  60 006d 74CDD919 		.ascii	"t\315\331\031\253\303\337\367\361\037\022\030\360\312"
  60      ABC3DFF7 
  60      F11F1218 
  60      F0CA
  61 007b 4B8C95A9 		.ascii	"K\214\225\251\034\024\353AX\017]\252\302\205\261\231"
  61      1C14EB41 
  61      580F5DAA 
  61      C285B199 
  62 008b 690EDBE5 		.ascii	"i\016\333\345d\2469m\000\264\254\251\300|\\(6\360q\205"
  62      64A6396D 
  62      00B4ACA9 
  62      C07C5C28 
  62      36F07185 
  63 009f 81A18022 		.ascii	"\201\241\200\"o\344\371>\177\314\241{\347T\230\257o"
  63      6FE4F93E 
  63      7FCCA17B 
  63      E75498AF 
  63      6F
  64 00b0 D6F09AB8 		.ascii	"\326\360\232\2709UP\246\351\351\272`\314\344\222\234"
  64      395550A6 
  64      E9E9BA60 
  64      CCE4929C 
  65 00c0 4133AC67 		.ascii	"A3\254g\010\033\016\204\016\210{\\\027\000\012\276\316"
  65      081B0E84 
  65      0E887B5C 
  65      17000ABE 
  65      CE
  66 00d1 5CDCFFA7 		.ascii	"\\\334\377\247\213^9d\342\353\205PxT\021\233\200\220"
  66      8B5E3964 
  66      E2EB8550 
  66      7854119B 
  66      8090
  67 00e3 55F3A30D 		.ascii	"U\363\243\015\211\331\207\311\241q\272\337Y\253\031"
  67      89D987C9 
  67      A171BADF 
  67      59AB19
  68 00f2 814C5D08 		.ascii	"\201L]\0108\012\002\235\302\267\220\001G C:Gt\357\315"
  68      380A029D 
  68      C2B79001 
  68      4720433A 
  68      4774EFCD 
  69 0106 7FAF248A 		.ascii	"\177\257$\212\267\244e\331\261\272\003N\262,\327\214"
  69      B7A465D9 
  69      B1BA034E 
  69      B22CD78C 
  70 0116 70BF2B6A 		.ascii	"p\277+j\251\300wq-'O<\251JJ\010\020O&\264@6\034\203"
  70      A9C07771 
  70      2D274F3C 
  70      A94A4A08 
  70      104F26B4 
  71 012e 6C2B6C38 		.ascii	"l+l8\016\011\250\035\247U\0046\235\357\351t\211\315"
  71      0E09A81D 
  71      A7550436 
  71      9DEFE974 
  71      89CD
  72 0140 9262443B 		.ascii	"\222bD;eB\224\342~09Ja\203\326X\012\010Av\353\007\206"
  72      654294E2 
ARM GAS  /tmp/cc6h3xZD.s 			page 5


  72      7E30394A 
  72      6183D658 
  72      0A084176 
  73 0157 669A7ECD 		.ascii	"f\232~\315hK\030o\237SW\203\\\2651]$$\340\315n\307\233"
  73      684B186F 
  73      9F535783 
  73      5CB5315D 
  73      2424E0CD 
  74 016e AAE24D71 		.ascii	"\252\342Mq\320\315\305\2102\005\037W\244Jd\032>\242"
  74      D0CDC588 
  74      32051F57 
  74      A44A641A 
  74      3EA2
  75 0180 98D31815 		.ascii	"\230\323\030\025\026e\206s\374\021SP~/4\222KQbD\325"
  75      16658673 
  75      FC115350 
  75      7E2F3492 
  75      4B516244 
  76 0195 7AF7909D 		.ascii	"z\367\220\235\224t\310\000\303\341;\343v\337cm\227\246"
  76      9474C800 
  76      C3E13BE3 
  76      76DF636D 
  76      97A6
  77 01a7 A5E05A85 		.ascii	"\245\340Z\205\260\222\3353=r\322Q\017\007\3134\271n"
  77      B092DD33 
  77      3D72D251 
  77      0F07CB34 
  77      B96E
  78 01b9 83EFC107 		.ascii	"\203\357\301\007'(R8\011\365\200\210S\275\003A\225\374"
  78      27285238 
  78      09F58088 
  78      53BD0341 
  78      95FC
  79 01cb 60E1E114 		.ascii	"`\341\341\024\356 M\347\211H\203\215x\374\302\266\224"
  79      EE204DE7 
  79      8948838D 
  79      78FCC2B6 
  79      94
  80 01dc 2A5152F9 		.ascii	"*QR\371\347\317\314\271\220\252F\272L\254\020 \251\316"
  80      E7CFCCB9 
  80      90AA46BA 
  80      4CAC1020 
  80      A9CE
  81 01ee EE3FF631 		.ascii	"\356?\36611U\312e'\374\210L?\020\023\356\335\325\347"
  81      3155CA65 
  81      27FC884C 
  81      3F1013EE 
  81      DDD5E7
  82 0201 773B735B 		.ascii	"w;s[i#\011\332\220\0306H\261\240\035r\211\260#\334\333"
  82      692309DA 
  82      90183648 
  82      B1A01D72 
  82      89B023DC 
  83 0216 5055F86C 		.ascii	"PU\370lq\214=\221.\352[\014\303\344\260\274r\014\302"
  83      718C3D91 
  83      2EEA5B0C 
  83      C3E4B0BC 
ARM GAS  /tmp/cc6h3xZD.s 			page 6


  83      720CC2
  84 0229 B8B96CD5 		.ascii	"\270\271l\3258\274\367\0144\012\006\035d\303cmN\223"
  84      38BCF70C 
  84      340A061D 
  84      64C3636D 
  84      4E93
  85 023b 0DFC4489 		.ascii	"\015\374D\211\251K\023s\305\321\320U!\270$\270}!\322"
  85      A94B1373 
  85      C5D1D055 
  85      21B824B8 
  85      7D21D2
  86 024e BB44C364 		.ascii	"\273D\303d\350\304\314~\216f\366E{\250Bu\267H\366\310"
  86      E8C4CC7E 
  86      8E66F645 
  86      7BA84275 
  86      B748F6C8 
  87 0262 572E5DA4 		.ascii	"W.]\244\300\031\314\357\011\232J6\204\364\355\035n\214"
  87      C019CCEF 
  87      099A4A36 
  87      84F4ED1D 
  87      6E8C
  88 0274 42B40FA9 		.ascii	"B\264\017\251/\015p?\301\214\344>t\201[*0s\243QP\334"
  88      2F0D703F 
  88      C18CE43E 
  88      74815B2A 
  88      3073A351 
  89 028a 7EF14C75 		.ascii	"~\361Lu\025\031\331\203\201s\273\234OCX\211\341Cw4\202"
  89      1519D983 
  89      8173BB9C 
  89      4F435889 
  89      E1437734 
  90 029f A6BFCA8F 		.ascii	"\246\277\312\217\333\243\356\275\330[\320#\371\271\245"
  90      DBA3EEBD 
  90      D85BD023 
  90      F9B9A5
  91 02ae 10F44AFF 		.ascii	"\020\364J\377\376\352\340\276\243=\016\253\246v\213"
  91      FEEAE0BE 
  91      A33D0EAB 
  91      A6768B
  92 02bd 63B1F22A 		.ascii	"c\261\362*V\276\017\275\335\202t\013\340\210\021#\325"
  92      56BE0FBD 
  92      DD82740B 
  92      E0881123 
  92      D5
  93 02ce E4D851D0 		.ascii	"\344\330Q\320\017>f\365D}eG \311j\233A\016\003\220\201"
  93      0F3E66F5 
  93      447D6547 
  93      20C96A9B 
  93      410E0390 
  94 02e3 6E9758A9 		.ascii	"n\227X\251\272x\301\344\012\271c0\010>\014X\027\253"
  94      BA78C1E4 
  94      0AB96330 
  94      083E0C58 
  94      17AB
  95 02f5 28D1EA86 		.ascii	"(\321\352\206U\313;8-\216\372i\025t\000b\325_\015\347"
  95      55CB3B38 
  95      2D8EFA69 
ARM GAS  /tmp/cc6h3xZD.s 			page 7


  95      15740062 
  95      D55F0DE7 
  96 0309 50FDB3D1 		.ascii	"P\375\263\321\334O_\275\336\254`_\321\365&\211u~Io]"
  96      DC4F5FBD 
  96      DEAC605F 
  96      D1F52689 
  96      757E496F 
  97 031e 805C4C85 		.ascii	"\200\\L\205\311csm\341\330\374\337srq\361\234\\\262"
  97      C963736D 
  97      E1D8FCDF 
  97      737271F1 
  97      9C5CB2
  98 0331 CE499FF9 		.ascii	"\316I\237\371\300H\266\022\3460\204;\223Pn<\014\272"
  98      C048B612 
  98      E630843B 
  98      93506E3C 
  98      0CBA
  99 0343 964F143C 		.ascii	"\226O\024<\275\262g\321\3622\216\223\220\034%\255w\302"
  99      BDB267D1 
  99      F2328E93 
  99      901C25AD 
  99      77C2
 100 0355 0FA36A31 		.ascii	"\017\243j1\030\226\203b\006\00556\213[\3407\036\005"
 100      18968362 
 100      06053536 
 100      8B5BE037 
 100      1E05
 101 0367 9308EB17 		.ascii	"\223\010\353\027\256\230\000_4\271\015=]A\335u\221\216"
 101      AE98005F 
 101      34B90D3D 
 101      5D41DD75 
 101      918E
 102 0379 9C5C7AC5 		.ascii	"\234\\z\305i\201hJm~\013\026$\015\355\006\246C\265r"
 102      6981684A 
 102      6D7E0B16 
 102      240DED06 
 102      A643B572 
 103 038d B2BE04EB 		.ascii	"\262\276\004\353h\262v\335\373;\371iB\002\341pU\346"
 103      68B276DD 
 103      FB3BF969 
 103      4202E170 
 103      55E6
 104 039f 3382F9C8 		.ascii	"3\202\371\310\340\037\367KZ\004\217\036\352\374\332"
 104      E01FF74B 
 104      5A048F1E 
 104      EAFCDA
 105 03ae B5E1886C 		.ascii	"\265\341\210l\342/\267\324~\203\265RXt\216G`\003Q\241"
 105      E22FB7D4 
 105      7E83B552 
 105      58748E47 
 105      600351A1 
 106 03c2 41CAB259 		.ascii	"A\312\262Y;Q\2733\177\270)\250U\226\251\317\231\266"
 106      3B51BB33 
 106      7FB829A8 
 106      5596A9CF 
 106      99B6
 107 03d4 F00B8E57 		.ascii	"\360\013\216Wt@\326\023}w\307@\006O\363\026{M7\314~"
ARM GAS  /tmp/cc6h3xZD.s 			page 8


 107      7440D613 
 107      7D77C740 
 107      064FF316 
 107      7B4D37CC 
 108 03e9 410BB1C5 		.ascii	"A\013\261\305\177\331\344\244\337\250\3546\027\346\247"
 108      7FD9E4A4 
 108      DFA8EC36 
 108      17E6A7
 109 03f8 8B5728D9 		.ascii	"\213W(\331\331\235\335\031\226R)\270\210>\224\370\366"
 109      D99DDD19 
 109      965229B8 
 109      883E94F8 
 109      F6
 110 0409 1926C78F 		.ascii	"\031&\307\217\037\214I{|\177\325:\001Su\305\226u\252"
 110      1F8C497B 
 110      7C7FD53A 
 110      015375C5 
 110      9675AA
 111 041c 5F58B36E 		.ascii	"_X\263nA\317\020\351\231*\253\2420\374\374\011\231\256"
 111      41CF10E9 
 111      992AABA2 
 111      30FCFC09 
 111      99AE
 112 042e B50CEC0F 		.ascii	"\265\014\354\017\010\014\371W[\246\324\012\335\263\241"
 112      080CF957 
 112      5BA6D40A 
 112      DDB3A1
 113 043d 66A7554D 		.ascii	"f\247UM\001\277Z\271\316\342\031\302\302\362AT:U\324"
 113      01BF5AB9 
 113      CEE219C2 
 113      C2F24154 
 113      3A55D4
 114 0450 D8D1938D 		.ascii	"\330\321\223\215\2066\325\267j\200\307\217\3635\223"
 114      8636D5B7 
 114      6A80C78F 
 114      F33593
 115 045f AB18E76F 		.ascii	"\253\030\347o\262\272k\244&\325\366\370\320L\223\257"
 115      B2BA6BA4 
 115      26D5F6F8 
 115      D04C93AF 
 116 046f 40E83842 		.ascii	"@\3508Bq\357\322\243\266\243JV\000\352\265\032\374\014"
 116      71EFD2A3 
 116      B6A34A56 
 116      00EAB51A 
 116      FC0C
 117 0481 65D1D258 		.ascii	"e\321\322X\344\237\026\005\341\370\025~\035\256A\226"
 117      E49F1605 
 117      E1F8157E 
 117      1DAE4196 
 118 0491 7403BF83 		.ascii	"t\003\277\203\017\367\306\367uL:\262vG\341k\011~\360"
 118      0FF7C6F7 
 118      754C3AB2 
 118      7647E16B 
 118      097EF0
 119 04a4 50678BB0 		.ascii	"Pg\213\260\340\353\340\372\002\374\006\370t\221\315"
 119      E0EBE0FA 
 119      02FC06F8 
ARM GAS  /tmp/cc6h3xZD.s 			page 9


 119      7491CD
 120 04b3 6E53F6F2 		.ascii	"nS\366\362\232\3069u9\031\207\331\03399n\353\257\304"
 120      9AC63975 
 120      391987D9 
 120      1B39396E 
 120      EBAFC4
 121 04c6 E32D7117 		.ascii	"\343-q\027\227\270\275;J\213\363<\013\257[\351w\253"
 121      97B8BD3B 
 121      4A8BF33C 
 121      0BAF5BE9 
 121      77AB
 122 04d8 D7F359A9 		.ascii	"\327\363Y\251\247(\317\263u\343\306M9yL|\342\375\210"
 122      A728CFB3 
 122      75E3C64D 
 122      39794C7C 
 122      E2FD88
 123 04eb 977C0A85 		.ascii	"\227|\012\205k\027\255wx\311\266\260(o{i\276\307\235"
 123      6B17AD77 
 123      78C9B6B0 
 123      286F7B69 
 123      BEC79D
 124 04fe 57505250 		.ascii	"WPRP\354\331\226\357\315)`k\236\213A/\270o{\373\235"
 124      ECD996EF 
 124      CD29606B 
 124      9E8B412F 
 124      B86F7BFB 
 125 0513 77DF632B 		.ascii	"w\337c+\013\213>\337\266\2750?s\201\212\375\007\305"
 125      0B8B3EDF 
 125      B6BD303F 
 125      73818AFD 
 125      07C5
 126 0525 11E505   		.ascii	"\021\345\005"
 127              		.text
 128              		.section	.gnu.lto_msg_thread1.52e048088800b1f1,"",%progbits
 129 0000 789C7D90 		.ascii	"x\234}\220;K\003A\020\307\347\277{\211\361\025\354M"
 129      3B4B0341 
 129      10C7E7BF 
 129      7B89F115 
 129      EC4D
 130 0012 912ED824 		.ascii	"\221.\330$\021\204\3709\374\002)\302\265\276\222\324"
 130      1184F839 
 130      FC0229C2 
 130      B5BE92D4 
 131 0022 B73E0EB5 		.ascii	"\267>\016\265\210\330\244\211\202\202H|'&6\261\272D"
 131      88D8A489 
 131      8282487C 
 131      272636B1 
 131      BA44
 132 0034 ED54B052 		.ascii	"\355T\260RTP\024EE0\001\025\233x\356z\032\273\014\273"
 132      54501445 
 132      45300115 
 132      9B78EE7A 
 132      1ABB0CBB 
 133 0048 FC679699 		.ascii	"\374g\226\231\337\314\254F e\367R\372\245v\313\013N"
 133      DFCCAC46 
 133      2065F752 
 133      FAA576CB 
ARM GAS  /tmp/cc6h3xZD.s 			page 10


 133      0B4E
 134 005a 60732744 		.ascii	"`s'Dc\036\006(Gx@\006\203\201wVg\250L=\224XOVH\273Y"
 134      631E0628 
 134      47784006 
 134      83817756 
 134      67A84C3D 
 135 0075 C9748855 		.ascii	"\311t\210U\013&'\262\331\017\211\220E\217\314:\235\314"
 135      0B2627B2 
 135      D90F8990 
 135      458FCC3A 
 135      9DCC
 136 0087 2FF03766 		.ascii	"/\3607fr@\223a\3558s\347U!\203_\206G\326L\256\215G@"
 136      72409361 
 136      ED3873E7 
 136      5521835F 
 136      8647D64C 
 137 009f D2BF59DC 		.ascii	"\322\277Y\334;n\015\254\0101.DA\010h&\347X\007\227@"
 137      3B6E0DAC 
 137      08312E44 
 137      41086826 
 137      E7580797 
 138 00b4 ACC18755 		.ascii	"\254\301\207U\370H>\0216\020P\371\267;_\351N\367\244"
 138      F8483E11 
 138      361050F9 
 138      B73B5FE9 
 138      4EF7A4
 139 00c7 EAEF77BA 		.ascii	"\352\357w\272b\023n\265Gn\300\022\266=!\304|\357+k\221"
 139      62136EB5 
 139      476EC012 
 139      B63D21C4 
 139      7CEF2B6B 
 140 00dc C3AB0AAA 		.ascii	"\303\253\012\252\312\024\265E\2151\245\374\021\246u"
 140      CA14B545 
 140      8D31A5FC 
 140      11A675
 141 00eb D6A96A14 		.ascii	"\326\251j\024\255Tz\271l1\352bZ\210.\223k6\223 l\301"
 141      AD547AB9 
 141      6C31EA62 
 141      5A882E93 
 141      6B369320 
 142 0101 A009AE96 		.ascii	"\240\011\256\226\235M\247\312Ps\273P&l\303gr7)\3029"
 142      9D4DA7CA 
 142      5073BB50 
 142      266CC367 
 142      723729C2 
 143 0116 9A12720D 		.ascii	"\232\022r\015\302\322\323g\246\335!T\010\371\177\302"
 143      C2D2D367 
 143      A6DD2154 
 143      08F97FC2 
 144 0126 4573C24E 		.ascii	"Es\302N\203\260\374\261{\342u\010\373\204\302?\341\252"
 144      83B0FCB1 
 144      7BE27508 
 144      FB84C23F 
 144      E1AA
 145 0138 39A1D820 		.ascii	"9\241\330 \034\246\212G\2773\034\020v\035\3023\306\255"
 145      1CA68A47 
 145      BF331C10 
ARM GAS  /tmp/cc6h3xZD.s 			page 11


 145      761DC233 
 145      C6AD
 146 014a 6BD70F41 		.ascii	"k\327\017AYU\326\310\357\221\237\325\027\014\206\234"
 146      5955D6C8 
 146      EF919FD5 
 146      170C869C 
 147 015a 93D0E389 		.ascii	"\223\320\343\211\320h\"\024\037J\216\306\364\2770\252"
 147      D0682214 
 147      1F4A8EC6 
 147      F4BF30AA 
 148 016a 341AD747 		.ascii	"4\032\327G\222\372`L\217\206\303\221`\2140\374\015\335"
 148      92FA604C 
 148      8F86C391 
 148      608C30FC 
 148      0DDD
 149 017c ECB90F   		.ascii	"\354\271\017"
 150              		.text
 151              		.section	.gnu.lto_rt_test_sequence_007.52e048088800b1f1,"",%progbits
 152 0000 789C6361 		.ascii	"x\234ca`d\000\201l \366a\200\200\277L\214\315\277\366"
 152      60640081 
 152      6C20F661 
 152      8080BF4C 
 152      8CCDBFF6 
 153 0014 7FE6ABFF 		.ascii	"\177\346\253\377\3330\243\241\341\301\323\377\022\255"
 153      DB30A3A1 
 153      E1C1D3FF 
 153      12AD
 154 0022 CC0C9DCC 		.ascii	"\314\014\235\314\020\231\273\217\366n\343U4\237\337"
 154      1099BB8F 
 154      F66EE355 
 154      349FDF
 155 0031 3043A195 		.ascii	"0C\241\225\231\021$\362eQ\3537\250\332\003\177\330["
 155      991124F2 
 155      6551EB37 
 155      A8DA037F 
 155      D85B
 156 0043 99991857 		.ascii	"\231\231\030W0*BLy\271h\017\227\305\266\206\216\005"
 156      302A424C 
 156      79B9680F 
 156      97C5B686 
 156      8E05
 157 0055 0D40C5CC 		.ascii	"\015@\305\314\377\230\030\030W2\326\377cbd\\\316X\317"
 157      FF981818 
 157      5732D6FF 
 157      6362645C 
 157      CE58CF
 158 0068 C0B88AD1 		.ascii	"\300\270\212\321\202\301DOO\037\202JR\213K\364\213J"
 158      82C1444F 
 158      4F1F824A 
 158      528B4BF4 
 158      8B4A
 159 007a F48BF34B 		.ascii	"\364\213\363K\213\222Sa\334x\020\035_\234ZX\232\232"
 159      8B925361 
 159      DC78101D 
 159      5F9C5A58 
 159      9A9A
 160 008c 979C1A6F 		.ascii	"\227\234\032o``\256\227\314 \032\\\231\227\234Q\224"
ARM GAS  /tmp/cc6h3xZD.s 			page 12


 160      6060AE97 
 160      CC201A5C 
 160      99979C51 
 160      94
 161 009d 9F975F5A 		.ascii	"\237\227_Z\254\340\233Z\\\234\230\236Z\314\000\000\252"
 161      ACE09B5A 
 161      5C9C989E 
 161      5ACC0000 
 161      AA
 162 00ae 0E44F0   		.ascii	"\016D\360"
 163              		.text
 164              		.section	.gnu.lto_rt_test_sequence_007_array.52e048088800b1f1,"",%progbits
 165 0000 789C6361 		.ascii	"x\234ca`d\000\001? 6c\200\200\277L\214\323Z\017\235"
 165      60640001 
 165      3F203663 
 165      8080BF4C 
 165      8CD35A0F 
 166 0015 67FFC2D4 		.ascii	"g\377\302\324\312\014\224\006r\233\177\355\377\314W"
 166      CA0C9406 
 166      729B7FED 
 166      FFCC57
 167 0024 FFB76146 		.ascii	"\377\267aFC\303\203\243\277%\200\302\235\314\020\205"
 167      43C383A3 
 167      BF2580C2 
 167      9DCC1085 
 168 0034 3D8F9AA6 		.ascii	"=\217\232\2461Ylk\350X\320\240\320\312\314\310h(\303"
 168      31596C6B 
 168      E858D0A0 
 168      D0CACCC8 
 168      6828C3
 169 0047 B882B19E 		.ascii	"\270\202\261\236\321H\206q9\243\014\003\343JF\013\006"
 169      D1488671 
 169      39A30C03 
 169      E34A460B 
 169      06
 170 0058 133D3D7D 		.ascii	"\023==}\010*I-.\321/*\321/\316/-JN\205q\343At|qjaij"
 170      082A492D 
 170      2ED12F2A 
 170      D12FCE2F 
 170      2D4A4E85 
 171 0076 5E726ABC 		.ascii	"^rj\274\201\201\271^2\003\000\305O-\332"
 171      8181B95E 
 171      320300C5 
 171      4F2DDA
 172              		.text
 173              		.section	.gnu.lto_rt_test_007_001.52e048088800b1f1,"",%progbits
 174 0000 789C6361 		.ascii	"x\234ca`d\000\201\016 \366a\200\200\277L\214;w\276\271"
 174      60640081 
 174      0E20F661 
 174      8080BF4C 
 174      8C3B77BE 
 175 0015 CD5EFFB7 		.ascii	"\315^\377\267\241\243\241\341\301\323o\022\255\314\014"
 175      A1A3A1E1 
 175      C1D36F12 
 175      ADCC0C
 176 0024 FF992032 		.ascii	"\377\231 2\323Z\017\235g\377\302\004\024a\004q\017\034"
 176      D35A0F9D 
ARM GAS  /tmp/cc6h3xZD.s 			page 13


 176      67FFC204 
 176      14610471 
 176      0F1C
 177 0036 BDD0C3A4 		.ascii	"\275\320\303\244h>\277a\206B+3X\344\375\236}- \2553"
 177      683EBF61 
 177      86422B33 
 177      58E4FD9E 
 177      7D2D20AD 
 178 004b 1A1A0E6C 		.ascii	"\032\032\016l`oefb\\\311\250\010\326\372\346\324\267"
 178      606F6566 
 178      625CC9A8 
 178      08D6FAE6 
 178      D4B7
 179 005d E75C16DB 		.ascii	"\347\\\026\333\032:\02648\26423\377cb`\\\305X\377\217"
 179      1A3A1634 
 179      38B43233 
 179      FF636260 
 179      5CC558FF 
 180 0072 89917105 		.ascii	"\211\221q\005\243\314?&&\010\305\314\270\234\261\236"
 180      A3CC3F26 
 180      2608C5CC 
 180      B89CB19E 
 181 0082 817135A3 		.ascii	"\201q5\243\005\203\211\236\236>\004\225\244\026\227"
 181      0583899E 
 181      9E3E0495 
 181      A41697
 182 0091 E81795E8 		.ascii	"\350\027\225\350\027\347\227\026%\247\302\270\361 :"
 182      17E79716 
 182      25A7C2B8 
 182      F1203A
 183 00a0 BE38B5B0 		.ascii	"\2768\265\26045/95\336\300\300\\/\231A\3247\265\270"
 183      34352F39 
 183      35DEC0C0 
 183      5C2F9941 
 183      D437B5B8 
 184 00b4 38313DB5 		.ascii	"81=\265X!8\265\250,\265H!'?\277\200\001\000\350rM\356"
 184      582138B5 
 184      A82CB548 
 184      21273FBF 
 184      800100E8 
 185              		.text
 186              		.section	.gnu.lto_.symbol_nodes.52e048088800b1f1,"",%progbits
 187 0000 789C5D8C 		.ascii	"x\234]\214K\012\3020\024Eon\232\372Wp\003\272\000\327"
 187      4B0AC230 
 187      14456F6E 
 187      9AFA5770 
 187      03BA00D7 
 188 0014 E88B501C 		.ascii	"\350\213P\0348\020\227\240\320E\270\200\202\377\372"
 188      381097A0 
 188      D045B880 
 188      82FFFA
 189 0023 77ACD0A1 		.ascii	"w\254\320\241k\020\323\352\3008:\227\363N\022@\241\247"
 189      6B10D3EA 
 189      C0383A97 
 189      F34E1240 
 189      A1A7
 190 0035 00704951 		.ascii	"\000pIQ\230\244\200\000\363\351\314j\300l\211\256\273"
ARM GAS  /tmp/cc6h3xZD.s 			page 14


 190      98A48000 
 190      F3E9CC6A 
 190      C06C89AE 
 190      BB
 191 0046 991D55C1 		.ascii	"\231\035U\301\033\231\223\013\272\350\257\335S\027\315"
 191      1B99930B 
 191      BAE8AFDD 
 191      5317CD
 192 0055 86C1A09D 		.ascii	"\206\301\240\235\2175\315g\254\030Z7\264\272PX<\003"
 192      8F35CD67 
 192      AC185A37 
 192      B4BA5058 
 192      3C03
 193 0067 AC75B13A 		.ascii	"\254u\261:S\264'N\224\300\023G\212\361\304\201\022z"
 193      53B4274E 
 193      94C01347 
 193      8AF1C481 
 193      127A
 194 0079 22A5943C 		.ascii	"\"\245\224<q\245\224\177\205F\023\311\343\2454\032H"
 194      71A5947F 
 194      854613C9 
 194      E3A5341A 
 194      48
 195 008a 86595FA3 		.ascii	"\206Y_\243\216h\224\263\206\244`\025\321\370\331\321"
 195      8E6894B3 
 195      86A46015 
 195      D1F8D9D1 
 196 009a A820CE19 		.ascii	"\250 \316\031\264\020\337]\357\230|\231}\031\271\177"
 196      B410DF5D 
 196      EF987C99 
 196      7D19B97F 
 197 00aa F00683E5 		.ascii	"\360\006\203\345H>"
 197      483E
 198              		.text
 199              		.section	.gnu.lto_.refs.52e048088800b1f1,"",%progbits
 200 0000 789C05C1 		.ascii	"x\234\005\301\201\001\000 \010\303\260v(\360\206\377"
 200      81010020 
 200      08C3B076 
 200      28F086FF 
 201 0010 3F697290 		.ascii	"?ir\220\0074*\011U9\355\035];\343d\335\300\007\013\226"
 201      07342A09 
 201      5539ED1D 
 201      5D3BE364 
 201      DDC0070B 
 202 0025 008A     		.ascii	"\000\212"
 203              		.text
 204              		.section	.gnu.lto_.decls.52e048088800b1f1,"",%progbits
 205 0000 789CB53B 		.ascii	"x\234\265;\011TT\331\225\365\376+\266\242\000\243v\322"
 205      095454D9 
 205      95F5FE2B 
 205      B6A200A3 
 205      76D2
 206 0012 670E497A 		.ascii	"g\016IzzH\232\314\244E\273;\335\311939\323\343\351\364"
 206      7A489ACC 
 206      A445BB3B 
 206      DDC93933 
 206      39D3E3E9 
ARM GAS  /tmp/cc6h3xZD.s 			page 15


 207 0027 74663A9D 		.ascii	"tf:\235\244\323\235m\3160%\224J\302fU\331\335\31693"
 207      A4D39D6D 
 207      CE302594 
 207      4AC26655 
 207      D9DDCE39 
 208 003c 290145DC 		.ascii	")\001E\334\0007\004DQPAD\366E\026-Q\001Av\001\001\331"
 208      00370444 
 208      51504144 
 208      F645162D 
 208      51014176 
 209 0053 14704311 		.ascii	"\024pC\021A@\026\235\373\226_\377\377\242\312\366\314"
 209      4140169D 
 209      FB965FFF 
 209      FFA2CAF6 
 209      CC
 210 0064 9929BDF5 		.ascii	"\231)\275\365\377\375\377\276\273\337\373\337{\277P"
 210      FFFDFFBE 
 210      BBDFFBDF 
 210      7BBF50
 211 0073 AB908A7C 		.ascii	"\253\220\212|V\376D\245\272\356\242R\005\013*\325s\370"
 211      56FE44A5 
 211      BAEEA252 
 211      050B2AD5 
 211      73F8
 212 0085 38C3B5CF 		.ascii	"8\303\265\317\001\340\222*\017 \037\240\004\240\024"
 212      01E0922A 
 212      0F201FA0 
 212      04A014
 213 0094 E013800A 		.ascii	"\340\023\200\012\200j\025\373\270\001\324\0014\000t"
 213      806A15FB 
 213      B801D401 
 213      340074
 214 00a3 03DC0018 		.ascii	"\003\334\000\030\000H\007\326'\001J\000*\020\343u\016"
 214      004807D6 
 214      27014A00 
 214      2A10E375 
 214      0E
 215 00b4 8E9701BE 		.ascii	"\216\227\001\276\013r^\007\370)\300j\200\017\004\225"
 215      0B725E07 
 215      F829C06A 
 215      800F0495 
 216 00c4 E243787D 		.ascii	"\342Cx}\237\353\260\024`9\227\267\0011\371\237\001\214"
 216      9FEBB014 
 216      603997B7 
 216      0131F99F 
 216      018C
 217 00d6 01BC0190 		.ascii	"\001\274\001\220\013\3603\030\377!\300%\270\177\021"
 217      0BF03318 
 217      FF21C025 
 217      B87F11
 218 00e5 E09FE1FC 		.ascii	"\340\237\341\374;\000\256\000\006\300?\022\230\316\305"
 218      3B00AE00 
 218      06C03F12 
 218      98CEC5
 219 00f4 70FE7338 		.ascii	"p\376s8\377k\200\177\0018\001\370\277\302\361c\2004"
 219      FF6B807F 
 219      013801F8 
ARM GAS  /tmp/cc6h3xZD.s 			page 16


 219      BFC2F163 
 219      8034
 220 0106 38FF051C 		.ascii	"8\377\005\034\373\211l8^%\266\012\213\355\357\002\300"
 220      FB896C38 
 220      5E25B60A 
 220      8BEDEF02 
 220      C0
 221 0117 00AFC0BD 		.ascii	"\000\257\300\275g0&\031@\303u\3765\\\373\215\300l&>"
 221      67302619 
 221      40C375FE 
 221      355CFB8D 
 221      C06C263E 
 222 012b 21F6133F 		.ascii	"!\366\023?\014p\277\020\377\250\355\370A\376\251\343"
 222      0C70BF10 
 222      FFA8EDF8 
 222      41FEA9E3 
 223 013b 7E97DB4E 		.ascii	"~\227\333N\354\375L`>(g!S\011\234\266\002\251\026}\210"
 223      ECFD4C60 
 223      3E286721 
 223      53099CB6 
 223      02A9167D 
 224 0150 5F899CCF 		.ascii	"_\211\234\317\341\370\007\200?\002\374\203\300\306\274"
 224      E1F80780 
 224      3F02FC83 
 224      C0C6BC
 225 015f 075F3FE1 		.ascii	"\007_?\3412\311\320\3256\362Ws\272\267\341\353\237d"
 225      32C9D0D5 
 225      36F25773 
 225      BAB7E1EB 
 225      9F64
 226 0171 F708AD6D 		.ascii	"\367\010\255m\234>\340r\276/\223\363\026\277\366wp\374"
 226      9C3EE072 
 226      BE2F93F3 
 226      16BFF677 
 226      70FC
 227 0183 5B801F00 		.ascii	"[\200\037\000\374P`\343\033\026\253\252Z\020PKT\356"
 227      FC5060E3 
 227      1B16ABAA 
 227      5A10504B 
 227      54EE
 228 0195 213C29A0 		.ascii	"!<)\240\245\032\244\006t\274!\351\226'\240\3135\350"
 228      A51AA406 
 228      74BC21E9 
 228      9627A0CB 
 228      35E8
 229 01a7 3540FB73 		.ascii	"5@\373s\363\246\2354\333\314\360\211\2134/\255\365$"
 229      F3A69D34 
 229      DBCCF089 
 229      8B342FAD 
 229      F524
 230 01b9 7419C81B 		.ascii	"t\031\310\033\235D\336\3006\023\201\367\221\037C\201"
 230      9D44DEC0 
 230      361381F7 
 230      911F4381 
 231 01c9 FC4A7AD9 		.ascii	"\374Jz\331\274\2261s\0024y\242\367\256\033c\346\013"
 231      BC963173 
 231      023479A2 
ARM GAS  /tmp/cc6h3xZD.s 			page 17


 231      F7AE1B63 
 231      E60B
 232 01db 68FB4CE5 		.ascii	"h\373L\345\254\026\013\010(\325\005\021\375G=\221\257"
 232      AC160B08 
 232      28D50511 
 232      FD473D91 
 232      AF
 233 01ec 37025E48 		.ascii	"7\002^Hs\202\0120\233\005\025\312E\032t\032aQ\303$3"
 233      73820A30 
 233      9B0515CA 
 233      451A741A 
 233      6151C324 
 234 0201 087FF417 		.ascii	"\010\177\364\027r\031\316]\351\021\256D\230\037\035"
 234      7219CE5D 
 234      E911AE44 
 234      981F1D
 235 0210 333BBFAA 		.ascii	"3;\277\252Bo{\243\225\336*\224\215|\351-\025\312\001"
 235      426F7BA3 
 235      95DE2A94 
 235      8D7CE92D 
 235      15CA01
 236 0223 86679836 		.ascii	"\206g\2306\015\251\315[=\227\306q\336\377\210(\357,"
 236      0DA9CD5B 
 236      3D97C671 
 236      DEFF8828 
 236      EF2C
 237 0235 B87F8A2A 		.ascii	"\270\177\212*\237\207\226\212&P\004F\354;~c\034k\267"
 237      9F87968A 
 237      26500446 
 237      EC3B7E63 
 237      1C6BB7
 238 0248 13FEDC5C 		.ascii	"\023\376\334\\\270.\2637\037ii8\340\010\324\255\217"
 238      B82EB337 
 238      1F696938 
 238      E008D4AD 
 238      8F
 239 0259 AEA6B833 		.ascii	"\256\246\2703k\227\000\232d\336z\006;\366U\241\350\253"
 239      6B97009A 
 239      64DE7A06 
 239      3BF655A1 
 239      E8AB
 240 026b 02A6DDB6 		.ascii	"\002\246\335\266\232\276v\304F\177\003\320\323\0155"
 240      9ABE76C4 
 240      467F03D0 
 240      D30D35
 241 027a 3730F3D5 		.ascii	"70\363\3256\004\370\205\203\217\246\026)_\014\334\212"
 241      3604F885 
 241      838FA616 
 241      295F0CDC 
 241      8A
 242 028b 28B712AA 		.ascii	"(\267\022\252|!S\276\204*\277k\306\262\340\241P\276"
 242      7C2153BE 
 242      842ABF6B 
 242      C6B2E0A1 
 242      50BE
 243 029d 44A17C29 		.ascii	"D\241|)W\276\224*\337\3774\343g+N\213~w\221\022\342"
 243      57BE942A 
ARM GAS  /tmp/cc6h3xZD.s 			page 18


 243      DFFF34E3 
 243      672B4E8B 
 243      7E779112 
 244 02b2 CCE9B95C 		.ascii	"\314\351\271\\\215\232$\315gZ\264FM.]\337r\355\260\360"
 244      8D9A24CD 
 244      675AB446 
 244      4D2E5DDF 
 244      72EDB0F0 
 245 02c6 EA016ED9 		.ascii	"\352\001n\331kj\364\3717e|\313\321\253\360]\206\324"
 245      6B6AF4F9 
 245      37657CCB 
 245      D1ABF05D 
 245      86D4
 246 02d8 6CBCF988 		.ascii	"l\274\371\2109VP\250\001\0042\362\012\244Eg\321\012"
 246      395650A8 
 246      010432F2 
 246      0AA44567 
 246      D10A
 247 02ea 153B8501 		.ascii	"\025;\205\001[ve'h\300rg\015\"\375\317\005.\015=\232"
 247      5B766527 
 247      68C07267 
 247      0D22FDCF 
 247      052E0D3D 
 248 02ff 2D56B34B 		.ascii	"-V\263KD\350Wp)%\361F\236'^B\222G8?\235S\355\212|Y\332"
 248      44E85770 
 248      2925F146 
 248      9E275E42 
 248      9247383F 
 249 031a 0C3C995F 		.ascii	"\014<\231_\035i6#t\001\034t\036a\221\2713q\215,\032"
 249      1D693623 
 249      74011C74 
 249      1E6191B9 
 249      33718D2C 
 250 032f 2AAB0EC8 		.ascii	"*\253\016\310\002\331\002\254\011!:\007\027+YD\036?"
 250      02D902AC 
 250      09213A07 
 250      172B5944 
 250      1E3F
 251 0341 7D54A8C6 		.ascii	"}T\250\306\300\211\310\250\334>Z\351f\225\221\267}E"
 251      C089C8A8 
 251      DC3E5AE9 
 251      669591B7 
 251      7D45
 252 0353 96D9BC04 		.ascii	"\226\331\274\004]\002\031U\222\214\013\310\261\220\213"
 252      5D021955 
 252      928C0BC8 
 252      B1908B
 253 0362 F68574EE 		.ascii	"\366\205t\356l\353q\306\267\230\220\374\230\256D'\244"
 253      6CEB71C6 
 253      B79890FC 
 253      98AE4427 
 253      A4
 254 0373 F1B5CFA1 		.ascii	"\361\265\317\241\306\016\007\246NA\223_%Q\247\032\324"
 254      C60E07A6 
 254      4E41935F 
 254      2551A71A 
 254      D4
ARM GAS  /tmp/cc6h3xZD.s 			page 19


 255 0384 B92CA973 		.ascii	"\271,\251s\211\245\003\\\005A\225ms\215\352\036\324"
 255      89A5035C 
 255      0541956D 
 255      738DEA1E 
 255      D4
 256 0395 85482897 		.ascii	"\205H(\227\2606\202\3307\242\240b@Q8\021\350\267J\272"
 256      B03682D8 
 256      37A2A062 
 256      40513811 
 256      E8B74ABA 
 257 03a9 8444428E 		.ascii	"\204DB\216\013\342\251\312\312\214\376\347\343\351\303"
 257      0BE2A9CA 
 257      CA8CFEE7 
 257      E3E9C3
 258 03b8 8B7E2813 		.ascii	"\213~(\023\211;\342\203\030.64\304qA\022\200\030*\016"
 258      893BE283 
 258      182E3634 
 258      C4714112 
 258      80182A0E 
 259 03cc 90F163EA 		.ascii	"\220\361c\352rv\222\316V\233\220\230\274\327\367\267"
 259      727692CE 
 259      569B9098 
 259      BCD7F7B7 
 260 03dc ECF2C2C7 		.ascii	"\354\362\302\307h\217A\223\247fG=^O5[r\315\003\225m"
 260      688F4193 
 260      A766473D 
 260      5E4F355B 
 260      72CD0395 
 261 03f1 EF1CCC37 		.ascii	"\357\034\3147\233c\300{j\232\220W$\267]\241\355\006"
 261      9B63C07B 
 261      6A9A9057 
 261      24B75DA1 
 261      ED06
 262 0403 D5A21EE0 		.ascii	"\325\242\036\340Z\207^'\325X>=\351\216o1>\013W\222\223"
 262      5A875E27 
 262      D5583E3D 
 262      E98E6F31 
 262      3E0B5792 
 263 0418 1CA7FF55 		.ascii	"\034\247\377U\232\376kx\366\267\3266\024x1\231\226\222"
 263      9AFE6B78 
 263      F6B7D636 
 263      14783199 
 263      9692
 264 042a 6ACF44B3 		.ascii	"j\317D\263%\012\206\011\204\012\325K\"\353\345\"\033"
 264      250A8609 
 264      840AD54B 
 264      22EBE522 
 264      1B
 265 043b A8C8BB9D 		.ascii	"\250\310\273\235\317\336\303sLbw\315\325(g\015\357s"
 265      CFDEC373 
 265      4C6277CD 
 265      D528670D 
 265      EF73
 266 044d 715FD7E7 		.ascii	"q_\327\347\356g\215tx**\256\011\311;O3+|\322\237/\326"
 266      EE678D74 
 266      782A2AAE 
 266      09C93B4F 
ARM GAS  /tmp/cc6h3xZD.s 			page 20


 266      332B7CD2 
 267 0464 47605ADB 		.ascii	"G`Z\333p\215\027\367\336\274\364\030'\305\350\\\305"
 267      708D17F7 
 267      DEBCF418 
 267      27C5E85C 
 267      C5
 268 0475 E856EBE8 		.ascii	"\350V\353\350\351\210{1\236t4\\C-\210\016o\270\334v"
 268      E9887B31 
 268      9E74345C 
 268      432D880E 
 268      6FB8DC76 
 269 0489 D005C763 		.ascii	"\320\005\307c\332\325\207\316\024v`\344\306\272\272"
 269      DAD587CE 
 269      147660E4 
 269      C6BABA
 270 0498 6F34D53F 		.ascii	"o4\325?\"\365\265\015V\375\257\203\376\355\010\246-"
 270      22F5B50D 
 270      56FDAF83 
 270      FEED08A6 
 270      2D
 271 04a9 A803483A 		.ascii	"\250\003H:A\000i\352\344\012m\364K\350\251\354i\000"
 271      410069EA 
 271      E40A6DF4 
 271      4BE8A9EC 
 271      6900
 272 04bb 28BA263D 		.ascii	"(\272&=\015@^~yn\266\247<\030\204D\322\266\213F\243"
 272      0D405E7E 
 272      796EB6A7 
 272      3C188444 
 272      D2B68B46 
 273 04d0 4D6C462D 		.ascii	"MlF-\023\321QZ\010\307\000\024M\177\367\007\221i[-q"
 273      13D1515A 
 273      08C70014 
 273      4D7FF707 
 273      91695B2D 
 274 04e5 8852A146 		.ascii	"\210R\241F)\032\215\\\002\352\246\221\310*\035\271\346"
 274      291A8D5C 
 274      02EAA691 
 274      C82A1DB9 
 274      E6
 275 04f6 810BA949 		.ascii	"\201\013\251I\310|\346\356\003\017\316!\345\360\277"
 275      C87CE6EE 
 275      030FCE21 
 275      E5F0BF
 276 0505 0FE69BA3 		.ascii	"\017\346\233\243\334h4{\244\361=\342\370\033t\374LB"
 276      DC68347B 
 276      A4F13DE2 
 276      F81B74FC 
 276      4C42
 277 0517 F7530F3C 		.ascii	"\367S\017<\301\306\3378\237\031\357F\235F\334\312\\"
 277      C1C6DF38 
 277      9F19EF46 
 277      9D46DCCA 
 277      5C
 278 0528 BEBF287A 		.ascii	"\276\277(z\024;L\250~jB\237hB\372\324\315\036/\321\204"
 278      143B4CA8 
 278      7E6A429F 
ARM GAS  /tmp/cc6h3xZD.s 			page 21


 278      6842FAD4 
 278      CD1E2FD1 
 279 053d A48F4513 		.ascii	"\244\217E\023\200\012\365J*\364\212*\014P\025\012rZ"
 279      800AF54A 
 279      2AF48A2A 
 279      0C50150A 
 279      725A
 280 054f 27051CA9 		.ascii	"'\005\034\251\246*$\014\216\335w\246*T[U(y\230U\342"
 280      A62A240C 
 280      8EDD77A6 
 280      2A545B55 
 280      28799855 
 281 0564 C19E3E16 		.ascii	"\301\236>\026\202g\214\034\332\315\237\334?\006\364"
 281      82678C1C 
 281      DACD9FDC 
 281      3F06F4
 282 0573 5A73DF71 		.ascii	"Zs\337q\214\343\330\370\336\332\314,\362hz\2035h/\270"
 282      8CE3D8F8 
 282      DEDACC2C 
 282      F2687A83 
 282      35682FB8 
 283 0587 94337AF6 		.ascii	"\2243z\366\251\007\273D\263>\366q\272\013N\244\344B"
 283      A907BB44 
 283      B33EF671 
 283      BA0B4EA4 
 283      E442
 284 0599 F5AE827C 		.ascii	"\365\256\202|w\251;\247k\317\222\300\336\003\321w$}"
 284      77A93BA7 
 284      6BCF92C0 
 284      DE03D177 
 284      247D
 285 05ab DFE08D33 		.ascii	"\337\340\2153bq\333\273\0139\362\006o{\267\341\342\010"
 285      6271DBBB 
 285      0B39F206 
 285      6F7BB7E1 
 285      E208
 286 05bd CBF2CCF4 		.ascii	"\313\362\314\364\370c\3168\235\311H,<5\255\221u\347"
 286      F863CE38 
 286      9DC9482C 
 286      3C35AD91 
 286      75E7
 287 05cf 774E1319 		.ascii	"wN\023\031\017@\306}I\306=\344X\310\250}!\346}sG<p6"
 287      0F40C67D 
 287      49C63DE4 
 287      58C8A87D 
 287      21E67D73 
 288 05e7 13929C70 		.ascii	"\023\222\234p\276\222wg;\034\036\331\341\300\273s,\353"
 288      BE927767 
 288      3B1C1ED9 
 288      E1C0BB73 
 288      2CEB
 289 05f9 CE63A0CE 		.ascii	"\316c\240\316CI\235\007T\035\222\022\005\273.\272\342"
 289      43499D07 
 289      541D9212 
 289      05BB2EBA 
 289      E2
 290 060a 22E6DCA4 		.ascii	"\"\346\334\244\362\311:'\346xW@\343n<\255p\307\225\354"
ARM GAS  /tmp/cc6h3xZD.s 			page 22


 290      F2C93A27 
 290      E6785740 
 290      E36E3CAD 
 290      70C795EC 
 291 061e 5ED67454 		.ascii	"^\326tT\221\027\256b\210\030\261\345<b\263{\317\026"
 291      9117AE62 
 291      8818B1E5 
 291      3C62B37B 
 291      CF16
 292 0630 B9E35A76 		.ascii	"\271\343Zv\363\322\255\266Z'\334\310\220\324\252\301"
 292      F3D2ADB6 
 292      5A27DCC8 
 292      90D4AAC1 
 293 0640 37713F3B 		.ascii	"7q?;/\333_\361\300\025\0171\344\302B\327!\015\236dH"
 293      2FDB5FF1 
 293      C0150F31 
 293      E4C242D7 
 293      210D9E64 
 294 0655 F1C8956A 		.ascii	"\361\310\225j\015\343g&\023\216\371\343M\327]\361<\273"
 294      0DE36726 
 294      138EF9E3 
 294      4DD75DF1 
 294      3CBB
 295 0667 595E5251 		.ascii	"Y^RQ\315\265Z\011h\344P\312\240'\336\342D\357U\307F"
 295      CDB55A09 
 295      68E450CA 
 295      A027DEE2 
 295      44EF55C7 
 296 067c EDD4E0DD 		.ascii	"\355\324\340\335N\354\0116\222\234b}LZZ\321\022\264"
 296      4EEC0936 
 296      929C627D 
 296      4C5A5AD1 
 296      12B4
 297 068e 598034B1 		.ascii	"Y\2004\261\265\332\276\013\315\202\335 \210\323\306"
 297      B5DABE0B 
 297      CD82DD20 
 297      88D3C6
 298 069d A56CDA98 		.ascii	"\245l\332\230Y6q\334\031'1\3417\237?\373\023Nc\3471"
 298      593671DC 
 298      192731E1 
 298      379F3FFB 
 298      134E63E7 
 299 06b2 A763AA3D 		.ascii	"\247c\252=q\026C\216\235/\037u\301\345\014\021g\261"
 299      7116438E 
 299      9D2F1F75 
 299      C1E50C11 
 299      67B1
 300 06c4 4BD92C36 		.ascii	"K\331,6\343^\377<\306u\354\336\340\215\232\\O|\225!"
 300      E35EFF3C 
 300      C675ECDE 
 300      E08D9A5C 
 300      4F7C9521 
 301 06d8 E5D3C9E5 		.ascii	"\345\323\311\345^\270\215!\015\267\236?\326\340n\206"
 301      5EB88D21 
 301      0DB79E3F 
 301      D6E06E86 
 302 06e8 94243DB3 		.ascii	"\224$=\263\250\361 \037c\236K\324\342afr\371\366\336"
ARM GAS  /tmp/cc6h3xZD.s 			page 23


 302      A8F1201F 
 302      639E4BD4 
 302      E2616672 
 302      F9F6DE
 303 06fb 5EB5C387 		.ascii	"^\265\303\207v\254\340\340\241m\351\000\347\354\006"
 303      76ACE0E0 
 303      A16DE900 
 303      E7EC06
 304 070a E7EC126C 		.ascii	"\347\354\022l\036\330 `\307\376\007'<\361}&m\356\316"
 304      1ED82060 
 304      C7FE0727 
 304      3CF17D26 
 304      6DEECE
 305 071d BE2E3E33 		.ascii	"\276.>3$\363\243\210\362\256x/\026\250\001Zl\263\333"
 305      24F3A388 
 305      F2AE782F 
 305      16A8015A 
 305      6CB3DB
 306 0730 9EA9F10C 		.ascii	"\236\251\361\014\017FS\352\204+6;S\344l\374\036\010"
 306      0F4653EA 
 306      842B363B 
 306      53E46CFC 
 306      1E08
 307 0742 F65686F4 		.ascii	"\366V\206\364\035\334Q\356\216\023\031r.\366q\251\033"
 307      1DDC51EE 
 307      8E131972 
 307      2EF671A9 
 307      1B
 308 0753 4E6548F4 		.ascii	"NeH\364\314\315\\/\234\311\020q\022\273\234Mb\357EZ"
 308      CCCD5C2F 
 308      9CC91071 
 308      12BB9C4D 
 308      62EF455A 
 309 0767 06D53897 		.ascii	"\006\3258\227\335\313\3312\224\351\012\367\274IDeU\357"
 309      DDCBD932 
 309      94E90AF7 
 309      BC494465 
 309      55EF
 310 0779 CDAABED0 		.ascii	"\315\252\276\3202\221\255\306E\224Vh)\350\272,\315\227"
 310      3291ADC6 
 310      45945668 
 310      29E8BA2C 
 310      CD97
 311 078b 9E4CBE4F 		.ascii	"\236L\276O\347dG\300\336\024\311^ok.(\247\357\207\301"
 311      E76447C0 
 311      DE14C95E 
 311      6F6B2E28 
 311      A7EF87C1 
 312 079f 69DEDC69 		.ascii	"i\336\334i\207\004o\224,\260\222?\222q\311\003\237g"
 312      87046F94 
 312      2CB0923F 
 312      9271C903 
 312      9F67
 313 07b1 021EECBB 		.ascii	"\002\036\354\273\277\015\313J\336\233N\310\216\201\200"
 313      BF0DCB4A 
 313      DE9B4EC8 
 313      8E8180
ARM GAS  /tmp/cc6h3xZD.s 			page 24


 314 07c0 544900C8 		.ascii	"TI\000\310\263/\341\250}\011\021{\333N\273\341"
 314      B32FE1A8 
 314      7D09117B 
 314      DB4EBBE1 
 315 07d0 1A26615F 		.ascii	"\032&a_vv\2264\255,\210]A\253\3708HH\223$\034s$!\335"
 315      76769634 
 315      AD2C885D 
 315      41ABF838 
 315      48489324 
 316 07e9 BE84FD49 		.ascii	"\276\204\375I#\257\342&\346\317\035;\237\345`\334\316"
 316      23AFE226 
 316      E6CF1D3B 
 316      9FE560DC 
 316      CE
 317 07fa A44D57A6 		.ascii	"\244MW\246\025J\225S\010\311\221\011\222N\276\204\244"
 317      154A9553 
 317      08C99109 
 317      924EBE84 
 317      A4
 318 080b 0CFB927A 		.ascii	"\014\373\222zS\306&\324\270\227\211J\277\230\323\342"
 318      53C626D4 
 318      B897894A 
 318      BF98D3E2 
 319 081b 826F3151 		.ascii	"\202o1Q\013\375\017J<\255\242\212AT6\210\312z\011Q\247"
 319      0BFD0F4A 
 319      3CADA28A 
 319      41543688 
 319      CA7A0951 
 320 0830 ED8B7A18 		.ascii	"\355\213z\0305<\300W>\257\222V\264\357\340\333x\224"
 320      353CC057 
 320      3EAF9256 
 320      B4EFE0DB 
 320      7894
 321 0842 097E70BC 		.ascii	"\011~p\2741\237\024\257\257\006\375E\2262\276,e\016"
 321      319F14AF 
 321      AF06FD45 
 321      9632BE2C 
 321      650E
 322 0854 C5DF4C70 		.ascii	"\305\337Lp\303\023L\255\375\23130S\343\37555\322\374"
 322      C3134CAD 
 322      FD993330 
 322      53E3FD35 
 322      35D2FC
 323 0867 FAE63C10 		.ascii	"\372\346<\020\371\004\212\3461\251\244B\220\355\313"
 323      F9048AE6 
 323      31A9A442 
 323      90EDCB
 324 0876 65E781EC 		.ascii	"e\347\201\354\\Al\260OF=\3503\245\000\254\310\227\254"
 324      5C416CB0 
 324      4F463DE8 
 324      33A500AC 
 324      C897AC
 325 0889 F0E5C514 		.ascii	"\360\345\305\024\035\225\021\353\216\2371!\207\343\247"
 325      1D9511EB 
 325      8E9F3121 
 325      87E3A7
 326 0898 CA358E85 		.ascii	"\3125\216\205\2248\024\222\267\375\247\364\241R\014"
ARM GAS  /tmp/cc6h3xZD.s 			page 25


 326      94381492 
 326      B7FDA7F4 
 326      A1520C
 327 08a7 428A2421 		.ascii	"B\212$!\005\002\227\322\227\323sI\215\243]\250\224\252"
 327      050297D2 
 327      97D37349 
 327      8DA35DA8 
 327      94AA
 328 08b9 E2AE7167 		.ascii	"\342\256qg\307R\312\034Ji\237]\237r\315l~\015\235\005"
 328      C752CA1C 
 328      4A699F5D 
 328      9F72CD6C 
 328      7E0D9D05 
 329 08cd 31A59298 		.ascii	"1\245\222\230bQ\314\211\226\321=\312\345\024\241\224"
 329      6251CC89 
 329      96D13DCA 
 329      E514A194 
 330 08dd ADBE0471 		.ascii	"\255\276\004qz\026q\263\270\003\341\012\027\326\352"
 330      7A1671B3 
 330      B803E10A 
 330      17D6EA
 331 08ec 1B2233DD 		.ascii	"\033\"3\335\361\005\206\334\\8:\344\202k\0302s\360J"
 331      F10586DC 
 331      5C383AE4 
 331      826B1832 
 331      73F04A
 332 08ff BA076E60 		.ascii	"\272\007n`\310\236\323\315\235\316\270\205!}g\236U8"
 332      C89ED3CD 
 332      9DCEB885 
 332      217D679E 
 332      5538
 333 0911 E36B0C39 		.ascii	"\343k\0149rc<\333\005w2\363n\307\237(\200f\344+WC6g"
 333      72633CDB 
 333      057732F3 
 333      6EC79F28 
 333      8066E42B 
 334 0929 4197C0BE 		.ascii	"A\227\300\276\317\304e\035\313\262\344\032/3L\355.\012"
 334      CFC4651D 
 334      CBB2E41A 
 334      2F334CED 
 334      2E0A
 335 093b 5A542599 		.ascii	"ZT%\231\365\231\226\351:\020Q\335\346\212\007\230\250"
 335      F59996E9 
 335      3A1051DD 
 335      E68A0798 
 335      A8
 336 094c F187D7E6 		.ascii	"\361\207\327\346=\360\020C\314O\317u;\343;\014\351\331"
 336      3DF01043 
 336      CC4FCF75 
 336      3BE33B0C 
 336      E9D9
 337 095e 3F33E086 		.ascii	"?3\340\206\3573\244\266}\307y5~\310\220\223\365\003"
 337      EF33A4B6 
 337      7DC77935 
 337      7EC89093 
 337      F503
 338 0970 66273CCE 		.ascii	"f'<\316\220\212\355\365\363\256x\222!Ie\321\021\032"
ARM GAS  /tmp/cc6h3xZD.s 			page 26


 338      908AEDF5 
 338      F3AE7892 
 338      214965D1 
 338      111A
 339 0982 3CCD90AC 		.ascii	"<\315\220\254\347\023\261Z<\313-\257h9&\260\254\365"
 339      E713B15A 
 339      3CCB2DAF 
 339      683926B0 
 339      ACF5
 340 0994 01F49465 		.ascii	"\001\364\224eG-_q\247\012\013\202\373\316\266\216\303"
 340      472D5F71 
 340      A70A0B82 
 340      FBCEB68E 
 340      C3
 341 09a5 02F2A19F 		.ascii	"\002\362\241\237e\276\360u\214X;\220rL\327\327:d6\357"
 341      65BEF075 
 341      8C583B90 
 341      724CD7D7 
 341      3A6436EF 
 342 09b9 D152632E 		.ascii	"\321Rc.\2001\035\3022\311\366h\201\204a\025|\251\350"
 342      80311DC2 
 342      32C9F668 
 342      81846115 
 342      7CA9E8
 343 09cc 00CBB94E 		.ascii	"\000\313\271N\2559NG\211\257\330\022?\2461\313@\022"
 343      AD394E47 
 343      89AFD812 
 343      3FA631CB 
 343      4012
 344 09de F53589BA 		.ascii	"\3655\211\272\332\226\372\214-\353\016\211\370\262}"
 344      DA96FA8C 
 344      2DEB0E89 
 344      F8B27D
 345 09ed 6239EB32 		.ascii	"b9\3532\211\272\336\226\332\317\226\270U\"\256\261%"
 345      89BADE96 
 345      DACF96B8 
 345      5522AEB1 
 345      25
 346 09fe 2E90691D 		.ascii	".\220i\035\317'\347fdR\241&\310\345F\220\213\032\370"
 346      CF27E766 
 346      6452A126 
 346      C8E54690 
 346      8B1AF8
 347 0a11 100833EA 		.ascii	"\020\0103\352\204d\270.\370\240k\000\335\000-\000]\000"
 347      8464B82E 
 347      F8A06B00 
 347      DD002D00 
 347      5D00
 348 0a23 ED00AD00 		.ascii	"\355\000\255\000m\000\315\202\017\235\256\262\\\231"
 348      6D00CD82 
 348      0F9DAEB2 
 348      5C99
 349 0a31 38A025B9 		.ascii	"8\240%\271\002\014T<QTV\275\316v.'\213(L5\273j\327\014"
 349      020C543C 
 349      515456BD 
 349      CE762E27 
 349      8B284C35 
ARM GAS  /tmp/cc6h3xZD.s 			page 27


 350 0a49 99839A25 		.ascii	"\231\203\232%+j\355[!#\256\220\210\353\354\007\212\022"
 350      2B6AED5B 
 350      2123AE90 
 350      88EBEC07 
 350      8A12
 351 0a5b 93B5F44C 		.ascii	"\223\265\364L\322^7E\021\312\211a\001`-\302\276\212"
 351      D25E3745 
 351      11CA8961 
 351      01602DC2 
 351      BE8A
 352 0a6d 63D3B076 		.ascii	"c\323\260vp%\011\207\023O\367O\271!\037\337e,\223\332"
 352      70250987 
 352      134FF74F 
 352      B9211FDF 
 352      652C93DA 
 353 0a81 677F99D9 		.ascii	"g\177\231\331\3072\011\006 \013\310\354\267o\014sK\301"
 353      C7320906 
 353      200BC8EC 
 353      B76F0C73 
 353      4BC1
 354 0a93 76EA967E 		.ascii	"v\352\226~\245[\342\371\264\203\006\300:\366\006gF\002"
 354      A55BE2F9 
 354      B48306C0 
 354      3AF60667 
 354      4602
 355 0aa5 D00701E8 		.ascii	"\320\007\001\350\345\016&5\020q\373\001\306\027\250"
 355      E50E2635 
 355      1071FB01 
 355      C617A8
 356 0ab4 4AE8FE48 		.ascii	"J\350\376HV\207\200\253\031r\250\277\252\217O\264.\321"
 356      568780AB 
 356      1972A8BF 
 356      AA8F4FB4 
 356      2ED1
 357 0ac6 2961FFBE 		.ascii	")a\377\276\030-\257\010\262\031x{j\252\303\03173\342"
 357      182DAF08 
 357      B219787B 
 357      6AAAC319 
 357      3733E2
 358 0ad9 82E7995B 		.ascii	"\202\347\231[1\356\240\310\337\317\336\215\032\363@"
 358      31EEA0C8 
 358      DFCFDE8D 
 358      1AF340
 359 0ae8 3ECBA04A 		.ascii	">\313\240J\264\313\370\177\362\317\327\227\034\340{"
 359      B4CBF87F 
 359      F2CFD797 
 359      1CE07B
 360 0af7 39BBE303 		.ascii	"9\273\343\003u\244\325\222b\362\365\261~\340\266\257"
 360      75A4D592 
 360      62F2F5B1 
 360      7EE0B6AF 
 361 0b07 2F73C9F3 		.ascii	"/s\311\363\023\272\272\307\314%d\336\370\014\346\215"
 361      13BABAC7 
 361      CC2564DE 
 361      F80CE68D 
 362 0b17 B7E52E59 		.ascii	"\267\345.Yp\224y\267 \363n\222\314\033\024\330\020b"
 362      709479B7 
ARM GAS  /tmp/cc6h3xZD.s 			page 28


 362      20F36E92 
 362      CC1B14D8 
 362      1062
 363 0b29 780AF645 		.ascii	"x\012\366E\207\260\017J\006H\002H\0048\010\220\000p"
 363      87B00F4A 
 363      06480248 
 363      04380890 
 363      0070
 364 0b3b 00603FC0 		.ascii	"\000`?\300>\200\275\000f\200Y\310\304\011\200\021\200"
 364      3E80BD00 
 364      668059C8 
 364      C4098011 
 364      80
 365 0b4c 7B007701 		.ascii	"{\000w\001\356p\307\261\024I\331\373m\226}\320\335\206"
 365      EE70C7B1 
 365      1449D9FB 
 365      6D967DD0 
 365      DD86
 366 0b5e 041BE56E 		.ascii	"\004\033\345n\331&\324\363VoFMf\376\303\266\266\014"
 366      D926D4F3 
 366      566F464D 
 366      66FEC3B6 
 366      B60C
 367 0b70 2DAAFDE9 		.ascii	"-\252\375\351=\234\373}H\207q\373\364\224\275<\363F"
 367      3D9CFB7D 
 367      488771FB 
 367      F494BD3C 
 367      F346
 368 0b82 1599779F 		.ascii	"\025\231w\237e\236\3027s\210m2\242y`9\312}\223\012\276"
 368      659EC237 
 368      73886D32 
 368      A2796039 
 368      CA7D930A 
 369 0b97 3902363F 		.ascii	"9\0026?\002\033\037\310m\034\210;\265!!\322\\\273\022"
 369      021B1FC8 
 369      6D1C883B 
 369      B52121D2 
 369      5CBB12
 370 0baa 3D042D26 		.ascii	"=\004-&\370\020\273\035K\256\306\230B\215\207/R\343"
 370      F810BB1D 
 370      4BAEC698 
 370      428D872F 
 370      52E3
 371 0bbc 2888FE5A 		.ascii	"(\210\376Z5,3zs\2143\032\007\035&\355\353\260\310\023"
 371      352C337A 
 371      738C331A 
 371      071D26ED 
 371      EBB0C813 
 372 0bd0 8F152A90 		.ascii	"\217\025*\220\221\254J\354'\312a\220\374\377\224(f\222"
 372      91AC4AEC 
 372      27CA6190 
 372      FCFF9428 
 372      6692
 373 0be2 C81BAE3C 		.ascii	"\310\033\256<\216\242\211<\011B\"y\256Xg\000\021\202"
 373      8EA2893C 
 373      09422279 
 373      AE586700 
ARM GAS  /tmp/cc6h3xZD.s 			page 29


 373      1182
 374 0bf4 8344B652 		.ascii	"\203D\266R<\205\252\235\342\372\315\300\3714\310x\242"
 374      3C85AA9D 
 374      E2FACDC0 
 374      F934C878 
 374      A2
 375 0c05 F050F276 		.ascii	"\360P\362v\236.\304\324\031p\322\224\203\216\316\004"
 375      9E2EC4D4 
 375      1970D294 
 375      838ECE04 
 376 0c15 586C044C 		.ascii	"Xl\004L\363\021\216\005\034\254\243\015q\234\347\301"
 376      F3118E05 
 376      1CACA30D 
 376      719CE7C1 
 377 0c25 62F6B2E6 		.ascii	"b\366\262\346\224\300\232\323\224\2629\261IM|V\320\301"
 377      94C09AD3 
 377      94B239B1 
 377      494D7C56 
 377      D0C1
 378 0c37 3D9B6152 		.ascii	"=\233aRC\\\361TZ\013\022b\311a\357_\341\225?\007TQ\266"
 378      435CF154 
 378      5A0B1262 
 378      C961EF5F 
 378      E1953F07 
 379 0c4e C515213D 		.ascii	"\305\025!=\373\354w\274\347`\302\0027\347\031\234\317"
 379      FBEC77BC 
 379      E760C202 
 379      37E7199C 
 379      CF
 380 0c5f 2B4C998B 		.ascii	"+L\231\213\226\371\212\030\263`\337\030\373\274\267"
 380      96F98A18 
 380      B360DF18 
 380      FBBCB7
 381 0c6e 08D82E6F 		.ascii	"\010\330.of\372\323hj\372\202}\3237D\307\220\015?b\324"
 381      66FAD368 
 381      6AFA827D 
 381      D33744C7 
 381      900D3F62 
 382 0c83 5669E2B3 		.ascii	"Vi\342\263\2400\375\367\265b\323\303\313\3216[\323\243"
 382      A030FDF7 
 382      B562D3C3 
 382      CBD1365B 
 382      D3A3
 383 0c95 65B9B2C7 		.ascii	"e\271\262\307\236~*:\216(\267\007\0229\036\0224\016"
 383      9E7E2A3A 
 383      8E28B707 
 383      12391E12 
 383      340E
 384 0ca7 20166007 		.ascii	" \026`\007\300v\200(\200H\200\010,w\312\236V\032_\322"
 384      C0768028 
 384      80488008 
 384      2C77CA9E 
 384      561A5FD2 
 385 0cbb 69634028 		.ascii	"ic@(a\342\360I:\021+\353M\333\277\216\272\271\211r\336"
 385      61E2F049 
 385      3A112BEB 
 385      4DDBBF8E 
ARM GAS  /tmp/cc6h3xZD.s 			page 30


 385      BAB98972 
 386 0cd0 82B56887 		.ascii	"\202\265h\207cZy\361n\305\362\342\205\201\213\372\307"
 386      635A79F1 
 386      6EC5F2E2 
 386      85818BFA 
 386      C7
 387 0ce1 1EA8DC78 		.ascii	"\036\250\334xR\271q\300\221\220\023\203c\300\340m`X"
 387      52B971C0 
 387      91901383 
 387      63C0E06D 
 387      6058
 388 0cf3 3496575F 		.ascii	"4\226W_\362\231M\007Nn%\032\220\005\366NNo\257\177P"
 388      F2994D07 
 388      4E6E251A 
 388      9005F64E 
 388      4E6FAF7F 
 389 0d08 7A4BB713 		.ascii	"zK\267\023\3515$;\247\020\243\265V\211m\236w\035E$\330"
 389      E935243B 
 389      A710A3B5 
 389      56896D9E 
 389      771D4524 
 390 0d1d 40633337 		.ascii	"@c37\241\201\334T\301\003Iv\326\366~\235\227\366\213"
 390      A181DC54 
 390      C1034976 
 390      D6F67E9D 
 390      97F68B
 391 0d30 3EDD097E 		.ascii	">\335\011~\332\367r~\332\005\244\222\237v2?9\352\202"
 391      DAF7727E 
 391      DA05A492 
 391      9F76323F 
 391      39EA82
 392 0d43 6837B847 		.ascii	"h7\270Gj\204bJ~T\263\205\244$a\265_J\311q\332\263\305"
 392      6A84624A 
 392      7E54B385 
 392      A42461B5 
 392      5F4AC971 
 393 0d5a E7F0EFCB 		.ascii	"\347\360\357\313'\231%\360\244;\360BC\210S\032\371\203"
 393      279925F0 
 393      A43BF042 
 393      4388531A 
 393      F983
 394 0d6c 8E989DF0 		.ascii	"\216\230\235\360u\324e\21549\010\355A\307\264\314\335"
 394      75D4658D 
 394      343908ED 
 394      41C7B4CC 
 394      DD
 395 0d7d 298DD4DD 		.ascii	")\215\324\335@\263x*\330^\357\235`\266l\306tI\236\304"
 395      40B3782A 
 395      D85EEF9D 
 395      60B66CC6 
 395      74499EC4 
 396 0d91 AB862F54 		.ascii	"\253\206/TY\315$\012\262\331o\275\2739\367?\350\242"
 396      59CD240A 
 396      B2D96FBD 
 396      BB39F73F 
 396      E8A2
 397 0da3 FA843DDA 		.ascii	"\372\204=\332\267%\322|FJ\026\305\247\354\221\312B\230"
ARM GAS  /tmp/cc6h3xZD.s 			page 31


 397      B725D27C 
 397      464A16C5 
 397      A7EC91CA 
 397      4298
 398 0db5 B8838710 		.ascii	"\270\203\207\020\326](\307\266r\027\317\301\247XK%\333"
 398      D65D28C7 
 398      B67217CF 
 398      C1A7584B 
 398      25DB
 399 0dc7 ED15F6A9 		.ascii	"\355\025\366\251e\314\257K\375\267\322\226X>\007\347"
 399      65CCAF4B 
 399      FDB7D296 
 399      583E07E7 
 400 0dd7 8B0189FA 		.ascii	"\213\001\211\372\234}jY\014\332\352x\304\310$\361\274"
 400      9C7D6A59 
 400      0CDAEA78 
 400      C4C824F1 
 400      BC
 401 0de8 2DF9E265 		.ascii	"-\371\342eI3cN&2\003\366\251e\314\317\375\234\320\212"
 401      4933634E 
 401      263203F6 
 401      A965CCCF 
 401      FD9CD08A 
 402 0dfc E5A478EE 		.ascii	"\345\244x\356\331\306\267\222=6n\333\357\235\272\023"
 402      D9C6B792 
 402      3D366EDB 
 402      EF9DBA13 
 403 0e0c D1245149 		.ascii	"\321$QIJ\017K\211z[\326;\343O\375*\341\244Y.n\364E\342"
 403      4A0F4B89 
 403      7A5BD63B 
 403      E34FFD2A 
 403      E1A4592E 
 404 0e24 267444DA 		.ascii	"&tD\332\250\035i\226\256a\232id\0363+=\242F\251,\362"
 404      A81D6996 
 404      AE619A69 
 404      641E332B 
 404      3DA246A9 
 405 0e3a 7EB4EC58 		.ascii	"~\264\354X\204\023\3354'\016\276\311^v\\\252\034\276"
 405      8413DD34 
 405      270EBEC9 
 405      5E765CAA 
 405      1CBE
 406 0e4c E5E570E3 		.ascii	"\345\345p\343>\015\223\215\373c\230o\334\017_\270\030"
 406      3E0D938D 
 406      FB63986F 
 406      DC0F5FB8 
 406      18
 407 0e5d EBC437EE 		.ascii	"\353\3047\356\223s6D\363\215{\240B\203\222\300Aq\343"
 407      93733644 
 407      F38D7BA0 
 407      428392C0 
 407      4171E3
 408 0e70 3E1D938D 		.ascii	">\035\223\215\373\355\331\2651\316x\013\333-\211\252"
 408      FBEDD9B5 
 408      31CE780B 
 408      DB2D89AA 
 409 0e80 9AA97695 		.ascii	"\232\251v\225\213#\252H\362N`\371\233\247\302\355wv"
ARM GAS  /tmp/cc6h3xZD.s 			page 32


 409      8B23AA48 
 409      F24E60F9 
 409      9BA7C2ED 
 409      7776
 410 0e92 2226CE32 		.ascii	"\"&\3162\267)\321\\\245&\004\3508\266\212\202S&\352"
 410      B729D15C 
 410      A52604E8 
 410      38B68A82 
 410      5326EA
 411 0ea5 2415D59E 		.ascii	"$\025\325\236\331Q\352\202c\231(;o}s\252\322G]\361Q"
 411      D951EA82 
 411      6399283B 
 411      6F7D73AA 
 411      D2475DF1 
 412 0eba 7A5F48AB 		.ascii	"z_H\253\335\177\002\333\354\000\310\337\353\242\323"
 412      DD7F02DB 
 412      EC00C8DF 
 412      EBA2D3
 413 0ec9 D079A457 		.ascii	"\320y\244W\273|\013\255@\267\225v\236,\350<\247$E*\020"
 413      BB7C0BAD 
 413      40B79576 
 413      9E2CE83C 
 413      A724452A 
 414 0ede DF06D892 		.ascii	"\337\006\330\222[X\356B\245\022\212LL\345\026\025oN"
 414      5B58EE42 
 414      A5128A4C 
 414      4CE51615 
 414      6F4E
 415 0ef0 62AA90EC 		.ascii	"b\252\220\354\313f\027\305w\020\237,~\007\361\011\263"
 415      CB6617C5 
 415      77109F2C 
 415      7E07F109 
 415      B3
 416 0f01 20FDE958 		.ascii	" \375\351X\211\02670uSwe\337u\262n\345u\025\277_\336"
 416      89163730 
 416      75537765 
 416      DF75B26E 
 416      E57515BF 
 417 0f17 4736590A 		.ascii	"G6Y\012\260\006\345Iz|\342xk:\037\314\371\204\357\330"
 417      B006E549 
 417      7A7CE278 
 417      6B3A1FCC 
 417      F984EFD8 
 418 0f2b E4626F94 		.ascii	"\344bo\224\203\351\306W\342\345\276c\002\325\215\260"
 418      83E9C657 
 418      E2E5BE63 
 418      02D58DB0 
 419 0f3b 3AC374CB 		.ascii	":\303t\313\277\327Y\347$\372\256\220]\333\321\227\177"
 419      BFD759E7 
 419      24FAAE90 
 419      5DDBD197 
 419      7F
 420 0f4c 4EEB3874 		.ascii	"N\3538t\3054tEb\252t\336\036\232\305<U\012\0126U\224"
 420      C5347445 
 420      62AA74DE 
 420      1E9AC53C 
 420      550A0A36 
ARM GAS  /tmp/cc6h3xZD.s 			page 33


 421 0f62 0D99B72D 		.ascii	"\015\231\267-\245T(CR7C\214_\011\215\337`\311\255\263"
 421      A5542843 
 421      5237438C 
 421      5F098DDF 
 421      60C9ADB3 
 422 0f76 2EB8D4DD 		.ascii	".\270\324\335\341;\036e\012\237e\212\355k\332y\320]"
 422      E13B1E65 
 422      0A9F658A 
 422      ED6BDA79 
 422      D05D
 423 0f88 AE58B5E2 		.ascii	"\256X\265\342m_9U\254LT,zs\326\247\326\024\326%\360"
 423      6D5F3955 
 423      AC4C542C 
 423      7A73D6A7 
 423      D614D625 
 424 0f9d 140622   		.ascii	"\024\006\""
 425 0fa0 542AE955 		.ascii	"T*\351U*\352UA\365\272\221t\245\012\341*\246\327\275"
 425      2AEA5541 
 425      F5BA9174 
 425      A50AE12A 
 425      A6D7BD
 426 0fb3 A2A84CF7 		.ascii	"\242\250L\367\357\245\231S#\310\333\253\377\332s\234"
 426      EFA59953 
 426      23C8DBAB 
 426      FFDA739C 
 427 0fc3 70209EAD 		.ascii	"p \236\255d\343e\242+\011\033t\016\177\017\206\235\276"
 427      64E365A2 
 427      2B091B74 
 427      0E7F0F86 
 427      9DBE
 428 0fd5 D17800E3 		.ascii	"\321x\000\343\253\214\307\370|J\011_\246.\007t\241?"
 428      AB8CC7F8 
 428      7C4A095F 
 428      A62E0774 
 428      A13F
 429 0fe7 2ECE85AF 		.ascii	".\316\205\257R\311\256t\353\330H\253\233\364K\011\023"
 429      52C9AE74 
 429      EBD848AB 
 429      9BF44B09 
 429      13
 430 0ff8 89C20508 		.ascii	"\211\302\005\010\231\005\023\256"
 430      990513AE 
 431 1000 5558FA95 		.ascii	"UX\372\225\007\020\327\354(\213\260\256\344\343l\366"
 431      0710D7EC 
 431      288BB0AE 
 431      E4E36CF6 
 432 1010 B154D226 		.ascii	"\261T\322&\026ykPw\356\231\273\234\357E\374\002\306"
 432      16796B50 
 432      77EE99BB 
 432      9CEF45FC 
 432      02C6
 433 1022 7379BD55 		.ascii	"sy\275U\236`h.}O\370o\233O\232\211\241\227\360Rt\236"
 433      9E60682E 
 433      7D4FF86F 
 433      9B4F9A89 
 433      A197F052 
 434 1038 5B2A0D3D 		.ascii	"[*\015=O-\275L-\355\234\234\256\322\340&f\351\266\301"
ARM GAS  /tmp/cc6h3xZD.s 			page 34


 434      4F2DBD4C 
 434      2DED9C9C 
 434      AED2E026 
 434      66E9B6C1 
 435 104c E8360DB3 		.ascii	"\3506\015\263t\206.\335\323\346\246\235\370;\037\362"
 435      74862EDD 
 435      D3E6A69D 
 435      F83B1FF2 
 436 105c BB88E777 		.ascii	"\273\210\347w\273\322\270'\036\221\373\007F\032\036"
 436      BBD2B827 
 436      1E91FB07 
 436      461A1E
 437 106b BBE15636 		.ascii	"\273\341V6xl02\335\013\3672$\265~[\243\033\036dHn\334"
 437      786C3032 
 437      DD0BF732 
 437      24B57E5B 
 437      A31B1E64 
 438 1082 E6CD188F 		.ascii	"\346\315\030\2173$\302|?\226\276\357\215\374\232\267"
 438      3324C27C 
 438      3F96BEEF 
 438      8DFC9AB7 
 439 1092 C578AC39 		.ascii	"\305x\2549]\203\226\371\372\330\237#_\005\263\232\370"
 439      5D8396F9 
 439      FAD89F23 
 439      5F05B39A 
 439      F8
 440 10a3 ACAC19AA 		.ascii	"\254\254\031\252\245\005\313\346\310dz\337\227KJ\256"
 440      A505CBE6 
 440      C8647ADF 
 440      974B4AAE 
 441 10b3 C976E214 		.ascii	"\311v\342\024\025i\266\214'|\237=\215\032\301\245\015"
 441      1569B68C 
 441      277C9F3D 
 441      8D1AC1A5 
 441      0D
 442 10c4 9C919D39 		.ascii	"\234\221\2359\001\311\362\230'9j<Gu\027j\036\317\316"
 442      01C9F298 
 442      27396A3C 
 442      4775176A 
 442      1ECFCE
 443 10d7 BB22DF65 		.ascii	"\273\"\337e\342\363\342\375Cqd\231q\015F\267J\371HD"
 443      E2F3E2FD 
 443      43716499 
 443      710D46B7 
 443      4AF94844 
 444 10eb 3A9AD9B7 		.ascii	":\232\331\267\201\246\366\264\006IO\017\336\215\361"
 444      81A6F6B4 
 444      06494F0F 
 444      DE8DF1
 445 10fa C0DBB5D4 		.ascii	"\300\333\265\324Kwj\247\206]q<C\246\256$dy\340\004\212"
 445      4B776AA7 
 445      865D713C 
 445      43A6AE24 
 445      6479E004 
 446 110f 08E97BC6 		.ascii	"\010\351{\306,\322\353\315\344[\037\035\241\373\267"
 446      2CD2EBCD 
 446      E45B1F1D 
ARM GAS  /tmp/cc6h3xZD.s 			page 35


 446      A1FBB7
 447 111e 5DD00F3A 		.ascii	"]\320\017:\361K\275\366\272\216\355\276\366\032<]\005"
 447      F14BBDF6 
 447      BA8EEDBE 
 447      F61A3C5D 
 447      05
 448 112f ADBF9A89 		.ascii	"\255\277\232\211\314(\331\227\345\216\353\231\310\335"
 448      CC28D997 
 448      E58EEB99 
 448      C8DD
 449 113d E5A917DC 		.ascii	"\345\251\027\334\220\257\326:\237Kj&\"{\301y=\266]\325"
 449      90AFD63A 
 449      9F4B6A26 
 449      227BC179 
 449      3DB65DD5 
 450 1151 6183BEA1 		.ascii	"a\203\276\241h\320 \302RXV\240\305\327\230\274\354\324"
 450      68D020C2 
 450      525856A0 
 450      C5D798BC 
 450      ECD4
 451 1163 89148C87 		.ascii	"\211\024\214\207\031b\231+\355\321\342\273\024\321\224"
 451      1962992B 
 451      EDD1E2BB 
 451      14D194
 452 1172 761D0F20 		.ascii	"v\035\017 Y\340\243%\373;>\212)\272\230\322\250\017"
 452      59E0A325 
 452      FB3B3E8A 
 452      29BA98D2 
 452      A80F
 453 1184 D418E46E 		.ascii	"\324\030\344n\275\013\202n\301\024\375\016\300\020\300"
 453      BD0B826E 
 453      C114FD0E 
 453      C010C0
 454 1193 3D801179 		.ascii	"=\200\021yrXz\253}\350$\000\006\014H\372\017\342e\262"
 454      72587AAB 
 454      7DE82400 
 454      060C48FA 
 454      0FE265B2 
 455 11a7 F9E8AF9A 		.ascii	"\371\350\257\232\370|t\030\263\005\334\240\375\024a"
 455      F87C7418 
 455      B305DCA0 
 455      FD1461
 456 11b6 D395A76D 		.ascii	"\323\225\247m|zC\302\320\201m\250\035\354\037\334V,"
 456      7C7A43C2 
 456      D0816DA8 
 456      1DEC1FDC 
 456      562C
 457 11c8 4186D9D4 		.ascii	"A\206\331\324\232\357\344\310\366}\372m\331\311&W\366"
 457      9AEFE4C8 
 457      F67DFA6D 
 457      D9C92657 
 457      F6
 458 11d9 BD71133C 		.ascii	"\275q\023<\3602\336\340S\3046:\325\"v\316\330\265\223"
 458      F032DEE0 
 458      53C4363A 
 458      D52276CE 
 458      D8B593
ARM GAS  /tmp/cc6h3xZD.s 			page 36


 459 11ec CDCBF884 		.ascii	"\315\313\370\204f/\235?\015.Z\216\2205\257\350\004\222"
 459      662F9D3F 
 459      0D2E5A8E 
 459      9035AFE8 
 459      0492
 460 11fe 18DDF69D 		.ascii	"\030\335\366\235\300xA\214\217_\230\262h\360S\026\360"
 460      C078418C 
 460      8F5F98B2 
 460      68F05316 
 460      F0
 461 120f F9FCEC79 		.ascii	"\371\374\354yg\034\347A\221\330\242\236y/\234H\021\341"
 461      671CE741 
 461      91D8A29E 
 461      792F9C48 
 461      11E1
 462 1221 F9D44891 		.ascii	"\371\324H\221\306\341;\3601;\231,\326E\020{\257\361"
 462      C6E13BF0 
 462      313B992C 
 462      D645107B 
 462      AFF1
 463 1233 1002F2C0 		.ascii	"\020\002\362\300\266.\026\004\347\326\210\206\003n\210"
 463      B62E1604 
 463      E7D68886 
 463      036E88
 464 1242 6E0C2E13 		.ascii	"n\014.\023c\276\241\213\257\246\304(>q\274\212\003{"
 464      63BEA18B 
 464      AFA6C428 
 464      3E71BC8A 
 464      037B
 465 1254 8B0EF020 		.ascii	"\213\016\360 \211)\362\344E)R\332\241p\363bZ\271\233"
 465      8929F2E4 
 465      452952DA 
 465      A170F362 
 465      5AB99B
 466 1267 0BD88EF4 		.ascii	"\013\330\216\364\023{n\356\355\340n&\246\215\332\327"
 466      137B6EEE 
 466      EDE06E26 
 466      A68DDAD7 
 467 1277 D2CE468F 		.ascii	"\322\316F\217u;\354>\037B\262c\202\254\327 #\036\223"
 467      753BEC3E 
 467      1F42B263 
 467      82ACD720 
 467      231E93
 468 128a 2D318049 		.ascii	"-1\200I\251\035\355\255\313\277\347\202\323X\030\314"
 468      A91DEDAD 
 468      CBBFE782 
 468      D35818CC 
 469 129a C971351E 		.ascii	"\311q5\036\262\306\367\373\344\\\322\370f\200\315\224"
 469      B2C6F7FB 
 469      E45CD2F8 
 469      6680CD94 
 470 12aa E4DC27B2 		.ascii	"\344\334'\262\306g+u\032$\275\204\324\322\312\007o\261"
 470      C6672B75 
 470      1A24BD84 
 470      D4D2CA07 
 470      6FB1
 471 12bc 078C37F9 		.ascii	"\007\2147\371\365@\357\270\205\277\034\036 \217\332"
ARM GAS  /tmp/cc6h3xZD.s 			page 37


 471      F540EFB8 
 471      85BF1C1E 
 471      208FDA
 472 12cb DCC6DD87 		.ascii	"\334\306\335\207<\360Y\226'\331\361\233a\305{\236!]"
 472      3CF05996 
 472      27D9F19B 
 472      61C57B9E 
 472      215D
 473 12dd D193754E 		.ascii	"\321\223uN\270\201\"\256'S.7\320\330\322\367(bt?\352"
 473      B88122AE 
 473      27532E37 
 473      D0D8D2F7 
 473      2862743F 
 474 12f2 E5154D66 		.ascii	"\345\025Mf#\013\240u\204\332\341b\010B\360\274\303{"
 474      230BA075 
 474      84DAE162 
 474      0842F0BC 
 474      C37B
 475 1304 3375B338 		.ascii	"3u\2638\321'\344v&\372\214z\037\333\313\027W7\012\326"
 475      D127E476 
 475      26FA8C7A 
 475      1FDBCB17 
 475      57370AD6 
 476 1318 8B573771 		.ascii	"\213W7q\235\212\325\215\035\352\305\325=\013\325\375"
 476      9D8AD58D 
 476      1DEAC5D5 
 476      3D0BD5FD 
 477 1328 9454F73C 		.ascii	"\224T\367<W\235x2R\355\213\236\203\0077\253}\220\031"
 477      579D7832 
 477      52ED8B9E 
 477      830737AB 
 477      7D9019
 478 133b 600B4014 		.ascii	"`\013@\024\3003E\277[`\331\004\203\026gSJ\202l\243\252"
 478      C03345BF 
 478      5B60D904 
 478      83166753 
 478      4A826CA3 
 479 1350 D25699C5 		.ascii	"\322V\231\305\253\276\244N\305\252\317\016\265\370\344"
 479      ABBEA44E 
 479      C5AACF0E 
 479      B5F8E4
 480 135f 1C1A3B70 		.ascii	"\034\032;pW\215\333Y\002]\276\335\370\256,\177t\211"
 480      578DDB59 
 480      025DBEDD 
 480      F8AE2C7F 
 480      7489
 481 1371 F3A438B7 		.ascii	"\363\2448\267\301\350\255jk\376\020\005\035Y\035\015"
 481      C1E8AD6A 
 481      6BFE1005 
 481      1D591D0D 
 482 1381 96BEACD5 		.ascii	"\226\276\254\325 \274y2\015\036f7YrT\245\226}\033\217"
 482      20BC7932 
 482      0D1E6637 
 482      597254A5 
 482      967D1B8F 
 483 1395 B2F3C9BD 		.ascii	"\262\363\311\275\335\375\236x\214!w\263\333\3320\236"
 483      DDFD9E78 
ARM GAS  /tmp/cc6h3xZD.s 			page 38


 483      8C2177B3 
 483      DBDA309E 
 484 13a5 622AEEA9 		.ascii	"b*\356\251\035{\333a\247\331\255v\370k\233\2467\350"
 484      1D7BDB61 
 484      A7D9AD76 
 484      F86B9BA6 
 484      37E8
 485 13b7 7BFA5D6A 		.ascii	"{\372]j\015\332\251^\324hpST\341-\204\340\321ewB\240"
 485      0DDAA95E 
 485      D4687053 
 485      54E12D84 
 485      E0D16577 
 486 13cd 42B1DCA8 		.ascii	"B\261\334\250x\220\020\247\226o\214/\214\351\022\330"
 486      789010A7 
 486      966F8C2F 
 486      8CE912D8 
 487 13dd AE12E1BD 		.ascii	"\256\022\341\275\003x\307\252_\260#:\256'A\216U\006"
 487      0378C7AA 
 487      5FB0233A 
 487      AE27418E 
 487      5506
 488 13ef 994C5FD3 		.ascii	"\231L_\323\356\264;\343\024O\366{\231\346\351L,\006"
 488      EEB43BE3 
 488      144FF67B 
 488      99E6E94C 
 488      2C06
 489 1401 C232E701 		.ascii	"\3022\347\001\213\243}\300t\217\244x\254\332\361\354"
 489      8BA37DC0 
 489      748FA478 
 489      ACDAF1EC 
 490 1411 652FE868 		.ascii	"e/\350hO\337\005\301\245!os$\2539\326P\351\034Lw\217"
 490      4FDF05C1 
 490      A5216F73 
 490      24AB39D6 
 490      50E91C4C 
 491 1427 EF499340 		.ascii	"\357I\223@\317A\336&\303\321\032R\333\032J\352\241\251"
 491      CF41DE26 
 491      C3D11A52 
 491      DB1A4AEA 
 491      A1A9
 492 1439 45F4D9AE 		.ascii	"E\364\331\256f\264V\311W\260\"\021\201:\356\217\204"
 492      66B456C9 
 492      57B02211 
 492      813AEE8F 
 492      84
 493 144a 982CD5EB 		.ascii	"\230,\325\3538c\353V\373\202\355\006\301\243?\020Z\322"
 493      3863EB56 
 493      FB82ED06 
 493      C1A33F10 
 493      5AD2
 494 145c ADDA39AD 		.ascii	"\255\3329\255\265/\311\267L\230SZ\222h\265$/\252\026"
 494      B52FC9B7 
 494      4C98535A 
 494      9268B524 
 494      2FAA16
 495 146f B2F5DACD 		.ascii	"\262\365\332\315{/\231\362\325c\033%\035n\262\327\202"
 495      7B2F99F2 
ARM GAS  /tmp/cc6h3xZD.s 			page 39


 495      D5631B25 
 495      1D6EB2D7 
 495      82
 496 1480 C935C4E4 		.ascii	"\3115\304\344\030n\027q`\"8p?d\355A\200$\200\004\200"
 496      186E1771 
 496      60223870 
 496      3F64ED41 
 496      80248004 
 497 1495 035687A2 		.ascii	"\003V\207\242\312-QS\036\370\014\013[o\336\3154y\377"
 497      CA2D5153 
 497      1EF80C0B 
 497      5B6FDECD 
 497      3479FF
 498 14a8 0D3A3449 		.ascii	"\015:4I\352\3470\260:$\205.yq\375X%\247\200\264\227"
 498      EAE730B0 
 498      3A24852E 
 498      7971FD58 
 498      25A780B4 
 499 14bd 94BC636C 		.ascii	"\224\274cl8\206\254\231\006\330\026\343\314\365(X\015"
 499      3886AC99 
 499      06D816E3 
 499      CCF52858 
 499      0D
 500 14ce 5259D57C 		.ascii	"RY\325|)!rU\221+\360}DM\226\022\307n\237\035\322\340"
 500      29217255 
 500      912BF07D 
 500      444D9612 
 500      C76E9F1D 
 501 14e4 324FF666 		.ascii	"2O\366f\277{\367\264 _\275\220\216!-A\216\252\025\253"
 501      BF7BF7B4 
 501      205FBD90 
 501      8E212D41 
 501      8EAA15AB 
 502 14f8 97A2E6FC 		.ascii	"\227\242\346\374y\272L#\253\227\276\337\036=NW/@\204"
 502      79BA4C23 
 502      AB97BEDF 
 502      1E3D4E57 
 502      2F4084
 503 150b 52D5B6AB 		.ascii	"R\325\266\253\027\270B\2669\250\310\231\322\370H7\\"
 503      17B842B6 
 503      39A8C899 
 503      D2F84837 
 503      5C
 504 151c C5449ECC 		.ascii	"\305D\236\314z\264\317\011w2\344~{\313\035W\334\313"
 504      7AB4CF09 
 504      7732E47E 
 504      7BCB1D57 
 504      DCCB
 505 152e 90B9E19C 		.ascii	"\220\271\341\234\333Z\305\373\323\253\212\337\204\237"
 505      DB5AC5FB 
 505      D3AB8ADF 
 505      849F
 506 153c 508BEF4F 		.ascii	"P\213\357O\023\032bJ\005<\302\206\265?;^\357\211G)\342"
 506      131A624A 
 506      053CC286 
 506      B53F3B5E 
 506      EF894729 
ARM GAS  /tmp/cc6h3xZD.s 			page 40


 507 1551 BCEBF685 		.ascii	"\274\353\366\205\036W\226\340|\302\320\337\375\341\321"
 507      1E5796E0 
 507      7CC2D0DF 
 507      FDE1D1
 508 1560 345A9F30 		.ascii	"4Z\2370\036\035\007E\3178h\344\254u\036\252\326\212"
 508      1E1D0745 
 508      CF3868E4 
 508      AC751EAA 
 508      D68A
 509 1572 C4276D89 		.ascii	"\304'm\211\027\275\017O\256\366b\231&n\335-&\227\261"
 509      17BD0F4F 
 509      AEF66299 
 509      266EDD2D 
 509      2697B1
 510 1585 CEDBEAC1 		.ascii	"\316\333\352\301\250\011\363\014\373\232\310s<\261\232"
 510      A809F30C 
 510      FB9AC873 
 510      3CB19A
 511 1594 E6F819B5 		.ascii	"\346\370\031\265\235W\2736On\025\345EB\220\015i\223"
 511      9D57BB36 
 511      4F6E15E5 
 511      4542900D 
 511      6993
 512 15a6 05A9720A 		.ascii	"\005\251r\012 \023\340\264\2242]\031\327\2070\236d\311"
 512      2013E0B4 
 512      94325D19 
 512      D787309E 
 512      64C9
 513 15b8 DA347BED 		.ascii	"\3324{\355\242\247\265\307\024T\323}\256<`\222#\245"
 513      A2A7B5C7 
 513      1454D37D 
 513      AE3C6092 
 513      23A5
 514 15ca EA99C5A9 		.ascii	"\352\231\305\251j-\311\\\220\363\0222[\236\2647\271"
 514      6A2DC95C 
 514      90F31232 
 514      5B9EB437 
 514      B9
 515 15db 2CE32C2C 		.ascii	",\343,,\016Y\250\034\215\317\332y\252N\371\263\345|"
 515      0E59A81C 
 515      8DCFDA79 
 515      AA4EF9B3 
 515      E57C
 516 15ed B57C425E 		.ascii	"\265|B^`M\212\312\251\214\026\027\305\242\335\021e_"
 516      604D8ACA 
 516      A98C1617 
 516      C5A2DD11 
 516      655F
 517 15ff DE48A297 		.ascii	"\336H\242\227\202g\241Z\276\357R$R\252\007\252\347R"
 517      8267A15A 
 517      BEEF5224 
 517      52AA07AA 
 517      E752
 518 1611 9D90B4A2 		.ascii	"\235\220\264\242\261(\337\226\251P1\367@)\230R\002\232"
 518      B128DF96 
 518      A95031F7 
 518      40299852 
ARM GAS  /tmp/cc6h3xZD.s 			page 41


 518      029A
 519 1623 9F953F1B 		.ascii	"\237\225?\033,\347\267~K\231\036\305/z4T\262p\027\333"
 519      2CE7B77E 
 519      4B991EC5 
 519      2F7A3454 
 519      B27017DB 
 520 1637 9B00B46C 		.ascii	"\233\000\264l\375.\343\004\272\241t\265=N\326I\373x"
 520      FD2EE304 
 520      BAA174B5 
 520      3D4ED649 
 520      FB78
 521 1649 CEF6262F 		.ascii	"\316\366&/\374\234\205\271r /\303\332\223,m,\314\025"
 521      FC9C85B9 
 521      72202FC3 
 521      DA932C6D 
 521      2CCC15
 522 165c 30B84C0A 		.ascii	"0\270L\012s\261,\3146\026\242r0\314\221\221 k\"\365"
 522      73B12CCC 
 522      3616A272 
 522      30CC9191 
 522      206B22F5 
 523 1670 DE612F1E 		.ascii	"\336a/\036^\213\305\341P\225\355\270\270\322\2424g\262"
 523      5E8BC5E1 
 523      5095EDB8 
 523      B8D2A234 
 523      67B2
 524 1682 11924A7E 		.ascii	"\021\222J~u\377\337\203\307a<B\225@\235\306[\211\344"
 524      75FFDF83 
 524      C7613C42 
 524      95409DC6 
 524      5B89E4
 525 1695 6372E537 		.ascii	"cr\3457\202\012\235\243\315\244dW\343\347x\267\027-"
 525      820A9DA3 
 525      CDA46457 
 525      E3E778B7 
 525      172D
 526 16a7 FDA2948E 		.ascii	"\375\242\224\216\303\356\216\377\230\306\242\346\177"
 526      C3EE8EFF 
 526      98C6A2E6 
 526      7F
 527 16b4 4CB3922E 		.ascii	"L\263\222.\235G\006w\355\025\267\200,\244\331AF\310"
 527      9D470677 
 527      ED15B780 
 527      2CA4D941 
 527      46C8
 528 16c6 C45CA0CD 		.ascii	"\304\\\240\315\216\216!\324\273s\356^t\221S\027\276"
 528      8E8E21D4 
 528      BB73EE5E 
 528      74915317 
 528      BE
 529 16d7 887AF3C3 		.ascii	"\210z\363\303\033\263\036`\317\243T\263\245'\372\333"
 529      1BB31E60 
 529      CFA354B3 
 529      A527FADB 
 530 16e7 302755A3 		.ascii	"0'U\243*h\214\347\027Ys\236[s\221Zs\346\346`\241\200"
 530      2A688CE7 
 530      1759739E 
ARM GAS  /tmp/cc6h3xZD.s 			page 42


 530      5B73915A 
 530      73E6E660 
 531 16fd 3399393B 		.ascii	"3\2319;,\227#\310\356P309R\343M\231\220\034\276\304"
 531      2C9723C8 
 531      EE503330 
 531      3952E34D 
 531      99901CBE 
 532 1712 9948C57E 		.ascii	"\231H\305~\2113\271L\231\314\317\366u\271+\362\371\023"
 532      8933B94C 
 532      99CCCFF6 
 532      75B92BF2 
 532      F913
 533 1724 B91BAA59 		.ascii	"\271\033\252Y:\223#\020?\333\233Y\256V\020\223\355'"
 533      3A932310 
 533      3FDB9B59 
 533      AE561093 
 533      ED27
 534 1736 89BA8653 		.ascii	"\211\272\206S\327P\352\235\371\265y\312\362;\254(\252"
 534      D750EA9D 
 534      F9B579CA 
 534      F23BAC28 
 534      AA
 535 1747 5A4E5D4B 		.ascii	"ZN]K\251\273\022o\356Rvp\2729i\245\276\302\251\257P"
 535      A9BB126F 
 535      EE527670 
 535      BA3969A5 
 535      BEC2A9AF 
 536 175c EA2719F9 		.ascii	"\352'\031\371\207\224\177\212D\036%\022u\035\247\256"
 536      87947F8A 
 536      441E2512 
 536      751DA7AE 
 537 176c A3D4CDC3 		.ascii	"\243\324\315\303\343\333\224\277\2569\241\340]\317\251"
 537      E3DB94BF 
 537      AE39A1E0 
 537      5DCFA9
 538 177b EB29F562 		.ascii	"\353)\365b\2278\313]r\225\023_\245\304\025\203\311w"
 538      9738CB5D 
 538      7295135F 
 538      A5C41583 
 538      C977
 539 178d 952E4953 		.ascii	"\225.IS\260n\340\324\015\314\201)\273\233\225.\351W"
 539      B06EE0D4 
 539      0DCC8129 
 539      BB9B952E 
 539      E957
 540 179f 3CA61A39 		.ascii	"<\246\0329u#\245\276\274y\252Vid\227\202\272\211S7Q"
 540      7523A5BE 
 540      BC79AA56 
 540      69649782 
 540      BA895337 
 541 17b4 6AF3E589 		.ascii	"j\363\345\211\313^\370,K\207\372\247\333\0169\3117a"
 541      CB5EF82C 
 541      4B87FAA7 
 541      DB0E39C9 
 541      3761
 542 17c6 C7145B70 		.ascii	"\307\024[p-j\371\306~\354"
 542      2D6AF9C6 
ARM GAS  /tmp/cc6h3xZD.s 			page 43


 542      7EEC
 543 17d0 EEE614C4 		.ascii	"\356\346\024\304\377\214\245\240 \250\236\376\204\310"
 543      FF8CA5A0 
 543      20A89EFE 
 543      84C8
 544 17de 6C8E423E 		.ascii	"l\216B>\204\0205K\325\336\254\226\375UI\253\232l\306"
 544      8410354B 
 544      D5DEAC96 
 544      FD5549AB 
 544      9A6CC6
 545 17f1 D6ED39F6 		.ascii	"\326\3559\366\334\015\3273\261\247c\366g\252\371\037"
 545      DC0DD733 
 545      B1A763F6 
 545      67AAF91F 
 546 1801 A7B4B0DF 		.ascii	"\247\264\260\337\252\230\315G\227Rw\267Il\332\344l\256"
 546      AA98CD47 
 546      975277B7 
 546      496CDAE4 
 546      6CAE
 547 1813 513615E7 		.ascii	"Q6\025\347\206\213\225}\265\\\341\307vnk;\363\343\305"
 547      868B957D 
 547      B55CE1C7 
 547      766E6B3B 
 547      F3E3C5
 548 1826 DD3D2E0A 		.ascii	"\335=.\012\352*E\370;8u\007\245\256\334ynX\355\270\324"
 548      EA2A45F8 
 548      3B387507 
 548      A5AEDC79 
 548      6E58EDB8 
 549 183b 3BC552B7 		.ascii	";\305R\267\260-\370['\237%8\263%\352+\244Me\344\037"
 549      B02DF85B 
 549      279F2538 
 549      B325EA2B 
 549      A44D65E4 
 550 1850 76654BD4 		.ascii	"veK\324\014\262D\265L\264\335v\265\375\273\271.\265"
 550      0CB244B5 
 550      4CB4DD76 
 550      B5FDBBB9 
 550      2EB5
 551 1862 37BAAE26 		.ascii	"7\272\256&\334\272iqS\236\024!\373~\367\366\233\235"
 551      DCBA6971 
 551      539E1421 
 551      FB7EF7F6 
 551      9B9D
 552 1874 15DA762B 		.ascii	"\025\332v+\264\355\341\332\222\243:`\275\316\340\372"
 552      B4EDE1DA 
 552      92A33A60 
 552      BDCEE0FA 
 553 1884 E12F3E7B 		.ascii	"\341/>{m\365\252U*7\177\377\240P\323\333o\371\233\364"
 553      6DF5AA55 
 553      2A377FFF 
 553      A050D3DB 
 553      6FF99BF4 
 554 1898 7EEBC342 		.ascii	"~\353\303B\364~\201\272\320 }\260\337\007!k\364\201"
 554      F47E81BA 
 554      D0207DB0 
 554      DF07216B 
ARM GAS  /tmp/cc6h3xZD.s 			page 44


 554      F481
 555 18aa 81FAC0F7 		.ascii	"\201\372\300\367\015!~\353\002\002\336\324\031B\336"
 555      0D217EEB 
 555      0202DED4 
 555      1942DE
 556 18b9 0C0D0BD5 		.ascii	"\014\015\013\325\277\251\327\255\011z\363G\376\357\274"
 556      BFA9D7AD 
 556      097AF347 
 556      FEEFBC
 557 18c8 F9D6CA55 		.ascii	"\371\326\312U\357nx\333Oq\303/(4 xc\240\336/D\027\260"
 557      EF6E78DB 
 557      4F71C32F 
 557      28342078 
 557      63A0DE2F 
 558 18df 3E2854EF 		.ascii	">(T\357\347\037\250_\253\333\030l\3627m\012\327\033"
 558      E71FA85F 
 558      ABDB186C 
 558      F2376D0A 
 558      D71B
 559 18f1 57AC57B9 		.ascii	"W\254W\271pi\177\370\277\224f\334d\364\3637\232\002"
 559      70697FF8 
 559      BF9466DC 
 559      64F4F337 
 559      9A02
 560 1903 81378870 		.ascii	"\2017\210p\0121\256\3637\375x\305\012?\366?\314\350"
 560      0A31AEF3 
 560      37FD78C5 
 560      0A3FF63F 
 560      CCE8
 561 1915 17101612 		.ascii	"\027\020\026\022\022\026\352\027\036f0\031\375\336\377"
 561      1216EA17 
 561      1E663019 
 561      FDDEFF
 562 1924 F5C7AB3F 		.ascii	"\365\307\253?\376\212\\\013\017\012\326\033\214~\037"
 562      FE8A5C0B 
 562      0F0AD61B 
 562      8C7E1F
 563 1933 AE5EED17 		.ascii	"\256^\355\027\260^\324\320\235\016_o\320\353\002W\275"
 563      B05ED4D0 
 563      9D0E5F6F 
 563      D0EB0257 
 563      BD
 564 1944 636562D2 		.ascii	"ceb\322\033M~\006\223\2371l\243!@/\242\376\344\350o"
 564      1B4D7E06 
 564      939F316C 
 564      A321402F 
 564      A2FEE4E8 
 565 1959 D46FD8A8 		.ascii	"\324o\330\250\017\015\320\373\257\\\371\336\212\000"
 565      0F0DD0FB 
 565      AF5CF9DE 
 565      8A00
 566 1967 D5B7C4EB 		.ascii	"\325\267\304\353\200\002\254\362\327\177\245\017\330"
 566      8002ACF2 
 566      D77FA50F 
 566      D8
 567 1974 68D2BFC2 		.ascii	"h\322\277\302\256\352\214F\275A\032\344\344\377Oaa\301"
 567      AEEA8C46 
ARM GAS  /tmp/cc6h3xZD.s 			page 45


 567      BD411AE4 
 567      E4FF4F61 
 567      61C1
 568 1986 DE4A41C1 		.ascii	"\336JA\301Ak@#J\017\032}\203\216\373R\027d\342z\031"
 568      416B4023 
 568      4A0F1A7D 
 568      838EFB52 
 568      1764E27A 
 569 199b 7FF8527A 		.ascii	"\177\370Rz\031\302\302\310p/\212\350C\310\360\260?\353"
 569      19C2C2C8 
 569      702F8AE8 
 569      43C8F0B0 
 569      3FEB
 570 19ad 43B501EB 		.ascii	"C\265\001\353?6\256\373\265>X\2573\352]\201_p\270!("
 570      3F36AEFB 
 570      B53E58AF 
 570      33EA5D81 
 570      5F70B821 
 571 19c2 4CE3EFBF 		.ascii	"L\343\357\277\221\307\306U<q1\221;p\0141}\025\034d4"
 571      91C7C655 
 571      3C713191 
 571      3B700C31 
 571      7D151C64 
 572 19d7 A943F55F 		.ascii	"\251C\365_\231\234\302\276\014\325\033\234@\373\215"
 572      999CC2BE 
 572      0CD51B9C 
 572      40FB8D
 573 19e6 FA254449 		.ascii	"\372%DI\246\222?\275\240\0167\350\277\360R\\\"\303\301"
 573      A6923FBD 
 573      A00E37E8 
 573      BFF0525C 
 573      22C3C1
 574 19f9 FAAF802F 		.ascii	"\372\257\200/P\323SW}\270>\024\242\265\316]\377\205"
 574      50D35357 
 574      7DB83E14 
 574      A2B5CE5D 
 574      FF85
 575 1a0b 3ED414A2 		.ascii	">\324\024\2423\376\031\356\202\337\351\000\027b)\334"
 575      33FE19EE 
 575      82DFE900 
 575      176229DC 
 576 1a1b F4923127 		.ascii	"\364\2221'\322=\345\210\277\011mt\326\177I\206:\177"
 576      D23DE588 
 576      BF096D74 
 576      D67F4986 
 576      3A7F
 577 1a2d 6902FDC2 		.ascii	"i\002\375\302\341`\324\207\204\343\200P\223\023\200"
 577      E160D487 
 577      84E38050 
 577      931380
 578 1a3c BF09EC04 		.ascii	"\277\011\354\004/\207\350\302\327\207\031\364.F\"\310"
 578      2F87E8C2 
 578      D78719F4 
 578      2E4622C8 
 579 1a4c B8CEE94B 		.ascii	"\270\316\351K\223\311\020\276\224\261\3627\350\327\352"
 579      93C910BE 
 579      94B1F237 
ARM GAS  /tmp/cc6h3xZD.s 			page 46


 579      E8D7EA
 580 1a5b 0D347426 		.ascii	"\0154t&\030\036\266\346O\341\256\372\257\202L\001a\201"
 580      181EB6E6 
 580      4FE1AEFA 
 580      AF824C01 
 580      6181
 581 1a6d 7A6743E0 		.ascii	"zgC\340&\240W\003\211\321\215\371\346\307`\212x4\221"
 581      26A05703 
 581      89D18DF9 
 581      E6C7608A 
 581      783491
 582 1a80 EBFE26A7 		.ascii	"\353\376&\247\265\301\272uF\027S\010\214\000\314h\322"
 582      B5C1BA75 
 582      46175308 
 582      8C00CC68 
 582      D2
 583 1a91 99F4AE26 		.ascii	"\231\364\256&z ,uk\300\305\334\263\357\276\303=KN4F"
 583      7A202C75 
 583      6BC0C5DC 
 583      B3EFBEC3 
 583      3D4B4E34 
 584 1aa6 D39F75C1 		.ascii	"\323\237u\301A\353B\375M?\370\332D]\037\000\006@ \325"
 584      41EB42FD 
 584      4D3FF8DA 
 584      445D1F00 
 584      064020D5 
 585 1aba A1BA10BD 		.ascii	"\241\272\020\275SXp \270?T\377\245\336\200\003L_\011"
 585      53587020 
 585      B83F54FF 
 585      A5DE8003 
 585      4C5F09
 586 1acd C67021D8 		.ascii	"\306p!\330\000a\\\007\265\341o\302\206U\253\000V\012"
 586      00615C07 
 586      B5E16FC2 
 586      8655AB00 
 586      560A
 587 1adf 869F0886 		.ascii	"\206\237\010\206\037\013\206\367\004\303\273\202\341"
 587      1F0B86F7 
 587      04C3BB82 
 587      E1
 588 1aec 4782E11D 		.ascii	"G\202\341\035w\302\224\024;\014z\363\345d\372\177\361"
 588      77C29414 
 588      3B0C7AF3 
 588      E564FA7F 
 588      F1
 589 1afd 5E08C8D5 		.ascii	"^\010\310\325\322\221\001a\241\020:\223\232\244\204"
 589      D2910161 
 589      A1103A93 
 589      9AA484
 590 1b0c 9B35344E 		.ascii	"\23354N!\341\220\276\256\334\237\246\327\344\214!-\305"
 590      21E190BE 
 590      AEDC9FA6 
 590      D7E48C21 
 590      2DC5
 591 1b1e 0A0D586F 		.ascii	"\012\015Xo\014X\037\010\274\276\353\220\000b\010\367"
 591      0C581F08 
 591      BCBEEB90 
ARM GAS  /tmp/cc6h3xZD.s 			page 47


 591      006208F7 
 592 1b2e 7D1C33D8 		.ascii	"}\0343\330d\024K\3241\023\210\367\213\205\030\327\301"
 592      64144BD4 
 592      311388F7 
 592      8B8518D7 
 592      C1
 593 1b3f 7D375A01 		.ascii	"}7Z\001\277\2054\373F\300\372\337\254\017\\\015\312"
 593      BF8534FB 
 593      46C0FADF 
 593      AC0F5C0D 
 593      CA
 594 1b50 9BF49F42 		.ascii	"\233\364\237B\324\202\002\\Lk7\206\006\370\233\376\306"
 594      D482025C 
 594      4C6B3786 
 594      06F89BFE 
 594      C6
 595 1b61 210F9E86 		.ascii	"!\017\236\206\300\307\331\030\364\237\020\347\200\377"
 595      C0C7D918 
 595      F49F10E7 
 595      80FF
 596 1b6f 5D2F2345 		.ascii	"]/#E\016\0046=\355G+\336Y\261J\352l&`\265\326\252\362"
 596      0E04363D 
 596      ED472BDE 
 596      59B14AEA 
 596      6C2660B5 
 597 1b86 A750366E 		.ascii	"\247P6n\254\347\230\364\341\302\227:!`\275&D\007A\245"
 597      ACE798F4 
 597      E1C2973A 
 597      2160BD26 
 597      440741A5 
 598 1b9a 3AE1C035 		.ascii	":\341\3005\264j\210\253\364!\320{\327l\\\347\026\016"
 598      B46A88AB 
 598      F421D07B 
 598      D76C5CE7 
 598      160E
 599 1bac 6A05F883 		.ascii	"j\005\370\203\341\236\362\313\220\235_\230H!9\005\352"
 599      E19EF2CB 
 599      909D5F98 
 599      48213905 
 599      EA
 600 1bbd 834D3A0F 		.ascii	"\203M:\017\270\007\\\364\206/t\301/\212\242)(\204f\""
 600      B8075CF4 
 600      862F74C1 
 600      2F8AA229 
 600      28846622 
 601 1bd1 F191EB17 		.ascii	"\361\221\353\027\334U\244\013|\021d0m$c\201\300\200"
 601      DC55A40B 
 601      7C116430 
 601      6D246381 
 601      C080
 602 1be3 C375062F 		.ascii	"\303u\006/\305\025\177\3237m\211X\035\273\006\353\214"
 602      C5157FD3 
 602      376D8958 
 602      1DBB06EB 
 602      8C
 603 1bf4 2682BB11 		.ascii	"&\202\273\021\355\340\350oz\305\016\031\324\226\201"
 603      EDE0E86F 
ARM GAS  /tmp/cc6h3xZD.s 			page 48


 603      7AC50E19 
 603      D49681
 604 1c03 1C3D800B 		.ascii	"\034=\200\013\261t\023\275\352\022\260\321\000\345k"
 604      B17413BD 
 604      EA12B0D1 
 604      00E56B
 605 1c12 D24A97FC 		.ascii	"\322J\227\374MnV\007\010\246\020\347\260\265k\215z\223"
 605      4D6E5607 
 605      08A610E7 
 605      B0B56B8D 
 605      7A93
 606 1c24 8BC1445B 		.ascii	"\213\301D[\302w\034\033F\362f\211)\304?\000\312r\215"
 606      C2771C1B 
 606      46F26689 
 606      29C43F00 
 606      CA728D
 607 1c37 0132210C 		.ascii	"\0012!\014j\323]r&\224<\213\373r{m\337)\000\012\335"
 607      6AD35D72 
 607      26943C8B 
 607      FB727B6D 
 607      DF29000A 
 608 1c4c E86AD2EB 		.ascii	"\350j\322\353\014\201\320\037\235@\346\306p\027\336"
 608      0C81D01F 
 608      9D40E6C6 
 608      7017DE
 609 1c5b F835849C 		.ascii	"\3705\204\234\020\370C\017\203S\353@\323_\331\343\345"
 609      10F8430F 
 609      8353EB40 
 609      D35FD9E3 
 609      E5
 610 1c6c AF331874 		.ascii	"\2573\030t\233\274l\236\",S?\324\233~\011\365g\0102"
 610      9BBC6C9E 
 610      222C533F 
 610      D49B7E09 
 610      F5670832 
 611 1c80 6DFA9D87 		.ascii	"m\372\235\207x\345S}\360\332\337\375\017\330\265z\354"
 611      78E5537D 
 611      F0DADFFD 
 611      0FD8B57A 
 611      EC
 612              		.text
 613              		.section	.gnu.lto_.symtab.52e048088800b1f1,"",%progbits
 614 0000 72745F74 		.ascii	"rt_test_sequence_007\000"
 614      6573745F 
 614      73657175 
 614      656E6365 
 614      5F303037 
 615 0015 00       		.ascii	"\000"
 616 0016 00       		.ascii	"\000"
 617 0017 00       		.ascii	"\000"
 618 0018 00000000 		.ascii	"\000\000\000\000\000\000\000\000"
 618      00000000 
 619 0020 3E020000 		.ascii	">\002\000\000"
 620 0024 72745F74 		.ascii	"rt_test_sequence_007_array\000"
 620      6573745F 
 620      73657175 
 620      656E6365 
ARM GAS  /tmp/cc6h3xZD.s 			page 49


 620      5F303037 
 621 003f 00       		.ascii	"\000"
 622 0040 00       		.ascii	"\000"
 623 0041 00       		.ascii	"\000"
 624 0042 00000000 		.ascii	"\000\000\000\000\000\000\000\000"
 624      00000000 
 625 004a 43020000 		.ascii	"C\002\000\000"
 626 004e 74657374 		.ascii	"test_step\000"
 626      5F737465 
 626      7000
 627 0058 00       		.ascii	"\000"
 628 0059 02       		.ascii	"\002"
 629 005a 00       		.ascii	"\000"
 630 005b 00000000 		.ascii	"\000\000\000\000\000\000\000\000"
 630      00000000 
 631 0063 BE010000 		.ascii	"\276\001\000\000"
 632 0067 776100   		.ascii	"wa\000"
 633 006a 00       		.ascii	"\000"
 634 006b 02       		.ascii	"\002"
 635 006c 00       		.ascii	"\000"
 636 006d 00000000 		.ascii	"\000\000\000\000\000\000\000\000"
 636      00000000 
 637 0075 C5010000 		.ascii	"\305\001\000\000"
 638 0079 636800   		.ascii	"ch\000"
 639 007c 00       		.ascii	"\000"
 640 007d 02       		.ascii	"\002"
 641 007e 00       		.ascii	"\000"
 642 007f 00000000 		.ascii	"\000\000\000\000\000\000\000\000"
 642      00000000 
 643 0087 1F020000 		.ascii	"\037\002\000\000"
 644 008b 74687265 		.ascii	"threads\000"
 644      61647300 
 645 0093 00       		.ascii	"\000"
 646 0094 02       		.ascii	"\002"
 647 0095 00       		.ascii	"\000"
 648 0096 00000000 		.ascii	"\000\000\000\000\000\000\000\000"
 648      00000000 
 649 009e 22020000 		.ascii	"\"\002\000\000"
 650 00a2 5F746573 		.ascii	"_test_assert_sequence\000"
 650      745F6173 
 650      73657274 
 650      5F736571 
 650      75656E63 
 651 00b8 00       		.ascii	"\000"
 652 00b9 02       		.ascii	"\002"
 653 00ba 00       		.ascii	"\000"
 654 00bb 00000000 		.ascii	"\000\000\000\000\000\000\000\000"
 654      00000000 
 655 00c3 DA000000 		.ascii	"\332\000\000\000"
 656 00c7 74657374 		.ascii	"test_wait_threads\000"
 656      5F776169 
 656      745F7468 
 656      72656164 
 656      7300
 657 00d9 00       		.ascii	"\000"
 658 00da 02       		.ascii	"\002"
 659 00db 00       		.ascii	"\000"
ARM GAS  /tmp/cc6h3xZD.s 			page 50


 660 00dc 00000000 		.ascii	"\000\000\000\000\000\000\000\000"
 660      00000000 
 661 00e4 DC000000 		.ascii	"\334\000\000\000"
 662 00e8 74657374 		.ascii	"test_emit_token\000"
 662      5F656D69 
 662      745F746F 
 662      6B656E00 
 663 00f8 00       		.ascii	"\000"
 664 00f9 02       		.ascii	"\002"
 665 00fa 00       		.ascii	"\000"
 666 00fb 00000000 		.ascii	"\000\000\000\000\000\000\000\000"
 666      00000000 
 667 0103 E0000000 		.ascii	"\340\000\000\000"
 668 0107 63684D73 		.ascii	"chMsgRelease\000"
 668      6752656C 
 668      65617365 
 668      00
 669 0114 00       		.ascii	"\000"
 670 0115 02       		.ascii	"\002"
 671 0116 00       		.ascii	"\000"
 672 0117 00000000 		.ascii	"\000\000\000\000\000\000\000\000"
 672      00000000 
 673 011f A4010000 		.ascii	"\244\001\000\000"
 674 0123 63684D73 		.ascii	"chMsgWait\000"
 674      67576169 
 674      7400
 675 012d 00       		.ascii	"\000"
 676 012e 02       		.ascii	"\002"
 677 012f 00       		.ascii	"\000"
 678 0130 00000000 		.ascii	"\000\000\000\000\000\000\000\000"
 678      00000000 
 679 0138 A7010000 		.ascii	"\247\001\000\000"
 680 013c 63685468 		.ascii	"chThdCreateStatic\000"
 680      64437265 
 680      61746553 
 680      74617469 
 680      6300
 681 014e 00       		.ascii	"\000"
 682 014f 02       		.ascii	"\002"
 683 0150 00       		.ascii	"\000"
 684 0151 00000000 		.ascii	"\000\000\000\000\000\000\000\000"
 684      00000000 
 685 0159 B7010000 		.ascii	"\267\001\000\000"
 686 015d 63684D73 		.ascii	"chMsgSend\000"
 686      6753656E 
 686      6400
 687 0167 00       		.ascii	"\000"
 688 0168 02       		.ascii	"\002"
 689 0169 00       		.ascii	"\000"
 690 016a 00000000 		.ascii	"\000\000\000\000\000\000\000\000"
 690      00000000 
 691 0172 BC010000 		.ascii	"\274\001\000\000"
 692              		.text
 693              		.section	.gnu.lto_.opts,"",%progbits
 694 0000 272D666D 		.ascii	"'-fmath-errno' '-fsigned-zeros' '-ftrapping-math' '"
 694      6174682D 
 694      6572726E 
ARM GAS  /tmp/cc6h3xZD.s 			page 51


 694      6F272027 
 694      2D667369 
 695 0033 2D666E6F 		.ascii	"-fno-trapv' '-fno-openmp' '-fno-openacc' '-mcpu=cor"
 695      2D747261 
 695      70762720 
 695      272D666E 
 695      6F2D6F70 
 696 0066 7465782D 		.ascii	"tex-m4' '-mthumb' '-ggdb' '-O2' '-fomit-frame-point"
 696      6D342720 
 696      272D6D74 
 696      68756D62 
 696      2720272D 
 697 0099 65722720 		.ascii	"er' '-falign-functions=16' '-ffunction-sections' '-"
 697      272D6661 
 697      6C69676E 
 697      2D66756E 
 697      6374696F 
 698 00cc 66646174 		.ascii	"fdata-sections' '-fno-common' '-flto'\000"
 698      612D7365 
 698      6374696F 
 698      6E732720 
 698      272D666E 
 699              		.text
 700              		.comm	__gnu_lto_v1,1,1
 701              		.comm	__gnu_lto_slim,1,1
 702              		.ident	"GCC: (GNU Tools for ARM Embedded Processors) 5.4.1 20160919 (release) [ARM/embedded-5-bran
ARM GAS  /tmp/cc6h3xZD.s 			page 52


DEFINED SYMBOLS
                            *ABS*:00000000 rt_test_sequence_007.c
                            *COM*:00000001 __gnu_lto_v1
                            *COM*:00000001 __gnu_lto_slim

NO UNDEFINED SYMBOLS
