ARM GAS  /tmp/ccBLFvyH.s 			page 1


   1              		.syntax unified
   2              		.cpu cortex-m4
   3              		.fpu softvfp
   4              		.eabi_attribute 20, 1
   5              		.eabi_attribute 21, 1
   6              		.eabi_attribute 23, 3
   7              		.eabi_attribute 24, 1
   8              		.eabi_attribute 25, 1
   9              		.eabi_attribute 26, 1
  10              		.eabi_attribute 30, 2
  11              		.eabi_attribute 34, 1
  12              		.eabi_attribute 18, 4
  13              		.thumb
  14              		.syntax unified
  15              		.file	"stm32_isr.c"
  16              		.text
  17              	.Ltext0:
  18              		.section	.gnu.lto_.profile.51a7cf178961cc1f,"",%progbits
  19 0000 789C6361 		.ascii	"x\234ca`d`e`\000\222K\031U\001\002\224\000\327"
  19      60646065 
  19      6000924B 
  19      19550102 
  19      9400D7
  20              		.text
  21              		.section	.gnu.lto_.icf.51a7cf178961cc1f,"",%progbits
  22 0000 789C6361 		.ascii	"x\234ca`d\000\001>\006\004`bx1c\357GF\306W/?^aa\000"
  22      60640001 
  22      3E060460 
  22      62783163 
  22      EF4746C6 
  23 001b 0033F506 		.ascii	"\0003\365\006\342"
  23      E2
  24              		.text
  25              		.section	.gnu.lto_.jmpfuncs.51a7cf178961cc1f,"",%progbits
  26 0000 789C6361 		.ascii	"x\234ca`d\000\001!\010\005\006L@\314\302\370\227\211"
  26      60640001 
  26      21080506 
  26      4C40CCC2 
  26      F89789
  27 0013 71EBE903 		.ascii	"q\353\351\003\267\330\2770\265230j0.g\224a`\000\211"
  27      B7D8BF30 
  27      B5323330 
  27      6A302E67 
  27      94616000 
  28 0028 3E5D71F8 		.ascii	">]q\3701\027D\224\215q\005H\024\254\370\361\314\247"
  28      31174494 
  28      8D710548 
  28      14ACF8F1 
  28      CCA7
  29 003a BBB821C2 		.ascii	"\273\270!\302\342\214+\301\212\221d\317.\\s\216\015"
  29      E28C2BC1 
  29      8A9164CF 
  29      2E5C738E 
  29      0D
  30 004b 22CBC5B8 		.ascii	"\"\313\305\270\012]v\332\331\211\273\240\262\234\214"
  30      0A5D76DA 
  30      D989BBA0 
ARM GAS  /tmp/ccBLFvyH.s 			page 2


  30      B29C8C
  31 005a ABD165BB 		.ascii	"\253\321e\273~]\357\343\200\310r0\256A\227=yj\372\012"
  31      7E5DEFE3 
  31      80C87230 
  31      AE41973D 
  31      796AFA0A 
  32 006e 1E882C3B 		.ascii	"\036\210,;\343Z\024Y\010\015\243\200\036c\204\370\002"
  32      E35A1459 
  32      080DA380 
  32      1E6384F8 
  32      02
  33 007f 48AF84D2 		.ascii	"H\257\204\322\253\240\364j(\275\006J\257\205\322`\255"
  33      ABA0F46A 
  33      28BD064A 
  33      AF85D260 
  33      AD
  34 0090 0C006333 		.ascii	"\014\000c37\212"
  34      378A
  35              		.text
  36              		.section	.gnu.lto_.inline.51a7cf178961cc1f,"",%progbits
  37 0000 789C6361 		.ascii	"x\234ca`d\000\201f\006\004`b`\220\270\006\024\007\322"
  37      60640081 
  37      66060460 
  37      626090B8 
  37      061407D2 
  38 0014 0C6C0BE4 		.ascii	"\014l\013\344A\024\0033\017X\234x\212\221A\360<\232"
  38      41140333 
  38      0F589C78 
  38      8A9141F0 
  38      3C9A
  39 0026 194CDC20 		.ascii	"\031L\334 abH\006\000\256\316\004\307"
  39      61624806 
  39      00AECE04 
  39      C7
  40              		.text
  41              		.section	.gnu.lto_.pureconst.51a7cf178961cc1f,"",%progbits
  42 0000 789C6361 		.ascii	"x\234ca`d`e```b\220`\224\000\000\000\345\000>"
  42      60646065 
  42      60606062 
  42      90609400 
  42      0000E500 
  43              		.text
  44              		.section	.gnu.lto_irqInit.51a7cf178961cc1f,"",%progbits
  45 0000 789C7DD1 		.ascii	"x\234}\321\315/\003A\024\000\360\367f\245\335\026\341"
  45      CD2F0341 
  45      1400F0F7 
  45      66A5DD16 
  45      E1
  46 0011 E6C0C18D 		.ascii	"\346\300\301\215^\272\264\375\033\334\032\011\356\""
  46      5EBAB4FD 
  46      1BDC1A09 
  46      EE22
  47 001f 2E24A4D2 		.ascii	".$\244\322\355\241\267\035\037\033\342 \034(\"\022\247"
  47      EDA1B71D 
  47      1F1BE220 
  47      1C282212 
  47      A7
ARM GAS  /tmp/ccBLFvyH.s 			page 3


  48 0030 2E4A3F28 		.ascii	".J?(iO\033NH\353(\364\"\232\212\210C\011\027I\325LG"
  48      694F1B4E 
  48      48EB28F4 
  48      229A8A88 
  48      43091749 
  49 0047 227BD997 		.ascii	"\"{\331\227y3\223\2747\2779\274&@\340\021$\000\001v"
  49      793393BC 
  49      37BF39BC 
  49      2640E011 
  49      24000176 
  50 005b 76B24409 		.ascii	"v\262D\011\220\254\026\001fe\202\310/TF\320\010j\370"
  50      90AC1601 
  50      666582C8 
  50      2F5446D0 
  50      086AF8
  51 006e 456A042F 		.ascii	"Ej\004/\026\237s\304\023\247,\036\365\217~j\230\250"
  51      169F73C4 
  51      13A72C1E 
  51      F58F7E6A 
  51      98A8
  52 0080 4B0075D2 		.ascii	"K\000u\322\220\000\343\350\001\326\366\224\376You,\360"
  52      9000E3E8 
  52      01D6F694 
  52      FE596F75 
  52      2CF0
  53 0092 B66E5144 		.ascii	"\266nQD\003\035\374\273\344\220I\353\365yJ\357\373J"
  53      031DFCBB 
  53      E49049EB 
  53      F5794AEF 
  53      FB4A
  54 00a4 3D2E802A 		.ascii	"=.\200*+\362o\336\011\341\247\364\202\272\031\273E\336"
  54      2BF26FDE 
  54      09E1A7F4 
  54      82BA19BB 
  54      45DE
  55 00b6 CEA15CEE 		.ascii	"\316\241\\\356\255\344\324jt\211\322v]\302:a\006\356"
  55      ADE4D46A 
  55      7489D276 
  55      5DC23A61 
  55      06EE
  56 00c8 A3C66B15 		.ascii	"\243\306k\025\343\262\354\376$\272D\030}\200]<uI\002"
  56      E3B2ECFE 
  56      24BA4418 
  56      7D805D3C 
  56      754902
  57 00db 4E6CB6D9 		.ascii	"Nl\266\331\012\207B\270\272\216\031-Bpb\302*l\333\013"
  57      0A8742B8 
  57      BA8E192D 
  57      427062C2 
  57      2A6CDB0B 
  58 00ef 474258FE 		.ascii	"GBX\376\276[\221\205 \343\261U\330\261\027\222B\330"
  58      BE5B9185 
  58      20E3B155 
  58      D8B11792 
  58      42D8
  59 0101 28ACE51D 		.ascii	"(\254\345\035Bpa\312*\354\332\013i!\024\366\022\305"
  59      427061CA 
ARM GAS  /tmp/ccBLFvyH.s 			page 4


  59      2AECDA0B 
  59      692114F6 
  59      12C5
  60 0113 3FC18D19 		.ascii	"?\301\215\031\253\220\262\027N\204P\336\252\344\233"
  60      AB90B217 
  60      4E8450DE 
  60      AAE49B
  61 0122 85D081A7 		.ascii	"\205\320\201\247V!c/d\205\220\2751\037\234B\350\305"
  61      5621632F 
  61      648590BD 
  61      311F9C42 
  61      E8C5
  62 0134 B37FE115 		.ascii	"\263\177\341\025\347\314\363\301\206\300\243\312\336"
  62      E7CCF3C1 
  62      86C0A3CA 
  62      DE
  63 0141 B029B399 		.ascii	"\260)\263\231\373\274^E\254\220\252L\214M)3\241pDU\206"
  63      FBBC5E45 
  63      AC90AA4C 
  63      8C4D2933 
  63      A1704455 
  64 0156 47827E9F 		.ascii	"G\202~\237\330\007\002\321\250\242F\246\375\276\321"
  64      D80702D1 
  64      A8A246A6 
  64      FDBED1
  65 0165 4935EC1D 		.ascii	"I5\354\035\207_\005[\327\261"
  65      875F055B 
  65      D7B1
  66              		.text
  67              		.section	.gnu.lto_irqDeinit.51a7cf178961cc1f,"",%progbits
  68 0000 789C7DD1 		.ascii	"x\234}\321\315/\003A\024\000\360\367f\245\335\026\341"
  68      CD2F0341 
  68      1400F0F7 
  68      66A5DD16 
  68      E1
  69 0011 E6C0C18D 		.ascii	"\346\300\301\215^\272\372\3617\270\211\004w\021\027"
  69      5EBAFAF1 
  69      37B88904 
  69      771117
  70 0020 1252E9F6 		.ascii	"\022R\351\366\320\333\016\272!\016\302\001qt\352\242"
  70      D0DB0EBA 
  70      210EC201 
  70      7174EAA2 
  71 0030 5451497B 		.ascii	"TQI{\332\020\007\244u\224(\"\232\212\210CI9Tj\315\030"
  71      DA1007A4 
  71      75942822 
  71      9A8A8843 
  71      4939546A 
  72 0046 C9DEF665 		.ascii	"\311\336\366ef\336$\357\375\336\034\246\011\020x\004"
  72      66DE24EF 
  72      FDDE1CA6 
  72      09107804 
  73 0056 084098E5 		.ascii	"\010@\230\345N\266Q\002$+E\200Y\231 \362\013\225\021"
  73      4EB65102 
  73      242B4580 
  73      599920F2 
  73      0B9511
ARM GAS  /tmp/ccBLFvyH.s 			page 5


  74 0069 34821A7E 		.ascii	"4\202\032~\222\006\301\323\205\347\034\361%)\213\307"
  74      9206C1D3 
  74      85E71CF1 
  74      25298BC7 
  75 0079 F37A801A 		.ascii	"\363z\200\032&\352\022\200E\376&\001&\321\007\254\355"
  75      26EA1280 
  75      45FE2601 
  75      26D107AC 
  75      ED
  76 008a 29F3B3D6 		.ascii	")\363\263\326\352J\360\266nQD\003]\374\271\364\220I"
  76      EA4AF0B6 
  76      6E514403 
  76      5DFCB9F4 
  76      9049
  77 009c 2D6B9ED2 		.ascii	"-k\236\322\373\276F\217\007\240\312\212\374\231wBx\226"
  77      FBBE468F 
  77      07A0CA8A 
  77      FC997742 
  77      7896
  78 00ae 5E306196 		.ascii	"^0a\226\256\221\267\363A\271\334[\311\2555\350\"\245"
  78      AE91B7F3 
  78      41B9DC5B 
  78      C9AD35E8 
  78      22A5
  79 00c0 EDBA8416 		.ascii	"\355\272\204\026a3p\0335^\253\030geo\215\350\022a\243"
  79      6133701B 
  79      355EAB18 
  79      67656F8D 
  79      E81261A3 
  80 00d4 77B04B97 		.ascii	"w\260K\227$\340\374\256\315Q\357\012}q\271a\264\010"
  80      24E0FCAE 
  80      CD51EF0A 
  80      7D71B961 
  80      B408
  81 00e6 EDC694AD 		.ascii	"\355\306\224\255\037\234\365\236\320K\365\233eYh\031"
  81      1F9CF59E 
  81      D04BF59B 
  81      65596819 
  82 00f6 F76D5D75 		.ascii	"\367m]u\326i\241\327\013\253y\227\320\036<\260\365\207"
  82      D669A1D7 
  82      0BAB7997 
  82      D01E3CB0 
  82      F587
  83 0108 B3CE085D 		.ascii	"\263\316\010]\330J\025\377\265\027\017m]s\326GB\227"
  83      D84A15FF 
  83      B5170F6D 
  83      5D73D647 
  83      4297
  84 011a 372BF966 		.ascii	"7+\371f\241;\360\330\326_\316:+t\366\312\274u\013\335"
  84      A13BF0D8 
  84      D65FCE3A 
  84      2B74F6CA 
  84      BC750BDD 
  85 012e 8B2742BF 		.ascii	"\213'B\277\342\234\371=\370\247yTY?\373I\366\257A\277"
  85      E29CF93D 
  85      F8A77954 
  85      593FFB49 
ARM GAS  /tmp/ccBLFvyH.s 			page 6


  85      F6AF41BF 
  86 0142 5F112BA2 		.ascii	"_\021+\242*\023cS\312L$\032S\225\341\221\201PP\234\375"
  86      2A136353 
  86      CA4C241A 
  86      5395E191 
  86      8150509C 
  87 0157 E1785C51 		.ascii	"\341x\\Qc\323\241\340\350\244\032\365\217\303/\210\245"
  87      63D3A1E0 
  87      E8A41AF5 
  87      8FC32F88 
  87      A5
  88 0168 D4C4     		.ascii	"\324\304"
  89              		.text
  90              		.section	.gnu.lto_.symbol_nodes.51a7cf178961cc1f,"",%progbits
  91 0000 789C55CB 		.ascii	"x\234U\313\315\015\2000\010\206\341\017\352 :)=t\000"
  91      CD0D8030 
  91      0886E10F 
  91      EA203A29 
  91      3D7400
  92 0013 87E810C6 		.ascii	"\207\350\020\3063\211?\007g\320\244s\030\251b\242\\"
  92      33893F07 
  92      67D0A473 
  92      18A962A2 
  92      5C
  93 0024 1EF2121A 		.ascii	"\036\362\022\032\020\006\330\360\304\002\364\033`\214"
  93      1006D8F0 
  93      C402F41B 
  93      608C
  94 0032 B1B332B3 		.ascii	"\261\2632\263\320\257\320\302\302w\001bl-\254,\341\033"
  94      D0AFD0C2 
  94      C2770162 
  94      6C2DAC2C 
  94      E11B
  95 0044 0218793F 		.ascii	"\002\030y?\251\252nq\323\361\230]uK\325\266\373\317"
  95      A9AA6E71 
  95      D3F1985D 
  95      754BD5B6 
  95      FBCF
  96 0056 54B7B8E9 		.ascii	"T\267\270\351\275\273\352\326?\\P\3346\""
  96      BDBBEAD6 
  96      3F5C50DC 
  96      3622
  97              		.text
  98              		.section	.gnu.lto_.refs.51a7cf178961cc1f,"",%progbits
  99 0000 789C6361 		.ascii	"x\234ca`\004B \000\000\0009\000\007"
  99      60044220 
  99      00000039 
  99      0007
 100              		.text
 101              		.section	.gnu.lto_.decls.51a7cf178961cc1f,"",%progbits
 102 0000 789CAD52 		.ascii	"x\234\255RIL\023Q\030~\377L\025\034\253 1\306\203\007"
 102      494C1351 
 102      187EFF4C 
 102      151CAB20 
 102      31C68307 
 103 0014 E24513D3 		.ascii	"\342E\023\323\216,z\326\000\032\017h\342\302\301KS\332"
 103      8E2C7AD6 
ARM GAS  /tmp/ccBLFvyH.s 			page 7


 103      001A0F68 
 103      E2C2C14B 
 103      53DA
 104 0026 512669A7 		.ascii	"Q&i\247\332\031\014$\036\236K\024P\002\306\270\326\003"
 104      DA190C24 
 104      1E9E4B14 
 104      5002C6B8 
 104      D603
 105 0038 51545054 		.ascii	"QTPT@\261\242,\205\003A\0235\256\011Q\260AM\\8\250A"
 105      40B1A22C 
 105      85034113 
 105      35AE0951 
 105      B0414D5C 
 106 004f 0D1AA2FF 		.ascii	"\015\032\242\377{3\355@\2447_\346m\377\373\277\345\237"
 106      7B33ED40 
 106      A4375FE6 
 106      6DFFFBBF 
 106      E59F
 107 0061 F71C0408 		.ascii	"\367\034\004\010k\205\016Bt\\6\341\372\0176\021\347"
 107      6B850E42 
 107      745C36E1 
 107      FA0F3611 
 107      E7
 108 0072 12ECECB4 		.ascii	"\022\354\354\264\215\230\015SH\007\366(\366.\3541\362"
 108      8D980D53 
 108      4807F628 
 108      F62EEC31 
 108      F2
 109 0083 6FEBB0F2 		.ascii	"o\353\260\362\030\266\317\302\336\263\316\004\353\274"
 109      18B6CFC2 
 109      DEB3CE04 
 109      EBBC
 110 0091 6B065C74 		.ascii	"k\006\\t\012\256\337\302\365N\301ES\350M\0120<\330|"
 110      0AAEDFC2 
 110      F54EC145 
 110      53E84D0A 
 110      303CD87C 
 111 00a5 551C1760 		.ascii	"U\034\027`\231\004\314y\006\206n\214uN\3143C,\343\315"
 111      9904CC79 
 111      06866E8C 
 111      754ECC33 
 111      432CE3CD 
 112 00b9 44D33A77 		.ascii	"D\323:w\013\305VO\251 \330\320\247u\337\032\323\304"
 112      0BC5564F 
 112      A920D8D0 
 112      A775DF1A 
 112      D3C4
 113 00cb B93CE9C9 		.ascii	"\271<\351\311\301\326s\214&K\002\007n\277><\373v>n\027"
 113      C1D6738C 
 113      264B0207 
 113      6EBF3E3C 
 113      FB763E6E 
 114 00e0 4A903D29 		.ascii	"J\220=)\010\003\2657\333\347\302r\351\022c\211\0177"
 114      0803B537 
 114      DBE7C272 
 114      E9126389 
 114      0F37
ARM GAS  /tmp/ccBLFvyH.s 			page 8


 115 00f2 3A3B29CD 		.ascii	":;)\315\204\353 \301\025\020\241\031\334\354_-\223p"
 115      84EB20C1 
 115      1510A119 
 115      DCEC5F2D 
 115      9370
 116 0104 ACA2743F 		.ascii	"\254\242t?\255?@\263\006\347\023h\201%p\025\226\020"
 116      AD3F40B3 
 116      06E71368 
 116      81257015 
 116      9610
 117 0116 B806CB99 		.ascii	"\270\006\313\231\033\226\010M\030\274\214ATin<v~\266"
 117      1B96084D 
 117      18BC8C41 
 117      54696E3C 
 117      767EB6
 118 0129 B8971910 		.ascii	"\270\227\031\020\316\334\272\362SJJDj\362[\230D\033"
 118      CEDCBAF2 
 118      534A4A44 
 118      6AF25B98 
 118      441B
 119 013b 4ADCB025 		.ascii	"J\334\260%P1\245F\353\014\032\014\217:\335\317~?r\274"
 119      5031A546 
 119      EB0C1A0C 
 119      8F3ADDCF 
 119      7E3F72BC 
 120 014f 8221C0E2 		.ascii	"\202!\300\342!\223\227\017`\216\300;1;\337\342B\340"
 120      2193970F 
 120      608EC03B 
 120      313BDFE2 
 120      42E0
 121 0161 23B14390 		.ascii	"#\261C\220H\264\366BbI\222d\374\263\360\374\015\361"
 121      48B4F642 
 121      62499264 
 121      FCB3F0FC 
 121      0DF1
 122 0173 C6496C76 		.ascii	"\306Ilv\260@\346\336\002\023\260\366\202-\000\3466\001"
 122      B040E6DE 
 122      0213B0F6 
 122      822D00E6 
 122      3601
 123 0185 98C267DA 		.ascii	"\230\302g\332\265\350l\317\311\232 q\273G>\377\252\003"
 123      B5E86CCF 
 123      C99A2071 
 123      BB473EFF 
 123      AA03
 124 0197 310EFC7A 		.ascii	"1\016\374z'\357G\316\012\213O\362Gp\200f;\240dQ\362"
 124      27EF47CE 
 124      0A8B4FF2 
 124      47708066 
 124      3BA06451 
 125 01ac CF11B805 		.ascii	"\317\021\270\005\213q,u\230\300\221O\015\247\347,m\240"
 125      8B712C75 
 125      98C0914F 
 125      0DA7E72C 
 125      6DA0
 126 01be 0DAD34DE 		.ascii	"\015\2554\336V\347\177\333Ni5\342\034,\015n\332\227"
 126      56E77FDB 
ARM GAS  /tmp/ccBLFvyH.s 			page 9


 126      4E6935E2 
 126      1C2C0D6E 
 126      DA97
 127 01d0 814B36B5 		.ascii	"\201K6\265\303+t\320\001K\021\372\341\335\217qI\214"
 127      C32B74D0 
 127      014B11FA 
 127      E1DD8F71 
 127      498C
 128 01e2 085CB3E6 		.ascii	"\010\\\263\346\320\231\332Y&O\354\371c'\255\337G\351"
 128      D099DA59 
 128      264FECF9 
 128      6327ADDF 
 128      47E9
 129 01f4 1A4E72DB 		.ascii	"\032Nr\333&\271=\225$\312I\"\317G/\010\342E\223\344"
 129      26B93D95 
 129      24CA4922 
 129      CF472F08 
 129      E24593E4 
 130 0208 F058E34B 		.ascii	"\360X\343K\301\301\356\215=\005\264\210\261w\257\373"
 130      C1C1EE8D 
 130      3D05B488 
 130      B177AFFB 
 131 0218 863292B1 		.ascii	"\2062\222\261N\340\301S'O|OKY\341=^\341]\260J\374V]"
 131      4EE0C153 
 131      274F7C4F 
 131      4B59E13D 
 131      5EE15DB0 
 132 0230 F5809518 		.ascii	"\365\200\225\030g\257\371\370\246}\027\016\305\352\201"
 132      67AFF9F8 
 132      A67D170E 
 132      C5EA81
 133 023f 67C11DDB 		.ascii	"g\301\035\333\333\035\356\015\027]\334\327\213\221\356"
 133      DB1DEE0D 
 133      175DDCD7 
 133      8B91EE
 134 024e 2FA2389A 		.ascii	"/\2428\232\332\327\320\313\363y)\035\364r\007=\011\007"
 134      DAD7D0CB 
 134      F379291D 
 134      F472073D 
 134      0907
 135 0260 55D5C723 		.ascii	"U\325\307#\242\351 \3263\340Dy\226\001\335\266zwB=\306"
 135      A2E920D6 
 135      33E04479 
 135      9601DDB6 
 135      7A77423D 
 136 0275 D5E3B563 		.ascii	"\325\343\265c\321\014g\215\375\364\271[\233\277\017"
 136      D10C678D 
 136      FDF4B95B 
 136      9BBF0F
 137 0284 9C3C1B67 		.ascii	"\234<\033g\314>\372\361\375\305Y\323\262{\247e\367["
 137      CC3EFAF1 
 137      FDC559D3 
 137      B27BA765 
 137      F75B
 138 0296 D96C4E5F 		.ascii	"\331lN_\277q[vAN\016\221<\236rU3\362r=\206\"\227\205"
 138      BF715B76 
 138      414E0E91 
ARM GAS  /tmp/ccBLFvyH.s 			page 10


 138      3C9E7255 
 138      33F2723D 
 139 02ae 828AECF7 		.ascii	"\202\212\354\367j\252\022\220\213\202\245\212\337\257"
 139      6AAA1290 
 139      8B82A58A 
 139      DFAF
 140 02bc F8D78683 		.ascii	"\370\327\206\203\362N\237\317\345\015\007]ZHS\\\212"
 140      F24E9FCF 
 140      E50D075D 
 140      5A48535C 
 140      8A
 141 02cd B75475AD 		.ascii	"\267Tu\255\362\344\273rW\346\254\336\235'O;\220U\315"
 141      F2E4BB72 
 141      57E6ACDE 
 141      9D274F3B 
 141      9055CD
 142 02e0 1728F72B 		.ascii	"\027(\367+r\320\353+S5E\366\370\225\035\336\362\200"
 142      72D0EB2B 
 142      533545F6 
 142      F8951DDE 
 142      F280
 143 02f2 E1312A77 		.ascii	"\3411*w)\272\273\214\244'\344\266\377O9\275R\227=\272"
 143      29BABB8C 
 143      A427E4B6 
 143      FF4F39BD 
 143      52973DBA 
 144 0306 E1476ED4 		.ascii	"\341Gn\324HS\303\2737h\252\221\353v\313\346\027\322"
 144      4853C3BB 
 144      3768AA91 
 144      EB76CBE6 
 144      17D2
 145 0318 E5326F40 		.ascii	"\3452o@\336\025\012\033\272\274ekq^\2569\256\313\257"
 145      DE150A1B 
 145      BABC656B 
 145      715EAE39 
 145      AECBAF
 146 032b A8907523 		.ascii	"\250\220u#\210\206T=\354\366\2219\010-TT\004gj{T_\221"
 146      8886543D 
 146      ECF69139 
 146      082D5454 
 146      04676A7B 
 147 0342 E62D0D28 		.ascii	"\346-\015(%\212\317\010\205W\314\314\346\013\005\203"
 147      258ACF08 
 147      8557CCCC 
 147      E60B0583 
 148 0352 214D5EBB 		.ascii	"!M^\273\271\270\240\270Bf t\260\200\315\205\252n\243"
 148      B9B8A0B8 
 148      42662074 
 148      B080CD85 
 148      AA6EA3
 149 0365 FF0293CD 		.ascii	"\377\002\223\315\2465"
 149      A635
 150              		.text
 151              		.section	.gnu.lto_.symtab.51a7cf178961cc1f,"",%progbits
 152 0000 69727149 		.ascii	"irqInit\000"
 152      6E697400 
 153 0008 00       		.ascii	"\000"
ARM GAS  /tmp/ccBLFvyH.s 			page 11


 154 0009 00       		.ascii	"\000"
 155 000a 00       		.ascii	"\000"
 156 000b 00000000 		.ascii	"\000\000\000\000\000\000\000\000"
 156      00000000 
 157 0013 B5000000 		.ascii	"\265\000\000\000"
 158 0017 69727144 		.ascii	"irqDeinit\000"
 158      65696E69 
 158      7400
 159 0021 00       		.ascii	"\000"
 160 0022 00       		.ascii	"\000"
 161 0023 00       		.ascii	"\000"
 162 0024 00000000 		.ascii	"\000\000\000\000\000\000\000\000"
 162      00000000 
 163 002c B7000000 		.ascii	"\267\000\000\000"
 164 0030 6E766963 		.ascii	"nvicEnableVector\000"
 164      456E6162 
 164      6C655665 
 164      63746F72 
 164      00
 165 0041 00       		.ascii	"\000"
 166 0042 02       		.ascii	"\002"
 167 0043 00       		.ascii	"\000"
 168 0044 00000000 		.ascii	"\000\000\000\000\000\000\000\000"
 168      00000000 
 169 004c BC000000 		.ascii	"\274\000\000\000"
 170 0050 6E766963 		.ascii	"nvicDisableVector\000"
 170      44697361 
 170      626C6556 
 170      6563746F 
 170      7200
 171 0062 00       		.ascii	"\000"
 172 0063 02       		.ascii	"\002"
 173 0064 00       		.ascii	"\000"
 174 0065 00000000 		.ascii	"\000\000\000\000\000\000\000\000"
 174      00000000 
 175 006d C0000000 		.ascii	"\300\000\000\000"
 176              		.text
 177              		.section	.gnu.lto_.opts,"",%progbits
 178 0000 272D666D 		.ascii	"'-fmath-errno' '-fsigned-zeros' '-ftrapping-math' '"
 178      6174682D 
 178      6572726E 
 178      6F272027 
 178      2D667369 
 179 0033 2D666E6F 		.ascii	"-fno-trapv' '-fno-openmp' '-fno-openacc' '-mcpu=cor"
 179      2D747261 
 179      70762720 
 179      272D666E 
 179      6F2D6F70 
 180 0066 7465782D 		.ascii	"tex-m4' '-mthumb' '-ggdb' '-O2' '-fomit-frame-point"
 180      6D342720 
 180      272D6D74 
 180      68756D62 
 180      2720272D 
 181 0099 65722720 		.ascii	"er' '-falign-functions=16' '-ffunction-sections' '-"
 181      272D6661 
 181      6C69676E 
 181      2D66756E 
ARM GAS  /tmp/ccBLFvyH.s 			page 12


 181      6374696F 
 182 00cc 66646174 		.ascii	"fdata-sections' '-fno-common' '-flto'\000"
 182      612D7365 
 182      6374696F 
 182      6E732720 
 182      272D666E 
 183              		.text
 184              		.comm	__gnu_lto_v1,1,1
 185              		.comm	__gnu_lto_slim,1,1
 186              		.ident	"GCC: (GNU Tools for ARM Embedded Processors) 5.4.1 20160919 (release) [ARM/embedded-5-bran
ARM GAS  /tmp/ccBLFvyH.s 			page 13


DEFINED SYMBOLS
                            *ABS*:00000000 stm32_isr.c
                            *COM*:00000001 __gnu_lto_v1
                            *COM*:00000001 __gnu_lto_slim

NO UNDEFINED SYMBOLS
